{"contracts/Shop/Game_Shop.sol":{"Game_Shop":{"abi":[{"inputs":[{"internalType":"address","name":"_forwarder","type":"address"},{"internalType":"bytes32","name":"_systemId","type":"bytes32"}],"stateMutability":"nonpayable","type":"constructor"},{"anonymous":false,"inputs":[{"indexed":true,"internalType":"uint256","name":"offerId","type":"uint256"},{"components":[{"internalType":"uint256","name":"id","type":"uint256"},{"internalType":"contract IERC1155","name":"inputCollection","type":"address"},{"internalType":"uint256[]","name":"inputCollectionItemIds","type":"uint256[]"},{"internalType":"uint256[]","name":"inputCollectionItemAmounts","type":"uint256[]"},{"internalType":"contract IERC20","name":"inputCurrency","type":"address"},{"internalType":"uint256","name":"inputCurrencyAmount","type":"uint256"},{"internalType":"contract IERC1155","name":"outputCollection","type":"address"},{"internalType":"uint256[]","name":"outputCollectionItemIds","type":"uint256[]"},{"internalType":"uint256[]","name":"outputCollectionItemAmounts","type":"uint256[]"},{"internalType":"contract IERC20","name":"outputCurrency","type":"address"},{"internalType":"uint256","name":"outputCurrencyAmount","type":"uint256"},{"internalType":"uint256","name":"uses","type":"uint256"},{"internalType":"uint256","name":"maxUses","type":"uint256"},{"internalType":"uint256","name":"lastUpdatedAt","type":"uint256"}],"indexed":false,"internalType":"struct IGame_Shop.Offer","name":"offer","type":"tuple"}],"name":"OfferRemoved","type":"event"},{"anonymous":false,"inputs":[{"indexed":true,"internalType":"uint256","name":"offerId","type":"uint256"},{"components":[{"internalType":"uint256","name":"id","type":"uint256"},{"internalType":"contract IERC1155","name":"inputCollection","type":"address"},{"internalType":"uint256[]","name":"inputCollectionItemIds","type":"uint256[]"},{"internalType":"uint256[]","name":"inputCollectionItemAmounts","type":"uint256[]"},{"internalType":"contract IERC20","name":"inputCurrency","type":"address"},{"internalType":"uint256","name":"inputCurrencyAmount","type":"uint256"},{"internalType":"contract IERC1155","name":"outputCollection","type":"address"},{"internalType":"uint256[]","name":"outputCollectionItemIds","type":"uint256[]"},{"internalType":"uint256[]","name":"outputCollectionItemAmounts","type":"uint256[]"},{"internalType":"contract IERC20","name":"outputCurrency","type":"address"},{"internalType":"uint256","name":"outputCurrencyAmount","type":"uint256"},{"internalType":"uint256","name":"uses","type":"uint256"},{"internalType":"uint256","name":"maxUses","type":"uint256"},{"internalType":"uint256","name":"lastUpdatedAt","type":"uint256"}],"indexed":false,"internalType":"struct IGame_Shop.Offer","name":"offer","type":"tuple"}],"name":"OfferSet","type":"event"},{"anonymous":false,"inputs":[{"indexed":true,"internalType":"uint256","name":"offerId","type":"uint256"},{"components":[{"internalType":"uint256","name":"id","type":"uint256"},{"internalType":"contract IERC1155","name":"inputCollection","type":"address"},{"internalType":"uint256[]","name":"inputCollectionItemIds","type":"uint256[]"},{"internalType":"uint256[]","name":"inputCollectionItemAmounts","type":"uint256[]"},{"internalType":"contract IERC20","name":"inputCurrency","type":"address"},{"internalType":"uint256","name":"inputCurrencyAmount","type":"uint256"},{"internalType":"contract IERC1155","name":"outputCollection","type":"address"},{"internalType":"uint256[]","name":"outputCollectionItemIds","type":"uint256[]"},{"internalType":"uint256[]","name":"outputCollectionItemAmounts","type":"uint256[]"},{"internalType":"contract IERC20","name":"outputCurrency","type":"address"},{"internalType":"uint256","name":"outputCurrencyAmount","type":"uint256"},{"internalType":"uint256","name":"uses","type":"uint256"},{"internalType":"uint256","name":"maxUses","type":"uint256"},{"internalType":"uint256","name":"lastUpdatedAt","type":"uint256"}],"indexed":false,"internalType":"struct IGame_Shop.Offer","name":"offer","type":"tuple"},{"indexed":false,"internalType":"uint256","name":"times","type":"uint256"},{"indexed":false,"internalType":"address","name":"user","type":"address"}],"name":"OfferUsed","type":"event"},{"anonymous":false,"inputs":[{"indexed":true,"internalType":"bytes32","name":"role","type":"bytes32"},{"indexed":true,"internalType":"bytes32","name":"previousAdminRole","type":"bytes32"},{"indexed":true,"internalType":"bytes32","name":"newAdminRole","type":"bytes32"}],"name":"RoleAdminChanged","type":"event"},{"anonymous":false,"inputs":[{"indexed":true,"internalType":"bytes32","name":"role","type":"bytes32"},{"indexed":true,"internalType":"address","name":"account","type":"address"},{"indexed":true,"internalType":"address","name":"sender","type":"address"}],"name":"RoleGranted","type":"event"},{"anonymous":false,"inputs":[{"indexed":true,"internalType":"bytes32","name":"role","type":"bytes32"},{"indexed":true,"internalType":"address","name":"account","type":"address"},{"indexed":true,"internalType":"address","name":"sender","type":"address"}],"name":"RoleRevoked","type":"event"},{"inputs":[],"name":"DEFAULT_ADMIN_ROLE","outputs":[{"internalType":"bytes32","name":"","type":"bytes32"}],"stateMutability":"view","type":"function"},{"inputs":[],"name":"allOfferIds","outputs":[{"internalType":"uint256[]","name":"","type":"uint256[]"}],"stateMutability":"view","type":"function"},{"inputs":[],"name":"allOfferLastUpdates","outputs":[{"internalType":"uint256[][]","name":"","type":"uint256[][]"}],"stateMutability":"view","type":"function"},{"inputs":[],"name":"allOffers","outputs":[{"components":[{"internalType":"uint256","name":"id","type":"uint256"},{"internalType":"contract IERC1155","name":"inputCollection","type":"address"},{"internalType":"uint256[]","name":"inputCollectionItemIds","type":"uint256[]"},{"internalType":"uint256[]","name":"inputCollectionItemAmounts","type":"uint256[]"},{"internalType":"contract IERC20","name":"inputCurrency","type":"address"},{"internalType":"uint256","name":"inputCurrencyAmount","type":"uint256"},{"internalType":"contract IERC1155","name":"outputCollection","type":"address"},{"internalType":"uint256[]","name":"outputCollectionItemIds","type":"uint256[]"},{"internalType":"uint256[]","name":"outputCollectionItemAmounts","type":"uint256[]"},{"internalType":"contract IERC20","name":"outputCurrency","type":"address"},{"internalType":"uint256","name":"outputCurrencyAmount","type":"uint256"},{"internalType":"uint256","name":"uses","type":"uint256"},{"internalType":"uint256","name":"maxUses","type":"uint256"},{"internalType":"uint256","name":"lastUpdatedAt","type":"uint256"}],"internalType":"struct IGame_Shop.Offer[]","name":"","type":"tuple[]"}],"stateMutability":"view","type":"function"},{"inputs":[{"internalType":"bytes32","name":"role","type":"bytes32"}],"name":"getRoleAdmin","outputs":[{"internalType":"bytes32","name":"","type":"bytes32"}],"stateMutability":"view","type":"function"},{"inputs":[{"internalType":"bytes32","name":"_role","type":"bytes32"},{"internalType":"address","name":"_account","type":"address"}],"name":"grantRole","outputs":[],"stateMutability":"nonpayable","type":"function"},{"inputs":[{"internalType":"bytes32","name":"role","type":"bytes32"},{"internalType":"address","name":"account","type":"address"}],"name":"hasRole","outputs":[{"internalType":"bool","name":"","type":"bool"}],"stateMutability":"view","type":"function"},{"inputs":[{"internalType":"address","name":"forwarder","type":"address"}],"name":"isTrustedForwarder","outputs":[{"internalType":"bool","name":"","type":"bool"}],"stateMutability":"view","type":"function"},{"inputs":[{"internalType":"uint256","name":"_offerId","type":"uint256"}],"name":"offer","outputs":[{"components":[{"internalType":"uint256","name":"id","type":"uint256"},{"internalType":"contract IERC1155","name":"inputCollection","type":"address"},{"internalType":"uint256[]","name":"inputCollectionItemIds","type":"uint256[]"},{"internalType":"uint256[]","name":"inputCollectionItemAmounts","type":"uint256[]"},{"internalType":"contract IERC20","name":"inputCurrency","type":"address"},{"internalType":"uint256","name":"inputCurrencyAmount","type":"uint256"},{"internalType":"contract IERC1155","name":"outputCollection","type":"address"},{"internalType":"uint256[]","name":"outputCollectionItemIds","type":"uint256[]"},{"internalType":"uint256[]","name":"outputCollectionItemAmounts","type":"uint256[]"},{"internalType":"contract IERC20","name":"outputCurrency","type":"address"},{"internalType":"uint256","name":"outputCurrencyAmount","type":"uint256"},{"internalType":"uint256","name":"uses","type":"uint256"},{"internalType":"uint256","name":"maxUses","type":"uint256"},{"internalType":"uint256","name":"lastUpdatedAt","type":"uint256"}],"internalType":"struct IGame_Shop.Offer","name":"","type":"tuple"}],"stateMutability":"view","type":"function"},{"inputs":[{"internalType":"uint256","name":"_index","type":"uint256"}],"name":"offerId","outputs":[{"internalType":"uint256","name":"","type":"uint256"}],"stateMutability":"view","type":"function"},{"inputs":[{"internalType":"uint256","name":"_offerId","type":"uint256"}],"name":"offerLastUpdate","outputs":[{"internalType":"uint256[]","name":"","type":"uint256[]"}],"stateMutability":"view","type":"function"},{"inputs":[{"internalType":"address","name":"","type":"address"},{"internalType":"address","name":"","type":"address"},{"internalType":"uint256[]","name":"","type":"uint256[]"},{"internalType":"uint256[]","name":"","type":"uint256[]"},{"internalType":"bytes","name":"","type":"bytes"}],"name":"onERC1155BatchReceived","outputs":[{"internalType":"bytes4","name":"","type":"bytes4"}],"stateMutability":"nonpayable","type":"function"},{"inputs":[{"internalType":"address","name":"","type":"address"},{"internalType":"address","name":"","type":"address"},{"internalType":"uint256","name":"","type":"uint256"},{"internalType":"uint256","name":"","type":"uint256"},{"internalType":"bytes","name":"","type":"bytes"}],"name":"onERC1155Received","outputs":[{"internalType":"bytes4","name":"","type":"bytes4"}],"stateMutability":"nonpayable","type":"function"},{"inputs":[{"internalType":"uint256","name":"_startIndexInclusive","type":"uint256"},{"internalType":"uint256","name":"_limit","type":"uint256"}],"name":"paginateOfferIds","outputs":[{"internalType":"uint256[]","name":"","type":"uint256[]"}],"stateMutability":"view","type":"function"},{"inputs":[{"internalType":"uint256","name":"_startIndexInclusive","type":"uint256"},{"internalType":"uint256","name":"_limit","type":"uint256"}],"name":"paginateOfferLastUpdates","outputs":[{"internalType":"uint256[][]","name":"","type":"uint256[][]"}],"stateMutability":"view","type":"function"},{"inputs":[{"internalType":"uint256","name":"_startIndexInclusive","type":"uint256"},{"internalType":"uint256","name":"_limit","type":"uint256"}],"name":"paginateOffers","outputs":[{"components":[{"internalType":"uint256","name":"id","type":"uint256"},{"internalType":"contract IERC1155","name":"inputCollection","type":"address"},{"internalType":"uint256[]","name":"inputCollectionItemIds","type":"uint256[]"},{"internalType":"uint256[]","name":"inputCollectionItemAmounts","type":"uint256[]"},{"internalType":"contract IERC20","name":"inputCurrency","type":"address"},{"internalType":"uint256","name":"inputCurrencyAmount","type":"uint256"},{"internalType":"contract IERC1155","name":"outputCollection","type":"address"},{"internalType":"uint256[]","name":"outputCollectionItemIds","type":"uint256[]"},{"internalType":"uint256[]","name":"outputCollectionItemAmounts","type":"uint256[]"},{"internalType":"contract IERC20","name":"outputCurrency","type":"address"},{"internalType":"uint256","name":"outputCurrencyAmount","type":"uint256"},{"internalType":"uint256","name":"uses","type":"uint256"},{"internalType":"uint256","name":"maxUses","type":"uint256"},{"internalType":"uint256","name":"lastUpdatedAt","type":"uint256"}],"internalType":"struct IGame_Shop.Offer[]","name":"","type":"tuple[]"}],"stateMutability":"view","type":"function"},{"inputs":[{"internalType":"uint256","name":"_offerId","type":"uint256"}],"name":"removeOffer","outputs":[],"stateMutability":"nonpayable","type":"function"},{"inputs":[{"internalType":"bytes32","name":"role","type":"bytes32"},{"internalType":"address","name":"account","type":"address"}],"name":"renounceRole","outputs":[],"stateMutability":"nonpayable","type":"function"},{"inputs":[{"internalType":"bytes32","name":"role","type":"bytes32"},{"internalType":"address","name":"account","type":"address"}],"name":"revokeRole","outputs":[],"stateMutability":"nonpayable","type":"function"},{"inputs":[{"internalType":"uint256","name":"_offerId","type":"uint256"},{"internalType":"address[2]","name":"_inputOutputCollections","type":"address[2]"},{"internalType":"uint256[][2]","name":"_inputOutputCollectionItemIds","type":"uint256[][2]"},{"internalType":"uint256[][2]","name":"_inputOutputCollectionItemAmounts","type":"uint256[][2]"},{"internalType":"address[2]","name":"_inputOutputCurrency","type":"address[2]"},{"internalType":"uint256[2]","name":"_inputOutputCurrencyAmounts","type":"uint256[2]"},{"internalType":"uint256","name":"_maxUses","type":"uint256"}],"name":"setOffer","outputs":[],"stateMutability":"nonpayable","type":"function"},{"inputs":[{"internalType":"bytes4","name":"interfaceId","type":"bytes4"}],"name":"supportsInterface","outputs":[{"internalType":"bool","name":"","type":"bool"}],"stateMutability":"view","type":"function"},{"inputs":[],"name":"systemId","outputs":[{"internalType":"bytes32","name":"","type":"bytes32"}],"stateMutability":"view","type":"function"},{"inputs":[],"name":"totalOffers","outputs":[{"internalType":"uint256","name":"","type":"uint256"}],"stateMutability":"view","type":"function"},{"inputs":[{"internalType":"address","name":"_newOwner","type":"address"}],"name":"transferOwnershipControl","outputs":[],"stateMutability":"nonpayable","type":"function"},{"inputs":[],"name":"trustedForwarder","outputs":[{"internalType":"address","name":"","type":"address"}],"stateMutability":"view","type":"function"},{"inputs":[{"internalType":"address","name":"_newTrustedForwarder","type":"address"}],"name":"upgradeTrustedForwarder","outputs":[],"stateMutability":"nonpayable","type":"function"},{"inputs":[{"internalType":"uint256","name":"_offerId","type":"uint256"}],"name":"useOffer","outputs":[],"stateMutability":"payable","type":"function"},{"inputs":[{"internalType":"uint256","name":"_offerId","type":"uint256"},{"internalType":"uint256","name":"_times","type":"uint256"}],"name":"useOfferMulti","outputs":[],"stateMutability":"payable","type":"function"},{"inputs":[{"internalType":"address","name":"_currencyAddress","type":"address"},{"internalType":"address","name":"_to","type":"address"}],"name":"withdrawCurrencyTo","outputs":[],"stateMutability":"nonpayable","type":"function"},{"inputs":[{"internalType":"address","name":"_collectionAddress","type":"address"},{"internalType":"uint256[]","name":"_itemIds","type":"uint256[]"},{"internalType":"address","name":"_to","type":"address"}],"name":"withdrawItemsTo","outputs":[],"stateMutability":"nonpayable","type":"function"},{"inputs":[{"internalType":"address","name":"_to","type":"address"}],"name":"withdrawTo","outputs":[],"stateMutability":"nonpayable","type":"function"},{"stateMutability":"payable","type":"receive"}],"evm":{"bytecode":{"linkReferences":{},"object":"60806040523480156200001157600080fd5b5060405162004719380380620047198339810160408190526200003491620001af565b600080546001600160a01b0319166001600160a01b03841617815560018281556003556200006c9062000066620000a3565b620000bf565b6200009b7f5b618ab2fee761c09bf71319707cefa62eccc93dcc483744898e6c3acf45264362000066620000a3565b5050620001eb565b6000620000ba620000cf60201b620023d61760201c565b905090565b620000cb828262000105565b5050565b600080546001600160a01b03163303620000f0575060131936013560601c90565b620000ba620001ab60201b620024261760201c565b60008281526002602090815260408083206001600160a01b038516845290915290205460ff16620000cb5760008281526002602090815260408083206001600160a01b03851684529091529020805460ff1916600117905562000167620000a3565b6001600160a01b0316816001600160a01b0316837f2f8788117e7eff1d82e926ec794901d17c78024a50270940304540a733656f0d60405160405180910390a45050565b3390565b60008060408385031215620001c357600080fd5b82516001600160a01b0381168114620001db57600080fd5b6020939093015192949293505050565b61451e80620001fb6000396000f3fe6080604052600436106101dc5760003560e01c80637da0a877116101025780639d77759c11610095578063bc197c8111610064578063bc197c81146105d7578063cdf191741461064d578063d547741f1461066d578063f23a6e611461068d57600080fd5b80639d77759c1461057a578063a217fddf1461058d578063a9fd8ed1146105a2578063aa2a7eea146105b757600080fd5b80638b839502116100d15780638b839502146104c757806391d14854146104e757806395a0f9c71461053a5780639c66b0631461055a57600080fd5b80637da0a877146104155780637f413af21461046757806382335ab01461048757806389fe7c3b146104a757600080fd5b806349fe03671161017a578063687c08dd11610149578063687c08dd1461038657806372b0d90c146103a857806374d33353146103c8578063761610fc146103e857600080fd5b806349fe036714610300578063500ceb481461031357806351a30c6514610328578063572b6c051461034a57600080fd5b80632f2ff15d116101b65780632f2ff15d1461028857806336568abe146102aa57806339f898bc146102ca5780634252ac3f146102e057600080fd5b806301ffc9a7146101e85780631675187c1461021d578063248a9ca31461024a57600080fd5b366101e357005b600080fd5b3480156101f457600080fd5b506102086102033660046136f6565b6106d2565b60405190151581526020015b60405180910390f35b34801561022957600080fd5b5061023d610238366004613738565b61077a565b604051610214919061378c565b34801561025657600080fd5b5061027a610265366004613738565b60009081526002602052604090206001015490565b604051908152602001610214565b34801561029457600080fd5b506102a86102a33660046137c8565b6107fa565b005b3480156102b657600080fd5b506102a86102c53660046137c8565b6109a2565b3480156102d657600080fd5b5061027a60015481565b3480156102ec57600080fd5b506102a86102fb3660046137f4565b610a72565b6102a861030e366004613738565b610a9a565b34801561031f57600080fd5b5061023d610aba565b34801561033457600080fd5b5061033d610acb565b604051610214919061380f565b34801561035657600080fd5b506102086103653660046137f4565b60005473ffffffffffffffffffffffffffffffffffffffff91821691161490565b34801561039257600080fd5b5061039b610b7b565b60405161021491906139e2565b3480156103b457600080fd5b506102a86103c33660046137f4565b610f10565b3480156103d457600080fd5b5061027a6103e3366004613738565b610f81565b3480156103f457600080fd5b50610408610403366004613738565b611000565b6040516102149190613a55565b34801561042157600080fd5b506000546104429073ffffffffffffffffffffffffffffffffffffffff1681565b60405173ffffffffffffffffffffffffffffffffffffffff9091168152602001610214565b34801561047357600080fd5b506102a8610482366004613a68565b611387565b34801561049357600080fd5b5061039b6104a2366004613aff565b611592565b3480156104b357600080fd5b5061033d6104c2366004613aff565b611971565b3480156104d357600080fd5b506102a86104e2366004613b21565b611a53565b3480156104f357600080fd5b506102086105023660046137c8565b600091825260026020908152604080842073ffffffffffffffffffffffffffffffffffffffff93909316845291905290205460ff1690565b34801561054657600080fd5b506102a8610555366004613738565b611bb2565b34801561056657600080fd5b506102a8610575366004613b5c565b611c3d565b6102a8610588366004613aff565b6121dd565b34801561059957600080fd5b5061027a600081565b3480156105ae57600080fd5b5061027a612263565b3480156105c357600080fd5b506102a86105d23660046137f4565b61226f565b3480156105e357600080fd5b5061061c6105f2366004613d96565b7fbc197c810000000000000000000000000000000000000000000000000000000095945050505050565b6040517fffffffff000000000000000000000000000000000000000000000000000000009091168152602001610214565b34801561065957600080fd5b5061023d610668366004613aff565b6122dd565b34801561067957600080fd5b506102a86106883660046137c8565b6123b1565b34801561069957600080fd5b5061061c6106a8366004613e40565b7ff23a6e610000000000000000000000000000000000000000000000000000000095945050505050565b60007fffffffff0000000000000000000000000000000000000000000000000000000082167f0bcd089100000000000000000000000000000000000000000000000000000000148061076557507fffffffff0000000000000000000000000000000000000000000000000000000082167f4e2312e000000000000000000000000000000000000000000000000000000000145b8061077457506107748261242a565b92915050565b6040805160028082526060808301845292600092919060208301908036833701905050905082816000815181106107b3576107b3613ea5565b60200260200101818152505060066000848152602001908152602001600020600d0154816001815181106107e9576107e9613ea5565b602090810291909101015292915050565b600061080881610502612480565b905060006108387f5b618ab2fee761c09bf71319707cefa62eccc93dcc483744898e6c3acf452643610502612480565b905081806108435750805b6108d4576040517f08c379a000000000000000000000000000000000000000000000000000000000815260206004820152602d60248201527f526f6c65206772616e74696e672072657175697265732061646d696e206f722060448201527f6d616e6167657220726f6c652e0000000000000000000000000000000000000060648201526084015b60405180910390fd5b83158061090057507f5b618ab2fee761c09bf71319707cefa62eccc93dcc483744898e6c3acf45264384145b156109925781610992576040517f08c379a000000000000000000000000000000000000000000000000000000000815260206004820152602b60248201527f4f6e6c792061646d696e2063616e206772616e742061646d696e206f72206d6160448201527f6e6167657220726f6c652e00000000000000000000000000000000000000000060648201526084016108cb565b61099c848461248a565b50505050565b6109aa612480565b73ffffffffffffffffffffffffffffffffffffffff168173ffffffffffffffffffffffffffffffffffffffff1614610a64576040517f08c379a000000000000000000000000000000000000000000000000000000000815260206004820152602f60248201527f416363657373436f6e74726f6c3a2063616e206f6e6c792072656e6f756e636560448201527f20726f6c657320666f722073656c66000000000000000000000000000000000060648201526084016108cb565b610a6e828261257f565b5050565b6000610a7d81612672565b610a8860008361248a565b610a6e6000610a95612480565b61257f565b610aa2612683565b610aad8160016126f6565b610ab76001600355565b50565b6060610ac66004612f47565b905090565b60606000610ad7612263565b67ffffffffffffffff811115610aef57610aef613c0a565b604051908082528060200260200182016040528015610b2257816020015b6060815260200190600190039081610b0d5790505b50905060005b610b30612263565b811015610b7557610b45610238600483612f5b565b828281518110610b5757610b57613ea5565b60200260200101819052508080610b6d90613f03565b915050610b28565b50919050565b60606000610b87612263565b67ffffffffffffffff811115610b9f57610b9f613c0a565b604051908082528060200260200182016040528015610c9a57816020015b610c87604051806101c0016040528060008152602001600073ffffffffffffffffffffffffffffffffffffffff1681526020016060815260200160608152602001600073ffffffffffffffffffffffffffffffffffffffff16815260200160008152602001600073ffffffffffffffffffffffffffffffffffffffff1681526020016060815260200160608152602001600073ffffffffffffffffffffffffffffffffffffffff168152602001600081526020016000815260200160008152602001600081525090565b815260200190600190039081610bbd5790505b50905060005b610ca8612263565b811015610b755760066000610cbe600484612f5b565b8152602080820192909252604090810160002081516101c08101835281548152600182015473ffffffffffffffffffffffffffffffffffffffff1681850152600282018054845181870281018701865281815292959394860193830182828015610d4757602002820191906000526020600020905b815481526020019060010190808311610d33575b5050505050815260200160038201805480602002602001604051908101604052809291908181526020018280548015610d9f57602002820191906000526020600020905b815481526020019060010190808311610d8b575b5050509183525050600482015473ffffffffffffffffffffffffffffffffffffffff9081166020808401919091526005840154604080850191909152600685015490921660608401526007840180548351818402810184019094528084526080909401939091830182828015610e3457602002820191906000526020600020905b815481526020019060010190808311610e20575b5050505050815260200160088201805480602002602001604051908101604052809291908181526020018280548015610e8c57602002820191906000526020600020905b815481526020019060010190808311610e78575b5050509183525050600982015473ffffffffffffffffffffffffffffffffffffffff166020820152600a8201546040820152600b8201546060820152600c8201546080820152600d9091015460a0909101528251839083908110610ef257610ef2613ea5565b60200260200101819052508080610f0890613f03565b915050610ca0565b7f5b618ab2fee761c09bf71319707cefa62eccc93dcc483744898e6c3acf452643610f3a81612672565b60405173ffffffffffffffffffffffffffffffffffffffff8316904780156108fc02916000818181858888f19350505050158015610f7c573d6000803e3d6000fd5b505050565b6000610f8d6004612f67565b8210610ff5576040517f08c379a000000000000000000000000000000000000000000000000000000000815260206004820152601360248201527f496e646578206f7574206f6620626f756e64730000000000000000000000000060448201526064016108cb565b610774600483612f5b565b6110ca604051806101c0016040528060008152602001600073ffffffffffffffffffffffffffffffffffffffff1681526020016060815260200160608152602001600073ffffffffffffffffffffffffffffffffffffffff16815260200160008152602001600073ffffffffffffffffffffffffffffffffffffffff1681526020016060815260200160608152602001600073ffffffffffffffffffffffffffffffffffffffff168152602001600081526020016000815260200160008152602001600081525090565b6110d5600483612f71565b611161576040517f08c379a000000000000000000000000000000000000000000000000000000000815260206004820152602b60248201527f6f66666572496420646f6573206e6f74206578697374206f722068617320626560448201527f656e2072656d6f7665642e00000000000000000000000000000000000000000060648201526084016108cb565b60008281526006602090815260409182902082516101c08101845281548152600182015473ffffffffffffffffffffffffffffffffffffffff1681840152600282018054855181860281018601875281815292959394938601938301828280156111ea57602002820191906000526020600020905b8154815260200190600101908083116111d6575b505050505081526020016003820180548060200260200160405190810160405280929190818152602001828054801561124257602002820191906000526020600020905b81548152602001906001019080831161122e575b5050509183525050600482015473ffffffffffffffffffffffffffffffffffffffff90811660208084019190915260058401546040808501919091526006850154909216606084015260078401805483518184028101840190945280845260809094019390918301828280156112d757602002820191906000526020600020905b8154815260200190600101908083116112c3575b505050505081526020016008820180548060200260200160405190810160405280929190818152602001828054801561132f57602002820191906000526020600020905b81548152602001906001019080831161131b575b5050509183525050600982015473ffffffffffffffffffffffffffffffffffffffff166020820152600a8201546040820152600b8201546060820152600c8201546080820152600d9091015460a09091015292915050565b7f5b618ab2fee761c09bf71319707cefa62eccc93dcc483744898e6c3acf4526436113b181612672565b8460008467ffffffffffffffff8111156113cd576113cd613c0a565b6040519080825280602002602001820160405280156113f6578160200160208202803683370190505b50905060005b858110156114fc578273ffffffffffffffffffffffffffffffffffffffff1662fdd58e3089898581811061143257611432613ea5565b6040517fffffffff0000000000000000000000000000000000000000000000000000000060e087901b16815273ffffffffffffffffffffffffffffffffffffffff90941660048501526020029190910135602483015250604401602060405180830381865afa1580156114a9573d6000803e3d6000fd5b505050506040513d601f19601f820116820180604052508101906114cd9190613f3b565b8282815181106114df576114df613ea5565b6020908102919091010152806114f481613f03565b9150506113fc565b506040517f2eb2c2d600000000000000000000000000000000000000000000000000000000815273ffffffffffffffffffffffffffffffffffffffff831690632eb2c2d69061155790309088908b908b908890600401613f54565b600060405180830381600087803b15801561157157600080fd5b505af1158015611585573d6000803e3d6000fd5b5050505050505050505050565b606060006115a06004612f67565b84106115ad5760006115c2565b836115b86004612f67565b6115c29190613ff7565b90506000838211156115d457836115d6565b815b905060008167ffffffffffffffff8111156115f3576115f3613c0a565b6040519080825280602002602001820160405280156116ee57816020015b6116db604051806101c0016040528060008152602001600073ffffffffffffffffffffffffffffffffffffffff1681526020016060815260200160608152602001600073ffffffffffffffffffffffffffffffffffffffff16815260200160008152602001600073ffffffffffffffffffffffffffffffffffffffff1681526020016060815260200160608152602001600073ffffffffffffffffffffffffffffffffffffffff168152602001600081526020016000815260200160008152602001600081525090565b8152602001906001900390816116115790505b50905060005b82811015611967576006600061171561170d848b61400a565b600490612f5b565b8152602080820192909252604090810160002081516101c08101835281548152600182015473ffffffffffffffffffffffffffffffffffffffff168185015260028201805484518187028101870186528181529295939486019383018282801561179e57602002820191906000526020600020905b81548152602001906001019080831161178a575b50505050508152602001600382018054806020026020016040519081016040528092919081815260200182805480156117f657602002820191906000526020600020905b8154815260200190600101908083116117e2575b5050509183525050600482015473ffffffffffffffffffffffffffffffffffffffff908116602080840191909152600584015460408085019190915260068501549092166060840152600784018054835181840281018401909452808452608090940193909183018282801561188b57602002820191906000526020600020905b815481526020019060010190808311611877575b50505050508152602001600882018054806020026020016040519081016040528092919081815260200182805480156118e357602002820191906000526020600020905b8154815260200190600101908083116118cf575b5050509183525050600982015473ffffffffffffffffffffffffffffffffffffffff166020820152600a8201546040820152600b8201546060820152600c8201546080820152600d9091015460a090910152825183908390811061194957611949613ea5565b6020026020010181905250808061195f90613f03565b9150506116f4565b5095945050505050565b6060600061197f6004612f67565b841061198c5760006119a1565b836119976004612f67565b6119a19190613ff7565b90506000838211156119b357836119b5565b815b905060008167ffffffffffffffff8111156119d2576119d2613c0a565b604051908082528060200260200182016040528015611a0557816020015b60608152602001906001900390816119f05790505b50905060005b8281101561196757611a2361023861170d838a61400a565b828281518110611a3557611a35613ea5565b60200260200101819052508080611a4b90613f03565b915050611a0b565b7f5b618ab2fee761c09bf71319707cefa62eccc93dcc483744898e6c3acf452643611a7d81612672565b6040517f70a08231000000000000000000000000000000000000000000000000000000008152306004820152839073ffffffffffffffffffffffffffffffffffffffff82169063a9059cbb90859083906370a0823190602401602060405180830381865afa158015611af3573d6000803e3d6000fd5b505050506040513d601f19601f82011682018060405250810190611b179190613f3b565b6040517fffffffff0000000000000000000000000000000000000000000000000000000060e085901b16815273ffffffffffffffffffffffffffffffffffffffff909216600483015260248201526044016020604051808303816000875af1158015611b87573d6000803e3d6000fd5b505050506040513d601f19601f82011682018060405250810190611bab919061401d565b5050505050565b7f5b618ab2fee761c09bf71319707cefa62eccc93dcc483744898e6c3acf452643611bdc81612672565b611be7600483612f89565b5060008281526006602052604090819020905183907f6a1a138e164465aabd2f777a1616db53b1e03ebfc20e197765e62fa2b748600b90611c299084906141dd565b60405180910390a26000600b909101555050565b7f5b618ab2fee761c09bf71319707cefa62eccc93dcc483744898e6c3acf452643611c6781612672565b611c7185806141f0565b9050611c7d87806141f0565b905014611d0c576040517f08c379a000000000000000000000000000000000000000000000000000000000815260206004820152602260248201527f496e707574206974656d7320616e6420616d6f756e7473206d69736d6174636860448201527f656400000000000000000000000000000000000000000000000000000000000060648201526084016108cb565b611d1960208601866141f0565b9050611d2860208801886141f0565b905014611db7576040517f08c379a000000000000000000000000000000000000000000000000000000000815260206004820152602360248201527f4f7574707574206974656d7320616e6420616d6f756e7473206d69736d61746360448201527f686564000000000000000000000000000000000000000000000000000000000060648201526084016108cb565b6000604051806101c001604052808a815260200189600060028110611dde57611dde613ea5565b602002016020810190611df191906137f4565b73ffffffffffffffffffffffffffffffffffffffff168152602001611e1689806141f0565b80806020026020016040519081016040528093929190818152602001838360200280828437600092019190915250505090825250602001611e5788806141f0565b80806020026020016040519081016040528093929190818152602001838360200280828437600092019190915250505090825250602090810190611e9d908801886137f4565b73ffffffffffffffffffffffffffffffffffffffff16815285356020820152604001896001602002016020810190611ed591906137f4565b73ffffffffffffffffffffffffffffffffffffffff168152602090810190611eff908a018a6141f0565b80806020026020016040519081016040528093929190818152602001838360200280828437600092019190915250505090825250602090810190611f45908901896141f0565b80806020026020016040519081016040528093929190818152602001838360200280828437600092019190915250505090825250602090810190611f8f90604089019089016137f4565b73ffffffffffffffffffffffffffffffffffffffff1681526020868101358183015260008c81526006909152604090819020600b01549082015260608101859052426080909101529050611fe460048a612f95565b5060008981526006602090815260409182902083518155838201516001820180547fffffffffffffffffffffffff00000000000000000000000000000000000000001673ffffffffffffffffffffffffffffffffffffffff90921691909117905591830151805184939261205f926002850192910190613696565b506060820151805161207b916003840191602090910190613696565b50608082015160048201805473ffffffffffffffffffffffffffffffffffffffff9283167fffffffffffffffffffffffff00000000000000000000000000000000000000009182161790915560a0840151600584015560c084015160068401805491909316911617905560e08201518051612100916007840191602090910190613696565b50610100820151805161211d916008840191602090910190613696565b506101208201516009820180547fffffffffffffffffffffffff00000000000000000000000000000000000000001673ffffffffffffffffffffffffffffffffffffffff909216919091179055610140820151600a820155610160820151600b820155610180820151600c8201556101a090910151600d9091015560405189907ffcb9e66873133101ffdf745da3859e2b3736909576d4d11d6982e3e0e19d9754906121ca908490613a55565b60405180910390a2505050505050505050565b6121e5612683565b6000811161224f576040517f08c379a000000000000000000000000000000000000000000000000000000000815260206004820152601260248201527f74696d65732063616e6e6f7420626520302e000000000000000000000000000060448201526064016108cb565b61225982826126f6565b610a6e6001600355565b6000610ac66004612f67565b7f5b618ab2fee761c09bf71319707cefa62eccc93dcc483744898e6c3acf45264361229981612672565b600080547fffffffffffffffffffffffff00000000000000000000000000000000000000001673ffffffffffffffffffffffffffffffffffffffff84161790555050565b606060006122eb6004612f67565b84106122f857600061230d565b836123036004612f67565b61230d9190613ff7565b905060008382111561231f5783612321565b815b905060008167ffffffffffffffff81111561233e5761233e613c0a565b604051908082528060200260200182016040528015612367578160200160208202803683370190505b50905060005b828110156119675761238261170d828961400a565b82828151811061239457612394613ea5565b6020908102919091010152806123a981613f03565b91505061236d565b6000828152600260205260409020600101546123cc81612672565b610f7c838361257f565b6000805473ffffffffffffffffffffffffffffffffffffffff16330361242157507fffffffffffffffffffffffffffffffffffffffffffffffffffffffffffffffec36013560601c90565b503390565b3390565b60007fffffffff0000000000000000000000000000000000000000000000000000000082167f4e2312e0000000000000000000000000000000000000000000000000000000001480610774575061077482612fa1565b6000610ac66123d6565b600082815260026020908152604080832073ffffffffffffffffffffffffffffffffffffffff8516845290915290205460ff16610a6e57600082815260026020908152604080832073ffffffffffffffffffffffffffffffffffffffff85168452909152902080547fffffffffffffffffffffffffffffffffffffffffffffffffffffffffffffff00166001179055612521612480565b73ffffffffffffffffffffffffffffffffffffffff168173ffffffffffffffffffffffffffffffffffffffff16837f2f8788117e7eff1d82e926ec794901d17c78024a50270940304540a733656f0d60405160405180910390a45050565b600082815260026020908152604080832073ffffffffffffffffffffffffffffffffffffffff8516845290915290205460ff1615610a6e57600082815260026020908152604080832073ffffffffffffffffffffffffffffffffffffffff85168452909152902080547fffffffffffffffffffffffffffffffffffffffffffffffffffffffffffffff00169055612614612480565b73ffffffffffffffffffffffffffffffffffffffff168173ffffffffffffffffffffffffffffffffffffffff16837ff6391f5c32d9c69d2a47ea670b442974b53935d1edc7fd64eb21e047a839171b60405160405180910390a45050565b610ab78161267e612480565b613038565b6002600354036126ef576040517f08c379a000000000000000000000000000000000000000000000000000000000815260206004820152601f60248201527f5265656e7472616e637947756172643a207265656e7472616e742063616c6c0060448201526064016108cb565b6002600355565b612701600483612f71565b61278d576040517f08c379a000000000000000000000000000000000000000000000000000000000815260206004820152602b60248201527f6f66666572496420646f6573206e6f74206578697374206f722068617320626560448201527f656e2072656d6f7665642e00000000000000000000000000000000000000000060648201526084016108cb565b6000828152600660205260409020600c81015415806127bf575080600c01548282600b01546127bc919061400a565b11155b612825576040517f08c379a000000000000000000000000000000000000000000000000000000000815260206004820152601b60248201527f4f6666657220776f756c64207265616368206d617820757365732e000000000060448201526064016108cb565b600181015473ffffffffffffffffffffffffffffffffffffffff161561292057600181015473ffffffffffffffffffffffffffffffffffffffff16632eb2c2d661286d612480565b30846002016128ce866003018054806020026020016040519081016040528092919081815260200182805480156128c357602002820191906000526020600020905b8154815260200190600101908083116128af575b5050505050886130f2565b6040518563ffffffff1660e01b81526004016128ed949392919061425f565b600060405180830381600087803b15801561290757600080fd5b505af115801561291b573d6000803e3d6000fd5b505050505b600581015415612a9f57600481015473ffffffffffffffffffffffffffffffffffffffff1615612a2657600481015473ffffffffffffffffffffffffffffffffffffffff166323b872dd612972612480565b3085856005015461298391906142c7565b6040517fffffffff0000000000000000000000000000000000000000000000000000000060e086901b16815273ffffffffffffffffffffffffffffffffffffffff938416600482015292909116602483015260448201526064016020604051808303816000875af11580156129fc573d6000803e3d6000fd5b505050506040513d601f19601f82011682018060405250810190612a20919061401d565b50612a9f565b818160050154612a3691906142c7565b341015612a9f576040517f08c379a000000000000000000000000000000000000000000000000000000000815260206004820152601660248201527f5061796d656e74206c657373207468616e20636f73740000000000000000000060448201526064016108cb565b600681015473ffffffffffffffffffffffffffffffffffffffff1615612c9e576006810154612ae39073ffffffffffffffffffffffffffffffffffffffff166131b3565b15612bc557600681015473ffffffffffffffffffffffffffffffffffffffff16806308f427c7612b11612480565b84600701612b6f866008018054806020026020016040519081016040528092919081815260200182805480156128c357602002820191906000526020600020908154815260200190600101908083116128af575050505050886130f2565b6040518463ffffffff1660e01b8152600401612b8d93929190614304565b600060405180830381600087803b158015612ba757600080fd5b505af1158015612bbb573d6000803e3d6000fd5b5050505050612c9e565b600681015473ffffffffffffffffffffffffffffffffffffffff16632eb2c2d630612bee612480565b84600701612c4c866008018054806020026020016040519081016040528092919081815260200182805480156128c357602002820191906000526020600020908154815260200190600101908083116128af575050505050886130f2565b6040518563ffffffff1660e01b8152600401612c6b949392919061425f565b600060405180830381600087803b158015612c8557600080fd5b505af1158015612c99573d6000803e3d6000fd5b505050505b600981015473ffffffffffffffffffffffffffffffffffffffff1615612e7b576009810154612ce29073ffffffffffffffffffffffffffffffffffffffff166131b3565b15612da957600981015473ffffffffffffffffffffffffffffffffffffffff16806340c10f19612d10612480565b8585600a0154612d2091906142c7565b6040517fffffffff0000000000000000000000000000000000000000000000000000000060e085901b16815273ffffffffffffffffffffffffffffffffffffffff90921660048301526024820152604401600060405180830381600087803b158015612d8b57600080fd5b505af1158015612d9f573d6000803e3d6000fd5b5050505050612ee0565b600981015473ffffffffffffffffffffffffffffffffffffffff1663a9059cbb612dd1612480565b8484600a0154612de191906142c7565b6040517fffffffff0000000000000000000000000000000000000000000000000000000060e085901b16815273ffffffffffffffffffffffffffffffffffffffff909216600483015260248201526044016020604051808303816000875af1158015612e51573d6000803e3d6000fd5b505050506040513d601f19601f82011682018060405250810190612e75919061401d565b50612ee0565b600a81015415612ee057612e8d612480565b73ffffffffffffffffffffffffffffffffffffffff166108fc8383600a0154612eb691906142c7565b6040518115909202916000818181858888f19350505050158015612ede573d6000803e3d6000fd5b505b8181600b016000828254612ef4919061400a565b909155505042600d820155827f0b6d302aef644f1507eb2eded80719b12d15ced4627cb57a8839251c4cef0e7d8284612f2b612480565b604051612f3a9392919061434f565b60405180910390a2505050565b60606000612f548361326c565b9392505050565b6000612f5483836132c8565b6000610774825490565b60008181526001830160205260408120541515612f54565b6000612f5483836132f2565b6000612f5483836133e5565b60007fffffffff0000000000000000000000000000000000000000000000000000000082167f7965db0b00000000000000000000000000000000000000000000000000000000148061077457507f01ffc9a7000000000000000000000000000000000000000000000000000000007fffffffff00000000000000000000000000000000000000000000000000000000831614610774565b600082815260026020908152604080832073ffffffffffffffffffffffffffffffffffffffff8516845290915290205460ff16610a6e5761307881613434565b613083836020613453565b6040516020016130949291906143b2565b604080517fffffffffffffffffffffffffffffffffffffffffffffffffffffffffffffffe0818403018152908290527f08c379a00000000000000000000000000000000000000000000000000000000082526108cb91600401614433565b606081600103613103575081610774565b6000835167ffffffffffffffff81111561311f5761311f613c0a565b604051908082528060200260200182016040528015613148578160200160208202803683370190505b50905060005b84518110156131ab578385828151811061316a5761316a613ea5565b602002602001015161317c91906142c7565b82828151811061318e5761318e613ea5565b6020908102919091010152806131a381613f03565b91505061314e565b509392505050565b6040517f91d148540000000000000000000000000000000000000000000000000000000081527fc9eb32e43bf5ecbceacf00b32281dfc5d6d700a0db676ea26ccf938a385ac3f76004820152306024820152600090829073ffffffffffffffffffffffffffffffffffffffff8216906391d1485490604401602060405180830381865afa158015613248573d6000803e3d6000fd5b505050506040513d601f19601f82011682018060405250810190612f54919061401d565b6060816000018054806020026020016040519081016040528092919081815260200182805480156132bc57602002820191906000526020600020905b8154815260200190600101908083116132a8575b50505050509050919050565b60008260000182815481106132df576132df613ea5565b9060005260206000200154905092915050565b600081815260018301602052604081205480156133db576000613316600183613ff7565b855490915060009061332a90600190613ff7565b905081811461338f57600086600001828154811061334a5761334a613ea5565b906000526020600020015490508087600001848154811061336d5761336d613ea5565b6000918252602080832090910192909255918252600188019052604090208390555b85548690806133a0576133a0614484565b600190038181906000526020600020016000905590558560010160008681526020019081526020016000206000905560019350505050610774565b6000915050610774565b600081815260018301602052604081205461342c57508154600181810184556000848152602080822090930184905584548482528286019093526040902091909155610774565b506000610774565b606061077473ffffffffffffffffffffffffffffffffffffffff831660145b606060006134628360026142c7565b61346d90600261400a565b67ffffffffffffffff81111561348557613485613c0a565b6040519080825280601f01601f1916602001820160405280156134af576020820181803683370190505b5090507f3000000000000000000000000000000000000000000000000000000000000000816000815181106134e6576134e6613ea5565b60200101907effffffffffffffffffffffffffffffffffffffffffffffffffffffffffffff1916908160001a9053507f78000000000000000000000000000000000000000000000000000000000000008160018151811061354957613549613ea5565b60200101907effffffffffffffffffffffffffffffffffffffffffffffffffffffffffffff1916908160001a90535060006135858460026142c7565b61359090600161400a565b90505b600181111561362d577f303132333435363738396162636465660000000000000000000000000000000085600f16601081106135d1576135d1613ea5565b1a60f81b8282815181106135e7576135e7613ea5565b60200101907effffffffffffffffffffffffffffffffffffffffffffffffffffffffffffff1916908160001a90535060049490941c93613626816144b3565b9050613593565b508315612f54576040517f08c379a000000000000000000000000000000000000000000000000000000000815260206004820181905260248201527f537472696e67733a20686578206c656e67746820696e73756666696369656e7460448201526064016108cb565b8280548282559060005260206000209081019282156136d1579160200282015b828111156136d15782518255916020019190600101906136b6565b506136dd9291506136e1565b5090565b5b808211156136dd57600081556001016136e2565b60006020828403121561370857600080fd5b81357fffffffff0000000000000000000000000000000000000000000000000000000081168114612f5457600080fd5b60006020828403121561374a57600080fd5b5035919050565b600081518084526020808501945080840160005b8381101561378157815187529582019590820190600101613765565b509495945050505050565b602081526000612f546020830184613751565b803573ffffffffffffffffffffffffffffffffffffffff811681146137c357600080fd5b919050565b600080604083850312156137db57600080fd5b823591506137eb6020840161379f565b90509250929050565b60006020828403121561380657600080fd5b612f548261379f565b6000602080830181845280855180835260408601915060408160051b870101925083870160005b82811015613882577fffffffffffffffffffffffffffffffffffffffffffffffffffffffffffffffc0888603018452613870858351613751565b94509285019290850190600101613836565b5092979650505050505050565b60006101c08251845260208301516138bf602086018273ffffffffffffffffffffffffffffffffffffffff169052565b5060408301518160408601526138d782860182613751565b915050606083015184820360608601526138f18282613751565b915050608083015161391b608086018273ffffffffffffffffffffffffffffffffffffffff169052565b5060a083015160a085015260c083015161394d60c086018273ffffffffffffffffffffffffffffffffffffffff169052565b5060e083015184820360e08601526139658282613751565b91505061010080840151858303828701526139808382613751565b92505050610120808401516139ac8287018273ffffffffffffffffffffffffffffffffffffffff169052565b50506101408381015190850152610160808401519085015261018080840151908501526101a09283015192909301919091525090565b6000602080830181845280855180835260408601915060408160051b870101925083870160005b82811015613882577fffffffffffffffffffffffffffffffffffffffffffffffffffffffffffffffc0888603018452613a4385835161388f565b94509285019290850190600101613a09565b602081526000612f54602083018461388f565b60008060008060608587031215613a7e57600080fd5b613a878561379f565b9350602085013567ffffffffffffffff80821115613aa457600080fd5b818701915087601f830112613ab857600080fd5b813581811115613ac757600080fd5b8860208260051b8501011115613adc57600080fd5b602083019550809450505050613af46040860161379f565b905092959194509250565b60008060408385031215613b1257600080fd5b50508035926020909101359150565b60008060408385031215613b3457600080fd5b613b3d8361379f565b91506137eb6020840161379f565b806040810183101561077457600080fd5b6000806000806000806000610140888a031215613b7857600080fd5b87359650613b898960208a01613b4b565b9550606088013567ffffffffffffffff80821115613ba657600080fd5b613bb28b838c01613b4b565b965060808a0135915080821115613bc857600080fd5b50613bd58a828b01613b4b565b945050613be58960a08a01613b4b565b9250613bf48960e08a01613b4b565b9150610120880135905092959891949750929550565b7f4e487b7100000000000000000000000000000000000000000000000000000000600052604160045260246000fd5b604051601f82017fffffffffffffffffffffffffffffffffffffffffffffffffffffffffffffffe016810167ffffffffffffffff81118282101715613c8057613c80613c0a565b604052919050565b600082601f830112613c9957600080fd5b8135602067ffffffffffffffff821115613cb557613cb5613c0a565b8160051b613cc4828201613c39565b9283528481018201928281019087851115613cde57600080fd5b83870192505b84831015613cfd57823582529183019190830190613ce4565b979650505050505050565b600082601f830112613d1957600080fd5b813567ffffffffffffffff811115613d3357613d33613c0a565b613d6460207fffffffffffffffffffffffffffffffffffffffffffffffffffffffffffffffe0601f84011601613c39565b818152846020838601011115613d7957600080fd5b816020850160208301376000918101602001919091529392505050565b600080600080600060a08688031215613dae57600080fd5b613db78661379f565b9450613dc56020870161379f565b9350604086013567ffffffffffffffff80821115613de257600080fd5b613dee89838a01613c88565b94506060880135915080821115613e0457600080fd5b613e1089838a01613c88565b93506080880135915080821115613e2657600080fd5b50613e3388828901613d08565b9150509295509295909350565b600080600080600060a08688031215613e5857600080fd5b613e618661379f565b9450613e6f6020870161379f565b93506040860135925060608601359150608086013567ffffffffffffffff811115613e9957600080fd5b613e3388828901613d08565b7f4e487b7100000000000000000000000000000000000000000000000000000000600052603260045260246000fd5b7f4e487b7100000000000000000000000000000000000000000000000000000000600052601160045260246000fd5b60007fffffffffffffffffffffffffffffffffffffffffffffffffffffffffffffffff8203613f3457613f34613ed4565b5060010190565b600060208284031215613f4d57600080fd5b5051919050565b600073ffffffffffffffffffffffffffffffffffffffff808816835280871660208401525060a060408301528360a08301527f07ffffffffffffffffffffffffffffffffffffffffffffffffffffffffffffff841115613fb357600080fd5b8360051b808660c0850137820182810360c09081016060850152613fd990820185613751565b83810360809094019390935250506000815260200195945050505050565b8181038181111561077457610774613ed4565b8082018082111561077457610774613ed4565b60006020828403121561402f57600080fd5b81518015158114612f5457600080fd5b6000815480845260208085019450836000528060002060005b8381101561378157815487529582019560019182019101614058565b60006101c08254845261409e600184015473ffffffffffffffffffffffffffffffffffffffff1690565b73ffffffffffffffffffffffffffffffffffffffff166020850152604084018190526140cf8185016002850161403f565b905083810360608501526140e6816003850161403f565b9050614109600484015473ffffffffffffffffffffffffffffffffffffffff1690565b73ffffffffffffffffffffffffffffffffffffffff9081166080860152600584015460a086015260068401541660c085015283810360e0850152614150816007850161403f565b9050838103610100850152614168816008850161403f565b905061418b600984015473ffffffffffffffffffffffffffffffffffffffff1690565b73ffffffffffffffffffffffffffffffffffffffff16610120850152600a830154610140850152600b830154610160850152600c830154610180850152600d909201546101a090930192909252919050565b602081526000612f546020830184614074565b60008083357fffffffffffffffffffffffffffffffffffffffffffffffffffffffffffffffe184360301811261422557600080fd5b83018035915067ffffffffffffffff82111561424057600080fd5b6020019150600581901b360382131561425857600080fd5b9250929050565b600073ffffffffffffffffffffffffffffffffffffffff808716835280861660208401525060a0604083015261429860a083018561403f565b82810360608401526142aa8185613751565b838103608090940193909352505060008152602001949350505050565b6000817fffffffffffffffffffffffffffffffffffffffffffffffffffffffffffffffff04831182151516156142ff576142ff613ed4565b500290565b73ffffffffffffffffffffffffffffffffffffffff84168152606060208201526000614333606083018561403f565b82810360408401526143458185613751565b9695505050505050565b6060815260006143626060830186614074565b905083602083015273ffffffffffffffffffffffffffffffffffffffff83166040830152949350505050565b60005b838110156143a9578181015183820152602001614391565b50506000910152565b7f416363657373436f6e74726f6c3a206163636f756e74200000000000000000008152600083516143ea81601785016020880161438e565b7f206973206d697373696e6720726f6c6520000000000000000000000000000000601791840191820152835161442781602884016020880161438e565b01602801949350505050565b602081526000825180602084015261445281604085016020870161438e565b601f017fffffffffffffffffffffffffffffffffffffffffffffffffffffffffffffffe0169190910160400192915050565b7f4e487b7100000000000000000000000000000000000000000000000000000000600052603160045260246000fd5b6000816144c2576144c2613ed4565b507fffffffffffffffffffffffffffffffffffffffffffffffffffffffffffffffff019056fea2646970667358221220c5597abdf433a422d04fb3eefe6a7c43b85e2503e410bf5dc64191a0a5c34a7e64736f6c63430008100033","opcodes":"PUSH1 0x80 PUSH1 0x40 MSTORE CALLVALUE DUP1 ISZERO PUSH3 0x11 JUMPI PUSH1 0x0 DUP1 REVERT JUMPDEST POP PUSH1 0x40 MLOAD PUSH3 0x4719 CODESIZE SUB DUP1 PUSH3 0x4719 DUP4 CODECOPY DUP2 ADD PUSH1 0x40 DUP2 SWAP1 MSTORE PUSH3 0x34 SWAP2 PUSH3 0x1AF JUMP JUMPDEST PUSH1 0x0 DUP1 SLOAD PUSH1 0x1 PUSH1 0x1 PUSH1 0xA0 SHL SUB NOT AND PUSH1 0x1 PUSH1 0x1 PUSH1 0xA0 SHL SUB DUP5 AND OR DUP2 SSTORE PUSH1 0x1 DUP3 DUP2 SSTORE PUSH1 0x3 SSTORE PUSH3 0x6C SWAP1 PUSH3 0x66 PUSH3 0xA3 JUMP JUMPDEST PUSH3 0xBF JUMP JUMPDEST PUSH3 0x9B PUSH32 0x5B618AB2FEE761C09BF71319707CEFA62ECCC93DCC483744898E6C3ACF452643 PUSH3 0x66 PUSH3 0xA3 JUMP JUMPDEST POP POP PUSH3 0x1EB JUMP JUMPDEST PUSH1 0x0 PUSH3 0xBA PUSH3 0xCF PUSH1 0x20 SHL PUSH3 0x23D6 OR PUSH1 0x20 SHR JUMP JUMPDEST SWAP1 POP SWAP1 JUMP JUMPDEST PUSH3 0xCB DUP3 DUP3 PUSH3 0x105 JUMP JUMPDEST POP POP JUMP JUMPDEST PUSH1 0x0 DUP1 SLOAD PUSH1 0x1 PUSH1 0x1 PUSH1 0xA0 SHL SUB AND CALLER SUB PUSH3 0xF0 JUMPI POP PUSH1 0x13 NOT CALLDATASIZE ADD CALLDATALOAD PUSH1 0x60 SHR SWAP1 JUMP JUMPDEST PUSH3 0xBA PUSH3 0x1AB PUSH1 0x20 SHL PUSH3 0x2426 OR PUSH1 0x20 SHR JUMP JUMPDEST PUSH1 0x0 DUP3 DUP2 MSTORE PUSH1 0x2 PUSH1 0x20 SWAP1 DUP2 MSTORE PUSH1 0x40 DUP1 DUP4 KECCAK256 PUSH1 0x1 PUSH1 0x1 PUSH1 0xA0 SHL SUB DUP6 AND DUP5 MSTORE SWAP1 SWAP2 MSTORE SWAP1 KECCAK256 SLOAD PUSH1 0xFF AND PUSH3 0xCB JUMPI PUSH1 0x0 DUP3 DUP2 MSTORE PUSH1 0x2 PUSH1 0x20 SWAP1 DUP2 MSTORE PUSH1 0x40 DUP1 DUP4 KECCAK256 PUSH1 0x1 PUSH1 0x1 PUSH1 0xA0 SHL SUB DUP6 AND DUP5 MSTORE SWAP1 SWAP2 MSTORE SWAP1 KECCAK256 DUP1 SLOAD PUSH1 0xFF NOT AND PUSH1 0x1 OR SWAP1 SSTORE PUSH3 0x167 PUSH3 0xA3 JUMP JUMPDEST PUSH1 0x1 PUSH1 0x1 PUSH1 0xA0 SHL SUB AND DUP2 PUSH1 0x1 PUSH1 0x1 PUSH1 0xA0 SHL SUB AND DUP4 PUSH32 0x2F8788117E7EFF1D82E926EC794901D17C78024A50270940304540A733656F0D PUSH1 0x40 MLOAD PUSH1 0x40 MLOAD DUP1 SWAP2 SUB SWAP1 LOG4 POP POP JUMP JUMPDEST CALLER SWAP1 JUMP JUMPDEST PUSH1 0x0 DUP1 PUSH1 0x40 DUP4 DUP6 SUB SLT ISZERO PUSH3 0x1C3 JUMPI PUSH1 0x0 DUP1 REVERT JUMPDEST DUP3 MLOAD PUSH1 0x1 PUSH1 0x1 PUSH1 0xA0 SHL SUB DUP2 AND DUP2 EQ PUSH3 0x1DB JUMPI PUSH1 0x0 DUP1 REVERT JUMPDEST PUSH1 0x20 SWAP4 SWAP1 SWAP4 ADD MLOAD SWAP3 SWAP5 SWAP3 SWAP4 POP POP POP JUMP JUMPDEST PUSH2 0x451E DUP1 PUSH3 0x1FB PUSH1 0x0 CODECOPY PUSH1 0x0 RETURN INVALID PUSH1 0x80 PUSH1 0x40 MSTORE PUSH1 0x4 CALLDATASIZE LT PUSH2 0x1DC JUMPI PUSH1 0x0 CALLDATALOAD PUSH1 0xE0 SHR DUP1 PUSH4 0x7DA0A877 GT PUSH2 0x102 JUMPI DUP1 PUSH4 0x9D77759C GT PUSH2 0x95 JUMPI DUP1 PUSH4 0xBC197C81 GT PUSH2 0x64 JUMPI DUP1 PUSH4 0xBC197C81 EQ PUSH2 0x5D7 JUMPI DUP1 PUSH4 0xCDF19174 EQ PUSH2 0x64D JUMPI DUP1 PUSH4 0xD547741F EQ PUSH2 0x66D JUMPI DUP1 PUSH4 0xF23A6E61 EQ PUSH2 0x68D JUMPI PUSH1 0x0 DUP1 REVERT JUMPDEST DUP1 PUSH4 0x9D77759C EQ PUSH2 0x57A JUMPI DUP1 PUSH4 0xA217FDDF EQ PUSH2 0x58D JUMPI DUP1 PUSH4 0xA9FD8ED1 EQ PUSH2 0x5A2 JUMPI DUP1 PUSH4 0xAA2A7EEA EQ PUSH2 0x5B7 JUMPI PUSH1 0x0 DUP1 REVERT JUMPDEST DUP1 PUSH4 0x8B839502 GT PUSH2 0xD1 JUMPI DUP1 PUSH4 0x8B839502 EQ PUSH2 0x4C7 JUMPI DUP1 PUSH4 0x91D14854 EQ PUSH2 0x4E7 JUMPI DUP1 PUSH4 0x95A0F9C7 EQ PUSH2 0x53A JUMPI DUP1 PUSH4 0x9C66B063 EQ PUSH2 0x55A JUMPI PUSH1 0x0 DUP1 REVERT JUMPDEST DUP1 PUSH4 0x7DA0A877 EQ PUSH2 0x415 JUMPI DUP1 PUSH4 0x7F413AF2 EQ PUSH2 0x467 JUMPI DUP1 PUSH4 0x82335AB0 EQ PUSH2 0x487 JUMPI DUP1 PUSH4 0x89FE7C3B EQ PUSH2 0x4A7 JUMPI PUSH1 0x0 DUP1 REVERT JUMPDEST DUP1 PUSH4 0x49FE0367 GT PUSH2 0x17A JUMPI DUP1 PUSH4 0x687C08DD GT PUSH2 0x149 JUMPI DUP1 PUSH4 0x687C08DD EQ PUSH2 0x386 JUMPI DUP1 PUSH4 0x72B0D90C EQ PUSH2 0x3A8 JUMPI DUP1 PUSH4 0x74D33353 EQ PUSH2 0x3C8 JUMPI DUP1 PUSH4 0x761610FC EQ PUSH2 0x3E8 JUMPI PUSH1 0x0 DUP1 REVERT JUMPDEST DUP1 PUSH4 0x49FE0367 EQ PUSH2 0x300 JUMPI DUP1 PUSH4 0x500CEB48 EQ PUSH2 0x313 JUMPI DUP1 PUSH4 0x51A30C65 EQ PUSH2 0x328 JUMPI DUP1 PUSH4 0x572B6C05 EQ PUSH2 0x34A JUMPI PUSH1 0x0 DUP1 REVERT JUMPDEST DUP1 PUSH4 0x2F2FF15D GT PUSH2 0x1B6 JUMPI DUP1 PUSH4 0x2F2FF15D EQ PUSH2 0x288 JUMPI DUP1 PUSH4 0x36568ABE EQ PUSH2 0x2AA JUMPI DUP1 PUSH4 0x39F898BC EQ PUSH2 0x2CA JUMPI DUP1 PUSH4 0x4252AC3F EQ PUSH2 0x2E0 JUMPI PUSH1 0x0 DUP1 REVERT JUMPDEST DUP1 PUSH4 0x1FFC9A7 EQ PUSH2 0x1E8 JUMPI DUP1 PUSH4 0x1675187C EQ PUSH2 0x21D JUMPI DUP1 PUSH4 0x248A9CA3 EQ PUSH2 0x24A JUMPI PUSH1 0x0 DUP1 REVERT JUMPDEST CALLDATASIZE PUSH2 0x1E3 JUMPI STOP JUMPDEST PUSH1 0x0 DUP1 REVERT JUMPDEST CALLVALUE DUP1 ISZERO PUSH2 0x1F4 JUMPI PUSH1 0x0 DUP1 REVERT JUMPDEST POP PUSH2 0x208 PUSH2 0x203 CALLDATASIZE PUSH1 0x4 PUSH2 0x36F6 JUMP JUMPDEST PUSH2 0x6D2 JUMP JUMPDEST PUSH1 0x40 MLOAD SWAP1 ISZERO ISZERO DUP2 MSTORE PUSH1 0x20 ADD JUMPDEST PUSH1 0x40 MLOAD DUP1 SWAP2 SUB SWAP1 RETURN JUMPDEST CALLVALUE DUP1 ISZERO PUSH2 0x229 JUMPI PUSH1 0x0 DUP1 REVERT JUMPDEST POP PUSH2 0x23D PUSH2 0x238 CALLDATASIZE PUSH1 0x4 PUSH2 0x3738 JUMP JUMPDEST PUSH2 0x77A JUMP JUMPDEST PUSH1 0x40 MLOAD PUSH2 0x214 SWAP2 SWAP1 PUSH2 0x378C JUMP JUMPDEST CALLVALUE DUP1 ISZERO PUSH2 0x256 JUMPI PUSH1 0x0 DUP1 REVERT JUMPDEST POP PUSH2 0x27A PUSH2 0x265 CALLDATASIZE PUSH1 0x4 PUSH2 0x3738 JUMP JUMPDEST PUSH1 0x0 SWAP1 DUP2 MSTORE PUSH1 0x2 PUSH1 0x20 MSTORE PUSH1 0x40 SWAP1 KECCAK256 PUSH1 0x1 ADD SLOAD SWAP1 JUMP JUMPDEST PUSH1 0x40 MLOAD SWAP1 DUP2 MSTORE PUSH1 0x20 ADD PUSH2 0x214 JUMP JUMPDEST CALLVALUE DUP1 ISZERO PUSH2 0x294 JUMPI PUSH1 0x0 DUP1 REVERT JUMPDEST POP PUSH2 0x2A8 PUSH2 0x2A3 CALLDATASIZE PUSH1 0x4 PUSH2 0x37C8 JUMP JUMPDEST PUSH2 0x7FA JUMP JUMPDEST STOP JUMPDEST CALLVALUE DUP1 ISZERO PUSH2 0x2B6 JUMPI PUSH1 0x0 DUP1 REVERT JUMPDEST POP PUSH2 0x2A8 PUSH2 0x2C5 CALLDATASIZE PUSH1 0x4 PUSH2 0x37C8 JUMP JUMPDEST PUSH2 0x9A2 JUMP JUMPDEST CALLVALUE DUP1 ISZERO PUSH2 0x2D6 JUMPI PUSH1 0x0 DUP1 REVERT JUMPDEST POP PUSH2 0x27A PUSH1 0x1 SLOAD DUP2 JUMP JUMPDEST CALLVALUE DUP1 ISZERO PUSH2 0x2EC JUMPI PUSH1 0x0 DUP1 REVERT JUMPDEST POP PUSH2 0x2A8 PUSH2 0x2FB CALLDATASIZE PUSH1 0x4 PUSH2 0x37F4 JUMP JUMPDEST PUSH2 0xA72 JUMP JUMPDEST PUSH2 0x2A8 PUSH2 0x30E CALLDATASIZE PUSH1 0x4 PUSH2 0x3738 JUMP JUMPDEST PUSH2 0xA9A JUMP JUMPDEST CALLVALUE DUP1 ISZERO PUSH2 0x31F JUMPI PUSH1 0x0 DUP1 REVERT JUMPDEST POP PUSH2 0x23D PUSH2 0xABA JUMP JUMPDEST CALLVALUE DUP1 ISZERO PUSH2 0x334 JUMPI PUSH1 0x0 DUP1 REVERT JUMPDEST POP PUSH2 0x33D PUSH2 0xACB JUMP JUMPDEST PUSH1 0x40 MLOAD PUSH2 0x214 SWAP2 SWAP1 PUSH2 0x380F JUMP JUMPDEST CALLVALUE DUP1 ISZERO PUSH2 0x356 JUMPI PUSH1 0x0 DUP1 REVERT JUMPDEST POP PUSH2 0x208 PUSH2 0x365 CALLDATASIZE PUSH1 0x4 PUSH2 0x37F4 JUMP JUMPDEST PUSH1 0x0 SLOAD PUSH20 0xFFFFFFFFFFFFFFFFFFFFFFFFFFFFFFFFFFFFFFFF SWAP2 DUP3 AND SWAP2 AND EQ SWAP1 JUMP JUMPDEST CALLVALUE DUP1 ISZERO PUSH2 0x392 JUMPI PUSH1 0x0 DUP1 REVERT JUMPDEST POP PUSH2 0x39B PUSH2 0xB7B JUMP JUMPDEST PUSH1 0x40 MLOAD PUSH2 0x214 SWAP2 SWAP1 PUSH2 0x39E2 JUMP JUMPDEST CALLVALUE DUP1 ISZERO PUSH2 0x3B4 JUMPI PUSH1 0x0 DUP1 REVERT JUMPDEST POP PUSH2 0x2A8 PUSH2 0x3C3 CALLDATASIZE PUSH1 0x4 PUSH2 0x37F4 JUMP JUMPDEST PUSH2 0xF10 JUMP JUMPDEST CALLVALUE DUP1 ISZERO PUSH2 0x3D4 JUMPI PUSH1 0x0 DUP1 REVERT JUMPDEST POP PUSH2 0x27A PUSH2 0x3E3 CALLDATASIZE PUSH1 0x4 PUSH2 0x3738 JUMP JUMPDEST PUSH2 0xF81 JUMP JUMPDEST CALLVALUE DUP1 ISZERO PUSH2 0x3F4 JUMPI PUSH1 0x0 DUP1 REVERT JUMPDEST POP PUSH2 0x408 PUSH2 0x403 CALLDATASIZE PUSH1 0x4 PUSH2 0x3738 JUMP JUMPDEST PUSH2 0x1000 JUMP JUMPDEST PUSH1 0x40 MLOAD PUSH2 0x214 SWAP2 SWAP1 PUSH2 0x3A55 JUMP JUMPDEST CALLVALUE DUP1 ISZERO PUSH2 0x421 JUMPI PUSH1 0x0 DUP1 REVERT JUMPDEST POP PUSH1 0x0 SLOAD PUSH2 0x442 SWAP1 PUSH20 0xFFFFFFFFFFFFFFFFFFFFFFFFFFFFFFFFFFFFFFFF AND DUP2 JUMP JUMPDEST PUSH1 0x40 MLOAD PUSH20 0xFFFFFFFFFFFFFFFFFFFFFFFFFFFFFFFFFFFFFFFF SWAP1 SWAP2 AND DUP2 MSTORE PUSH1 0x20 ADD PUSH2 0x214 JUMP JUMPDEST CALLVALUE DUP1 ISZERO PUSH2 0x473 JUMPI PUSH1 0x0 DUP1 REVERT JUMPDEST POP PUSH2 0x2A8 PUSH2 0x482 CALLDATASIZE PUSH1 0x4 PUSH2 0x3A68 JUMP JUMPDEST PUSH2 0x1387 JUMP JUMPDEST CALLVALUE DUP1 ISZERO PUSH2 0x493 JUMPI PUSH1 0x0 DUP1 REVERT JUMPDEST POP PUSH2 0x39B PUSH2 0x4A2 CALLDATASIZE PUSH1 0x4 PUSH2 0x3AFF JUMP JUMPDEST PUSH2 0x1592 JUMP JUMPDEST CALLVALUE DUP1 ISZERO PUSH2 0x4B3 JUMPI PUSH1 0x0 DUP1 REVERT JUMPDEST POP PUSH2 0x33D PUSH2 0x4C2 CALLDATASIZE PUSH1 0x4 PUSH2 0x3AFF JUMP JUMPDEST PUSH2 0x1971 JUMP JUMPDEST CALLVALUE DUP1 ISZERO PUSH2 0x4D3 JUMPI PUSH1 0x0 DUP1 REVERT JUMPDEST POP PUSH2 0x2A8 PUSH2 0x4E2 CALLDATASIZE PUSH1 0x4 PUSH2 0x3B21 JUMP JUMPDEST PUSH2 0x1A53 JUMP JUMPDEST CALLVALUE DUP1 ISZERO PUSH2 0x4F3 JUMPI PUSH1 0x0 DUP1 REVERT JUMPDEST POP PUSH2 0x208 PUSH2 0x502 CALLDATASIZE PUSH1 0x4 PUSH2 0x37C8 JUMP JUMPDEST PUSH1 0x0 SWAP2 DUP3 MSTORE PUSH1 0x2 PUSH1 0x20 SWAP1 DUP2 MSTORE PUSH1 0x40 DUP1 DUP5 KECCAK256 PUSH20 0xFFFFFFFFFFFFFFFFFFFFFFFFFFFFFFFFFFFFFFFF SWAP4 SWAP1 SWAP4 AND DUP5 MSTORE SWAP2 SWAP1 MSTORE SWAP1 KECCAK256 SLOAD PUSH1 0xFF AND SWAP1 JUMP JUMPDEST CALLVALUE DUP1 ISZERO PUSH2 0x546 JUMPI PUSH1 0x0 DUP1 REVERT JUMPDEST POP PUSH2 0x2A8 PUSH2 0x555 CALLDATASIZE PUSH1 0x4 PUSH2 0x3738 JUMP JUMPDEST PUSH2 0x1BB2 JUMP JUMPDEST CALLVALUE DUP1 ISZERO PUSH2 0x566 JUMPI PUSH1 0x0 DUP1 REVERT JUMPDEST POP PUSH2 0x2A8 PUSH2 0x575 CALLDATASIZE PUSH1 0x4 PUSH2 0x3B5C JUMP JUMPDEST PUSH2 0x1C3D JUMP JUMPDEST PUSH2 0x2A8 PUSH2 0x588 CALLDATASIZE PUSH1 0x4 PUSH2 0x3AFF JUMP JUMPDEST PUSH2 0x21DD JUMP JUMPDEST CALLVALUE DUP1 ISZERO PUSH2 0x599 JUMPI PUSH1 0x0 DUP1 REVERT JUMPDEST POP PUSH2 0x27A PUSH1 0x0 DUP2 JUMP JUMPDEST CALLVALUE DUP1 ISZERO PUSH2 0x5AE JUMPI PUSH1 0x0 DUP1 REVERT JUMPDEST POP PUSH2 0x27A PUSH2 0x2263 JUMP JUMPDEST CALLVALUE DUP1 ISZERO PUSH2 0x5C3 JUMPI PUSH1 0x0 DUP1 REVERT JUMPDEST POP PUSH2 0x2A8 PUSH2 0x5D2 CALLDATASIZE PUSH1 0x4 PUSH2 0x37F4 JUMP JUMPDEST PUSH2 0x226F JUMP JUMPDEST CALLVALUE DUP1 ISZERO PUSH2 0x5E3 JUMPI PUSH1 0x0 DUP1 REVERT JUMPDEST POP PUSH2 0x61C PUSH2 0x5F2 CALLDATASIZE PUSH1 0x4 PUSH2 0x3D96 JUMP JUMPDEST PUSH32 0xBC197C8100000000000000000000000000000000000000000000000000000000 SWAP6 SWAP5 POP POP POP POP POP JUMP JUMPDEST PUSH1 0x40 MLOAD PUSH32 0xFFFFFFFF00000000000000000000000000000000000000000000000000000000 SWAP1 SWAP2 AND DUP2 MSTORE PUSH1 0x20 ADD PUSH2 0x214 JUMP JUMPDEST CALLVALUE DUP1 ISZERO PUSH2 0x659 JUMPI PUSH1 0x0 DUP1 REVERT JUMPDEST POP PUSH2 0x23D PUSH2 0x668 CALLDATASIZE PUSH1 0x4 PUSH2 0x3AFF JUMP JUMPDEST PUSH2 0x22DD JUMP JUMPDEST CALLVALUE DUP1 ISZERO PUSH2 0x679 JUMPI PUSH1 0x0 DUP1 REVERT JUMPDEST POP PUSH2 0x2A8 PUSH2 0x688 CALLDATASIZE PUSH1 0x4 PUSH2 0x37C8 JUMP JUMPDEST PUSH2 0x23B1 JUMP JUMPDEST CALLVALUE DUP1 ISZERO PUSH2 0x699 JUMPI PUSH1 0x0 DUP1 REVERT JUMPDEST POP PUSH2 0x61C PUSH2 0x6A8 CALLDATASIZE PUSH1 0x4 PUSH2 0x3E40 JUMP JUMPDEST PUSH32 0xF23A6E6100000000000000000000000000000000000000000000000000000000 SWAP6 SWAP5 POP POP POP POP POP JUMP JUMPDEST PUSH1 0x0 PUSH32 0xFFFFFFFF00000000000000000000000000000000000000000000000000000000 DUP3 AND PUSH32 0xBCD089100000000000000000000000000000000000000000000000000000000 EQ DUP1 PUSH2 0x765 JUMPI POP PUSH32 0xFFFFFFFF00000000000000000000000000000000000000000000000000000000 DUP3 AND PUSH32 0x4E2312E000000000000000000000000000000000000000000000000000000000 EQ JUMPDEST DUP1 PUSH2 0x774 JUMPI POP PUSH2 0x774 DUP3 PUSH2 0x242A JUMP JUMPDEST SWAP3 SWAP2 POP POP JUMP JUMPDEST PUSH1 0x40 DUP1 MLOAD PUSH1 0x2 DUP1 DUP3 MSTORE PUSH1 0x60 DUP1 DUP4 ADD DUP5 MSTORE SWAP3 PUSH1 0x0 SWAP3 SWAP2 SWAP1 PUSH1 0x20 DUP4 ADD SWAP1 DUP1 CALLDATASIZE DUP4 CALLDATACOPY ADD SWAP1 POP POP SWAP1 POP DUP3 DUP2 PUSH1 0x0 DUP2 MLOAD DUP2 LT PUSH2 0x7B3 JUMPI PUSH2 0x7B3 PUSH2 0x3EA5 JUMP JUMPDEST PUSH1 0x20 MUL PUSH1 0x20 ADD ADD DUP2 DUP2 MSTORE POP POP PUSH1 0x6 PUSH1 0x0 DUP5 DUP2 MSTORE PUSH1 0x20 ADD SWAP1 DUP2 MSTORE PUSH1 0x20 ADD PUSH1 0x0 KECCAK256 PUSH1 0xD ADD SLOAD DUP2 PUSH1 0x1 DUP2 MLOAD DUP2 LT PUSH2 0x7E9 JUMPI PUSH2 0x7E9 PUSH2 0x3EA5 JUMP JUMPDEST PUSH1 0x20 SWAP1 DUP2 MUL SWAP2 SWAP1 SWAP2 ADD ADD MSTORE SWAP3 SWAP2 POP POP JUMP JUMPDEST PUSH1 0x0 PUSH2 0x808 DUP2 PUSH2 0x502 PUSH2 0x2480 JUMP JUMPDEST SWAP1 POP PUSH1 0x0 PUSH2 0x838 PUSH32 0x5B618AB2FEE761C09BF71319707CEFA62ECCC93DCC483744898E6C3ACF452643 PUSH2 0x502 PUSH2 0x2480 JUMP JUMPDEST SWAP1 POP DUP2 DUP1 PUSH2 0x843 JUMPI POP DUP1 JUMPDEST PUSH2 0x8D4 JUMPI PUSH1 0x40 MLOAD PUSH32 0x8C379A000000000000000000000000000000000000000000000000000000000 DUP2 MSTORE PUSH1 0x20 PUSH1 0x4 DUP3 ADD MSTORE PUSH1 0x2D PUSH1 0x24 DUP3 ADD MSTORE PUSH32 0x526F6C65206772616E74696E672072657175697265732061646D696E206F7220 PUSH1 0x44 DUP3 ADD MSTORE PUSH32 0x6D616E6167657220726F6C652E00000000000000000000000000000000000000 PUSH1 0x64 DUP3 ADD MSTORE PUSH1 0x84 ADD JUMPDEST PUSH1 0x40 MLOAD DUP1 SWAP2 SUB SWAP1 REVERT JUMPDEST DUP4 ISZERO DUP1 PUSH2 0x900 JUMPI POP PUSH32 0x5B618AB2FEE761C09BF71319707CEFA62ECCC93DCC483744898E6C3ACF452643 DUP5 EQ JUMPDEST ISZERO PUSH2 0x992 JUMPI DUP2 PUSH2 0x992 JUMPI PUSH1 0x40 MLOAD PUSH32 0x8C379A000000000000000000000000000000000000000000000000000000000 DUP2 MSTORE PUSH1 0x20 PUSH1 0x4 DUP3 ADD MSTORE PUSH1 0x2B PUSH1 0x24 DUP3 ADD MSTORE PUSH32 0x4F6E6C792061646D696E2063616E206772616E742061646D696E206F72206D61 PUSH1 0x44 DUP3 ADD MSTORE PUSH32 0x6E6167657220726F6C652E000000000000000000000000000000000000000000 PUSH1 0x64 DUP3 ADD MSTORE PUSH1 0x84 ADD PUSH2 0x8CB JUMP JUMPDEST PUSH2 0x99C DUP5 DUP5 PUSH2 0x248A JUMP JUMPDEST POP POP POP POP JUMP JUMPDEST PUSH2 0x9AA PUSH2 0x2480 JUMP JUMPDEST PUSH20 0xFFFFFFFFFFFFFFFFFFFFFFFFFFFFFFFFFFFFFFFF AND DUP2 PUSH20 0xFFFFFFFFFFFFFFFFFFFFFFFFFFFFFFFFFFFFFFFF AND EQ PUSH2 0xA64 JUMPI PUSH1 0x40 MLOAD PUSH32 0x8C379A000000000000000000000000000000000000000000000000000000000 DUP2 MSTORE PUSH1 0x20 PUSH1 0x4 DUP3 ADD MSTORE PUSH1 0x2F PUSH1 0x24 DUP3 ADD MSTORE PUSH32 0x416363657373436F6E74726F6C3A2063616E206F6E6C792072656E6F756E6365 PUSH1 0x44 DUP3 ADD MSTORE PUSH32 0x20726F6C657320666F722073656C660000000000000000000000000000000000 PUSH1 0x64 DUP3 ADD MSTORE PUSH1 0x84 ADD PUSH2 0x8CB JUMP JUMPDEST PUSH2 0xA6E DUP3 DUP3 PUSH2 0x257F JUMP JUMPDEST POP POP JUMP JUMPDEST PUSH1 0x0 PUSH2 0xA7D DUP2 PUSH2 0x2672 JUMP JUMPDEST PUSH2 0xA88 PUSH1 0x0 DUP4 PUSH2 0x248A JUMP JUMPDEST PUSH2 0xA6E PUSH1 0x0 PUSH2 0xA95 PUSH2 0x2480 JUMP JUMPDEST PUSH2 0x257F JUMP JUMPDEST PUSH2 0xAA2 PUSH2 0x2683 JUMP JUMPDEST PUSH2 0xAAD DUP2 PUSH1 0x1 PUSH2 0x26F6 JUMP JUMPDEST PUSH2 0xAB7 PUSH1 0x1 PUSH1 0x3 SSTORE JUMP JUMPDEST POP JUMP JUMPDEST PUSH1 0x60 PUSH2 0xAC6 PUSH1 0x4 PUSH2 0x2F47 JUMP JUMPDEST SWAP1 POP SWAP1 JUMP JUMPDEST PUSH1 0x60 PUSH1 0x0 PUSH2 0xAD7 PUSH2 0x2263 JUMP JUMPDEST PUSH8 0xFFFFFFFFFFFFFFFF DUP2 GT ISZERO PUSH2 0xAEF JUMPI PUSH2 0xAEF PUSH2 0x3C0A JUMP JUMPDEST PUSH1 0x40 MLOAD SWAP1 DUP1 DUP3 MSTORE DUP1 PUSH1 0x20 MUL PUSH1 0x20 ADD DUP3 ADD PUSH1 0x40 MSTORE DUP1 ISZERO PUSH2 0xB22 JUMPI DUP2 PUSH1 0x20 ADD JUMPDEST PUSH1 0x60 DUP2 MSTORE PUSH1 0x20 ADD SWAP1 PUSH1 0x1 SWAP1 SUB SWAP1 DUP2 PUSH2 0xB0D JUMPI SWAP1 POP JUMPDEST POP SWAP1 POP PUSH1 0x0 JUMPDEST PUSH2 0xB30 PUSH2 0x2263 JUMP JUMPDEST DUP2 LT ISZERO PUSH2 0xB75 JUMPI PUSH2 0xB45 PUSH2 0x238 PUSH1 0x4 DUP4 PUSH2 0x2F5B JUMP JUMPDEST DUP3 DUP3 DUP2 MLOAD DUP2 LT PUSH2 0xB57 JUMPI PUSH2 0xB57 PUSH2 0x3EA5 JUMP JUMPDEST PUSH1 0x20 MUL PUSH1 0x20 ADD ADD DUP2 SWAP1 MSTORE POP DUP1 DUP1 PUSH2 0xB6D SWAP1 PUSH2 0x3F03 JUMP JUMPDEST SWAP2 POP POP PUSH2 0xB28 JUMP JUMPDEST POP SWAP2 SWAP1 POP JUMP JUMPDEST PUSH1 0x60 PUSH1 0x0 PUSH2 0xB87 PUSH2 0x2263 JUMP JUMPDEST PUSH8 0xFFFFFFFFFFFFFFFF DUP2 GT ISZERO PUSH2 0xB9F JUMPI PUSH2 0xB9F PUSH2 0x3C0A JUMP JUMPDEST PUSH1 0x40 MLOAD SWAP1 DUP1 DUP3 MSTORE DUP1 PUSH1 0x20 MUL PUSH1 0x20 ADD DUP3 ADD PUSH1 0x40 MSTORE DUP1 ISZERO PUSH2 0xC9A JUMPI DUP2 PUSH1 0x20 ADD JUMPDEST PUSH2 0xC87 PUSH1 0x40 MLOAD DUP1 PUSH2 0x1C0 ADD PUSH1 0x40 MSTORE DUP1 PUSH1 0x0 DUP2 MSTORE PUSH1 0x20 ADD PUSH1 0x0 PUSH20 0xFFFFFFFFFFFFFFFFFFFFFFFFFFFFFFFFFFFFFFFF AND DUP2 MSTORE PUSH1 0x20 ADD PUSH1 0x60 DUP2 MSTORE PUSH1 0x20 ADD PUSH1 0x60 DUP2 MSTORE PUSH1 0x20 ADD PUSH1 0x0 PUSH20 0xFFFFFFFFFFFFFFFFFFFFFFFFFFFFFFFFFFFFFFFF AND DUP2 MSTORE PUSH1 0x20 ADD PUSH1 0x0 DUP2 MSTORE PUSH1 0x20 ADD PUSH1 0x0 PUSH20 0xFFFFFFFFFFFFFFFFFFFFFFFFFFFFFFFFFFFFFFFF AND DUP2 MSTORE PUSH1 0x20 ADD PUSH1 0x60 DUP2 MSTORE PUSH1 0x20 ADD PUSH1 0x60 DUP2 MSTORE PUSH1 0x20 ADD PUSH1 0x0 PUSH20 0xFFFFFFFFFFFFFFFFFFFFFFFFFFFFFFFFFFFFFFFF AND DUP2 MSTORE PUSH1 0x20 ADD PUSH1 0x0 DUP2 MSTORE PUSH1 0x20 ADD PUSH1 0x0 DUP2 MSTORE PUSH1 0x20 ADD PUSH1 0x0 DUP2 MSTORE PUSH1 0x20 ADD PUSH1 0x0 DUP2 MSTORE POP SWAP1 JUMP JUMPDEST DUP2 MSTORE PUSH1 0x20 ADD SWAP1 PUSH1 0x1 SWAP1 SUB SWAP1 DUP2 PUSH2 0xBBD JUMPI SWAP1 POP JUMPDEST POP SWAP1 POP PUSH1 0x0 JUMPDEST PUSH2 0xCA8 PUSH2 0x2263 JUMP JUMPDEST DUP2 LT ISZERO PUSH2 0xB75 JUMPI PUSH1 0x6 PUSH1 0x0 PUSH2 0xCBE PUSH1 0x4 DUP5 PUSH2 0x2F5B JUMP JUMPDEST DUP2 MSTORE PUSH1 0x20 DUP1 DUP3 ADD SWAP3 SWAP1 SWAP3 MSTORE PUSH1 0x40 SWAP1 DUP2 ADD PUSH1 0x0 KECCAK256 DUP2 MLOAD PUSH2 0x1C0 DUP2 ADD DUP4 MSTORE DUP2 SLOAD DUP2 MSTORE PUSH1 0x1 DUP3 ADD SLOAD PUSH20 0xFFFFFFFFFFFFFFFFFFFFFFFFFFFFFFFFFFFFFFFF AND DUP2 DUP6 ADD MSTORE PUSH1 0x2 DUP3 ADD DUP1 SLOAD DUP5 MLOAD DUP2 DUP8 MUL DUP2 ADD DUP8 ADD DUP7 MSTORE DUP2 DUP2 MSTORE SWAP3 SWAP6 SWAP4 SWAP5 DUP7 ADD SWAP4 DUP4 ADD DUP3 DUP3 DUP1 ISZERO PUSH2 0xD47 JUMPI PUSH1 0x20 MUL DUP3 ADD SWAP2 SWAP1 PUSH1 0x0 MSTORE PUSH1 0x20 PUSH1 0x0 KECCAK256 SWAP1 JUMPDEST DUP2 SLOAD DUP2 MSTORE PUSH1 0x20 ADD SWAP1 PUSH1 0x1 ADD SWAP1 DUP1 DUP4 GT PUSH2 0xD33 JUMPI JUMPDEST POP POP POP POP POP DUP2 MSTORE PUSH1 0x20 ADD PUSH1 0x3 DUP3 ADD DUP1 SLOAD DUP1 PUSH1 0x20 MUL PUSH1 0x20 ADD PUSH1 0x40 MLOAD SWAP1 DUP2 ADD PUSH1 0x40 MSTORE DUP1 SWAP3 SWAP2 SWAP1 DUP2 DUP2 MSTORE PUSH1 0x20 ADD DUP3 DUP1 SLOAD DUP1 ISZERO PUSH2 0xD9F JUMPI PUSH1 0x20 MUL DUP3 ADD SWAP2 SWAP1 PUSH1 0x0 MSTORE PUSH1 0x20 PUSH1 0x0 KECCAK256 SWAP1 JUMPDEST DUP2 SLOAD DUP2 MSTORE PUSH1 0x20 ADD SWAP1 PUSH1 0x1 ADD SWAP1 DUP1 DUP4 GT PUSH2 0xD8B JUMPI JUMPDEST POP POP POP SWAP2 DUP4 MSTORE POP POP PUSH1 0x4 DUP3 ADD SLOAD PUSH20 0xFFFFFFFFFFFFFFFFFFFFFFFFFFFFFFFFFFFFFFFF SWAP1 DUP2 AND PUSH1 0x20 DUP1 DUP5 ADD SWAP2 SWAP1 SWAP2 MSTORE PUSH1 0x5 DUP5 ADD SLOAD PUSH1 0x40 DUP1 DUP6 ADD SWAP2 SWAP1 SWAP2 MSTORE PUSH1 0x6 DUP6 ADD SLOAD SWAP1 SWAP3 AND PUSH1 0x60 DUP5 ADD MSTORE PUSH1 0x7 DUP5 ADD DUP1 SLOAD DUP4 MLOAD DUP2 DUP5 MUL DUP2 ADD DUP5 ADD SWAP1 SWAP5 MSTORE DUP1 DUP5 MSTORE PUSH1 0x80 SWAP1 SWAP5 ADD SWAP4 SWAP1 SWAP2 DUP4 ADD DUP3 DUP3 DUP1 ISZERO PUSH2 0xE34 JUMPI PUSH1 0x20 MUL DUP3 ADD SWAP2 SWAP1 PUSH1 0x0 MSTORE PUSH1 0x20 PUSH1 0x0 KECCAK256 SWAP1 JUMPDEST DUP2 SLOAD DUP2 MSTORE PUSH1 0x20 ADD SWAP1 PUSH1 0x1 ADD SWAP1 DUP1 DUP4 GT PUSH2 0xE20 JUMPI JUMPDEST POP POP POP POP POP DUP2 MSTORE PUSH1 0x20 ADD PUSH1 0x8 DUP3 ADD DUP1 SLOAD DUP1 PUSH1 0x20 MUL PUSH1 0x20 ADD PUSH1 0x40 MLOAD SWAP1 DUP2 ADD PUSH1 0x40 MSTORE DUP1 SWAP3 SWAP2 SWAP1 DUP2 DUP2 MSTORE PUSH1 0x20 ADD DUP3 DUP1 SLOAD DUP1 ISZERO PUSH2 0xE8C JUMPI PUSH1 0x20 MUL DUP3 ADD SWAP2 SWAP1 PUSH1 0x0 MSTORE PUSH1 0x20 PUSH1 0x0 KECCAK256 SWAP1 JUMPDEST DUP2 SLOAD DUP2 MSTORE PUSH1 0x20 ADD SWAP1 PUSH1 0x1 ADD SWAP1 DUP1 DUP4 GT PUSH2 0xE78 JUMPI JUMPDEST POP POP POP SWAP2 DUP4 MSTORE POP POP PUSH1 0x9 DUP3 ADD SLOAD PUSH20 0xFFFFFFFFFFFFFFFFFFFFFFFFFFFFFFFFFFFFFFFF AND PUSH1 0x20 DUP3 ADD MSTORE PUSH1 0xA DUP3 ADD SLOAD PUSH1 0x40 DUP3 ADD MSTORE PUSH1 0xB DUP3 ADD SLOAD PUSH1 0x60 DUP3 ADD MSTORE PUSH1 0xC DUP3 ADD SLOAD PUSH1 0x80 DUP3 ADD MSTORE PUSH1 0xD SWAP1 SWAP2 ADD SLOAD PUSH1 0xA0 SWAP1 SWAP2 ADD MSTORE DUP3 MLOAD DUP4 SWAP1 DUP4 SWAP1 DUP2 LT PUSH2 0xEF2 JUMPI PUSH2 0xEF2 PUSH2 0x3EA5 JUMP JUMPDEST PUSH1 0x20 MUL PUSH1 0x20 ADD ADD DUP2 SWAP1 MSTORE POP DUP1 DUP1 PUSH2 0xF08 SWAP1 PUSH2 0x3F03 JUMP JUMPDEST SWAP2 POP POP PUSH2 0xCA0 JUMP JUMPDEST PUSH32 0x5B618AB2FEE761C09BF71319707CEFA62ECCC93DCC483744898E6C3ACF452643 PUSH2 0xF3A DUP2 PUSH2 0x2672 JUMP JUMPDEST PUSH1 0x40 MLOAD PUSH20 0xFFFFFFFFFFFFFFFFFFFFFFFFFFFFFFFFFFFFFFFF DUP4 AND SWAP1 SELFBALANCE DUP1 ISZERO PUSH2 0x8FC MUL SWAP2 PUSH1 0x0 DUP2 DUP2 DUP2 DUP6 DUP9 DUP9 CALL SWAP4 POP POP POP POP ISZERO DUP1 ISZERO PUSH2 0xF7C JUMPI RETURNDATASIZE PUSH1 0x0 DUP1 RETURNDATACOPY RETURNDATASIZE PUSH1 0x0 REVERT JUMPDEST POP POP POP JUMP JUMPDEST PUSH1 0x0 PUSH2 0xF8D PUSH1 0x4 PUSH2 0x2F67 JUMP JUMPDEST DUP3 LT PUSH2 0xFF5 JUMPI PUSH1 0x40 MLOAD PUSH32 0x8C379A000000000000000000000000000000000000000000000000000000000 DUP2 MSTORE PUSH1 0x20 PUSH1 0x4 DUP3 ADD MSTORE PUSH1 0x13 PUSH1 0x24 DUP3 ADD MSTORE PUSH32 0x496E646578206F7574206F6620626F756E647300000000000000000000000000 PUSH1 0x44 DUP3 ADD MSTORE PUSH1 0x64 ADD PUSH2 0x8CB JUMP JUMPDEST PUSH2 0x774 PUSH1 0x4 DUP4 PUSH2 0x2F5B JUMP JUMPDEST PUSH2 0x10CA PUSH1 0x40 MLOAD DUP1 PUSH2 0x1C0 ADD PUSH1 0x40 MSTORE DUP1 PUSH1 0x0 DUP2 MSTORE PUSH1 0x20 ADD PUSH1 0x0 PUSH20 0xFFFFFFFFFFFFFFFFFFFFFFFFFFFFFFFFFFFFFFFF AND DUP2 MSTORE PUSH1 0x20 ADD PUSH1 0x60 DUP2 MSTORE PUSH1 0x20 ADD PUSH1 0x60 DUP2 MSTORE PUSH1 0x20 ADD PUSH1 0x0 PUSH20 0xFFFFFFFFFFFFFFFFFFFFFFFFFFFFFFFFFFFFFFFF AND DUP2 MSTORE PUSH1 0x20 ADD PUSH1 0x0 DUP2 MSTORE PUSH1 0x20 ADD PUSH1 0x0 PUSH20 0xFFFFFFFFFFFFFFFFFFFFFFFFFFFFFFFFFFFFFFFF AND DUP2 MSTORE PUSH1 0x20 ADD PUSH1 0x60 DUP2 MSTORE PUSH1 0x20 ADD PUSH1 0x60 DUP2 MSTORE PUSH1 0x20 ADD PUSH1 0x0 PUSH20 0xFFFFFFFFFFFFFFFFFFFFFFFFFFFFFFFFFFFFFFFF AND DUP2 MSTORE PUSH1 0x20 ADD PUSH1 0x0 DUP2 MSTORE PUSH1 0x20 ADD PUSH1 0x0 DUP2 MSTORE PUSH1 0x20 ADD PUSH1 0x0 DUP2 MSTORE PUSH1 0x20 ADD PUSH1 0x0 DUP2 MSTORE POP SWAP1 JUMP JUMPDEST PUSH2 0x10D5 PUSH1 0x4 DUP4 PUSH2 0x2F71 JUMP JUMPDEST PUSH2 0x1161 JUMPI PUSH1 0x40 MLOAD PUSH32 0x8C379A000000000000000000000000000000000000000000000000000000000 DUP2 MSTORE PUSH1 0x20 PUSH1 0x4 DUP3 ADD MSTORE PUSH1 0x2B PUSH1 0x24 DUP3 ADD MSTORE PUSH32 0x6F66666572496420646F6573206E6F74206578697374206F7220686173206265 PUSH1 0x44 DUP3 ADD MSTORE PUSH32 0x656E2072656D6F7665642E000000000000000000000000000000000000000000 PUSH1 0x64 DUP3 ADD MSTORE PUSH1 0x84 ADD PUSH2 0x8CB JUMP JUMPDEST PUSH1 0x0 DUP3 DUP2 MSTORE PUSH1 0x6 PUSH1 0x20 SWAP1 DUP2 MSTORE PUSH1 0x40 SWAP2 DUP3 SWAP1 KECCAK256 DUP3 MLOAD PUSH2 0x1C0 DUP2 ADD DUP5 MSTORE DUP2 SLOAD DUP2 MSTORE PUSH1 0x1 DUP3 ADD SLOAD PUSH20 0xFFFFFFFFFFFFFFFFFFFFFFFFFFFFFFFFFFFFFFFF AND DUP2 DUP5 ADD MSTORE PUSH1 0x2 DUP3 ADD DUP1 SLOAD DUP6 MLOAD DUP2 DUP7 MUL DUP2 ADD DUP7 ADD DUP8 MSTORE DUP2 DUP2 MSTORE SWAP3 SWAP6 SWAP4 SWAP5 SWAP4 DUP7 ADD SWAP4 DUP4 ADD DUP3 DUP3 DUP1 ISZERO PUSH2 0x11EA JUMPI PUSH1 0x20 MUL DUP3 ADD SWAP2 SWAP1 PUSH1 0x0 MSTORE PUSH1 0x20 PUSH1 0x0 KECCAK256 SWAP1 JUMPDEST DUP2 SLOAD DUP2 MSTORE PUSH1 0x20 ADD SWAP1 PUSH1 0x1 ADD SWAP1 DUP1 DUP4 GT PUSH2 0x11D6 JUMPI JUMPDEST POP POP POP POP POP DUP2 MSTORE PUSH1 0x20 ADD PUSH1 0x3 DUP3 ADD DUP1 SLOAD DUP1 PUSH1 0x20 MUL PUSH1 0x20 ADD PUSH1 0x40 MLOAD SWAP1 DUP2 ADD PUSH1 0x40 MSTORE DUP1 SWAP3 SWAP2 SWAP1 DUP2 DUP2 MSTORE PUSH1 0x20 ADD DUP3 DUP1 SLOAD DUP1 ISZERO PUSH2 0x1242 JUMPI PUSH1 0x20 MUL DUP3 ADD SWAP2 SWAP1 PUSH1 0x0 MSTORE PUSH1 0x20 PUSH1 0x0 KECCAK256 SWAP1 JUMPDEST DUP2 SLOAD DUP2 MSTORE PUSH1 0x20 ADD SWAP1 PUSH1 0x1 ADD SWAP1 DUP1 DUP4 GT PUSH2 0x122E JUMPI JUMPDEST POP POP POP SWAP2 DUP4 MSTORE POP POP PUSH1 0x4 DUP3 ADD SLOAD PUSH20 0xFFFFFFFFFFFFFFFFFFFFFFFFFFFFFFFFFFFFFFFF SWAP1 DUP2 AND PUSH1 0x20 DUP1 DUP5 ADD SWAP2 SWAP1 SWAP2 MSTORE PUSH1 0x5 DUP5 ADD SLOAD PUSH1 0x40 DUP1 DUP6 ADD SWAP2 SWAP1 SWAP2 MSTORE PUSH1 0x6 DUP6 ADD SLOAD SWAP1 SWAP3 AND PUSH1 0x60 DUP5 ADD MSTORE PUSH1 0x7 DUP5 ADD DUP1 SLOAD DUP4 MLOAD DUP2 DUP5 MUL DUP2 ADD DUP5 ADD SWAP1 SWAP5 MSTORE DUP1 DUP5 MSTORE PUSH1 0x80 SWAP1 SWAP5 ADD SWAP4 SWAP1 SWAP2 DUP4 ADD DUP3 DUP3 DUP1 ISZERO PUSH2 0x12D7 JUMPI PUSH1 0x20 MUL DUP3 ADD SWAP2 SWAP1 PUSH1 0x0 MSTORE PUSH1 0x20 PUSH1 0x0 KECCAK256 SWAP1 JUMPDEST DUP2 SLOAD DUP2 MSTORE PUSH1 0x20 ADD SWAP1 PUSH1 0x1 ADD SWAP1 DUP1 DUP4 GT PUSH2 0x12C3 JUMPI JUMPDEST POP POP POP POP POP DUP2 MSTORE PUSH1 0x20 ADD PUSH1 0x8 DUP3 ADD DUP1 SLOAD DUP1 PUSH1 0x20 MUL PUSH1 0x20 ADD PUSH1 0x40 MLOAD SWAP1 DUP2 ADD PUSH1 0x40 MSTORE DUP1 SWAP3 SWAP2 SWAP1 DUP2 DUP2 MSTORE PUSH1 0x20 ADD DUP3 DUP1 SLOAD DUP1 ISZERO PUSH2 0x132F JUMPI PUSH1 0x20 MUL DUP3 ADD SWAP2 SWAP1 PUSH1 0x0 MSTORE PUSH1 0x20 PUSH1 0x0 KECCAK256 SWAP1 JUMPDEST DUP2 SLOAD DUP2 MSTORE PUSH1 0x20 ADD SWAP1 PUSH1 0x1 ADD SWAP1 DUP1 DUP4 GT PUSH2 0x131B JUMPI JUMPDEST POP POP POP SWAP2 DUP4 MSTORE POP POP PUSH1 0x9 DUP3 ADD SLOAD PUSH20 0xFFFFFFFFFFFFFFFFFFFFFFFFFFFFFFFFFFFFFFFF AND PUSH1 0x20 DUP3 ADD MSTORE PUSH1 0xA DUP3 ADD SLOAD PUSH1 0x40 DUP3 ADD MSTORE PUSH1 0xB DUP3 ADD SLOAD PUSH1 0x60 DUP3 ADD MSTORE PUSH1 0xC DUP3 ADD SLOAD PUSH1 0x80 DUP3 ADD MSTORE PUSH1 0xD SWAP1 SWAP2 ADD SLOAD PUSH1 0xA0 SWAP1 SWAP2 ADD MSTORE SWAP3 SWAP2 POP POP JUMP JUMPDEST PUSH32 0x5B618AB2FEE761C09BF71319707CEFA62ECCC93DCC483744898E6C3ACF452643 PUSH2 0x13B1 DUP2 PUSH2 0x2672 JUMP JUMPDEST DUP5 PUSH1 0x0 DUP5 PUSH8 0xFFFFFFFFFFFFFFFF DUP2 GT ISZERO PUSH2 0x13CD JUMPI PUSH2 0x13CD PUSH2 0x3C0A JUMP JUMPDEST PUSH1 0x40 MLOAD SWAP1 DUP1 DUP3 MSTORE DUP1 PUSH1 0x20 MUL PUSH1 0x20 ADD DUP3 ADD PUSH1 0x40 MSTORE DUP1 ISZERO PUSH2 0x13F6 JUMPI DUP2 PUSH1 0x20 ADD PUSH1 0x20 DUP3 MUL DUP1 CALLDATASIZE DUP4 CALLDATACOPY ADD SWAP1 POP JUMPDEST POP SWAP1 POP PUSH1 0x0 JUMPDEST DUP6 DUP2 LT ISZERO PUSH2 0x14FC JUMPI DUP3 PUSH20 0xFFFFFFFFFFFFFFFFFFFFFFFFFFFFFFFFFFFFFFFF AND PUSH3 0xFDD58E ADDRESS DUP10 DUP10 DUP6 DUP2 DUP2 LT PUSH2 0x1432 JUMPI PUSH2 0x1432 PUSH2 0x3EA5 JUMP JUMPDEST PUSH1 0x40 MLOAD PUSH32 0xFFFFFFFF00000000000000000000000000000000000000000000000000000000 PUSH1 0xE0 DUP8 SWAP1 SHL AND DUP2 MSTORE PUSH20 0xFFFFFFFFFFFFFFFFFFFFFFFFFFFFFFFFFFFFFFFF SWAP1 SWAP5 AND PUSH1 0x4 DUP6 ADD MSTORE PUSH1 0x20 MUL SWAP2 SWAP1 SWAP2 ADD CALLDATALOAD PUSH1 0x24 DUP4 ADD MSTORE POP PUSH1 0x44 ADD PUSH1 0x20 PUSH1 0x40 MLOAD DUP1 DUP4 SUB DUP2 DUP7 GAS STATICCALL ISZERO DUP1 ISZERO PUSH2 0x14A9 JUMPI RETURNDATASIZE PUSH1 0x0 DUP1 RETURNDATACOPY RETURNDATASIZE PUSH1 0x0 REVERT JUMPDEST POP POP POP POP PUSH1 0x40 MLOAD RETURNDATASIZE PUSH1 0x1F NOT PUSH1 0x1F DUP3 ADD AND DUP3 ADD DUP1 PUSH1 0x40 MSTORE POP DUP2 ADD SWAP1 PUSH2 0x14CD SWAP2 SWAP1 PUSH2 0x3F3B JUMP JUMPDEST DUP3 DUP3 DUP2 MLOAD DUP2 LT PUSH2 0x14DF JUMPI PUSH2 0x14DF PUSH2 0x3EA5 JUMP JUMPDEST PUSH1 0x20 SWAP1 DUP2 MUL SWAP2 SWAP1 SWAP2 ADD ADD MSTORE DUP1 PUSH2 0x14F4 DUP2 PUSH2 0x3F03 JUMP JUMPDEST SWAP2 POP POP PUSH2 0x13FC JUMP JUMPDEST POP PUSH1 0x40 MLOAD PUSH32 0x2EB2C2D600000000000000000000000000000000000000000000000000000000 DUP2 MSTORE PUSH20 0xFFFFFFFFFFFFFFFFFFFFFFFFFFFFFFFFFFFFFFFF DUP4 AND SWAP1 PUSH4 0x2EB2C2D6 SWAP1 PUSH2 0x1557 SWAP1 ADDRESS SWAP1 DUP9 SWAP1 DUP12 SWAP1 DUP12 SWAP1 DUP9 SWAP1 PUSH1 0x4 ADD PUSH2 0x3F54 JUMP JUMPDEST PUSH1 0x0 PUSH1 0x40 MLOAD DUP1 DUP4 SUB DUP2 PUSH1 0x0 DUP8 DUP1 EXTCODESIZE ISZERO DUP1 ISZERO PUSH2 0x1571 JUMPI PUSH1 0x0 DUP1 REVERT JUMPDEST POP GAS CALL ISZERO DUP1 ISZERO PUSH2 0x1585 JUMPI RETURNDATASIZE PUSH1 0x0 DUP1 RETURNDATACOPY RETURNDATASIZE PUSH1 0x0 REVERT JUMPDEST POP POP POP POP POP POP POP POP POP POP POP JUMP JUMPDEST PUSH1 0x60 PUSH1 0x0 PUSH2 0x15A0 PUSH1 0x4 PUSH2 0x2F67 JUMP JUMPDEST DUP5 LT PUSH2 0x15AD JUMPI PUSH1 0x0 PUSH2 0x15C2 JUMP JUMPDEST DUP4 PUSH2 0x15B8 PUSH1 0x4 PUSH2 0x2F67 JUMP JUMPDEST PUSH2 0x15C2 SWAP2 SWAP1 PUSH2 0x3FF7 JUMP JUMPDEST SWAP1 POP PUSH1 0x0 DUP4 DUP3 GT ISZERO PUSH2 0x15D4 JUMPI DUP4 PUSH2 0x15D6 JUMP JUMPDEST DUP2 JUMPDEST SWAP1 POP PUSH1 0x0 DUP2 PUSH8 0xFFFFFFFFFFFFFFFF DUP2 GT ISZERO PUSH2 0x15F3 JUMPI PUSH2 0x15F3 PUSH2 0x3C0A JUMP JUMPDEST PUSH1 0x40 MLOAD SWAP1 DUP1 DUP3 MSTORE DUP1 PUSH1 0x20 MUL PUSH1 0x20 ADD DUP3 ADD PUSH1 0x40 MSTORE DUP1 ISZERO PUSH2 0x16EE JUMPI DUP2 PUSH1 0x20 ADD JUMPDEST PUSH2 0x16DB PUSH1 0x40 MLOAD DUP1 PUSH2 0x1C0 ADD PUSH1 0x40 MSTORE DUP1 PUSH1 0x0 DUP2 MSTORE PUSH1 0x20 ADD PUSH1 0x0 PUSH20 0xFFFFFFFFFFFFFFFFFFFFFFFFFFFFFFFFFFFFFFFF AND DUP2 MSTORE PUSH1 0x20 ADD PUSH1 0x60 DUP2 MSTORE PUSH1 0x20 ADD PUSH1 0x60 DUP2 MSTORE PUSH1 0x20 ADD PUSH1 0x0 PUSH20 0xFFFFFFFFFFFFFFFFFFFFFFFFFFFFFFFFFFFFFFFF AND DUP2 MSTORE PUSH1 0x20 ADD PUSH1 0x0 DUP2 MSTORE PUSH1 0x20 ADD PUSH1 0x0 PUSH20 0xFFFFFFFFFFFFFFFFFFFFFFFFFFFFFFFFFFFFFFFF AND DUP2 MSTORE PUSH1 0x20 ADD PUSH1 0x60 DUP2 MSTORE PUSH1 0x20 ADD PUSH1 0x60 DUP2 MSTORE PUSH1 0x20 ADD PUSH1 0x0 PUSH20 0xFFFFFFFFFFFFFFFFFFFFFFFFFFFFFFFFFFFFFFFF AND DUP2 MSTORE PUSH1 0x20 ADD PUSH1 0x0 DUP2 MSTORE PUSH1 0x20 ADD PUSH1 0x0 DUP2 MSTORE PUSH1 0x20 ADD PUSH1 0x0 DUP2 MSTORE PUSH1 0x20 ADD PUSH1 0x0 DUP2 MSTORE POP SWAP1 JUMP JUMPDEST DUP2 MSTORE PUSH1 0x20 ADD SWAP1 PUSH1 0x1 SWAP1 SUB SWAP1 DUP2 PUSH2 0x1611 JUMPI SWAP1 POP JUMPDEST POP SWAP1 POP PUSH1 0x0 JUMPDEST DUP3 DUP2 LT ISZERO PUSH2 0x1967 JUMPI PUSH1 0x6 PUSH1 0x0 PUSH2 0x1715 PUSH2 0x170D DUP5 DUP12 PUSH2 0x400A JUMP JUMPDEST PUSH1 0x4 SWAP1 PUSH2 0x2F5B JUMP JUMPDEST DUP2 MSTORE PUSH1 0x20 DUP1 DUP3 ADD SWAP3 SWAP1 SWAP3 MSTORE PUSH1 0x40 SWAP1 DUP2 ADD PUSH1 0x0 KECCAK256 DUP2 MLOAD PUSH2 0x1C0 DUP2 ADD DUP4 MSTORE DUP2 SLOAD DUP2 MSTORE PUSH1 0x1 DUP3 ADD SLOAD PUSH20 0xFFFFFFFFFFFFFFFFFFFFFFFFFFFFFFFFFFFFFFFF AND DUP2 DUP6 ADD MSTORE PUSH1 0x2 DUP3 ADD DUP1 SLOAD DUP5 MLOAD DUP2 DUP8 MUL DUP2 ADD DUP8 ADD DUP7 MSTORE DUP2 DUP2 MSTORE SWAP3 SWAP6 SWAP4 SWAP5 DUP7 ADD SWAP4 DUP4 ADD DUP3 DUP3 DUP1 ISZERO PUSH2 0x179E JUMPI PUSH1 0x20 MUL DUP3 ADD SWAP2 SWAP1 PUSH1 0x0 MSTORE PUSH1 0x20 PUSH1 0x0 KECCAK256 SWAP1 JUMPDEST DUP2 SLOAD DUP2 MSTORE PUSH1 0x20 ADD SWAP1 PUSH1 0x1 ADD SWAP1 DUP1 DUP4 GT PUSH2 0x178A JUMPI JUMPDEST POP POP POP POP POP DUP2 MSTORE PUSH1 0x20 ADD PUSH1 0x3 DUP3 ADD DUP1 SLOAD DUP1 PUSH1 0x20 MUL PUSH1 0x20 ADD PUSH1 0x40 MLOAD SWAP1 DUP2 ADD PUSH1 0x40 MSTORE DUP1 SWAP3 SWAP2 SWAP1 DUP2 DUP2 MSTORE PUSH1 0x20 ADD DUP3 DUP1 SLOAD DUP1 ISZERO PUSH2 0x17F6 JUMPI PUSH1 0x20 MUL DUP3 ADD SWAP2 SWAP1 PUSH1 0x0 MSTORE PUSH1 0x20 PUSH1 0x0 KECCAK256 SWAP1 JUMPDEST DUP2 SLOAD DUP2 MSTORE PUSH1 0x20 ADD SWAP1 PUSH1 0x1 ADD SWAP1 DUP1 DUP4 GT PUSH2 0x17E2 JUMPI JUMPDEST POP POP POP SWAP2 DUP4 MSTORE POP POP PUSH1 0x4 DUP3 ADD SLOAD PUSH20 0xFFFFFFFFFFFFFFFFFFFFFFFFFFFFFFFFFFFFFFFF SWAP1 DUP2 AND PUSH1 0x20 DUP1 DUP5 ADD SWAP2 SWAP1 SWAP2 MSTORE PUSH1 0x5 DUP5 ADD SLOAD PUSH1 0x40 DUP1 DUP6 ADD SWAP2 SWAP1 SWAP2 MSTORE PUSH1 0x6 DUP6 ADD SLOAD SWAP1 SWAP3 AND PUSH1 0x60 DUP5 ADD MSTORE PUSH1 0x7 DUP5 ADD DUP1 SLOAD DUP4 MLOAD DUP2 DUP5 MUL DUP2 ADD DUP5 ADD SWAP1 SWAP5 MSTORE DUP1 DUP5 MSTORE PUSH1 0x80 SWAP1 SWAP5 ADD SWAP4 SWAP1 SWAP2 DUP4 ADD DUP3 DUP3 DUP1 ISZERO PUSH2 0x188B JUMPI PUSH1 0x20 MUL DUP3 ADD SWAP2 SWAP1 PUSH1 0x0 MSTORE PUSH1 0x20 PUSH1 0x0 KECCAK256 SWAP1 JUMPDEST DUP2 SLOAD DUP2 MSTORE PUSH1 0x20 ADD SWAP1 PUSH1 0x1 ADD SWAP1 DUP1 DUP4 GT PUSH2 0x1877 JUMPI JUMPDEST POP POP POP POP POP DUP2 MSTORE PUSH1 0x20 ADD PUSH1 0x8 DUP3 ADD DUP1 SLOAD DUP1 PUSH1 0x20 MUL PUSH1 0x20 ADD PUSH1 0x40 MLOAD SWAP1 DUP2 ADD PUSH1 0x40 MSTORE DUP1 SWAP3 SWAP2 SWAP1 DUP2 DUP2 MSTORE PUSH1 0x20 ADD DUP3 DUP1 SLOAD DUP1 ISZERO PUSH2 0x18E3 JUMPI PUSH1 0x20 MUL DUP3 ADD SWAP2 SWAP1 PUSH1 0x0 MSTORE PUSH1 0x20 PUSH1 0x0 KECCAK256 SWAP1 JUMPDEST DUP2 SLOAD DUP2 MSTORE PUSH1 0x20 ADD SWAP1 PUSH1 0x1 ADD SWAP1 DUP1 DUP4 GT PUSH2 0x18CF JUMPI JUMPDEST POP POP POP SWAP2 DUP4 MSTORE POP POP PUSH1 0x9 DUP3 ADD SLOAD PUSH20 0xFFFFFFFFFFFFFFFFFFFFFFFFFFFFFFFFFFFFFFFF AND PUSH1 0x20 DUP3 ADD MSTORE PUSH1 0xA DUP3 ADD SLOAD PUSH1 0x40 DUP3 ADD MSTORE PUSH1 0xB DUP3 ADD SLOAD PUSH1 0x60 DUP3 ADD MSTORE PUSH1 0xC DUP3 ADD SLOAD PUSH1 0x80 DUP3 ADD MSTORE PUSH1 0xD SWAP1 SWAP2 ADD SLOAD PUSH1 0xA0 SWAP1 SWAP2 ADD MSTORE DUP3 MLOAD DUP4 SWAP1 DUP4 SWAP1 DUP2 LT PUSH2 0x1949 JUMPI PUSH2 0x1949 PUSH2 0x3EA5 JUMP JUMPDEST PUSH1 0x20 MUL PUSH1 0x20 ADD ADD DUP2 SWAP1 MSTORE POP DUP1 DUP1 PUSH2 0x195F SWAP1 PUSH2 0x3F03 JUMP JUMPDEST SWAP2 POP POP PUSH2 0x16F4 JUMP JUMPDEST POP SWAP6 SWAP5 POP POP POP POP POP JUMP JUMPDEST PUSH1 0x60 PUSH1 0x0 PUSH2 0x197F PUSH1 0x4 PUSH2 0x2F67 JUMP JUMPDEST DUP5 LT PUSH2 0x198C JUMPI PUSH1 0x0 PUSH2 0x19A1 JUMP JUMPDEST DUP4 PUSH2 0x1997 PUSH1 0x4 PUSH2 0x2F67 JUMP JUMPDEST PUSH2 0x19A1 SWAP2 SWAP1 PUSH2 0x3FF7 JUMP JUMPDEST SWAP1 POP PUSH1 0x0 DUP4 DUP3 GT ISZERO PUSH2 0x19B3 JUMPI DUP4 PUSH2 0x19B5 JUMP JUMPDEST DUP2 JUMPDEST SWAP1 POP PUSH1 0x0 DUP2 PUSH8 0xFFFFFFFFFFFFFFFF DUP2 GT ISZERO PUSH2 0x19D2 JUMPI PUSH2 0x19D2 PUSH2 0x3C0A JUMP JUMPDEST PUSH1 0x40 MLOAD SWAP1 DUP1 DUP3 MSTORE DUP1 PUSH1 0x20 MUL PUSH1 0x20 ADD DUP3 ADD PUSH1 0x40 MSTORE DUP1 ISZERO PUSH2 0x1A05 JUMPI DUP2 PUSH1 0x20 ADD JUMPDEST PUSH1 0x60 DUP2 MSTORE PUSH1 0x20 ADD SWAP1 PUSH1 0x1 SWAP1 SUB SWAP1 DUP2 PUSH2 0x19F0 JUMPI SWAP1 POP JUMPDEST POP SWAP1 POP PUSH1 0x0 JUMPDEST DUP3 DUP2 LT ISZERO PUSH2 0x1967 JUMPI PUSH2 0x1A23 PUSH2 0x238 PUSH2 0x170D DUP4 DUP11 PUSH2 0x400A JUMP JUMPDEST DUP3 DUP3 DUP2 MLOAD DUP2 LT PUSH2 0x1A35 JUMPI PUSH2 0x1A35 PUSH2 0x3EA5 JUMP JUMPDEST PUSH1 0x20 MUL PUSH1 0x20 ADD ADD DUP2 SWAP1 MSTORE POP DUP1 DUP1 PUSH2 0x1A4B SWAP1 PUSH2 0x3F03 JUMP JUMPDEST SWAP2 POP POP PUSH2 0x1A0B JUMP JUMPDEST PUSH32 0x5B618AB2FEE761C09BF71319707CEFA62ECCC93DCC483744898E6C3ACF452643 PUSH2 0x1A7D DUP2 PUSH2 0x2672 JUMP JUMPDEST PUSH1 0x40 MLOAD PUSH32 0x70A0823100000000000000000000000000000000000000000000000000000000 DUP2 MSTORE ADDRESS PUSH1 0x4 DUP3 ADD MSTORE DUP4 SWAP1 PUSH20 0xFFFFFFFFFFFFFFFFFFFFFFFFFFFFFFFFFFFFFFFF DUP3 AND SWAP1 PUSH4 0xA9059CBB SWAP1 DUP6 SWAP1 DUP4 SWAP1 PUSH4 0x70A08231 SWAP1 PUSH1 0x24 ADD PUSH1 0x20 PUSH1 0x40 MLOAD DUP1 DUP4 SUB DUP2 DUP7 GAS STATICCALL ISZERO DUP1 ISZERO PUSH2 0x1AF3 JUMPI RETURNDATASIZE PUSH1 0x0 DUP1 RETURNDATACOPY RETURNDATASIZE PUSH1 0x0 REVERT JUMPDEST POP POP POP POP PUSH1 0x40 MLOAD RETURNDATASIZE PUSH1 0x1F NOT PUSH1 0x1F DUP3 ADD AND DUP3 ADD DUP1 PUSH1 0x40 MSTORE POP DUP2 ADD SWAP1 PUSH2 0x1B17 SWAP2 SWAP1 PUSH2 0x3F3B JUMP JUMPDEST PUSH1 0x40 MLOAD PUSH32 0xFFFFFFFF00000000000000000000000000000000000000000000000000000000 PUSH1 0xE0 DUP6 SWAP1 SHL AND DUP2 MSTORE PUSH20 0xFFFFFFFFFFFFFFFFFFFFFFFFFFFFFFFFFFFFFFFF SWAP1 SWAP3 AND PUSH1 0x4 DUP4 ADD MSTORE PUSH1 0x24 DUP3 ADD MSTORE PUSH1 0x44 ADD PUSH1 0x20 PUSH1 0x40 MLOAD DUP1 DUP4 SUB DUP2 PUSH1 0x0 DUP8 GAS CALL ISZERO DUP1 ISZERO PUSH2 0x1B87 JUMPI RETURNDATASIZE PUSH1 0x0 DUP1 RETURNDATACOPY RETURNDATASIZE PUSH1 0x0 REVERT JUMPDEST POP POP POP POP PUSH1 0x40 MLOAD RETURNDATASIZE PUSH1 0x1F NOT PUSH1 0x1F DUP3 ADD AND DUP3 ADD DUP1 PUSH1 0x40 MSTORE POP DUP2 ADD SWAP1 PUSH2 0x1BAB SWAP2 SWAP1 PUSH2 0x401D JUMP JUMPDEST POP POP POP POP POP JUMP JUMPDEST PUSH32 0x5B618AB2FEE761C09BF71319707CEFA62ECCC93DCC483744898E6C3ACF452643 PUSH2 0x1BDC DUP2 PUSH2 0x2672 JUMP JUMPDEST PUSH2 0x1BE7 PUSH1 0x4 DUP4 PUSH2 0x2F89 JUMP JUMPDEST POP PUSH1 0x0 DUP3 DUP2 MSTORE PUSH1 0x6 PUSH1 0x20 MSTORE PUSH1 0x40 SWAP1 DUP2 SWAP1 KECCAK256 SWAP1 MLOAD DUP4 SWAP1 PUSH32 0x6A1A138E164465AABD2F777A1616DB53B1E03EBFC20E197765E62FA2B748600B SWAP1 PUSH2 0x1C29 SWAP1 DUP5 SWAP1 PUSH2 0x41DD JUMP JUMPDEST PUSH1 0x40 MLOAD DUP1 SWAP2 SUB SWAP1 LOG2 PUSH1 0x0 PUSH1 0xB SWAP1 SWAP2 ADD SSTORE POP POP JUMP JUMPDEST PUSH32 0x5B618AB2FEE761C09BF71319707CEFA62ECCC93DCC483744898E6C3ACF452643 PUSH2 0x1C67 DUP2 PUSH2 0x2672 JUMP JUMPDEST PUSH2 0x1C71 DUP6 DUP1 PUSH2 0x41F0 JUMP JUMPDEST SWAP1 POP PUSH2 0x1C7D DUP8 DUP1 PUSH2 0x41F0 JUMP JUMPDEST SWAP1 POP EQ PUSH2 0x1D0C JUMPI PUSH1 0x40 MLOAD PUSH32 0x8C379A000000000000000000000000000000000000000000000000000000000 DUP2 MSTORE PUSH1 0x20 PUSH1 0x4 DUP3 ADD MSTORE PUSH1 0x22 PUSH1 0x24 DUP3 ADD MSTORE PUSH32 0x496E707574206974656D7320616E6420616D6F756E7473206D69736D61746368 PUSH1 0x44 DUP3 ADD MSTORE PUSH32 0x6564000000000000000000000000000000000000000000000000000000000000 PUSH1 0x64 DUP3 ADD MSTORE PUSH1 0x84 ADD PUSH2 0x8CB JUMP JUMPDEST PUSH2 0x1D19 PUSH1 0x20 DUP7 ADD DUP7 PUSH2 0x41F0 JUMP JUMPDEST SWAP1 POP PUSH2 0x1D28 PUSH1 0x20 DUP9 ADD DUP9 PUSH2 0x41F0 JUMP JUMPDEST SWAP1 POP EQ PUSH2 0x1DB7 JUMPI PUSH1 0x40 MLOAD PUSH32 0x8C379A000000000000000000000000000000000000000000000000000000000 DUP2 MSTORE PUSH1 0x20 PUSH1 0x4 DUP3 ADD MSTORE PUSH1 0x23 PUSH1 0x24 DUP3 ADD MSTORE PUSH32 0x4F7574707574206974656D7320616E6420616D6F756E7473206D69736D617463 PUSH1 0x44 DUP3 ADD MSTORE PUSH32 0x6865640000000000000000000000000000000000000000000000000000000000 PUSH1 0x64 DUP3 ADD MSTORE PUSH1 0x84 ADD PUSH2 0x8CB JUMP JUMPDEST PUSH1 0x0 PUSH1 0x40 MLOAD DUP1 PUSH2 0x1C0 ADD PUSH1 0x40 MSTORE DUP1 DUP11 DUP2 MSTORE PUSH1 0x20 ADD DUP10 PUSH1 0x0 PUSH1 0x2 DUP2 LT PUSH2 0x1DDE JUMPI PUSH2 0x1DDE PUSH2 0x3EA5 JUMP JUMPDEST PUSH1 0x20 MUL ADD PUSH1 0x20 DUP2 ADD SWAP1 PUSH2 0x1DF1 SWAP2 SWAP1 PUSH2 0x37F4 JUMP JUMPDEST PUSH20 0xFFFFFFFFFFFFFFFFFFFFFFFFFFFFFFFFFFFFFFFF AND DUP2 MSTORE PUSH1 0x20 ADD PUSH2 0x1E16 DUP10 DUP1 PUSH2 0x41F0 JUMP JUMPDEST DUP1 DUP1 PUSH1 0x20 MUL PUSH1 0x20 ADD PUSH1 0x40 MLOAD SWAP1 DUP2 ADD PUSH1 0x40 MSTORE DUP1 SWAP4 SWAP3 SWAP2 SWAP1 DUP2 DUP2 MSTORE PUSH1 0x20 ADD DUP4 DUP4 PUSH1 0x20 MUL DUP1 DUP3 DUP5 CALLDATACOPY PUSH1 0x0 SWAP3 ADD SWAP2 SWAP1 SWAP2 MSTORE POP POP POP SWAP1 DUP3 MSTORE POP PUSH1 0x20 ADD PUSH2 0x1E57 DUP9 DUP1 PUSH2 0x41F0 JUMP JUMPDEST DUP1 DUP1 PUSH1 0x20 MUL PUSH1 0x20 ADD PUSH1 0x40 MLOAD SWAP1 DUP2 ADD PUSH1 0x40 MSTORE DUP1 SWAP4 SWAP3 SWAP2 SWAP1 DUP2 DUP2 MSTORE PUSH1 0x20 ADD DUP4 DUP4 PUSH1 0x20 MUL DUP1 DUP3 DUP5 CALLDATACOPY PUSH1 0x0 SWAP3 ADD SWAP2 SWAP1 SWAP2 MSTORE POP POP POP SWAP1 DUP3 MSTORE POP PUSH1 0x20 SWAP1 DUP2 ADD SWAP1 PUSH2 0x1E9D SWAP1 DUP9 ADD DUP9 PUSH2 0x37F4 JUMP JUMPDEST PUSH20 0xFFFFFFFFFFFFFFFFFFFFFFFFFFFFFFFFFFFFFFFF AND DUP2 MSTORE DUP6 CALLDATALOAD PUSH1 0x20 DUP3 ADD MSTORE PUSH1 0x40 ADD DUP10 PUSH1 0x1 PUSH1 0x20 MUL ADD PUSH1 0x20 DUP2 ADD SWAP1 PUSH2 0x1ED5 SWAP2 SWAP1 PUSH2 0x37F4 JUMP JUMPDEST PUSH20 0xFFFFFFFFFFFFFFFFFFFFFFFFFFFFFFFFFFFFFFFF AND DUP2 MSTORE PUSH1 0x20 SWAP1 DUP2 ADD SWAP1 PUSH2 0x1EFF SWAP1 DUP11 ADD DUP11 PUSH2 0x41F0 JUMP JUMPDEST DUP1 DUP1 PUSH1 0x20 MUL PUSH1 0x20 ADD PUSH1 0x40 MLOAD SWAP1 DUP2 ADD PUSH1 0x40 MSTORE DUP1 SWAP4 SWAP3 SWAP2 SWAP1 DUP2 DUP2 MSTORE PUSH1 0x20 ADD DUP4 DUP4 PUSH1 0x20 MUL DUP1 DUP3 DUP5 CALLDATACOPY PUSH1 0x0 SWAP3 ADD SWAP2 SWAP1 SWAP2 MSTORE POP POP POP SWAP1 DUP3 MSTORE POP PUSH1 0x20 SWAP1 DUP2 ADD SWAP1 PUSH2 0x1F45 SWAP1 DUP10 ADD DUP10 PUSH2 0x41F0 JUMP JUMPDEST DUP1 DUP1 PUSH1 0x20 MUL PUSH1 0x20 ADD PUSH1 0x40 MLOAD SWAP1 DUP2 ADD PUSH1 0x40 MSTORE DUP1 SWAP4 SWAP3 SWAP2 SWAP1 DUP2 DUP2 MSTORE PUSH1 0x20 ADD DUP4 DUP4 PUSH1 0x20 MUL DUP1 DUP3 DUP5 CALLDATACOPY PUSH1 0x0 SWAP3 ADD SWAP2 SWAP1 SWAP2 MSTORE POP POP POP SWAP1 DUP3 MSTORE POP PUSH1 0x20 SWAP1 DUP2 ADD SWAP1 PUSH2 0x1F8F SWAP1 PUSH1 0x40 DUP10 ADD SWAP1 DUP10 ADD PUSH2 0x37F4 JUMP JUMPDEST PUSH20 0xFFFFFFFFFFFFFFFFFFFFFFFFFFFFFFFFFFFFFFFF AND DUP2 MSTORE PUSH1 0x20 DUP7 DUP2 ADD CALLDATALOAD DUP2 DUP4 ADD MSTORE PUSH1 0x0 DUP13 DUP2 MSTORE PUSH1 0x6 SWAP1 SWAP2 MSTORE PUSH1 0x40 SWAP1 DUP2 SWAP1 KECCAK256 PUSH1 0xB ADD SLOAD SWAP1 DUP3 ADD MSTORE PUSH1 0x60 DUP2 ADD DUP6 SWAP1 MSTORE TIMESTAMP PUSH1 0x80 SWAP1 SWAP2 ADD MSTORE SWAP1 POP PUSH2 0x1FE4 PUSH1 0x4 DUP11 PUSH2 0x2F95 JUMP JUMPDEST POP PUSH1 0x0 DUP10 DUP2 MSTORE PUSH1 0x6 PUSH1 0x20 SWAP1 DUP2 MSTORE PUSH1 0x40 SWAP2 DUP3 SWAP1 KECCAK256 DUP4 MLOAD DUP2 SSTORE DUP4 DUP3 ADD MLOAD PUSH1 0x1 DUP3 ADD DUP1 SLOAD PUSH32 0xFFFFFFFFFFFFFFFFFFFFFFFF0000000000000000000000000000000000000000 AND PUSH20 0xFFFFFFFFFFFFFFFFFFFFFFFFFFFFFFFFFFFFFFFF SWAP1 SWAP3 AND SWAP2 SWAP1 SWAP2 OR SWAP1 SSTORE SWAP2 DUP4 ADD MLOAD DUP1 MLOAD DUP5 SWAP4 SWAP3 PUSH2 0x205F SWAP3 PUSH1 0x2 DUP6 ADD SWAP3 SWAP2 ADD SWAP1 PUSH2 0x3696 JUMP JUMPDEST POP PUSH1 0x60 DUP3 ADD MLOAD DUP1 MLOAD PUSH2 0x207B SWAP2 PUSH1 0x3 DUP5 ADD SWAP2 PUSH1 0x20 SWAP1 SWAP2 ADD SWAP1 PUSH2 0x3696 JUMP JUMPDEST POP PUSH1 0x80 DUP3 ADD MLOAD PUSH1 0x4 DUP3 ADD DUP1 SLOAD PUSH20 0xFFFFFFFFFFFFFFFFFFFFFFFFFFFFFFFFFFFFFFFF SWAP3 DUP4 AND PUSH32 0xFFFFFFFFFFFFFFFFFFFFFFFF0000000000000000000000000000000000000000 SWAP2 DUP3 AND OR SWAP1 SWAP2 SSTORE PUSH1 0xA0 DUP5 ADD MLOAD PUSH1 0x5 DUP5 ADD SSTORE PUSH1 0xC0 DUP5 ADD MLOAD PUSH1 0x6 DUP5 ADD DUP1 SLOAD SWAP2 SWAP1 SWAP4 AND SWAP2 AND OR SWAP1 SSTORE PUSH1 0xE0 DUP3 ADD MLOAD DUP1 MLOAD PUSH2 0x2100 SWAP2 PUSH1 0x7 DUP5 ADD SWAP2 PUSH1 0x20 SWAP1 SWAP2 ADD SWAP1 PUSH2 0x3696 JUMP JUMPDEST POP PUSH2 0x100 DUP3 ADD MLOAD DUP1 MLOAD PUSH2 0x211D SWAP2 PUSH1 0x8 DUP5 ADD SWAP2 PUSH1 0x20 SWAP1 SWAP2 ADD SWAP1 PUSH2 0x3696 JUMP JUMPDEST POP PUSH2 0x120 DUP3 ADD MLOAD PUSH1 0x9 DUP3 ADD DUP1 SLOAD PUSH32 0xFFFFFFFFFFFFFFFFFFFFFFFF0000000000000000000000000000000000000000 AND PUSH20 0xFFFFFFFFFFFFFFFFFFFFFFFFFFFFFFFFFFFFFFFF SWAP1 SWAP3 AND SWAP2 SWAP1 SWAP2 OR SWAP1 SSTORE PUSH2 0x140 DUP3 ADD MLOAD PUSH1 0xA DUP3 ADD SSTORE PUSH2 0x160 DUP3 ADD MLOAD PUSH1 0xB DUP3 ADD SSTORE PUSH2 0x180 DUP3 ADD MLOAD PUSH1 0xC DUP3 ADD SSTORE PUSH2 0x1A0 SWAP1 SWAP2 ADD MLOAD PUSH1 0xD SWAP1 SWAP2 ADD SSTORE PUSH1 0x40 MLOAD DUP10 SWAP1 PUSH32 0xFCB9E66873133101FFDF745DA3859E2B3736909576D4D11D6982E3E0E19D9754 SWAP1 PUSH2 0x21CA SWAP1 DUP5 SWAP1 PUSH2 0x3A55 JUMP JUMPDEST PUSH1 0x40 MLOAD DUP1 SWAP2 SUB SWAP1 LOG2 POP POP POP POP POP POP POP POP POP JUMP JUMPDEST PUSH2 0x21E5 PUSH2 0x2683 JUMP JUMPDEST PUSH1 0x0 DUP2 GT PUSH2 0x224F JUMPI PUSH1 0x40 MLOAD PUSH32 0x8C379A000000000000000000000000000000000000000000000000000000000 DUP2 MSTORE PUSH1 0x20 PUSH1 0x4 DUP3 ADD MSTORE PUSH1 0x12 PUSH1 0x24 DUP3 ADD MSTORE PUSH32 0x74696D65732063616E6E6F7420626520302E0000000000000000000000000000 PUSH1 0x44 DUP3 ADD MSTORE PUSH1 0x64 ADD PUSH2 0x8CB JUMP JUMPDEST PUSH2 0x2259 DUP3 DUP3 PUSH2 0x26F6 JUMP JUMPDEST PUSH2 0xA6E PUSH1 0x1 PUSH1 0x3 SSTORE JUMP JUMPDEST PUSH1 0x0 PUSH2 0xAC6 PUSH1 0x4 PUSH2 0x2F67 JUMP JUMPDEST PUSH32 0x5B618AB2FEE761C09BF71319707CEFA62ECCC93DCC483744898E6C3ACF452643 PUSH2 0x2299 DUP2 PUSH2 0x2672 JUMP JUMPDEST PUSH1 0x0 DUP1 SLOAD PUSH32 0xFFFFFFFFFFFFFFFFFFFFFFFF0000000000000000000000000000000000000000 AND PUSH20 0xFFFFFFFFFFFFFFFFFFFFFFFFFFFFFFFFFFFFFFFF DUP5 AND OR SWAP1 SSTORE POP POP JUMP JUMPDEST PUSH1 0x60 PUSH1 0x0 PUSH2 0x22EB PUSH1 0x4 PUSH2 0x2F67 JUMP JUMPDEST DUP5 LT PUSH2 0x22F8 JUMPI PUSH1 0x0 PUSH2 0x230D JUMP JUMPDEST DUP4 PUSH2 0x2303 PUSH1 0x4 PUSH2 0x2F67 JUMP JUMPDEST PUSH2 0x230D SWAP2 SWAP1 PUSH2 0x3FF7 JUMP JUMPDEST SWAP1 POP PUSH1 0x0 DUP4 DUP3 GT ISZERO PUSH2 0x231F JUMPI DUP4 PUSH2 0x2321 JUMP JUMPDEST DUP2 JUMPDEST SWAP1 POP PUSH1 0x0 DUP2 PUSH8 0xFFFFFFFFFFFFFFFF DUP2 GT ISZERO PUSH2 0x233E JUMPI PUSH2 0x233E PUSH2 0x3C0A JUMP JUMPDEST PUSH1 0x40 MLOAD SWAP1 DUP1 DUP3 MSTORE DUP1 PUSH1 0x20 MUL PUSH1 0x20 ADD DUP3 ADD PUSH1 0x40 MSTORE DUP1 ISZERO PUSH2 0x2367 JUMPI DUP2 PUSH1 0x20 ADD PUSH1 0x20 DUP3 MUL DUP1 CALLDATASIZE DUP4 CALLDATACOPY ADD SWAP1 POP JUMPDEST POP SWAP1 POP PUSH1 0x0 JUMPDEST DUP3 DUP2 LT ISZERO PUSH2 0x1967 JUMPI PUSH2 0x2382 PUSH2 0x170D DUP3 DUP10 PUSH2 0x400A JUMP JUMPDEST DUP3 DUP3 DUP2 MLOAD DUP2 LT PUSH2 0x2394 JUMPI PUSH2 0x2394 PUSH2 0x3EA5 JUMP JUMPDEST PUSH1 0x20 SWAP1 DUP2 MUL SWAP2 SWAP1 SWAP2 ADD ADD MSTORE DUP1 PUSH2 0x23A9 DUP2 PUSH2 0x3F03 JUMP JUMPDEST SWAP2 POP POP PUSH2 0x236D JUMP JUMPDEST PUSH1 0x0 DUP3 DUP2 MSTORE PUSH1 0x2 PUSH1 0x20 MSTORE PUSH1 0x40 SWAP1 KECCAK256 PUSH1 0x1 ADD SLOAD PUSH2 0x23CC DUP2 PUSH2 0x2672 JUMP JUMPDEST PUSH2 0xF7C DUP4 DUP4 PUSH2 0x257F JUMP JUMPDEST PUSH1 0x0 DUP1 SLOAD PUSH20 0xFFFFFFFFFFFFFFFFFFFFFFFFFFFFFFFFFFFFFFFF AND CALLER SUB PUSH2 0x2421 JUMPI POP PUSH32 0xFFFFFFFFFFFFFFFFFFFFFFFFFFFFFFFFFFFFFFFFFFFFFFFFFFFFFFFFFFFFFFEC CALLDATASIZE ADD CALLDATALOAD PUSH1 0x60 SHR SWAP1 JUMP JUMPDEST POP CALLER SWAP1 JUMP JUMPDEST CALLER SWAP1 JUMP JUMPDEST PUSH1 0x0 PUSH32 0xFFFFFFFF00000000000000000000000000000000000000000000000000000000 DUP3 AND PUSH32 0x4E2312E000000000000000000000000000000000000000000000000000000000 EQ DUP1 PUSH2 0x774 JUMPI POP PUSH2 0x774 DUP3 PUSH2 0x2FA1 JUMP JUMPDEST PUSH1 0x0 PUSH2 0xAC6 PUSH2 0x23D6 JUMP JUMPDEST PUSH1 0x0 DUP3 DUP2 MSTORE PUSH1 0x2 PUSH1 0x20 SWAP1 DUP2 MSTORE PUSH1 0x40 DUP1 DUP4 KECCAK256 PUSH20 0xFFFFFFFFFFFFFFFFFFFFFFFFFFFFFFFFFFFFFFFF DUP6 AND DUP5 MSTORE SWAP1 SWAP2 MSTORE SWAP1 KECCAK256 SLOAD PUSH1 0xFF AND PUSH2 0xA6E JUMPI PUSH1 0x0 DUP3 DUP2 MSTORE PUSH1 0x2 PUSH1 0x20 SWAP1 DUP2 MSTORE PUSH1 0x40 DUP1 DUP4 KECCAK256 PUSH20 0xFFFFFFFFFFFFFFFFFFFFFFFFFFFFFFFFFFFFFFFF DUP6 AND DUP5 MSTORE SWAP1 SWAP2 MSTORE SWAP1 KECCAK256 DUP1 SLOAD PUSH32 0xFFFFFFFFFFFFFFFFFFFFFFFFFFFFFFFFFFFFFFFFFFFFFFFFFFFFFFFFFFFFFF00 AND PUSH1 0x1 OR SWAP1 SSTORE PUSH2 0x2521 PUSH2 0x2480 JUMP JUMPDEST PUSH20 0xFFFFFFFFFFFFFFFFFFFFFFFFFFFFFFFFFFFFFFFF AND DUP2 PUSH20 0xFFFFFFFFFFFFFFFFFFFFFFFFFFFFFFFFFFFFFFFF AND DUP4 PUSH32 0x2F8788117E7EFF1D82E926EC794901D17C78024A50270940304540A733656F0D PUSH1 0x40 MLOAD PUSH1 0x40 MLOAD DUP1 SWAP2 SUB SWAP1 LOG4 POP POP JUMP JUMPDEST PUSH1 0x0 DUP3 DUP2 MSTORE PUSH1 0x2 PUSH1 0x20 SWAP1 DUP2 MSTORE PUSH1 0x40 DUP1 DUP4 KECCAK256 PUSH20 0xFFFFFFFFFFFFFFFFFFFFFFFFFFFFFFFFFFFFFFFF DUP6 AND DUP5 MSTORE SWAP1 SWAP2 MSTORE SWAP1 KECCAK256 SLOAD PUSH1 0xFF AND ISZERO PUSH2 0xA6E JUMPI PUSH1 0x0 DUP3 DUP2 MSTORE PUSH1 0x2 PUSH1 0x20 SWAP1 DUP2 MSTORE PUSH1 0x40 DUP1 DUP4 KECCAK256 PUSH20 0xFFFFFFFFFFFFFFFFFFFFFFFFFFFFFFFFFFFFFFFF DUP6 AND DUP5 MSTORE SWAP1 SWAP2 MSTORE SWAP1 KECCAK256 DUP1 SLOAD PUSH32 0xFFFFFFFFFFFFFFFFFFFFFFFFFFFFFFFFFFFFFFFFFFFFFFFFFFFFFFFFFFFFFF00 AND SWAP1 SSTORE PUSH2 0x2614 PUSH2 0x2480 JUMP JUMPDEST PUSH20 0xFFFFFFFFFFFFFFFFFFFFFFFFFFFFFFFFFFFFFFFF AND DUP2 PUSH20 0xFFFFFFFFFFFFFFFFFFFFFFFFFFFFFFFFFFFFFFFF AND DUP4 PUSH32 0xF6391F5C32D9C69D2A47EA670B442974B53935D1EDC7FD64EB21E047A839171B PUSH1 0x40 MLOAD PUSH1 0x40 MLOAD DUP1 SWAP2 SUB SWAP1 LOG4 POP POP JUMP JUMPDEST PUSH2 0xAB7 DUP2 PUSH2 0x267E PUSH2 0x2480 JUMP JUMPDEST PUSH2 0x3038 JUMP JUMPDEST PUSH1 0x2 PUSH1 0x3 SLOAD SUB PUSH2 0x26EF JUMPI PUSH1 0x40 MLOAD PUSH32 0x8C379A000000000000000000000000000000000000000000000000000000000 DUP2 MSTORE PUSH1 0x20 PUSH1 0x4 DUP3 ADD MSTORE PUSH1 0x1F PUSH1 0x24 DUP3 ADD MSTORE PUSH32 0x5265656E7472616E637947756172643A207265656E7472616E742063616C6C00 PUSH1 0x44 DUP3 ADD MSTORE PUSH1 0x64 ADD PUSH2 0x8CB JUMP JUMPDEST PUSH1 0x2 PUSH1 0x3 SSTORE JUMP JUMPDEST PUSH2 0x2701 PUSH1 0x4 DUP4 PUSH2 0x2F71 JUMP JUMPDEST PUSH2 0x278D JUMPI PUSH1 0x40 MLOAD PUSH32 0x8C379A000000000000000000000000000000000000000000000000000000000 DUP2 MSTORE PUSH1 0x20 PUSH1 0x4 DUP3 ADD MSTORE PUSH1 0x2B PUSH1 0x24 DUP3 ADD MSTORE PUSH32 0x6F66666572496420646F6573206E6F74206578697374206F7220686173206265 PUSH1 0x44 DUP3 ADD MSTORE PUSH32 0x656E2072656D6F7665642E000000000000000000000000000000000000000000 PUSH1 0x64 DUP3 ADD MSTORE PUSH1 0x84 ADD PUSH2 0x8CB JUMP JUMPDEST PUSH1 0x0 DUP3 DUP2 MSTORE PUSH1 0x6 PUSH1 0x20 MSTORE PUSH1 0x40 SWAP1 KECCAK256 PUSH1 0xC DUP2 ADD SLOAD ISZERO DUP1 PUSH2 0x27BF JUMPI POP DUP1 PUSH1 0xC ADD SLOAD DUP3 DUP3 PUSH1 0xB ADD SLOAD PUSH2 0x27BC SWAP2 SWAP1 PUSH2 0x400A JUMP JUMPDEST GT ISZERO JUMPDEST PUSH2 0x2825 JUMPI PUSH1 0x40 MLOAD PUSH32 0x8C379A000000000000000000000000000000000000000000000000000000000 DUP2 MSTORE PUSH1 0x20 PUSH1 0x4 DUP3 ADD MSTORE PUSH1 0x1B PUSH1 0x24 DUP3 ADD MSTORE PUSH32 0x4F6666657220776F756C64207265616368206D617820757365732E0000000000 PUSH1 0x44 DUP3 ADD MSTORE PUSH1 0x64 ADD PUSH2 0x8CB JUMP JUMPDEST PUSH1 0x1 DUP2 ADD SLOAD PUSH20 0xFFFFFFFFFFFFFFFFFFFFFFFFFFFFFFFFFFFFFFFF AND ISZERO PUSH2 0x2920 JUMPI PUSH1 0x1 DUP2 ADD SLOAD PUSH20 0xFFFFFFFFFFFFFFFFFFFFFFFFFFFFFFFFFFFFFFFF AND PUSH4 0x2EB2C2D6 PUSH2 0x286D PUSH2 0x2480 JUMP JUMPDEST ADDRESS DUP5 PUSH1 0x2 ADD PUSH2 0x28CE DUP7 PUSH1 0x3 ADD DUP1 SLOAD DUP1 PUSH1 0x20 MUL PUSH1 0x20 ADD PUSH1 0x40 MLOAD SWAP1 DUP2 ADD PUSH1 0x40 MSTORE DUP1 SWAP3 SWAP2 SWAP1 DUP2 DUP2 MSTORE PUSH1 0x20 ADD DUP3 DUP1 SLOAD DUP1 ISZERO PUSH2 0x28C3 JUMPI PUSH1 0x20 MUL DUP3 ADD SWAP2 SWAP1 PUSH1 0x0 MSTORE PUSH1 0x20 PUSH1 0x0 KECCAK256 SWAP1 JUMPDEST DUP2 SLOAD DUP2 MSTORE PUSH1 0x20 ADD SWAP1 PUSH1 0x1 ADD SWAP1 DUP1 DUP4 GT PUSH2 0x28AF JUMPI JUMPDEST POP POP POP POP POP DUP9 PUSH2 0x30F2 JUMP JUMPDEST PUSH1 0x40 MLOAD DUP6 PUSH4 0xFFFFFFFF AND PUSH1 0xE0 SHL DUP2 MSTORE PUSH1 0x4 ADD PUSH2 0x28ED SWAP5 SWAP4 SWAP3 SWAP2 SWAP1 PUSH2 0x425F JUMP JUMPDEST PUSH1 0x0 PUSH1 0x40 MLOAD DUP1 DUP4 SUB DUP2 PUSH1 0x0 DUP8 DUP1 EXTCODESIZE ISZERO DUP1 ISZERO PUSH2 0x2907 JUMPI PUSH1 0x0 DUP1 REVERT JUMPDEST POP GAS CALL ISZERO DUP1 ISZERO PUSH2 0x291B JUMPI RETURNDATASIZE PUSH1 0x0 DUP1 RETURNDATACOPY RETURNDATASIZE PUSH1 0x0 REVERT JUMPDEST POP POP POP POP JUMPDEST PUSH1 0x5 DUP2 ADD SLOAD ISZERO PUSH2 0x2A9F JUMPI PUSH1 0x4 DUP2 ADD SLOAD PUSH20 0xFFFFFFFFFFFFFFFFFFFFFFFFFFFFFFFFFFFFFFFF AND ISZERO PUSH2 0x2A26 JUMPI PUSH1 0x4 DUP2 ADD SLOAD PUSH20 0xFFFFFFFFFFFFFFFFFFFFFFFFFFFFFFFFFFFFFFFF AND PUSH4 0x23B872DD PUSH2 0x2972 PUSH2 0x2480 JUMP JUMPDEST ADDRESS DUP6 DUP6 PUSH1 0x5 ADD SLOAD PUSH2 0x2983 SWAP2 SWAP1 PUSH2 0x42C7 JUMP JUMPDEST PUSH1 0x40 MLOAD PUSH32 0xFFFFFFFF00000000000000000000000000000000000000000000000000000000 PUSH1 0xE0 DUP7 SWAP1 SHL AND DUP2 MSTORE PUSH20 0xFFFFFFFFFFFFFFFFFFFFFFFFFFFFFFFFFFFFFFFF SWAP4 DUP5 AND PUSH1 0x4 DUP3 ADD MSTORE SWAP3 SWAP1 SWAP2 AND PUSH1 0x24 DUP4 ADD MSTORE PUSH1 0x44 DUP3 ADD MSTORE PUSH1 0x64 ADD PUSH1 0x20 PUSH1 0x40 MLOAD DUP1 DUP4 SUB DUP2 PUSH1 0x0 DUP8 GAS CALL ISZERO DUP1 ISZERO PUSH2 0x29FC JUMPI RETURNDATASIZE PUSH1 0x0 DUP1 RETURNDATACOPY RETURNDATASIZE PUSH1 0x0 REVERT JUMPDEST POP POP POP POP PUSH1 0x40 MLOAD RETURNDATASIZE PUSH1 0x1F NOT PUSH1 0x1F DUP3 ADD AND DUP3 ADD DUP1 PUSH1 0x40 MSTORE POP DUP2 ADD SWAP1 PUSH2 0x2A20 SWAP2 SWAP1 PUSH2 0x401D JUMP JUMPDEST POP PUSH2 0x2A9F JUMP JUMPDEST DUP2 DUP2 PUSH1 0x5 ADD SLOAD PUSH2 0x2A36 SWAP2 SWAP1 PUSH2 0x42C7 JUMP JUMPDEST CALLVALUE LT ISZERO PUSH2 0x2A9F JUMPI PUSH1 0x40 MLOAD PUSH32 0x8C379A000000000000000000000000000000000000000000000000000000000 DUP2 MSTORE PUSH1 0x20 PUSH1 0x4 DUP3 ADD MSTORE PUSH1 0x16 PUSH1 0x24 DUP3 ADD MSTORE PUSH32 0x5061796D656E74206C657373207468616E20636F737400000000000000000000 PUSH1 0x44 DUP3 ADD MSTORE PUSH1 0x64 ADD PUSH2 0x8CB JUMP JUMPDEST PUSH1 0x6 DUP2 ADD SLOAD PUSH20 0xFFFFFFFFFFFFFFFFFFFFFFFFFFFFFFFFFFFFFFFF AND ISZERO PUSH2 0x2C9E JUMPI PUSH1 0x6 DUP2 ADD SLOAD PUSH2 0x2AE3 SWAP1 PUSH20 0xFFFFFFFFFFFFFFFFFFFFFFFFFFFFFFFFFFFFFFFF AND PUSH2 0x31B3 JUMP JUMPDEST ISZERO PUSH2 0x2BC5 JUMPI PUSH1 0x6 DUP2 ADD SLOAD PUSH20 0xFFFFFFFFFFFFFFFFFFFFFFFFFFFFFFFFFFFFFFFF AND DUP1 PUSH4 0x8F427C7 PUSH2 0x2B11 PUSH2 0x2480 JUMP JUMPDEST DUP5 PUSH1 0x7 ADD PUSH2 0x2B6F DUP7 PUSH1 0x8 ADD DUP1 SLOAD DUP1 PUSH1 0x20 MUL PUSH1 0x20 ADD PUSH1 0x40 MLOAD SWAP1 DUP2 ADD PUSH1 0x40 MSTORE DUP1 SWAP3 SWAP2 SWAP1 DUP2 DUP2 MSTORE PUSH1 0x20 ADD DUP3 DUP1 SLOAD DUP1 ISZERO PUSH2 0x28C3 JUMPI PUSH1 0x20 MUL DUP3 ADD SWAP2 SWAP1 PUSH1 0x0 MSTORE PUSH1 0x20 PUSH1 0x0 KECCAK256 SWAP1 DUP2 SLOAD DUP2 MSTORE PUSH1 0x20 ADD SWAP1 PUSH1 0x1 ADD SWAP1 DUP1 DUP4 GT PUSH2 0x28AF JUMPI POP POP POP POP POP DUP9 PUSH2 0x30F2 JUMP JUMPDEST PUSH1 0x40 MLOAD DUP5 PUSH4 0xFFFFFFFF AND PUSH1 0xE0 SHL DUP2 MSTORE PUSH1 0x4 ADD PUSH2 0x2B8D SWAP4 SWAP3 SWAP2 SWAP1 PUSH2 0x4304 JUMP JUMPDEST PUSH1 0x0 PUSH1 0x40 MLOAD DUP1 DUP4 SUB DUP2 PUSH1 0x0 DUP8 DUP1 EXTCODESIZE ISZERO DUP1 ISZERO PUSH2 0x2BA7 JUMPI PUSH1 0x0 DUP1 REVERT JUMPDEST POP GAS CALL ISZERO DUP1 ISZERO PUSH2 0x2BBB JUMPI RETURNDATASIZE PUSH1 0x0 DUP1 RETURNDATACOPY RETURNDATASIZE PUSH1 0x0 REVERT JUMPDEST POP POP POP POP POP PUSH2 0x2C9E JUMP JUMPDEST PUSH1 0x6 DUP2 ADD SLOAD PUSH20 0xFFFFFFFFFFFFFFFFFFFFFFFFFFFFFFFFFFFFFFFF AND PUSH4 0x2EB2C2D6 ADDRESS PUSH2 0x2BEE PUSH2 0x2480 JUMP JUMPDEST DUP5 PUSH1 0x7 ADD PUSH2 0x2C4C DUP7 PUSH1 0x8 ADD DUP1 SLOAD DUP1 PUSH1 0x20 MUL PUSH1 0x20 ADD PUSH1 0x40 MLOAD SWAP1 DUP2 ADD PUSH1 0x40 MSTORE DUP1 SWAP3 SWAP2 SWAP1 DUP2 DUP2 MSTORE PUSH1 0x20 ADD DUP3 DUP1 SLOAD DUP1 ISZERO PUSH2 0x28C3 JUMPI PUSH1 0x20 MUL DUP3 ADD SWAP2 SWAP1 PUSH1 0x0 MSTORE PUSH1 0x20 PUSH1 0x0 KECCAK256 SWAP1 DUP2 SLOAD DUP2 MSTORE PUSH1 0x20 ADD SWAP1 PUSH1 0x1 ADD SWAP1 DUP1 DUP4 GT PUSH2 0x28AF JUMPI POP POP POP POP POP DUP9 PUSH2 0x30F2 JUMP JUMPDEST PUSH1 0x40 MLOAD DUP6 PUSH4 0xFFFFFFFF AND PUSH1 0xE0 SHL DUP2 MSTORE PUSH1 0x4 ADD PUSH2 0x2C6B SWAP5 SWAP4 SWAP3 SWAP2 SWAP1 PUSH2 0x425F JUMP JUMPDEST PUSH1 0x0 PUSH1 0x40 MLOAD DUP1 DUP4 SUB DUP2 PUSH1 0x0 DUP8 DUP1 EXTCODESIZE ISZERO DUP1 ISZERO PUSH2 0x2C85 JUMPI PUSH1 0x0 DUP1 REVERT JUMPDEST POP GAS CALL ISZERO DUP1 ISZERO PUSH2 0x2C99 JUMPI RETURNDATASIZE PUSH1 0x0 DUP1 RETURNDATACOPY RETURNDATASIZE PUSH1 0x0 REVERT JUMPDEST POP POP POP POP JUMPDEST PUSH1 0x9 DUP2 ADD SLOAD PUSH20 0xFFFFFFFFFFFFFFFFFFFFFFFFFFFFFFFFFFFFFFFF AND ISZERO PUSH2 0x2E7B JUMPI PUSH1 0x9 DUP2 ADD SLOAD PUSH2 0x2CE2 SWAP1 PUSH20 0xFFFFFFFFFFFFFFFFFFFFFFFFFFFFFFFFFFFFFFFF AND PUSH2 0x31B3 JUMP JUMPDEST ISZERO PUSH2 0x2DA9 JUMPI PUSH1 0x9 DUP2 ADD SLOAD PUSH20 0xFFFFFFFFFFFFFFFFFFFFFFFFFFFFFFFFFFFFFFFF AND DUP1 PUSH4 0x40C10F19 PUSH2 0x2D10 PUSH2 0x2480 JUMP JUMPDEST DUP6 DUP6 PUSH1 0xA ADD SLOAD PUSH2 0x2D20 SWAP2 SWAP1 PUSH2 0x42C7 JUMP JUMPDEST PUSH1 0x40 MLOAD PUSH32 0xFFFFFFFF00000000000000000000000000000000000000000000000000000000 PUSH1 0xE0 DUP6 SWAP1 SHL AND DUP2 MSTORE PUSH20 0xFFFFFFFFFFFFFFFFFFFFFFFFFFFFFFFFFFFFFFFF SWAP1 SWAP3 AND PUSH1 0x4 DUP4 ADD MSTORE PUSH1 0x24 DUP3 ADD MSTORE PUSH1 0x44 ADD PUSH1 0x0 PUSH1 0x40 MLOAD DUP1 DUP4 SUB DUP2 PUSH1 0x0 DUP8 DUP1 EXTCODESIZE ISZERO DUP1 ISZERO PUSH2 0x2D8B JUMPI PUSH1 0x0 DUP1 REVERT JUMPDEST POP GAS CALL ISZERO DUP1 ISZERO PUSH2 0x2D9F JUMPI RETURNDATASIZE PUSH1 0x0 DUP1 RETURNDATACOPY RETURNDATASIZE PUSH1 0x0 REVERT JUMPDEST POP POP POP POP POP PUSH2 0x2EE0 JUMP JUMPDEST PUSH1 0x9 DUP2 ADD SLOAD PUSH20 0xFFFFFFFFFFFFFFFFFFFFFFFFFFFFFFFFFFFFFFFF AND PUSH4 0xA9059CBB PUSH2 0x2DD1 PUSH2 0x2480 JUMP JUMPDEST DUP5 DUP5 PUSH1 0xA ADD SLOAD PUSH2 0x2DE1 SWAP2 SWAP1 PUSH2 0x42C7 JUMP JUMPDEST PUSH1 0x40 MLOAD PUSH32 0xFFFFFFFF00000000000000000000000000000000000000000000000000000000 PUSH1 0xE0 DUP6 SWAP1 SHL AND DUP2 MSTORE PUSH20 0xFFFFFFFFFFFFFFFFFFFFFFFFFFFFFFFFFFFFFFFF SWAP1 SWAP3 AND PUSH1 0x4 DUP4 ADD MSTORE PUSH1 0x24 DUP3 ADD MSTORE PUSH1 0x44 ADD PUSH1 0x20 PUSH1 0x40 MLOAD DUP1 DUP4 SUB DUP2 PUSH1 0x0 DUP8 GAS CALL ISZERO DUP1 ISZERO PUSH2 0x2E51 JUMPI RETURNDATASIZE PUSH1 0x0 DUP1 RETURNDATACOPY RETURNDATASIZE PUSH1 0x0 REVERT JUMPDEST POP POP POP POP PUSH1 0x40 MLOAD RETURNDATASIZE PUSH1 0x1F NOT PUSH1 0x1F DUP3 ADD AND DUP3 ADD DUP1 PUSH1 0x40 MSTORE POP DUP2 ADD SWAP1 PUSH2 0x2E75 SWAP2 SWAP1 PUSH2 0x401D JUMP JUMPDEST POP PUSH2 0x2EE0 JUMP JUMPDEST PUSH1 0xA DUP2 ADD SLOAD ISZERO PUSH2 0x2EE0 JUMPI PUSH2 0x2E8D PUSH2 0x2480 JUMP JUMPDEST PUSH20 0xFFFFFFFFFFFFFFFFFFFFFFFFFFFFFFFFFFFFFFFF AND PUSH2 0x8FC DUP4 DUP4 PUSH1 0xA ADD SLOAD PUSH2 0x2EB6 SWAP2 SWAP1 PUSH2 0x42C7 JUMP JUMPDEST PUSH1 0x40 MLOAD DUP2 ISZERO SWAP1 SWAP3 MUL SWAP2 PUSH1 0x0 DUP2 DUP2 DUP2 DUP6 DUP9 DUP9 CALL SWAP4 POP POP POP POP ISZERO DUP1 ISZERO PUSH2 0x2EDE JUMPI RETURNDATASIZE PUSH1 0x0 DUP1 RETURNDATACOPY RETURNDATASIZE PUSH1 0x0 REVERT JUMPDEST POP JUMPDEST DUP2 DUP2 PUSH1 0xB ADD PUSH1 0x0 DUP3 DUP3 SLOAD PUSH2 0x2EF4 SWAP2 SWAP1 PUSH2 0x400A JUMP JUMPDEST SWAP1 SWAP2 SSTORE POP POP TIMESTAMP PUSH1 0xD DUP3 ADD SSTORE DUP3 PUSH32 0xB6D302AEF644F1507EB2EDED80719B12D15CED4627CB57A8839251C4CEF0E7D DUP3 DUP5 PUSH2 0x2F2B PUSH2 0x2480 JUMP JUMPDEST PUSH1 0x40 MLOAD PUSH2 0x2F3A SWAP4 SWAP3 SWAP2 SWAP1 PUSH2 0x434F JUMP JUMPDEST PUSH1 0x40 MLOAD DUP1 SWAP2 SUB SWAP1 LOG2 POP POP POP JUMP JUMPDEST PUSH1 0x60 PUSH1 0x0 PUSH2 0x2F54 DUP4 PUSH2 0x326C JUMP JUMPDEST SWAP4 SWAP3 POP POP POP JUMP JUMPDEST PUSH1 0x0 PUSH2 0x2F54 DUP4 DUP4 PUSH2 0x32C8 JUMP JUMPDEST PUSH1 0x0 PUSH2 0x774 DUP3 SLOAD SWAP1 JUMP JUMPDEST PUSH1 0x0 DUP2 DUP2 MSTORE PUSH1 0x1 DUP4 ADD PUSH1 0x20 MSTORE PUSH1 0x40 DUP2 KECCAK256 SLOAD ISZERO ISZERO PUSH2 0x2F54 JUMP JUMPDEST PUSH1 0x0 PUSH2 0x2F54 DUP4 DUP4 PUSH2 0x32F2 JUMP JUMPDEST PUSH1 0x0 PUSH2 0x2F54 DUP4 DUP4 PUSH2 0x33E5 JUMP JUMPDEST PUSH1 0x0 PUSH32 0xFFFFFFFF00000000000000000000000000000000000000000000000000000000 DUP3 AND PUSH32 0x7965DB0B00000000000000000000000000000000000000000000000000000000 EQ DUP1 PUSH2 0x774 JUMPI POP PUSH32 0x1FFC9A700000000000000000000000000000000000000000000000000000000 PUSH32 0xFFFFFFFF00000000000000000000000000000000000000000000000000000000 DUP4 AND EQ PUSH2 0x774 JUMP JUMPDEST PUSH1 0x0 DUP3 DUP2 MSTORE PUSH1 0x2 PUSH1 0x20 SWAP1 DUP2 MSTORE PUSH1 0x40 DUP1 DUP4 KECCAK256 PUSH20 0xFFFFFFFFFFFFFFFFFFFFFFFFFFFFFFFFFFFFFFFF DUP6 AND DUP5 MSTORE SWAP1 SWAP2 MSTORE SWAP1 KECCAK256 SLOAD PUSH1 0xFF AND PUSH2 0xA6E JUMPI PUSH2 0x3078 DUP2 PUSH2 0x3434 JUMP JUMPDEST PUSH2 0x3083 DUP4 PUSH1 0x20 PUSH2 0x3453 JUMP JUMPDEST PUSH1 0x40 MLOAD PUSH1 0x20 ADD PUSH2 0x3094 SWAP3 SWAP2 SWAP1 PUSH2 0x43B2 JUMP JUMPDEST PUSH1 0x40 DUP1 MLOAD PUSH32 0xFFFFFFFFFFFFFFFFFFFFFFFFFFFFFFFFFFFFFFFFFFFFFFFFFFFFFFFFFFFFFFE0 DUP2 DUP5 SUB ADD DUP2 MSTORE SWAP1 DUP3 SWAP1 MSTORE PUSH32 0x8C379A000000000000000000000000000000000000000000000000000000000 DUP3 MSTORE PUSH2 0x8CB SWAP2 PUSH1 0x4 ADD PUSH2 0x4433 JUMP JUMPDEST PUSH1 0x60 DUP2 PUSH1 0x1 SUB PUSH2 0x3103 JUMPI POP DUP2 PUSH2 0x774 JUMP JUMPDEST PUSH1 0x0 DUP4 MLOAD PUSH8 0xFFFFFFFFFFFFFFFF DUP2 GT ISZERO PUSH2 0x311F JUMPI PUSH2 0x311F PUSH2 0x3C0A JUMP JUMPDEST PUSH1 0x40 MLOAD SWAP1 DUP1 DUP3 MSTORE DUP1 PUSH1 0x20 MUL PUSH1 0x20 ADD DUP3 ADD PUSH1 0x40 MSTORE DUP1 ISZERO PUSH2 0x3148 JUMPI DUP2 PUSH1 0x20 ADD PUSH1 0x20 DUP3 MUL DUP1 CALLDATASIZE DUP4 CALLDATACOPY ADD SWAP1 POP JUMPDEST POP SWAP1 POP PUSH1 0x0 JUMPDEST DUP5 MLOAD DUP2 LT ISZERO PUSH2 0x31AB JUMPI DUP4 DUP6 DUP3 DUP2 MLOAD DUP2 LT PUSH2 0x316A JUMPI PUSH2 0x316A PUSH2 0x3EA5 JUMP JUMPDEST PUSH1 0x20 MUL PUSH1 0x20 ADD ADD MLOAD PUSH2 0x317C SWAP2 SWAP1 PUSH2 0x42C7 JUMP JUMPDEST DUP3 DUP3 DUP2 MLOAD DUP2 LT PUSH2 0x318E JUMPI PUSH2 0x318E PUSH2 0x3EA5 JUMP JUMPDEST PUSH1 0x20 SWAP1 DUP2 MUL SWAP2 SWAP1 SWAP2 ADD ADD MSTORE DUP1 PUSH2 0x31A3 DUP2 PUSH2 0x3F03 JUMP JUMPDEST SWAP2 POP POP PUSH2 0x314E JUMP JUMPDEST POP SWAP4 SWAP3 POP POP POP JUMP JUMPDEST PUSH1 0x40 MLOAD PUSH32 0x91D1485400000000000000000000000000000000000000000000000000000000 DUP2 MSTORE PUSH32 0xC9EB32E43BF5ECBCEACF00B32281DFC5D6D700A0DB676EA26CCF938A385AC3F7 PUSH1 0x4 DUP3 ADD MSTORE ADDRESS PUSH1 0x24 DUP3 ADD MSTORE PUSH1 0x0 SWAP1 DUP3 SWAP1 PUSH20 0xFFFFFFFFFFFFFFFFFFFFFFFFFFFFFFFFFFFFFFFF DUP3 AND SWAP1 PUSH4 0x91D14854 SWAP1 PUSH1 0x44 ADD PUSH1 0x20 PUSH1 0x40 MLOAD DUP1 DUP4 SUB DUP2 DUP7 GAS STATICCALL ISZERO DUP1 ISZERO PUSH2 0x3248 JUMPI RETURNDATASIZE PUSH1 0x0 DUP1 RETURNDATACOPY RETURNDATASIZE PUSH1 0x0 REVERT JUMPDEST POP POP POP POP PUSH1 0x40 MLOAD RETURNDATASIZE PUSH1 0x1F NOT PUSH1 0x1F DUP3 ADD AND DUP3 ADD DUP1 PUSH1 0x40 MSTORE POP DUP2 ADD SWAP1 PUSH2 0x2F54 SWAP2 SWAP1 PUSH2 0x401D JUMP JUMPDEST PUSH1 0x60 DUP2 PUSH1 0x0 ADD DUP1 SLOAD DUP1 PUSH1 0x20 MUL PUSH1 0x20 ADD PUSH1 0x40 MLOAD SWAP1 DUP2 ADD PUSH1 0x40 MSTORE DUP1 SWAP3 SWAP2 SWAP1 DUP2 DUP2 MSTORE PUSH1 0x20 ADD DUP3 DUP1 SLOAD DUP1 ISZERO PUSH2 0x32BC JUMPI PUSH1 0x20 MUL DUP3 ADD SWAP2 SWAP1 PUSH1 0x0 MSTORE PUSH1 0x20 PUSH1 0x0 KECCAK256 SWAP1 JUMPDEST DUP2 SLOAD DUP2 MSTORE PUSH1 0x20 ADD SWAP1 PUSH1 0x1 ADD SWAP1 DUP1 DUP4 GT PUSH2 0x32A8 JUMPI JUMPDEST POP POP POP POP POP SWAP1 POP SWAP2 SWAP1 POP JUMP JUMPDEST PUSH1 0x0 DUP3 PUSH1 0x0 ADD DUP3 DUP2 SLOAD DUP2 LT PUSH2 0x32DF JUMPI PUSH2 0x32DF PUSH2 0x3EA5 JUMP JUMPDEST SWAP1 PUSH1 0x0 MSTORE PUSH1 0x20 PUSH1 0x0 KECCAK256 ADD SLOAD SWAP1 POP SWAP3 SWAP2 POP POP JUMP JUMPDEST PUSH1 0x0 DUP2 DUP2 MSTORE PUSH1 0x1 DUP4 ADD PUSH1 0x20 MSTORE PUSH1 0x40 DUP2 KECCAK256 SLOAD DUP1 ISZERO PUSH2 0x33DB JUMPI PUSH1 0x0 PUSH2 0x3316 PUSH1 0x1 DUP4 PUSH2 0x3FF7 JUMP JUMPDEST DUP6 SLOAD SWAP1 SWAP2 POP PUSH1 0x0 SWAP1 PUSH2 0x332A SWAP1 PUSH1 0x1 SWAP1 PUSH2 0x3FF7 JUMP JUMPDEST SWAP1 POP DUP2 DUP2 EQ PUSH2 0x338F JUMPI PUSH1 0x0 DUP7 PUSH1 0x0 ADD DUP3 DUP2 SLOAD DUP2 LT PUSH2 0x334A JUMPI PUSH2 0x334A PUSH2 0x3EA5 JUMP JUMPDEST SWAP1 PUSH1 0x0 MSTORE PUSH1 0x20 PUSH1 0x0 KECCAK256 ADD SLOAD SWAP1 POP DUP1 DUP8 PUSH1 0x0 ADD DUP5 DUP2 SLOAD DUP2 LT PUSH2 0x336D JUMPI PUSH2 0x336D PUSH2 0x3EA5 JUMP JUMPDEST PUSH1 0x0 SWAP2 DUP3 MSTORE PUSH1 0x20 DUP1 DUP4 KECCAK256 SWAP1 SWAP2 ADD SWAP3 SWAP1 SWAP3 SSTORE SWAP2 DUP3 MSTORE PUSH1 0x1 DUP9 ADD SWAP1 MSTORE PUSH1 0x40 SWAP1 KECCAK256 DUP4 SWAP1 SSTORE JUMPDEST DUP6 SLOAD DUP7 SWAP1 DUP1 PUSH2 0x33A0 JUMPI PUSH2 0x33A0 PUSH2 0x4484 JUMP JUMPDEST PUSH1 0x1 SWAP1 SUB DUP2 DUP2 SWAP1 PUSH1 0x0 MSTORE PUSH1 0x20 PUSH1 0x0 KECCAK256 ADD PUSH1 0x0 SWAP1 SSTORE SWAP1 SSTORE DUP6 PUSH1 0x1 ADD PUSH1 0x0 DUP7 DUP2 MSTORE PUSH1 0x20 ADD SWAP1 DUP2 MSTORE PUSH1 0x20 ADD PUSH1 0x0 KECCAK256 PUSH1 0x0 SWAP1 SSTORE PUSH1 0x1 SWAP4 POP POP POP POP PUSH2 0x774 JUMP JUMPDEST PUSH1 0x0 SWAP2 POP POP PUSH2 0x774 JUMP JUMPDEST PUSH1 0x0 DUP2 DUP2 MSTORE PUSH1 0x1 DUP4 ADD PUSH1 0x20 MSTORE PUSH1 0x40 DUP2 KECCAK256 SLOAD PUSH2 0x342C JUMPI POP DUP2 SLOAD PUSH1 0x1 DUP2 DUP2 ADD DUP5 SSTORE PUSH1 0x0 DUP5 DUP2 MSTORE PUSH1 0x20 DUP1 DUP3 KECCAK256 SWAP1 SWAP4 ADD DUP5 SWAP1 SSTORE DUP5 SLOAD DUP5 DUP3 MSTORE DUP3 DUP7 ADD SWAP1 SWAP4 MSTORE PUSH1 0x40 SWAP1 KECCAK256 SWAP2 SWAP1 SWAP2 SSTORE PUSH2 0x774 JUMP JUMPDEST POP PUSH1 0x0 PUSH2 0x774 JUMP JUMPDEST PUSH1 0x60 PUSH2 0x774 PUSH20 0xFFFFFFFFFFFFFFFFFFFFFFFFFFFFFFFFFFFFFFFF DUP4 AND PUSH1 0x14 JUMPDEST PUSH1 0x60 PUSH1 0x0 PUSH2 0x3462 DUP4 PUSH1 0x2 PUSH2 0x42C7 JUMP JUMPDEST PUSH2 0x346D SWAP1 PUSH1 0x2 PUSH2 0x400A JUMP JUMPDEST PUSH8 0xFFFFFFFFFFFFFFFF DUP2 GT ISZERO PUSH2 0x3485 JUMPI PUSH2 0x3485 PUSH2 0x3C0A JUMP JUMPDEST PUSH1 0x40 MLOAD SWAP1 DUP1 DUP3 MSTORE DUP1 PUSH1 0x1F ADD PUSH1 0x1F NOT AND PUSH1 0x20 ADD DUP3 ADD PUSH1 0x40 MSTORE DUP1 ISZERO PUSH2 0x34AF JUMPI PUSH1 0x20 DUP3 ADD DUP2 DUP1 CALLDATASIZE DUP4 CALLDATACOPY ADD SWAP1 POP JUMPDEST POP SWAP1 POP PUSH32 0x3000000000000000000000000000000000000000000000000000000000000000 DUP2 PUSH1 0x0 DUP2 MLOAD DUP2 LT PUSH2 0x34E6 JUMPI PUSH2 0x34E6 PUSH2 0x3EA5 JUMP JUMPDEST PUSH1 0x20 ADD ADD SWAP1 PUSH31 0xFFFFFFFFFFFFFFFFFFFFFFFFFFFFFFFFFFFFFFFFFFFFFFFFFFFFFFFFFFFFFF NOT AND SWAP1 DUP2 PUSH1 0x0 BYTE SWAP1 MSTORE8 POP PUSH32 0x7800000000000000000000000000000000000000000000000000000000000000 DUP2 PUSH1 0x1 DUP2 MLOAD DUP2 LT PUSH2 0x3549 JUMPI PUSH2 0x3549 PUSH2 0x3EA5 JUMP JUMPDEST PUSH1 0x20 ADD ADD SWAP1 PUSH31 0xFFFFFFFFFFFFFFFFFFFFFFFFFFFFFFFFFFFFFFFFFFFFFFFFFFFFFFFFFFFFFF NOT AND SWAP1 DUP2 PUSH1 0x0 BYTE SWAP1 MSTORE8 POP PUSH1 0x0 PUSH2 0x3585 DUP5 PUSH1 0x2 PUSH2 0x42C7 JUMP JUMPDEST PUSH2 0x3590 SWAP1 PUSH1 0x1 PUSH2 0x400A JUMP JUMPDEST SWAP1 POP JUMPDEST PUSH1 0x1 DUP2 GT ISZERO PUSH2 0x362D JUMPI PUSH32 0x3031323334353637383961626364656600000000000000000000000000000000 DUP6 PUSH1 0xF AND PUSH1 0x10 DUP2 LT PUSH2 0x35D1 JUMPI PUSH2 0x35D1 PUSH2 0x3EA5 JUMP JUMPDEST BYTE PUSH1 0xF8 SHL DUP3 DUP3 DUP2 MLOAD DUP2 LT PUSH2 0x35E7 JUMPI PUSH2 0x35E7 PUSH2 0x3EA5 JUMP JUMPDEST PUSH1 0x20 ADD ADD SWAP1 PUSH31 0xFFFFFFFFFFFFFFFFFFFFFFFFFFFFFFFFFFFFFFFFFFFFFFFFFFFFFFFFFFFFFF NOT AND SWAP1 DUP2 PUSH1 0x0 BYTE SWAP1 MSTORE8 POP PUSH1 0x4 SWAP5 SWAP1 SWAP5 SHR SWAP4 PUSH2 0x3626 DUP2 PUSH2 0x44B3 JUMP JUMPDEST SWAP1 POP PUSH2 0x3593 JUMP JUMPDEST POP DUP4 ISZERO PUSH2 0x2F54 JUMPI PUSH1 0x40 MLOAD PUSH32 0x8C379A000000000000000000000000000000000000000000000000000000000 DUP2 MSTORE PUSH1 0x20 PUSH1 0x4 DUP3 ADD DUP2 SWAP1 MSTORE PUSH1 0x24 DUP3 ADD MSTORE PUSH32 0x537472696E67733A20686578206C656E67746820696E73756666696369656E74 PUSH1 0x44 DUP3 ADD MSTORE PUSH1 0x64 ADD PUSH2 0x8CB JUMP JUMPDEST DUP3 DUP1 SLOAD DUP3 DUP3 SSTORE SWAP1 PUSH1 0x0 MSTORE PUSH1 0x20 PUSH1 0x0 KECCAK256 SWAP1 DUP2 ADD SWAP3 DUP3 ISZERO PUSH2 0x36D1 JUMPI SWAP2 PUSH1 0x20 MUL DUP3 ADD JUMPDEST DUP3 DUP2 GT ISZERO PUSH2 0x36D1 JUMPI DUP3 MLOAD DUP3 SSTORE SWAP2 PUSH1 0x20 ADD SWAP2 SWAP1 PUSH1 0x1 ADD SWAP1 PUSH2 0x36B6 JUMP JUMPDEST POP PUSH2 0x36DD SWAP3 SWAP2 POP PUSH2 0x36E1 JUMP JUMPDEST POP SWAP1 JUMP JUMPDEST JUMPDEST DUP1 DUP3 GT ISZERO PUSH2 0x36DD JUMPI PUSH1 0x0 DUP2 SSTORE PUSH1 0x1 ADD PUSH2 0x36E2 JUMP JUMPDEST PUSH1 0x0 PUSH1 0x20 DUP3 DUP5 SUB SLT ISZERO PUSH2 0x3708 JUMPI PUSH1 0x0 DUP1 REVERT JUMPDEST DUP2 CALLDATALOAD PUSH32 0xFFFFFFFF00000000000000000000000000000000000000000000000000000000 DUP2 AND DUP2 EQ PUSH2 0x2F54 JUMPI PUSH1 0x0 DUP1 REVERT JUMPDEST PUSH1 0x0 PUSH1 0x20 DUP3 DUP5 SUB SLT ISZERO PUSH2 0x374A JUMPI PUSH1 0x0 DUP1 REVERT JUMPDEST POP CALLDATALOAD SWAP2 SWAP1 POP JUMP JUMPDEST PUSH1 0x0 DUP2 MLOAD DUP1 DUP5 MSTORE PUSH1 0x20 DUP1 DUP6 ADD SWAP5 POP DUP1 DUP5 ADD PUSH1 0x0 JUMPDEST DUP4 DUP2 LT ISZERO PUSH2 0x3781 JUMPI DUP2 MLOAD DUP8 MSTORE SWAP6 DUP3 ADD SWAP6 SWAP1 DUP3 ADD SWAP1 PUSH1 0x1 ADD PUSH2 0x3765 JUMP JUMPDEST POP SWAP5 SWAP6 SWAP5 POP POP POP POP POP JUMP JUMPDEST PUSH1 0x20 DUP2 MSTORE PUSH1 0x0 PUSH2 0x2F54 PUSH1 0x20 DUP4 ADD DUP5 PUSH2 0x3751 JUMP JUMPDEST DUP1 CALLDATALOAD PUSH20 0xFFFFFFFFFFFFFFFFFFFFFFFFFFFFFFFFFFFFFFFF DUP2 AND DUP2 EQ PUSH2 0x37C3 JUMPI PUSH1 0x0 DUP1 REVERT JUMPDEST SWAP2 SWAP1 POP JUMP JUMPDEST PUSH1 0x0 DUP1 PUSH1 0x40 DUP4 DUP6 SUB SLT ISZERO PUSH2 0x37DB JUMPI PUSH1 0x0 DUP1 REVERT JUMPDEST DUP3 CALLDATALOAD SWAP2 POP PUSH2 0x37EB PUSH1 0x20 DUP5 ADD PUSH2 0x379F JUMP JUMPDEST SWAP1 POP SWAP3 POP SWAP3 SWAP1 POP JUMP JUMPDEST PUSH1 0x0 PUSH1 0x20 DUP3 DUP5 SUB SLT ISZERO PUSH2 0x3806 JUMPI PUSH1 0x0 DUP1 REVERT JUMPDEST PUSH2 0x2F54 DUP3 PUSH2 0x379F JUMP JUMPDEST PUSH1 0x0 PUSH1 0x20 DUP1 DUP4 ADD DUP2 DUP5 MSTORE DUP1 DUP6 MLOAD DUP1 DUP4 MSTORE PUSH1 0x40 DUP7 ADD SWAP2 POP PUSH1 0x40 DUP2 PUSH1 0x5 SHL DUP8 ADD ADD SWAP3 POP DUP4 DUP8 ADD PUSH1 0x0 JUMPDEST DUP3 DUP2 LT ISZERO PUSH2 0x3882 JUMPI PUSH32 0xFFFFFFFFFFFFFFFFFFFFFFFFFFFFFFFFFFFFFFFFFFFFFFFFFFFFFFFFFFFFFFC0 DUP9 DUP7 SUB ADD DUP5 MSTORE PUSH2 0x3870 DUP6 DUP4 MLOAD PUSH2 0x3751 JUMP JUMPDEST SWAP5 POP SWAP3 DUP6 ADD SWAP3 SWAP1 DUP6 ADD SWAP1 PUSH1 0x1 ADD PUSH2 0x3836 JUMP JUMPDEST POP SWAP3 SWAP8 SWAP7 POP POP POP POP POP POP POP JUMP JUMPDEST PUSH1 0x0 PUSH2 0x1C0 DUP3 MLOAD DUP5 MSTORE PUSH1 0x20 DUP4 ADD MLOAD PUSH2 0x38BF PUSH1 0x20 DUP7 ADD DUP3 PUSH20 0xFFFFFFFFFFFFFFFFFFFFFFFFFFFFFFFFFFFFFFFF AND SWAP1 MSTORE JUMP JUMPDEST POP PUSH1 0x40 DUP4 ADD MLOAD DUP2 PUSH1 0x40 DUP7 ADD MSTORE PUSH2 0x38D7 DUP3 DUP7 ADD DUP3 PUSH2 0x3751 JUMP JUMPDEST SWAP2 POP POP PUSH1 0x60 DUP4 ADD MLOAD DUP5 DUP3 SUB PUSH1 0x60 DUP7 ADD MSTORE PUSH2 0x38F1 DUP3 DUP3 PUSH2 0x3751 JUMP JUMPDEST SWAP2 POP POP PUSH1 0x80 DUP4 ADD MLOAD PUSH2 0x391B PUSH1 0x80 DUP7 ADD DUP3 PUSH20 0xFFFFFFFFFFFFFFFFFFFFFFFFFFFFFFFFFFFFFFFF AND SWAP1 MSTORE JUMP JUMPDEST POP PUSH1 0xA0 DUP4 ADD MLOAD PUSH1 0xA0 DUP6 ADD MSTORE PUSH1 0xC0 DUP4 ADD MLOAD PUSH2 0x394D PUSH1 0xC0 DUP7 ADD DUP3 PUSH20 0xFFFFFFFFFFFFFFFFFFFFFFFFFFFFFFFFFFFFFFFF AND SWAP1 MSTORE JUMP JUMPDEST POP PUSH1 0xE0 DUP4 ADD MLOAD DUP5 DUP3 SUB PUSH1 0xE0 DUP7 ADD MSTORE PUSH2 0x3965 DUP3 DUP3 PUSH2 0x3751 JUMP JUMPDEST SWAP2 POP POP PUSH2 0x100 DUP1 DUP5 ADD MLOAD DUP6 DUP4 SUB DUP3 DUP8 ADD MSTORE PUSH2 0x3980 DUP4 DUP3 PUSH2 0x3751 JUMP JUMPDEST SWAP3 POP POP POP PUSH2 0x120 DUP1 DUP5 ADD MLOAD PUSH2 0x39AC DUP3 DUP8 ADD DUP3 PUSH20 0xFFFFFFFFFFFFFFFFFFFFFFFFFFFFFFFFFFFFFFFF AND SWAP1 MSTORE JUMP JUMPDEST POP POP PUSH2 0x140 DUP4 DUP2 ADD MLOAD SWAP1 DUP6 ADD MSTORE PUSH2 0x160 DUP1 DUP5 ADD MLOAD SWAP1 DUP6 ADD MSTORE PUSH2 0x180 DUP1 DUP5 ADD MLOAD SWAP1 DUP6 ADD MSTORE PUSH2 0x1A0 SWAP3 DUP4 ADD MLOAD SWAP3 SWAP1 SWAP4 ADD SWAP2 SWAP1 SWAP2 MSTORE POP SWAP1 JUMP JUMPDEST PUSH1 0x0 PUSH1 0x20 DUP1 DUP4 ADD DUP2 DUP5 MSTORE DUP1 DUP6 MLOAD DUP1 DUP4 MSTORE PUSH1 0x40 DUP7 ADD SWAP2 POP PUSH1 0x40 DUP2 PUSH1 0x5 SHL DUP8 ADD ADD SWAP3 POP DUP4 DUP8 ADD PUSH1 0x0 JUMPDEST DUP3 DUP2 LT ISZERO PUSH2 0x3882 JUMPI PUSH32 0xFFFFFFFFFFFFFFFFFFFFFFFFFFFFFFFFFFFFFFFFFFFFFFFFFFFFFFFFFFFFFFC0 DUP9 DUP7 SUB ADD DUP5 MSTORE PUSH2 0x3A43 DUP6 DUP4 MLOAD PUSH2 0x388F JUMP JUMPDEST SWAP5 POP SWAP3 DUP6 ADD SWAP3 SWAP1 DUP6 ADD SWAP1 PUSH1 0x1 ADD PUSH2 0x3A09 JUMP JUMPDEST PUSH1 0x20 DUP2 MSTORE PUSH1 0x0 PUSH2 0x2F54 PUSH1 0x20 DUP4 ADD DUP5 PUSH2 0x388F JUMP JUMPDEST PUSH1 0x0 DUP1 PUSH1 0x0 DUP1 PUSH1 0x60 DUP6 DUP8 SUB SLT ISZERO PUSH2 0x3A7E JUMPI PUSH1 0x0 DUP1 REVERT JUMPDEST PUSH2 0x3A87 DUP6 PUSH2 0x379F JUMP JUMPDEST SWAP4 POP PUSH1 0x20 DUP6 ADD CALLDATALOAD PUSH8 0xFFFFFFFFFFFFFFFF DUP1 DUP3 GT ISZERO PUSH2 0x3AA4 JUMPI PUSH1 0x0 DUP1 REVERT JUMPDEST DUP2 DUP8 ADD SWAP2 POP DUP8 PUSH1 0x1F DUP4 ADD SLT PUSH2 0x3AB8 JUMPI PUSH1 0x0 DUP1 REVERT JUMPDEST DUP2 CALLDATALOAD DUP2 DUP2 GT ISZERO PUSH2 0x3AC7 JUMPI PUSH1 0x0 DUP1 REVERT JUMPDEST DUP9 PUSH1 0x20 DUP3 PUSH1 0x5 SHL DUP6 ADD ADD GT ISZERO PUSH2 0x3ADC JUMPI PUSH1 0x0 DUP1 REVERT JUMPDEST PUSH1 0x20 DUP4 ADD SWAP6 POP DUP1 SWAP5 POP POP POP POP PUSH2 0x3AF4 PUSH1 0x40 DUP7 ADD PUSH2 0x379F JUMP JUMPDEST SWAP1 POP SWAP3 SWAP6 SWAP2 SWAP5 POP SWAP3 POP JUMP JUMPDEST PUSH1 0x0 DUP1 PUSH1 0x40 DUP4 DUP6 SUB SLT ISZERO PUSH2 0x3B12 JUMPI PUSH1 0x0 DUP1 REVERT JUMPDEST POP POP DUP1 CALLDATALOAD SWAP3 PUSH1 0x20 SWAP1 SWAP2 ADD CALLDATALOAD SWAP2 POP JUMP JUMPDEST PUSH1 0x0 DUP1 PUSH1 0x40 DUP4 DUP6 SUB SLT ISZERO PUSH2 0x3B34 JUMPI PUSH1 0x0 DUP1 REVERT JUMPDEST PUSH2 0x3B3D DUP4 PUSH2 0x379F JUMP JUMPDEST SWAP2 POP PUSH2 0x37EB PUSH1 0x20 DUP5 ADD PUSH2 0x379F JUMP JUMPDEST DUP1 PUSH1 0x40 DUP2 ADD DUP4 LT ISZERO PUSH2 0x774 JUMPI PUSH1 0x0 DUP1 REVERT JUMPDEST PUSH1 0x0 DUP1 PUSH1 0x0 DUP1 PUSH1 0x0 DUP1 PUSH1 0x0 PUSH2 0x140 DUP9 DUP11 SUB SLT ISZERO PUSH2 0x3B78 JUMPI PUSH1 0x0 DUP1 REVERT JUMPDEST DUP8 CALLDATALOAD SWAP7 POP PUSH2 0x3B89 DUP10 PUSH1 0x20 DUP11 ADD PUSH2 0x3B4B JUMP JUMPDEST SWAP6 POP PUSH1 0x60 DUP9 ADD CALLDATALOAD PUSH8 0xFFFFFFFFFFFFFFFF DUP1 DUP3 GT ISZERO PUSH2 0x3BA6 JUMPI PUSH1 0x0 DUP1 REVERT JUMPDEST PUSH2 0x3BB2 DUP12 DUP4 DUP13 ADD PUSH2 0x3B4B JUMP JUMPDEST SWAP7 POP PUSH1 0x80 DUP11 ADD CALLDATALOAD SWAP2 POP DUP1 DUP3 GT ISZERO PUSH2 0x3BC8 JUMPI PUSH1 0x0 DUP1 REVERT JUMPDEST POP PUSH2 0x3BD5 DUP11 DUP3 DUP12 ADD PUSH2 0x3B4B JUMP JUMPDEST SWAP5 POP POP PUSH2 0x3BE5 DUP10 PUSH1 0xA0 DUP11 ADD PUSH2 0x3B4B JUMP JUMPDEST SWAP3 POP PUSH2 0x3BF4 DUP10 PUSH1 0xE0 DUP11 ADD PUSH2 0x3B4B JUMP JUMPDEST SWAP2 POP PUSH2 0x120 DUP9 ADD CALLDATALOAD SWAP1 POP SWAP3 SWAP6 SWAP9 SWAP2 SWAP5 SWAP8 POP SWAP3 SWAP6 POP JUMP JUMPDEST PUSH32 0x4E487B7100000000000000000000000000000000000000000000000000000000 PUSH1 0x0 MSTORE PUSH1 0x41 PUSH1 0x4 MSTORE PUSH1 0x24 PUSH1 0x0 REVERT JUMPDEST PUSH1 0x40 MLOAD PUSH1 0x1F DUP3 ADD PUSH32 0xFFFFFFFFFFFFFFFFFFFFFFFFFFFFFFFFFFFFFFFFFFFFFFFFFFFFFFFFFFFFFFE0 AND DUP2 ADD PUSH8 0xFFFFFFFFFFFFFFFF DUP2 GT DUP3 DUP3 LT OR ISZERO PUSH2 0x3C80 JUMPI PUSH2 0x3C80 PUSH2 0x3C0A JUMP JUMPDEST PUSH1 0x40 MSTORE SWAP2 SWAP1 POP JUMP JUMPDEST PUSH1 0x0 DUP3 PUSH1 0x1F DUP4 ADD SLT PUSH2 0x3C99 JUMPI PUSH1 0x0 DUP1 REVERT JUMPDEST DUP2 CALLDATALOAD PUSH1 0x20 PUSH8 0xFFFFFFFFFFFFFFFF DUP3 GT ISZERO PUSH2 0x3CB5 JUMPI PUSH2 0x3CB5 PUSH2 0x3C0A JUMP JUMPDEST DUP2 PUSH1 0x5 SHL PUSH2 0x3CC4 DUP3 DUP3 ADD PUSH2 0x3C39 JUMP JUMPDEST SWAP3 DUP4 MSTORE DUP5 DUP2 ADD DUP3 ADD SWAP3 DUP3 DUP2 ADD SWAP1 DUP8 DUP6 GT ISZERO PUSH2 0x3CDE JUMPI PUSH1 0x0 DUP1 REVERT JUMPDEST DUP4 DUP8 ADD SWAP3 POP JUMPDEST DUP5 DUP4 LT ISZERO PUSH2 0x3CFD JUMPI DUP3 CALLDATALOAD DUP3 MSTORE SWAP2 DUP4 ADD SWAP2 SWAP1 DUP4 ADD SWAP1 PUSH2 0x3CE4 JUMP JUMPDEST SWAP8 SWAP7 POP POP POP POP POP POP POP JUMP JUMPDEST PUSH1 0x0 DUP3 PUSH1 0x1F DUP4 ADD SLT PUSH2 0x3D19 JUMPI PUSH1 0x0 DUP1 REVERT JUMPDEST DUP2 CALLDATALOAD PUSH8 0xFFFFFFFFFFFFFFFF DUP2 GT ISZERO PUSH2 0x3D33 JUMPI PUSH2 0x3D33 PUSH2 0x3C0A JUMP JUMPDEST PUSH2 0x3D64 PUSH1 0x20 PUSH32 0xFFFFFFFFFFFFFFFFFFFFFFFFFFFFFFFFFFFFFFFFFFFFFFFFFFFFFFFFFFFFFFE0 PUSH1 0x1F DUP5 ADD AND ADD PUSH2 0x3C39 JUMP JUMPDEST DUP2 DUP2 MSTORE DUP5 PUSH1 0x20 DUP4 DUP7 ADD ADD GT ISZERO PUSH2 0x3D79 JUMPI PUSH1 0x0 DUP1 REVERT JUMPDEST DUP2 PUSH1 0x20 DUP6 ADD PUSH1 0x20 DUP4 ADD CALLDATACOPY PUSH1 0x0 SWAP2 DUP2 ADD PUSH1 0x20 ADD SWAP2 SWAP1 SWAP2 MSTORE SWAP4 SWAP3 POP POP POP JUMP JUMPDEST PUSH1 0x0 DUP1 PUSH1 0x0 DUP1 PUSH1 0x0 PUSH1 0xA0 DUP7 DUP9 SUB SLT ISZERO PUSH2 0x3DAE JUMPI PUSH1 0x0 DUP1 REVERT JUMPDEST PUSH2 0x3DB7 DUP7 PUSH2 0x379F JUMP JUMPDEST SWAP5 POP PUSH2 0x3DC5 PUSH1 0x20 DUP8 ADD PUSH2 0x379F JUMP JUMPDEST SWAP4 POP PUSH1 0x40 DUP7 ADD CALLDATALOAD PUSH8 0xFFFFFFFFFFFFFFFF DUP1 DUP3 GT ISZERO PUSH2 0x3DE2 JUMPI PUSH1 0x0 DUP1 REVERT JUMPDEST PUSH2 0x3DEE DUP10 DUP4 DUP11 ADD PUSH2 0x3C88 JUMP JUMPDEST SWAP5 POP PUSH1 0x60 DUP9 ADD CALLDATALOAD SWAP2 POP DUP1 DUP3 GT ISZERO PUSH2 0x3E04 JUMPI PUSH1 0x0 DUP1 REVERT JUMPDEST PUSH2 0x3E10 DUP10 DUP4 DUP11 ADD PUSH2 0x3C88 JUMP JUMPDEST SWAP4 POP PUSH1 0x80 DUP9 ADD CALLDATALOAD SWAP2 POP DUP1 DUP3 GT ISZERO PUSH2 0x3E26 JUMPI PUSH1 0x0 DUP1 REVERT JUMPDEST POP PUSH2 0x3E33 DUP9 DUP3 DUP10 ADD PUSH2 0x3D08 JUMP JUMPDEST SWAP2 POP POP SWAP3 SWAP6 POP SWAP3 SWAP6 SWAP1 SWAP4 POP JUMP JUMPDEST PUSH1 0x0 DUP1 PUSH1 0x0 DUP1 PUSH1 0x0 PUSH1 0xA0 DUP7 DUP9 SUB SLT ISZERO PUSH2 0x3E58 JUMPI PUSH1 0x0 DUP1 REVERT JUMPDEST PUSH2 0x3E61 DUP7 PUSH2 0x379F JUMP JUMPDEST SWAP5 POP PUSH2 0x3E6F PUSH1 0x20 DUP8 ADD PUSH2 0x379F JUMP JUMPDEST SWAP4 POP PUSH1 0x40 DUP7 ADD CALLDATALOAD SWAP3 POP PUSH1 0x60 DUP7 ADD CALLDATALOAD SWAP2 POP PUSH1 0x80 DUP7 ADD CALLDATALOAD PUSH8 0xFFFFFFFFFFFFFFFF DUP2 GT ISZERO PUSH2 0x3E99 JUMPI PUSH1 0x0 DUP1 REVERT JUMPDEST PUSH2 0x3E33 DUP9 DUP3 DUP10 ADD PUSH2 0x3D08 JUMP JUMPDEST PUSH32 0x4E487B7100000000000000000000000000000000000000000000000000000000 PUSH1 0x0 MSTORE PUSH1 0x32 PUSH1 0x4 MSTORE PUSH1 0x24 PUSH1 0x0 REVERT JUMPDEST PUSH32 0x4E487B7100000000000000000000000000000000000000000000000000000000 PUSH1 0x0 MSTORE PUSH1 0x11 PUSH1 0x4 MSTORE PUSH1 0x24 PUSH1 0x0 REVERT JUMPDEST PUSH1 0x0 PUSH32 0xFFFFFFFFFFFFFFFFFFFFFFFFFFFFFFFFFFFFFFFFFFFFFFFFFFFFFFFFFFFFFFFF DUP3 SUB PUSH2 0x3F34 JUMPI PUSH2 0x3F34 PUSH2 0x3ED4 JUMP JUMPDEST POP PUSH1 0x1 ADD SWAP1 JUMP JUMPDEST PUSH1 0x0 PUSH1 0x20 DUP3 DUP5 SUB SLT ISZERO PUSH2 0x3F4D JUMPI PUSH1 0x0 DUP1 REVERT JUMPDEST POP MLOAD SWAP2 SWAP1 POP JUMP JUMPDEST PUSH1 0x0 PUSH20 0xFFFFFFFFFFFFFFFFFFFFFFFFFFFFFFFFFFFFFFFF DUP1 DUP9 AND DUP4 MSTORE DUP1 DUP8 AND PUSH1 0x20 DUP5 ADD MSTORE POP PUSH1 0xA0 PUSH1 0x40 DUP4 ADD MSTORE DUP4 PUSH1 0xA0 DUP4 ADD MSTORE PUSH32 0x7FFFFFFFFFFFFFFFFFFFFFFFFFFFFFFFFFFFFFFFFFFFFFFFFFFFFFFFFFFFFFF DUP5 GT ISZERO PUSH2 0x3FB3 JUMPI PUSH1 0x0 DUP1 REVERT JUMPDEST DUP4 PUSH1 0x5 SHL DUP1 DUP7 PUSH1 0xC0 DUP6 ADD CALLDATACOPY DUP3 ADD DUP3 DUP2 SUB PUSH1 0xC0 SWAP1 DUP2 ADD PUSH1 0x60 DUP6 ADD MSTORE PUSH2 0x3FD9 SWAP1 DUP3 ADD DUP6 PUSH2 0x3751 JUMP JUMPDEST DUP4 DUP2 SUB PUSH1 0x80 SWAP1 SWAP5 ADD SWAP4 SWAP1 SWAP4 MSTORE POP POP PUSH1 0x0 DUP2 MSTORE PUSH1 0x20 ADD SWAP6 SWAP5 POP POP POP POP POP JUMP JUMPDEST DUP2 DUP2 SUB DUP2 DUP2 GT ISZERO PUSH2 0x774 JUMPI PUSH2 0x774 PUSH2 0x3ED4 JUMP JUMPDEST DUP1 DUP3 ADD DUP1 DUP3 GT ISZERO PUSH2 0x774 JUMPI PUSH2 0x774 PUSH2 0x3ED4 JUMP JUMPDEST PUSH1 0x0 PUSH1 0x20 DUP3 DUP5 SUB SLT ISZERO PUSH2 0x402F JUMPI PUSH1 0x0 DUP1 REVERT JUMPDEST DUP2 MLOAD DUP1 ISZERO ISZERO DUP2 EQ PUSH2 0x2F54 JUMPI PUSH1 0x0 DUP1 REVERT JUMPDEST PUSH1 0x0 DUP2 SLOAD DUP1 DUP5 MSTORE PUSH1 0x20 DUP1 DUP6 ADD SWAP5 POP DUP4 PUSH1 0x0 MSTORE DUP1 PUSH1 0x0 KECCAK256 PUSH1 0x0 JUMPDEST DUP4 DUP2 LT ISZERO PUSH2 0x3781 JUMPI DUP2 SLOAD DUP8 MSTORE SWAP6 DUP3 ADD SWAP6 PUSH1 0x1 SWAP2 DUP3 ADD SWAP2 ADD PUSH2 0x4058 JUMP JUMPDEST PUSH1 0x0 PUSH2 0x1C0 DUP3 SLOAD DUP5 MSTORE PUSH2 0x409E PUSH1 0x1 DUP5 ADD SLOAD PUSH20 0xFFFFFFFFFFFFFFFFFFFFFFFFFFFFFFFFFFFFFFFF AND SWAP1 JUMP JUMPDEST PUSH20 0xFFFFFFFFFFFFFFFFFFFFFFFFFFFFFFFFFFFFFFFF AND PUSH1 0x20 DUP6 ADD MSTORE PUSH1 0x40 DUP5 ADD DUP2 SWAP1 MSTORE PUSH2 0x40CF DUP2 DUP6 ADD PUSH1 0x2 DUP6 ADD PUSH2 0x403F JUMP JUMPDEST SWAP1 POP DUP4 DUP2 SUB PUSH1 0x60 DUP6 ADD MSTORE PUSH2 0x40E6 DUP2 PUSH1 0x3 DUP6 ADD PUSH2 0x403F JUMP JUMPDEST SWAP1 POP PUSH2 0x4109 PUSH1 0x4 DUP5 ADD SLOAD PUSH20 0xFFFFFFFFFFFFFFFFFFFFFFFFFFFFFFFFFFFFFFFF AND SWAP1 JUMP JUMPDEST PUSH20 0xFFFFFFFFFFFFFFFFFFFFFFFFFFFFFFFFFFFFFFFF SWAP1 DUP2 AND PUSH1 0x80 DUP7 ADD MSTORE PUSH1 0x5 DUP5 ADD SLOAD PUSH1 0xA0 DUP7 ADD MSTORE PUSH1 0x6 DUP5 ADD SLOAD AND PUSH1 0xC0 DUP6 ADD MSTORE DUP4 DUP2 SUB PUSH1 0xE0 DUP6 ADD MSTORE PUSH2 0x4150 DUP2 PUSH1 0x7 DUP6 ADD PUSH2 0x403F JUMP JUMPDEST SWAP1 POP DUP4 DUP2 SUB PUSH2 0x100 DUP6 ADD MSTORE PUSH2 0x4168 DUP2 PUSH1 0x8 DUP6 ADD PUSH2 0x403F JUMP JUMPDEST SWAP1 POP PUSH2 0x418B PUSH1 0x9 DUP5 ADD SLOAD PUSH20 0xFFFFFFFFFFFFFFFFFFFFFFFFFFFFFFFFFFFFFFFF AND SWAP1 JUMP JUMPDEST PUSH20 0xFFFFFFFFFFFFFFFFFFFFFFFFFFFFFFFFFFFFFFFF AND PUSH2 0x120 DUP6 ADD MSTORE PUSH1 0xA DUP4 ADD SLOAD PUSH2 0x140 DUP6 ADD MSTORE PUSH1 0xB DUP4 ADD SLOAD PUSH2 0x160 DUP6 ADD MSTORE PUSH1 0xC DUP4 ADD SLOAD PUSH2 0x180 DUP6 ADD MSTORE PUSH1 0xD SWAP1 SWAP3 ADD SLOAD PUSH2 0x1A0 SWAP1 SWAP4 ADD SWAP3 SWAP1 SWAP3 MSTORE SWAP2 SWAP1 POP JUMP JUMPDEST PUSH1 0x20 DUP2 MSTORE PUSH1 0x0 PUSH2 0x2F54 PUSH1 0x20 DUP4 ADD DUP5 PUSH2 0x4074 JUMP JUMPDEST PUSH1 0x0 DUP1 DUP4 CALLDATALOAD PUSH32 0xFFFFFFFFFFFFFFFFFFFFFFFFFFFFFFFFFFFFFFFFFFFFFFFFFFFFFFFFFFFFFFE1 DUP5 CALLDATASIZE SUB ADD DUP2 SLT PUSH2 0x4225 JUMPI PUSH1 0x0 DUP1 REVERT JUMPDEST DUP4 ADD DUP1 CALLDATALOAD SWAP2 POP PUSH8 0xFFFFFFFFFFFFFFFF DUP3 GT ISZERO PUSH2 0x4240 JUMPI PUSH1 0x0 DUP1 REVERT JUMPDEST PUSH1 0x20 ADD SWAP2 POP PUSH1 0x5 DUP2 SWAP1 SHL CALLDATASIZE SUB DUP3 SGT ISZERO PUSH2 0x4258 JUMPI PUSH1 0x0 DUP1 REVERT JUMPDEST SWAP3 POP SWAP3 SWAP1 POP JUMP JUMPDEST PUSH1 0x0 PUSH20 0xFFFFFFFFFFFFFFFFFFFFFFFFFFFFFFFFFFFFFFFF DUP1 DUP8 AND DUP4 MSTORE DUP1 DUP7 AND PUSH1 0x20 DUP5 ADD MSTORE POP PUSH1 0xA0 PUSH1 0x40 DUP4 ADD MSTORE PUSH2 0x4298 PUSH1 0xA0 DUP4 ADD DUP6 PUSH2 0x403F JUMP JUMPDEST DUP3 DUP2 SUB PUSH1 0x60 DUP5 ADD MSTORE PUSH2 0x42AA DUP2 DUP6 PUSH2 0x3751 JUMP JUMPDEST DUP4 DUP2 SUB PUSH1 0x80 SWAP1 SWAP5 ADD SWAP4 SWAP1 SWAP4 MSTORE POP POP PUSH1 0x0 DUP2 MSTORE PUSH1 0x20 ADD SWAP5 SWAP4 POP POP POP POP JUMP JUMPDEST PUSH1 0x0 DUP2 PUSH32 0xFFFFFFFFFFFFFFFFFFFFFFFFFFFFFFFFFFFFFFFFFFFFFFFFFFFFFFFFFFFFFFFF DIV DUP4 GT DUP3 ISZERO ISZERO AND ISZERO PUSH2 0x42FF JUMPI PUSH2 0x42FF PUSH2 0x3ED4 JUMP JUMPDEST POP MUL SWAP1 JUMP JUMPDEST PUSH20 0xFFFFFFFFFFFFFFFFFFFFFFFFFFFFFFFFFFFFFFFF DUP5 AND DUP2 MSTORE PUSH1 0x60 PUSH1 0x20 DUP3 ADD MSTORE PUSH1 0x0 PUSH2 0x4333 PUSH1 0x60 DUP4 ADD DUP6 PUSH2 0x403F JUMP JUMPDEST DUP3 DUP2 SUB PUSH1 0x40 DUP5 ADD MSTORE PUSH2 0x4345 DUP2 DUP6 PUSH2 0x3751 JUMP JUMPDEST SWAP7 SWAP6 POP POP POP POP POP POP JUMP JUMPDEST PUSH1 0x60 DUP2 MSTORE PUSH1 0x0 PUSH2 0x4362 PUSH1 0x60 DUP4 ADD DUP7 PUSH2 0x4074 JUMP JUMPDEST SWAP1 POP DUP4 PUSH1 0x20 DUP4 ADD MSTORE PUSH20 0xFFFFFFFFFFFFFFFFFFFFFFFFFFFFFFFFFFFFFFFF DUP4 AND PUSH1 0x40 DUP4 ADD MSTORE SWAP5 SWAP4 POP POP POP POP JUMP JUMPDEST PUSH1 0x0 JUMPDEST DUP4 DUP2 LT ISZERO PUSH2 0x43A9 JUMPI DUP2 DUP2 ADD MLOAD DUP4 DUP3 ADD MSTORE PUSH1 0x20 ADD PUSH2 0x4391 JUMP JUMPDEST POP POP PUSH1 0x0 SWAP2 ADD MSTORE JUMP JUMPDEST PUSH32 0x416363657373436F6E74726F6C3A206163636F756E7420000000000000000000 DUP2 MSTORE PUSH1 0x0 DUP4 MLOAD PUSH2 0x43EA DUP2 PUSH1 0x17 DUP6 ADD PUSH1 0x20 DUP9 ADD PUSH2 0x438E JUMP JUMPDEST PUSH32 0x206973206D697373696E6720726F6C6520000000000000000000000000000000 PUSH1 0x17 SWAP2 DUP5 ADD SWAP2 DUP3 ADD MSTORE DUP4 MLOAD PUSH2 0x4427 DUP2 PUSH1 0x28 DUP5 ADD PUSH1 0x20 DUP9 ADD PUSH2 0x438E JUMP JUMPDEST ADD PUSH1 0x28 ADD SWAP5 SWAP4 POP POP POP POP JUMP JUMPDEST PUSH1 0x20 DUP2 MSTORE PUSH1 0x0 DUP3 MLOAD DUP1 PUSH1 0x20 DUP5 ADD MSTORE PUSH2 0x4452 DUP2 PUSH1 0x40 DUP6 ADD PUSH1 0x20 DUP8 ADD PUSH2 0x438E JUMP JUMPDEST PUSH1 0x1F ADD PUSH32 0xFFFFFFFFFFFFFFFFFFFFFFFFFFFFFFFFFFFFFFFFFFFFFFFFFFFFFFFFFFFFFFE0 AND SWAP2 SWAP1 SWAP2 ADD PUSH1 0x40 ADD SWAP3 SWAP2 POP POP JUMP JUMPDEST PUSH32 0x4E487B7100000000000000000000000000000000000000000000000000000000 PUSH1 0x0 MSTORE PUSH1 0x31 PUSH1 0x4 MSTORE PUSH1 0x24 PUSH1 0x0 REVERT JUMPDEST PUSH1 0x0 DUP2 PUSH2 0x44C2 JUMPI PUSH2 0x44C2 PUSH2 0x3ED4 JUMP JUMPDEST POP PUSH32 0xFFFFFFFFFFFFFFFFFFFFFFFFFFFFFFFFFFFFFFFFFFFFFFFFFFFFFFFFFFFFFFFF ADD SWAP1 JUMP INVALID LOG2 PUSH5 0x6970667358 0x22 SLT KECCAK256 0xC5 MSIZE PUSH27 0xBDF433A422D04FB3EEFE6A7C43B85E2503E410BF5DC64191A0A5C3 0x4A PUSH31 0x64736F6C634300081000330000000000000000000000000000000000000000 "},"methodIdentifiers":{"DEFAULT_ADMIN_ROLE()":"a217fddf","allOfferIds()":"500ceb48","allOfferLastUpdates()":"51a30c65","allOffers()":"687c08dd","getRoleAdmin(bytes32)":"248a9ca3","grantRole(bytes32,address)":"2f2ff15d","hasRole(bytes32,address)":"91d14854","isTrustedForwarder(address)":"572b6c05","offer(uint256)":"761610fc","offerId(uint256)":"74d33353","offerLastUpdate(uint256)":"1675187c","onERC1155BatchReceived(address,address,uint256[],uint256[],bytes)":"bc197c81","onERC1155Received(address,address,uint256,uint256,bytes)":"f23a6e61","paginateOfferIds(uint256,uint256)":"cdf19174","paginateOfferLastUpdates(uint256,uint256)":"89fe7c3b","paginateOffers(uint256,uint256)":"82335ab0","removeOffer(uint256)":"95a0f9c7","renounceRole(bytes32,address)":"36568abe","revokeRole(bytes32,address)":"d547741f","setOffer(uint256,address[2],uint256[][2],uint256[][2],address[2],uint256[2],uint256)":"9c66b063","supportsInterface(bytes4)":"01ffc9a7","systemId()":"39f898bc","totalOffers()":"a9fd8ed1","transferOwnershipControl(address)":"4252ac3f","trustedForwarder()":"7da0a877","upgradeTrustedForwarder(address)":"aa2a7eea","useOffer(uint256)":"49fe0367","useOfferMulti(uint256,uint256)":"9d77759c","withdrawCurrencyTo(address,address)":"8b839502","withdrawItemsTo(address,uint256[],address)":"7f413af2","withdrawTo(address)":"72b0d90c"}}}}}