{"contracts/Lootbox_Manager/Game_Lootbox_Manager.sol":{"Game_Lootbox_Manager":{"abi":[{"inputs":[{"internalType":"address","name":"_forwarder","type":"address"},{"internalType":"bytes32","name":"_systemId","type":"bytes32"}],"stateMutability":"nonpayable","type":"constructor"},{"anonymous":false,"inputs":[{"indexed":true,"internalType":"uint256","name":"lootboxId","type":"uint256"},{"components":[{"internalType":"uint256","name":"id","type":"uint256"},{"internalType":"contract IERC1155","name":"inputCollection","type":"address"},{"internalType":"uint256[]","name":"inputCollectionItemIds","type":"uint256[]"},{"internalType":"uint256[]","name":"inputCollectionItemAmounts","type":"uint256[]"},{"internalType":"contract IERC1155","name":"outputCollection","type":"address"},{"internalType":"uint256[]","name":"outputCollectionItemIds","type":"uint256[]"},{"internalType":"uint256[]","name":"outputCollectionItemAmounts","type":"uint256[]"},{"internalType":"uint256[]","name":"outputCollectionItemWeights","type":"uint256[]"},{"internalType":"uint256","name":"outputTotalItemsWeight","type":"uint256"},{"internalType":"uint256","name":"outputTotalItems","type":"uint256"},{"internalType":"uint256","name":"opens","type":"uint256"},{"internalType":"uint256","name":"lastUpdatedAt","type":"uint256"}],"indexed":false,"internalType":"struct IGame_Lootbox_Manager.Lootbox","name":"lootbox","type":"tuple"},{"indexed":false,"internalType":"address","name":"user","type":"address"},{"indexed":false,"internalType":"uint256","name":"openedLootboxIndex","type":"uint256"},{"indexed":false,"internalType":"uint256[]","name":"outputCollectionItemIds","type":"uint256[]"},{"indexed":false,"internalType":"uint256[]","name":"outputCollectionItemAmounts","type":"uint256[]"}],"name":"LootboxClaimed","type":"event"},{"anonymous":false,"inputs":[{"indexed":true,"internalType":"uint256","name":"lootboxId","type":"uint256"},{"components":[{"internalType":"uint256","name":"id","type":"uint256"},{"internalType":"contract IERC1155","name":"inputCollection","type":"address"},{"internalType":"uint256[]","name":"inputCollectionItemIds","type":"uint256[]"},{"internalType":"uint256[]","name":"inputCollectionItemAmounts","type":"uint256[]"},{"internalType":"contract IERC1155","name":"outputCollection","type":"address"},{"internalType":"uint256[]","name":"outputCollectionItemIds","type":"uint256[]"},{"internalType":"uint256[]","name":"outputCollectionItemAmounts","type":"uint256[]"},{"internalType":"uint256[]","name":"outputCollectionItemWeights","type":"uint256[]"},{"internalType":"uint256","name":"outputTotalItemsWeight","type":"uint256"},{"internalType":"uint256","name":"outputTotalItems","type":"uint256"},{"internalType":"uint256","name":"opens","type":"uint256"},{"internalType":"uint256","name":"lastUpdatedAt","type":"uint256"}],"indexed":false,"internalType":"struct IGame_Lootbox_Manager.Lootbox","name":"lootbox","type":"tuple"},{"indexed":false,"internalType":"address","name":"user","type":"address"}],"name":"LootboxOpened","type":"event"},{"anonymous":false,"inputs":[{"indexed":true,"internalType":"uint256","name":"lootboxId","type":"uint256"},{"components":[{"internalType":"uint256","name":"id","type":"uint256"},{"internalType":"contract IERC1155","name":"inputCollection","type":"address"},{"internalType":"uint256[]","name":"inputCollectionItemIds","type":"uint256[]"},{"internalType":"uint256[]","name":"inputCollectionItemAmounts","type":"uint256[]"},{"internalType":"contract IERC1155","name":"outputCollection","type":"address"},{"internalType":"uint256[]","name":"outputCollectionItemIds","type":"uint256[]"},{"internalType":"uint256[]","name":"outputCollectionItemAmounts","type":"uint256[]"},{"internalType":"uint256[]","name":"outputCollectionItemWeights","type":"uint256[]"},{"internalType":"uint256","name":"outputTotalItemsWeight","type":"uint256"},{"internalType":"uint256","name":"outputTotalItems","type":"uint256"},{"internalType":"uint256","name":"opens","type":"uint256"},{"internalType":"uint256","name":"lastUpdatedAt","type":"uint256"}],"indexed":false,"internalType":"struct IGame_Lootbox_Manager.Lootbox","name":"lootbox","type":"tuple"}],"name":"LootboxRemoved","type":"event"},{"anonymous":false,"inputs":[{"indexed":true,"internalType":"uint256","name":"lootboxId","type":"uint256"},{"components":[{"internalType":"uint256","name":"id","type":"uint256"},{"internalType":"contract IERC1155","name":"inputCollection","type":"address"},{"internalType":"uint256[]","name":"inputCollectionItemIds","type":"uint256[]"},{"internalType":"uint256[]","name":"inputCollectionItemAmounts","type":"uint256[]"},{"internalType":"contract IERC1155","name":"outputCollection","type":"address"},{"internalType":"uint256[]","name":"outputCollectionItemIds","type":"uint256[]"},{"internalType":"uint256[]","name":"outputCollectionItemAmounts","type":"uint256[]"},{"internalType":"uint256[]","name":"outputCollectionItemWeights","type":"uint256[]"},{"internalType":"uint256","name":"outputTotalItemsWeight","type":"uint256"},{"internalType":"uint256","name":"outputTotalItems","type":"uint256"},{"internalType":"uint256","name":"opens","type":"uint256"},{"internalType":"uint256","name":"lastUpdatedAt","type":"uint256"}],"indexed":false,"internalType":"struct IGame_Lootbox_Manager.Lootbox","name":"lootbox","type":"tuple"}],"name":"LootboxSet","type":"event"},{"anonymous":false,"inputs":[{"indexed":true,"internalType":"bytes32","name":"role","type":"bytes32"},{"indexed":true,"internalType":"bytes32","name":"previousAdminRole","type":"bytes32"},{"indexed":true,"internalType":"bytes32","name":"newAdminRole","type":"bytes32"}],"name":"RoleAdminChanged","type":"event"},{"anonymous":false,"inputs":[{"indexed":true,"internalType":"bytes32","name":"role","type":"bytes32"},{"indexed":true,"internalType":"address","name":"account","type":"address"},{"indexed":true,"internalType":"address","name":"sender","type":"address"}],"name":"RoleGranted","type":"event"},{"anonymous":false,"inputs":[{"indexed":true,"internalType":"bytes32","name":"role","type":"bytes32"},{"indexed":true,"internalType":"address","name":"account","type":"address"},{"indexed":true,"internalType":"address","name":"sender","type":"address"}],"name":"RoleRevoked","type":"event"},{"inputs":[],"name":"DEFAULT_ADMIN_ROLE","outputs":[{"internalType":"bytes32","name":"","type":"bytes32"}],"stateMutability":"view","type":"function"},{"inputs":[],"name":"allLootboxIds","outputs":[{"internalType":"uint256[]","name":"","type":"uint256[]"}],"stateMutability":"view","type":"function"},{"inputs":[],"name":"allLootboxLastUpdates","outputs":[{"internalType":"uint256[][]","name":"","type":"uint256[][]"}],"stateMutability":"view","type":"function"},{"inputs":[],"name":"allLootboxes","outputs":[{"components":[{"internalType":"uint256","name":"id","type":"uint256"},{"internalType":"contract IERC1155","name":"inputCollection","type":"address"},{"internalType":"uint256[]","name":"inputCollectionItemIds","type":"uint256[]"},{"internalType":"uint256[]","name":"inputCollectionItemAmounts","type":"uint256[]"},{"internalType":"contract IERC1155","name":"outputCollection","type":"address"},{"internalType":"uint256[]","name":"outputCollectionItemIds","type":"uint256[]"},{"internalType":"uint256[]","name":"outputCollectionItemAmounts","type":"uint256[]"},{"internalType":"uint256[]","name":"outputCollectionItemWeights","type":"uint256[]"},{"internalType":"uint256","name":"outputTotalItemsWeight","type":"uint256"},{"internalType":"uint256","name":"outputTotalItems","type":"uint256"},{"internalType":"uint256","name":"opens","type":"uint256"},{"internalType":"uint256","name":"lastUpdatedAt","type":"uint256"}],"internalType":"struct IGame_Lootbox_Manager.Lootbox[]","name":"","type":"tuple[]"}],"stateMutability":"view","type":"function"},{"inputs":[{"internalType":"address","name":"_address","type":"address"},{"internalType":"uint256","name":"_lootboxId","type":"uint256"}],"name":"allOpenedLootboxes","outputs":[{"components":[{"internalType":"uint256","name":"lootboxId","type":"uint256"},{"internalType":"uint256","name":"claimSeedBlock","type":"uint256"},{"internalType":"uint256[]","name":"outputCollectionItemIds","type":"uint256[]"},{"internalType":"uint256[]","name":"outputCollectionItemAmounts","type":"uint256[]"},{"internalType":"bool","name":"claimed","type":"bool"}],"internalType":"struct IGame_Lootbox_Manager.OpenedLootbox[]","name":"","type":"tuple[]"}],"stateMutability":"view","type":"function"},{"inputs":[{"internalType":"uint256","name":"_lootboxId","type":"uint256"},{"internalType":"uint256","name":"_openedLootboxIndex","type":"uint256"}],"name":"claimLootbox","outputs":[],"stateMutability":"nonpayable","type":"function"},{"inputs":[{"internalType":"uint256","name":"_lootboxId","type":"uint256"}],"name":"claimLootboxes","outputs":[],"stateMutability":"nonpayable","type":"function"},{"inputs":[],"name":"claimableBlockOffset","outputs":[{"internalType":"uint256","name":"","type":"uint256"}],"stateMutability":"view","type":"function"},{"inputs":[{"internalType":"bytes32","name":"role","type":"bytes32"}],"name":"getRoleAdmin","outputs":[{"internalType":"bytes32","name":"","type":"bytes32"}],"stateMutability":"view","type":"function"},{"inputs":[{"internalType":"bytes32","name":"_role","type":"bytes32"},{"internalType":"address","name":"_account","type":"address"}],"name":"grantRole","outputs":[],"stateMutability":"nonpayable","type":"function"},{"inputs":[{"internalType":"bytes32","name":"role","type":"bytes32"},{"internalType":"address","name":"account","type":"address"}],"name":"hasRole","outputs":[{"internalType":"bool","name":"","type":"bool"}],"stateMutability":"view","type":"function"},{"inputs":[{"internalType":"address","name":"forwarder","type":"address"}],"name":"isTrustedForwarder","outputs":[{"internalType":"bool","name":"","type":"bool"}],"stateMutability":"view","type":"function"},{"inputs":[{"internalType":"uint256","name":"_lootboxId","type":"uint256"}],"name":"lootbox","outputs":[{"components":[{"internalType":"uint256","name":"id","type":"uint256"},{"internalType":"contract IERC1155","name":"inputCollection","type":"address"},{"internalType":"uint256[]","name":"inputCollectionItemIds","type":"uint256[]"},{"internalType":"uint256[]","name":"inputCollectionItemAmounts","type":"uint256[]"},{"internalType":"contract IERC1155","name":"outputCollection","type":"address"},{"internalType":"uint256[]","name":"outputCollectionItemIds","type":"uint256[]"},{"internalType":"uint256[]","name":"outputCollectionItemAmounts","type":"uint256[]"},{"internalType":"uint256[]","name":"outputCollectionItemWeights","type":"uint256[]"},{"internalType":"uint256","name":"outputTotalItemsWeight","type":"uint256"},{"internalType":"uint256","name":"outputTotalItems","type":"uint256"},{"internalType":"uint256","name":"opens","type":"uint256"},{"internalType":"uint256","name":"lastUpdatedAt","type":"uint256"}],"internalType":"struct IGame_Lootbox_Manager.Lootbox","name":"","type":"tuple"}],"stateMutability":"view","type":"function"},{"inputs":[{"internalType":"uint256","name":"_index","type":"uint256"}],"name":"lootboxId","outputs":[{"internalType":"uint256","name":"","type":"uint256"}],"stateMutability":"view","type":"function"},{"inputs":[{"internalType":"uint256","name":"_lootboxId","type":"uint256"}],"name":"lootboxLastUpdate","outputs":[{"internalType":"uint256[]","name":"","type":"uint256[]"}],"stateMutability":"view","type":"function"},{"inputs":[{"internalType":"address","name":"","type":"address"},{"internalType":"address","name":"","type":"address"},{"internalType":"uint256[]","name":"","type":"uint256[]"},{"internalType":"uint256[]","name":"","type":"uint256[]"},{"internalType":"bytes","name":"","type":"bytes"}],"name":"onERC1155BatchReceived","outputs":[{"internalType":"bytes4","name":"","type":"bytes4"}],"stateMutability":"nonpayable","type":"function"},{"inputs":[{"internalType":"address","name":"","type":"address"},{"internalType":"address","name":"","type":"address"},{"internalType":"uint256","name":"","type":"uint256"},{"internalType":"uint256","name":"","type":"uint256"},{"internalType":"bytes","name":"","type":"bytes"}],"name":"onERC1155Received","outputs":[{"internalType":"bytes4","name":"","type":"bytes4"}],"stateMutability":"nonpayable","type":"function"},{"inputs":[{"internalType":"uint256","name":"_lootboxId","type":"uint256"}],"name":"openLootbox","outputs":[],"stateMutability":"nonpayable","type":"function"},{"inputs":[{"internalType":"address","name":"_address","type":"address"},{"internalType":"uint256","name":"_lootboxId","type":"uint256"},{"internalType":"uint256","name":"_openedLootboxIndex","type":"uint256"}],"name":"openedLootbox","outputs":[{"components":[{"internalType":"uint256","name":"lootboxId","type":"uint256"},{"internalType":"uint256","name":"claimSeedBlock","type":"uint256"},{"internalType":"uint256[]","name":"outputCollectionItemIds","type":"uint256[]"},{"internalType":"uint256[]","name":"outputCollectionItemAmounts","type":"uint256[]"},{"internalType":"bool","name":"claimed","type":"bool"}],"internalType":"struct IGame_Lootbox_Manager.OpenedLootbox","name":"","type":"tuple"}],"stateMutability":"view","type":"function"},{"inputs":[{"internalType":"uint256","name":"_startIndexInclusive","type":"uint256"},{"internalType":"uint256","name":"_limit","type":"uint256"}],"name":"paginateLootboxIds","outputs":[{"internalType":"uint256[]","name":"","type":"uint256[]"}],"stateMutability":"view","type":"function"},{"inputs":[{"internalType":"uint256","name":"_startIndexInclusive","type":"uint256"},{"internalType":"uint256","name":"_limit","type":"uint256"}],"name":"paginateLootboxLastUpdates","outputs":[{"internalType":"uint256[][]","name":"","type":"uint256[][]"}],"stateMutability":"view","type":"function"},{"inputs":[{"internalType":"uint256","name":"_startIndexInclusive","type":"uint256"},{"internalType":"uint256","name":"_limit","type":"uint256"}],"name":"paginateLootboxes","outputs":[{"components":[{"internalType":"uint256","name":"id","type":"uint256"},{"internalType":"contract IERC1155","name":"inputCollection","type":"address"},{"internalType":"uint256[]","name":"inputCollectionItemIds","type":"uint256[]"},{"internalType":"uint256[]","name":"inputCollectionItemAmounts","type":"uint256[]"},{"internalType":"contract IERC1155","name":"outputCollection","type":"address"},{"internalType":"uint256[]","name":"outputCollectionItemIds","type":"uint256[]"},{"internalType":"uint256[]","name":"outputCollectionItemAmounts","type":"uint256[]"},{"internalType":"uint256[]","name":"outputCollectionItemWeights","type":"uint256[]"},{"internalType":"uint256","name":"outputTotalItemsWeight","type":"uint256"},{"internalType":"uint256","name":"outputTotalItems","type":"uint256"},{"internalType":"uint256","name":"opens","type":"uint256"},{"internalType":"uint256","name":"lastUpdatedAt","type":"uint256"}],"internalType":"struct IGame_Lootbox_Manager.Lootbox[]","name":"","type":"tuple[]"}],"stateMutability":"view","type":"function"},{"inputs":[{"internalType":"address","name":"_address","type":"address"},{"internalType":"uint256","name":"_lootboxId","type":"uint256"},{"internalType":"uint256","name":"_startIndexInclusive","type":"uint256"},{"internalType":"uint256","name":"_limit","type":"uint256"}],"name":"paginateOpenedLootboxes","outputs":[{"components":[{"internalType":"uint256","name":"lootboxId","type":"uint256"},{"internalType":"uint256","name":"claimSeedBlock","type":"uint256"},{"internalType":"uint256[]","name":"outputCollectionItemIds","type":"uint256[]"},{"internalType":"uint256[]","name":"outputCollectionItemAmounts","type":"uint256[]"},{"internalType":"bool","name":"claimed","type":"bool"}],"internalType":"struct IGame_Lootbox_Manager.OpenedLootbox[]","name":"","type":"tuple[]"}],"stateMutability":"view","type":"function"},{"inputs":[{"internalType":"uint256","name":"_lootboxId","type":"uint256"}],"name":"removeLootbox","outputs":[],"stateMutability":"nonpayable","type":"function"},{"inputs":[{"internalType":"bytes32","name":"role","type":"bytes32"},{"internalType":"address","name":"account","type":"address"}],"name":"renounceRole","outputs":[],"stateMutability":"nonpayable","type":"function"},{"inputs":[{"internalType":"bytes32","name":"role","type":"bytes32"},{"internalType":"address","name":"account","type":"address"}],"name":"revokeRole","outputs":[],"stateMutability":"nonpayable","type":"function"},{"inputs":[{"internalType":"uint256","name":"_offset","type":"uint256"}],"name":"setClaimableBlockOffset","outputs":[],"stateMutability":"nonpayable","type":"function"},{"inputs":[{"internalType":"uint256","name":"_lootboxId","type":"uint256"},{"internalType":"address[2]","name":"_inputOutputCollections","type":"address[2]"},{"internalType":"uint256[][2]","name":"_inputOutputCollectionItemIds","type":"uint256[][2]"},{"internalType":"uint256[][2]","name":"_inputOutputCollectionItemAmounts","type":"uint256[][2]"},{"internalType":"uint256[]","name":"_outputCollectionItemWeights","type":"uint256[]"},{"internalType":"uint256","name":"_outputTotalItems","type":"uint256"}],"name":"setLootbox","outputs":[],"stateMutability":"nonpayable","type":"function"},{"inputs":[{"internalType":"bytes4","name":"interfaceId","type":"bytes4"}],"name":"supportsInterface","outputs":[{"internalType":"bool","name":"","type":"bool"}],"stateMutability":"view","type":"function"},{"inputs":[],"name":"systemId","outputs":[{"internalType":"bytes32","name":"","type":"bytes32"}],"stateMutability":"view","type":"function"},{"inputs":[{"internalType":"address","name":"_address","type":"address"},{"internalType":"uint256","name":"_lootboxId","type":"uint256"}],"name":"totalClaimableLootboxes","outputs":[{"internalType":"uint256","name":"","type":"uint256"}],"stateMutability":"view","type":"function"},{"inputs":[],"name":"totalLootboxes","outputs":[{"internalType":"uint256","name":"","type":"uint256"}],"stateMutability":"view","type":"function"},{"inputs":[{"internalType":"address","name":"_address","type":"address"},{"internalType":"uint256","name":"_lootboxId","type":"uint256"}],"name":"totalOpenedLootboxes","outputs":[{"internalType":"uint256","name":"","type":"uint256"}],"stateMutability":"view","type":"function"},{"inputs":[{"internalType":"address","name":"_newOwner","type":"address"}],"name":"transferOwnershipControl","outputs":[],"stateMutability":"nonpayable","type":"function"},{"inputs":[],"name":"trustedForwarder","outputs":[{"internalType":"address","name":"","type":"address"}],"stateMutability":"view","type":"function"},{"inputs":[{"internalType":"address","name":"_newTrustedForwarder","type":"address"}],"name":"upgradeTrustedForwarder","outputs":[],"stateMutability":"nonpayable","type":"function"}],"evm":{"bytecode":{"linkReferences":{},"object":"608060405260026008553480156200001657600080fd5b5060405162004b5938038062004b598339810160408190526200003991620001b4565b600080546001600160a01b0319166001600160a01b038416178155600182815560035562000071906200006b620000a8565b620000c4565b620000a07f5b618ab2fee761c09bf71319707cefa62eccc93dcc483744898e6c3acf4526436200006b620000a8565b5050620001f0565b6000620000bf620000d460201b62002b2b1760201c565b905090565b620000d082826200010a565b5050565b600080546001600160a01b03163303620000f5575060131936013560601c90565b620000bf620001b060201b62002b7b1760201c565b60008281526002602090815260408083206001600160a01b038516845290915290205460ff16620000d05760008281526002602090815260408083206001600160a01b03851684529091529020805460ff191660011790556200016c620000a8565b6001600160a01b0316816001600160a01b0316837f2f8788117e7eff1d82e926ec794901d17c78024a50270940304540a733656f0d60405160405180910390a45050565b3390565b60008060408385031215620001c857600080fd5b82516001600160a01b0381168114620001e057600080fd5b6020939093015192949293505050565b61495980620002006000396000f3fe608060405234801561001057600080fd5b506004361061025c5760003560e01c8063826410fc11610145578063af90a2b7116100bd578063e1394b901161008c578063ea61401a11610071578063ea61401a146105f2578063f23a6e61146105fa578063fbf3040d1461063257600080fd5b8063e1394b90146105cc578063e8c683fd146105df57600080fd5b8063af90a2b714610535578063bc197c8114610548578063d547741f146105b1578063de0ef5e4146105c457600080fd5b8063940502ea11610114578063a217fddf116100f9578063a217fddf14610507578063aa2a7eea1461050f578063abb5d9421461052257600080fd5b8063940502ea146104de57806394cba64e146104e757600080fd5b8063826410fc1461045d5780638404adc11461046557806391d148541461047857806392e11500146104be57600080fd5b80634252ac3f116101d85780637da0a877116101a75780637f4165101161018c5780637f4165101461042f5780637ff48190146104375780637ffb5c651461044a57600080fd5b80637da0a877146103ca5780637f1d0ad21461040f57600080fd5b80634252ac3f14610355578063572b6c05146103685780635ec2d0221461039757806360234af9146103aa57600080fd5b80630e1d1da71161022f5780632f2ff15d116102145780632f2ff15d1461032657806336568abe1461033957806339f898bc1461034c57600080fd5b80630e1d1da7146102d5578063248a9ca3146102f557600080fd5b806301bab1681461026157806301ffc9a71461028a578063021b0647146102ad57806307af4117146102c2575b600080fd5b61027461026f366004613a5c565b610675565b6040516102819190613ab9565b60405180910390f35b61029d610298366004613b39565b61076b565b6040519015158152602001610281565b6102c06102bb366004613b7b565b61080d565b005b6102c06102d0366004613b7b565b6108ac565b6102e86102e3366004613b7b565b610937565b6040516102819190613b94565b610318610303366004613b7b565b60009081526002602052604090206001015490565b604051908152602001610281565b6102c0610334366004613bd0565b6109b7565b6102c0610347366004613bd0565b610b5a565b61031860015481565b6102c0610363366004613bfc565b610c2a565b61029d610376366004613bfc565b60005473ffffffffffffffffffffffffffffffffffffffff91821691161490565b6102e86103a5366004613a5c565b610c52565b6103bd6103b8366004613a5c565b610d26565b6040516102819190613d27565b6000546103ea9073ffffffffffffffffffffffffffffffffffffffff1681565b60405173ffffffffffffffffffffffffffffffffffffffff9091168152602001610281565b61042261041d366004613d9a565b6110ce565b6040516102819190613e1f565b61027461122f565b6102c0610445366004613b7b565b6112df565b6102c0610458366004613a5c565b6116ee565b61031861170c565b6102c0610473366004613ea3565b61171d565b61029d610486366004613bd0565b600091825260026020908152604080842073ffffffffffffffffffffffffffffffffffffffff93909316845291905290205460ff1690565b6104d16104cc366004613b7b565b611d1f565b6040516102819190613f87565b61031860085481565b6104fa6104f5366004613f9a565b612084565b6040516102819190613fcd565b610318600081565b6102c061051d366004613bfc565b6122af565b610318610530366004613d9a565b61231d565b610422610543366004613fe0565b6123f3565b6105806105563660046141a5565b7fbc197c810000000000000000000000000000000000000000000000000000000095945050505050565b6040517fffffffff000000000000000000000000000000000000000000000000000000009091168152602001610281565b6102c06105bf366004613bd0565b61268b565b6103bd6126b5565b6102c06105da366004613b7b565b612a25565b6103186105ed366004613b7b565b612aa0565b6102e8612b1f565b61058061060836600461424f565b7ff23a6e610000000000000000000000000000000000000000000000000000000095945050505050565b610318610640366004613d9a565b73ffffffffffffffffffffffffffffffffffffffff919091166000908152600760209081526040808320938352929052205490565b606060006106836004612b7f565b84106106905760006106a5565b8361069b6004612b7f565b6106a591906142e3565b90506000838211156106b757836106b9565b815b905060008167ffffffffffffffff8111156106d6576106d6614019565b60405190808252806020026020018201604052801561070957816020015b60608152602001906001900390816106f45790505b50905060005b8281101561075f5761072f6102e3610727838a6142f6565b600490612b89565b82828151811061074157610741614309565b6020026020010181905250808061075790614338565b91505061070f565b50925050505b92915050565b60007fffffffff0000000000000000000000000000000000000000000000000000000082167f20fa61be0000000000000000000000000000000000000000000000000000000014806107fe57507fffffffff0000000000000000000000000000000000000000000000000000000082167f4e2312e000000000000000000000000000000000000000000000000000000000145b80610765575061076582612b9c565b7f5b618ab2fee761c09bf71319707cefa62eccc93dcc483744898e6c3acf45264361083781612bf2565b600082116108a6576040517f08c379a000000000000000000000000000000000000000000000000000000000815260206004820152601260248201527f4f66667365742063616e6e6f742062652030000000000000000000000000000060448201526064015b60405180910390fd5b50600855565b7f5b618ab2fee761c09bf71319707cefa62eccc93dcc483744898e6c3acf4526436108d681612bf2565b6108e1600483612c03565b5060008281526006602052604090819020905183907f0864136c4ebca2d8889222bc6e0378756c87aa96dbac4e5645772cf08d4112ee906109239084906144cf565b60405180910390a26000600a909101555050565b60408051600280825260608083018452926000929190602083019080368337019050509050828160008151811061097057610970614309565b60200260200101818152505060066000848152602001908152602001600020600b0154816001815181106109a6576109a6614309565b602090810291909101015292915050565b60006109c581610486612c0f565b905060006109f57f5b618ab2fee761c09bf71319707cefa62eccc93dcc483744898e6c3acf452643610486612c0f565b90508180610a005750805b610a8c576040517f08c379a000000000000000000000000000000000000000000000000000000000815260206004820152602d60248201527f526f6c65206772616e74696e672072657175697265732061646d696e206f722060448201527f6d616e6167657220726f6c652e00000000000000000000000000000000000000606482015260840161089d565b831580610ab857507f5b618ab2fee761c09bf71319707cefa62eccc93dcc483744898e6c3acf45264384145b15610b4a5781610b4a576040517f08c379a000000000000000000000000000000000000000000000000000000000815260206004820152602b60248201527f4f6e6c792061646d696e2063616e206772616e742061646d696e206f72206d6160448201527f6e6167657220726f6c652e000000000000000000000000000000000000000000606482015260840161089d565b610b548484612c19565b50505050565b610b62612c0f565b73ffffffffffffffffffffffffffffffffffffffff168173ffffffffffffffffffffffffffffffffffffffff1614610c1c576040517f08c379a000000000000000000000000000000000000000000000000000000000815260206004820152602f60248201527f416363657373436f6e74726f6c3a2063616e206f6e6c792072656e6f756e636560448201527f20726f6c657320666f722073656c660000000000000000000000000000000000606482015260840161089d565b610c268282612d0e565b5050565b6000610c3581612bf2565b610c40600083612c19565b610c266000610c4d612c0f565b612d0e565b60606000610c606004612b7f565b8410610c6d576000610c82565b83610c786004612b7f565b610c8291906142e3565b9050600083821115610c945783610c96565b815b905060008167ffffffffffffffff811115610cb357610cb3614019565b604051908082528060200260200182016040528015610cdc578160200160208202803683370190505b50905060005b8281101561075f57610cf761072782896142f6565b828281518110610d0957610d09614309565b602090810291909101015280610d1e81614338565b915050610ce2565b60606000610d346004612b7f565b8410610d41576000610d56565b83610d4c6004612b7f565b610d5691906142e3565b9050600083821115610d685783610d6a565b815b905060008167ffffffffffffffff811115610d8757610d87614019565b604051908082528060200260200182016040528015610e4857816020015b610e3560405180610180016040528060008152602001600073ffffffffffffffffffffffffffffffffffffffff1681526020016060815260200160608152602001600073ffffffffffffffffffffffffffffffffffffffff168152602001606081526020016060815260200160608152602001600081526020016000815260200160008152602001600081525090565b815260200190600190039081610da55790505b50905060005b8281101561075f5760066000610e67610727848b6142f6565b8152602080820192909252604090810160002081516101808101835281548152600182015473ffffffffffffffffffffffffffffffffffffffff1681850152600282018054845181870281018701865281815292959394860193830182828015610ef057602002820191906000526020600020905b815481526020019060010190808311610edc575b5050505050815260200160038201805480602002602001604051908101604052809291908181526020018280548015610f4857602002820191906000526020600020905b815481526020019060010190808311610f34575b5050509183525050600482015473ffffffffffffffffffffffffffffffffffffffff166020808301919091526005830180546040805182850281018501825282815294019392830182828015610fbd57602002820191906000526020600020905b815481526020019060010190808311610fa9575b505050505081526020016006820180548060200260200160405190810160405280929190818152602001828054801561101557602002820191906000526020600020905b815481526020019060010190808311611001575b505050505081526020016007820180548060200260200160405190810160405280929190818152602001828054801561106d57602002820191906000526020600020905b815481526020019060010190808311611059575b505050505081526020016008820154815260200160098201548152602001600a8201548152602001600b820154815250508282815181106110b0576110b0614309565b602002602001018190525080806110c690614338565b915050610e4e565b73ffffffffffffffffffffffffffffffffffffffff821660009081526007602090815260408083208484528252808320805482518185028101850190935280835260609492939192909184015b8282101561122357838290600052602060002090600502016040518060a00160405290816000820154815260200160018201548152602001600282018054806020026020016040519081016040528092919081815260200182805480156111a157602002820191906000526020600020905b81548152602001906001019080831161118d575b50505050508152602001600382018054806020026020016040519081016040528092919081815260200182805480156111f957602002820191906000526020600020905b8154815260200190600101908083116111e5575b50505091835250506004919091015460ff161515602091820152908252600192909201910161111b565b50505050905092915050565b6060600061123b61170c565b67ffffffffffffffff81111561125357611253614019565b60405190808252806020026020018201604052801561128657816020015b60608152602001906001900390816112715790505b50905060005b61129461170c565b8110156112d9576112a96102e3600483612b89565b8282815181106112bb576112bb614309565b602002602001018190525080806112d190614338565b91505061128c565b50919050565b6112e7612e01565b6112f2600482612e74565b61137e576040517f08c379a000000000000000000000000000000000000000000000000000000000815260206004820152602d60248201527f6c6f6f74626f78496420646f6573206e6f74206578697374206f72206861732060448201527f6265656e2072656d6f7665642e00000000000000000000000000000000000000606482015260840161089d565b6000818152600660205260409020600181015473ffffffffffffffffffffffffffffffffffffffff161561156d5760018101546040517f01ffc9a70000000000000000000000000000000000000000000000000000000081527fd2c80a6200000000000000000000000000000000000000000000000000000000600482015273ffffffffffffffffffffffffffffffffffffffff909116906301ffc9a790602401602060405180830381865afa15801561143c573d6000803e3d6000fd5b505050506040513d601f19601f8201168201806040525081019061146091906144e2565b156114ea57600181015473ffffffffffffffffffffffffffffffffffffffff16634b7c78dc61148d612c0f565b83600201846003016040518463ffffffff1660e01b81526004016114b393929190614504565b600060405180830381600087803b1580156114cd57600080fd5b505af11580156114e1573d6000803e3d6000fd5b5050505061156d565b600181015473ffffffffffffffffffffffffffffffffffffffff16632eb2c2d6611512612c0f565b3084600201856003016040518563ffffffff1660e01b815260040161153a949392919061454f565b600060405180830381600087803b15801561155457600080fd5b505af1158015611568573d6000803e3d6000fd5b505050505b6115a16040518060a00160405280600081526020016000815260200160608152602001606081526020016000151581525090565b8281526008546115b190436142f6565b6020820152600760006115c2612c0f565b73ffffffffffffffffffffffffffffffffffffffff168152602080820192909252604090810160009081208682528352818120805460018181018355918352918490208551600590930201918255848401519082015590830151805184936116319260028501929101906139fc565b506060820151805161164d9160038401916020909101906139fc565b5060809190910151600490910180547fffffffffffffffffffffffffffffffffffffffffffffffffffffffffffffff0016911515919091179055600a8201805490600061169983614338565b9190505550827fcbe236ccb8bf2ae258fd54e73752d614c82aa6293d5256658cc3ce58dc4d4bf0836116c9612c0f565b6040516116d79291906145b7565b60405180910390a250506116eb6001600355565b50565b6116f6612e01565b61170282826001612e8c565b610c266001600355565b60006117186004612b7f565b905090565b7f5b618ab2fee761c09bf71319707cefa62eccc93dcc483744898e6c3acf45264361174781612bf2565b61175185806145ef565b905061175d87806145ef565b9050146117ec576040517f08c379a000000000000000000000000000000000000000000000000000000000815260206004820152602d60248201527f4d69736d61746368656420696e707574206974656d2069647320616e6420616d60448201527f6f756e74206c656e677468732e00000000000000000000000000000000000000606482015260840161089d565b6117f960208601866145ef565b905061180860208801886145ef565b905014611897576040517f08c379a000000000000000000000000000000000000000000000000000000000815260206004820152602d60248201527f4d69736d617463686564206f7574707574206974656d2069647320616e64206160448201527f6d6f756e74206c656e6774682e00000000000000000000000000000000000000606482015260840161089d565b826118a560208801886145ef565b905014611934576040517f08c379a000000000000000000000000000000000000000000000000000000000815260206004820152603160248201527f4d69736d61746368206f7574707574206974656d2069647320616e642069746560448201527f6d2077656967687473206c656e6774682e000000000000000000000000000000606482015260840161089d565b6000805b848110156119785785858281811061195257611952614309565b905060200201358261196491906142f6565b91508061197081614338565b915050611938565b5060006040518061018001604052808b81526020018a6000600281106119a0576119a0614309565b6020020160208101906119b39190613bfc565b73ffffffffffffffffffffffffffffffffffffffff1681526020016119d88a806145ef565b80806020026020016040519081016040528093929190818152602001838360200280828437600092019190915250505090825250602001611a1989806145ef565b80806020026020016040519081016040528093929190818152602001838360200280828437600092019190915250505090825250602090810190611a639060408d01908d01613bfc565b73ffffffffffffffffffffffffffffffffffffffff168152602090810190611a8d908b018b6145ef565b80806020026020016040519081016040528093929190818152602001838360200280828437600092019190915250505090825250602090810190611ad3908a018a6145ef565b8080602002602001604051908101604052809392919081815260200183836020028082843760009201919091525050509082525060408051602089810282810182019093528982529283019290918a918a9182918501908490808284376000920182905250938552505050602080830186905260408084018990528e835260069091529020600a01546060820152426080909101529050611b7560048b613468565b5060008a81526006602090815260409182902083518155838201516001820180547fffffffffffffffffffffffff00000000000000000000000000000000000000001673ffffffffffffffffffffffffffffffffffffffff909216919091179055918301518051849392611bf09260028501929101906139fc565b5060608201518051611c0c9160038401916020909101906139fc565b5060808201516004820180547fffffffffffffffffffffffff00000000000000000000000000000000000000001673ffffffffffffffffffffffffffffffffffffffff90921691909117905560a08201518051611c739160058401916020909101906139fc565b5060c08201518051611c8f9160068401916020909101906139fc565b5060e08201518051611cab9160078401916020909101906139fc565b506101008201518160080155610120820151816009015561014082015181600a015561016082015181600b0155905050897fb2e547eb18679a18ee72bf11d33344b9a6a24f4afecf77e5ff1833294b4b0ab982604051611d0b9190613f87565b60405180910390a250505050505050505050565b611daf60405180610180016040528060008152602001600073ffffffffffffffffffffffffffffffffffffffff1681526020016060815260200160608152602001600073ffffffffffffffffffffffffffffffffffffffff168152602001606081526020016060815260200160608152602001600081526020016000815260200160008152602001600081525090565b611dba600483612e74565b611e46576040517f08c379a000000000000000000000000000000000000000000000000000000000815260206004820152602d60248201527f6c6f6f74626f78496420646f6573206e6f74206578697374206f72206861732060448201527f6265656e2072656d6f7665642e00000000000000000000000000000000000000606482015260840161089d565b60008281526006602090815260409182902082516101808101845281548152600182015473ffffffffffffffffffffffffffffffffffffffff168184015260028201805485518186028101860187528181529295939493860193830182828015611ecf57602002820191906000526020600020905b815481526020019060010190808311611ebb575b5050505050815260200160038201805480602002602001604051908101604052809291908181526020018280548015611f2757602002820191906000526020600020905b815481526020019060010190808311611f13575b5050509183525050600482015473ffffffffffffffffffffffffffffffffffffffff166020808301919091526005830180546040805182850281018501825282815294019392830182828015611f9c57602002820191906000526020600020905b815481526020019060010190808311611f88575b5050505050815260200160068201805480602002602001604051908101604052809291908181526020018280548015611ff457602002820191906000526020600020905b815481526020019060010190808311611fe0575b505050505081526020016007820180548060200260200160405190810160405280929190818152602001828054801561204c57602002820191906000526020600020905b815481526020019060010190808311612038575b505050505081526020016008820154815260200160098201548152602001600a8201548152602001600b820154815250509050919050565b6120b86040518060a00160405280600081526020016000815260200160608152602001606081526020016000151581525090565b73ffffffffffffffffffffffffffffffffffffffff841660009081526007602090815260408083208684529091529020548210612177576040517f08c379a000000000000000000000000000000000000000000000000000000000815260206004820152602360248201527f6f70656e65644c6f6f74626f78496e64657820646f6573206e6f74206578697360448201527f74732e0000000000000000000000000000000000000000000000000000000000606482015260840161089d565b73ffffffffffffffffffffffffffffffffffffffff8416600090815260076020908152604080832086845290915290208054839081106121b9576121b9614309565b90600052602060002090600502016040518060a001604052908160008201548152602001600182015481526020016002820180548060200260200160405190810160405280929190818152602001828054801561223557602002820191906000526020600020905b815481526020019060010190808311612221575b505050505081526020016003820180548060200260200160405190810160405280929190818152602001828054801561228d57602002820191906000526020600020905b815481526020019060010190808311612279575b50505091835250506004919091015460ff161515602090910152949350505050565b7f5b618ab2fee761c09bf71319707cefa62eccc93dcc483744898e6c3acf4526436122d981612bf2565b600080547fffffffffffffffffffffffff00000000000000000000000000000000000000001673ffffffffffffffffffffffffffffffffffffffff84161790555050565b600080805b73ffffffffffffffffffffffffffffffffffffffff851660009081526007602090815260408083208784529091529020548110156123eb5773ffffffffffffffffffffffffffffffffffffffff85166000908152600760209081526040808320878452909152812080548390811061239c5761239c614309565b90600052602060002090600502019050806001015443101580156123c55750600481015460ff16155b156123d857826123d481614338565b9350505b50806123e381614338565b915050612322565b509392505050565b73ffffffffffffffffffffffffffffffffffffffff84166000908152600760209081526040808320868452909152812054606091908410612435576000612471565b73ffffffffffffffffffffffffffffffffffffffff861660009081526007602090815260408083208884529091529020546124719085906142e3565b90506000838211156124835783612485565b815b905060008167ffffffffffffffff8111156124a2576124a2614019565b60405190808252806020026020018201604052801561250757816020015b6124f46040518060a00160405280600081526020016000815260200160608152602001606081526020016000151581525090565b8152602001906001900390816124c05790505b50905060005b8281101561267f5773ffffffffffffffffffffffffffffffffffffffff891660009081526007602090815260408083208b8452909152902061254f82896142f6565b8154811061255f5761255f614309565b90600052602060002090600502016040518060a00160405290816000820154815260200160018201548152602001600282018054806020026020016040519081016040528092919081815260200182805480156125db57602002820191906000526020600020905b8154815260200190600101908083116125c7575b505050505081526020016003820180548060200260200160405190810160405280929190818152602001828054801561263357602002820191906000526020600020905b81548152602001906001019080831161261f575b50505091835250506004919091015460ff161515602090910152825183908390811061266157612661614309565b6020026020010181905250808061267790614338565b91505061250d565b50979650505050505050565b6000828152600260205260409020600101546126a681612bf2565b6126b08383612d0e565b505050565b606060006126c161170c565b67ffffffffffffffff8111156126d9576126d9614019565b60405190808252806020026020018201604052801561279a57816020015b61278760405180610180016040528060008152602001600073ffffffffffffffffffffffffffffffffffffffff1681526020016060815260200160608152602001600073ffffffffffffffffffffffffffffffffffffffff168152602001606081526020016060815260200160608152602001600081526020016000815260200160008152602001600081525090565b8152602001906001900390816126f75790505b50905060005b6127a861170c565b8110156112d957600660006127be600484612b89565b8152602080820192909252604090810160002081516101808101835281548152600182015473ffffffffffffffffffffffffffffffffffffffff168185015260028201805484518187028101870186528181529295939486019383018282801561284757602002820191906000526020600020905b815481526020019060010190808311612833575b505050505081526020016003820180548060200260200160405190810160405280929190818152602001828054801561289f57602002820191906000526020600020905b81548152602001906001019080831161288b575b5050509183525050600482015473ffffffffffffffffffffffffffffffffffffffff16602080830191909152600583018054604080518285028101850182528281529401939283018282801561291457602002820191906000526020600020905b815481526020019060010190808311612900575b505050505081526020016006820180548060200260200160405190810160405280929190818152602001828054801561296c57602002820191906000526020600020905b815481526020019060010190808311612958575b50505050508152602001600782018054806020026020016040519081016040528092919081815260200182805480156129c457602002820191906000526020600020905b8154815260200190600101908083116129b0575b505050505081526020016008820154815260200160098201548152602001600a8201548152602001600b82015481525050828281518110612a0757612a07614309565b60200260200101819052508080612a1d90614338565b9150506127a0565b612a2d612e01565b60005b60076000612a3c612c0f565b73ffffffffffffffffffffffffffffffffffffffff16815260208082019290925260409081016000908120858252909252902054811015612a9557612a8382826000612e8c565b80612a8d81614338565b915050612a30565b506116eb6001600355565b6000612aac6004612b7f565b8210612b14576040517f08c379a000000000000000000000000000000000000000000000000000000000815260206004820152601360248201527f496e646578206f7574206f6620626f756e647300000000000000000000000000604482015260640161089d565b610765600483612b89565b60606117186004613474565b6000805473ffffffffffffffffffffffffffffffffffffffff163303612b7657507fffffffffffffffffffffffffffffffffffffffffffffffffffffffffffffffec36013560601c90565b503390565b3390565b6000610765825490565b6000612b958383613481565b9392505050565b60007fffffffff0000000000000000000000000000000000000000000000000000000082167f7965db0b0000000000000000000000000000000000000000000000000000000014806107655750610765826134ab565b6116eb81612bfe612c0f565b613542565b6000612b9583836135fc565b6000611718612b2b565b600082815260026020908152604080832073ffffffffffffffffffffffffffffffffffffffff8516845290915290205460ff16610c2657600082815260026020908152604080832073ffffffffffffffffffffffffffffffffffffffff85168452909152902080547fffffffffffffffffffffffffffffffffffffffffffffffffffffffffffffff00166001179055612cb0612c0f565b73ffffffffffffffffffffffffffffffffffffffff168173ffffffffffffffffffffffffffffffffffffffff16837f2f8788117e7eff1d82e926ec794901d17c78024a50270940304540a733656f0d60405160405180910390a45050565b600082815260026020908152604080832073ffffffffffffffffffffffffffffffffffffffff8516845290915290205460ff1615610c2657600082815260026020908152604080832073ffffffffffffffffffffffffffffffffffffffff85168452909152902080547fffffffffffffffffffffffffffffffffffffffffffffffffffffffffffffff00169055612da3612c0f565b73ffffffffffffffffffffffffffffffffffffffff168173ffffffffffffffffffffffffffffffffffffffff16837ff6391f5c32d9c69d2a47ea670b442974b53935d1edc7fd64eb21e047a839171b60405160405180910390a45050565b600260035403612e6d576040517f08c379a000000000000000000000000000000000000000000000000000000000815260206004820152601f60248201527f5265656e7472616e637947756172643a207265656e7472616e742063616c6c00604482015260640161089d565b6002600355565b60008181526001830160205260408120541515612b95565b600060076000612e9a612c0f565b73ffffffffffffffffffffffffffffffffffffffff1673ffffffffffffffffffffffffffffffffffffffff16815260200190815260200160002060008581526020019081526020016000208381548110612ef657612ef6614309565b9060005260206000209060050201905060006006600086815260200190815260200160002090508160010154431080612f335750600482015460ff165b15612fcf578215612fc857604080517f08c379a00000000000000000000000000000000000000000000000000000000081526020600482015260248101919091527f4c6f6f74626f7820756e636c61696d61626c652e20436c61696d20626c6f636b60448201527f206e6f742072656163686564206f7220616c726561647920636c61696d65642e606482015260840161089d565b5050505050565b6000816009015467ffffffffffffffff811115612fee57612fee614019565b604051908082528060200260200182016040528015613017578160200160208202803683370190505b5090506000826009015467ffffffffffffffff81111561303957613039614019565b604051908082528060200260200182016040528015613062578160200160208202803683370190505b50905060005b83600901548110156132025760006001866001015461308791906142e3565b40613090612c0f565b89846040516020016130e0949392919093845260609290921b7fffffffffffffffffffffffffffffffffffffffff0000000000000000000000001660208401526034830152605482015260740190565b6040516020818303038152906040528051906020012060001c9050600085600801548261310d919061465e565b905060005b60078701548110156131ec57600087600701828154811061313557613135614309565b90600052602060002001549050828111156131cc5787600501828154811061315f5761315f614309565b906000526020600020015487868151811061317c5761317c614309565b60200260200101818152505087600601828154811061319d5761319d614309565b90600052602060002001548686815181106131ba576131ba614309565b602002602001018181525050506131ec565b6131d681846142e3565b92505080806131e490614338565b915050613112565b50505080806131fa90614338565b915050613068565b506004838101546040517f91d148540000000000000000000000000000000000000000000000000000000081527fc9eb32e43bf5ecbceacf00b32281dfc5d6d700a0db676ea26ccf938a385ac3f79281019290925230602483015273ffffffffffffffffffffffffffffffffffffffff16906391d1485490604401602060405180830381865afa15801561329a573d6000803e3d6000fd5b505050506040513d601f19601f820116820180604052508101906132be91906144e2565b1561334257600483015473ffffffffffffffffffffffffffffffffffffffff166308f427c76132eb612c0f565b84846040518463ffffffff1660e01b815260040161330b93929190614699565b600060405180830381600087803b15801561332557600080fd5b505af1158015613339573d6000803e3d6000fd5b505050506133bf565b600483015473ffffffffffffffffffffffffffffffffffffffff16632eb2c2d63061336b612c0f565b85856040518563ffffffff1660e01b815260040161338c94939291906146da565b600060405180830381600087803b1580156133a657600080fd5b505af11580156133ba573d6000803e3d6000fd5b505050505b81516133d490600286019060208501906139fc565b5080516133ea90600386019060208401906139fc565b506004840180547fffffffffffffffffffffffffffffffffffffffffffffffffffffffffffffff00166001179055867fa90466a1141d4242085b5ac5c6634a366ec37ad66c953e191b51c3441e56010e84613443612c0f565b898686604051613457959493929190614725565b60405180910390a250505050505050565b6000612b9583836136ef565b60606000612b958361373e565b600082600001828154811061349857613498614309565b9060005260206000200154905092915050565b60007fffffffff0000000000000000000000000000000000000000000000000000000082167f4e2312e000000000000000000000000000000000000000000000000000000000148061076557507f01ffc9a7000000000000000000000000000000000000000000000000000000007fffffffff00000000000000000000000000000000000000000000000000000000831614610765565b600082815260026020908152604080832073ffffffffffffffffffffffffffffffffffffffff8516845290915290205460ff16610c26576135828161379a565b61358d8360206137b9565b60405160200161359e9291906147b0565b604080517fffffffffffffffffffffffffffffffffffffffffffffffffffffffffffffffe0818403018152908290527f08c379a000000000000000000000000000000000000000000000000000000000825261089d91600401614831565b600081815260018301602052604081205480156136e55760006136206001836142e3565b8554909150600090613634906001906142e3565b905081811461369957600086600001828154811061365457613654614309565b906000526020600020015490508087600001848154811061367757613677614309565b6000918252602080832090910192909255918252600188019052604090208390555b85548690806136aa576136aa614882565b600190038181906000526020600020016000905590558560010160008681526020019081526020016000206000905560019350505050610765565b6000915050610765565b600081815260018301602052604081205461373657508154600181810184556000848152602080822090930184905584548482528286019093526040902091909155610765565b506000610765565b60608160000180548060200260200160405190810160405280929190818152602001828054801561378e57602002820191906000526020600020905b81548152602001906001019080831161377a575b50505050509050919050565b606061076573ffffffffffffffffffffffffffffffffffffffff831660145b606060006137c88360026148b1565b6137d39060026142f6565b67ffffffffffffffff8111156137eb576137eb614019565b6040519080825280601f01601f191660200182016040528015613815576020820181803683370190505b5090507f30000000000000000000000000000000000000000000000000000000000000008160008151811061384c5761384c614309565b60200101907effffffffffffffffffffffffffffffffffffffffffffffffffffffffffffff1916908160001a9053507f7800000000000000000000000000000000000000000000000000000000000000816001815181106138af576138af614309565b60200101907effffffffffffffffffffffffffffffffffffffffffffffffffffffffffffff1916908160001a90535060006138eb8460026148b1565b6138f69060016142f6565b90505b6001811115613993577f303132333435363738396162636465660000000000000000000000000000000085600f166010811061393757613937614309565b1a60f81b82828151811061394d5761394d614309565b60200101907effffffffffffffffffffffffffffffffffffffffffffffffffffffffffffff1916908160001a90535060049490941c9361398c816148ee565b90506138f9565b508315612b95576040517f08c379a000000000000000000000000000000000000000000000000000000000815260206004820181905260248201527f537472696e67733a20686578206c656e67746820696e73756666696369656e74604482015260640161089d565b828054828255906000526020600020908101928215613a37579160200282015b82811115613a37578251825591602001919060010190613a1c565b50613a43929150613a47565b5090565b5b80821115613a435760008155600101613a48565b60008060408385031215613a6f57600080fd5b50508035926020909101359150565b600081518084526020808501945080840160005b83811015613aae57815187529582019590820190600101613a92565b509495945050505050565b6000602080830181845280855180835260408601915060408160051b870101925083870160005b82811015613b2c577fffffffffffffffffffffffffffffffffffffffffffffffffffffffffffffffc0888603018452613b1a858351613a7e565b94509285019290850190600101613ae0565b5092979650505050505050565b600060208284031215613b4b57600080fd5b81357fffffffff0000000000000000000000000000000000000000000000000000000081168114612b9557600080fd5b600060208284031215613b8d57600080fd5b5035919050565b602081526000612b956020830184613a7e565b803573ffffffffffffffffffffffffffffffffffffffff81168114613bcb57600080fd5b919050565b60008060408385031215613be357600080fd5b82359150613bf360208401613ba7565b90509250929050565b600060208284031215613c0e57600080fd5b612b9582613ba7565b6000610180825184526020830151613c47602086018273ffffffffffffffffffffffffffffffffffffffff169052565b506040830151816040860152613c5f82860182613a7e565b91505060608301518482036060860152613c798282613a7e565b9150506080830151613ca3608086018273ffffffffffffffffffffffffffffffffffffffff169052565b5060a083015184820360a0860152613cbb8282613a7e565b91505060c083015184820360c0860152613cd58282613a7e565b91505060e083015184820360e0860152613cef8282613a7e565b610100858101519087015261012080860151908701526101408086015190870152610160948501519490950193909352509192915050565b6000602080830181845280855180835260408601915060408160051b870101925083870160005b82811015613b2c577fffffffffffffffffffffffffffffffffffffffffffffffffffffffffffffffc0888603018452613d88858351613c17565b94509285019290850190600101613d4e565b60008060408385031215613dad57600080fd5b613db683613ba7565b946020939093013593505050565b80518252602081015160208301526000604082015160a06040850152613ded60a0850182613a7e565b905060608301518482036060860152613e068282613a7e565b9150506080830151151560808501528091505092915050565b6000602080830181845280855180835260408601915060408160051b870101925083870160005b82811015613b2c577fffffffffffffffffffffffffffffffffffffffffffffffffffffffffffffffc0888603018452613e80858351613dc4565b94509285019290850190600101613e46565b806040810183101561076557600080fd5b600080600080600080600060e0888a031215613ebe57600080fd5b87359650613ecf8960208a01613e92565b9550606088013567ffffffffffffffff80821115613eec57600080fd5b613ef88b838c01613e92565b965060808a0135915080821115613f0e57600080fd5b613f1a8b838c01613e92565b955060a08a0135915080821115613f3057600080fd5b818a0191508a601f830112613f4457600080fd5b813581811115613f5357600080fd5b8b60208260051b8501011115613f6857600080fd5b60208301955080945050505060c0880135905092959891949750929550565b602081526000612b956020830184613c17565b600080600060608486031215613faf57600080fd5b613fb884613ba7565b95602085013595506040909401359392505050565b602081526000612b956020830184613dc4565b60008060008060808587031215613ff657600080fd5b613fff85613ba7565b966020860135965060408601359560600135945092505050565b7f4e487b7100000000000000000000000000000000000000000000000000000000600052604160045260246000fd5b604051601f82017fffffffffffffffffffffffffffffffffffffffffffffffffffffffffffffffe016810167ffffffffffffffff8111828210171561408f5761408f614019565b604052919050565b600082601f8301126140a857600080fd5b8135602067ffffffffffffffff8211156140c4576140c4614019565b8160051b6140d3828201614048565b92835284810182019282810190878511156140ed57600080fd5b83870192505b8483101561410c578235825291830191908301906140f3565b979650505050505050565b600082601f83011261412857600080fd5b813567ffffffffffffffff81111561414257614142614019565b61417360207fffffffffffffffffffffffffffffffffffffffffffffffffffffffffffffffe0601f84011601614048565b81815284602083860101111561418857600080fd5b816020850160208301376000918101602001919091529392505050565b600080600080600060a086880312156141bd57600080fd5b6141c686613ba7565b94506141d460208701613ba7565b9350604086013567ffffffffffffffff808211156141f157600080fd5b6141fd89838a01614097565b9450606088013591508082111561421357600080fd5b61421f89838a01614097565b9350608088013591508082111561423557600080fd5b5061424288828901614117565b9150509295509295909350565b600080600080600060a0868803121561426757600080fd5b61427086613ba7565b945061427e60208701613ba7565b93506040860135925060608601359150608086013567ffffffffffffffff8111156142a857600080fd5b61424288828901614117565b7f4e487b7100000000000000000000000000000000000000000000000000000000600052601160045260246000fd5b81810381811115610765576107656142b4565b80820180821115610765576107656142b4565b7f4e487b7100000000000000000000000000000000000000000000000000000000600052603260045260246000fd5b60007fffffffffffffffffffffffffffffffffffffffffffffffffffffffffffffffff8203614369576143696142b4565b5060010190565b6000815480845260208085019450836000528060002060005b83811015613aae57815487529582019560019182019101614389565b6000610180825484526143cf600184015473ffffffffffffffffffffffffffffffffffffffff1690565b73ffffffffffffffffffffffffffffffffffffffff1660208501526040840181905261440081850160028501614370565b905083810360608501526144178160038501614370565b905061443a600484015473ffffffffffffffffffffffffffffffffffffffff1690565b73ffffffffffffffffffffffffffffffffffffffff16608085015283810360a085015261446a8160058501614370565b905083810360c08501526144818160068501614370565b905083810360e08501526144988160078501614370565b60088401546101008601526009840154610120860152600a840154610140860152600b909301546101609094019390935250919050565b602081526000612b9560208301846143a5565b6000602082840312156144f457600080fd5b81518015158114612b9557600080fd5b73ffffffffffffffffffffffffffffffffffffffff841681526060602082015260006145336060830185614370565b82810360408401526145458185614370565b9695505050505050565b600073ffffffffffffffffffffffffffffffffffffffff808716835280861660208401525060a0604083015261458860a0830185614370565b828103606084015261459a8185614370565b838103608090940193909352505060008152602001949350505050565b6040815260006145ca60408301856143a5565b905073ffffffffffffffffffffffffffffffffffffffff831660208301529392505050565b60008083357fffffffffffffffffffffffffffffffffffffffffffffffffffffffffffffffe184360301811261462457600080fd5b83018035915067ffffffffffffffff82111561463f57600080fd5b6020019150600581901b360382131561465757600080fd5b9250929050565b600082614694577f4e487b7100000000000000000000000000000000000000000000000000000000600052601260045260246000fd5b500690565b73ffffffffffffffffffffffffffffffffffffffff841681526060602082015260006146c86060830185613a7e565b82810360408401526145458185613a7e565b600073ffffffffffffffffffffffffffffffffffffffff808716835280861660208401525060a0604083015261471360a0830185613a7e565b828103606084015261459a8185613a7e565b60a08152600061473860a08301886143a5565b73ffffffffffffffffffffffffffffffffffffffff87166020840152856040840152828103606084015261476c8186613a7e565b905082810360808401526147808185613a7e565b98975050505050505050565b60005b838110156147a757818101518382015260200161478f565b50506000910152565b7f416363657373436f6e74726f6c3a206163636f756e74200000000000000000008152600083516147e881601785016020880161478c565b7f206973206d697373696e6720726f6c6520000000000000000000000000000000601791840191820152835161482581602884016020880161478c565b01602801949350505050565b602081526000825180602084015261485081604085016020870161478c565b601f017fffffffffffffffffffffffffffffffffffffffffffffffffffffffffffffffe0169190910160400192915050565b7f4e487b7100000000000000000000000000000000000000000000000000000000600052603160045260246000fd5b6000817fffffffffffffffffffffffffffffffffffffffffffffffffffffffffffffffff04831182151516156148e9576148e96142b4565b500290565b6000816148fd576148fd6142b4565b507fffffffffffffffffffffffffffffffffffffffffffffffffffffffffffffffff019056fea26469706673582212204a19e12bfb45952938e7a0b1ee5afa9cc66960d747a3e339148ad7e69ed83a3164736f6c63430008100033","opcodes":"PUSH1 0x80 PUSH1 0x40 MSTORE PUSH1 0x2 PUSH1 0x8 SSTORE CALLVALUE DUP1 ISZERO PUSH3 0x16 JUMPI PUSH1 0x0 DUP1 REVERT JUMPDEST POP PUSH1 0x40 MLOAD PUSH3 0x4B59 CODESIZE SUB DUP1 PUSH3 0x4B59 DUP4 CODECOPY DUP2 ADD PUSH1 0x40 DUP2 SWAP1 MSTORE PUSH3 0x39 SWAP2 PUSH3 0x1B4 JUMP JUMPDEST PUSH1 0x0 DUP1 SLOAD PUSH1 0x1 PUSH1 0x1 PUSH1 0xA0 SHL SUB NOT AND PUSH1 0x1 PUSH1 0x1 PUSH1 0xA0 SHL SUB DUP5 AND OR DUP2 SSTORE PUSH1 0x1 DUP3 DUP2 SSTORE PUSH1 0x3 SSTORE PUSH3 0x71 SWAP1 PUSH3 0x6B PUSH3 0xA8 JUMP JUMPDEST PUSH3 0xC4 JUMP JUMPDEST PUSH3 0xA0 PUSH32 0x5B618AB2FEE761C09BF71319707CEFA62ECCC93DCC483744898E6C3ACF452643 PUSH3 0x6B PUSH3 0xA8 JUMP JUMPDEST POP POP PUSH3 0x1F0 JUMP JUMPDEST PUSH1 0x0 PUSH3 0xBF PUSH3 0xD4 PUSH1 0x20 SHL PUSH3 0x2B2B OR PUSH1 0x20 SHR JUMP JUMPDEST SWAP1 POP SWAP1 JUMP JUMPDEST PUSH3 0xD0 DUP3 DUP3 PUSH3 0x10A JUMP JUMPDEST POP POP JUMP JUMPDEST PUSH1 0x0 DUP1 SLOAD PUSH1 0x1 PUSH1 0x1 PUSH1 0xA0 SHL SUB AND CALLER SUB PUSH3 0xF5 JUMPI POP PUSH1 0x13 NOT CALLDATASIZE ADD CALLDATALOAD PUSH1 0x60 SHR SWAP1 JUMP JUMPDEST PUSH3 0xBF PUSH3 0x1B0 PUSH1 0x20 SHL PUSH3 0x2B7B OR PUSH1 0x20 SHR JUMP JUMPDEST PUSH1 0x0 DUP3 DUP2 MSTORE PUSH1 0x2 PUSH1 0x20 SWAP1 DUP2 MSTORE PUSH1 0x40 DUP1 DUP4 KECCAK256 PUSH1 0x1 PUSH1 0x1 PUSH1 0xA0 SHL SUB DUP6 AND DUP5 MSTORE SWAP1 SWAP2 MSTORE SWAP1 KECCAK256 SLOAD PUSH1 0xFF AND PUSH3 0xD0 JUMPI PUSH1 0x0 DUP3 DUP2 MSTORE PUSH1 0x2 PUSH1 0x20 SWAP1 DUP2 MSTORE PUSH1 0x40 DUP1 DUP4 KECCAK256 PUSH1 0x1 PUSH1 0x1 PUSH1 0xA0 SHL SUB DUP6 AND DUP5 MSTORE SWAP1 SWAP2 MSTORE SWAP1 KECCAK256 DUP1 SLOAD PUSH1 0xFF NOT AND PUSH1 0x1 OR SWAP1 SSTORE PUSH3 0x16C PUSH3 0xA8 JUMP JUMPDEST PUSH1 0x1 PUSH1 0x1 PUSH1 0xA0 SHL SUB AND DUP2 PUSH1 0x1 PUSH1 0x1 PUSH1 0xA0 SHL SUB AND DUP4 PUSH32 0x2F8788117E7EFF1D82E926EC794901D17C78024A50270940304540A733656F0D PUSH1 0x40 MLOAD PUSH1 0x40 MLOAD DUP1 SWAP2 SUB SWAP1 LOG4 POP POP JUMP JUMPDEST CALLER SWAP1 JUMP JUMPDEST PUSH1 0x0 DUP1 PUSH1 0x40 DUP4 DUP6 SUB SLT ISZERO PUSH3 0x1C8 JUMPI PUSH1 0x0 DUP1 REVERT JUMPDEST DUP3 MLOAD PUSH1 0x1 PUSH1 0x1 PUSH1 0xA0 SHL SUB DUP2 AND DUP2 EQ PUSH3 0x1E0 JUMPI PUSH1 0x0 DUP1 REVERT JUMPDEST PUSH1 0x20 SWAP4 SWAP1 SWAP4 ADD MLOAD SWAP3 SWAP5 SWAP3 SWAP4 POP POP POP JUMP JUMPDEST PUSH2 0x4959 DUP1 PUSH3 0x200 PUSH1 0x0 CODECOPY PUSH1 0x0 RETURN INVALID PUSH1 0x80 PUSH1 0x40 MSTORE CALLVALUE DUP1 ISZERO PUSH2 0x10 JUMPI PUSH1 0x0 DUP1 REVERT JUMPDEST POP PUSH1 0x4 CALLDATASIZE LT PUSH2 0x25C JUMPI PUSH1 0x0 CALLDATALOAD PUSH1 0xE0 SHR DUP1 PUSH4 0x826410FC GT PUSH2 0x145 JUMPI DUP1 PUSH4 0xAF90A2B7 GT PUSH2 0xBD JUMPI DUP1 PUSH4 0xE1394B90 GT PUSH2 0x8C JUMPI DUP1 PUSH4 0xEA61401A GT PUSH2 0x71 JUMPI DUP1 PUSH4 0xEA61401A EQ PUSH2 0x5F2 JUMPI DUP1 PUSH4 0xF23A6E61 EQ PUSH2 0x5FA JUMPI DUP1 PUSH4 0xFBF3040D EQ PUSH2 0x632 JUMPI PUSH1 0x0 DUP1 REVERT JUMPDEST DUP1 PUSH4 0xE1394B90 EQ PUSH2 0x5CC JUMPI DUP1 PUSH4 0xE8C683FD EQ PUSH2 0x5DF JUMPI PUSH1 0x0 DUP1 REVERT JUMPDEST DUP1 PUSH4 0xAF90A2B7 EQ PUSH2 0x535 JUMPI DUP1 PUSH4 0xBC197C81 EQ PUSH2 0x548 JUMPI DUP1 PUSH4 0xD547741F EQ PUSH2 0x5B1 JUMPI DUP1 PUSH4 0xDE0EF5E4 EQ PUSH2 0x5C4 JUMPI PUSH1 0x0 DUP1 REVERT JUMPDEST DUP1 PUSH4 0x940502EA GT PUSH2 0x114 JUMPI DUP1 PUSH4 0xA217FDDF GT PUSH2 0xF9 JUMPI DUP1 PUSH4 0xA217FDDF EQ PUSH2 0x507 JUMPI DUP1 PUSH4 0xAA2A7EEA EQ PUSH2 0x50F JUMPI DUP1 PUSH4 0xABB5D942 EQ PUSH2 0x522 JUMPI PUSH1 0x0 DUP1 REVERT JUMPDEST DUP1 PUSH4 0x940502EA EQ PUSH2 0x4DE JUMPI DUP1 PUSH4 0x94CBA64E EQ PUSH2 0x4E7 JUMPI PUSH1 0x0 DUP1 REVERT JUMPDEST DUP1 PUSH4 0x826410FC EQ PUSH2 0x45D JUMPI DUP1 PUSH4 0x8404ADC1 EQ PUSH2 0x465 JUMPI DUP1 PUSH4 0x91D14854 EQ PUSH2 0x478 JUMPI DUP1 PUSH4 0x92E11500 EQ PUSH2 0x4BE JUMPI PUSH1 0x0 DUP1 REVERT JUMPDEST DUP1 PUSH4 0x4252AC3F GT PUSH2 0x1D8 JUMPI DUP1 PUSH4 0x7DA0A877 GT PUSH2 0x1A7 JUMPI DUP1 PUSH4 0x7F416510 GT PUSH2 0x18C JUMPI DUP1 PUSH4 0x7F416510 EQ PUSH2 0x42F JUMPI DUP1 PUSH4 0x7FF48190 EQ PUSH2 0x437 JUMPI DUP1 PUSH4 0x7FFB5C65 EQ PUSH2 0x44A JUMPI PUSH1 0x0 DUP1 REVERT JUMPDEST DUP1 PUSH4 0x7DA0A877 EQ PUSH2 0x3CA JUMPI DUP1 PUSH4 0x7F1D0AD2 EQ PUSH2 0x40F JUMPI PUSH1 0x0 DUP1 REVERT JUMPDEST DUP1 PUSH4 0x4252AC3F EQ PUSH2 0x355 JUMPI DUP1 PUSH4 0x572B6C05 EQ PUSH2 0x368 JUMPI DUP1 PUSH4 0x5EC2D022 EQ PUSH2 0x397 JUMPI DUP1 PUSH4 0x60234AF9 EQ PUSH2 0x3AA JUMPI PUSH1 0x0 DUP1 REVERT JUMPDEST DUP1 PUSH4 0xE1D1DA7 GT PUSH2 0x22F JUMPI DUP1 PUSH4 0x2F2FF15D GT PUSH2 0x214 JUMPI DUP1 PUSH4 0x2F2FF15D EQ PUSH2 0x326 JUMPI DUP1 PUSH4 0x36568ABE EQ PUSH2 0x339 JUMPI DUP1 PUSH4 0x39F898BC EQ PUSH2 0x34C JUMPI PUSH1 0x0 DUP1 REVERT JUMPDEST DUP1 PUSH4 0xE1D1DA7 EQ PUSH2 0x2D5 JUMPI DUP1 PUSH4 0x248A9CA3 EQ PUSH2 0x2F5 JUMPI PUSH1 0x0 DUP1 REVERT JUMPDEST DUP1 PUSH4 0x1BAB168 EQ PUSH2 0x261 JUMPI DUP1 PUSH4 0x1FFC9A7 EQ PUSH2 0x28A JUMPI DUP1 PUSH4 0x21B0647 EQ PUSH2 0x2AD JUMPI DUP1 PUSH4 0x7AF4117 EQ PUSH2 0x2C2 JUMPI JUMPDEST PUSH1 0x0 DUP1 REVERT JUMPDEST PUSH2 0x274 PUSH2 0x26F CALLDATASIZE PUSH1 0x4 PUSH2 0x3A5C JUMP JUMPDEST PUSH2 0x675 JUMP JUMPDEST PUSH1 0x40 MLOAD PUSH2 0x281 SWAP2 SWAP1 PUSH2 0x3AB9 JUMP JUMPDEST PUSH1 0x40 MLOAD DUP1 SWAP2 SUB SWAP1 RETURN JUMPDEST PUSH2 0x29D PUSH2 0x298 CALLDATASIZE PUSH1 0x4 PUSH2 0x3B39 JUMP JUMPDEST PUSH2 0x76B JUMP JUMPDEST PUSH1 0x40 MLOAD SWAP1 ISZERO ISZERO DUP2 MSTORE PUSH1 0x20 ADD PUSH2 0x281 JUMP JUMPDEST PUSH2 0x2C0 PUSH2 0x2BB CALLDATASIZE PUSH1 0x4 PUSH2 0x3B7B JUMP JUMPDEST PUSH2 0x80D JUMP JUMPDEST STOP JUMPDEST PUSH2 0x2C0 PUSH2 0x2D0 CALLDATASIZE PUSH1 0x4 PUSH2 0x3B7B JUMP JUMPDEST PUSH2 0x8AC JUMP JUMPDEST PUSH2 0x2E8 PUSH2 0x2E3 CALLDATASIZE PUSH1 0x4 PUSH2 0x3B7B JUMP JUMPDEST PUSH2 0x937 JUMP JUMPDEST PUSH1 0x40 MLOAD PUSH2 0x281 SWAP2 SWAP1 PUSH2 0x3B94 JUMP JUMPDEST PUSH2 0x318 PUSH2 0x303 CALLDATASIZE PUSH1 0x4 PUSH2 0x3B7B JUMP JUMPDEST PUSH1 0x0 SWAP1 DUP2 MSTORE PUSH1 0x2 PUSH1 0x20 MSTORE PUSH1 0x40 SWAP1 KECCAK256 PUSH1 0x1 ADD SLOAD SWAP1 JUMP JUMPDEST PUSH1 0x40 MLOAD SWAP1 DUP2 MSTORE PUSH1 0x20 ADD PUSH2 0x281 JUMP JUMPDEST PUSH2 0x2C0 PUSH2 0x334 CALLDATASIZE PUSH1 0x4 PUSH2 0x3BD0 JUMP JUMPDEST PUSH2 0x9B7 JUMP JUMPDEST PUSH2 0x2C0 PUSH2 0x347 CALLDATASIZE PUSH1 0x4 PUSH2 0x3BD0 JUMP JUMPDEST PUSH2 0xB5A JUMP JUMPDEST PUSH2 0x318 PUSH1 0x1 SLOAD DUP2 JUMP JUMPDEST PUSH2 0x2C0 PUSH2 0x363 CALLDATASIZE PUSH1 0x4 PUSH2 0x3BFC JUMP JUMPDEST PUSH2 0xC2A JUMP JUMPDEST PUSH2 0x29D PUSH2 0x376 CALLDATASIZE PUSH1 0x4 PUSH2 0x3BFC JUMP JUMPDEST PUSH1 0x0 SLOAD PUSH20 0xFFFFFFFFFFFFFFFFFFFFFFFFFFFFFFFFFFFFFFFF SWAP2 DUP3 AND SWAP2 AND EQ SWAP1 JUMP JUMPDEST PUSH2 0x2E8 PUSH2 0x3A5 CALLDATASIZE PUSH1 0x4 PUSH2 0x3A5C JUMP JUMPDEST PUSH2 0xC52 JUMP JUMPDEST PUSH2 0x3BD PUSH2 0x3B8 CALLDATASIZE PUSH1 0x4 PUSH2 0x3A5C JUMP JUMPDEST PUSH2 0xD26 JUMP JUMPDEST PUSH1 0x40 MLOAD PUSH2 0x281 SWAP2 SWAP1 PUSH2 0x3D27 JUMP JUMPDEST PUSH1 0x0 SLOAD PUSH2 0x3EA SWAP1 PUSH20 0xFFFFFFFFFFFFFFFFFFFFFFFFFFFFFFFFFFFFFFFF AND DUP2 JUMP JUMPDEST PUSH1 0x40 MLOAD PUSH20 0xFFFFFFFFFFFFFFFFFFFFFFFFFFFFFFFFFFFFFFFF SWAP1 SWAP2 AND DUP2 MSTORE PUSH1 0x20 ADD PUSH2 0x281 JUMP JUMPDEST PUSH2 0x422 PUSH2 0x41D CALLDATASIZE PUSH1 0x4 PUSH2 0x3D9A JUMP JUMPDEST PUSH2 0x10CE JUMP JUMPDEST PUSH1 0x40 MLOAD PUSH2 0x281 SWAP2 SWAP1 PUSH2 0x3E1F JUMP JUMPDEST PUSH2 0x274 PUSH2 0x122F JUMP JUMPDEST PUSH2 0x2C0 PUSH2 0x445 CALLDATASIZE PUSH1 0x4 PUSH2 0x3B7B JUMP JUMPDEST PUSH2 0x12DF JUMP JUMPDEST PUSH2 0x2C0 PUSH2 0x458 CALLDATASIZE PUSH1 0x4 PUSH2 0x3A5C JUMP JUMPDEST PUSH2 0x16EE JUMP JUMPDEST PUSH2 0x318 PUSH2 0x170C JUMP JUMPDEST PUSH2 0x2C0 PUSH2 0x473 CALLDATASIZE PUSH1 0x4 PUSH2 0x3EA3 JUMP JUMPDEST PUSH2 0x171D JUMP JUMPDEST PUSH2 0x29D PUSH2 0x486 CALLDATASIZE PUSH1 0x4 PUSH2 0x3BD0 JUMP JUMPDEST PUSH1 0x0 SWAP2 DUP3 MSTORE PUSH1 0x2 PUSH1 0x20 SWAP1 DUP2 MSTORE PUSH1 0x40 DUP1 DUP5 KECCAK256 PUSH20 0xFFFFFFFFFFFFFFFFFFFFFFFFFFFFFFFFFFFFFFFF SWAP4 SWAP1 SWAP4 AND DUP5 MSTORE SWAP2 SWAP1 MSTORE SWAP1 KECCAK256 SLOAD PUSH1 0xFF AND SWAP1 JUMP JUMPDEST PUSH2 0x4D1 PUSH2 0x4CC CALLDATASIZE PUSH1 0x4 PUSH2 0x3B7B JUMP JUMPDEST PUSH2 0x1D1F JUMP JUMPDEST PUSH1 0x40 MLOAD PUSH2 0x281 SWAP2 SWAP1 PUSH2 0x3F87 JUMP JUMPDEST PUSH2 0x318 PUSH1 0x8 SLOAD DUP2 JUMP JUMPDEST PUSH2 0x4FA PUSH2 0x4F5 CALLDATASIZE PUSH1 0x4 PUSH2 0x3F9A JUMP JUMPDEST PUSH2 0x2084 JUMP JUMPDEST PUSH1 0x40 MLOAD PUSH2 0x281 SWAP2 SWAP1 PUSH2 0x3FCD JUMP JUMPDEST PUSH2 0x318 PUSH1 0x0 DUP2 JUMP JUMPDEST PUSH2 0x2C0 PUSH2 0x51D CALLDATASIZE PUSH1 0x4 PUSH2 0x3BFC JUMP JUMPDEST PUSH2 0x22AF JUMP JUMPDEST PUSH2 0x318 PUSH2 0x530 CALLDATASIZE PUSH1 0x4 PUSH2 0x3D9A JUMP JUMPDEST PUSH2 0x231D JUMP JUMPDEST PUSH2 0x422 PUSH2 0x543 CALLDATASIZE PUSH1 0x4 PUSH2 0x3FE0 JUMP JUMPDEST PUSH2 0x23F3 JUMP JUMPDEST PUSH2 0x580 PUSH2 0x556 CALLDATASIZE PUSH1 0x4 PUSH2 0x41A5 JUMP JUMPDEST PUSH32 0xBC197C8100000000000000000000000000000000000000000000000000000000 SWAP6 SWAP5 POP POP POP POP POP JUMP JUMPDEST PUSH1 0x40 MLOAD PUSH32 0xFFFFFFFF00000000000000000000000000000000000000000000000000000000 SWAP1 SWAP2 AND DUP2 MSTORE PUSH1 0x20 ADD PUSH2 0x281 JUMP JUMPDEST PUSH2 0x2C0 PUSH2 0x5BF CALLDATASIZE PUSH1 0x4 PUSH2 0x3BD0 JUMP JUMPDEST PUSH2 0x268B JUMP JUMPDEST PUSH2 0x3BD PUSH2 0x26B5 JUMP JUMPDEST PUSH2 0x2C0 PUSH2 0x5DA CALLDATASIZE PUSH1 0x4 PUSH2 0x3B7B JUMP JUMPDEST PUSH2 0x2A25 JUMP JUMPDEST PUSH2 0x318 PUSH2 0x5ED CALLDATASIZE PUSH1 0x4 PUSH2 0x3B7B JUMP JUMPDEST PUSH2 0x2AA0 JUMP JUMPDEST PUSH2 0x2E8 PUSH2 0x2B1F JUMP JUMPDEST PUSH2 0x580 PUSH2 0x608 CALLDATASIZE PUSH1 0x4 PUSH2 0x424F JUMP JUMPDEST PUSH32 0xF23A6E6100000000000000000000000000000000000000000000000000000000 SWAP6 SWAP5 POP POP POP POP POP JUMP JUMPDEST PUSH2 0x318 PUSH2 0x640 CALLDATASIZE PUSH1 0x4 PUSH2 0x3D9A JUMP JUMPDEST PUSH20 0xFFFFFFFFFFFFFFFFFFFFFFFFFFFFFFFFFFFFFFFF SWAP2 SWAP1 SWAP2 AND PUSH1 0x0 SWAP1 DUP2 MSTORE PUSH1 0x7 PUSH1 0x20 SWAP1 DUP2 MSTORE PUSH1 0x40 DUP1 DUP4 KECCAK256 SWAP4 DUP4 MSTORE SWAP3 SWAP1 MSTORE KECCAK256 SLOAD SWAP1 JUMP JUMPDEST PUSH1 0x60 PUSH1 0x0 PUSH2 0x683 PUSH1 0x4 PUSH2 0x2B7F JUMP JUMPDEST DUP5 LT PUSH2 0x690 JUMPI PUSH1 0x0 PUSH2 0x6A5 JUMP JUMPDEST DUP4 PUSH2 0x69B PUSH1 0x4 PUSH2 0x2B7F JUMP JUMPDEST PUSH2 0x6A5 SWAP2 SWAP1 PUSH2 0x42E3 JUMP JUMPDEST SWAP1 POP PUSH1 0x0 DUP4 DUP3 GT ISZERO PUSH2 0x6B7 JUMPI DUP4 PUSH2 0x6B9 JUMP JUMPDEST DUP2 JUMPDEST SWAP1 POP PUSH1 0x0 DUP2 PUSH8 0xFFFFFFFFFFFFFFFF DUP2 GT ISZERO PUSH2 0x6D6 JUMPI PUSH2 0x6D6 PUSH2 0x4019 JUMP JUMPDEST PUSH1 0x40 MLOAD SWAP1 DUP1 DUP3 MSTORE DUP1 PUSH1 0x20 MUL PUSH1 0x20 ADD DUP3 ADD PUSH1 0x40 MSTORE DUP1 ISZERO PUSH2 0x709 JUMPI DUP2 PUSH1 0x20 ADD JUMPDEST PUSH1 0x60 DUP2 MSTORE PUSH1 0x20 ADD SWAP1 PUSH1 0x1 SWAP1 SUB SWAP1 DUP2 PUSH2 0x6F4 JUMPI SWAP1 POP JUMPDEST POP SWAP1 POP PUSH1 0x0 JUMPDEST DUP3 DUP2 LT ISZERO PUSH2 0x75F JUMPI PUSH2 0x72F PUSH2 0x2E3 PUSH2 0x727 DUP4 DUP11 PUSH2 0x42F6 JUMP JUMPDEST PUSH1 0x4 SWAP1 PUSH2 0x2B89 JUMP JUMPDEST DUP3 DUP3 DUP2 MLOAD DUP2 LT PUSH2 0x741 JUMPI PUSH2 0x741 PUSH2 0x4309 JUMP JUMPDEST PUSH1 0x20 MUL PUSH1 0x20 ADD ADD DUP2 SWAP1 MSTORE POP DUP1 DUP1 PUSH2 0x757 SWAP1 PUSH2 0x4338 JUMP JUMPDEST SWAP2 POP POP PUSH2 0x70F JUMP JUMPDEST POP SWAP3 POP POP POP JUMPDEST SWAP3 SWAP2 POP POP JUMP JUMPDEST PUSH1 0x0 PUSH32 0xFFFFFFFF00000000000000000000000000000000000000000000000000000000 DUP3 AND PUSH32 0x20FA61BE00000000000000000000000000000000000000000000000000000000 EQ DUP1 PUSH2 0x7FE JUMPI POP PUSH32 0xFFFFFFFF00000000000000000000000000000000000000000000000000000000 DUP3 AND PUSH32 0x4E2312E000000000000000000000000000000000000000000000000000000000 EQ JUMPDEST DUP1 PUSH2 0x765 JUMPI POP PUSH2 0x765 DUP3 PUSH2 0x2B9C JUMP JUMPDEST PUSH32 0x5B618AB2FEE761C09BF71319707CEFA62ECCC93DCC483744898E6C3ACF452643 PUSH2 0x837 DUP2 PUSH2 0x2BF2 JUMP JUMPDEST PUSH1 0x0 DUP3 GT PUSH2 0x8A6 JUMPI PUSH1 0x40 MLOAD PUSH32 0x8C379A000000000000000000000000000000000000000000000000000000000 DUP2 MSTORE PUSH1 0x20 PUSH1 0x4 DUP3 ADD MSTORE PUSH1 0x12 PUSH1 0x24 DUP3 ADD MSTORE PUSH32 0x4F66667365742063616E6E6F7420626520300000000000000000000000000000 PUSH1 0x44 DUP3 ADD MSTORE PUSH1 0x64 ADD JUMPDEST PUSH1 0x40 MLOAD DUP1 SWAP2 SUB SWAP1 REVERT JUMPDEST POP PUSH1 0x8 SSTORE JUMP JUMPDEST PUSH32 0x5B618AB2FEE761C09BF71319707CEFA62ECCC93DCC483744898E6C3ACF452643 PUSH2 0x8D6 DUP2 PUSH2 0x2BF2 JUMP JUMPDEST PUSH2 0x8E1 PUSH1 0x4 DUP4 PUSH2 0x2C03 JUMP JUMPDEST POP PUSH1 0x0 DUP3 DUP2 MSTORE PUSH1 0x6 PUSH1 0x20 MSTORE PUSH1 0x40 SWAP1 DUP2 SWAP1 KECCAK256 SWAP1 MLOAD DUP4 SWAP1 PUSH32 0x864136C4EBCA2D8889222BC6E0378756C87AA96DBAC4E5645772CF08D4112EE SWAP1 PUSH2 0x923 SWAP1 DUP5 SWAP1 PUSH2 0x44CF JUMP JUMPDEST PUSH1 0x40 MLOAD DUP1 SWAP2 SUB SWAP1 LOG2 PUSH1 0x0 PUSH1 0xA SWAP1 SWAP2 ADD SSTORE POP POP JUMP JUMPDEST PUSH1 0x40 DUP1 MLOAD PUSH1 0x2 DUP1 DUP3 MSTORE PUSH1 0x60 DUP1 DUP4 ADD DUP5 MSTORE SWAP3 PUSH1 0x0 SWAP3 SWAP2 SWAP1 PUSH1 0x20 DUP4 ADD SWAP1 DUP1 CALLDATASIZE DUP4 CALLDATACOPY ADD SWAP1 POP POP SWAP1 POP DUP3 DUP2 PUSH1 0x0 DUP2 MLOAD DUP2 LT PUSH2 0x970 JUMPI PUSH2 0x970 PUSH2 0x4309 JUMP JUMPDEST PUSH1 0x20 MUL PUSH1 0x20 ADD ADD DUP2 DUP2 MSTORE POP POP PUSH1 0x6 PUSH1 0x0 DUP5 DUP2 MSTORE PUSH1 0x20 ADD SWAP1 DUP2 MSTORE PUSH1 0x20 ADD PUSH1 0x0 KECCAK256 PUSH1 0xB ADD SLOAD DUP2 PUSH1 0x1 DUP2 MLOAD DUP2 LT PUSH2 0x9A6 JUMPI PUSH2 0x9A6 PUSH2 0x4309 JUMP JUMPDEST PUSH1 0x20 SWAP1 DUP2 MUL SWAP2 SWAP1 SWAP2 ADD ADD MSTORE SWAP3 SWAP2 POP POP JUMP JUMPDEST PUSH1 0x0 PUSH2 0x9C5 DUP2 PUSH2 0x486 PUSH2 0x2C0F JUMP JUMPDEST SWAP1 POP PUSH1 0x0 PUSH2 0x9F5 PUSH32 0x5B618AB2FEE761C09BF71319707CEFA62ECCC93DCC483744898E6C3ACF452643 PUSH2 0x486 PUSH2 0x2C0F JUMP JUMPDEST SWAP1 POP DUP2 DUP1 PUSH2 0xA00 JUMPI POP DUP1 JUMPDEST PUSH2 0xA8C JUMPI PUSH1 0x40 MLOAD PUSH32 0x8C379A000000000000000000000000000000000000000000000000000000000 DUP2 MSTORE PUSH1 0x20 PUSH1 0x4 DUP3 ADD MSTORE PUSH1 0x2D PUSH1 0x24 DUP3 ADD MSTORE PUSH32 0x526F6C65206772616E74696E672072657175697265732061646D696E206F7220 PUSH1 0x44 DUP3 ADD MSTORE PUSH32 0x6D616E6167657220726F6C652E00000000000000000000000000000000000000 PUSH1 0x64 DUP3 ADD MSTORE PUSH1 0x84 ADD PUSH2 0x89D JUMP JUMPDEST DUP4 ISZERO DUP1 PUSH2 0xAB8 JUMPI POP PUSH32 0x5B618AB2FEE761C09BF71319707CEFA62ECCC93DCC483744898E6C3ACF452643 DUP5 EQ JUMPDEST ISZERO PUSH2 0xB4A JUMPI DUP2 PUSH2 0xB4A JUMPI PUSH1 0x40 MLOAD PUSH32 0x8C379A000000000000000000000000000000000000000000000000000000000 DUP2 MSTORE PUSH1 0x20 PUSH1 0x4 DUP3 ADD MSTORE PUSH1 0x2B PUSH1 0x24 DUP3 ADD MSTORE PUSH32 0x4F6E6C792061646D696E2063616E206772616E742061646D696E206F72206D61 PUSH1 0x44 DUP3 ADD MSTORE PUSH32 0x6E6167657220726F6C652E000000000000000000000000000000000000000000 PUSH1 0x64 DUP3 ADD MSTORE PUSH1 0x84 ADD PUSH2 0x89D JUMP JUMPDEST PUSH2 0xB54 DUP5 DUP5 PUSH2 0x2C19 JUMP JUMPDEST POP POP POP POP JUMP JUMPDEST PUSH2 0xB62 PUSH2 0x2C0F JUMP JUMPDEST PUSH20 0xFFFFFFFFFFFFFFFFFFFFFFFFFFFFFFFFFFFFFFFF AND DUP2 PUSH20 0xFFFFFFFFFFFFFFFFFFFFFFFFFFFFFFFFFFFFFFFF AND EQ PUSH2 0xC1C JUMPI PUSH1 0x40 MLOAD PUSH32 0x8C379A000000000000000000000000000000000000000000000000000000000 DUP2 MSTORE PUSH1 0x20 PUSH1 0x4 DUP3 ADD MSTORE PUSH1 0x2F PUSH1 0x24 DUP3 ADD MSTORE PUSH32 0x416363657373436F6E74726F6C3A2063616E206F6E6C792072656E6F756E6365 PUSH1 0x44 DUP3 ADD MSTORE PUSH32 0x20726F6C657320666F722073656C660000000000000000000000000000000000 PUSH1 0x64 DUP3 ADD MSTORE PUSH1 0x84 ADD PUSH2 0x89D JUMP JUMPDEST PUSH2 0xC26 DUP3 DUP3 PUSH2 0x2D0E JUMP JUMPDEST POP POP JUMP JUMPDEST PUSH1 0x0 PUSH2 0xC35 DUP2 PUSH2 0x2BF2 JUMP JUMPDEST PUSH2 0xC40 PUSH1 0x0 DUP4 PUSH2 0x2C19 JUMP JUMPDEST PUSH2 0xC26 PUSH1 0x0 PUSH2 0xC4D PUSH2 0x2C0F JUMP JUMPDEST PUSH2 0x2D0E JUMP JUMPDEST PUSH1 0x60 PUSH1 0x0 PUSH2 0xC60 PUSH1 0x4 PUSH2 0x2B7F JUMP JUMPDEST DUP5 LT PUSH2 0xC6D JUMPI PUSH1 0x0 PUSH2 0xC82 JUMP JUMPDEST DUP4 PUSH2 0xC78 PUSH1 0x4 PUSH2 0x2B7F JUMP JUMPDEST PUSH2 0xC82 SWAP2 SWAP1 PUSH2 0x42E3 JUMP JUMPDEST SWAP1 POP PUSH1 0x0 DUP4 DUP3 GT ISZERO PUSH2 0xC94 JUMPI DUP4 PUSH2 0xC96 JUMP JUMPDEST DUP2 JUMPDEST SWAP1 POP PUSH1 0x0 DUP2 PUSH8 0xFFFFFFFFFFFFFFFF DUP2 GT ISZERO PUSH2 0xCB3 JUMPI PUSH2 0xCB3 PUSH2 0x4019 JUMP JUMPDEST PUSH1 0x40 MLOAD SWAP1 DUP1 DUP3 MSTORE DUP1 PUSH1 0x20 MUL PUSH1 0x20 ADD DUP3 ADD PUSH1 0x40 MSTORE DUP1 ISZERO PUSH2 0xCDC JUMPI DUP2 PUSH1 0x20 ADD PUSH1 0x20 DUP3 MUL DUP1 CALLDATASIZE DUP4 CALLDATACOPY ADD SWAP1 POP JUMPDEST POP SWAP1 POP PUSH1 0x0 JUMPDEST DUP3 DUP2 LT ISZERO PUSH2 0x75F JUMPI PUSH2 0xCF7 PUSH2 0x727 DUP3 DUP10 PUSH2 0x42F6 JUMP JUMPDEST DUP3 DUP3 DUP2 MLOAD DUP2 LT PUSH2 0xD09 JUMPI PUSH2 0xD09 PUSH2 0x4309 JUMP JUMPDEST PUSH1 0x20 SWAP1 DUP2 MUL SWAP2 SWAP1 SWAP2 ADD ADD MSTORE DUP1 PUSH2 0xD1E DUP2 PUSH2 0x4338 JUMP JUMPDEST SWAP2 POP POP PUSH2 0xCE2 JUMP JUMPDEST PUSH1 0x60 PUSH1 0x0 PUSH2 0xD34 PUSH1 0x4 PUSH2 0x2B7F JUMP JUMPDEST DUP5 LT PUSH2 0xD41 JUMPI PUSH1 0x0 PUSH2 0xD56 JUMP JUMPDEST DUP4 PUSH2 0xD4C PUSH1 0x4 PUSH2 0x2B7F JUMP JUMPDEST PUSH2 0xD56 SWAP2 SWAP1 PUSH2 0x42E3 JUMP JUMPDEST SWAP1 POP PUSH1 0x0 DUP4 DUP3 GT ISZERO PUSH2 0xD68 JUMPI DUP4 PUSH2 0xD6A JUMP JUMPDEST DUP2 JUMPDEST SWAP1 POP PUSH1 0x0 DUP2 PUSH8 0xFFFFFFFFFFFFFFFF DUP2 GT ISZERO PUSH2 0xD87 JUMPI PUSH2 0xD87 PUSH2 0x4019 JUMP JUMPDEST PUSH1 0x40 MLOAD SWAP1 DUP1 DUP3 MSTORE DUP1 PUSH1 0x20 MUL PUSH1 0x20 ADD DUP3 ADD PUSH1 0x40 MSTORE DUP1 ISZERO PUSH2 0xE48 JUMPI DUP2 PUSH1 0x20 ADD JUMPDEST PUSH2 0xE35 PUSH1 0x40 MLOAD DUP1 PUSH2 0x180 ADD PUSH1 0x40 MSTORE DUP1 PUSH1 0x0 DUP2 MSTORE PUSH1 0x20 ADD PUSH1 0x0 PUSH20 0xFFFFFFFFFFFFFFFFFFFFFFFFFFFFFFFFFFFFFFFF AND DUP2 MSTORE PUSH1 0x20 ADD PUSH1 0x60 DUP2 MSTORE PUSH1 0x20 ADD PUSH1 0x60 DUP2 MSTORE PUSH1 0x20 ADD PUSH1 0x0 PUSH20 0xFFFFFFFFFFFFFFFFFFFFFFFFFFFFFFFFFFFFFFFF AND DUP2 MSTORE PUSH1 0x20 ADD PUSH1 0x60 DUP2 MSTORE PUSH1 0x20 ADD PUSH1 0x60 DUP2 MSTORE PUSH1 0x20 ADD PUSH1 0x60 DUP2 MSTORE PUSH1 0x20 ADD PUSH1 0x0 DUP2 MSTORE PUSH1 0x20 ADD PUSH1 0x0 DUP2 MSTORE PUSH1 0x20 ADD PUSH1 0x0 DUP2 MSTORE PUSH1 0x20 ADD PUSH1 0x0 DUP2 MSTORE POP SWAP1 JUMP JUMPDEST DUP2 MSTORE PUSH1 0x20 ADD SWAP1 PUSH1 0x1 SWAP1 SUB SWAP1 DUP2 PUSH2 0xDA5 JUMPI SWAP1 POP JUMPDEST POP SWAP1 POP PUSH1 0x0 JUMPDEST DUP3 DUP2 LT ISZERO PUSH2 0x75F JUMPI PUSH1 0x6 PUSH1 0x0 PUSH2 0xE67 PUSH2 0x727 DUP5 DUP12 PUSH2 0x42F6 JUMP JUMPDEST DUP2 MSTORE PUSH1 0x20 DUP1 DUP3 ADD SWAP3 SWAP1 SWAP3 MSTORE PUSH1 0x40 SWAP1 DUP2 ADD PUSH1 0x0 KECCAK256 DUP2 MLOAD PUSH2 0x180 DUP2 ADD DUP4 MSTORE DUP2 SLOAD DUP2 MSTORE PUSH1 0x1 DUP3 ADD SLOAD PUSH20 0xFFFFFFFFFFFFFFFFFFFFFFFFFFFFFFFFFFFFFFFF AND DUP2 DUP6 ADD MSTORE PUSH1 0x2 DUP3 ADD DUP1 SLOAD DUP5 MLOAD DUP2 DUP8 MUL DUP2 ADD DUP8 ADD DUP7 MSTORE DUP2 DUP2 MSTORE SWAP3 SWAP6 SWAP4 SWAP5 DUP7 ADD SWAP4 DUP4 ADD DUP3 DUP3 DUP1 ISZERO PUSH2 0xEF0 JUMPI PUSH1 0x20 MUL DUP3 ADD SWAP2 SWAP1 PUSH1 0x0 MSTORE PUSH1 0x20 PUSH1 0x0 KECCAK256 SWAP1 JUMPDEST DUP2 SLOAD DUP2 MSTORE PUSH1 0x20 ADD SWAP1 PUSH1 0x1 ADD SWAP1 DUP1 DUP4 GT PUSH2 0xEDC JUMPI JUMPDEST POP POP POP POP POP DUP2 MSTORE PUSH1 0x20 ADD PUSH1 0x3 DUP3 ADD DUP1 SLOAD DUP1 PUSH1 0x20 MUL PUSH1 0x20 ADD PUSH1 0x40 MLOAD SWAP1 DUP2 ADD PUSH1 0x40 MSTORE DUP1 SWAP3 SWAP2 SWAP1 DUP2 DUP2 MSTORE PUSH1 0x20 ADD DUP3 DUP1 SLOAD DUP1 ISZERO PUSH2 0xF48 JUMPI PUSH1 0x20 MUL DUP3 ADD SWAP2 SWAP1 PUSH1 0x0 MSTORE PUSH1 0x20 PUSH1 0x0 KECCAK256 SWAP1 JUMPDEST DUP2 SLOAD DUP2 MSTORE PUSH1 0x20 ADD SWAP1 PUSH1 0x1 ADD SWAP1 DUP1 DUP4 GT PUSH2 0xF34 JUMPI JUMPDEST POP POP POP SWAP2 DUP4 MSTORE POP POP PUSH1 0x4 DUP3 ADD SLOAD PUSH20 0xFFFFFFFFFFFFFFFFFFFFFFFFFFFFFFFFFFFFFFFF AND PUSH1 0x20 DUP1 DUP4 ADD SWAP2 SWAP1 SWAP2 MSTORE PUSH1 0x5 DUP4 ADD DUP1 SLOAD PUSH1 0x40 DUP1 MLOAD DUP3 DUP6 MUL DUP2 ADD DUP6 ADD DUP3 MSTORE DUP3 DUP2 MSTORE SWAP5 ADD SWAP4 SWAP3 DUP4 ADD DUP3 DUP3 DUP1 ISZERO PUSH2 0xFBD JUMPI PUSH1 0x20 MUL DUP3 ADD SWAP2 SWAP1 PUSH1 0x0 MSTORE PUSH1 0x20 PUSH1 0x0 KECCAK256 SWAP1 JUMPDEST DUP2 SLOAD DUP2 MSTORE PUSH1 0x20 ADD SWAP1 PUSH1 0x1 ADD SWAP1 DUP1 DUP4 GT PUSH2 0xFA9 JUMPI JUMPDEST POP POP POP POP POP DUP2 MSTORE PUSH1 0x20 ADD PUSH1 0x6 DUP3 ADD DUP1 SLOAD DUP1 PUSH1 0x20 MUL PUSH1 0x20 ADD PUSH1 0x40 MLOAD SWAP1 DUP2 ADD PUSH1 0x40 MSTORE DUP1 SWAP3 SWAP2 SWAP1 DUP2 DUP2 MSTORE PUSH1 0x20 ADD DUP3 DUP1 SLOAD DUP1 ISZERO PUSH2 0x1015 JUMPI PUSH1 0x20 MUL DUP3 ADD SWAP2 SWAP1 PUSH1 0x0 MSTORE PUSH1 0x20 PUSH1 0x0 KECCAK256 SWAP1 JUMPDEST DUP2 SLOAD DUP2 MSTORE PUSH1 0x20 ADD SWAP1 PUSH1 0x1 ADD SWAP1 DUP1 DUP4 GT PUSH2 0x1001 JUMPI JUMPDEST POP POP POP POP POP DUP2 MSTORE PUSH1 0x20 ADD PUSH1 0x7 DUP3 ADD DUP1 SLOAD DUP1 PUSH1 0x20 MUL PUSH1 0x20 ADD PUSH1 0x40 MLOAD SWAP1 DUP2 ADD PUSH1 0x40 MSTORE DUP1 SWAP3 SWAP2 SWAP1 DUP2 DUP2 MSTORE PUSH1 0x20 ADD DUP3 DUP1 SLOAD DUP1 ISZERO PUSH2 0x106D JUMPI PUSH1 0x20 MUL DUP3 ADD SWAP2 SWAP1 PUSH1 0x0 MSTORE PUSH1 0x20 PUSH1 0x0 KECCAK256 SWAP1 JUMPDEST DUP2 SLOAD DUP2 MSTORE PUSH1 0x20 ADD SWAP1 PUSH1 0x1 ADD SWAP1 DUP1 DUP4 GT PUSH2 0x1059 JUMPI JUMPDEST POP POP POP POP POP DUP2 MSTORE PUSH1 0x20 ADD PUSH1 0x8 DUP3 ADD SLOAD DUP2 MSTORE PUSH1 0x20 ADD PUSH1 0x9 DUP3 ADD SLOAD DUP2 MSTORE PUSH1 0x20 ADD PUSH1 0xA DUP3 ADD SLOAD DUP2 MSTORE PUSH1 0x20 ADD PUSH1 0xB DUP3 ADD SLOAD DUP2 MSTORE POP POP DUP3 DUP3 DUP2 MLOAD DUP2 LT PUSH2 0x10B0 JUMPI PUSH2 0x10B0 PUSH2 0x4309 JUMP JUMPDEST PUSH1 0x20 MUL PUSH1 0x20 ADD ADD DUP2 SWAP1 MSTORE POP DUP1 DUP1 PUSH2 0x10C6 SWAP1 PUSH2 0x4338 JUMP JUMPDEST SWAP2 POP POP PUSH2 0xE4E JUMP JUMPDEST PUSH20 0xFFFFFFFFFFFFFFFFFFFFFFFFFFFFFFFFFFFFFFFF DUP3 AND PUSH1 0x0 SWAP1 DUP2 MSTORE PUSH1 0x7 PUSH1 0x20 SWAP1 DUP2 MSTORE PUSH1 0x40 DUP1 DUP4 KECCAK256 DUP5 DUP5 MSTORE DUP3 MSTORE DUP1 DUP4 KECCAK256 DUP1 SLOAD DUP3 MLOAD DUP2 DUP6 MUL DUP2 ADD DUP6 ADD SWAP1 SWAP4 MSTORE DUP1 DUP4 MSTORE PUSH1 0x60 SWAP5 SWAP3 SWAP4 SWAP2 SWAP3 SWAP1 SWAP2 DUP5 ADD JUMPDEST DUP3 DUP3 LT ISZERO PUSH2 0x1223 JUMPI DUP4 DUP3 SWAP1 PUSH1 0x0 MSTORE PUSH1 0x20 PUSH1 0x0 KECCAK256 SWAP1 PUSH1 0x5 MUL ADD PUSH1 0x40 MLOAD DUP1 PUSH1 0xA0 ADD PUSH1 0x40 MSTORE SWAP1 DUP2 PUSH1 0x0 DUP3 ADD SLOAD DUP2 MSTORE PUSH1 0x20 ADD PUSH1 0x1 DUP3 ADD SLOAD DUP2 MSTORE PUSH1 0x20 ADD PUSH1 0x2 DUP3 ADD DUP1 SLOAD DUP1 PUSH1 0x20 MUL PUSH1 0x20 ADD PUSH1 0x40 MLOAD SWAP1 DUP2 ADD PUSH1 0x40 MSTORE DUP1 SWAP3 SWAP2 SWAP1 DUP2 DUP2 MSTORE PUSH1 0x20 ADD DUP3 DUP1 SLOAD DUP1 ISZERO PUSH2 0x11A1 JUMPI PUSH1 0x20 MUL DUP3 ADD SWAP2 SWAP1 PUSH1 0x0 MSTORE PUSH1 0x20 PUSH1 0x0 KECCAK256 SWAP1 JUMPDEST DUP2 SLOAD DUP2 MSTORE PUSH1 0x20 ADD SWAP1 PUSH1 0x1 ADD SWAP1 DUP1 DUP4 GT PUSH2 0x118D JUMPI JUMPDEST POP POP POP POP POP DUP2 MSTORE PUSH1 0x20 ADD PUSH1 0x3 DUP3 ADD DUP1 SLOAD DUP1 PUSH1 0x20 MUL PUSH1 0x20 ADD PUSH1 0x40 MLOAD SWAP1 DUP2 ADD PUSH1 0x40 MSTORE DUP1 SWAP3 SWAP2 SWAP1 DUP2 DUP2 MSTORE PUSH1 0x20 ADD DUP3 DUP1 SLOAD DUP1 ISZERO PUSH2 0x11F9 JUMPI PUSH1 0x20 MUL DUP3 ADD SWAP2 SWAP1 PUSH1 0x0 MSTORE PUSH1 0x20 PUSH1 0x0 KECCAK256 SWAP1 JUMPDEST DUP2 SLOAD DUP2 MSTORE PUSH1 0x20 ADD SWAP1 PUSH1 0x1 ADD SWAP1 DUP1 DUP4 GT PUSH2 0x11E5 JUMPI JUMPDEST POP POP POP SWAP2 DUP4 MSTORE POP POP PUSH1 0x4 SWAP2 SWAP1 SWAP2 ADD SLOAD PUSH1 0xFF AND ISZERO ISZERO PUSH1 0x20 SWAP2 DUP3 ADD MSTORE SWAP1 DUP3 MSTORE PUSH1 0x1 SWAP3 SWAP1 SWAP3 ADD SWAP2 ADD PUSH2 0x111B JUMP JUMPDEST POP POP POP POP SWAP1 POP SWAP3 SWAP2 POP POP JUMP JUMPDEST PUSH1 0x60 PUSH1 0x0 PUSH2 0x123B PUSH2 0x170C JUMP JUMPDEST PUSH8 0xFFFFFFFFFFFFFFFF DUP2 GT ISZERO PUSH2 0x1253 JUMPI PUSH2 0x1253 PUSH2 0x4019 JUMP JUMPDEST PUSH1 0x40 MLOAD SWAP1 DUP1 DUP3 MSTORE DUP1 PUSH1 0x20 MUL PUSH1 0x20 ADD DUP3 ADD PUSH1 0x40 MSTORE DUP1 ISZERO PUSH2 0x1286 JUMPI DUP2 PUSH1 0x20 ADD JUMPDEST PUSH1 0x60 DUP2 MSTORE PUSH1 0x20 ADD SWAP1 PUSH1 0x1 SWAP1 SUB SWAP1 DUP2 PUSH2 0x1271 JUMPI SWAP1 POP JUMPDEST POP SWAP1 POP PUSH1 0x0 JUMPDEST PUSH2 0x1294 PUSH2 0x170C JUMP JUMPDEST DUP2 LT ISZERO PUSH2 0x12D9 JUMPI PUSH2 0x12A9 PUSH2 0x2E3 PUSH1 0x4 DUP4 PUSH2 0x2B89 JUMP JUMPDEST DUP3 DUP3 DUP2 MLOAD DUP2 LT PUSH2 0x12BB JUMPI PUSH2 0x12BB PUSH2 0x4309 JUMP JUMPDEST PUSH1 0x20 MUL PUSH1 0x20 ADD ADD DUP2 SWAP1 MSTORE POP DUP1 DUP1 PUSH2 0x12D1 SWAP1 PUSH2 0x4338 JUMP JUMPDEST SWAP2 POP POP PUSH2 0x128C JUMP JUMPDEST POP SWAP2 SWAP1 POP JUMP JUMPDEST PUSH2 0x12E7 PUSH2 0x2E01 JUMP JUMPDEST PUSH2 0x12F2 PUSH1 0x4 DUP3 PUSH2 0x2E74 JUMP JUMPDEST PUSH2 0x137E JUMPI PUSH1 0x40 MLOAD PUSH32 0x8C379A000000000000000000000000000000000000000000000000000000000 DUP2 MSTORE PUSH1 0x20 PUSH1 0x4 DUP3 ADD MSTORE PUSH1 0x2D PUSH1 0x24 DUP3 ADD MSTORE PUSH32 0x6C6F6F74626F78496420646F6573206E6F74206578697374206F722068617320 PUSH1 0x44 DUP3 ADD MSTORE PUSH32 0x6265656E2072656D6F7665642E00000000000000000000000000000000000000 PUSH1 0x64 DUP3 ADD MSTORE PUSH1 0x84 ADD PUSH2 0x89D JUMP JUMPDEST PUSH1 0x0 DUP2 DUP2 MSTORE PUSH1 0x6 PUSH1 0x20 MSTORE PUSH1 0x40 SWAP1 KECCAK256 PUSH1 0x1 DUP2 ADD SLOAD PUSH20 0xFFFFFFFFFFFFFFFFFFFFFFFFFFFFFFFFFFFFFFFF AND ISZERO PUSH2 0x156D JUMPI PUSH1 0x1 DUP2 ADD SLOAD PUSH1 0x40 MLOAD PUSH32 0x1FFC9A700000000000000000000000000000000000000000000000000000000 DUP2 MSTORE PUSH32 0xD2C80A6200000000000000000000000000000000000000000000000000000000 PUSH1 0x4 DUP3 ADD MSTORE PUSH20 0xFFFFFFFFFFFFFFFFFFFFFFFFFFFFFFFFFFFFFFFF SWAP1 SWAP2 AND SWAP1 PUSH4 0x1FFC9A7 SWAP1 PUSH1 0x24 ADD PUSH1 0x20 PUSH1 0x40 MLOAD DUP1 DUP4 SUB DUP2 DUP7 GAS STATICCALL ISZERO DUP1 ISZERO PUSH2 0x143C JUMPI RETURNDATASIZE PUSH1 0x0 DUP1 RETURNDATACOPY RETURNDATASIZE PUSH1 0x0 REVERT JUMPDEST POP POP POP POP PUSH1 0x40 MLOAD RETURNDATASIZE PUSH1 0x1F NOT PUSH1 0x1F DUP3 ADD AND DUP3 ADD DUP1 PUSH1 0x40 MSTORE POP DUP2 ADD SWAP1 PUSH2 0x1460 SWAP2 SWAP1 PUSH2 0x44E2 JUMP JUMPDEST ISZERO PUSH2 0x14EA JUMPI PUSH1 0x1 DUP2 ADD SLOAD PUSH20 0xFFFFFFFFFFFFFFFFFFFFFFFFFFFFFFFFFFFFFFFF AND PUSH4 0x4B7C78DC PUSH2 0x148D PUSH2 0x2C0F JUMP JUMPDEST DUP4 PUSH1 0x2 ADD DUP5 PUSH1 0x3 ADD PUSH1 0x40 MLOAD DUP5 PUSH4 0xFFFFFFFF AND PUSH1 0xE0 SHL DUP2 MSTORE PUSH1 0x4 ADD PUSH2 0x14B3 SWAP4 SWAP3 SWAP2 SWAP1 PUSH2 0x4504 JUMP JUMPDEST PUSH1 0x0 PUSH1 0x40 MLOAD DUP1 DUP4 SUB DUP2 PUSH1 0x0 DUP8 DUP1 EXTCODESIZE ISZERO DUP1 ISZERO PUSH2 0x14CD JUMPI PUSH1 0x0 DUP1 REVERT JUMPDEST POP GAS CALL ISZERO DUP1 ISZERO PUSH2 0x14E1 JUMPI RETURNDATASIZE PUSH1 0x0 DUP1 RETURNDATACOPY RETURNDATASIZE PUSH1 0x0 REVERT JUMPDEST POP POP POP POP PUSH2 0x156D JUMP JUMPDEST PUSH1 0x1 DUP2 ADD SLOAD PUSH20 0xFFFFFFFFFFFFFFFFFFFFFFFFFFFFFFFFFFFFFFFF AND PUSH4 0x2EB2C2D6 PUSH2 0x1512 PUSH2 0x2C0F JUMP JUMPDEST ADDRESS DUP5 PUSH1 0x2 ADD DUP6 PUSH1 0x3 ADD PUSH1 0x40 MLOAD DUP6 PUSH4 0xFFFFFFFF AND PUSH1 0xE0 SHL DUP2 MSTORE PUSH1 0x4 ADD PUSH2 0x153A SWAP5 SWAP4 SWAP3 SWAP2 SWAP1 PUSH2 0x454F JUMP JUMPDEST PUSH1 0x0 PUSH1 0x40 MLOAD DUP1 DUP4 SUB DUP2 PUSH1 0x0 DUP8 DUP1 EXTCODESIZE ISZERO DUP1 ISZERO PUSH2 0x1554 JUMPI PUSH1 0x0 DUP1 REVERT JUMPDEST POP GAS CALL ISZERO DUP1 ISZERO PUSH2 0x1568 JUMPI RETURNDATASIZE PUSH1 0x0 DUP1 RETURNDATACOPY RETURNDATASIZE PUSH1 0x0 REVERT JUMPDEST POP POP POP POP JUMPDEST PUSH2 0x15A1 PUSH1 0x40 MLOAD DUP1 PUSH1 0xA0 ADD PUSH1 0x40 MSTORE DUP1 PUSH1 0x0 DUP2 MSTORE PUSH1 0x20 ADD PUSH1 0x0 DUP2 MSTORE PUSH1 0x20 ADD PUSH1 0x60 DUP2 MSTORE PUSH1 0x20 ADD PUSH1 0x60 DUP2 MSTORE PUSH1 0x20 ADD PUSH1 0x0 ISZERO ISZERO DUP2 MSTORE POP SWAP1 JUMP JUMPDEST DUP3 DUP2 MSTORE PUSH1 0x8 SLOAD PUSH2 0x15B1 SWAP1 NUMBER PUSH2 0x42F6 JUMP JUMPDEST PUSH1 0x20 DUP3 ADD MSTORE PUSH1 0x7 PUSH1 0x0 PUSH2 0x15C2 PUSH2 0x2C0F JUMP JUMPDEST PUSH20 0xFFFFFFFFFFFFFFFFFFFFFFFFFFFFFFFFFFFFFFFF AND DUP2 MSTORE PUSH1 0x20 DUP1 DUP3 ADD SWAP3 SWAP1 SWAP3 MSTORE PUSH1 0x40 SWAP1 DUP2 ADD PUSH1 0x0 SWAP1 DUP2 KECCAK256 DUP7 DUP3 MSTORE DUP4 MSTORE DUP2 DUP2 KECCAK256 DUP1 SLOAD PUSH1 0x1 DUP2 DUP2 ADD DUP4 SSTORE SWAP2 DUP4 MSTORE SWAP2 DUP5 SWAP1 KECCAK256 DUP6 MLOAD PUSH1 0x5 SWAP1 SWAP4 MUL ADD SWAP2 DUP3 SSTORE DUP5 DUP5 ADD MLOAD SWAP1 DUP3 ADD SSTORE SWAP1 DUP4 ADD MLOAD DUP1 MLOAD DUP5 SWAP4 PUSH2 0x1631 SWAP3 PUSH1 0x2 DUP6 ADD SWAP3 SWAP2 ADD SWAP1 PUSH2 0x39FC JUMP JUMPDEST POP PUSH1 0x60 DUP3 ADD MLOAD DUP1 MLOAD PUSH2 0x164D SWAP2 PUSH1 0x3 DUP5 ADD SWAP2 PUSH1 0x20 SWAP1 SWAP2 ADD SWAP1 PUSH2 0x39FC JUMP JUMPDEST POP PUSH1 0x80 SWAP2 SWAP1 SWAP2 ADD MLOAD PUSH1 0x4 SWAP1 SWAP2 ADD DUP1 SLOAD PUSH32 0xFFFFFFFFFFFFFFFFFFFFFFFFFFFFFFFFFFFFFFFFFFFFFFFFFFFFFFFFFFFFFF00 AND SWAP2 ISZERO ISZERO SWAP2 SWAP1 SWAP2 OR SWAP1 SSTORE PUSH1 0xA DUP3 ADD DUP1 SLOAD SWAP1 PUSH1 0x0 PUSH2 0x1699 DUP4 PUSH2 0x4338 JUMP JUMPDEST SWAP2 SWAP1 POP SSTORE POP DUP3 PUSH32 0xCBE236CCB8BF2AE258FD54E73752D614C82AA6293D5256658CC3CE58DC4D4BF0 DUP4 PUSH2 0x16C9 PUSH2 0x2C0F JUMP JUMPDEST PUSH1 0x40 MLOAD PUSH2 0x16D7 SWAP3 SWAP2 SWAP1 PUSH2 0x45B7 JUMP JUMPDEST PUSH1 0x40 MLOAD DUP1 SWAP2 SUB SWAP1 LOG2 POP POP PUSH2 0x16EB PUSH1 0x1 PUSH1 0x3 SSTORE JUMP JUMPDEST POP JUMP JUMPDEST PUSH2 0x16F6 PUSH2 0x2E01 JUMP JUMPDEST PUSH2 0x1702 DUP3 DUP3 PUSH1 0x1 PUSH2 0x2E8C JUMP JUMPDEST PUSH2 0xC26 PUSH1 0x1 PUSH1 0x3 SSTORE JUMP JUMPDEST PUSH1 0x0 PUSH2 0x1718 PUSH1 0x4 PUSH2 0x2B7F JUMP JUMPDEST SWAP1 POP SWAP1 JUMP JUMPDEST PUSH32 0x5B618AB2FEE761C09BF71319707CEFA62ECCC93DCC483744898E6C3ACF452643 PUSH2 0x1747 DUP2 PUSH2 0x2BF2 JUMP JUMPDEST PUSH2 0x1751 DUP6 DUP1 PUSH2 0x45EF JUMP JUMPDEST SWAP1 POP PUSH2 0x175D DUP8 DUP1 PUSH2 0x45EF JUMP JUMPDEST SWAP1 POP EQ PUSH2 0x17EC JUMPI PUSH1 0x40 MLOAD PUSH32 0x8C379A000000000000000000000000000000000000000000000000000000000 DUP2 MSTORE PUSH1 0x20 PUSH1 0x4 DUP3 ADD MSTORE PUSH1 0x2D PUSH1 0x24 DUP3 ADD MSTORE PUSH32 0x4D69736D61746368656420696E707574206974656D2069647320616E6420616D PUSH1 0x44 DUP3 ADD MSTORE PUSH32 0x6F756E74206C656E677468732E00000000000000000000000000000000000000 PUSH1 0x64 DUP3 ADD MSTORE PUSH1 0x84 ADD PUSH2 0x89D JUMP JUMPDEST PUSH2 0x17F9 PUSH1 0x20 DUP7 ADD DUP7 PUSH2 0x45EF JUMP JUMPDEST SWAP1 POP PUSH2 0x1808 PUSH1 0x20 DUP9 ADD DUP9 PUSH2 0x45EF JUMP JUMPDEST SWAP1 POP EQ PUSH2 0x1897 JUMPI PUSH1 0x40 MLOAD PUSH32 0x8C379A000000000000000000000000000000000000000000000000000000000 DUP2 MSTORE PUSH1 0x20 PUSH1 0x4 DUP3 ADD MSTORE PUSH1 0x2D PUSH1 0x24 DUP3 ADD MSTORE PUSH32 0x4D69736D617463686564206F7574707574206974656D2069647320616E642061 PUSH1 0x44 DUP3 ADD MSTORE PUSH32 0x6D6F756E74206C656E6774682E00000000000000000000000000000000000000 PUSH1 0x64 DUP3 ADD MSTORE PUSH1 0x84 ADD PUSH2 0x89D JUMP JUMPDEST DUP3 PUSH2 0x18A5 PUSH1 0x20 DUP9 ADD DUP9 PUSH2 0x45EF JUMP JUMPDEST SWAP1 POP EQ PUSH2 0x1934 JUMPI PUSH1 0x40 MLOAD PUSH32 0x8C379A000000000000000000000000000000000000000000000000000000000 DUP2 MSTORE PUSH1 0x20 PUSH1 0x4 DUP3 ADD MSTORE PUSH1 0x31 PUSH1 0x24 DUP3 ADD MSTORE PUSH32 0x4D69736D61746368206F7574707574206974656D2069647320616E6420697465 PUSH1 0x44 DUP3 ADD MSTORE PUSH32 0x6D2077656967687473206C656E6774682E000000000000000000000000000000 PUSH1 0x64 DUP3 ADD MSTORE PUSH1 0x84 ADD PUSH2 0x89D JUMP JUMPDEST PUSH1 0x0 DUP1 JUMPDEST DUP5 DUP2 LT ISZERO PUSH2 0x1978 JUMPI DUP6 DUP6 DUP3 DUP2 DUP2 LT PUSH2 0x1952 JUMPI PUSH2 0x1952 PUSH2 0x4309 JUMP JUMPDEST SWAP1 POP PUSH1 0x20 MUL ADD CALLDATALOAD DUP3 PUSH2 0x1964 SWAP2 SWAP1 PUSH2 0x42F6 JUMP JUMPDEST SWAP2 POP DUP1 PUSH2 0x1970 DUP2 PUSH2 0x4338 JUMP JUMPDEST SWAP2 POP POP PUSH2 0x1938 JUMP JUMPDEST POP PUSH1 0x0 PUSH1 0x40 MLOAD DUP1 PUSH2 0x180 ADD PUSH1 0x40 MSTORE DUP1 DUP12 DUP2 MSTORE PUSH1 0x20 ADD DUP11 PUSH1 0x0 PUSH1 0x2 DUP2 LT PUSH2 0x19A0 JUMPI PUSH2 0x19A0 PUSH2 0x4309 JUMP JUMPDEST PUSH1 0x20 MUL ADD PUSH1 0x20 DUP2 ADD SWAP1 PUSH2 0x19B3 SWAP2 SWAP1 PUSH2 0x3BFC JUMP JUMPDEST PUSH20 0xFFFFFFFFFFFFFFFFFFFFFFFFFFFFFFFFFFFFFFFF AND DUP2 MSTORE PUSH1 0x20 ADD PUSH2 0x19D8 DUP11 DUP1 PUSH2 0x45EF JUMP JUMPDEST DUP1 DUP1 PUSH1 0x20 MUL PUSH1 0x20 ADD PUSH1 0x40 MLOAD SWAP1 DUP2 ADD PUSH1 0x40 MSTORE DUP1 SWAP4 SWAP3 SWAP2 SWAP1 DUP2 DUP2 MSTORE PUSH1 0x20 ADD DUP4 DUP4 PUSH1 0x20 MUL DUP1 DUP3 DUP5 CALLDATACOPY PUSH1 0x0 SWAP3 ADD SWAP2 SWAP1 SWAP2 MSTORE POP POP POP SWAP1 DUP3 MSTORE POP PUSH1 0x20 ADD PUSH2 0x1A19 DUP10 DUP1 PUSH2 0x45EF JUMP JUMPDEST DUP1 DUP1 PUSH1 0x20 MUL PUSH1 0x20 ADD PUSH1 0x40 MLOAD SWAP1 DUP2 ADD PUSH1 0x40 MSTORE DUP1 SWAP4 SWAP3 SWAP2 SWAP1 DUP2 DUP2 MSTORE PUSH1 0x20 ADD DUP4 DUP4 PUSH1 0x20 MUL DUP1 DUP3 DUP5 CALLDATACOPY PUSH1 0x0 SWAP3 ADD SWAP2 SWAP1 SWAP2 MSTORE POP POP POP SWAP1 DUP3 MSTORE POP PUSH1 0x20 SWAP1 DUP2 ADD SWAP1 PUSH2 0x1A63 SWAP1 PUSH1 0x40 DUP14 ADD SWAP1 DUP14 ADD PUSH2 0x3BFC JUMP JUMPDEST PUSH20 0xFFFFFFFFFFFFFFFFFFFFFFFFFFFFFFFFFFFFFFFF AND DUP2 MSTORE PUSH1 0x20 SWAP1 DUP2 ADD SWAP1 PUSH2 0x1A8D SWAP1 DUP12 ADD DUP12 PUSH2 0x45EF JUMP JUMPDEST DUP1 DUP1 PUSH1 0x20 MUL PUSH1 0x20 ADD PUSH1 0x40 MLOAD SWAP1 DUP2 ADD PUSH1 0x40 MSTORE DUP1 SWAP4 SWAP3 SWAP2 SWAP1 DUP2 DUP2 MSTORE PUSH1 0x20 ADD DUP4 DUP4 PUSH1 0x20 MUL DUP1 DUP3 DUP5 CALLDATACOPY PUSH1 0x0 SWAP3 ADD SWAP2 SWAP1 SWAP2 MSTORE POP POP POP SWAP1 DUP3 MSTORE POP PUSH1 0x20 SWAP1 DUP2 ADD SWAP1 PUSH2 0x1AD3 SWAP1 DUP11 ADD DUP11 PUSH2 0x45EF JUMP JUMPDEST DUP1 DUP1 PUSH1 0x20 MUL PUSH1 0x20 ADD PUSH1 0x40 MLOAD SWAP1 DUP2 ADD PUSH1 0x40 MSTORE DUP1 SWAP4 SWAP3 SWAP2 SWAP1 DUP2 DUP2 MSTORE PUSH1 0x20 ADD DUP4 DUP4 PUSH1 0x20 MUL DUP1 DUP3 DUP5 CALLDATACOPY PUSH1 0x0 SWAP3 ADD SWAP2 SWAP1 SWAP2 MSTORE POP POP POP SWAP1 DUP3 MSTORE POP PUSH1 0x40 DUP1 MLOAD PUSH1 0x20 DUP10 DUP2 MUL DUP3 DUP2 ADD DUP3 ADD SWAP1 SWAP4 MSTORE DUP10 DUP3 MSTORE SWAP3 DUP4 ADD SWAP3 SWAP1 SWAP2 DUP11 SWAP2 DUP11 SWAP2 DUP3 SWAP2 DUP6 ADD SWAP1 DUP5 SWAP1 DUP1 DUP3 DUP5 CALLDATACOPY PUSH1 0x0 SWAP3 ADD DUP3 SWAP1 MSTORE POP SWAP4 DUP6 MSTORE POP POP POP PUSH1 0x20 DUP1 DUP4 ADD DUP7 SWAP1 MSTORE PUSH1 0x40 DUP1 DUP5 ADD DUP10 SWAP1 MSTORE DUP15 DUP4 MSTORE PUSH1 0x6 SWAP1 SWAP2 MSTORE SWAP1 KECCAK256 PUSH1 0xA ADD SLOAD PUSH1 0x60 DUP3 ADD MSTORE TIMESTAMP PUSH1 0x80 SWAP1 SWAP2 ADD MSTORE SWAP1 POP PUSH2 0x1B75 PUSH1 0x4 DUP12 PUSH2 0x3468 JUMP JUMPDEST POP PUSH1 0x0 DUP11 DUP2 MSTORE PUSH1 0x6 PUSH1 0x20 SWAP1 DUP2 MSTORE PUSH1 0x40 SWAP2 DUP3 SWAP1 KECCAK256 DUP4 MLOAD DUP2 SSTORE DUP4 DUP3 ADD MLOAD PUSH1 0x1 DUP3 ADD DUP1 SLOAD PUSH32 0xFFFFFFFFFFFFFFFFFFFFFFFF0000000000000000000000000000000000000000 AND PUSH20 0xFFFFFFFFFFFFFFFFFFFFFFFFFFFFFFFFFFFFFFFF SWAP1 SWAP3 AND SWAP2 SWAP1 SWAP2 OR SWAP1 SSTORE SWAP2 DUP4 ADD MLOAD DUP1 MLOAD DUP5 SWAP4 SWAP3 PUSH2 0x1BF0 SWAP3 PUSH1 0x2 DUP6 ADD SWAP3 SWAP2 ADD SWAP1 PUSH2 0x39FC JUMP JUMPDEST POP PUSH1 0x60 DUP3 ADD MLOAD DUP1 MLOAD PUSH2 0x1C0C SWAP2 PUSH1 0x3 DUP5 ADD SWAP2 PUSH1 0x20 SWAP1 SWAP2 ADD SWAP1 PUSH2 0x39FC JUMP JUMPDEST POP PUSH1 0x80 DUP3 ADD MLOAD PUSH1 0x4 DUP3 ADD DUP1 SLOAD PUSH32 0xFFFFFFFFFFFFFFFFFFFFFFFF0000000000000000000000000000000000000000 AND PUSH20 0xFFFFFFFFFFFFFFFFFFFFFFFFFFFFFFFFFFFFFFFF SWAP1 SWAP3 AND SWAP2 SWAP1 SWAP2 OR SWAP1 SSTORE PUSH1 0xA0 DUP3 ADD MLOAD DUP1 MLOAD PUSH2 0x1C73 SWAP2 PUSH1 0x5 DUP5 ADD SWAP2 PUSH1 0x20 SWAP1 SWAP2 ADD SWAP1 PUSH2 0x39FC JUMP JUMPDEST POP PUSH1 0xC0 DUP3 ADD MLOAD DUP1 MLOAD PUSH2 0x1C8F SWAP2 PUSH1 0x6 DUP5 ADD SWAP2 PUSH1 0x20 SWAP1 SWAP2 ADD SWAP1 PUSH2 0x39FC JUMP JUMPDEST POP PUSH1 0xE0 DUP3 ADD MLOAD DUP1 MLOAD PUSH2 0x1CAB SWAP2 PUSH1 0x7 DUP5 ADD SWAP2 PUSH1 0x20 SWAP1 SWAP2 ADD SWAP1 PUSH2 0x39FC JUMP JUMPDEST POP PUSH2 0x100 DUP3 ADD MLOAD DUP2 PUSH1 0x8 ADD SSTORE PUSH2 0x120 DUP3 ADD MLOAD DUP2 PUSH1 0x9 ADD SSTORE PUSH2 0x140 DUP3 ADD MLOAD DUP2 PUSH1 0xA ADD SSTORE PUSH2 0x160 DUP3 ADD MLOAD DUP2 PUSH1 0xB ADD SSTORE SWAP1 POP POP DUP10 PUSH32 0xB2E547EB18679A18EE72BF11D33344B9A6A24F4AFECF77E5FF1833294B4B0AB9 DUP3 PUSH1 0x40 MLOAD PUSH2 0x1D0B SWAP2 SWAP1 PUSH2 0x3F87 JUMP JUMPDEST PUSH1 0x40 MLOAD DUP1 SWAP2 SUB SWAP1 LOG2 POP POP POP POP POP POP POP POP POP POP JUMP JUMPDEST PUSH2 0x1DAF PUSH1 0x40 MLOAD DUP1 PUSH2 0x180 ADD PUSH1 0x40 MSTORE DUP1 PUSH1 0x0 DUP2 MSTORE PUSH1 0x20 ADD PUSH1 0x0 PUSH20 0xFFFFFFFFFFFFFFFFFFFFFFFFFFFFFFFFFFFFFFFF AND DUP2 MSTORE PUSH1 0x20 ADD PUSH1 0x60 DUP2 MSTORE PUSH1 0x20 ADD PUSH1 0x60 DUP2 MSTORE PUSH1 0x20 ADD PUSH1 0x0 PUSH20 0xFFFFFFFFFFFFFFFFFFFFFFFFFFFFFFFFFFFFFFFF AND DUP2 MSTORE PUSH1 0x20 ADD PUSH1 0x60 DUP2 MSTORE PUSH1 0x20 ADD PUSH1 0x60 DUP2 MSTORE PUSH1 0x20 ADD PUSH1 0x60 DUP2 MSTORE PUSH1 0x20 ADD PUSH1 0x0 DUP2 MSTORE PUSH1 0x20 ADD PUSH1 0x0 DUP2 MSTORE PUSH1 0x20 ADD PUSH1 0x0 DUP2 MSTORE PUSH1 0x20 ADD PUSH1 0x0 DUP2 MSTORE POP SWAP1 JUMP JUMPDEST PUSH2 0x1DBA PUSH1 0x4 DUP4 PUSH2 0x2E74 JUMP JUMPDEST PUSH2 0x1E46 JUMPI PUSH1 0x40 MLOAD PUSH32 0x8C379A000000000000000000000000000000000000000000000000000000000 DUP2 MSTORE PUSH1 0x20 PUSH1 0x4 DUP3 ADD MSTORE PUSH1 0x2D PUSH1 0x24 DUP3 ADD MSTORE PUSH32 0x6C6F6F74626F78496420646F6573206E6F74206578697374206F722068617320 PUSH1 0x44 DUP3 ADD MSTORE PUSH32 0x6265656E2072656D6F7665642E00000000000000000000000000000000000000 PUSH1 0x64 DUP3 ADD MSTORE PUSH1 0x84 ADD PUSH2 0x89D JUMP JUMPDEST PUSH1 0x0 DUP3 DUP2 MSTORE PUSH1 0x6 PUSH1 0x20 SWAP1 DUP2 MSTORE PUSH1 0x40 SWAP2 DUP3 SWAP1 KECCAK256 DUP3 MLOAD PUSH2 0x180 DUP2 ADD DUP5 MSTORE DUP2 SLOAD DUP2 MSTORE PUSH1 0x1 DUP3 ADD SLOAD PUSH20 0xFFFFFFFFFFFFFFFFFFFFFFFFFFFFFFFFFFFFFFFF AND DUP2 DUP5 ADD MSTORE PUSH1 0x2 DUP3 ADD DUP1 SLOAD DUP6 MLOAD DUP2 DUP7 MUL DUP2 ADD DUP7 ADD DUP8 MSTORE DUP2 DUP2 MSTORE SWAP3 SWAP6 SWAP4 SWAP5 SWAP4 DUP7 ADD SWAP4 DUP4 ADD DUP3 DUP3 DUP1 ISZERO PUSH2 0x1ECF JUMPI PUSH1 0x20 MUL DUP3 ADD SWAP2 SWAP1 PUSH1 0x0 MSTORE PUSH1 0x20 PUSH1 0x0 KECCAK256 SWAP1 JUMPDEST DUP2 SLOAD DUP2 MSTORE PUSH1 0x20 ADD SWAP1 PUSH1 0x1 ADD SWAP1 DUP1 DUP4 GT PUSH2 0x1EBB JUMPI JUMPDEST POP POP POP POP POP DUP2 MSTORE PUSH1 0x20 ADD PUSH1 0x3 DUP3 ADD DUP1 SLOAD DUP1 PUSH1 0x20 MUL PUSH1 0x20 ADD PUSH1 0x40 MLOAD SWAP1 DUP2 ADD PUSH1 0x40 MSTORE DUP1 SWAP3 SWAP2 SWAP1 DUP2 DUP2 MSTORE PUSH1 0x20 ADD DUP3 DUP1 SLOAD DUP1 ISZERO PUSH2 0x1F27 JUMPI PUSH1 0x20 MUL DUP3 ADD SWAP2 SWAP1 PUSH1 0x0 MSTORE PUSH1 0x20 PUSH1 0x0 KECCAK256 SWAP1 JUMPDEST DUP2 SLOAD DUP2 MSTORE PUSH1 0x20 ADD SWAP1 PUSH1 0x1 ADD SWAP1 DUP1 DUP4 GT PUSH2 0x1F13 JUMPI JUMPDEST POP POP POP SWAP2 DUP4 MSTORE POP POP PUSH1 0x4 DUP3 ADD SLOAD PUSH20 0xFFFFFFFFFFFFFFFFFFFFFFFFFFFFFFFFFFFFFFFF AND PUSH1 0x20 DUP1 DUP4 ADD SWAP2 SWAP1 SWAP2 MSTORE PUSH1 0x5 DUP4 ADD DUP1 SLOAD PUSH1 0x40 DUP1 MLOAD DUP3 DUP6 MUL DUP2 ADD DUP6 ADD DUP3 MSTORE DUP3 DUP2 MSTORE SWAP5 ADD SWAP4 SWAP3 DUP4 ADD DUP3 DUP3 DUP1 ISZERO PUSH2 0x1F9C JUMPI PUSH1 0x20 MUL DUP3 ADD SWAP2 SWAP1 PUSH1 0x0 MSTORE PUSH1 0x20 PUSH1 0x0 KECCAK256 SWAP1 JUMPDEST DUP2 SLOAD DUP2 MSTORE PUSH1 0x20 ADD SWAP1 PUSH1 0x1 ADD SWAP1 DUP1 DUP4 GT PUSH2 0x1F88 JUMPI JUMPDEST POP POP POP POP POP DUP2 MSTORE PUSH1 0x20 ADD PUSH1 0x6 DUP3 ADD DUP1 SLOAD DUP1 PUSH1 0x20 MUL PUSH1 0x20 ADD PUSH1 0x40 MLOAD SWAP1 DUP2 ADD PUSH1 0x40 MSTORE DUP1 SWAP3 SWAP2 SWAP1 DUP2 DUP2 MSTORE PUSH1 0x20 ADD DUP3 DUP1 SLOAD DUP1 ISZERO PUSH2 0x1FF4 JUMPI PUSH1 0x20 MUL DUP3 ADD SWAP2 SWAP1 PUSH1 0x0 MSTORE PUSH1 0x20 PUSH1 0x0 KECCAK256 SWAP1 JUMPDEST DUP2 SLOAD DUP2 MSTORE PUSH1 0x20 ADD SWAP1 PUSH1 0x1 ADD SWAP1 DUP1 DUP4 GT PUSH2 0x1FE0 JUMPI JUMPDEST POP POP POP POP POP DUP2 MSTORE PUSH1 0x20 ADD PUSH1 0x7 DUP3 ADD DUP1 SLOAD DUP1 PUSH1 0x20 MUL PUSH1 0x20 ADD PUSH1 0x40 MLOAD SWAP1 DUP2 ADD PUSH1 0x40 MSTORE DUP1 SWAP3 SWAP2 SWAP1 DUP2 DUP2 MSTORE PUSH1 0x20 ADD DUP3 DUP1 SLOAD DUP1 ISZERO PUSH2 0x204C JUMPI PUSH1 0x20 MUL DUP3 ADD SWAP2 SWAP1 PUSH1 0x0 MSTORE PUSH1 0x20 PUSH1 0x0 KECCAK256 SWAP1 JUMPDEST DUP2 SLOAD DUP2 MSTORE PUSH1 0x20 ADD SWAP1 PUSH1 0x1 ADD SWAP1 DUP1 DUP4 GT PUSH2 0x2038 JUMPI JUMPDEST POP POP POP POP POP DUP2 MSTORE PUSH1 0x20 ADD PUSH1 0x8 DUP3 ADD SLOAD DUP2 MSTORE PUSH1 0x20 ADD PUSH1 0x9 DUP3 ADD SLOAD DUP2 MSTORE PUSH1 0x20 ADD PUSH1 0xA DUP3 ADD SLOAD DUP2 MSTORE PUSH1 0x20 ADD PUSH1 0xB DUP3 ADD SLOAD DUP2 MSTORE POP POP SWAP1 POP SWAP2 SWAP1 POP JUMP JUMPDEST PUSH2 0x20B8 PUSH1 0x40 MLOAD DUP1 PUSH1 0xA0 ADD PUSH1 0x40 MSTORE DUP1 PUSH1 0x0 DUP2 MSTORE PUSH1 0x20 ADD PUSH1 0x0 DUP2 MSTORE PUSH1 0x20 ADD PUSH1 0x60 DUP2 MSTORE PUSH1 0x20 ADD PUSH1 0x60 DUP2 MSTORE PUSH1 0x20 ADD PUSH1 0x0 ISZERO ISZERO DUP2 MSTORE POP SWAP1 JUMP JUMPDEST PUSH20 0xFFFFFFFFFFFFFFFFFFFFFFFFFFFFFFFFFFFFFFFF DUP5 AND PUSH1 0x0 SWAP1 DUP2 MSTORE PUSH1 0x7 PUSH1 0x20 SWAP1 DUP2 MSTORE PUSH1 0x40 DUP1 DUP4 KECCAK256 DUP7 DUP5 MSTORE SWAP1 SWAP2 MSTORE SWAP1 KECCAK256 SLOAD DUP3 LT PUSH2 0x2177 JUMPI PUSH1 0x40 MLOAD PUSH32 0x8C379A000000000000000000000000000000000000000000000000000000000 DUP2 MSTORE PUSH1 0x20 PUSH1 0x4 DUP3 ADD MSTORE PUSH1 0x23 PUSH1 0x24 DUP3 ADD MSTORE PUSH32 0x6F70656E65644C6F6F74626F78496E64657820646F6573206E6F742065786973 PUSH1 0x44 DUP3 ADD MSTORE PUSH32 0x74732E0000000000000000000000000000000000000000000000000000000000 PUSH1 0x64 DUP3 ADD MSTORE PUSH1 0x84 ADD PUSH2 0x89D JUMP JUMPDEST PUSH20 0xFFFFFFFFFFFFFFFFFFFFFFFFFFFFFFFFFFFFFFFF DUP5 AND PUSH1 0x0 SWAP1 DUP2 MSTORE PUSH1 0x7 PUSH1 0x20 SWAP1 DUP2 MSTORE PUSH1 0x40 DUP1 DUP4 KECCAK256 DUP7 DUP5 MSTORE SWAP1 SWAP2 MSTORE SWAP1 KECCAK256 DUP1 SLOAD DUP4 SWAP1 DUP2 LT PUSH2 0x21B9 JUMPI PUSH2 0x21B9 PUSH2 0x4309 JUMP JUMPDEST SWAP1 PUSH1 0x0 MSTORE PUSH1 0x20 PUSH1 0x0 KECCAK256 SWAP1 PUSH1 0x5 MUL ADD PUSH1 0x40 MLOAD DUP1 PUSH1 0xA0 ADD PUSH1 0x40 MSTORE SWAP1 DUP2 PUSH1 0x0 DUP3 ADD SLOAD DUP2 MSTORE PUSH1 0x20 ADD PUSH1 0x1 DUP3 ADD SLOAD DUP2 MSTORE PUSH1 0x20 ADD PUSH1 0x2 DUP3 ADD DUP1 SLOAD DUP1 PUSH1 0x20 MUL PUSH1 0x20 ADD PUSH1 0x40 MLOAD SWAP1 DUP2 ADD PUSH1 0x40 MSTORE DUP1 SWAP3 SWAP2 SWAP1 DUP2 DUP2 MSTORE PUSH1 0x20 ADD DUP3 DUP1 SLOAD DUP1 ISZERO PUSH2 0x2235 JUMPI PUSH1 0x20 MUL DUP3 ADD SWAP2 SWAP1 PUSH1 0x0 MSTORE PUSH1 0x20 PUSH1 0x0 KECCAK256 SWAP1 JUMPDEST DUP2 SLOAD DUP2 MSTORE PUSH1 0x20 ADD SWAP1 PUSH1 0x1 ADD SWAP1 DUP1 DUP4 GT PUSH2 0x2221 JUMPI JUMPDEST POP POP POP POP POP DUP2 MSTORE PUSH1 0x20 ADD PUSH1 0x3 DUP3 ADD DUP1 SLOAD DUP1 PUSH1 0x20 MUL PUSH1 0x20 ADD PUSH1 0x40 MLOAD SWAP1 DUP2 ADD PUSH1 0x40 MSTORE DUP1 SWAP3 SWAP2 SWAP1 DUP2 DUP2 MSTORE PUSH1 0x20 ADD DUP3 DUP1 SLOAD DUP1 ISZERO PUSH2 0x228D JUMPI PUSH1 0x20 MUL DUP3 ADD SWAP2 SWAP1 PUSH1 0x0 MSTORE PUSH1 0x20 PUSH1 0x0 KECCAK256 SWAP1 JUMPDEST DUP2 SLOAD DUP2 MSTORE PUSH1 0x20 ADD SWAP1 PUSH1 0x1 ADD SWAP1 DUP1 DUP4 GT PUSH2 0x2279 JUMPI JUMPDEST POP POP POP SWAP2 DUP4 MSTORE POP POP PUSH1 0x4 SWAP2 SWAP1 SWAP2 ADD SLOAD PUSH1 0xFF AND ISZERO ISZERO PUSH1 0x20 SWAP1 SWAP2 ADD MSTORE SWAP5 SWAP4 POP POP POP POP JUMP JUMPDEST PUSH32 0x5B618AB2FEE761C09BF71319707CEFA62ECCC93DCC483744898E6C3ACF452643 PUSH2 0x22D9 DUP2 PUSH2 0x2BF2 JUMP JUMPDEST PUSH1 0x0 DUP1 SLOAD PUSH32 0xFFFFFFFFFFFFFFFFFFFFFFFF0000000000000000000000000000000000000000 AND PUSH20 0xFFFFFFFFFFFFFFFFFFFFFFFFFFFFFFFFFFFFFFFF DUP5 AND OR SWAP1 SSTORE POP POP JUMP JUMPDEST PUSH1 0x0 DUP1 DUP1 JUMPDEST PUSH20 0xFFFFFFFFFFFFFFFFFFFFFFFFFFFFFFFFFFFFFFFF DUP6 AND PUSH1 0x0 SWAP1 DUP2 MSTORE PUSH1 0x7 PUSH1 0x20 SWAP1 DUP2 MSTORE PUSH1 0x40 DUP1 DUP4 KECCAK256 DUP8 DUP5 MSTORE SWAP1 SWAP2 MSTORE SWAP1 KECCAK256 SLOAD DUP2 LT ISZERO PUSH2 0x23EB JUMPI PUSH20 0xFFFFFFFFFFFFFFFFFFFFFFFFFFFFFFFFFFFFFFFF DUP6 AND PUSH1 0x0 SWAP1 DUP2 MSTORE PUSH1 0x7 PUSH1 0x20 SWAP1 DUP2 MSTORE PUSH1 0x40 DUP1 DUP4 KECCAK256 DUP8 DUP5 MSTORE SWAP1 SWAP2 MSTORE DUP2 KECCAK256 DUP1 SLOAD DUP4 SWAP1 DUP2 LT PUSH2 0x239C JUMPI PUSH2 0x239C PUSH2 0x4309 JUMP JUMPDEST SWAP1 PUSH1 0x0 MSTORE PUSH1 0x20 PUSH1 0x0 KECCAK256 SWAP1 PUSH1 0x5 MUL ADD SWAP1 POP DUP1 PUSH1 0x1 ADD SLOAD NUMBER LT ISZERO DUP1 ISZERO PUSH2 0x23C5 JUMPI POP PUSH1 0x4 DUP2 ADD SLOAD PUSH1 0xFF AND ISZERO JUMPDEST ISZERO PUSH2 0x23D8 JUMPI DUP3 PUSH2 0x23D4 DUP2 PUSH2 0x4338 JUMP JUMPDEST SWAP4 POP POP JUMPDEST POP DUP1 PUSH2 0x23E3 DUP2 PUSH2 0x4338 JUMP JUMPDEST SWAP2 POP POP PUSH2 0x2322 JUMP JUMPDEST POP SWAP4 SWAP3 POP POP POP JUMP JUMPDEST PUSH20 0xFFFFFFFFFFFFFFFFFFFFFFFFFFFFFFFFFFFFFFFF DUP5 AND PUSH1 0x0 SWAP1 DUP2 MSTORE PUSH1 0x7 PUSH1 0x20 SWAP1 DUP2 MSTORE PUSH1 0x40 DUP1 DUP4 KECCAK256 DUP7 DUP5 MSTORE SWAP1 SWAP2 MSTORE DUP2 KECCAK256 SLOAD PUSH1 0x60 SWAP2 SWAP1 DUP5 LT PUSH2 0x2435 JUMPI PUSH1 0x0 PUSH2 0x2471 JUMP JUMPDEST PUSH20 0xFFFFFFFFFFFFFFFFFFFFFFFFFFFFFFFFFFFFFFFF DUP7 AND PUSH1 0x0 SWAP1 DUP2 MSTORE PUSH1 0x7 PUSH1 0x20 SWAP1 DUP2 MSTORE PUSH1 0x40 DUP1 DUP4 KECCAK256 DUP9 DUP5 MSTORE SWAP1 SWAP2 MSTORE SWAP1 KECCAK256 SLOAD PUSH2 0x2471 SWAP1 DUP6 SWAP1 PUSH2 0x42E3 JUMP JUMPDEST SWAP1 POP PUSH1 0x0 DUP4 DUP3 GT ISZERO PUSH2 0x2483 JUMPI DUP4 PUSH2 0x2485 JUMP JUMPDEST DUP2 JUMPDEST SWAP1 POP PUSH1 0x0 DUP2 PUSH8 0xFFFFFFFFFFFFFFFF DUP2 GT ISZERO PUSH2 0x24A2 JUMPI PUSH2 0x24A2 PUSH2 0x4019 JUMP JUMPDEST PUSH1 0x40 MLOAD SWAP1 DUP1 DUP3 MSTORE DUP1 PUSH1 0x20 MUL PUSH1 0x20 ADD DUP3 ADD PUSH1 0x40 MSTORE DUP1 ISZERO PUSH2 0x2507 JUMPI DUP2 PUSH1 0x20 ADD JUMPDEST PUSH2 0x24F4 PUSH1 0x40 MLOAD DUP1 PUSH1 0xA0 ADD PUSH1 0x40 MSTORE DUP1 PUSH1 0x0 DUP2 MSTORE PUSH1 0x20 ADD PUSH1 0x0 DUP2 MSTORE PUSH1 0x20 ADD PUSH1 0x60 DUP2 MSTORE PUSH1 0x20 ADD PUSH1 0x60 DUP2 MSTORE PUSH1 0x20 ADD PUSH1 0x0 ISZERO ISZERO DUP2 MSTORE POP SWAP1 JUMP JUMPDEST DUP2 MSTORE PUSH1 0x20 ADD SWAP1 PUSH1 0x1 SWAP1 SUB SWAP1 DUP2 PUSH2 0x24C0 JUMPI SWAP1 POP JUMPDEST POP SWAP1 POP PUSH1 0x0 JUMPDEST DUP3 DUP2 LT ISZERO PUSH2 0x267F JUMPI PUSH20 0xFFFFFFFFFFFFFFFFFFFFFFFFFFFFFFFFFFFFFFFF DUP10 AND PUSH1 0x0 SWAP1 DUP2 MSTORE PUSH1 0x7 PUSH1 0x20 SWAP1 DUP2 MSTORE PUSH1 0x40 DUP1 DUP4 KECCAK256 DUP12 DUP5 MSTORE SWAP1 SWAP2 MSTORE SWAP1 KECCAK256 PUSH2 0x254F DUP3 DUP10 PUSH2 0x42F6 JUMP JUMPDEST DUP2 SLOAD DUP2 LT PUSH2 0x255F JUMPI PUSH2 0x255F PUSH2 0x4309 JUMP JUMPDEST SWAP1 PUSH1 0x0 MSTORE PUSH1 0x20 PUSH1 0x0 KECCAK256 SWAP1 PUSH1 0x5 MUL ADD PUSH1 0x40 MLOAD DUP1 PUSH1 0xA0 ADD PUSH1 0x40 MSTORE SWAP1 DUP2 PUSH1 0x0 DUP3 ADD SLOAD DUP2 MSTORE PUSH1 0x20 ADD PUSH1 0x1 DUP3 ADD SLOAD DUP2 MSTORE PUSH1 0x20 ADD PUSH1 0x2 DUP3 ADD DUP1 SLOAD DUP1 PUSH1 0x20 MUL PUSH1 0x20 ADD PUSH1 0x40 MLOAD SWAP1 DUP2 ADD PUSH1 0x40 MSTORE DUP1 SWAP3 SWAP2 SWAP1 DUP2 DUP2 MSTORE PUSH1 0x20 ADD DUP3 DUP1 SLOAD DUP1 ISZERO PUSH2 0x25DB JUMPI PUSH1 0x20 MUL DUP3 ADD SWAP2 SWAP1 PUSH1 0x0 MSTORE PUSH1 0x20 PUSH1 0x0 KECCAK256 SWAP1 JUMPDEST DUP2 SLOAD DUP2 MSTORE PUSH1 0x20 ADD SWAP1 PUSH1 0x1 ADD SWAP1 DUP1 DUP4 GT PUSH2 0x25C7 JUMPI JUMPDEST POP POP POP POP POP DUP2 MSTORE PUSH1 0x20 ADD PUSH1 0x3 DUP3 ADD DUP1 SLOAD DUP1 PUSH1 0x20 MUL PUSH1 0x20 ADD PUSH1 0x40 MLOAD SWAP1 DUP2 ADD PUSH1 0x40 MSTORE DUP1 SWAP3 SWAP2 SWAP1 DUP2 DUP2 MSTORE PUSH1 0x20 ADD DUP3 DUP1 SLOAD DUP1 ISZERO PUSH2 0x2633 JUMPI PUSH1 0x20 MUL DUP3 ADD SWAP2 SWAP1 PUSH1 0x0 MSTORE PUSH1 0x20 PUSH1 0x0 KECCAK256 SWAP1 JUMPDEST DUP2 SLOAD DUP2 MSTORE PUSH1 0x20 ADD SWAP1 PUSH1 0x1 ADD SWAP1 DUP1 DUP4 GT PUSH2 0x261F JUMPI JUMPDEST POP POP POP SWAP2 DUP4 MSTORE POP POP PUSH1 0x4 SWAP2 SWAP1 SWAP2 ADD SLOAD PUSH1 0xFF AND ISZERO ISZERO PUSH1 0x20 SWAP1 SWAP2 ADD MSTORE DUP3 MLOAD DUP4 SWAP1 DUP4 SWAP1 DUP2 LT PUSH2 0x2661 JUMPI PUSH2 0x2661 PUSH2 0x4309 JUMP JUMPDEST PUSH1 0x20 MUL PUSH1 0x20 ADD ADD DUP2 SWAP1 MSTORE POP DUP1 DUP1 PUSH2 0x2677 SWAP1 PUSH2 0x4338 JUMP JUMPDEST SWAP2 POP POP PUSH2 0x250D JUMP JUMPDEST POP SWAP8 SWAP7 POP POP POP POP POP POP POP JUMP JUMPDEST PUSH1 0x0 DUP3 DUP2 MSTORE PUSH1 0x2 PUSH1 0x20 MSTORE PUSH1 0x40 SWAP1 KECCAK256 PUSH1 0x1 ADD SLOAD PUSH2 0x26A6 DUP2 PUSH2 0x2BF2 JUMP JUMPDEST PUSH2 0x26B0 DUP4 DUP4 PUSH2 0x2D0E JUMP JUMPDEST POP POP POP JUMP JUMPDEST PUSH1 0x60 PUSH1 0x0 PUSH2 0x26C1 PUSH2 0x170C JUMP JUMPDEST PUSH8 0xFFFFFFFFFFFFFFFF DUP2 GT ISZERO PUSH2 0x26D9 JUMPI PUSH2 0x26D9 PUSH2 0x4019 JUMP JUMPDEST PUSH1 0x40 MLOAD SWAP1 DUP1 DUP3 MSTORE DUP1 PUSH1 0x20 MUL PUSH1 0x20 ADD DUP3 ADD PUSH1 0x40 MSTORE DUP1 ISZERO PUSH2 0x279A JUMPI DUP2 PUSH1 0x20 ADD JUMPDEST PUSH2 0x2787 PUSH1 0x40 MLOAD DUP1 PUSH2 0x180 ADD PUSH1 0x40 MSTORE DUP1 PUSH1 0x0 DUP2 MSTORE PUSH1 0x20 ADD PUSH1 0x0 PUSH20 0xFFFFFFFFFFFFFFFFFFFFFFFFFFFFFFFFFFFFFFFF AND DUP2 MSTORE PUSH1 0x20 ADD PUSH1 0x60 DUP2 MSTORE PUSH1 0x20 ADD PUSH1 0x60 DUP2 MSTORE PUSH1 0x20 ADD PUSH1 0x0 PUSH20 0xFFFFFFFFFFFFFFFFFFFFFFFFFFFFFFFFFFFFFFFF AND DUP2 MSTORE PUSH1 0x20 ADD PUSH1 0x60 DUP2 MSTORE PUSH1 0x20 ADD PUSH1 0x60 DUP2 MSTORE PUSH1 0x20 ADD PUSH1 0x60 DUP2 MSTORE PUSH1 0x20 ADD PUSH1 0x0 DUP2 MSTORE PUSH1 0x20 ADD PUSH1 0x0 DUP2 MSTORE PUSH1 0x20 ADD PUSH1 0x0 DUP2 MSTORE PUSH1 0x20 ADD PUSH1 0x0 DUP2 MSTORE POP SWAP1 JUMP JUMPDEST DUP2 MSTORE PUSH1 0x20 ADD SWAP1 PUSH1 0x1 SWAP1 SUB SWAP1 DUP2 PUSH2 0x26F7 JUMPI SWAP1 POP JUMPDEST POP SWAP1 POP PUSH1 0x0 JUMPDEST PUSH2 0x27A8 PUSH2 0x170C JUMP JUMPDEST DUP2 LT ISZERO PUSH2 0x12D9 JUMPI PUSH1 0x6 PUSH1 0x0 PUSH2 0x27BE PUSH1 0x4 DUP5 PUSH2 0x2B89 JUMP JUMPDEST DUP2 MSTORE PUSH1 0x20 DUP1 DUP3 ADD SWAP3 SWAP1 SWAP3 MSTORE PUSH1 0x40 SWAP1 DUP2 ADD PUSH1 0x0 KECCAK256 DUP2 MLOAD PUSH2 0x180 DUP2 ADD DUP4 MSTORE DUP2 SLOAD DUP2 MSTORE PUSH1 0x1 DUP3 ADD SLOAD PUSH20 0xFFFFFFFFFFFFFFFFFFFFFFFFFFFFFFFFFFFFFFFF AND DUP2 DUP6 ADD MSTORE PUSH1 0x2 DUP3 ADD DUP1 SLOAD DUP5 MLOAD DUP2 DUP8 MUL DUP2 ADD DUP8 ADD DUP7 MSTORE DUP2 DUP2 MSTORE SWAP3 SWAP6 SWAP4 SWAP5 DUP7 ADD SWAP4 DUP4 ADD DUP3 DUP3 DUP1 ISZERO PUSH2 0x2847 JUMPI PUSH1 0x20 MUL DUP3 ADD SWAP2 SWAP1 PUSH1 0x0 MSTORE PUSH1 0x20 PUSH1 0x0 KECCAK256 SWAP1 JUMPDEST DUP2 SLOAD DUP2 MSTORE PUSH1 0x20 ADD SWAP1 PUSH1 0x1 ADD SWAP1 DUP1 DUP4 GT PUSH2 0x2833 JUMPI JUMPDEST POP POP POP POP POP DUP2 MSTORE PUSH1 0x20 ADD PUSH1 0x3 DUP3 ADD DUP1 SLOAD DUP1 PUSH1 0x20 MUL PUSH1 0x20 ADD PUSH1 0x40 MLOAD SWAP1 DUP2 ADD PUSH1 0x40 MSTORE DUP1 SWAP3 SWAP2 SWAP1 DUP2 DUP2 MSTORE PUSH1 0x20 ADD DUP3 DUP1 SLOAD DUP1 ISZERO PUSH2 0x289F JUMPI PUSH1 0x20 MUL DUP3 ADD SWAP2 SWAP1 PUSH1 0x0 MSTORE PUSH1 0x20 PUSH1 0x0 KECCAK256 SWAP1 JUMPDEST DUP2 SLOAD DUP2 MSTORE PUSH1 0x20 ADD SWAP1 PUSH1 0x1 ADD SWAP1 DUP1 DUP4 GT PUSH2 0x288B JUMPI JUMPDEST POP POP POP SWAP2 DUP4 MSTORE POP POP PUSH1 0x4 DUP3 ADD SLOAD PUSH20 0xFFFFFFFFFFFFFFFFFFFFFFFFFFFFFFFFFFFFFFFF AND PUSH1 0x20 DUP1 DUP4 ADD SWAP2 SWAP1 SWAP2 MSTORE PUSH1 0x5 DUP4 ADD DUP1 SLOAD PUSH1 0x40 DUP1 MLOAD DUP3 DUP6 MUL DUP2 ADD DUP6 ADD DUP3 MSTORE DUP3 DUP2 MSTORE SWAP5 ADD SWAP4 SWAP3 DUP4 ADD DUP3 DUP3 DUP1 ISZERO PUSH2 0x2914 JUMPI PUSH1 0x20 MUL DUP3 ADD SWAP2 SWAP1 PUSH1 0x0 MSTORE PUSH1 0x20 PUSH1 0x0 KECCAK256 SWAP1 JUMPDEST DUP2 SLOAD DUP2 MSTORE PUSH1 0x20 ADD SWAP1 PUSH1 0x1 ADD SWAP1 DUP1 DUP4 GT PUSH2 0x2900 JUMPI JUMPDEST POP POP POP POP POP DUP2 MSTORE PUSH1 0x20 ADD PUSH1 0x6 DUP3 ADD DUP1 SLOAD DUP1 PUSH1 0x20 MUL PUSH1 0x20 ADD PUSH1 0x40 MLOAD SWAP1 DUP2 ADD PUSH1 0x40 MSTORE DUP1 SWAP3 SWAP2 SWAP1 DUP2 DUP2 MSTORE PUSH1 0x20 ADD DUP3 DUP1 SLOAD DUP1 ISZERO PUSH2 0x296C JUMPI PUSH1 0x20 MUL DUP3 ADD SWAP2 SWAP1 PUSH1 0x0 MSTORE PUSH1 0x20 PUSH1 0x0 KECCAK256 SWAP1 JUMPDEST DUP2 SLOAD DUP2 MSTORE PUSH1 0x20 ADD SWAP1 PUSH1 0x1 ADD SWAP1 DUP1 DUP4 GT PUSH2 0x2958 JUMPI JUMPDEST POP POP POP POP POP DUP2 MSTORE PUSH1 0x20 ADD PUSH1 0x7 DUP3 ADD DUP1 SLOAD DUP1 PUSH1 0x20 MUL PUSH1 0x20 ADD PUSH1 0x40 MLOAD SWAP1 DUP2 ADD PUSH1 0x40 MSTORE DUP1 SWAP3 SWAP2 SWAP1 DUP2 DUP2 MSTORE PUSH1 0x20 ADD DUP3 DUP1 SLOAD DUP1 ISZERO PUSH2 0x29C4 JUMPI PUSH1 0x20 MUL DUP3 ADD SWAP2 SWAP1 PUSH1 0x0 MSTORE PUSH1 0x20 PUSH1 0x0 KECCAK256 SWAP1 JUMPDEST DUP2 SLOAD DUP2 MSTORE PUSH1 0x20 ADD SWAP1 PUSH1 0x1 ADD SWAP1 DUP1 DUP4 GT PUSH2 0x29B0 JUMPI JUMPDEST POP POP POP POP POP DUP2 MSTORE PUSH1 0x20 ADD PUSH1 0x8 DUP3 ADD SLOAD DUP2 MSTORE PUSH1 0x20 ADD PUSH1 0x9 DUP3 ADD SLOAD DUP2 MSTORE PUSH1 0x20 ADD PUSH1 0xA DUP3 ADD SLOAD DUP2 MSTORE PUSH1 0x20 ADD PUSH1 0xB DUP3 ADD SLOAD DUP2 MSTORE POP POP DUP3 DUP3 DUP2 MLOAD DUP2 LT PUSH2 0x2A07 JUMPI PUSH2 0x2A07 PUSH2 0x4309 JUMP JUMPDEST PUSH1 0x20 MUL PUSH1 0x20 ADD ADD DUP2 SWAP1 MSTORE POP DUP1 DUP1 PUSH2 0x2A1D SWAP1 PUSH2 0x4338 JUMP JUMPDEST SWAP2 POP POP PUSH2 0x27A0 JUMP JUMPDEST PUSH2 0x2A2D PUSH2 0x2E01 JUMP JUMPDEST PUSH1 0x0 JUMPDEST PUSH1 0x7 PUSH1 0x0 PUSH2 0x2A3C PUSH2 0x2C0F JUMP JUMPDEST PUSH20 0xFFFFFFFFFFFFFFFFFFFFFFFFFFFFFFFFFFFFFFFF AND DUP2 MSTORE PUSH1 0x20 DUP1 DUP3 ADD SWAP3 SWAP1 SWAP3 MSTORE PUSH1 0x40 SWAP1 DUP2 ADD PUSH1 0x0 SWAP1 DUP2 KECCAK256 DUP6 DUP3 MSTORE SWAP1 SWAP3 MSTORE SWAP1 KECCAK256 SLOAD DUP2 LT ISZERO PUSH2 0x2A95 JUMPI PUSH2 0x2A83 DUP3 DUP3 PUSH1 0x0 PUSH2 0x2E8C JUMP JUMPDEST DUP1 PUSH2 0x2A8D DUP2 PUSH2 0x4338 JUMP JUMPDEST SWAP2 POP POP PUSH2 0x2A30 JUMP JUMPDEST POP PUSH2 0x16EB PUSH1 0x1 PUSH1 0x3 SSTORE JUMP JUMPDEST PUSH1 0x0 PUSH2 0x2AAC PUSH1 0x4 PUSH2 0x2B7F JUMP JUMPDEST DUP3 LT PUSH2 0x2B14 JUMPI PUSH1 0x40 MLOAD PUSH32 0x8C379A000000000000000000000000000000000000000000000000000000000 DUP2 MSTORE PUSH1 0x20 PUSH1 0x4 DUP3 ADD MSTORE PUSH1 0x13 PUSH1 0x24 DUP3 ADD MSTORE PUSH32 0x496E646578206F7574206F6620626F756E647300000000000000000000000000 PUSH1 0x44 DUP3 ADD MSTORE PUSH1 0x64 ADD PUSH2 0x89D JUMP JUMPDEST PUSH2 0x765 PUSH1 0x4 DUP4 PUSH2 0x2B89 JUMP JUMPDEST PUSH1 0x60 PUSH2 0x1718 PUSH1 0x4 PUSH2 0x3474 JUMP JUMPDEST PUSH1 0x0 DUP1 SLOAD PUSH20 0xFFFFFFFFFFFFFFFFFFFFFFFFFFFFFFFFFFFFFFFF AND CALLER SUB PUSH2 0x2B76 JUMPI POP PUSH32 0xFFFFFFFFFFFFFFFFFFFFFFFFFFFFFFFFFFFFFFFFFFFFFFFFFFFFFFFFFFFFFFEC CALLDATASIZE ADD CALLDATALOAD PUSH1 0x60 SHR SWAP1 JUMP JUMPDEST POP CALLER SWAP1 JUMP JUMPDEST CALLER SWAP1 JUMP JUMPDEST PUSH1 0x0 PUSH2 0x765 DUP3 SLOAD SWAP1 JUMP JUMPDEST PUSH1 0x0 PUSH2 0x2B95 DUP4 DUP4 PUSH2 0x3481 JUMP JUMPDEST SWAP4 SWAP3 POP POP POP JUMP JUMPDEST PUSH1 0x0 PUSH32 0xFFFFFFFF00000000000000000000000000000000000000000000000000000000 DUP3 AND PUSH32 0x7965DB0B00000000000000000000000000000000000000000000000000000000 EQ DUP1 PUSH2 0x765 JUMPI POP PUSH2 0x765 DUP3 PUSH2 0x34AB JUMP JUMPDEST PUSH2 0x16EB DUP2 PUSH2 0x2BFE PUSH2 0x2C0F JUMP JUMPDEST PUSH2 0x3542 JUMP JUMPDEST PUSH1 0x0 PUSH2 0x2B95 DUP4 DUP4 PUSH2 0x35FC JUMP JUMPDEST PUSH1 0x0 PUSH2 0x1718 PUSH2 0x2B2B JUMP JUMPDEST PUSH1 0x0 DUP3 DUP2 MSTORE PUSH1 0x2 PUSH1 0x20 SWAP1 DUP2 MSTORE PUSH1 0x40 DUP1 DUP4 KECCAK256 PUSH20 0xFFFFFFFFFFFFFFFFFFFFFFFFFFFFFFFFFFFFFFFF DUP6 AND DUP5 MSTORE SWAP1 SWAP2 MSTORE SWAP1 KECCAK256 SLOAD PUSH1 0xFF AND PUSH2 0xC26 JUMPI PUSH1 0x0 DUP3 DUP2 MSTORE PUSH1 0x2 PUSH1 0x20 SWAP1 DUP2 MSTORE PUSH1 0x40 DUP1 DUP4 KECCAK256 PUSH20 0xFFFFFFFFFFFFFFFFFFFFFFFFFFFFFFFFFFFFFFFF DUP6 AND DUP5 MSTORE SWAP1 SWAP2 MSTORE SWAP1 KECCAK256 DUP1 SLOAD PUSH32 0xFFFFFFFFFFFFFFFFFFFFFFFFFFFFFFFFFFFFFFFFFFFFFFFFFFFFFFFFFFFFFF00 AND PUSH1 0x1 OR SWAP1 SSTORE PUSH2 0x2CB0 PUSH2 0x2C0F JUMP JUMPDEST PUSH20 0xFFFFFFFFFFFFFFFFFFFFFFFFFFFFFFFFFFFFFFFF AND DUP2 PUSH20 0xFFFFFFFFFFFFFFFFFFFFFFFFFFFFFFFFFFFFFFFF AND DUP4 PUSH32 0x2F8788117E7EFF1D82E926EC794901D17C78024A50270940304540A733656F0D PUSH1 0x40 MLOAD PUSH1 0x40 MLOAD DUP1 SWAP2 SUB SWAP1 LOG4 POP POP JUMP JUMPDEST PUSH1 0x0 DUP3 DUP2 MSTORE PUSH1 0x2 PUSH1 0x20 SWAP1 DUP2 MSTORE PUSH1 0x40 DUP1 DUP4 KECCAK256 PUSH20 0xFFFFFFFFFFFFFFFFFFFFFFFFFFFFFFFFFFFFFFFF DUP6 AND DUP5 MSTORE SWAP1 SWAP2 MSTORE SWAP1 KECCAK256 SLOAD PUSH1 0xFF AND ISZERO PUSH2 0xC26 JUMPI PUSH1 0x0 DUP3 DUP2 MSTORE PUSH1 0x2 PUSH1 0x20 SWAP1 DUP2 MSTORE PUSH1 0x40 DUP1 DUP4 KECCAK256 PUSH20 0xFFFFFFFFFFFFFFFFFFFFFFFFFFFFFFFFFFFFFFFF DUP6 AND DUP5 MSTORE SWAP1 SWAP2 MSTORE SWAP1 KECCAK256 DUP1 SLOAD PUSH32 0xFFFFFFFFFFFFFFFFFFFFFFFFFFFFFFFFFFFFFFFFFFFFFFFFFFFFFFFFFFFFFF00 AND SWAP1 SSTORE PUSH2 0x2DA3 PUSH2 0x2C0F JUMP JUMPDEST PUSH20 0xFFFFFFFFFFFFFFFFFFFFFFFFFFFFFFFFFFFFFFFF AND DUP2 PUSH20 0xFFFFFFFFFFFFFFFFFFFFFFFFFFFFFFFFFFFFFFFF AND DUP4 PUSH32 0xF6391F5C32D9C69D2A47EA670B442974B53935D1EDC7FD64EB21E047A839171B PUSH1 0x40 MLOAD PUSH1 0x40 MLOAD DUP1 SWAP2 SUB SWAP1 LOG4 POP POP JUMP JUMPDEST PUSH1 0x2 PUSH1 0x3 SLOAD SUB PUSH2 0x2E6D JUMPI PUSH1 0x40 MLOAD PUSH32 0x8C379A000000000000000000000000000000000000000000000000000000000 DUP2 MSTORE PUSH1 0x20 PUSH1 0x4 DUP3 ADD MSTORE PUSH1 0x1F PUSH1 0x24 DUP3 ADD MSTORE PUSH32 0x5265656E7472616E637947756172643A207265656E7472616E742063616C6C00 PUSH1 0x44 DUP3 ADD MSTORE PUSH1 0x64 ADD PUSH2 0x89D JUMP JUMPDEST PUSH1 0x2 PUSH1 0x3 SSTORE JUMP JUMPDEST PUSH1 0x0 DUP2 DUP2 MSTORE PUSH1 0x1 DUP4 ADD PUSH1 0x20 MSTORE PUSH1 0x40 DUP2 KECCAK256 SLOAD ISZERO ISZERO PUSH2 0x2B95 JUMP JUMPDEST PUSH1 0x0 PUSH1 0x7 PUSH1 0x0 PUSH2 0x2E9A PUSH2 0x2C0F JUMP JUMPDEST PUSH20 0xFFFFFFFFFFFFFFFFFFFFFFFFFFFFFFFFFFFFFFFF AND PUSH20 0xFFFFFFFFFFFFFFFFFFFFFFFFFFFFFFFFFFFFFFFF AND DUP2 MSTORE PUSH1 0x20 ADD SWAP1 DUP2 MSTORE PUSH1 0x20 ADD PUSH1 0x0 KECCAK256 PUSH1 0x0 DUP6 DUP2 MSTORE PUSH1 0x20 ADD SWAP1 DUP2 MSTORE PUSH1 0x20 ADD PUSH1 0x0 KECCAK256 DUP4 DUP2 SLOAD DUP2 LT PUSH2 0x2EF6 JUMPI PUSH2 0x2EF6 PUSH2 0x4309 JUMP JUMPDEST SWAP1 PUSH1 0x0 MSTORE PUSH1 0x20 PUSH1 0x0 KECCAK256 SWAP1 PUSH1 0x5 MUL ADD SWAP1 POP PUSH1 0x0 PUSH1 0x6 PUSH1 0x0 DUP7 DUP2 MSTORE PUSH1 0x20 ADD SWAP1 DUP2 MSTORE PUSH1 0x20 ADD PUSH1 0x0 KECCAK256 SWAP1 POP DUP2 PUSH1 0x1 ADD SLOAD NUMBER LT DUP1 PUSH2 0x2F33 JUMPI POP PUSH1 0x4 DUP3 ADD SLOAD PUSH1 0xFF AND JUMPDEST ISZERO PUSH2 0x2FCF JUMPI DUP3 ISZERO PUSH2 0x2FC8 JUMPI PUSH1 0x40 DUP1 MLOAD PUSH32 0x8C379A000000000000000000000000000000000000000000000000000000000 DUP2 MSTORE PUSH1 0x20 PUSH1 0x4 DUP3 ADD MSTORE PUSH1 0x24 DUP2 ADD SWAP2 SWAP1 SWAP2 MSTORE PUSH32 0x4C6F6F74626F7820756E636C61696D61626C652E20436C61696D20626C6F636B PUSH1 0x44 DUP3 ADD MSTORE PUSH32 0x206E6F742072656163686564206F7220616C726561647920636C61696D65642E PUSH1 0x64 DUP3 ADD MSTORE PUSH1 0x84 ADD PUSH2 0x89D JUMP JUMPDEST POP POP POP POP POP JUMP JUMPDEST PUSH1 0x0 DUP2 PUSH1 0x9 ADD SLOAD PUSH8 0xFFFFFFFFFFFFFFFF DUP2 GT ISZERO PUSH2 0x2FEE JUMPI PUSH2 0x2FEE PUSH2 0x4019 JUMP JUMPDEST PUSH1 0x40 MLOAD SWAP1 DUP1 DUP3 MSTORE DUP1 PUSH1 0x20 MUL PUSH1 0x20 ADD DUP3 ADD PUSH1 0x40 MSTORE DUP1 ISZERO PUSH2 0x3017 JUMPI DUP2 PUSH1 0x20 ADD PUSH1 0x20 DUP3 MUL DUP1 CALLDATASIZE DUP4 CALLDATACOPY ADD SWAP1 POP JUMPDEST POP SWAP1 POP PUSH1 0x0 DUP3 PUSH1 0x9 ADD SLOAD PUSH8 0xFFFFFFFFFFFFFFFF DUP2 GT ISZERO PUSH2 0x3039 JUMPI PUSH2 0x3039 PUSH2 0x4019 JUMP JUMPDEST PUSH1 0x40 MLOAD SWAP1 DUP1 DUP3 MSTORE DUP1 PUSH1 0x20 MUL PUSH1 0x20 ADD DUP3 ADD PUSH1 0x40 MSTORE DUP1 ISZERO PUSH2 0x3062 JUMPI DUP2 PUSH1 0x20 ADD PUSH1 0x20 DUP3 MUL DUP1 CALLDATASIZE DUP4 CALLDATACOPY ADD SWAP1 POP JUMPDEST POP SWAP1 POP PUSH1 0x0 JUMPDEST DUP4 PUSH1 0x9 ADD SLOAD DUP2 LT ISZERO PUSH2 0x3202 JUMPI PUSH1 0x0 PUSH1 0x1 DUP7 PUSH1 0x1 ADD SLOAD PUSH2 0x3087 SWAP2 SWAP1 PUSH2 0x42E3 JUMP JUMPDEST BLOCKHASH PUSH2 0x3090 PUSH2 0x2C0F JUMP JUMPDEST DUP10 DUP5 PUSH1 0x40 MLOAD PUSH1 0x20 ADD PUSH2 0x30E0 SWAP5 SWAP4 SWAP3 SWAP2 SWAP1 SWAP4 DUP5 MSTORE PUSH1 0x60 SWAP3 SWAP1 SWAP3 SHL PUSH32 0xFFFFFFFFFFFFFFFFFFFFFFFFFFFFFFFFFFFFFFFF000000000000000000000000 AND PUSH1 0x20 DUP5 ADD MSTORE PUSH1 0x34 DUP4 ADD MSTORE PUSH1 0x54 DUP3 ADD MSTORE PUSH1 0x74 ADD SWAP1 JUMP JUMPDEST PUSH1 0x40 MLOAD PUSH1 0x20 DUP2 DUP4 SUB SUB DUP2 MSTORE SWAP1 PUSH1 0x40 MSTORE DUP1 MLOAD SWAP1 PUSH1 0x20 ADD KECCAK256 PUSH1 0x0 SHR SWAP1 POP PUSH1 0x0 DUP6 PUSH1 0x8 ADD SLOAD DUP3 PUSH2 0x310D SWAP2 SWAP1 PUSH2 0x465E JUMP JUMPDEST SWAP1 POP PUSH1 0x0 JUMPDEST PUSH1 0x7 DUP8 ADD SLOAD DUP2 LT ISZERO PUSH2 0x31EC JUMPI PUSH1 0x0 DUP8 PUSH1 0x7 ADD DUP3 DUP2 SLOAD DUP2 LT PUSH2 0x3135 JUMPI PUSH2 0x3135 PUSH2 0x4309 JUMP JUMPDEST SWAP1 PUSH1 0x0 MSTORE PUSH1 0x20 PUSH1 0x0 KECCAK256 ADD SLOAD SWAP1 POP DUP3 DUP2 GT ISZERO PUSH2 0x31CC JUMPI DUP8 PUSH1 0x5 ADD DUP3 DUP2 SLOAD DUP2 LT PUSH2 0x315F JUMPI PUSH2 0x315F PUSH2 0x4309 JUMP JUMPDEST SWAP1 PUSH1 0x0 MSTORE PUSH1 0x20 PUSH1 0x0 KECCAK256 ADD SLOAD DUP8 DUP7 DUP2 MLOAD DUP2 LT PUSH2 0x317C JUMPI PUSH2 0x317C PUSH2 0x4309 JUMP JUMPDEST PUSH1 0x20 MUL PUSH1 0x20 ADD ADD DUP2 DUP2 MSTORE POP POP DUP8 PUSH1 0x6 ADD DUP3 DUP2 SLOAD DUP2 LT PUSH2 0x319D JUMPI PUSH2 0x319D PUSH2 0x4309 JUMP JUMPDEST SWAP1 PUSH1 0x0 MSTORE PUSH1 0x20 PUSH1 0x0 KECCAK256 ADD SLOAD DUP7 DUP7 DUP2 MLOAD DUP2 LT PUSH2 0x31BA JUMPI PUSH2 0x31BA PUSH2 0x4309 JUMP JUMPDEST PUSH1 0x20 MUL PUSH1 0x20 ADD ADD DUP2 DUP2 MSTORE POP POP POP PUSH2 0x31EC JUMP JUMPDEST PUSH2 0x31D6 DUP2 DUP5 PUSH2 0x42E3 JUMP JUMPDEST SWAP3 POP POP DUP1 DUP1 PUSH2 0x31E4 SWAP1 PUSH2 0x4338 JUMP JUMPDEST SWAP2 POP POP PUSH2 0x3112 JUMP JUMPDEST POP POP POP DUP1 DUP1 PUSH2 0x31FA SWAP1 PUSH2 0x4338 JUMP JUMPDEST SWAP2 POP POP PUSH2 0x3068 JUMP JUMPDEST POP PUSH1 0x4 DUP4 DUP2 ADD SLOAD PUSH1 0x40 MLOAD PUSH32 0x91D1485400000000000000000000000000000000000000000000000000000000 DUP2 MSTORE PUSH32 0xC9EB32E43BF5ECBCEACF00B32281DFC5D6D700A0DB676EA26CCF938A385AC3F7 SWAP3 DUP2 ADD SWAP3 SWAP1 SWAP3 MSTORE ADDRESS PUSH1 0x24 DUP4 ADD MSTORE PUSH20 0xFFFFFFFFFFFFFFFFFFFFFFFFFFFFFFFFFFFFFFFF AND SWAP1 PUSH4 0x91D14854 SWAP1 PUSH1 0x44 ADD PUSH1 0x20 PUSH1 0x40 MLOAD DUP1 DUP4 SUB DUP2 DUP7 GAS STATICCALL ISZERO DUP1 ISZERO PUSH2 0x329A JUMPI RETURNDATASIZE PUSH1 0x0 DUP1 RETURNDATACOPY RETURNDATASIZE PUSH1 0x0 REVERT JUMPDEST POP POP POP POP PUSH1 0x40 MLOAD RETURNDATASIZE PUSH1 0x1F NOT PUSH1 0x1F DUP3 ADD AND DUP3 ADD DUP1 PUSH1 0x40 MSTORE POP DUP2 ADD SWAP1 PUSH2 0x32BE SWAP2 SWAP1 PUSH2 0x44E2 JUMP JUMPDEST ISZERO PUSH2 0x3342 JUMPI PUSH1 0x4 DUP4 ADD SLOAD PUSH20 0xFFFFFFFFFFFFFFFFFFFFFFFFFFFFFFFFFFFFFFFF AND PUSH4 0x8F427C7 PUSH2 0x32EB PUSH2 0x2C0F JUMP JUMPDEST DUP5 DUP5 PUSH1 0x40 MLOAD DUP5 PUSH4 0xFFFFFFFF AND PUSH1 0xE0 SHL DUP2 MSTORE PUSH1 0x4 ADD PUSH2 0x330B SWAP4 SWAP3 SWAP2 SWAP1 PUSH2 0x4699 JUMP JUMPDEST PUSH1 0x0 PUSH1 0x40 MLOAD DUP1 DUP4 SUB DUP2 PUSH1 0x0 DUP8 DUP1 EXTCODESIZE ISZERO DUP1 ISZERO PUSH2 0x3325 JUMPI PUSH1 0x0 DUP1 REVERT JUMPDEST POP GAS CALL ISZERO DUP1 ISZERO PUSH2 0x3339 JUMPI RETURNDATASIZE PUSH1 0x0 DUP1 RETURNDATACOPY RETURNDATASIZE PUSH1 0x0 REVERT JUMPDEST POP POP POP POP PUSH2 0x33BF JUMP JUMPDEST PUSH1 0x4 DUP4 ADD SLOAD PUSH20 0xFFFFFFFFFFFFFFFFFFFFFFFFFFFFFFFFFFFFFFFF AND PUSH4 0x2EB2C2D6 ADDRESS PUSH2 0x336B PUSH2 0x2C0F JUMP JUMPDEST DUP6 DUP6 PUSH1 0x40 MLOAD DUP6 PUSH4 0xFFFFFFFF AND PUSH1 0xE0 SHL DUP2 MSTORE PUSH1 0x4 ADD PUSH2 0x338C SWAP5 SWAP4 SWAP3 SWAP2 SWAP1 PUSH2 0x46DA JUMP JUMPDEST PUSH1 0x0 PUSH1 0x40 MLOAD DUP1 DUP4 SUB DUP2 PUSH1 0x0 DUP8 DUP1 EXTCODESIZE ISZERO DUP1 ISZERO PUSH2 0x33A6 JUMPI PUSH1 0x0 DUP1 REVERT JUMPDEST POP GAS CALL ISZERO DUP1 ISZERO PUSH2 0x33BA JUMPI RETURNDATASIZE PUSH1 0x0 DUP1 RETURNDATACOPY RETURNDATASIZE PUSH1 0x0 REVERT JUMPDEST POP POP POP POP JUMPDEST DUP2 MLOAD PUSH2 0x33D4 SWAP1 PUSH1 0x2 DUP7 ADD SWAP1 PUSH1 0x20 DUP6 ADD SWAP1 PUSH2 0x39FC JUMP JUMPDEST POP DUP1 MLOAD PUSH2 0x33EA SWAP1 PUSH1 0x3 DUP7 ADD SWAP1 PUSH1 0x20 DUP5 ADD SWAP1 PUSH2 0x39FC JUMP JUMPDEST POP PUSH1 0x4 DUP5 ADD DUP1 SLOAD PUSH32 0xFFFFFFFFFFFFFFFFFFFFFFFFFFFFFFFFFFFFFFFFFFFFFFFFFFFFFFFFFFFFFF00 AND PUSH1 0x1 OR SWAP1 SSTORE DUP7 PUSH32 0xA90466A1141D4242085B5AC5C6634A366EC37AD66C953E191B51C3441E56010E DUP5 PUSH2 0x3443 PUSH2 0x2C0F JUMP JUMPDEST DUP10 DUP7 DUP7 PUSH1 0x40 MLOAD PUSH2 0x3457 SWAP6 SWAP5 SWAP4 SWAP3 SWAP2 SWAP1 PUSH2 0x4725 JUMP JUMPDEST PUSH1 0x40 MLOAD DUP1 SWAP2 SUB SWAP1 LOG2 POP POP POP POP POP POP POP JUMP JUMPDEST PUSH1 0x0 PUSH2 0x2B95 DUP4 DUP4 PUSH2 0x36EF JUMP JUMPDEST PUSH1 0x60 PUSH1 0x0 PUSH2 0x2B95 DUP4 PUSH2 0x373E JUMP JUMPDEST PUSH1 0x0 DUP3 PUSH1 0x0 ADD DUP3 DUP2 SLOAD DUP2 LT PUSH2 0x3498 JUMPI PUSH2 0x3498 PUSH2 0x4309 JUMP JUMPDEST SWAP1 PUSH1 0x0 MSTORE PUSH1 0x20 PUSH1 0x0 KECCAK256 ADD SLOAD SWAP1 POP SWAP3 SWAP2 POP POP JUMP JUMPDEST PUSH1 0x0 PUSH32 0xFFFFFFFF00000000000000000000000000000000000000000000000000000000 DUP3 AND PUSH32 0x4E2312E000000000000000000000000000000000000000000000000000000000 EQ DUP1 PUSH2 0x765 JUMPI POP PUSH32 0x1FFC9A700000000000000000000000000000000000000000000000000000000 PUSH32 0xFFFFFFFF00000000000000000000000000000000000000000000000000000000 DUP4 AND EQ PUSH2 0x765 JUMP JUMPDEST PUSH1 0x0 DUP3 DUP2 MSTORE PUSH1 0x2 PUSH1 0x20 SWAP1 DUP2 MSTORE PUSH1 0x40 DUP1 DUP4 KECCAK256 PUSH20 0xFFFFFFFFFFFFFFFFFFFFFFFFFFFFFFFFFFFFFFFF DUP6 AND DUP5 MSTORE SWAP1 SWAP2 MSTORE SWAP1 KECCAK256 SLOAD PUSH1 0xFF AND PUSH2 0xC26 JUMPI PUSH2 0x3582 DUP2 PUSH2 0x379A JUMP JUMPDEST PUSH2 0x358D DUP4 PUSH1 0x20 PUSH2 0x37B9 JUMP JUMPDEST PUSH1 0x40 MLOAD PUSH1 0x20 ADD PUSH2 0x359E SWAP3 SWAP2 SWAP1 PUSH2 0x47B0 JUMP JUMPDEST PUSH1 0x40 DUP1 MLOAD PUSH32 0xFFFFFFFFFFFFFFFFFFFFFFFFFFFFFFFFFFFFFFFFFFFFFFFFFFFFFFFFFFFFFFE0 DUP2 DUP5 SUB ADD DUP2 MSTORE SWAP1 DUP3 SWAP1 MSTORE PUSH32 0x8C379A000000000000000000000000000000000000000000000000000000000 DUP3 MSTORE PUSH2 0x89D SWAP2 PUSH1 0x4 ADD PUSH2 0x4831 JUMP JUMPDEST PUSH1 0x0 DUP2 DUP2 MSTORE PUSH1 0x1 DUP4 ADD PUSH1 0x20 MSTORE PUSH1 0x40 DUP2 KECCAK256 SLOAD DUP1 ISZERO PUSH2 0x36E5 JUMPI PUSH1 0x0 PUSH2 0x3620 PUSH1 0x1 DUP4 PUSH2 0x42E3 JUMP JUMPDEST DUP6 SLOAD SWAP1 SWAP2 POP PUSH1 0x0 SWAP1 PUSH2 0x3634 SWAP1 PUSH1 0x1 SWAP1 PUSH2 0x42E3 JUMP JUMPDEST SWAP1 POP DUP2 DUP2 EQ PUSH2 0x3699 JUMPI PUSH1 0x0 DUP7 PUSH1 0x0 ADD DUP3 DUP2 SLOAD DUP2 LT PUSH2 0x3654 JUMPI PUSH2 0x3654 PUSH2 0x4309 JUMP JUMPDEST SWAP1 PUSH1 0x0 MSTORE PUSH1 0x20 PUSH1 0x0 KECCAK256 ADD SLOAD SWAP1 POP DUP1 DUP8 PUSH1 0x0 ADD DUP5 DUP2 SLOAD DUP2 LT PUSH2 0x3677 JUMPI PUSH2 0x3677 PUSH2 0x4309 JUMP JUMPDEST PUSH1 0x0 SWAP2 DUP3 MSTORE PUSH1 0x20 DUP1 DUP4 KECCAK256 SWAP1 SWAP2 ADD SWAP3 SWAP1 SWAP3 SSTORE SWAP2 DUP3 MSTORE PUSH1 0x1 DUP9 ADD SWAP1 MSTORE PUSH1 0x40 SWAP1 KECCAK256 DUP4 SWAP1 SSTORE JUMPDEST DUP6 SLOAD DUP7 SWAP1 DUP1 PUSH2 0x36AA JUMPI PUSH2 0x36AA PUSH2 0x4882 JUMP JUMPDEST PUSH1 0x1 SWAP1 SUB DUP2 DUP2 SWAP1 PUSH1 0x0 MSTORE PUSH1 0x20 PUSH1 0x0 KECCAK256 ADD PUSH1 0x0 SWAP1 SSTORE SWAP1 SSTORE DUP6 PUSH1 0x1 ADD PUSH1 0x0 DUP7 DUP2 MSTORE PUSH1 0x20 ADD SWAP1 DUP2 MSTORE PUSH1 0x20 ADD PUSH1 0x0 KECCAK256 PUSH1 0x0 SWAP1 SSTORE PUSH1 0x1 SWAP4 POP POP POP POP PUSH2 0x765 JUMP JUMPDEST PUSH1 0x0 SWAP2 POP POP PUSH2 0x765 JUMP JUMPDEST PUSH1 0x0 DUP2 DUP2 MSTORE PUSH1 0x1 DUP4 ADD PUSH1 0x20 MSTORE PUSH1 0x40 DUP2 KECCAK256 SLOAD PUSH2 0x3736 JUMPI POP DUP2 SLOAD PUSH1 0x1 DUP2 DUP2 ADD DUP5 SSTORE PUSH1 0x0 DUP5 DUP2 MSTORE PUSH1 0x20 DUP1 DUP3 KECCAK256 SWAP1 SWAP4 ADD DUP5 SWAP1 SSTORE DUP5 SLOAD DUP5 DUP3 MSTORE DUP3 DUP7 ADD SWAP1 SWAP4 MSTORE PUSH1 0x40 SWAP1 KECCAK256 SWAP2 SWAP1 SWAP2 SSTORE PUSH2 0x765 JUMP JUMPDEST POP PUSH1 0x0 PUSH2 0x765 JUMP JUMPDEST PUSH1 0x60 DUP2 PUSH1 0x0 ADD DUP1 SLOAD DUP1 PUSH1 0x20 MUL PUSH1 0x20 ADD PUSH1 0x40 MLOAD SWAP1 DUP2 ADD PUSH1 0x40 MSTORE DUP1 SWAP3 SWAP2 SWAP1 DUP2 DUP2 MSTORE PUSH1 0x20 ADD DUP3 DUP1 SLOAD DUP1 ISZERO PUSH2 0x378E JUMPI PUSH1 0x20 MUL DUP3 ADD SWAP2 SWAP1 PUSH1 0x0 MSTORE PUSH1 0x20 PUSH1 0x0 KECCAK256 SWAP1 JUMPDEST DUP2 SLOAD DUP2 MSTORE PUSH1 0x20 ADD SWAP1 PUSH1 0x1 ADD SWAP1 DUP1 DUP4 GT PUSH2 0x377A JUMPI JUMPDEST POP POP POP POP POP SWAP1 POP SWAP2 SWAP1 POP JUMP JUMPDEST PUSH1 0x60 PUSH2 0x765 PUSH20 0xFFFFFFFFFFFFFFFFFFFFFFFFFFFFFFFFFFFFFFFF DUP4 AND PUSH1 0x14 JUMPDEST PUSH1 0x60 PUSH1 0x0 PUSH2 0x37C8 DUP4 PUSH1 0x2 PUSH2 0x48B1 JUMP JUMPDEST PUSH2 0x37D3 SWAP1 PUSH1 0x2 PUSH2 0x42F6 JUMP JUMPDEST PUSH8 0xFFFFFFFFFFFFFFFF DUP2 GT ISZERO PUSH2 0x37EB JUMPI PUSH2 0x37EB PUSH2 0x4019 JUMP JUMPDEST PUSH1 0x40 MLOAD SWAP1 DUP1 DUP3 MSTORE DUP1 PUSH1 0x1F ADD PUSH1 0x1F NOT AND PUSH1 0x20 ADD DUP3 ADD PUSH1 0x40 MSTORE DUP1 ISZERO PUSH2 0x3815 JUMPI PUSH1 0x20 DUP3 ADD DUP2 DUP1 CALLDATASIZE DUP4 CALLDATACOPY ADD SWAP1 POP JUMPDEST POP SWAP1 POP PUSH32 0x3000000000000000000000000000000000000000000000000000000000000000 DUP2 PUSH1 0x0 DUP2 MLOAD DUP2 LT PUSH2 0x384C JUMPI PUSH2 0x384C PUSH2 0x4309 JUMP JUMPDEST PUSH1 0x20 ADD ADD SWAP1 PUSH31 0xFFFFFFFFFFFFFFFFFFFFFFFFFFFFFFFFFFFFFFFFFFFFFFFFFFFFFFFFFFFFFF NOT AND SWAP1 DUP2 PUSH1 0x0 BYTE SWAP1 MSTORE8 POP PUSH32 0x7800000000000000000000000000000000000000000000000000000000000000 DUP2 PUSH1 0x1 DUP2 MLOAD DUP2 LT PUSH2 0x38AF JUMPI PUSH2 0x38AF PUSH2 0x4309 JUMP JUMPDEST PUSH1 0x20 ADD ADD SWAP1 PUSH31 0xFFFFFFFFFFFFFFFFFFFFFFFFFFFFFFFFFFFFFFFFFFFFFFFFFFFFFFFFFFFFFF NOT AND SWAP1 DUP2 PUSH1 0x0 BYTE SWAP1 MSTORE8 POP PUSH1 0x0 PUSH2 0x38EB DUP5 PUSH1 0x2 PUSH2 0x48B1 JUMP JUMPDEST PUSH2 0x38F6 SWAP1 PUSH1 0x1 PUSH2 0x42F6 JUMP JUMPDEST SWAP1 POP JUMPDEST PUSH1 0x1 DUP2 GT ISZERO PUSH2 0x3993 JUMPI PUSH32 0x3031323334353637383961626364656600000000000000000000000000000000 DUP6 PUSH1 0xF AND PUSH1 0x10 DUP2 LT PUSH2 0x3937 JUMPI PUSH2 0x3937 PUSH2 0x4309 JUMP JUMPDEST BYTE PUSH1 0xF8 SHL DUP3 DUP3 DUP2 MLOAD DUP2 LT PUSH2 0x394D JUMPI PUSH2 0x394D PUSH2 0x4309 JUMP JUMPDEST PUSH1 0x20 ADD ADD SWAP1 PUSH31 0xFFFFFFFFFFFFFFFFFFFFFFFFFFFFFFFFFFFFFFFFFFFFFFFFFFFFFFFFFFFFFF NOT AND SWAP1 DUP2 PUSH1 0x0 BYTE SWAP1 MSTORE8 POP PUSH1 0x4 SWAP5 SWAP1 SWAP5 SHR SWAP4 PUSH2 0x398C DUP2 PUSH2 0x48EE JUMP JUMPDEST SWAP1 POP PUSH2 0x38F9 JUMP JUMPDEST POP DUP4 ISZERO PUSH2 0x2B95 JUMPI PUSH1 0x40 MLOAD PUSH32 0x8C379A000000000000000000000000000000000000000000000000000000000 DUP2 MSTORE PUSH1 0x20 PUSH1 0x4 DUP3 ADD DUP2 SWAP1 MSTORE PUSH1 0x24 DUP3 ADD MSTORE PUSH32 0x537472696E67733A20686578206C656E67746820696E73756666696369656E74 PUSH1 0x44 DUP3 ADD MSTORE PUSH1 0x64 ADD PUSH2 0x89D JUMP JUMPDEST DUP3 DUP1 SLOAD DUP3 DUP3 SSTORE SWAP1 PUSH1 0x0 MSTORE PUSH1 0x20 PUSH1 0x0 KECCAK256 SWAP1 DUP2 ADD SWAP3 DUP3 ISZERO PUSH2 0x3A37 JUMPI SWAP2 PUSH1 0x20 MUL DUP3 ADD JUMPDEST DUP3 DUP2 GT ISZERO PUSH2 0x3A37 JUMPI DUP3 MLOAD DUP3 SSTORE SWAP2 PUSH1 0x20 ADD SWAP2 SWAP1 PUSH1 0x1 ADD SWAP1 PUSH2 0x3A1C JUMP JUMPDEST POP PUSH2 0x3A43 SWAP3 SWAP2 POP PUSH2 0x3A47 JUMP JUMPDEST POP SWAP1 JUMP JUMPDEST JUMPDEST DUP1 DUP3 GT ISZERO PUSH2 0x3A43 JUMPI PUSH1 0x0 DUP2 SSTORE PUSH1 0x1 ADD PUSH2 0x3A48 JUMP JUMPDEST PUSH1 0x0 DUP1 PUSH1 0x40 DUP4 DUP6 SUB SLT ISZERO PUSH2 0x3A6F JUMPI PUSH1 0x0 DUP1 REVERT JUMPDEST POP POP DUP1 CALLDATALOAD SWAP3 PUSH1 0x20 SWAP1 SWAP2 ADD CALLDATALOAD SWAP2 POP JUMP JUMPDEST PUSH1 0x0 DUP2 MLOAD DUP1 DUP5 MSTORE PUSH1 0x20 DUP1 DUP6 ADD SWAP5 POP DUP1 DUP5 ADD PUSH1 0x0 JUMPDEST DUP4 DUP2 LT ISZERO PUSH2 0x3AAE JUMPI DUP2 MLOAD DUP8 MSTORE SWAP6 DUP3 ADD SWAP6 SWAP1 DUP3 ADD SWAP1 PUSH1 0x1 ADD PUSH2 0x3A92 JUMP JUMPDEST POP SWAP5 SWAP6 SWAP5 POP POP POP POP POP JUMP JUMPDEST PUSH1 0x0 PUSH1 0x20 DUP1 DUP4 ADD DUP2 DUP5 MSTORE DUP1 DUP6 MLOAD DUP1 DUP4 MSTORE PUSH1 0x40 DUP7 ADD SWAP2 POP PUSH1 0x40 DUP2 PUSH1 0x5 SHL DUP8 ADD ADD SWAP3 POP DUP4 DUP8 ADD PUSH1 0x0 JUMPDEST DUP3 DUP2 LT ISZERO PUSH2 0x3B2C JUMPI PUSH32 0xFFFFFFFFFFFFFFFFFFFFFFFFFFFFFFFFFFFFFFFFFFFFFFFFFFFFFFFFFFFFFFC0 DUP9 DUP7 SUB ADD DUP5 MSTORE PUSH2 0x3B1A DUP6 DUP4 MLOAD PUSH2 0x3A7E JUMP JUMPDEST SWAP5 POP SWAP3 DUP6 ADD SWAP3 SWAP1 DUP6 ADD SWAP1 PUSH1 0x1 ADD PUSH2 0x3AE0 JUMP JUMPDEST POP SWAP3 SWAP8 SWAP7 POP POP POP POP POP POP POP JUMP JUMPDEST PUSH1 0x0 PUSH1 0x20 DUP3 DUP5 SUB SLT ISZERO PUSH2 0x3B4B JUMPI PUSH1 0x0 DUP1 REVERT JUMPDEST DUP2 CALLDATALOAD PUSH32 0xFFFFFFFF00000000000000000000000000000000000000000000000000000000 DUP2 AND DUP2 EQ PUSH2 0x2B95 JUMPI PUSH1 0x0 DUP1 REVERT JUMPDEST PUSH1 0x0 PUSH1 0x20 DUP3 DUP5 SUB SLT ISZERO PUSH2 0x3B8D JUMPI PUSH1 0x0 DUP1 REVERT JUMPDEST POP CALLDATALOAD SWAP2 SWAP1 POP JUMP JUMPDEST PUSH1 0x20 DUP2 MSTORE PUSH1 0x0 PUSH2 0x2B95 PUSH1 0x20 DUP4 ADD DUP5 PUSH2 0x3A7E JUMP JUMPDEST DUP1 CALLDATALOAD PUSH20 0xFFFFFFFFFFFFFFFFFFFFFFFFFFFFFFFFFFFFFFFF DUP2 AND DUP2 EQ PUSH2 0x3BCB JUMPI PUSH1 0x0 DUP1 REVERT JUMPDEST SWAP2 SWAP1 POP JUMP JUMPDEST PUSH1 0x0 DUP1 PUSH1 0x40 DUP4 DUP6 SUB SLT ISZERO PUSH2 0x3BE3 JUMPI PUSH1 0x0 DUP1 REVERT JUMPDEST DUP3 CALLDATALOAD SWAP2 POP PUSH2 0x3BF3 PUSH1 0x20 DUP5 ADD PUSH2 0x3BA7 JUMP JUMPDEST SWAP1 POP SWAP3 POP SWAP3 SWAP1 POP JUMP JUMPDEST PUSH1 0x0 PUSH1 0x20 DUP3 DUP5 SUB SLT ISZERO PUSH2 0x3C0E JUMPI PUSH1 0x0 DUP1 REVERT JUMPDEST PUSH2 0x2B95 DUP3 PUSH2 0x3BA7 JUMP JUMPDEST PUSH1 0x0 PUSH2 0x180 DUP3 MLOAD DUP5 MSTORE PUSH1 0x20 DUP4 ADD MLOAD PUSH2 0x3C47 PUSH1 0x20 DUP7 ADD DUP3 PUSH20 0xFFFFFFFFFFFFFFFFFFFFFFFFFFFFFFFFFFFFFFFF AND SWAP1 MSTORE JUMP JUMPDEST POP PUSH1 0x40 DUP4 ADD MLOAD DUP2 PUSH1 0x40 DUP7 ADD MSTORE PUSH2 0x3C5F DUP3 DUP7 ADD DUP3 PUSH2 0x3A7E JUMP JUMPDEST SWAP2 POP POP PUSH1 0x60 DUP4 ADD MLOAD DUP5 DUP3 SUB PUSH1 0x60 DUP7 ADD MSTORE PUSH2 0x3C79 DUP3 DUP3 PUSH2 0x3A7E JUMP JUMPDEST SWAP2 POP POP PUSH1 0x80 DUP4 ADD MLOAD PUSH2 0x3CA3 PUSH1 0x80 DUP7 ADD DUP3 PUSH20 0xFFFFFFFFFFFFFFFFFFFFFFFFFFFFFFFFFFFFFFFF AND SWAP1 MSTORE JUMP JUMPDEST POP PUSH1 0xA0 DUP4 ADD MLOAD DUP5 DUP3 SUB PUSH1 0xA0 DUP7 ADD MSTORE PUSH2 0x3CBB DUP3 DUP3 PUSH2 0x3A7E JUMP JUMPDEST SWAP2 POP POP PUSH1 0xC0 DUP4 ADD MLOAD DUP5 DUP3 SUB PUSH1 0xC0 DUP7 ADD MSTORE PUSH2 0x3CD5 DUP3 DUP3 PUSH2 0x3A7E JUMP JUMPDEST SWAP2 POP POP PUSH1 0xE0 DUP4 ADD MLOAD DUP5 DUP3 SUB PUSH1 0xE0 DUP7 ADD MSTORE PUSH2 0x3CEF DUP3 DUP3 PUSH2 0x3A7E JUMP JUMPDEST PUSH2 0x100 DUP6 DUP2 ADD MLOAD SWAP1 DUP8 ADD MSTORE PUSH2 0x120 DUP1 DUP7 ADD MLOAD SWAP1 DUP8 ADD MSTORE PUSH2 0x140 DUP1 DUP7 ADD MLOAD SWAP1 DUP8 ADD MSTORE PUSH2 0x160 SWAP5 DUP6 ADD MLOAD SWAP5 SWAP1 SWAP6 ADD SWAP4 SWAP1 SWAP4 MSTORE POP SWAP2 SWAP3 SWAP2 POP POP JUMP JUMPDEST PUSH1 0x0 PUSH1 0x20 DUP1 DUP4 ADD DUP2 DUP5 MSTORE DUP1 DUP6 MLOAD DUP1 DUP4 MSTORE PUSH1 0x40 DUP7 ADD SWAP2 POP PUSH1 0x40 DUP2 PUSH1 0x5 SHL DUP8 ADD ADD SWAP3 POP DUP4 DUP8 ADD PUSH1 0x0 JUMPDEST DUP3 DUP2 LT ISZERO PUSH2 0x3B2C JUMPI PUSH32 0xFFFFFFFFFFFFFFFFFFFFFFFFFFFFFFFFFFFFFFFFFFFFFFFFFFFFFFFFFFFFFFC0 DUP9 DUP7 SUB ADD DUP5 MSTORE PUSH2 0x3D88 DUP6 DUP4 MLOAD PUSH2 0x3C17 JUMP JUMPDEST SWAP5 POP SWAP3 DUP6 ADD SWAP3 SWAP1 DUP6 ADD SWAP1 PUSH1 0x1 ADD PUSH2 0x3D4E JUMP JUMPDEST PUSH1 0x0 DUP1 PUSH1 0x40 DUP4 DUP6 SUB SLT ISZERO PUSH2 0x3DAD JUMPI PUSH1 0x0 DUP1 REVERT JUMPDEST PUSH2 0x3DB6 DUP4 PUSH2 0x3BA7 JUMP JUMPDEST SWAP5 PUSH1 0x20 SWAP4 SWAP1 SWAP4 ADD CALLDATALOAD SWAP4 POP POP POP JUMP JUMPDEST DUP1 MLOAD DUP3 MSTORE PUSH1 0x20 DUP2 ADD MLOAD PUSH1 0x20 DUP4 ADD MSTORE PUSH1 0x0 PUSH1 0x40 DUP3 ADD MLOAD PUSH1 0xA0 PUSH1 0x40 DUP6 ADD MSTORE PUSH2 0x3DED PUSH1 0xA0 DUP6 ADD DUP3 PUSH2 0x3A7E JUMP JUMPDEST SWAP1 POP PUSH1 0x60 DUP4 ADD MLOAD DUP5 DUP3 SUB PUSH1 0x60 DUP7 ADD MSTORE PUSH2 0x3E06 DUP3 DUP3 PUSH2 0x3A7E JUMP JUMPDEST SWAP2 POP POP PUSH1 0x80 DUP4 ADD MLOAD ISZERO ISZERO PUSH1 0x80 DUP6 ADD MSTORE DUP1 SWAP2 POP POP SWAP3 SWAP2 POP POP JUMP JUMPDEST PUSH1 0x0 PUSH1 0x20 DUP1 DUP4 ADD DUP2 DUP5 MSTORE DUP1 DUP6 MLOAD DUP1 DUP4 MSTORE PUSH1 0x40 DUP7 ADD SWAP2 POP PUSH1 0x40 DUP2 PUSH1 0x5 SHL DUP8 ADD ADD SWAP3 POP DUP4 DUP8 ADD PUSH1 0x0 JUMPDEST DUP3 DUP2 LT ISZERO PUSH2 0x3B2C JUMPI PUSH32 0xFFFFFFFFFFFFFFFFFFFFFFFFFFFFFFFFFFFFFFFFFFFFFFFFFFFFFFFFFFFFFFC0 DUP9 DUP7 SUB ADD DUP5 MSTORE PUSH2 0x3E80 DUP6 DUP4 MLOAD PUSH2 0x3DC4 JUMP JUMPDEST SWAP5 POP SWAP3 DUP6 ADD SWAP3 SWAP1 DUP6 ADD SWAP1 PUSH1 0x1 ADD PUSH2 0x3E46 JUMP JUMPDEST DUP1 PUSH1 0x40 DUP2 ADD DUP4 LT ISZERO PUSH2 0x765 JUMPI PUSH1 0x0 DUP1 REVERT JUMPDEST PUSH1 0x0 DUP1 PUSH1 0x0 DUP1 PUSH1 0x0 DUP1 PUSH1 0x0 PUSH1 0xE0 DUP9 DUP11 SUB SLT ISZERO PUSH2 0x3EBE JUMPI PUSH1 0x0 DUP1 REVERT JUMPDEST DUP8 CALLDATALOAD SWAP7 POP PUSH2 0x3ECF DUP10 PUSH1 0x20 DUP11 ADD PUSH2 0x3E92 JUMP JUMPDEST SWAP6 POP PUSH1 0x60 DUP9 ADD CALLDATALOAD PUSH8 0xFFFFFFFFFFFFFFFF DUP1 DUP3 GT ISZERO PUSH2 0x3EEC JUMPI PUSH1 0x0 DUP1 REVERT JUMPDEST PUSH2 0x3EF8 DUP12 DUP4 DUP13 ADD PUSH2 0x3E92 JUMP JUMPDEST SWAP7 POP PUSH1 0x80 DUP11 ADD CALLDATALOAD SWAP2 POP DUP1 DUP3 GT ISZERO PUSH2 0x3F0E JUMPI PUSH1 0x0 DUP1 REVERT JUMPDEST PUSH2 0x3F1A DUP12 DUP4 DUP13 ADD PUSH2 0x3E92 JUMP JUMPDEST SWAP6 POP PUSH1 0xA0 DUP11 ADD CALLDATALOAD SWAP2 POP DUP1 DUP3 GT ISZERO PUSH2 0x3F30 JUMPI PUSH1 0x0 DUP1 REVERT JUMPDEST DUP2 DUP11 ADD SWAP2 POP DUP11 PUSH1 0x1F DUP4 ADD SLT PUSH2 0x3F44 JUMPI PUSH1 0x0 DUP1 REVERT JUMPDEST DUP2 CALLDATALOAD DUP2 DUP2 GT ISZERO PUSH2 0x3F53 JUMPI PUSH1 0x0 DUP1 REVERT JUMPDEST DUP12 PUSH1 0x20 DUP3 PUSH1 0x5 SHL DUP6 ADD ADD GT ISZERO PUSH2 0x3F68 JUMPI PUSH1 0x0 DUP1 REVERT JUMPDEST PUSH1 0x20 DUP4 ADD SWAP6 POP DUP1 SWAP5 POP POP POP POP PUSH1 0xC0 DUP9 ADD CALLDATALOAD SWAP1 POP SWAP3 SWAP6 SWAP9 SWAP2 SWAP5 SWAP8 POP SWAP3 SWAP6 POP JUMP JUMPDEST PUSH1 0x20 DUP2 MSTORE PUSH1 0x0 PUSH2 0x2B95 PUSH1 0x20 DUP4 ADD DUP5 PUSH2 0x3C17 JUMP JUMPDEST PUSH1 0x0 DUP1 PUSH1 0x0 PUSH1 0x60 DUP5 DUP7 SUB SLT ISZERO PUSH2 0x3FAF JUMPI PUSH1 0x0 DUP1 REVERT JUMPDEST PUSH2 0x3FB8 DUP5 PUSH2 0x3BA7 JUMP JUMPDEST SWAP6 PUSH1 0x20 DUP6 ADD CALLDATALOAD SWAP6 POP PUSH1 0x40 SWAP1 SWAP5 ADD CALLDATALOAD SWAP4 SWAP3 POP POP POP JUMP JUMPDEST PUSH1 0x20 DUP2 MSTORE PUSH1 0x0 PUSH2 0x2B95 PUSH1 0x20 DUP4 ADD DUP5 PUSH2 0x3DC4 JUMP JUMPDEST PUSH1 0x0 DUP1 PUSH1 0x0 DUP1 PUSH1 0x80 DUP6 DUP8 SUB SLT ISZERO PUSH2 0x3FF6 JUMPI PUSH1 0x0 DUP1 REVERT JUMPDEST PUSH2 0x3FFF DUP6 PUSH2 0x3BA7 JUMP JUMPDEST SWAP7 PUSH1 0x20 DUP7 ADD CALLDATALOAD SWAP7 POP PUSH1 0x40 DUP7 ADD CALLDATALOAD SWAP6 PUSH1 0x60 ADD CALLDATALOAD SWAP5 POP SWAP3 POP POP POP JUMP JUMPDEST PUSH32 0x4E487B7100000000000000000000000000000000000000000000000000000000 PUSH1 0x0 MSTORE PUSH1 0x41 PUSH1 0x4 MSTORE PUSH1 0x24 PUSH1 0x0 REVERT JUMPDEST PUSH1 0x40 MLOAD PUSH1 0x1F DUP3 ADD PUSH32 0xFFFFFFFFFFFFFFFFFFFFFFFFFFFFFFFFFFFFFFFFFFFFFFFFFFFFFFFFFFFFFFE0 AND DUP2 ADD PUSH8 0xFFFFFFFFFFFFFFFF DUP2 GT DUP3 DUP3 LT OR ISZERO PUSH2 0x408F JUMPI PUSH2 0x408F PUSH2 0x4019 JUMP JUMPDEST PUSH1 0x40 MSTORE SWAP2 SWAP1 POP JUMP JUMPDEST PUSH1 0x0 DUP3 PUSH1 0x1F DUP4 ADD SLT PUSH2 0x40A8 JUMPI PUSH1 0x0 DUP1 REVERT JUMPDEST DUP2 CALLDATALOAD PUSH1 0x20 PUSH8 0xFFFFFFFFFFFFFFFF DUP3 GT ISZERO PUSH2 0x40C4 JUMPI PUSH2 0x40C4 PUSH2 0x4019 JUMP JUMPDEST DUP2 PUSH1 0x5 SHL PUSH2 0x40D3 DUP3 DUP3 ADD PUSH2 0x4048 JUMP JUMPDEST SWAP3 DUP4 MSTORE DUP5 DUP2 ADD DUP3 ADD SWAP3 DUP3 DUP2 ADD SWAP1 DUP8 DUP6 GT ISZERO PUSH2 0x40ED JUMPI PUSH1 0x0 DUP1 REVERT JUMPDEST DUP4 DUP8 ADD SWAP3 POP JUMPDEST DUP5 DUP4 LT ISZERO PUSH2 0x410C JUMPI DUP3 CALLDATALOAD DUP3 MSTORE SWAP2 DUP4 ADD SWAP2 SWAP1 DUP4 ADD SWAP1 PUSH2 0x40F3 JUMP JUMPDEST SWAP8 SWAP7 POP POP POP POP POP POP POP JUMP JUMPDEST PUSH1 0x0 DUP3 PUSH1 0x1F DUP4 ADD SLT PUSH2 0x4128 JUMPI PUSH1 0x0 DUP1 REVERT JUMPDEST DUP2 CALLDATALOAD PUSH8 0xFFFFFFFFFFFFFFFF DUP2 GT ISZERO PUSH2 0x4142 JUMPI PUSH2 0x4142 PUSH2 0x4019 JUMP JUMPDEST PUSH2 0x4173 PUSH1 0x20 PUSH32 0xFFFFFFFFFFFFFFFFFFFFFFFFFFFFFFFFFFFFFFFFFFFFFFFFFFFFFFFFFFFFFFE0 PUSH1 0x1F DUP5 ADD AND ADD PUSH2 0x4048 JUMP JUMPDEST DUP2 DUP2 MSTORE DUP5 PUSH1 0x20 DUP4 DUP7 ADD ADD GT ISZERO PUSH2 0x4188 JUMPI PUSH1 0x0 DUP1 REVERT JUMPDEST DUP2 PUSH1 0x20 DUP6 ADD PUSH1 0x20 DUP4 ADD CALLDATACOPY PUSH1 0x0 SWAP2 DUP2 ADD PUSH1 0x20 ADD SWAP2 SWAP1 SWAP2 MSTORE SWAP4 SWAP3 POP POP POP JUMP JUMPDEST PUSH1 0x0 DUP1 PUSH1 0x0 DUP1 PUSH1 0x0 PUSH1 0xA0 DUP7 DUP9 SUB SLT ISZERO PUSH2 0x41BD JUMPI PUSH1 0x0 DUP1 REVERT JUMPDEST PUSH2 0x41C6 DUP7 PUSH2 0x3BA7 JUMP JUMPDEST SWAP5 POP PUSH2 0x41D4 PUSH1 0x20 DUP8 ADD PUSH2 0x3BA7 JUMP JUMPDEST SWAP4 POP PUSH1 0x40 DUP7 ADD CALLDATALOAD PUSH8 0xFFFFFFFFFFFFFFFF DUP1 DUP3 GT ISZERO PUSH2 0x41F1 JUMPI PUSH1 0x0 DUP1 REVERT JUMPDEST PUSH2 0x41FD DUP10 DUP4 DUP11 ADD PUSH2 0x4097 JUMP JUMPDEST SWAP5 POP PUSH1 0x60 DUP9 ADD CALLDATALOAD SWAP2 POP DUP1 DUP3 GT ISZERO PUSH2 0x4213 JUMPI PUSH1 0x0 DUP1 REVERT JUMPDEST PUSH2 0x421F DUP10 DUP4 DUP11 ADD PUSH2 0x4097 JUMP JUMPDEST SWAP4 POP PUSH1 0x80 DUP9 ADD CALLDATALOAD SWAP2 POP DUP1 DUP3 GT ISZERO PUSH2 0x4235 JUMPI PUSH1 0x0 DUP1 REVERT JUMPDEST POP PUSH2 0x4242 DUP9 DUP3 DUP10 ADD PUSH2 0x4117 JUMP JUMPDEST SWAP2 POP POP SWAP3 SWAP6 POP SWAP3 SWAP6 SWAP1 SWAP4 POP JUMP JUMPDEST PUSH1 0x0 DUP1 PUSH1 0x0 DUP1 PUSH1 0x0 PUSH1 0xA0 DUP7 DUP9 SUB SLT ISZERO PUSH2 0x4267 JUMPI PUSH1 0x0 DUP1 REVERT JUMPDEST PUSH2 0x4270 DUP7 PUSH2 0x3BA7 JUMP JUMPDEST SWAP5 POP PUSH2 0x427E PUSH1 0x20 DUP8 ADD PUSH2 0x3BA7 JUMP JUMPDEST SWAP4 POP PUSH1 0x40 DUP7 ADD CALLDATALOAD SWAP3 POP PUSH1 0x60 DUP7 ADD CALLDATALOAD SWAP2 POP PUSH1 0x80 DUP7 ADD CALLDATALOAD PUSH8 0xFFFFFFFFFFFFFFFF DUP2 GT ISZERO PUSH2 0x42A8 JUMPI PUSH1 0x0 DUP1 REVERT JUMPDEST PUSH2 0x4242 DUP9 DUP3 DUP10 ADD PUSH2 0x4117 JUMP JUMPDEST PUSH32 0x4E487B7100000000000000000000000000000000000000000000000000000000 PUSH1 0x0 MSTORE PUSH1 0x11 PUSH1 0x4 MSTORE PUSH1 0x24 PUSH1 0x0 REVERT JUMPDEST DUP2 DUP2 SUB DUP2 DUP2 GT ISZERO PUSH2 0x765 JUMPI PUSH2 0x765 PUSH2 0x42B4 JUMP JUMPDEST DUP1 DUP3 ADD DUP1 DUP3 GT ISZERO PUSH2 0x765 JUMPI PUSH2 0x765 PUSH2 0x42B4 JUMP JUMPDEST PUSH32 0x4E487B7100000000000000000000000000000000000000000000000000000000 PUSH1 0x0 MSTORE PUSH1 0x32 PUSH1 0x4 MSTORE PUSH1 0x24 PUSH1 0x0 REVERT JUMPDEST PUSH1 0x0 PUSH32 0xFFFFFFFFFFFFFFFFFFFFFFFFFFFFFFFFFFFFFFFFFFFFFFFFFFFFFFFFFFFFFFFF DUP3 SUB PUSH2 0x4369 JUMPI PUSH2 0x4369 PUSH2 0x42B4 JUMP JUMPDEST POP PUSH1 0x1 ADD SWAP1 JUMP JUMPDEST PUSH1 0x0 DUP2 SLOAD DUP1 DUP5 MSTORE PUSH1 0x20 DUP1 DUP6 ADD SWAP5 POP DUP4 PUSH1 0x0 MSTORE DUP1 PUSH1 0x0 KECCAK256 PUSH1 0x0 JUMPDEST DUP4 DUP2 LT ISZERO PUSH2 0x3AAE JUMPI DUP2 SLOAD DUP8 MSTORE SWAP6 DUP3 ADD SWAP6 PUSH1 0x1 SWAP2 DUP3 ADD SWAP2 ADD PUSH2 0x4389 JUMP JUMPDEST PUSH1 0x0 PUSH2 0x180 DUP3 SLOAD DUP5 MSTORE PUSH2 0x43CF PUSH1 0x1 DUP5 ADD SLOAD PUSH20 0xFFFFFFFFFFFFFFFFFFFFFFFFFFFFFFFFFFFFFFFF AND SWAP1 JUMP JUMPDEST PUSH20 0xFFFFFFFFFFFFFFFFFFFFFFFFFFFFFFFFFFFFFFFF AND PUSH1 0x20 DUP6 ADD MSTORE PUSH1 0x40 DUP5 ADD DUP2 SWAP1 MSTORE PUSH2 0x4400 DUP2 DUP6 ADD PUSH1 0x2 DUP6 ADD PUSH2 0x4370 JUMP JUMPDEST SWAP1 POP DUP4 DUP2 SUB PUSH1 0x60 DUP6 ADD MSTORE PUSH2 0x4417 DUP2 PUSH1 0x3 DUP6 ADD PUSH2 0x4370 JUMP JUMPDEST SWAP1 POP PUSH2 0x443A PUSH1 0x4 DUP5 ADD SLOAD PUSH20 0xFFFFFFFFFFFFFFFFFFFFFFFFFFFFFFFFFFFFFFFF AND SWAP1 JUMP JUMPDEST PUSH20 0xFFFFFFFFFFFFFFFFFFFFFFFFFFFFFFFFFFFFFFFF AND PUSH1 0x80 DUP6 ADD MSTORE DUP4 DUP2 SUB PUSH1 0xA0 DUP6 ADD MSTORE PUSH2 0x446A DUP2 PUSH1 0x5 DUP6 ADD PUSH2 0x4370 JUMP JUMPDEST SWAP1 POP DUP4 DUP2 SUB PUSH1 0xC0 DUP6 ADD MSTORE PUSH2 0x4481 DUP2 PUSH1 0x6 DUP6 ADD PUSH2 0x4370 JUMP JUMPDEST SWAP1 POP DUP4 DUP2 SUB PUSH1 0xE0 DUP6 ADD MSTORE PUSH2 0x4498 DUP2 PUSH1 0x7 DUP6 ADD PUSH2 0x4370 JUMP JUMPDEST PUSH1 0x8 DUP5 ADD SLOAD PUSH2 0x100 DUP7 ADD MSTORE PUSH1 0x9 DUP5 ADD SLOAD PUSH2 0x120 DUP7 ADD MSTORE PUSH1 0xA DUP5 ADD SLOAD PUSH2 0x140 DUP7 ADD MSTORE PUSH1 0xB SWAP1 SWAP4 ADD SLOAD PUSH2 0x160 SWAP1 SWAP5 ADD SWAP4 SWAP1 SWAP4 MSTORE POP SWAP2 SWAP1 POP JUMP JUMPDEST PUSH1 0x20 DUP2 MSTORE PUSH1 0x0 PUSH2 0x2B95 PUSH1 0x20 DUP4 ADD DUP5 PUSH2 0x43A5 JUMP JUMPDEST PUSH1 0x0 PUSH1 0x20 DUP3 DUP5 SUB SLT ISZERO PUSH2 0x44F4 JUMPI PUSH1 0x0 DUP1 REVERT JUMPDEST DUP2 MLOAD DUP1 ISZERO ISZERO DUP2 EQ PUSH2 0x2B95 JUMPI PUSH1 0x0 DUP1 REVERT JUMPDEST PUSH20 0xFFFFFFFFFFFFFFFFFFFFFFFFFFFFFFFFFFFFFFFF DUP5 AND DUP2 MSTORE PUSH1 0x60 PUSH1 0x20 DUP3 ADD MSTORE PUSH1 0x0 PUSH2 0x4533 PUSH1 0x60 DUP4 ADD DUP6 PUSH2 0x4370 JUMP JUMPDEST DUP3 DUP2 SUB PUSH1 0x40 DUP5 ADD MSTORE PUSH2 0x4545 DUP2 DUP6 PUSH2 0x4370 JUMP JUMPDEST SWAP7 SWAP6 POP POP POP POP POP POP JUMP JUMPDEST PUSH1 0x0 PUSH20 0xFFFFFFFFFFFFFFFFFFFFFFFFFFFFFFFFFFFFFFFF DUP1 DUP8 AND DUP4 MSTORE DUP1 DUP7 AND PUSH1 0x20 DUP5 ADD MSTORE POP PUSH1 0xA0 PUSH1 0x40 DUP4 ADD MSTORE PUSH2 0x4588 PUSH1 0xA0 DUP4 ADD DUP6 PUSH2 0x4370 JUMP JUMPDEST DUP3 DUP2 SUB PUSH1 0x60 DUP5 ADD MSTORE PUSH2 0x459A DUP2 DUP6 PUSH2 0x4370 JUMP JUMPDEST DUP4 DUP2 SUB PUSH1 0x80 SWAP1 SWAP5 ADD SWAP4 SWAP1 SWAP4 MSTORE POP POP PUSH1 0x0 DUP2 MSTORE PUSH1 0x20 ADD SWAP5 SWAP4 POP POP POP POP JUMP JUMPDEST PUSH1 0x40 DUP2 MSTORE PUSH1 0x0 PUSH2 0x45CA PUSH1 0x40 DUP4 ADD DUP6 PUSH2 0x43A5 JUMP JUMPDEST SWAP1 POP PUSH20 0xFFFFFFFFFFFFFFFFFFFFFFFFFFFFFFFFFFFFFFFF DUP4 AND PUSH1 0x20 DUP4 ADD MSTORE SWAP4 SWAP3 POP POP POP JUMP JUMPDEST PUSH1 0x0 DUP1 DUP4 CALLDATALOAD PUSH32 0xFFFFFFFFFFFFFFFFFFFFFFFFFFFFFFFFFFFFFFFFFFFFFFFFFFFFFFFFFFFFFFE1 DUP5 CALLDATASIZE SUB ADD DUP2 SLT PUSH2 0x4624 JUMPI PUSH1 0x0 DUP1 REVERT JUMPDEST DUP4 ADD DUP1 CALLDATALOAD SWAP2 POP PUSH8 0xFFFFFFFFFFFFFFFF DUP3 GT ISZERO PUSH2 0x463F JUMPI PUSH1 0x0 DUP1 REVERT JUMPDEST PUSH1 0x20 ADD SWAP2 POP PUSH1 0x5 DUP2 SWAP1 SHL CALLDATASIZE SUB DUP3 SGT ISZERO PUSH2 0x4657 JUMPI PUSH1 0x0 DUP1 REVERT JUMPDEST SWAP3 POP SWAP3 SWAP1 POP JUMP JUMPDEST PUSH1 0x0 DUP3 PUSH2 0x4694 JUMPI PUSH32 0x4E487B7100000000000000000000000000000000000000000000000000000000 PUSH1 0x0 MSTORE PUSH1 0x12 PUSH1 0x4 MSTORE PUSH1 0x24 PUSH1 0x0 REVERT JUMPDEST POP MOD SWAP1 JUMP JUMPDEST PUSH20 0xFFFFFFFFFFFFFFFFFFFFFFFFFFFFFFFFFFFFFFFF DUP5 AND DUP2 MSTORE PUSH1 0x60 PUSH1 0x20 DUP3 ADD MSTORE PUSH1 0x0 PUSH2 0x46C8 PUSH1 0x60 DUP4 ADD DUP6 PUSH2 0x3A7E JUMP JUMPDEST DUP3 DUP2 SUB PUSH1 0x40 DUP5 ADD MSTORE PUSH2 0x4545 DUP2 DUP6 PUSH2 0x3A7E JUMP JUMPDEST PUSH1 0x0 PUSH20 0xFFFFFFFFFFFFFFFFFFFFFFFFFFFFFFFFFFFFFFFF DUP1 DUP8 AND DUP4 MSTORE DUP1 DUP7 AND PUSH1 0x20 DUP5 ADD MSTORE POP PUSH1 0xA0 PUSH1 0x40 DUP4 ADD MSTORE PUSH2 0x4713 PUSH1 0xA0 DUP4 ADD DUP6 PUSH2 0x3A7E JUMP JUMPDEST DUP3 DUP2 SUB PUSH1 0x60 DUP5 ADD MSTORE PUSH2 0x459A DUP2 DUP6 PUSH2 0x3A7E JUMP JUMPDEST PUSH1 0xA0 DUP2 MSTORE PUSH1 0x0 PUSH2 0x4738 PUSH1 0xA0 DUP4 ADD DUP9 PUSH2 0x43A5 JUMP JUMPDEST PUSH20 0xFFFFFFFFFFFFFFFFFFFFFFFFFFFFFFFFFFFFFFFF DUP8 AND PUSH1 0x20 DUP5 ADD MSTORE DUP6 PUSH1 0x40 DUP5 ADD MSTORE DUP3 DUP2 SUB PUSH1 0x60 DUP5 ADD MSTORE PUSH2 0x476C DUP2 DUP7 PUSH2 0x3A7E JUMP JUMPDEST SWAP1 POP DUP3 DUP2 SUB PUSH1 0x80 DUP5 ADD MSTORE PUSH2 0x4780 DUP2 DUP6 PUSH2 0x3A7E JUMP JUMPDEST SWAP9 SWAP8 POP POP POP POP POP POP POP POP JUMP JUMPDEST PUSH1 0x0 JUMPDEST DUP4 DUP2 LT ISZERO PUSH2 0x47A7 JUMPI DUP2 DUP2 ADD MLOAD DUP4 DUP3 ADD MSTORE PUSH1 0x20 ADD PUSH2 0x478F JUMP JUMPDEST POP POP PUSH1 0x0 SWAP2 ADD MSTORE JUMP JUMPDEST PUSH32 0x416363657373436F6E74726F6C3A206163636F756E7420000000000000000000 DUP2 MSTORE PUSH1 0x0 DUP4 MLOAD PUSH2 0x47E8 DUP2 PUSH1 0x17 DUP6 ADD PUSH1 0x20 DUP9 ADD PUSH2 0x478C JUMP JUMPDEST PUSH32 0x206973206D697373696E6720726F6C6520000000000000000000000000000000 PUSH1 0x17 SWAP2 DUP5 ADD SWAP2 DUP3 ADD MSTORE DUP4 MLOAD PUSH2 0x4825 DUP2 PUSH1 0x28 DUP5 ADD PUSH1 0x20 DUP9 ADD PUSH2 0x478C JUMP JUMPDEST ADD PUSH1 0x28 ADD SWAP5 SWAP4 POP POP POP POP JUMP JUMPDEST PUSH1 0x20 DUP2 MSTORE PUSH1 0x0 DUP3 MLOAD DUP1 PUSH1 0x20 DUP5 ADD MSTORE PUSH2 0x4850 DUP2 PUSH1 0x40 DUP6 ADD PUSH1 0x20 DUP8 ADD PUSH2 0x478C JUMP JUMPDEST PUSH1 0x1F ADD PUSH32 0xFFFFFFFFFFFFFFFFFFFFFFFFFFFFFFFFFFFFFFFFFFFFFFFFFFFFFFFFFFFFFFE0 AND SWAP2 SWAP1 SWAP2 ADD PUSH1 0x40 ADD SWAP3 SWAP2 POP POP JUMP JUMPDEST PUSH32 0x4E487B7100000000000000000000000000000000000000000000000000000000 PUSH1 0x0 MSTORE PUSH1 0x31 PUSH1 0x4 MSTORE PUSH1 0x24 PUSH1 0x0 REVERT JUMPDEST PUSH1 0x0 DUP2 PUSH32 0xFFFFFFFFFFFFFFFFFFFFFFFFFFFFFFFFFFFFFFFFFFFFFFFFFFFFFFFFFFFFFFFF DIV DUP4 GT DUP3 ISZERO ISZERO AND ISZERO PUSH2 0x48E9 JUMPI PUSH2 0x48E9 PUSH2 0x42B4 JUMP JUMPDEST POP MUL SWAP1 JUMP JUMPDEST PUSH1 0x0 DUP2 PUSH2 0x48FD JUMPI PUSH2 0x48FD PUSH2 0x42B4 JUMP JUMPDEST POP PUSH32 0xFFFFFFFFFFFFFFFFFFFFFFFFFFFFFFFFFFFFFFFFFFFFFFFFFFFFFFFFFFFFFFFF ADD SWAP1 JUMP INVALID LOG2 PUSH5 0x6970667358 0x22 SLT KECCAK256 0x4A NOT 0xE1 0x2B 0xFB GASLIMIT SWAP6 0x29 CODESIZE 0xE7 LOG0 0xB1 0xEE GAS STATICCALL SWAP13 0xC6 PUSH10 0x60D747A3E339148AD7E6 SWAP15 0xD8 GASPRICE BALANCE PUSH5 0x736F6C6343 STOP ADDMOD LT STOP CALLER "},"methodIdentifiers":{"DEFAULT_ADMIN_ROLE()":"a217fddf","allLootboxIds()":"ea61401a","allLootboxLastUpdates()":"7f416510","allLootboxes()":"de0ef5e4","allOpenedLootboxes(address,uint256)":"7f1d0ad2","claimLootbox(uint256,uint256)":"7ffb5c65","claimLootboxes(uint256)":"e1394b90","claimableBlockOffset()":"940502ea","getRoleAdmin(bytes32)":"248a9ca3","grantRole(bytes32,address)":"2f2ff15d","hasRole(bytes32,address)":"91d14854","isTrustedForwarder(address)":"572b6c05","lootbox(uint256)":"92e11500","lootboxId(uint256)":"e8c683fd","lootboxLastUpdate(uint256)":"0e1d1da7","onERC1155BatchReceived(address,address,uint256[],uint256[],bytes)":"bc197c81","onERC1155Received(address,address,uint256,uint256,bytes)":"f23a6e61","openLootbox(uint256)":"7ff48190","openedLootbox(address,uint256,uint256)":"94cba64e","paginateLootboxIds(uint256,uint256)":"5ec2d022","paginateLootboxLastUpdates(uint256,uint256)":"01bab168","paginateLootboxes(uint256,uint256)":"60234af9","paginateOpenedLootboxes(address,uint256,uint256,uint256)":"af90a2b7","removeLootbox(uint256)":"07af4117","renounceRole(bytes32,address)":"36568abe","revokeRole(bytes32,address)":"d547741f","setClaimableBlockOffset(uint256)":"021b0647","setLootbox(uint256,address[2],uint256[][2],uint256[][2],uint256[],uint256)":"8404adc1","supportsInterface(bytes4)":"01ffc9a7","systemId()":"39f898bc","totalClaimableLootboxes(address,uint256)":"abb5d942","totalLootboxes()":"826410fc","totalOpenedLootboxes(address,uint256)":"fbf3040d","transferOwnershipControl(address)":"4252ac3f","trustedForwarder()":"7da0a877","upgradeTrustedForwarder(address)":"aa2a7eea"}}}}}