{"contracts/Lootbox/Game_Lootbox.sol":{"Game_Lootbox":{"abi":[{"inputs":[{"internalType":"address","name":"_forwarder","type":"address"}],"stateMutability":"nonpayable","type":"constructor"},{"anonymous":false,"inputs":[{"indexed":true,"internalType":"uint256","name":"lootboxId","type":"uint256"},{"components":[{"internalType":"uint256","name":"id","type":"uint256"},{"internalType":"contract IERC1155","name":"inputCollection","type":"address"},{"internalType":"uint256[]","name":"inputCollectionItemIds","type":"uint256[]"},{"internalType":"uint256[]","name":"inputCollectionItemAmounts","type":"uint256[]"},{"internalType":"contract IERC1155","name":"outputCollection","type":"address"},{"internalType":"uint256[]","name":"outputCollectionItemIds","type":"uint256[]"},{"internalType":"uint256[]","name":"outputCollectionItemAmounts","type":"uint256[]"},{"internalType":"uint256[]","name":"outputCollectionItemWeights","type":"uint256[]"},{"internalType":"uint256","name":"outputTotalItemsWeight","type":"uint256"},{"internalType":"uint256","name":"outputTotalItems","type":"uint256"},{"internalType":"uint256","name":"opens","type":"uint256"},{"internalType":"uint256","name":"lastUpdatedAt","type":"uint256"}],"indexed":false,"internalType":"struct IGame_Lootbox.Lootbox","name":"lootbox","type":"tuple"},{"indexed":false,"internalType":"address","name":"user","type":"address"},{"indexed":false,"internalType":"uint256","name":"openedLootboxIndex","type":"uint256"},{"indexed":false,"internalType":"uint256[]","name":"outputCollectionItemIds","type":"uint256[]"},{"indexed":false,"internalType":"uint256[]","name":"outputCollectionItemAmounts","type":"uint256[]"}],"name":"LootboxClaimed","type":"event"},{"anonymous":false,"inputs":[{"indexed":true,"internalType":"uint256","name":"lootboxId","type":"uint256"},{"components":[{"internalType":"uint256","name":"id","type":"uint256"},{"internalType":"contract IERC1155","name":"inputCollection","type":"address"},{"internalType":"uint256[]","name":"inputCollectionItemIds","type":"uint256[]"},{"internalType":"uint256[]","name":"inputCollectionItemAmounts","type":"uint256[]"},{"internalType":"contract IERC1155","name":"outputCollection","type":"address"},{"internalType":"uint256[]","name":"outputCollectionItemIds","type":"uint256[]"},{"internalType":"uint256[]","name":"outputCollectionItemAmounts","type":"uint256[]"},{"internalType":"uint256[]","name":"outputCollectionItemWeights","type":"uint256[]"},{"internalType":"uint256","name":"outputTotalItemsWeight","type":"uint256"},{"internalType":"uint256","name":"outputTotalItems","type":"uint256"},{"internalType":"uint256","name":"opens","type":"uint256"},{"internalType":"uint256","name":"lastUpdatedAt","type":"uint256"}],"indexed":false,"internalType":"struct IGame_Lootbox.Lootbox","name":"lootbox","type":"tuple"},{"indexed":false,"internalType":"address","name":"user","type":"address"}],"name":"LootboxOpened","type":"event"},{"anonymous":false,"inputs":[{"indexed":true,"internalType":"uint256","name":"lootboxId","type":"uint256"},{"components":[{"internalType":"uint256","name":"id","type":"uint256"},{"internalType":"contract IERC1155","name":"inputCollection","type":"address"},{"internalType":"uint256[]","name":"inputCollectionItemIds","type":"uint256[]"},{"internalType":"uint256[]","name":"inputCollectionItemAmounts","type":"uint256[]"},{"internalType":"contract IERC1155","name":"outputCollection","type":"address"},{"internalType":"uint256[]","name":"outputCollectionItemIds","type":"uint256[]"},{"internalType":"uint256[]","name":"outputCollectionItemAmounts","type":"uint256[]"},{"internalType":"uint256[]","name":"outputCollectionItemWeights","type":"uint256[]"},{"internalType":"uint256","name":"outputTotalItemsWeight","type":"uint256"},{"internalType":"uint256","name":"outputTotalItems","type":"uint256"},{"internalType":"uint256","name":"opens","type":"uint256"},{"internalType":"uint256","name":"lastUpdatedAt","type":"uint256"}],"indexed":false,"internalType":"struct IGame_Lootbox.Lootbox","name":"lootbox","type":"tuple"}],"name":"LootboxRemoved","type":"event"},{"anonymous":false,"inputs":[{"indexed":true,"internalType":"uint256","name":"lootboxId","type":"uint256"},{"components":[{"internalType":"uint256","name":"id","type":"uint256"},{"internalType":"contract IERC1155","name":"inputCollection","type":"address"},{"internalType":"uint256[]","name":"inputCollectionItemIds","type":"uint256[]"},{"internalType":"uint256[]","name":"inputCollectionItemAmounts","type":"uint256[]"},{"internalType":"contract IERC1155","name":"outputCollection","type":"address"},{"internalType":"uint256[]","name":"outputCollectionItemIds","type":"uint256[]"},{"internalType":"uint256[]","name":"outputCollectionItemAmounts","type":"uint256[]"},{"internalType":"uint256[]","name":"outputCollectionItemWeights","type":"uint256[]"},{"internalType":"uint256","name":"outputTotalItemsWeight","type":"uint256"},{"internalType":"uint256","name":"outputTotalItems","type":"uint256"},{"internalType":"uint256","name":"opens","type":"uint256"},{"internalType":"uint256","name":"lastUpdatedAt","type":"uint256"}],"indexed":false,"internalType":"struct IGame_Lootbox.Lootbox","name":"lootbox","type":"tuple"}],"name":"LootboxSet","type":"event"},{"anonymous":false,"inputs":[{"indexed":true,"internalType":"bytes32","name":"role","type":"bytes32"},{"indexed":true,"internalType":"bytes32","name":"previousAdminRole","type":"bytes32"},{"indexed":true,"internalType":"bytes32","name":"newAdminRole","type":"bytes32"}],"name":"RoleAdminChanged","type":"event"},{"anonymous":false,"inputs":[{"indexed":true,"internalType":"bytes32","name":"role","type":"bytes32"},{"indexed":true,"internalType":"address","name":"account","type":"address"},{"indexed":true,"internalType":"address","name":"sender","type":"address"}],"name":"RoleGranted","type":"event"},{"anonymous":false,"inputs":[{"indexed":true,"internalType":"bytes32","name":"role","type":"bytes32"},{"indexed":true,"internalType":"address","name":"account","type":"address"},{"indexed":true,"internalType":"address","name":"sender","type":"address"}],"name":"RoleRevoked","type":"event"},{"inputs":[],"name":"DEFAULT_ADMIN_ROLE","outputs":[{"internalType":"bytes32","name":"","type":"bytes32"}],"stateMutability":"view","type":"function"},{"inputs":[],"name":"allLootboxIds","outputs":[{"internalType":"uint256[]","name":"","type":"uint256[]"}],"stateMutability":"view","type":"function"},{"inputs":[],"name":"allLootboxLastUpdates","outputs":[{"internalType":"uint256[][]","name":"","type":"uint256[][]"}],"stateMutability":"view","type":"function"},{"inputs":[],"name":"allLootboxes","outputs":[{"components":[{"internalType":"uint256","name":"id","type":"uint256"},{"internalType":"contract IERC1155","name":"inputCollection","type":"address"},{"internalType":"uint256[]","name":"inputCollectionItemIds","type":"uint256[]"},{"internalType":"uint256[]","name":"inputCollectionItemAmounts","type":"uint256[]"},{"internalType":"contract IERC1155","name":"outputCollection","type":"address"},{"internalType":"uint256[]","name":"outputCollectionItemIds","type":"uint256[]"},{"internalType":"uint256[]","name":"outputCollectionItemAmounts","type":"uint256[]"},{"internalType":"uint256[]","name":"outputCollectionItemWeights","type":"uint256[]"},{"internalType":"uint256","name":"outputTotalItemsWeight","type":"uint256"},{"internalType":"uint256","name":"outputTotalItems","type":"uint256"},{"internalType":"uint256","name":"opens","type":"uint256"},{"internalType":"uint256","name":"lastUpdatedAt","type":"uint256"}],"internalType":"struct IGame_Lootbox.Lootbox[]","name":"","type":"tuple[]"}],"stateMutability":"view","type":"function"},{"inputs":[{"internalType":"address","name":"_address","type":"address"},{"internalType":"uint256","name":"_lootboxId","type":"uint256"}],"name":"allOpenedLootboxes","outputs":[{"components":[{"internalType":"uint256","name":"lootboxId","type":"uint256"},{"internalType":"uint256","name":"claimSeedBlock","type":"uint256"},{"internalType":"uint256[]","name":"outputCollectionItemIds","type":"uint256[]"},{"internalType":"uint256[]","name":"outputCollectionItemAmounts","type":"uint256[]"},{"internalType":"bool","name":"claimed","type":"bool"}],"internalType":"struct IGame_Lootbox.OpenedLootbox[]","name":"","type":"tuple[]"}],"stateMutability":"view","type":"function"},{"inputs":[{"internalType":"uint256","name":"_lootboxId","type":"uint256"},{"internalType":"uint256","name":"_openedLootboxIndex","type":"uint256"}],"name":"claimLootbox","outputs":[],"stateMutability":"nonpayable","type":"function"},{"inputs":[{"internalType":"uint256","name":"_lootboxId","type":"uint256"}],"name":"claimLootboxes","outputs":[],"stateMutability":"nonpayable","type":"function"},{"inputs":[{"internalType":"bytes32","name":"role","type":"bytes32"}],"name":"getRoleAdmin","outputs":[{"internalType":"bytes32","name":"","type":"bytes32"}],"stateMutability":"view","type":"function"},{"inputs":[{"internalType":"bytes32","name":"role","type":"bytes32"},{"internalType":"address","name":"account","type":"address"}],"name":"grantRole","outputs":[],"stateMutability":"nonpayable","type":"function"},{"inputs":[{"internalType":"bytes32","name":"role","type":"bytes32"},{"internalType":"address","name":"account","type":"address"}],"name":"hasRole","outputs":[{"internalType":"bool","name":"","type":"bool"}],"stateMutability":"view","type":"function"},{"inputs":[{"internalType":"address","name":"forwarder","type":"address"}],"name":"isTrustedForwarder","outputs":[{"internalType":"bool","name":"","type":"bool"}],"stateMutability":"view","type":"function"},{"inputs":[{"internalType":"uint256","name":"_lootboxId","type":"uint256"}],"name":"lootbox","outputs":[{"components":[{"internalType":"uint256","name":"id","type":"uint256"},{"internalType":"contract IERC1155","name":"inputCollection","type":"address"},{"internalType":"uint256[]","name":"inputCollectionItemIds","type":"uint256[]"},{"internalType":"uint256[]","name":"inputCollectionItemAmounts","type":"uint256[]"},{"internalType":"contract IERC1155","name":"outputCollection","type":"address"},{"internalType":"uint256[]","name":"outputCollectionItemIds","type":"uint256[]"},{"internalType":"uint256[]","name":"outputCollectionItemAmounts","type":"uint256[]"},{"internalType":"uint256[]","name":"outputCollectionItemWeights","type":"uint256[]"},{"internalType":"uint256","name":"outputTotalItemsWeight","type":"uint256"},{"internalType":"uint256","name":"outputTotalItems","type":"uint256"},{"internalType":"uint256","name":"opens","type":"uint256"},{"internalType":"uint256","name":"lastUpdatedAt","type":"uint256"}],"internalType":"struct IGame_Lootbox.Lootbox","name":"","type":"tuple"}],"stateMutability":"view","type":"function"},{"inputs":[{"internalType":"uint256","name":"_index","type":"uint256"}],"name":"lootboxId","outputs":[{"internalType":"uint256","name":"","type":"uint256"}],"stateMutability":"view","type":"function"},{"inputs":[{"internalType":"uint256","name":"_lootboxId","type":"uint256"}],"name":"lootboxLastUpdate","outputs":[{"internalType":"uint256[]","name":"","type":"uint256[]"}],"stateMutability":"view","type":"function"},{"inputs":[{"internalType":"uint256","name":"_lootboxId","type":"uint256"}],"name":"openLootbox","outputs":[],"stateMutability":"nonpayable","type":"function"},{"inputs":[{"internalType":"address","name":"_address","type":"address"},{"internalType":"uint256","name":"_lootboxId","type":"uint256"},{"internalType":"uint256","name":"_openedLootboxIndex","type":"uint256"}],"name":"openedLootbox","outputs":[{"components":[{"internalType":"uint256","name":"lootboxId","type":"uint256"},{"internalType":"uint256","name":"claimSeedBlock","type":"uint256"},{"internalType":"uint256[]","name":"outputCollectionItemIds","type":"uint256[]"},{"internalType":"uint256[]","name":"outputCollectionItemAmounts","type":"uint256[]"},{"internalType":"bool","name":"claimed","type":"bool"}],"internalType":"struct IGame_Lootbox.OpenedLootbox","name":"","type":"tuple"}],"stateMutability":"view","type":"function"},{"inputs":[{"internalType":"uint256","name":"_startIndexInclusive","type":"uint256"},{"internalType":"uint256","name":"_limit","type":"uint256"}],"name":"paginateLootboxIds","outputs":[{"internalType":"uint256[]","name":"","type":"uint256[]"}],"stateMutability":"view","type":"function"},{"inputs":[{"internalType":"uint256","name":"_startIndexInclusive","type":"uint256"},{"internalType":"uint256","name":"_limit","type":"uint256"}],"name":"paginateLootboxLastUpdates","outputs":[{"internalType":"uint256[][]","name":"","type":"uint256[][]"}],"stateMutability":"view","type":"function"},{"inputs":[{"internalType":"uint256","name":"_startIndexInclusive","type":"uint256"},{"internalType":"uint256","name":"_limit","type":"uint256"}],"name":"paginateLootboxes","outputs":[{"components":[{"internalType":"uint256","name":"id","type":"uint256"},{"internalType":"contract IERC1155","name":"inputCollection","type":"address"},{"internalType":"uint256[]","name":"inputCollectionItemIds","type":"uint256[]"},{"internalType":"uint256[]","name":"inputCollectionItemAmounts","type":"uint256[]"},{"internalType":"contract IERC1155","name":"outputCollection","type":"address"},{"internalType":"uint256[]","name":"outputCollectionItemIds","type":"uint256[]"},{"internalType":"uint256[]","name":"outputCollectionItemAmounts","type":"uint256[]"},{"internalType":"uint256[]","name":"outputCollectionItemWeights","type":"uint256[]"},{"internalType":"uint256","name":"outputTotalItemsWeight","type":"uint256"},{"internalType":"uint256","name":"outputTotalItems","type":"uint256"},{"internalType":"uint256","name":"opens","type":"uint256"},{"internalType":"uint256","name":"lastUpdatedAt","type":"uint256"}],"internalType":"struct IGame_Lootbox.Lootbox[]","name":"","type":"tuple[]"}],"stateMutability":"view","type":"function"},{"inputs":[{"internalType":"address","name":"_address","type":"address"},{"internalType":"uint256","name":"_lootboxId","type":"uint256"},{"internalType":"uint256","name":"_startIndexInclusive","type":"uint256"},{"internalType":"uint256","name":"_limit","type":"uint256"}],"name":"paginateOpenedLootboxes","outputs":[{"components":[{"internalType":"uint256","name":"lootboxId","type":"uint256"},{"internalType":"uint256","name":"claimSeedBlock","type":"uint256"},{"internalType":"uint256[]","name":"outputCollectionItemIds","type":"uint256[]"},{"internalType":"uint256[]","name":"outputCollectionItemAmounts","type":"uint256[]"},{"internalType":"bool","name":"claimed","type":"bool"}],"internalType":"struct IGame_Lootbox.OpenedLootbox[]","name":"","type":"tuple[]"}],"stateMutability":"view","type":"function"},{"inputs":[{"internalType":"uint256","name":"_lootboxId","type":"uint256"}],"name":"removeLootbox","outputs":[],"stateMutability":"nonpayable","type":"function"},{"inputs":[{"internalType":"bytes32","name":"role","type":"bytes32"},{"internalType":"address","name":"account","type":"address"}],"name":"renounceRole","outputs":[],"stateMutability":"nonpayable","type":"function"},{"inputs":[{"internalType":"bytes32","name":"role","type":"bytes32"},{"internalType":"address","name":"account","type":"address"}],"name":"revokeRole","outputs":[],"stateMutability":"nonpayable","type":"function"},{"inputs":[{"internalType":"uint256","name":"_offset","type":"uint256"}],"name":"setClaimableBlockOffset","outputs":[],"stateMutability":"nonpayable","type":"function"},{"inputs":[{"internalType":"uint256","name":"_lootboxId","type":"uint256"},{"internalType":"address[2]","name":"_inputOutputCollections","type":"address[2]"},{"internalType":"uint256[][2]","name":"_inputOutputCollectionItemIds","type":"uint256[][2]"},{"internalType":"uint256[][2]","name":"_inputOutputCollectionItemAmounts","type":"uint256[][2]"},{"internalType":"uint256[]","name":"_outputCollectionItemWeights","type":"uint256[]"},{"internalType":"uint256","name":"_outputTotalItems","type":"uint256"}],"name":"setLootbox","outputs":[],"stateMutability":"nonpayable","type":"function"},{"inputs":[{"internalType":"bytes4","name":"interfaceId","type":"bytes4"}],"name":"supportsInterface","outputs":[{"internalType":"bool","name":"","type":"bool"}],"stateMutability":"view","type":"function"},{"inputs":[{"internalType":"address","name":"_address","type":"address"},{"internalType":"uint256","name":"_lootboxId","type":"uint256"}],"name":"totalClaimableLootboxes","outputs":[{"internalType":"uint256","name":"","type":"uint256"}],"stateMutability":"view","type":"function"},{"inputs":[],"name":"totalLootboxes","outputs":[{"internalType":"uint256","name":"","type":"uint256"}],"stateMutability":"view","type":"function"},{"inputs":[{"internalType":"address","name":"_address","type":"address"},{"internalType":"uint256","name":"_lootboxId","type":"uint256"}],"name":"totalOpenedLootboxes","outputs":[{"internalType":"uint256","name":"","type":"uint256"}],"stateMutability":"view","type":"function"},{"inputs":[{"internalType":"address","name":"_newTrustedForwarder","type":"address"}],"name":"upgradeTrustedForwarder","outputs":[],"stateMutability":"nonpayable","type":"function"}],"evm":{"bytecode":{"linkReferences":{},"object":"608060405260016007553480156200001657600080fd5b50604051620044fa380380620044fa8339810160408190526200003991620001b1565b600080546001600160a01b0319166001600160a01b03831617815560016002556200006e9062000068620000a4565b620000c0565b6200009d7fc9fc9949603a50f5cc3a96f774f1d68287789a241d2082dc81d0fb19a53bcf2b62000068620000a4565b50620001e3565b6000620000bb620000d060201b620028cf1760201c565b905090565b620000cc828262000106565b5050565b600080546001600160a01b03163303620000f1575060131936013560601c90565b620000bb620001ad60201b6200291f1760201c565b60008281526001602090815260408083206001600160a01b038516845290915290205460ff16620000cc5760008281526001602081815260408084206001600160a01b0386168552909152909120805460ff1916909117905562000169620000a4565b6001600160a01b0316816001600160a01b0316837f2f8788117e7eff1d82e926ec794901d17c78024a50270940304540a733656f0d60405160405180910390a45050565b3390565b600060208284031215620001c457600080fd5b81516001600160a01b0381168114620001dc57600080fd5b9392505050565b61430780620001f36000396000f3fe608060405234801561001057600080fd5b50600436106101da5760003560e01c8063826410fc11610104578063abb5d942116100a2578063e1394b9011610071578063e1394b9014610478578063e8c683fd1461048b578063ea61401a1461049e578063fbf3040d146104a657600080fd5b8063abb5d94214610437578063af90a2b71461044a578063d547741f1461045d578063de0ef5e41461047057600080fd5b806392e11500116100de57806392e11500146103dc57806394cba64e146103fc578063a217fddf1461041c578063aa2a7eea1461042457600080fd5b8063826410fc1461037b5780638404adc11461038357806391d148541461039657600080fd5b806336568abe1161017c5780637f1d0ad21161014b5780637f1d0ad21461032d5780637f4165101461034d5780637ff48190146103555780637ffb5c651461036857600080fd5b806336568abe146102b8578063572b6c05146102cb5780635ec2d022146102fa57806360234af91461030d57600080fd5b806307af4117116101b857806307af4117146102405780630e1d1da714610253578063248a9ca3146102735780632f2ff15d146102a557600080fd5b806301bab168146101df57806301ffc9a714610208578063021b06471461022b575b600080fd5b6101f26101ed366004613676565b6104e9565b6040516101ff91906136d3565b60405180910390f35b61021b610216366004613753565b6105df565b60405190151581526020016101ff565b61023e610239366004613795565b610635565b005b61023e61024e366004613795565b6106d4565b610266610261366004613795565b61075f565b6040516101ff91906137ae565b610297610281366004613795565b6000908152600160208190526040909120015490565b6040519081526020016101ff565b61023e6102b33660046137ea565b6107df565b61023e6102c63660046137ea565b61080a565b61021b6102d9366004613816565b60005473ffffffffffffffffffffffffffffffffffffffff91821691161490565b610266610308366004613676565b6108da565b61032061031b366004613676565b6109ae565b6040516101ff9190613941565b61034061033b3660046139b4565b610d56565b6040516101ff9190613a39565b6101f2610eb7565b61023e610363366004613795565b610f67565b61023e610376366004613676565b6113d8565b61029761145a565b61023e610391366004613abd565b61146b565b61021b6103a43660046137ea565b600091825260016020908152604080842073ffffffffffffffffffffffffffffffffffffffff93909316845291905290205460ff1690565b6103ef6103ea366004613795565b611a6d565b6040516101ff9190613ba1565b61040f61040a366004613bb4565b611dd2565b6040516101ff9190613be7565b610297600081565b61023e610432366004613816565b611ffd565b6102976104453660046139b4565b61206b565b610340610458366004613bfa565b612141565b61023e61046b3660046137ea565b6123d9565b6103206123ff565b61023e610486366004613795565b61276f565b610297610499366004613795565b612844565b6102666128c3565b6102976104b43660046139b4565b73ffffffffffffffffffffffffffffffffffffffff919091166000908152600660209081526040808320938352929052205490565b606060006104f76003612923565b8410610504576000610519565b8361050f6003612923565b6105199190613c62565b905060008382111561052b578361052d565b815b905060008167ffffffffffffffff81111561054a5761054a613c75565b60405190808252806020026020018201604052801561057d57816020015b60608152602001906001900390816105685790505b50905060005b828110156105d3576105a361026161059b838a613ca4565b60039061292d565b8282815181106105b5576105b5613cb7565b602002602001018190525080806105cb90613ce6565b915050610583565b50925050505b92915050565b60007fffffffff0000000000000000000000000000000000000000000000000000000082167ff6adcf6b0000000000000000000000000000000000000000000000000000000014806105d957506105d982612940565b7fc9fc9949603a50f5cc3a96f774f1d68287789a241d2082dc81d0fb19a53bcf2b61065f816129d7565b600082116106ce576040517f08c379a000000000000000000000000000000000000000000000000000000000815260206004820152601260248201527f4f66667365742063616e6e6f742062652030000000000000000000000000000060448201526064015b60405180910390fd5b50600755565b7fc9fc9949603a50f5cc3a96f774f1d68287789a241d2082dc81d0fb19a53bcf2b6106fe816129d7565b6107096003836129eb565b5060008281526005602052604090819020905183907f0864136c4ebca2d8889222bc6e0378756c87aa96dbac4e5645772cf08d4112ee9061074b908490613e7d565b60405180910390a26000600a909101555050565b60408051600280825260608083018452926000929190602083019080368337019050509050828160008151811061079857610798613cb7565b60200260200101818152505060056000848152602001908152602001600020600b0154816001815181106107ce576107ce613cb7565b602090810291909101015292915050565b600082815260016020819052604090912001546107fb816129d7565b61080583836129f7565b505050565b610812612aed565b73ffffffffffffffffffffffffffffffffffffffff168173ffffffffffffffffffffffffffffffffffffffff16146108cc576040517f08c379a000000000000000000000000000000000000000000000000000000000815260206004820152602f60248201527f416363657373436f6e74726f6c3a2063616e206f6e6c792072656e6f756e636560448201527f20726f6c657320666f722073656c66000000000000000000000000000000000060648201526084016106c5565b6108d68282612af7565b5050565b606060006108e86003612923565b84106108f557600061090a565b836109006003612923565b61090a9190613c62565b905060008382111561091c578361091e565b815b905060008167ffffffffffffffff81111561093b5761093b613c75565b604051908082528060200260200182016040528015610964578160200160208202803683370190505b50905060005b828110156105d35761097f61059b8289613ca4565b82828151811061099157610991613cb7565b6020908102919091010152806109a681613ce6565b91505061096a565b606060006109bc6003612923565b84106109c95760006109de565b836109d46003612923565b6109de9190613c62565b90506000838211156109f057836109f2565b815b905060008167ffffffffffffffff811115610a0f57610a0f613c75565b604051908082528060200260200182016040528015610ad057816020015b610abd60405180610180016040528060008152602001600073ffffffffffffffffffffffffffffffffffffffff1681526020016060815260200160608152602001600073ffffffffffffffffffffffffffffffffffffffff168152602001606081526020016060815260200160608152602001600081526020016000815260200160008152602001600081525090565b815260200190600190039081610a2d5790505b50905060005b828110156105d35760056000610aef61059b848b613ca4565b8152602080820192909252604090810160002081516101808101835281548152600182015473ffffffffffffffffffffffffffffffffffffffff1681850152600282018054845181870281018701865281815292959394860193830182828015610b7857602002820191906000526020600020905b815481526020019060010190808311610b64575b5050505050815260200160038201805480602002602001604051908101604052809291908181526020018280548015610bd057602002820191906000526020600020905b815481526020019060010190808311610bbc575b5050509183525050600482015473ffffffffffffffffffffffffffffffffffffffff166020808301919091526005830180546040805182850281018501825282815294019392830182828015610c4557602002820191906000526020600020905b815481526020019060010190808311610c31575b5050505050815260200160068201805480602002602001604051908101604052809291908181526020018280548015610c9d57602002820191906000526020600020905b815481526020019060010190808311610c89575b5050505050815260200160078201805480602002602001604051908101604052809291908181526020018280548015610cf557602002820191906000526020600020905b815481526020019060010190808311610ce1575b505050505081526020016008820154815260200160098201548152602001600a8201548152602001600b82015481525050828281518110610d3857610d38613cb7565b60200260200101819052508080610d4e90613ce6565b915050610ad6565b73ffffffffffffffffffffffffffffffffffffffff821660009081526006602090815260408083208484528252808320805482518185028101850190935280835260609492939192909184015b82821015610eab57838290600052602060002090600502016040518060a0016040529081600082015481526020016001820154815260200160028201805480602002602001604051908101604052809291908181526020018280548015610e2957602002820191906000526020600020905b815481526020019060010190808311610e15575b5050505050815260200160038201805480602002602001604051908101604052809291908181526020018280548015610e8157602002820191906000526020600020905b815481526020019060010190808311610e6d575b50505091835250506004919091015460ff1615156020918201529082526001929092019101610da3565b50505050905092915050565b60606000610ec361145a565b67ffffffffffffffff811115610edb57610edb613c75565b604051908082528060200260200182016040528015610f0e57816020015b6060815260200190600190039081610ef95790505b50905060005b610f1c61145a565b811015610f6157610f3161026160038361292d565b828281518110610f4357610f43613cb7565b60200260200101819052508080610f5990613ce6565b915050610f14565b50919050565b6002805403610fd2576040517f08c379a000000000000000000000000000000000000000000000000000000000815260206004820152601f60248201527f5265656e7472616e637947756172643a207265656e7472616e742063616c6c0060448201526064016106c5565b60028055610fe1600382612bea565b61106d576040517f08c379a000000000000000000000000000000000000000000000000000000000815260206004820152602d60248201527f6c6f6f74626f78496420646f6573206e6f74206578697374206f72206861732060448201527f6265656e2072656d6f7665642e0000000000000000000000000000000000000060648201526084016106c5565b6000818152600560205260409020600181015473ffffffffffffffffffffffffffffffffffffffff161561125c5760018101546040517f01ffc9a70000000000000000000000000000000000000000000000000000000081527f909aa65d00000000000000000000000000000000000000000000000000000000600482015273ffffffffffffffffffffffffffffffffffffffff909116906301ffc9a790602401602060405180830381865afa15801561112b573d6000803e3d6000fd5b505050506040513d601f19601f8201168201806040525081019061114f9190613e90565b156111d957600181015473ffffffffffffffffffffffffffffffffffffffff16634b7c78dc61117c612aed565b83600201846003016040518463ffffffff1660e01b81526004016111a293929190613eb2565b600060405180830381600087803b1580156111bc57600080fd5b505af11580156111d0573d6000803e3d6000fd5b5050505061125c565b600181015473ffffffffffffffffffffffffffffffffffffffff16632eb2c2d6611201612aed565b3084600201856003016040518563ffffffff1660e01b81526004016112299493929190613efd565b600060405180830381600087803b15801561124357600080fd5b505af1158015611257573d6000803e3d6000fd5b505050505b6112906040518060a00160405280600081526020016000815260200160608152602001606081526020016000151581525090565b8281526007546112a09043613ca4565b6020820152600660006112b1612aed565b73ffffffffffffffffffffffffffffffffffffffff16815260208082019290925260409081016000908120868252835281812080546001818101835591835291849020855160059093020191825584840151908201559083015180518493611320926002850192910190613616565b506060820151805161133c916003840191602090910190613616565b5060809190910151600490910180547fffffffffffffffffffffffffffffffffffffffffffffffffffffffffffffff0016911515919091179055600a8201805490600061138883613ce6565b9190505550827fcbe236ccb8bf2ae258fd54e73752d614c82aa6293d5256658cc3ce58dc4d4bf0836113b8612aed565b6040516113c6929190613f65565b60405180910390a25050600160025550565b6002805403611443576040517f08c379a000000000000000000000000000000000000000000000000000000000815260206004820152601f60248201527f5265656e7472616e637947756172643a207265656e7472616e742063616c6c0060448201526064016106c5565b600280556114518282612c02565b50506001600255565b60006114666003612923565b905090565b7fc9fc9949603a50f5cc3a96f774f1d68287789a241d2082dc81d0fb19a53bcf2b611495816129d7565b61149f8580613f9d565b90506114ab8780613f9d565b90501461153a576040517f08c379a000000000000000000000000000000000000000000000000000000000815260206004820152602d60248201527f4d69736d61746368656420696e707574206974656d2069647320616e6420616d60448201527f6f756e74206c656e677468732e0000000000000000000000000000000000000060648201526084016106c5565b6115476020860186613f9d565b90506115566020880188613f9d565b9050146115e5576040517f08c379a000000000000000000000000000000000000000000000000000000000815260206004820152602d60248201527f4d69736d617463686564206f7574707574206974656d2069647320616e64206160448201527f6d6f756e74206c656e6774682e0000000000000000000000000000000000000060648201526084016106c5565b826115f36020880188613f9d565b905014611682576040517f08c379a000000000000000000000000000000000000000000000000000000000815260206004820152603160248201527f4d69736d61746368206f7574707574206974656d2069647320616e642069746560448201527f6d2077656967687473206c656e6774682e00000000000000000000000000000060648201526084016106c5565b6000805b848110156116c6578585828181106116a0576116a0613cb7565b90506020020135826116b29190613ca4565b9150806116be81613ce6565b915050611686565b5060006040518061018001604052808b81526020018a6000600281106116ee576116ee613cb7565b6020020160208101906117019190613816565b73ffffffffffffffffffffffffffffffffffffffff1681526020016117268a80613f9d565b808060200260200160405190810160405280939291908181526020018383602002808284376000920191909152505050908252506020016117678980613f9d565b808060200260200160405190810160405280939291908181526020018383602002808284376000920191909152505050908252506020908101906117b19060408d01908d01613816565b73ffffffffffffffffffffffffffffffffffffffff1681526020908101906117db908b018b613f9d565b80806020026020016040519081016040528093929190818152602001838360200280828437600092019190915250505090825250602090810190611821908a018a613f9d565b8080602002602001604051908101604052809392919081815260200183836020028082843760009201919091525050509082525060408051602089810282810182019093528982529283019290918a918a9182918501908490808284376000920182905250938552505050602080830186905260408084018990528e835260059091529020600a015460608201524260809091015290506118c360038b613120565b5060008a81526005602090815260409182902083518155838201516001820180547fffffffffffffffffffffffff00000000000000000000000000000000000000001673ffffffffffffffffffffffffffffffffffffffff90921691909117905591830151805184939261193e926002850192910190613616565b506060820151805161195a916003840191602090910190613616565b5060808201516004820180547fffffffffffffffffffffffff00000000000000000000000000000000000000001673ffffffffffffffffffffffffffffffffffffffff90921691909117905560a082015180516119c1916005840191602090910190613616565b5060c082015180516119dd916006840191602090910190613616565b5060e082015180516119f9916007840191602090910190613616565b506101008201518160080155610120820151816009015561014082015181600a015561016082015181600b0155905050897fb2e547eb18679a18ee72bf11d33344b9a6a24f4afecf77e5ff1833294b4b0ab982604051611a599190613ba1565b60405180910390a250505050505050505050565b611afd60405180610180016040528060008152602001600073ffffffffffffffffffffffffffffffffffffffff1681526020016060815260200160608152602001600073ffffffffffffffffffffffffffffffffffffffff168152602001606081526020016060815260200160608152602001600081526020016000815260200160008152602001600081525090565b611b08600383612bea565b611b94576040517f08c379a000000000000000000000000000000000000000000000000000000000815260206004820152602d60248201527f6c6f6f74626f78496420646f6573206e6f74206578697374206f72206861732060448201527f6265656e2072656d6f7665642e0000000000000000000000000000000000000060648201526084016106c5565b60008281526005602090815260409182902082516101808101845281548152600182015473ffffffffffffffffffffffffffffffffffffffff168184015260028201805485518186028101860187528181529295939493860193830182828015611c1d57602002820191906000526020600020905b815481526020019060010190808311611c09575b5050505050815260200160038201805480602002602001604051908101604052809291908181526020018280548015611c7557602002820191906000526020600020905b815481526020019060010190808311611c61575b5050509183525050600482015473ffffffffffffffffffffffffffffffffffffffff166020808301919091526005830180546040805182850281018501825282815294019392830182828015611cea57602002820191906000526020600020905b815481526020019060010190808311611cd6575b5050505050815260200160068201805480602002602001604051908101604052809291908181526020018280548015611d4257602002820191906000526020600020905b815481526020019060010190808311611d2e575b5050505050815260200160078201805480602002602001604051908101604052809291908181526020018280548015611d9a57602002820191906000526020600020905b815481526020019060010190808311611d86575b505050505081526020016008820154815260200160098201548152602001600a8201548152602001600b820154815250509050919050565b611e066040518060a00160405280600081526020016000815260200160608152602001606081526020016000151581525090565b73ffffffffffffffffffffffffffffffffffffffff841660009081526006602090815260408083208684529091529020548210611ec5576040517f08c379a000000000000000000000000000000000000000000000000000000000815260206004820152602360248201527f6f70656e65644c6f6f74626f78496e64657820646f6573206e6f74206578697360448201527f74732e000000000000000000000000000000000000000000000000000000000060648201526084016106c5565b73ffffffffffffffffffffffffffffffffffffffff841660009081526006602090815260408083208684529091529020805483908110611f0757611f07613cb7565b90600052602060002090600502016040518060a0016040529081600082015481526020016001820154815260200160028201805480602002602001604051908101604052809291908181526020018280548015611f8357602002820191906000526020600020905b815481526020019060010190808311611f6f575b5050505050815260200160038201805480602002602001604051908101604052809291908181526020018280548015611fdb57602002820191906000526020600020905b815481526020019060010190808311611fc7575b50505091835250506004919091015460ff161515602090910152949350505050565b7fc9fc9949603a50f5cc3a96f774f1d68287789a241d2082dc81d0fb19a53bcf2b612027816129d7565b600080547fffffffffffffffffffffffff00000000000000000000000000000000000000001673ffffffffffffffffffffffffffffffffffffffff84161790555050565b600080805b73ffffffffffffffffffffffffffffffffffffffff851660009081526006602090815260408083208784529091529020548110156121395773ffffffffffffffffffffffffffffffffffffffff8516600090815260066020908152604080832087845290915281208054839081106120ea576120ea613cb7565b90600052602060002090600502019050806001015443101580156121135750600481015460ff16155b15612126578261212281613ce6565b9350505b508061213181613ce6565b915050612070565b509392505050565b73ffffffffffffffffffffffffffffffffffffffff841660009081526006602090815260408083208684529091528120546060919084106121835760006121bf565b73ffffffffffffffffffffffffffffffffffffffff861660009081526006602090815260408083208884529091529020546121bf908590613c62565b90506000838211156121d157836121d3565b815b905060008167ffffffffffffffff8111156121f0576121f0613c75565b60405190808252806020026020018201604052801561225557816020015b6122426040518060a00160405280600081526020016000815260200160608152602001606081526020016000151581525090565b81526020019060019003908161220e5790505b50905060005b828110156123cd5773ffffffffffffffffffffffffffffffffffffffff891660009081526006602090815260408083208b8452909152902061229d8289613ca4565b815481106122ad576122ad613cb7565b90600052602060002090600502016040518060a001604052908160008201548152602001600182015481526020016002820180548060200260200160405190810160405280929190818152602001828054801561232957602002820191906000526020600020905b815481526020019060010190808311612315575b505050505081526020016003820180548060200260200160405190810160405280929190818152602001828054801561238157602002820191906000526020600020905b81548152602001906001019080831161236d575b50505091835250506004919091015460ff16151560209091015282518390839081106123af576123af613cb7565b602002602001018190525080806123c590613ce6565b91505061225b565b50979650505050505050565b600082815260016020819052604090912001546123f5816129d7565b6108058383612af7565b6060600061240b61145a565b67ffffffffffffffff81111561242357612423613c75565b6040519080825280602002602001820160405280156124e457816020015b6124d160405180610180016040528060008152602001600073ffffffffffffffffffffffffffffffffffffffff1681526020016060815260200160608152602001600073ffffffffffffffffffffffffffffffffffffffff168152602001606081526020016060815260200160608152602001600081526020016000815260200160008152602001600081525090565b8152602001906001900390816124415790505b50905060005b6124f261145a565b811015610f61576005600061250860038461292d565b8152602080820192909252604090810160002081516101808101835281548152600182015473ffffffffffffffffffffffffffffffffffffffff168185015260028201805484518187028101870186528181529295939486019383018282801561259157602002820191906000526020600020905b81548152602001906001019080831161257d575b50505050508152602001600382018054806020026020016040519081016040528092919081815260200182805480156125e957602002820191906000526020600020905b8154815260200190600101908083116125d5575b5050509183525050600482015473ffffffffffffffffffffffffffffffffffffffff16602080830191909152600583018054604080518285028101850182528281529401939283018282801561265e57602002820191906000526020600020905b81548152602001906001019080831161264a575b50505050508152602001600682018054806020026020016040519081016040528092919081815260200182805480156126b657602002820191906000526020600020905b8154815260200190600101908083116126a2575b505050505081526020016007820180548060200260200160405190810160405280929190818152602001828054801561270e57602002820191906000526020600020905b8154815260200190600101908083116126fa575b505050505081526020016008820154815260200160098201548152602001600a8201548152602001600b8201548152505082828151811061275157612751613cb7565b6020026020010181905250808061276790613ce6565b9150506124ea565b60028054036127da576040517f08c379a000000000000000000000000000000000000000000000000000000000815260206004820152601f60248201527f5265656e7472616e637947756172643a207265656e7472616e742063616c6c0060448201526064016106c5565b6002805560005b600660006127ed612aed565b73ffffffffffffffffffffffffffffffffffffffff16815260208082019290925260409081016000908120858252909252902054811015611451576128328282612c02565b8061283c81613ce6565b9150506127e1565b60006128506003612923565b82106128b8576040517f08c379a000000000000000000000000000000000000000000000000000000000815260206004820152601360248201527f496e646578206f7574206f6620626f756e64730000000000000000000000000060448201526064016106c5565b6105d960038361292d565b6060611466600361312c565b6000805473ffffffffffffffffffffffffffffffffffffffff16330361291a57507fffffffffffffffffffffffffffffffffffffffffffffffffffffffffffffffec36013560601c90565b503390565b3390565b60006105d9825490565b60006129398383613139565b9392505050565b60007fffffffff0000000000000000000000000000000000000000000000000000000082167f7965db0b0000000000000000000000000000000000000000000000000000000014806105d957507f01ffc9a7000000000000000000000000000000000000000000000000000000007fffffffff000000000000000000000000000000000000000000000000000000008316146105d9565b6129e8816129e3612aed565b613163565b50565b60006129398383613235565b600082815260016020908152604080832073ffffffffffffffffffffffffffffffffffffffff8516845290915290205460ff166108d657600082815260016020818152604080842073ffffffffffffffffffffffffffffffffffffffff8616855290915290912080547fffffffffffffffffffffffffffffffffffffffffffffffffffffffffffffff00169091179055612a8f612aed565b73ffffffffffffffffffffffffffffffffffffffff168173ffffffffffffffffffffffffffffffffffffffff16837f2f8788117e7eff1d82e926ec794901d17c78024a50270940304540a733656f0d60405160405180910390a45050565b60006114666128cf565b600082815260016020908152604080832073ffffffffffffffffffffffffffffffffffffffff8516845290915290205460ff16156108d657600082815260016020908152604080832073ffffffffffffffffffffffffffffffffffffffff85168452909152902080547fffffffffffffffffffffffffffffffffffffffffffffffffffffffffffffff00169055612b8c612aed565b73ffffffffffffffffffffffffffffffffffffffff168173ffffffffffffffffffffffffffffffffffffffff16837ff6391f5c32d9c69d2a47ea670b442974b53935d1edc7fd64eb21e047a839171b60405160405180910390a45050565b60008181526001830160205260408120541515612939565b600060066000612c10612aed565b73ffffffffffffffffffffffffffffffffffffffff1673ffffffffffffffffffffffffffffffffffffffff16815260200190815260200160002060008481526020019081526020016000208281548110612c6c57612c6c613cb7565b9060005260206000209060050201905060006005600085815260200190815260200160002090508160010154431080612ca95750600482015460ff165b15612cb45750505050565b6000816009015467ffffffffffffffff811115612cd357612cd3613c75565b604051908082528060200260200182016040528015612cfc578160200160208202803683370190505b5090506000826009015467ffffffffffffffff811115612d1e57612d1e613c75565b604051908082528060200260200182016040528015612d47578160200160208202803683370190505b50905060005b8360090154811015612ee757600060018660010154612d6c9190613c62565b40612d75612aed565b8884604051602001612dc5949392919093845260609290921b7fffffffffffffffffffffffffffffffffffffffff0000000000000000000000001660208401526034830152605482015260740190565b6040516020818303038152906040528051906020012060001c90506000856008015482612df2919061400c565b905060005b6007870154811015612ed1576000876007018281548110612e1a57612e1a613cb7565b9060005260206000200154905082811115612eb157876005018281548110612e4457612e44613cb7565b9060005260206000200154878681518110612e6157612e61613cb7565b602002602001018181525050876006018281548110612e8257612e82613cb7565b9060005260206000200154868681518110612e9f57612e9f613cb7565b60200260200101818152505050612ed1565b612ebb8184613c62565b9250508080612ec990613ce6565b915050612df7565b5050508080612edf90613ce6565b915050612d4d565b506004838101546040517f91d148540000000000000000000000000000000000000000000000000000000081527fc9eb32e43bf5ecbceacf00b32281dfc5d6d700a0db676ea26ccf938a385ac3f79281019290925230602483015273ffffffffffffffffffffffffffffffffffffffff16906391d1485490604401602060405180830381865afa158015612f7f573d6000803e3d6000fd5b505050506040513d601f19601f82011682018060405250810190612fa39190613e90565b1561302757600483015473ffffffffffffffffffffffffffffffffffffffff166308f427c7612fd0612aed565b84846040518463ffffffff1660e01b8152600401612ff093929190614047565b600060405180830381600087803b15801561300a57600080fd5b505af115801561301e573d6000803e3d6000fd5b505050506130a4565b600483015473ffffffffffffffffffffffffffffffffffffffff16632eb2c2d630613050612aed565b85856040518563ffffffff1660e01b81526004016130719493929190614088565b600060405180830381600087803b15801561308b57600080fd5b505af115801561309f573d6000803e3d6000fd5b505050505b6004840180547fffffffffffffffffffffffffffffffffffffffffffffffffffffffffffffff00166001179055857fa90466a1141d4242085b5ac5c6634a366ec37ad66c953e191b51c3441e56010e846130fc612aed565b8886866040516131109594939291906140d3565b60405180910390a2505050505050565b60006129398383613328565b6060600061293983613377565b600082600001828154811061315057613150613cb7565b9060005260206000200154905092915050565b600082815260016020908152604080832073ffffffffffffffffffffffffffffffffffffffff8516845290915290205460ff166108d6576131bb8173ffffffffffffffffffffffffffffffffffffffff1660146133d3565b6131c68360206133d3565b6040516020016131d792919061415e565b604080517fffffffffffffffffffffffffffffffffffffffffffffffffffffffffffffffe0818403018152908290527f08c379a00000000000000000000000000000000000000000000000000000000082526106c5916004016141df565b6000818152600183016020526040812054801561331e576000613259600183613c62565b855490915060009061326d90600190613c62565b90508181146132d257600086600001828154811061328d5761328d613cb7565b90600052602060002001549050808760000184815481106132b0576132b0613cb7565b6000918252602080832090910192909255918252600188019052604090208390555b85548690806132e3576132e3614230565b6001900381819060005260206000200160009055905585600101600086815260200190815260200160002060009055600193505050506105d9565b60009150506105d9565b600081815260018301602052604081205461336f575081546001818101845560008481526020808220909301849055845484825282860190935260409020919091556105d9565b5060006105d9565b6060816000018054806020026020016040519081016040528092919081815260200182805480156133c757602002820191906000526020600020905b8154815260200190600101908083116133b3575b50505050509050919050565b606060006133e283600261425f565b6133ed906002613ca4565b67ffffffffffffffff81111561340557613405613c75565b6040519080825280601f01601f19166020018201604052801561342f576020820181803683370190505b5090507f30000000000000000000000000000000000000000000000000000000000000008160008151811061346657613466613cb7565b60200101907effffffffffffffffffffffffffffffffffffffffffffffffffffffffffffff1916908160001a9053507f7800000000000000000000000000000000000000000000000000000000000000816001815181106134c9576134c9613cb7565b60200101907effffffffffffffffffffffffffffffffffffffffffffffffffffffffffffff1916908160001a905350600061350584600261425f565b613510906001613ca4565b90505b60018111156135ad577f303132333435363738396162636465660000000000000000000000000000000085600f166010811061355157613551613cb7565b1a60f81b82828151811061356757613567613cb7565b60200101907effffffffffffffffffffffffffffffffffffffffffffffffffffffffffffff1916908160001a90535060049490941c936135a68161429c565b9050613513565b508315612939576040517f08c379a000000000000000000000000000000000000000000000000000000000815260206004820181905260248201527f537472696e67733a20686578206c656e67746820696e73756666696369656e7460448201526064016106c5565b828054828255906000526020600020908101928215613651579160200282015b82811115613651578251825591602001919060010190613636565b5061365d929150613661565b5090565b5b8082111561365d5760008155600101613662565b6000806040838503121561368957600080fd5b50508035926020909101359150565b600081518084526020808501945080840160005b838110156136c8578151875295820195908201906001016136ac565b509495945050505050565b6000602080830181845280855180835260408601915060408160051b870101925083870160005b82811015613746577fffffffffffffffffffffffffffffffffffffffffffffffffffffffffffffffc0888603018452613734858351613698565b945092850192908501906001016136fa565b5092979650505050505050565b60006020828403121561376557600080fd5b81357fffffffff000000000000000000000000000000000000000000000000000000008116811461293957600080fd5b6000602082840312156137a757600080fd5b5035919050565b6020815260006129396020830184613698565b803573ffffffffffffffffffffffffffffffffffffffff811681146137e557600080fd5b919050565b600080604083850312156137fd57600080fd5b8235915061380d602084016137c1565b90509250929050565b60006020828403121561382857600080fd5b612939826137c1565b6000610180825184526020830151613861602086018273ffffffffffffffffffffffffffffffffffffffff169052565b50604083015181604086015261387982860182613698565b915050606083015184820360608601526138938282613698565b91505060808301516138bd608086018273ffffffffffffffffffffffffffffffffffffffff169052565b5060a083015184820360a08601526138d58282613698565b91505060c083015184820360c08601526138ef8282613698565b91505060e083015184820360e08601526139098282613698565b610100858101519087015261012080860151908701526101408086015190870152610160948501519490950193909352509192915050565b6000602080830181845280855180835260408601915060408160051b870101925083870160005b82811015613746577fffffffffffffffffffffffffffffffffffffffffffffffffffffffffffffffc08886030184526139a2858351613831565b94509285019290850190600101613968565b600080604083850312156139c757600080fd5b6139d0836137c1565b946020939093013593505050565b80518252602081015160208301526000604082015160a06040850152613a0760a0850182613698565b905060608301518482036060860152613a208282613698565b9150506080830151151560808501528091505092915050565b6000602080830181845280855180835260408601915060408160051b870101925083870160005b82811015613746577fffffffffffffffffffffffffffffffffffffffffffffffffffffffffffffffc0888603018452613a9a8583516139de565b94509285019290850190600101613a60565b80604081018310156105d957600080fd5b600080600080600080600060e0888a031215613ad857600080fd5b87359650613ae98960208a01613aac565b9550606088013567ffffffffffffffff80821115613b0657600080fd5b613b128b838c01613aac565b965060808a0135915080821115613b2857600080fd5b613b348b838c01613aac565b955060a08a0135915080821115613b4a57600080fd5b818a0191508a601f830112613b5e57600080fd5b813581811115613b6d57600080fd5b8b60208260051b8501011115613b8257600080fd5b60208301955080945050505060c0880135905092959891949750929550565b6020815260006129396020830184613831565b600080600060608486031215613bc957600080fd5b613bd2846137c1565b95602085013595506040909401359392505050565b60208152600061293960208301846139de565b60008060008060808587031215613c1057600080fd5b613c19856137c1565b966020860135965060408601359560600135945092505050565b7f4e487b7100000000000000000000000000000000000000000000000000000000600052601160045260246000fd5b818103818111156105d9576105d9613c33565b7f4e487b7100000000000000000000000000000000000000000000000000000000600052604160045260246000fd5b808201808211156105d9576105d9613c33565b7f4e487b7100000000000000000000000000000000000000000000000000000000600052603260045260246000fd5b60007fffffffffffffffffffffffffffffffffffffffffffffffffffffffffffffffff8203613d1757613d17613c33565b5060010190565b6000815480845260208085019450836000528060002060005b838110156136c857815487529582019560019182019101613d37565b600061018082548452613d7d600184015473ffffffffffffffffffffffffffffffffffffffff1690565b73ffffffffffffffffffffffffffffffffffffffff16602085015260408401819052613dae81850160028501613d1e565b90508381036060850152613dc58160038501613d1e565b9050613de8600484015473ffffffffffffffffffffffffffffffffffffffff1690565b73ffffffffffffffffffffffffffffffffffffffff16608085015283810360a0850152613e188160058501613d1e565b905083810360c0850152613e2f8160068501613d1e565b905083810360e0850152613e468160078501613d1e565b60088401546101008601526009840154610120860152600a840154610140860152600b909301546101609094019390935250919050565b6020815260006129396020830184613d53565b600060208284031215613ea257600080fd5b8151801515811461293957600080fd5b73ffffffffffffffffffffffffffffffffffffffff84168152606060208201526000613ee16060830185613d1e565b8281036040840152613ef38185613d1e565b9695505050505050565b600073ffffffffffffffffffffffffffffffffffffffff808716835280861660208401525060a06040830152613f3660a0830185613d1e565b8281036060840152613f488185613d1e565b838103608090940193909352505060008152602001949350505050565b604081526000613f786040830185613d53565b905073ffffffffffffffffffffffffffffffffffffffff831660208301529392505050565b60008083357fffffffffffffffffffffffffffffffffffffffffffffffffffffffffffffffe1843603018112613fd257600080fd5b83018035915067ffffffffffffffff821115613fed57600080fd5b6020019150600581901b360382131561400557600080fd5b9250929050565b600082614042577f4e487b7100000000000000000000000000000000000000000000000000000000600052601260045260246000fd5b500690565b73ffffffffffffffffffffffffffffffffffffffff841681526060602082015260006140766060830185613698565b8281036040840152613ef38185613698565b600073ffffffffffffffffffffffffffffffffffffffff808716835280861660208401525060a060408301526140c160a0830185613698565b8281036060840152613f488185613698565b60a0815260006140e660a0830188613d53565b73ffffffffffffffffffffffffffffffffffffffff87166020840152856040840152828103606084015261411a8186613698565b9050828103608084015261412e8185613698565b98975050505050505050565b60005b8381101561415557818101518382015260200161413d565b50506000910152565b7f416363657373436f6e74726f6c3a206163636f756e742000000000000000000081526000835161419681601785016020880161413a565b7f206973206d697373696e6720726f6c652000000000000000000000000000000060179184019182015283516141d381602884016020880161413a565b01602801949350505050565b60208152600082518060208401526141fe81604085016020870161413a565b601f017fffffffffffffffffffffffffffffffffffffffffffffffffffffffffffffffe0169190910160400192915050565b7f4e487b7100000000000000000000000000000000000000000000000000000000600052603160045260246000fd5b6000817fffffffffffffffffffffffffffffffffffffffffffffffffffffffffffffffff048311821515161561429757614297613c33565b500290565b6000816142ab576142ab613c33565b507fffffffffffffffffffffffffffffffffffffffffffffffffffffffffffffffff019056fea26469706673582212209c3c61c4412b7b2ebdd1365b85c640c9337e0e75244158130e836a1fb10a86cb64736f6c63430008100033","opcodes":"PUSH1 0x80 PUSH1 0x40 MSTORE PUSH1 0x1 PUSH1 0x7 SSTORE CALLVALUE DUP1 ISZERO PUSH3 0x16 JUMPI PUSH1 0x0 DUP1 REVERT JUMPDEST POP PUSH1 0x40 MLOAD PUSH3 0x44FA CODESIZE SUB DUP1 PUSH3 0x44FA DUP4 CODECOPY DUP2 ADD PUSH1 0x40 DUP2 SWAP1 MSTORE PUSH3 0x39 SWAP2 PUSH3 0x1B1 JUMP JUMPDEST PUSH1 0x0 DUP1 SLOAD PUSH1 0x1 PUSH1 0x1 PUSH1 0xA0 SHL SUB NOT AND PUSH1 0x1 PUSH1 0x1 PUSH1 0xA0 SHL SUB DUP4 AND OR DUP2 SSTORE PUSH1 0x1 PUSH1 0x2 SSTORE PUSH3 0x6E SWAP1 PUSH3 0x68 PUSH3 0xA4 JUMP JUMPDEST PUSH3 0xC0 JUMP JUMPDEST PUSH3 0x9D PUSH32 0xC9FC9949603A50F5CC3A96F774F1D68287789A241D2082DC81D0FB19A53BCF2B PUSH3 0x68 PUSH3 0xA4 JUMP JUMPDEST POP PUSH3 0x1E3 JUMP JUMPDEST PUSH1 0x0 PUSH3 0xBB PUSH3 0xD0 PUSH1 0x20 SHL PUSH3 0x28CF OR PUSH1 0x20 SHR JUMP JUMPDEST SWAP1 POP SWAP1 JUMP JUMPDEST PUSH3 0xCC DUP3 DUP3 PUSH3 0x106 JUMP JUMPDEST POP POP JUMP JUMPDEST PUSH1 0x0 DUP1 SLOAD PUSH1 0x1 PUSH1 0x1 PUSH1 0xA0 SHL SUB AND CALLER SUB PUSH3 0xF1 JUMPI POP PUSH1 0x13 NOT CALLDATASIZE ADD CALLDATALOAD PUSH1 0x60 SHR SWAP1 JUMP JUMPDEST PUSH3 0xBB PUSH3 0x1AD PUSH1 0x20 SHL PUSH3 0x291F OR PUSH1 0x20 SHR JUMP JUMPDEST PUSH1 0x0 DUP3 DUP2 MSTORE PUSH1 0x1 PUSH1 0x20 SWAP1 DUP2 MSTORE PUSH1 0x40 DUP1 DUP4 KECCAK256 PUSH1 0x1 PUSH1 0x1 PUSH1 0xA0 SHL SUB DUP6 AND DUP5 MSTORE SWAP1 SWAP2 MSTORE SWAP1 KECCAK256 SLOAD PUSH1 0xFF AND PUSH3 0xCC JUMPI PUSH1 0x0 DUP3 DUP2 MSTORE PUSH1 0x1 PUSH1 0x20 DUP2 DUP2 MSTORE PUSH1 0x40 DUP1 DUP5 KECCAK256 PUSH1 0x1 PUSH1 0x1 PUSH1 0xA0 SHL SUB DUP7 AND DUP6 MSTORE SWAP1 SWAP2 MSTORE SWAP1 SWAP2 KECCAK256 DUP1 SLOAD PUSH1 0xFF NOT AND SWAP1 SWAP2 OR SWAP1 SSTORE PUSH3 0x169 PUSH3 0xA4 JUMP JUMPDEST PUSH1 0x1 PUSH1 0x1 PUSH1 0xA0 SHL SUB AND DUP2 PUSH1 0x1 PUSH1 0x1 PUSH1 0xA0 SHL SUB AND DUP4 PUSH32 0x2F8788117E7EFF1D82E926EC794901D17C78024A50270940304540A733656F0D PUSH1 0x40 MLOAD PUSH1 0x40 MLOAD DUP1 SWAP2 SUB SWAP1 LOG4 POP POP JUMP JUMPDEST CALLER SWAP1 JUMP JUMPDEST PUSH1 0x0 PUSH1 0x20 DUP3 DUP5 SUB SLT ISZERO PUSH3 0x1C4 JUMPI PUSH1 0x0 DUP1 REVERT JUMPDEST DUP2 MLOAD PUSH1 0x1 PUSH1 0x1 PUSH1 0xA0 SHL SUB DUP2 AND DUP2 EQ PUSH3 0x1DC JUMPI PUSH1 0x0 DUP1 REVERT JUMPDEST SWAP4 SWAP3 POP POP POP JUMP JUMPDEST PUSH2 0x4307 DUP1 PUSH3 0x1F3 PUSH1 0x0 CODECOPY PUSH1 0x0 RETURN INVALID PUSH1 0x80 PUSH1 0x40 MSTORE CALLVALUE DUP1 ISZERO PUSH2 0x10 JUMPI PUSH1 0x0 DUP1 REVERT JUMPDEST POP PUSH1 0x4 CALLDATASIZE LT PUSH2 0x1DA JUMPI PUSH1 0x0 CALLDATALOAD PUSH1 0xE0 SHR DUP1 PUSH4 0x826410FC GT PUSH2 0x104 JUMPI DUP1 PUSH4 0xABB5D942 GT PUSH2 0xA2 JUMPI DUP1 PUSH4 0xE1394B90 GT PUSH2 0x71 JUMPI DUP1 PUSH4 0xE1394B90 EQ PUSH2 0x478 JUMPI DUP1 PUSH4 0xE8C683FD EQ PUSH2 0x48B JUMPI DUP1 PUSH4 0xEA61401A EQ PUSH2 0x49E JUMPI DUP1 PUSH4 0xFBF3040D EQ PUSH2 0x4A6 JUMPI PUSH1 0x0 DUP1 REVERT JUMPDEST DUP1 PUSH4 0xABB5D942 EQ PUSH2 0x437 JUMPI DUP1 PUSH4 0xAF90A2B7 EQ PUSH2 0x44A JUMPI DUP1 PUSH4 0xD547741F EQ PUSH2 0x45D JUMPI DUP1 PUSH4 0xDE0EF5E4 EQ PUSH2 0x470 JUMPI PUSH1 0x0 DUP1 REVERT JUMPDEST DUP1 PUSH4 0x92E11500 GT PUSH2 0xDE JUMPI DUP1 PUSH4 0x92E11500 EQ PUSH2 0x3DC JUMPI DUP1 PUSH4 0x94CBA64E EQ PUSH2 0x3FC JUMPI DUP1 PUSH4 0xA217FDDF EQ PUSH2 0x41C JUMPI DUP1 PUSH4 0xAA2A7EEA EQ PUSH2 0x424 JUMPI PUSH1 0x0 DUP1 REVERT JUMPDEST DUP1 PUSH4 0x826410FC EQ PUSH2 0x37B JUMPI DUP1 PUSH4 0x8404ADC1 EQ PUSH2 0x383 JUMPI DUP1 PUSH4 0x91D14854 EQ PUSH2 0x396 JUMPI PUSH1 0x0 DUP1 REVERT JUMPDEST DUP1 PUSH4 0x36568ABE GT PUSH2 0x17C JUMPI DUP1 PUSH4 0x7F1D0AD2 GT PUSH2 0x14B JUMPI DUP1 PUSH4 0x7F1D0AD2 EQ PUSH2 0x32D JUMPI DUP1 PUSH4 0x7F416510 EQ PUSH2 0x34D JUMPI DUP1 PUSH4 0x7FF48190 EQ PUSH2 0x355 JUMPI DUP1 PUSH4 0x7FFB5C65 EQ PUSH2 0x368 JUMPI PUSH1 0x0 DUP1 REVERT JUMPDEST DUP1 PUSH4 0x36568ABE EQ PUSH2 0x2B8 JUMPI DUP1 PUSH4 0x572B6C05 EQ PUSH2 0x2CB JUMPI DUP1 PUSH4 0x5EC2D022 EQ PUSH2 0x2FA JUMPI DUP1 PUSH4 0x60234AF9 EQ PUSH2 0x30D JUMPI PUSH1 0x0 DUP1 REVERT JUMPDEST DUP1 PUSH4 0x7AF4117 GT PUSH2 0x1B8 JUMPI DUP1 PUSH4 0x7AF4117 EQ PUSH2 0x240 JUMPI DUP1 PUSH4 0xE1D1DA7 EQ PUSH2 0x253 JUMPI DUP1 PUSH4 0x248A9CA3 EQ PUSH2 0x273 JUMPI DUP1 PUSH4 0x2F2FF15D EQ PUSH2 0x2A5 JUMPI PUSH1 0x0 DUP1 REVERT JUMPDEST DUP1 PUSH4 0x1BAB168 EQ PUSH2 0x1DF JUMPI DUP1 PUSH4 0x1FFC9A7 EQ PUSH2 0x208 JUMPI DUP1 PUSH4 0x21B0647 EQ PUSH2 0x22B JUMPI JUMPDEST PUSH1 0x0 DUP1 REVERT JUMPDEST PUSH2 0x1F2 PUSH2 0x1ED CALLDATASIZE PUSH1 0x4 PUSH2 0x3676 JUMP JUMPDEST PUSH2 0x4E9 JUMP JUMPDEST PUSH1 0x40 MLOAD PUSH2 0x1FF SWAP2 SWAP1 PUSH2 0x36D3 JUMP JUMPDEST PUSH1 0x40 MLOAD DUP1 SWAP2 SUB SWAP1 RETURN JUMPDEST PUSH2 0x21B PUSH2 0x216 CALLDATASIZE PUSH1 0x4 PUSH2 0x3753 JUMP JUMPDEST PUSH2 0x5DF JUMP JUMPDEST PUSH1 0x40 MLOAD SWAP1 ISZERO ISZERO DUP2 MSTORE PUSH1 0x20 ADD PUSH2 0x1FF JUMP JUMPDEST PUSH2 0x23E PUSH2 0x239 CALLDATASIZE PUSH1 0x4 PUSH2 0x3795 JUMP JUMPDEST PUSH2 0x635 JUMP JUMPDEST STOP JUMPDEST PUSH2 0x23E PUSH2 0x24E CALLDATASIZE PUSH1 0x4 PUSH2 0x3795 JUMP JUMPDEST PUSH2 0x6D4 JUMP JUMPDEST PUSH2 0x266 PUSH2 0x261 CALLDATASIZE PUSH1 0x4 PUSH2 0x3795 JUMP JUMPDEST PUSH2 0x75F JUMP JUMPDEST PUSH1 0x40 MLOAD PUSH2 0x1FF SWAP2 SWAP1 PUSH2 0x37AE JUMP JUMPDEST PUSH2 0x297 PUSH2 0x281 CALLDATASIZE PUSH1 0x4 PUSH2 0x3795 JUMP JUMPDEST PUSH1 0x0 SWAP1 DUP2 MSTORE PUSH1 0x1 PUSH1 0x20 DUP2 SWAP1 MSTORE PUSH1 0x40 SWAP1 SWAP2 KECCAK256 ADD SLOAD SWAP1 JUMP JUMPDEST PUSH1 0x40 MLOAD SWAP1 DUP2 MSTORE PUSH1 0x20 ADD PUSH2 0x1FF JUMP JUMPDEST PUSH2 0x23E PUSH2 0x2B3 CALLDATASIZE PUSH1 0x4 PUSH2 0x37EA JUMP JUMPDEST PUSH2 0x7DF JUMP JUMPDEST PUSH2 0x23E PUSH2 0x2C6 CALLDATASIZE PUSH1 0x4 PUSH2 0x37EA JUMP JUMPDEST PUSH2 0x80A JUMP JUMPDEST PUSH2 0x21B PUSH2 0x2D9 CALLDATASIZE PUSH1 0x4 PUSH2 0x3816 JUMP JUMPDEST PUSH1 0x0 SLOAD PUSH20 0xFFFFFFFFFFFFFFFFFFFFFFFFFFFFFFFFFFFFFFFF SWAP2 DUP3 AND SWAP2 AND EQ SWAP1 JUMP JUMPDEST PUSH2 0x266 PUSH2 0x308 CALLDATASIZE PUSH1 0x4 PUSH2 0x3676 JUMP JUMPDEST PUSH2 0x8DA JUMP JUMPDEST PUSH2 0x320 PUSH2 0x31B CALLDATASIZE PUSH1 0x4 PUSH2 0x3676 JUMP JUMPDEST PUSH2 0x9AE JUMP JUMPDEST PUSH1 0x40 MLOAD PUSH2 0x1FF SWAP2 SWAP1 PUSH2 0x3941 JUMP JUMPDEST PUSH2 0x340 PUSH2 0x33B CALLDATASIZE PUSH1 0x4 PUSH2 0x39B4 JUMP JUMPDEST PUSH2 0xD56 JUMP JUMPDEST PUSH1 0x40 MLOAD PUSH2 0x1FF SWAP2 SWAP1 PUSH2 0x3A39 JUMP JUMPDEST PUSH2 0x1F2 PUSH2 0xEB7 JUMP JUMPDEST PUSH2 0x23E PUSH2 0x363 CALLDATASIZE PUSH1 0x4 PUSH2 0x3795 JUMP JUMPDEST PUSH2 0xF67 JUMP JUMPDEST PUSH2 0x23E PUSH2 0x376 CALLDATASIZE PUSH1 0x4 PUSH2 0x3676 JUMP JUMPDEST PUSH2 0x13D8 JUMP JUMPDEST PUSH2 0x297 PUSH2 0x145A JUMP JUMPDEST PUSH2 0x23E PUSH2 0x391 CALLDATASIZE PUSH1 0x4 PUSH2 0x3ABD JUMP JUMPDEST PUSH2 0x146B JUMP JUMPDEST PUSH2 0x21B PUSH2 0x3A4 CALLDATASIZE PUSH1 0x4 PUSH2 0x37EA JUMP JUMPDEST PUSH1 0x0 SWAP2 DUP3 MSTORE PUSH1 0x1 PUSH1 0x20 SWAP1 DUP2 MSTORE PUSH1 0x40 DUP1 DUP5 KECCAK256 PUSH20 0xFFFFFFFFFFFFFFFFFFFFFFFFFFFFFFFFFFFFFFFF SWAP4 SWAP1 SWAP4 AND DUP5 MSTORE SWAP2 SWAP1 MSTORE SWAP1 KECCAK256 SLOAD PUSH1 0xFF AND SWAP1 JUMP JUMPDEST PUSH2 0x3EF PUSH2 0x3EA CALLDATASIZE PUSH1 0x4 PUSH2 0x3795 JUMP JUMPDEST PUSH2 0x1A6D JUMP JUMPDEST PUSH1 0x40 MLOAD PUSH2 0x1FF SWAP2 SWAP1 PUSH2 0x3BA1 JUMP JUMPDEST PUSH2 0x40F PUSH2 0x40A CALLDATASIZE PUSH1 0x4 PUSH2 0x3BB4 JUMP JUMPDEST PUSH2 0x1DD2 JUMP JUMPDEST PUSH1 0x40 MLOAD PUSH2 0x1FF SWAP2 SWAP1 PUSH2 0x3BE7 JUMP JUMPDEST PUSH2 0x297 PUSH1 0x0 DUP2 JUMP JUMPDEST PUSH2 0x23E PUSH2 0x432 CALLDATASIZE PUSH1 0x4 PUSH2 0x3816 JUMP JUMPDEST PUSH2 0x1FFD JUMP JUMPDEST PUSH2 0x297 PUSH2 0x445 CALLDATASIZE PUSH1 0x4 PUSH2 0x39B4 JUMP JUMPDEST PUSH2 0x206B JUMP JUMPDEST PUSH2 0x340 PUSH2 0x458 CALLDATASIZE PUSH1 0x4 PUSH2 0x3BFA JUMP JUMPDEST PUSH2 0x2141 JUMP JUMPDEST PUSH2 0x23E PUSH2 0x46B CALLDATASIZE PUSH1 0x4 PUSH2 0x37EA JUMP JUMPDEST PUSH2 0x23D9 JUMP JUMPDEST PUSH2 0x320 PUSH2 0x23FF JUMP JUMPDEST PUSH2 0x23E PUSH2 0x486 CALLDATASIZE PUSH1 0x4 PUSH2 0x3795 JUMP JUMPDEST PUSH2 0x276F JUMP JUMPDEST PUSH2 0x297 PUSH2 0x499 CALLDATASIZE PUSH1 0x4 PUSH2 0x3795 JUMP JUMPDEST PUSH2 0x2844 JUMP JUMPDEST PUSH2 0x266 PUSH2 0x28C3 JUMP JUMPDEST PUSH2 0x297 PUSH2 0x4B4 CALLDATASIZE PUSH1 0x4 PUSH2 0x39B4 JUMP JUMPDEST PUSH20 0xFFFFFFFFFFFFFFFFFFFFFFFFFFFFFFFFFFFFFFFF SWAP2 SWAP1 SWAP2 AND PUSH1 0x0 SWAP1 DUP2 MSTORE PUSH1 0x6 PUSH1 0x20 SWAP1 DUP2 MSTORE PUSH1 0x40 DUP1 DUP4 KECCAK256 SWAP4 DUP4 MSTORE SWAP3 SWAP1 MSTORE KECCAK256 SLOAD SWAP1 JUMP JUMPDEST PUSH1 0x60 PUSH1 0x0 PUSH2 0x4F7 PUSH1 0x3 PUSH2 0x2923 JUMP JUMPDEST DUP5 LT PUSH2 0x504 JUMPI PUSH1 0x0 PUSH2 0x519 JUMP JUMPDEST DUP4 PUSH2 0x50F PUSH1 0x3 PUSH2 0x2923 JUMP JUMPDEST PUSH2 0x519 SWAP2 SWAP1 PUSH2 0x3C62 JUMP JUMPDEST SWAP1 POP PUSH1 0x0 DUP4 DUP3 GT ISZERO PUSH2 0x52B JUMPI DUP4 PUSH2 0x52D JUMP JUMPDEST DUP2 JUMPDEST SWAP1 POP PUSH1 0x0 DUP2 PUSH8 0xFFFFFFFFFFFFFFFF DUP2 GT ISZERO PUSH2 0x54A JUMPI PUSH2 0x54A PUSH2 0x3C75 JUMP JUMPDEST PUSH1 0x40 MLOAD SWAP1 DUP1 DUP3 MSTORE DUP1 PUSH1 0x20 MUL PUSH1 0x20 ADD DUP3 ADD PUSH1 0x40 MSTORE DUP1 ISZERO PUSH2 0x57D JUMPI DUP2 PUSH1 0x20 ADD JUMPDEST PUSH1 0x60 DUP2 MSTORE PUSH1 0x20 ADD SWAP1 PUSH1 0x1 SWAP1 SUB SWAP1 DUP2 PUSH2 0x568 JUMPI SWAP1 POP JUMPDEST POP SWAP1 POP PUSH1 0x0 JUMPDEST DUP3 DUP2 LT ISZERO PUSH2 0x5D3 JUMPI PUSH2 0x5A3 PUSH2 0x261 PUSH2 0x59B DUP4 DUP11 PUSH2 0x3CA4 JUMP JUMPDEST PUSH1 0x3 SWAP1 PUSH2 0x292D JUMP JUMPDEST DUP3 DUP3 DUP2 MLOAD DUP2 LT PUSH2 0x5B5 JUMPI PUSH2 0x5B5 PUSH2 0x3CB7 JUMP JUMPDEST PUSH1 0x20 MUL PUSH1 0x20 ADD ADD DUP2 SWAP1 MSTORE POP DUP1 DUP1 PUSH2 0x5CB SWAP1 PUSH2 0x3CE6 JUMP JUMPDEST SWAP2 POP POP PUSH2 0x583 JUMP JUMPDEST POP SWAP3 POP POP POP JUMPDEST SWAP3 SWAP2 POP POP JUMP JUMPDEST PUSH1 0x0 PUSH32 0xFFFFFFFF00000000000000000000000000000000000000000000000000000000 DUP3 AND PUSH32 0xF6ADCF6B00000000000000000000000000000000000000000000000000000000 EQ DUP1 PUSH2 0x5D9 JUMPI POP PUSH2 0x5D9 DUP3 PUSH2 0x2940 JUMP JUMPDEST PUSH32 0xC9FC9949603A50F5CC3A96F774F1D68287789A241D2082DC81D0FB19A53BCF2B PUSH2 0x65F DUP2 PUSH2 0x29D7 JUMP JUMPDEST PUSH1 0x0 DUP3 GT PUSH2 0x6CE JUMPI PUSH1 0x40 MLOAD PUSH32 0x8C379A000000000000000000000000000000000000000000000000000000000 DUP2 MSTORE PUSH1 0x20 PUSH1 0x4 DUP3 ADD MSTORE PUSH1 0x12 PUSH1 0x24 DUP3 ADD MSTORE PUSH32 0x4F66667365742063616E6E6F7420626520300000000000000000000000000000 PUSH1 0x44 DUP3 ADD MSTORE PUSH1 0x64 ADD JUMPDEST PUSH1 0x40 MLOAD DUP1 SWAP2 SUB SWAP1 REVERT JUMPDEST POP PUSH1 0x7 SSTORE JUMP JUMPDEST PUSH32 0xC9FC9949603A50F5CC3A96F774F1D68287789A241D2082DC81D0FB19A53BCF2B PUSH2 0x6FE DUP2 PUSH2 0x29D7 JUMP JUMPDEST PUSH2 0x709 PUSH1 0x3 DUP4 PUSH2 0x29EB JUMP JUMPDEST POP PUSH1 0x0 DUP3 DUP2 MSTORE PUSH1 0x5 PUSH1 0x20 MSTORE PUSH1 0x40 SWAP1 DUP2 SWAP1 KECCAK256 SWAP1 MLOAD DUP4 SWAP1 PUSH32 0x864136C4EBCA2D8889222BC6E0378756C87AA96DBAC4E5645772CF08D4112EE SWAP1 PUSH2 0x74B SWAP1 DUP5 SWAP1 PUSH2 0x3E7D JUMP JUMPDEST PUSH1 0x40 MLOAD DUP1 SWAP2 SUB SWAP1 LOG2 PUSH1 0x0 PUSH1 0xA SWAP1 SWAP2 ADD SSTORE POP POP JUMP JUMPDEST PUSH1 0x40 DUP1 MLOAD PUSH1 0x2 DUP1 DUP3 MSTORE PUSH1 0x60 DUP1 DUP4 ADD DUP5 MSTORE SWAP3 PUSH1 0x0 SWAP3 SWAP2 SWAP1 PUSH1 0x20 DUP4 ADD SWAP1 DUP1 CALLDATASIZE DUP4 CALLDATACOPY ADD SWAP1 POP POP SWAP1 POP DUP3 DUP2 PUSH1 0x0 DUP2 MLOAD DUP2 LT PUSH2 0x798 JUMPI PUSH2 0x798 PUSH2 0x3CB7 JUMP JUMPDEST PUSH1 0x20 MUL PUSH1 0x20 ADD ADD DUP2 DUP2 MSTORE POP POP PUSH1 0x5 PUSH1 0x0 DUP5 DUP2 MSTORE PUSH1 0x20 ADD SWAP1 DUP2 MSTORE PUSH1 0x20 ADD PUSH1 0x0 KECCAK256 PUSH1 0xB ADD SLOAD DUP2 PUSH1 0x1 DUP2 MLOAD DUP2 LT PUSH2 0x7CE JUMPI PUSH2 0x7CE PUSH2 0x3CB7 JUMP JUMPDEST PUSH1 0x20 SWAP1 DUP2 MUL SWAP2 SWAP1 SWAP2 ADD ADD MSTORE SWAP3 SWAP2 POP POP JUMP JUMPDEST PUSH1 0x0 DUP3 DUP2 MSTORE PUSH1 0x1 PUSH1 0x20 DUP2 SWAP1 MSTORE PUSH1 0x40 SWAP1 SWAP2 KECCAK256 ADD SLOAD PUSH2 0x7FB DUP2 PUSH2 0x29D7 JUMP JUMPDEST PUSH2 0x805 DUP4 DUP4 PUSH2 0x29F7 JUMP JUMPDEST POP POP POP JUMP JUMPDEST PUSH2 0x812 PUSH2 0x2AED JUMP JUMPDEST PUSH20 0xFFFFFFFFFFFFFFFFFFFFFFFFFFFFFFFFFFFFFFFF AND DUP2 PUSH20 0xFFFFFFFFFFFFFFFFFFFFFFFFFFFFFFFFFFFFFFFF AND EQ PUSH2 0x8CC JUMPI PUSH1 0x40 MLOAD PUSH32 0x8C379A000000000000000000000000000000000000000000000000000000000 DUP2 MSTORE PUSH1 0x20 PUSH1 0x4 DUP3 ADD MSTORE PUSH1 0x2F PUSH1 0x24 DUP3 ADD MSTORE PUSH32 0x416363657373436F6E74726F6C3A2063616E206F6E6C792072656E6F756E6365 PUSH1 0x44 DUP3 ADD MSTORE PUSH32 0x20726F6C657320666F722073656C660000000000000000000000000000000000 PUSH1 0x64 DUP3 ADD MSTORE PUSH1 0x84 ADD PUSH2 0x6C5 JUMP JUMPDEST PUSH2 0x8D6 DUP3 DUP3 PUSH2 0x2AF7 JUMP JUMPDEST POP POP JUMP JUMPDEST PUSH1 0x60 PUSH1 0x0 PUSH2 0x8E8 PUSH1 0x3 PUSH2 0x2923 JUMP JUMPDEST DUP5 LT PUSH2 0x8F5 JUMPI PUSH1 0x0 PUSH2 0x90A JUMP JUMPDEST DUP4 PUSH2 0x900 PUSH1 0x3 PUSH2 0x2923 JUMP JUMPDEST PUSH2 0x90A SWAP2 SWAP1 PUSH2 0x3C62 JUMP JUMPDEST SWAP1 POP PUSH1 0x0 DUP4 DUP3 GT ISZERO PUSH2 0x91C JUMPI DUP4 PUSH2 0x91E JUMP JUMPDEST DUP2 JUMPDEST SWAP1 POP PUSH1 0x0 DUP2 PUSH8 0xFFFFFFFFFFFFFFFF DUP2 GT ISZERO PUSH2 0x93B JUMPI PUSH2 0x93B PUSH2 0x3C75 JUMP JUMPDEST PUSH1 0x40 MLOAD SWAP1 DUP1 DUP3 MSTORE DUP1 PUSH1 0x20 MUL PUSH1 0x20 ADD DUP3 ADD PUSH1 0x40 MSTORE DUP1 ISZERO PUSH2 0x964 JUMPI DUP2 PUSH1 0x20 ADD PUSH1 0x20 DUP3 MUL DUP1 CALLDATASIZE DUP4 CALLDATACOPY ADD SWAP1 POP JUMPDEST POP SWAP1 POP PUSH1 0x0 JUMPDEST DUP3 DUP2 LT ISZERO PUSH2 0x5D3 JUMPI PUSH2 0x97F PUSH2 0x59B DUP3 DUP10 PUSH2 0x3CA4 JUMP JUMPDEST DUP3 DUP3 DUP2 MLOAD DUP2 LT PUSH2 0x991 JUMPI PUSH2 0x991 PUSH2 0x3CB7 JUMP JUMPDEST PUSH1 0x20 SWAP1 DUP2 MUL SWAP2 SWAP1 SWAP2 ADD ADD MSTORE DUP1 PUSH2 0x9A6 DUP2 PUSH2 0x3CE6 JUMP JUMPDEST SWAP2 POP POP PUSH2 0x96A JUMP JUMPDEST PUSH1 0x60 PUSH1 0x0 PUSH2 0x9BC PUSH1 0x3 PUSH2 0x2923 JUMP JUMPDEST DUP5 LT PUSH2 0x9C9 JUMPI PUSH1 0x0 PUSH2 0x9DE JUMP JUMPDEST DUP4 PUSH2 0x9D4 PUSH1 0x3 PUSH2 0x2923 JUMP JUMPDEST PUSH2 0x9DE SWAP2 SWAP1 PUSH2 0x3C62 JUMP JUMPDEST SWAP1 POP PUSH1 0x0 DUP4 DUP3 GT ISZERO PUSH2 0x9F0 JUMPI DUP4 PUSH2 0x9F2 JUMP JUMPDEST DUP2 JUMPDEST SWAP1 POP PUSH1 0x0 DUP2 PUSH8 0xFFFFFFFFFFFFFFFF DUP2 GT ISZERO PUSH2 0xA0F JUMPI PUSH2 0xA0F PUSH2 0x3C75 JUMP JUMPDEST PUSH1 0x40 MLOAD SWAP1 DUP1 DUP3 MSTORE DUP1 PUSH1 0x20 MUL PUSH1 0x20 ADD DUP3 ADD PUSH1 0x40 MSTORE DUP1 ISZERO PUSH2 0xAD0 JUMPI DUP2 PUSH1 0x20 ADD JUMPDEST PUSH2 0xABD PUSH1 0x40 MLOAD DUP1 PUSH2 0x180 ADD PUSH1 0x40 MSTORE DUP1 PUSH1 0x0 DUP2 MSTORE PUSH1 0x20 ADD PUSH1 0x0 PUSH20 0xFFFFFFFFFFFFFFFFFFFFFFFFFFFFFFFFFFFFFFFF AND DUP2 MSTORE PUSH1 0x20 ADD PUSH1 0x60 DUP2 MSTORE PUSH1 0x20 ADD PUSH1 0x60 DUP2 MSTORE PUSH1 0x20 ADD PUSH1 0x0 PUSH20 0xFFFFFFFFFFFFFFFFFFFFFFFFFFFFFFFFFFFFFFFF AND DUP2 MSTORE PUSH1 0x20 ADD PUSH1 0x60 DUP2 MSTORE PUSH1 0x20 ADD PUSH1 0x60 DUP2 MSTORE PUSH1 0x20 ADD PUSH1 0x60 DUP2 MSTORE PUSH1 0x20 ADD PUSH1 0x0 DUP2 MSTORE PUSH1 0x20 ADD PUSH1 0x0 DUP2 MSTORE PUSH1 0x20 ADD PUSH1 0x0 DUP2 MSTORE PUSH1 0x20 ADD PUSH1 0x0 DUP2 MSTORE POP SWAP1 JUMP JUMPDEST DUP2 MSTORE PUSH1 0x20 ADD SWAP1 PUSH1 0x1 SWAP1 SUB SWAP1 DUP2 PUSH2 0xA2D JUMPI SWAP1 POP JUMPDEST POP SWAP1 POP PUSH1 0x0 JUMPDEST DUP3 DUP2 LT ISZERO PUSH2 0x5D3 JUMPI PUSH1 0x5 PUSH1 0x0 PUSH2 0xAEF PUSH2 0x59B DUP5 DUP12 PUSH2 0x3CA4 JUMP JUMPDEST DUP2 MSTORE PUSH1 0x20 DUP1 DUP3 ADD SWAP3 SWAP1 SWAP3 MSTORE PUSH1 0x40 SWAP1 DUP2 ADD PUSH1 0x0 KECCAK256 DUP2 MLOAD PUSH2 0x180 DUP2 ADD DUP4 MSTORE DUP2 SLOAD DUP2 MSTORE PUSH1 0x1 DUP3 ADD SLOAD PUSH20 0xFFFFFFFFFFFFFFFFFFFFFFFFFFFFFFFFFFFFFFFF AND DUP2 DUP6 ADD MSTORE PUSH1 0x2 DUP3 ADD DUP1 SLOAD DUP5 MLOAD DUP2 DUP8 MUL DUP2 ADD DUP8 ADD DUP7 MSTORE DUP2 DUP2 MSTORE SWAP3 SWAP6 SWAP4 SWAP5 DUP7 ADD SWAP4 DUP4 ADD DUP3 DUP3 DUP1 ISZERO PUSH2 0xB78 JUMPI PUSH1 0x20 MUL DUP3 ADD SWAP2 SWAP1 PUSH1 0x0 MSTORE PUSH1 0x20 PUSH1 0x0 KECCAK256 SWAP1 JUMPDEST DUP2 SLOAD DUP2 MSTORE PUSH1 0x20 ADD SWAP1 PUSH1 0x1 ADD SWAP1 DUP1 DUP4 GT PUSH2 0xB64 JUMPI JUMPDEST POP POP POP POP POP DUP2 MSTORE PUSH1 0x20 ADD PUSH1 0x3 DUP3 ADD DUP1 SLOAD DUP1 PUSH1 0x20 MUL PUSH1 0x20 ADD PUSH1 0x40 MLOAD SWAP1 DUP2 ADD PUSH1 0x40 MSTORE DUP1 SWAP3 SWAP2 SWAP1 DUP2 DUP2 MSTORE PUSH1 0x20 ADD DUP3 DUP1 SLOAD DUP1 ISZERO PUSH2 0xBD0 JUMPI PUSH1 0x20 MUL DUP3 ADD SWAP2 SWAP1 PUSH1 0x0 MSTORE PUSH1 0x20 PUSH1 0x0 KECCAK256 SWAP1 JUMPDEST DUP2 SLOAD DUP2 MSTORE PUSH1 0x20 ADD SWAP1 PUSH1 0x1 ADD SWAP1 DUP1 DUP4 GT PUSH2 0xBBC JUMPI JUMPDEST POP POP POP SWAP2 DUP4 MSTORE POP POP PUSH1 0x4 DUP3 ADD SLOAD PUSH20 0xFFFFFFFFFFFFFFFFFFFFFFFFFFFFFFFFFFFFFFFF AND PUSH1 0x20 DUP1 DUP4 ADD SWAP2 SWAP1 SWAP2 MSTORE PUSH1 0x5 DUP4 ADD DUP1 SLOAD PUSH1 0x40 DUP1 MLOAD DUP3 DUP6 MUL DUP2 ADD DUP6 ADD DUP3 MSTORE DUP3 DUP2 MSTORE SWAP5 ADD SWAP4 SWAP3 DUP4 ADD DUP3 DUP3 DUP1 ISZERO PUSH2 0xC45 JUMPI PUSH1 0x20 MUL DUP3 ADD SWAP2 SWAP1 PUSH1 0x0 MSTORE PUSH1 0x20 PUSH1 0x0 KECCAK256 SWAP1 JUMPDEST DUP2 SLOAD DUP2 MSTORE PUSH1 0x20 ADD SWAP1 PUSH1 0x1 ADD SWAP1 DUP1 DUP4 GT PUSH2 0xC31 JUMPI JUMPDEST POP POP POP POP POP DUP2 MSTORE PUSH1 0x20 ADD PUSH1 0x6 DUP3 ADD DUP1 SLOAD DUP1 PUSH1 0x20 MUL PUSH1 0x20 ADD PUSH1 0x40 MLOAD SWAP1 DUP2 ADD PUSH1 0x40 MSTORE DUP1 SWAP3 SWAP2 SWAP1 DUP2 DUP2 MSTORE PUSH1 0x20 ADD DUP3 DUP1 SLOAD DUP1 ISZERO PUSH2 0xC9D JUMPI PUSH1 0x20 MUL DUP3 ADD SWAP2 SWAP1 PUSH1 0x0 MSTORE PUSH1 0x20 PUSH1 0x0 KECCAK256 SWAP1 JUMPDEST DUP2 SLOAD DUP2 MSTORE PUSH1 0x20 ADD SWAP1 PUSH1 0x1 ADD SWAP1 DUP1 DUP4 GT PUSH2 0xC89 JUMPI JUMPDEST POP POP POP POP POP DUP2 MSTORE PUSH1 0x20 ADD PUSH1 0x7 DUP3 ADD DUP1 SLOAD DUP1 PUSH1 0x20 MUL PUSH1 0x20 ADD PUSH1 0x40 MLOAD SWAP1 DUP2 ADD PUSH1 0x40 MSTORE DUP1 SWAP3 SWAP2 SWAP1 DUP2 DUP2 MSTORE PUSH1 0x20 ADD DUP3 DUP1 SLOAD DUP1 ISZERO PUSH2 0xCF5 JUMPI PUSH1 0x20 MUL DUP3 ADD SWAP2 SWAP1 PUSH1 0x0 MSTORE PUSH1 0x20 PUSH1 0x0 KECCAK256 SWAP1 JUMPDEST DUP2 SLOAD DUP2 MSTORE PUSH1 0x20 ADD SWAP1 PUSH1 0x1 ADD SWAP1 DUP1 DUP4 GT PUSH2 0xCE1 JUMPI JUMPDEST POP POP POP POP POP DUP2 MSTORE PUSH1 0x20 ADD PUSH1 0x8 DUP3 ADD SLOAD DUP2 MSTORE PUSH1 0x20 ADD PUSH1 0x9 DUP3 ADD SLOAD DUP2 MSTORE PUSH1 0x20 ADD PUSH1 0xA DUP3 ADD SLOAD DUP2 MSTORE PUSH1 0x20 ADD PUSH1 0xB DUP3 ADD SLOAD DUP2 MSTORE POP POP DUP3 DUP3 DUP2 MLOAD DUP2 LT PUSH2 0xD38 JUMPI PUSH2 0xD38 PUSH2 0x3CB7 JUMP JUMPDEST PUSH1 0x20 MUL PUSH1 0x20 ADD ADD DUP2 SWAP1 MSTORE POP DUP1 DUP1 PUSH2 0xD4E SWAP1 PUSH2 0x3CE6 JUMP JUMPDEST SWAP2 POP POP PUSH2 0xAD6 JUMP JUMPDEST PUSH20 0xFFFFFFFFFFFFFFFFFFFFFFFFFFFFFFFFFFFFFFFF DUP3 AND PUSH1 0x0 SWAP1 DUP2 MSTORE PUSH1 0x6 PUSH1 0x20 SWAP1 DUP2 MSTORE PUSH1 0x40 DUP1 DUP4 KECCAK256 DUP5 DUP5 MSTORE DUP3 MSTORE DUP1 DUP4 KECCAK256 DUP1 SLOAD DUP3 MLOAD DUP2 DUP6 MUL DUP2 ADD DUP6 ADD SWAP1 SWAP4 MSTORE DUP1 DUP4 MSTORE PUSH1 0x60 SWAP5 SWAP3 SWAP4 SWAP2 SWAP3 SWAP1 SWAP2 DUP5 ADD JUMPDEST DUP3 DUP3 LT ISZERO PUSH2 0xEAB JUMPI DUP4 DUP3 SWAP1 PUSH1 0x0 MSTORE PUSH1 0x20 PUSH1 0x0 KECCAK256 SWAP1 PUSH1 0x5 MUL ADD PUSH1 0x40 MLOAD DUP1 PUSH1 0xA0 ADD PUSH1 0x40 MSTORE SWAP1 DUP2 PUSH1 0x0 DUP3 ADD SLOAD DUP2 MSTORE PUSH1 0x20 ADD PUSH1 0x1 DUP3 ADD SLOAD DUP2 MSTORE PUSH1 0x20 ADD PUSH1 0x2 DUP3 ADD DUP1 SLOAD DUP1 PUSH1 0x20 MUL PUSH1 0x20 ADD PUSH1 0x40 MLOAD SWAP1 DUP2 ADD PUSH1 0x40 MSTORE DUP1 SWAP3 SWAP2 SWAP1 DUP2 DUP2 MSTORE PUSH1 0x20 ADD DUP3 DUP1 SLOAD DUP1 ISZERO PUSH2 0xE29 JUMPI PUSH1 0x20 MUL DUP3 ADD SWAP2 SWAP1 PUSH1 0x0 MSTORE PUSH1 0x20 PUSH1 0x0 KECCAK256 SWAP1 JUMPDEST DUP2 SLOAD DUP2 MSTORE PUSH1 0x20 ADD SWAP1 PUSH1 0x1 ADD SWAP1 DUP1 DUP4 GT PUSH2 0xE15 JUMPI JUMPDEST POP POP POP POP POP DUP2 MSTORE PUSH1 0x20 ADD PUSH1 0x3 DUP3 ADD DUP1 SLOAD DUP1 PUSH1 0x20 MUL PUSH1 0x20 ADD PUSH1 0x40 MLOAD SWAP1 DUP2 ADD PUSH1 0x40 MSTORE DUP1 SWAP3 SWAP2 SWAP1 DUP2 DUP2 MSTORE PUSH1 0x20 ADD DUP3 DUP1 SLOAD DUP1 ISZERO PUSH2 0xE81 JUMPI PUSH1 0x20 MUL DUP3 ADD SWAP2 SWAP1 PUSH1 0x0 MSTORE PUSH1 0x20 PUSH1 0x0 KECCAK256 SWAP1 JUMPDEST DUP2 SLOAD DUP2 MSTORE PUSH1 0x20 ADD SWAP1 PUSH1 0x1 ADD SWAP1 DUP1 DUP4 GT PUSH2 0xE6D JUMPI JUMPDEST POP POP POP SWAP2 DUP4 MSTORE POP POP PUSH1 0x4 SWAP2 SWAP1 SWAP2 ADD SLOAD PUSH1 0xFF AND ISZERO ISZERO PUSH1 0x20 SWAP2 DUP3 ADD MSTORE SWAP1 DUP3 MSTORE PUSH1 0x1 SWAP3 SWAP1 SWAP3 ADD SWAP2 ADD PUSH2 0xDA3 JUMP JUMPDEST POP POP POP POP SWAP1 POP SWAP3 SWAP2 POP POP JUMP JUMPDEST PUSH1 0x60 PUSH1 0x0 PUSH2 0xEC3 PUSH2 0x145A JUMP JUMPDEST PUSH8 0xFFFFFFFFFFFFFFFF DUP2 GT ISZERO PUSH2 0xEDB JUMPI PUSH2 0xEDB PUSH2 0x3C75 JUMP JUMPDEST PUSH1 0x40 MLOAD SWAP1 DUP1 DUP3 MSTORE DUP1 PUSH1 0x20 MUL PUSH1 0x20 ADD DUP3 ADD PUSH1 0x40 MSTORE DUP1 ISZERO PUSH2 0xF0E JUMPI DUP2 PUSH1 0x20 ADD JUMPDEST PUSH1 0x60 DUP2 MSTORE PUSH1 0x20 ADD SWAP1 PUSH1 0x1 SWAP1 SUB SWAP1 DUP2 PUSH2 0xEF9 JUMPI SWAP1 POP JUMPDEST POP SWAP1 POP PUSH1 0x0 JUMPDEST PUSH2 0xF1C PUSH2 0x145A JUMP JUMPDEST DUP2 LT ISZERO PUSH2 0xF61 JUMPI PUSH2 0xF31 PUSH2 0x261 PUSH1 0x3 DUP4 PUSH2 0x292D JUMP JUMPDEST DUP3 DUP3 DUP2 MLOAD DUP2 LT PUSH2 0xF43 JUMPI PUSH2 0xF43 PUSH2 0x3CB7 JUMP JUMPDEST PUSH1 0x20 MUL PUSH1 0x20 ADD ADD DUP2 SWAP1 MSTORE POP DUP1 DUP1 PUSH2 0xF59 SWAP1 PUSH2 0x3CE6 JUMP JUMPDEST SWAP2 POP POP PUSH2 0xF14 JUMP JUMPDEST POP SWAP2 SWAP1 POP JUMP JUMPDEST PUSH1 0x2 DUP1 SLOAD SUB PUSH2 0xFD2 JUMPI PUSH1 0x40 MLOAD PUSH32 0x8C379A000000000000000000000000000000000000000000000000000000000 DUP2 MSTORE PUSH1 0x20 PUSH1 0x4 DUP3 ADD MSTORE PUSH1 0x1F PUSH1 0x24 DUP3 ADD MSTORE PUSH32 0x5265656E7472616E637947756172643A207265656E7472616E742063616C6C00 PUSH1 0x44 DUP3 ADD MSTORE PUSH1 0x64 ADD PUSH2 0x6C5 JUMP JUMPDEST PUSH1 0x2 DUP1 SSTORE PUSH2 0xFE1 PUSH1 0x3 DUP3 PUSH2 0x2BEA JUMP JUMPDEST PUSH2 0x106D JUMPI PUSH1 0x40 MLOAD PUSH32 0x8C379A000000000000000000000000000000000000000000000000000000000 DUP2 MSTORE PUSH1 0x20 PUSH1 0x4 DUP3 ADD MSTORE PUSH1 0x2D PUSH1 0x24 DUP3 ADD MSTORE PUSH32 0x6C6F6F74626F78496420646F6573206E6F74206578697374206F722068617320 PUSH1 0x44 DUP3 ADD MSTORE PUSH32 0x6265656E2072656D6F7665642E00000000000000000000000000000000000000 PUSH1 0x64 DUP3 ADD MSTORE PUSH1 0x84 ADD PUSH2 0x6C5 JUMP JUMPDEST PUSH1 0x0 DUP2 DUP2 MSTORE PUSH1 0x5 PUSH1 0x20 MSTORE PUSH1 0x40 SWAP1 KECCAK256 PUSH1 0x1 DUP2 ADD SLOAD PUSH20 0xFFFFFFFFFFFFFFFFFFFFFFFFFFFFFFFFFFFFFFFF AND ISZERO PUSH2 0x125C JUMPI PUSH1 0x1 DUP2 ADD SLOAD PUSH1 0x40 MLOAD PUSH32 0x1FFC9A700000000000000000000000000000000000000000000000000000000 DUP2 MSTORE PUSH32 0x909AA65D00000000000000000000000000000000000000000000000000000000 PUSH1 0x4 DUP3 ADD MSTORE PUSH20 0xFFFFFFFFFFFFFFFFFFFFFFFFFFFFFFFFFFFFFFFF SWAP1 SWAP2 AND SWAP1 PUSH4 0x1FFC9A7 SWAP1 PUSH1 0x24 ADD PUSH1 0x20 PUSH1 0x40 MLOAD DUP1 DUP4 SUB DUP2 DUP7 GAS STATICCALL ISZERO DUP1 ISZERO PUSH2 0x112B JUMPI RETURNDATASIZE PUSH1 0x0 DUP1 RETURNDATACOPY RETURNDATASIZE PUSH1 0x0 REVERT JUMPDEST POP POP POP POP PUSH1 0x40 MLOAD RETURNDATASIZE PUSH1 0x1F NOT PUSH1 0x1F DUP3 ADD AND DUP3 ADD DUP1 PUSH1 0x40 MSTORE POP DUP2 ADD SWAP1 PUSH2 0x114F SWAP2 SWAP1 PUSH2 0x3E90 JUMP JUMPDEST ISZERO PUSH2 0x11D9 JUMPI PUSH1 0x1 DUP2 ADD SLOAD PUSH20 0xFFFFFFFFFFFFFFFFFFFFFFFFFFFFFFFFFFFFFFFF AND PUSH4 0x4B7C78DC PUSH2 0x117C PUSH2 0x2AED JUMP JUMPDEST DUP4 PUSH1 0x2 ADD DUP5 PUSH1 0x3 ADD PUSH1 0x40 MLOAD DUP5 PUSH4 0xFFFFFFFF AND PUSH1 0xE0 SHL DUP2 MSTORE PUSH1 0x4 ADD PUSH2 0x11A2 SWAP4 SWAP3 SWAP2 SWAP1 PUSH2 0x3EB2 JUMP JUMPDEST PUSH1 0x0 PUSH1 0x40 MLOAD DUP1 DUP4 SUB DUP2 PUSH1 0x0 DUP8 DUP1 EXTCODESIZE ISZERO DUP1 ISZERO PUSH2 0x11BC JUMPI PUSH1 0x0 DUP1 REVERT JUMPDEST POP GAS CALL ISZERO DUP1 ISZERO PUSH2 0x11D0 JUMPI RETURNDATASIZE PUSH1 0x0 DUP1 RETURNDATACOPY RETURNDATASIZE PUSH1 0x0 REVERT JUMPDEST POP POP POP POP PUSH2 0x125C JUMP JUMPDEST PUSH1 0x1 DUP2 ADD SLOAD PUSH20 0xFFFFFFFFFFFFFFFFFFFFFFFFFFFFFFFFFFFFFFFF AND PUSH4 0x2EB2C2D6 PUSH2 0x1201 PUSH2 0x2AED JUMP JUMPDEST ADDRESS DUP5 PUSH1 0x2 ADD DUP6 PUSH1 0x3 ADD PUSH1 0x40 MLOAD DUP6 PUSH4 0xFFFFFFFF AND PUSH1 0xE0 SHL DUP2 MSTORE PUSH1 0x4 ADD PUSH2 0x1229 SWAP5 SWAP4 SWAP3 SWAP2 SWAP1 PUSH2 0x3EFD JUMP JUMPDEST PUSH1 0x0 PUSH1 0x40 MLOAD DUP1 DUP4 SUB DUP2 PUSH1 0x0 DUP8 DUP1 EXTCODESIZE ISZERO DUP1 ISZERO PUSH2 0x1243 JUMPI PUSH1 0x0 DUP1 REVERT JUMPDEST POP GAS CALL ISZERO DUP1 ISZERO PUSH2 0x1257 JUMPI RETURNDATASIZE PUSH1 0x0 DUP1 RETURNDATACOPY RETURNDATASIZE PUSH1 0x0 REVERT JUMPDEST POP POP POP POP JUMPDEST PUSH2 0x1290 PUSH1 0x40 MLOAD DUP1 PUSH1 0xA0 ADD PUSH1 0x40 MSTORE DUP1 PUSH1 0x0 DUP2 MSTORE PUSH1 0x20 ADD PUSH1 0x0 DUP2 MSTORE PUSH1 0x20 ADD PUSH1 0x60 DUP2 MSTORE PUSH1 0x20 ADD PUSH1 0x60 DUP2 MSTORE PUSH1 0x20 ADD PUSH1 0x0 ISZERO ISZERO DUP2 MSTORE POP SWAP1 JUMP JUMPDEST DUP3 DUP2 MSTORE PUSH1 0x7 SLOAD PUSH2 0x12A0 SWAP1 NUMBER PUSH2 0x3CA4 JUMP JUMPDEST PUSH1 0x20 DUP3 ADD MSTORE PUSH1 0x6 PUSH1 0x0 PUSH2 0x12B1 PUSH2 0x2AED JUMP JUMPDEST PUSH20 0xFFFFFFFFFFFFFFFFFFFFFFFFFFFFFFFFFFFFFFFF AND DUP2 MSTORE PUSH1 0x20 DUP1 DUP3 ADD SWAP3 SWAP1 SWAP3 MSTORE PUSH1 0x40 SWAP1 DUP2 ADD PUSH1 0x0 SWAP1 DUP2 KECCAK256 DUP7 DUP3 MSTORE DUP4 MSTORE DUP2 DUP2 KECCAK256 DUP1 SLOAD PUSH1 0x1 DUP2 DUP2 ADD DUP4 SSTORE SWAP2 DUP4 MSTORE SWAP2 DUP5 SWAP1 KECCAK256 DUP6 MLOAD PUSH1 0x5 SWAP1 SWAP4 MUL ADD SWAP2 DUP3 SSTORE DUP5 DUP5 ADD MLOAD SWAP1 DUP3 ADD SSTORE SWAP1 DUP4 ADD MLOAD DUP1 MLOAD DUP5 SWAP4 PUSH2 0x1320 SWAP3 PUSH1 0x2 DUP6 ADD SWAP3 SWAP2 ADD SWAP1 PUSH2 0x3616 JUMP JUMPDEST POP PUSH1 0x60 DUP3 ADD MLOAD DUP1 MLOAD PUSH2 0x133C SWAP2 PUSH1 0x3 DUP5 ADD SWAP2 PUSH1 0x20 SWAP1 SWAP2 ADD SWAP1 PUSH2 0x3616 JUMP JUMPDEST POP PUSH1 0x80 SWAP2 SWAP1 SWAP2 ADD MLOAD PUSH1 0x4 SWAP1 SWAP2 ADD DUP1 SLOAD PUSH32 0xFFFFFFFFFFFFFFFFFFFFFFFFFFFFFFFFFFFFFFFFFFFFFFFFFFFFFFFFFFFFFF00 AND SWAP2 ISZERO ISZERO SWAP2 SWAP1 SWAP2 OR SWAP1 SSTORE PUSH1 0xA DUP3 ADD DUP1 SLOAD SWAP1 PUSH1 0x0 PUSH2 0x1388 DUP4 PUSH2 0x3CE6 JUMP JUMPDEST SWAP2 SWAP1 POP SSTORE POP DUP3 PUSH32 0xCBE236CCB8BF2AE258FD54E73752D614C82AA6293D5256658CC3CE58DC4D4BF0 DUP4 PUSH2 0x13B8 PUSH2 0x2AED JUMP JUMPDEST PUSH1 0x40 MLOAD PUSH2 0x13C6 SWAP3 SWAP2 SWAP1 PUSH2 0x3F65 JUMP JUMPDEST PUSH1 0x40 MLOAD DUP1 SWAP2 SUB SWAP1 LOG2 POP POP PUSH1 0x1 PUSH1 0x2 SSTORE POP JUMP JUMPDEST PUSH1 0x2 DUP1 SLOAD SUB PUSH2 0x1443 JUMPI PUSH1 0x40 MLOAD PUSH32 0x8C379A000000000000000000000000000000000000000000000000000000000 DUP2 MSTORE PUSH1 0x20 PUSH1 0x4 DUP3 ADD MSTORE PUSH1 0x1F PUSH1 0x24 DUP3 ADD MSTORE PUSH32 0x5265656E7472616E637947756172643A207265656E7472616E742063616C6C00 PUSH1 0x44 DUP3 ADD MSTORE PUSH1 0x64 ADD PUSH2 0x6C5 JUMP JUMPDEST PUSH1 0x2 DUP1 SSTORE PUSH2 0x1451 DUP3 DUP3 PUSH2 0x2C02 JUMP JUMPDEST POP POP PUSH1 0x1 PUSH1 0x2 SSTORE JUMP JUMPDEST PUSH1 0x0 PUSH2 0x1466 PUSH1 0x3 PUSH2 0x2923 JUMP JUMPDEST SWAP1 POP SWAP1 JUMP JUMPDEST PUSH32 0xC9FC9949603A50F5CC3A96F774F1D68287789A241D2082DC81D0FB19A53BCF2B PUSH2 0x1495 DUP2 PUSH2 0x29D7 JUMP JUMPDEST PUSH2 0x149F DUP6 DUP1 PUSH2 0x3F9D JUMP JUMPDEST SWAP1 POP PUSH2 0x14AB DUP8 DUP1 PUSH2 0x3F9D JUMP JUMPDEST SWAP1 POP EQ PUSH2 0x153A JUMPI PUSH1 0x40 MLOAD PUSH32 0x8C379A000000000000000000000000000000000000000000000000000000000 DUP2 MSTORE PUSH1 0x20 PUSH1 0x4 DUP3 ADD MSTORE PUSH1 0x2D PUSH1 0x24 DUP3 ADD MSTORE PUSH32 0x4D69736D61746368656420696E707574206974656D2069647320616E6420616D PUSH1 0x44 DUP3 ADD MSTORE PUSH32 0x6F756E74206C656E677468732E00000000000000000000000000000000000000 PUSH1 0x64 DUP3 ADD MSTORE PUSH1 0x84 ADD PUSH2 0x6C5 JUMP JUMPDEST PUSH2 0x1547 PUSH1 0x20 DUP7 ADD DUP7 PUSH2 0x3F9D JUMP JUMPDEST SWAP1 POP PUSH2 0x1556 PUSH1 0x20 DUP9 ADD DUP9 PUSH2 0x3F9D JUMP JUMPDEST SWAP1 POP EQ PUSH2 0x15E5 JUMPI PUSH1 0x40 MLOAD PUSH32 0x8C379A000000000000000000000000000000000000000000000000000000000 DUP2 MSTORE PUSH1 0x20 PUSH1 0x4 DUP3 ADD MSTORE PUSH1 0x2D PUSH1 0x24 DUP3 ADD MSTORE PUSH32 0x4D69736D617463686564206F7574707574206974656D2069647320616E642061 PUSH1 0x44 DUP3 ADD MSTORE PUSH32 0x6D6F756E74206C656E6774682E00000000000000000000000000000000000000 PUSH1 0x64 DUP3 ADD MSTORE PUSH1 0x84 ADD PUSH2 0x6C5 JUMP JUMPDEST DUP3 PUSH2 0x15F3 PUSH1 0x20 DUP9 ADD DUP9 PUSH2 0x3F9D JUMP JUMPDEST SWAP1 POP EQ PUSH2 0x1682 JUMPI PUSH1 0x40 MLOAD PUSH32 0x8C379A000000000000000000000000000000000000000000000000000000000 DUP2 MSTORE PUSH1 0x20 PUSH1 0x4 DUP3 ADD MSTORE PUSH1 0x31 PUSH1 0x24 DUP3 ADD MSTORE PUSH32 0x4D69736D61746368206F7574707574206974656D2069647320616E6420697465 PUSH1 0x44 DUP3 ADD MSTORE PUSH32 0x6D2077656967687473206C656E6774682E000000000000000000000000000000 PUSH1 0x64 DUP3 ADD MSTORE PUSH1 0x84 ADD PUSH2 0x6C5 JUMP JUMPDEST PUSH1 0x0 DUP1 JUMPDEST DUP5 DUP2 LT ISZERO PUSH2 0x16C6 JUMPI DUP6 DUP6 DUP3 DUP2 DUP2 LT PUSH2 0x16A0 JUMPI PUSH2 0x16A0 PUSH2 0x3CB7 JUMP JUMPDEST SWAP1 POP PUSH1 0x20 MUL ADD CALLDATALOAD DUP3 PUSH2 0x16B2 SWAP2 SWAP1 PUSH2 0x3CA4 JUMP JUMPDEST SWAP2 POP DUP1 PUSH2 0x16BE DUP2 PUSH2 0x3CE6 JUMP JUMPDEST SWAP2 POP POP PUSH2 0x1686 JUMP JUMPDEST POP PUSH1 0x0 PUSH1 0x40 MLOAD DUP1 PUSH2 0x180 ADD PUSH1 0x40 MSTORE DUP1 DUP12 DUP2 MSTORE PUSH1 0x20 ADD DUP11 PUSH1 0x0 PUSH1 0x2 DUP2 LT PUSH2 0x16EE JUMPI PUSH2 0x16EE PUSH2 0x3CB7 JUMP JUMPDEST PUSH1 0x20 MUL ADD PUSH1 0x20 DUP2 ADD SWAP1 PUSH2 0x1701 SWAP2 SWAP1 PUSH2 0x3816 JUMP JUMPDEST PUSH20 0xFFFFFFFFFFFFFFFFFFFFFFFFFFFFFFFFFFFFFFFF AND DUP2 MSTORE PUSH1 0x20 ADD PUSH2 0x1726 DUP11 DUP1 PUSH2 0x3F9D JUMP JUMPDEST DUP1 DUP1 PUSH1 0x20 MUL PUSH1 0x20 ADD PUSH1 0x40 MLOAD SWAP1 DUP2 ADD PUSH1 0x40 MSTORE DUP1 SWAP4 SWAP3 SWAP2 SWAP1 DUP2 DUP2 MSTORE PUSH1 0x20 ADD DUP4 DUP4 PUSH1 0x20 MUL DUP1 DUP3 DUP5 CALLDATACOPY PUSH1 0x0 SWAP3 ADD SWAP2 SWAP1 SWAP2 MSTORE POP POP POP SWAP1 DUP3 MSTORE POP PUSH1 0x20 ADD PUSH2 0x1767 DUP10 DUP1 PUSH2 0x3F9D JUMP JUMPDEST DUP1 DUP1 PUSH1 0x20 MUL PUSH1 0x20 ADD PUSH1 0x40 MLOAD SWAP1 DUP2 ADD PUSH1 0x40 MSTORE DUP1 SWAP4 SWAP3 SWAP2 SWAP1 DUP2 DUP2 MSTORE PUSH1 0x20 ADD DUP4 DUP4 PUSH1 0x20 MUL DUP1 DUP3 DUP5 CALLDATACOPY PUSH1 0x0 SWAP3 ADD SWAP2 SWAP1 SWAP2 MSTORE POP POP POP SWAP1 DUP3 MSTORE POP PUSH1 0x20 SWAP1 DUP2 ADD SWAP1 PUSH2 0x17B1 SWAP1 PUSH1 0x40 DUP14 ADD SWAP1 DUP14 ADD PUSH2 0x3816 JUMP JUMPDEST PUSH20 0xFFFFFFFFFFFFFFFFFFFFFFFFFFFFFFFFFFFFFFFF AND DUP2 MSTORE PUSH1 0x20 SWAP1 DUP2 ADD SWAP1 PUSH2 0x17DB SWAP1 DUP12 ADD DUP12 PUSH2 0x3F9D JUMP JUMPDEST DUP1 DUP1 PUSH1 0x20 MUL PUSH1 0x20 ADD PUSH1 0x40 MLOAD SWAP1 DUP2 ADD PUSH1 0x40 MSTORE DUP1 SWAP4 SWAP3 SWAP2 SWAP1 DUP2 DUP2 MSTORE PUSH1 0x20 ADD DUP4 DUP4 PUSH1 0x20 MUL DUP1 DUP3 DUP5 CALLDATACOPY PUSH1 0x0 SWAP3 ADD SWAP2 SWAP1 SWAP2 MSTORE POP POP POP SWAP1 DUP3 MSTORE POP PUSH1 0x20 SWAP1 DUP2 ADD SWAP1 PUSH2 0x1821 SWAP1 DUP11 ADD DUP11 PUSH2 0x3F9D JUMP JUMPDEST DUP1 DUP1 PUSH1 0x20 MUL PUSH1 0x20 ADD PUSH1 0x40 MLOAD SWAP1 DUP2 ADD PUSH1 0x40 MSTORE DUP1 SWAP4 SWAP3 SWAP2 SWAP1 DUP2 DUP2 MSTORE PUSH1 0x20 ADD DUP4 DUP4 PUSH1 0x20 MUL DUP1 DUP3 DUP5 CALLDATACOPY PUSH1 0x0 SWAP3 ADD SWAP2 SWAP1 SWAP2 MSTORE POP POP POP SWAP1 DUP3 MSTORE POP PUSH1 0x40 DUP1 MLOAD PUSH1 0x20 DUP10 DUP2 MUL DUP3 DUP2 ADD DUP3 ADD SWAP1 SWAP4 MSTORE DUP10 DUP3 MSTORE SWAP3 DUP4 ADD SWAP3 SWAP1 SWAP2 DUP11 SWAP2 DUP11 SWAP2 DUP3 SWAP2 DUP6 ADD SWAP1 DUP5 SWAP1 DUP1 DUP3 DUP5 CALLDATACOPY PUSH1 0x0 SWAP3 ADD DUP3 SWAP1 MSTORE POP SWAP4 DUP6 MSTORE POP POP POP PUSH1 0x20 DUP1 DUP4 ADD DUP7 SWAP1 MSTORE PUSH1 0x40 DUP1 DUP5 ADD DUP10 SWAP1 MSTORE DUP15 DUP4 MSTORE PUSH1 0x5 SWAP1 SWAP2 MSTORE SWAP1 KECCAK256 PUSH1 0xA ADD SLOAD PUSH1 0x60 DUP3 ADD MSTORE TIMESTAMP PUSH1 0x80 SWAP1 SWAP2 ADD MSTORE SWAP1 POP PUSH2 0x18C3 PUSH1 0x3 DUP12 PUSH2 0x3120 JUMP JUMPDEST POP PUSH1 0x0 DUP11 DUP2 MSTORE PUSH1 0x5 PUSH1 0x20 SWAP1 DUP2 MSTORE PUSH1 0x40 SWAP2 DUP3 SWAP1 KECCAK256 DUP4 MLOAD DUP2 SSTORE DUP4 DUP3 ADD MLOAD PUSH1 0x1 DUP3 ADD DUP1 SLOAD PUSH32 0xFFFFFFFFFFFFFFFFFFFFFFFF0000000000000000000000000000000000000000 AND PUSH20 0xFFFFFFFFFFFFFFFFFFFFFFFFFFFFFFFFFFFFFFFF SWAP1 SWAP3 AND SWAP2 SWAP1 SWAP2 OR SWAP1 SSTORE SWAP2 DUP4 ADD MLOAD DUP1 MLOAD DUP5 SWAP4 SWAP3 PUSH2 0x193E SWAP3 PUSH1 0x2 DUP6 ADD SWAP3 SWAP2 ADD SWAP1 PUSH2 0x3616 JUMP JUMPDEST POP PUSH1 0x60 DUP3 ADD MLOAD DUP1 MLOAD PUSH2 0x195A SWAP2 PUSH1 0x3 DUP5 ADD SWAP2 PUSH1 0x20 SWAP1 SWAP2 ADD SWAP1 PUSH2 0x3616 JUMP JUMPDEST POP PUSH1 0x80 DUP3 ADD MLOAD PUSH1 0x4 DUP3 ADD DUP1 SLOAD PUSH32 0xFFFFFFFFFFFFFFFFFFFFFFFF0000000000000000000000000000000000000000 AND PUSH20 0xFFFFFFFFFFFFFFFFFFFFFFFFFFFFFFFFFFFFFFFF SWAP1 SWAP3 AND SWAP2 SWAP1 SWAP2 OR SWAP1 SSTORE PUSH1 0xA0 DUP3 ADD MLOAD DUP1 MLOAD PUSH2 0x19C1 SWAP2 PUSH1 0x5 DUP5 ADD SWAP2 PUSH1 0x20 SWAP1 SWAP2 ADD SWAP1 PUSH2 0x3616 JUMP JUMPDEST POP PUSH1 0xC0 DUP3 ADD MLOAD DUP1 MLOAD PUSH2 0x19DD SWAP2 PUSH1 0x6 DUP5 ADD SWAP2 PUSH1 0x20 SWAP1 SWAP2 ADD SWAP1 PUSH2 0x3616 JUMP JUMPDEST POP PUSH1 0xE0 DUP3 ADD MLOAD DUP1 MLOAD PUSH2 0x19F9 SWAP2 PUSH1 0x7 DUP5 ADD SWAP2 PUSH1 0x20 SWAP1 SWAP2 ADD SWAP1 PUSH2 0x3616 JUMP JUMPDEST POP PUSH2 0x100 DUP3 ADD MLOAD DUP2 PUSH1 0x8 ADD SSTORE PUSH2 0x120 DUP3 ADD MLOAD DUP2 PUSH1 0x9 ADD SSTORE PUSH2 0x140 DUP3 ADD MLOAD DUP2 PUSH1 0xA ADD SSTORE PUSH2 0x160 DUP3 ADD MLOAD DUP2 PUSH1 0xB ADD SSTORE SWAP1 POP POP DUP10 PUSH32 0xB2E547EB18679A18EE72BF11D33344B9A6A24F4AFECF77E5FF1833294B4B0AB9 DUP3 PUSH1 0x40 MLOAD PUSH2 0x1A59 SWAP2 SWAP1 PUSH2 0x3BA1 JUMP JUMPDEST PUSH1 0x40 MLOAD DUP1 SWAP2 SUB SWAP1 LOG2 POP POP POP POP POP POP POP POP POP POP JUMP JUMPDEST PUSH2 0x1AFD PUSH1 0x40 MLOAD DUP1 PUSH2 0x180 ADD PUSH1 0x40 MSTORE DUP1 PUSH1 0x0 DUP2 MSTORE PUSH1 0x20 ADD PUSH1 0x0 PUSH20 0xFFFFFFFFFFFFFFFFFFFFFFFFFFFFFFFFFFFFFFFF AND DUP2 MSTORE PUSH1 0x20 ADD PUSH1 0x60 DUP2 MSTORE PUSH1 0x20 ADD PUSH1 0x60 DUP2 MSTORE PUSH1 0x20 ADD PUSH1 0x0 PUSH20 0xFFFFFFFFFFFFFFFFFFFFFFFFFFFFFFFFFFFFFFFF AND DUP2 MSTORE PUSH1 0x20 ADD PUSH1 0x60 DUP2 MSTORE PUSH1 0x20 ADD PUSH1 0x60 DUP2 MSTORE PUSH1 0x20 ADD PUSH1 0x60 DUP2 MSTORE PUSH1 0x20 ADD PUSH1 0x0 DUP2 MSTORE PUSH1 0x20 ADD PUSH1 0x0 DUP2 MSTORE PUSH1 0x20 ADD PUSH1 0x0 DUP2 MSTORE PUSH1 0x20 ADD PUSH1 0x0 DUP2 MSTORE POP SWAP1 JUMP JUMPDEST PUSH2 0x1B08 PUSH1 0x3 DUP4 PUSH2 0x2BEA JUMP JUMPDEST PUSH2 0x1B94 JUMPI PUSH1 0x40 MLOAD PUSH32 0x8C379A000000000000000000000000000000000000000000000000000000000 DUP2 MSTORE PUSH1 0x20 PUSH1 0x4 DUP3 ADD MSTORE PUSH1 0x2D PUSH1 0x24 DUP3 ADD MSTORE PUSH32 0x6C6F6F74626F78496420646F6573206E6F74206578697374206F722068617320 PUSH1 0x44 DUP3 ADD MSTORE PUSH32 0x6265656E2072656D6F7665642E00000000000000000000000000000000000000 PUSH1 0x64 DUP3 ADD MSTORE PUSH1 0x84 ADD PUSH2 0x6C5 JUMP JUMPDEST PUSH1 0x0 DUP3 DUP2 MSTORE PUSH1 0x5 PUSH1 0x20 SWAP1 DUP2 MSTORE PUSH1 0x40 SWAP2 DUP3 SWAP1 KECCAK256 DUP3 MLOAD PUSH2 0x180 DUP2 ADD DUP5 MSTORE DUP2 SLOAD DUP2 MSTORE PUSH1 0x1 DUP3 ADD SLOAD PUSH20 0xFFFFFFFFFFFFFFFFFFFFFFFFFFFFFFFFFFFFFFFF AND DUP2 DUP5 ADD MSTORE PUSH1 0x2 DUP3 ADD DUP1 SLOAD DUP6 MLOAD DUP2 DUP7 MUL DUP2 ADD DUP7 ADD DUP8 MSTORE DUP2 DUP2 MSTORE SWAP3 SWAP6 SWAP4 SWAP5 SWAP4 DUP7 ADD SWAP4 DUP4 ADD DUP3 DUP3 DUP1 ISZERO PUSH2 0x1C1D JUMPI PUSH1 0x20 MUL DUP3 ADD SWAP2 SWAP1 PUSH1 0x0 MSTORE PUSH1 0x20 PUSH1 0x0 KECCAK256 SWAP1 JUMPDEST DUP2 SLOAD DUP2 MSTORE PUSH1 0x20 ADD SWAP1 PUSH1 0x1 ADD SWAP1 DUP1 DUP4 GT PUSH2 0x1C09 JUMPI JUMPDEST POP POP POP POP POP DUP2 MSTORE PUSH1 0x20 ADD PUSH1 0x3 DUP3 ADD DUP1 SLOAD DUP1 PUSH1 0x20 MUL PUSH1 0x20 ADD PUSH1 0x40 MLOAD SWAP1 DUP2 ADD PUSH1 0x40 MSTORE DUP1 SWAP3 SWAP2 SWAP1 DUP2 DUP2 MSTORE PUSH1 0x20 ADD DUP3 DUP1 SLOAD DUP1 ISZERO PUSH2 0x1C75 JUMPI PUSH1 0x20 MUL DUP3 ADD SWAP2 SWAP1 PUSH1 0x0 MSTORE PUSH1 0x20 PUSH1 0x0 KECCAK256 SWAP1 JUMPDEST DUP2 SLOAD DUP2 MSTORE PUSH1 0x20 ADD SWAP1 PUSH1 0x1 ADD SWAP1 DUP1 DUP4 GT PUSH2 0x1C61 JUMPI JUMPDEST POP POP POP SWAP2 DUP4 MSTORE POP POP PUSH1 0x4 DUP3 ADD SLOAD PUSH20 0xFFFFFFFFFFFFFFFFFFFFFFFFFFFFFFFFFFFFFFFF AND PUSH1 0x20 DUP1 DUP4 ADD SWAP2 SWAP1 SWAP2 MSTORE PUSH1 0x5 DUP4 ADD DUP1 SLOAD PUSH1 0x40 DUP1 MLOAD DUP3 DUP6 MUL DUP2 ADD DUP6 ADD DUP3 MSTORE DUP3 DUP2 MSTORE SWAP5 ADD SWAP4 SWAP3 DUP4 ADD DUP3 DUP3 DUP1 ISZERO PUSH2 0x1CEA JUMPI PUSH1 0x20 MUL DUP3 ADD SWAP2 SWAP1 PUSH1 0x0 MSTORE PUSH1 0x20 PUSH1 0x0 KECCAK256 SWAP1 JUMPDEST DUP2 SLOAD DUP2 MSTORE PUSH1 0x20 ADD SWAP1 PUSH1 0x1 ADD SWAP1 DUP1 DUP4 GT PUSH2 0x1CD6 JUMPI JUMPDEST POP POP POP POP POP DUP2 MSTORE PUSH1 0x20 ADD PUSH1 0x6 DUP3 ADD DUP1 SLOAD DUP1 PUSH1 0x20 MUL PUSH1 0x20 ADD PUSH1 0x40 MLOAD SWAP1 DUP2 ADD PUSH1 0x40 MSTORE DUP1 SWAP3 SWAP2 SWAP1 DUP2 DUP2 MSTORE PUSH1 0x20 ADD DUP3 DUP1 SLOAD DUP1 ISZERO PUSH2 0x1D42 JUMPI PUSH1 0x20 MUL DUP3 ADD SWAP2 SWAP1 PUSH1 0x0 MSTORE PUSH1 0x20 PUSH1 0x0 KECCAK256 SWAP1 JUMPDEST DUP2 SLOAD DUP2 MSTORE PUSH1 0x20 ADD SWAP1 PUSH1 0x1 ADD SWAP1 DUP1 DUP4 GT PUSH2 0x1D2E JUMPI JUMPDEST POP POP POP POP POP DUP2 MSTORE PUSH1 0x20 ADD PUSH1 0x7 DUP3 ADD DUP1 SLOAD DUP1 PUSH1 0x20 MUL PUSH1 0x20 ADD PUSH1 0x40 MLOAD SWAP1 DUP2 ADD PUSH1 0x40 MSTORE DUP1 SWAP3 SWAP2 SWAP1 DUP2 DUP2 MSTORE PUSH1 0x20 ADD DUP3 DUP1 SLOAD DUP1 ISZERO PUSH2 0x1D9A JUMPI PUSH1 0x20 MUL DUP3 ADD SWAP2 SWAP1 PUSH1 0x0 MSTORE PUSH1 0x20 PUSH1 0x0 KECCAK256 SWAP1 JUMPDEST DUP2 SLOAD DUP2 MSTORE PUSH1 0x20 ADD SWAP1 PUSH1 0x1 ADD SWAP1 DUP1 DUP4 GT PUSH2 0x1D86 JUMPI JUMPDEST POP POP POP POP POP DUP2 MSTORE PUSH1 0x20 ADD PUSH1 0x8 DUP3 ADD SLOAD DUP2 MSTORE PUSH1 0x20 ADD PUSH1 0x9 DUP3 ADD SLOAD DUP2 MSTORE PUSH1 0x20 ADD PUSH1 0xA DUP3 ADD SLOAD DUP2 MSTORE PUSH1 0x20 ADD PUSH1 0xB DUP3 ADD SLOAD DUP2 MSTORE POP POP SWAP1 POP SWAP2 SWAP1 POP JUMP JUMPDEST PUSH2 0x1E06 PUSH1 0x40 MLOAD DUP1 PUSH1 0xA0 ADD PUSH1 0x40 MSTORE DUP1 PUSH1 0x0 DUP2 MSTORE PUSH1 0x20 ADD PUSH1 0x0 DUP2 MSTORE PUSH1 0x20 ADD PUSH1 0x60 DUP2 MSTORE PUSH1 0x20 ADD PUSH1 0x60 DUP2 MSTORE PUSH1 0x20 ADD PUSH1 0x0 ISZERO ISZERO DUP2 MSTORE POP SWAP1 JUMP JUMPDEST PUSH20 0xFFFFFFFFFFFFFFFFFFFFFFFFFFFFFFFFFFFFFFFF DUP5 AND PUSH1 0x0 SWAP1 DUP2 MSTORE PUSH1 0x6 PUSH1 0x20 SWAP1 DUP2 MSTORE PUSH1 0x40 DUP1 DUP4 KECCAK256 DUP7 DUP5 MSTORE SWAP1 SWAP2 MSTORE SWAP1 KECCAK256 SLOAD DUP3 LT PUSH2 0x1EC5 JUMPI PUSH1 0x40 MLOAD PUSH32 0x8C379A000000000000000000000000000000000000000000000000000000000 DUP2 MSTORE PUSH1 0x20 PUSH1 0x4 DUP3 ADD MSTORE PUSH1 0x23 PUSH1 0x24 DUP3 ADD MSTORE PUSH32 0x6F70656E65644C6F6F74626F78496E64657820646F6573206E6F742065786973 PUSH1 0x44 DUP3 ADD MSTORE PUSH32 0x74732E0000000000000000000000000000000000000000000000000000000000 PUSH1 0x64 DUP3 ADD MSTORE PUSH1 0x84 ADD PUSH2 0x6C5 JUMP JUMPDEST PUSH20 0xFFFFFFFFFFFFFFFFFFFFFFFFFFFFFFFFFFFFFFFF DUP5 AND PUSH1 0x0 SWAP1 DUP2 MSTORE PUSH1 0x6 PUSH1 0x20 SWAP1 DUP2 MSTORE PUSH1 0x40 DUP1 DUP4 KECCAK256 DUP7 DUP5 MSTORE SWAP1 SWAP2 MSTORE SWAP1 KECCAK256 DUP1 SLOAD DUP4 SWAP1 DUP2 LT PUSH2 0x1F07 JUMPI PUSH2 0x1F07 PUSH2 0x3CB7 JUMP JUMPDEST SWAP1 PUSH1 0x0 MSTORE PUSH1 0x20 PUSH1 0x0 KECCAK256 SWAP1 PUSH1 0x5 MUL ADD PUSH1 0x40 MLOAD DUP1 PUSH1 0xA0 ADD PUSH1 0x40 MSTORE SWAP1 DUP2 PUSH1 0x0 DUP3 ADD SLOAD DUP2 MSTORE PUSH1 0x20 ADD PUSH1 0x1 DUP3 ADD SLOAD DUP2 MSTORE PUSH1 0x20 ADD PUSH1 0x2 DUP3 ADD DUP1 SLOAD DUP1 PUSH1 0x20 MUL PUSH1 0x20 ADD PUSH1 0x40 MLOAD SWAP1 DUP2 ADD PUSH1 0x40 MSTORE DUP1 SWAP3 SWAP2 SWAP1 DUP2 DUP2 MSTORE PUSH1 0x20 ADD DUP3 DUP1 SLOAD DUP1 ISZERO PUSH2 0x1F83 JUMPI PUSH1 0x20 MUL DUP3 ADD SWAP2 SWAP1 PUSH1 0x0 MSTORE PUSH1 0x20 PUSH1 0x0 KECCAK256 SWAP1 JUMPDEST DUP2 SLOAD DUP2 MSTORE PUSH1 0x20 ADD SWAP1 PUSH1 0x1 ADD SWAP1 DUP1 DUP4 GT PUSH2 0x1F6F JUMPI JUMPDEST POP POP POP POP POP DUP2 MSTORE PUSH1 0x20 ADD PUSH1 0x3 DUP3 ADD DUP1 SLOAD DUP1 PUSH1 0x20 MUL PUSH1 0x20 ADD PUSH1 0x40 MLOAD SWAP1 DUP2 ADD PUSH1 0x40 MSTORE DUP1 SWAP3 SWAP2 SWAP1 DUP2 DUP2 MSTORE PUSH1 0x20 ADD DUP3 DUP1 SLOAD DUP1 ISZERO PUSH2 0x1FDB JUMPI PUSH1 0x20 MUL DUP3 ADD SWAP2 SWAP1 PUSH1 0x0 MSTORE PUSH1 0x20 PUSH1 0x0 KECCAK256 SWAP1 JUMPDEST DUP2 SLOAD DUP2 MSTORE PUSH1 0x20 ADD SWAP1 PUSH1 0x1 ADD SWAP1 DUP1 DUP4 GT PUSH2 0x1FC7 JUMPI JUMPDEST POP POP POP SWAP2 DUP4 MSTORE POP POP PUSH1 0x4 SWAP2 SWAP1 SWAP2 ADD SLOAD PUSH1 0xFF AND ISZERO ISZERO PUSH1 0x20 SWAP1 SWAP2 ADD MSTORE SWAP5 SWAP4 POP POP POP POP JUMP JUMPDEST PUSH32 0xC9FC9949603A50F5CC3A96F774F1D68287789A241D2082DC81D0FB19A53BCF2B PUSH2 0x2027 DUP2 PUSH2 0x29D7 JUMP JUMPDEST PUSH1 0x0 DUP1 SLOAD PUSH32 0xFFFFFFFFFFFFFFFFFFFFFFFF0000000000000000000000000000000000000000 AND PUSH20 0xFFFFFFFFFFFFFFFFFFFFFFFFFFFFFFFFFFFFFFFF DUP5 AND OR SWAP1 SSTORE POP POP JUMP JUMPDEST PUSH1 0x0 DUP1 DUP1 JUMPDEST PUSH20 0xFFFFFFFFFFFFFFFFFFFFFFFFFFFFFFFFFFFFFFFF DUP6 AND PUSH1 0x0 SWAP1 DUP2 MSTORE PUSH1 0x6 PUSH1 0x20 SWAP1 DUP2 MSTORE PUSH1 0x40 DUP1 DUP4 KECCAK256 DUP8 DUP5 MSTORE SWAP1 SWAP2 MSTORE SWAP1 KECCAK256 SLOAD DUP2 LT ISZERO PUSH2 0x2139 JUMPI PUSH20 0xFFFFFFFFFFFFFFFFFFFFFFFFFFFFFFFFFFFFFFFF DUP6 AND PUSH1 0x0 SWAP1 DUP2 MSTORE PUSH1 0x6 PUSH1 0x20 SWAP1 DUP2 MSTORE PUSH1 0x40 DUP1 DUP4 KECCAK256 DUP8 DUP5 MSTORE SWAP1 SWAP2 MSTORE DUP2 KECCAK256 DUP1 SLOAD DUP4 SWAP1 DUP2 LT PUSH2 0x20EA JUMPI PUSH2 0x20EA PUSH2 0x3CB7 JUMP JUMPDEST SWAP1 PUSH1 0x0 MSTORE PUSH1 0x20 PUSH1 0x0 KECCAK256 SWAP1 PUSH1 0x5 MUL ADD SWAP1 POP DUP1 PUSH1 0x1 ADD SLOAD NUMBER LT ISZERO DUP1 ISZERO PUSH2 0x2113 JUMPI POP PUSH1 0x4 DUP2 ADD SLOAD PUSH1 0xFF AND ISZERO JUMPDEST ISZERO PUSH2 0x2126 JUMPI DUP3 PUSH2 0x2122 DUP2 PUSH2 0x3CE6 JUMP JUMPDEST SWAP4 POP POP JUMPDEST POP DUP1 PUSH2 0x2131 DUP2 PUSH2 0x3CE6 JUMP JUMPDEST SWAP2 POP POP PUSH2 0x2070 JUMP JUMPDEST POP SWAP4 SWAP3 POP POP POP JUMP JUMPDEST PUSH20 0xFFFFFFFFFFFFFFFFFFFFFFFFFFFFFFFFFFFFFFFF DUP5 AND PUSH1 0x0 SWAP1 DUP2 MSTORE PUSH1 0x6 PUSH1 0x20 SWAP1 DUP2 MSTORE PUSH1 0x40 DUP1 DUP4 KECCAK256 DUP7 DUP5 MSTORE SWAP1 SWAP2 MSTORE DUP2 KECCAK256 SLOAD PUSH1 0x60 SWAP2 SWAP1 DUP5 LT PUSH2 0x2183 JUMPI PUSH1 0x0 PUSH2 0x21BF JUMP JUMPDEST PUSH20 0xFFFFFFFFFFFFFFFFFFFFFFFFFFFFFFFFFFFFFFFF DUP7 AND PUSH1 0x0 SWAP1 DUP2 MSTORE PUSH1 0x6 PUSH1 0x20 SWAP1 DUP2 MSTORE PUSH1 0x40 DUP1 DUP4 KECCAK256 DUP9 DUP5 MSTORE SWAP1 SWAP2 MSTORE SWAP1 KECCAK256 SLOAD PUSH2 0x21BF SWAP1 DUP6 SWAP1 PUSH2 0x3C62 JUMP JUMPDEST SWAP1 POP PUSH1 0x0 DUP4 DUP3 GT ISZERO PUSH2 0x21D1 JUMPI DUP4 PUSH2 0x21D3 JUMP JUMPDEST DUP2 JUMPDEST SWAP1 POP PUSH1 0x0 DUP2 PUSH8 0xFFFFFFFFFFFFFFFF DUP2 GT ISZERO PUSH2 0x21F0 JUMPI PUSH2 0x21F0 PUSH2 0x3C75 JUMP JUMPDEST PUSH1 0x40 MLOAD SWAP1 DUP1 DUP3 MSTORE DUP1 PUSH1 0x20 MUL PUSH1 0x20 ADD DUP3 ADD PUSH1 0x40 MSTORE DUP1 ISZERO PUSH2 0x2255 JUMPI DUP2 PUSH1 0x20 ADD JUMPDEST PUSH2 0x2242 PUSH1 0x40 MLOAD DUP1 PUSH1 0xA0 ADD PUSH1 0x40 MSTORE DUP1 PUSH1 0x0 DUP2 MSTORE PUSH1 0x20 ADD PUSH1 0x0 DUP2 MSTORE PUSH1 0x20 ADD PUSH1 0x60 DUP2 MSTORE PUSH1 0x20 ADD PUSH1 0x60 DUP2 MSTORE PUSH1 0x20 ADD PUSH1 0x0 ISZERO ISZERO DUP2 MSTORE POP SWAP1 JUMP JUMPDEST DUP2 MSTORE PUSH1 0x20 ADD SWAP1 PUSH1 0x1 SWAP1 SUB SWAP1 DUP2 PUSH2 0x220E JUMPI SWAP1 POP JUMPDEST POP SWAP1 POP PUSH1 0x0 JUMPDEST DUP3 DUP2 LT ISZERO PUSH2 0x23CD JUMPI PUSH20 0xFFFFFFFFFFFFFFFFFFFFFFFFFFFFFFFFFFFFFFFF DUP10 AND PUSH1 0x0 SWAP1 DUP2 MSTORE PUSH1 0x6 PUSH1 0x20 SWAP1 DUP2 MSTORE PUSH1 0x40 DUP1 DUP4 KECCAK256 DUP12 DUP5 MSTORE SWAP1 SWAP2 MSTORE SWAP1 KECCAK256 PUSH2 0x229D DUP3 DUP10 PUSH2 0x3CA4 JUMP JUMPDEST DUP2 SLOAD DUP2 LT PUSH2 0x22AD JUMPI PUSH2 0x22AD PUSH2 0x3CB7 JUMP JUMPDEST SWAP1 PUSH1 0x0 MSTORE PUSH1 0x20 PUSH1 0x0 KECCAK256 SWAP1 PUSH1 0x5 MUL ADD PUSH1 0x40 MLOAD DUP1 PUSH1 0xA0 ADD PUSH1 0x40 MSTORE SWAP1 DUP2 PUSH1 0x0 DUP3 ADD SLOAD DUP2 MSTORE PUSH1 0x20 ADD PUSH1 0x1 DUP3 ADD SLOAD DUP2 MSTORE PUSH1 0x20 ADD PUSH1 0x2 DUP3 ADD DUP1 SLOAD DUP1 PUSH1 0x20 MUL PUSH1 0x20 ADD PUSH1 0x40 MLOAD SWAP1 DUP2 ADD PUSH1 0x40 MSTORE DUP1 SWAP3 SWAP2 SWAP1 DUP2 DUP2 MSTORE PUSH1 0x20 ADD DUP3 DUP1 SLOAD DUP1 ISZERO PUSH2 0x2329 JUMPI PUSH1 0x20 MUL DUP3 ADD SWAP2 SWAP1 PUSH1 0x0 MSTORE PUSH1 0x20 PUSH1 0x0 KECCAK256 SWAP1 JUMPDEST DUP2 SLOAD DUP2 MSTORE PUSH1 0x20 ADD SWAP1 PUSH1 0x1 ADD SWAP1 DUP1 DUP4 GT PUSH2 0x2315 JUMPI JUMPDEST POP POP POP POP POP DUP2 MSTORE PUSH1 0x20 ADD PUSH1 0x3 DUP3 ADD DUP1 SLOAD DUP1 PUSH1 0x20 MUL PUSH1 0x20 ADD PUSH1 0x40 MLOAD SWAP1 DUP2 ADD PUSH1 0x40 MSTORE DUP1 SWAP3 SWAP2 SWAP1 DUP2 DUP2 MSTORE PUSH1 0x20 ADD DUP3 DUP1 SLOAD DUP1 ISZERO PUSH2 0x2381 JUMPI PUSH1 0x20 MUL DUP3 ADD SWAP2 SWAP1 PUSH1 0x0 MSTORE PUSH1 0x20 PUSH1 0x0 KECCAK256 SWAP1 JUMPDEST DUP2 SLOAD DUP2 MSTORE PUSH1 0x20 ADD SWAP1 PUSH1 0x1 ADD SWAP1 DUP1 DUP4 GT PUSH2 0x236D JUMPI JUMPDEST POP POP POP SWAP2 DUP4 MSTORE POP POP PUSH1 0x4 SWAP2 SWAP1 SWAP2 ADD SLOAD PUSH1 0xFF AND ISZERO ISZERO PUSH1 0x20 SWAP1 SWAP2 ADD MSTORE DUP3 MLOAD DUP4 SWAP1 DUP4 SWAP1 DUP2 LT PUSH2 0x23AF JUMPI PUSH2 0x23AF PUSH2 0x3CB7 JUMP JUMPDEST PUSH1 0x20 MUL PUSH1 0x20 ADD ADD DUP2 SWAP1 MSTORE POP DUP1 DUP1 PUSH2 0x23C5 SWAP1 PUSH2 0x3CE6 JUMP JUMPDEST SWAP2 POP POP PUSH2 0x225B JUMP JUMPDEST POP SWAP8 SWAP7 POP POP POP POP POP POP POP JUMP JUMPDEST PUSH1 0x0 DUP3 DUP2 MSTORE PUSH1 0x1 PUSH1 0x20 DUP2 SWAP1 MSTORE PUSH1 0x40 SWAP1 SWAP2 KECCAK256 ADD SLOAD PUSH2 0x23F5 DUP2 PUSH2 0x29D7 JUMP JUMPDEST PUSH2 0x805 DUP4 DUP4 PUSH2 0x2AF7 JUMP JUMPDEST PUSH1 0x60 PUSH1 0x0 PUSH2 0x240B PUSH2 0x145A JUMP JUMPDEST PUSH8 0xFFFFFFFFFFFFFFFF DUP2 GT ISZERO PUSH2 0x2423 JUMPI PUSH2 0x2423 PUSH2 0x3C75 JUMP JUMPDEST PUSH1 0x40 MLOAD SWAP1 DUP1 DUP3 MSTORE DUP1 PUSH1 0x20 MUL PUSH1 0x20 ADD DUP3 ADD PUSH1 0x40 MSTORE DUP1 ISZERO PUSH2 0x24E4 JUMPI DUP2 PUSH1 0x20 ADD JUMPDEST PUSH2 0x24D1 PUSH1 0x40 MLOAD DUP1 PUSH2 0x180 ADD PUSH1 0x40 MSTORE DUP1 PUSH1 0x0 DUP2 MSTORE PUSH1 0x20 ADD PUSH1 0x0 PUSH20 0xFFFFFFFFFFFFFFFFFFFFFFFFFFFFFFFFFFFFFFFF AND DUP2 MSTORE PUSH1 0x20 ADD PUSH1 0x60 DUP2 MSTORE PUSH1 0x20 ADD PUSH1 0x60 DUP2 MSTORE PUSH1 0x20 ADD PUSH1 0x0 PUSH20 0xFFFFFFFFFFFFFFFFFFFFFFFFFFFFFFFFFFFFFFFF AND DUP2 MSTORE PUSH1 0x20 ADD PUSH1 0x60 DUP2 MSTORE PUSH1 0x20 ADD PUSH1 0x60 DUP2 MSTORE PUSH1 0x20 ADD PUSH1 0x60 DUP2 MSTORE PUSH1 0x20 ADD PUSH1 0x0 DUP2 MSTORE PUSH1 0x20 ADD PUSH1 0x0 DUP2 MSTORE PUSH1 0x20 ADD PUSH1 0x0 DUP2 MSTORE PUSH1 0x20 ADD PUSH1 0x0 DUP2 MSTORE POP SWAP1 JUMP JUMPDEST DUP2 MSTORE PUSH1 0x20 ADD SWAP1 PUSH1 0x1 SWAP1 SUB SWAP1 DUP2 PUSH2 0x2441 JUMPI SWAP1 POP JUMPDEST POP SWAP1 POP PUSH1 0x0 JUMPDEST PUSH2 0x24F2 PUSH2 0x145A JUMP JUMPDEST DUP2 LT ISZERO PUSH2 0xF61 JUMPI PUSH1 0x5 PUSH1 0x0 PUSH2 0x2508 PUSH1 0x3 DUP5 PUSH2 0x292D JUMP JUMPDEST DUP2 MSTORE PUSH1 0x20 DUP1 DUP3 ADD SWAP3 SWAP1 SWAP3 MSTORE PUSH1 0x40 SWAP1 DUP2 ADD PUSH1 0x0 KECCAK256 DUP2 MLOAD PUSH2 0x180 DUP2 ADD DUP4 MSTORE DUP2 SLOAD DUP2 MSTORE PUSH1 0x1 DUP3 ADD SLOAD PUSH20 0xFFFFFFFFFFFFFFFFFFFFFFFFFFFFFFFFFFFFFFFF AND DUP2 DUP6 ADD MSTORE PUSH1 0x2 DUP3 ADD DUP1 SLOAD DUP5 MLOAD DUP2 DUP8 MUL DUP2 ADD DUP8 ADD DUP7 MSTORE DUP2 DUP2 MSTORE SWAP3 SWAP6 SWAP4 SWAP5 DUP7 ADD SWAP4 DUP4 ADD DUP3 DUP3 DUP1 ISZERO PUSH2 0x2591 JUMPI PUSH1 0x20 MUL DUP3 ADD SWAP2 SWAP1 PUSH1 0x0 MSTORE PUSH1 0x20 PUSH1 0x0 KECCAK256 SWAP1 JUMPDEST DUP2 SLOAD DUP2 MSTORE PUSH1 0x20 ADD SWAP1 PUSH1 0x1 ADD SWAP1 DUP1 DUP4 GT PUSH2 0x257D JUMPI JUMPDEST POP POP POP POP POP DUP2 MSTORE PUSH1 0x20 ADD PUSH1 0x3 DUP3 ADD DUP1 SLOAD DUP1 PUSH1 0x20 MUL PUSH1 0x20 ADD PUSH1 0x40 MLOAD SWAP1 DUP2 ADD PUSH1 0x40 MSTORE DUP1 SWAP3 SWAP2 SWAP1 DUP2 DUP2 MSTORE PUSH1 0x20 ADD DUP3 DUP1 SLOAD DUP1 ISZERO PUSH2 0x25E9 JUMPI PUSH1 0x20 MUL DUP3 ADD SWAP2 SWAP1 PUSH1 0x0 MSTORE PUSH1 0x20 PUSH1 0x0 KECCAK256 SWAP1 JUMPDEST DUP2 SLOAD DUP2 MSTORE PUSH1 0x20 ADD SWAP1 PUSH1 0x1 ADD SWAP1 DUP1 DUP4 GT PUSH2 0x25D5 JUMPI JUMPDEST POP POP POP SWAP2 DUP4 MSTORE POP POP PUSH1 0x4 DUP3 ADD SLOAD PUSH20 0xFFFFFFFFFFFFFFFFFFFFFFFFFFFFFFFFFFFFFFFF AND PUSH1 0x20 DUP1 DUP4 ADD SWAP2 SWAP1 SWAP2 MSTORE PUSH1 0x5 DUP4 ADD DUP1 SLOAD PUSH1 0x40 DUP1 MLOAD DUP3 DUP6 MUL DUP2 ADD DUP6 ADD DUP3 MSTORE DUP3 DUP2 MSTORE SWAP5 ADD SWAP4 SWAP3 DUP4 ADD DUP3 DUP3 DUP1 ISZERO PUSH2 0x265E JUMPI PUSH1 0x20 MUL DUP3 ADD SWAP2 SWAP1 PUSH1 0x0 MSTORE PUSH1 0x20 PUSH1 0x0 KECCAK256 SWAP1 JUMPDEST DUP2 SLOAD DUP2 MSTORE PUSH1 0x20 ADD SWAP1 PUSH1 0x1 ADD SWAP1 DUP1 DUP4 GT PUSH2 0x264A JUMPI JUMPDEST POP POP POP POP POP DUP2 MSTORE PUSH1 0x20 ADD PUSH1 0x6 DUP3 ADD DUP1 SLOAD DUP1 PUSH1 0x20 MUL PUSH1 0x20 ADD PUSH1 0x40 MLOAD SWAP1 DUP2 ADD PUSH1 0x40 MSTORE DUP1 SWAP3 SWAP2 SWAP1 DUP2 DUP2 MSTORE PUSH1 0x20 ADD DUP3 DUP1 SLOAD DUP1 ISZERO PUSH2 0x26B6 JUMPI PUSH1 0x20 MUL DUP3 ADD SWAP2 SWAP1 PUSH1 0x0 MSTORE PUSH1 0x20 PUSH1 0x0 KECCAK256 SWAP1 JUMPDEST DUP2 SLOAD DUP2 MSTORE PUSH1 0x20 ADD SWAP1 PUSH1 0x1 ADD SWAP1 DUP1 DUP4 GT PUSH2 0x26A2 JUMPI JUMPDEST POP POP POP POP POP DUP2 MSTORE PUSH1 0x20 ADD PUSH1 0x7 DUP3 ADD DUP1 SLOAD DUP1 PUSH1 0x20 MUL PUSH1 0x20 ADD PUSH1 0x40 MLOAD SWAP1 DUP2 ADD PUSH1 0x40 MSTORE DUP1 SWAP3 SWAP2 SWAP1 DUP2 DUP2 MSTORE PUSH1 0x20 ADD DUP3 DUP1 SLOAD DUP1 ISZERO PUSH2 0x270E JUMPI PUSH1 0x20 MUL DUP3 ADD SWAP2 SWAP1 PUSH1 0x0 MSTORE PUSH1 0x20 PUSH1 0x0 KECCAK256 SWAP1 JUMPDEST DUP2 SLOAD DUP2 MSTORE PUSH1 0x20 ADD SWAP1 PUSH1 0x1 ADD SWAP1 DUP1 DUP4 GT PUSH2 0x26FA JUMPI JUMPDEST POP POP POP POP POP DUP2 MSTORE PUSH1 0x20 ADD PUSH1 0x8 DUP3 ADD SLOAD DUP2 MSTORE PUSH1 0x20 ADD PUSH1 0x9 DUP3 ADD SLOAD DUP2 MSTORE PUSH1 0x20 ADD PUSH1 0xA DUP3 ADD SLOAD DUP2 MSTORE PUSH1 0x20 ADD PUSH1 0xB DUP3 ADD SLOAD DUP2 MSTORE POP POP DUP3 DUP3 DUP2 MLOAD DUP2 LT PUSH2 0x2751 JUMPI PUSH2 0x2751 PUSH2 0x3CB7 JUMP JUMPDEST PUSH1 0x20 MUL PUSH1 0x20 ADD ADD DUP2 SWAP1 MSTORE POP DUP1 DUP1 PUSH2 0x2767 SWAP1 PUSH2 0x3CE6 JUMP JUMPDEST SWAP2 POP POP PUSH2 0x24EA JUMP JUMPDEST PUSH1 0x2 DUP1 SLOAD SUB PUSH2 0x27DA JUMPI PUSH1 0x40 MLOAD PUSH32 0x8C379A000000000000000000000000000000000000000000000000000000000 DUP2 MSTORE PUSH1 0x20 PUSH1 0x4 DUP3 ADD MSTORE PUSH1 0x1F PUSH1 0x24 DUP3 ADD MSTORE PUSH32 0x5265656E7472616E637947756172643A207265656E7472616E742063616C6C00 PUSH1 0x44 DUP3 ADD MSTORE PUSH1 0x64 ADD PUSH2 0x6C5 JUMP JUMPDEST PUSH1 0x2 DUP1 SSTORE PUSH1 0x0 JUMPDEST PUSH1 0x6 PUSH1 0x0 PUSH2 0x27ED PUSH2 0x2AED JUMP JUMPDEST PUSH20 0xFFFFFFFFFFFFFFFFFFFFFFFFFFFFFFFFFFFFFFFF AND DUP2 MSTORE PUSH1 0x20 DUP1 DUP3 ADD SWAP3 SWAP1 SWAP3 MSTORE PUSH1 0x40 SWAP1 DUP2 ADD PUSH1 0x0 SWAP1 DUP2 KECCAK256 DUP6 DUP3 MSTORE SWAP1 SWAP3 MSTORE SWAP1 KECCAK256 SLOAD DUP2 LT ISZERO PUSH2 0x1451 JUMPI PUSH2 0x2832 DUP3 DUP3 PUSH2 0x2C02 JUMP JUMPDEST DUP1 PUSH2 0x283C DUP2 PUSH2 0x3CE6 JUMP JUMPDEST SWAP2 POP POP PUSH2 0x27E1 JUMP JUMPDEST PUSH1 0x0 PUSH2 0x2850 PUSH1 0x3 PUSH2 0x2923 JUMP JUMPDEST DUP3 LT PUSH2 0x28B8 JUMPI PUSH1 0x40 MLOAD PUSH32 0x8C379A000000000000000000000000000000000000000000000000000000000 DUP2 MSTORE PUSH1 0x20 PUSH1 0x4 DUP3 ADD MSTORE PUSH1 0x13 PUSH1 0x24 DUP3 ADD MSTORE PUSH32 0x496E646578206F7574206F6620626F756E647300000000000000000000000000 PUSH1 0x44 DUP3 ADD MSTORE PUSH1 0x64 ADD PUSH2 0x6C5 JUMP JUMPDEST PUSH2 0x5D9 PUSH1 0x3 DUP4 PUSH2 0x292D JUMP JUMPDEST PUSH1 0x60 PUSH2 0x1466 PUSH1 0x3 PUSH2 0x312C JUMP JUMPDEST PUSH1 0x0 DUP1 SLOAD PUSH20 0xFFFFFFFFFFFFFFFFFFFFFFFFFFFFFFFFFFFFFFFF AND CALLER SUB PUSH2 0x291A JUMPI POP PUSH32 0xFFFFFFFFFFFFFFFFFFFFFFFFFFFFFFFFFFFFFFFFFFFFFFFFFFFFFFFFFFFFFFEC CALLDATASIZE ADD CALLDATALOAD PUSH1 0x60 SHR SWAP1 JUMP JUMPDEST POP CALLER SWAP1 JUMP JUMPDEST CALLER SWAP1 JUMP JUMPDEST PUSH1 0x0 PUSH2 0x5D9 DUP3 SLOAD SWAP1 JUMP JUMPDEST PUSH1 0x0 PUSH2 0x2939 DUP4 DUP4 PUSH2 0x3139 JUMP JUMPDEST SWAP4 SWAP3 POP POP POP JUMP JUMPDEST PUSH1 0x0 PUSH32 0xFFFFFFFF00000000000000000000000000000000000000000000000000000000 DUP3 AND PUSH32 0x7965DB0B00000000000000000000000000000000000000000000000000000000 EQ DUP1 PUSH2 0x5D9 JUMPI POP PUSH32 0x1FFC9A700000000000000000000000000000000000000000000000000000000 PUSH32 0xFFFFFFFF00000000000000000000000000000000000000000000000000000000 DUP4 AND EQ PUSH2 0x5D9 JUMP JUMPDEST PUSH2 0x29E8 DUP2 PUSH2 0x29E3 PUSH2 0x2AED JUMP JUMPDEST PUSH2 0x3163 JUMP JUMPDEST POP JUMP JUMPDEST PUSH1 0x0 PUSH2 0x2939 DUP4 DUP4 PUSH2 0x3235 JUMP JUMPDEST PUSH1 0x0 DUP3 DUP2 MSTORE PUSH1 0x1 PUSH1 0x20 SWAP1 DUP2 MSTORE PUSH1 0x40 DUP1 DUP4 KECCAK256 PUSH20 0xFFFFFFFFFFFFFFFFFFFFFFFFFFFFFFFFFFFFFFFF DUP6 AND DUP5 MSTORE SWAP1 SWAP2 MSTORE SWAP1 KECCAK256 SLOAD PUSH1 0xFF AND PUSH2 0x8D6 JUMPI PUSH1 0x0 DUP3 DUP2 MSTORE PUSH1 0x1 PUSH1 0x20 DUP2 DUP2 MSTORE PUSH1 0x40 DUP1 DUP5 KECCAK256 PUSH20 0xFFFFFFFFFFFFFFFFFFFFFFFFFFFFFFFFFFFFFFFF DUP7 AND DUP6 MSTORE SWAP1 SWAP2 MSTORE SWAP1 SWAP2 KECCAK256 DUP1 SLOAD PUSH32 0xFFFFFFFFFFFFFFFFFFFFFFFFFFFFFFFFFFFFFFFFFFFFFFFFFFFFFFFFFFFFFF00 AND SWAP1 SWAP2 OR SWAP1 SSTORE PUSH2 0x2A8F PUSH2 0x2AED JUMP JUMPDEST PUSH20 0xFFFFFFFFFFFFFFFFFFFFFFFFFFFFFFFFFFFFFFFF AND DUP2 PUSH20 0xFFFFFFFFFFFFFFFFFFFFFFFFFFFFFFFFFFFFFFFF AND DUP4 PUSH32 0x2F8788117E7EFF1D82E926EC794901D17C78024A50270940304540A733656F0D PUSH1 0x40 MLOAD PUSH1 0x40 MLOAD DUP1 SWAP2 SUB SWAP1 LOG4 POP POP JUMP JUMPDEST PUSH1 0x0 PUSH2 0x1466 PUSH2 0x28CF JUMP JUMPDEST PUSH1 0x0 DUP3 DUP2 MSTORE PUSH1 0x1 PUSH1 0x20 SWAP1 DUP2 MSTORE PUSH1 0x40 DUP1 DUP4 KECCAK256 PUSH20 0xFFFFFFFFFFFFFFFFFFFFFFFFFFFFFFFFFFFFFFFF DUP6 AND DUP5 MSTORE SWAP1 SWAP2 MSTORE SWAP1 KECCAK256 SLOAD PUSH1 0xFF AND ISZERO PUSH2 0x8D6 JUMPI PUSH1 0x0 DUP3 DUP2 MSTORE PUSH1 0x1 PUSH1 0x20 SWAP1 DUP2 MSTORE PUSH1 0x40 DUP1 DUP4 KECCAK256 PUSH20 0xFFFFFFFFFFFFFFFFFFFFFFFFFFFFFFFFFFFFFFFF DUP6 AND DUP5 MSTORE SWAP1 SWAP2 MSTORE SWAP1 KECCAK256 DUP1 SLOAD PUSH32 0xFFFFFFFFFFFFFFFFFFFFFFFFFFFFFFFFFFFFFFFFFFFFFFFFFFFFFFFFFFFFFF00 AND SWAP1 SSTORE PUSH2 0x2B8C PUSH2 0x2AED JUMP JUMPDEST PUSH20 0xFFFFFFFFFFFFFFFFFFFFFFFFFFFFFFFFFFFFFFFF AND DUP2 PUSH20 0xFFFFFFFFFFFFFFFFFFFFFFFFFFFFFFFFFFFFFFFF AND DUP4 PUSH32 0xF6391F5C32D9C69D2A47EA670B442974B53935D1EDC7FD64EB21E047A839171B PUSH1 0x40 MLOAD PUSH1 0x40 MLOAD DUP1 SWAP2 SUB SWAP1 LOG4 POP POP JUMP JUMPDEST PUSH1 0x0 DUP2 DUP2 MSTORE PUSH1 0x1 DUP4 ADD PUSH1 0x20 MSTORE PUSH1 0x40 DUP2 KECCAK256 SLOAD ISZERO ISZERO PUSH2 0x2939 JUMP JUMPDEST PUSH1 0x0 PUSH1 0x6 PUSH1 0x0 PUSH2 0x2C10 PUSH2 0x2AED JUMP JUMPDEST PUSH20 0xFFFFFFFFFFFFFFFFFFFFFFFFFFFFFFFFFFFFFFFF AND PUSH20 0xFFFFFFFFFFFFFFFFFFFFFFFFFFFFFFFFFFFFFFFF AND DUP2 MSTORE PUSH1 0x20 ADD SWAP1 DUP2 MSTORE PUSH1 0x20 ADD PUSH1 0x0 KECCAK256 PUSH1 0x0 DUP5 DUP2 MSTORE PUSH1 0x20 ADD SWAP1 DUP2 MSTORE PUSH1 0x20 ADD PUSH1 0x0 KECCAK256 DUP3 DUP2 SLOAD DUP2 LT PUSH2 0x2C6C JUMPI PUSH2 0x2C6C PUSH2 0x3CB7 JUMP JUMPDEST SWAP1 PUSH1 0x0 MSTORE PUSH1 0x20 PUSH1 0x0 KECCAK256 SWAP1 PUSH1 0x5 MUL ADD SWAP1 POP PUSH1 0x0 PUSH1 0x5 PUSH1 0x0 DUP6 DUP2 MSTORE PUSH1 0x20 ADD SWAP1 DUP2 MSTORE PUSH1 0x20 ADD PUSH1 0x0 KECCAK256 SWAP1 POP DUP2 PUSH1 0x1 ADD SLOAD NUMBER LT DUP1 PUSH2 0x2CA9 JUMPI POP PUSH1 0x4 DUP3 ADD SLOAD PUSH1 0xFF AND JUMPDEST ISZERO PUSH2 0x2CB4 JUMPI POP POP POP POP JUMP JUMPDEST PUSH1 0x0 DUP2 PUSH1 0x9 ADD SLOAD PUSH8 0xFFFFFFFFFFFFFFFF DUP2 GT ISZERO PUSH2 0x2CD3 JUMPI PUSH2 0x2CD3 PUSH2 0x3C75 JUMP JUMPDEST PUSH1 0x40 MLOAD SWAP1 DUP1 DUP3 MSTORE DUP1 PUSH1 0x20 MUL PUSH1 0x20 ADD DUP3 ADD PUSH1 0x40 MSTORE DUP1 ISZERO PUSH2 0x2CFC JUMPI DUP2 PUSH1 0x20 ADD PUSH1 0x20 DUP3 MUL DUP1 CALLDATASIZE DUP4 CALLDATACOPY ADD SWAP1 POP JUMPDEST POP SWAP1 POP PUSH1 0x0 DUP3 PUSH1 0x9 ADD SLOAD PUSH8 0xFFFFFFFFFFFFFFFF DUP2 GT ISZERO PUSH2 0x2D1E JUMPI PUSH2 0x2D1E PUSH2 0x3C75 JUMP JUMPDEST PUSH1 0x40 MLOAD SWAP1 DUP1 DUP3 MSTORE DUP1 PUSH1 0x20 MUL PUSH1 0x20 ADD DUP3 ADD PUSH1 0x40 MSTORE DUP1 ISZERO PUSH2 0x2D47 JUMPI DUP2 PUSH1 0x20 ADD PUSH1 0x20 DUP3 MUL DUP1 CALLDATASIZE DUP4 CALLDATACOPY ADD SWAP1 POP JUMPDEST POP SWAP1 POP PUSH1 0x0 JUMPDEST DUP4 PUSH1 0x9 ADD SLOAD DUP2 LT ISZERO PUSH2 0x2EE7 JUMPI PUSH1 0x0 PUSH1 0x1 DUP7 PUSH1 0x1 ADD SLOAD PUSH2 0x2D6C SWAP2 SWAP1 PUSH2 0x3C62 JUMP JUMPDEST BLOCKHASH PUSH2 0x2D75 PUSH2 0x2AED JUMP JUMPDEST DUP9 DUP5 PUSH1 0x40 MLOAD PUSH1 0x20 ADD PUSH2 0x2DC5 SWAP5 SWAP4 SWAP3 SWAP2 SWAP1 SWAP4 DUP5 MSTORE PUSH1 0x60 SWAP3 SWAP1 SWAP3 SHL PUSH32 0xFFFFFFFFFFFFFFFFFFFFFFFFFFFFFFFFFFFFFFFF000000000000000000000000 AND PUSH1 0x20 DUP5 ADD MSTORE PUSH1 0x34 DUP4 ADD MSTORE PUSH1 0x54 DUP3 ADD MSTORE PUSH1 0x74 ADD SWAP1 JUMP JUMPDEST PUSH1 0x40 MLOAD PUSH1 0x20 DUP2 DUP4 SUB SUB DUP2 MSTORE SWAP1 PUSH1 0x40 MSTORE DUP1 MLOAD SWAP1 PUSH1 0x20 ADD KECCAK256 PUSH1 0x0 SHR SWAP1 POP PUSH1 0x0 DUP6 PUSH1 0x8 ADD SLOAD DUP3 PUSH2 0x2DF2 SWAP2 SWAP1 PUSH2 0x400C JUMP JUMPDEST SWAP1 POP PUSH1 0x0 JUMPDEST PUSH1 0x7 DUP8 ADD SLOAD DUP2 LT ISZERO PUSH2 0x2ED1 JUMPI PUSH1 0x0 DUP8 PUSH1 0x7 ADD DUP3 DUP2 SLOAD DUP2 LT PUSH2 0x2E1A JUMPI PUSH2 0x2E1A PUSH2 0x3CB7 JUMP JUMPDEST SWAP1 PUSH1 0x0 MSTORE PUSH1 0x20 PUSH1 0x0 KECCAK256 ADD SLOAD SWAP1 POP DUP3 DUP2 GT ISZERO PUSH2 0x2EB1 JUMPI DUP8 PUSH1 0x5 ADD DUP3 DUP2 SLOAD DUP2 LT PUSH2 0x2E44 JUMPI PUSH2 0x2E44 PUSH2 0x3CB7 JUMP JUMPDEST SWAP1 PUSH1 0x0 MSTORE PUSH1 0x20 PUSH1 0x0 KECCAK256 ADD SLOAD DUP8 DUP7 DUP2 MLOAD DUP2 LT PUSH2 0x2E61 JUMPI PUSH2 0x2E61 PUSH2 0x3CB7 JUMP JUMPDEST PUSH1 0x20 MUL PUSH1 0x20 ADD ADD DUP2 DUP2 MSTORE POP POP DUP8 PUSH1 0x6 ADD DUP3 DUP2 SLOAD DUP2 LT PUSH2 0x2E82 JUMPI PUSH2 0x2E82 PUSH2 0x3CB7 JUMP JUMPDEST SWAP1 PUSH1 0x0 MSTORE PUSH1 0x20 PUSH1 0x0 KECCAK256 ADD SLOAD DUP7 DUP7 DUP2 MLOAD DUP2 LT PUSH2 0x2E9F JUMPI PUSH2 0x2E9F PUSH2 0x3CB7 JUMP JUMPDEST PUSH1 0x20 MUL PUSH1 0x20 ADD ADD DUP2 DUP2 MSTORE POP POP POP PUSH2 0x2ED1 JUMP JUMPDEST PUSH2 0x2EBB DUP2 DUP5 PUSH2 0x3C62 JUMP JUMPDEST SWAP3 POP POP DUP1 DUP1 PUSH2 0x2EC9 SWAP1 PUSH2 0x3CE6 JUMP JUMPDEST SWAP2 POP POP PUSH2 0x2DF7 JUMP JUMPDEST POP POP POP DUP1 DUP1 PUSH2 0x2EDF SWAP1 PUSH2 0x3CE6 JUMP JUMPDEST SWAP2 POP POP PUSH2 0x2D4D JUMP JUMPDEST POP PUSH1 0x4 DUP4 DUP2 ADD SLOAD PUSH1 0x40 MLOAD PUSH32 0x91D1485400000000000000000000000000000000000000000000000000000000 DUP2 MSTORE PUSH32 0xC9EB32E43BF5ECBCEACF00B32281DFC5D6D700A0DB676EA26CCF938A385AC3F7 SWAP3 DUP2 ADD SWAP3 SWAP1 SWAP3 MSTORE ADDRESS PUSH1 0x24 DUP4 ADD MSTORE PUSH20 0xFFFFFFFFFFFFFFFFFFFFFFFFFFFFFFFFFFFFFFFF AND SWAP1 PUSH4 0x91D14854 SWAP1 PUSH1 0x44 ADD PUSH1 0x20 PUSH1 0x40 MLOAD DUP1 DUP4 SUB DUP2 DUP7 GAS STATICCALL ISZERO DUP1 ISZERO PUSH2 0x2F7F JUMPI RETURNDATASIZE PUSH1 0x0 DUP1 RETURNDATACOPY RETURNDATASIZE PUSH1 0x0 REVERT JUMPDEST POP POP POP POP PUSH1 0x40 MLOAD RETURNDATASIZE PUSH1 0x1F NOT PUSH1 0x1F DUP3 ADD AND DUP3 ADD DUP1 PUSH1 0x40 MSTORE POP DUP2 ADD SWAP1 PUSH2 0x2FA3 SWAP2 SWAP1 PUSH2 0x3E90 JUMP JUMPDEST ISZERO PUSH2 0x3027 JUMPI PUSH1 0x4 DUP4 ADD SLOAD PUSH20 0xFFFFFFFFFFFFFFFFFFFFFFFFFFFFFFFFFFFFFFFF AND PUSH4 0x8F427C7 PUSH2 0x2FD0 PUSH2 0x2AED JUMP JUMPDEST DUP5 DUP5 PUSH1 0x40 MLOAD DUP5 PUSH4 0xFFFFFFFF AND PUSH1 0xE0 SHL DUP2 MSTORE PUSH1 0x4 ADD PUSH2 0x2FF0 SWAP4 SWAP3 SWAP2 SWAP1 PUSH2 0x4047 JUMP JUMPDEST PUSH1 0x0 PUSH1 0x40 MLOAD DUP1 DUP4 SUB DUP2 PUSH1 0x0 DUP8 DUP1 EXTCODESIZE ISZERO DUP1 ISZERO PUSH2 0x300A JUMPI PUSH1 0x0 DUP1 REVERT JUMPDEST POP GAS CALL ISZERO DUP1 ISZERO PUSH2 0x301E JUMPI RETURNDATASIZE PUSH1 0x0 DUP1 RETURNDATACOPY RETURNDATASIZE PUSH1 0x0 REVERT JUMPDEST POP POP POP POP PUSH2 0x30A4 JUMP JUMPDEST PUSH1 0x4 DUP4 ADD SLOAD PUSH20 0xFFFFFFFFFFFFFFFFFFFFFFFFFFFFFFFFFFFFFFFF AND PUSH4 0x2EB2C2D6 ADDRESS PUSH2 0x3050 PUSH2 0x2AED JUMP JUMPDEST DUP6 DUP6 PUSH1 0x40 MLOAD DUP6 PUSH4 0xFFFFFFFF AND PUSH1 0xE0 SHL DUP2 MSTORE PUSH1 0x4 ADD PUSH2 0x3071 SWAP5 SWAP4 SWAP3 SWAP2 SWAP1 PUSH2 0x4088 JUMP JUMPDEST PUSH1 0x0 PUSH1 0x40 MLOAD DUP1 DUP4 SUB DUP2 PUSH1 0x0 DUP8 DUP1 EXTCODESIZE ISZERO DUP1 ISZERO PUSH2 0x308B JUMPI PUSH1 0x0 DUP1 REVERT JUMPDEST POP GAS CALL ISZERO DUP1 ISZERO PUSH2 0x309F JUMPI RETURNDATASIZE PUSH1 0x0 DUP1 RETURNDATACOPY RETURNDATASIZE PUSH1 0x0 REVERT JUMPDEST POP POP POP POP JUMPDEST PUSH1 0x4 DUP5 ADD DUP1 SLOAD PUSH32 0xFFFFFFFFFFFFFFFFFFFFFFFFFFFFFFFFFFFFFFFFFFFFFFFFFFFFFFFFFFFFFF00 AND PUSH1 0x1 OR SWAP1 SSTORE DUP6 PUSH32 0xA90466A1141D4242085B5AC5C6634A366EC37AD66C953E191B51C3441E56010E DUP5 PUSH2 0x30FC PUSH2 0x2AED JUMP JUMPDEST DUP9 DUP7 DUP7 PUSH1 0x40 MLOAD PUSH2 0x3110 SWAP6 SWAP5 SWAP4 SWAP3 SWAP2 SWAP1 PUSH2 0x40D3 JUMP JUMPDEST PUSH1 0x40 MLOAD DUP1 SWAP2 SUB SWAP1 LOG2 POP POP POP POP POP POP JUMP JUMPDEST PUSH1 0x0 PUSH2 0x2939 DUP4 DUP4 PUSH2 0x3328 JUMP JUMPDEST PUSH1 0x60 PUSH1 0x0 PUSH2 0x2939 DUP4 PUSH2 0x3377 JUMP JUMPDEST PUSH1 0x0 DUP3 PUSH1 0x0 ADD DUP3 DUP2 SLOAD DUP2 LT PUSH2 0x3150 JUMPI PUSH2 0x3150 PUSH2 0x3CB7 JUMP JUMPDEST SWAP1 PUSH1 0x0 MSTORE PUSH1 0x20 PUSH1 0x0 KECCAK256 ADD SLOAD SWAP1 POP SWAP3 SWAP2 POP POP JUMP JUMPDEST PUSH1 0x0 DUP3 DUP2 MSTORE PUSH1 0x1 PUSH1 0x20 SWAP1 DUP2 MSTORE PUSH1 0x40 DUP1 DUP4 KECCAK256 PUSH20 0xFFFFFFFFFFFFFFFFFFFFFFFFFFFFFFFFFFFFFFFF DUP6 AND DUP5 MSTORE SWAP1 SWAP2 MSTORE SWAP1 KECCAK256 SLOAD PUSH1 0xFF AND PUSH2 0x8D6 JUMPI PUSH2 0x31BB DUP2 PUSH20 0xFFFFFFFFFFFFFFFFFFFFFFFFFFFFFFFFFFFFFFFF AND PUSH1 0x14 PUSH2 0x33D3 JUMP JUMPDEST PUSH2 0x31C6 DUP4 PUSH1 0x20 PUSH2 0x33D3 JUMP JUMPDEST PUSH1 0x40 MLOAD PUSH1 0x20 ADD PUSH2 0x31D7 SWAP3 SWAP2 SWAP1 PUSH2 0x415E JUMP JUMPDEST PUSH1 0x40 DUP1 MLOAD PUSH32 0xFFFFFFFFFFFFFFFFFFFFFFFFFFFFFFFFFFFFFFFFFFFFFFFFFFFFFFFFFFFFFFE0 DUP2 DUP5 SUB ADD DUP2 MSTORE SWAP1 DUP3 SWAP1 MSTORE PUSH32 0x8C379A000000000000000000000000000000000000000000000000000000000 DUP3 MSTORE PUSH2 0x6C5 SWAP2 PUSH1 0x4 ADD PUSH2 0x41DF JUMP JUMPDEST PUSH1 0x0 DUP2 DUP2 MSTORE PUSH1 0x1 DUP4 ADD PUSH1 0x20 MSTORE PUSH1 0x40 DUP2 KECCAK256 SLOAD DUP1 ISZERO PUSH2 0x331E JUMPI PUSH1 0x0 PUSH2 0x3259 PUSH1 0x1 DUP4 PUSH2 0x3C62 JUMP JUMPDEST DUP6 SLOAD SWAP1 SWAP2 POP PUSH1 0x0 SWAP1 PUSH2 0x326D SWAP1 PUSH1 0x1 SWAP1 PUSH2 0x3C62 JUMP JUMPDEST SWAP1 POP DUP2 DUP2 EQ PUSH2 0x32D2 JUMPI PUSH1 0x0 DUP7 PUSH1 0x0 ADD DUP3 DUP2 SLOAD DUP2 LT PUSH2 0x328D JUMPI PUSH2 0x328D PUSH2 0x3CB7 JUMP JUMPDEST SWAP1 PUSH1 0x0 MSTORE PUSH1 0x20 PUSH1 0x0 KECCAK256 ADD SLOAD SWAP1 POP DUP1 DUP8 PUSH1 0x0 ADD DUP5 DUP2 SLOAD DUP2 LT PUSH2 0x32B0 JUMPI PUSH2 0x32B0 PUSH2 0x3CB7 JUMP JUMPDEST PUSH1 0x0 SWAP2 DUP3 MSTORE PUSH1 0x20 DUP1 DUP4 KECCAK256 SWAP1 SWAP2 ADD SWAP3 SWAP1 SWAP3 SSTORE SWAP2 DUP3 MSTORE PUSH1 0x1 DUP9 ADD SWAP1 MSTORE PUSH1 0x40 SWAP1 KECCAK256 DUP4 SWAP1 SSTORE JUMPDEST DUP6 SLOAD DUP7 SWAP1 DUP1 PUSH2 0x32E3 JUMPI PUSH2 0x32E3 PUSH2 0x4230 JUMP JUMPDEST PUSH1 0x1 SWAP1 SUB DUP2 DUP2 SWAP1 PUSH1 0x0 MSTORE PUSH1 0x20 PUSH1 0x0 KECCAK256 ADD PUSH1 0x0 SWAP1 SSTORE SWAP1 SSTORE DUP6 PUSH1 0x1 ADD PUSH1 0x0 DUP7 DUP2 MSTORE PUSH1 0x20 ADD SWAP1 DUP2 MSTORE PUSH1 0x20 ADD PUSH1 0x0 KECCAK256 PUSH1 0x0 SWAP1 SSTORE PUSH1 0x1 SWAP4 POP POP POP POP PUSH2 0x5D9 JUMP JUMPDEST PUSH1 0x0 SWAP2 POP POP PUSH2 0x5D9 JUMP JUMPDEST PUSH1 0x0 DUP2 DUP2 MSTORE PUSH1 0x1 DUP4 ADD PUSH1 0x20 MSTORE PUSH1 0x40 DUP2 KECCAK256 SLOAD PUSH2 0x336F JUMPI POP DUP2 SLOAD PUSH1 0x1 DUP2 DUP2 ADD DUP5 SSTORE PUSH1 0x0 DUP5 DUP2 MSTORE PUSH1 0x20 DUP1 DUP3 KECCAK256 SWAP1 SWAP4 ADD DUP5 SWAP1 SSTORE DUP5 SLOAD DUP5 DUP3 MSTORE DUP3 DUP7 ADD SWAP1 SWAP4 MSTORE PUSH1 0x40 SWAP1 KECCAK256 SWAP2 SWAP1 SWAP2 SSTORE PUSH2 0x5D9 JUMP JUMPDEST POP PUSH1 0x0 PUSH2 0x5D9 JUMP JUMPDEST PUSH1 0x60 DUP2 PUSH1 0x0 ADD DUP1 SLOAD DUP1 PUSH1 0x20 MUL PUSH1 0x20 ADD PUSH1 0x40 MLOAD SWAP1 DUP2 ADD PUSH1 0x40 MSTORE DUP1 SWAP3 SWAP2 SWAP1 DUP2 DUP2 MSTORE PUSH1 0x20 ADD DUP3 DUP1 SLOAD DUP1 ISZERO PUSH2 0x33C7 JUMPI PUSH1 0x20 MUL DUP3 ADD SWAP2 SWAP1 PUSH1 0x0 MSTORE PUSH1 0x20 PUSH1 0x0 KECCAK256 SWAP1 JUMPDEST DUP2 SLOAD DUP2 MSTORE PUSH1 0x20 ADD SWAP1 PUSH1 0x1 ADD SWAP1 DUP1 DUP4 GT PUSH2 0x33B3 JUMPI JUMPDEST POP POP POP POP POP SWAP1 POP SWAP2 SWAP1 POP JUMP JUMPDEST PUSH1 0x60 PUSH1 0x0 PUSH2 0x33E2 DUP4 PUSH1 0x2 PUSH2 0x425F JUMP JUMPDEST PUSH2 0x33ED SWAP1 PUSH1 0x2 PUSH2 0x3CA4 JUMP JUMPDEST PUSH8 0xFFFFFFFFFFFFFFFF DUP2 GT ISZERO PUSH2 0x3405 JUMPI PUSH2 0x3405 PUSH2 0x3C75 JUMP JUMPDEST PUSH1 0x40 MLOAD SWAP1 DUP1 DUP3 MSTORE DUP1 PUSH1 0x1F ADD PUSH1 0x1F NOT AND PUSH1 0x20 ADD DUP3 ADD PUSH1 0x40 MSTORE DUP1 ISZERO PUSH2 0x342F JUMPI PUSH1 0x20 DUP3 ADD DUP2 DUP1 CALLDATASIZE DUP4 CALLDATACOPY ADD SWAP1 POP JUMPDEST POP SWAP1 POP PUSH32 0x3000000000000000000000000000000000000000000000000000000000000000 DUP2 PUSH1 0x0 DUP2 MLOAD DUP2 LT PUSH2 0x3466 JUMPI PUSH2 0x3466 PUSH2 0x3CB7 JUMP JUMPDEST PUSH1 0x20 ADD ADD SWAP1 PUSH31 0xFFFFFFFFFFFFFFFFFFFFFFFFFFFFFFFFFFFFFFFFFFFFFFFFFFFFFFFFFFFFFF NOT AND SWAP1 DUP2 PUSH1 0x0 BYTE SWAP1 MSTORE8 POP PUSH32 0x7800000000000000000000000000000000000000000000000000000000000000 DUP2 PUSH1 0x1 DUP2 MLOAD DUP2 LT PUSH2 0x34C9 JUMPI PUSH2 0x34C9 PUSH2 0x3CB7 JUMP JUMPDEST PUSH1 0x20 ADD ADD SWAP1 PUSH31 0xFFFFFFFFFFFFFFFFFFFFFFFFFFFFFFFFFFFFFFFFFFFFFFFFFFFFFFFFFFFFFF NOT AND SWAP1 DUP2 PUSH1 0x0 BYTE SWAP1 MSTORE8 POP PUSH1 0x0 PUSH2 0x3505 DUP5 PUSH1 0x2 PUSH2 0x425F JUMP JUMPDEST PUSH2 0x3510 SWAP1 PUSH1 0x1 PUSH2 0x3CA4 JUMP JUMPDEST SWAP1 POP JUMPDEST PUSH1 0x1 DUP2 GT ISZERO PUSH2 0x35AD JUMPI PUSH32 0x3031323334353637383961626364656600000000000000000000000000000000 DUP6 PUSH1 0xF AND PUSH1 0x10 DUP2 LT PUSH2 0x3551 JUMPI PUSH2 0x3551 PUSH2 0x3CB7 JUMP JUMPDEST BYTE PUSH1 0xF8 SHL DUP3 DUP3 DUP2 MLOAD DUP2 LT PUSH2 0x3567 JUMPI PUSH2 0x3567 PUSH2 0x3CB7 JUMP JUMPDEST PUSH1 0x20 ADD ADD SWAP1 PUSH31 0xFFFFFFFFFFFFFFFFFFFFFFFFFFFFFFFFFFFFFFFFFFFFFFFFFFFFFFFFFFFFFF NOT AND SWAP1 DUP2 PUSH1 0x0 BYTE SWAP1 MSTORE8 POP PUSH1 0x4 SWAP5 SWAP1 SWAP5 SHR SWAP4 PUSH2 0x35A6 DUP2 PUSH2 0x429C JUMP JUMPDEST SWAP1 POP PUSH2 0x3513 JUMP JUMPDEST POP DUP4 ISZERO PUSH2 0x2939 JUMPI PUSH1 0x40 MLOAD PUSH32 0x8C379A000000000000000000000000000000000000000000000000000000000 DUP2 MSTORE PUSH1 0x20 PUSH1 0x4 DUP3 ADD DUP2 SWAP1 MSTORE PUSH1 0x24 DUP3 ADD MSTORE PUSH32 0x537472696E67733A20686578206C656E67746820696E73756666696369656E74 PUSH1 0x44 DUP3 ADD MSTORE PUSH1 0x64 ADD PUSH2 0x6C5 JUMP JUMPDEST DUP3 DUP1 SLOAD DUP3 DUP3 SSTORE SWAP1 PUSH1 0x0 MSTORE PUSH1 0x20 PUSH1 0x0 KECCAK256 SWAP1 DUP2 ADD SWAP3 DUP3 ISZERO PUSH2 0x3651 JUMPI SWAP2 PUSH1 0x20 MUL DUP3 ADD JUMPDEST DUP3 DUP2 GT ISZERO PUSH2 0x3651 JUMPI DUP3 MLOAD DUP3 SSTORE SWAP2 PUSH1 0x20 ADD SWAP2 SWAP1 PUSH1 0x1 ADD SWAP1 PUSH2 0x3636 JUMP JUMPDEST POP PUSH2 0x365D SWAP3 SWAP2 POP PUSH2 0x3661 JUMP JUMPDEST POP SWAP1 JUMP JUMPDEST JUMPDEST DUP1 DUP3 GT ISZERO PUSH2 0x365D JUMPI PUSH1 0x0 DUP2 SSTORE PUSH1 0x1 ADD PUSH2 0x3662 JUMP JUMPDEST PUSH1 0x0 DUP1 PUSH1 0x40 DUP4 DUP6 SUB SLT ISZERO PUSH2 0x3689 JUMPI PUSH1 0x0 DUP1 REVERT JUMPDEST POP POP DUP1 CALLDATALOAD SWAP3 PUSH1 0x20 SWAP1 SWAP2 ADD CALLDATALOAD SWAP2 POP JUMP JUMPDEST PUSH1 0x0 DUP2 MLOAD DUP1 DUP5 MSTORE PUSH1 0x20 DUP1 DUP6 ADD SWAP5 POP DUP1 DUP5 ADD PUSH1 0x0 JUMPDEST DUP4 DUP2 LT ISZERO PUSH2 0x36C8 JUMPI DUP2 MLOAD DUP8 MSTORE SWAP6 DUP3 ADD SWAP6 SWAP1 DUP3 ADD SWAP1 PUSH1 0x1 ADD PUSH2 0x36AC JUMP JUMPDEST POP SWAP5 SWAP6 SWAP5 POP POP POP POP POP JUMP JUMPDEST PUSH1 0x0 PUSH1 0x20 DUP1 DUP4 ADD DUP2 DUP5 MSTORE DUP1 DUP6 MLOAD DUP1 DUP4 MSTORE PUSH1 0x40 DUP7 ADD SWAP2 POP PUSH1 0x40 DUP2 PUSH1 0x5 SHL DUP8 ADD ADD SWAP3 POP DUP4 DUP8 ADD PUSH1 0x0 JUMPDEST DUP3 DUP2 LT ISZERO PUSH2 0x3746 JUMPI PUSH32 0xFFFFFFFFFFFFFFFFFFFFFFFFFFFFFFFFFFFFFFFFFFFFFFFFFFFFFFFFFFFFFFC0 DUP9 DUP7 SUB ADD DUP5 MSTORE PUSH2 0x3734 DUP6 DUP4 MLOAD PUSH2 0x3698 JUMP JUMPDEST SWAP5 POP SWAP3 DUP6 ADD SWAP3 SWAP1 DUP6 ADD SWAP1 PUSH1 0x1 ADD PUSH2 0x36FA JUMP JUMPDEST POP SWAP3 SWAP8 SWAP7 POP POP POP POP POP POP POP JUMP JUMPDEST PUSH1 0x0 PUSH1 0x20 DUP3 DUP5 SUB SLT ISZERO PUSH2 0x3765 JUMPI PUSH1 0x0 DUP1 REVERT JUMPDEST DUP2 CALLDATALOAD PUSH32 0xFFFFFFFF00000000000000000000000000000000000000000000000000000000 DUP2 AND DUP2 EQ PUSH2 0x2939 JUMPI PUSH1 0x0 DUP1 REVERT JUMPDEST PUSH1 0x0 PUSH1 0x20 DUP3 DUP5 SUB SLT ISZERO PUSH2 0x37A7 JUMPI PUSH1 0x0 DUP1 REVERT JUMPDEST POP CALLDATALOAD SWAP2 SWAP1 POP JUMP JUMPDEST PUSH1 0x20 DUP2 MSTORE PUSH1 0x0 PUSH2 0x2939 PUSH1 0x20 DUP4 ADD DUP5 PUSH2 0x3698 JUMP JUMPDEST DUP1 CALLDATALOAD PUSH20 0xFFFFFFFFFFFFFFFFFFFFFFFFFFFFFFFFFFFFFFFF DUP2 AND DUP2 EQ PUSH2 0x37E5 JUMPI PUSH1 0x0 DUP1 REVERT JUMPDEST SWAP2 SWAP1 POP JUMP JUMPDEST PUSH1 0x0 DUP1 PUSH1 0x40 DUP4 DUP6 SUB SLT ISZERO PUSH2 0x37FD JUMPI PUSH1 0x0 DUP1 REVERT JUMPDEST DUP3 CALLDATALOAD SWAP2 POP PUSH2 0x380D PUSH1 0x20 DUP5 ADD PUSH2 0x37C1 JUMP JUMPDEST SWAP1 POP SWAP3 POP SWAP3 SWAP1 POP JUMP JUMPDEST PUSH1 0x0 PUSH1 0x20 DUP3 DUP5 SUB SLT ISZERO PUSH2 0x3828 JUMPI PUSH1 0x0 DUP1 REVERT JUMPDEST PUSH2 0x2939 DUP3 PUSH2 0x37C1 JUMP JUMPDEST PUSH1 0x0 PUSH2 0x180 DUP3 MLOAD DUP5 MSTORE PUSH1 0x20 DUP4 ADD MLOAD PUSH2 0x3861 PUSH1 0x20 DUP7 ADD DUP3 PUSH20 0xFFFFFFFFFFFFFFFFFFFFFFFFFFFFFFFFFFFFFFFF AND SWAP1 MSTORE JUMP JUMPDEST POP PUSH1 0x40 DUP4 ADD MLOAD DUP2 PUSH1 0x40 DUP7 ADD MSTORE PUSH2 0x3879 DUP3 DUP7 ADD DUP3 PUSH2 0x3698 JUMP JUMPDEST SWAP2 POP POP PUSH1 0x60 DUP4 ADD MLOAD DUP5 DUP3 SUB PUSH1 0x60 DUP7 ADD MSTORE PUSH2 0x3893 DUP3 DUP3 PUSH2 0x3698 JUMP JUMPDEST SWAP2 POP POP PUSH1 0x80 DUP4 ADD MLOAD PUSH2 0x38BD PUSH1 0x80 DUP7 ADD DUP3 PUSH20 0xFFFFFFFFFFFFFFFFFFFFFFFFFFFFFFFFFFFFFFFF AND SWAP1 MSTORE JUMP JUMPDEST POP PUSH1 0xA0 DUP4 ADD MLOAD DUP5 DUP3 SUB PUSH1 0xA0 DUP7 ADD MSTORE PUSH2 0x38D5 DUP3 DUP3 PUSH2 0x3698 JUMP JUMPDEST SWAP2 POP POP PUSH1 0xC0 DUP4 ADD MLOAD DUP5 DUP3 SUB PUSH1 0xC0 DUP7 ADD MSTORE PUSH2 0x38EF DUP3 DUP3 PUSH2 0x3698 JUMP JUMPDEST SWAP2 POP POP PUSH1 0xE0 DUP4 ADD MLOAD DUP5 DUP3 SUB PUSH1 0xE0 DUP7 ADD MSTORE PUSH2 0x3909 DUP3 DUP3 PUSH2 0x3698 JUMP JUMPDEST PUSH2 0x100 DUP6 DUP2 ADD MLOAD SWAP1 DUP8 ADD MSTORE PUSH2 0x120 DUP1 DUP7 ADD MLOAD SWAP1 DUP8 ADD MSTORE PUSH2 0x140 DUP1 DUP7 ADD MLOAD SWAP1 DUP8 ADD MSTORE PUSH2 0x160 SWAP5 DUP6 ADD MLOAD SWAP5 SWAP1 SWAP6 ADD SWAP4 SWAP1 SWAP4 MSTORE POP SWAP2 SWAP3 SWAP2 POP POP JUMP JUMPDEST PUSH1 0x0 PUSH1 0x20 DUP1 DUP4 ADD DUP2 DUP5 MSTORE DUP1 DUP6 MLOAD DUP1 DUP4 MSTORE PUSH1 0x40 DUP7 ADD SWAP2 POP PUSH1 0x40 DUP2 PUSH1 0x5 SHL DUP8 ADD ADD SWAP3 POP DUP4 DUP8 ADD PUSH1 0x0 JUMPDEST DUP3 DUP2 LT ISZERO PUSH2 0x3746 JUMPI PUSH32 0xFFFFFFFFFFFFFFFFFFFFFFFFFFFFFFFFFFFFFFFFFFFFFFFFFFFFFFFFFFFFFFC0 DUP9 DUP7 SUB ADD DUP5 MSTORE PUSH2 0x39A2 DUP6 DUP4 MLOAD PUSH2 0x3831 JUMP JUMPDEST SWAP5 POP SWAP3 DUP6 ADD SWAP3 SWAP1 DUP6 ADD SWAP1 PUSH1 0x1 ADD PUSH2 0x3968 JUMP JUMPDEST PUSH1 0x0 DUP1 PUSH1 0x40 DUP4 DUP6 SUB SLT ISZERO PUSH2 0x39C7 JUMPI PUSH1 0x0 DUP1 REVERT JUMPDEST PUSH2 0x39D0 DUP4 PUSH2 0x37C1 JUMP JUMPDEST SWAP5 PUSH1 0x20 SWAP4 SWAP1 SWAP4 ADD CALLDATALOAD SWAP4 POP POP POP JUMP JUMPDEST DUP1 MLOAD DUP3 MSTORE PUSH1 0x20 DUP2 ADD MLOAD PUSH1 0x20 DUP4 ADD MSTORE PUSH1 0x0 PUSH1 0x40 DUP3 ADD MLOAD PUSH1 0xA0 PUSH1 0x40 DUP6 ADD MSTORE PUSH2 0x3A07 PUSH1 0xA0 DUP6 ADD DUP3 PUSH2 0x3698 JUMP JUMPDEST SWAP1 POP PUSH1 0x60 DUP4 ADD MLOAD DUP5 DUP3 SUB PUSH1 0x60 DUP7 ADD MSTORE PUSH2 0x3A20 DUP3 DUP3 PUSH2 0x3698 JUMP JUMPDEST SWAP2 POP POP PUSH1 0x80 DUP4 ADD MLOAD ISZERO ISZERO PUSH1 0x80 DUP6 ADD MSTORE DUP1 SWAP2 POP POP SWAP3 SWAP2 POP POP JUMP JUMPDEST PUSH1 0x0 PUSH1 0x20 DUP1 DUP4 ADD DUP2 DUP5 MSTORE DUP1 DUP6 MLOAD DUP1 DUP4 MSTORE PUSH1 0x40 DUP7 ADD SWAP2 POP PUSH1 0x40 DUP2 PUSH1 0x5 SHL DUP8 ADD ADD SWAP3 POP DUP4 DUP8 ADD PUSH1 0x0 JUMPDEST DUP3 DUP2 LT ISZERO PUSH2 0x3746 JUMPI PUSH32 0xFFFFFFFFFFFFFFFFFFFFFFFFFFFFFFFFFFFFFFFFFFFFFFFFFFFFFFFFFFFFFFC0 DUP9 DUP7 SUB ADD DUP5 MSTORE PUSH2 0x3A9A DUP6 DUP4 MLOAD PUSH2 0x39DE JUMP JUMPDEST SWAP5 POP SWAP3 DUP6 ADD SWAP3 SWAP1 DUP6 ADD SWAP1 PUSH1 0x1 ADD PUSH2 0x3A60 JUMP JUMPDEST DUP1 PUSH1 0x40 DUP2 ADD DUP4 LT ISZERO PUSH2 0x5D9 JUMPI PUSH1 0x0 DUP1 REVERT JUMPDEST PUSH1 0x0 DUP1 PUSH1 0x0 DUP1 PUSH1 0x0 DUP1 PUSH1 0x0 PUSH1 0xE0 DUP9 DUP11 SUB SLT ISZERO PUSH2 0x3AD8 JUMPI PUSH1 0x0 DUP1 REVERT JUMPDEST DUP8 CALLDATALOAD SWAP7 POP PUSH2 0x3AE9 DUP10 PUSH1 0x20 DUP11 ADD PUSH2 0x3AAC JUMP JUMPDEST SWAP6 POP PUSH1 0x60 DUP9 ADD CALLDATALOAD PUSH8 0xFFFFFFFFFFFFFFFF DUP1 DUP3 GT ISZERO PUSH2 0x3B06 JUMPI PUSH1 0x0 DUP1 REVERT JUMPDEST PUSH2 0x3B12 DUP12 DUP4 DUP13 ADD PUSH2 0x3AAC JUMP JUMPDEST SWAP7 POP PUSH1 0x80 DUP11 ADD CALLDATALOAD SWAP2 POP DUP1 DUP3 GT ISZERO PUSH2 0x3B28 JUMPI PUSH1 0x0 DUP1 REVERT JUMPDEST PUSH2 0x3B34 DUP12 DUP4 DUP13 ADD PUSH2 0x3AAC JUMP JUMPDEST SWAP6 POP PUSH1 0xA0 DUP11 ADD CALLDATALOAD SWAP2 POP DUP1 DUP3 GT ISZERO PUSH2 0x3B4A JUMPI PUSH1 0x0 DUP1 REVERT JUMPDEST DUP2 DUP11 ADD SWAP2 POP DUP11 PUSH1 0x1F DUP4 ADD SLT PUSH2 0x3B5E JUMPI PUSH1 0x0 DUP1 REVERT JUMPDEST DUP2 CALLDATALOAD DUP2 DUP2 GT ISZERO PUSH2 0x3B6D JUMPI PUSH1 0x0 DUP1 REVERT JUMPDEST DUP12 PUSH1 0x20 DUP3 PUSH1 0x5 SHL DUP6 ADD ADD GT ISZERO PUSH2 0x3B82 JUMPI PUSH1 0x0 DUP1 REVERT JUMPDEST PUSH1 0x20 DUP4 ADD SWAP6 POP DUP1 SWAP5 POP POP POP POP PUSH1 0xC0 DUP9 ADD CALLDATALOAD SWAP1 POP SWAP3 SWAP6 SWAP9 SWAP2 SWAP5 SWAP8 POP SWAP3 SWAP6 POP JUMP JUMPDEST PUSH1 0x20 DUP2 MSTORE PUSH1 0x0 PUSH2 0x2939 PUSH1 0x20 DUP4 ADD DUP5 PUSH2 0x3831 JUMP JUMPDEST PUSH1 0x0 DUP1 PUSH1 0x0 PUSH1 0x60 DUP5 DUP7 SUB SLT ISZERO PUSH2 0x3BC9 JUMPI PUSH1 0x0 DUP1 REVERT JUMPDEST PUSH2 0x3BD2 DUP5 PUSH2 0x37C1 JUMP JUMPDEST SWAP6 PUSH1 0x20 DUP6 ADD CALLDATALOAD SWAP6 POP PUSH1 0x40 SWAP1 SWAP5 ADD CALLDATALOAD SWAP4 SWAP3 POP POP POP JUMP JUMPDEST PUSH1 0x20 DUP2 MSTORE PUSH1 0x0 PUSH2 0x2939 PUSH1 0x20 DUP4 ADD DUP5 PUSH2 0x39DE JUMP JUMPDEST PUSH1 0x0 DUP1 PUSH1 0x0 DUP1 PUSH1 0x80 DUP6 DUP8 SUB SLT ISZERO PUSH2 0x3C10 JUMPI PUSH1 0x0 DUP1 REVERT JUMPDEST PUSH2 0x3C19 DUP6 PUSH2 0x37C1 JUMP JUMPDEST SWAP7 PUSH1 0x20 DUP7 ADD CALLDATALOAD SWAP7 POP PUSH1 0x40 DUP7 ADD CALLDATALOAD SWAP6 PUSH1 0x60 ADD CALLDATALOAD SWAP5 POP SWAP3 POP POP POP JUMP JUMPDEST PUSH32 0x4E487B7100000000000000000000000000000000000000000000000000000000 PUSH1 0x0 MSTORE PUSH1 0x11 PUSH1 0x4 MSTORE PUSH1 0x24 PUSH1 0x0 REVERT JUMPDEST DUP2 DUP2 SUB DUP2 DUP2 GT ISZERO PUSH2 0x5D9 JUMPI PUSH2 0x5D9 PUSH2 0x3C33 JUMP JUMPDEST PUSH32 0x4E487B7100000000000000000000000000000000000000000000000000000000 PUSH1 0x0 MSTORE PUSH1 0x41 PUSH1 0x4 MSTORE PUSH1 0x24 PUSH1 0x0 REVERT JUMPDEST DUP1 DUP3 ADD DUP1 DUP3 GT ISZERO PUSH2 0x5D9 JUMPI PUSH2 0x5D9 PUSH2 0x3C33 JUMP JUMPDEST PUSH32 0x4E487B7100000000000000000000000000000000000000000000000000000000 PUSH1 0x0 MSTORE PUSH1 0x32 PUSH1 0x4 MSTORE PUSH1 0x24 PUSH1 0x0 REVERT JUMPDEST PUSH1 0x0 PUSH32 0xFFFFFFFFFFFFFFFFFFFFFFFFFFFFFFFFFFFFFFFFFFFFFFFFFFFFFFFFFFFFFFFF DUP3 SUB PUSH2 0x3D17 JUMPI PUSH2 0x3D17 PUSH2 0x3C33 JUMP JUMPDEST POP PUSH1 0x1 ADD SWAP1 JUMP JUMPDEST PUSH1 0x0 DUP2 SLOAD DUP1 DUP5 MSTORE PUSH1 0x20 DUP1 DUP6 ADD SWAP5 POP DUP4 PUSH1 0x0 MSTORE DUP1 PUSH1 0x0 KECCAK256 PUSH1 0x0 JUMPDEST DUP4 DUP2 LT ISZERO PUSH2 0x36C8 JUMPI DUP2 SLOAD DUP8 MSTORE SWAP6 DUP3 ADD SWAP6 PUSH1 0x1 SWAP2 DUP3 ADD SWAP2 ADD PUSH2 0x3D37 JUMP JUMPDEST PUSH1 0x0 PUSH2 0x180 DUP3 SLOAD DUP5 MSTORE PUSH2 0x3D7D PUSH1 0x1 DUP5 ADD SLOAD PUSH20 0xFFFFFFFFFFFFFFFFFFFFFFFFFFFFFFFFFFFFFFFF AND SWAP1 JUMP JUMPDEST PUSH20 0xFFFFFFFFFFFFFFFFFFFFFFFFFFFFFFFFFFFFFFFF AND PUSH1 0x20 DUP6 ADD MSTORE PUSH1 0x40 DUP5 ADD DUP2 SWAP1 MSTORE PUSH2 0x3DAE DUP2 DUP6 ADD PUSH1 0x2 DUP6 ADD PUSH2 0x3D1E JUMP JUMPDEST SWAP1 POP DUP4 DUP2 SUB PUSH1 0x60 DUP6 ADD MSTORE PUSH2 0x3DC5 DUP2 PUSH1 0x3 DUP6 ADD PUSH2 0x3D1E JUMP JUMPDEST SWAP1 POP PUSH2 0x3DE8 PUSH1 0x4 DUP5 ADD SLOAD PUSH20 0xFFFFFFFFFFFFFFFFFFFFFFFFFFFFFFFFFFFFFFFF AND SWAP1 JUMP JUMPDEST PUSH20 0xFFFFFFFFFFFFFFFFFFFFFFFFFFFFFFFFFFFFFFFF AND PUSH1 0x80 DUP6 ADD MSTORE DUP4 DUP2 SUB PUSH1 0xA0 DUP6 ADD MSTORE PUSH2 0x3E18 DUP2 PUSH1 0x5 DUP6 ADD PUSH2 0x3D1E JUMP JUMPDEST SWAP1 POP DUP4 DUP2 SUB PUSH1 0xC0 DUP6 ADD MSTORE PUSH2 0x3E2F DUP2 PUSH1 0x6 DUP6 ADD PUSH2 0x3D1E JUMP JUMPDEST SWAP1 POP DUP4 DUP2 SUB PUSH1 0xE0 DUP6 ADD MSTORE PUSH2 0x3E46 DUP2 PUSH1 0x7 DUP6 ADD PUSH2 0x3D1E JUMP JUMPDEST PUSH1 0x8 DUP5 ADD SLOAD PUSH2 0x100 DUP7 ADD MSTORE PUSH1 0x9 DUP5 ADD SLOAD PUSH2 0x120 DUP7 ADD MSTORE PUSH1 0xA DUP5 ADD SLOAD PUSH2 0x140 DUP7 ADD MSTORE PUSH1 0xB SWAP1 SWAP4 ADD SLOAD PUSH2 0x160 SWAP1 SWAP5 ADD SWAP4 SWAP1 SWAP4 MSTORE POP SWAP2 SWAP1 POP JUMP JUMPDEST PUSH1 0x20 DUP2 MSTORE PUSH1 0x0 PUSH2 0x2939 PUSH1 0x20 DUP4 ADD DUP5 PUSH2 0x3D53 JUMP JUMPDEST PUSH1 0x0 PUSH1 0x20 DUP3 DUP5 SUB SLT ISZERO PUSH2 0x3EA2 JUMPI PUSH1 0x0 DUP1 REVERT JUMPDEST DUP2 MLOAD DUP1 ISZERO ISZERO DUP2 EQ PUSH2 0x2939 JUMPI PUSH1 0x0 DUP1 REVERT JUMPDEST PUSH20 0xFFFFFFFFFFFFFFFFFFFFFFFFFFFFFFFFFFFFFFFF DUP5 AND DUP2 MSTORE PUSH1 0x60 PUSH1 0x20 DUP3 ADD MSTORE PUSH1 0x0 PUSH2 0x3EE1 PUSH1 0x60 DUP4 ADD DUP6 PUSH2 0x3D1E JUMP JUMPDEST DUP3 DUP2 SUB PUSH1 0x40 DUP5 ADD MSTORE PUSH2 0x3EF3 DUP2 DUP6 PUSH2 0x3D1E JUMP JUMPDEST SWAP7 SWAP6 POP POP POP POP POP POP JUMP JUMPDEST PUSH1 0x0 PUSH20 0xFFFFFFFFFFFFFFFFFFFFFFFFFFFFFFFFFFFFFFFF DUP1 DUP8 AND DUP4 MSTORE DUP1 DUP7 AND PUSH1 0x20 DUP5 ADD MSTORE POP PUSH1 0xA0 PUSH1 0x40 DUP4 ADD MSTORE PUSH2 0x3F36 PUSH1 0xA0 DUP4 ADD DUP6 PUSH2 0x3D1E JUMP JUMPDEST DUP3 DUP2 SUB PUSH1 0x60 DUP5 ADD MSTORE PUSH2 0x3F48 DUP2 DUP6 PUSH2 0x3D1E JUMP JUMPDEST DUP4 DUP2 SUB PUSH1 0x80 SWAP1 SWAP5 ADD SWAP4 SWAP1 SWAP4 MSTORE POP POP PUSH1 0x0 DUP2 MSTORE PUSH1 0x20 ADD SWAP5 SWAP4 POP POP POP POP JUMP JUMPDEST PUSH1 0x40 DUP2 MSTORE PUSH1 0x0 PUSH2 0x3F78 PUSH1 0x40 DUP4 ADD DUP6 PUSH2 0x3D53 JUMP JUMPDEST SWAP1 POP PUSH20 0xFFFFFFFFFFFFFFFFFFFFFFFFFFFFFFFFFFFFFFFF DUP4 AND PUSH1 0x20 DUP4 ADD MSTORE SWAP4 SWAP3 POP POP POP JUMP JUMPDEST PUSH1 0x0 DUP1 DUP4 CALLDATALOAD PUSH32 0xFFFFFFFFFFFFFFFFFFFFFFFFFFFFFFFFFFFFFFFFFFFFFFFFFFFFFFFFFFFFFFE1 DUP5 CALLDATASIZE SUB ADD DUP2 SLT PUSH2 0x3FD2 JUMPI PUSH1 0x0 DUP1 REVERT JUMPDEST DUP4 ADD DUP1 CALLDATALOAD SWAP2 POP PUSH8 0xFFFFFFFFFFFFFFFF DUP3 GT ISZERO PUSH2 0x3FED JUMPI PUSH1 0x0 DUP1 REVERT JUMPDEST PUSH1 0x20 ADD SWAP2 POP PUSH1 0x5 DUP2 SWAP1 SHL CALLDATASIZE SUB DUP3 SGT ISZERO PUSH2 0x4005 JUMPI PUSH1 0x0 DUP1 REVERT JUMPDEST SWAP3 POP SWAP3 SWAP1 POP JUMP JUMPDEST PUSH1 0x0 DUP3 PUSH2 0x4042 JUMPI PUSH32 0x4E487B7100000000000000000000000000000000000000000000000000000000 PUSH1 0x0 MSTORE PUSH1 0x12 PUSH1 0x4 MSTORE PUSH1 0x24 PUSH1 0x0 REVERT JUMPDEST POP MOD SWAP1 JUMP JUMPDEST PUSH20 0xFFFFFFFFFFFFFFFFFFFFFFFFFFFFFFFFFFFFFFFF DUP5 AND DUP2 MSTORE PUSH1 0x60 PUSH1 0x20 DUP3 ADD MSTORE PUSH1 0x0 PUSH2 0x4076 PUSH1 0x60 DUP4 ADD DUP6 PUSH2 0x3698 JUMP JUMPDEST DUP3 DUP2 SUB PUSH1 0x40 DUP5 ADD MSTORE PUSH2 0x3EF3 DUP2 DUP6 PUSH2 0x3698 JUMP JUMPDEST PUSH1 0x0 PUSH20 0xFFFFFFFFFFFFFFFFFFFFFFFFFFFFFFFFFFFFFFFF DUP1 DUP8 AND DUP4 MSTORE DUP1 DUP7 AND PUSH1 0x20 DUP5 ADD MSTORE POP PUSH1 0xA0 PUSH1 0x40 DUP4 ADD MSTORE PUSH2 0x40C1 PUSH1 0xA0 DUP4 ADD DUP6 PUSH2 0x3698 JUMP JUMPDEST DUP3 DUP2 SUB PUSH1 0x60 DUP5 ADD MSTORE PUSH2 0x3F48 DUP2 DUP6 PUSH2 0x3698 JUMP JUMPDEST PUSH1 0xA0 DUP2 MSTORE PUSH1 0x0 PUSH2 0x40E6 PUSH1 0xA0 DUP4 ADD DUP9 PUSH2 0x3D53 JUMP JUMPDEST PUSH20 0xFFFFFFFFFFFFFFFFFFFFFFFFFFFFFFFFFFFFFFFF DUP8 AND PUSH1 0x20 DUP5 ADD MSTORE DUP6 PUSH1 0x40 DUP5 ADD MSTORE DUP3 DUP2 SUB PUSH1 0x60 DUP5 ADD MSTORE PUSH2 0x411A DUP2 DUP7 PUSH2 0x3698 JUMP JUMPDEST SWAP1 POP DUP3 DUP2 SUB PUSH1 0x80 DUP5 ADD MSTORE PUSH2 0x412E DUP2 DUP6 PUSH2 0x3698 JUMP JUMPDEST SWAP9 SWAP8 POP POP POP POP POP POP POP POP JUMP JUMPDEST PUSH1 0x0 JUMPDEST DUP4 DUP2 LT ISZERO PUSH2 0x4155 JUMPI DUP2 DUP2 ADD MLOAD DUP4 DUP3 ADD MSTORE PUSH1 0x20 ADD PUSH2 0x413D JUMP JUMPDEST POP POP PUSH1 0x0 SWAP2 ADD MSTORE JUMP JUMPDEST PUSH32 0x416363657373436F6E74726F6C3A206163636F756E7420000000000000000000 DUP2 MSTORE PUSH1 0x0 DUP4 MLOAD PUSH2 0x4196 DUP2 PUSH1 0x17 DUP6 ADD PUSH1 0x20 DUP9 ADD PUSH2 0x413A JUMP JUMPDEST PUSH32 0x206973206D697373696E6720726F6C6520000000000000000000000000000000 PUSH1 0x17 SWAP2 DUP5 ADD SWAP2 DUP3 ADD MSTORE DUP4 MLOAD PUSH2 0x41D3 DUP2 PUSH1 0x28 DUP5 ADD PUSH1 0x20 DUP9 ADD PUSH2 0x413A JUMP JUMPDEST ADD PUSH1 0x28 ADD SWAP5 SWAP4 POP POP POP POP JUMP JUMPDEST PUSH1 0x20 DUP2 MSTORE PUSH1 0x0 DUP3 MLOAD DUP1 PUSH1 0x20 DUP5 ADD MSTORE PUSH2 0x41FE DUP2 PUSH1 0x40 DUP6 ADD PUSH1 0x20 DUP8 ADD PUSH2 0x413A JUMP JUMPDEST PUSH1 0x1F ADD PUSH32 0xFFFFFFFFFFFFFFFFFFFFFFFFFFFFFFFFFFFFFFFFFFFFFFFFFFFFFFFFFFFFFFE0 AND SWAP2 SWAP1 SWAP2 ADD PUSH1 0x40 ADD SWAP3 SWAP2 POP POP JUMP JUMPDEST PUSH32 0x4E487B7100000000000000000000000000000000000000000000000000000000 PUSH1 0x0 MSTORE PUSH1 0x31 PUSH1 0x4 MSTORE PUSH1 0x24 PUSH1 0x0 REVERT JUMPDEST PUSH1 0x0 DUP2 PUSH32 0xFFFFFFFFFFFFFFFFFFFFFFFFFFFFFFFFFFFFFFFFFFFFFFFFFFFFFFFFFFFFFFFF DIV DUP4 GT DUP3 ISZERO ISZERO AND ISZERO PUSH2 0x4297 JUMPI PUSH2 0x4297 PUSH2 0x3C33 JUMP JUMPDEST POP MUL SWAP1 JUMP JUMPDEST PUSH1 0x0 DUP2 PUSH2 0x42AB JUMPI PUSH2 0x42AB PUSH2 0x3C33 JUMP JUMPDEST POP PUSH32 0xFFFFFFFFFFFFFFFFFFFFFFFFFFFFFFFFFFFFFFFFFFFFFFFFFFFFFFFFFFFFFFFF ADD SWAP1 JUMP INVALID LOG2 PUSH5 0x6970667358 0x22 SLT KECCAK256 SWAP13 EXTCODECOPY PUSH2 0xC441 0x2B PUSH28 0x2EBDD1365B85C640C9337E0E75244158130E836A1FB10A86CB64736F PUSH13 0x63430008100033000000000000 "},"methodIdentifiers":{"DEFAULT_ADMIN_ROLE()":"a217fddf","allLootboxIds()":"ea61401a","allLootboxLastUpdates()":"7f416510","allLootboxes()":"de0ef5e4","allOpenedLootboxes(address,uint256)":"7f1d0ad2","claimLootbox(uint256,uint256)":"7ffb5c65","claimLootboxes(uint256)":"e1394b90","getRoleAdmin(bytes32)":"248a9ca3","grantRole(bytes32,address)":"2f2ff15d","hasRole(bytes32,address)":"91d14854","isTrustedForwarder(address)":"572b6c05","lootbox(uint256)":"92e11500","lootboxId(uint256)":"e8c683fd","lootboxLastUpdate(uint256)":"0e1d1da7","openLootbox(uint256)":"7ff48190","openedLootbox(address,uint256,uint256)":"94cba64e","paginateLootboxIds(uint256,uint256)":"5ec2d022","paginateLootboxLastUpdates(uint256,uint256)":"01bab168","paginateLootboxes(uint256,uint256)":"60234af9","paginateOpenedLootboxes(address,uint256,uint256,uint256)":"af90a2b7","removeLootbox(uint256)":"07af4117","renounceRole(bytes32,address)":"36568abe","revokeRole(bytes32,address)":"d547741f","setClaimableBlockOffset(uint256)":"021b0647","setLootbox(uint256,address[2],uint256[][2],uint256[][2],uint256[],uint256)":"8404adc1","supportsInterface(bytes4)":"01ffc9a7","totalClaimableLootboxes(address,uint256)":"abb5d942","totalLootboxes()":"826410fc","totalOpenedLootboxes(address,uint256)":"fbf3040d","upgradeTrustedForwarder(address)":"aa2a7eea"}}}}}