{"contracts/common/ERC2771_Trusted_Forwarder.sol":{"ERC2771_Trusted_Forwarder":{"abi":[{"inputs":[],"stateMutability":"nonpayable","type":"constructor"},{"inputs":[{"components":[{"internalType":"address","name":"from","type":"address"},{"internalType":"address","name":"to","type":"address"},{"internalType":"uint256","name":"value","type":"uint256"},{"internalType":"uint256","name":"gas","type":"uint256"},{"internalType":"uint256","name":"nonce","type":"uint256"},{"internalType":"bytes","name":"data","type":"bytes"}],"internalType":"struct ERC2771_Trusted_Forwarder.ForwardRequest","name":"req","type":"tuple"},{"internalType":"bytes","name":"signature","type":"bytes"}],"name":"execute","outputs":[{"internalType":"bool","name":"","type":"bool"},{"internalType":"bytes","name":"","type":"bytes"}],"stateMutability":"payable","type":"function"},{"inputs":[{"internalType":"address","name":"delegate","type":"address"},{"internalType":"bool","name":"approved","type":"bool"}],"name":"setApprovalForAll","outputs":[],"stateMutability":"nonpayable","type":"function"},{"inputs":[{"internalType":"address","name":"delegate","type":"address"},{"internalType":"bool","name":"approved","type":"bool"},{"internalType":"address","name":"signer","type":"address"},{"internalType":"uint256","name":"nonce","type":"uint256"},{"internalType":"bytes","name":"signature","type":"bytes"}],"name":"setApprovalForAllBySignature","outputs":[],"stateMutability":"nonpayable","type":"function"},{"inputs":[{"components":[{"internalType":"address","name":"from","type":"address"},{"internalType":"address","name":"to","type":"address"},{"internalType":"uint256","name":"value","type":"uint256"},{"internalType":"uint256","name":"gas","type":"uint256"},{"internalType":"uint256","name":"nonce","type":"uint256"},{"internalType":"bytes","name":"data","type":"bytes"}],"internalType":"struct ERC2771_Trusted_Forwarder.ForwardRequest","name":"req","type":"tuple"},{"internalType":"bytes","name":"signature","type":"bytes"}],"name":"verify","outputs":[{"internalType":"bool","name":"","type":"bool"}],"stateMutability":"view","type":"function"}],"evm":{"bytecode":{"linkReferences":{},"object":"61014060405234801561001157600080fd5b50604080518082018252601981527f455243323737315f547275737465645f466f72776172646572000000000000006020808301918252835180850190945260058452640312e302e360dc1b908401528151902060e08190527f06c015bd22b4c69690933c1058878ebdfef31f9aaae40bbe86d8a09fe1b2972c6101008190524660a0529192917f8b73c3c69bb8fe3d512ecc4cf759cc79239f7b179b0ffacaa9a75d522b39400f6101088184846040805160208101859052908101839052606081018290524660808201523060a082015260009060c0016040516020818303038152906040528051906020012090509392505050565b6080523060c052610120525061011d92505050565b60805160a05160c05160e051610100516101205161119061016c6000396000610c0401526000610c5301526000610c2e01526000610b8701526000610bb101526000610bdb01526111906000f3fe60806040526004361061003f5760003560e01c80633c7872711461004457806347153f8214610066578063a22cb46514610090578063bf5d3bdb1461010e575b600080fd5b34801561005057600080fd5b5061006461005f366004610e34565b61013e565b005b610079610074366004610eb3565b6103fb565b604051610087929190610f48565b60405180910390f35b34801561009c57600080fd5b506100646100ab366004610fa2565b33600090815260016020908152604080832073ffffffffffffffffffffffffffffffffffffffff9590951683529390529190912080547fffffffffffffffffffffffffffffffffffffffffffffffffffffffffffffff0016911515919091179055565b34801561011a57600080fd5b5061012e610129366004610eb3565b610639565b6040519015158152602001610087565b600061021e83838080601f016020809104026020016040519081016040528093929190818152602001838380828437600092019190915250506040805173ffffffffffffffffffffffffffffffffffffffff8d81166020808401919091528d151583850152908c16606083015260808083018c90528351808403909101815260a0830184528051908201207f19457468657265756d205369676e6564204d6573736167653a0a33320000000060c084015260dc808401919091528351808403909101815260fc909201909252805191012091506102189050565b9061083e565b90508073ffffffffffffffffffffffffffffffffffffffff168573ffffffffffffffffffffffffffffffffffffffff16146102e0576040517f08c379a000000000000000000000000000000000000000000000000000000000815260206004820152603160248201527f5369676e6572207265636f76657265642066726f6d207369676e61747572652060448201527f6d69736d617463686564207369676e657200000000000000000000000000000060648201526084015b60405180910390fd5b73ffffffffffffffffffffffffffffffffffffffff851660009081526020818152604080832087845290915290205460ff1615610379576040517f08c379a000000000000000000000000000000000000000000000000000000000815260206004820152601360248201527f6e6f6e636520686173206265656e20757365640000000000000000000000000060448201526064016102d7565b50505073ffffffffffffffffffffffffffffffffffffffff918216600081815260208181526040808320948352938152838220805460017fffffffffffffffffffffffffffffffffffffffffffffffffffffffffffffff0091821681179092559383528152838220969094168152949092529092208054909216901515179055565b6000606061040a858585610639565b6104bc576040517f08c379a000000000000000000000000000000000000000000000000000000000815260206004820152605860248201527f455243323737315f547275737465645f466f727761726465723a20626164207360448201527f69676e61747572652c206e6f6e636520686173206265656e20757365642c206f60648201527f72206e6f7420617070726f7665642064656c65676174652e0000000000000000608482015260a4016102d7565b60016000806104ce6020890189610fd5565b73ffffffffffffffffffffffffffffffffffffffff1681526020808201929092526040908101600090812060808a01358252835281812080547fffffffffffffffffffffffffffffffffffffffffffffffffffffffffffffff0016941515949094179093558291610543918901908901610fd5565b73ffffffffffffffffffffffffffffffffffffffff166060880135604089013561057060a08b018b610ff7565b61057d60208d018d610fd5565b60405160200161058f9392919061105c565b604080517fffffffffffffffffffffffffffffffffffffffffffffffffffffffffffffffe0818403018152908290526105c791611095565b600060405180830381858888f193505050503d8060008114610605576040519150601f19603f3d011682016040523d82523d6000602084013e61060a565b606091505b50909250905061061f603f60608901356110b1565b5a1161062d5761062d6110ec565b90969095509350505050565b60008061075384848080601f01602080910402602001604051908101604052809392919081815260200183838082843760009201919091525061021892507fdd8f4b70b0f4393e889bd39128a30628a78b61816a9eb8199759e7a349657e4891506106a9905060208a018a610fd5565b6106b960408b0160208c01610fd5565b60408b013560608c013560808d01356106d560a08f018f610ff7565b6040516106e392919061111b565b60408051918290038220602083019890985273ffffffffffffffffffffffffffffffffffffffff96871690820152949093166060850152608084019190915260a083015260c082015260e08101919091526101000160405160208183030381529060405280519060200120610862565b90506000806107656020880188610fd5565b73ffffffffffffffffffffffffffffffffffffffff168152602080820192909252604090810160009081206080890135825290925290205460ff1615801561083557506107b56020860186610fd5565b73ffffffffffffffffffffffffffffffffffffffff168173ffffffffffffffffffffffffffffffffffffffff1614806108355750600160006107fa6020880188610fd5565b73ffffffffffffffffffffffffffffffffffffffff9081168252602080830193909352604091820160009081209185168152925290205460ff165b95945050505050565b600080600061084d85856108d1565b9150915061085a81610916565b509392505050565b60006108cb61086f610b6d565b836040517f19010000000000000000000000000000000000000000000000000000000000006020820152602281018390526042810182905260009060620160405160208183030381529060405280519060200120905092915050565b92915050565b60008082516041036109075760208301516040840151606085015160001a6108fb87828585610ca1565b9450945050505061090f565b506000905060025b9250929050565b600081600481111561092a5761092a61112b565b036109325750565b60018160048111156109465761094661112b565b036109ad576040517f08c379a000000000000000000000000000000000000000000000000000000000815260206004820152601860248201527f45434453413a20696e76616c6964207369676e6174757265000000000000000060448201526064016102d7565b60028160048111156109c1576109c161112b565b03610a28576040517f08c379a000000000000000000000000000000000000000000000000000000000815260206004820152601f60248201527f45434453413a20696e76616c6964207369676e6174757265206c656e6774680060448201526064016102d7565b6003816004811115610a3c57610a3c61112b565b03610ac9576040517f08c379a000000000000000000000000000000000000000000000000000000000815260206004820152602260248201527f45434453413a20696e76616c6964207369676e6174757265202773272076616c60448201527f756500000000000000000000000000000000000000000000000000000000000060648201526084016102d7565b6004816004811115610add57610add61112b565b03610b6a576040517f08c379a000000000000000000000000000000000000000000000000000000000815260206004820152602260248201527f45434453413a20696e76616c6964207369676e6174757265202776272076616c60448201527f756500000000000000000000000000000000000000000000000000000000000060648201526084016102d7565b50565b60003073ffffffffffffffffffffffffffffffffffffffff7f000000000000000000000000000000000000000000000000000000000000000016148015610bd357507f000000000000000000000000000000000000000000000000000000000000000046145b15610bfd57507f000000000000000000000000000000000000000000000000000000000000000090565b50604080517f00000000000000000000000000000000000000000000000000000000000000006020808301919091527f0000000000000000000000000000000000000000000000000000000000000000828401527f000000000000000000000000000000000000000000000000000000000000000060608301524660808301523060a0808401919091528351808403909101815260c0909201909252805191012090565b6000807f7fffffffffffffffffffffffffffffff5d576e7357a4501ddfe92f46681b20a0831115610cd85750600090506003610db0565b8460ff16601b14158015610cf057508460ff16601c14155b15610d015750600090506004610db0565b6040805160008082526020820180845289905260ff881692820192909252606081018690526080810185905260019060a0016020604051602081039080840390855afa158015610d55573d6000803e3d6000fd5b50506040517fffffffffffffffffffffffffffffffffffffffffffffffffffffffffffffffe0015191505073ffffffffffffffffffffffffffffffffffffffff8116610da957600060019250925050610db0565b9150600090505b94509492505050565b803573ffffffffffffffffffffffffffffffffffffffff81168114610ddd57600080fd5b919050565b80358015158114610ddd57600080fd5b60008083601f840112610e0457600080fd5b50813567ffffffffffffffff811115610e1c57600080fd5b60208301915083602082850101111561090f57600080fd5b60008060008060008060a08789031215610e4d57600080fd5b610e5687610db9565b9550610e6460208801610de2565b9450610e7260408801610db9565b935060608701359250608087013567ffffffffffffffff811115610e9557600080fd5b610ea189828a01610df2565b979a9699509497509295939492505050565b600080600060408486031215610ec857600080fd5b833567ffffffffffffffff80821115610ee057600080fd5b9085019060c08288031215610ef457600080fd5b90935060208501359080821115610f0a57600080fd5b50610f1786828701610df2565b9497909650939450505050565b60005b83811015610f3f578181015183820152602001610f27565b50506000910152565b82151581526040602082015260008251806040840152610f6f816060850160208701610f24565b601f017fffffffffffffffffffffffffffffffffffffffffffffffffffffffffffffffe016919091016060019392505050565b60008060408385031215610fb557600080fd5b610fbe83610db9565b9150610fcc60208401610de2565b90509250929050565b600060208284031215610fe757600080fd5b610ff082610db9565b9392505050565b60008083357fffffffffffffffffffffffffffffffffffffffffffffffffffffffffffffffe184360301811261102c57600080fd5b83018035915067ffffffffffffffff82111561104757600080fd5b60200191503681900382131561090f57600080fd5b8284823760609190911b7fffffffffffffffffffffffffffffffffffffffff000000000000000000000000169101908152601401919050565b600082516110a7818460208701610f24565b9190910192915050565b6000826110e7577f4e487b7100000000000000000000000000000000000000000000000000000000600052601260045260246000fd5b500490565b7f4e487b7100000000000000000000000000000000000000000000000000000000600052600160045260246000fd5b8183823760009101908152919050565b7f4e487b7100000000000000000000000000000000000000000000000000000000600052602160045260246000fdfea26469706673582212201438c5ecea9bfa6106eeb6408f104663b303ebddf20e9a6788f9ddfb61494f8d64736f6c63430008100033","opcodes":"PUSH2 0x140 PUSH1 0x40 MSTORE CALLVALUE DUP1 ISZERO PUSH2 0x11 JUMPI PUSH1 0x0 DUP1 REVERT JUMPDEST POP PUSH1 0x40 DUP1 MLOAD DUP1 DUP3 ADD DUP3 MSTORE PUSH1 0x19 DUP2 MSTORE PUSH32 0x455243323737315F547275737465645F466F7277617264657200000000000000 PUSH1 0x20 DUP1 DUP4 ADD SWAP2 DUP3 MSTORE DUP4 MLOAD DUP1 DUP6 ADD SWAP1 SWAP5 MSTORE PUSH1 0x5 DUP5 MSTORE PUSH5 0x312E302E3 PUSH1 0xDC SHL SWAP1 DUP5 ADD MSTORE DUP2 MLOAD SWAP1 KECCAK256 PUSH1 0xE0 DUP2 SWAP1 MSTORE PUSH32 0x6C015BD22B4C69690933C1058878EBDFEF31F9AAAE40BBE86D8A09FE1B2972C PUSH2 0x100 DUP2 SWAP1 MSTORE CHAINID PUSH1 0xA0 MSTORE SWAP2 SWAP3 SWAP2 PUSH32 0x8B73C3C69BB8FE3D512ECC4CF759CC79239F7B179B0FFACAA9A75D522B39400F PUSH2 0x108 DUP2 DUP5 DUP5 PUSH1 0x40 DUP1 MLOAD PUSH1 0x20 DUP2 ADD DUP6 SWAP1 MSTORE SWAP1 DUP2 ADD DUP4 SWAP1 MSTORE PUSH1 0x60 DUP2 ADD DUP3 SWAP1 MSTORE CHAINID PUSH1 0x80 DUP3 ADD MSTORE ADDRESS PUSH1 0xA0 DUP3 ADD MSTORE PUSH1 0x0 SWAP1 PUSH1 0xC0 ADD PUSH1 0x40 MLOAD PUSH1 0x20 DUP2 DUP4 SUB SUB DUP2 MSTORE SWAP1 PUSH1 0x40 MSTORE DUP1 MLOAD SWAP1 PUSH1 0x20 ADD KECCAK256 SWAP1 POP SWAP4 SWAP3 POP POP POP JUMP JUMPDEST PUSH1 0x80 MSTORE ADDRESS PUSH1 0xC0 MSTORE PUSH2 0x120 MSTORE POP PUSH2 0x11D SWAP3 POP POP POP JUMP JUMPDEST PUSH1 0x80 MLOAD PUSH1 0xA0 MLOAD PUSH1 0xC0 MLOAD PUSH1 0xE0 MLOAD PUSH2 0x100 MLOAD PUSH2 0x120 MLOAD PUSH2 0x1190 PUSH2 0x16C PUSH1 0x0 CODECOPY PUSH1 0x0 PUSH2 0xC04 ADD MSTORE PUSH1 0x0 PUSH2 0xC53 ADD MSTORE PUSH1 0x0 PUSH2 0xC2E ADD MSTORE PUSH1 0x0 PUSH2 0xB87 ADD MSTORE PUSH1 0x0 PUSH2 0xBB1 ADD MSTORE PUSH1 0x0 PUSH2 0xBDB ADD MSTORE PUSH2 0x1190 PUSH1 0x0 RETURN INVALID PUSH1 0x80 PUSH1 0x40 MSTORE PUSH1 0x4 CALLDATASIZE LT PUSH2 0x3F JUMPI PUSH1 0x0 CALLDATALOAD PUSH1 0xE0 SHR DUP1 PUSH4 0x3C787271 EQ PUSH2 0x44 JUMPI DUP1 PUSH4 0x47153F82 EQ PUSH2 0x66 JUMPI DUP1 PUSH4 0xA22CB465 EQ PUSH2 0x90 JUMPI DUP1 PUSH4 0xBF5D3BDB EQ PUSH2 0x10E JUMPI JUMPDEST PUSH1 0x0 DUP1 REVERT JUMPDEST CALLVALUE DUP1 ISZERO PUSH2 0x50 JUMPI PUSH1 0x0 DUP1 REVERT JUMPDEST POP PUSH2 0x64 PUSH2 0x5F CALLDATASIZE PUSH1 0x4 PUSH2 0xE34 JUMP JUMPDEST PUSH2 0x13E JUMP JUMPDEST STOP JUMPDEST PUSH2 0x79 PUSH2 0x74 CALLDATASIZE PUSH1 0x4 PUSH2 0xEB3 JUMP JUMPDEST PUSH2 0x3FB JUMP JUMPDEST PUSH1 0x40 MLOAD PUSH2 0x87 SWAP3 SWAP2 SWAP1 PUSH2 0xF48 JUMP JUMPDEST PUSH1 0x40 MLOAD DUP1 SWAP2 SUB SWAP1 RETURN JUMPDEST CALLVALUE DUP1 ISZERO PUSH2 0x9C JUMPI PUSH1 0x0 DUP1 REVERT JUMPDEST POP PUSH2 0x64 PUSH2 0xAB CALLDATASIZE PUSH1 0x4 PUSH2 0xFA2 JUMP JUMPDEST CALLER PUSH1 0x0 SWAP1 DUP2 MSTORE PUSH1 0x1 PUSH1 0x20 SWAP1 DUP2 MSTORE PUSH1 0x40 DUP1 DUP4 KECCAK256 PUSH20 0xFFFFFFFFFFFFFFFFFFFFFFFFFFFFFFFFFFFFFFFF SWAP6 SWAP1 SWAP6 AND DUP4 MSTORE SWAP4 SWAP1 MSTORE SWAP2 SWAP1 SWAP2 KECCAK256 DUP1 SLOAD PUSH32 0xFFFFFFFFFFFFFFFFFFFFFFFFFFFFFFFFFFFFFFFFFFFFFFFFFFFFFFFFFFFFFF00 AND SWAP2 ISZERO ISZERO SWAP2 SWAP1 SWAP2 OR SWAP1 SSTORE JUMP JUMPDEST CALLVALUE DUP1 ISZERO PUSH2 0x11A JUMPI PUSH1 0x0 DUP1 REVERT JUMPDEST POP PUSH2 0x12E PUSH2 0x129 CALLDATASIZE PUSH1 0x4 PUSH2 0xEB3 JUMP JUMPDEST PUSH2 0x639 JUMP JUMPDEST PUSH1 0x40 MLOAD SWAP1 ISZERO ISZERO DUP2 MSTORE PUSH1 0x20 ADD PUSH2 0x87 JUMP JUMPDEST PUSH1 0x0 PUSH2 0x21E DUP4 DUP4 DUP1 DUP1 PUSH1 0x1F ADD PUSH1 0x20 DUP1 SWAP2 DIV MUL PUSH1 0x20 ADD PUSH1 0x40 MLOAD SWAP1 DUP2 ADD PUSH1 0x40 MSTORE DUP1 SWAP4 SWAP3 SWAP2 SWAP1 DUP2 DUP2 MSTORE PUSH1 0x20 ADD DUP4 DUP4 DUP1 DUP3 DUP5 CALLDATACOPY PUSH1 0x0 SWAP3 ADD SWAP2 SWAP1 SWAP2 MSTORE POP POP PUSH1 0x40 DUP1 MLOAD PUSH20 0xFFFFFFFFFFFFFFFFFFFFFFFFFFFFFFFFFFFFFFFF DUP14 DUP2 AND PUSH1 0x20 DUP1 DUP5 ADD SWAP2 SWAP1 SWAP2 MSTORE DUP14 ISZERO ISZERO DUP4 DUP6 ADD MSTORE SWAP1 DUP13 AND PUSH1 0x60 DUP4 ADD MSTORE PUSH1 0x80 DUP1 DUP4 ADD DUP13 SWAP1 MSTORE DUP4 MLOAD DUP1 DUP5 SUB SWAP1 SWAP2 ADD DUP2 MSTORE PUSH1 0xA0 DUP4 ADD DUP5 MSTORE DUP1 MLOAD SWAP1 DUP3 ADD KECCAK256 PUSH32 0x19457468657265756D205369676E6564204D6573736167653A0A333200000000 PUSH1 0xC0 DUP5 ADD MSTORE PUSH1 0xDC DUP1 DUP5 ADD SWAP2 SWAP1 SWAP2 MSTORE DUP4 MLOAD DUP1 DUP5 SUB SWAP1 SWAP2 ADD DUP2 MSTORE PUSH1 0xFC SWAP1 SWAP3 ADD SWAP1 SWAP3 MSTORE DUP1 MLOAD SWAP2 ADD KECCAK256 SWAP2 POP PUSH2 0x218 SWAP1 POP JUMP JUMPDEST SWAP1 PUSH2 0x83E JUMP JUMPDEST SWAP1 POP DUP1 PUSH20 0xFFFFFFFFFFFFFFFFFFFFFFFFFFFFFFFFFFFFFFFF AND DUP6 PUSH20 0xFFFFFFFFFFFFFFFFFFFFFFFFFFFFFFFFFFFFFFFF AND EQ PUSH2 0x2E0 JUMPI PUSH1 0x40 MLOAD PUSH32 0x8C379A000000000000000000000000000000000000000000000000000000000 DUP2 MSTORE PUSH1 0x20 PUSH1 0x4 DUP3 ADD MSTORE PUSH1 0x31 PUSH1 0x24 DUP3 ADD MSTORE PUSH32 0x5369676E6572207265636F76657265642066726F6D207369676E617475726520 PUSH1 0x44 DUP3 ADD MSTORE PUSH32 0x6D69736D617463686564207369676E6572000000000000000000000000000000 PUSH1 0x64 DUP3 ADD MSTORE PUSH1 0x84 ADD JUMPDEST PUSH1 0x40 MLOAD DUP1 SWAP2 SUB SWAP1 REVERT JUMPDEST PUSH20 0xFFFFFFFFFFFFFFFFFFFFFFFFFFFFFFFFFFFFFFFF DUP6 AND PUSH1 0x0 SWAP1 DUP2 MSTORE PUSH1 0x20 DUP2 DUP2 MSTORE PUSH1 0x40 DUP1 DUP4 KECCAK256 DUP8 DUP5 MSTORE SWAP1 SWAP2 MSTORE SWAP1 KECCAK256 SLOAD PUSH1 0xFF AND ISZERO PUSH2 0x379 JUMPI PUSH1 0x40 MLOAD PUSH32 0x8C379A000000000000000000000000000000000000000000000000000000000 DUP2 MSTORE PUSH1 0x20 PUSH1 0x4 DUP3 ADD MSTORE PUSH1 0x13 PUSH1 0x24 DUP3 ADD MSTORE PUSH32 0x6E6F6E636520686173206265656E207573656400000000000000000000000000 PUSH1 0x44 DUP3 ADD MSTORE PUSH1 0x64 ADD PUSH2 0x2D7 JUMP JUMPDEST POP POP POP PUSH20 0xFFFFFFFFFFFFFFFFFFFFFFFFFFFFFFFFFFFFFFFF SWAP2 DUP3 AND PUSH1 0x0 DUP2 DUP2 MSTORE PUSH1 0x20 DUP2 DUP2 MSTORE PUSH1 0x40 DUP1 DUP4 KECCAK256 SWAP5 DUP4 MSTORE SWAP4 DUP2 MSTORE DUP4 DUP3 KECCAK256 DUP1 SLOAD PUSH1 0x1 PUSH32 0xFFFFFFFFFFFFFFFFFFFFFFFFFFFFFFFFFFFFFFFFFFFFFFFFFFFFFFFFFFFFFF00 SWAP2 DUP3 AND DUP2 OR SWAP1 SWAP3 SSTORE SWAP4 DUP4 MSTORE DUP2 MSTORE DUP4 DUP3 KECCAK256 SWAP7 SWAP1 SWAP5 AND DUP2 MSTORE SWAP5 SWAP1 SWAP3 MSTORE SWAP1 SWAP3 KECCAK256 DUP1 SLOAD SWAP1 SWAP3 AND SWAP1 ISZERO ISZERO OR SWAP1 SSTORE JUMP JUMPDEST PUSH1 0x0 PUSH1 0x60 PUSH2 0x40A DUP6 DUP6 DUP6 PUSH2 0x639 JUMP JUMPDEST PUSH2 0x4BC JUMPI PUSH1 0x40 MLOAD PUSH32 0x8C379A000000000000000000000000000000000000000000000000000000000 DUP2 MSTORE PUSH1 0x20 PUSH1 0x4 DUP3 ADD MSTORE PUSH1 0x58 PUSH1 0x24 DUP3 ADD MSTORE PUSH32 0x455243323737315F547275737465645F466F727761726465723A206261642073 PUSH1 0x44 DUP3 ADD MSTORE PUSH32 0x69676E61747572652C206E6F6E636520686173206265656E20757365642C206F PUSH1 0x64 DUP3 ADD MSTORE PUSH32 0x72206E6F7420617070726F7665642064656C65676174652E0000000000000000 PUSH1 0x84 DUP3 ADD MSTORE PUSH1 0xA4 ADD PUSH2 0x2D7 JUMP JUMPDEST PUSH1 0x1 PUSH1 0x0 DUP1 PUSH2 0x4CE PUSH1 0x20 DUP10 ADD DUP10 PUSH2 0xFD5 JUMP JUMPDEST PUSH20 0xFFFFFFFFFFFFFFFFFFFFFFFFFFFFFFFFFFFFFFFF AND DUP2 MSTORE PUSH1 0x20 DUP1 DUP3 ADD SWAP3 SWAP1 SWAP3 MSTORE PUSH1 0x40 SWAP1 DUP2 ADD PUSH1 0x0 SWAP1 DUP2 KECCAK256 PUSH1 0x80 DUP11 ADD CALLDATALOAD DUP3 MSTORE DUP4 MSTORE DUP2 DUP2 KECCAK256 DUP1 SLOAD PUSH32 0xFFFFFFFFFFFFFFFFFFFFFFFFFFFFFFFFFFFFFFFFFFFFFFFFFFFFFFFFFFFFFF00 AND SWAP5 ISZERO ISZERO SWAP5 SWAP1 SWAP5 OR SWAP1 SWAP4 SSTORE DUP3 SWAP2 PUSH2 0x543 SWAP2 DUP10 ADD SWAP1 DUP10 ADD PUSH2 0xFD5 JUMP JUMPDEST PUSH20 0xFFFFFFFFFFFFFFFFFFFFFFFFFFFFFFFFFFFFFFFF AND PUSH1 0x60 DUP9 ADD CALLDATALOAD PUSH1 0x40 DUP10 ADD CALLDATALOAD PUSH2 0x570 PUSH1 0xA0 DUP12 ADD DUP12 PUSH2 0xFF7 JUMP JUMPDEST PUSH2 0x57D PUSH1 0x20 DUP14 ADD DUP14 PUSH2 0xFD5 JUMP JUMPDEST PUSH1 0x40 MLOAD PUSH1 0x20 ADD PUSH2 0x58F SWAP4 SWAP3 SWAP2 SWAP1 PUSH2 0x105C JUMP JUMPDEST PUSH1 0x40 DUP1 MLOAD PUSH32 0xFFFFFFFFFFFFFFFFFFFFFFFFFFFFFFFFFFFFFFFFFFFFFFFFFFFFFFFFFFFFFFE0 DUP2 DUP5 SUB ADD DUP2 MSTORE SWAP1 DUP3 SWAP1 MSTORE PUSH2 0x5C7 SWAP2 PUSH2 0x1095 JUMP JUMPDEST PUSH1 0x0 PUSH1 0x40 MLOAD DUP1 DUP4 SUB DUP2 DUP6 DUP9 DUP9 CALL SWAP4 POP POP POP POP RETURNDATASIZE DUP1 PUSH1 0x0 DUP2 EQ PUSH2 0x605 JUMPI PUSH1 0x40 MLOAD SWAP2 POP PUSH1 0x1F NOT PUSH1 0x3F RETURNDATASIZE ADD AND DUP3 ADD PUSH1 0x40 MSTORE RETURNDATASIZE DUP3 MSTORE RETURNDATASIZE PUSH1 0x0 PUSH1 0x20 DUP5 ADD RETURNDATACOPY PUSH2 0x60A JUMP JUMPDEST PUSH1 0x60 SWAP2 POP JUMPDEST POP SWAP1 SWAP3 POP SWAP1 POP PUSH2 0x61F PUSH1 0x3F PUSH1 0x60 DUP10 ADD CALLDATALOAD PUSH2 0x10B1 JUMP JUMPDEST GAS GT PUSH2 0x62D JUMPI PUSH2 0x62D PUSH2 0x10EC JUMP JUMPDEST SWAP1 SWAP7 SWAP1 SWAP6 POP SWAP4 POP POP POP POP JUMP JUMPDEST PUSH1 0x0 DUP1 PUSH2 0x753 DUP5 DUP5 DUP1 DUP1 PUSH1 0x1F ADD PUSH1 0x20 DUP1 SWAP2 DIV MUL PUSH1 0x20 ADD PUSH1 0x40 MLOAD SWAP1 DUP2 ADD PUSH1 0x40 MSTORE DUP1 SWAP4 SWAP3 SWAP2 SWAP1 DUP2 DUP2 MSTORE PUSH1 0x20 ADD DUP4 DUP4 DUP1 DUP3 DUP5 CALLDATACOPY PUSH1 0x0 SWAP3 ADD SWAP2 SWAP1 SWAP2 MSTORE POP PUSH2 0x218 SWAP3 POP PUSH32 0xDD8F4B70B0F4393E889BD39128A30628A78B61816A9EB8199759E7A349657E48 SWAP2 POP PUSH2 0x6A9 SWAP1 POP PUSH1 0x20 DUP11 ADD DUP11 PUSH2 0xFD5 JUMP JUMPDEST PUSH2 0x6B9 PUSH1 0x40 DUP12 ADD PUSH1 0x20 DUP13 ADD PUSH2 0xFD5 JUMP JUMPDEST PUSH1 0x40 DUP12 ADD CALLDATALOAD PUSH1 0x60 DUP13 ADD CALLDATALOAD PUSH1 0x80 DUP14 ADD CALLDATALOAD PUSH2 0x6D5 PUSH1 0xA0 DUP16 ADD DUP16 PUSH2 0xFF7 JUMP JUMPDEST PUSH1 0x40 MLOAD PUSH2 0x6E3 SWAP3 SWAP2 SWAP1 PUSH2 0x111B JUMP JUMPDEST PUSH1 0x40 DUP1 MLOAD SWAP2 DUP3 SWAP1 SUB DUP3 KECCAK256 PUSH1 0x20 DUP4 ADD SWAP9 SWAP1 SWAP9 MSTORE PUSH20 0xFFFFFFFFFFFFFFFFFFFFFFFFFFFFFFFFFFFFFFFF SWAP7 DUP8 AND SWAP1 DUP3 ADD MSTORE SWAP5 SWAP1 SWAP4 AND PUSH1 0x60 DUP6 ADD MSTORE PUSH1 0x80 DUP5 ADD SWAP2 SWAP1 SWAP2 MSTORE PUSH1 0xA0 DUP4 ADD MSTORE PUSH1 0xC0 DUP3 ADD MSTORE PUSH1 0xE0 DUP2 ADD SWAP2 SWAP1 SWAP2 MSTORE PUSH2 0x100 ADD PUSH1 0x40 MLOAD PUSH1 0x20 DUP2 DUP4 SUB SUB DUP2 MSTORE SWAP1 PUSH1 0x40 MSTORE DUP1 MLOAD SWAP1 PUSH1 0x20 ADD KECCAK256 PUSH2 0x862 JUMP JUMPDEST SWAP1 POP PUSH1 0x0 DUP1 PUSH2 0x765 PUSH1 0x20 DUP9 ADD DUP9 PUSH2 0xFD5 JUMP JUMPDEST PUSH20 0xFFFFFFFFFFFFFFFFFFFFFFFFFFFFFFFFFFFFFFFF AND DUP2 MSTORE PUSH1 0x20 DUP1 DUP3 ADD SWAP3 SWAP1 SWAP3 MSTORE PUSH1 0x40 SWAP1 DUP2 ADD PUSH1 0x0 SWAP1 DUP2 KECCAK256 PUSH1 0x80 DUP10 ADD CALLDATALOAD DUP3 MSTORE SWAP1 SWAP3 MSTORE SWAP1 KECCAK256 SLOAD PUSH1 0xFF AND ISZERO DUP1 ISZERO PUSH2 0x835 JUMPI POP PUSH2 0x7B5 PUSH1 0x20 DUP7 ADD DUP7 PUSH2 0xFD5 JUMP JUMPDEST PUSH20 0xFFFFFFFFFFFFFFFFFFFFFFFFFFFFFFFFFFFFFFFF AND DUP2 PUSH20 0xFFFFFFFFFFFFFFFFFFFFFFFFFFFFFFFFFFFFFFFF AND EQ DUP1 PUSH2 0x835 JUMPI POP PUSH1 0x1 PUSH1 0x0 PUSH2 0x7FA PUSH1 0x20 DUP9 ADD DUP9 PUSH2 0xFD5 JUMP JUMPDEST PUSH20 0xFFFFFFFFFFFFFFFFFFFFFFFFFFFFFFFFFFFFFFFF SWAP1 DUP2 AND DUP3 MSTORE PUSH1 0x20 DUP1 DUP4 ADD SWAP4 SWAP1 SWAP4 MSTORE PUSH1 0x40 SWAP2 DUP3 ADD PUSH1 0x0 SWAP1 DUP2 KECCAK256 SWAP2 DUP6 AND DUP2 MSTORE SWAP3 MSTORE SWAP1 KECCAK256 SLOAD PUSH1 0xFF AND JUMPDEST SWAP6 SWAP5 POP POP POP POP POP JUMP JUMPDEST PUSH1 0x0 DUP1 PUSH1 0x0 PUSH2 0x84D DUP6 DUP6 PUSH2 0x8D1 JUMP JUMPDEST SWAP2 POP SWAP2 POP PUSH2 0x85A DUP2 PUSH2 0x916 JUMP JUMPDEST POP SWAP4 SWAP3 POP POP POP JUMP JUMPDEST PUSH1 0x0 PUSH2 0x8CB PUSH2 0x86F PUSH2 0xB6D JUMP JUMPDEST DUP4 PUSH1 0x40 MLOAD PUSH32 0x1901000000000000000000000000000000000000000000000000000000000000 PUSH1 0x20 DUP3 ADD MSTORE PUSH1 0x22 DUP2 ADD DUP4 SWAP1 MSTORE PUSH1 0x42 DUP2 ADD DUP3 SWAP1 MSTORE PUSH1 0x0 SWAP1 PUSH1 0x62 ADD PUSH1 0x40 MLOAD PUSH1 0x20 DUP2 DUP4 SUB SUB DUP2 MSTORE SWAP1 PUSH1 0x40 MSTORE DUP1 MLOAD SWAP1 PUSH1 0x20 ADD KECCAK256 SWAP1 POP SWAP3 SWAP2 POP POP JUMP JUMPDEST SWAP3 SWAP2 POP POP JUMP JUMPDEST PUSH1 0x0 DUP1 DUP3 MLOAD PUSH1 0x41 SUB PUSH2 0x907 JUMPI PUSH1 0x20 DUP4 ADD MLOAD PUSH1 0x40 DUP5 ADD MLOAD PUSH1 0x60 DUP6 ADD MLOAD PUSH1 0x0 BYTE PUSH2 0x8FB DUP8 DUP3 DUP6 DUP6 PUSH2 0xCA1 JUMP JUMPDEST SWAP5 POP SWAP5 POP POP POP POP PUSH2 0x90F JUMP JUMPDEST POP PUSH1 0x0 SWAP1 POP PUSH1 0x2 JUMPDEST SWAP3 POP SWAP3 SWAP1 POP JUMP JUMPDEST PUSH1 0x0 DUP2 PUSH1 0x4 DUP2 GT ISZERO PUSH2 0x92A JUMPI PUSH2 0x92A PUSH2 0x112B JUMP JUMPDEST SUB PUSH2 0x932 JUMPI POP JUMP JUMPDEST PUSH1 0x1 DUP2 PUSH1 0x4 DUP2 GT ISZERO PUSH2 0x946 JUMPI PUSH2 0x946 PUSH2 0x112B JUMP JUMPDEST SUB PUSH2 0x9AD JUMPI PUSH1 0x40 MLOAD PUSH32 0x8C379A000000000000000000000000000000000000000000000000000000000 DUP2 MSTORE PUSH1 0x20 PUSH1 0x4 DUP3 ADD MSTORE PUSH1 0x18 PUSH1 0x24 DUP3 ADD MSTORE PUSH32 0x45434453413A20696E76616C6964207369676E61747572650000000000000000 PUSH1 0x44 DUP3 ADD MSTORE PUSH1 0x64 ADD PUSH2 0x2D7 JUMP JUMPDEST PUSH1 0x2 DUP2 PUSH1 0x4 DUP2 GT ISZERO PUSH2 0x9C1 JUMPI PUSH2 0x9C1 PUSH2 0x112B JUMP JUMPDEST SUB PUSH2 0xA28 JUMPI PUSH1 0x40 MLOAD PUSH32 0x8C379A000000000000000000000000000000000000000000000000000000000 DUP2 MSTORE PUSH1 0x20 PUSH1 0x4 DUP3 ADD MSTORE PUSH1 0x1F PUSH1 0x24 DUP3 ADD MSTORE PUSH32 0x45434453413A20696E76616C6964207369676E6174757265206C656E67746800 PUSH1 0x44 DUP3 ADD MSTORE PUSH1 0x64 ADD PUSH2 0x2D7 JUMP JUMPDEST PUSH1 0x3 DUP2 PUSH1 0x4 DUP2 GT ISZERO PUSH2 0xA3C JUMPI PUSH2 0xA3C PUSH2 0x112B JUMP JUMPDEST SUB PUSH2 0xAC9 JUMPI PUSH1 0x40 MLOAD PUSH32 0x8C379A000000000000000000000000000000000000000000000000000000000 DUP2 MSTORE PUSH1 0x20 PUSH1 0x4 DUP3 ADD MSTORE PUSH1 0x22 PUSH1 0x24 DUP3 ADD MSTORE PUSH32 0x45434453413A20696E76616C6964207369676E6174757265202773272076616C PUSH1 0x44 DUP3 ADD MSTORE PUSH32 0x7565000000000000000000000000000000000000000000000000000000000000 PUSH1 0x64 DUP3 ADD MSTORE PUSH1 0x84 ADD PUSH2 0x2D7 JUMP JUMPDEST PUSH1 0x4 DUP2 PUSH1 0x4 DUP2 GT ISZERO PUSH2 0xADD JUMPI PUSH2 0xADD PUSH2 0x112B JUMP JUMPDEST SUB PUSH2 0xB6A JUMPI PUSH1 0x40 MLOAD PUSH32 0x8C379A000000000000000000000000000000000000000000000000000000000 DUP2 MSTORE PUSH1 0x20 PUSH1 0x4 DUP3 ADD MSTORE PUSH1 0x22 PUSH1 0x24 DUP3 ADD MSTORE PUSH32 0x45434453413A20696E76616C6964207369676E6174757265202776272076616C PUSH1 0x44 DUP3 ADD MSTORE PUSH32 0x7565000000000000000000000000000000000000000000000000000000000000 PUSH1 0x64 DUP3 ADD MSTORE PUSH1 0x84 ADD PUSH2 0x2D7 JUMP JUMPDEST POP JUMP JUMPDEST PUSH1 0x0 ADDRESS PUSH20 0xFFFFFFFFFFFFFFFFFFFFFFFFFFFFFFFFFFFFFFFF PUSH32 0x0 AND EQ DUP1 ISZERO PUSH2 0xBD3 JUMPI POP PUSH32 0x0 CHAINID EQ JUMPDEST ISZERO PUSH2 0xBFD JUMPI POP PUSH32 0x0 SWAP1 JUMP JUMPDEST POP PUSH1 0x40 DUP1 MLOAD PUSH32 0x0 PUSH1 0x20 DUP1 DUP4 ADD SWAP2 SWAP1 SWAP2 MSTORE PUSH32 0x0 DUP3 DUP5 ADD MSTORE PUSH32 0x0 PUSH1 0x60 DUP4 ADD MSTORE CHAINID PUSH1 0x80 DUP4 ADD MSTORE ADDRESS PUSH1 0xA0 DUP1 DUP5 ADD SWAP2 SWAP1 SWAP2 MSTORE DUP4 MLOAD DUP1 DUP5 SUB SWAP1 SWAP2 ADD DUP2 MSTORE PUSH1 0xC0 SWAP1 SWAP3 ADD SWAP1 SWAP3 MSTORE DUP1 MLOAD SWAP2 ADD KECCAK256 SWAP1 JUMP JUMPDEST PUSH1 0x0 DUP1 PUSH32 0x7FFFFFFFFFFFFFFFFFFFFFFFFFFFFFFF5D576E7357A4501DDFE92F46681B20A0 DUP4 GT ISZERO PUSH2 0xCD8 JUMPI POP PUSH1 0x0 SWAP1 POP PUSH1 0x3 PUSH2 0xDB0 JUMP JUMPDEST DUP5 PUSH1 0xFF AND PUSH1 0x1B EQ ISZERO DUP1 ISZERO PUSH2 0xCF0 JUMPI POP DUP5 PUSH1 0xFF AND PUSH1 0x1C EQ ISZERO JUMPDEST ISZERO PUSH2 0xD01 JUMPI POP PUSH1 0x0 SWAP1 POP PUSH1 0x4 PUSH2 0xDB0 JUMP JUMPDEST PUSH1 0x40 DUP1 MLOAD PUSH1 0x0 DUP1 DUP3 MSTORE PUSH1 0x20 DUP3 ADD DUP1 DUP5 MSTORE DUP10 SWAP1 MSTORE PUSH1 0xFF DUP9 AND SWAP3 DUP3 ADD SWAP3 SWAP1 SWAP3 MSTORE PUSH1 0x60 DUP2 ADD DUP7 SWAP1 MSTORE PUSH1 0x80 DUP2 ADD DUP6 SWAP1 MSTORE PUSH1 0x1 SWAP1 PUSH1 0xA0 ADD PUSH1 0x20 PUSH1 0x40 MLOAD PUSH1 0x20 DUP2 SUB SWAP1 DUP1 DUP5 SUB SWAP1 DUP6 GAS STATICCALL ISZERO DUP1 ISZERO PUSH2 0xD55 JUMPI RETURNDATASIZE PUSH1 0x0 DUP1 RETURNDATACOPY RETURNDATASIZE PUSH1 0x0 REVERT JUMPDEST POP POP PUSH1 0x40 MLOAD PUSH32 0xFFFFFFFFFFFFFFFFFFFFFFFFFFFFFFFFFFFFFFFFFFFFFFFFFFFFFFFFFFFFFFE0 ADD MLOAD SWAP2 POP POP PUSH20 0xFFFFFFFFFFFFFFFFFFFFFFFFFFFFFFFFFFFFFFFF DUP2 AND PUSH2 0xDA9 JUMPI PUSH1 0x0 PUSH1 0x1 SWAP3 POP SWAP3 POP POP PUSH2 0xDB0 JUMP JUMPDEST SWAP2 POP PUSH1 0x0 SWAP1 POP JUMPDEST SWAP5 POP SWAP5 SWAP3 POP POP POP JUMP JUMPDEST DUP1 CALLDATALOAD PUSH20 0xFFFFFFFFFFFFFFFFFFFFFFFFFFFFFFFFFFFFFFFF DUP2 AND DUP2 EQ PUSH2 0xDDD JUMPI PUSH1 0x0 DUP1 REVERT JUMPDEST SWAP2 SWAP1 POP JUMP JUMPDEST DUP1 CALLDATALOAD DUP1 ISZERO ISZERO DUP2 EQ PUSH2 0xDDD JUMPI PUSH1 0x0 DUP1 REVERT JUMPDEST PUSH1 0x0 DUP1 DUP4 PUSH1 0x1F DUP5 ADD SLT PUSH2 0xE04 JUMPI PUSH1 0x0 DUP1 REVERT JUMPDEST POP DUP2 CALLDATALOAD PUSH8 0xFFFFFFFFFFFFFFFF DUP2 GT ISZERO PUSH2 0xE1C JUMPI PUSH1 0x0 DUP1 REVERT JUMPDEST PUSH1 0x20 DUP4 ADD SWAP2 POP DUP4 PUSH1 0x20 DUP3 DUP6 ADD ADD GT ISZERO PUSH2 0x90F JUMPI PUSH1 0x0 DUP1 REVERT JUMPDEST PUSH1 0x0 DUP1 PUSH1 0x0 DUP1 PUSH1 0x0 DUP1 PUSH1 0xA0 DUP8 DUP10 SUB SLT ISZERO PUSH2 0xE4D JUMPI PUSH1 0x0 DUP1 REVERT JUMPDEST PUSH2 0xE56 DUP8 PUSH2 0xDB9 JUMP JUMPDEST SWAP6 POP PUSH2 0xE64 PUSH1 0x20 DUP9 ADD PUSH2 0xDE2 JUMP JUMPDEST SWAP5 POP PUSH2 0xE72 PUSH1 0x40 DUP9 ADD PUSH2 0xDB9 JUMP JUMPDEST SWAP4 POP PUSH1 0x60 DUP8 ADD CALLDATALOAD SWAP3 POP PUSH1 0x80 DUP8 ADD CALLDATALOAD PUSH8 0xFFFFFFFFFFFFFFFF DUP2 GT ISZERO PUSH2 0xE95 JUMPI PUSH1 0x0 DUP1 REVERT JUMPDEST PUSH2 0xEA1 DUP10 DUP3 DUP11 ADD PUSH2 0xDF2 JUMP JUMPDEST SWAP8 SWAP11 SWAP7 SWAP10 POP SWAP5 SWAP8 POP SWAP3 SWAP6 SWAP4 SWAP5 SWAP3 POP POP POP JUMP JUMPDEST PUSH1 0x0 DUP1 PUSH1 0x0 PUSH1 0x40 DUP5 DUP7 SUB SLT ISZERO PUSH2 0xEC8 JUMPI PUSH1 0x0 DUP1 REVERT JUMPDEST DUP4 CALLDATALOAD PUSH8 0xFFFFFFFFFFFFFFFF DUP1 DUP3 GT ISZERO PUSH2 0xEE0 JUMPI PUSH1 0x0 DUP1 REVERT JUMPDEST SWAP1 DUP6 ADD SWAP1 PUSH1 0xC0 DUP3 DUP9 SUB SLT ISZERO PUSH2 0xEF4 JUMPI PUSH1 0x0 DUP1 REVERT JUMPDEST SWAP1 SWAP4 POP PUSH1 0x20 DUP6 ADD CALLDATALOAD SWAP1 DUP1 DUP3 GT ISZERO PUSH2 0xF0A JUMPI PUSH1 0x0 DUP1 REVERT JUMPDEST POP PUSH2 0xF17 DUP7 DUP3 DUP8 ADD PUSH2 0xDF2 JUMP JUMPDEST SWAP5 SWAP8 SWAP1 SWAP7 POP SWAP4 SWAP5 POP POP POP POP JUMP JUMPDEST PUSH1 0x0 JUMPDEST DUP4 DUP2 LT ISZERO PUSH2 0xF3F JUMPI DUP2 DUP2 ADD MLOAD DUP4 DUP3 ADD MSTORE PUSH1 0x20 ADD PUSH2 0xF27 JUMP JUMPDEST POP POP PUSH1 0x0 SWAP2 ADD MSTORE JUMP JUMPDEST DUP3 ISZERO ISZERO DUP2 MSTORE PUSH1 0x40 PUSH1 0x20 DUP3 ADD MSTORE PUSH1 0x0 DUP3 MLOAD DUP1 PUSH1 0x40 DUP5 ADD MSTORE PUSH2 0xF6F DUP2 PUSH1 0x60 DUP6 ADD PUSH1 0x20 DUP8 ADD PUSH2 0xF24 JUMP JUMPDEST PUSH1 0x1F ADD PUSH32 0xFFFFFFFFFFFFFFFFFFFFFFFFFFFFFFFFFFFFFFFFFFFFFFFFFFFFFFFFFFFFFFE0 AND SWAP2 SWAP1 SWAP2 ADD PUSH1 0x60 ADD SWAP4 SWAP3 POP POP POP JUMP JUMPDEST PUSH1 0x0 DUP1 PUSH1 0x40 DUP4 DUP6 SUB SLT ISZERO PUSH2 0xFB5 JUMPI PUSH1 0x0 DUP1 REVERT JUMPDEST PUSH2 0xFBE DUP4 PUSH2 0xDB9 JUMP JUMPDEST SWAP2 POP PUSH2 0xFCC PUSH1 0x20 DUP5 ADD PUSH2 0xDE2 JUMP JUMPDEST SWAP1 POP SWAP3 POP SWAP3 SWAP1 POP JUMP JUMPDEST PUSH1 0x0 PUSH1 0x20 DUP3 DUP5 SUB SLT ISZERO PUSH2 0xFE7 JUMPI PUSH1 0x0 DUP1 REVERT JUMPDEST PUSH2 0xFF0 DUP3 PUSH2 0xDB9 JUMP JUMPDEST SWAP4 SWAP3 POP POP POP JUMP JUMPDEST PUSH1 0x0 DUP1 DUP4 CALLDATALOAD PUSH32 0xFFFFFFFFFFFFFFFFFFFFFFFFFFFFFFFFFFFFFFFFFFFFFFFFFFFFFFFFFFFFFFE1 DUP5 CALLDATASIZE SUB ADD DUP2 SLT PUSH2 0x102C JUMPI PUSH1 0x0 DUP1 REVERT JUMPDEST DUP4 ADD DUP1 CALLDATALOAD SWAP2 POP PUSH8 0xFFFFFFFFFFFFFFFF DUP3 GT ISZERO PUSH2 0x1047 JUMPI PUSH1 0x0 DUP1 REVERT JUMPDEST PUSH1 0x20 ADD SWAP2 POP CALLDATASIZE DUP2 SWAP1 SUB DUP3 SGT ISZERO PUSH2 0x90F JUMPI PUSH1 0x0 DUP1 REVERT JUMPDEST DUP3 DUP5 DUP3 CALLDATACOPY PUSH1 0x60 SWAP2 SWAP1 SWAP2 SHL PUSH32 0xFFFFFFFFFFFFFFFFFFFFFFFFFFFFFFFFFFFFFFFF000000000000000000000000 AND SWAP2 ADD SWAP1 DUP2 MSTORE PUSH1 0x14 ADD SWAP2 SWAP1 POP JUMP JUMPDEST PUSH1 0x0 DUP3 MLOAD PUSH2 0x10A7 DUP2 DUP5 PUSH1 0x20 DUP8 ADD PUSH2 0xF24 JUMP JUMPDEST SWAP2 SWAP1 SWAP2 ADD SWAP3 SWAP2 POP POP JUMP JUMPDEST PUSH1 0x0 DUP3 PUSH2 0x10E7 JUMPI PUSH32 0x4E487B7100000000000000000000000000000000000000000000000000000000 PUSH1 0x0 MSTORE PUSH1 0x12 PUSH1 0x4 MSTORE PUSH1 0x24 PUSH1 0x0 REVERT JUMPDEST POP DIV SWAP1 JUMP JUMPDEST PUSH32 0x4E487B7100000000000000000000000000000000000000000000000000000000 PUSH1 0x0 MSTORE PUSH1 0x1 PUSH1 0x4 MSTORE PUSH1 0x24 PUSH1 0x0 REVERT JUMPDEST DUP2 DUP4 DUP3 CALLDATACOPY PUSH1 0x0 SWAP2 ADD SWAP1 DUP2 MSTORE SWAP2 SWAP1 POP JUMP JUMPDEST PUSH32 0x4E487B7100000000000000000000000000000000000000000000000000000000 PUSH1 0x0 MSTORE PUSH1 0x21 PUSH1 0x4 MSTORE PUSH1 0x24 PUSH1 0x0 REVERT INVALID LOG2 PUSH5 0x6970667358 0x22 SLT KECCAK256 EQ CODESIZE 0xC5 0xEC 0xEA SWAP12 STATICCALL PUSH2 0x6EE 0xB6 BLOCKHASH DUP16 LT CHAINID PUSH4 0xB303EBDD CALLCODE 0xE SWAP11 PUSH8 0x88F9DDFB61494F8D PUSH5 0x736F6C6343 STOP ADDMOD LT STOP CALLER "},"methodIdentifiers":{"execute((address,address,uint256,uint256,uint256,bytes),bytes)":"47153f82","setApprovalForAll(address,bool)":"a22cb465","setApprovalForAllBySignature(address,bool,address,uint256,bytes)":"3c787271","verify((address,address,uint256,uint256,uint256,bytes),bytes)":"bf5d3bdb"}}}}}