{"contracts/Lootbox/Game_Lootbox.sol":{"Game_Lootbox":{"abi":[{"inputs":[{"internalType":"address","name":"_forwarder","type":"address"}],"stateMutability":"nonpayable","type":"constructor"},{"anonymous":false,"inputs":[{"indexed":true,"internalType":"uint256","name":"lootboxId","type":"uint256"},{"components":[{"internalType":"uint256","name":"id","type":"uint256"},{"internalType":"contract IERC1155","name":"inputCollection","type":"address"},{"internalType":"uint256[]","name":"inputCollectionItemIds","type":"uint256[]"},{"internalType":"uint256[]","name":"inputCollectionItemAmounts","type":"uint256[]"},{"internalType":"contract IERC1155","name":"outputCollection","type":"address"},{"internalType":"uint256[]","name":"outputCollectionItemIds","type":"uint256[]"},{"internalType":"uint256[]","name":"outputCollectionItemAmounts","type":"uint256[]"},{"internalType":"uint256[]","name":"outputCollectionItemWeights","type":"uint256[]"},{"internalType":"uint256","name":"outputTotalItemsWeight","type":"uint256"},{"internalType":"uint256","name":"outputTotalItems","type":"uint256"},{"internalType":"uint256","name":"opens","type":"uint256"},{"internalType":"uint256","name":"lastUpdatedAt","type":"uint256"}],"indexed":false,"internalType":"struct IGame_Lootbox.Lootbox","name":"lootbox","type":"tuple"},{"indexed":false,"internalType":"address","name":"user","type":"address"},{"indexed":false,"internalType":"uint256","name":"openedLootboxIndex","type":"uint256"},{"indexed":false,"internalType":"uint256[]","name":"outputCollectionItemIds","type":"uint256[]"},{"indexed":false,"internalType":"uint256[]","name":"outputCollectionItemAmounts","type":"uint256[]"}],"name":"LootboxClaimed","type":"event"},{"anonymous":false,"inputs":[{"indexed":true,"internalType":"uint256","name":"lootboxId","type":"uint256"},{"components":[{"internalType":"uint256","name":"id","type":"uint256"},{"internalType":"contract IERC1155","name":"inputCollection","type":"address"},{"internalType":"uint256[]","name":"inputCollectionItemIds","type":"uint256[]"},{"internalType":"uint256[]","name":"inputCollectionItemAmounts","type":"uint256[]"},{"internalType":"contract IERC1155","name":"outputCollection","type":"address"},{"internalType":"uint256[]","name":"outputCollectionItemIds","type":"uint256[]"},{"internalType":"uint256[]","name":"outputCollectionItemAmounts","type":"uint256[]"},{"internalType":"uint256[]","name":"outputCollectionItemWeights","type":"uint256[]"},{"internalType":"uint256","name":"outputTotalItemsWeight","type":"uint256"},{"internalType":"uint256","name":"outputTotalItems","type":"uint256"},{"internalType":"uint256","name":"opens","type":"uint256"},{"internalType":"uint256","name":"lastUpdatedAt","type":"uint256"}],"indexed":false,"internalType":"struct IGame_Lootbox.Lootbox","name":"lootbox","type":"tuple"},{"indexed":false,"internalType":"address","name":"user","type":"address"}],"name":"LootboxOpened","type":"event"},{"anonymous":false,"inputs":[{"indexed":true,"internalType":"uint256","name":"lootboxId","type":"uint256"},{"components":[{"internalType":"uint256","name":"id","type":"uint256"},{"internalType":"contract IERC1155","name":"inputCollection","type":"address"},{"internalType":"uint256[]","name":"inputCollectionItemIds","type":"uint256[]"},{"internalType":"uint256[]","name":"inputCollectionItemAmounts","type":"uint256[]"},{"internalType":"contract IERC1155","name":"outputCollection","type":"address"},{"internalType":"uint256[]","name":"outputCollectionItemIds","type":"uint256[]"},{"internalType":"uint256[]","name":"outputCollectionItemAmounts","type":"uint256[]"},{"internalType":"uint256[]","name":"outputCollectionItemWeights","type":"uint256[]"},{"internalType":"uint256","name":"outputTotalItemsWeight","type":"uint256"},{"internalType":"uint256","name":"outputTotalItems","type":"uint256"},{"internalType":"uint256","name":"opens","type":"uint256"},{"internalType":"uint256","name":"lastUpdatedAt","type":"uint256"}],"indexed":false,"internalType":"struct IGame_Lootbox.Lootbox","name":"lootbox","type":"tuple"}],"name":"LootboxRemoved","type":"event"},{"anonymous":false,"inputs":[{"indexed":true,"internalType":"uint256","name":"lootboxId","type":"uint256"},{"components":[{"internalType":"uint256","name":"id","type":"uint256"},{"internalType":"contract IERC1155","name":"inputCollection","type":"address"},{"internalType":"uint256[]","name":"inputCollectionItemIds","type":"uint256[]"},{"internalType":"uint256[]","name":"inputCollectionItemAmounts","type":"uint256[]"},{"internalType":"contract IERC1155","name":"outputCollection","type":"address"},{"internalType":"uint256[]","name":"outputCollectionItemIds","type":"uint256[]"},{"internalType":"uint256[]","name":"outputCollectionItemAmounts","type":"uint256[]"},{"internalType":"uint256[]","name":"outputCollectionItemWeights","type":"uint256[]"},{"internalType":"uint256","name":"outputTotalItemsWeight","type":"uint256"},{"internalType":"uint256","name":"outputTotalItems","type":"uint256"},{"internalType":"uint256","name":"opens","type":"uint256"},{"internalType":"uint256","name":"lastUpdatedAt","type":"uint256"}],"indexed":false,"internalType":"struct IGame_Lootbox.Lootbox","name":"lootbox","type":"tuple"}],"name":"LootboxSet","type":"event"},{"anonymous":false,"inputs":[{"indexed":true,"internalType":"bytes32","name":"role","type":"bytes32"},{"indexed":true,"internalType":"bytes32","name":"previousAdminRole","type":"bytes32"},{"indexed":true,"internalType":"bytes32","name":"newAdminRole","type":"bytes32"}],"name":"RoleAdminChanged","type":"event"},{"anonymous":false,"inputs":[{"indexed":true,"internalType":"bytes32","name":"role","type":"bytes32"},{"indexed":true,"internalType":"address","name":"account","type":"address"},{"indexed":true,"internalType":"address","name":"sender","type":"address"}],"name":"RoleGranted","type":"event"},{"anonymous":false,"inputs":[{"indexed":true,"internalType":"bytes32","name":"role","type":"bytes32"},{"indexed":true,"internalType":"address","name":"account","type":"address"},{"indexed":true,"internalType":"address","name":"sender","type":"address"}],"name":"RoleRevoked","type":"event"},{"inputs":[],"name":"DEFAULT_ADMIN_ROLE","outputs":[{"internalType":"bytes32","name":"","type":"bytes32"}],"stateMutability":"view","type":"function"},{"inputs":[],"name":"allLootboxIds","outputs":[{"internalType":"uint256[]","name":"","type":"uint256[]"}],"stateMutability":"view","type":"function"},{"inputs":[],"name":"allLootboxLastUpdates","outputs":[{"internalType":"uint256[][]","name":"","type":"uint256[][]"}],"stateMutability":"view","type":"function"},{"inputs":[],"name":"allLootboxes","outputs":[{"components":[{"internalType":"uint256","name":"id","type":"uint256"},{"internalType":"contract IERC1155","name":"inputCollection","type":"address"},{"internalType":"uint256[]","name":"inputCollectionItemIds","type":"uint256[]"},{"internalType":"uint256[]","name":"inputCollectionItemAmounts","type":"uint256[]"},{"internalType":"contract IERC1155","name":"outputCollection","type":"address"},{"internalType":"uint256[]","name":"outputCollectionItemIds","type":"uint256[]"},{"internalType":"uint256[]","name":"outputCollectionItemAmounts","type":"uint256[]"},{"internalType":"uint256[]","name":"outputCollectionItemWeights","type":"uint256[]"},{"internalType":"uint256","name":"outputTotalItemsWeight","type":"uint256"},{"internalType":"uint256","name":"outputTotalItems","type":"uint256"},{"internalType":"uint256","name":"opens","type":"uint256"},{"internalType":"uint256","name":"lastUpdatedAt","type":"uint256"}],"internalType":"struct IGame_Lootbox.Lootbox[]","name":"","type":"tuple[]"}],"stateMutability":"view","type":"function"},{"inputs":[{"internalType":"address","name":"_address","type":"address"},{"internalType":"uint256","name":"_lootboxId","type":"uint256"}],"name":"allOpenedLootboxes","outputs":[{"components":[{"internalType":"uint256","name":"lootboxId","type":"uint256"},{"internalType":"uint256","name":"claimSeedBlock","type":"uint256"},{"internalType":"uint256[]","name":"outputCollectionItemIds","type":"uint256[]"},{"internalType":"uint256[]","name":"outputCollectionItemAmounts","type":"uint256[]"},{"internalType":"bool","name":"claimed","type":"bool"}],"internalType":"struct IGame_Lootbox.OpenedLootbox[]","name":"","type":"tuple[]"}],"stateMutability":"view","type":"function"},{"inputs":[{"internalType":"uint256","name":"_lootboxId","type":"uint256"},{"internalType":"uint256","name":"_openedLootboxIndex","type":"uint256"}],"name":"claimLootbox","outputs":[],"stateMutability":"nonpayable","type":"function"},{"inputs":[{"internalType":"uint256","name":"_lootboxId","type":"uint256"}],"name":"claimLootboxes","outputs":[],"stateMutability":"nonpayable","type":"function"},{"inputs":[{"internalType":"bytes32","name":"role","type":"bytes32"}],"name":"getRoleAdmin","outputs":[{"internalType":"bytes32","name":"","type":"bytes32"}],"stateMutability":"view","type":"function"},{"inputs":[{"internalType":"bytes32","name":"role","type":"bytes32"},{"internalType":"address","name":"account","type":"address"}],"name":"grantRole","outputs":[],"stateMutability":"nonpayable","type":"function"},{"inputs":[{"internalType":"bytes32","name":"role","type":"bytes32"},{"internalType":"address","name":"account","type":"address"}],"name":"hasRole","outputs":[{"internalType":"bool","name":"","type":"bool"}],"stateMutability":"view","type":"function"},{"inputs":[{"internalType":"address","name":"forwarder","type":"address"}],"name":"isTrustedForwarder","outputs":[{"internalType":"bool","name":"","type":"bool"}],"stateMutability":"view","type":"function"},{"inputs":[{"internalType":"uint256","name":"_lootboxId","type":"uint256"}],"name":"lootbox","outputs":[{"components":[{"internalType":"uint256","name":"id","type":"uint256"},{"internalType":"contract IERC1155","name":"inputCollection","type":"address"},{"internalType":"uint256[]","name":"inputCollectionItemIds","type":"uint256[]"},{"internalType":"uint256[]","name":"inputCollectionItemAmounts","type":"uint256[]"},{"internalType":"contract IERC1155","name":"outputCollection","type":"address"},{"internalType":"uint256[]","name":"outputCollectionItemIds","type":"uint256[]"},{"internalType":"uint256[]","name":"outputCollectionItemAmounts","type":"uint256[]"},{"internalType":"uint256[]","name":"outputCollectionItemWeights","type":"uint256[]"},{"internalType":"uint256","name":"outputTotalItemsWeight","type":"uint256"},{"internalType":"uint256","name":"outputTotalItems","type":"uint256"},{"internalType":"uint256","name":"opens","type":"uint256"},{"internalType":"uint256","name":"lastUpdatedAt","type":"uint256"}],"internalType":"struct IGame_Lootbox.Lootbox","name":"","type":"tuple"}],"stateMutability":"view","type":"function"},{"inputs":[{"internalType":"uint256","name":"_index","type":"uint256"}],"name":"lootboxId","outputs":[{"internalType":"uint256","name":"","type":"uint256"}],"stateMutability":"view","type":"function"},{"inputs":[{"internalType":"uint256","name":"_lootboxId","type":"uint256"}],"name":"lootboxLastUpdate","outputs":[{"internalType":"uint256[]","name":"","type":"uint256[]"}],"stateMutability":"view","type":"function"},{"inputs":[{"internalType":"address","name":"","type":"address"},{"internalType":"address","name":"","type":"address"},{"internalType":"uint256[]","name":"","type":"uint256[]"},{"internalType":"uint256[]","name":"","type":"uint256[]"},{"internalType":"bytes","name":"","type":"bytes"}],"name":"onERC1155BatchReceived","outputs":[{"internalType":"bytes4","name":"","type":"bytes4"}],"stateMutability":"nonpayable","type":"function"},{"inputs":[{"internalType":"address","name":"","type":"address"},{"internalType":"address","name":"","type":"address"},{"internalType":"uint256","name":"","type":"uint256"},{"internalType":"uint256","name":"","type":"uint256"},{"internalType":"bytes","name":"","type":"bytes"}],"name":"onERC1155Received","outputs":[{"internalType":"bytes4","name":"","type":"bytes4"}],"stateMutability":"nonpayable","type":"function"},{"inputs":[{"internalType":"uint256","name":"_lootboxId","type":"uint256"}],"name":"openLootbox","outputs":[],"stateMutability":"nonpayable","type":"function"},{"inputs":[{"internalType":"address","name":"_address","type":"address"},{"internalType":"uint256","name":"_lootboxId","type":"uint256"},{"internalType":"uint256","name":"_openedLootboxIndex","type":"uint256"}],"name":"openedLootbox","outputs":[{"components":[{"internalType":"uint256","name":"lootboxId","type":"uint256"},{"internalType":"uint256","name":"claimSeedBlock","type":"uint256"},{"internalType":"uint256[]","name":"outputCollectionItemIds","type":"uint256[]"},{"internalType":"uint256[]","name":"outputCollectionItemAmounts","type":"uint256[]"},{"internalType":"bool","name":"claimed","type":"bool"}],"internalType":"struct IGame_Lootbox.OpenedLootbox","name":"","type":"tuple"}],"stateMutability":"view","type":"function"},{"inputs":[{"internalType":"uint256","name":"_startIndexInclusive","type":"uint256"},{"internalType":"uint256","name":"_limit","type":"uint256"}],"name":"paginateLootboxIds","outputs":[{"internalType":"uint256[]","name":"","type":"uint256[]"}],"stateMutability":"view","type":"function"},{"inputs":[{"internalType":"uint256","name":"_startIndexInclusive","type":"uint256"},{"internalType":"uint256","name":"_limit","type":"uint256"}],"name":"paginateLootboxLastUpdates","outputs":[{"internalType":"uint256[][]","name":"","type":"uint256[][]"}],"stateMutability":"view","type":"function"},{"inputs":[{"internalType":"uint256","name":"_startIndexInclusive","type":"uint256"},{"internalType":"uint256","name":"_limit","type":"uint256"}],"name":"paginateLootboxes","outputs":[{"components":[{"internalType":"uint256","name":"id","type":"uint256"},{"internalType":"contract IERC1155","name":"inputCollection","type":"address"},{"internalType":"uint256[]","name":"inputCollectionItemIds","type":"uint256[]"},{"internalType":"uint256[]","name":"inputCollectionItemAmounts","type":"uint256[]"},{"internalType":"contract IERC1155","name":"outputCollection","type":"address"},{"internalType":"uint256[]","name":"outputCollectionItemIds","type":"uint256[]"},{"internalType":"uint256[]","name":"outputCollectionItemAmounts","type":"uint256[]"},{"internalType":"uint256[]","name":"outputCollectionItemWeights","type":"uint256[]"},{"internalType":"uint256","name":"outputTotalItemsWeight","type":"uint256"},{"internalType":"uint256","name":"outputTotalItems","type":"uint256"},{"internalType":"uint256","name":"opens","type":"uint256"},{"internalType":"uint256","name":"lastUpdatedAt","type":"uint256"}],"internalType":"struct IGame_Lootbox.Lootbox[]","name":"","type":"tuple[]"}],"stateMutability":"view","type":"function"},{"inputs":[{"internalType":"address","name":"_address","type":"address"},{"internalType":"uint256","name":"_lootboxId","type":"uint256"},{"internalType":"uint256","name":"_startIndexInclusive","type":"uint256"},{"internalType":"uint256","name":"_limit","type":"uint256"}],"name":"paginateOpenedLootboxes","outputs":[{"components":[{"internalType":"uint256","name":"lootboxId","type":"uint256"},{"internalType":"uint256","name":"claimSeedBlock","type":"uint256"},{"internalType":"uint256[]","name":"outputCollectionItemIds","type":"uint256[]"},{"internalType":"uint256[]","name":"outputCollectionItemAmounts","type":"uint256[]"},{"internalType":"bool","name":"claimed","type":"bool"}],"internalType":"struct IGame_Lootbox.OpenedLootbox[]","name":"","type":"tuple[]"}],"stateMutability":"view","type":"function"},{"inputs":[{"internalType":"uint256","name":"_lootboxId","type":"uint256"}],"name":"removeLootbox","outputs":[],"stateMutability":"nonpayable","type":"function"},{"inputs":[{"internalType":"bytes32","name":"role","type":"bytes32"},{"internalType":"address","name":"account","type":"address"}],"name":"renounceRole","outputs":[],"stateMutability":"nonpayable","type":"function"},{"inputs":[{"internalType":"bytes32","name":"role","type":"bytes32"},{"internalType":"address","name":"account","type":"address"}],"name":"revokeRole","outputs":[],"stateMutability":"nonpayable","type":"function"},{"inputs":[{"internalType":"uint256","name":"_offset","type":"uint256"}],"name":"setClaimableBlockOffset","outputs":[],"stateMutability":"nonpayable","type":"function"},{"inputs":[{"internalType":"uint256","name":"_lootboxId","type":"uint256"},{"internalType":"address[2]","name":"_inputOutputCollections","type":"address[2]"},{"internalType":"uint256[][2]","name":"_inputOutputCollectionItemIds","type":"uint256[][2]"},{"internalType":"uint256[][2]","name":"_inputOutputCollectionItemAmounts","type":"uint256[][2]"},{"internalType":"uint256[]","name":"_outputCollectionItemWeights","type":"uint256[]"},{"internalType":"uint256","name":"_outputTotalItems","type":"uint256"}],"name":"setLootbox","outputs":[],"stateMutability":"nonpayable","type":"function"},{"inputs":[{"internalType":"bytes4","name":"interfaceId","type":"bytes4"}],"name":"supportsInterface","outputs":[{"internalType":"bool","name":"","type":"bool"}],"stateMutability":"view","type":"function"},{"inputs":[{"internalType":"address","name":"_address","type":"address"},{"internalType":"uint256","name":"_lootboxId","type":"uint256"}],"name":"totalClaimableLootboxes","outputs":[{"internalType":"uint256","name":"","type":"uint256"}],"stateMutability":"view","type":"function"},{"inputs":[],"name":"totalLootboxes","outputs":[{"internalType":"uint256","name":"","type":"uint256"}],"stateMutability":"view","type":"function"},{"inputs":[{"internalType":"address","name":"_address","type":"address"},{"internalType":"uint256","name":"_lootboxId","type":"uint256"}],"name":"totalOpenedLootboxes","outputs":[{"internalType":"uint256","name":"","type":"uint256"}],"stateMutability":"view","type":"function"},{"inputs":[{"internalType":"address","name":"_newTrustedForwarder","type":"address"}],"name":"upgradeTrustedForwarder","outputs":[],"stateMutability":"nonpayable","type":"function"}],"evm":{"bytecode":{"linkReferences":{},"object":"608060405260016007553480156200001657600080fd5b5060405162004981380380620049818339810160408190526200003991620001b1565b600080546001600160a01b0319166001600160a01b03831617815560016002556200006e9062000068620000a4565b620000c0565b6200009d7fc9fc9949603a50f5cc3a96f774f1d68287789a241d2082dc81d0fb19a53bcf2b62000068620000a4565b50620001e3565b6000620000bb620000d060201b620029d61760201c565b905090565b620000cc828262000106565b5050565b600080546001600160a01b03163303620000f1575060131936013560601c90565b620000bb620001ad60201b62002a261760201c565b60008281526001602090815260408083206001600160a01b038516845290915290205460ff16620000cc5760008281526001602081815260408084206001600160a01b0386168552909152909120805460ff1916909117905562000169620000a4565b6001600160a01b0316816001600160a01b0316837f2f8788117e7eff1d82e926ec794901d17c78024a50270940304540a733656f0d60405160405180910390a45050565b3390565b600060208284031215620001c457600080fd5b81516001600160a01b0381168114620001dc57600080fd5b9392505050565b61478e80620001f36000396000f3fe608060405234801561001057600080fd5b50600436106101f05760003560e01c80638404adc11161010f578063bc197c81116100a2578063e8c683fd11610071578063e8c683fd1461050a578063ea61401a1461051d578063f23a6e6114610525578063fbf3040d1461055d57600080fd5b8063bc197c8114610473578063d547741f146104dc578063de0ef5e4146104ef578063e1394b90146104f757600080fd5b8063a217fddf116100de578063a217fddf14610432578063aa2a7eea1461043a578063abb5d9421461044d578063af90a2b71461046057600080fd5b80638404adc11461039957806391d14854146103ac57806392e11500146103f257806394cba64e1461041257600080fd5b8063572b6c05116101875780637f416510116101565780637f416510146103635780637ff481901461036b5780637ffb5c651461037e578063826410fc1461039157600080fd5b8063572b6c05146102e15780635ec2d0221461031057806360234af9146103235780637f1d0ad21461034357600080fd5b80630e1d1da7116101c35780630e1d1da714610269578063248a9ca3146102895780632f2ff15d146102bb57806336568abe146102ce57600080fd5b806301bab168146101f557806301ffc9a71461021e578063021b06471461024157806307af411714610256575b600080fd5b610208610203366004613891565b6105a0565b60405161021591906138ee565b60405180910390f35b61023161022c36600461396e565b610696565b6040519015158152602001610215565b61025461024f3660046139b0565b610738565b005b6102546102643660046139b0565b6107d7565b61027c6102773660046139b0565b610862565b60405161021591906139c9565b6102ad6102973660046139b0565b6000908152600160208190526040909120015490565b604051908152602001610215565b6102546102c9366004613a05565b6108e2565b6102546102dc366004613a05565b61090d565b6102316102ef366004613a31565b60005473ffffffffffffffffffffffffffffffffffffffff91821691161490565b61027c61031e366004613891565b6109dd565b610336610331366004613891565b610ab1565b6040516102159190613b5c565b610356610351366004613bcf565b610e59565b6040516102159190613c54565b610208610fba565b6102546103793660046139b0565b61106a565b61025461038c366004613891565b6114db565b6102ad61155f565b6102546103a7366004613cd8565b611570565b6102316103ba366004613a05565b600091825260016020908152604080842073ffffffffffffffffffffffffffffffffffffffff93909316845291905290205460ff1690565b6104056104003660046139b0565b611b72565b6040516102159190613dbc565b610425610420366004613dcf565b611ed7565b6040516102159190613e02565b6102ad600081565b610254610448366004613a31565b612102565b6102ad61045b366004613bcf565b612170565b61035661046e366004613e15565b612246565b6104ab610481366004613fda565b7fbc197c810000000000000000000000000000000000000000000000000000000095945050505050565b6040517fffffffff000000000000000000000000000000000000000000000000000000009091168152602001610215565b6102546104ea366004613a05565b6124de565b610336612504565b6102546105053660046139b0565b612874565b6102ad6105183660046139b0565b61294b565b61027c6129ca565b6104ab610533366004614084565b7ff23a6e610000000000000000000000000000000000000000000000000000000095945050505050565b6102ad61056b366004613bcf565b73ffffffffffffffffffffffffffffffffffffffff919091166000908152600660209081526040808320938352929052205490565b606060006105ae6003612a2a565b84106105bb5760006105d0565b836105c66003612a2a565b6105d09190614118565b90506000838211156105e257836105e4565b815b905060008167ffffffffffffffff81111561060157610601613e4e565b60405190808252806020026020018201604052801561063457816020015b606081526020019060019003908161061f5790505b50905060005b8281101561068a5761065a610277610652838a61412b565b600390612a34565b82828151811061066c5761066c61413e565b602002602001018190525080806106829061416d565b91505061063a565b50925050505b92915050565b60007fffffffff0000000000000000000000000000000000000000000000000000000082167ff6adcf6b00000000000000000000000000000000000000000000000000000000148061072957507fffffffff0000000000000000000000000000000000000000000000000000000082167f4e2312e000000000000000000000000000000000000000000000000000000000145b80610690575061069082612a47565b7fc9fc9949603a50f5cc3a96f774f1d68287789a241d2082dc81d0fb19a53bcf2b61076281612a9d565b600082116107d1576040517f08c379a000000000000000000000000000000000000000000000000000000000815260206004820152601260248201527f4f66667365742063616e6e6f742062652030000000000000000000000000000060448201526064015b60405180910390fd5b50600755565b7fc9fc9949603a50f5cc3a96f774f1d68287789a241d2082dc81d0fb19a53bcf2b61080181612a9d565b61080c600383612ab1565b5060008281526005602052604090819020905183907f0864136c4ebca2d8889222bc6e0378756c87aa96dbac4e5645772cf08d4112ee9061084e908490614304565b60405180910390a26000600a909101555050565b60408051600280825260608083018452926000929190602083019080368337019050509050828160008151811061089b5761089b61413e565b60200260200101818152505060056000848152602001908152602001600020600b0154816001815181106108d1576108d161413e565b602090810291909101015292915050565b600082815260016020819052604090912001546108fe81612a9d565b6109088383612abd565b505050565b610915612bb3565b73ffffffffffffffffffffffffffffffffffffffff168173ffffffffffffffffffffffffffffffffffffffff16146109cf576040517f08c379a000000000000000000000000000000000000000000000000000000000815260206004820152602f60248201527f416363657373436f6e74726f6c3a2063616e206f6e6c792072656e6f756e636560448201527f20726f6c657320666f722073656c66000000000000000000000000000000000060648201526084016107c8565b6109d98282612bbd565b5050565b606060006109eb6003612a2a565b84106109f8576000610a0d565b83610a036003612a2a565b610a0d9190614118565b9050600083821115610a1f5783610a21565b815b905060008167ffffffffffffffff811115610a3e57610a3e613e4e565b604051908082528060200260200182016040528015610a67578160200160208202803683370190505b50905060005b8281101561068a57610a82610652828961412b565b828281518110610a9457610a9461413e565b602090810291909101015280610aa98161416d565b915050610a6d565b60606000610abf6003612a2a565b8410610acc576000610ae1565b83610ad76003612a2a565b610ae19190614118565b9050600083821115610af35783610af5565b815b905060008167ffffffffffffffff811115610b1257610b12613e4e565b604051908082528060200260200182016040528015610bd357816020015b610bc060405180610180016040528060008152602001600073ffffffffffffffffffffffffffffffffffffffff1681526020016060815260200160608152602001600073ffffffffffffffffffffffffffffffffffffffff168152602001606081526020016060815260200160608152602001600081526020016000815260200160008152602001600081525090565b815260200190600190039081610b305790505b50905060005b8281101561068a5760056000610bf2610652848b61412b565b8152602080820192909252604090810160002081516101808101835281548152600182015473ffffffffffffffffffffffffffffffffffffffff1681850152600282018054845181870281018701865281815292959394860193830182828015610c7b57602002820191906000526020600020905b815481526020019060010190808311610c67575b5050505050815260200160038201805480602002602001604051908101604052809291908181526020018280548015610cd357602002820191906000526020600020905b815481526020019060010190808311610cbf575b5050509183525050600482015473ffffffffffffffffffffffffffffffffffffffff166020808301919091526005830180546040805182850281018501825282815294019392830182828015610d4857602002820191906000526020600020905b815481526020019060010190808311610d34575b5050505050815260200160068201805480602002602001604051908101604052809291908181526020018280548015610da057602002820191906000526020600020905b815481526020019060010190808311610d8c575b5050505050815260200160078201805480602002602001604051908101604052809291908181526020018280548015610df857602002820191906000526020600020905b815481526020019060010190808311610de4575b505050505081526020016008820154815260200160098201548152602001600a8201548152602001600b82015481525050828281518110610e3b57610e3b61413e565b60200260200101819052508080610e519061416d565b915050610bd9565b73ffffffffffffffffffffffffffffffffffffffff821660009081526006602090815260408083208484528252808320805482518185028101850190935280835260609492939192909184015b82821015610fae57838290600052602060002090600502016040518060a0016040529081600082015481526020016001820154815260200160028201805480602002602001604051908101604052809291908181526020018280548015610f2c57602002820191906000526020600020905b815481526020019060010190808311610f18575b5050505050815260200160038201805480602002602001604051908101604052809291908181526020018280548015610f8457602002820191906000526020600020905b815481526020019060010190808311610f70575b50505091835250506004919091015460ff1615156020918201529082526001929092019101610ea6565b50505050905092915050565b60606000610fc661155f565b67ffffffffffffffff811115610fde57610fde613e4e565b60405190808252806020026020018201604052801561101157816020015b6060815260200190600190039081610ffc5790505b50905060005b61101f61155f565b81101561106457611034610277600383612a34565b8282815181106110465761104661413e565b6020026020010181905250808061105c9061416d565b915050611017565b50919050565b60028054036110d5576040517f08c379a000000000000000000000000000000000000000000000000000000000815260206004820152601f60248201527f5265656e7472616e637947756172643a207265656e7472616e742063616c6c0060448201526064016107c8565b600280556110e4600382612cb0565b611170576040517f08c379a000000000000000000000000000000000000000000000000000000000815260206004820152602d60248201527f6c6f6f74626f78496420646f6573206e6f74206578697374206f72206861732060448201527f6265656e2072656d6f7665642e0000000000000000000000000000000000000060648201526084016107c8565b6000818152600560205260409020600181015473ffffffffffffffffffffffffffffffffffffffff161561135f5760018101546040517f01ffc9a70000000000000000000000000000000000000000000000000000000081527f909aa65d00000000000000000000000000000000000000000000000000000000600482015273ffffffffffffffffffffffffffffffffffffffff909116906301ffc9a790602401602060405180830381865afa15801561122e573d6000803e3d6000fd5b505050506040513d601f19601f820116820180604052508101906112529190614317565b156112dc57600181015473ffffffffffffffffffffffffffffffffffffffff16634b7c78dc61127f612bb3565b83600201846003016040518463ffffffff1660e01b81526004016112a593929190614339565b600060405180830381600087803b1580156112bf57600080fd5b505af11580156112d3573d6000803e3d6000fd5b5050505061135f565b600181015473ffffffffffffffffffffffffffffffffffffffff16632eb2c2d6611304612bb3565b3084600201856003016040518563ffffffff1660e01b815260040161132c9493929190614384565b600060405180830381600087803b15801561134657600080fd5b505af115801561135a573d6000803e3d6000fd5b505050505b6113936040518060a00160405280600081526020016000815260200160608152602001606081526020016000151581525090565b8281526007546113a3904361412b565b6020820152600660006113b4612bb3565b73ffffffffffffffffffffffffffffffffffffffff16815260208082019290925260409081016000908120868252835281812080546001818101835591835291849020855160059093020191825584840151908201559083015180518493611423926002850192910190613831565b506060820151805161143f916003840191602090910190613831565b5060809190910151600490910180547fffffffffffffffffffffffffffffffffffffffffffffffffffffffffffffff0016911515919091179055600a8201805490600061148b8361416d565b9190505550827fcbe236ccb8bf2ae258fd54e73752d614c82aa6293d5256658cc3ce58dc4d4bf0836114bb612bb3565b6040516114c99291906143ec565b60405180910390a25050600160025550565b6002805403611546576040517f08c379a000000000000000000000000000000000000000000000000000000000815260206004820152601f60248201527f5265656e7472616e637947756172643a207265656e7472616e742063616c6c0060448201526064016107c8565b6002805561155682826001612cc8565b50506001600255565b600061156b6003612a2a565b905090565b7fc9fc9949603a50f5cc3a96f774f1d68287789a241d2082dc81d0fb19a53bcf2b61159a81612a9d565b6115a48580614424565b90506115b08780614424565b90501461163f576040517f08c379a000000000000000000000000000000000000000000000000000000000815260206004820152602d60248201527f4d69736d61746368656420696e707574206974656d2069647320616e6420616d60448201527f6f756e74206c656e677468732e0000000000000000000000000000000000000060648201526084016107c8565b61164c6020860186614424565b905061165b6020880188614424565b9050146116ea576040517f08c379a000000000000000000000000000000000000000000000000000000000815260206004820152602d60248201527f4d69736d617463686564206f7574707574206974656d2069647320616e64206160448201527f6d6f756e74206c656e6774682e0000000000000000000000000000000000000060648201526084016107c8565b826116f86020880188614424565b905014611787576040517f08c379a000000000000000000000000000000000000000000000000000000000815260206004820152603160248201527f4d69736d61746368206f7574707574206974656d2069647320616e642069746560448201527f6d2077656967687473206c656e6774682e00000000000000000000000000000060648201526084016107c8565b6000805b848110156117cb578585828181106117a5576117a561413e565b90506020020135826117b7919061412b565b9150806117c38161416d565b91505061178b565b5060006040518061018001604052808b81526020018a6000600281106117f3576117f361413e565b6020020160208101906118069190613a31565b73ffffffffffffffffffffffffffffffffffffffff16815260200161182b8a80614424565b8080602002602001604051908101604052809392919081815260200183836020028082843760009201919091525050509082525060200161186c8980614424565b808060200260200160405190810160405280939291908181526020018383602002808284376000920191909152505050908252506020908101906118b69060408d01908d01613a31565b73ffffffffffffffffffffffffffffffffffffffff1681526020908101906118e0908b018b614424565b80806020026020016040519081016040528093929190818152602001838360200280828437600092019190915250505090825250602090810190611926908a018a614424565b8080602002602001604051908101604052809392919081815260200183836020028082843760009201919091525050509082525060408051602089810282810182019093528982529283019290918a918a9182918501908490808284376000920182905250938552505050602080830186905260408084018990528e835260059091529020600a015460608201524260809091015290506119c860038b6132a4565b5060008a81526005602090815260409182902083518155838201516001820180547fffffffffffffffffffffffff00000000000000000000000000000000000000001673ffffffffffffffffffffffffffffffffffffffff909216919091179055918301518051849392611a43926002850192910190613831565b5060608201518051611a5f916003840191602090910190613831565b5060808201516004820180547fffffffffffffffffffffffff00000000000000000000000000000000000000001673ffffffffffffffffffffffffffffffffffffffff90921691909117905560a08201518051611ac6916005840191602090910190613831565b5060c08201518051611ae2916006840191602090910190613831565b5060e08201518051611afe916007840191602090910190613831565b506101008201518160080155610120820151816009015561014082015181600a015561016082015181600b0155905050897fb2e547eb18679a18ee72bf11d33344b9a6a24f4afecf77e5ff1833294b4b0ab982604051611b5e9190613dbc565b60405180910390a250505050505050505050565b611c0260405180610180016040528060008152602001600073ffffffffffffffffffffffffffffffffffffffff1681526020016060815260200160608152602001600073ffffffffffffffffffffffffffffffffffffffff168152602001606081526020016060815260200160608152602001600081526020016000815260200160008152602001600081525090565b611c0d600383612cb0565b611c99576040517f08c379a000000000000000000000000000000000000000000000000000000000815260206004820152602d60248201527f6c6f6f74626f78496420646f6573206e6f74206578697374206f72206861732060448201527f6265656e2072656d6f7665642e0000000000000000000000000000000000000060648201526084016107c8565b60008281526005602090815260409182902082516101808101845281548152600182015473ffffffffffffffffffffffffffffffffffffffff168184015260028201805485518186028101860187528181529295939493860193830182828015611d2257602002820191906000526020600020905b815481526020019060010190808311611d0e575b5050505050815260200160038201805480602002602001604051908101604052809291908181526020018280548015611d7a57602002820191906000526020600020905b815481526020019060010190808311611d66575b5050509183525050600482015473ffffffffffffffffffffffffffffffffffffffff166020808301919091526005830180546040805182850281018501825282815294019392830182828015611def57602002820191906000526020600020905b815481526020019060010190808311611ddb575b5050505050815260200160068201805480602002602001604051908101604052809291908181526020018280548015611e4757602002820191906000526020600020905b815481526020019060010190808311611e33575b5050505050815260200160078201805480602002602001604051908101604052809291908181526020018280548015611e9f57602002820191906000526020600020905b815481526020019060010190808311611e8b575b505050505081526020016008820154815260200160098201548152602001600a8201548152602001600b820154815250509050919050565b611f0b6040518060a00160405280600081526020016000815260200160608152602001606081526020016000151581525090565b73ffffffffffffffffffffffffffffffffffffffff841660009081526006602090815260408083208684529091529020548210611fca576040517f08c379a000000000000000000000000000000000000000000000000000000000815260206004820152602360248201527f6f70656e65644c6f6f74626f78496e64657820646f6573206e6f74206578697360448201527f74732e000000000000000000000000000000000000000000000000000000000060648201526084016107c8565b73ffffffffffffffffffffffffffffffffffffffff84166000908152600660209081526040808320868452909152902080548390811061200c5761200c61413e565b90600052602060002090600502016040518060a001604052908160008201548152602001600182015481526020016002820180548060200260200160405190810160405280929190818152602001828054801561208857602002820191906000526020600020905b815481526020019060010190808311612074575b50505050508152602001600382018054806020026020016040519081016040528092919081815260200182805480156120e057602002820191906000526020600020905b8154815260200190600101908083116120cc575b50505091835250506004919091015460ff161515602090910152949350505050565b7fc9fc9949603a50f5cc3a96f774f1d68287789a241d2082dc81d0fb19a53bcf2b61212c81612a9d565b600080547fffffffffffffffffffffffff00000000000000000000000000000000000000001673ffffffffffffffffffffffffffffffffffffffff84161790555050565b600080805b73ffffffffffffffffffffffffffffffffffffffff8516600090815260066020908152604080832087845290915290205481101561223e5773ffffffffffffffffffffffffffffffffffffffff8516600090815260066020908152604080832087845290915281208054839081106121ef576121ef61413e565b90600052602060002090600502019050806001015443101580156122185750600481015460ff16155b1561222b57826122278161416d565b9350505b50806122368161416d565b915050612175565b509392505050565b73ffffffffffffffffffffffffffffffffffffffff841660009081526006602090815260408083208684529091528120546060919084106122885760006122c4565b73ffffffffffffffffffffffffffffffffffffffff861660009081526006602090815260408083208884529091529020546122c4908590614118565b90506000838211156122d657836122d8565b815b905060008167ffffffffffffffff8111156122f5576122f5613e4e565b60405190808252806020026020018201604052801561235a57816020015b6123476040518060a00160405280600081526020016000815260200160608152602001606081526020016000151581525090565b8152602001906001900390816123135790505b50905060005b828110156124d25773ffffffffffffffffffffffffffffffffffffffff891660009081526006602090815260408083208b845290915290206123a2828961412b565b815481106123b2576123b261413e565b90600052602060002090600502016040518060a001604052908160008201548152602001600182015481526020016002820180548060200260200160405190810160405280929190818152602001828054801561242e57602002820191906000526020600020905b81548152602001906001019080831161241a575b505050505081526020016003820180548060200260200160405190810160405280929190818152602001828054801561248657602002820191906000526020600020905b815481526020019060010190808311612472575b50505091835250506004919091015460ff16151560209091015282518390839081106124b4576124b461413e565b602002602001018190525080806124ca9061416d565b915050612360565b50979650505050505050565b600082815260016020819052604090912001546124fa81612a9d565b6109088383612bbd565b6060600061251061155f565b67ffffffffffffffff81111561252857612528613e4e565b6040519080825280602002602001820160405280156125e957816020015b6125d660405180610180016040528060008152602001600073ffffffffffffffffffffffffffffffffffffffff1681526020016060815260200160608152602001600073ffffffffffffffffffffffffffffffffffffffff168152602001606081526020016060815260200160608152602001600081526020016000815260200160008152602001600081525090565b8152602001906001900390816125465790505b50905060005b6125f761155f565b811015611064576005600061260d600384612a34565b8152602080820192909252604090810160002081516101808101835281548152600182015473ffffffffffffffffffffffffffffffffffffffff168185015260028201805484518187028101870186528181529295939486019383018282801561269657602002820191906000526020600020905b815481526020019060010190808311612682575b50505050508152602001600382018054806020026020016040519081016040528092919081815260200182805480156126ee57602002820191906000526020600020905b8154815260200190600101908083116126da575b5050509183525050600482015473ffffffffffffffffffffffffffffffffffffffff16602080830191909152600583018054604080518285028101850182528281529401939283018282801561276357602002820191906000526020600020905b81548152602001906001019080831161274f575b50505050508152602001600682018054806020026020016040519081016040528092919081815260200182805480156127bb57602002820191906000526020600020905b8154815260200190600101908083116127a7575b505050505081526020016007820180548060200260200160405190810160405280929190818152602001828054801561281357602002820191906000526020600020905b8154815260200190600101908083116127ff575b505050505081526020016008820154815260200160098201548152602001600a8201548152602001600b820154815250508282815181106128565761285661413e565b6020026020010181905250808061286c9061416d565b9150506125ef565b60028054036128df576040517f08c379a000000000000000000000000000000000000000000000000000000000815260206004820152601f60248201527f5265656e7472616e637947756172643a207265656e7472616e742063616c6c0060448201526064016107c8565b6002805560005b600660006128f2612bb3565b73ffffffffffffffffffffffffffffffffffffffff168152602080820192909252604090810160009081208582529092529020548110156115565761293982826000612cc8565b806129438161416d565b9150506128e6565b60006129576003612a2a565b82106129bf576040517f08c379a000000000000000000000000000000000000000000000000000000000815260206004820152601360248201527f496e646578206f7574206f6620626f756e64730000000000000000000000000060448201526064016107c8565b610690600383612a34565b606061156b60036132b0565b6000805473ffffffffffffffffffffffffffffffffffffffff163303612a2157507fffffffffffffffffffffffffffffffffffffffffffffffffffffffffffffffec36013560601c90565b503390565b3390565b6000610690825490565b6000612a4083836132bd565b9392505050565b60007fffffffff0000000000000000000000000000000000000000000000000000000082167f7965db0b0000000000000000000000000000000000000000000000000000000014806106905750610690826132e7565b612aae81612aa9612bb3565b61337e565b50565b6000612a408383613450565b600082815260016020908152604080832073ffffffffffffffffffffffffffffffffffffffff8516845290915290205460ff166109d957600082815260016020818152604080842073ffffffffffffffffffffffffffffffffffffffff8616855290915290912080547fffffffffffffffffffffffffffffffffffffffffffffffffffffffffffffff00169091179055612b55612bb3565b73ffffffffffffffffffffffffffffffffffffffff168173ffffffffffffffffffffffffffffffffffffffff16837f2f8788117e7eff1d82e926ec794901d17c78024a50270940304540a733656f0d60405160405180910390a45050565b600061156b6129d6565b600082815260016020908152604080832073ffffffffffffffffffffffffffffffffffffffff8516845290915290205460ff16156109d957600082815260016020908152604080832073ffffffffffffffffffffffffffffffffffffffff85168452909152902080547fffffffffffffffffffffffffffffffffffffffffffffffffffffffffffffff00169055612c52612bb3565b73ffffffffffffffffffffffffffffffffffffffff168173ffffffffffffffffffffffffffffffffffffffff16837ff6391f5c32d9c69d2a47ea670b442974b53935d1edc7fd64eb21e047a839171b60405160405180910390a45050565b60008181526001830160205260408120541515612a40565b600060066000612cd6612bb3565b73ffffffffffffffffffffffffffffffffffffffff1673ffffffffffffffffffffffffffffffffffffffff16815260200190815260200160002060008581526020019081526020016000208381548110612d3257612d3261413e565b9060005260206000209060050201905060006005600086815260200190815260200160002090508160010154431080612d6f5750600482015460ff165b15612e0b578215612e0457604080517f08c379a00000000000000000000000000000000000000000000000000000000081526020600482015260248101919091527f4c6f6f74626f7820756e636c61696d61626c652e20436c61696d20626c6f636b60448201527f206e6f742072656163686564206f7220616c726561647920636c61696d65642e60648201526084016107c8565b5050505050565b6000816009015467ffffffffffffffff811115612e2a57612e2a613e4e565b604051908082528060200260200182016040528015612e53578160200160208202803683370190505b5090506000826009015467ffffffffffffffff811115612e7557612e75613e4e565b604051908082528060200260200182016040528015612e9e578160200160208202803683370190505b50905060005b836009015481101561303e57600060018660010154612ec39190614118565b40612ecc612bb3565b8984604051602001612f1c949392919093845260609290921b7fffffffffffffffffffffffffffffffffffffffff0000000000000000000000001660208401526034830152605482015260740190565b6040516020818303038152906040528051906020012060001c90506000856008015482612f499190614493565b905060005b6007870154811015613028576000876007018281548110612f7157612f7161413e565b906000526020600020015490508281111561300857876005018281548110612f9b57612f9b61413e565b9060005260206000200154878681518110612fb857612fb861413e565b602002602001018181525050876006018281548110612fd957612fd961413e565b9060005260206000200154868681518110612ff657612ff661413e565b60200260200101818152505050613028565b6130128184614118565b92505080806130209061416d565b915050612f4e565b50505080806130369061416d565b915050612ea4565b506004838101546040517f91d148540000000000000000000000000000000000000000000000000000000081527fc9eb32e43bf5ecbceacf00b32281dfc5d6d700a0db676ea26ccf938a385ac3f79281019290925230602483015273ffffffffffffffffffffffffffffffffffffffff16906391d1485490604401602060405180830381865afa1580156130d6573d6000803e3d6000fd5b505050506040513d601f19601f820116820180604052508101906130fa9190614317565b1561317e57600483015473ffffffffffffffffffffffffffffffffffffffff166308f427c7613127612bb3565b84846040518463ffffffff1660e01b8152600401613147939291906144ce565b600060405180830381600087803b15801561316157600080fd5b505af1158015613175573d6000803e3d6000fd5b505050506131fb565b600483015473ffffffffffffffffffffffffffffffffffffffff16632eb2c2d6306131a7612bb3565b85856040518563ffffffff1660e01b81526004016131c8949392919061450f565b600060405180830381600087803b1580156131e257600080fd5b505af11580156131f6573d6000803e3d6000fd5b505050505b81516132109060028601906020850190613831565b5080516132269060038601906020840190613831565b506004840180547fffffffffffffffffffffffffffffffffffffffffffffffffffffffffffffff00166001179055867fa90466a1141d4242085b5ac5c6634a366ec37ad66c953e191b51c3441e56010e8461327f612bb3565b89868660405161329395949392919061455a565b60405180910390a250505050505050565b6000612a408383613543565b60606000612a4083613592565b60008260000182815481106132d4576132d461413e565b9060005260206000200154905092915050565b60007fffffffff0000000000000000000000000000000000000000000000000000000082167f4e2312e000000000000000000000000000000000000000000000000000000000148061069057507f01ffc9a7000000000000000000000000000000000000000000000000000000007fffffffff00000000000000000000000000000000000000000000000000000000831614610690565b600082815260016020908152604080832073ffffffffffffffffffffffffffffffffffffffff8516845290915290205460ff166109d9576133d68173ffffffffffffffffffffffffffffffffffffffff1660146135ee565b6133e18360206135ee565b6040516020016133f29291906145e5565b604080517fffffffffffffffffffffffffffffffffffffffffffffffffffffffffffffffe0818403018152908290527f08c379a00000000000000000000000000000000000000000000000000000000082526107c891600401614666565b60008181526001830160205260408120548015613539576000613474600183614118565b855490915060009061348890600190614118565b90508181146134ed5760008660000182815481106134a8576134a861413e565b90600052602060002001549050808760000184815481106134cb576134cb61413e565b6000918252602080832090910192909255918252600188019052604090208390555b85548690806134fe576134fe6146b7565b600190038181906000526020600020016000905590558560010160008681526020019081526020016000206000905560019350505050610690565b6000915050610690565b600081815260018301602052604081205461358a57508154600181810184556000848152602080822090930184905584548482528286019093526040902091909155610690565b506000610690565b6060816000018054806020026020016040519081016040528092919081815260200182805480156135e257602002820191906000526020600020905b8154815260200190600101908083116135ce575b50505050509050919050565b606060006135fd8360026146e6565b61360890600261412b565b67ffffffffffffffff81111561362057613620613e4e565b6040519080825280601f01601f19166020018201604052801561364a576020820181803683370190505b5090507f3000000000000000000000000000000000000000000000000000000000000000816000815181106136815761368161413e565b60200101907effffffffffffffffffffffffffffffffffffffffffffffffffffffffffffff1916908160001a9053507f7800000000000000000000000000000000000000000000000000000000000000816001815181106136e4576136e461413e565b60200101907effffffffffffffffffffffffffffffffffffffffffffffffffffffffffffff1916908160001a90535060006137208460026146e6565b61372b90600161412b565b90505b60018111156137c8577f303132333435363738396162636465660000000000000000000000000000000085600f166010811061376c5761376c61413e565b1a60f81b8282815181106137825761378261413e565b60200101907effffffffffffffffffffffffffffffffffffffffffffffffffffffffffffff1916908160001a90535060049490941c936137c181614723565b905061372e565b508315612a40576040517f08c379a000000000000000000000000000000000000000000000000000000000815260206004820181905260248201527f537472696e67733a20686578206c656e67746820696e73756666696369656e7460448201526064016107c8565b82805482825590600052602060002090810192821561386c579160200282015b8281111561386c578251825591602001919060010190613851565b5061387892915061387c565b5090565b5b80821115613878576000815560010161387d565b600080604083850312156138a457600080fd5b50508035926020909101359150565b600081518084526020808501945080840160005b838110156138e3578151875295820195908201906001016138c7565b509495945050505050565b6000602080830181845280855180835260408601915060408160051b870101925083870160005b82811015613961577fffffffffffffffffffffffffffffffffffffffffffffffffffffffffffffffc088860301845261394f8583516138b3565b94509285019290850190600101613915565b5092979650505050505050565b60006020828403121561398057600080fd5b81357fffffffff0000000000000000000000000000000000000000000000000000000081168114612a4057600080fd5b6000602082840312156139c257600080fd5b5035919050565b602081526000612a4060208301846138b3565b803573ffffffffffffffffffffffffffffffffffffffff81168114613a0057600080fd5b919050565b60008060408385031215613a1857600080fd5b82359150613a28602084016139dc565b90509250929050565b600060208284031215613a4357600080fd5b612a40826139dc565b6000610180825184526020830151613a7c602086018273ffffffffffffffffffffffffffffffffffffffff169052565b506040830151816040860152613a94828601826138b3565b91505060608301518482036060860152613aae82826138b3565b9150506080830151613ad8608086018273ffffffffffffffffffffffffffffffffffffffff169052565b5060a083015184820360a0860152613af082826138b3565b91505060c083015184820360c0860152613b0a82826138b3565b91505060e083015184820360e0860152613b2482826138b3565b610100858101519087015261012080860151908701526101408086015190870152610160948501519490950193909352509192915050565b6000602080830181845280855180835260408601915060408160051b870101925083870160005b82811015613961577fffffffffffffffffffffffffffffffffffffffffffffffffffffffffffffffc0888603018452613bbd858351613a4c565b94509285019290850190600101613b83565b60008060408385031215613be257600080fd5b613beb836139dc565b946020939093013593505050565b80518252602081015160208301526000604082015160a06040850152613c2260a08501826138b3565b905060608301518482036060860152613c3b82826138b3565b9150506080830151151560808501528091505092915050565b6000602080830181845280855180835260408601915060408160051b870101925083870160005b82811015613961577fffffffffffffffffffffffffffffffffffffffffffffffffffffffffffffffc0888603018452613cb5858351613bf9565b94509285019290850190600101613c7b565b806040810183101561069057600080fd5b600080600080600080600060e0888a031215613cf357600080fd5b87359650613d048960208a01613cc7565b9550606088013567ffffffffffffffff80821115613d2157600080fd5b613d2d8b838c01613cc7565b965060808a0135915080821115613d4357600080fd5b613d4f8b838c01613cc7565b955060a08a0135915080821115613d6557600080fd5b818a0191508a601f830112613d7957600080fd5b813581811115613d8857600080fd5b8b60208260051b8501011115613d9d57600080fd5b60208301955080945050505060c0880135905092959891949750929550565b602081526000612a406020830184613a4c565b600080600060608486031215613de457600080fd5b613ded846139dc565b95602085013595506040909401359392505050565b602081526000612a406020830184613bf9565b60008060008060808587031215613e2b57600080fd5b613e34856139dc565b966020860135965060408601359560600135945092505050565b7f4e487b7100000000000000000000000000000000000000000000000000000000600052604160045260246000fd5b604051601f82017fffffffffffffffffffffffffffffffffffffffffffffffffffffffffffffffe016810167ffffffffffffffff81118282101715613ec457613ec4613e4e565b604052919050565b600082601f830112613edd57600080fd5b8135602067ffffffffffffffff821115613ef957613ef9613e4e565b8160051b613f08828201613e7d565b9283528481018201928281019087851115613f2257600080fd5b83870192505b84831015613f4157823582529183019190830190613f28565b979650505050505050565b600082601f830112613f5d57600080fd5b813567ffffffffffffffff811115613f7757613f77613e4e565b613fa860207fffffffffffffffffffffffffffffffffffffffffffffffffffffffffffffffe0601f84011601613e7d565b818152846020838601011115613fbd57600080fd5b816020850160208301376000918101602001919091529392505050565b600080600080600060a08688031215613ff257600080fd5b613ffb866139dc565b9450614009602087016139dc565b9350604086013567ffffffffffffffff8082111561402657600080fd5b61403289838a01613ecc565b9450606088013591508082111561404857600080fd5b61405489838a01613ecc565b9350608088013591508082111561406a57600080fd5b5061407788828901613f4c565b9150509295509295909350565b600080600080600060a0868803121561409c57600080fd5b6140a5866139dc565b94506140b3602087016139dc565b93506040860135925060608601359150608086013567ffffffffffffffff8111156140dd57600080fd5b61407788828901613f4c565b7f4e487b7100000000000000000000000000000000000000000000000000000000600052601160045260246000fd5b81810381811115610690576106906140e9565b80820180821115610690576106906140e9565b7f4e487b7100000000000000000000000000000000000000000000000000000000600052603260045260246000fd5b60007fffffffffffffffffffffffffffffffffffffffffffffffffffffffffffffffff820361419e5761419e6140e9565b5060010190565b6000815480845260208085019450836000528060002060005b838110156138e3578154875295820195600191820191016141be565b600061018082548452614204600184015473ffffffffffffffffffffffffffffffffffffffff1690565b73ffffffffffffffffffffffffffffffffffffffff16602085015260408401819052614235818501600285016141a5565b9050838103606085015261424c81600385016141a5565b905061426f600484015473ffffffffffffffffffffffffffffffffffffffff1690565b73ffffffffffffffffffffffffffffffffffffffff16608085015283810360a085015261429f81600585016141a5565b905083810360c08501526142b681600685016141a5565b905083810360e08501526142cd81600785016141a5565b60088401546101008601526009840154610120860152600a840154610140860152600b909301546101609094019390935250919050565b602081526000612a4060208301846141da565b60006020828403121561432957600080fd5b81518015158114612a4057600080fd5b73ffffffffffffffffffffffffffffffffffffffff8416815260606020820152600061436860608301856141a5565b828103604084015261437a81856141a5565b9695505050505050565b600073ffffffffffffffffffffffffffffffffffffffff808716835280861660208401525060a060408301526143bd60a08301856141a5565b82810360608401526143cf81856141a5565b838103608090940193909352505060008152602001949350505050565b6040815260006143ff60408301856141da565b905073ffffffffffffffffffffffffffffffffffffffff831660208301529392505050565b60008083357fffffffffffffffffffffffffffffffffffffffffffffffffffffffffffffffe184360301811261445957600080fd5b83018035915067ffffffffffffffff82111561447457600080fd5b6020019150600581901b360382131561448c57600080fd5b9250929050565b6000826144c9577f4e487b7100000000000000000000000000000000000000000000000000000000600052601260045260246000fd5b500690565b73ffffffffffffffffffffffffffffffffffffffff841681526060602082015260006144fd60608301856138b3565b828103604084015261437a81856138b3565b600073ffffffffffffffffffffffffffffffffffffffff808716835280861660208401525060a0604083015261454860a08301856138b3565b82810360608401526143cf81856138b3565b60a08152600061456d60a08301886141da565b73ffffffffffffffffffffffffffffffffffffffff8716602084015285604084015282810360608401526145a181866138b3565b905082810360808401526145b581856138b3565b98975050505050505050565b60005b838110156145dc5781810151838201526020016145c4565b50506000910152565b7f416363657373436f6e74726f6c3a206163636f756e742000000000000000000081526000835161461d8160178501602088016145c1565b7f206973206d697373696e6720726f6c6520000000000000000000000000000000601791840191820152835161465a8160288401602088016145c1565b01602801949350505050565b60208152600082518060208401526146858160408501602087016145c1565b601f017fffffffffffffffffffffffffffffffffffffffffffffffffffffffffffffffe0169190910160400192915050565b7f4e487b7100000000000000000000000000000000000000000000000000000000600052603160045260246000fd5b6000817fffffffffffffffffffffffffffffffffffffffffffffffffffffffffffffffff048311821515161561471e5761471e6140e9565b500290565b600081614732576147326140e9565b507fffffffffffffffffffffffffffffffffffffffffffffffffffffffffffffffff019056fea26469706673582212208ee5e47c0946627c340cf01078fc242e444d4a1bc70d3545f1c49d04dbe03d4564736f6c63430008100033","opcodes":"PUSH1 0x80 PUSH1 0x40 MSTORE PUSH1 0x1 PUSH1 0x7 SSTORE CALLVALUE DUP1 ISZERO PUSH3 0x16 JUMPI PUSH1 0x0 DUP1 REVERT JUMPDEST POP PUSH1 0x40 MLOAD PUSH3 0x4981 CODESIZE SUB DUP1 PUSH3 0x4981 DUP4 CODECOPY DUP2 ADD PUSH1 0x40 DUP2 SWAP1 MSTORE PUSH3 0x39 SWAP2 PUSH3 0x1B1 JUMP JUMPDEST PUSH1 0x0 DUP1 SLOAD PUSH1 0x1 PUSH1 0x1 PUSH1 0xA0 SHL SUB NOT AND PUSH1 0x1 PUSH1 0x1 PUSH1 0xA0 SHL SUB DUP4 AND OR DUP2 SSTORE PUSH1 0x1 PUSH1 0x2 SSTORE PUSH3 0x6E SWAP1 PUSH3 0x68 PUSH3 0xA4 JUMP JUMPDEST PUSH3 0xC0 JUMP JUMPDEST PUSH3 0x9D PUSH32 0xC9FC9949603A50F5CC3A96F774F1D68287789A241D2082DC81D0FB19A53BCF2B PUSH3 0x68 PUSH3 0xA4 JUMP JUMPDEST POP PUSH3 0x1E3 JUMP JUMPDEST PUSH1 0x0 PUSH3 0xBB PUSH3 0xD0 PUSH1 0x20 SHL PUSH3 0x29D6 OR PUSH1 0x20 SHR JUMP JUMPDEST SWAP1 POP SWAP1 JUMP JUMPDEST PUSH3 0xCC DUP3 DUP3 PUSH3 0x106 JUMP JUMPDEST POP POP JUMP JUMPDEST PUSH1 0x0 DUP1 SLOAD PUSH1 0x1 PUSH1 0x1 PUSH1 0xA0 SHL SUB AND CALLER SUB PUSH3 0xF1 JUMPI POP PUSH1 0x13 NOT CALLDATASIZE ADD CALLDATALOAD PUSH1 0x60 SHR SWAP1 JUMP JUMPDEST PUSH3 0xBB PUSH3 0x1AD PUSH1 0x20 SHL PUSH3 0x2A26 OR PUSH1 0x20 SHR JUMP JUMPDEST PUSH1 0x0 DUP3 DUP2 MSTORE PUSH1 0x1 PUSH1 0x20 SWAP1 DUP2 MSTORE PUSH1 0x40 DUP1 DUP4 KECCAK256 PUSH1 0x1 PUSH1 0x1 PUSH1 0xA0 SHL SUB DUP6 AND DUP5 MSTORE SWAP1 SWAP2 MSTORE SWAP1 KECCAK256 SLOAD PUSH1 0xFF AND PUSH3 0xCC JUMPI PUSH1 0x0 DUP3 DUP2 MSTORE PUSH1 0x1 PUSH1 0x20 DUP2 DUP2 MSTORE PUSH1 0x40 DUP1 DUP5 KECCAK256 PUSH1 0x1 PUSH1 0x1 PUSH1 0xA0 SHL SUB DUP7 AND DUP6 MSTORE SWAP1 SWAP2 MSTORE SWAP1 SWAP2 KECCAK256 DUP1 SLOAD PUSH1 0xFF NOT AND SWAP1 SWAP2 OR SWAP1 SSTORE PUSH3 0x169 PUSH3 0xA4 JUMP JUMPDEST PUSH1 0x1 PUSH1 0x1 PUSH1 0xA0 SHL SUB AND DUP2 PUSH1 0x1 PUSH1 0x1 PUSH1 0xA0 SHL SUB AND DUP4 PUSH32 0x2F8788117E7EFF1D82E926EC794901D17C78024A50270940304540A733656F0D PUSH1 0x40 MLOAD PUSH1 0x40 MLOAD DUP1 SWAP2 SUB SWAP1 LOG4 POP POP JUMP JUMPDEST CALLER SWAP1 JUMP JUMPDEST PUSH1 0x0 PUSH1 0x20 DUP3 DUP5 SUB SLT ISZERO PUSH3 0x1C4 JUMPI PUSH1 0x0 DUP1 REVERT JUMPDEST DUP2 MLOAD PUSH1 0x1 PUSH1 0x1 PUSH1 0xA0 SHL SUB DUP2 AND DUP2 EQ PUSH3 0x1DC JUMPI PUSH1 0x0 DUP1 REVERT JUMPDEST SWAP4 SWAP3 POP POP POP JUMP JUMPDEST PUSH2 0x478E DUP1 PUSH3 0x1F3 PUSH1 0x0 CODECOPY PUSH1 0x0 RETURN INVALID PUSH1 0x80 PUSH1 0x40 MSTORE CALLVALUE DUP1 ISZERO PUSH2 0x10 JUMPI PUSH1 0x0 DUP1 REVERT JUMPDEST POP PUSH1 0x4 CALLDATASIZE LT PUSH2 0x1F0 JUMPI PUSH1 0x0 CALLDATALOAD PUSH1 0xE0 SHR DUP1 PUSH4 0x8404ADC1 GT PUSH2 0x10F JUMPI DUP1 PUSH4 0xBC197C81 GT PUSH2 0xA2 JUMPI DUP1 PUSH4 0xE8C683FD GT PUSH2 0x71 JUMPI DUP1 PUSH4 0xE8C683FD EQ PUSH2 0x50A JUMPI DUP1 PUSH4 0xEA61401A EQ PUSH2 0x51D JUMPI DUP1 PUSH4 0xF23A6E61 EQ PUSH2 0x525 JUMPI DUP1 PUSH4 0xFBF3040D EQ PUSH2 0x55D JUMPI PUSH1 0x0 DUP1 REVERT JUMPDEST DUP1 PUSH4 0xBC197C81 EQ PUSH2 0x473 JUMPI DUP1 PUSH4 0xD547741F EQ PUSH2 0x4DC JUMPI DUP1 PUSH4 0xDE0EF5E4 EQ PUSH2 0x4EF JUMPI DUP1 PUSH4 0xE1394B90 EQ PUSH2 0x4F7 JUMPI PUSH1 0x0 DUP1 REVERT JUMPDEST DUP1 PUSH4 0xA217FDDF GT PUSH2 0xDE JUMPI DUP1 PUSH4 0xA217FDDF EQ PUSH2 0x432 JUMPI DUP1 PUSH4 0xAA2A7EEA EQ PUSH2 0x43A JUMPI DUP1 PUSH4 0xABB5D942 EQ PUSH2 0x44D JUMPI DUP1 PUSH4 0xAF90A2B7 EQ PUSH2 0x460 JUMPI PUSH1 0x0 DUP1 REVERT JUMPDEST DUP1 PUSH4 0x8404ADC1 EQ PUSH2 0x399 JUMPI DUP1 PUSH4 0x91D14854 EQ PUSH2 0x3AC JUMPI DUP1 PUSH4 0x92E11500 EQ PUSH2 0x3F2 JUMPI DUP1 PUSH4 0x94CBA64E EQ PUSH2 0x412 JUMPI PUSH1 0x0 DUP1 REVERT JUMPDEST DUP1 PUSH4 0x572B6C05 GT PUSH2 0x187 JUMPI DUP1 PUSH4 0x7F416510 GT PUSH2 0x156 JUMPI DUP1 PUSH4 0x7F416510 EQ PUSH2 0x363 JUMPI DUP1 PUSH4 0x7FF48190 EQ PUSH2 0x36B JUMPI DUP1 PUSH4 0x7FFB5C65 EQ PUSH2 0x37E JUMPI DUP1 PUSH4 0x826410FC EQ PUSH2 0x391 JUMPI PUSH1 0x0 DUP1 REVERT JUMPDEST DUP1 PUSH4 0x572B6C05 EQ PUSH2 0x2E1 JUMPI DUP1 PUSH4 0x5EC2D022 EQ PUSH2 0x310 JUMPI DUP1 PUSH4 0x60234AF9 EQ PUSH2 0x323 JUMPI DUP1 PUSH4 0x7F1D0AD2 EQ PUSH2 0x343 JUMPI PUSH1 0x0 DUP1 REVERT JUMPDEST DUP1 PUSH4 0xE1D1DA7 GT PUSH2 0x1C3 JUMPI DUP1 PUSH4 0xE1D1DA7 EQ PUSH2 0x269 JUMPI DUP1 PUSH4 0x248A9CA3 EQ PUSH2 0x289 JUMPI DUP1 PUSH4 0x2F2FF15D EQ PUSH2 0x2BB JUMPI DUP1 PUSH4 0x36568ABE EQ PUSH2 0x2CE JUMPI PUSH1 0x0 DUP1 REVERT JUMPDEST DUP1 PUSH4 0x1BAB168 EQ PUSH2 0x1F5 JUMPI DUP1 PUSH4 0x1FFC9A7 EQ PUSH2 0x21E JUMPI DUP1 PUSH4 0x21B0647 EQ PUSH2 0x241 JUMPI DUP1 PUSH4 0x7AF4117 EQ PUSH2 0x256 JUMPI JUMPDEST PUSH1 0x0 DUP1 REVERT JUMPDEST PUSH2 0x208 PUSH2 0x203 CALLDATASIZE PUSH1 0x4 PUSH2 0x3891 JUMP JUMPDEST PUSH2 0x5A0 JUMP JUMPDEST PUSH1 0x40 MLOAD PUSH2 0x215 SWAP2 SWAP1 PUSH2 0x38EE JUMP JUMPDEST PUSH1 0x40 MLOAD DUP1 SWAP2 SUB SWAP1 RETURN JUMPDEST PUSH2 0x231 PUSH2 0x22C CALLDATASIZE PUSH1 0x4 PUSH2 0x396E JUMP JUMPDEST PUSH2 0x696 JUMP JUMPDEST PUSH1 0x40 MLOAD SWAP1 ISZERO ISZERO DUP2 MSTORE PUSH1 0x20 ADD PUSH2 0x215 JUMP JUMPDEST PUSH2 0x254 PUSH2 0x24F CALLDATASIZE PUSH1 0x4 PUSH2 0x39B0 JUMP JUMPDEST PUSH2 0x738 JUMP JUMPDEST STOP JUMPDEST PUSH2 0x254 PUSH2 0x264 CALLDATASIZE PUSH1 0x4 PUSH2 0x39B0 JUMP JUMPDEST PUSH2 0x7D7 JUMP JUMPDEST PUSH2 0x27C PUSH2 0x277 CALLDATASIZE PUSH1 0x4 PUSH2 0x39B0 JUMP JUMPDEST PUSH2 0x862 JUMP JUMPDEST PUSH1 0x40 MLOAD PUSH2 0x215 SWAP2 SWAP1 PUSH2 0x39C9 JUMP JUMPDEST PUSH2 0x2AD PUSH2 0x297 CALLDATASIZE PUSH1 0x4 PUSH2 0x39B0 JUMP JUMPDEST PUSH1 0x0 SWAP1 DUP2 MSTORE PUSH1 0x1 PUSH1 0x20 DUP2 SWAP1 MSTORE PUSH1 0x40 SWAP1 SWAP2 KECCAK256 ADD SLOAD SWAP1 JUMP JUMPDEST PUSH1 0x40 MLOAD SWAP1 DUP2 MSTORE PUSH1 0x20 ADD PUSH2 0x215 JUMP JUMPDEST PUSH2 0x254 PUSH2 0x2C9 CALLDATASIZE PUSH1 0x4 PUSH2 0x3A05 JUMP JUMPDEST PUSH2 0x8E2 JUMP JUMPDEST PUSH2 0x254 PUSH2 0x2DC CALLDATASIZE PUSH1 0x4 PUSH2 0x3A05 JUMP JUMPDEST PUSH2 0x90D JUMP JUMPDEST PUSH2 0x231 PUSH2 0x2EF CALLDATASIZE PUSH1 0x4 PUSH2 0x3A31 JUMP JUMPDEST PUSH1 0x0 SLOAD PUSH20 0xFFFFFFFFFFFFFFFFFFFFFFFFFFFFFFFFFFFFFFFF SWAP2 DUP3 AND SWAP2 AND EQ SWAP1 JUMP JUMPDEST PUSH2 0x27C PUSH2 0x31E CALLDATASIZE PUSH1 0x4 PUSH2 0x3891 JUMP JUMPDEST PUSH2 0x9DD JUMP JUMPDEST PUSH2 0x336 PUSH2 0x331 CALLDATASIZE PUSH1 0x4 PUSH2 0x3891 JUMP JUMPDEST PUSH2 0xAB1 JUMP JUMPDEST PUSH1 0x40 MLOAD PUSH2 0x215 SWAP2 SWAP1 PUSH2 0x3B5C JUMP JUMPDEST PUSH2 0x356 PUSH2 0x351 CALLDATASIZE PUSH1 0x4 PUSH2 0x3BCF JUMP JUMPDEST PUSH2 0xE59 JUMP JUMPDEST PUSH1 0x40 MLOAD PUSH2 0x215 SWAP2 SWAP1 PUSH2 0x3C54 JUMP JUMPDEST PUSH2 0x208 PUSH2 0xFBA JUMP JUMPDEST PUSH2 0x254 PUSH2 0x379 CALLDATASIZE PUSH1 0x4 PUSH2 0x39B0 JUMP JUMPDEST PUSH2 0x106A JUMP JUMPDEST PUSH2 0x254 PUSH2 0x38C CALLDATASIZE PUSH1 0x4 PUSH2 0x3891 JUMP JUMPDEST PUSH2 0x14DB JUMP JUMPDEST PUSH2 0x2AD PUSH2 0x155F JUMP JUMPDEST PUSH2 0x254 PUSH2 0x3A7 CALLDATASIZE PUSH1 0x4 PUSH2 0x3CD8 JUMP JUMPDEST PUSH2 0x1570 JUMP JUMPDEST PUSH2 0x231 PUSH2 0x3BA CALLDATASIZE PUSH1 0x4 PUSH2 0x3A05 JUMP JUMPDEST PUSH1 0x0 SWAP2 DUP3 MSTORE PUSH1 0x1 PUSH1 0x20 SWAP1 DUP2 MSTORE PUSH1 0x40 DUP1 DUP5 KECCAK256 PUSH20 0xFFFFFFFFFFFFFFFFFFFFFFFFFFFFFFFFFFFFFFFF SWAP4 SWAP1 SWAP4 AND DUP5 MSTORE SWAP2 SWAP1 MSTORE SWAP1 KECCAK256 SLOAD PUSH1 0xFF AND SWAP1 JUMP JUMPDEST PUSH2 0x405 PUSH2 0x400 CALLDATASIZE PUSH1 0x4 PUSH2 0x39B0 JUMP JUMPDEST PUSH2 0x1B72 JUMP JUMPDEST PUSH1 0x40 MLOAD PUSH2 0x215 SWAP2 SWAP1 PUSH2 0x3DBC JUMP JUMPDEST PUSH2 0x425 PUSH2 0x420 CALLDATASIZE PUSH1 0x4 PUSH2 0x3DCF JUMP JUMPDEST PUSH2 0x1ED7 JUMP JUMPDEST PUSH1 0x40 MLOAD PUSH2 0x215 SWAP2 SWAP1 PUSH2 0x3E02 JUMP JUMPDEST PUSH2 0x2AD PUSH1 0x0 DUP2 JUMP JUMPDEST PUSH2 0x254 PUSH2 0x448 CALLDATASIZE PUSH1 0x4 PUSH2 0x3A31 JUMP JUMPDEST PUSH2 0x2102 JUMP JUMPDEST PUSH2 0x2AD PUSH2 0x45B CALLDATASIZE PUSH1 0x4 PUSH2 0x3BCF JUMP JUMPDEST PUSH2 0x2170 JUMP JUMPDEST PUSH2 0x356 PUSH2 0x46E CALLDATASIZE PUSH1 0x4 PUSH2 0x3E15 JUMP JUMPDEST PUSH2 0x2246 JUMP JUMPDEST PUSH2 0x4AB PUSH2 0x481 CALLDATASIZE PUSH1 0x4 PUSH2 0x3FDA JUMP JUMPDEST PUSH32 0xBC197C8100000000000000000000000000000000000000000000000000000000 SWAP6 SWAP5 POP POP POP POP POP JUMP JUMPDEST PUSH1 0x40 MLOAD PUSH32 0xFFFFFFFF00000000000000000000000000000000000000000000000000000000 SWAP1 SWAP2 AND DUP2 MSTORE PUSH1 0x20 ADD PUSH2 0x215 JUMP JUMPDEST PUSH2 0x254 PUSH2 0x4EA CALLDATASIZE PUSH1 0x4 PUSH2 0x3A05 JUMP JUMPDEST PUSH2 0x24DE JUMP JUMPDEST PUSH2 0x336 PUSH2 0x2504 JUMP JUMPDEST PUSH2 0x254 PUSH2 0x505 CALLDATASIZE PUSH1 0x4 PUSH2 0x39B0 JUMP JUMPDEST PUSH2 0x2874 JUMP JUMPDEST PUSH2 0x2AD PUSH2 0x518 CALLDATASIZE PUSH1 0x4 PUSH2 0x39B0 JUMP JUMPDEST PUSH2 0x294B JUMP JUMPDEST PUSH2 0x27C PUSH2 0x29CA JUMP JUMPDEST PUSH2 0x4AB PUSH2 0x533 CALLDATASIZE PUSH1 0x4 PUSH2 0x4084 JUMP JUMPDEST PUSH32 0xF23A6E6100000000000000000000000000000000000000000000000000000000 SWAP6 SWAP5 POP POP POP POP POP JUMP JUMPDEST PUSH2 0x2AD PUSH2 0x56B CALLDATASIZE PUSH1 0x4 PUSH2 0x3BCF JUMP JUMPDEST PUSH20 0xFFFFFFFFFFFFFFFFFFFFFFFFFFFFFFFFFFFFFFFF SWAP2 SWAP1 SWAP2 AND PUSH1 0x0 SWAP1 DUP2 MSTORE PUSH1 0x6 PUSH1 0x20 SWAP1 DUP2 MSTORE PUSH1 0x40 DUP1 DUP4 KECCAK256 SWAP4 DUP4 MSTORE SWAP3 SWAP1 MSTORE KECCAK256 SLOAD SWAP1 JUMP JUMPDEST PUSH1 0x60 PUSH1 0x0 PUSH2 0x5AE PUSH1 0x3 PUSH2 0x2A2A JUMP JUMPDEST DUP5 LT PUSH2 0x5BB JUMPI PUSH1 0x0 PUSH2 0x5D0 JUMP JUMPDEST DUP4 PUSH2 0x5C6 PUSH1 0x3 PUSH2 0x2A2A JUMP JUMPDEST PUSH2 0x5D0 SWAP2 SWAP1 PUSH2 0x4118 JUMP JUMPDEST SWAP1 POP PUSH1 0x0 DUP4 DUP3 GT ISZERO PUSH2 0x5E2 JUMPI DUP4 PUSH2 0x5E4 JUMP JUMPDEST DUP2 JUMPDEST SWAP1 POP PUSH1 0x0 DUP2 PUSH8 0xFFFFFFFFFFFFFFFF DUP2 GT ISZERO PUSH2 0x601 JUMPI PUSH2 0x601 PUSH2 0x3E4E JUMP JUMPDEST PUSH1 0x40 MLOAD SWAP1 DUP1 DUP3 MSTORE DUP1 PUSH1 0x20 MUL PUSH1 0x20 ADD DUP3 ADD PUSH1 0x40 MSTORE DUP1 ISZERO PUSH2 0x634 JUMPI DUP2 PUSH1 0x20 ADD JUMPDEST PUSH1 0x60 DUP2 MSTORE PUSH1 0x20 ADD SWAP1 PUSH1 0x1 SWAP1 SUB SWAP1 DUP2 PUSH2 0x61F JUMPI SWAP1 POP JUMPDEST POP SWAP1 POP PUSH1 0x0 JUMPDEST DUP3 DUP2 LT ISZERO PUSH2 0x68A JUMPI PUSH2 0x65A PUSH2 0x277 PUSH2 0x652 DUP4 DUP11 PUSH2 0x412B JUMP JUMPDEST PUSH1 0x3 SWAP1 PUSH2 0x2A34 JUMP JUMPDEST DUP3 DUP3 DUP2 MLOAD DUP2 LT PUSH2 0x66C JUMPI PUSH2 0x66C PUSH2 0x413E JUMP JUMPDEST PUSH1 0x20 MUL PUSH1 0x20 ADD ADD DUP2 SWAP1 MSTORE POP DUP1 DUP1 PUSH2 0x682 SWAP1 PUSH2 0x416D JUMP JUMPDEST SWAP2 POP POP PUSH2 0x63A JUMP JUMPDEST POP SWAP3 POP POP POP JUMPDEST SWAP3 SWAP2 POP POP JUMP JUMPDEST PUSH1 0x0 PUSH32 0xFFFFFFFF00000000000000000000000000000000000000000000000000000000 DUP3 AND PUSH32 0xF6ADCF6B00000000000000000000000000000000000000000000000000000000 EQ DUP1 PUSH2 0x729 JUMPI POP PUSH32 0xFFFFFFFF00000000000000000000000000000000000000000000000000000000 DUP3 AND PUSH32 0x4E2312E000000000000000000000000000000000000000000000000000000000 EQ JUMPDEST DUP1 PUSH2 0x690 JUMPI POP PUSH2 0x690 DUP3 PUSH2 0x2A47 JUMP JUMPDEST PUSH32 0xC9FC9949603A50F5CC3A96F774F1D68287789A241D2082DC81D0FB19A53BCF2B PUSH2 0x762 DUP2 PUSH2 0x2A9D JUMP JUMPDEST PUSH1 0x0 DUP3 GT PUSH2 0x7D1 JUMPI PUSH1 0x40 MLOAD PUSH32 0x8C379A000000000000000000000000000000000000000000000000000000000 DUP2 MSTORE PUSH1 0x20 PUSH1 0x4 DUP3 ADD MSTORE PUSH1 0x12 PUSH1 0x24 DUP3 ADD MSTORE PUSH32 0x4F66667365742063616E6E6F7420626520300000000000000000000000000000 PUSH1 0x44 DUP3 ADD MSTORE PUSH1 0x64 ADD JUMPDEST PUSH1 0x40 MLOAD DUP1 SWAP2 SUB SWAP1 REVERT JUMPDEST POP PUSH1 0x7 SSTORE JUMP JUMPDEST PUSH32 0xC9FC9949603A50F5CC3A96F774F1D68287789A241D2082DC81D0FB19A53BCF2B PUSH2 0x801 DUP2 PUSH2 0x2A9D JUMP JUMPDEST PUSH2 0x80C PUSH1 0x3 DUP4 PUSH2 0x2AB1 JUMP JUMPDEST POP PUSH1 0x0 DUP3 DUP2 MSTORE PUSH1 0x5 PUSH1 0x20 MSTORE PUSH1 0x40 SWAP1 DUP2 SWAP1 KECCAK256 SWAP1 MLOAD DUP4 SWAP1 PUSH32 0x864136C4EBCA2D8889222BC6E0378756C87AA96DBAC4E5645772CF08D4112EE SWAP1 PUSH2 0x84E SWAP1 DUP5 SWAP1 PUSH2 0x4304 JUMP JUMPDEST PUSH1 0x40 MLOAD DUP1 SWAP2 SUB SWAP1 LOG2 PUSH1 0x0 PUSH1 0xA SWAP1 SWAP2 ADD SSTORE POP POP JUMP JUMPDEST PUSH1 0x40 DUP1 MLOAD PUSH1 0x2 DUP1 DUP3 MSTORE PUSH1 0x60 DUP1 DUP4 ADD DUP5 MSTORE SWAP3 PUSH1 0x0 SWAP3 SWAP2 SWAP1 PUSH1 0x20 DUP4 ADD SWAP1 DUP1 CALLDATASIZE DUP4 CALLDATACOPY ADD SWAP1 POP POP SWAP1 POP DUP3 DUP2 PUSH1 0x0 DUP2 MLOAD DUP2 LT PUSH2 0x89B JUMPI PUSH2 0x89B PUSH2 0x413E JUMP JUMPDEST PUSH1 0x20 MUL PUSH1 0x20 ADD ADD DUP2 DUP2 MSTORE POP POP PUSH1 0x5 PUSH1 0x0 DUP5 DUP2 MSTORE PUSH1 0x20 ADD SWAP1 DUP2 MSTORE PUSH1 0x20 ADD PUSH1 0x0 KECCAK256 PUSH1 0xB ADD SLOAD DUP2 PUSH1 0x1 DUP2 MLOAD DUP2 LT PUSH2 0x8D1 JUMPI PUSH2 0x8D1 PUSH2 0x413E JUMP JUMPDEST PUSH1 0x20 SWAP1 DUP2 MUL SWAP2 SWAP1 SWAP2 ADD ADD MSTORE SWAP3 SWAP2 POP POP JUMP JUMPDEST PUSH1 0x0 DUP3 DUP2 MSTORE PUSH1 0x1 PUSH1 0x20 DUP2 SWAP1 MSTORE PUSH1 0x40 SWAP1 SWAP2 KECCAK256 ADD SLOAD PUSH2 0x8FE DUP2 PUSH2 0x2A9D JUMP JUMPDEST PUSH2 0x908 DUP4 DUP4 PUSH2 0x2ABD JUMP JUMPDEST POP POP POP JUMP JUMPDEST PUSH2 0x915 PUSH2 0x2BB3 JUMP JUMPDEST PUSH20 0xFFFFFFFFFFFFFFFFFFFFFFFFFFFFFFFFFFFFFFFF AND DUP2 PUSH20 0xFFFFFFFFFFFFFFFFFFFFFFFFFFFFFFFFFFFFFFFF AND EQ PUSH2 0x9CF JUMPI PUSH1 0x40 MLOAD PUSH32 0x8C379A000000000000000000000000000000000000000000000000000000000 DUP2 MSTORE PUSH1 0x20 PUSH1 0x4 DUP3 ADD MSTORE PUSH1 0x2F PUSH1 0x24 DUP3 ADD MSTORE PUSH32 0x416363657373436F6E74726F6C3A2063616E206F6E6C792072656E6F756E6365 PUSH1 0x44 DUP3 ADD MSTORE PUSH32 0x20726F6C657320666F722073656C660000000000000000000000000000000000 PUSH1 0x64 DUP3 ADD MSTORE PUSH1 0x84 ADD PUSH2 0x7C8 JUMP JUMPDEST PUSH2 0x9D9 DUP3 DUP3 PUSH2 0x2BBD JUMP JUMPDEST POP POP JUMP JUMPDEST PUSH1 0x60 PUSH1 0x0 PUSH2 0x9EB PUSH1 0x3 PUSH2 0x2A2A JUMP JUMPDEST DUP5 LT PUSH2 0x9F8 JUMPI PUSH1 0x0 PUSH2 0xA0D JUMP JUMPDEST DUP4 PUSH2 0xA03 PUSH1 0x3 PUSH2 0x2A2A JUMP JUMPDEST PUSH2 0xA0D SWAP2 SWAP1 PUSH2 0x4118 JUMP JUMPDEST SWAP1 POP PUSH1 0x0 DUP4 DUP3 GT ISZERO PUSH2 0xA1F JUMPI DUP4 PUSH2 0xA21 JUMP JUMPDEST DUP2 JUMPDEST SWAP1 POP PUSH1 0x0 DUP2 PUSH8 0xFFFFFFFFFFFFFFFF DUP2 GT ISZERO PUSH2 0xA3E JUMPI PUSH2 0xA3E PUSH2 0x3E4E JUMP JUMPDEST PUSH1 0x40 MLOAD SWAP1 DUP1 DUP3 MSTORE DUP1 PUSH1 0x20 MUL PUSH1 0x20 ADD DUP3 ADD PUSH1 0x40 MSTORE DUP1 ISZERO PUSH2 0xA67 JUMPI DUP2 PUSH1 0x20 ADD PUSH1 0x20 DUP3 MUL DUP1 CALLDATASIZE DUP4 CALLDATACOPY ADD SWAP1 POP JUMPDEST POP SWAP1 POP PUSH1 0x0 JUMPDEST DUP3 DUP2 LT ISZERO PUSH2 0x68A JUMPI PUSH2 0xA82 PUSH2 0x652 DUP3 DUP10 PUSH2 0x412B JUMP JUMPDEST DUP3 DUP3 DUP2 MLOAD DUP2 LT PUSH2 0xA94 JUMPI PUSH2 0xA94 PUSH2 0x413E JUMP JUMPDEST PUSH1 0x20 SWAP1 DUP2 MUL SWAP2 SWAP1 SWAP2 ADD ADD MSTORE DUP1 PUSH2 0xAA9 DUP2 PUSH2 0x416D JUMP JUMPDEST SWAP2 POP POP PUSH2 0xA6D JUMP JUMPDEST PUSH1 0x60 PUSH1 0x0 PUSH2 0xABF PUSH1 0x3 PUSH2 0x2A2A JUMP JUMPDEST DUP5 LT PUSH2 0xACC JUMPI PUSH1 0x0 PUSH2 0xAE1 JUMP JUMPDEST DUP4 PUSH2 0xAD7 PUSH1 0x3 PUSH2 0x2A2A JUMP JUMPDEST PUSH2 0xAE1 SWAP2 SWAP1 PUSH2 0x4118 JUMP JUMPDEST SWAP1 POP PUSH1 0x0 DUP4 DUP3 GT ISZERO PUSH2 0xAF3 JUMPI DUP4 PUSH2 0xAF5 JUMP JUMPDEST DUP2 JUMPDEST SWAP1 POP PUSH1 0x0 DUP2 PUSH8 0xFFFFFFFFFFFFFFFF DUP2 GT ISZERO PUSH2 0xB12 JUMPI PUSH2 0xB12 PUSH2 0x3E4E JUMP JUMPDEST PUSH1 0x40 MLOAD SWAP1 DUP1 DUP3 MSTORE DUP1 PUSH1 0x20 MUL PUSH1 0x20 ADD DUP3 ADD PUSH1 0x40 MSTORE DUP1 ISZERO PUSH2 0xBD3 JUMPI DUP2 PUSH1 0x20 ADD JUMPDEST PUSH2 0xBC0 PUSH1 0x40 MLOAD DUP1 PUSH2 0x180 ADD PUSH1 0x40 MSTORE DUP1 PUSH1 0x0 DUP2 MSTORE PUSH1 0x20 ADD PUSH1 0x0 PUSH20 0xFFFFFFFFFFFFFFFFFFFFFFFFFFFFFFFFFFFFFFFF AND DUP2 MSTORE PUSH1 0x20 ADD PUSH1 0x60 DUP2 MSTORE PUSH1 0x20 ADD PUSH1 0x60 DUP2 MSTORE PUSH1 0x20 ADD PUSH1 0x0 PUSH20 0xFFFFFFFFFFFFFFFFFFFFFFFFFFFFFFFFFFFFFFFF AND DUP2 MSTORE PUSH1 0x20 ADD PUSH1 0x60 DUP2 MSTORE PUSH1 0x20 ADD PUSH1 0x60 DUP2 MSTORE PUSH1 0x20 ADD PUSH1 0x60 DUP2 MSTORE PUSH1 0x20 ADD PUSH1 0x0 DUP2 MSTORE PUSH1 0x20 ADD PUSH1 0x0 DUP2 MSTORE PUSH1 0x20 ADD PUSH1 0x0 DUP2 MSTORE PUSH1 0x20 ADD PUSH1 0x0 DUP2 MSTORE POP SWAP1 JUMP JUMPDEST DUP2 MSTORE PUSH1 0x20 ADD SWAP1 PUSH1 0x1 SWAP1 SUB SWAP1 DUP2 PUSH2 0xB30 JUMPI SWAP1 POP JUMPDEST POP SWAP1 POP PUSH1 0x0 JUMPDEST DUP3 DUP2 LT ISZERO PUSH2 0x68A JUMPI PUSH1 0x5 PUSH1 0x0 PUSH2 0xBF2 PUSH2 0x652 DUP5 DUP12 PUSH2 0x412B JUMP JUMPDEST DUP2 MSTORE PUSH1 0x20 DUP1 DUP3 ADD SWAP3 SWAP1 SWAP3 MSTORE PUSH1 0x40 SWAP1 DUP2 ADD PUSH1 0x0 KECCAK256 DUP2 MLOAD PUSH2 0x180 DUP2 ADD DUP4 MSTORE DUP2 SLOAD DUP2 MSTORE PUSH1 0x1 DUP3 ADD SLOAD PUSH20 0xFFFFFFFFFFFFFFFFFFFFFFFFFFFFFFFFFFFFFFFF AND DUP2 DUP6 ADD MSTORE PUSH1 0x2 DUP3 ADD DUP1 SLOAD DUP5 MLOAD DUP2 DUP8 MUL DUP2 ADD DUP8 ADD DUP7 MSTORE DUP2 DUP2 MSTORE SWAP3 SWAP6 SWAP4 SWAP5 DUP7 ADD SWAP4 DUP4 ADD DUP3 DUP3 DUP1 ISZERO PUSH2 0xC7B JUMPI PUSH1 0x20 MUL DUP3 ADD SWAP2 SWAP1 PUSH1 0x0 MSTORE PUSH1 0x20 PUSH1 0x0 KECCAK256 SWAP1 JUMPDEST DUP2 SLOAD DUP2 MSTORE PUSH1 0x20 ADD SWAP1 PUSH1 0x1 ADD SWAP1 DUP1 DUP4 GT PUSH2 0xC67 JUMPI JUMPDEST POP POP POP POP POP DUP2 MSTORE PUSH1 0x20 ADD PUSH1 0x3 DUP3 ADD DUP1 SLOAD DUP1 PUSH1 0x20 MUL PUSH1 0x20 ADD PUSH1 0x40 MLOAD SWAP1 DUP2 ADD PUSH1 0x40 MSTORE DUP1 SWAP3 SWAP2 SWAP1 DUP2 DUP2 MSTORE PUSH1 0x20 ADD DUP3 DUP1 SLOAD DUP1 ISZERO PUSH2 0xCD3 JUMPI PUSH1 0x20 MUL DUP3 ADD SWAP2 SWAP1 PUSH1 0x0 MSTORE PUSH1 0x20 PUSH1 0x0 KECCAK256 SWAP1 JUMPDEST DUP2 SLOAD DUP2 MSTORE PUSH1 0x20 ADD SWAP1 PUSH1 0x1 ADD SWAP1 DUP1 DUP4 GT PUSH2 0xCBF JUMPI JUMPDEST POP POP POP SWAP2 DUP4 MSTORE POP POP PUSH1 0x4 DUP3 ADD SLOAD PUSH20 0xFFFFFFFFFFFFFFFFFFFFFFFFFFFFFFFFFFFFFFFF AND PUSH1 0x20 DUP1 DUP4 ADD SWAP2 SWAP1 SWAP2 MSTORE PUSH1 0x5 DUP4 ADD DUP1 SLOAD PUSH1 0x40 DUP1 MLOAD DUP3 DUP6 MUL DUP2 ADD DUP6 ADD DUP3 MSTORE DUP3 DUP2 MSTORE SWAP5 ADD SWAP4 SWAP3 DUP4 ADD DUP3 DUP3 DUP1 ISZERO PUSH2 0xD48 JUMPI PUSH1 0x20 MUL DUP3 ADD SWAP2 SWAP1 PUSH1 0x0 MSTORE PUSH1 0x20 PUSH1 0x0 KECCAK256 SWAP1 JUMPDEST DUP2 SLOAD DUP2 MSTORE PUSH1 0x20 ADD SWAP1 PUSH1 0x1 ADD SWAP1 DUP1 DUP4 GT PUSH2 0xD34 JUMPI JUMPDEST POP POP POP POP POP DUP2 MSTORE PUSH1 0x20 ADD PUSH1 0x6 DUP3 ADD DUP1 SLOAD DUP1 PUSH1 0x20 MUL PUSH1 0x20 ADD PUSH1 0x40 MLOAD SWAP1 DUP2 ADD PUSH1 0x40 MSTORE DUP1 SWAP3 SWAP2 SWAP1 DUP2 DUP2 MSTORE PUSH1 0x20 ADD DUP3 DUP1 SLOAD DUP1 ISZERO PUSH2 0xDA0 JUMPI PUSH1 0x20 MUL DUP3 ADD SWAP2 SWAP1 PUSH1 0x0 MSTORE PUSH1 0x20 PUSH1 0x0 KECCAK256 SWAP1 JUMPDEST DUP2 SLOAD DUP2 MSTORE PUSH1 0x20 ADD SWAP1 PUSH1 0x1 ADD SWAP1 DUP1 DUP4 GT PUSH2 0xD8C JUMPI JUMPDEST POP POP POP POP POP DUP2 MSTORE PUSH1 0x20 ADD PUSH1 0x7 DUP3 ADD DUP1 SLOAD DUP1 PUSH1 0x20 MUL PUSH1 0x20 ADD PUSH1 0x40 MLOAD SWAP1 DUP2 ADD PUSH1 0x40 MSTORE DUP1 SWAP3 SWAP2 SWAP1 DUP2 DUP2 MSTORE PUSH1 0x20 ADD DUP3 DUP1 SLOAD DUP1 ISZERO PUSH2 0xDF8 JUMPI PUSH1 0x20 MUL DUP3 ADD SWAP2 SWAP1 PUSH1 0x0 MSTORE PUSH1 0x20 PUSH1 0x0 KECCAK256 SWAP1 JUMPDEST DUP2 SLOAD DUP2 MSTORE PUSH1 0x20 ADD SWAP1 PUSH1 0x1 ADD SWAP1 DUP1 DUP4 GT PUSH2 0xDE4 JUMPI JUMPDEST POP POP POP POP POP DUP2 MSTORE PUSH1 0x20 ADD PUSH1 0x8 DUP3 ADD SLOAD DUP2 MSTORE PUSH1 0x20 ADD PUSH1 0x9 DUP3 ADD SLOAD DUP2 MSTORE PUSH1 0x20 ADD PUSH1 0xA DUP3 ADD SLOAD DUP2 MSTORE PUSH1 0x20 ADD PUSH1 0xB DUP3 ADD SLOAD DUP2 MSTORE POP POP DUP3 DUP3 DUP2 MLOAD DUP2 LT PUSH2 0xE3B JUMPI PUSH2 0xE3B PUSH2 0x413E JUMP JUMPDEST PUSH1 0x20 MUL PUSH1 0x20 ADD ADD DUP2 SWAP1 MSTORE POP DUP1 DUP1 PUSH2 0xE51 SWAP1 PUSH2 0x416D JUMP JUMPDEST SWAP2 POP POP PUSH2 0xBD9 JUMP JUMPDEST PUSH20 0xFFFFFFFFFFFFFFFFFFFFFFFFFFFFFFFFFFFFFFFF DUP3 AND PUSH1 0x0 SWAP1 DUP2 MSTORE PUSH1 0x6 PUSH1 0x20 SWAP1 DUP2 MSTORE PUSH1 0x40 DUP1 DUP4 KECCAK256 DUP5 DUP5 MSTORE DUP3 MSTORE DUP1 DUP4 KECCAK256 DUP1 SLOAD DUP3 MLOAD DUP2 DUP6 MUL DUP2 ADD DUP6 ADD SWAP1 SWAP4 MSTORE DUP1 DUP4 MSTORE PUSH1 0x60 SWAP5 SWAP3 SWAP4 SWAP2 SWAP3 SWAP1 SWAP2 DUP5 ADD JUMPDEST DUP3 DUP3 LT ISZERO PUSH2 0xFAE JUMPI DUP4 DUP3 SWAP1 PUSH1 0x0 MSTORE PUSH1 0x20 PUSH1 0x0 KECCAK256 SWAP1 PUSH1 0x5 MUL ADD PUSH1 0x40 MLOAD DUP1 PUSH1 0xA0 ADD PUSH1 0x40 MSTORE SWAP1 DUP2 PUSH1 0x0 DUP3 ADD SLOAD DUP2 MSTORE PUSH1 0x20 ADD PUSH1 0x1 DUP3 ADD SLOAD DUP2 MSTORE PUSH1 0x20 ADD PUSH1 0x2 DUP3 ADD DUP1 SLOAD DUP1 PUSH1 0x20 MUL PUSH1 0x20 ADD PUSH1 0x40 MLOAD SWAP1 DUP2 ADD PUSH1 0x40 MSTORE DUP1 SWAP3 SWAP2 SWAP1 DUP2 DUP2 MSTORE PUSH1 0x20 ADD DUP3 DUP1 SLOAD DUP1 ISZERO PUSH2 0xF2C JUMPI PUSH1 0x20 MUL DUP3 ADD SWAP2 SWAP1 PUSH1 0x0 MSTORE PUSH1 0x20 PUSH1 0x0 KECCAK256 SWAP1 JUMPDEST DUP2 SLOAD DUP2 MSTORE PUSH1 0x20 ADD SWAP1 PUSH1 0x1 ADD SWAP1 DUP1 DUP4 GT PUSH2 0xF18 JUMPI JUMPDEST POP POP POP POP POP DUP2 MSTORE PUSH1 0x20 ADD PUSH1 0x3 DUP3 ADD DUP1 SLOAD DUP1 PUSH1 0x20 MUL PUSH1 0x20 ADD PUSH1 0x40 MLOAD SWAP1 DUP2 ADD PUSH1 0x40 MSTORE DUP1 SWAP3 SWAP2 SWAP1 DUP2 DUP2 MSTORE PUSH1 0x20 ADD DUP3 DUP1 SLOAD DUP1 ISZERO PUSH2 0xF84 JUMPI PUSH1 0x20 MUL DUP3 ADD SWAP2 SWAP1 PUSH1 0x0 MSTORE PUSH1 0x20 PUSH1 0x0 KECCAK256 SWAP1 JUMPDEST DUP2 SLOAD DUP2 MSTORE PUSH1 0x20 ADD SWAP1 PUSH1 0x1 ADD SWAP1 DUP1 DUP4 GT PUSH2 0xF70 JUMPI JUMPDEST POP POP POP SWAP2 DUP4 MSTORE POP POP PUSH1 0x4 SWAP2 SWAP1 SWAP2 ADD SLOAD PUSH1 0xFF AND ISZERO ISZERO PUSH1 0x20 SWAP2 DUP3 ADD MSTORE SWAP1 DUP3 MSTORE PUSH1 0x1 SWAP3 SWAP1 SWAP3 ADD SWAP2 ADD PUSH2 0xEA6 JUMP JUMPDEST POP POP POP POP SWAP1 POP SWAP3 SWAP2 POP POP JUMP JUMPDEST PUSH1 0x60 PUSH1 0x0 PUSH2 0xFC6 PUSH2 0x155F JUMP JUMPDEST PUSH8 0xFFFFFFFFFFFFFFFF DUP2 GT ISZERO PUSH2 0xFDE JUMPI PUSH2 0xFDE PUSH2 0x3E4E JUMP JUMPDEST PUSH1 0x40 MLOAD SWAP1 DUP1 DUP3 MSTORE DUP1 PUSH1 0x20 MUL PUSH1 0x20 ADD DUP3 ADD PUSH1 0x40 MSTORE DUP1 ISZERO PUSH2 0x1011 JUMPI DUP2 PUSH1 0x20 ADD JUMPDEST PUSH1 0x60 DUP2 MSTORE PUSH1 0x20 ADD SWAP1 PUSH1 0x1 SWAP1 SUB SWAP1 DUP2 PUSH2 0xFFC JUMPI SWAP1 POP JUMPDEST POP SWAP1 POP PUSH1 0x0 JUMPDEST PUSH2 0x101F PUSH2 0x155F JUMP JUMPDEST DUP2 LT ISZERO PUSH2 0x1064 JUMPI PUSH2 0x1034 PUSH2 0x277 PUSH1 0x3 DUP4 PUSH2 0x2A34 JUMP JUMPDEST DUP3 DUP3 DUP2 MLOAD DUP2 LT PUSH2 0x1046 JUMPI PUSH2 0x1046 PUSH2 0x413E JUMP JUMPDEST PUSH1 0x20 MUL PUSH1 0x20 ADD ADD DUP2 SWAP1 MSTORE POP DUP1 DUP1 PUSH2 0x105C SWAP1 PUSH2 0x416D JUMP JUMPDEST SWAP2 POP POP PUSH2 0x1017 JUMP JUMPDEST POP SWAP2 SWAP1 POP JUMP JUMPDEST PUSH1 0x2 DUP1 SLOAD SUB PUSH2 0x10D5 JUMPI PUSH1 0x40 MLOAD PUSH32 0x8C379A000000000000000000000000000000000000000000000000000000000 DUP2 MSTORE PUSH1 0x20 PUSH1 0x4 DUP3 ADD MSTORE PUSH1 0x1F PUSH1 0x24 DUP3 ADD MSTORE PUSH32 0x5265656E7472616E637947756172643A207265656E7472616E742063616C6C00 PUSH1 0x44 DUP3 ADD MSTORE PUSH1 0x64 ADD PUSH2 0x7C8 JUMP JUMPDEST PUSH1 0x2 DUP1 SSTORE PUSH2 0x10E4 PUSH1 0x3 DUP3 PUSH2 0x2CB0 JUMP JUMPDEST PUSH2 0x1170 JUMPI PUSH1 0x40 MLOAD PUSH32 0x8C379A000000000000000000000000000000000000000000000000000000000 DUP2 MSTORE PUSH1 0x20 PUSH1 0x4 DUP3 ADD MSTORE PUSH1 0x2D PUSH1 0x24 DUP3 ADD MSTORE PUSH32 0x6C6F6F74626F78496420646F6573206E6F74206578697374206F722068617320 PUSH1 0x44 DUP3 ADD MSTORE PUSH32 0x6265656E2072656D6F7665642E00000000000000000000000000000000000000 PUSH1 0x64 DUP3 ADD MSTORE PUSH1 0x84 ADD PUSH2 0x7C8 JUMP JUMPDEST PUSH1 0x0 DUP2 DUP2 MSTORE PUSH1 0x5 PUSH1 0x20 MSTORE PUSH1 0x40 SWAP1 KECCAK256 PUSH1 0x1 DUP2 ADD SLOAD PUSH20 0xFFFFFFFFFFFFFFFFFFFFFFFFFFFFFFFFFFFFFFFF AND ISZERO PUSH2 0x135F JUMPI PUSH1 0x1 DUP2 ADD SLOAD PUSH1 0x40 MLOAD PUSH32 0x1FFC9A700000000000000000000000000000000000000000000000000000000 DUP2 MSTORE PUSH32 0x909AA65D00000000000000000000000000000000000000000000000000000000 PUSH1 0x4 DUP3 ADD MSTORE PUSH20 0xFFFFFFFFFFFFFFFFFFFFFFFFFFFFFFFFFFFFFFFF SWAP1 SWAP2 AND SWAP1 PUSH4 0x1FFC9A7 SWAP1 PUSH1 0x24 ADD PUSH1 0x20 PUSH1 0x40 MLOAD DUP1 DUP4 SUB DUP2 DUP7 GAS STATICCALL ISZERO DUP1 ISZERO PUSH2 0x122E JUMPI RETURNDATASIZE PUSH1 0x0 DUP1 RETURNDATACOPY RETURNDATASIZE PUSH1 0x0 REVERT JUMPDEST POP POP POP POP PUSH1 0x40 MLOAD RETURNDATASIZE PUSH1 0x1F NOT PUSH1 0x1F DUP3 ADD AND DUP3 ADD DUP1 PUSH1 0x40 MSTORE POP DUP2 ADD SWAP1 PUSH2 0x1252 SWAP2 SWAP1 PUSH2 0x4317 JUMP JUMPDEST ISZERO PUSH2 0x12DC JUMPI PUSH1 0x1 DUP2 ADD SLOAD PUSH20 0xFFFFFFFFFFFFFFFFFFFFFFFFFFFFFFFFFFFFFFFF AND PUSH4 0x4B7C78DC PUSH2 0x127F PUSH2 0x2BB3 JUMP JUMPDEST DUP4 PUSH1 0x2 ADD DUP5 PUSH1 0x3 ADD PUSH1 0x40 MLOAD DUP5 PUSH4 0xFFFFFFFF AND PUSH1 0xE0 SHL DUP2 MSTORE PUSH1 0x4 ADD PUSH2 0x12A5 SWAP4 SWAP3 SWAP2 SWAP1 PUSH2 0x4339 JUMP JUMPDEST PUSH1 0x0 PUSH1 0x40 MLOAD DUP1 DUP4 SUB DUP2 PUSH1 0x0 DUP8 DUP1 EXTCODESIZE ISZERO DUP1 ISZERO PUSH2 0x12BF JUMPI PUSH1 0x0 DUP1 REVERT JUMPDEST POP GAS CALL ISZERO DUP1 ISZERO PUSH2 0x12D3 JUMPI RETURNDATASIZE PUSH1 0x0 DUP1 RETURNDATACOPY RETURNDATASIZE PUSH1 0x0 REVERT JUMPDEST POP POP POP POP PUSH2 0x135F JUMP JUMPDEST PUSH1 0x1 DUP2 ADD SLOAD PUSH20 0xFFFFFFFFFFFFFFFFFFFFFFFFFFFFFFFFFFFFFFFF AND PUSH4 0x2EB2C2D6 PUSH2 0x1304 PUSH2 0x2BB3 JUMP JUMPDEST ADDRESS DUP5 PUSH1 0x2 ADD DUP6 PUSH1 0x3 ADD PUSH1 0x40 MLOAD DUP6 PUSH4 0xFFFFFFFF AND PUSH1 0xE0 SHL DUP2 MSTORE PUSH1 0x4 ADD PUSH2 0x132C SWAP5 SWAP4 SWAP3 SWAP2 SWAP1 PUSH2 0x4384 JUMP JUMPDEST PUSH1 0x0 PUSH1 0x40 MLOAD DUP1 DUP4 SUB DUP2 PUSH1 0x0 DUP8 DUP1 EXTCODESIZE ISZERO DUP1 ISZERO PUSH2 0x1346 JUMPI PUSH1 0x0 DUP1 REVERT JUMPDEST POP GAS CALL ISZERO DUP1 ISZERO PUSH2 0x135A JUMPI RETURNDATASIZE PUSH1 0x0 DUP1 RETURNDATACOPY RETURNDATASIZE PUSH1 0x0 REVERT JUMPDEST POP POP POP POP JUMPDEST PUSH2 0x1393 PUSH1 0x40 MLOAD DUP1 PUSH1 0xA0 ADD PUSH1 0x40 MSTORE DUP1 PUSH1 0x0 DUP2 MSTORE PUSH1 0x20 ADD PUSH1 0x0 DUP2 MSTORE PUSH1 0x20 ADD PUSH1 0x60 DUP2 MSTORE PUSH1 0x20 ADD PUSH1 0x60 DUP2 MSTORE PUSH1 0x20 ADD PUSH1 0x0 ISZERO ISZERO DUP2 MSTORE POP SWAP1 JUMP JUMPDEST DUP3 DUP2 MSTORE PUSH1 0x7 SLOAD PUSH2 0x13A3 SWAP1 NUMBER PUSH2 0x412B JUMP JUMPDEST PUSH1 0x20 DUP3 ADD MSTORE PUSH1 0x6 PUSH1 0x0 PUSH2 0x13B4 PUSH2 0x2BB3 JUMP JUMPDEST PUSH20 0xFFFFFFFFFFFFFFFFFFFFFFFFFFFFFFFFFFFFFFFF AND DUP2 MSTORE PUSH1 0x20 DUP1 DUP3 ADD SWAP3 SWAP1 SWAP3 MSTORE PUSH1 0x40 SWAP1 DUP2 ADD PUSH1 0x0 SWAP1 DUP2 KECCAK256 DUP7 DUP3 MSTORE DUP4 MSTORE DUP2 DUP2 KECCAK256 DUP1 SLOAD PUSH1 0x1 DUP2 DUP2 ADD DUP4 SSTORE SWAP2 DUP4 MSTORE SWAP2 DUP5 SWAP1 KECCAK256 DUP6 MLOAD PUSH1 0x5 SWAP1 SWAP4 MUL ADD SWAP2 DUP3 SSTORE DUP5 DUP5 ADD MLOAD SWAP1 DUP3 ADD SSTORE SWAP1 DUP4 ADD MLOAD DUP1 MLOAD DUP5 SWAP4 PUSH2 0x1423 SWAP3 PUSH1 0x2 DUP6 ADD SWAP3 SWAP2 ADD SWAP1 PUSH2 0x3831 JUMP JUMPDEST POP PUSH1 0x60 DUP3 ADD MLOAD DUP1 MLOAD PUSH2 0x143F SWAP2 PUSH1 0x3 DUP5 ADD SWAP2 PUSH1 0x20 SWAP1 SWAP2 ADD SWAP1 PUSH2 0x3831 JUMP JUMPDEST POP PUSH1 0x80 SWAP2 SWAP1 SWAP2 ADD MLOAD PUSH1 0x4 SWAP1 SWAP2 ADD DUP1 SLOAD PUSH32 0xFFFFFFFFFFFFFFFFFFFFFFFFFFFFFFFFFFFFFFFFFFFFFFFFFFFFFFFFFFFFFF00 AND SWAP2 ISZERO ISZERO SWAP2 SWAP1 SWAP2 OR SWAP1 SSTORE PUSH1 0xA DUP3 ADD DUP1 SLOAD SWAP1 PUSH1 0x0 PUSH2 0x148B DUP4 PUSH2 0x416D JUMP JUMPDEST SWAP2 SWAP1 POP SSTORE POP DUP3 PUSH32 0xCBE236CCB8BF2AE258FD54E73752D614C82AA6293D5256658CC3CE58DC4D4BF0 DUP4 PUSH2 0x14BB PUSH2 0x2BB3 JUMP JUMPDEST PUSH1 0x40 MLOAD PUSH2 0x14C9 SWAP3 SWAP2 SWAP1 PUSH2 0x43EC JUMP JUMPDEST PUSH1 0x40 MLOAD DUP1 SWAP2 SUB SWAP1 LOG2 POP POP PUSH1 0x1 PUSH1 0x2 SSTORE POP JUMP JUMPDEST PUSH1 0x2 DUP1 SLOAD SUB PUSH2 0x1546 JUMPI PUSH1 0x40 MLOAD PUSH32 0x8C379A000000000000000000000000000000000000000000000000000000000 DUP2 MSTORE PUSH1 0x20 PUSH1 0x4 DUP3 ADD MSTORE PUSH1 0x1F PUSH1 0x24 DUP3 ADD MSTORE PUSH32 0x5265656E7472616E637947756172643A207265656E7472616E742063616C6C00 PUSH1 0x44 DUP3 ADD MSTORE PUSH1 0x64 ADD PUSH2 0x7C8 JUMP JUMPDEST PUSH1 0x2 DUP1 SSTORE PUSH2 0x1556 DUP3 DUP3 PUSH1 0x1 PUSH2 0x2CC8 JUMP JUMPDEST POP POP PUSH1 0x1 PUSH1 0x2 SSTORE JUMP JUMPDEST PUSH1 0x0 PUSH2 0x156B PUSH1 0x3 PUSH2 0x2A2A JUMP JUMPDEST SWAP1 POP SWAP1 JUMP JUMPDEST PUSH32 0xC9FC9949603A50F5CC3A96F774F1D68287789A241D2082DC81D0FB19A53BCF2B PUSH2 0x159A DUP2 PUSH2 0x2A9D JUMP JUMPDEST PUSH2 0x15A4 DUP6 DUP1 PUSH2 0x4424 JUMP JUMPDEST SWAP1 POP PUSH2 0x15B0 DUP8 DUP1 PUSH2 0x4424 JUMP JUMPDEST SWAP1 POP EQ PUSH2 0x163F JUMPI PUSH1 0x40 MLOAD PUSH32 0x8C379A000000000000000000000000000000000000000000000000000000000 DUP2 MSTORE PUSH1 0x20 PUSH1 0x4 DUP3 ADD MSTORE PUSH1 0x2D PUSH1 0x24 DUP3 ADD MSTORE PUSH32 0x4D69736D61746368656420696E707574206974656D2069647320616E6420616D PUSH1 0x44 DUP3 ADD MSTORE PUSH32 0x6F756E74206C656E677468732E00000000000000000000000000000000000000 PUSH1 0x64 DUP3 ADD MSTORE PUSH1 0x84 ADD PUSH2 0x7C8 JUMP JUMPDEST PUSH2 0x164C PUSH1 0x20 DUP7 ADD DUP7 PUSH2 0x4424 JUMP JUMPDEST SWAP1 POP PUSH2 0x165B PUSH1 0x20 DUP9 ADD DUP9 PUSH2 0x4424 JUMP JUMPDEST SWAP1 POP EQ PUSH2 0x16EA JUMPI PUSH1 0x40 MLOAD PUSH32 0x8C379A000000000000000000000000000000000000000000000000000000000 DUP2 MSTORE PUSH1 0x20 PUSH1 0x4 DUP3 ADD MSTORE PUSH1 0x2D PUSH1 0x24 DUP3 ADD MSTORE PUSH32 0x4D69736D617463686564206F7574707574206974656D2069647320616E642061 PUSH1 0x44 DUP3 ADD MSTORE PUSH32 0x6D6F756E74206C656E6774682E00000000000000000000000000000000000000 PUSH1 0x64 DUP3 ADD MSTORE PUSH1 0x84 ADD PUSH2 0x7C8 JUMP JUMPDEST DUP3 PUSH2 0x16F8 PUSH1 0x20 DUP9 ADD DUP9 PUSH2 0x4424 JUMP JUMPDEST SWAP1 POP EQ PUSH2 0x1787 JUMPI PUSH1 0x40 MLOAD PUSH32 0x8C379A000000000000000000000000000000000000000000000000000000000 DUP2 MSTORE PUSH1 0x20 PUSH1 0x4 DUP3 ADD MSTORE PUSH1 0x31 PUSH1 0x24 DUP3 ADD MSTORE PUSH32 0x4D69736D61746368206F7574707574206974656D2069647320616E6420697465 PUSH1 0x44 DUP3 ADD MSTORE PUSH32 0x6D2077656967687473206C656E6774682E000000000000000000000000000000 PUSH1 0x64 DUP3 ADD MSTORE PUSH1 0x84 ADD PUSH2 0x7C8 JUMP JUMPDEST PUSH1 0x0 DUP1 JUMPDEST DUP5 DUP2 LT ISZERO PUSH2 0x17CB JUMPI DUP6 DUP6 DUP3 DUP2 DUP2 LT PUSH2 0x17A5 JUMPI PUSH2 0x17A5 PUSH2 0x413E JUMP JUMPDEST SWAP1 POP PUSH1 0x20 MUL ADD CALLDATALOAD DUP3 PUSH2 0x17B7 SWAP2 SWAP1 PUSH2 0x412B JUMP JUMPDEST SWAP2 POP DUP1 PUSH2 0x17C3 DUP2 PUSH2 0x416D JUMP JUMPDEST SWAP2 POP POP PUSH2 0x178B JUMP JUMPDEST POP PUSH1 0x0 PUSH1 0x40 MLOAD DUP1 PUSH2 0x180 ADD PUSH1 0x40 MSTORE DUP1 DUP12 DUP2 MSTORE PUSH1 0x20 ADD DUP11 PUSH1 0x0 PUSH1 0x2 DUP2 LT PUSH2 0x17F3 JUMPI PUSH2 0x17F3 PUSH2 0x413E JUMP JUMPDEST PUSH1 0x20 MUL ADD PUSH1 0x20 DUP2 ADD SWAP1 PUSH2 0x1806 SWAP2 SWAP1 PUSH2 0x3A31 JUMP JUMPDEST PUSH20 0xFFFFFFFFFFFFFFFFFFFFFFFFFFFFFFFFFFFFFFFF AND DUP2 MSTORE PUSH1 0x20 ADD PUSH2 0x182B DUP11 DUP1 PUSH2 0x4424 JUMP JUMPDEST DUP1 DUP1 PUSH1 0x20 MUL PUSH1 0x20 ADD PUSH1 0x40 MLOAD SWAP1 DUP2 ADD PUSH1 0x40 MSTORE DUP1 SWAP4 SWAP3 SWAP2 SWAP1 DUP2 DUP2 MSTORE PUSH1 0x20 ADD DUP4 DUP4 PUSH1 0x20 MUL DUP1 DUP3 DUP5 CALLDATACOPY PUSH1 0x0 SWAP3 ADD SWAP2 SWAP1 SWAP2 MSTORE POP POP POP SWAP1 DUP3 MSTORE POP PUSH1 0x20 ADD PUSH2 0x186C DUP10 DUP1 PUSH2 0x4424 JUMP JUMPDEST DUP1 DUP1 PUSH1 0x20 MUL PUSH1 0x20 ADD PUSH1 0x40 MLOAD SWAP1 DUP2 ADD PUSH1 0x40 MSTORE DUP1 SWAP4 SWAP3 SWAP2 SWAP1 DUP2 DUP2 MSTORE PUSH1 0x20 ADD DUP4 DUP4 PUSH1 0x20 MUL DUP1 DUP3 DUP5 CALLDATACOPY PUSH1 0x0 SWAP3 ADD SWAP2 SWAP1 SWAP2 MSTORE POP POP POP SWAP1 DUP3 MSTORE POP PUSH1 0x20 SWAP1 DUP2 ADD SWAP1 PUSH2 0x18B6 SWAP1 PUSH1 0x40 DUP14 ADD SWAP1 DUP14 ADD PUSH2 0x3A31 JUMP JUMPDEST PUSH20 0xFFFFFFFFFFFFFFFFFFFFFFFFFFFFFFFFFFFFFFFF AND DUP2 MSTORE PUSH1 0x20 SWAP1 DUP2 ADD SWAP1 PUSH2 0x18E0 SWAP1 DUP12 ADD DUP12 PUSH2 0x4424 JUMP JUMPDEST DUP1 DUP1 PUSH1 0x20 MUL PUSH1 0x20 ADD PUSH1 0x40 MLOAD SWAP1 DUP2 ADD PUSH1 0x40 MSTORE DUP1 SWAP4 SWAP3 SWAP2 SWAP1 DUP2 DUP2 MSTORE PUSH1 0x20 ADD DUP4 DUP4 PUSH1 0x20 MUL DUP1 DUP3 DUP5 CALLDATACOPY PUSH1 0x0 SWAP3 ADD SWAP2 SWAP1 SWAP2 MSTORE POP POP POP SWAP1 DUP3 MSTORE POP PUSH1 0x20 SWAP1 DUP2 ADD SWAP1 PUSH2 0x1926 SWAP1 DUP11 ADD DUP11 PUSH2 0x4424 JUMP JUMPDEST DUP1 DUP1 PUSH1 0x20 MUL PUSH1 0x20 ADD PUSH1 0x40 MLOAD SWAP1 DUP2 ADD PUSH1 0x40 MSTORE DUP1 SWAP4 SWAP3 SWAP2 SWAP1 DUP2 DUP2 MSTORE PUSH1 0x20 ADD DUP4 DUP4 PUSH1 0x20 MUL DUP1 DUP3 DUP5 CALLDATACOPY PUSH1 0x0 SWAP3 ADD SWAP2 SWAP1 SWAP2 MSTORE POP POP POP SWAP1 DUP3 MSTORE POP PUSH1 0x40 DUP1 MLOAD PUSH1 0x20 DUP10 DUP2 MUL DUP3 DUP2 ADD DUP3 ADD SWAP1 SWAP4 MSTORE DUP10 DUP3 MSTORE SWAP3 DUP4 ADD SWAP3 SWAP1 SWAP2 DUP11 SWAP2 DUP11 SWAP2 DUP3 SWAP2 DUP6 ADD SWAP1 DUP5 SWAP1 DUP1 DUP3 DUP5 CALLDATACOPY PUSH1 0x0 SWAP3 ADD DUP3 SWAP1 MSTORE POP SWAP4 DUP6 MSTORE POP POP POP PUSH1 0x20 DUP1 DUP4 ADD DUP7 SWAP1 MSTORE PUSH1 0x40 DUP1 DUP5 ADD DUP10 SWAP1 MSTORE DUP15 DUP4 MSTORE PUSH1 0x5 SWAP1 SWAP2 MSTORE SWAP1 KECCAK256 PUSH1 0xA ADD SLOAD PUSH1 0x60 DUP3 ADD MSTORE TIMESTAMP PUSH1 0x80 SWAP1 SWAP2 ADD MSTORE SWAP1 POP PUSH2 0x19C8 PUSH1 0x3 DUP12 PUSH2 0x32A4 JUMP JUMPDEST POP PUSH1 0x0 DUP11 DUP2 MSTORE PUSH1 0x5 PUSH1 0x20 SWAP1 DUP2 MSTORE PUSH1 0x40 SWAP2 DUP3 SWAP1 KECCAK256 DUP4 MLOAD DUP2 SSTORE DUP4 DUP3 ADD MLOAD PUSH1 0x1 DUP3 ADD DUP1 SLOAD PUSH32 0xFFFFFFFFFFFFFFFFFFFFFFFF0000000000000000000000000000000000000000 AND PUSH20 0xFFFFFFFFFFFFFFFFFFFFFFFFFFFFFFFFFFFFFFFF SWAP1 SWAP3 AND SWAP2 SWAP1 SWAP2 OR SWAP1 SSTORE SWAP2 DUP4 ADD MLOAD DUP1 MLOAD DUP5 SWAP4 SWAP3 PUSH2 0x1A43 SWAP3 PUSH1 0x2 DUP6 ADD SWAP3 SWAP2 ADD SWAP1 PUSH2 0x3831 JUMP JUMPDEST POP PUSH1 0x60 DUP3 ADD MLOAD DUP1 MLOAD PUSH2 0x1A5F SWAP2 PUSH1 0x3 DUP5 ADD SWAP2 PUSH1 0x20 SWAP1 SWAP2 ADD SWAP1 PUSH2 0x3831 JUMP JUMPDEST POP PUSH1 0x80 DUP3 ADD MLOAD PUSH1 0x4 DUP3 ADD DUP1 SLOAD PUSH32 0xFFFFFFFFFFFFFFFFFFFFFFFF0000000000000000000000000000000000000000 AND PUSH20 0xFFFFFFFFFFFFFFFFFFFFFFFFFFFFFFFFFFFFFFFF SWAP1 SWAP3 AND SWAP2 SWAP1 SWAP2 OR SWAP1 SSTORE PUSH1 0xA0 DUP3 ADD MLOAD DUP1 MLOAD PUSH2 0x1AC6 SWAP2 PUSH1 0x5 DUP5 ADD SWAP2 PUSH1 0x20 SWAP1 SWAP2 ADD SWAP1 PUSH2 0x3831 JUMP JUMPDEST POP PUSH1 0xC0 DUP3 ADD MLOAD DUP1 MLOAD PUSH2 0x1AE2 SWAP2 PUSH1 0x6 DUP5 ADD SWAP2 PUSH1 0x20 SWAP1 SWAP2 ADD SWAP1 PUSH2 0x3831 JUMP JUMPDEST POP PUSH1 0xE0 DUP3 ADD MLOAD DUP1 MLOAD PUSH2 0x1AFE SWAP2 PUSH1 0x7 DUP5 ADD SWAP2 PUSH1 0x20 SWAP1 SWAP2 ADD SWAP1 PUSH2 0x3831 JUMP JUMPDEST POP PUSH2 0x100 DUP3 ADD MLOAD DUP2 PUSH1 0x8 ADD SSTORE PUSH2 0x120 DUP3 ADD MLOAD DUP2 PUSH1 0x9 ADD SSTORE PUSH2 0x140 DUP3 ADD MLOAD DUP2 PUSH1 0xA ADD SSTORE PUSH2 0x160 DUP3 ADD MLOAD DUP2 PUSH1 0xB ADD SSTORE SWAP1 POP POP DUP10 PUSH32 0xB2E547EB18679A18EE72BF11D33344B9A6A24F4AFECF77E5FF1833294B4B0AB9 DUP3 PUSH1 0x40 MLOAD PUSH2 0x1B5E SWAP2 SWAP1 PUSH2 0x3DBC JUMP JUMPDEST PUSH1 0x40 MLOAD DUP1 SWAP2 SUB SWAP1 LOG2 POP POP POP POP POP POP POP POP POP POP JUMP JUMPDEST PUSH2 0x1C02 PUSH1 0x40 MLOAD DUP1 PUSH2 0x180 ADD PUSH1 0x40 MSTORE DUP1 PUSH1 0x0 DUP2 MSTORE PUSH1 0x20 ADD PUSH1 0x0 PUSH20 0xFFFFFFFFFFFFFFFFFFFFFFFFFFFFFFFFFFFFFFFF AND DUP2 MSTORE PUSH1 0x20 ADD PUSH1 0x60 DUP2 MSTORE PUSH1 0x20 ADD PUSH1 0x60 DUP2 MSTORE PUSH1 0x20 ADD PUSH1 0x0 PUSH20 0xFFFFFFFFFFFFFFFFFFFFFFFFFFFFFFFFFFFFFFFF AND DUP2 MSTORE PUSH1 0x20 ADD PUSH1 0x60 DUP2 MSTORE PUSH1 0x20 ADD PUSH1 0x60 DUP2 MSTORE PUSH1 0x20 ADD PUSH1 0x60 DUP2 MSTORE PUSH1 0x20 ADD PUSH1 0x0 DUP2 MSTORE PUSH1 0x20 ADD PUSH1 0x0 DUP2 MSTORE PUSH1 0x20 ADD PUSH1 0x0 DUP2 MSTORE PUSH1 0x20 ADD PUSH1 0x0 DUP2 MSTORE POP SWAP1 JUMP JUMPDEST PUSH2 0x1C0D PUSH1 0x3 DUP4 PUSH2 0x2CB0 JUMP JUMPDEST PUSH2 0x1C99 JUMPI PUSH1 0x40 MLOAD PUSH32 0x8C379A000000000000000000000000000000000000000000000000000000000 DUP2 MSTORE PUSH1 0x20 PUSH1 0x4 DUP3 ADD MSTORE PUSH1 0x2D PUSH1 0x24 DUP3 ADD MSTORE PUSH32 0x6C6F6F74626F78496420646F6573206E6F74206578697374206F722068617320 PUSH1 0x44 DUP3 ADD MSTORE PUSH32 0x6265656E2072656D6F7665642E00000000000000000000000000000000000000 PUSH1 0x64 DUP3 ADD MSTORE PUSH1 0x84 ADD PUSH2 0x7C8 JUMP JUMPDEST PUSH1 0x0 DUP3 DUP2 MSTORE PUSH1 0x5 PUSH1 0x20 SWAP1 DUP2 MSTORE PUSH1 0x40 SWAP2 DUP3 SWAP1 KECCAK256 DUP3 MLOAD PUSH2 0x180 DUP2 ADD DUP5 MSTORE DUP2 SLOAD DUP2 MSTORE PUSH1 0x1 DUP3 ADD SLOAD PUSH20 0xFFFFFFFFFFFFFFFFFFFFFFFFFFFFFFFFFFFFFFFF AND DUP2 DUP5 ADD MSTORE PUSH1 0x2 DUP3 ADD DUP1 SLOAD DUP6 MLOAD DUP2 DUP7 MUL DUP2 ADD DUP7 ADD DUP8 MSTORE DUP2 DUP2 MSTORE SWAP3 SWAP6 SWAP4 SWAP5 SWAP4 DUP7 ADD SWAP4 DUP4 ADD DUP3 DUP3 DUP1 ISZERO PUSH2 0x1D22 JUMPI PUSH1 0x20 MUL DUP3 ADD SWAP2 SWAP1 PUSH1 0x0 MSTORE PUSH1 0x20 PUSH1 0x0 KECCAK256 SWAP1 JUMPDEST DUP2 SLOAD DUP2 MSTORE PUSH1 0x20 ADD SWAP1 PUSH1 0x1 ADD SWAP1 DUP1 DUP4 GT PUSH2 0x1D0E JUMPI JUMPDEST POP POP POP POP POP DUP2 MSTORE PUSH1 0x20 ADD PUSH1 0x3 DUP3 ADD DUP1 SLOAD DUP1 PUSH1 0x20 MUL PUSH1 0x20 ADD PUSH1 0x40 MLOAD SWAP1 DUP2 ADD PUSH1 0x40 MSTORE DUP1 SWAP3 SWAP2 SWAP1 DUP2 DUP2 MSTORE PUSH1 0x20 ADD DUP3 DUP1 SLOAD DUP1 ISZERO PUSH2 0x1D7A JUMPI PUSH1 0x20 MUL DUP3 ADD SWAP2 SWAP1 PUSH1 0x0 MSTORE PUSH1 0x20 PUSH1 0x0 KECCAK256 SWAP1 JUMPDEST DUP2 SLOAD DUP2 MSTORE PUSH1 0x20 ADD SWAP1 PUSH1 0x1 ADD SWAP1 DUP1 DUP4 GT PUSH2 0x1D66 JUMPI JUMPDEST POP POP POP SWAP2 DUP4 MSTORE POP POP PUSH1 0x4 DUP3 ADD SLOAD PUSH20 0xFFFFFFFFFFFFFFFFFFFFFFFFFFFFFFFFFFFFFFFF AND PUSH1 0x20 DUP1 DUP4 ADD SWAP2 SWAP1 SWAP2 MSTORE PUSH1 0x5 DUP4 ADD DUP1 SLOAD PUSH1 0x40 DUP1 MLOAD DUP3 DUP6 MUL DUP2 ADD DUP6 ADD DUP3 MSTORE DUP3 DUP2 MSTORE SWAP5 ADD SWAP4 SWAP3 DUP4 ADD DUP3 DUP3 DUP1 ISZERO PUSH2 0x1DEF JUMPI PUSH1 0x20 MUL DUP3 ADD SWAP2 SWAP1 PUSH1 0x0 MSTORE PUSH1 0x20 PUSH1 0x0 KECCAK256 SWAP1 JUMPDEST DUP2 SLOAD DUP2 MSTORE PUSH1 0x20 ADD SWAP1 PUSH1 0x1 ADD SWAP1 DUP1 DUP4 GT PUSH2 0x1DDB JUMPI JUMPDEST POP POP POP POP POP DUP2 MSTORE PUSH1 0x20 ADD PUSH1 0x6 DUP3 ADD DUP1 SLOAD DUP1 PUSH1 0x20 MUL PUSH1 0x20 ADD PUSH1 0x40 MLOAD SWAP1 DUP2 ADD PUSH1 0x40 MSTORE DUP1 SWAP3 SWAP2 SWAP1 DUP2 DUP2 MSTORE PUSH1 0x20 ADD DUP3 DUP1 SLOAD DUP1 ISZERO PUSH2 0x1E47 JUMPI PUSH1 0x20 MUL DUP3 ADD SWAP2 SWAP1 PUSH1 0x0 MSTORE PUSH1 0x20 PUSH1 0x0 KECCAK256 SWAP1 JUMPDEST DUP2 SLOAD DUP2 MSTORE PUSH1 0x20 ADD SWAP1 PUSH1 0x1 ADD SWAP1 DUP1 DUP4 GT PUSH2 0x1E33 JUMPI JUMPDEST POP POP POP POP POP DUP2 MSTORE PUSH1 0x20 ADD PUSH1 0x7 DUP3 ADD DUP1 SLOAD DUP1 PUSH1 0x20 MUL PUSH1 0x20 ADD PUSH1 0x40 MLOAD SWAP1 DUP2 ADD PUSH1 0x40 MSTORE DUP1 SWAP3 SWAP2 SWAP1 DUP2 DUP2 MSTORE PUSH1 0x20 ADD DUP3 DUP1 SLOAD DUP1 ISZERO PUSH2 0x1E9F JUMPI PUSH1 0x20 MUL DUP3 ADD SWAP2 SWAP1 PUSH1 0x0 MSTORE PUSH1 0x20 PUSH1 0x0 KECCAK256 SWAP1 JUMPDEST DUP2 SLOAD DUP2 MSTORE PUSH1 0x20 ADD SWAP1 PUSH1 0x1 ADD SWAP1 DUP1 DUP4 GT PUSH2 0x1E8B JUMPI JUMPDEST POP POP POP POP POP DUP2 MSTORE PUSH1 0x20 ADD PUSH1 0x8 DUP3 ADD SLOAD DUP2 MSTORE PUSH1 0x20 ADD PUSH1 0x9 DUP3 ADD SLOAD DUP2 MSTORE PUSH1 0x20 ADD PUSH1 0xA DUP3 ADD SLOAD DUP2 MSTORE PUSH1 0x20 ADD PUSH1 0xB DUP3 ADD SLOAD DUP2 MSTORE POP POP SWAP1 POP SWAP2 SWAP1 POP JUMP JUMPDEST PUSH2 0x1F0B PUSH1 0x40 MLOAD DUP1 PUSH1 0xA0 ADD PUSH1 0x40 MSTORE DUP1 PUSH1 0x0 DUP2 MSTORE PUSH1 0x20 ADD PUSH1 0x0 DUP2 MSTORE PUSH1 0x20 ADD PUSH1 0x60 DUP2 MSTORE PUSH1 0x20 ADD PUSH1 0x60 DUP2 MSTORE PUSH1 0x20 ADD PUSH1 0x0 ISZERO ISZERO DUP2 MSTORE POP SWAP1 JUMP JUMPDEST PUSH20 0xFFFFFFFFFFFFFFFFFFFFFFFFFFFFFFFFFFFFFFFF DUP5 AND PUSH1 0x0 SWAP1 DUP2 MSTORE PUSH1 0x6 PUSH1 0x20 SWAP1 DUP2 MSTORE PUSH1 0x40 DUP1 DUP4 KECCAK256 DUP7 DUP5 MSTORE SWAP1 SWAP2 MSTORE SWAP1 KECCAK256 SLOAD DUP3 LT PUSH2 0x1FCA JUMPI PUSH1 0x40 MLOAD PUSH32 0x8C379A000000000000000000000000000000000000000000000000000000000 DUP2 MSTORE PUSH1 0x20 PUSH1 0x4 DUP3 ADD MSTORE PUSH1 0x23 PUSH1 0x24 DUP3 ADD MSTORE PUSH32 0x6F70656E65644C6F6F74626F78496E64657820646F6573206E6F742065786973 PUSH1 0x44 DUP3 ADD MSTORE PUSH32 0x74732E0000000000000000000000000000000000000000000000000000000000 PUSH1 0x64 DUP3 ADD MSTORE PUSH1 0x84 ADD PUSH2 0x7C8 JUMP JUMPDEST PUSH20 0xFFFFFFFFFFFFFFFFFFFFFFFFFFFFFFFFFFFFFFFF DUP5 AND PUSH1 0x0 SWAP1 DUP2 MSTORE PUSH1 0x6 PUSH1 0x20 SWAP1 DUP2 MSTORE PUSH1 0x40 DUP1 DUP4 KECCAK256 DUP7 DUP5 MSTORE SWAP1 SWAP2 MSTORE SWAP1 KECCAK256 DUP1 SLOAD DUP4 SWAP1 DUP2 LT PUSH2 0x200C JUMPI PUSH2 0x200C PUSH2 0x413E JUMP JUMPDEST SWAP1 PUSH1 0x0 MSTORE PUSH1 0x20 PUSH1 0x0 KECCAK256 SWAP1 PUSH1 0x5 MUL ADD PUSH1 0x40 MLOAD DUP1 PUSH1 0xA0 ADD PUSH1 0x40 MSTORE SWAP1 DUP2 PUSH1 0x0 DUP3 ADD SLOAD DUP2 MSTORE PUSH1 0x20 ADD PUSH1 0x1 DUP3 ADD SLOAD DUP2 MSTORE PUSH1 0x20 ADD PUSH1 0x2 DUP3 ADD DUP1 SLOAD DUP1 PUSH1 0x20 MUL PUSH1 0x20 ADD PUSH1 0x40 MLOAD SWAP1 DUP2 ADD PUSH1 0x40 MSTORE DUP1 SWAP3 SWAP2 SWAP1 DUP2 DUP2 MSTORE PUSH1 0x20 ADD DUP3 DUP1 SLOAD DUP1 ISZERO PUSH2 0x2088 JUMPI PUSH1 0x20 MUL DUP3 ADD SWAP2 SWAP1 PUSH1 0x0 MSTORE PUSH1 0x20 PUSH1 0x0 KECCAK256 SWAP1 JUMPDEST DUP2 SLOAD DUP2 MSTORE PUSH1 0x20 ADD SWAP1 PUSH1 0x1 ADD SWAP1 DUP1 DUP4 GT PUSH2 0x2074 JUMPI JUMPDEST POP POP POP POP POP DUP2 MSTORE PUSH1 0x20 ADD PUSH1 0x3 DUP3 ADD DUP1 SLOAD DUP1 PUSH1 0x20 MUL PUSH1 0x20 ADD PUSH1 0x40 MLOAD SWAP1 DUP2 ADD PUSH1 0x40 MSTORE DUP1 SWAP3 SWAP2 SWAP1 DUP2 DUP2 MSTORE PUSH1 0x20 ADD DUP3 DUP1 SLOAD DUP1 ISZERO PUSH2 0x20E0 JUMPI PUSH1 0x20 MUL DUP3 ADD SWAP2 SWAP1 PUSH1 0x0 MSTORE PUSH1 0x20 PUSH1 0x0 KECCAK256 SWAP1 JUMPDEST DUP2 SLOAD DUP2 MSTORE PUSH1 0x20 ADD SWAP1 PUSH1 0x1 ADD SWAP1 DUP1 DUP4 GT PUSH2 0x20CC JUMPI JUMPDEST POP POP POP SWAP2 DUP4 MSTORE POP POP PUSH1 0x4 SWAP2 SWAP1 SWAP2 ADD SLOAD PUSH1 0xFF AND ISZERO ISZERO PUSH1 0x20 SWAP1 SWAP2 ADD MSTORE SWAP5 SWAP4 POP POP POP POP JUMP JUMPDEST PUSH32 0xC9FC9949603A50F5CC3A96F774F1D68287789A241D2082DC81D0FB19A53BCF2B PUSH2 0x212C DUP2 PUSH2 0x2A9D JUMP JUMPDEST PUSH1 0x0 DUP1 SLOAD PUSH32 0xFFFFFFFFFFFFFFFFFFFFFFFF0000000000000000000000000000000000000000 AND PUSH20 0xFFFFFFFFFFFFFFFFFFFFFFFFFFFFFFFFFFFFFFFF DUP5 AND OR SWAP1 SSTORE POP POP JUMP JUMPDEST PUSH1 0x0 DUP1 DUP1 JUMPDEST PUSH20 0xFFFFFFFFFFFFFFFFFFFFFFFFFFFFFFFFFFFFFFFF DUP6 AND PUSH1 0x0 SWAP1 DUP2 MSTORE PUSH1 0x6 PUSH1 0x20 SWAP1 DUP2 MSTORE PUSH1 0x40 DUP1 DUP4 KECCAK256 DUP8 DUP5 MSTORE SWAP1 SWAP2 MSTORE SWAP1 KECCAK256 SLOAD DUP2 LT ISZERO PUSH2 0x223E JUMPI PUSH20 0xFFFFFFFFFFFFFFFFFFFFFFFFFFFFFFFFFFFFFFFF DUP6 AND PUSH1 0x0 SWAP1 DUP2 MSTORE PUSH1 0x6 PUSH1 0x20 SWAP1 DUP2 MSTORE PUSH1 0x40 DUP1 DUP4 KECCAK256 DUP8 DUP5 MSTORE SWAP1 SWAP2 MSTORE DUP2 KECCAK256 DUP1 SLOAD DUP4 SWAP1 DUP2 LT PUSH2 0x21EF JUMPI PUSH2 0x21EF PUSH2 0x413E JUMP JUMPDEST SWAP1 PUSH1 0x0 MSTORE PUSH1 0x20 PUSH1 0x0 KECCAK256 SWAP1 PUSH1 0x5 MUL ADD SWAP1 POP DUP1 PUSH1 0x1 ADD SLOAD NUMBER LT ISZERO DUP1 ISZERO PUSH2 0x2218 JUMPI POP PUSH1 0x4 DUP2 ADD SLOAD PUSH1 0xFF AND ISZERO JUMPDEST ISZERO PUSH2 0x222B JUMPI DUP3 PUSH2 0x2227 DUP2 PUSH2 0x416D JUMP JUMPDEST SWAP4 POP POP JUMPDEST POP DUP1 PUSH2 0x2236 DUP2 PUSH2 0x416D JUMP JUMPDEST SWAP2 POP POP PUSH2 0x2175 JUMP JUMPDEST POP SWAP4 SWAP3 POP POP POP JUMP JUMPDEST PUSH20 0xFFFFFFFFFFFFFFFFFFFFFFFFFFFFFFFFFFFFFFFF DUP5 AND PUSH1 0x0 SWAP1 DUP2 MSTORE PUSH1 0x6 PUSH1 0x20 SWAP1 DUP2 MSTORE PUSH1 0x40 DUP1 DUP4 KECCAK256 DUP7 DUP5 MSTORE SWAP1 SWAP2 MSTORE DUP2 KECCAK256 SLOAD PUSH1 0x60 SWAP2 SWAP1 DUP5 LT PUSH2 0x2288 JUMPI PUSH1 0x0 PUSH2 0x22C4 JUMP JUMPDEST PUSH20 0xFFFFFFFFFFFFFFFFFFFFFFFFFFFFFFFFFFFFFFFF DUP7 AND PUSH1 0x0 SWAP1 DUP2 MSTORE PUSH1 0x6 PUSH1 0x20 SWAP1 DUP2 MSTORE PUSH1 0x40 DUP1 DUP4 KECCAK256 DUP9 DUP5 MSTORE SWAP1 SWAP2 MSTORE SWAP1 KECCAK256 SLOAD PUSH2 0x22C4 SWAP1 DUP6 SWAP1 PUSH2 0x4118 JUMP JUMPDEST SWAP1 POP PUSH1 0x0 DUP4 DUP3 GT ISZERO PUSH2 0x22D6 JUMPI DUP4 PUSH2 0x22D8 JUMP JUMPDEST DUP2 JUMPDEST SWAP1 POP PUSH1 0x0 DUP2 PUSH8 0xFFFFFFFFFFFFFFFF DUP2 GT ISZERO PUSH2 0x22F5 JUMPI PUSH2 0x22F5 PUSH2 0x3E4E JUMP JUMPDEST PUSH1 0x40 MLOAD SWAP1 DUP1 DUP3 MSTORE DUP1 PUSH1 0x20 MUL PUSH1 0x20 ADD DUP3 ADD PUSH1 0x40 MSTORE DUP1 ISZERO PUSH2 0x235A JUMPI DUP2 PUSH1 0x20 ADD JUMPDEST PUSH2 0x2347 PUSH1 0x40 MLOAD DUP1 PUSH1 0xA0 ADD PUSH1 0x40 MSTORE DUP1 PUSH1 0x0 DUP2 MSTORE PUSH1 0x20 ADD PUSH1 0x0 DUP2 MSTORE PUSH1 0x20 ADD PUSH1 0x60 DUP2 MSTORE PUSH1 0x20 ADD PUSH1 0x60 DUP2 MSTORE PUSH1 0x20 ADD PUSH1 0x0 ISZERO ISZERO DUP2 MSTORE POP SWAP1 JUMP JUMPDEST DUP2 MSTORE PUSH1 0x20 ADD SWAP1 PUSH1 0x1 SWAP1 SUB SWAP1 DUP2 PUSH2 0x2313 JUMPI SWAP1 POP JUMPDEST POP SWAP1 POP PUSH1 0x0 JUMPDEST DUP3 DUP2 LT ISZERO PUSH2 0x24D2 JUMPI PUSH20 0xFFFFFFFFFFFFFFFFFFFFFFFFFFFFFFFFFFFFFFFF DUP10 AND PUSH1 0x0 SWAP1 DUP2 MSTORE PUSH1 0x6 PUSH1 0x20 SWAP1 DUP2 MSTORE PUSH1 0x40 DUP1 DUP4 KECCAK256 DUP12 DUP5 MSTORE SWAP1 SWAP2 MSTORE SWAP1 KECCAK256 PUSH2 0x23A2 DUP3 DUP10 PUSH2 0x412B JUMP JUMPDEST DUP2 SLOAD DUP2 LT PUSH2 0x23B2 JUMPI PUSH2 0x23B2 PUSH2 0x413E JUMP JUMPDEST SWAP1 PUSH1 0x0 MSTORE PUSH1 0x20 PUSH1 0x0 KECCAK256 SWAP1 PUSH1 0x5 MUL ADD PUSH1 0x40 MLOAD DUP1 PUSH1 0xA0 ADD PUSH1 0x40 MSTORE SWAP1 DUP2 PUSH1 0x0 DUP3 ADD SLOAD DUP2 MSTORE PUSH1 0x20 ADD PUSH1 0x1 DUP3 ADD SLOAD DUP2 MSTORE PUSH1 0x20 ADD PUSH1 0x2 DUP3 ADD DUP1 SLOAD DUP1 PUSH1 0x20 MUL PUSH1 0x20 ADD PUSH1 0x40 MLOAD SWAP1 DUP2 ADD PUSH1 0x40 MSTORE DUP1 SWAP3 SWAP2 SWAP1 DUP2 DUP2 MSTORE PUSH1 0x20 ADD DUP3 DUP1 SLOAD DUP1 ISZERO PUSH2 0x242E JUMPI PUSH1 0x20 MUL DUP3 ADD SWAP2 SWAP1 PUSH1 0x0 MSTORE PUSH1 0x20 PUSH1 0x0 KECCAK256 SWAP1 JUMPDEST DUP2 SLOAD DUP2 MSTORE PUSH1 0x20 ADD SWAP1 PUSH1 0x1 ADD SWAP1 DUP1 DUP4 GT PUSH2 0x241A JUMPI JUMPDEST POP POP POP POP POP DUP2 MSTORE PUSH1 0x20 ADD PUSH1 0x3 DUP3 ADD DUP1 SLOAD DUP1 PUSH1 0x20 MUL PUSH1 0x20 ADD PUSH1 0x40 MLOAD SWAP1 DUP2 ADD PUSH1 0x40 MSTORE DUP1 SWAP3 SWAP2 SWAP1 DUP2 DUP2 MSTORE PUSH1 0x20 ADD DUP3 DUP1 SLOAD DUP1 ISZERO PUSH2 0x2486 JUMPI PUSH1 0x20 MUL DUP3 ADD SWAP2 SWAP1 PUSH1 0x0 MSTORE PUSH1 0x20 PUSH1 0x0 KECCAK256 SWAP1 JUMPDEST DUP2 SLOAD DUP2 MSTORE PUSH1 0x20 ADD SWAP1 PUSH1 0x1 ADD SWAP1 DUP1 DUP4 GT PUSH2 0x2472 JUMPI JUMPDEST POP POP POP SWAP2 DUP4 MSTORE POP POP PUSH1 0x4 SWAP2 SWAP1 SWAP2 ADD SLOAD PUSH1 0xFF AND ISZERO ISZERO PUSH1 0x20 SWAP1 SWAP2 ADD MSTORE DUP3 MLOAD DUP4 SWAP1 DUP4 SWAP1 DUP2 LT PUSH2 0x24B4 JUMPI PUSH2 0x24B4 PUSH2 0x413E JUMP JUMPDEST PUSH1 0x20 MUL PUSH1 0x20 ADD ADD DUP2 SWAP1 MSTORE POP DUP1 DUP1 PUSH2 0x24CA SWAP1 PUSH2 0x416D JUMP JUMPDEST SWAP2 POP POP PUSH2 0x2360 JUMP JUMPDEST POP SWAP8 SWAP7 POP POP POP POP POP POP POP JUMP JUMPDEST PUSH1 0x0 DUP3 DUP2 MSTORE PUSH1 0x1 PUSH1 0x20 DUP2 SWAP1 MSTORE PUSH1 0x40 SWAP1 SWAP2 KECCAK256 ADD SLOAD PUSH2 0x24FA DUP2 PUSH2 0x2A9D JUMP JUMPDEST PUSH2 0x908 DUP4 DUP4 PUSH2 0x2BBD JUMP JUMPDEST PUSH1 0x60 PUSH1 0x0 PUSH2 0x2510 PUSH2 0x155F JUMP JUMPDEST PUSH8 0xFFFFFFFFFFFFFFFF DUP2 GT ISZERO PUSH2 0x2528 JUMPI PUSH2 0x2528 PUSH2 0x3E4E JUMP JUMPDEST PUSH1 0x40 MLOAD SWAP1 DUP1 DUP3 MSTORE DUP1 PUSH1 0x20 MUL PUSH1 0x20 ADD DUP3 ADD PUSH1 0x40 MSTORE DUP1 ISZERO PUSH2 0x25E9 JUMPI DUP2 PUSH1 0x20 ADD JUMPDEST PUSH2 0x25D6 PUSH1 0x40 MLOAD DUP1 PUSH2 0x180 ADD PUSH1 0x40 MSTORE DUP1 PUSH1 0x0 DUP2 MSTORE PUSH1 0x20 ADD PUSH1 0x0 PUSH20 0xFFFFFFFFFFFFFFFFFFFFFFFFFFFFFFFFFFFFFFFF AND DUP2 MSTORE PUSH1 0x20 ADD PUSH1 0x60 DUP2 MSTORE PUSH1 0x20 ADD PUSH1 0x60 DUP2 MSTORE PUSH1 0x20 ADD PUSH1 0x0 PUSH20 0xFFFFFFFFFFFFFFFFFFFFFFFFFFFFFFFFFFFFFFFF AND DUP2 MSTORE PUSH1 0x20 ADD PUSH1 0x60 DUP2 MSTORE PUSH1 0x20 ADD PUSH1 0x60 DUP2 MSTORE PUSH1 0x20 ADD PUSH1 0x60 DUP2 MSTORE PUSH1 0x20 ADD PUSH1 0x0 DUP2 MSTORE PUSH1 0x20 ADD PUSH1 0x0 DUP2 MSTORE PUSH1 0x20 ADD PUSH1 0x0 DUP2 MSTORE PUSH1 0x20 ADD PUSH1 0x0 DUP2 MSTORE POP SWAP1 JUMP JUMPDEST DUP2 MSTORE PUSH1 0x20 ADD SWAP1 PUSH1 0x1 SWAP1 SUB SWAP1 DUP2 PUSH2 0x2546 JUMPI SWAP1 POP JUMPDEST POP SWAP1 POP PUSH1 0x0 JUMPDEST PUSH2 0x25F7 PUSH2 0x155F JUMP JUMPDEST DUP2 LT ISZERO PUSH2 0x1064 JUMPI PUSH1 0x5 PUSH1 0x0 PUSH2 0x260D PUSH1 0x3 DUP5 PUSH2 0x2A34 JUMP JUMPDEST DUP2 MSTORE PUSH1 0x20 DUP1 DUP3 ADD SWAP3 SWAP1 SWAP3 MSTORE PUSH1 0x40 SWAP1 DUP2 ADD PUSH1 0x0 KECCAK256 DUP2 MLOAD PUSH2 0x180 DUP2 ADD DUP4 MSTORE DUP2 SLOAD DUP2 MSTORE PUSH1 0x1 DUP3 ADD SLOAD PUSH20 0xFFFFFFFFFFFFFFFFFFFFFFFFFFFFFFFFFFFFFFFF AND DUP2 DUP6 ADD MSTORE PUSH1 0x2 DUP3 ADD DUP1 SLOAD DUP5 MLOAD DUP2 DUP8 MUL DUP2 ADD DUP8 ADD DUP7 MSTORE DUP2 DUP2 MSTORE SWAP3 SWAP6 SWAP4 SWAP5 DUP7 ADD SWAP4 DUP4 ADD DUP3 DUP3 DUP1 ISZERO PUSH2 0x2696 JUMPI PUSH1 0x20 MUL DUP3 ADD SWAP2 SWAP1 PUSH1 0x0 MSTORE PUSH1 0x20 PUSH1 0x0 KECCAK256 SWAP1 JUMPDEST DUP2 SLOAD DUP2 MSTORE PUSH1 0x20 ADD SWAP1 PUSH1 0x1 ADD SWAP1 DUP1 DUP4 GT PUSH2 0x2682 JUMPI JUMPDEST POP POP POP POP POP DUP2 MSTORE PUSH1 0x20 ADD PUSH1 0x3 DUP3 ADD DUP1 SLOAD DUP1 PUSH1 0x20 MUL PUSH1 0x20 ADD PUSH1 0x40 MLOAD SWAP1 DUP2 ADD PUSH1 0x40 MSTORE DUP1 SWAP3 SWAP2 SWAP1 DUP2 DUP2 MSTORE PUSH1 0x20 ADD DUP3 DUP1 SLOAD DUP1 ISZERO PUSH2 0x26EE JUMPI PUSH1 0x20 MUL DUP3 ADD SWAP2 SWAP1 PUSH1 0x0 MSTORE PUSH1 0x20 PUSH1 0x0 KECCAK256 SWAP1 JUMPDEST DUP2 SLOAD DUP2 MSTORE PUSH1 0x20 ADD SWAP1 PUSH1 0x1 ADD SWAP1 DUP1 DUP4 GT PUSH2 0x26DA JUMPI JUMPDEST POP POP POP SWAP2 DUP4 MSTORE POP POP PUSH1 0x4 DUP3 ADD SLOAD PUSH20 0xFFFFFFFFFFFFFFFFFFFFFFFFFFFFFFFFFFFFFFFF AND PUSH1 0x20 DUP1 DUP4 ADD SWAP2 SWAP1 SWAP2 MSTORE PUSH1 0x5 DUP4 ADD DUP1 SLOAD PUSH1 0x40 DUP1 MLOAD DUP3 DUP6 MUL DUP2 ADD DUP6 ADD DUP3 MSTORE DUP3 DUP2 MSTORE SWAP5 ADD SWAP4 SWAP3 DUP4 ADD DUP3 DUP3 DUP1 ISZERO PUSH2 0x2763 JUMPI PUSH1 0x20 MUL DUP3 ADD SWAP2 SWAP1 PUSH1 0x0 MSTORE PUSH1 0x20 PUSH1 0x0 KECCAK256 SWAP1 JUMPDEST DUP2 SLOAD DUP2 MSTORE PUSH1 0x20 ADD SWAP1 PUSH1 0x1 ADD SWAP1 DUP1 DUP4 GT PUSH2 0x274F JUMPI JUMPDEST POP POP POP POP POP DUP2 MSTORE PUSH1 0x20 ADD PUSH1 0x6 DUP3 ADD DUP1 SLOAD DUP1 PUSH1 0x20 MUL PUSH1 0x20 ADD PUSH1 0x40 MLOAD SWAP1 DUP2 ADD PUSH1 0x40 MSTORE DUP1 SWAP3 SWAP2 SWAP1 DUP2 DUP2 MSTORE PUSH1 0x20 ADD DUP3 DUP1 SLOAD DUP1 ISZERO PUSH2 0x27BB JUMPI PUSH1 0x20 MUL DUP3 ADD SWAP2 SWAP1 PUSH1 0x0 MSTORE PUSH1 0x20 PUSH1 0x0 KECCAK256 SWAP1 JUMPDEST DUP2 SLOAD DUP2 MSTORE PUSH1 0x20 ADD SWAP1 PUSH1 0x1 ADD SWAP1 DUP1 DUP4 GT PUSH2 0x27A7 JUMPI JUMPDEST POP POP POP POP POP DUP2 MSTORE PUSH1 0x20 ADD PUSH1 0x7 DUP3 ADD DUP1 SLOAD DUP1 PUSH1 0x20 MUL PUSH1 0x20 ADD PUSH1 0x40 MLOAD SWAP1 DUP2 ADD PUSH1 0x40 MSTORE DUP1 SWAP3 SWAP2 SWAP1 DUP2 DUP2 MSTORE PUSH1 0x20 ADD DUP3 DUP1 SLOAD DUP1 ISZERO PUSH2 0x2813 JUMPI PUSH1 0x20 MUL DUP3 ADD SWAP2 SWAP1 PUSH1 0x0 MSTORE PUSH1 0x20 PUSH1 0x0 KECCAK256 SWAP1 JUMPDEST DUP2 SLOAD DUP2 MSTORE PUSH1 0x20 ADD SWAP1 PUSH1 0x1 ADD SWAP1 DUP1 DUP4 GT PUSH2 0x27FF JUMPI JUMPDEST POP POP POP POP POP DUP2 MSTORE PUSH1 0x20 ADD PUSH1 0x8 DUP3 ADD SLOAD DUP2 MSTORE PUSH1 0x20 ADD PUSH1 0x9 DUP3 ADD SLOAD DUP2 MSTORE PUSH1 0x20 ADD PUSH1 0xA DUP3 ADD SLOAD DUP2 MSTORE PUSH1 0x20 ADD PUSH1 0xB DUP3 ADD SLOAD DUP2 MSTORE POP POP DUP3 DUP3 DUP2 MLOAD DUP2 LT PUSH2 0x2856 JUMPI PUSH2 0x2856 PUSH2 0x413E JUMP JUMPDEST PUSH1 0x20 MUL PUSH1 0x20 ADD ADD DUP2 SWAP1 MSTORE POP DUP1 DUP1 PUSH2 0x286C SWAP1 PUSH2 0x416D JUMP JUMPDEST SWAP2 POP POP PUSH2 0x25EF JUMP JUMPDEST PUSH1 0x2 DUP1 SLOAD SUB PUSH2 0x28DF JUMPI PUSH1 0x40 MLOAD PUSH32 0x8C379A000000000000000000000000000000000000000000000000000000000 DUP2 MSTORE PUSH1 0x20 PUSH1 0x4 DUP3 ADD MSTORE PUSH1 0x1F PUSH1 0x24 DUP3 ADD MSTORE PUSH32 0x5265656E7472616E637947756172643A207265656E7472616E742063616C6C00 PUSH1 0x44 DUP3 ADD MSTORE PUSH1 0x64 ADD PUSH2 0x7C8 JUMP JUMPDEST PUSH1 0x2 DUP1 SSTORE PUSH1 0x0 JUMPDEST PUSH1 0x6 PUSH1 0x0 PUSH2 0x28F2 PUSH2 0x2BB3 JUMP JUMPDEST PUSH20 0xFFFFFFFFFFFFFFFFFFFFFFFFFFFFFFFFFFFFFFFF AND DUP2 MSTORE PUSH1 0x20 DUP1 DUP3 ADD SWAP3 SWAP1 SWAP3 MSTORE PUSH1 0x40 SWAP1 DUP2 ADD PUSH1 0x0 SWAP1 DUP2 KECCAK256 DUP6 DUP3 MSTORE SWAP1 SWAP3 MSTORE SWAP1 KECCAK256 SLOAD DUP2 LT ISZERO PUSH2 0x1556 JUMPI PUSH2 0x2939 DUP3 DUP3 PUSH1 0x0 PUSH2 0x2CC8 JUMP JUMPDEST DUP1 PUSH2 0x2943 DUP2 PUSH2 0x416D JUMP JUMPDEST SWAP2 POP POP PUSH2 0x28E6 JUMP JUMPDEST PUSH1 0x0 PUSH2 0x2957 PUSH1 0x3 PUSH2 0x2A2A JUMP JUMPDEST DUP3 LT PUSH2 0x29BF JUMPI PUSH1 0x40 MLOAD PUSH32 0x8C379A000000000000000000000000000000000000000000000000000000000 DUP2 MSTORE PUSH1 0x20 PUSH1 0x4 DUP3 ADD MSTORE PUSH1 0x13 PUSH1 0x24 DUP3 ADD MSTORE PUSH32 0x496E646578206F7574206F6620626F756E647300000000000000000000000000 PUSH1 0x44 DUP3 ADD MSTORE PUSH1 0x64 ADD PUSH2 0x7C8 JUMP JUMPDEST PUSH2 0x690 PUSH1 0x3 DUP4 PUSH2 0x2A34 JUMP JUMPDEST PUSH1 0x60 PUSH2 0x156B PUSH1 0x3 PUSH2 0x32B0 JUMP JUMPDEST PUSH1 0x0 DUP1 SLOAD PUSH20 0xFFFFFFFFFFFFFFFFFFFFFFFFFFFFFFFFFFFFFFFF AND CALLER SUB PUSH2 0x2A21 JUMPI POP PUSH32 0xFFFFFFFFFFFFFFFFFFFFFFFFFFFFFFFFFFFFFFFFFFFFFFFFFFFFFFFFFFFFFFEC CALLDATASIZE ADD CALLDATALOAD PUSH1 0x60 SHR SWAP1 JUMP JUMPDEST POP CALLER SWAP1 JUMP JUMPDEST CALLER SWAP1 JUMP JUMPDEST PUSH1 0x0 PUSH2 0x690 DUP3 SLOAD SWAP1 JUMP JUMPDEST PUSH1 0x0 PUSH2 0x2A40 DUP4 DUP4 PUSH2 0x32BD JUMP JUMPDEST SWAP4 SWAP3 POP POP POP JUMP JUMPDEST PUSH1 0x0 PUSH32 0xFFFFFFFF00000000000000000000000000000000000000000000000000000000 DUP3 AND PUSH32 0x7965DB0B00000000000000000000000000000000000000000000000000000000 EQ DUP1 PUSH2 0x690 JUMPI POP PUSH2 0x690 DUP3 PUSH2 0x32E7 JUMP JUMPDEST PUSH2 0x2AAE DUP2 PUSH2 0x2AA9 PUSH2 0x2BB3 JUMP JUMPDEST PUSH2 0x337E JUMP JUMPDEST POP JUMP JUMPDEST PUSH1 0x0 PUSH2 0x2A40 DUP4 DUP4 PUSH2 0x3450 JUMP JUMPDEST PUSH1 0x0 DUP3 DUP2 MSTORE PUSH1 0x1 PUSH1 0x20 SWAP1 DUP2 MSTORE PUSH1 0x40 DUP1 DUP4 KECCAK256 PUSH20 0xFFFFFFFFFFFFFFFFFFFFFFFFFFFFFFFFFFFFFFFF DUP6 AND DUP5 MSTORE SWAP1 SWAP2 MSTORE SWAP1 KECCAK256 SLOAD PUSH1 0xFF AND PUSH2 0x9D9 JUMPI PUSH1 0x0 DUP3 DUP2 MSTORE PUSH1 0x1 PUSH1 0x20 DUP2 DUP2 MSTORE PUSH1 0x40 DUP1 DUP5 KECCAK256 PUSH20 0xFFFFFFFFFFFFFFFFFFFFFFFFFFFFFFFFFFFFFFFF DUP7 AND DUP6 MSTORE SWAP1 SWAP2 MSTORE SWAP1 SWAP2 KECCAK256 DUP1 SLOAD PUSH32 0xFFFFFFFFFFFFFFFFFFFFFFFFFFFFFFFFFFFFFFFFFFFFFFFFFFFFFFFFFFFFFF00 AND SWAP1 SWAP2 OR SWAP1 SSTORE PUSH2 0x2B55 PUSH2 0x2BB3 JUMP JUMPDEST PUSH20 0xFFFFFFFFFFFFFFFFFFFFFFFFFFFFFFFFFFFFFFFF AND DUP2 PUSH20 0xFFFFFFFFFFFFFFFFFFFFFFFFFFFFFFFFFFFFFFFF AND DUP4 PUSH32 0x2F8788117E7EFF1D82E926EC794901D17C78024A50270940304540A733656F0D PUSH1 0x40 MLOAD PUSH1 0x40 MLOAD DUP1 SWAP2 SUB SWAP1 LOG4 POP POP JUMP JUMPDEST PUSH1 0x0 PUSH2 0x156B PUSH2 0x29D6 JUMP JUMPDEST PUSH1 0x0 DUP3 DUP2 MSTORE PUSH1 0x1 PUSH1 0x20 SWAP1 DUP2 MSTORE PUSH1 0x40 DUP1 DUP4 KECCAK256 PUSH20 0xFFFFFFFFFFFFFFFFFFFFFFFFFFFFFFFFFFFFFFFF DUP6 AND DUP5 MSTORE SWAP1 SWAP2 MSTORE SWAP1 KECCAK256 SLOAD PUSH1 0xFF AND ISZERO PUSH2 0x9D9 JUMPI PUSH1 0x0 DUP3 DUP2 MSTORE PUSH1 0x1 PUSH1 0x20 SWAP1 DUP2 MSTORE PUSH1 0x40 DUP1 DUP4 KECCAK256 PUSH20 0xFFFFFFFFFFFFFFFFFFFFFFFFFFFFFFFFFFFFFFFF DUP6 AND DUP5 MSTORE SWAP1 SWAP2 MSTORE SWAP1 KECCAK256 DUP1 SLOAD PUSH32 0xFFFFFFFFFFFFFFFFFFFFFFFFFFFFFFFFFFFFFFFFFFFFFFFFFFFFFFFFFFFFFF00 AND SWAP1 SSTORE PUSH2 0x2C52 PUSH2 0x2BB3 JUMP JUMPDEST PUSH20 0xFFFFFFFFFFFFFFFFFFFFFFFFFFFFFFFFFFFFFFFF AND DUP2 PUSH20 0xFFFFFFFFFFFFFFFFFFFFFFFFFFFFFFFFFFFFFFFF AND DUP4 PUSH32 0xF6391F5C32D9C69D2A47EA670B442974B53935D1EDC7FD64EB21E047A839171B PUSH1 0x40 MLOAD PUSH1 0x40 MLOAD DUP1 SWAP2 SUB SWAP1 LOG4 POP POP JUMP JUMPDEST PUSH1 0x0 DUP2 DUP2 MSTORE PUSH1 0x1 DUP4 ADD PUSH1 0x20 MSTORE PUSH1 0x40 DUP2 KECCAK256 SLOAD ISZERO ISZERO PUSH2 0x2A40 JUMP JUMPDEST PUSH1 0x0 PUSH1 0x6 PUSH1 0x0 PUSH2 0x2CD6 PUSH2 0x2BB3 JUMP JUMPDEST PUSH20 0xFFFFFFFFFFFFFFFFFFFFFFFFFFFFFFFFFFFFFFFF AND PUSH20 0xFFFFFFFFFFFFFFFFFFFFFFFFFFFFFFFFFFFFFFFF AND DUP2 MSTORE PUSH1 0x20 ADD SWAP1 DUP2 MSTORE PUSH1 0x20 ADD PUSH1 0x0 KECCAK256 PUSH1 0x0 DUP6 DUP2 MSTORE PUSH1 0x20 ADD SWAP1 DUP2 MSTORE PUSH1 0x20 ADD PUSH1 0x0 KECCAK256 DUP4 DUP2 SLOAD DUP2 LT PUSH2 0x2D32 JUMPI PUSH2 0x2D32 PUSH2 0x413E JUMP JUMPDEST SWAP1 PUSH1 0x0 MSTORE PUSH1 0x20 PUSH1 0x0 KECCAK256 SWAP1 PUSH1 0x5 MUL ADD SWAP1 POP PUSH1 0x0 PUSH1 0x5 PUSH1 0x0 DUP7 DUP2 MSTORE PUSH1 0x20 ADD SWAP1 DUP2 MSTORE PUSH1 0x20 ADD PUSH1 0x0 KECCAK256 SWAP1 POP DUP2 PUSH1 0x1 ADD SLOAD NUMBER LT DUP1 PUSH2 0x2D6F JUMPI POP PUSH1 0x4 DUP3 ADD SLOAD PUSH1 0xFF AND JUMPDEST ISZERO PUSH2 0x2E0B JUMPI DUP3 ISZERO PUSH2 0x2E04 JUMPI PUSH1 0x40 DUP1 MLOAD PUSH32 0x8C379A000000000000000000000000000000000000000000000000000000000 DUP2 MSTORE PUSH1 0x20 PUSH1 0x4 DUP3 ADD MSTORE PUSH1 0x24 DUP2 ADD SWAP2 SWAP1 SWAP2 MSTORE PUSH32 0x4C6F6F74626F7820756E636C61696D61626C652E20436C61696D20626C6F636B PUSH1 0x44 DUP3 ADD MSTORE PUSH32 0x206E6F742072656163686564206F7220616C726561647920636C61696D65642E PUSH1 0x64 DUP3 ADD MSTORE PUSH1 0x84 ADD PUSH2 0x7C8 JUMP JUMPDEST POP POP POP POP POP JUMP JUMPDEST PUSH1 0x0 DUP2 PUSH1 0x9 ADD SLOAD PUSH8 0xFFFFFFFFFFFFFFFF DUP2 GT ISZERO PUSH2 0x2E2A JUMPI PUSH2 0x2E2A PUSH2 0x3E4E JUMP JUMPDEST PUSH1 0x40 MLOAD SWAP1 DUP1 DUP3 MSTORE DUP1 PUSH1 0x20 MUL PUSH1 0x20 ADD DUP3 ADD PUSH1 0x40 MSTORE DUP1 ISZERO PUSH2 0x2E53 JUMPI DUP2 PUSH1 0x20 ADD PUSH1 0x20 DUP3 MUL DUP1 CALLDATASIZE DUP4 CALLDATACOPY ADD SWAP1 POP JUMPDEST POP SWAP1 POP PUSH1 0x0 DUP3 PUSH1 0x9 ADD SLOAD PUSH8 0xFFFFFFFFFFFFFFFF DUP2 GT ISZERO PUSH2 0x2E75 JUMPI PUSH2 0x2E75 PUSH2 0x3E4E JUMP JUMPDEST PUSH1 0x40 MLOAD SWAP1 DUP1 DUP3 MSTORE DUP1 PUSH1 0x20 MUL PUSH1 0x20 ADD DUP3 ADD PUSH1 0x40 MSTORE DUP1 ISZERO PUSH2 0x2E9E JUMPI DUP2 PUSH1 0x20 ADD PUSH1 0x20 DUP3 MUL DUP1 CALLDATASIZE DUP4 CALLDATACOPY ADD SWAP1 POP JUMPDEST POP SWAP1 POP PUSH1 0x0 JUMPDEST DUP4 PUSH1 0x9 ADD SLOAD DUP2 LT ISZERO PUSH2 0x303E JUMPI PUSH1 0x0 PUSH1 0x1 DUP7 PUSH1 0x1 ADD SLOAD PUSH2 0x2EC3 SWAP2 SWAP1 PUSH2 0x4118 JUMP JUMPDEST BLOCKHASH PUSH2 0x2ECC PUSH2 0x2BB3 JUMP JUMPDEST DUP10 DUP5 PUSH1 0x40 MLOAD PUSH1 0x20 ADD PUSH2 0x2F1C SWAP5 SWAP4 SWAP3 SWAP2 SWAP1 SWAP4 DUP5 MSTORE PUSH1 0x60 SWAP3 SWAP1 SWAP3 SHL PUSH32 0xFFFFFFFFFFFFFFFFFFFFFFFFFFFFFFFFFFFFFFFF000000000000000000000000 AND PUSH1 0x20 DUP5 ADD MSTORE PUSH1 0x34 DUP4 ADD MSTORE PUSH1 0x54 DUP3 ADD MSTORE PUSH1 0x74 ADD SWAP1 JUMP JUMPDEST PUSH1 0x40 MLOAD PUSH1 0x20 DUP2 DUP4 SUB SUB DUP2 MSTORE SWAP1 PUSH1 0x40 MSTORE DUP1 MLOAD SWAP1 PUSH1 0x20 ADD KECCAK256 PUSH1 0x0 SHR SWAP1 POP PUSH1 0x0 DUP6 PUSH1 0x8 ADD SLOAD DUP3 PUSH2 0x2F49 SWAP2 SWAP1 PUSH2 0x4493 JUMP JUMPDEST SWAP1 POP PUSH1 0x0 JUMPDEST PUSH1 0x7 DUP8 ADD SLOAD DUP2 LT ISZERO PUSH2 0x3028 JUMPI PUSH1 0x0 DUP8 PUSH1 0x7 ADD DUP3 DUP2 SLOAD DUP2 LT PUSH2 0x2F71 JUMPI PUSH2 0x2F71 PUSH2 0x413E JUMP JUMPDEST SWAP1 PUSH1 0x0 MSTORE PUSH1 0x20 PUSH1 0x0 KECCAK256 ADD SLOAD SWAP1 POP DUP3 DUP2 GT ISZERO PUSH2 0x3008 JUMPI DUP8 PUSH1 0x5 ADD DUP3 DUP2 SLOAD DUP2 LT PUSH2 0x2F9B JUMPI PUSH2 0x2F9B PUSH2 0x413E JUMP JUMPDEST SWAP1 PUSH1 0x0 MSTORE PUSH1 0x20 PUSH1 0x0 KECCAK256 ADD SLOAD DUP8 DUP7 DUP2 MLOAD DUP2 LT PUSH2 0x2FB8 JUMPI PUSH2 0x2FB8 PUSH2 0x413E JUMP JUMPDEST PUSH1 0x20 MUL PUSH1 0x20 ADD ADD DUP2 DUP2 MSTORE POP POP DUP8 PUSH1 0x6 ADD DUP3 DUP2 SLOAD DUP2 LT PUSH2 0x2FD9 JUMPI PUSH2 0x2FD9 PUSH2 0x413E JUMP JUMPDEST SWAP1 PUSH1 0x0 MSTORE PUSH1 0x20 PUSH1 0x0 KECCAK256 ADD SLOAD DUP7 DUP7 DUP2 MLOAD DUP2 LT PUSH2 0x2FF6 JUMPI PUSH2 0x2FF6 PUSH2 0x413E JUMP JUMPDEST PUSH1 0x20 MUL PUSH1 0x20 ADD ADD DUP2 DUP2 MSTORE POP POP POP PUSH2 0x3028 JUMP JUMPDEST PUSH2 0x3012 DUP2 DUP5 PUSH2 0x4118 JUMP JUMPDEST SWAP3 POP POP DUP1 DUP1 PUSH2 0x3020 SWAP1 PUSH2 0x416D JUMP JUMPDEST SWAP2 POP POP PUSH2 0x2F4E JUMP JUMPDEST POP POP POP DUP1 DUP1 PUSH2 0x3036 SWAP1 PUSH2 0x416D JUMP JUMPDEST SWAP2 POP POP PUSH2 0x2EA4 JUMP JUMPDEST POP PUSH1 0x4 DUP4 DUP2 ADD SLOAD PUSH1 0x40 MLOAD PUSH32 0x91D1485400000000000000000000000000000000000000000000000000000000 DUP2 MSTORE PUSH32 0xC9EB32E43BF5ECBCEACF00B32281DFC5D6D700A0DB676EA26CCF938A385AC3F7 SWAP3 DUP2 ADD SWAP3 SWAP1 SWAP3 MSTORE ADDRESS PUSH1 0x24 DUP4 ADD MSTORE PUSH20 0xFFFFFFFFFFFFFFFFFFFFFFFFFFFFFFFFFFFFFFFF AND SWAP1 PUSH4 0x91D14854 SWAP1 PUSH1 0x44 ADD PUSH1 0x20 PUSH1 0x40 MLOAD DUP1 DUP4 SUB DUP2 DUP7 GAS STATICCALL ISZERO DUP1 ISZERO PUSH2 0x30D6 JUMPI RETURNDATASIZE PUSH1 0x0 DUP1 RETURNDATACOPY RETURNDATASIZE PUSH1 0x0 REVERT JUMPDEST POP POP POP POP PUSH1 0x40 MLOAD RETURNDATASIZE PUSH1 0x1F NOT PUSH1 0x1F DUP3 ADD AND DUP3 ADD DUP1 PUSH1 0x40 MSTORE POP DUP2 ADD SWAP1 PUSH2 0x30FA SWAP2 SWAP1 PUSH2 0x4317 JUMP JUMPDEST ISZERO PUSH2 0x317E JUMPI PUSH1 0x4 DUP4 ADD SLOAD PUSH20 0xFFFFFFFFFFFFFFFFFFFFFFFFFFFFFFFFFFFFFFFF AND PUSH4 0x8F427C7 PUSH2 0x3127 PUSH2 0x2BB3 JUMP JUMPDEST DUP5 DUP5 PUSH1 0x40 MLOAD DUP5 PUSH4 0xFFFFFFFF AND PUSH1 0xE0 SHL DUP2 MSTORE PUSH1 0x4 ADD PUSH2 0x3147 SWAP4 SWAP3 SWAP2 SWAP1 PUSH2 0x44CE JUMP JUMPDEST PUSH1 0x0 PUSH1 0x40 MLOAD DUP1 DUP4 SUB DUP2 PUSH1 0x0 DUP8 DUP1 EXTCODESIZE ISZERO DUP1 ISZERO PUSH2 0x3161 JUMPI PUSH1 0x0 DUP1 REVERT JUMPDEST POP GAS CALL ISZERO DUP1 ISZERO PUSH2 0x3175 JUMPI RETURNDATASIZE PUSH1 0x0 DUP1 RETURNDATACOPY RETURNDATASIZE PUSH1 0x0 REVERT JUMPDEST POP POP POP POP PUSH2 0x31FB JUMP JUMPDEST PUSH1 0x4 DUP4 ADD SLOAD PUSH20 0xFFFFFFFFFFFFFFFFFFFFFFFFFFFFFFFFFFFFFFFF AND PUSH4 0x2EB2C2D6 ADDRESS PUSH2 0x31A7 PUSH2 0x2BB3 JUMP JUMPDEST DUP6 DUP6 PUSH1 0x40 MLOAD DUP6 PUSH4 0xFFFFFFFF AND PUSH1 0xE0 SHL DUP2 MSTORE PUSH1 0x4 ADD PUSH2 0x31C8 SWAP5 SWAP4 SWAP3 SWAP2 SWAP1 PUSH2 0x450F JUMP JUMPDEST PUSH1 0x0 PUSH1 0x40 MLOAD DUP1 DUP4 SUB DUP2 PUSH1 0x0 DUP8 DUP1 EXTCODESIZE ISZERO DUP1 ISZERO PUSH2 0x31E2 JUMPI PUSH1 0x0 DUP1 REVERT JUMPDEST POP GAS CALL ISZERO DUP1 ISZERO PUSH2 0x31F6 JUMPI RETURNDATASIZE PUSH1 0x0 DUP1 RETURNDATACOPY RETURNDATASIZE PUSH1 0x0 REVERT JUMPDEST POP POP POP POP JUMPDEST DUP2 MLOAD PUSH2 0x3210 SWAP1 PUSH1 0x2 DUP7 ADD SWAP1 PUSH1 0x20 DUP6 ADD SWAP1 PUSH2 0x3831 JUMP JUMPDEST POP DUP1 MLOAD PUSH2 0x3226 SWAP1 PUSH1 0x3 DUP7 ADD SWAP1 PUSH1 0x20 DUP5 ADD SWAP1 PUSH2 0x3831 JUMP JUMPDEST POP PUSH1 0x4 DUP5 ADD DUP1 SLOAD PUSH32 0xFFFFFFFFFFFFFFFFFFFFFFFFFFFFFFFFFFFFFFFFFFFFFFFFFFFFFFFFFFFFFF00 AND PUSH1 0x1 OR SWAP1 SSTORE DUP7 PUSH32 0xA90466A1141D4242085B5AC5C6634A366EC37AD66C953E191B51C3441E56010E DUP5 PUSH2 0x327F PUSH2 0x2BB3 JUMP JUMPDEST DUP10 DUP7 DUP7 PUSH1 0x40 MLOAD PUSH2 0x3293 SWAP6 SWAP5 SWAP4 SWAP3 SWAP2 SWAP1 PUSH2 0x455A JUMP JUMPDEST PUSH1 0x40 MLOAD DUP1 SWAP2 SUB SWAP1 LOG2 POP POP POP POP POP POP POP JUMP JUMPDEST PUSH1 0x0 PUSH2 0x2A40 DUP4 DUP4 PUSH2 0x3543 JUMP JUMPDEST PUSH1 0x60 PUSH1 0x0 PUSH2 0x2A40 DUP4 PUSH2 0x3592 JUMP JUMPDEST PUSH1 0x0 DUP3 PUSH1 0x0 ADD DUP3 DUP2 SLOAD DUP2 LT PUSH2 0x32D4 JUMPI PUSH2 0x32D4 PUSH2 0x413E JUMP JUMPDEST SWAP1 PUSH1 0x0 MSTORE PUSH1 0x20 PUSH1 0x0 KECCAK256 ADD SLOAD SWAP1 POP SWAP3 SWAP2 POP POP JUMP JUMPDEST PUSH1 0x0 PUSH32 0xFFFFFFFF00000000000000000000000000000000000000000000000000000000 DUP3 AND PUSH32 0x4E2312E000000000000000000000000000000000000000000000000000000000 EQ DUP1 PUSH2 0x690 JUMPI POP PUSH32 0x1FFC9A700000000000000000000000000000000000000000000000000000000 PUSH32 0xFFFFFFFF00000000000000000000000000000000000000000000000000000000 DUP4 AND EQ PUSH2 0x690 JUMP JUMPDEST PUSH1 0x0 DUP3 DUP2 MSTORE PUSH1 0x1 PUSH1 0x20 SWAP1 DUP2 MSTORE PUSH1 0x40 DUP1 DUP4 KECCAK256 PUSH20 0xFFFFFFFFFFFFFFFFFFFFFFFFFFFFFFFFFFFFFFFF DUP6 AND DUP5 MSTORE SWAP1 SWAP2 MSTORE SWAP1 KECCAK256 SLOAD PUSH1 0xFF AND PUSH2 0x9D9 JUMPI PUSH2 0x33D6 DUP2 PUSH20 0xFFFFFFFFFFFFFFFFFFFFFFFFFFFFFFFFFFFFFFFF AND PUSH1 0x14 PUSH2 0x35EE JUMP JUMPDEST PUSH2 0x33E1 DUP4 PUSH1 0x20 PUSH2 0x35EE JUMP JUMPDEST PUSH1 0x40 MLOAD PUSH1 0x20 ADD PUSH2 0x33F2 SWAP3 SWAP2 SWAP1 PUSH2 0x45E5 JUMP JUMPDEST PUSH1 0x40 DUP1 MLOAD PUSH32 0xFFFFFFFFFFFFFFFFFFFFFFFFFFFFFFFFFFFFFFFFFFFFFFFFFFFFFFFFFFFFFFE0 DUP2 DUP5 SUB ADD DUP2 MSTORE SWAP1 DUP3 SWAP1 MSTORE PUSH32 0x8C379A000000000000000000000000000000000000000000000000000000000 DUP3 MSTORE PUSH2 0x7C8 SWAP2 PUSH1 0x4 ADD PUSH2 0x4666 JUMP JUMPDEST PUSH1 0x0 DUP2 DUP2 MSTORE PUSH1 0x1 DUP4 ADD PUSH1 0x20 MSTORE PUSH1 0x40 DUP2 KECCAK256 SLOAD DUP1 ISZERO PUSH2 0x3539 JUMPI PUSH1 0x0 PUSH2 0x3474 PUSH1 0x1 DUP4 PUSH2 0x4118 JUMP JUMPDEST DUP6 SLOAD SWAP1 SWAP2 POP PUSH1 0x0 SWAP1 PUSH2 0x3488 SWAP1 PUSH1 0x1 SWAP1 PUSH2 0x4118 JUMP JUMPDEST SWAP1 POP DUP2 DUP2 EQ PUSH2 0x34ED JUMPI PUSH1 0x0 DUP7 PUSH1 0x0 ADD DUP3 DUP2 SLOAD DUP2 LT PUSH2 0x34A8 JUMPI PUSH2 0x34A8 PUSH2 0x413E JUMP JUMPDEST SWAP1 PUSH1 0x0 MSTORE PUSH1 0x20 PUSH1 0x0 KECCAK256 ADD SLOAD SWAP1 POP DUP1 DUP8 PUSH1 0x0 ADD DUP5 DUP2 SLOAD DUP2 LT PUSH2 0x34CB JUMPI PUSH2 0x34CB PUSH2 0x413E JUMP JUMPDEST PUSH1 0x0 SWAP2 DUP3 MSTORE PUSH1 0x20 DUP1 DUP4 KECCAK256 SWAP1 SWAP2 ADD SWAP3 SWAP1 SWAP3 SSTORE SWAP2 DUP3 MSTORE PUSH1 0x1 DUP9 ADD SWAP1 MSTORE PUSH1 0x40 SWAP1 KECCAK256 DUP4 SWAP1 SSTORE JUMPDEST DUP6 SLOAD DUP7 SWAP1 DUP1 PUSH2 0x34FE JUMPI PUSH2 0x34FE PUSH2 0x46B7 JUMP JUMPDEST PUSH1 0x1 SWAP1 SUB DUP2 DUP2 SWAP1 PUSH1 0x0 MSTORE PUSH1 0x20 PUSH1 0x0 KECCAK256 ADD PUSH1 0x0 SWAP1 SSTORE SWAP1 SSTORE DUP6 PUSH1 0x1 ADD PUSH1 0x0 DUP7 DUP2 MSTORE PUSH1 0x20 ADD SWAP1 DUP2 MSTORE PUSH1 0x20 ADD PUSH1 0x0 KECCAK256 PUSH1 0x0 SWAP1 SSTORE PUSH1 0x1 SWAP4 POP POP POP POP PUSH2 0x690 JUMP JUMPDEST PUSH1 0x0 SWAP2 POP POP PUSH2 0x690 JUMP JUMPDEST PUSH1 0x0 DUP2 DUP2 MSTORE PUSH1 0x1 DUP4 ADD PUSH1 0x20 MSTORE PUSH1 0x40 DUP2 KECCAK256 SLOAD PUSH2 0x358A JUMPI POP DUP2 SLOAD PUSH1 0x1 DUP2 DUP2 ADD DUP5 SSTORE PUSH1 0x0 DUP5 DUP2 MSTORE PUSH1 0x20 DUP1 DUP3 KECCAK256 SWAP1 SWAP4 ADD DUP5 SWAP1 SSTORE DUP5 SLOAD DUP5 DUP3 MSTORE DUP3 DUP7 ADD SWAP1 SWAP4 MSTORE PUSH1 0x40 SWAP1 KECCAK256 SWAP2 SWAP1 SWAP2 SSTORE PUSH2 0x690 JUMP JUMPDEST POP PUSH1 0x0 PUSH2 0x690 JUMP JUMPDEST PUSH1 0x60 DUP2 PUSH1 0x0 ADD DUP1 SLOAD DUP1 PUSH1 0x20 MUL PUSH1 0x20 ADD PUSH1 0x40 MLOAD SWAP1 DUP2 ADD PUSH1 0x40 MSTORE DUP1 SWAP3 SWAP2 SWAP1 DUP2 DUP2 MSTORE PUSH1 0x20 ADD DUP3 DUP1 SLOAD DUP1 ISZERO PUSH2 0x35E2 JUMPI PUSH1 0x20 MUL DUP3 ADD SWAP2 SWAP1 PUSH1 0x0 MSTORE PUSH1 0x20 PUSH1 0x0 KECCAK256 SWAP1 JUMPDEST DUP2 SLOAD DUP2 MSTORE PUSH1 0x20 ADD SWAP1 PUSH1 0x1 ADD SWAP1 DUP1 DUP4 GT PUSH2 0x35CE JUMPI JUMPDEST POP POP POP POP POP SWAP1 POP SWAP2 SWAP1 POP JUMP JUMPDEST PUSH1 0x60 PUSH1 0x0 PUSH2 0x35FD DUP4 PUSH1 0x2 PUSH2 0x46E6 JUMP JUMPDEST PUSH2 0x3608 SWAP1 PUSH1 0x2 PUSH2 0x412B JUMP JUMPDEST PUSH8 0xFFFFFFFFFFFFFFFF DUP2 GT ISZERO PUSH2 0x3620 JUMPI PUSH2 0x3620 PUSH2 0x3E4E JUMP JUMPDEST PUSH1 0x40 MLOAD SWAP1 DUP1 DUP3 MSTORE DUP1 PUSH1 0x1F ADD PUSH1 0x1F NOT AND PUSH1 0x20 ADD DUP3 ADD PUSH1 0x40 MSTORE DUP1 ISZERO PUSH2 0x364A JUMPI PUSH1 0x20 DUP3 ADD DUP2 DUP1 CALLDATASIZE DUP4 CALLDATACOPY ADD SWAP1 POP JUMPDEST POP SWAP1 POP PUSH32 0x3000000000000000000000000000000000000000000000000000000000000000 DUP2 PUSH1 0x0 DUP2 MLOAD DUP2 LT PUSH2 0x3681 JUMPI PUSH2 0x3681 PUSH2 0x413E JUMP JUMPDEST PUSH1 0x20 ADD ADD SWAP1 PUSH31 0xFFFFFFFFFFFFFFFFFFFFFFFFFFFFFFFFFFFFFFFFFFFFFFFFFFFFFFFFFFFFFF NOT AND SWAP1 DUP2 PUSH1 0x0 BYTE SWAP1 MSTORE8 POP PUSH32 0x7800000000000000000000000000000000000000000000000000000000000000 DUP2 PUSH1 0x1 DUP2 MLOAD DUP2 LT PUSH2 0x36E4 JUMPI PUSH2 0x36E4 PUSH2 0x413E JUMP JUMPDEST PUSH1 0x20 ADD ADD SWAP1 PUSH31 0xFFFFFFFFFFFFFFFFFFFFFFFFFFFFFFFFFFFFFFFFFFFFFFFFFFFFFFFFFFFFFF NOT AND SWAP1 DUP2 PUSH1 0x0 BYTE SWAP1 MSTORE8 POP PUSH1 0x0 PUSH2 0x3720 DUP5 PUSH1 0x2 PUSH2 0x46E6 JUMP JUMPDEST PUSH2 0x372B SWAP1 PUSH1 0x1 PUSH2 0x412B JUMP JUMPDEST SWAP1 POP JUMPDEST PUSH1 0x1 DUP2 GT ISZERO PUSH2 0x37C8 JUMPI PUSH32 0x3031323334353637383961626364656600000000000000000000000000000000 DUP6 PUSH1 0xF AND PUSH1 0x10 DUP2 LT PUSH2 0x376C JUMPI PUSH2 0x376C PUSH2 0x413E JUMP JUMPDEST BYTE PUSH1 0xF8 SHL DUP3 DUP3 DUP2 MLOAD DUP2 LT PUSH2 0x3782 JUMPI PUSH2 0x3782 PUSH2 0x413E JUMP JUMPDEST PUSH1 0x20 ADD ADD SWAP1 PUSH31 0xFFFFFFFFFFFFFFFFFFFFFFFFFFFFFFFFFFFFFFFFFFFFFFFFFFFFFFFFFFFFFF NOT AND SWAP1 DUP2 PUSH1 0x0 BYTE SWAP1 MSTORE8 POP PUSH1 0x4 SWAP5 SWAP1 SWAP5 SHR SWAP4 PUSH2 0x37C1 DUP2 PUSH2 0x4723 JUMP JUMPDEST SWAP1 POP PUSH2 0x372E JUMP JUMPDEST POP DUP4 ISZERO PUSH2 0x2A40 JUMPI PUSH1 0x40 MLOAD PUSH32 0x8C379A000000000000000000000000000000000000000000000000000000000 DUP2 MSTORE PUSH1 0x20 PUSH1 0x4 DUP3 ADD DUP2 SWAP1 MSTORE PUSH1 0x24 DUP3 ADD MSTORE PUSH32 0x537472696E67733A20686578206C656E67746820696E73756666696369656E74 PUSH1 0x44 DUP3 ADD MSTORE PUSH1 0x64 ADD PUSH2 0x7C8 JUMP JUMPDEST DUP3 DUP1 SLOAD DUP3 DUP3 SSTORE SWAP1 PUSH1 0x0 MSTORE PUSH1 0x20 PUSH1 0x0 KECCAK256 SWAP1 DUP2 ADD SWAP3 DUP3 ISZERO PUSH2 0x386C JUMPI SWAP2 PUSH1 0x20 MUL DUP3 ADD JUMPDEST DUP3 DUP2 GT ISZERO PUSH2 0x386C JUMPI DUP3 MLOAD DUP3 SSTORE SWAP2 PUSH1 0x20 ADD SWAP2 SWAP1 PUSH1 0x1 ADD SWAP1 PUSH2 0x3851 JUMP JUMPDEST POP PUSH2 0x3878 SWAP3 SWAP2 POP PUSH2 0x387C JUMP JUMPDEST POP SWAP1 JUMP JUMPDEST JUMPDEST DUP1 DUP3 GT ISZERO PUSH2 0x3878 JUMPI PUSH1 0x0 DUP2 SSTORE PUSH1 0x1 ADD PUSH2 0x387D JUMP JUMPDEST PUSH1 0x0 DUP1 PUSH1 0x40 DUP4 DUP6 SUB SLT ISZERO PUSH2 0x38A4 JUMPI PUSH1 0x0 DUP1 REVERT JUMPDEST POP POP DUP1 CALLDATALOAD SWAP3 PUSH1 0x20 SWAP1 SWAP2 ADD CALLDATALOAD SWAP2 POP JUMP JUMPDEST PUSH1 0x0 DUP2 MLOAD DUP1 DUP5 MSTORE PUSH1 0x20 DUP1 DUP6 ADD SWAP5 POP DUP1 DUP5 ADD PUSH1 0x0 JUMPDEST DUP4 DUP2 LT ISZERO PUSH2 0x38E3 JUMPI DUP2 MLOAD DUP8 MSTORE SWAP6 DUP3 ADD SWAP6 SWAP1 DUP3 ADD SWAP1 PUSH1 0x1 ADD PUSH2 0x38C7 JUMP JUMPDEST POP SWAP5 SWAP6 SWAP5 POP POP POP POP POP JUMP JUMPDEST PUSH1 0x0 PUSH1 0x20 DUP1 DUP4 ADD DUP2 DUP5 MSTORE DUP1 DUP6 MLOAD DUP1 DUP4 MSTORE PUSH1 0x40 DUP7 ADD SWAP2 POP PUSH1 0x40 DUP2 PUSH1 0x5 SHL DUP8 ADD ADD SWAP3 POP DUP4 DUP8 ADD PUSH1 0x0 JUMPDEST DUP3 DUP2 LT ISZERO PUSH2 0x3961 JUMPI PUSH32 0xFFFFFFFFFFFFFFFFFFFFFFFFFFFFFFFFFFFFFFFFFFFFFFFFFFFFFFFFFFFFFFC0 DUP9 DUP7 SUB ADD DUP5 MSTORE PUSH2 0x394F DUP6 DUP4 MLOAD PUSH2 0x38B3 JUMP JUMPDEST SWAP5 POP SWAP3 DUP6 ADD SWAP3 SWAP1 DUP6 ADD SWAP1 PUSH1 0x1 ADD PUSH2 0x3915 JUMP JUMPDEST POP SWAP3 SWAP8 SWAP7 POP POP POP POP POP POP POP JUMP JUMPDEST PUSH1 0x0 PUSH1 0x20 DUP3 DUP5 SUB SLT ISZERO PUSH2 0x3980 JUMPI PUSH1 0x0 DUP1 REVERT JUMPDEST DUP2 CALLDATALOAD PUSH32 0xFFFFFFFF00000000000000000000000000000000000000000000000000000000 DUP2 AND DUP2 EQ PUSH2 0x2A40 JUMPI PUSH1 0x0 DUP1 REVERT JUMPDEST PUSH1 0x0 PUSH1 0x20 DUP3 DUP5 SUB SLT ISZERO PUSH2 0x39C2 JUMPI PUSH1 0x0 DUP1 REVERT JUMPDEST POP CALLDATALOAD SWAP2 SWAP1 POP JUMP JUMPDEST PUSH1 0x20 DUP2 MSTORE PUSH1 0x0 PUSH2 0x2A40 PUSH1 0x20 DUP4 ADD DUP5 PUSH2 0x38B3 JUMP JUMPDEST DUP1 CALLDATALOAD PUSH20 0xFFFFFFFFFFFFFFFFFFFFFFFFFFFFFFFFFFFFFFFF DUP2 AND DUP2 EQ PUSH2 0x3A00 JUMPI PUSH1 0x0 DUP1 REVERT JUMPDEST SWAP2 SWAP1 POP JUMP JUMPDEST PUSH1 0x0 DUP1 PUSH1 0x40 DUP4 DUP6 SUB SLT ISZERO PUSH2 0x3A18 JUMPI PUSH1 0x0 DUP1 REVERT JUMPDEST DUP3 CALLDATALOAD SWAP2 POP PUSH2 0x3A28 PUSH1 0x20 DUP5 ADD PUSH2 0x39DC JUMP JUMPDEST SWAP1 POP SWAP3 POP SWAP3 SWAP1 POP JUMP JUMPDEST PUSH1 0x0 PUSH1 0x20 DUP3 DUP5 SUB SLT ISZERO PUSH2 0x3A43 JUMPI PUSH1 0x0 DUP1 REVERT JUMPDEST PUSH2 0x2A40 DUP3 PUSH2 0x39DC JUMP JUMPDEST PUSH1 0x0 PUSH2 0x180 DUP3 MLOAD DUP5 MSTORE PUSH1 0x20 DUP4 ADD MLOAD PUSH2 0x3A7C PUSH1 0x20 DUP7 ADD DUP3 PUSH20 0xFFFFFFFFFFFFFFFFFFFFFFFFFFFFFFFFFFFFFFFF AND SWAP1 MSTORE JUMP JUMPDEST POP PUSH1 0x40 DUP4 ADD MLOAD DUP2 PUSH1 0x40 DUP7 ADD MSTORE PUSH2 0x3A94 DUP3 DUP7 ADD DUP3 PUSH2 0x38B3 JUMP JUMPDEST SWAP2 POP POP PUSH1 0x60 DUP4 ADD MLOAD DUP5 DUP3 SUB PUSH1 0x60 DUP7 ADD MSTORE PUSH2 0x3AAE DUP3 DUP3 PUSH2 0x38B3 JUMP JUMPDEST SWAP2 POP POP PUSH1 0x80 DUP4 ADD MLOAD PUSH2 0x3AD8 PUSH1 0x80 DUP7 ADD DUP3 PUSH20 0xFFFFFFFFFFFFFFFFFFFFFFFFFFFFFFFFFFFFFFFF AND SWAP1 MSTORE JUMP JUMPDEST POP PUSH1 0xA0 DUP4 ADD MLOAD DUP5 DUP3 SUB PUSH1 0xA0 DUP7 ADD MSTORE PUSH2 0x3AF0 DUP3 DUP3 PUSH2 0x38B3 JUMP JUMPDEST SWAP2 POP POP PUSH1 0xC0 DUP4 ADD MLOAD DUP5 DUP3 SUB PUSH1 0xC0 DUP7 ADD MSTORE PUSH2 0x3B0A DUP3 DUP3 PUSH2 0x38B3 JUMP JUMPDEST SWAP2 POP POP PUSH1 0xE0 DUP4 ADD MLOAD DUP5 DUP3 SUB PUSH1 0xE0 DUP7 ADD MSTORE PUSH2 0x3B24 DUP3 DUP3 PUSH2 0x38B3 JUMP JUMPDEST PUSH2 0x100 DUP6 DUP2 ADD MLOAD SWAP1 DUP8 ADD MSTORE PUSH2 0x120 DUP1 DUP7 ADD MLOAD SWAP1 DUP8 ADD MSTORE PUSH2 0x140 DUP1 DUP7 ADD MLOAD SWAP1 DUP8 ADD MSTORE PUSH2 0x160 SWAP5 DUP6 ADD MLOAD SWAP5 SWAP1 SWAP6 ADD SWAP4 SWAP1 SWAP4 MSTORE POP SWAP2 SWAP3 SWAP2 POP POP JUMP JUMPDEST PUSH1 0x0 PUSH1 0x20 DUP1 DUP4 ADD DUP2 DUP5 MSTORE DUP1 DUP6 MLOAD DUP1 DUP4 MSTORE PUSH1 0x40 DUP7 ADD SWAP2 POP PUSH1 0x40 DUP2 PUSH1 0x5 SHL DUP8 ADD ADD SWAP3 POP DUP4 DUP8 ADD PUSH1 0x0 JUMPDEST DUP3 DUP2 LT ISZERO PUSH2 0x3961 JUMPI PUSH32 0xFFFFFFFFFFFFFFFFFFFFFFFFFFFFFFFFFFFFFFFFFFFFFFFFFFFFFFFFFFFFFFC0 DUP9 DUP7 SUB ADD DUP5 MSTORE PUSH2 0x3BBD DUP6 DUP4 MLOAD PUSH2 0x3A4C JUMP JUMPDEST SWAP5 POP SWAP3 DUP6 ADD SWAP3 SWAP1 DUP6 ADD SWAP1 PUSH1 0x1 ADD PUSH2 0x3B83 JUMP JUMPDEST PUSH1 0x0 DUP1 PUSH1 0x40 DUP4 DUP6 SUB SLT ISZERO PUSH2 0x3BE2 JUMPI PUSH1 0x0 DUP1 REVERT JUMPDEST PUSH2 0x3BEB DUP4 PUSH2 0x39DC JUMP JUMPDEST SWAP5 PUSH1 0x20 SWAP4 SWAP1 SWAP4 ADD CALLDATALOAD SWAP4 POP POP POP JUMP JUMPDEST DUP1 MLOAD DUP3 MSTORE PUSH1 0x20 DUP2 ADD MLOAD PUSH1 0x20 DUP4 ADD MSTORE PUSH1 0x0 PUSH1 0x40 DUP3 ADD MLOAD PUSH1 0xA0 PUSH1 0x40 DUP6 ADD MSTORE PUSH2 0x3C22 PUSH1 0xA0 DUP6 ADD DUP3 PUSH2 0x38B3 JUMP JUMPDEST SWAP1 POP PUSH1 0x60 DUP4 ADD MLOAD DUP5 DUP3 SUB PUSH1 0x60 DUP7 ADD MSTORE PUSH2 0x3C3B DUP3 DUP3 PUSH2 0x38B3 JUMP JUMPDEST SWAP2 POP POP PUSH1 0x80 DUP4 ADD MLOAD ISZERO ISZERO PUSH1 0x80 DUP6 ADD MSTORE DUP1 SWAP2 POP POP SWAP3 SWAP2 POP POP JUMP JUMPDEST PUSH1 0x0 PUSH1 0x20 DUP1 DUP4 ADD DUP2 DUP5 MSTORE DUP1 DUP6 MLOAD DUP1 DUP4 MSTORE PUSH1 0x40 DUP7 ADD SWAP2 POP PUSH1 0x40 DUP2 PUSH1 0x5 SHL DUP8 ADD ADD SWAP3 POP DUP4 DUP8 ADD PUSH1 0x0 JUMPDEST DUP3 DUP2 LT ISZERO PUSH2 0x3961 JUMPI PUSH32 0xFFFFFFFFFFFFFFFFFFFFFFFFFFFFFFFFFFFFFFFFFFFFFFFFFFFFFFFFFFFFFFC0 DUP9 DUP7 SUB ADD DUP5 MSTORE PUSH2 0x3CB5 DUP6 DUP4 MLOAD PUSH2 0x3BF9 JUMP JUMPDEST SWAP5 POP SWAP3 DUP6 ADD SWAP3 SWAP1 DUP6 ADD SWAP1 PUSH1 0x1 ADD PUSH2 0x3C7B JUMP JUMPDEST DUP1 PUSH1 0x40 DUP2 ADD DUP4 LT ISZERO PUSH2 0x690 JUMPI PUSH1 0x0 DUP1 REVERT JUMPDEST PUSH1 0x0 DUP1 PUSH1 0x0 DUP1 PUSH1 0x0 DUP1 PUSH1 0x0 PUSH1 0xE0 DUP9 DUP11 SUB SLT ISZERO PUSH2 0x3CF3 JUMPI PUSH1 0x0 DUP1 REVERT JUMPDEST DUP8 CALLDATALOAD SWAP7 POP PUSH2 0x3D04 DUP10 PUSH1 0x20 DUP11 ADD PUSH2 0x3CC7 JUMP JUMPDEST SWAP6 POP PUSH1 0x60 DUP9 ADD CALLDATALOAD PUSH8 0xFFFFFFFFFFFFFFFF DUP1 DUP3 GT ISZERO PUSH2 0x3D21 JUMPI PUSH1 0x0 DUP1 REVERT JUMPDEST PUSH2 0x3D2D DUP12 DUP4 DUP13 ADD PUSH2 0x3CC7 JUMP JUMPDEST SWAP7 POP PUSH1 0x80 DUP11 ADD CALLDATALOAD SWAP2 POP DUP1 DUP3 GT ISZERO PUSH2 0x3D43 JUMPI PUSH1 0x0 DUP1 REVERT JUMPDEST PUSH2 0x3D4F DUP12 DUP4 DUP13 ADD PUSH2 0x3CC7 JUMP JUMPDEST SWAP6 POP PUSH1 0xA0 DUP11 ADD CALLDATALOAD SWAP2 POP DUP1 DUP3 GT ISZERO PUSH2 0x3D65 JUMPI PUSH1 0x0 DUP1 REVERT JUMPDEST DUP2 DUP11 ADD SWAP2 POP DUP11 PUSH1 0x1F DUP4 ADD SLT PUSH2 0x3D79 JUMPI PUSH1 0x0 DUP1 REVERT JUMPDEST DUP2 CALLDATALOAD DUP2 DUP2 GT ISZERO PUSH2 0x3D88 JUMPI PUSH1 0x0 DUP1 REVERT JUMPDEST DUP12 PUSH1 0x20 DUP3 PUSH1 0x5 SHL DUP6 ADD ADD GT ISZERO PUSH2 0x3D9D JUMPI PUSH1 0x0 DUP1 REVERT JUMPDEST PUSH1 0x20 DUP4 ADD SWAP6 POP DUP1 SWAP5 POP POP POP POP PUSH1 0xC0 DUP9 ADD CALLDATALOAD SWAP1 POP SWAP3 SWAP6 SWAP9 SWAP2 SWAP5 SWAP8 POP SWAP3 SWAP6 POP JUMP JUMPDEST PUSH1 0x20 DUP2 MSTORE PUSH1 0x0 PUSH2 0x2A40 PUSH1 0x20 DUP4 ADD DUP5 PUSH2 0x3A4C JUMP JUMPDEST PUSH1 0x0 DUP1 PUSH1 0x0 PUSH1 0x60 DUP5 DUP7 SUB SLT ISZERO PUSH2 0x3DE4 JUMPI PUSH1 0x0 DUP1 REVERT JUMPDEST PUSH2 0x3DED DUP5 PUSH2 0x39DC JUMP JUMPDEST SWAP6 PUSH1 0x20 DUP6 ADD CALLDATALOAD SWAP6 POP PUSH1 0x40 SWAP1 SWAP5 ADD CALLDATALOAD SWAP4 SWAP3 POP POP POP JUMP JUMPDEST PUSH1 0x20 DUP2 MSTORE PUSH1 0x0 PUSH2 0x2A40 PUSH1 0x20 DUP4 ADD DUP5 PUSH2 0x3BF9 JUMP JUMPDEST PUSH1 0x0 DUP1 PUSH1 0x0 DUP1 PUSH1 0x80 DUP6 DUP8 SUB SLT ISZERO PUSH2 0x3E2B JUMPI PUSH1 0x0 DUP1 REVERT JUMPDEST PUSH2 0x3E34 DUP6 PUSH2 0x39DC JUMP JUMPDEST SWAP7 PUSH1 0x20 DUP7 ADD CALLDATALOAD SWAP7 POP PUSH1 0x40 DUP7 ADD CALLDATALOAD SWAP6 PUSH1 0x60 ADD CALLDATALOAD SWAP5 POP SWAP3 POP POP POP JUMP JUMPDEST PUSH32 0x4E487B7100000000000000000000000000000000000000000000000000000000 PUSH1 0x0 MSTORE PUSH1 0x41 PUSH1 0x4 MSTORE PUSH1 0x24 PUSH1 0x0 REVERT JUMPDEST PUSH1 0x40 MLOAD PUSH1 0x1F DUP3 ADD PUSH32 0xFFFFFFFFFFFFFFFFFFFFFFFFFFFFFFFFFFFFFFFFFFFFFFFFFFFFFFFFFFFFFFE0 AND DUP2 ADD PUSH8 0xFFFFFFFFFFFFFFFF DUP2 GT DUP3 DUP3 LT OR ISZERO PUSH2 0x3EC4 JUMPI PUSH2 0x3EC4 PUSH2 0x3E4E JUMP JUMPDEST PUSH1 0x40 MSTORE SWAP2 SWAP1 POP JUMP JUMPDEST PUSH1 0x0 DUP3 PUSH1 0x1F DUP4 ADD SLT PUSH2 0x3EDD JUMPI PUSH1 0x0 DUP1 REVERT JUMPDEST DUP2 CALLDATALOAD PUSH1 0x20 PUSH8 0xFFFFFFFFFFFFFFFF DUP3 GT ISZERO PUSH2 0x3EF9 JUMPI PUSH2 0x3EF9 PUSH2 0x3E4E JUMP JUMPDEST DUP2 PUSH1 0x5 SHL PUSH2 0x3F08 DUP3 DUP3 ADD PUSH2 0x3E7D JUMP JUMPDEST SWAP3 DUP4 MSTORE DUP5 DUP2 ADD DUP3 ADD SWAP3 DUP3 DUP2 ADD SWAP1 DUP8 DUP6 GT ISZERO PUSH2 0x3F22 JUMPI PUSH1 0x0 DUP1 REVERT JUMPDEST DUP4 DUP8 ADD SWAP3 POP JUMPDEST DUP5 DUP4 LT ISZERO PUSH2 0x3F41 JUMPI DUP3 CALLDATALOAD DUP3 MSTORE SWAP2 DUP4 ADD SWAP2 SWAP1 DUP4 ADD SWAP1 PUSH2 0x3F28 JUMP JUMPDEST SWAP8 SWAP7 POP POP POP POP POP POP POP JUMP JUMPDEST PUSH1 0x0 DUP3 PUSH1 0x1F DUP4 ADD SLT PUSH2 0x3F5D JUMPI PUSH1 0x0 DUP1 REVERT JUMPDEST DUP2 CALLDATALOAD PUSH8 0xFFFFFFFFFFFFFFFF DUP2 GT ISZERO PUSH2 0x3F77 JUMPI PUSH2 0x3F77 PUSH2 0x3E4E JUMP JUMPDEST PUSH2 0x3FA8 PUSH1 0x20 PUSH32 0xFFFFFFFFFFFFFFFFFFFFFFFFFFFFFFFFFFFFFFFFFFFFFFFFFFFFFFFFFFFFFFE0 PUSH1 0x1F DUP5 ADD AND ADD PUSH2 0x3E7D JUMP JUMPDEST DUP2 DUP2 MSTORE DUP5 PUSH1 0x20 DUP4 DUP7 ADD ADD GT ISZERO PUSH2 0x3FBD JUMPI PUSH1 0x0 DUP1 REVERT JUMPDEST DUP2 PUSH1 0x20 DUP6 ADD PUSH1 0x20 DUP4 ADD CALLDATACOPY PUSH1 0x0 SWAP2 DUP2 ADD PUSH1 0x20 ADD SWAP2 SWAP1 SWAP2 MSTORE SWAP4 SWAP3 POP POP POP JUMP JUMPDEST PUSH1 0x0 DUP1 PUSH1 0x0 DUP1 PUSH1 0x0 PUSH1 0xA0 DUP7 DUP9 SUB SLT ISZERO PUSH2 0x3FF2 JUMPI PUSH1 0x0 DUP1 REVERT JUMPDEST PUSH2 0x3FFB DUP7 PUSH2 0x39DC JUMP JUMPDEST SWAP5 POP PUSH2 0x4009 PUSH1 0x20 DUP8 ADD PUSH2 0x39DC JUMP JUMPDEST SWAP4 POP PUSH1 0x40 DUP7 ADD CALLDATALOAD PUSH8 0xFFFFFFFFFFFFFFFF DUP1 DUP3 GT ISZERO PUSH2 0x4026 JUMPI PUSH1 0x0 DUP1 REVERT JUMPDEST PUSH2 0x4032 DUP10 DUP4 DUP11 ADD PUSH2 0x3ECC JUMP JUMPDEST SWAP5 POP PUSH1 0x60 DUP9 ADD CALLDATALOAD SWAP2 POP DUP1 DUP3 GT ISZERO PUSH2 0x4048 JUMPI PUSH1 0x0 DUP1 REVERT JUMPDEST PUSH2 0x4054 DUP10 DUP4 DUP11 ADD PUSH2 0x3ECC JUMP JUMPDEST SWAP4 POP PUSH1 0x80 DUP9 ADD CALLDATALOAD SWAP2 POP DUP1 DUP3 GT ISZERO PUSH2 0x406A JUMPI PUSH1 0x0 DUP1 REVERT JUMPDEST POP PUSH2 0x4077 DUP9 DUP3 DUP10 ADD PUSH2 0x3F4C JUMP JUMPDEST SWAP2 POP POP SWAP3 SWAP6 POP SWAP3 SWAP6 SWAP1 SWAP4 POP JUMP JUMPDEST PUSH1 0x0 DUP1 PUSH1 0x0 DUP1 PUSH1 0x0 PUSH1 0xA0 DUP7 DUP9 SUB SLT ISZERO PUSH2 0x409C JUMPI PUSH1 0x0 DUP1 REVERT JUMPDEST PUSH2 0x40A5 DUP7 PUSH2 0x39DC JUMP JUMPDEST SWAP5 POP PUSH2 0x40B3 PUSH1 0x20 DUP8 ADD PUSH2 0x39DC JUMP JUMPDEST SWAP4 POP PUSH1 0x40 DUP7 ADD CALLDATALOAD SWAP3 POP PUSH1 0x60 DUP7 ADD CALLDATALOAD SWAP2 POP PUSH1 0x80 DUP7 ADD CALLDATALOAD PUSH8 0xFFFFFFFFFFFFFFFF DUP2 GT ISZERO PUSH2 0x40DD JUMPI PUSH1 0x0 DUP1 REVERT JUMPDEST PUSH2 0x4077 DUP9 DUP3 DUP10 ADD PUSH2 0x3F4C JUMP JUMPDEST PUSH32 0x4E487B7100000000000000000000000000000000000000000000000000000000 PUSH1 0x0 MSTORE PUSH1 0x11 PUSH1 0x4 MSTORE PUSH1 0x24 PUSH1 0x0 REVERT JUMPDEST DUP2 DUP2 SUB DUP2 DUP2 GT ISZERO PUSH2 0x690 JUMPI PUSH2 0x690 PUSH2 0x40E9 JUMP JUMPDEST DUP1 DUP3 ADD DUP1 DUP3 GT ISZERO PUSH2 0x690 JUMPI PUSH2 0x690 PUSH2 0x40E9 JUMP JUMPDEST PUSH32 0x4E487B7100000000000000000000000000000000000000000000000000000000 PUSH1 0x0 MSTORE PUSH1 0x32 PUSH1 0x4 MSTORE PUSH1 0x24 PUSH1 0x0 REVERT JUMPDEST PUSH1 0x0 PUSH32 0xFFFFFFFFFFFFFFFFFFFFFFFFFFFFFFFFFFFFFFFFFFFFFFFFFFFFFFFFFFFFFFFF DUP3 SUB PUSH2 0x419E JUMPI PUSH2 0x419E PUSH2 0x40E9 JUMP JUMPDEST POP PUSH1 0x1 ADD SWAP1 JUMP JUMPDEST PUSH1 0x0 DUP2 SLOAD DUP1 DUP5 MSTORE PUSH1 0x20 DUP1 DUP6 ADD SWAP5 POP DUP4 PUSH1 0x0 MSTORE DUP1 PUSH1 0x0 KECCAK256 PUSH1 0x0 JUMPDEST DUP4 DUP2 LT ISZERO PUSH2 0x38E3 JUMPI DUP2 SLOAD DUP8 MSTORE SWAP6 DUP3 ADD SWAP6 PUSH1 0x1 SWAP2 DUP3 ADD SWAP2 ADD PUSH2 0x41BE JUMP JUMPDEST PUSH1 0x0 PUSH2 0x180 DUP3 SLOAD DUP5 MSTORE PUSH2 0x4204 PUSH1 0x1 DUP5 ADD SLOAD PUSH20 0xFFFFFFFFFFFFFFFFFFFFFFFFFFFFFFFFFFFFFFFF AND SWAP1 JUMP JUMPDEST PUSH20 0xFFFFFFFFFFFFFFFFFFFFFFFFFFFFFFFFFFFFFFFF AND PUSH1 0x20 DUP6 ADD MSTORE PUSH1 0x40 DUP5 ADD DUP2 SWAP1 MSTORE PUSH2 0x4235 DUP2 DUP6 ADD PUSH1 0x2 DUP6 ADD PUSH2 0x41A5 JUMP JUMPDEST SWAP1 POP DUP4 DUP2 SUB PUSH1 0x60 DUP6 ADD MSTORE PUSH2 0x424C DUP2 PUSH1 0x3 DUP6 ADD PUSH2 0x41A5 JUMP JUMPDEST SWAP1 POP PUSH2 0x426F PUSH1 0x4 DUP5 ADD SLOAD PUSH20 0xFFFFFFFFFFFFFFFFFFFFFFFFFFFFFFFFFFFFFFFF AND SWAP1 JUMP JUMPDEST PUSH20 0xFFFFFFFFFFFFFFFFFFFFFFFFFFFFFFFFFFFFFFFF AND PUSH1 0x80 DUP6 ADD MSTORE DUP4 DUP2 SUB PUSH1 0xA0 DUP6 ADD MSTORE PUSH2 0x429F DUP2 PUSH1 0x5 DUP6 ADD PUSH2 0x41A5 JUMP JUMPDEST SWAP1 POP DUP4 DUP2 SUB PUSH1 0xC0 DUP6 ADD MSTORE PUSH2 0x42B6 DUP2 PUSH1 0x6 DUP6 ADD PUSH2 0x41A5 JUMP JUMPDEST SWAP1 POP DUP4 DUP2 SUB PUSH1 0xE0 DUP6 ADD MSTORE PUSH2 0x42CD DUP2 PUSH1 0x7 DUP6 ADD PUSH2 0x41A5 JUMP JUMPDEST PUSH1 0x8 DUP5 ADD SLOAD PUSH2 0x100 DUP7 ADD MSTORE PUSH1 0x9 DUP5 ADD SLOAD PUSH2 0x120 DUP7 ADD MSTORE PUSH1 0xA DUP5 ADD SLOAD PUSH2 0x140 DUP7 ADD MSTORE PUSH1 0xB SWAP1 SWAP4 ADD SLOAD PUSH2 0x160 SWAP1 SWAP5 ADD SWAP4 SWAP1 SWAP4 MSTORE POP SWAP2 SWAP1 POP JUMP JUMPDEST PUSH1 0x20 DUP2 MSTORE PUSH1 0x0 PUSH2 0x2A40 PUSH1 0x20 DUP4 ADD DUP5 PUSH2 0x41DA JUMP JUMPDEST PUSH1 0x0 PUSH1 0x20 DUP3 DUP5 SUB SLT ISZERO PUSH2 0x4329 JUMPI PUSH1 0x0 DUP1 REVERT JUMPDEST DUP2 MLOAD DUP1 ISZERO ISZERO DUP2 EQ PUSH2 0x2A40 JUMPI PUSH1 0x0 DUP1 REVERT JUMPDEST PUSH20 0xFFFFFFFFFFFFFFFFFFFFFFFFFFFFFFFFFFFFFFFF DUP5 AND DUP2 MSTORE PUSH1 0x60 PUSH1 0x20 DUP3 ADD MSTORE PUSH1 0x0 PUSH2 0x4368 PUSH1 0x60 DUP4 ADD DUP6 PUSH2 0x41A5 JUMP JUMPDEST DUP3 DUP2 SUB PUSH1 0x40 DUP5 ADD MSTORE PUSH2 0x437A DUP2 DUP6 PUSH2 0x41A5 JUMP JUMPDEST SWAP7 SWAP6 POP POP POP POP POP POP JUMP JUMPDEST PUSH1 0x0 PUSH20 0xFFFFFFFFFFFFFFFFFFFFFFFFFFFFFFFFFFFFFFFF DUP1 DUP8 AND DUP4 MSTORE DUP1 DUP7 AND PUSH1 0x20 DUP5 ADD MSTORE POP PUSH1 0xA0 PUSH1 0x40 DUP4 ADD MSTORE PUSH2 0x43BD PUSH1 0xA0 DUP4 ADD DUP6 PUSH2 0x41A5 JUMP JUMPDEST DUP3 DUP2 SUB PUSH1 0x60 DUP5 ADD MSTORE PUSH2 0x43CF DUP2 DUP6 PUSH2 0x41A5 JUMP JUMPDEST DUP4 DUP2 SUB PUSH1 0x80 SWAP1 SWAP5 ADD SWAP4 SWAP1 SWAP4 MSTORE POP POP PUSH1 0x0 DUP2 MSTORE PUSH1 0x20 ADD SWAP5 SWAP4 POP POP POP POP JUMP JUMPDEST PUSH1 0x40 DUP2 MSTORE PUSH1 0x0 PUSH2 0x43FF PUSH1 0x40 DUP4 ADD DUP6 PUSH2 0x41DA JUMP JUMPDEST SWAP1 POP PUSH20 0xFFFFFFFFFFFFFFFFFFFFFFFFFFFFFFFFFFFFFFFF DUP4 AND PUSH1 0x20 DUP4 ADD MSTORE SWAP4 SWAP3 POP POP POP JUMP JUMPDEST PUSH1 0x0 DUP1 DUP4 CALLDATALOAD PUSH32 0xFFFFFFFFFFFFFFFFFFFFFFFFFFFFFFFFFFFFFFFFFFFFFFFFFFFFFFFFFFFFFFE1 DUP5 CALLDATASIZE SUB ADD DUP2 SLT PUSH2 0x4459 JUMPI PUSH1 0x0 DUP1 REVERT JUMPDEST DUP4 ADD DUP1 CALLDATALOAD SWAP2 POP PUSH8 0xFFFFFFFFFFFFFFFF DUP3 GT ISZERO PUSH2 0x4474 JUMPI PUSH1 0x0 DUP1 REVERT JUMPDEST PUSH1 0x20 ADD SWAP2 POP PUSH1 0x5 DUP2 SWAP1 SHL CALLDATASIZE SUB DUP3 SGT ISZERO PUSH2 0x448C JUMPI PUSH1 0x0 DUP1 REVERT JUMPDEST SWAP3 POP SWAP3 SWAP1 POP JUMP JUMPDEST PUSH1 0x0 DUP3 PUSH2 0x44C9 JUMPI PUSH32 0x4E487B7100000000000000000000000000000000000000000000000000000000 PUSH1 0x0 MSTORE PUSH1 0x12 PUSH1 0x4 MSTORE PUSH1 0x24 PUSH1 0x0 REVERT JUMPDEST POP MOD SWAP1 JUMP JUMPDEST PUSH20 0xFFFFFFFFFFFFFFFFFFFFFFFFFFFFFFFFFFFFFFFF DUP5 AND DUP2 MSTORE PUSH1 0x60 PUSH1 0x20 DUP3 ADD MSTORE PUSH1 0x0 PUSH2 0x44FD PUSH1 0x60 DUP4 ADD DUP6 PUSH2 0x38B3 JUMP JUMPDEST DUP3 DUP2 SUB PUSH1 0x40 DUP5 ADD MSTORE PUSH2 0x437A DUP2 DUP6 PUSH2 0x38B3 JUMP JUMPDEST PUSH1 0x0 PUSH20 0xFFFFFFFFFFFFFFFFFFFFFFFFFFFFFFFFFFFFFFFF DUP1 DUP8 AND DUP4 MSTORE DUP1 DUP7 AND PUSH1 0x20 DUP5 ADD MSTORE POP PUSH1 0xA0 PUSH1 0x40 DUP4 ADD MSTORE PUSH2 0x4548 PUSH1 0xA0 DUP4 ADD DUP6 PUSH2 0x38B3 JUMP JUMPDEST DUP3 DUP2 SUB PUSH1 0x60 DUP5 ADD MSTORE PUSH2 0x43CF DUP2 DUP6 PUSH2 0x38B3 JUMP JUMPDEST PUSH1 0xA0 DUP2 MSTORE PUSH1 0x0 PUSH2 0x456D PUSH1 0xA0 DUP4 ADD DUP9 PUSH2 0x41DA JUMP JUMPDEST PUSH20 0xFFFFFFFFFFFFFFFFFFFFFFFFFFFFFFFFFFFFFFFF DUP8 AND PUSH1 0x20 DUP5 ADD MSTORE DUP6 PUSH1 0x40 DUP5 ADD MSTORE DUP3 DUP2 SUB PUSH1 0x60 DUP5 ADD MSTORE PUSH2 0x45A1 DUP2 DUP7 PUSH2 0x38B3 JUMP JUMPDEST SWAP1 POP DUP3 DUP2 SUB PUSH1 0x80 DUP5 ADD MSTORE PUSH2 0x45B5 DUP2 DUP6 PUSH2 0x38B3 JUMP JUMPDEST SWAP9 SWAP8 POP POP POP POP POP POP POP POP JUMP JUMPDEST PUSH1 0x0 JUMPDEST DUP4 DUP2 LT ISZERO PUSH2 0x45DC JUMPI DUP2 DUP2 ADD MLOAD DUP4 DUP3 ADD MSTORE PUSH1 0x20 ADD PUSH2 0x45C4 JUMP JUMPDEST POP POP PUSH1 0x0 SWAP2 ADD MSTORE JUMP JUMPDEST PUSH32 0x416363657373436F6E74726F6C3A206163636F756E7420000000000000000000 DUP2 MSTORE PUSH1 0x0 DUP4 MLOAD PUSH2 0x461D DUP2 PUSH1 0x17 DUP6 ADD PUSH1 0x20 DUP9 ADD PUSH2 0x45C1 JUMP JUMPDEST PUSH32 0x206973206D697373696E6720726F6C6520000000000000000000000000000000 PUSH1 0x17 SWAP2 DUP5 ADD SWAP2 DUP3 ADD MSTORE DUP4 MLOAD PUSH2 0x465A DUP2 PUSH1 0x28 DUP5 ADD PUSH1 0x20 DUP9 ADD PUSH2 0x45C1 JUMP JUMPDEST ADD PUSH1 0x28 ADD SWAP5 SWAP4 POP POP POP POP JUMP JUMPDEST PUSH1 0x20 DUP2 MSTORE PUSH1 0x0 DUP3 MLOAD DUP1 PUSH1 0x20 DUP5 ADD MSTORE PUSH2 0x4685 DUP2 PUSH1 0x40 DUP6 ADD PUSH1 0x20 DUP8 ADD PUSH2 0x45C1 JUMP JUMPDEST PUSH1 0x1F ADD PUSH32 0xFFFFFFFFFFFFFFFFFFFFFFFFFFFFFFFFFFFFFFFFFFFFFFFFFFFFFFFFFFFFFFE0 AND SWAP2 SWAP1 SWAP2 ADD PUSH1 0x40 ADD SWAP3 SWAP2 POP POP JUMP JUMPDEST PUSH32 0x4E487B7100000000000000000000000000000000000000000000000000000000 PUSH1 0x0 MSTORE PUSH1 0x31 PUSH1 0x4 MSTORE PUSH1 0x24 PUSH1 0x0 REVERT JUMPDEST PUSH1 0x0 DUP2 PUSH32 0xFFFFFFFFFFFFFFFFFFFFFFFFFFFFFFFFFFFFFFFFFFFFFFFFFFFFFFFFFFFFFFFF DIV DUP4 GT DUP3 ISZERO ISZERO AND ISZERO PUSH2 0x471E JUMPI PUSH2 0x471E PUSH2 0x40E9 JUMP JUMPDEST POP MUL SWAP1 JUMP JUMPDEST PUSH1 0x0 DUP2 PUSH2 0x4732 JUMPI PUSH2 0x4732 PUSH2 0x40E9 JUMP JUMPDEST POP PUSH32 0xFFFFFFFFFFFFFFFFFFFFFFFFFFFFFFFFFFFFFFFFFFFFFFFFFFFFFFFFFFFFFFFF ADD SWAP1 JUMP INVALID LOG2 PUSH5 0x6970667358 0x22 SLT KECCAK256 DUP15 0xE5 0xE4 PUSH29 0x946627C340CF01078FC242E444D4A1BC70D3545F1C49D04DBE03D4564 PUSH20 0x6F6C634300081000330000000000000000000000 "},"methodIdentifiers":{"DEFAULT_ADMIN_ROLE()":"a217fddf","allLootboxIds()":"ea61401a","allLootboxLastUpdates()":"7f416510","allLootboxes()":"de0ef5e4","allOpenedLootboxes(address,uint256)":"7f1d0ad2","claimLootbox(uint256,uint256)":"7ffb5c65","claimLootboxes(uint256)":"e1394b90","getRoleAdmin(bytes32)":"248a9ca3","grantRole(bytes32,address)":"2f2ff15d","hasRole(bytes32,address)":"91d14854","isTrustedForwarder(address)":"572b6c05","lootbox(uint256)":"92e11500","lootboxId(uint256)":"e8c683fd","lootboxLastUpdate(uint256)":"0e1d1da7","onERC1155BatchReceived(address,address,uint256[],uint256[],bytes)":"bc197c81","onERC1155Received(address,address,uint256,uint256,bytes)":"f23a6e61","openLootbox(uint256)":"7ff48190","openedLootbox(address,uint256,uint256)":"94cba64e","paginateLootboxIds(uint256,uint256)":"5ec2d022","paginateLootboxLastUpdates(uint256,uint256)":"01bab168","paginateLootboxes(uint256,uint256)":"60234af9","paginateOpenedLootboxes(address,uint256,uint256,uint256)":"af90a2b7","removeLootbox(uint256)":"07af4117","renounceRole(bytes32,address)":"36568abe","revokeRole(bytes32,address)":"d547741f","setClaimableBlockOffset(uint256)":"021b0647","setLootbox(uint256,address[2],uint256[][2],uint256[][2],uint256[],uint256)":"8404adc1","supportsInterface(bytes4)":"01ffc9a7","totalClaimableLootboxes(address,uint256)":"abb5d942","totalLootboxes()":"826410fc","totalOpenedLootboxes(address,uint256)":"fbf3040d","upgradeTrustedForwarder(address)":"aa2a7eea"}}}}}