{
  "_format": "hh-sol-artifact-1",
  "contractName": "ERC20_Game_Currency",
  "sourceName": "contracts/Currency/ERC20_Game_Currency.sol",
  "abi": [
    {
      "inputs": [
        {
          "internalType": "string",
          "name": "_name",
          "type": "string"
        },
        {
          "internalType": "string",
          "name": "_symbol",
          "type": "string"
        },
        {
          "internalType": "uint256",
          "name": "_supplyCap",
          "type": "uint256"
        },
        {
          "internalType": "address",
          "name": "_forwarder",
          "type": "address"
        }
      ],
      "stateMutability": "nonpayable",
      "type": "constructor"
    },
    {
      "anonymous": false,
      "inputs": [
        {
          "indexed": true,
          "internalType": "address",
          "name": "owner",
          "type": "address"
        },
        {
          "indexed": true,
          "internalType": "address",
          "name": "spender",
          "type": "address"
        },
        {
          "indexed": false,
          "internalType": "uint256",
          "name": "value",
          "type": "uint256"
        }
      ],
      "name": "Approval",
      "type": "event"
    },
    {
      "anonymous": false,
      "inputs": [
        {
          "indexed": true,
          "internalType": "address",
          "name": "sender",
          "type": "address"
        },
        {
          "indexed": false,
          "internalType": "address[]",
          "name": "recipients",
          "type": "address[]"
        },
        {
          "indexed": false,
          "internalType": "uint256[]",
          "name": "amounts",
          "type": "uint256[]"
        },
        {
          "indexed": false,
          "internalType": "uint256[]",
          "name": "refs",
          "type": "uint256[]"
        }
      ],
      "name": "BatchTransferRef",
      "type": "event"
    },
    {
      "anonymous": false,
      "inputs": [
        {
          "indexed": true,
          "internalType": "bytes32",
          "name": "role",
          "type": "bytes32"
        },
        {
          "indexed": true,
          "internalType": "bytes32",
          "name": "previousAdminRole",
          "type": "bytes32"
        },
        {
          "indexed": true,
          "internalType": "bytes32",
          "name": "newAdminRole",
          "type": "bytes32"
        }
      ],
      "name": "RoleAdminChanged",
      "type": "event"
    },
    {
      "anonymous": false,
      "inputs": [
        {
          "indexed": true,
          "internalType": "bytes32",
          "name": "role",
          "type": "bytes32"
        },
        {
          "indexed": true,
          "internalType": "address",
          "name": "account",
          "type": "address"
        },
        {
          "indexed": true,
          "internalType": "address",
          "name": "sender",
          "type": "address"
        }
      ],
      "name": "RoleGranted",
      "type": "event"
    },
    {
      "anonymous": false,
      "inputs": [
        {
          "indexed": true,
          "internalType": "bytes32",
          "name": "role",
          "type": "bytes32"
        },
        {
          "indexed": true,
          "internalType": "address",
          "name": "account",
          "type": "address"
        },
        {
          "indexed": true,
          "internalType": "address",
          "name": "sender",
          "type": "address"
        }
      ],
      "name": "RoleRevoked",
      "type": "event"
    },
    {
      "anonymous": false,
      "inputs": [
        {
          "indexed": true,
          "internalType": "address",
          "name": "from",
          "type": "address"
        },
        {
          "indexed": true,
          "internalType": "address",
          "name": "to",
          "type": "address"
        },
        {
          "indexed": false,
          "internalType": "uint256",
          "name": "value",
          "type": "uint256"
        }
      ],
      "name": "Transfer",
      "type": "event"
    },
    {
      "anonymous": false,
      "inputs": [
        {
          "indexed": true,
          "internalType": "address",
          "name": "sender",
          "type": "address"
        },
        {
          "indexed": true,
          "internalType": "address",
          "name": "recipient",
          "type": "address"
        },
        {
          "indexed": false,
          "internalType": "uint256",
          "name": "amount",
          "type": "uint256"
        },
        {
          "indexed": false,
          "internalType": "uint256",
          "name": "ref",
          "type": "uint256"
        }
      ],
      "name": "TransferRef",
      "type": "event"
    },
    {
      "inputs": [],
      "name": "DEFAULT_ADMIN_ROLE",
      "outputs": [
        {
          "internalType": "bytes32",
          "name": "",
          "type": "bytes32"
        }
      ],
      "stateMutability": "view",
      "type": "function"
    },
    {
      "inputs": [
        {
          "internalType": "address",
          "name": "owner",
          "type": "address"
        },
        {
          "internalType": "address",
          "name": "spender",
          "type": "address"
        }
      ],
      "name": "allowance",
      "outputs": [
        {
          "internalType": "uint256",
          "name": "",
          "type": "uint256"
        }
      ],
      "stateMutability": "view",
      "type": "function"
    },
    {
      "inputs": [
        {
          "internalType": "address",
          "name": "spender",
          "type": "address"
        },
        {
          "internalType": "uint256",
          "name": "amount",
          "type": "uint256"
        }
      ],
      "name": "approve",
      "outputs": [
        {
          "internalType": "bool",
          "name": "",
          "type": "bool"
        }
      ],
      "stateMutability": "nonpayable",
      "type": "function"
    },
    {
      "inputs": [
        {
          "internalType": "address",
          "name": "account",
          "type": "address"
        }
      ],
      "name": "balanceOf",
      "outputs": [
        {
          "internalType": "uint256",
          "name": "",
          "type": "uint256"
        }
      ],
      "stateMutability": "view",
      "type": "function"
    },
    {
      "inputs": [
        {
          "internalType": "address[]",
          "name": "recipients",
          "type": "address[]"
        },
        {
          "internalType": "uint256[]",
          "name": "amounts",
          "type": "uint256[]"
        }
      ],
      "name": "batchTransfer",
      "outputs": [
        {
          "internalType": "bool",
          "name": "",
          "type": "bool"
        }
      ],
      "stateMutability": "nonpayable",
      "type": "function"
    },
    {
      "inputs": [
        {
          "internalType": "address[]",
          "name": "recipients",
          "type": "address[]"
        },
        {
          "internalType": "uint256[]",
          "name": "amounts",
          "type": "uint256[]"
        }
      ],
      "name": "batchTransferWithFees",
      "outputs": [
        {
          "internalType": "bool",
          "name": "",
          "type": "bool"
        }
      ],
      "stateMutability": "nonpayable",
      "type": "function"
    },
    {
      "inputs": [
        {
          "internalType": "address[]",
          "name": "recipients",
          "type": "address[]"
        },
        {
          "internalType": "uint256[]",
          "name": "amounts",
          "type": "uint256[]"
        },
        {
          "internalType": "uint256[]",
          "name": "refs",
          "type": "uint256[]"
        }
      ],
      "name": "batchTransferWithFeesRefs",
      "outputs": [
        {
          "internalType": "bool",
          "name": "",
          "type": "bool"
        }
      ],
      "stateMutability": "nonpayable",
      "type": "function"
    },
    {
      "inputs": [
        {
          "internalType": "address[]",
          "name": "recipients",
          "type": "address[]"
        },
        {
          "internalType": "uint256[]",
          "name": "amounts",
          "type": "uint256[]"
        },
        {
          "internalType": "uint256[]",
          "name": "refs",
          "type": "uint256[]"
        }
      ],
      "name": "batchTransferWithRefs",
      "outputs": [
        {
          "internalType": "bool",
          "name": "",
          "type": "bool"
        }
      ],
      "stateMutability": "nonpayable",
      "type": "function"
    },
    {
      "inputs": [
        {
          "internalType": "uint256",
          "name": "_amount",
          "type": "uint256"
        }
      ],
      "name": "burn",
      "outputs": [],
      "stateMutability": "nonpayable",
      "type": "function"
    },
    {
      "inputs": [
        {
          "internalType": "uint256",
          "name": "amount",
          "type": "uint256"
        }
      ],
      "name": "burnWithFee",
      "outputs": [
        {
          "internalType": "bool",
          "name": "",
          "type": "bool"
        }
      ],
      "stateMutability": "nonpayable",
      "type": "function"
    },
    {
      "inputs": [],
      "name": "childChainManagerProxy",
      "outputs": [
        {
          "internalType": "address",
          "name": "",
          "type": "address"
        }
      ],
      "stateMutability": "view",
      "type": "function"
    },
    {
      "inputs": [],
      "name": "decimals",
      "outputs": [
        {
          "internalType": "uint8",
          "name": "",
          "type": "uint8"
        }
      ],
      "stateMutability": "view",
      "type": "function"
    },
    {
      "inputs": [
        {
          "internalType": "address",
          "name": "spender",
          "type": "address"
        },
        {
          "internalType": "uint256",
          "name": "subtractedValue",
          "type": "uint256"
        }
      ],
      "name": "decreaseAllowance",
      "outputs": [
        {
          "internalType": "bool",
          "name": "",
          "type": "bool"
        }
      ],
      "stateMutability": "nonpayable",
      "type": "function"
    },
    {
      "inputs": [
        {
          "internalType": "address",
          "name": "user",
          "type": "address"
        },
        {
          "internalType": "bytes",
          "name": "depositData",
          "type": "bytes"
        }
      ],
      "name": "deposit",
      "outputs": [],
      "stateMutability": "nonpayable",
      "type": "function"
    },
    {
      "inputs": [],
      "name": "feeBps",
      "outputs": [
        {
          "internalType": "uint256",
          "name": "",
          "type": "uint256"
        }
      ],
      "stateMutability": "view",
      "type": "function"
    },
    {
      "inputs": [],
      "name": "feeCap",
      "outputs": [
        {
          "internalType": "uint256",
          "name": "",
          "type": "uint256"
        }
      ],
      "stateMutability": "view",
      "type": "function"
    },
    {
      "inputs": [],
      "name": "feeFixed",
      "outputs": [
        {
          "internalType": "uint256",
          "name": "",
          "type": "uint256"
        }
      ],
      "stateMutability": "view",
      "type": "function"
    },
    {
      "inputs": [],
      "name": "feeRecipient",
      "outputs": [
        {
          "internalType": "address",
          "name": "",
          "type": "address"
        }
      ],
      "stateMutability": "view",
      "type": "function"
    },
    {
      "inputs": [
        {
          "internalType": "bytes32",
          "name": "role",
          "type": "bytes32"
        }
      ],
      "name": "getRoleAdmin",
      "outputs": [
        {
          "internalType": "bytes32",
          "name": "",
          "type": "bytes32"
        }
      ],
      "stateMutability": "view",
      "type": "function"
    },
    {
      "inputs": [
        {
          "internalType": "bytes32",
          "name": "role",
          "type": "bytes32"
        },
        {
          "internalType": "address",
          "name": "account",
          "type": "address"
        }
      ],
      "name": "grantRole",
      "outputs": [],
      "stateMutability": "nonpayable",
      "type": "function"
    },
    {
      "inputs": [
        {
          "internalType": "bytes32",
          "name": "role",
          "type": "bytes32"
        },
        {
          "internalType": "address",
          "name": "account",
          "type": "address"
        }
      ],
      "name": "hasRole",
      "outputs": [
        {
          "internalType": "bool",
          "name": "",
          "type": "bool"
        }
      ],
      "stateMutability": "view",
      "type": "function"
    },
    {
      "inputs": [
        {
          "internalType": "address",
          "name": "spender",
          "type": "address"
        },
        {
          "internalType": "uint256",
          "name": "addedValue",
          "type": "uint256"
        }
      ],
      "name": "increaseAllowance",
      "outputs": [
        {
          "internalType": "bool",
          "name": "",
          "type": "bool"
        }
      ],
      "stateMutability": "nonpayable",
      "type": "function"
    },
    {
      "inputs": [
        {
          "internalType": "address",
          "name": "forwarder",
          "type": "address"
        }
      ],
      "name": "isTrustedForwarder",
      "outputs": [
        {
          "internalType": "bool",
          "name": "",
          "type": "bool"
        }
      ],
      "stateMutability": "view",
      "type": "function"
    },
    {
      "inputs": [
        {
          "internalType": "address",
          "name": "_to",
          "type": "address"
        },
        {
          "internalType": "uint256",
          "name": "_amount",
          "type": "uint256"
        }
      ],
      "name": "mint",
      "outputs": [],
      "stateMutability": "nonpayable",
      "type": "function"
    },
    {
      "inputs": [],
      "name": "name",
      "outputs": [
        {
          "internalType": "string",
          "name": "",
          "type": "string"
        }
      ],
      "stateMutability": "view",
      "type": "function"
    },
    {
      "inputs": [
        {
          "internalType": "bytes32",
          "name": "role",
          "type": "bytes32"
        },
        {
          "internalType": "address",
          "name": "account",
          "type": "address"
        }
      ],
      "name": "renounceRole",
      "outputs": [],
      "stateMutability": "nonpayable",
      "type": "function"
    },
    {
      "inputs": [
        {
          "internalType": "bytes32",
          "name": "role",
          "type": "bytes32"
        },
        {
          "internalType": "address",
          "name": "account",
          "type": "address"
        }
      ],
      "name": "revokeRole",
      "outputs": [],
      "stateMutability": "nonpayable",
      "type": "function"
    },
    {
      "inputs": [
        {
          "internalType": "address",
          "name": "recipient",
          "type": "address"
        },
        {
          "internalType": "uint256",
          "name": "_feeBps",
          "type": "uint256"
        },
        {
          "internalType": "uint256",
          "name": "_feeFixed",
          "type": "uint256"
        },
        {
          "internalType": "uint256",
          "name": "_feeCap",
          "type": "uint256"
        }
      ],
      "name": "setFees",
      "outputs": [],
      "stateMutability": "nonpayable",
      "type": "function"
    },
    {
      "inputs": [],
      "name": "supplyCap",
      "outputs": [
        {
          "internalType": "uint256",
          "name": "",
          "type": "uint256"
        }
      ],
      "stateMutability": "view",
      "type": "function"
    },
    {
      "inputs": [
        {
          "internalType": "bytes4",
          "name": "interfaceId",
          "type": "bytes4"
        }
      ],
      "name": "supportsInterface",
      "outputs": [
        {
          "internalType": "bool",
          "name": "",
          "type": "bool"
        }
      ],
      "stateMutability": "view",
      "type": "function"
    },
    {
      "inputs": [],
      "name": "symbol",
      "outputs": [
        {
          "internalType": "string",
          "name": "",
          "type": "string"
        }
      ],
      "stateMutability": "view",
      "type": "function"
    },
    {
      "inputs": [],
      "name": "totalSupply",
      "outputs": [
        {
          "internalType": "uint256",
          "name": "",
          "type": "uint256"
        }
      ],
      "stateMutability": "view",
      "type": "function"
    },
    {
      "inputs": [
        {
          "internalType": "address",
          "name": "to",
          "type": "address"
        },
        {
          "internalType": "uint256",
          "name": "amount",
          "type": "uint256"
        }
      ],
      "name": "transfer",
      "outputs": [
        {
          "internalType": "bool",
          "name": "",
          "type": "bool"
        }
      ],
      "stateMutability": "nonpayable",
      "type": "function"
    },
    {
      "inputs": [
        {
          "internalType": "address",
          "name": "from",
          "type": "address"
        },
        {
          "internalType": "address",
          "name": "to",
          "type": "address"
        },
        {
          "internalType": "uint256",
          "name": "amount",
          "type": "uint256"
        }
      ],
      "name": "transferFrom",
      "outputs": [
        {
          "internalType": "bool",
          "name": "",
          "type": "bool"
        }
      ],
      "stateMutability": "nonpayable",
      "type": "function"
    },
    {
      "inputs": [
        {
          "internalType": "address",
          "name": "recipient",
          "type": "address"
        },
        {
          "internalType": "uint256",
          "name": "amount",
          "type": "uint256"
        }
      ],
      "name": "transferWithFee",
      "outputs": [
        {
          "internalType": "bool",
          "name": "",
          "type": "bool"
        }
      ],
      "stateMutability": "nonpayable",
      "type": "function"
    },
    {
      "inputs": [
        {
          "internalType": "address",
          "name": "recipient",
          "type": "address"
        },
        {
          "internalType": "uint256",
          "name": "amount",
          "type": "uint256"
        },
        {
          "internalType": "uint256",
          "name": "ref",
          "type": "uint256"
        }
      ],
      "name": "transferWithFeeRef",
      "outputs": [
        {
          "internalType": "bool",
          "name": "",
          "type": "bool"
        }
      ],
      "stateMutability": "nonpayable",
      "type": "function"
    },
    {
      "inputs": [
        {
          "internalType": "address",
          "name": "recipient",
          "type": "address"
        },
        {
          "internalType": "uint256",
          "name": "amount",
          "type": "uint256"
        },
        {
          "internalType": "uint256",
          "name": "ref",
          "type": "uint256"
        }
      ],
      "name": "transferWithRef",
      "outputs": [
        {
          "internalType": "bool",
          "name": "",
          "type": "bool"
        }
      ],
      "stateMutability": "nonpayable",
      "type": "function"
    },
    {
      "inputs": [
        {
          "internalType": "address",
          "name": "_childChainManagerProxy",
          "type": "address"
        }
      ],
      "name": "updateChildChainManager",
      "outputs": [],
      "stateMutability": "nonpayable",
      "type": "function"
    },
    {
      "inputs": [
        {
          "internalType": "address",
          "name": "_newTrustedForwarder",
          "type": "address"
        }
      ],
      "name": "upgradeTrustedForwarder",
      "outputs": [],
      "stateMutability": "nonpayable",
      "type": "function"
    },
    {
      "inputs": [
        {
          "internalType": "uint256",
          "name": "amount",
          "type": "uint256"
        }
      ],
      "name": "withdraw",
      "outputs": [],
      "stateMutability": "nonpayable",
      "type": "function"
    }
  ],
  "bytecode": "0x60a06040523480156200001157600080fd5b5060405162003225380380620032258339810160408190526200003491620002c9565b8084846003620000458382620003ed565b506004620000548282620003ed565b5050600580546001600160a01b0319166001600160a01b0393909316929092179091555062000082620000f6565b600a80546001600160a01b0319166001600160a01b03929092169190911790556080829052620000bd6000620000b7620000f6565b62000112565b620000ec7fc9fc9949603a50f5cc3a96f774f1d68287789a241d2082dc81d0fb19a53bcf2b620000b7620000f6565b50505050620004b9565b60006200010d6200012260201b62000fcd1760201c565b905090565b6200011e82826200015a565b5050565b6005546000906001600160a01b0316330362000145575060131936013560601c90565b6200010d6200020060201b620010241760201c565b60008281526006602090815260408083206001600160a01b038516845290915290205460ff166200011e5760008281526006602090815260408083206001600160a01b03851684529091529020805460ff19166001179055620001bc620000f6565b6001600160a01b0316816001600160a01b0316837f2f8788117e7eff1d82e926ec794901d17c78024a50270940304540a733656f0d60405160405180910390a45050565b3390565b634e487b7160e01b600052604160045260246000fd5b600082601f8301126200022c57600080fd5b81516001600160401b038082111562000249576200024962000204565b604051601f8301601f19908116603f0116810190828211818310171562000274576200027462000204565b816040528381526020925086838588010111156200029157600080fd5b600091505b83821015620002b5578582018301518183018401529082019062000296565b600093810190920192909252949350505050565b60008060008060808587031215620002e057600080fd5b84516001600160401b0380821115620002f857600080fd5b62000306888389016200021a565b955060208701519150808211156200031d57600080fd5b506200032c878288016200021a565b60408701516060880151919550935090506001600160a01b03811681146200035357600080fd5b939692955090935050565b600181811c908216806200037357607f821691505b6020821081036200039457634e487b7160e01b600052602260045260246000fd5b50919050565b601f821115620003e857600081815260208120601f850160051c81016020861015620003c35750805b601f850160051c820191505b81811015620003e457828155600101620003cf565b5050505b505050565b81516001600160401b0381111562000409576200040962000204565b62000421816200041a84546200035e565b846200039a565b602080601f831160018114620004595760008415620004405750858301515b600019600386901b1c1916600185901b178555620003e4565b600085815260208120601f198616915b828110156200048a5788860151825594840194600190910190840162000469565b5085821015620004a95787850151600019600388901b60f8161c191681555b5050505050600190811b01905550565b608051612d42620004e36000396000818161056e015281816120b801526120de0152612d426000f3fe608060405234801561001057600080fd5b50600436106102c85760003560e01c8063445a67971161017b57806391d14854116100d8578063aa2a7eea1161008c578063cf2c52cb11610071578063cf2c52cb14610632578063d547741f14610645578063dd62ed3e1461065857600080fd5b8063aa2a7eea1461060c578063c6be49e71461061f57600080fd5b8063a217fddf116100bd578063a217fddf146105de578063a457c2d7146105e6578063a9059cbb146105f957600080fd5b806391d148541461059057806395d89b41146105d657600080fd5b806370a082311161012f578063824c0d6611610114578063824c0d661461054357806388d695b2146105565780638f770ad01461056957600080fd5b806370a08231146104fa5780637669d4891461053057600080fd5b8063572b6c0511610160578063572b6c05146104985780635932a78e146104c757806362f629e7146104da57600080fd5b8063445a679714610440578063469048401461045357600080fd5b8063248a9ca31161022957806336568abe116101dd57806339509351116101c2578063395093511461041a57806340c10f191461042d57806342966c68146103bd57600080fd5b806336568abe146103f457806337ea010a1461040757600080fd5b80632e1a7d4d1161020e5780632e1a7d4d146103bd5780632f2ff15d146103d2578063313ce567146103e557600080fd5b8063248a9ca31461039157806324a9d853146103b457600080fd5b8063095ea7b31161028057806312b681981161026557806312b681981461036357806318160ddd1461037657806323b872dd1461037e57600080fd5b8063095ea7b3146103475780630e3d22021461035a57600080fd5b806306fdde03116102b157806306fdde0314610308578063075b6e331461031d57806308acece21461033457600080fd5b806301ffc9a7146102cd578063050b7883146102f5575b600080fd5b6102e06102db3660046125bf565b61069e565b60405190151581526020015b60405180910390f35b6102e061030336600461264d565b6106fa565b610310610713565b6040516102ec91906126dd565b61032660095481565b6040519081526020016102ec565b6102e0610342366004612757565b6107a5565b6102e0610355366004612757565b6107bc565b61032660085481565b6102e0610371366004612781565b6107de565b600254610326565b6102e061038c36600461281b565b6107fb565b61032661039f366004612857565b60009081526006602052604090206001015490565b61032660075481565b6103d06103cb366004612857565b610829565b005b6103d06103e0366004612870565b61083d565b604051601281526020016102ec565b6103d0610402366004612870565b610867565b6102e061041536600461289c565b61093c565b6102e0610428366004612757565b6109d1565b6103d061043b366004612757565b610a30565b6103d061044e3660046128cf565b610ba4565b600a546104739073ffffffffffffffffffffffffffffffffffffffff1681565b60405173ffffffffffffffffffffffffffffffffffffffff90911681526020016102ec565b6102e06104a63660046128cf565b60055473ffffffffffffffffffffffffffffffffffffffff91821691161490565b6102e06104d536600461289c565b610c16565b600b546104739073ffffffffffffffffffffffffffffffffffffffff1681565b6103266105083660046128cf565b73ffffffffffffffffffffffffffffffffffffffff1660009081526020819052604090205490565b6103d061053e3660046128ea565b610c42565b6102e0610551366004612781565b610d3e565b6102e061056436600461264d565b610d50565b6103267f000000000000000000000000000000000000000000000000000000000000000081565b6102e061059e366004612870565b600091825260066020908152604080842073ffffffffffffffffffffffffffffffffffffffff93909316845291905290205460ff1690565b610310610d60565b610326600081565b6102e06105f4366004612757565b610d6f565b6102e0610607366004612757565b610e4d565b6103d061061a3660046128cf565b610e65565b6102e061062d366004612857565b610ed3565b6103d0610640366004612923565b610eea565b6103d0610653366004612870565b610fa8565b6103266106663660046129a6565b73ffffffffffffffffffffffffffffffffffffffff918216600090815260016020908152604080832093909416825291909152205490565b60007fffffffff0000000000000000000000000000000000000000000000000000000082167fea6162b20000000000000000000000000000000000000000000000000000000014806106f457506106f482611028565b92915050565b600061070a8585858560016110bf565b95945050505050565b606060038054610722906129d0565b80601f016020809104026020016040519081016040528092919081815260200182805461074e906129d0565b801561079b5780601f106107705761010080835404028352916020019161079b565b820191906000526020600020905b81548152906001019060200180831161077e57829003601f168201915b5050505050905090565b60006107b383836000611259565b50600192915050565b6000806107c7611454565b90506107d481858561145e565b5060019392505050565b60006107f08787878787876000611611565b979650505050505050565b600080610806611454565b905061081385828561194c565b61081e858585611a1d565b506001949350505050565b61083a610834611454565b82611cd0565b50565b60008281526006602052604090206001015461085881611ebd565b6108628383611ece565b505050565b61086f611454565b73ffffffffffffffffffffffffffffffffffffffff168173ffffffffffffffffffffffffffffffffffffffff161461092e576040517f08c379a000000000000000000000000000000000000000000000000000000000815260206004820152602f60248201527f416363657373436f6e74726f6c3a2063616e206f6e6c792072656e6f756e636560448201527f20726f6c657320666f722073656c66000000000000000000000000000000000060648201526084015b60405180910390fd5b6109388282611fc3565b5050565b6000610950610949611454565b8585611a1d565b8373ffffffffffffffffffffffffffffffffffffffff1661096f611454565b73ffffffffffffffffffffffffffffffffffffffff167f9be86a1edd93f234e9c42b9ec0ff205d1b91b05eed309f225cc0a82f9365083085856040516109bf929190918252602082015260400190565b60405180910390a35060019392505050565b6000806109dc611454565b90506107d4818585610a21858973ffffffffffffffffffffffffffffffffffffffff918216600090815260016020908152604080832093909416825291909152205490565b610a2b9190612a52565b61145e565b610a5c7fc9fc9949603a50f5cc3a96f774f1d68287789a241d2082dc81d0fb19a53bcf2b61059e611454565b80610a8e5750610a8e7fc9eb32e43bf5ecbceacf00b32281dfc5d6d700a0db676ea26ccf938a385ac3f761059e611454565b610af4576040517f08c379a000000000000000000000000000000000000000000000000000000000815260206004820152601760248201527f4e6f7420617574686f72697a656420746f206d696e742e0000000000000000006044820152606401610925565b600b5473ffffffffffffffffffffffffffffffffffffffff1615610b9a576040517f08c379a000000000000000000000000000000000000000000000000000000000815260206004820152603060248201527f4d696e74696e672064697361626c6564207768656e20506f6c79676f6e20627260448201527f6964676520697320656e61626c65642e000000000000000000000000000000006064820152608401610925565b61093882826120b6565b7fc9fc9949603a50f5cc3a96f774f1d68287789a241d2082dc81d0fb19a53bcf2b610bce81611ebd565b50600b80547fffffffffffffffffffffffff00000000000000000000000000000000000000001673ffffffffffffffffffffffffffffffffffffffff92909216919091179055565b6000610c2284846107a5565b508373ffffffffffffffffffffffffffffffffffffffff1661096f611454565b7fc9fc9949603a50f5cc3a96f774f1d68287789a241d2082dc81d0fb19a53bcf2b610c6c81611ebd565b73ffffffffffffffffffffffffffffffffffffffff8516610ce9576040517f08c379a000000000000000000000000000000000000000000000000000000000815260206004820152601360248201527f726563697069656e7420697320302061646472000000000000000000000000006044820152606401610925565b50600a80547fffffffffffffffffffffffff00000000000000000000000000000000000000001673ffffffffffffffffffffffffffffffffffffffff9590951694909417909355600791909155600855600955565b60006107f08787878787876001611611565b600061070a8585858560006110bf565b606060048054610722906129d0565b600080610d7a611454565b73ffffffffffffffffffffffffffffffffffffffff81811660009081526001602090815260408083209389168352929052205490915083811015610e40576040517f08c379a000000000000000000000000000000000000000000000000000000000815260206004820152602560248201527f45524332303a2064656372656173656420616c6c6f77616e63652062656c6f7760448201527f207a65726f0000000000000000000000000000000000000000000000000000006064820152608401610925565b61081e828686840361145e565b600080610e58611454565b90506107d4818585611a1d565b7fc9fc9949603a50f5cc3a96f774f1d68287789a241d2082dc81d0fb19a53bcf2b610e8f81611ebd565b600580547fffffffffffffffffffffffff00000000000000000000000000000000000000001673ffffffffffffffffffffffffffffffffffffffff84161790555050565b6000610ee26000836001611259565b506001919050565b600b5473ffffffffffffffffffffffffffffffffffffffff16610f0b611454565b73ffffffffffffffffffffffffffffffffffffffff1614610f88576040517f08c379a000000000000000000000000000000000000000000000000000000000815260206004820152601f60248201527f41646472657373206e6f7420616c6c6f77656420746f206465706f7369742e006044820152606401610925565b6000610f9682840184612857565b9050610fa284826120b6565b50505050565b600082815260066020526040902060010154610fc381611ebd565b6108628383611fc3565b60055460009073ffffffffffffffffffffffffffffffffffffffff16330361101a57507fffffffffffffffffffffffffffffffffffffffffffffffffffffffffffffffec36013560601c90565b503390565b905090565b3390565b60007fffffffff0000000000000000000000000000000000000000000000000000000082167f7965db0b0000000000000000000000000000000000000000000000000000000014806106f457507f01ffc9a7000000000000000000000000000000000000000000000000000000007fffffffff000000000000000000000000000000000000000000000000000000008316146106f4565b600084611128576040517f08c379a000000000000000000000000000000000000000000000000000000000815260206004820152600d60248201527f4e6f20726563697069656e7473000000000000000000000000000000000000006044820152606401610925565b848314611191576040517f08c379a000000000000000000000000000000000000000000000000000000000815260206004820181905260248201527f616d6f756e747320617267756d656e742073697a65206d69736d6174636865646044820152606401610925565b60005b8581101561124c5782156111f0576111ea8787838181106111b7576111b7612a65565b90506020020160208101906111cc91906128cf565b8686848181106111de576111de612a65565b905060200201356107a5565b5061123a565b61123887878381811061120557611205612a65565b905060200201602081019061121a91906128cf565b86868481811061122c5761122c612a65565b90506020020135610e4d565b505b8061124481612a94565b915050611194565b5060019695505050505050565b6000611266610508611454565b600a5490915073ffffffffffffffffffffffffffffffffffffffff1661130e576040517f08c379a000000000000000000000000000000000000000000000000000000000815260206004820152603160248201527f46656520726563697069656e74206e6f74207365742c2063616e6e6f7420757360448201527f65207472616e73666572576974684665650000000000000000000000000000006064820152608401610925565b8281101561139e576040517f08c379a000000000000000000000000000000000000000000000000000000000815260206004820152602760248201527f45524332303a207472616e7366657220616d6f756e742065786365656473206260448201527f616c616e63652e000000000000000000000000000000000000000000000000006064820152608401610925565b6000600854612710600754866113b49190612acc565b6113be9190612b09565b6113c89190612a52565b905060006009548211156113de576009546113e0565b815b905061140c6113ed611454565b600a5473ffffffffffffffffffffffffffffffffffffffff1683611a1d565b83156114315761142c61141d611454565b6114278388612b44565b611cd0565b61144c565b61144c61143c611454565b876114478489612b44565b611a1d565b505050505050565b600061101f610fcd565b73ffffffffffffffffffffffffffffffffffffffff8316611500576040517f08c379a0000000000000000000000000000000000000000000000000000000008152602060048201526024808201527f45524332303a20617070726f76652066726f6d20746865207a65726f2061646460448201527f72657373000000000000000000000000000000000000000000000000000000006064820152608401610925565b73ffffffffffffffffffffffffffffffffffffffff82166115a3576040517f08c379a000000000000000000000000000000000000000000000000000000000815260206004820152602260248201527f45524332303a20617070726f766520746f20746865207a65726f20616464726560448201527f73730000000000000000000000000000000000000000000000000000000000006064820152608401610925565b73ffffffffffffffffffffffffffffffffffffffff83811660008181526001602090815260408083209487168084529482529182902085905590518481527f8c5be1e5ebec7d5bd14f71427d1e84f3dd0314c0f7b2291e5b200ac8c7c3b925910160405180910390a3505050565b60008661167a576040517f08c379a000000000000000000000000000000000000000000000000000000000815260206004820152600d60248201527f4e6f20726563697069656e7473000000000000000000000000000000000000006044820152606401610925565b8685146116e3576040517f08c379a000000000000000000000000000000000000000000000000000000000815260206004820181905260248201527f616d6f756e747320617267756d656e742073697a65206d69736d6174636865646044820152606401610925565b86831461174c576040517f08c379a000000000000000000000000000000000000000000000000000000000815260206004820152601d60248201527f7265667320617267756d656e742073697a65206d69736d6174636865640000006044820152606401610925565b60005b878110156118de57821561179f5761179989898381811061177257611772612a65565b905060200201602081019061178791906128cf565b8888848181106111de576111de612a65565b506117dd565b6117db8989838181106117b4576117b4612a65565b90506020020160208101906117c991906128cf565b88888481811061122c5761122c612a65565b505b60008585838181106117f1576117f1612a65565b9050602002013511156118cc5788888281811061181057611810612a65565b905060200201602081019061182591906128cf565b73ffffffffffffffffffffffffffffffffffffffff16611843611454565b73ffffffffffffffffffffffffffffffffffffffff167f9be86a1edd93f234e9c42b9ec0ff205d1b91b05eed309f225cc0a82f9365083089898581811061188c5761188c612a65565b905060200201358888868181106118a5576118a5612a65565b905060200201356040516118c3929190918252602082015260400190565b60405180910390a35b806118d681612a94565b91505061174f565b506118e7611454565b73ffffffffffffffffffffffffffffffffffffffff167fa91f78721ec724c5d8f9e089dcea4047a178a40bbff32381b463c701f37aabd889898989898960405161193696959493929190612ba2565b60405180910390a2506001979650505050505050565b73ffffffffffffffffffffffffffffffffffffffff8381166000908152600160209081526040808320938616835292905220547fffffffffffffffffffffffffffffffffffffffffffffffffffffffffffffffff8114610fa25781811015611a10576040517f08c379a000000000000000000000000000000000000000000000000000000000815260206004820152601d60248201527f45524332303a20696e73756666696369656e7420616c6c6f77616e63650000006044820152606401610925565b610fa2848484840361145e565b73ffffffffffffffffffffffffffffffffffffffff8316611ac0576040517f08c379a000000000000000000000000000000000000000000000000000000000815260206004820152602560248201527f45524332303a207472616e736665722066726f6d20746865207a65726f20616460448201527f64726573730000000000000000000000000000000000000000000000000000006064820152608401610925565b73ffffffffffffffffffffffffffffffffffffffff8216611b63576040517f08c379a000000000000000000000000000000000000000000000000000000000815260206004820152602360248201527f45524332303a207472616e7366657220746f20746865207a65726f206164647260448201527f65737300000000000000000000000000000000000000000000000000000000006064820152608401610925565b73ffffffffffffffffffffffffffffffffffffffff831660009081526020819052604090205481811015611c19576040517f08c379a000000000000000000000000000000000000000000000000000000000815260206004820152602660248201527f45524332303a207472616e7366657220616d6f756e742065786365656473206260448201527f616c616e636500000000000000000000000000000000000000000000000000006064820152608401610925565b73ffffffffffffffffffffffffffffffffffffffff808516600090815260208190526040808220858503905591851681529081208054849290611c5d908490612a52565b925050819055508273ffffffffffffffffffffffffffffffffffffffff168473ffffffffffffffffffffffffffffffffffffffff167fddf252ad1be2c89b69c2b068fc378daa952ba7f163c4a11628f55a4df523b3ef84604051611cc391815260200190565b60405180910390a3610fa2565b73ffffffffffffffffffffffffffffffffffffffff8216611d73576040517f08c379a000000000000000000000000000000000000000000000000000000000815260206004820152602160248201527f45524332303a206275726e2066726f6d20746865207a65726f2061646472657360448201527f73000000000000000000000000000000000000000000000000000000000000006064820152608401610925565b73ffffffffffffffffffffffffffffffffffffffff821660009081526020819052604090205481811015611e29576040517f08c379a000000000000000000000000000000000000000000000000000000000815260206004820152602260248201527f45524332303a206275726e20616d6f756e7420657863656564732062616c616e60448201527f63650000000000000000000000000000000000000000000000000000000000006064820152608401610925565b73ffffffffffffffffffffffffffffffffffffffff83166000908152602081905260408120838303905560028054849290611e65908490612b44565b909155505060405182815260009073ffffffffffffffffffffffffffffffffffffffff8516907fddf252ad1be2c89b69c2b068fc378daa952ba7f163c4a11628f55a4df523b3ef9060200160405180910390a3505050565b61083a81611ec9611454565b612183565b600082815260066020908152604080832073ffffffffffffffffffffffffffffffffffffffff8516845290915290205460ff1661093857600082815260066020908152604080832073ffffffffffffffffffffffffffffffffffffffff85168452909152902080547fffffffffffffffffffffffffffffffffffffffffffffffffffffffffffffff00166001179055611f65611454565b73ffffffffffffffffffffffffffffffffffffffff168173ffffffffffffffffffffffffffffffffffffffff16837f2f8788117e7eff1d82e926ec794901d17c78024a50270940304540a733656f0d60405160405180910390a45050565b600082815260066020908152604080832073ffffffffffffffffffffffffffffffffffffffff8516845290915290205460ff161561093857600082815260066020908152604080832073ffffffffffffffffffffffffffffffffffffffff85168452909152902080547fffffffffffffffffffffffffffffffffffffffffffffffffffffffffffffff00169055612058611454565b73ffffffffffffffffffffffffffffffffffffffff168173ffffffffffffffffffffffffffffffffffffffff16837ff6391f5c32d9c69d2a47ea670b442974b53935d1edc7fd64eb21e047a839171b60405160405180910390a45050565b7f000000000000000000000000000000000000000000000000000000000000000015612179577f00000000000000000000000000000000000000000000000000000000000000008161210760025490565b6121119190612a52565b1115612179576040517f08c379a000000000000000000000000000000000000000000000000000000000815260206004820152601960248201527f455243323020737570706c7920636170206578636565646564000000000000006044820152606401610925565b6109388282612255565b600082815260066020908152604080832073ffffffffffffffffffffffffffffffffffffffff8516845290915290205460ff16610938576121db8173ffffffffffffffffffffffffffffffffffffffff166014612375565b6121e6836020612375565b6040516020016121f7929190612c27565b604080517fffffffffffffffffffffffffffffffffffffffffffffffffffffffffffffffe0818403018152908290527f08c379a0000000000000000000000000000000000000000000000000000000008252610925916004016126dd565b73ffffffffffffffffffffffffffffffffffffffff82166122d2576040517f08c379a000000000000000000000000000000000000000000000000000000000815260206004820152601f60248201527f45524332303a206d696e7420746f20746865207a65726f2061646472657373006044820152606401610925565b80600260008282546122e49190612a52565b909155505073ffffffffffffffffffffffffffffffffffffffff82166000908152602081905260408120805483929061231e908490612a52565b909155505060405181815273ffffffffffffffffffffffffffffffffffffffff8316906000907fddf252ad1be2c89b69c2b068fc378daa952ba7f163c4a11628f55a4df523b3ef9060200160405180910390a35050565b60606000612384836002612acc565b61238f906002612a52565b67ffffffffffffffff8111156123a7576123a7612ca8565b6040519080825280601f01601f1916602001820160405280156123d1576020820181803683370190505b5090507f30000000000000000000000000000000000000000000000000000000000000008160008151811061240857612408612a65565b60200101907effffffffffffffffffffffffffffffffffffffffffffffffffffffffffffff1916908160001a9053507f78000000000000000000000000000000000000000000000000000000000000008160018151811061246b5761246b612a65565b60200101907effffffffffffffffffffffffffffffffffffffffffffffffffffffffffffff1916908160001a90535060006124a7846002612acc565b6124b2906001612a52565b90505b600181111561254f577f303132333435363738396162636465660000000000000000000000000000000085600f16601081106124f3576124f3612a65565b1a60f81b82828151811061250957612509612a65565b60200101907effffffffffffffffffffffffffffffffffffffffffffffffffffffffffffff1916908160001a90535060049490941c9361254881612cd7565b90506124b5565b5083156125b8576040517f08c379a000000000000000000000000000000000000000000000000000000000815260206004820181905260248201527f537472696e67733a20686578206c656e67746820696e73756666696369656e746044820152606401610925565b9392505050565b6000602082840312156125d157600080fd5b81357fffffffff00000000000000000000000000000000000000000000000000000000811681146125b857600080fd5b60008083601f84011261261357600080fd5b50813567ffffffffffffffff81111561262b57600080fd5b6020830191508360208260051b850101111561264657600080fd5b9250929050565b6000806000806040858703121561266357600080fd5b843567ffffffffffffffff8082111561267b57600080fd5b61268788838901612601565b909650945060208701359150808211156126a057600080fd5b506126ad87828801612601565b95989497509550505050565b60005b838110156126d45781810151838201526020016126bc565b50506000910152565b60208152600082518060208401526126fc8160408501602087016126b9565b601f017fffffffffffffffffffffffffffffffffffffffffffffffffffffffffffffffe0169190910160400192915050565b803573ffffffffffffffffffffffffffffffffffffffff8116811461275257600080fd5b919050565b6000806040838503121561276a57600080fd5b6127738361272e565b946020939093013593505050565b6000806000806000806060878903121561279a57600080fd5b863567ffffffffffffffff808211156127b257600080fd5b6127be8a838b01612601565b909850965060208901359150808211156127d757600080fd5b6127e38a838b01612601565b909650945060408901359150808211156127fc57600080fd5b5061280989828a01612601565b979a9699509497509295939492505050565b60008060006060848603121561283057600080fd5b6128398461272e565b92506128476020850161272e565b9150604084013590509250925092565b60006020828403121561286957600080fd5b5035919050565b6000806040838503121561288357600080fd5b823591506128936020840161272e565b90509250929050565b6000806000606084860312156128b157600080fd5b6128ba8461272e565b95602085013595506040909401359392505050565b6000602082840312156128e157600080fd5b6125b88261272e565b6000806000806080858703121561290057600080fd5b6129098561272e565b966020860135965060408601359560600135945092505050565b60008060006040848603121561293857600080fd5b6129418461272e565b9250602084013567ffffffffffffffff8082111561295e57600080fd5b818601915086601f83011261297257600080fd5b81358181111561298157600080fd5b87602082850101111561299357600080fd5b6020830194508093505050509250925092565b600080604083850312156129b957600080fd5b6129c28361272e565b91506128936020840161272e565b600181811c908216806129e457607f821691505b602082108103612a1d577f4e487b7100000000000000000000000000000000000000000000000000000000600052602260045260246000fd5b50919050565b7f4e487b7100000000000000000000000000000000000000000000000000000000600052601160045260246000fd5b808201808211156106f4576106f4612a23565b7f4e487b7100000000000000000000000000000000000000000000000000000000600052603260045260246000fd5b60007fffffffffffffffffffffffffffffffffffffffffffffffffffffffffffffffff8203612ac557612ac5612a23565b5060010190565b6000817fffffffffffffffffffffffffffffffffffffffffffffffffffffffffffffffff0483118215151615612b0457612b04612a23565b500290565b600082612b3f577f4e487b7100000000000000000000000000000000000000000000000000000000600052601260045260246000fd5b500490565b818103818111156106f4576106f4612a23565b81835260007f07ffffffffffffffffffffffffffffffffffffffffffffffffffffffffffffff831115612b8957600080fd5b8260051b80836020870137939093016020019392505050565b6060808252810186905260008760808301825b89811015612bf05773ffffffffffffffffffffffffffffffffffffffff612bdb8461272e565b16825260209283019290910190600101612bb5565b508381036020850152612c0481888a612b57565b9150508281036040840152612c1a818587612b57565b9998505050505050505050565b7f416363657373436f6e74726f6c3a206163636f756e7420000000000000000000815260008351612c5f8160178501602088016126b9565b7f206973206d697373696e6720726f6c65200000000000000000000000000000006017918401918201528351612c9c8160288401602088016126b9565b01602801949350505050565b7f4e487b7100000000000000000000000000000000000000000000000000000000600052604160045260246000fd5b600081612ce657612ce6612a23565b507fffffffffffffffffffffffffffffffffffffffffffffffffffffffffffffffff019056fea26469706673582212201bd34d9b7c7d3db36ea7dcd3079449140c49f0a4eb8d863b93ddd2b3be30786964736f6c63430008100033",
  "linkReferences": {},
  "deployedLinkReferences": {}
}