{
  "_format": "hh-sol-artifact-1",
  "contractName": "ERC20_Game_Currency",
  "sourceName": "contracts/Currency/ERC20_Game_Currency.sol",
  "abi": [
    {
      "inputs": [
        {
          "internalType": "string",
          "name": "_name",
          "type": "string"
        },
        {
          "internalType": "string",
          "name": "_symbol",
          "type": "string"
        },
        {
          "internalType": "uint256",
          "name": "_supplyCap",
          "type": "uint256"
        },
        {
          "internalType": "address",
          "name": "_forwarder",
          "type": "address"
        },
        {
          "internalType": "bytes32",
          "name": "_systemId",
          "type": "bytes32"
        }
      ],
      "stateMutability": "nonpayable",
      "type": "constructor"
    },
    {
      "anonymous": false,
      "inputs": [
        {
          "indexed": true,
          "internalType": "address",
          "name": "owner",
          "type": "address"
        },
        {
          "indexed": true,
          "internalType": "address",
          "name": "spender",
          "type": "address"
        },
        {
          "indexed": false,
          "internalType": "uint256",
          "name": "value",
          "type": "uint256"
        }
      ],
      "name": "Approval",
      "type": "event"
    },
    {
      "anonymous": false,
      "inputs": [
        {
          "indexed": true,
          "internalType": "address",
          "name": "sender",
          "type": "address"
        },
        {
          "indexed": false,
          "internalType": "address[]",
          "name": "recipients",
          "type": "address[]"
        },
        {
          "indexed": false,
          "internalType": "uint256[]",
          "name": "amounts",
          "type": "uint256[]"
        },
        {
          "indexed": false,
          "internalType": "uint256[]",
          "name": "refs",
          "type": "uint256[]"
        }
      ],
      "name": "BatchTransferRef",
      "type": "event"
    },
    {
      "anonymous": false,
      "inputs": [
        {
          "indexed": true,
          "internalType": "bytes32",
          "name": "role",
          "type": "bytes32"
        },
        {
          "indexed": true,
          "internalType": "bytes32",
          "name": "previousAdminRole",
          "type": "bytes32"
        },
        {
          "indexed": true,
          "internalType": "bytes32",
          "name": "newAdminRole",
          "type": "bytes32"
        }
      ],
      "name": "RoleAdminChanged",
      "type": "event"
    },
    {
      "anonymous": false,
      "inputs": [
        {
          "indexed": true,
          "internalType": "bytes32",
          "name": "role",
          "type": "bytes32"
        },
        {
          "indexed": true,
          "internalType": "address",
          "name": "account",
          "type": "address"
        },
        {
          "indexed": true,
          "internalType": "address",
          "name": "sender",
          "type": "address"
        }
      ],
      "name": "RoleGranted",
      "type": "event"
    },
    {
      "anonymous": false,
      "inputs": [
        {
          "indexed": true,
          "internalType": "bytes32",
          "name": "role",
          "type": "bytes32"
        },
        {
          "indexed": true,
          "internalType": "address",
          "name": "account",
          "type": "address"
        },
        {
          "indexed": true,
          "internalType": "address",
          "name": "sender",
          "type": "address"
        }
      ],
      "name": "RoleRevoked",
      "type": "event"
    },
    {
      "anonymous": false,
      "inputs": [
        {
          "indexed": true,
          "internalType": "address",
          "name": "from",
          "type": "address"
        },
        {
          "indexed": true,
          "internalType": "address",
          "name": "to",
          "type": "address"
        },
        {
          "indexed": false,
          "internalType": "uint256",
          "name": "value",
          "type": "uint256"
        }
      ],
      "name": "Transfer",
      "type": "event"
    },
    {
      "anonymous": false,
      "inputs": [
        {
          "indexed": true,
          "internalType": "address",
          "name": "sender",
          "type": "address"
        },
        {
          "indexed": true,
          "internalType": "address",
          "name": "recipient",
          "type": "address"
        },
        {
          "indexed": false,
          "internalType": "uint256",
          "name": "amount",
          "type": "uint256"
        },
        {
          "indexed": false,
          "internalType": "uint256",
          "name": "ref",
          "type": "uint256"
        }
      ],
      "name": "TransferRef",
      "type": "event"
    },
    {
      "inputs": [],
      "name": "DEFAULT_ADMIN_ROLE",
      "outputs": [
        {
          "internalType": "bytes32",
          "name": "",
          "type": "bytes32"
        }
      ],
      "stateMutability": "view",
      "type": "function"
    },
    {
      "inputs": [
        {
          "internalType": "address",
          "name": "owner",
          "type": "address"
        },
        {
          "internalType": "address",
          "name": "spender",
          "type": "address"
        }
      ],
      "name": "allowance",
      "outputs": [
        {
          "internalType": "uint256",
          "name": "",
          "type": "uint256"
        }
      ],
      "stateMutability": "view",
      "type": "function"
    },
    {
      "inputs": [
        {
          "internalType": "address",
          "name": "spender",
          "type": "address"
        },
        {
          "internalType": "uint256",
          "name": "amount",
          "type": "uint256"
        }
      ],
      "name": "approve",
      "outputs": [
        {
          "internalType": "bool",
          "name": "",
          "type": "bool"
        }
      ],
      "stateMutability": "nonpayable",
      "type": "function"
    },
    {
      "inputs": [
        {
          "internalType": "address",
          "name": "account",
          "type": "address"
        }
      ],
      "name": "balanceOf",
      "outputs": [
        {
          "internalType": "uint256",
          "name": "",
          "type": "uint256"
        }
      ],
      "stateMutability": "view",
      "type": "function"
    },
    {
      "inputs": [
        {
          "internalType": "address[]",
          "name": "recipients",
          "type": "address[]"
        },
        {
          "internalType": "uint256[]",
          "name": "amounts",
          "type": "uint256[]"
        }
      ],
      "name": "batchTransfer",
      "outputs": [
        {
          "internalType": "bool",
          "name": "",
          "type": "bool"
        }
      ],
      "stateMutability": "nonpayable",
      "type": "function"
    },
    {
      "inputs": [
        {
          "internalType": "address[]",
          "name": "recipients",
          "type": "address[]"
        },
        {
          "internalType": "uint256[]",
          "name": "amounts",
          "type": "uint256[]"
        }
      ],
      "name": "batchTransferWithFees",
      "outputs": [
        {
          "internalType": "bool",
          "name": "",
          "type": "bool"
        }
      ],
      "stateMutability": "nonpayable",
      "type": "function"
    },
    {
      "inputs": [
        {
          "internalType": "address[]",
          "name": "recipients",
          "type": "address[]"
        },
        {
          "internalType": "uint256[]",
          "name": "amounts",
          "type": "uint256[]"
        },
        {
          "internalType": "uint256[]",
          "name": "refs",
          "type": "uint256[]"
        }
      ],
      "name": "batchTransferWithFeesRefs",
      "outputs": [
        {
          "internalType": "bool",
          "name": "",
          "type": "bool"
        }
      ],
      "stateMutability": "nonpayable",
      "type": "function"
    },
    {
      "inputs": [
        {
          "internalType": "address[]",
          "name": "recipients",
          "type": "address[]"
        },
        {
          "internalType": "uint256[]",
          "name": "amounts",
          "type": "uint256[]"
        },
        {
          "internalType": "uint256[]",
          "name": "refs",
          "type": "uint256[]"
        }
      ],
      "name": "batchTransferWithRefs",
      "outputs": [
        {
          "internalType": "bool",
          "name": "",
          "type": "bool"
        }
      ],
      "stateMutability": "nonpayable",
      "type": "function"
    },
    {
      "inputs": [
        {
          "internalType": "uint256",
          "name": "_amount",
          "type": "uint256"
        }
      ],
      "name": "burn",
      "outputs": [],
      "stateMutability": "nonpayable",
      "type": "function"
    },
    {
      "inputs": [
        {
          "internalType": "uint256",
          "name": "amount",
          "type": "uint256"
        }
      ],
      "name": "burnWithFee",
      "outputs": [
        {
          "internalType": "bool",
          "name": "",
          "type": "bool"
        }
      ],
      "stateMutability": "nonpayable",
      "type": "function"
    },
    {
      "inputs": [],
      "name": "childChainManagerProxy",
      "outputs": [
        {
          "internalType": "address",
          "name": "",
          "type": "address"
        }
      ],
      "stateMutability": "view",
      "type": "function"
    },
    {
      "inputs": [],
      "name": "decimals",
      "outputs": [
        {
          "internalType": "uint8",
          "name": "",
          "type": "uint8"
        }
      ],
      "stateMutability": "view",
      "type": "function"
    },
    {
      "inputs": [
        {
          "internalType": "address",
          "name": "spender",
          "type": "address"
        },
        {
          "internalType": "uint256",
          "name": "subtractedValue",
          "type": "uint256"
        }
      ],
      "name": "decreaseAllowance",
      "outputs": [
        {
          "internalType": "bool",
          "name": "",
          "type": "bool"
        }
      ],
      "stateMutability": "nonpayable",
      "type": "function"
    },
    {
      "inputs": [
        {
          "internalType": "address",
          "name": "user",
          "type": "address"
        },
        {
          "internalType": "bytes",
          "name": "depositData",
          "type": "bytes"
        }
      ],
      "name": "deposit",
      "outputs": [],
      "stateMutability": "nonpayable",
      "type": "function"
    },
    {
      "inputs": [],
      "name": "feeBps",
      "outputs": [
        {
          "internalType": "uint256",
          "name": "",
          "type": "uint256"
        }
      ],
      "stateMutability": "view",
      "type": "function"
    },
    {
      "inputs": [],
      "name": "feeCap",
      "outputs": [
        {
          "internalType": "uint256",
          "name": "",
          "type": "uint256"
        }
      ],
      "stateMutability": "view",
      "type": "function"
    },
    {
      "inputs": [],
      "name": "feeFixed",
      "outputs": [
        {
          "internalType": "uint256",
          "name": "",
          "type": "uint256"
        }
      ],
      "stateMutability": "view",
      "type": "function"
    },
    {
      "inputs": [],
      "name": "feeRecipient",
      "outputs": [
        {
          "internalType": "address",
          "name": "",
          "type": "address"
        }
      ],
      "stateMutability": "view",
      "type": "function"
    },
    {
      "inputs": [
        {
          "internalType": "bytes32",
          "name": "role",
          "type": "bytes32"
        }
      ],
      "name": "getRoleAdmin",
      "outputs": [
        {
          "internalType": "bytes32",
          "name": "",
          "type": "bytes32"
        }
      ],
      "stateMutability": "view",
      "type": "function"
    },
    {
      "inputs": [
        {
          "internalType": "bytes32",
          "name": "role",
          "type": "bytes32"
        },
        {
          "internalType": "address",
          "name": "account",
          "type": "address"
        }
      ],
      "name": "grantRole",
      "outputs": [],
      "stateMutability": "nonpayable",
      "type": "function"
    },
    {
      "inputs": [
        {
          "internalType": "bytes32",
          "name": "role",
          "type": "bytes32"
        },
        {
          "internalType": "address",
          "name": "account",
          "type": "address"
        }
      ],
      "name": "hasRole",
      "outputs": [
        {
          "internalType": "bool",
          "name": "",
          "type": "bool"
        }
      ],
      "stateMutability": "view",
      "type": "function"
    },
    {
      "inputs": [
        {
          "internalType": "address",
          "name": "spender",
          "type": "address"
        },
        {
          "internalType": "uint256",
          "name": "addedValue",
          "type": "uint256"
        }
      ],
      "name": "increaseAllowance",
      "outputs": [
        {
          "internalType": "bool",
          "name": "",
          "type": "bool"
        }
      ],
      "stateMutability": "nonpayable",
      "type": "function"
    },
    {
      "inputs": [
        {
          "internalType": "address",
          "name": "forwarder",
          "type": "address"
        }
      ],
      "name": "isTrustedForwarder",
      "outputs": [
        {
          "internalType": "bool",
          "name": "",
          "type": "bool"
        }
      ],
      "stateMutability": "view",
      "type": "function"
    },
    {
      "inputs": [
        {
          "internalType": "address",
          "name": "_to",
          "type": "address"
        },
        {
          "internalType": "uint256",
          "name": "_amount",
          "type": "uint256"
        }
      ],
      "name": "mint",
      "outputs": [],
      "stateMutability": "nonpayable",
      "type": "function"
    },
    {
      "inputs": [],
      "name": "name",
      "outputs": [
        {
          "internalType": "string",
          "name": "",
          "type": "string"
        }
      ],
      "stateMutability": "view",
      "type": "function"
    },
    {
      "inputs": [
        {
          "internalType": "bytes32",
          "name": "role",
          "type": "bytes32"
        },
        {
          "internalType": "address",
          "name": "account",
          "type": "address"
        }
      ],
      "name": "renounceRole",
      "outputs": [],
      "stateMutability": "nonpayable",
      "type": "function"
    },
    {
      "inputs": [
        {
          "internalType": "bytes32",
          "name": "role",
          "type": "bytes32"
        },
        {
          "internalType": "address",
          "name": "account",
          "type": "address"
        }
      ],
      "name": "revokeRole",
      "outputs": [],
      "stateMutability": "nonpayable",
      "type": "function"
    },
    {
      "inputs": [
        {
          "internalType": "address",
          "name": "recipient",
          "type": "address"
        },
        {
          "internalType": "uint256",
          "name": "_feeBps",
          "type": "uint256"
        },
        {
          "internalType": "uint256",
          "name": "_feeFixed",
          "type": "uint256"
        },
        {
          "internalType": "uint256",
          "name": "_feeCap",
          "type": "uint256"
        }
      ],
      "name": "setFees",
      "outputs": [],
      "stateMutability": "nonpayable",
      "type": "function"
    },
    {
      "inputs": [],
      "name": "supplyCap",
      "outputs": [
        {
          "internalType": "uint256",
          "name": "",
          "type": "uint256"
        }
      ],
      "stateMutability": "view",
      "type": "function"
    },
    {
      "inputs": [
        {
          "internalType": "bytes4",
          "name": "interfaceId",
          "type": "bytes4"
        }
      ],
      "name": "supportsInterface",
      "outputs": [
        {
          "internalType": "bool",
          "name": "",
          "type": "bool"
        }
      ],
      "stateMutability": "view",
      "type": "function"
    },
    {
      "inputs": [],
      "name": "symbol",
      "outputs": [
        {
          "internalType": "string",
          "name": "",
          "type": "string"
        }
      ],
      "stateMutability": "view",
      "type": "function"
    },
    {
      "inputs": [],
      "name": "systemId",
      "outputs": [
        {
          "internalType": "bytes32",
          "name": "",
          "type": "bytes32"
        }
      ],
      "stateMutability": "view",
      "type": "function"
    },
    {
      "inputs": [],
      "name": "totalSupply",
      "outputs": [
        {
          "internalType": "uint256",
          "name": "",
          "type": "uint256"
        }
      ],
      "stateMutability": "view",
      "type": "function"
    },
    {
      "inputs": [
        {
          "internalType": "address",
          "name": "to",
          "type": "address"
        },
        {
          "internalType": "uint256",
          "name": "amount",
          "type": "uint256"
        }
      ],
      "name": "transfer",
      "outputs": [
        {
          "internalType": "bool",
          "name": "",
          "type": "bool"
        }
      ],
      "stateMutability": "nonpayable",
      "type": "function"
    },
    {
      "inputs": [
        {
          "internalType": "address",
          "name": "from",
          "type": "address"
        },
        {
          "internalType": "address",
          "name": "to",
          "type": "address"
        },
        {
          "internalType": "uint256",
          "name": "amount",
          "type": "uint256"
        }
      ],
      "name": "transferFrom",
      "outputs": [
        {
          "internalType": "bool",
          "name": "",
          "type": "bool"
        }
      ],
      "stateMutability": "nonpayable",
      "type": "function"
    },
    {
      "inputs": [
        {
          "internalType": "address",
          "name": "recipient",
          "type": "address"
        },
        {
          "internalType": "uint256",
          "name": "amount",
          "type": "uint256"
        }
      ],
      "name": "transferWithFee",
      "outputs": [
        {
          "internalType": "bool",
          "name": "",
          "type": "bool"
        }
      ],
      "stateMutability": "nonpayable",
      "type": "function"
    },
    {
      "inputs": [
        {
          "internalType": "address",
          "name": "recipient",
          "type": "address"
        },
        {
          "internalType": "uint256",
          "name": "amount",
          "type": "uint256"
        },
        {
          "internalType": "uint256",
          "name": "ref",
          "type": "uint256"
        }
      ],
      "name": "transferWithFeeRef",
      "outputs": [
        {
          "internalType": "bool",
          "name": "",
          "type": "bool"
        }
      ],
      "stateMutability": "nonpayable",
      "type": "function"
    },
    {
      "inputs": [
        {
          "internalType": "address",
          "name": "recipient",
          "type": "address"
        },
        {
          "internalType": "uint256",
          "name": "amount",
          "type": "uint256"
        },
        {
          "internalType": "uint256",
          "name": "ref",
          "type": "uint256"
        }
      ],
      "name": "transferWithRef",
      "outputs": [
        {
          "internalType": "bool",
          "name": "",
          "type": "bool"
        }
      ],
      "stateMutability": "nonpayable",
      "type": "function"
    },
    {
      "inputs": [],
      "name": "trustedForwarder",
      "outputs": [
        {
          "internalType": "address",
          "name": "",
          "type": "address"
        }
      ],
      "stateMutability": "view",
      "type": "function"
    },
    {
      "inputs": [
        {
          "internalType": "address",
          "name": "_childChainManagerProxy",
          "type": "address"
        }
      ],
      "name": "updateChildChainManager",
      "outputs": [],
      "stateMutability": "nonpayable",
      "type": "function"
    },
    {
      "inputs": [
        {
          "internalType": "address",
          "name": "_newTrustedForwarder",
          "type": "address"
        }
      ],
      "name": "upgradeTrustedForwarder",
      "outputs": [],
      "stateMutability": "nonpayable",
      "type": "function"
    },
    {
      "inputs": [
        {
          "internalType": "uint256",
          "name": "amount",
          "type": "uint256"
        }
      ],
      "name": "withdraw",
      "outputs": [],
      "stateMutability": "nonpayable",
      "type": "function"
    }
  ],
  "bytecode": "0x60a06040523480156200001157600080fd5b5060405162003275380380620032758339810160408190526200003491620002ce565b808286866003620000468382620003fe565b506004620000558282620003fe565b5050600580546001600160a01b0319166001600160a01b0393909316929092179091555060065562000086620000fb565b600b80546001600160a01b0319166001600160a01b03929092169190911790556080839052620000c16000620000bb620000fb565b62000117565b620000f07fc9fc9949603a50f5cc3a96f774f1d68287789a241d2082dc81d0fb19a53bcf2b620000bb620000fb565b5050505050620004ca565b6000620001126200012760201b6200100c1760201c565b905090565b6200012382826200015f565b5050565b6005546000906001600160a01b031633036200014a575060131936013560601c90565b620001126200020560201b620010631760201c565b60008281526007602090815260408083206001600160a01b038516845290915290205460ff16620001235760008281526007602090815260408083206001600160a01b03851684529091529020805460ff19166001179055620001c1620000fb565b6001600160a01b0316816001600160a01b0316837f2f8788117e7eff1d82e926ec794901d17c78024a50270940304540a733656f0d60405160405180910390a45050565b3390565b634e487b7160e01b600052604160045260246000fd5b600082601f8301126200023157600080fd5b81516001600160401b03808211156200024e576200024e62000209565b604051601f8301601f19908116603f0116810190828211818310171562000279576200027962000209565b816040528381526020925086838588010111156200029657600080fd5b600091505b83821015620002ba57858201830151818301840152908201906200029b565b600093810190920192909252949350505050565b600080600080600060a08688031215620002e757600080fd5b85516001600160401b0380821115620002ff57600080fd5b6200030d89838a016200021f565b965060208801519150808211156200032457600080fd5b5062000333888289016200021f565b60408801516060890151919650945090506001600160a01b03811681146200035a57600080fd5b80925050608086015190509295509295909350565b600181811c908216806200038457607f821691505b602082108103620003a557634e487b7160e01b600052602260045260246000fd5b50919050565b601f821115620003f957600081815260208120601f850160051c81016020861015620003d45750805b601f850160051c820191505b81811015620003f557828155600101620003e0565b5050505b505050565b81516001600160401b038111156200041a576200041a62000209565b62000432816200042b84546200036f565b84620003ab565b602080601f8311600181146200046a5760008415620004515750858301515b600019600386901b1c1916600185901b178555620003f5565b600085815260208120601f198616915b828110156200049b578886015182559484019460019091019084016200047a565b5085821015620004ba5787850151600019600388901b60f8161c191681555b5050505050600190811b01905550565b608051612d81620004f4600039600081816105ad015281816120f7015261211d0152612d816000f3fe608060405234801561001057600080fd5b50600436106102de5760003560e01c8063445a6797116101865780638f770ad0116100e3578063a9059cbb11610097578063cf2c52cb11610071578063cf2c52cb14610671578063d547741f14610684578063dd62ed3e1461069757600080fd5b8063a9059cbb14610638578063aa2a7eea1461064b578063c6be49e71461065e57600080fd5b806395d89b41116100c857806395d89b4114610615578063a217fddf1461061d578063a457c2d71461062557600080fd5b80638f770ad0146105a857806391d14854146105cf57600080fd5b806370a082311161013a5780637da0a8771161011f5780637da0a87714610562578063824c0d661461058257806388d695b21461059557600080fd5b806370a08231146105195780637669d4891461054f57600080fd5b8063572b6c051161016b578063572b6c05146104b75780635932a78e146104e657806362f629e7146104f957600080fd5b8063445a67971461045f578063469048401461047257600080fd5b8063248a9ca31161023f57806336568abe116101f357806339f898bc116101cd57806339f898bc1461044357806340c10f191461044c57806342966c68146103d357600080fd5b806336568abe1461040a57806337ea010a1461041d578063395093511461043057600080fd5b80632e1a7d4d116102245780632e1a7d4d146103d35780632f2ff15d146103e8578063313ce567146103fb57600080fd5b8063248a9ca3146103a757806324a9d853146103ca57600080fd5b8063095ea7b31161029657806312b681981161027b57806312b681981461037957806318160ddd1461038c57806323b872dd1461039457600080fd5b8063095ea7b31461035d5780630e3d22021461037057600080fd5b806306fdde03116102c757806306fdde031461031e578063075b6e331461033357806308acece21461034a57600080fd5b806301ffc9a7146102e3578063050b78831461030b575b600080fd5b6102f66102f13660046125fe565b6106dd565b60405190151581526020015b60405180910390f35b6102f661031936600461268c565b610739565b610326610752565b604051610302919061271c565b61033c600a5481565b604051908152602001610302565b6102f6610358366004612796565b6107e4565b6102f661036b366004612796565b6107fb565b61033c60095481565b6102f66103873660046127c0565b61081d565b60025461033c565b6102f66103a236600461285a565b61083a565b61033c6103b5366004612896565b60009081526007602052604090206001015490565b61033c60085481565b6103e66103e1366004612896565b610868565b005b6103e66103f63660046128af565b61087c565b60405160128152602001610302565b6103e66104183660046128af565b6108a6565b6102f661042b3660046128db565b61097b565b6102f661043e366004612796565b610a10565b61033c60065481565b6103e661045a366004612796565b610a6f565b6103e661046d36600461290e565b610be3565b600b546104929073ffffffffffffffffffffffffffffffffffffffff1681565b60405173ffffffffffffffffffffffffffffffffffffffff9091168152602001610302565b6102f66104c536600461290e565b60055473ffffffffffffffffffffffffffffffffffffffff91821691161490565b6102f66104f43660046128db565b610c55565b600c546104929073ffffffffffffffffffffffffffffffffffffffff1681565b61033c61052736600461290e565b73ffffffffffffffffffffffffffffffffffffffff1660009081526020819052604090205490565b6103e661055d366004612929565b610c81565b6005546104929073ffffffffffffffffffffffffffffffffffffffff1681565b6102f66105903660046127c0565b610d7d565b6102f66105a336600461268c565b610d8f565b61033c7f000000000000000000000000000000000000000000000000000000000000000081565b6102f66105dd3660046128af565b600091825260076020908152604080842073ffffffffffffffffffffffffffffffffffffffff93909316845291905290205460ff1690565b610326610d9f565b61033c600081565b6102f6610633366004612796565b610dae565b6102f6610646366004612796565b610e8c565b6103e661065936600461290e565b610ea4565b6102f661066c366004612896565b610f12565b6103e661067f366004612962565b610f29565b6103e66106923660046128af565b610fe7565b61033c6106a53660046129e5565b73ffffffffffffffffffffffffffffffffffffffff918216600090815260016020908152604080832093909416825291909152205490565b60007fffffffff0000000000000000000000000000000000000000000000000000000082167fea6162b2000000000000000000000000000000000000000000000000000000001480610733575061073382611067565b92915050565b60006107498585858560016110fe565b95945050505050565b60606003805461076190612a0f565b80601f016020809104026020016040519081016040528092919081815260200182805461078d90612a0f565b80156107da5780601f106107af576101008083540402835291602001916107da565b820191906000526020600020905b8154815290600101906020018083116107bd57829003601f168201915b5050505050905090565b60006107f283836000611298565b50600192915050565b600080610806611493565b905061081381858561149d565b5060019392505050565b600061082f8787878787876000611650565b979650505050505050565b600080610845611493565b905061085285828561198b565b61085d858585611a5c565b506001949350505050565b610879610873611493565b82611d0f565b50565b60008281526007602052604090206001015461089781611efc565b6108a18383611f0d565b505050565b6108ae611493565b73ffffffffffffffffffffffffffffffffffffffff168173ffffffffffffffffffffffffffffffffffffffff161461096d576040517f08c379a000000000000000000000000000000000000000000000000000000000815260206004820152602f60248201527f416363657373436f6e74726f6c3a2063616e206f6e6c792072656e6f756e636560448201527f20726f6c657320666f722073656c66000000000000000000000000000000000060648201526084015b60405180910390fd5b6109778282612002565b5050565b600061098f610988611493565b8585611a5c565b8373ffffffffffffffffffffffffffffffffffffffff166109ae611493565b73ffffffffffffffffffffffffffffffffffffffff167f9be86a1edd93f234e9c42b9ec0ff205d1b91b05eed309f225cc0a82f9365083085856040516109fe929190918252602082015260400190565b60405180910390a35060019392505050565b600080610a1b611493565b9050610813818585610a60858973ffffffffffffffffffffffffffffffffffffffff918216600090815260016020908152604080832093909416825291909152205490565b610a6a9190612a91565b61149d565b610a9b7fc9fc9949603a50f5cc3a96f774f1d68287789a241d2082dc81d0fb19a53bcf2b6105dd611493565b80610acd5750610acd7fc9eb32e43bf5ecbceacf00b32281dfc5d6d700a0db676ea26ccf938a385ac3f76105dd611493565b610b33576040517f08c379a000000000000000000000000000000000000000000000000000000000815260206004820152601760248201527f4e6f7420617574686f72697a656420746f206d696e742e0000000000000000006044820152606401610964565b600c5473ffffffffffffffffffffffffffffffffffffffff1615610bd9576040517f08c379a000000000000000000000000000000000000000000000000000000000815260206004820152603060248201527f4d696e74696e672064697361626c6564207768656e20506f6c79676f6e20627260448201527f6964676520697320656e61626c65642e000000000000000000000000000000006064820152608401610964565b61097782826120f5565b7fc9fc9949603a50f5cc3a96f774f1d68287789a241d2082dc81d0fb19a53bcf2b610c0d81611efc565b50600c80547fffffffffffffffffffffffff00000000000000000000000000000000000000001673ffffffffffffffffffffffffffffffffffffffff92909216919091179055565b6000610c6184846107e4565b508373ffffffffffffffffffffffffffffffffffffffff166109ae611493565b7fc9fc9949603a50f5cc3a96f774f1d68287789a241d2082dc81d0fb19a53bcf2b610cab81611efc565b73ffffffffffffffffffffffffffffffffffffffff8516610d28576040517f08c379a000000000000000000000000000000000000000000000000000000000815260206004820152601360248201527f726563697069656e7420697320302061646472000000000000000000000000006044820152606401610964565b50600b80547fffffffffffffffffffffffff00000000000000000000000000000000000000001673ffffffffffffffffffffffffffffffffffffffff9590951694909417909355600891909155600955600a55565b600061082f8787878787876001611650565b60006107498585858560006110fe565b60606004805461076190612a0f565b600080610db9611493565b73ffffffffffffffffffffffffffffffffffffffff81811660009081526001602090815260408083209389168352929052205490915083811015610e7f576040517f08c379a000000000000000000000000000000000000000000000000000000000815260206004820152602560248201527f45524332303a2064656372656173656420616c6c6f77616e63652062656c6f7760448201527f207a65726f0000000000000000000000000000000000000000000000000000006064820152608401610964565b61085d828686840361149d565b600080610e97611493565b9050610813818585611a5c565b7fc9fc9949603a50f5cc3a96f774f1d68287789a241d2082dc81d0fb19a53bcf2b610ece81611efc565b600580547fffffffffffffffffffffffff00000000000000000000000000000000000000001673ffffffffffffffffffffffffffffffffffffffff84161790555050565b6000610f216000836001611298565b506001919050565b600c5473ffffffffffffffffffffffffffffffffffffffff16610f4a611493565b73ffffffffffffffffffffffffffffffffffffffff1614610fc7576040517f08c379a000000000000000000000000000000000000000000000000000000000815260206004820152601f60248201527f41646472657373206e6f7420616c6c6f77656420746f206465706f7369742e006044820152606401610964565b6000610fd582840184612896565b9050610fe184826120f5565b50505050565b60008281526007602052604090206001015461100281611efc565b6108a18383612002565b60055460009073ffffffffffffffffffffffffffffffffffffffff16330361105957507fffffffffffffffffffffffffffffffffffffffffffffffffffffffffffffffec36013560601c90565b503390565b905090565b3390565b60007fffffffff0000000000000000000000000000000000000000000000000000000082167f7965db0b00000000000000000000000000000000000000000000000000000000148061073357507f01ffc9a7000000000000000000000000000000000000000000000000000000007fffffffff00000000000000000000000000000000000000000000000000000000831614610733565b600084611167576040517f08c379a000000000000000000000000000000000000000000000000000000000815260206004820152600d60248201527f4e6f20726563697069656e7473000000000000000000000000000000000000006044820152606401610964565b8483146111d0576040517f08c379a000000000000000000000000000000000000000000000000000000000815260206004820181905260248201527f616d6f756e747320617267756d656e742073697a65206d69736d6174636865646044820152606401610964565b60005b8581101561128b57821561122f576112298787838181106111f6576111f6612aa4565b905060200201602081019061120b919061290e565b86868481811061121d5761121d612aa4565b905060200201356107e4565b50611279565b61127787878381811061124457611244612aa4565b9050602002016020810190611259919061290e565b86868481811061126b5761126b612aa4565b90506020020135610e8c565b505b8061128381612ad3565b9150506111d3565b5060019695505050505050565b60006112a5610527611493565b600b5490915073ffffffffffffffffffffffffffffffffffffffff1661134d576040517f08c379a000000000000000000000000000000000000000000000000000000000815260206004820152603160248201527f46656520726563697069656e74206e6f74207365742c2063616e6e6f7420757360448201527f65207472616e73666572576974684665650000000000000000000000000000006064820152608401610964565b828110156113dd576040517f08c379a000000000000000000000000000000000000000000000000000000000815260206004820152602760248201527f45524332303a207472616e7366657220616d6f756e742065786365656473206260448201527f616c616e63652e000000000000000000000000000000000000000000000000006064820152608401610964565b6000600954612710600854866113f39190612b0b565b6113fd9190612b48565b6114079190612a91565b90506000600a5482111561141d57600a5461141f565b815b905061144b61142c611493565b600b5473ffffffffffffffffffffffffffffffffffffffff1683611a5c565b83156114705761146b61145c611493565b6114668388612b83565b611d0f565b61148b565b61148b61147b611493565b876114868489612b83565b611a5c565b505050505050565b600061105e61100c565b73ffffffffffffffffffffffffffffffffffffffff831661153f576040517f08c379a0000000000000000000000000000000000000000000000000000000008152602060048201526024808201527f45524332303a20617070726f76652066726f6d20746865207a65726f2061646460448201527f72657373000000000000000000000000000000000000000000000000000000006064820152608401610964565b73ffffffffffffffffffffffffffffffffffffffff82166115e2576040517f08c379a000000000000000000000000000000000000000000000000000000000815260206004820152602260248201527f45524332303a20617070726f766520746f20746865207a65726f20616464726560448201527f73730000000000000000000000000000000000000000000000000000000000006064820152608401610964565b73ffffffffffffffffffffffffffffffffffffffff83811660008181526001602090815260408083209487168084529482529182902085905590518481527f8c5be1e5ebec7d5bd14f71427d1e84f3dd0314c0f7b2291e5b200ac8c7c3b925910160405180910390a3505050565b6000866116b9576040517f08c379a000000000000000000000000000000000000000000000000000000000815260206004820152600d60248201527f4e6f20726563697069656e7473000000000000000000000000000000000000006044820152606401610964565b868514611722576040517f08c379a000000000000000000000000000000000000000000000000000000000815260206004820181905260248201527f616d6f756e747320617267756d656e742073697a65206d69736d6174636865646044820152606401610964565b86831461178b576040517f08c379a000000000000000000000000000000000000000000000000000000000815260206004820152601d60248201527f7265667320617267756d656e742073697a65206d69736d6174636865640000006044820152606401610964565b60005b8781101561191d5782156117de576117d88989838181106117b1576117b1612aa4565b90506020020160208101906117c6919061290e565b88888481811061121d5761121d612aa4565b5061181c565b61181a8989838181106117f3576117f3612aa4565b9050602002016020810190611808919061290e565b88888481811061126b5761126b612aa4565b505b600085858381811061183057611830612aa4565b90506020020135111561190b5788888281811061184f5761184f612aa4565b9050602002016020810190611864919061290e565b73ffffffffffffffffffffffffffffffffffffffff16611882611493565b73ffffffffffffffffffffffffffffffffffffffff167f9be86a1edd93f234e9c42b9ec0ff205d1b91b05eed309f225cc0a82f936508308989858181106118cb576118cb612aa4565b905060200201358888868181106118e4576118e4612aa4565b90506020020135604051611902929190918252602082015260400190565b60405180910390a35b8061191581612ad3565b91505061178e565b50611926611493565b73ffffffffffffffffffffffffffffffffffffffff167fa91f78721ec724c5d8f9e089dcea4047a178a40bbff32381b463c701f37aabd889898989898960405161197596959493929190612be1565b60405180910390a2506001979650505050505050565b73ffffffffffffffffffffffffffffffffffffffff8381166000908152600160209081526040808320938616835292905220547fffffffffffffffffffffffffffffffffffffffffffffffffffffffffffffffff8114610fe15781811015611a4f576040517f08c379a000000000000000000000000000000000000000000000000000000000815260206004820152601d60248201527f45524332303a20696e73756666696369656e7420616c6c6f77616e63650000006044820152606401610964565b610fe1848484840361149d565b73ffffffffffffffffffffffffffffffffffffffff8316611aff576040517f08c379a000000000000000000000000000000000000000000000000000000000815260206004820152602560248201527f45524332303a207472616e736665722066726f6d20746865207a65726f20616460448201527f64726573730000000000000000000000000000000000000000000000000000006064820152608401610964565b73ffffffffffffffffffffffffffffffffffffffff8216611ba2576040517f08c379a000000000000000000000000000000000000000000000000000000000815260206004820152602360248201527f45524332303a207472616e7366657220746f20746865207a65726f206164647260448201527f65737300000000000000000000000000000000000000000000000000000000006064820152608401610964565b73ffffffffffffffffffffffffffffffffffffffff831660009081526020819052604090205481811015611c58576040517f08c379a000000000000000000000000000000000000000000000000000000000815260206004820152602660248201527f45524332303a207472616e7366657220616d6f756e742065786365656473206260448201527f616c616e636500000000000000000000000000000000000000000000000000006064820152608401610964565b73ffffffffffffffffffffffffffffffffffffffff808516600090815260208190526040808220858503905591851681529081208054849290611c9c908490612a91565b925050819055508273ffffffffffffffffffffffffffffffffffffffff168473ffffffffffffffffffffffffffffffffffffffff167fddf252ad1be2c89b69c2b068fc378daa952ba7f163c4a11628f55a4df523b3ef84604051611d0291815260200190565b60405180910390a3610fe1565b73ffffffffffffffffffffffffffffffffffffffff8216611db2576040517f08c379a000000000000000000000000000000000000000000000000000000000815260206004820152602160248201527f45524332303a206275726e2066726f6d20746865207a65726f2061646472657360448201527f73000000000000000000000000000000000000000000000000000000000000006064820152608401610964565b73ffffffffffffffffffffffffffffffffffffffff821660009081526020819052604090205481811015611e68576040517f08c379a000000000000000000000000000000000000000000000000000000000815260206004820152602260248201527f45524332303a206275726e20616d6f756e7420657863656564732062616c616e60448201527f63650000000000000000000000000000000000000000000000000000000000006064820152608401610964565b73ffffffffffffffffffffffffffffffffffffffff83166000908152602081905260408120838303905560028054849290611ea4908490612b83565b909155505060405182815260009073ffffffffffffffffffffffffffffffffffffffff8516907fddf252ad1be2c89b69c2b068fc378daa952ba7f163c4a11628f55a4df523b3ef9060200160405180910390a3505050565b61087981611f08611493565b6121c2565b600082815260076020908152604080832073ffffffffffffffffffffffffffffffffffffffff8516845290915290205460ff1661097757600082815260076020908152604080832073ffffffffffffffffffffffffffffffffffffffff85168452909152902080547fffffffffffffffffffffffffffffffffffffffffffffffffffffffffffffff00166001179055611fa4611493565b73ffffffffffffffffffffffffffffffffffffffff168173ffffffffffffffffffffffffffffffffffffffff16837f2f8788117e7eff1d82e926ec794901d17c78024a50270940304540a733656f0d60405160405180910390a45050565b600082815260076020908152604080832073ffffffffffffffffffffffffffffffffffffffff8516845290915290205460ff161561097757600082815260076020908152604080832073ffffffffffffffffffffffffffffffffffffffff85168452909152902080547fffffffffffffffffffffffffffffffffffffffffffffffffffffffffffffff00169055612097611493565b73ffffffffffffffffffffffffffffffffffffffff168173ffffffffffffffffffffffffffffffffffffffff16837ff6391f5c32d9c69d2a47ea670b442974b53935d1edc7fd64eb21e047a839171b60405160405180910390a45050565b7f0000000000000000000000000000000000000000000000000000000000000000156121b8577f00000000000000000000000000000000000000000000000000000000000000008161214660025490565b6121509190612a91565b11156121b8576040517f08c379a000000000000000000000000000000000000000000000000000000000815260206004820152601960248201527f455243323020737570706c7920636170206578636565646564000000000000006044820152606401610964565b6109778282612294565b600082815260076020908152604080832073ffffffffffffffffffffffffffffffffffffffff8516845290915290205460ff166109775761221a8173ffffffffffffffffffffffffffffffffffffffff1660146123b4565b6122258360206123b4565b604051602001612236929190612c66565b604080517fffffffffffffffffffffffffffffffffffffffffffffffffffffffffffffffe0818403018152908290527f08c379a00000000000000000000000000000000000000000000000000000000082526109649160040161271c565b73ffffffffffffffffffffffffffffffffffffffff8216612311576040517f08c379a000000000000000000000000000000000000000000000000000000000815260206004820152601f60248201527f45524332303a206d696e7420746f20746865207a65726f2061646472657373006044820152606401610964565b80600260008282546123239190612a91565b909155505073ffffffffffffffffffffffffffffffffffffffff82166000908152602081905260408120805483929061235d908490612a91565b909155505060405181815273ffffffffffffffffffffffffffffffffffffffff8316906000907fddf252ad1be2c89b69c2b068fc378daa952ba7f163c4a11628f55a4df523b3ef9060200160405180910390a35050565b606060006123c3836002612b0b565b6123ce906002612a91565b67ffffffffffffffff8111156123e6576123e6612ce7565b6040519080825280601f01601f191660200182016040528015612410576020820181803683370190505b5090507f30000000000000000000000000000000000000000000000000000000000000008160008151811061244757612447612aa4565b60200101907effffffffffffffffffffffffffffffffffffffffffffffffffffffffffffff1916908160001a9053507f7800000000000000000000000000000000000000000000000000000000000000816001815181106124aa576124aa612aa4565b60200101907effffffffffffffffffffffffffffffffffffffffffffffffffffffffffffff1916908160001a90535060006124e6846002612b0b565b6124f1906001612a91565b90505b600181111561258e577f303132333435363738396162636465660000000000000000000000000000000085600f166010811061253257612532612aa4565b1a60f81b82828151811061254857612548612aa4565b60200101907effffffffffffffffffffffffffffffffffffffffffffffffffffffffffffff1916908160001a90535060049490941c9361258781612d16565b90506124f4565b5083156125f7576040517f08c379a000000000000000000000000000000000000000000000000000000000815260206004820181905260248201527f537472696e67733a20686578206c656e67746820696e73756666696369656e746044820152606401610964565b9392505050565b60006020828403121561261057600080fd5b81357fffffffff00000000000000000000000000000000000000000000000000000000811681146125f757600080fd5b60008083601f84011261265257600080fd5b50813567ffffffffffffffff81111561266a57600080fd5b6020830191508360208260051b850101111561268557600080fd5b9250929050565b600080600080604085870312156126a257600080fd5b843567ffffffffffffffff808211156126ba57600080fd5b6126c688838901612640565b909650945060208701359150808211156126df57600080fd5b506126ec87828801612640565b95989497509550505050565b60005b838110156127135781810151838201526020016126fb565b50506000910152565b602081526000825180602084015261273b8160408501602087016126f8565b601f017fffffffffffffffffffffffffffffffffffffffffffffffffffffffffffffffe0169190910160400192915050565b803573ffffffffffffffffffffffffffffffffffffffff8116811461279157600080fd5b919050565b600080604083850312156127a957600080fd5b6127b28361276d565b946020939093013593505050565b600080600080600080606087890312156127d957600080fd5b863567ffffffffffffffff808211156127f157600080fd5b6127fd8a838b01612640565b9098509650602089013591508082111561281657600080fd5b6128228a838b01612640565b9096509450604089013591508082111561283b57600080fd5b5061284889828a01612640565b979a9699509497509295939492505050565b60008060006060848603121561286f57600080fd5b6128788461276d565b92506128866020850161276d565b9150604084013590509250925092565b6000602082840312156128a857600080fd5b5035919050565b600080604083850312156128c257600080fd5b823591506128d26020840161276d565b90509250929050565b6000806000606084860312156128f057600080fd5b6128f98461276d565b95602085013595506040909401359392505050565b60006020828403121561292057600080fd5b6125f78261276d565b6000806000806080858703121561293f57600080fd5b6129488561276d565b966020860135965060408601359560600135945092505050565b60008060006040848603121561297757600080fd5b6129808461276d565b9250602084013567ffffffffffffffff8082111561299d57600080fd5b818601915086601f8301126129b157600080fd5b8135818111156129c057600080fd5b8760208285010111156129d257600080fd5b6020830194508093505050509250925092565b600080604083850312156129f857600080fd5b612a018361276d565b91506128d26020840161276d565b600181811c90821680612a2357607f821691505b602082108103612a5c577f4e487b7100000000000000000000000000000000000000000000000000000000600052602260045260246000fd5b50919050565b7f4e487b7100000000000000000000000000000000000000000000000000000000600052601160045260246000fd5b8082018082111561073357610733612a62565b7f4e487b7100000000000000000000000000000000000000000000000000000000600052603260045260246000fd5b60007fffffffffffffffffffffffffffffffffffffffffffffffffffffffffffffffff8203612b0457612b04612a62565b5060010190565b6000817fffffffffffffffffffffffffffffffffffffffffffffffffffffffffffffffff0483118215151615612b4357612b43612a62565b500290565b600082612b7e577f4e487b7100000000000000000000000000000000000000000000000000000000600052601260045260246000fd5b500490565b8181038181111561073357610733612a62565b81835260007f07ffffffffffffffffffffffffffffffffffffffffffffffffffffffffffffff831115612bc857600080fd5b8260051b80836020870137939093016020019392505050565b6060808252810186905260008760808301825b89811015612c2f5773ffffffffffffffffffffffffffffffffffffffff612c1a8461276d565b16825260209283019290910190600101612bf4565b508381036020850152612c4381888a612b96565b9150508281036040840152612c59818587612b96565b9998505050505050505050565b7f416363657373436f6e74726f6c3a206163636f756e7420000000000000000000815260008351612c9e8160178501602088016126f8565b7f206973206d697373696e6720726f6c65200000000000000000000000000000006017918401918201528351612cdb8160288401602088016126f8565b01602801949350505050565b7f4e487b7100000000000000000000000000000000000000000000000000000000600052604160045260246000fd5b600081612d2557612d25612a62565b507fffffffffffffffffffffffffffffffffffffffffffffffffffffffffffffffff019056fea2646970667358221220d248057200eaef6bd653bf74d239eab01b2e5293467c63a78297318818dbbd6664736f6c63430008100033",
  "linkReferences": {},
  "deployedLinkReferences": {}
}