{
  "_format": "hh-sol-artifact-1",
  "contractName": "ERC20_Game_Currency",
  "sourceName": "contracts/Currency/ERC20_Game_Currency.sol",
  "abi": [
    {
      "inputs": [
        {
          "internalType": "string",
          "name": "_name",
          "type": "string"
        },
        {
          "internalType": "string",
          "name": "_symbol",
          "type": "string"
        },
        {
          "internalType": "uint256",
          "name": "_supplyCap",
          "type": "uint256"
        },
        {
          "internalType": "address",
          "name": "_forwarder",
          "type": "address"
        },
        {
          "internalType": "bytes32",
          "name": "_systemId",
          "type": "bytes32"
        }
      ],
      "stateMutability": "nonpayable",
      "type": "constructor"
    },
    {
      "anonymous": false,
      "inputs": [
        {
          "indexed": true,
          "internalType": "address",
          "name": "owner",
          "type": "address"
        },
        {
          "indexed": true,
          "internalType": "address",
          "name": "spender",
          "type": "address"
        },
        {
          "indexed": false,
          "internalType": "uint256",
          "name": "value",
          "type": "uint256"
        }
      ],
      "name": "Approval",
      "type": "event"
    },
    {
      "anonymous": false,
      "inputs": [
        {
          "indexed": true,
          "internalType": "address",
          "name": "sender",
          "type": "address"
        },
        {
          "indexed": false,
          "internalType": "address[]",
          "name": "recipients",
          "type": "address[]"
        },
        {
          "indexed": false,
          "internalType": "uint256[]",
          "name": "amounts",
          "type": "uint256[]"
        },
        {
          "indexed": false,
          "internalType": "uint256[]",
          "name": "refs",
          "type": "uint256[]"
        }
      ],
      "name": "BatchTransferRef",
      "type": "event"
    },
    {
      "anonymous": false,
      "inputs": [
        {
          "indexed": true,
          "internalType": "address",
          "name": "previousOwner",
          "type": "address"
        },
        {
          "indexed": true,
          "internalType": "address",
          "name": "newOwner",
          "type": "address"
        }
      ],
      "name": "OwnershipTransferred",
      "type": "event"
    },
    {
      "anonymous": false,
      "inputs": [
        {
          "indexed": true,
          "internalType": "bytes32",
          "name": "role",
          "type": "bytes32"
        },
        {
          "indexed": true,
          "internalType": "bytes32",
          "name": "previousAdminRole",
          "type": "bytes32"
        },
        {
          "indexed": true,
          "internalType": "bytes32",
          "name": "newAdminRole",
          "type": "bytes32"
        }
      ],
      "name": "RoleAdminChanged",
      "type": "event"
    },
    {
      "anonymous": false,
      "inputs": [
        {
          "indexed": true,
          "internalType": "bytes32",
          "name": "role",
          "type": "bytes32"
        },
        {
          "indexed": true,
          "internalType": "address",
          "name": "account",
          "type": "address"
        },
        {
          "indexed": true,
          "internalType": "address",
          "name": "sender",
          "type": "address"
        }
      ],
      "name": "RoleGranted",
      "type": "event"
    },
    {
      "anonymous": false,
      "inputs": [
        {
          "indexed": true,
          "internalType": "bytes32",
          "name": "role",
          "type": "bytes32"
        },
        {
          "indexed": true,
          "internalType": "address",
          "name": "account",
          "type": "address"
        },
        {
          "indexed": true,
          "internalType": "address",
          "name": "sender",
          "type": "address"
        }
      ],
      "name": "RoleRevoked",
      "type": "event"
    },
    {
      "anonymous": false,
      "inputs": [
        {
          "indexed": true,
          "internalType": "address",
          "name": "from",
          "type": "address"
        },
        {
          "indexed": true,
          "internalType": "address",
          "name": "to",
          "type": "address"
        },
        {
          "indexed": false,
          "internalType": "uint256",
          "name": "value",
          "type": "uint256"
        }
      ],
      "name": "Transfer",
      "type": "event"
    },
    {
      "anonymous": false,
      "inputs": [
        {
          "indexed": true,
          "internalType": "address",
          "name": "sender",
          "type": "address"
        },
        {
          "indexed": true,
          "internalType": "address",
          "name": "recipient",
          "type": "address"
        },
        {
          "indexed": false,
          "internalType": "uint256",
          "name": "amount",
          "type": "uint256"
        },
        {
          "indexed": false,
          "internalType": "uint256",
          "name": "ref",
          "type": "uint256"
        }
      ],
      "name": "TransferRef",
      "type": "event"
    },
    {
      "inputs": [],
      "name": "DEFAULT_ADMIN_ROLE",
      "outputs": [
        {
          "internalType": "bytes32",
          "name": "",
          "type": "bytes32"
        }
      ],
      "stateMutability": "view",
      "type": "function"
    },
    {
      "inputs": [
        {
          "internalType": "address",
          "name": "owner",
          "type": "address"
        },
        {
          "internalType": "address",
          "name": "spender",
          "type": "address"
        }
      ],
      "name": "allowance",
      "outputs": [
        {
          "internalType": "uint256",
          "name": "",
          "type": "uint256"
        }
      ],
      "stateMutability": "view",
      "type": "function"
    },
    {
      "inputs": [
        {
          "internalType": "address",
          "name": "spender",
          "type": "address"
        },
        {
          "internalType": "uint256",
          "name": "amount",
          "type": "uint256"
        }
      ],
      "name": "approve",
      "outputs": [
        {
          "internalType": "bool",
          "name": "",
          "type": "bool"
        }
      ],
      "stateMutability": "nonpayable",
      "type": "function"
    },
    {
      "inputs": [
        {
          "internalType": "address",
          "name": "account",
          "type": "address"
        }
      ],
      "name": "balanceOf",
      "outputs": [
        {
          "internalType": "uint256",
          "name": "",
          "type": "uint256"
        }
      ],
      "stateMutability": "view",
      "type": "function"
    },
    {
      "inputs": [
        {
          "internalType": "address[]",
          "name": "recipients",
          "type": "address[]"
        },
        {
          "internalType": "uint256[]",
          "name": "amounts",
          "type": "uint256[]"
        }
      ],
      "name": "batchTransfer",
      "outputs": [
        {
          "internalType": "bool",
          "name": "",
          "type": "bool"
        }
      ],
      "stateMutability": "nonpayable",
      "type": "function"
    },
    {
      "inputs": [
        {
          "internalType": "address[]",
          "name": "recipients",
          "type": "address[]"
        },
        {
          "internalType": "uint256[]",
          "name": "amounts",
          "type": "uint256[]"
        }
      ],
      "name": "batchTransferWithFees",
      "outputs": [
        {
          "internalType": "bool",
          "name": "",
          "type": "bool"
        }
      ],
      "stateMutability": "nonpayable",
      "type": "function"
    },
    {
      "inputs": [
        {
          "internalType": "address[]",
          "name": "recipients",
          "type": "address[]"
        },
        {
          "internalType": "uint256[]",
          "name": "amounts",
          "type": "uint256[]"
        },
        {
          "internalType": "uint256[]",
          "name": "refs",
          "type": "uint256[]"
        }
      ],
      "name": "batchTransferWithFeesRefs",
      "outputs": [
        {
          "internalType": "bool",
          "name": "",
          "type": "bool"
        }
      ],
      "stateMutability": "nonpayable",
      "type": "function"
    },
    {
      "inputs": [
        {
          "internalType": "address[]",
          "name": "recipients",
          "type": "address[]"
        },
        {
          "internalType": "uint256[]",
          "name": "amounts",
          "type": "uint256[]"
        },
        {
          "internalType": "uint256[]",
          "name": "refs",
          "type": "uint256[]"
        }
      ],
      "name": "batchTransferWithRefs",
      "outputs": [
        {
          "internalType": "bool",
          "name": "",
          "type": "bool"
        }
      ],
      "stateMutability": "nonpayable",
      "type": "function"
    },
    {
      "inputs": [
        {
          "internalType": "uint256",
          "name": "_amount",
          "type": "uint256"
        }
      ],
      "name": "burn",
      "outputs": [],
      "stateMutability": "nonpayable",
      "type": "function"
    },
    {
      "inputs": [
        {
          "internalType": "uint256",
          "name": "amount",
          "type": "uint256"
        }
      ],
      "name": "burnWithFee",
      "outputs": [
        {
          "internalType": "bool",
          "name": "",
          "type": "bool"
        }
      ],
      "stateMutability": "nonpayable",
      "type": "function"
    },
    {
      "inputs": [],
      "name": "childChainManagerProxy",
      "outputs": [
        {
          "internalType": "address",
          "name": "",
          "type": "address"
        }
      ],
      "stateMutability": "view",
      "type": "function"
    },
    {
      "inputs": [],
      "name": "decimals",
      "outputs": [
        {
          "internalType": "uint8",
          "name": "",
          "type": "uint8"
        }
      ],
      "stateMutability": "view",
      "type": "function"
    },
    {
      "inputs": [
        {
          "internalType": "address",
          "name": "spender",
          "type": "address"
        },
        {
          "internalType": "uint256",
          "name": "subtractedValue",
          "type": "uint256"
        }
      ],
      "name": "decreaseAllowance",
      "outputs": [
        {
          "internalType": "bool",
          "name": "",
          "type": "bool"
        }
      ],
      "stateMutability": "nonpayable",
      "type": "function"
    },
    {
      "inputs": [
        {
          "internalType": "address",
          "name": "user",
          "type": "address"
        },
        {
          "internalType": "bytes",
          "name": "depositData",
          "type": "bytes"
        }
      ],
      "name": "deposit",
      "outputs": [],
      "stateMutability": "nonpayable",
      "type": "function"
    },
    {
      "inputs": [],
      "name": "feeBps",
      "outputs": [
        {
          "internalType": "uint256",
          "name": "",
          "type": "uint256"
        }
      ],
      "stateMutability": "view",
      "type": "function"
    },
    {
      "inputs": [],
      "name": "feeCap",
      "outputs": [
        {
          "internalType": "uint256",
          "name": "",
          "type": "uint256"
        }
      ],
      "stateMutability": "view",
      "type": "function"
    },
    {
      "inputs": [],
      "name": "feeFixed",
      "outputs": [
        {
          "internalType": "uint256",
          "name": "",
          "type": "uint256"
        }
      ],
      "stateMutability": "view",
      "type": "function"
    },
    {
      "inputs": [],
      "name": "feeRecipient",
      "outputs": [
        {
          "internalType": "address",
          "name": "",
          "type": "address"
        }
      ],
      "stateMutability": "view",
      "type": "function"
    },
    {
      "inputs": [
        {
          "internalType": "bytes32",
          "name": "role",
          "type": "bytes32"
        }
      ],
      "name": "getRoleAdmin",
      "outputs": [
        {
          "internalType": "bytes32",
          "name": "",
          "type": "bytes32"
        }
      ],
      "stateMutability": "view",
      "type": "function"
    },
    {
      "inputs": [
        {
          "internalType": "bytes32",
          "name": "_role",
          "type": "bytes32"
        },
        {
          "internalType": "address",
          "name": "_account",
          "type": "address"
        }
      ],
      "name": "grantRole",
      "outputs": [],
      "stateMutability": "nonpayable",
      "type": "function"
    },
    {
      "inputs": [
        {
          "internalType": "bytes32",
          "name": "role",
          "type": "bytes32"
        },
        {
          "internalType": "address",
          "name": "account",
          "type": "address"
        }
      ],
      "name": "hasRole",
      "outputs": [
        {
          "internalType": "bool",
          "name": "",
          "type": "bool"
        }
      ],
      "stateMutability": "view",
      "type": "function"
    },
    {
      "inputs": [
        {
          "internalType": "address",
          "name": "spender",
          "type": "address"
        },
        {
          "internalType": "uint256",
          "name": "addedValue",
          "type": "uint256"
        }
      ],
      "name": "increaseAllowance",
      "outputs": [
        {
          "internalType": "bool",
          "name": "",
          "type": "bool"
        }
      ],
      "stateMutability": "nonpayable",
      "type": "function"
    },
    {
      "inputs": [
        {
          "internalType": "address",
          "name": "forwarder",
          "type": "address"
        }
      ],
      "name": "isTrustedForwarder",
      "outputs": [
        {
          "internalType": "bool",
          "name": "",
          "type": "bool"
        }
      ],
      "stateMutability": "view",
      "type": "function"
    },
    {
      "inputs": [
        {
          "internalType": "address",
          "name": "_to",
          "type": "address"
        },
        {
          "internalType": "uint256",
          "name": "_amount",
          "type": "uint256"
        }
      ],
      "name": "mint",
      "outputs": [],
      "stateMutability": "nonpayable",
      "type": "function"
    },
    {
      "inputs": [],
      "name": "name",
      "outputs": [
        {
          "internalType": "string",
          "name": "",
          "type": "string"
        }
      ],
      "stateMutability": "view",
      "type": "function"
    },
    {
      "inputs": [],
      "name": "owner",
      "outputs": [
        {
          "internalType": "address",
          "name": "",
          "type": "address"
        }
      ],
      "stateMutability": "view",
      "type": "function"
    },
    {
      "inputs": [],
      "name": "renounceOwnership",
      "outputs": [],
      "stateMutability": "nonpayable",
      "type": "function"
    },
    {
      "inputs": [
        {
          "internalType": "bytes32",
          "name": "role",
          "type": "bytes32"
        },
        {
          "internalType": "address",
          "name": "account",
          "type": "address"
        }
      ],
      "name": "renounceRole",
      "outputs": [],
      "stateMutability": "nonpayable",
      "type": "function"
    },
    {
      "inputs": [
        {
          "internalType": "bytes32",
          "name": "role",
          "type": "bytes32"
        },
        {
          "internalType": "address",
          "name": "account",
          "type": "address"
        }
      ],
      "name": "revokeRole",
      "outputs": [],
      "stateMutability": "nonpayable",
      "type": "function"
    },
    {
      "inputs": [
        {
          "internalType": "address",
          "name": "recipient",
          "type": "address"
        },
        {
          "internalType": "uint256",
          "name": "_feeBps",
          "type": "uint256"
        },
        {
          "internalType": "uint256",
          "name": "_feeFixed",
          "type": "uint256"
        },
        {
          "internalType": "uint256",
          "name": "_feeCap",
          "type": "uint256"
        }
      ],
      "name": "setFees",
      "outputs": [],
      "stateMutability": "nonpayable",
      "type": "function"
    },
    {
      "inputs": [],
      "name": "supplyCap",
      "outputs": [
        {
          "internalType": "uint256",
          "name": "",
          "type": "uint256"
        }
      ],
      "stateMutability": "view",
      "type": "function"
    },
    {
      "inputs": [
        {
          "internalType": "bytes4",
          "name": "interfaceId",
          "type": "bytes4"
        }
      ],
      "name": "supportsInterface",
      "outputs": [
        {
          "internalType": "bool",
          "name": "",
          "type": "bool"
        }
      ],
      "stateMutability": "view",
      "type": "function"
    },
    {
      "inputs": [],
      "name": "symbol",
      "outputs": [
        {
          "internalType": "string",
          "name": "",
          "type": "string"
        }
      ],
      "stateMutability": "view",
      "type": "function"
    },
    {
      "inputs": [],
      "name": "systemId",
      "outputs": [
        {
          "internalType": "bytes32",
          "name": "",
          "type": "bytes32"
        }
      ],
      "stateMutability": "view",
      "type": "function"
    },
    {
      "inputs": [],
      "name": "totalSupply",
      "outputs": [
        {
          "internalType": "uint256",
          "name": "",
          "type": "uint256"
        }
      ],
      "stateMutability": "view",
      "type": "function"
    },
    {
      "inputs": [
        {
          "internalType": "address",
          "name": "to",
          "type": "address"
        },
        {
          "internalType": "uint256",
          "name": "amount",
          "type": "uint256"
        }
      ],
      "name": "transfer",
      "outputs": [
        {
          "internalType": "bool",
          "name": "",
          "type": "bool"
        }
      ],
      "stateMutability": "nonpayable",
      "type": "function"
    },
    {
      "inputs": [
        {
          "internalType": "address",
          "name": "from",
          "type": "address"
        },
        {
          "internalType": "address",
          "name": "to",
          "type": "address"
        },
        {
          "internalType": "uint256",
          "name": "amount",
          "type": "uint256"
        }
      ],
      "name": "transferFrom",
      "outputs": [
        {
          "internalType": "bool",
          "name": "",
          "type": "bool"
        }
      ],
      "stateMutability": "nonpayable",
      "type": "function"
    },
    {
      "inputs": [
        {
          "internalType": "address",
          "name": "newOwner",
          "type": "address"
        }
      ],
      "name": "transferOwnership",
      "outputs": [],
      "stateMutability": "nonpayable",
      "type": "function"
    },
    {
      "inputs": [
        {
          "internalType": "address",
          "name": "_newOwner",
          "type": "address"
        }
      ],
      "name": "transferOwnershipControl",
      "outputs": [],
      "stateMutability": "nonpayable",
      "type": "function"
    },
    {
      "inputs": [
        {
          "internalType": "address",
          "name": "recipient",
          "type": "address"
        },
        {
          "internalType": "uint256",
          "name": "amount",
          "type": "uint256"
        }
      ],
      "name": "transferWithFee",
      "outputs": [
        {
          "internalType": "bool",
          "name": "",
          "type": "bool"
        }
      ],
      "stateMutability": "nonpayable",
      "type": "function"
    },
    {
      "inputs": [
        {
          "internalType": "address",
          "name": "recipient",
          "type": "address"
        },
        {
          "internalType": "uint256",
          "name": "amount",
          "type": "uint256"
        },
        {
          "internalType": "uint256",
          "name": "ref",
          "type": "uint256"
        }
      ],
      "name": "transferWithFeeRef",
      "outputs": [
        {
          "internalType": "bool",
          "name": "",
          "type": "bool"
        }
      ],
      "stateMutability": "nonpayable",
      "type": "function"
    },
    {
      "inputs": [
        {
          "internalType": "address",
          "name": "recipient",
          "type": "address"
        },
        {
          "internalType": "uint256",
          "name": "amount",
          "type": "uint256"
        },
        {
          "internalType": "uint256",
          "name": "ref",
          "type": "uint256"
        }
      ],
      "name": "transferWithRef",
      "outputs": [
        {
          "internalType": "bool",
          "name": "",
          "type": "bool"
        }
      ],
      "stateMutability": "nonpayable",
      "type": "function"
    },
    {
      "inputs": [],
      "name": "trustedForwarder",
      "outputs": [
        {
          "internalType": "address",
          "name": "",
          "type": "address"
        }
      ],
      "stateMutability": "view",
      "type": "function"
    },
    {
      "inputs": [
        {
          "internalType": "address",
          "name": "_childChainManagerProxy",
          "type": "address"
        }
      ],
      "name": "updateChildChainManager",
      "outputs": [],
      "stateMutability": "nonpayable",
      "type": "function"
    },
    {
      "inputs": [
        {
          "internalType": "address",
          "name": "_newTrustedForwarder",
          "type": "address"
        }
      ],
      "name": "upgradeTrustedForwarder",
      "outputs": [],
      "stateMutability": "nonpayable",
      "type": "function"
    },
    {
      "inputs": [
        {
          "internalType": "uint256",
          "name": "amount",
          "type": "uint256"
        }
      ],
      "name": "withdraw",
      "outputs": [],
      "stateMutability": "nonpayable",
      "type": "function"
    }
  ],
  "bytecode": "0x60a06040523480156200001157600080fd5b506040516200365f3803806200365f833981016040819052620000349162000334565b80828686600362000046838262000464565b50600462000055828262000464565b5050600580546001600160a01b0319166001600160a01b03939093169290921790915550600655620000906200008a6200010f565b6200012b565b6200009a6200010f565b600c80546001600160a01b0319166001600160a01b03929092169190911790556080839052620000d56000620000cf6200010f565b6200017d565b620001047f5b618ab2fee761c09bf71319707cefa62eccc93dcc483744898e6c3acf452643620000cf6200010f565b505050505062000530565b6000620001266200018d60201b620012f21760201c565b905090565b600880546001600160a01b038381166001600160a01b0319831681179093556040519116919082907f8be0079c531659141344cd1fd0a4f28419497f9722a3daafe3b4186f6b6457e090600090a35050565b620001898282620001c5565b5050565b6005546000906001600160a01b03163303620001b0575060131936013560601c90565b620001266200026b60201b620013491760201c565b60008281526007602090815260408083206001600160a01b038516845290915290205460ff16620001895760008281526007602090815260408083206001600160a01b03851684529091529020805460ff19166001179055620002276200010f565b6001600160a01b0316816001600160a01b0316837f2f8788117e7eff1d82e926ec794901d17c78024a50270940304540a733656f0d60405160405180910390a45050565b3390565b634e487b7160e01b600052604160045260246000fd5b600082601f8301126200029757600080fd5b81516001600160401b0380821115620002b457620002b46200026f565b604051601f8301601f19908116603f01168101908282118183101715620002df57620002df6200026f565b81604052838152602092508683858801011115620002fc57600080fd5b600091505b8382101562000320578582018301518183018401529082019062000301565b600093810190920192909252949350505050565b600080600080600060a086880312156200034d57600080fd5b85516001600160401b03808211156200036557600080fd5b6200037389838a0162000285565b965060208801519150808211156200038a57600080fd5b50620003998882890162000285565b60408801516060890151919650945090506001600160a01b0381168114620003c057600080fd5b80925050608086015190509295509295909350565b600181811c90821680620003ea57607f821691505b6020821081036200040b57634e487b7160e01b600052602260045260246000fd5b50919050565b601f8211156200045f57600081815260208120601f850160051c810160208610156200043a5750805b601f850160051c820191505b818110156200045b5782815560010162000446565b5050505b505050565b81516001600160401b038111156200048057620004806200026f565b6200049881620004918454620003d5565b8462000411565b602080601f831160018114620004d05760008415620004b75750858301515b600019600386901b1c1916600185901b1785556200045b565b600085815260208120601f198616915b828110156200050157888601518255948401946001909101908401620004e0565b5085821015620005205787850151600019600388901b60f8161c191681555b5050505050600190811b01905550565b6080516131056200055a600039600081816106120152818161235f015261238501526131056000f3fe608060405234801561001057600080fd5b506004361061030a5760003560e01c8063469048401161019c5780638f770ad0116100ee578063aa2a7eea11610097578063d547741f11610071578063d547741f146106e9578063dd62ed3e146106fc578063f2fde38b1461074257600080fd5b8063aa2a7eea146106b0578063c6be49e7146106c3578063cf2c52cb146106d657600080fd5b8063a217fddf116100c8578063a217fddf14610682578063a457c2d71461068a578063a9059cbb1461069d57600080fd5b80638f770ad01461060d57806391d148541461063457806395d89b411461067a57600080fd5b8063715018a611610150578063824c0d661161012a578063824c0d66146105c957806388d695b2146105dc5780638da5cb5b146105ef57600080fd5b8063715018a61461058e5780637669d489146105965780637da0a877146105a957600080fd5b80635932a78e116101815780635932a78e1461052557806362f629e71461053857806370a082311461055857600080fd5b806346904840146104b1578063572b6c05146104f657600080fd5b806324a9d8531161026057806339509351116102095780634252ac3f116101e35780634252ac3f1461048b57806342966c68146103ff578063445a67971461049e57600080fd5b8063395093511461045c57806339f898bc1461046f57806340c10f191461047857600080fd5b8063313ce5671161023a578063313ce5671461042757806336568abe1461043657806337ea010a1461044957600080fd5b806324a9d853146103f65780632e1a7d4d146103ff5780632f2ff15d1461041457600080fd5b8063095ea7b3116102c257806318160ddd1161029c57806318160ddd146103b857806323b872dd146103c0578063248a9ca3146103d357600080fd5b8063095ea7b3146103895780630e3d22021461039c57806312b68198146103a557600080fd5b806306fdde03116102f357806306fdde031461034a578063075b6e331461035f57806308acece21461037657600080fd5b806301ffc9a71461030f578063050b788314610337575b600080fd5b61032261031d366004612982565b610755565b60405190151581526020015b60405180910390f35b610322610345366004612a10565b6107b1565b6103526107ca565b60405161032e9190612aa0565b610368600b5481565b60405190815260200161032e565b610322610384366004612b1a565b61085c565b610322610397366004612b1a565b610873565b610368600a5481565b6103226103b3366004612b44565b610895565b600254610368565b6103226103ce366004612bde565b6108b2565b6103686103e1366004612c1a565b60009081526007602052604090206001015490565b61036860095481565b61041261040d366004612c1a565b6108e0565b005b610412610422366004612c33565b6108f4565b6040516012815260200161032e565b610412610444366004612c33565b610a9c565b610322610457366004612c5f565b610b6c565b61032261046a366004612b1a565b610c01565b61036860065481565b610412610486366004612b1a565b610c60565b610412610499366004612c92565b610dd4565b6104126104ac366004612c92565b610e02565b600c546104d19073ffffffffffffffffffffffffffffffffffffffff1681565b60405173ffffffffffffffffffffffffffffffffffffffff909116815260200161032e565b610322610504366004612c92565b60055473ffffffffffffffffffffffffffffffffffffffff91821691161490565b610322610533366004612c5f565b610e74565b600d546104d19073ffffffffffffffffffffffffffffffffffffffff1681565b610368610566366004612c92565b73ffffffffffffffffffffffffffffffffffffffff1660009081526020819052604090205490565b610412610ea0565b6104126105a4366004612cad565b610eb4565b6005546104d19073ffffffffffffffffffffffffffffffffffffffff1681565b6103226105d7366004612b44565b610fb0565b6103226105ea366004612a10565b610fc2565b60085473ffffffffffffffffffffffffffffffffffffffff166104d1565b6103687f000000000000000000000000000000000000000000000000000000000000000081565b610322610642366004612c33565b600091825260076020908152604080842073ffffffffffffffffffffffffffffffffffffffff93909316845291905290205460ff1690565b610352610fd2565b610368600081565b610322610698366004612b1a565b610fe1565b6103226106ab366004612b1a565b6110bf565b6104126106be366004612c92565b6110d7565b6103226106d1366004612c1a565b611145565b6104126106e4366004612ce6565b61115c565b6104126106f7366004612c33565b611214565b61036861070a366004612d69565b73ffffffffffffffffffffffffffffffffffffffff918216600090815260016020908152604080832093909416825291909152205490565b610412610750366004612c92565b61123e565b60007fffffffff0000000000000000000000000000000000000000000000000000000082167fa833ce8d0000000000000000000000000000000000000000000000000000000014806107ab57506107ab8261134d565b92915050565b60006107c18585858560016113e4565b95945050505050565b6060600380546107d990612d93565b80601f016020809104026020016040519081016040528092919081815260200182805461080590612d93565b80156108525780601f1061082757610100808354040283529160200191610852565b820191906000526020600020905b81548152906001019060200180831161083557829003601f168201915b5050505050905090565b600061086a8383600061157e565b50600192915050565b60008061087e611779565b905061088b818585611783565b5060019392505050565b60006108a78787878787876000611936565b979650505050505050565b6000806108bd611779565b90506108ca858285611c71565b6108d5858585611d42565b506001949350505050565b6108f16108eb611779565b82611fb1565b50565b600061090281610642611779565b905060006109327f5b618ab2fee761c09bf71319707cefa62eccc93dcc483744898e6c3acf452643610642611779565b9050818061093d5750805b6109ce576040517f08c379a000000000000000000000000000000000000000000000000000000000815260206004820152602d60248201527f526f6c65206772616e74696e672072657175697265732061646d696e206f722060448201527f6d616e6167657220726f6c652e0000000000000000000000000000000000000060648201526084015b60405180910390fd5b8315806109fa57507f5b618ab2fee761c09bf71319707cefa62eccc93dcc483744898e6c3acf45264384145b15610a8c5781610a8c576040517f08c379a000000000000000000000000000000000000000000000000000000000815260206004820152602b60248201527f4f6e6c792061646d696e2063616e206772616e742061646d696e206f72206d6160448201527f6e6167657220726f6c652e00000000000000000000000000000000000000000060648201526084016109c5565b610a968484612175565b50505050565b610aa4611779565b73ffffffffffffffffffffffffffffffffffffffff168173ffffffffffffffffffffffffffffffffffffffff1614610b5e576040517f08c379a000000000000000000000000000000000000000000000000000000000815260206004820152602f60248201527f416363657373436f6e74726f6c3a2063616e206f6e6c792072656e6f756e636560448201527f20726f6c657320666f722073656c66000000000000000000000000000000000060648201526084016109c5565b610b68828261226a565b5050565b6000610b80610b79611779565b8585611d42565b8373ffffffffffffffffffffffffffffffffffffffff16610b9f611779565b73ffffffffffffffffffffffffffffffffffffffff167f9be86a1edd93f234e9c42b9ec0ff205d1b91b05eed309f225cc0a82f936508308585604051610bef929190918252602082015260400190565b60405180910390a35060019392505050565b600080610c0c611779565b905061088b818585610c51858973ffffffffffffffffffffffffffffffffffffffff918216600090815260016020908152604080832093909416825291909152205490565b610c5b9190612e15565b611783565b610c8c7f5b618ab2fee761c09bf71319707cefa62eccc93dcc483744898e6c3acf452643610642611779565b80610cbe5750610cbe7fc9eb32e43bf5ecbceacf00b32281dfc5d6d700a0db676ea26ccf938a385ac3f7610642611779565b610d24576040517f08c379a000000000000000000000000000000000000000000000000000000000815260206004820152601760248201527f4e6f7420617574686f72697a656420746f206d696e742e00000000000000000060448201526064016109c5565b600d5473ffffffffffffffffffffffffffffffffffffffff1615610dca576040517f08c379a000000000000000000000000000000000000000000000000000000000815260206004820152603060248201527f4d696e74696e672064697361626c6564207768656e20506f6c79676f6e20627260448201527f6964676520697320656e61626c65642e0000000000000000000000000000000060648201526084016109c5565b610b68828261235d565b610ddc61242a565b610de58161123e565b610df0600082612175565b6108f16000610dfd611779565b61226a565b7f5b618ab2fee761c09bf71319707cefa62eccc93dcc483744898e6c3acf452643610e2c816124e4565b50600d80547fffffffffffffffffffffffff00000000000000000000000000000000000000001673ffffffffffffffffffffffffffffffffffffffff92909216919091179055565b6000610e80848461085c565b508373ffffffffffffffffffffffffffffffffffffffff16610b9f611779565b610ea861242a565b610eb260006124f5565b565b7f5b618ab2fee761c09bf71319707cefa62eccc93dcc483744898e6c3acf452643610ede816124e4565b73ffffffffffffffffffffffffffffffffffffffff8516610f5b576040517f08c379a000000000000000000000000000000000000000000000000000000000815260206004820152601360248201527f726563697069656e74206973203020616464720000000000000000000000000060448201526064016109c5565b50600c80547fffffffffffffffffffffffff00000000000000000000000000000000000000001673ffffffffffffffffffffffffffffffffffffffff9590951694909417909355600991909155600a55600b55565b60006108a78787878787876001611936565b60006107c18585858560006113e4565b6060600480546107d990612d93565b600080610fec611779565b73ffffffffffffffffffffffffffffffffffffffff818116600090815260016020908152604080832093891683529290522054909150838110156110b2576040517f08c379a000000000000000000000000000000000000000000000000000000000815260206004820152602560248201527f45524332303a2064656372656173656420616c6c6f77616e63652062656c6f7760448201527f207a65726f00000000000000000000000000000000000000000000000000000060648201526084016109c5565b6108d58286868403611783565b6000806110ca611779565b905061088b818585611d42565b7f5b618ab2fee761c09bf71319707cefa62eccc93dcc483744898e6c3acf452643611101816124e4565b600580547fffffffffffffffffffffffff00000000000000000000000000000000000000001673ffffffffffffffffffffffffffffffffffffffff84161790555050565b6000611154600083600161157e565b506001919050565b600d5473ffffffffffffffffffffffffffffffffffffffff1661117d611779565b73ffffffffffffffffffffffffffffffffffffffff16146111fa576040517f08c379a000000000000000000000000000000000000000000000000000000000815260206004820152601f60248201527f41646472657373206e6f7420616c6c6f77656420746f206465706f7369742e0060448201526064016109c5565b600061120882840184612c1a565b9050610a96848261235d565b60008281526007602052604090206001015461122f816124e4565b611239838361226a565b505050565b61124661242a565b73ffffffffffffffffffffffffffffffffffffffff81166112e9576040517f08c379a000000000000000000000000000000000000000000000000000000000815260206004820152602660248201527f4f776e61626c653a206e6577206f776e657220697320746865207a65726f206160448201527f646472657373000000000000000000000000000000000000000000000000000060648201526084016109c5565b6108f1816124f5565b60055460009073ffffffffffffffffffffffffffffffffffffffff16330361133f57507fffffffffffffffffffffffffffffffffffffffffffffffffffffffffffffffec36013560601c90565b503390565b905090565b3390565b60007fffffffff0000000000000000000000000000000000000000000000000000000082167f7965db0b0000000000000000000000000000000000000000000000000000000014806107ab57507f01ffc9a7000000000000000000000000000000000000000000000000000000007fffffffff000000000000000000000000000000000000000000000000000000008316146107ab565b60008461144d576040517f08c379a000000000000000000000000000000000000000000000000000000000815260206004820152600d60248201527f4e6f20726563697069656e74730000000000000000000000000000000000000060448201526064016109c5565b8483146114b6576040517f08c379a000000000000000000000000000000000000000000000000000000000815260206004820181905260248201527f616d6f756e747320617267756d656e742073697a65206d69736d61746368656460448201526064016109c5565b60005b858110156115715782156115155761150f8787838181106114dc576114dc612e28565b90506020020160208101906114f19190612c92565b86868481811061150357611503612e28565b9050602002013561085c565b5061155f565b61155d87878381811061152a5761152a612e28565b905060200201602081019061153f9190612c92565b86868481811061155157611551612e28565b905060200201356110bf565b505b8061156981612e57565b9150506114b9565b5060019695505050505050565b600061158b610566611779565b600c5490915073ffffffffffffffffffffffffffffffffffffffff16611633576040517f08c379a000000000000000000000000000000000000000000000000000000000815260206004820152603160248201527f46656520726563697069656e74206e6f74207365742c2063616e6e6f7420757360448201527f65207472616e736665725769746846656500000000000000000000000000000060648201526084016109c5565b828110156116c3576040517f08c379a000000000000000000000000000000000000000000000000000000000815260206004820152602760248201527f45524332303a207472616e7366657220616d6f756e742065786365656473206260448201527f616c616e63652e0000000000000000000000000000000000000000000000000060648201526084016109c5565b6000600a54612710600954866116d99190612e8f565b6116e39190612ecc565b6116ed9190612e15565b90506000600b5482111561170357600b54611705565b815b9050611731611712611779565b600c5473ffffffffffffffffffffffffffffffffffffffff1683611d42565b831561175657611751611742611779565b61174c8388612f07565b611fb1565b611771565b611771611761611779565b8761176c8489612f07565b611d42565b505050505050565b60006113446112f2565b73ffffffffffffffffffffffffffffffffffffffff8316611825576040517f08c379a0000000000000000000000000000000000000000000000000000000008152602060048201526024808201527f45524332303a20617070726f76652066726f6d20746865207a65726f2061646460448201527f726573730000000000000000000000000000000000000000000000000000000060648201526084016109c5565b73ffffffffffffffffffffffffffffffffffffffff82166118c8576040517f08c379a000000000000000000000000000000000000000000000000000000000815260206004820152602260248201527f45524332303a20617070726f766520746f20746865207a65726f20616464726560448201527f737300000000000000000000000000000000000000000000000000000000000060648201526084016109c5565b73ffffffffffffffffffffffffffffffffffffffff83811660008181526001602090815260408083209487168084529482529182902085905590518481527f8c5be1e5ebec7d5bd14f71427d1e84f3dd0314c0f7b2291e5b200ac8c7c3b925910160405180910390a3505050565b60008661199f576040517f08c379a000000000000000000000000000000000000000000000000000000000815260206004820152600d60248201527f4e6f20726563697069656e74730000000000000000000000000000000000000060448201526064016109c5565b868514611a08576040517f08c379a000000000000000000000000000000000000000000000000000000000815260206004820181905260248201527f616d6f756e747320617267756d656e742073697a65206d69736d61746368656460448201526064016109c5565b868314611a71576040517f08c379a000000000000000000000000000000000000000000000000000000000815260206004820152601d60248201527f7265667320617267756d656e742073697a65206d69736d61746368656400000060448201526064016109c5565b60005b87811015611c03578215611ac457611abe898983818110611a9757611a97612e28565b9050602002016020810190611aac9190612c92565b88888481811061150357611503612e28565b50611b02565b611b00898983818110611ad957611ad9612e28565b9050602002016020810190611aee9190612c92565b88888481811061155157611551612e28565b505b6000858583818110611b1657611b16612e28565b905060200201351115611bf157888882818110611b3557611b35612e28565b9050602002016020810190611b4a9190612c92565b73ffffffffffffffffffffffffffffffffffffffff16611b68611779565b73ffffffffffffffffffffffffffffffffffffffff167f9be86a1edd93f234e9c42b9ec0ff205d1b91b05eed309f225cc0a82f93650830898985818110611bb157611bb1612e28565b90506020020135888886818110611bca57611bca612e28565b90506020020135604051611be8929190918252602082015260400190565b60405180910390a35b80611bfb81612e57565b915050611a74565b50611c0c611779565b73ffffffffffffffffffffffffffffffffffffffff167fa91f78721ec724c5d8f9e089dcea4047a178a40bbff32381b463c701f37aabd8898989898989604051611c5b96959493929190612f65565b60405180910390a2506001979650505050505050565b73ffffffffffffffffffffffffffffffffffffffff8381166000908152600160209081526040808320938616835292905220547fffffffffffffffffffffffffffffffffffffffffffffffffffffffffffffffff8114610a965781811015611d35576040517f08c379a000000000000000000000000000000000000000000000000000000000815260206004820152601d60248201527f45524332303a20696e73756666696369656e7420616c6c6f77616e636500000060448201526064016109c5565b610a968484848403611783565b73ffffffffffffffffffffffffffffffffffffffff8316611de5576040517f08c379a000000000000000000000000000000000000000000000000000000000815260206004820152602560248201527f45524332303a207472616e736665722066726f6d20746865207a65726f20616460448201527f647265737300000000000000000000000000000000000000000000000000000060648201526084016109c5565b73ffffffffffffffffffffffffffffffffffffffff8216611e88576040517f08c379a000000000000000000000000000000000000000000000000000000000815260206004820152602360248201527f45524332303a207472616e7366657220746f20746865207a65726f206164647260448201527f657373000000000000000000000000000000000000000000000000000000000060648201526084016109c5565b73ffffffffffffffffffffffffffffffffffffffff831660009081526020819052604090205481811015611f3e576040517f08c379a000000000000000000000000000000000000000000000000000000000815260206004820152602660248201527f45524332303a207472616e7366657220616d6f756e742065786365656473206260448201527f616c616e6365000000000000000000000000000000000000000000000000000060648201526084016109c5565b73ffffffffffffffffffffffffffffffffffffffff848116600081815260208181526040808320878703905593871680835291849020805487019055925185815290927fddf252ad1be2c89b69c2b068fc378daa952ba7f163c4a11628f55a4df523b3ef910160405180910390a3610a96565b73ffffffffffffffffffffffffffffffffffffffff8216612054576040517f08c379a000000000000000000000000000000000000000000000000000000000815260206004820152602160248201527f45524332303a206275726e2066726f6d20746865207a65726f2061646472657360448201527f730000000000000000000000000000000000000000000000000000000000000060648201526084016109c5565b73ffffffffffffffffffffffffffffffffffffffff82166000908152602081905260409020548181101561210a576040517f08c379a000000000000000000000000000000000000000000000000000000000815260206004820152602260248201527f45524332303a206275726e20616d6f756e7420657863656564732062616c616e60448201527f636500000000000000000000000000000000000000000000000000000000000060648201526084016109c5565b73ffffffffffffffffffffffffffffffffffffffff83166000818152602081815260408083208686039055600280548790039055518581529192917fddf252ad1be2c89b69c2b068fc378daa952ba7f163c4a11628f55a4df523b3ef910160405180910390a3505050565b600082815260076020908152604080832073ffffffffffffffffffffffffffffffffffffffff8516845290915290205460ff16610b6857600082815260076020908152604080832073ffffffffffffffffffffffffffffffffffffffff85168452909152902080547fffffffffffffffffffffffffffffffffffffffffffffffffffffffffffffff0016600117905561220c611779565b73ffffffffffffffffffffffffffffffffffffffff168173ffffffffffffffffffffffffffffffffffffffff16837f2f8788117e7eff1d82e926ec794901d17c78024a50270940304540a733656f0d60405160405180910390a45050565b600082815260076020908152604080832073ffffffffffffffffffffffffffffffffffffffff8516845290915290205460ff1615610b6857600082815260076020908152604080832073ffffffffffffffffffffffffffffffffffffffff85168452909152902080547fffffffffffffffffffffffffffffffffffffffffffffffffffffffffffffff001690556122ff611779565b73ffffffffffffffffffffffffffffffffffffffff168173ffffffffffffffffffffffffffffffffffffffff16837ff6391f5c32d9c69d2a47ea670b442974b53935d1edc7fd64eb21e047a839171b60405160405180910390a45050565b7f000000000000000000000000000000000000000000000000000000000000000015612420577f0000000000000000000000000000000000000000000000000000000000000000816123ae60025490565b6123b89190612e15565b1115612420576040517f08c379a000000000000000000000000000000000000000000000000000000000815260206004820152601960248201527f455243323020737570706c79206361702065786365656465640000000000000060448201526064016109c5565b610b68828261256c565b612432611779565b73ffffffffffffffffffffffffffffffffffffffff1661246760085473ffffffffffffffffffffffffffffffffffffffff1690565b73ffffffffffffffffffffffffffffffffffffffff1614610eb2576040517f08c379a000000000000000000000000000000000000000000000000000000000815260206004820181905260248201527f4f776e61626c653a2063616c6c6572206973206e6f7420746865206f776e657260448201526064016109c5565b6108f1816124f0611779565b61265f565b6008805473ffffffffffffffffffffffffffffffffffffffff8381167fffffffffffffffffffffffff0000000000000000000000000000000000000000831681179093556040519116919082907f8be0079c531659141344cd1fd0a4f28419497f9722a3daafe3b4186f6b6457e090600090a35050565b73ffffffffffffffffffffffffffffffffffffffff82166125e9576040517f08c379a000000000000000000000000000000000000000000000000000000000815260206004820152601f60248201527f45524332303a206d696e7420746f20746865207a65726f20616464726573730060448201526064016109c5565b80600260008282546125fb9190612e15565b909155505073ffffffffffffffffffffffffffffffffffffffff8216600081815260208181526040808320805486019055518481527fddf252ad1be2c89b69c2b068fc378daa952ba7f163c4a11628f55a4df523b3ef910160405180910390a35050565b600082815260076020908152604080832073ffffffffffffffffffffffffffffffffffffffff8516845290915290205460ff16610b685761269f81612719565b6126aa836020612738565b6040516020016126bb929190612fea565b604080517fffffffffffffffffffffffffffffffffffffffffffffffffffffffffffffffe0818403018152908290527f08c379a00000000000000000000000000000000000000000000000000000000082526109c591600401612aa0565b60606107ab73ffffffffffffffffffffffffffffffffffffffff831660145b60606000612747836002612e8f565b612752906002612e15565b67ffffffffffffffff81111561276a5761276a61306b565b6040519080825280601f01601f191660200182016040528015612794576020820181803683370190505b5090507f3000000000000000000000000000000000000000000000000000000000000000816000815181106127cb576127cb612e28565b60200101907effffffffffffffffffffffffffffffffffffffffffffffffffffffffffffff1916908160001a9053507f78000000000000000000000000000000000000000000000000000000000000008160018151811061282e5761282e612e28565b60200101907effffffffffffffffffffffffffffffffffffffffffffffffffffffffffffff1916908160001a905350600061286a846002612e8f565b612875906001612e15565b90505b6001811115612912577f303132333435363738396162636465660000000000000000000000000000000085600f16601081106128b6576128b6612e28565b1a60f81b8282815181106128cc576128cc612e28565b60200101907effffffffffffffffffffffffffffffffffffffffffffffffffffffffffffff1916908160001a90535060049490941c9361290b8161309a565b9050612878565b50831561297b576040517f08c379a000000000000000000000000000000000000000000000000000000000815260206004820181905260248201527f537472696e67733a20686578206c656e67746820696e73756666696369656e7460448201526064016109c5565b9392505050565b60006020828403121561299457600080fd5b81357fffffffff000000000000000000000000000000000000000000000000000000008116811461297b57600080fd5b60008083601f8401126129d657600080fd5b50813567ffffffffffffffff8111156129ee57600080fd5b6020830191508360208260051b8501011115612a0957600080fd5b9250929050565b60008060008060408587031215612a2657600080fd5b843567ffffffffffffffff80821115612a3e57600080fd5b612a4a888389016129c4565b90965094506020870135915080821115612a6357600080fd5b50612a70878288016129c4565b95989497509550505050565b60005b83811015612a97578181015183820152602001612a7f565b50506000910152565b6020815260008251806020840152612abf816040850160208701612a7c565b601f017fffffffffffffffffffffffffffffffffffffffffffffffffffffffffffffffe0169190910160400192915050565b803573ffffffffffffffffffffffffffffffffffffffff81168114612b1557600080fd5b919050565b60008060408385031215612b2d57600080fd5b612b3683612af1565b946020939093013593505050565b60008060008060008060608789031215612b5d57600080fd5b863567ffffffffffffffff80821115612b7557600080fd5b612b818a838b016129c4565b90985096506020890135915080821115612b9a57600080fd5b612ba68a838b016129c4565b90965094506040890135915080821115612bbf57600080fd5b50612bcc89828a016129c4565b979a9699509497509295939492505050565b600080600060608486031215612bf357600080fd5b612bfc84612af1565b9250612c0a60208501612af1565b9150604084013590509250925092565b600060208284031215612c2c57600080fd5b5035919050565b60008060408385031215612c4657600080fd5b82359150612c5660208401612af1565b90509250929050565b600080600060608486031215612c7457600080fd5b612c7d84612af1565b95602085013595506040909401359392505050565b600060208284031215612ca457600080fd5b61297b82612af1565b60008060008060808587031215612cc357600080fd5b612ccc85612af1565b966020860135965060408601359560600135945092505050565b600080600060408486031215612cfb57600080fd5b612d0484612af1565b9250602084013567ffffffffffffffff80821115612d2157600080fd5b818601915086601f830112612d3557600080fd5b813581811115612d4457600080fd5b876020828501011115612d5657600080fd5b6020830194508093505050509250925092565b60008060408385031215612d7c57600080fd5b612d8583612af1565b9150612c5660208401612af1565b600181811c90821680612da757607f821691505b602082108103612de0577f4e487b7100000000000000000000000000000000000000000000000000000000600052602260045260246000fd5b50919050565b7f4e487b7100000000000000000000000000000000000000000000000000000000600052601160045260246000fd5b808201808211156107ab576107ab612de6565b7f4e487b7100000000000000000000000000000000000000000000000000000000600052603260045260246000fd5b60007fffffffffffffffffffffffffffffffffffffffffffffffffffffffffffffffff8203612e8857612e88612de6565b5060010190565b6000817fffffffffffffffffffffffffffffffffffffffffffffffffffffffffffffffff0483118215151615612ec757612ec7612de6565b500290565b600082612f02577f4e487b7100000000000000000000000000000000000000000000000000000000600052601260045260246000fd5b500490565b818103818111156107ab576107ab612de6565b81835260007f07ffffffffffffffffffffffffffffffffffffffffffffffffffffffffffffff831115612f4c57600080fd5b8260051b80836020870137939093016020019392505050565b6060808252810186905260008760808301825b89811015612fb35773ffffffffffffffffffffffffffffffffffffffff612f9e84612af1565b16825260209283019290910190600101612f78565b508381036020850152612fc781888a612f1a565b9150508281036040840152612fdd818587612f1a565b9998505050505050505050565b7f416363657373436f6e74726f6c3a206163636f756e7420000000000000000000815260008351613022816017850160208801612a7c565b7f206973206d697373696e6720726f6c6520000000000000000000000000000000601791840191820152835161305f816028840160208801612a7c565b01602801949350505050565b7f4e487b7100000000000000000000000000000000000000000000000000000000600052604160045260246000fd5b6000816130a9576130a9612de6565b507fffffffffffffffffffffffffffffffffffffffffffffffffffffffffffffffff019056fea2646970667358221220d2d6cc10ab036a3b9fd87bea40bd324a55c1dab8b0e55d8993cded7867b9c2c664736f6c63430008100033",
  "linkReferences": {},
  "deployedLinkReferences": {}
}