{
  "_format": "hh-sol-artifact-1",
  "contractName": "ERC20_Game_Currency",
  "sourceName": "contracts/Currency/ERC20_Game_Currency.sol",
  "abi": [
    {
      "inputs": [
        {
          "internalType": "string",
          "name": "_name",
          "type": "string"
        },
        {
          "internalType": "string",
          "name": "_symbol",
          "type": "string"
        },
        {
          "internalType": "uint256",
          "name": "_supplyCap",
          "type": "uint256"
        },
        {
          "internalType": "address",
          "name": "_forwarder",
          "type": "address"
        },
        {
          "internalType": "bytes32",
          "name": "_systemId",
          "type": "bytes32"
        }
      ],
      "stateMutability": "nonpayable",
      "type": "constructor"
    },
    {
      "anonymous": false,
      "inputs": [
        {
          "indexed": true,
          "internalType": "address",
          "name": "owner",
          "type": "address"
        },
        {
          "indexed": true,
          "internalType": "address",
          "name": "spender",
          "type": "address"
        },
        {
          "indexed": false,
          "internalType": "uint256",
          "name": "value",
          "type": "uint256"
        }
      ],
      "name": "Approval",
      "type": "event"
    },
    {
      "anonymous": false,
      "inputs": [
        {
          "indexed": true,
          "internalType": "address",
          "name": "sender",
          "type": "address"
        },
        {
          "indexed": false,
          "internalType": "address[]",
          "name": "recipients",
          "type": "address[]"
        },
        {
          "indexed": false,
          "internalType": "uint256[]",
          "name": "amounts",
          "type": "uint256[]"
        },
        {
          "indexed": false,
          "internalType": "uint256[]",
          "name": "refs",
          "type": "uint256[]"
        }
      ],
      "name": "BatchTransferRef",
      "type": "event"
    },
    {
      "anonymous": false,
      "inputs": [
        {
          "indexed": true,
          "internalType": "address",
          "name": "previousOwner",
          "type": "address"
        },
        {
          "indexed": true,
          "internalType": "address",
          "name": "newOwner",
          "type": "address"
        }
      ],
      "name": "OwnershipTransferred",
      "type": "event"
    },
    {
      "anonymous": false,
      "inputs": [
        {
          "indexed": true,
          "internalType": "bytes32",
          "name": "role",
          "type": "bytes32"
        },
        {
          "indexed": true,
          "internalType": "bytes32",
          "name": "previousAdminRole",
          "type": "bytes32"
        },
        {
          "indexed": true,
          "internalType": "bytes32",
          "name": "newAdminRole",
          "type": "bytes32"
        }
      ],
      "name": "RoleAdminChanged",
      "type": "event"
    },
    {
      "anonymous": false,
      "inputs": [
        {
          "indexed": true,
          "internalType": "bytes32",
          "name": "role",
          "type": "bytes32"
        },
        {
          "indexed": true,
          "internalType": "address",
          "name": "account",
          "type": "address"
        },
        {
          "indexed": true,
          "internalType": "address",
          "name": "sender",
          "type": "address"
        }
      ],
      "name": "RoleGranted",
      "type": "event"
    },
    {
      "anonymous": false,
      "inputs": [
        {
          "indexed": true,
          "internalType": "bytes32",
          "name": "role",
          "type": "bytes32"
        },
        {
          "indexed": true,
          "internalType": "address",
          "name": "account",
          "type": "address"
        },
        {
          "indexed": true,
          "internalType": "address",
          "name": "sender",
          "type": "address"
        }
      ],
      "name": "RoleRevoked",
      "type": "event"
    },
    {
      "anonymous": false,
      "inputs": [
        {
          "indexed": true,
          "internalType": "address",
          "name": "from",
          "type": "address"
        },
        {
          "indexed": true,
          "internalType": "address",
          "name": "to",
          "type": "address"
        },
        {
          "indexed": false,
          "internalType": "uint256",
          "name": "value",
          "type": "uint256"
        }
      ],
      "name": "Transfer",
      "type": "event"
    },
    {
      "anonymous": false,
      "inputs": [
        {
          "indexed": true,
          "internalType": "address",
          "name": "sender",
          "type": "address"
        },
        {
          "indexed": true,
          "internalType": "address",
          "name": "recipient",
          "type": "address"
        },
        {
          "indexed": false,
          "internalType": "uint256",
          "name": "amount",
          "type": "uint256"
        },
        {
          "indexed": false,
          "internalType": "uint256",
          "name": "ref",
          "type": "uint256"
        }
      ],
      "name": "TransferRef",
      "type": "event"
    },
    {
      "inputs": [],
      "name": "DEFAULT_ADMIN_ROLE",
      "outputs": [
        {
          "internalType": "bytes32",
          "name": "",
          "type": "bytes32"
        }
      ],
      "stateMutability": "view",
      "type": "function"
    },
    {
      "inputs": [
        {
          "internalType": "bytes32",
          "name": "_systemId",
          "type": "bytes32"
        }
      ],
      "name": "addSystemId",
      "outputs": [],
      "stateMutability": "nonpayable",
      "type": "function"
    },
    {
      "inputs": [
        {
          "internalType": "address",
          "name": "owner",
          "type": "address"
        },
        {
          "internalType": "address",
          "name": "spender",
          "type": "address"
        }
      ],
      "name": "allowance",
      "outputs": [
        {
          "internalType": "uint256",
          "name": "",
          "type": "uint256"
        }
      ],
      "stateMutability": "view",
      "type": "function"
    },
    {
      "inputs": [
        {
          "internalType": "address",
          "name": "spender",
          "type": "address"
        },
        {
          "internalType": "uint256",
          "name": "amount",
          "type": "uint256"
        }
      ],
      "name": "approve",
      "outputs": [
        {
          "internalType": "bool",
          "name": "",
          "type": "bool"
        }
      ],
      "stateMutability": "nonpayable",
      "type": "function"
    },
    {
      "inputs": [
        {
          "internalType": "address",
          "name": "account",
          "type": "address"
        }
      ],
      "name": "balanceOf",
      "outputs": [
        {
          "internalType": "uint256",
          "name": "",
          "type": "uint256"
        }
      ],
      "stateMutability": "view",
      "type": "function"
    },
    {
      "inputs": [
        {
          "internalType": "address[]",
          "name": "recipients",
          "type": "address[]"
        },
        {
          "internalType": "uint256[]",
          "name": "amounts",
          "type": "uint256[]"
        }
      ],
      "name": "batchTransfer",
      "outputs": [
        {
          "internalType": "bool",
          "name": "",
          "type": "bool"
        }
      ],
      "stateMutability": "nonpayable",
      "type": "function"
    },
    {
      "inputs": [
        {
          "internalType": "address[]",
          "name": "recipients",
          "type": "address[]"
        },
        {
          "internalType": "uint256[]",
          "name": "amounts",
          "type": "uint256[]"
        }
      ],
      "name": "batchTransferWithFees",
      "outputs": [
        {
          "internalType": "bool",
          "name": "",
          "type": "bool"
        }
      ],
      "stateMutability": "nonpayable",
      "type": "function"
    },
    {
      "inputs": [
        {
          "internalType": "address[]",
          "name": "recipients",
          "type": "address[]"
        },
        {
          "internalType": "uint256[]",
          "name": "amounts",
          "type": "uint256[]"
        },
        {
          "internalType": "uint256[]",
          "name": "refs",
          "type": "uint256[]"
        }
      ],
      "name": "batchTransferWithFeesRefs",
      "outputs": [
        {
          "internalType": "bool",
          "name": "",
          "type": "bool"
        }
      ],
      "stateMutability": "nonpayable",
      "type": "function"
    },
    {
      "inputs": [
        {
          "internalType": "address[]",
          "name": "recipients",
          "type": "address[]"
        },
        {
          "internalType": "uint256[]",
          "name": "amounts",
          "type": "uint256[]"
        },
        {
          "internalType": "uint256[]",
          "name": "refs",
          "type": "uint256[]"
        }
      ],
      "name": "batchTransferWithRefs",
      "outputs": [
        {
          "internalType": "bool",
          "name": "",
          "type": "bool"
        }
      ],
      "stateMutability": "nonpayable",
      "type": "function"
    },
    {
      "inputs": [
        {
          "internalType": "uint256",
          "name": "_amount",
          "type": "uint256"
        }
      ],
      "name": "burn",
      "outputs": [],
      "stateMutability": "nonpayable",
      "type": "function"
    },
    {
      "inputs": [
        {
          "internalType": "uint256",
          "name": "amount",
          "type": "uint256"
        }
      ],
      "name": "burnWithFee",
      "outputs": [
        {
          "internalType": "bool",
          "name": "",
          "type": "bool"
        }
      ],
      "stateMutability": "nonpayable",
      "type": "function"
    },
    {
      "inputs": [],
      "name": "childChainManagerProxy",
      "outputs": [
        {
          "internalType": "address",
          "name": "",
          "type": "address"
        }
      ],
      "stateMutability": "view",
      "type": "function"
    },
    {
      "inputs": [],
      "name": "decimals",
      "outputs": [
        {
          "internalType": "uint8",
          "name": "",
          "type": "uint8"
        }
      ],
      "stateMutability": "view",
      "type": "function"
    },
    {
      "inputs": [
        {
          "internalType": "address",
          "name": "spender",
          "type": "address"
        },
        {
          "internalType": "uint256",
          "name": "subtractedValue",
          "type": "uint256"
        }
      ],
      "name": "decreaseAllowance",
      "outputs": [
        {
          "internalType": "bool",
          "name": "",
          "type": "bool"
        }
      ],
      "stateMutability": "nonpayable",
      "type": "function"
    },
    {
      "inputs": [
        {
          "internalType": "address",
          "name": "user",
          "type": "address"
        },
        {
          "internalType": "bytes",
          "name": "depositData",
          "type": "bytes"
        }
      ],
      "name": "deposit",
      "outputs": [],
      "stateMutability": "nonpayable",
      "type": "function"
    },
    {
      "inputs": [],
      "name": "feeBps",
      "outputs": [
        {
          "internalType": "uint256",
          "name": "",
          "type": "uint256"
        }
      ],
      "stateMutability": "view",
      "type": "function"
    },
    {
      "inputs": [],
      "name": "feeCap",
      "outputs": [
        {
          "internalType": "uint256",
          "name": "",
          "type": "uint256"
        }
      ],
      "stateMutability": "view",
      "type": "function"
    },
    {
      "inputs": [],
      "name": "feeFixed",
      "outputs": [
        {
          "internalType": "uint256",
          "name": "",
          "type": "uint256"
        }
      ],
      "stateMutability": "view",
      "type": "function"
    },
    {
      "inputs": [],
      "name": "feeRecipient",
      "outputs": [
        {
          "internalType": "address",
          "name": "",
          "type": "address"
        }
      ],
      "stateMutability": "view",
      "type": "function"
    },
    {
      "inputs": [
        {
          "internalType": "bytes32",
          "name": "role",
          "type": "bytes32"
        }
      ],
      "name": "getRoleAdmin",
      "outputs": [
        {
          "internalType": "bytes32",
          "name": "",
          "type": "bytes32"
        }
      ],
      "stateMutability": "view",
      "type": "function"
    },
    {
      "inputs": [
        {
          "internalType": "bytes32",
          "name": "_role",
          "type": "bytes32"
        },
        {
          "internalType": "address",
          "name": "_account",
          "type": "address"
        }
      ],
      "name": "grantRole",
      "outputs": [],
      "stateMutability": "nonpayable",
      "type": "function"
    },
    {
      "inputs": [
        {
          "internalType": "bytes32",
          "name": "role",
          "type": "bytes32"
        },
        {
          "internalType": "address",
          "name": "account",
          "type": "address"
        }
      ],
      "name": "hasRole",
      "outputs": [
        {
          "internalType": "bool",
          "name": "",
          "type": "bool"
        }
      ],
      "stateMutability": "view",
      "type": "function"
    },
    {
      "inputs": [
        {
          "internalType": "address",
          "name": "spender",
          "type": "address"
        },
        {
          "internalType": "uint256",
          "name": "addedValue",
          "type": "uint256"
        }
      ],
      "name": "increaseAllowance",
      "outputs": [
        {
          "internalType": "bool",
          "name": "",
          "type": "bool"
        }
      ],
      "stateMutability": "nonpayable",
      "type": "function"
    },
    {
      "inputs": [
        {
          "internalType": "address",
          "name": "forwarder",
          "type": "address"
        }
      ],
      "name": "isTrustedForwarder",
      "outputs": [
        {
          "internalType": "bool",
          "name": "",
          "type": "bool"
        }
      ],
      "stateMutability": "view",
      "type": "function"
    },
    {
      "inputs": [
        {
          "internalType": "address",
          "name": "_to",
          "type": "address"
        },
        {
          "internalType": "uint256",
          "name": "_amount",
          "type": "uint256"
        }
      ],
      "name": "mint",
      "outputs": [],
      "stateMutability": "nonpayable",
      "type": "function"
    },
    {
      "inputs": [],
      "name": "name",
      "outputs": [
        {
          "internalType": "string",
          "name": "",
          "type": "string"
        }
      ],
      "stateMutability": "view",
      "type": "function"
    },
    {
      "inputs": [],
      "name": "owner",
      "outputs": [
        {
          "internalType": "address",
          "name": "",
          "type": "address"
        }
      ],
      "stateMutability": "view",
      "type": "function"
    },
    {
      "inputs": [
        {
          "internalType": "bytes32",
          "name": "_systemId",
          "type": "bytes32"
        }
      ],
      "name": "removeSystemId",
      "outputs": [],
      "stateMutability": "nonpayable",
      "type": "function"
    },
    {
      "inputs": [],
      "name": "renounceOwnership",
      "outputs": [],
      "stateMutability": "nonpayable",
      "type": "function"
    },
    {
      "inputs": [
        {
          "internalType": "bytes32",
          "name": "role",
          "type": "bytes32"
        },
        {
          "internalType": "address",
          "name": "account",
          "type": "address"
        }
      ],
      "name": "renounceRole",
      "outputs": [],
      "stateMutability": "nonpayable",
      "type": "function"
    },
    {
      "inputs": [
        {
          "internalType": "bytes32",
          "name": "role",
          "type": "bytes32"
        },
        {
          "internalType": "address",
          "name": "account",
          "type": "address"
        }
      ],
      "name": "revokeRole",
      "outputs": [],
      "stateMutability": "nonpayable",
      "type": "function"
    },
    {
      "inputs": [
        {
          "internalType": "address",
          "name": "recipient",
          "type": "address"
        },
        {
          "internalType": "uint256",
          "name": "_feeBps",
          "type": "uint256"
        },
        {
          "internalType": "uint256",
          "name": "_feeFixed",
          "type": "uint256"
        },
        {
          "internalType": "uint256",
          "name": "_feeCap",
          "type": "uint256"
        }
      ],
      "name": "setFees",
      "outputs": [],
      "stateMutability": "nonpayable",
      "type": "function"
    },
    {
      "inputs": [],
      "name": "supplyCap",
      "outputs": [
        {
          "internalType": "uint256",
          "name": "",
          "type": "uint256"
        }
      ],
      "stateMutability": "view",
      "type": "function"
    },
    {
      "inputs": [],
      "name": "supportedSystemIds",
      "outputs": [
        {
          "internalType": "bytes32[]",
          "name": "",
          "type": "bytes32[]"
        }
      ],
      "stateMutability": "view",
      "type": "function"
    },
    {
      "inputs": [
        {
          "internalType": "bytes4",
          "name": "interfaceId",
          "type": "bytes4"
        }
      ],
      "name": "supportsInterface",
      "outputs": [
        {
          "internalType": "bool",
          "name": "",
          "type": "bool"
        }
      ],
      "stateMutability": "view",
      "type": "function"
    },
    {
      "inputs": [
        {
          "internalType": "bytes32",
          "name": "_systemId",
          "type": "bytes32"
        }
      ],
      "name": "supportsSystemId",
      "outputs": [
        {
          "internalType": "bool",
          "name": "",
          "type": "bool"
        }
      ],
      "stateMutability": "view",
      "type": "function"
    },
    {
      "inputs": [],
      "name": "symbol",
      "outputs": [
        {
          "internalType": "string",
          "name": "",
          "type": "string"
        }
      ],
      "stateMutability": "view",
      "type": "function"
    },
    {
      "inputs": [],
      "name": "systemId",
      "outputs": [
        {
          "internalType": "bytes32",
          "name": "",
          "type": "bytes32"
        }
      ],
      "stateMutability": "view",
      "type": "function"
    },
    {
      "inputs": [],
      "name": "totalSupply",
      "outputs": [
        {
          "internalType": "uint256",
          "name": "",
          "type": "uint256"
        }
      ],
      "stateMutability": "view",
      "type": "function"
    },
    {
      "inputs": [
        {
          "internalType": "address",
          "name": "to",
          "type": "address"
        },
        {
          "internalType": "uint256",
          "name": "amount",
          "type": "uint256"
        }
      ],
      "name": "transfer",
      "outputs": [
        {
          "internalType": "bool",
          "name": "",
          "type": "bool"
        }
      ],
      "stateMutability": "nonpayable",
      "type": "function"
    },
    {
      "inputs": [
        {
          "internalType": "address",
          "name": "from",
          "type": "address"
        },
        {
          "internalType": "address",
          "name": "to",
          "type": "address"
        },
        {
          "internalType": "uint256",
          "name": "amount",
          "type": "uint256"
        }
      ],
      "name": "transferFrom",
      "outputs": [
        {
          "internalType": "bool",
          "name": "",
          "type": "bool"
        }
      ],
      "stateMutability": "nonpayable",
      "type": "function"
    },
    {
      "inputs": [
        {
          "internalType": "address",
          "name": "newOwner",
          "type": "address"
        }
      ],
      "name": "transferOwnership",
      "outputs": [],
      "stateMutability": "nonpayable",
      "type": "function"
    },
    {
      "inputs": [
        {
          "internalType": "address",
          "name": "_newOwner",
          "type": "address"
        }
      ],
      "name": "transferOwnershipControl",
      "outputs": [],
      "stateMutability": "nonpayable",
      "type": "function"
    },
    {
      "inputs": [
        {
          "internalType": "address",
          "name": "recipient",
          "type": "address"
        },
        {
          "internalType": "uint256",
          "name": "amount",
          "type": "uint256"
        }
      ],
      "name": "transferWithFee",
      "outputs": [
        {
          "internalType": "bool",
          "name": "",
          "type": "bool"
        }
      ],
      "stateMutability": "nonpayable",
      "type": "function"
    },
    {
      "inputs": [
        {
          "internalType": "address",
          "name": "recipient",
          "type": "address"
        },
        {
          "internalType": "uint256",
          "name": "amount",
          "type": "uint256"
        },
        {
          "internalType": "uint256",
          "name": "ref",
          "type": "uint256"
        }
      ],
      "name": "transferWithFeeRef",
      "outputs": [
        {
          "internalType": "bool",
          "name": "",
          "type": "bool"
        }
      ],
      "stateMutability": "nonpayable",
      "type": "function"
    },
    {
      "inputs": [
        {
          "internalType": "address",
          "name": "recipient",
          "type": "address"
        },
        {
          "internalType": "uint256",
          "name": "amount",
          "type": "uint256"
        },
        {
          "internalType": "uint256",
          "name": "ref",
          "type": "uint256"
        }
      ],
      "name": "transferWithRef",
      "outputs": [
        {
          "internalType": "bool",
          "name": "",
          "type": "bool"
        }
      ],
      "stateMutability": "nonpayable",
      "type": "function"
    },
    {
      "inputs": [],
      "name": "trustedForwarder",
      "outputs": [
        {
          "internalType": "address",
          "name": "",
          "type": "address"
        }
      ],
      "stateMutability": "view",
      "type": "function"
    },
    {
      "inputs": [
        {
          "internalType": "address",
          "name": "_childChainManagerProxy",
          "type": "address"
        }
      ],
      "name": "updateChildChainManager",
      "outputs": [],
      "stateMutability": "nonpayable",
      "type": "function"
    },
    {
      "inputs": [
        {
          "internalType": "address",
          "name": "_newTrustedForwarder",
          "type": "address"
        }
      ],
      "name": "upgradeTrustedForwarder",
      "outputs": [],
      "stateMutability": "nonpayable",
      "type": "function"
    },
    {
      "inputs": [
        {
          "internalType": "uint256",
          "name": "amount",
          "type": "uint256"
        }
      ],
      "name": "withdraw",
      "outputs": [],
      "stateMutability": "nonpayable",
      "type": "function"
    }
  ],
  "bytecode": "0x60a06040523480156200001157600080fd5b50604051620039d8380380620039d88339810160408190526200003491620003b7565b808286866003620000468382620004e7565b506004620000558282620004e7565b5050600580546001600160a01b0319166001600160a01b039390931692909217909155506200009260068262000129602090811b6200139f17901c565b50600855620000aa620000a462000140565b6200015c565b620000b462000140565b600e80546001600160a01b0319166001600160a01b03929092169190911790556080839052620000ef6000620000e962000140565b620001ae565b6200011e7f5b618ab2fee761c09bf71319707cefa62eccc93dcc483744898e6c3acf452643620000e962000140565b5050505050620005b3565b6000620001378383620001be565b90505b92915050565b6000620001576200021060201b620013b21760201c565b905090565b600a80546001600160a01b038381166001600160a01b0319831681179093556040519116919082907f8be0079c531659141344cd1fd0a4f28419497f9722a3daafe3b4186f6b6457e090600090a35050565b620001ba828262000248565b5050565b600081815260018301602052604081205462000207575081546001818101845560008481526020808220909301849055845484825282860190935260409020919091556200013a565b5060006200013a565b6005546000906001600160a01b0316330362000233575060131936013560601c90565b62000157620002ee60201b620014041760201c565b60008281526009602090815260408083206001600160a01b038516845290915290205460ff16620001ba5760008281526009602090815260408083206001600160a01b03851684529091529020805460ff19166001179055620002aa62000140565b6001600160a01b0316816001600160a01b0316837f2f8788117e7eff1d82e926ec794901d17c78024a50270940304540a733656f0d60405160405180910390a45050565b3390565b634e487b7160e01b600052604160045260246000fd5b600082601f8301126200031a57600080fd5b81516001600160401b0380821115620003375762000337620002f2565b604051601f8301601f19908116603f01168101908282118183101715620003625762000362620002f2565b816040528381526020925086838588010111156200037f57600080fd5b600091505b83821015620003a3578582018301518183018401529082019062000384565b600093810190920192909252949350505050565b600080600080600060a08688031215620003d057600080fd5b85516001600160401b0380821115620003e857600080fd5b620003f689838a0162000308565b965060208801519150808211156200040d57600080fd5b506200041c8882890162000308565b60408801516060890151919650945090506001600160a01b03811681146200044357600080fd5b80925050608086015190509295509295909350565b600181811c908216806200046d57607f821691505b6020821081036200048e57634e487b7160e01b600052602260045260246000fd5b50919050565b601f821115620004e257600081815260208120601f850160051c81016020861015620004bd5750805b601f850160051c820191505b81811015620004de57828155600101620004c9565b5050505b505050565b81516001600160401b03811115620005035762000503620002f2565b6200051b8162000514845462000458565b8462000494565b602080601f8311600181146200055357600084156200053a5750858301515b600019600386901b1c1916600185901b178555620004de565b600085815260208120601f198616915b82811015620005845788860151825594840194600190910190840162000563565b5085821015620005a35787850151600019600388901b60f8161c191681555b5050505050600190811b01905550565b6080516133fb620005dd6000396000818161065001528181612426015261244c01526133fb6000f3fe608060405234801561001057600080fd5b50600436106103365760003560e01c8063572b6c05116101b257806395d89b41116100f9578063bf2424c3116100a2578063cf2c52cb1161007c578063cf2c52cb1461074f578063d547741f14610762578063dd62ed3e14610775578063f2fde38b146107bb57600080fd5b8063bf2424c314610714578063c6be49e714610727578063cd11fa461461073a57600080fd5b8063a9059cbb116100d3578063a9059cbb146106db578063aa2a7eea146106ee578063b53f3c011461070157600080fd5b806395d89b41146106b8578063a217fddf146106c0578063a457c2d7146106c857600080fd5b80637da0a8771161015b5780638da5cb5b116101355780638da5cb5b1461062d5780638f770ad01461064b57806391d148541461067257600080fd5b80637da0a877146105e7578063824c0d661461060757806388d695b21461061a57600080fd5b806370a082311161018c57806370a0823114610596578063715018a6146105cc5780637669d489146105d457600080fd5b8063572b6c05146105345780635932a78e1461056357806362f629e71461057657600080fd5b806324a9d85311610281578063395093511161022a5780634252ac3f116102045780634252ac3f146104c957806342966c6814610440578063445a6797146104dc57806346904840146104ef57600080fd5b8063395093511461049b57806339f898bc146104ae57806340c10f19146104b657600080fd5b8063313ce5671161025b578063313ce5671461046657806336568abe1461047557806337ea010a1461048857600080fd5b806324a9d853146104375780632e1a7d4d146104405780632f2ff15d1461045357600080fd5b8063095ea7b3116102e357806318160ddd116102bd57806318160ddd146103f957806323b872dd14610401578063248a9ca31461041457600080fd5b8063095ea7b3146103ca5780630e3d2202146103dd57806312b68198146103e657600080fd5b806306fdde031161031457806306fdde031461038b578063075b6e33146103a057806308acece2146103b757600080fd5b806301ffc9a71461033b578063050b78831461036357806306313ac014610376575b600080fd5b61034e610349366004612c05565b6107ce565b60405190151581526020015b60405180910390f35b61034e610371366004612c93565b61082a565b610389610384366004612cff565b610843565b005b610393610852565b60405161035a9190612d3c565b6103a9600d5481565b60405190815260200161035a565b61034e6103c5366004612db6565b6108e4565b61034e6103d8366004612db6565b6108fb565b6103a9600c5481565b61034e6103f4366004612de0565b61091d565b6002546103a9565b61034e61040f366004612e7a565b61093a565b6103a9610422366004612cff565b60009081526009602052604090206001015490565b6103a9600b5481565b61038961044e366004612cff565b610968565b610389610461366004612eb6565b61097c565b6040516012815260200161035a565b610389610483366004612eb6565b610b24565b61034e610496366004612ee2565b610bf0565b61034e6104a9366004612db6565b610c85565b6008546103a9565b6103896104c4366004612db6565b610ce4565b6103896104d7366004612f15565b610e58565b6103896104ea366004612f15565b610e86565b600e5461050f9073ffffffffffffffffffffffffffffffffffffffff1681565b60405173ffffffffffffffffffffffffffffffffffffffff909116815260200161035a565b61034e610542366004612f15565b60055473ffffffffffffffffffffffffffffffffffffffff91821691161490565b61034e610571366004612ee2565b610ef8565b600f5461050f9073ffffffffffffffffffffffffffffffffffffffff1681565b6103a96105a4366004612f15565b73ffffffffffffffffffffffffffffffffffffffff1660009081526020819052604090205490565b610389610f24565b6103896105e2366004612f30565b610f38565b60055461050f9073ffffffffffffffffffffffffffffffffffffffff1681565b61034e610615366004612de0565b611034565b61034e610628366004612c93565b611046565b600a5473ffffffffffffffffffffffffffffffffffffffff1661050f565b6103a97f000000000000000000000000000000000000000000000000000000000000000081565b61034e610680366004612eb6565b600091825260096020908152604080842073ffffffffffffffffffffffffffffffffffffffff93909316845291905290205460ff1690565b610393611056565b6103a9600081565b61034e6106d6366004612db6565b611065565b61034e6106e9366004612db6565b611143565b6103896106fc366004612f15565b61115b565b61038961070f366004612cff565b6111c9565b61034e610722366004612cff565b6111d4565b61034e610735366004612cff565b6111e1565b6107426111f8565b60405161035a9190612f69565b61038961075d366004612fad565b611209565b610389610770366004612eb6565b6112c1565b6103a9610783366004613030565b73ffffffffffffffffffffffffffffffffffffffff918216600090815260016020908152604080832093909416825291909152205490565b6103896107c9366004612f15565b6112eb565b60007fffffffff0000000000000000000000000000000000000000000000000000000082167fa833ce8d000000000000000000000000000000000000000000000000000000001480610824575061082482611408565b92915050565b600061083a85858585600161149f565b95945050505050565b61084e600682611639565b5050565b6060600380546108619061305a565b80601f016020809104026020016040519081016040528092919081815260200182805461088d9061305a565b80156108da5780601f106108af576101008083540402835291602001916108da565b820191906000526020600020905b8154815290600101906020018083116108bd57829003601f168201915b5050505050905090565b60006108f283836000611645565b50600192915050565b600080610906611840565b905061091381858561184a565b5060019392505050565b600061092f87878787878760006119fd565b979650505050505050565b600080610945611840565b9050610952858285611d38565b61095d858585611e09565b506001949350505050565b610979610973611840565b82612078565b50565b600061098a81610680611840565b905060006109ba7f5b618ab2fee761c09bf71319707cefa62eccc93dcc483744898e6c3acf452643610680611840565b905081806109c55750805b610a56576040517f08c379a000000000000000000000000000000000000000000000000000000000815260206004820152602d60248201527f526f6c65206772616e74696e672072657175697265732061646d696e206f722060448201527f6d616e6167657220726f6c652e0000000000000000000000000000000000000060648201526084015b60405180910390fd5b831580610a8257507f5b618ab2fee761c09bf71319707cefa62eccc93dcc483744898e6c3acf45264384145b15610b145781610b14576040517f08c379a000000000000000000000000000000000000000000000000000000000815260206004820152602b60248201527f4f6e6c792061646d696e2063616e206772616e742061646d696e206f72206d6160448201527f6e6167657220726f6c652e0000000000000000000000000000000000000000006064820152608401610a4d565b610b1e848461223c565b50505050565b610b2c611840565b73ffffffffffffffffffffffffffffffffffffffff168173ffffffffffffffffffffffffffffffffffffffff1614610be6576040517f08c379a000000000000000000000000000000000000000000000000000000000815260206004820152602f60248201527f416363657373436f6e74726f6c3a2063616e206f6e6c792072656e6f756e636560448201527f20726f6c657320666f722073656c6600000000000000000000000000000000006064820152608401610a4d565b61084e8282612331565b6000610c04610bfd611840565b8585611e09565b8373ffffffffffffffffffffffffffffffffffffffff16610c23611840565b73ffffffffffffffffffffffffffffffffffffffff167f9be86a1edd93f234e9c42b9ec0ff205d1b91b05eed309f225cc0a82f936508308585604051610c73929190918252602082015260400190565b60405180910390a35060019392505050565b600080610c90611840565b9050610913818585610cd5858973ffffffffffffffffffffffffffffffffffffffff918216600090815260016020908152604080832093909416825291909152205490565b610cdf91906130dc565b61184a565b610d107f5b618ab2fee761c09bf71319707cefa62eccc93dcc483744898e6c3acf452643610680611840565b80610d425750610d427fc9eb32e43bf5ecbceacf00b32281dfc5d6d700a0db676ea26ccf938a385ac3f7610680611840565b610da8576040517f08c379a000000000000000000000000000000000000000000000000000000000815260206004820152601760248201527f4e6f7420617574686f72697a656420746f206d696e742e0000000000000000006044820152606401610a4d565b600f5473ffffffffffffffffffffffffffffffffffffffff1615610e4e576040517f08c379a000000000000000000000000000000000000000000000000000000000815260206004820152603060248201527f4d696e74696e672064697361626c6564207768656e20506f6c79676f6e20627260448201527f6964676520697320656e61626c65642e000000000000000000000000000000006064820152608401610a4d565b61084e8282612424565b610e606124f1565b610e69816112eb565b610e7460008261223c565b6109796000610e81611840565b612331565b7f5b618ab2fee761c09bf71319707cefa62eccc93dcc483744898e6c3acf452643610eb0816125ab565b50600f80547fffffffffffffffffffffffff00000000000000000000000000000000000000001673ffffffffffffffffffffffffffffffffffffffff92909216919091179055565b6000610f0484846108e4565b508373ffffffffffffffffffffffffffffffffffffffff16610c23611840565b610f2c6124f1565b610f3660006125bc565b565b7f5b618ab2fee761c09bf71319707cefa62eccc93dcc483744898e6c3acf452643610f62816125ab565b73ffffffffffffffffffffffffffffffffffffffff8516610fdf576040517f08c379a000000000000000000000000000000000000000000000000000000000815260206004820152601360248201527f726563697069656e7420697320302061646472000000000000000000000000006044820152606401610a4d565b50600e80547fffffffffffffffffffffffff00000000000000000000000000000000000000001673ffffffffffffffffffffffffffffffffffffffff9590951694909417909355600b91909155600c55600d55565b600061092f87878787878760016119fd565b600061083a85858585600061149f565b6060600480546108619061305a565b600080611070611840565b73ffffffffffffffffffffffffffffffffffffffff81811660009081526001602090815260408083209389168352929052205490915083811015611136576040517f08c379a000000000000000000000000000000000000000000000000000000000815260206004820152602560248201527f45524332303a2064656372656173656420616c6c6f77616e63652062656c6f7760448201527f207a65726f0000000000000000000000000000000000000000000000000000006064820152608401610a4d565b61095d828686840361184a565b60008061114e611840565b9050610913818585611e09565b7f5b618ab2fee761c09bf71319707cefa62eccc93dcc483744898e6c3acf452643611185816125ab565b600580547fffffffffffffffffffffffff00000000000000000000000000000000000000001673ffffffffffffffffffffffffffffffffffffffff84161790555050565b61084e60068261139f565b6000610824600683612633565b60006111f06000836001611645565b506001919050565b6060611204600661264b565b905090565b600f5473ffffffffffffffffffffffffffffffffffffffff1661122a611840565b73ffffffffffffffffffffffffffffffffffffffff16146112a7576040517f08c379a000000000000000000000000000000000000000000000000000000000815260206004820152601f60248201527f41646472657373206e6f7420616c6c6f77656420746f206465706f7369742e006044820152606401610a4d565b60006112b582840184612cff565b9050610b1e8482612424565b6000828152600960205260409020600101546112dc816125ab565b6112e68383612331565b505050565b6112f36124f1565b73ffffffffffffffffffffffffffffffffffffffff8116611396576040517f08c379a000000000000000000000000000000000000000000000000000000000815260206004820152602660248201527f4f776e61626c653a206e6577206f776e657220697320746865207a65726f206160448201527f64647265737300000000000000000000000000000000000000000000000000006064820152608401610a4d565b610979816125bc565b60006113ab8383612658565b9392505050565b60055460009073ffffffffffffffffffffffffffffffffffffffff1633036113ff57507fffffffffffffffffffffffffffffffffffffffffffffffffffffffffffffffec36013560601c90565b503390565b3390565b60007fffffffff0000000000000000000000000000000000000000000000000000000082167f7965db0b00000000000000000000000000000000000000000000000000000000148061082457507f01ffc9a7000000000000000000000000000000000000000000000000000000007fffffffff00000000000000000000000000000000000000000000000000000000831614610824565b600084611508576040517f08c379a000000000000000000000000000000000000000000000000000000000815260206004820152600d60248201527f4e6f20726563697069656e7473000000000000000000000000000000000000006044820152606401610a4d565b848314611571576040517f08c379a000000000000000000000000000000000000000000000000000000000815260206004820181905260248201527f616d6f756e747320617267756d656e742073697a65206d69736d6174636865646044820152606401610a4d565b60005b8581101561162c5782156115d0576115ca878783818110611597576115976130ef565b90506020020160208101906115ac9190612f15565b8686848181106115be576115be6130ef565b905060200201356108e4565b5061161a565b6116188787838181106115e5576115e56130ef565b90506020020160208101906115fa9190612f15565b86868481811061160c5761160c6130ef565b90506020020135611143565b505b806116248161311e565b915050611574565b5060019695505050505050565b60006113ab83836126a7565b60006116526105a4611840565b600e5490915073ffffffffffffffffffffffffffffffffffffffff166116fa576040517f08c379a000000000000000000000000000000000000000000000000000000000815260206004820152603160248201527f46656520726563697069656e74206e6f74207365742c2063616e6e6f7420757360448201527f65207472616e73666572576974684665650000000000000000000000000000006064820152608401610a4d565b8281101561178a576040517f08c379a000000000000000000000000000000000000000000000000000000000815260206004820152602760248201527f45524332303a207472616e7366657220616d6f756e742065786365656473206260448201527f616c616e63652e000000000000000000000000000000000000000000000000006064820152608401610a4d565b6000600c54612710600b54866117a09190613156565b6117aa9190613193565b6117b491906130dc565b90506000600d548211156117ca57600d546117cc565b815b90506117f86117d9611840565b600e5473ffffffffffffffffffffffffffffffffffffffff1683611e09565b831561181d57611818611809611840565b61181383886131ce565b612078565b611838565b611838611828611840565b8761183384896131ce565b611e09565b505050505050565b60006112046113b2565b73ffffffffffffffffffffffffffffffffffffffff83166118ec576040517f08c379a0000000000000000000000000000000000000000000000000000000008152602060048201526024808201527f45524332303a20617070726f76652066726f6d20746865207a65726f2061646460448201527f72657373000000000000000000000000000000000000000000000000000000006064820152608401610a4d565b73ffffffffffffffffffffffffffffffffffffffff821661198f576040517f08c379a000000000000000000000000000000000000000000000000000000000815260206004820152602260248201527f45524332303a20617070726f766520746f20746865207a65726f20616464726560448201527f73730000000000000000000000000000000000000000000000000000000000006064820152608401610a4d565b73ffffffffffffffffffffffffffffffffffffffff83811660008181526001602090815260408083209487168084529482529182902085905590518481527f8c5be1e5ebec7d5bd14f71427d1e84f3dd0314c0f7b2291e5b200ac8c7c3b925910160405180910390a3505050565b600086611a66576040517f08c379a000000000000000000000000000000000000000000000000000000000815260206004820152600d60248201527f4e6f20726563697069656e7473000000000000000000000000000000000000006044820152606401610a4d565b868514611acf576040517f08c379a000000000000000000000000000000000000000000000000000000000815260206004820181905260248201527f616d6f756e747320617267756d656e742073697a65206d69736d6174636865646044820152606401610a4d565b868314611b38576040517f08c379a000000000000000000000000000000000000000000000000000000000815260206004820152601d60248201527f7265667320617267756d656e742073697a65206d69736d6174636865640000006044820152606401610a4d565b60005b87811015611cca578215611b8b57611b85898983818110611b5e57611b5e6130ef565b9050602002016020810190611b739190612f15565b8888848181106115be576115be6130ef565b50611bc9565b611bc7898983818110611ba057611ba06130ef565b9050602002016020810190611bb59190612f15565b88888481811061160c5761160c6130ef565b505b6000858583818110611bdd57611bdd6130ef565b905060200201351115611cb857888882818110611bfc57611bfc6130ef565b9050602002016020810190611c119190612f15565b73ffffffffffffffffffffffffffffffffffffffff16611c2f611840565b73ffffffffffffffffffffffffffffffffffffffff167f9be86a1edd93f234e9c42b9ec0ff205d1b91b05eed309f225cc0a82f93650830898985818110611c7857611c786130ef565b90506020020135888886818110611c9157611c916130ef565b90506020020135604051611caf929190918252602082015260400190565b60405180910390a35b80611cc28161311e565b915050611b3b565b50611cd3611840565b73ffffffffffffffffffffffffffffffffffffffff167fa91f78721ec724c5d8f9e089dcea4047a178a40bbff32381b463c701f37aabd8898989898989604051611d229695949392919061322c565b60405180910390a2506001979650505050505050565b73ffffffffffffffffffffffffffffffffffffffff8381166000908152600160209081526040808320938616835292905220547fffffffffffffffffffffffffffffffffffffffffffffffffffffffffffffffff8114610b1e5781811015611dfc576040517f08c379a000000000000000000000000000000000000000000000000000000000815260206004820152601d60248201527f45524332303a20696e73756666696369656e7420616c6c6f77616e63650000006044820152606401610a4d565b610b1e848484840361184a565b73ffffffffffffffffffffffffffffffffffffffff8316611eac576040517f08c379a000000000000000000000000000000000000000000000000000000000815260206004820152602560248201527f45524332303a207472616e736665722066726f6d20746865207a65726f20616460448201527f64726573730000000000000000000000000000000000000000000000000000006064820152608401610a4d565b73ffffffffffffffffffffffffffffffffffffffff8216611f4f576040517f08c379a000000000000000000000000000000000000000000000000000000000815260206004820152602360248201527f45524332303a207472616e7366657220746f20746865207a65726f206164647260448201527f65737300000000000000000000000000000000000000000000000000000000006064820152608401610a4d565b73ffffffffffffffffffffffffffffffffffffffff831660009081526020819052604090205481811015612005576040517f08c379a000000000000000000000000000000000000000000000000000000000815260206004820152602660248201527f45524332303a207472616e7366657220616d6f756e742065786365656473206260448201527f616c616e636500000000000000000000000000000000000000000000000000006064820152608401610a4d565b73ffffffffffffffffffffffffffffffffffffffff848116600081815260208181526040808320878703905593871680835291849020805487019055925185815290927fddf252ad1be2c89b69c2b068fc378daa952ba7f163c4a11628f55a4df523b3ef910160405180910390a3610b1e565b73ffffffffffffffffffffffffffffffffffffffff821661211b576040517f08c379a000000000000000000000000000000000000000000000000000000000815260206004820152602160248201527f45524332303a206275726e2066726f6d20746865207a65726f2061646472657360448201527f73000000000000000000000000000000000000000000000000000000000000006064820152608401610a4d565b73ffffffffffffffffffffffffffffffffffffffff8216600090815260208190526040902054818110156121d1576040517f08c379a000000000000000000000000000000000000000000000000000000000815260206004820152602260248201527f45524332303a206275726e20616d6f756e7420657863656564732062616c616e60448201527f63650000000000000000000000000000000000000000000000000000000000006064820152608401610a4d565b73ffffffffffffffffffffffffffffffffffffffff83166000818152602081815260408083208686039055600280548790039055518581529192917fddf252ad1be2c89b69c2b068fc378daa952ba7f163c4a11628f55a4df523b3ef910160405180910390a3505050565b600082815260096020908152604080832073ffffffffffffffffffffffffffffffffffffffff8516845290915290205460ff1661084e57600082815260096020908152604080832073ffffffffffffffffffffffffffffffffffffffff85168452909152902080547fffffffffffffffffffffffffffffffffffffffffffffffffffffffffffffff001660011790556122d3611840565b73ffffffffffffffffffffffffffffffffffffffff168173ffffffffffffffffffffffffffffffffffffffff16837f2f8788117e7eff1d82e926ec794901d17c78024a50270940304540a733656f0d60405160405180910390a45050565b600082815260096020908152604080832073ffffffffffffffffffffffffffffffffffffffff8516845290915290205460ff161561084e57600082815260096020908152604080832073ffffffffffffffffffffffffffffffffffffffff85168452909152902080547fffffffffffffffffffffffffffffffffffffffffffffffffffffffffffffff001690556123c6611840565b73ffffffffffffffffffffffffffffffffffffffff168173ffffffffffffffffffffffffffffffffffffffff16837ff6391f5c32d9c69d2a47ea670b442974b53935d1edc7fd64eb21e047a839171b60405160405180910390a45050565b7f0000000000000000000000000000000000000000000000000000000000000000156124e7577f00000000000000000000000000000000000000000000000000000000000000008161247560025490565b61247f91906130dc565b11156124e7576040517f08c379a000000000000000000000000000000000000000000000000000000000815260206004820152601960248201527f455243323020737570706c7920636170206578636565646564000000000000006044820152606401610a4d565b61084e828261279a565b6124f9611840565b73ffffffffffffffffffffffffffffffffffffffff1661252e600a5473ffffffffffffffffffffffffffffffffffffffff1690565b73ffffffffffffffffffffffffffffffffffffffff1614610f36576040517f08c379a000000000000000000000000000000000000000000000000000000000815260206004820181905260248201527f4f776e61626c653a2063616c6c6572206973206e6f7420746865206f776e65726044820152606401610a4d565b610979816125b7611840565b61288d565b600a805473ffffffffffffffffffffffffffffffffffffffff8381167fffffffffffffffffffffffff0000000000000000000000000000000000000000831681179093556040519116919082907f8be0079c531659141344cd1fd0a4f28419497f9722a3daafe3b4186f6b6457e090600090a35050565b600081815260018301602052604081205415156113ab565b606060006113ab83612947565b600081815260018301602052604081205461269f57508154600181810184556000848152602080822090930184905584548482528286019093526040902091909155610824565b506000610824565b600081815260018301602052604081205480156127905760006126cb6001836131ce565b85549091506000906126df906001906131ce565b90508181146127445760008660000182815481106126ff576126ff6130ef565b9060005260206000200154905080876000018481548110612722576127226130ef565b6000918252602080832090910192909255918252600188019052604090208390555b8554869080612755576127556132b1565b600190038181906000526020600020016000905590558560010160008681526020019081526020016000206000905560019350505050610824565b6000915050610824565b73ffffffffffffffffffffffffffffffffffffffff8216612817576040517f08c379a000000000000000000000000000000000000000000000000000000000815260206004820152601f60248201527f45524332303a206d696e7420746f20746865207a65726f2061646472657373006044820152606401610a4d565b806002600082825461282991906130dc565b909155505073ffffffffffffffffffffffffffffffffffffffff8216600081815260208181526040808320805486019055518481527fddf252ad1be2c89b69c2b068fc378daa952ba7f163c4a11628f55a4df523b3ef910160405180910390a35050565b600082815260096020908152604080832073ffffffffffffffffffffffffffffffffffffffff8516845290915290205460ff1661084e576128cd816129a3565b6128d88360206129c2565b6040516020016128e99291906132e0565b604080517fffffffffffffffffffffffffffffffffffffffffffffffffffffffffffffffe0818403018152908290527f08c379a0000000000000000000000000000000000000000000000000000000008252610a4d91600401612d3c565b60608160000180548060200260200160405190810160405280929190818152602001828054801561299757602002820191906000526020600020905b815481526020019060010190808311612983575b50505050509050919050565b606061082473ffffffffffffffffffffffffffffffffffffffff831660145b606060006129d1836002613156565b6129dc9060026130dc565b67ffffffffffffffff8111156129f4576129f4613361565b6040519080825280601f01601f191660200182016040528015612a1e576020820181803683370190505b5090507f300000000000000000000000000000000000000000000000000000000000000081600081518110612a5557612a556130ef565b60200101907effffffffffffffffffffffffffffffffffffffffffffffffffffffffffffff1916908160001a9053507f780000000000000000000000000000000000000000000000000000000000000081600181518110612ab857612ab86130ef565b60200101907effffffffffffffffffffffffffffffffffffffffffffffffffffffffffffff1916908160001a9053506000612af4846002613156565b612aff9060016130dc565b90505b6001811115612b9c577f303132333435363738396162636465660000000000000000000000000000000085600f1660108110612b4057612b406130ef565b1a60f81b828281518110612b5657612b566130ef565b60200101907effffffffffffffffffffffffffffffffffffffffffffffffffffffffffffff1916908160001a90535060049490941c93612b9581613390565b9050612b02565b5083156113ab576040517f08c379a000000000000000000000000000000000000000000000000000000000815260206004820181905260248201527f537472696e67733a20686578206c656e67746820696e73756666696369656e746044820152606401610a4d565b600060208284031215612c1757600080fd5b81357fffffffff00000000000000000000000000000000000000000000000000000000811681146113ab57600080fd5b60008083601f840112612c5957600080fd5b50813567ffffffffffffffff811115612c7157600080fd5b6020830191508360208260051b8501011115612c8c57600080fd5b9250929050565b60008060008060408587031215612ca957600080fd5b843567ffffffffffffffff80821115612cc157600080fd5b612ccd88838901612c47565b90965094506020870135915080821115612ce657600080fd5b50612cf387828801612c47565b95989497509550505050565b600060208284031215612d1157600080fd5b5035919050565b60005b83811015612d33578181015183820152602001612d1b565b50506000910152565b6020815260008251806020840152612d5b816040850160208701612d18565b601f017fffffffffffffffffffffffffffffffffffffffffffffffffffffffffffffffe0169190910160400192915050565b803573ffffffffffffffffffffffffffffffffffffffff81168114612db157600080fd5b919050565b60008060408385031215612dc957600080fd5b612dd283612d8d565b946020939093013593505050565b60008060008060008060608789031215612df957600080fd5b863567ffffffffffffffff80821115612e1157600080fd5b612e1d8a838b01612c47565b90985096506020890135915080821115612e3657600080fd5b612e428a838b01612c47565b90965094506040890135915080821115612e5b57600080fd5b50612e6889828a01612c47565b979a9699509497509295939492505050565b600080600060608486031215612e8f57600080fd5b612e9884612d8d565b9250612ea660208501612d8d565b9150604084013590509250925092565b60008060408385031215612ec957600080fd5b82359150612ed960208401612d8d565b90509250929050565b600080600060608486031215612ef757600080fd5b612f0084612d8d565b95602085013595506040909401359392505050565b600060208284031215612f2757600080fd5b6113ab82612d8d565b60008060008060808587031215612f4657600080fd5b612f4f85612d8d565b966020860135965060408601359560600135945092505050565b6020808252825182820181905260009190848201906040850190845b81811015612fa157835183529284019291840191600101612f85565b50909695505050505050565b600080600060408486031215612fc257600080fd5b612fcb84612d8d565b9250602084013567ffffffffffffffff80821115612fe857600080fd5b818601915086601f830112612ffc57600080fd5b81358181111561300b57600080fd5b87602082850101111561301d57600080fd5b6020830194508093505050509250925092565b6000806040838503121561304357600080fd5b61304c83612d8d565b9150612ed960208401612d8d565b600181811c9082168061306e57607f821691505b6020821081036130a7577f4e487b7100000000000000000000000000000000000000000000000000000000600052602260045260246000fd5b50919050565b7f4e487b7100000000000000000000000000000000000000000000000000000000600052601160045260246000fd5b80820180821115610824576108246130ad565b7f4e487b7100000000000000000000000000000000000000000000000000000000600052603260045260246000fd5b60007fffffffffffffffffffffffffffffffffffffffffffffffffffffffffffffffff820361314f5761314f6130ad565b5060010190565b6000817fffffffffffffffffffffffffffffffffffffffffffffffffffffffffffffffff048311821515161561318e5761318e6130ad565b500290565b6000826131c9577f4e487b7100000000000000000000000000000000000000000000000000000000600052601260045260246000fd5b500490565b81810381811115610824576108246130ad565b81835260007f07ffffffffffffffffffffffffffffffffffffffffffffffffffffffffffffff83111561321357600080fd5b8260051b80836020870137939093016020019392505050565b6060808252810186905260008760808301825b8981101561327a5773ffffffffffffffffffffffffffffffffffffffff61326584612d8d565b1682526020928301929091019060010161323f565b50838103602085015261328e81888a6131e1565b91505082810360408401526132a48185876131e1565b9998505050505050505050565b7f4e487b7100000000000000000000000000000000000000000000000000000000600052603160045260246000fd5b7f416363657373436f6e74726f6c3a206163636f756e7420000000000000000000815260008351613318816017850160208801612d18565b7f206973206d697373696e6720726f6c65200000000000000000000000000000006017918401918201528351613355816028840160208801612d18565b01602801949350505050565b7f4e487b7100000000000000000000000000000000000000000000000000000000600052604160045260246000fd5b60008161339f5761339f6130ad565b507fffffffffffffffffffffffffffffffffffffffffffffffffffffffffffffffff019056fea26469706673582212203b2c734c02ca7ee61c6986a68ae32f5f24cdee2fcac836f944366aa3be158f6764736f6c63430008100033",
  "linkReferences": {},
  "deployedLinkReferences": {}
}