{
  "_format": "hh-sol-artifact-1",
  "contractName": "ERC20_Game_Currency",
  "sourceName": "contracts/Currency/ERC20_Game_Currency.sol",
  "abi": [
    {
      "inputs": [
        {
          "internalType": "string",
          "name": "_name",
          "type": "string"
        },
        {
          "internalType": "string",
          "name": "_symbol",
          "type": "string"
        },
        {
          "internalType": "uint256",
          "name": "_supplyCap",
          "type": "uint256"
        },
        {
          "internalType": "address",
          "name": "_forwarder",
          "type": "address"
        },
        {
          "internalType": "bytes32",
          "name": "_systemId",
          "type": "bytes32"
        }
      ],
      "stateMutability": "nonpayable",
      "type": "constructor"
    },
    {
      "anonymous": false,
      "inputs": [
        {
          "indexed": true,
          "internalType": "address",
          "name": "owner",
          "type": "address"
        },
        {
          "indexed": true,
          "internalType": "address",
          "name": "spender",
          "type": "address"
        },
        {
          "indexed": false,
          "internalType": "uint256",
          "name": "value",
          "type": "uint256"
        }
      ],
      "name": "Approval",
      "type": "event"
    },
    {
      "anonymous": false,
      "inputs": [
        {
          "indexed": true,
          "internalType": "address",
          "name": "sender",
          "type": "address"
        },
        {
          "indexed": false,
          "internalType": "address[]",
          "name": "recipients",
          "type": "address[]"
        },
        {
          "indexed": false,
          "internalType": "uint256[]",
          "name": "amounts",
          "type": "uint256[]"
        },
        {
          "indexed": false,
          "internalType": "uint256[]",
          "name": "refs",
          "type": "uint256[]"
        }
      ],
      "name": "BatchTransferRef",
      "type": "event"
    },
    {
      "anonymous": false,
      "inputs": [
        {
          "indexed": true,
          "internalType": "address",
          "name": "previousOwner",
          "type": "address"
        },
        {
          "indexed": true,
          "internalType": "address",
          "name": "newOwner",
          "type": "address"
        }
      ],
      "name": "OwnershipTransferred",
      "type": "event"
    },
    {
      "anonymous": false,
      "inputs": [
        {
          "indexed": true,
          "internalType": "bytes32",
          "name": "role",
          "type": "bytes32"
        },
        {
          "indexed": true,
          "internalType": "bytes32",
          "name": "previousAdminRole",
          "type": "bytes32"
        },
        {
          "indexed": true,
          "internalType": "bytes32",
          "name": "newAdminRole",
          "type": "bytes32"
        }
      ],
      "name": "RoleAdminChanged",
      "type": "event"
    },
    {
      "anonymous": false,
      "inputs": [
        {
          "indexed": true,
          "internalType": "bytes32",
          "name": "role",
          "type": "bytes32"
        },
        {
          "indexed": true,
          "internalType": "address",
          "name": "account",
          "type": "address"
        },
        {
          "indexed": true,
          "internalType": "address",
          "name": "sender",
          "type": "address"
        }
      ],
      "name": "RoleGranted",
      "type": "event"
    },
    {
      "anonymous": false,
      "inputs": [
        {
          "indexed": true,
          "internalType": "bytes32",
          "name": "role",
          "type": "bytes32"
        },
        {
          "indexed": true,
          "internalType": "address",
          "name": "account",
          "type": "address"
        },
        {
          "indexed": true,
          "internalType": "address",
          "name": "sender",
          "type": "address"
        }
      ],
      "name": "RoleRevoked",
      "type": "event"
    },
    {
      "anonymous": false,
      "inputs": [
        {
          "indexed": true,
          "internalType": "address",
          "name": "from",
          "type": "address"
        },
        {
          "indexed": true,
          "internalType": "address",
          "name": "to",
          "type": "address"
        },
        {
          "indexed": false,
          "internalType": "uint256",
          "name": "value",
          "type": "uint256"
        }
      ],
      "name": "Transfer",
      "type": "event"
    },
    {
      "anonymous": false,
      "inputs": [
        {
          "indexed": true,
          "internalType": "address",
          "name": "sender",
          "type": "address"
        },
        {
          "indexed": true,
          "internalType": "address",
          "name": "recipient",
          "type": "address"
        },
        {
          "indexed": false,
          "internalType": "uint256",
          "name": "amount",
          "type": "uint256"
        },
        {
          "indexed": false,
          "internalType": "uint256",
          "name": "ref",
          "type": "uint256"
        }
      ],
      "name": "TransferRef",
      "type": "event"
    },
    {
      "inputs": [],
      "name": "DEFAULT_ADMIN_ROLE",
      "outputs": [
        {
          "internalType": "bytes32",
          "name": "",
          "type": "bytes32"
        }
      ],
      "stateMutability": "view",
      "type": "function"
    },
    {
      "inputs": [
        {
          "internalType": "address",
          "name": "owner",
          "type": "address"
        },
        {
          "internalType": "address",
          "name": "spender",
          "type": "address"
        }
      ],
      "name": "allowance",
      "outputs": [
        {
          "internalType": "uint256",
          "name": "",
          "type": "uint256"
        }
      ],
      "stateMutability": "view",
      "type": "function"
    },
    {
      "inputs": [
        {
          "internalType": "address",
          "name": "spender",
          "type": "address"
        },
        {
          "internalType": "uint256",
          "name": "amount",
          "type": "uint256"
        }
      ],
      "name": "approve",
      "outputs": [
        {
          "internalType": "bool",
          "name": "",
          "type": "bool"
        }
      ],
      "stateMutability": "nonpayable",
      "type": "function"
    },
    {
      "inputs": [
        {
          "internalType": "address",
          "name": "account",
          "type": "address"
        }
      ],
      "name": "balanceOf",
      "outputs": [
        {
          "internalType": "uint256",
          "name": "",
          "type": "uint256"
        }
      ],
      "stateMutability": "view",
      "type": "function"
    },
    {
      "inputs": [
        {
          "internalType": "address[]",
          "name": "recipients",
          "type": "address[]"
        },
        {
          "internalType": "uint256[]",
          "name": "amounts",
          "type": "uint256[]"
        }
      ],
      "name": "batchTransfer",
      "outputs": [
        {
          "internalType": "bool",
          "name": "",
          "type": "bool"
        }
      ],
      "stateMutability": "nonpayable",
      "type": "function"
    },
    {
      "inputs": [
        {
          "internalType": "address[]",
          "name": "recipients",
          "type": "address[]"
        },
        {
          "internalType": "uint256[]",
          "name": "amounts",
          "type": "uint256[]"
        }
      ],
      "name": "batchTransferWithFees",
      "outputs": [
        {
          "internalType": "bool",
          "name": "",
          "type": "bool"
        }
      ],
      "stateMutability": "nonpayable",
      "type": "function"
    },
    {
      "inputs": [
        {
          "internalType": "address[]",
          "name": "recipients",
          "type": "address[]"
        },
        {
          "internalType": "uint256[]",
          "name": "amounts",
          "type": "uint256[]"
        },
        {
          "internalType": "uint256[]",
          "name": "refs",
          "type": "uint256[]"
        }
      ],
      "name": "batchTransferWithFeesRefs",
      "outputs": [
        {
          "internalType": "bool",
          "name": "",
          "type": "bool"
        }
      ],
      "stateMutability": "nonpayable",
      "type": "function"
    },
    {
      "inputs": [
        {
          "internalType": "address[]",
          "name": "recipients",
          "type": "address[]"
        },
        {
          "internalType": "uint256[]",
          "name": "amounts",
          "type": "uint256[]"
        },
        {
          "internalType": "uint256[]",
          "name": "refs",
          "type": "uint256[]"
        }
      ],
      "name": "batchTransferWithRefs",
      "outputs": [
        {
          "internalType": "bool",
          "name": "",
          "type": "bool"
        }
      ],
      "stateMutability": "nonpayable",
      "type": "function"
    },
    {
      "inputs": [
        {
          "internalType": "uint256",
          "name": "_amount",
          "type": "uint256"
        }
      ],
      "name": "burn",
      "outputs": [],
      "stateMutability": "nonpayable",
      "type": "function"
    },
    {
      "inputs": [
        {
          "internalType": "uint256",
          "name": "amount",
          "type": "uint256"
        }
      ],
      "name": "burnWithFee",
      "outputs": [
        {
          "internalType": "bool",
          "name": "",
          "type": "bool"
        }
      ],
      "stateMutability": "nonpayable",
      "type": "function"
    },
    {
      "inputs": [],
      "name": "childChainManagerProxy",
      "outputs": [
        {
          "internalType": "address",
          "name": "",
          "type": "address"
        }
      ],
      "stateMutability": "view",
      "type": "function"
    },
    {
      "inputs": [],
      "name": "decimals",
      "outputs": [
        {
          "internalType": "uint8",
          "name": "",
          "type": "uint8"
        }
      ],
      "stateMutability": "view",
      "type": "function"
    },
    {
      "inputs": [
        {
          "internalType": "address",
          "name": "spender",
          "type": "address"
        },
        {
          "internalType": "uint256",
          "name": "subtractedValue",
          "type": "uint256"
        }
      ],
      "name": "decreaseAllowance",
      "outputs": [
        {
          "internalType": "bool",
          "name": "",
          "type": "bool"
        }
      ],
      "stateMutability": "nonpayable",
      "type": "function"
    },
    {
      "inputs": [
        {
          "internalType": "address",
          "name": "user",
          "type": "address"
        },
        {
          "internalType": "bytes",
          "name": "depositData",
          "type": "bytes"
        }
      ],
      "name": "deposit",
      "outputs": [],
      "stateMutability": "nonpayable",
      "type": "function"
    },
    {
      "inputs": [],
      "name": "feeBps",
      "outputs": [
        {
          "internalType": "uint256",
          "name": "",
          "type": "uint256"
        }
      ],
      "stateMutability": "view",
      "type": "function"
    },
    {
      "inputs": [],
      "name": "feeCap",
      "outputs": [
        {
          "internalType": "uint256",
          "name": "",
          "type": "uint256"
        }
      ],
      "stateMutability": "view",
      "type": "function"
    },
    {
      "inputs": [],
      "name": "feeFixed",
      "outputs": [
        {
          "internalType": "uint256",
          "name": "",
          "type": "uint256"
        }
      ],
      "stateMutability": "view",
      "type": "function"
    },
    {
      "inputs": [],
      "name": "feeRecipient",
      "outputs": [
        {
          "internalType": "address",
          "name": "",
          "type": "address"
        }
      ],
      "stateMutability": "view",
      "type": "function"
    },
    {
      "inputs": [
        {
          "internalType": "bytes32",
          "name": "role",
          "type": "bytes32"
        }
      ],
      "name": "getRoleAdmin",
      "outputs": [
        {
          "internalType": "bytes32",
          "name": "",
          "type": "bytes32"
        }
      ],
      "stateMutability": "view",
      "type": "function"
    },
    {
      "inputs": [
        {
          "internalType": "bytes32",
          "name": "_role",
          "type": "bytes32"
        },
        {
          "internalType": "address",
          "name": "_account",
          "type": "address"
        }
      ],
      "name": "grantRole",
      "outputs": [],
      "stateMutability": "nonpayable",
      "type": "function"
    },
    {
      "inputs": [
        {
          "internalType": "bytes32",
          "name": "role",
          "type": "bytes32"
        },
        {
          "internalType": "address",
          "name": "account",
          "type": "address"
        }
      ],
      "name": "hasRole",
      "outputs": [
        {
          "internalType": "bool",
          "name": "",
          "type": "bool"
        }
      ],
      "stateMutability": "view",
      "type": "function"
    },
    {
      "inputs": [
        {
          "internalType": "address",
          "name": "spender",
          "type": "address"
        },
        {
          "internalType": "uint256",
          "name": "addedValue",
          "type": "uint256"
        }
      ],
      "name": "increaseAllowance",
      "outputs": [
        {
          "internalType": "bool",
          "name": "",
          "type": "bool"
        }
      ],
      "stateMutability": "nonpayable",
      "type": "function"
    },
    {
      "inputs": [
        {
          "internalType": "address",
          "name": "forwarder",
          "type": "address"
        }
      ],
      "name": "isTrustedForwarder",
      "outputs": [
        {
          "internalType": "bool",
          "name": "",
          "type": "bool"
        }
      ],
      "stateMutability": "view",
      "type": "function"
    },
    {
      "inputs": [
        {
          "internalType": "address",
          "name": "_to",
          "type": "address"
        },
        {
          "internalType": "uint256",
          "name": "_amount",
          "type": "uint256"
        }
      ],
      "name": "mint",
      "outputs": [],
      "stateMutability": "nonpayable",
      "type": "function"
    },
    {
      "inputs": [],
      "name": "name",
      "outputs": [
        {
          "internalType": "string",
          "name": "",
          "type": "string"
        }
      ],
      "stateMutability": "view",
      "type": "function"
    },
    {
      "inputs": [],
      "name": "owner",
      "outputs": [
        {
          "internalType": "address",
          "name": "",
          "type": "address"
        }
      ],
      "stateMutability": "view",
      "type": "function"
    },
    {
      "inputs": [],
      "name": "renounceOwnership",
      "outputs": [],
      "stateMutability": "nonpayable",
      "type": "function"
    },
    {
      "inputs": [
        {
          "internalType": "bytes32",
          "name": "role",
          "type": "bytes32"
        },
        {
          "internalType": "address",
          "name": "account",
          "type": "address"
        }
      ],
      "name": "renounceRole",
      "outputs": [],
      "stateMutability": "nonpayable",
      "type": "function"
    },
    {
      "inputs": [
        {
          "internalType": "bytes32",
          "name": "role",
          "type": "bytes32"
        },
        {
          "internalType": "address",
          "name": "account",
          "type": "address"
        }
      ],
      "name": "revokeRole",
      "outputs": [],
      "stateMutability": "nonpayable",
      "type": "function"
    },
    {
      "inputs": [
        {
          "internalType": "address",
          "name": "recipient",
          "type": "address"
        },
        {
          "internalType": "uint256",
          "name": "_feeBps",
          "type": "uint256"
        },
        {
          "internalType": "uint256",
          "name": "_feeFixed",
          "type": "uint256"
        },
        {
          "internalType": "uint256",
          "name": "_feeCap",
          "type": "uint256"
        }
      ],
      "name": "setFees",
      "outputs": [],
      "stateMutability": "nonpayable",
      "type": "function"
    },
    {
      "inputs": [],
      "name": "supplyCap",
      "outputs": [
        {
          "internalType": "uint256",
          "name": "",
          "type": "uint256"
        }
      ],
      "stateMutability": "view",
      "type": "function"
    },
    {
      "inputs": [
        {
          "internalType": "bytes4",
          "name": "interfaceId",
          "type": "bytes4"
        }
      ],
      "name": "supportsInterface",
      "outputs": [
        {
          "internalType": "bool",
          "name": "",
          "type": "bool"
        }
      ],
      "stateMutability": "view",
      "type": "function"
    },
    {
      "inputs": [],
      "name": "symbol",
      "outputs": [
        {
          "internalType": "string",
          "name": "",
          "type": "string"
        }
      ],
      "stateMutability": "view",
      "type": "function"
    },
    {
      "inputs": [],
      "name": "systemId",
      "outputs": [
        {
          "internalType": "bytes32",
          "name": "",
          "type": "bytes32"
        }
      ],
      "stateMutability": "view",
      "type": "function"
    },
    {
      "inputs": [],
      "name": "totalSupply",
      "outputs": [
        {
          "internalType": "uint256",
          "name": "",
          "type": "uint256"
        }
      ],
      "stateMutability": "view",
      "type": "function"
    },
    {
      "inputs": [
        {
          "internalType": "address",
          "name": "to",
          "type": "address"
        },
        {
          "internalType": "uint256",
          "name": "amount",
          "type": "uint256"
        }
      ],
      "name": "transfer",
      "outputs": [
        {
          "internalType": "bool",
          "name": "",
          "type": "bool"
        }
      ],
      "stateMutability": "nonpayable",
      "type": "function"
    },
    {
      "inputs": [
        {
          "internalType": "address",
          "name": "from",
          "type": "address"
        },
        {
          "internalType": "address",
          "name": "to",
          "type": "address"
        },
        {
          "internalType": "uint256",
          "name": "amount",
          "type": "uint256"
        }
      ],
      "name": "transferFrom",
      "outputs": [
        {
          "internalType": "bool",
          "name": "",
          "type": "bool"
        }
      ],
      "stateMutability": "nonpayable",
      "type": "function"
    },
    {
      "inputs": [
        {
          "internalType": "address",
          "name": "newOwner",
          "type": "address"
        }
      ],
      "name": "transferOwnership",
      "outputs": [],
      "stateMutability": "nonpayable",
      "type": "function"
    },
    {
      "inputs": [
        {
          "internalType": "address",
          "name": "recipient",
          "type": "address"
        },
        {
          "internalType": "uint256",
          "name": "amount",
          "type": "uint256"
        }
      ],
      "name": "transferWithFee",
      "outputs": [
        {
          "internalType": "bool",
          "name": "",
          "type": "bool"
        }
      ],
      "stateMutability": "nonpayable",
      "type": "function"
    },
    {
      "inputs": [
        {
          "internalType": "address",
          "name": "recipient",
          "type": "address"
        },
        {
          "internalType": "uint256",
          "name": "amount",
          "type": "uint256"
        },
        {
          "internalType": "uint256",
          "name": "ref",
          "type": "uint256"
        }
      ],
      "name": "transferWithFeeRef",
      "outputs": [
        {
          "internalType": "bool",
          "name": "",
          "type": "bool"
        }
      ],
      "stateMutability": "nonpayable",
      "type": "function"
    },
    {
      "inputs": [
        {
          "internalType": "address",
          "name": "recipient",
          "type": "address"
        },
        {
          "internalType": "uint256",
          "name": "amount",
          "type": "uint256"
        },
        {
          "internalType": "uint256",
          "name": "ref",
          "type": "uint256"
        }
      ],
      "name": "transferWithRef",
      "outputs": [
        {
          "internalType": "bool",
          "name": "",
          "type": "bool"
        }
      ],
      "stateMutability": "nonpayable",
      "type": "function"
    },
    {
      "inputs": [],
      "name": "trustedForwarder",
      "outputs": [
        {
          "internalType": "address",
          "name": "",
          "type": "address"
        }
      ],
      "stateMutability": "view",
      "type": "function"
    },
    {
      "inputs": [
        {
          "internalType": "address",
          "name": "_childChainManagerProxy",
          "type": "address"
        }
      ],
      "name": "updateChildChainManager",
      "outputs": [],
      "stateMutability": "nonpayable",
      "type": "function"
    },
    {
      "inputs": [
        {
          "internalType": "address",
          "name": "_newTrustedForwarder",
          "type": "address"
        }
      ],
      "name": "upgradeTrustedForwarder",
      "outputs": [],
      "stateMutability": "nonpayable",
      "type": "function"
    },
    {
      "inputs": [
        {
          "internalType": "uint256",
          "name": "amount",
          "type": "uint256"
        }
      ],
      "name": "withdraw",
      "outputs": [],
      "stateMutability": "nonpayable",
      "type": "function"
    }
  ],
  "bytecode": "0x60a06040523480156200001157600080fd5b506040516200361338038062003613833981016040819052620000349162000334565b80828686600362000046838262000464565b50600462000055828262000464565b5050600580546001600160a01b0319166001600160a01b03939093169290921790915550600655620000906200008a6200010f565b6200012b565b6200009a6200010f565b600c80546001600160a01b0319166001600160a01b03929092169190911790556080839052620000d56000620000cf6200010f565b6200017d565b620001047f5b618ab2fee761c09bf71319707cefa62eccc93dcc483744898e6c3acf452643620000cf6200010f565b505050505062000530565b6000620001266200018d60201b620012a61760201c565b905090565b600880546001600160a01b038381166001600160a01b0319831681179093556040519116919082907f8be0079c531659141344cd1fd0a4f28419497f9722a3daafe3b4186f6b6457e090600090a35050565b620001898282620001c5565b5050565b6005546000906001600160a01b03163303620001b0575060131936013560601c90565b620001266200026b60201b620012fd1760201c565b60008281526007602090815260408083206001600160a01b038516845290915290205460ff16620001895760008281526007602090815260408083206001600160a01b03851684529091529020805460ff19166001179055620002276200010f565b6001600160a01b0316816001600160a01b0316837f2f8788117e7eff1d82e926ec794901d17c78024a50270940304540a733656f0d60405160405180910390a45050565b3390565b634e487b7160e01b600052604160045260246000fd5b600082601f8301126200029757600080fd5b81516001600160401b0380821115620002b457620002b46200026f565b604051601f8301601f19908116603f01168101908282118183101715620002df57620002df6200026f565b81604052838152602092508683858801011115620002fc57600080fd5b600091505b8382101562000320578582018301518183018401529082019062000301565b600093810190920192909252949350505050565b600080600080600060a086880312156200034d57600080fd5b85516001600160401b03808211156200036557600080fd5b6200037389838a0162000285565b965060208801519150808211156200038a57600080fd5b50620003998882890162000285565b60408801516060890151919650945090506001600160a01b0381168114620003c057600080fd5b80925050608086015190509295509295909350565b600181811c90821680620003ea57607f821691505b6020821081036200040b57634e487b7160e01b600052602260045260246000fd5b50919050565b601f8211156200045f57600081815260208120601f850160051c810160208610156200043a5750805b601f850160051c820191505b818110156200045b5782815560010162000446565b5050505b505050565b81516001600160401b038111156200048057620004806200026f565b6200049881620004918454620003d5565b8462000411565b602080601f831160018114620004d05760008415620004b75750858301515b600019600386901b1c1916600185901b1785556200045b565b600085815260208120601f198616915b828110156200050157888601518255948401946001909101908401620004e0565b5085821015620005205787850151600019600388901b60f8161c191681555b5050505050600190811b01905550565b6080516130b96200055a600039600081816105f401528181612313015261233901526130b96000f3fe608060405234801561001057600080fd5b50600436106102ff5760003560e01c8063469048401161019c5780638f770ad0116100ee578063aa2a7eea11610097578063d547741f11610071578063d547741f146106cb578063dd62ed3e146106de578063f2fde38b1461072457600080fd5b8063aa2a7eea14610692578063c6be49e7146106a5578063cf2c52cb146106b857600080fd5b8063a217fddf116100c8578063a217fddf14610664578063a457c2d71461066c578063a9059cbb1461067f57600080fd5b80638f770ad0146105ef57806391d148541461061657806395d89b411461065c57600080fd5b8063715018a611610150578063824c0d661161012a578063824c0d66146105ab57806388d695b2146105be5780638da5cb5b146105d157600080fd5b8063715018a6146105705780637669d489146105785780637da0a8771461058b57600080fd5b80635932a78e116101815780635932a78e1461050757806362f629e71461051a57806370a082311461053a57600080fd5b80634690484014610493578063572b6c05146104d857600080fd5b806324a9d8531161025557806337ea010a1161020957806340c10f19116101e357806340c10f191461046d57806342966c68146103f4578063445a67971461048057600080fd5b806337ea010a1461043e578063395093511461045157806339f898bc1461046457600080fd5b80632f2ff15d1161023a5780632f2ff15d14610409578063313ce5671461041c57806336568abe1461042b57600080fd5b806324a9d853146103eb5780632e1a7d4d146103f457600080fd5b8063095ea7b3116102b757806318160ddd1161029157806318160ddd146103ad57806323b872dd146103b5578063248a9ca3146103c857600080fd5b8063095ea7b31461037e5780630e3d22021461039157806312b681981461039a57600080fd5b806306fdde03116102e857806306fdde031461033f578063075b6e331461035457806308acece21461036b57600080fd5b806301ffc9a714610304578063050b78831461032c575b600080fd5b610317610312366004612936565b610737565b60405190151581526020015b60405180910390f35b61031761033a3660046129c4565b610793565b6103476107ac565b6040516103239190612a54565b61035d600b5481565b604051908152602001610323565b610317610379366004612ace565b61083e565b61031761038c366004612ace565b610855565b61035d600a5481565b6103176103a8366004612af8565b610877565b60025461035d565b6103176103c3366004612b92565b610894565b61035d6103d6366004612bce565b60009081526007602052604090206001015490565b61035d60095481565b610407610402366004612bce565b6108c2565b005b610407610417366004612be7565b6108d6565b60405160128152602001610323565b610407610439366004612be7565b610a7e565b61031761044c366004612c13565b610b4e565b61031761045f366004612ace565b610be3565b61035d60065481565b61040761047b366004612ace565b610c42565b61040761048e366004612c46565b610db6565b600c546104b39073ffffffffffffffffffffffffffffffffffffffff1681565b60405173ffffffffffffffffffffffffffffffffffffffff9091168152602001610323565b6103176104e6366004612c46565b60055473ffffffffffffffffffffffffffffffffffffffff91821691161490565b610317610515366004612c13565b610e28565b600d546104b39073ffffffffffffffffffffffffffffffffffffffff1681565b61035d610548366004612c46565b73ffffffffffffffffffffffffffffffffffffffff1660009081526020819052604090205490565b610407610e54565b610407610586366004612c61565b610e68565b6005546104b39073ffffffffffffffffffffffffffffffffffffffff1681565b6103176105b9366004612af8565b610f64565b6103176105cc3660046129c4565b610f76565b60085473ffffffffffffffffffffffffffffffffffffffff166104b3565b61035d7f000000000000000000000000000000000000000000000000000000000000000081565b610317610624366004612be7565b600091825260076020908152604080842073ffffffffffffffffffffffffffffffffffffffff93909316845291905290205460ff1690565b610347610f86565b61035d600081565b61031761067a366004612ace565b610f95565b61031761068d366004612ace565b611073565b6104076106a0366004612c46565b61108b565b6103176106b3366004612bce565b6110f9565b6104076106c6366004612c9a565b611110565b6104076106d9366004612be7565b6111c8565b61035d6106ec366004612d1d565b73ffffffffffffffffffffffffffffffffffffffff918216600090815260016020908152604080832093909416825291909152205490565b610407610732366004612c46565b6111f2565b60007fffffffff0000000000000000000000000000000000000000000000000000000082167fea6162b200000000000000000000000000000000000000000000000000000000148061078d575061078d82611301565b92915050565b60006107a3858585856001611398565b95945050505050565b6060600380546107bb90612d47565b80601f01602080910402602001604051908101604052809291908181526020018280546107e790612d47565b80156108345780601f1061080957610100808354040283529160200191610834565b820191906000526020600020905b81548152906001019060200180831161081757829003601f168201915b5050505050905090565b600061084c83836000611532565b50600192915050565b60008061086061172d565b905061086d818585611737565b5060019392505050565b600061088987878787878760006118ea565b979650505050505050565b60008061089f61172d565b90506108ac858285611c25565b6108b7858585611cf6565b506001949350505050565b6108d36108cd61172d565b82611f65565b50565b60006108e48161062461172d565b905060006109147f5b618ab2fee761c09bf71319707cefa62eccc93dcc483744898e6c3acf45264361062461172d565b9050818061091f5750805b6109b0576040517f08c379a000000000000000000000000000000000000000000000000000000000815260206004820152602d60248201527f526f6c65206772616e74696e672072657175697265732061646d696e206f722060448201527f6d616e6167657220726f6c652e0000000000000000000000000000000000000060648201526084015b60405180910390fd5b8315806109dc57507f5b618ab2fee761c09bf71319707cefa62eccc93dcc483744898e6c3acf45264384145b15610a6e5781610a6e576040517f08c379a000000000000000000000000000000000000000000000000000000000815260206004820152602b60248201527f4f6e6c792061646d696e2063616e206772616e742061646d696e206f72206d6160448201527f6e6167657220726f6c652e00000000000000000000000000000000000000000060648201526084016109a7565b610a788484612129565b50505050565b610a8661172d565b73ffffffffffffffffffffffffffffffffffffffff168173ffffffffffffffffffffffffffffffffffffffff1614610b40576040517f08c379a000000000000000000000000000000000000000000000000000000000815260206004820152602f60248201527f416363657373436f6e74726f6c3a2063616e206f6e6c792072656e6f756e636560448201527f20726f6c657320666f722073656c66000000000000000000000000000000000060648201526084016109a7565b610b4a828261221e565b5050565b6000610b62610b5b61172d565b8585611cf6565b8373ffffffffffffffffffffffffffffffffffffffff16610b8161172d565b73ffffffffffffffffffffffffffffffffffffffff167f9be86a1edd93f234e9c42b9ec0ff205d1b91b05eed309f225cc0a82f936508308585604051610bd1929190918252602082015260400190565b60405180910390a35060019392505050565b600080610bee61172d565b905061086d818585610c33858973ffffffffffffffffffffffffffffffffffffffff918216600090815260016020908152604080832093909416825291909152205490565b610c3d9190612dc9565b611737565b610c6e7f5b618ab2fee761c09bf71319707cefa62eccc93dcc483744898e6c3acf45264361062461172d565b80610ca05750610ca07fc9eb32e43bf5ecbceacf00b32281dfc5d6d700a0db676ea26ccf938a385ac3f761062461172d565b610d06576040517f08c379a000000000000000000000000000000000000000000000000000000000815260206004820152601760248201527f4e6f7420617574686f72697a656420746f206d696e742e00000000000000000060448201526064016109a7565b600d5473ffffffffffffffffffffffffffffffffffffffff1615610dac576040517f08c379a000000000000000000000000000000000000000000000000000000000815260206004820152603060248201527f4d696e74696e672064697361626c6564207768656e20506f6c79676f6e20627260448201527f6964676520697320656e61626c65642e0000000000000000000000000000000060648201526084016109a7565b610b4a8282612311565b7f5b618ab2fee761c09bf71319707cefa62eccc93dcc483744898e6c3acf452643610de0816123de565b50600d80547fffffffffffffffffffffffff00000000000000000000000000000000000000001673ffffffffffffffffffffffffffffffffffffffff92909216919091179055565b6000610e34848461083e565b508373ffffffffffffffffffffffffffffffffffffffff16610b8161172d565b610e5c6123ef565b610e6660006124a9565b565b7f5b618ab2fee761c09bf71319707cefa62eccc93dcc483744898e6c3acf452643610e92816123de565b73ffffffffffffffffffffffffffffffffffffffff8516610f0f576040517f08c379a000000000000000000000000000000000000000000000000000000000815260206004820152601360248201527f726563697069656e74206973203020616464720000000000000000000000000060448201526064016109a7565b50600c80547fffffffffffffffffffffffff00000000000000000000000000000000000000001673ffffffffffffffffffffffffffffffffffffffff9590951694909417909355600991909155600a55600b55565b600061088987878787878760016118ea565b60006107a3858585856000611398565b6060600480546107bb90612d47565b600080610fa061172d565b73ffffffffffffffffffffffffffffffffffffffff81811660009081526001602090815260408083209389168352929052205490915083811015611066576040517f08c379a000000000000000000000000000000000000000000000000000000000815260206004820152602560248201527f45524332303a2064656372656173656420616c6c6f77616e63652062656c6f7760448201527f207a65726f00000000000000000000000000000000000000000000000000000060648201526084016109a7565b6108b78286868403611737565b60008061107e61172d565b905061086d818585611cf6565b7f5b618ab2fee761c09bf71319707cefa62eccc93dcc483744898e6c3acf4526436110b5816123de565b600580547fffffffffffffffffffffffff00000000000000000000000000000000000000001673ffffffffffffffffffffffffffffffffffffffff84161790555050565b60006111086000836001611532565b506001919050565b600d5473ffffffffffffffffffffffffffffffffffffffff1661113161172d565b73ffffffffffffffffffffffffffffffffffffffff16146111ae576040517f08c379a000000000000000000000000000000000000000000000000000000000815260206004820152601f60248201527f41646472657373206e6f7420616c6c6f77656420746f206465706f7369742e0060448201526064016109a7565b60006111bc82840184612bce565b9050610a788482612311565b6000828152600760205260409020600101546111e3816123de565b6111ed838361221e565b505050565b6111fa6123ef565b73ffffffffffffffffffffffffffffffffffffffff811661129d576040517f08c379a000000000000000000000000000000000000000000000000000000000815260206004820152602660248201527f4f776e61626c653a206e6577206f776e657220697320746865207a65726f206160448201527f646472657373000000000000000000000000000000000000000000000000000060648201526084016109a7565b6108d3816124a9565b60055460009073ffffffffffffffffffffffffffffffffffffffff1633036112f357507fffffffffffffffffffffffffffffffffffffffffffffffffffffffffffffffec36013560601c90565b503390565b905090565b3390565b60007fffffffff0000000000000000000000000000000000000000000000000000000082167f7965db0b00000000000000000000000000000000000000000000000000000000148061078d57507f01ffc9a7000000000000000000000000000000000000000000000000000000007fffffffff0000000000000000000000000000000000000000000000000000000083161461078d565b600084611401576040517f08c379a000000000000000000000000000000000000000000000000000000000815260206004820152600d60248201527f4e6f20726563697069656e74730000000000000000000000000000000000000060448201526064016109a7565b84831461146a576040517f08c379a000000000000000000000000000000000000000000000000000000000815260206004820181905260248201527f616d6f756e747320617267756d656e742073697a65206d69736d61746368656460448201526064016109a7565b60005b858110156115255782156114c9576114c387878381811061149057611490612ddc565b90506020020160208101906114a59190612c46565b8686848181106114b7576114b7612ddc565b9050602002013561083e565b50611513565b6115118787838181106114de576114de612ddc565b90506020020160208101906114f39190612c46565b86868481811061150557611505612ddc565b90506020020135611073565b505b8061151d81612e0b565b91505061146d565b5060019695505050505050565b600061153f61054861172d565b600c5490915073ffffffffffffffffffffffffffffffffffffffff166115e7576040517f08c379a000000000000000000000000000000000000000000000000000000000815260206004820152603160248201527f46656520726563697069656e74206e6f74207365742c2063616e6e6f7420757360448201527f65207472616e736665725769746846656500000000000000000000000000000060648201526084016109a7565b82811015611677576040517f08c379a000000000000000000000000000000000000000000000000000000000815260206004820152602760248201527f45524332303a207472616e7366657220616d6f756e742065786365656473206260448201527f616c616e63652e0000000000000000000000000000000000000000000000000060648201526084016109a7565b6000600a546127106009548661168d9190612e43565b6116979190612e80565b6116a19190612dc9565b90506000600b548211156116b757600b546116b9565b815b90506116e56116c661172d565b600c5473ffffffffffffffffffffffffffffffffffffffff1683611cf6565b831561170a576117056116f661172d565b6117008388612ebb565b611f65565b611725565b61172561171561172d565b876117208489612ebb565b611cf6565b505050505050565b60006112f86112a6565b73ffffffffffffffffffffffffffffffffffffffff83166117d9576040517f08c379a0000000000000000000000000000000000000000000000000000000008152602060048201526024808201527f45524332303a20617070726f76652066726f6d20746865207a65726f2061646460448201527f726573730000000000000000000000000000000000000000000000000000000060648201526084016109a7565b73ffffffffffffffffffffffffffffffffffffffff821661187c576040517f08c379a000000000000000000000000000000000000000000000000000000000815260206004820152602260248201527f45524332303a20617070726f766520746f20746865207a65726f20616464726560448201527f737300000000000000000000000000000000000000000000000000000000000060648201526084016109a7565b73ffffffffffffffffffffffffffffffffffffffff83811660008181526001602090815260408083209487168084529482529182902085905590518481527f8c5be1e5ebec7d5bd14f71427d1e84f3dd0314c0f7b2291e5b200ac8c7c3b925910160405180910390a3505050565b600086611953576040517f08c379a000000000000000000000000000000000000000000000000000000000815260206004820152600d60248201527f4e6f20726563697069656e74730000000000000000000000000000000000000060448201526064016109a7565b8685146119bc576040517f08c379a000000000000000000000000000000000000000000000000000000000815260206004820181905260248201527f616d6f756e747320617267756d656e742073697a65206d69736d61746368656460448201526064016109a7565b868314611a25576040517f08c379a000000000000000000000000000000000000000000000000000000000815260206004820152601d60248201527f7265667320617267756d656e742073697a65206d69736d61746368656400000060448201526064016109a7565b60005b87811015611bb7578215611a7857611a72898983818110611a4b57611a4b612ddc565b9050602002016020810190611a609190612c46565b8888848181106114b7576114b7612ddc565b50611ab6565b611ab4898983818110611a8d57611a8d612ddc565b9050602002016020810190611aa29190612c46565b88888481811061150557611505612ddc565b505b6000858583818110611aca57611aca612ddc565b905060200201351115611ba557888882818110611ae957611ae9612ddc565b9050602002016020810190611afe9190612c46565b73ffffffffffffffffffffffffffffffffffffffff16611b1c61172d565b73ffffffffffffffffffffffffffffffffffffffff167f9be86a1edd93f234e9c42b9ec0ff205d1b91b05eed309f225cc0a82f93650830898985818110611b6557611b65612ddc565b90506020020135888886818110611b7e57611b7e612ddc565b90506020020135604051611b9c929190918252602082015260400190565b60405180910390a35b80611baf81612e0b565b915050611a28565b50611bc061172d565b73ffffffffffffffffffffffffffffffffffffffff167fa91f78721ec724c5d8f9e089dcea4047a178a40bbff32381b463c701f37aabd8898989898989604051611c0f96959493929190612f19565b60405180910390a2506001979650505050505050565b73ffffffffffffffffffffffffffffffffffffffff8381166000908152600160209081526040808320938616835292905220547fffffffffffffffffffffffffffffffffffffffffffffffffffffffffffffffff8114610a785781811015611ce9576040517f08c379a000000000000000000000000000000000000000000000000000000000815260206004820152601d60248201527f45524332303a20696e73756666696369656e7420616c6c6f77616e636500000060448201526064016109a7565b610a788484848403611737565b73ffffffffffffffffffffffffffffffffffffffff8316611d99576040517f08c379a000000000000000000000000000000000000000000000000000000000815260206004820152602560248201527f45524332303a207472616e736665722066726f6d20746865207a65726f20616460448201527f647265737300000000000000000000000000000000000000000000000000000060648201526084016109a7565b73ffffffffffffffffffffffffffffffffffffffff8216611e3c576040517f08c379a000000000000000000000000000000000000000000000000000000000815260206004820152602360248201527f45524332303a207472616e7366657220746f20746865207a65726f206164647260448201527f657373000000000000000000000000000000000000000000000000000000000060648201526084016109a7565b73ffffffffffffffffffffffffffffffffffffffff831660009081526020819052604090205481811015611ef2576040517f08c379a000000000000000000000000000000000000000000000000000000000815260206004820152602660248201527f45524332303a207472616e7366657220616d6f756e742065786365656473206260448201527f616c616e6365000000000000000000000000000000000000000000000000000060648201526084016109a7565b73ffffffffffffffffffffffffffffffffffffffff848116600081815260208181526040808320878703905593871680835291849020805487019055925185815290927fddf252ad1be2c89b69c2b068fc378daa952ba7f163c4a11628f55a4df523b3ef910160405180910390a3610a78565b73ffffffffffffffffffffffffffffffffffffffff8216612008576040517f08c379a000000000000000000000000000000000000000000000000000000000815260206004820152602160248201527f45524332303a206275726e2066726f6d20746865207a65726f2061646472657360448201527f730000000000000000000000000000000000000000000000000000000000000060648201526084016109a7565b73ffffffffffffffffffffffffffffffffffffffff8216600090815260208190526040902054818110156120be576040517f08c379a000000000000000000000000000000000000000000000000000000000815260206004820152602260248201527f45524332303a206275726e20616d6f756e7420657863656564732062616c616e60448201527f636500000000000000000000000000000000000000000000000000000000000060648201526084016109a7565b73ffffffffffffffffffffffffffffffffffffffff83166000818152602081815260408083208686039055600280548790039055518581529192917fddf252ad1be2c89b69c2b068fc378daa952ba7f163c4a11628f55a4df523b3ef910160405180910390a3505050565b600082815260076020908152604080832073ffffffffffffffffffffffffffffffffffffffff8516845290915290205460ff16610b4a57600082815260076020908152604080832073ffffffffffffffffffffffffffffffffffffffff85168452909152902080547fffffffffffffffffffffffffffffffffffffffffffffffffffffffffffffff001660011790556121c061172d565b73ffffffffffffffffffffffffffffffffffffffff168173ffffffffffffffffffffffffffffffffffffffff16837f2f8788117e7eff1d82e926ec794901d17c78024a50270940304540a733656f0d60405160405180910390a45050565b600082815260076020908152604080832073ffffffffffffffffffffffffffffffffffffffff8516845290915290205460ff1615610b4a57600082815260076020908152604080832073ffffffffffffffffffffffffffffffffffffffff85168452909152902080547fffffffffffffffffffffffffffffffffffffffffffffffffffffffffffffff001690556122b361172d565b73ffffffffffffffffffffffffffffffffffffffff168173ffffffffffffffffffffffffffffffffffffffff16837ff6391f5c32d9c69d2a47ea670b442974b53935d1edc7fd64eb21e047a839171b60405160405180910390a45050565b7f0000000000000000000000000000000000000000000000000000000000000000156123d4577f00000000000000000000000000000000000000000000000000000000000000008161236260025490565b61236c9190612dc9565b11156123d4576040517f08c379a000000000000000000000000000000000000000000000000000000000815260206004820152601960248201527f455243323020737570706c79206361702065786365656465640000000000000060448201526064016109a7565b610b4a8282612520565b6108d3816123ea61172d565b612613565b6123f761172d565b73ffffffffffffffffffffffffffffffffffffffff1661242c60085473ffffffffffffffffffffffffffffffffffffffff1690565b73ffffffffffffffffffffffffffffffffffffffff1614610e66576040517f08c379a000000000000000000000000000000000000000000000000000000000815260206004820181905260248201527f4f776e61626c653a2063616c6c6572206973206e6f7420746865206f776e657260448201526064016109a7565b6008805473ffffffffffffffffffffffffffffffffffffffff8381167fffffffffffffffffffffffff0000000000000000000000000000000000000000831681179093556040519116919082907f8be0079c531659141344cd1fd0a4f28419497f9722a3daafe3b4186f6b6457e090600090a35050565b73ffffffffffffffffffffffffffffffffffffffff821661259d576040517f08c379a000000000000000000000000000000000000000000000000000000000815260206004820152601f60248201527f45524332303a206d696e7420746f20746865207a65726f20616464726573730060448201526064016109a7565b80600260008282546125af9190612dc9565b909155505073ffffffffffffffffffffffffffffffffffffffff8216600081815260208181526040808320805486019055518481527fddf252ad1be2c89b69c2b068fc378daa952ba7f163c4a11628f55a4df523b3ef910160405180910390a35050565b600082815260076020908152604080832073ffffffffffffffffffffffffffffffffffffffff8516845290915290205460ff16610b4a57612653816126cd565b61265e8360206126ec565b60405160200161266f929190612f9e565b604080517fffffffffffffffffffffffffffffffffffffffffffffffffffffffffffffffe0818403018152908290527f08c379a00000000000000000000000000000000000000000000000000000000082526109a791600401612a54565b606061078d73ffffffffffffffffffffffffffffffffffffffff831660145b606060006126fb836002612e43565b612706906002612dc9565b67ffffffffffffffff81111561271e5761271e61301f565b6040519080825280601f01601f191660200182016040528015612748576020820181803683370190505b5090507f30000000000000000000000000000000000000000000000000000000000000008160008151811061277f5761277f612ddc565b60200101907effffffffffffffffffffffffffffffffffffffffffffffffffffffffffffff1916908160001a9053507f7800000000000000000000000000000000000000000000000000000000000000816001815181106127e2576127e2612ddc565b60200101907effffffffffffffffffffffffffffffffffffffffffffffffffffffffffffff1916908160001a905350600061281e846002612e43565b612829906001612dc9565b90505b60018111156128c6577f303132333435363738396162636465660000000000000000000000000000000085600f166010811061286a5761286a612ddc565b1a60f81b82828151811061288057612880612ddc565b60200101907effffffffffffffffffffffffffffffffffffffffffffffffffffffffffffff1916908160001a90535060049490941c936128bf8161304e565b905061282c565b50831561292f576040517f08c379a000000000000000000000000000000000000000000000000000000000815260206004820181905260248201527f537472696e67733a20686578206c656e67746820696e73756666696369656e7460448201526064016109a7565b9392505050565b60006020828403121561294857600080fd5b81357fffffffff000000000000000000000000000000000000000000000000000000008116811461292f57600080fd5b60008083601f84011261298a57600080fd5b50813567ffffffffffffffff8111156129a257600080fd5b6020830191508360208260051b85010111156129bd57600080fd5b9250929050565b600080600080604085870312156129da57600080fd5b843567ffffffffffffffff808211156129f257600080fd5b6129fe88838901612978565b90965094506020870135915080821115612a1757600080fd5b50612a2487828801612978565b95989497509550505050565b60005b83811015612a4b578181015183820152602001612a33565b50506000910152565b6020815260008251806020840152612a73816040850160208701612a30565b601f017fffffffffffffffffffffffffffffffffffffffffffffffffffffffffffffffe0169190910160400192915050565b803573ffffffffffffffffffffffffffffffffffffffff81168114612ac957600080fd5b919050565b60008060408385031215612ae157600080fd5b612aea83612aa5565b946020939093013593505050565b60008060008060008060608789031215612b1157600080fd5b863567ffffffffffffffff80821115612b2957600080fd5b612b358a838b01612978565b90985096506020890135915080821115612b4e57600080fd5b612b5a8a838b01612978565b90965094506040890135915080821115612b7357600080fd5b50612b8089828a01612978565b979a9699509497509295939492505050565b600080600060608486031215612ba757600080fd5b612bb084612aa5565b9250612bbe60208501612aa5565b9150604084013590509250925092565b600060208284031215612be057600080fd5b5035919050565b60008060408385031215612bfa57600080fd5b82359150612c0a60208401612aa5565b90509250929050565b600080600060608486031215612c2857600080fd5b612c3184612aa5565b95602085013595506040909401359392505050565b600060208284031215612c5857600080fd5b61292f82612aa5565b60008060008060808587031215612c7757600080fd5b612c8085612aa5565b966020860135965060408601359560600135945092505050565b600080600060408486031215612caf57600080fd5b612cb884612aa5565b9250602084013567ffffffffffffffff80821115612cd557600080fd5b818601915086601f830112612ce957600080fd5b813581811115612cf857600080fd5b876020828501011115612d0a57600080fd5b6020830194508093505050509250925092565b60008060408385031215612d3057600080fd5b612d3983612aa5565b9150612c0a60208401612aa5565b600181811c90821680612d5b57607f821691505b602082108103612d94577f4e487b7100000000000000000000000000000000000000000000000000000000600052602260045260246000fd5b50919050565b7f4e487b7100000000000000000000000000000000000000000000000000000000600052601160045260246000fd5b8082018082111561078d5761078d612d9a565b7f4e487b7100000000000000000000000000000000000000000000000000000000600052603260045260246000fd5b60007fffffffffffffffffffffffffffffffffffffffffffffffffffffffffffffffff8203612e3c57612e3c612d9a565b5060010190565b6000817fffffffffffffffffffffffffffffffffffffffffffffffffffffffffffffffff0483118215151615612e7b57612e7b612d9a565b500290565b600082612eb6577f4e487b7100000000000000000000000000000000000000000000000000000000600052601260045260246000fd5b500490565b8181038181111561078d5761078d612d9a565b81835260007f07ffffffffffffffffffffffffffffffffffffffffffffffffffffffffffffff831115612f0057600080fd5b8260051b80836020870137939093016020019392505050565b6060808252810186905260008760808301825b89811015612f675773ffffffffffffffffffffffffffffffffffffffff612f5284612aa5565b16825260209283019290910190600101612f2c565b508381036020850152612f7b81888a612ece565b9150508281036040840152612f91818587612ece565b9998505050505050505050565b7f416363657373436f6e74726f6c3a206163636f756e7420000000000000000000815260008351612fd6816017850160208801612a30565b7f206973206d697373696e6720726f6c65200000000000000000000000000000006017918401918201528351613013816028840160208801612a30565b01602801949350505050565b7f4e487b7100000000000000000000000000000000000000000000000000000000600052604160045260246000fd5b60008161305d5761305d612d9a565b507fffffffffffffffffffffffffffffffffffffffffffffffffffffffffffffffff019056fea26469706673582212209a6e202cbbf3f165f1f40c2369842d0b63a56728b02e36c46dd2a56bd8c80a8164736f6c63430008100033",
  "linkReferences": {},
  "deployedLinkReferences": {}
}