{
  "_format": "hh-sol-artifact-1",
  "contractName": "ERC20_Game_Currency",
  "sourceName": "contracts/Currency/ERC20_Game_Currency.sol",
  "abi": [
    {
      "inputs": [
        {
          "internalType": "string",
          "name": "_name",
          "type": "string"
        },
        {
          "internalType": "string",
          "name": "_symbol",
          "type": "string"
        },
        {
          "internalType": "uint256",
          "name": "_supplyCap",
          "type": "uint256"
        },
        {
          "internalType": "address",
          "name": "_forwarder",
          "type": "address"
        },
        {
          "internalType": "bytes32",
          "name": "_systemId",
          "type": "bytes32"
        }
      ],
      "stateMutability": "nonpayable",
      "type": "constructor"
    },
    {
      "anonymous": false,
      "inputs": [
        {
          "indexed": true,
          "internalType": "address",
          "name": "owner",
          "type": "address"
        },
        {
          "indexed": true,
          "internalType": "address",
          "name": "spender",
          "type": "address"
        },
        {
          "indexed": false,
          "internalType": "uint256",
          "name": "value",
          "type": "uint256"
        }
      ],
      "name": "Approval",
      "type": "event"
    },
    {
      "anonymous": false,
      "inputs": [
        {
          "indexed": true,
          "internalType": "address",
          "name": "sender",
          "type": "address"
        },
        {
          "indexed": false,
          "internalType": "address[]",
          "name": "recipients",
          "type": "address[]"
        },
        {
          "indexed": false,
          "internalType": "uint256[]",
          "name": "amounts",
          "type": "uint256[]"
        },
        {
          "indexed": false,
          "internalType": "uint256[]",
          "name": "refs",
          "type": "uint256[]"
        }
      ],
      "name": "BatchTransferRef",
      "type": "event"
    },
    {
      "anonymous": false,
      "inputs": [
        {
          "indexed": true,
          "internalType": "bytes32",
          "name": "role",
          "type": "bytes32"
        },
        {
          "indexed": true,
          "internalType": "bytes32",
          "name": "previousAdminRole",
          "type": "bytes32"
        },
        {
          "indexed": true,
          "internalType": "bytes32",
          "name": "newAdminRole",
          "type": "bytes32"
        }
      ],
      "name": "RoleAdminChanged",
      "type": "event"
    },
    {
      "anonymous": false,
      "inputs": [
        {
          "indexed": true,
          "internalType": "bytes32",
          "name": "role",
          "type": "bytes32"
        },
        {
          "indexed": true,
          "internalType": "address",
          "name": "account",
          "type": "address"
        },
        {
          "indexed": true,
          "internalType": "address",
          "name": "sender",
          "type": "address"
        }
      ],
      "name": "RoleGranted",
      "type": "event"
    },
    {
      "anonymous": false,
      "inputs": [
        {
          "indexed": true,
          "internalType": "bytes32",
          "name": "role",
          "type": "bytes32"
        },
        {
          "indexed": true,
          "internalType": "address",
          "name": "account",
          "type": "address"
        },
        {
          "indexed": true,
          "internalType": "address",
          "name": "sender",
          "type": "address"
        }
      ],
      "name": "RoleRevoked",
      "type": "event"
    },
    {
      "anonymous": false,
      "inputs": [
        {
          "indexed": true,
          "internalType": "address",
          "name": "from",
          "type": "address"
        },
        {
          "indexed": true,
          "internalType": "address",
          "name": "to",
          "type": "address"
        },
        {
          "indexed": false,
          "internalType": "uint256",
          "name": "value",
          "type": "uint256"
        }
      ],
      "name": "Transfer",
      "type": "event"
    },
    {
      "anonymous": false,
      "inputs": [
        {
          "indexed": true,
          "internalType": "address",
          "name": "sender",
          "type": "address"
        },
        {
          "indexed": true,
          "internalType": "address",
          "name": "recipient",
          "type": "address"
        },
        {
          "indexed": false,
          "internalType": "uint256",
          "name": "amount",
          "type": "uint256"
        },
        {
          "indexed": false,
          "internalType": "uint256",
          "name": "ref",
          "type": "uint256"
        }
      ],
      "name": "TransferRef",
      "type": "event"
    },
    {
      "inputs": [],
      "name": "DEFAULT_ADMIN_ROLE",
      "outputs": [
        {
          "internalType": "bytes32",
          "name": "",
          "type": "bytes32"
        }
      ],
      "stateMutability": "view",
      "type": "function"
    },
    {
      "inputs": [
        {
          "internalType": "address",
          "name": "owner",
          "type": "address"
        },
        {
          "internalType": "address",
          "name": "spender",
          "type": "address"
        }
      ],
      "name": "allowance",
      "outputs": [
        {
          "internalType": "uint256",
          "name": "",
          "type": "uint256"
        }
      ],
      "stateMutability": "view",
      "type": "function"
    },
    {
      "inputs": [
        {
          "internalType": "address",
          "name": "spender",
          "type": "address"
        },
        {
          "internalType": "uint256",
          "name": "amount",
          "type": "uint256"
        }
      ],
      "name": "approve",
      "outputs": [
        {
          "internalType": "bool",
          "name": "",
          "type": "bool"
        }
      ],
      "stateMutability": "nonpayable",
      "type": "function"
    },
    {
      "inputs": [
        {
          "internalType": "address",
          "name": "account",
          "type": "address"
        }
      ],
      "name": "balanceOf",
      "outputs": [
        {
          "internalType": "uint256",
          "name": "",
          "type": "uint256"
        }
      ],
      "stateMutability": "view",
      "type": "function"
    },
    {
      "inputs": [
        {
          "internalType": "address[]",
          "name": "recipients",
          "type": "address[]"
        },
        {
          "internalType": "uint256[]",
          "name": "amounts",
          "type": "uint256[]"
        }
      ],
      "name": "batchTransfer",
      "outputs": [
        {
          "internalType": "bool",
          "name": "",
          "type": "bool"
        }
      ],
      "stateMutability": "nonpayable",
      "type": "function"
    },
    {
      "inputs": [
        {
          "internalType": "address[]",
          "name": "recipients",
          "type": "address[]"
        },
        {
          "internalType": "uint256[]",
          "name": "amounts",
          "type": "uint256[]"
        }
      ],
      "name": "batchTransferWithFees",
      "outputs": [
        {
          "internalType": "bool",
          "name": "",
          "type": "bool"
        }
      ],
      "stateMutability": "nonpayable",
      "type": "function"
    },
    {
      "inputs": [
        {
          "internalType": "address[]",
          "name": "recipients",
          "type": "address[]"
        },
        {
          "internalType": "uint256[]",
          "name": "amounts",
          "type": "uint256[]"
        },
        {
          "internalType": "uint256[]",
          "name": "refs",
          "type": "uint256[]"
        }
      ],
      "name": "batchTransferWithFeesRefs",
      "outputs": [
        {
          "internalType": "bool",
          "name": "",
          "type": "bool"
        }
      ],
      "stateMutability": "nonpayable",
      "type": "function"
    },
    {
      "inputs": [
        {
          "internalType": "address[]",
          "name": "recipients",
          "type": "address[]"
        },
        {
          "internalType": "uint256[]",
          "name": "amounts",
          "type": "uint256[]"
        },
        {
          "internalType": "uint256[]",
          "name": "refs",
          "type": "uint256[]"
        }
      ],
      "name": "batchTransferWithRefs",
      "outputs": [
        {
          "internalType": "bool",
          "name": "",
          "type": "bool"
        }
      ],
      "stateMutability": "nonpayable",
      "type": "function"
    },
    {
      "inputs": [
        {
          "internalType": "uint256",
          "name": "_amount",
          "type": "uint256"
        }
      ],
      "name": "burn",
      "outputs": [],
      "stateMutability": "nonpayable",
      "type": "function"
    },
    {
      "inputs": [
        {
          "internalType": "uint256",
          "name": "amount",
          "type": "uint256"
        }
      ],
      "name": "burnWithFee",
      "outputs": [
        {
          "internalType": "bool",
          "name": "",
          "type": "bool"
        }
      ],
      "stateMutability": "nonpayable",
      "type": "function"
    },
    {
      "inputs": [],
      "name": "childChainManagerProxy",
      "outputs": [
        {
          "internalType": "address",
          "name": "",
          "type": "address"
        }
      ],
      "stateMutability": "view",
      "type": "function"
    },
    {
      "inputs": [],
      "name": "decimals",
      "outputs": [
        {
          "internalType": "uint8",
          "name": "",
          "type": "uint8"
        }
      ],
      "stateMutability": "view",
      "type": "function"
    },
    {
      "inputs": [
        {
          "internalType": "address",
          "name": "spender",
          "type": "address"
        },
        {
          "internalType": "uint256",
          "name": "subtractedValue",
          "type": "uint256"
        }
      ],
      "name": "decreaseAllowance",
      "outputs": [
        {
          "internalType": "bool",
          "name": "",
          "type": "bool"
        }
      ],
      "stateMutability": "nonpayable",
      "type": "function"
    },
    {
      "inputs": [
        {
          "internalType": "address",
          "name": "user",
          "type": "address"
        },
        {
          "internalType": "bytes",
          "name": "depositData",
          "type": "bytes"
        }
      ],
      "name": "deposit",
      "outputs": [],
      "stateMutability": "nonpayable",
      "type": "function"
    },
    {
      "inputs": [],
      "name": "feeBps",
      "outputs": [
        {
          "internalType": "uint256",
          "name": "",
          "type": "uint256"
        }
      ],
      "stateMutability": "view",
      "type": "function"
    },
    {
      "inputs": [],
      "name": "feeCap",
      "outputs": [
        {
          "internalType": "uint256",
          "name": "",
          "type": "uint256"
        }
      ],
      "stateMutability": "view",
      "type": "function"
    },
    {
      "inputs": [],
      "name": "feeFixed",
      "outputs": [
        {
          "internalType": "uint256",
          "name": "",
          "type": "uint256"
        }
      ],
      "stateMutability": "view",
      "type": "function"
    },
    {
      "inputs": [],
      "name": "feeRecipient",
      "outputs": [
        {
          "internalType": "address",
          "name": "",
          "type": "address"
        }
      ],
      "stateMutability": "view",
      "type": "function"
    },
    {
      "inputs": [
        {
          "internalType": "bytes32",
          "name": "role",
          "type": "bytes32"
        }
      ],
      "name": "getRoleAdmin",
      "outputs": [
        {
          "internalType": "bytes32",
          "name": "",
          "type": "bytes32"
        }
      ],
      "stateMutability": "view",
      "type": "function"
    },
    {
      "inputs": [
        {
          "internalType": "bytes32",
          "name": "role",
          "type": "bytes32"
        },
        {
          "internalType": "address",
          "name": "account",
          "type": "address"
        }
      ],
      "name": "grantRole",
      "outputs": [],
      "stateMutability": "nonpayable",
      "type": "function"
    },
    {
      "inputs": [
        {
          "internalType": "bytes32",
          "name": "role",
          "type": "bytes32"
        },
        {
          "internalType": "address",
          "name": "account",
          "type": "address"
        }
      ],
      "name": "hasRole",
      "outputs": [
        {
          "internalType": "bool",
          "name": "",
          "type": "bool"
        }
      ],
      "stateMutability": "view",
      "type": "function"
    },
    {
      "inputs": [
        {
          "internalType": "address",
          "name": "spender",
          "type": "address"
        },
        {
          "internalType": "uint256",
          "name": "addedValue",
          "type": "uint256"
        }
      ],
      "name": "increaseAllowance",
      "outputs": [
        {
          "internalType": "bool",
          "name": "",
          "type": "bool"
        }
      ],
      "stateMutability": "nonpayable",
      "type": "function"
    },
    {
      "inputs": [
        {
          "internalType": "address",
          "name": "forwarder",
          "type": "address"
        }
      ],
      "name": "isTrustedForwarder",
      "outputs": [
        {
          "internalType": "bool",
          "name": "",
          "type": "bool"
        }
      ],
      "stateMutability": "view",
      "type": "function"
    },
    {
      "inputs": [
        {
          "internalType": "address",
          "name": "_to",
          "type": "address"
        },
        {
          "internalType": "uint256",
          "name": "_amount",
          "type": "uint256"
        }
      ],
      "name": "mint",
      "outputs": [],
      "stateMutability": "nonpayable",
      "type": "function"
    },
    {
      "inputs": [],
      "name": "name",
      "outputs": [
        {
          "internalType": "string",
          "name": "",
          "type": "string"
        }
      ],
      "stateMutability": "view",
      "type": "function"
    },
    {
      "inputs": [
        {
          "internalType": "bytes32",
          "name": "role",
          "type": "bytes32"
        },
        {
          "internalType": "address",
          "name": "account",
          "type": "address"
        }
      ],
      "name": "renounceRole",
      "outputs": [],
      "stateMutability": "nonpayable",
      "type": "function"
    },
    {
      "inputs": [
        {
          "internalType": "bytes32",
          "name": "role",
          "type": "bytes32"
        },
        {
          "internalType": "address",
          "name": "account",
          "type": "address"
        }
      ],
      "name": "revokeRole",
      "outputs": [],
      "stateMutability": "nonpayable",
      "type": "function"
    },
    {
      "inputs": [
        {
          "internalType": "address",
          "name": "recipient",
          "type": "address"
        },
        {
          "internalType": "uint256",
          "name": "_feeBps",
          "type": "uint256"
        },
        {
          "internalType": "uint256",
          "name": "_feeFixed",
          "type": "uint256"
        },
        {
          "internalType": "uint256",
          "name": "_feeCap",
          "type": "uint256"
        }
      ],
      "name": "setFees",
      "outputs": [],
      "stateMutability": "nonpayable",
      "type": "function"
    },
    {
      "inputs": [],
      "name": "supplyCap",
      "outputs": [
        {
          "internalType": "uint256",
          "name": "",
          "type": "uint256"
        }
      ],
      "stateMutability": "view",
      "type": "function"
    },
    {
      "inputs": [
        {
          "internalType": "bytes4",
          "name": "interfaceId",
          "type": "bytes4"
        }
      ],
      "name": "supportsInterface",
      "outputs": [
        {
          "internalType": "bool",
          "name": "",
          "type": "bool"
        }
      ],
      "stateMutability": "view",
      "type": "function"
    },
    {
      "inputs": [],
      "name": "symbol",
      "outputs": [
        {
          "internalType": "string",
          "name": "",
          "type": "string"
        }
      ],
      "stateMutability": "view",
      "type": "function"
    },
    {
      "inputs": [],
      "name": "systemId",
      "outputs": [
        {
          "internalType": "bytes32",
          "name": "",
          "type": "bytes32"
        }
      ],
      "stateMutability": "view",
      "type": "function"
    },
    {
      "inputs": [],
      "name": "totalSupply",
      "outputs": [
        {
          "internalType": "uint256",
          "name": "",
          "type": "uint256"
        }
      ],
      "stateMutability": "view",
      "type": "function"
    },
    {
      "inputs": [
        {
          "internalType": "address",
          "name": "to",
          "type": "address"
        },
        {
          "internalType": "uint256",
          "name": "amount",
          "type": "uint256"
        }
      ],
      "name": "transfer",
      "outputs": [
        {
          "internalType": "bool",
          "name": "",
          "type": "bool"
        }
      ],
      "stateMutability": "nonpayable",
      "type": "function"
    },
    {
      "inputs": [
        {
          "internalType": "address",
          "name": "from",
          "type": "address"
        },
        {
          "internalType": "address",
          "name": "to",
          "type": "address"
        },
        {
          "internalType": "uint256",
          "name": "amount",
          "type": "uint256"
        }
      ],
      "name": "transferFrom",
      "outputs": [
        {
          "internalType": "bool",
          "name": "",
          "type": "bool"
        }
      ],
      "stateMutability": "nonpayable",
      "type": "function"
    },
    {
      "inputs": [
        {
          "internalType": "address",
          "name": "recipient",
          "type": "address"
        },
        {
          "internalType": "uint256",
          "name": "amount",
          "type": "uint256"
        }
      ],
      "name": "transferWithFee",
      "outputs": [
        {
          "internalType": "bool",
          "name": "",
          "type": "bool"
        }
      ],
      "stateMutability": "nonpayable",
      "type": "function"
    },
    {
      "inputs": [
        {
          "internalType": "address",
          "name": "recipient",
          "type": "address"
        },
        {
          "internalType": "uint256",
          "name": "amount",
          "type": "uint256"
        },
        {
          "internalType": "uint256",
          "name": "ref",
          "type": "uint256"
        }
      ],
      "name": "transferWithFeeRef",
      "outputs": [
        {
          "internalType": "bool",
          "name": "",
          "type": "bool"
        }
      ],
      "stateMutability": "nonpayable",
      "type": "function"
    },
    {
      "inputs": [
        {
          "internalType": "address",
          "name": "recipient",
          "type": "address"
        },
        {
          "internalType": "uint256",
          "name": "amount",
          "type": "uint256"
        },
        {
          "internalType": "uint256",
          "name": "ref",
          "type": "uint256"
        }
      ],
      "name": "transferWithRef",
      "outputs": [
        {
          "internalType": "bool",
          "name": "",
          "type": "bool"
        }
      ],
      "stateMutability": "nonpayable",
      "type": "function"
    },
    {
      "inputs": [
        {
          "internalType": "address",
          "name": "_childChainManagerProxy",
          "type": "address"
        }
      ],
      "name": "updateChildChainManager",
      "outputs": [],
      "stateMutability": "nonpayable",
      "type": "function"
    },
    {
      "inputs": [
        {
          "internalType": "address",
          "name": "_newTrustedForwarder",
          "type": "address"
        }
      ],
      "name": "upgradeTrustedForwarder",
      "outputs": [],
      "stateMutability": "nonpayable",
      "type": "function"
    },
    {
      "inputs": [
        {
          "internalType": "uint256",
          "name": "amount",
          "type": "uint256"
        }
      ],
      "name": "withdraw",
      "outputs": [],
      "stateMutability": "nonpayable",
      "type": "function"
    }
  ],
  "bytecode": "0x60a06040523480156200001157600080fd5b506040516200324a3803806200324a8339810160408190526200003491620002ce565b808286866003620000468382620003fe565b506004620000558282620003fe565b5050600580546001600160a01b0319166001600160a01b0393909316929092179091555060065562000086620000fb565b600b80546001600160a01b0319166001600160a01b03929092169190911790556080839052620000c16000620000bb620000fb565b62000117565b620000f07fc9fc9949603a50f5cc3a96f774f1d68287789a241d2082dc81d0fb19a53bcf2b620000bb620000fb565b5050505050620004ca565b6000620001126200012760201b62000fe11760201c565b905090565b6200012382826200015f565b5050565b6005546000906001600160a01b031633036200014a575060131936013560601c90565b620001126200020560201b620010381760201c565b60008281526007602090815260408083206001600160a01b038516845290915290205460ff16620001235760008281526007602090815260408083206001600160a01b03851684529091529020805460ff19166001179055620001c1620000fb565b6001600160a01b0316816001600160a01b0316837f2f8788117e7eff1d82e926ec794901d17c78024a50270940304540a733656f0d60405160405180910390a45050565b3390565b634e487b7160e01b600052604160045260246000fd5b600082601f8301126200023157600080fd5b81516001600160401b03808211156200024e576200024e62000209565b604051601f8301601f19908116603f0116810190828211818310171562000279576200027962000209565b816040528381526020925086838588010111156200029657600080fd5b600091505b83821015620002ba57858201830151818301840152908201906200029b565b600093810190920192909252949350505050565b600080600080600060a08688031215620002e757600080fd5b85516001600160401b0380821115620002ff57600080fd5b6200030d89838a016200021f565b965060208801519150808211156200032457600080fd5b5062000333888289016200021f565b60408801516060890151919650945090506001600160a01b03811681146200035a57600080fd5b80925050608086015190509295509295909350565b600181811c908216806200038457607f821691505b602082108103620003a557634e487b7160e01b600052602260045260246000fd5b50919050565b601f821115620003f957600081815260208120601f850160051c81016020861015620003d45750805b601f850160051c820191505b81811015620003f557828155600101620003e0565b5050505b505050565b81516001600160401b038111156200041a576200041a62000209565b62000432816200042b84546200036f565b84620003ab565b602080601f8311600181146200046a5760008415620004515750858301515b600019600386901b1c1916600185901b178555620003f5565b600085815260208120601f198616915b828110156200049b578886015182559484019460019091019084016200047a565b5085821015620004ba5787850151600019600388901b60f8161c191681555b5050505050600190811b01905550565b608051612d56620004f460003960008181610582015281816120cc01526120f20152612d566000f3fe608060405234801561001057600080fd5b50600436106102d35760003560e01c806342966c68116101865780638f770ad0116100e3578063a9059cbb11610097578063cf2c52cb11610071578063cf2c52cb14610646578063d547741f14610659578063dd62ed3e1461066c57600080fd5b8063a9059cbb1461060d578063aa2a7eea14610620578063c6be49e71461063357600080fd5b806395d89b41116100c857806395d89b41146105ea578063a217fddf146105f2578063a457c2d7146105fa57600080fd5b80638f770ad01461057d57806391d14854146105a457600080fd5b806362f629e71161013a5780637669d4891161011f5780637669d48914610544578063824c0d661461055757806388d695b21461056a57600080fd5b806362f629e7146104ee57806370a082311461050e57600080fd5b8063469048401161016b5780634690484014610467578063572b6c05146104ac5780635932a78e146104db57600080fd5b806342966c68146103c8578063445a67971461045457600080fd5b8063248a9ca31161023457806336568abe116101e857806339509351116101cd578063395093511461042557806339f898bc1461043857806340c10f191461044157600080fd5b806336568abe146103ff57806337ea010a1461041257600080fd5b80632e1a7d4d116102195780632e1a7d4d146103c85780632f2ff15d146103dd578063313ce567146103f057600080fd5b8063248a9ca31461039c57806324a9d853146103bf57600080fd5b8063095ea7b31161028b57806312b681981161027057806312b681981461036e57806318160ddd1461038157806323b872dd1461038957600080fd5b8063095ea7b3146103525780630e3d22021461036557600080fd5b806306fdde03116102bc57806306fdde0314610313578063075b6e331461032857806308acece21461033f57600080fd5b806301ffc9a7146102d8578063050b788314610300575b600080fd5b6102eb6102e63660046125d3565b6106b2565b60405190151581526020015b60405180910390f35b6102eb61030e366004612661565b61070e565b61031b610727565b6040516102f791906126f1565b610331600a5481565b6040519081526020016102f7565b6102eb61034d36600461276b565b6107b9565b6102eb61036036600461276b565b6107d0565b61033160095481565b6102eb61037c366004612795565b6107f2565b600254610331565b6102eb61039736600461282f565b61080f565b6103316103aa36600461286b565b60009081526007602052604090206001015490565b61033160085481565b6103db6103d636600461286b565b61083d565b005b6103db6103eb366004612884565b610851565b604051601281526020016102f7565b6103db61040d366004612884565b61087b565b6102eb6104203660046128b0565b610950565b6102eb61043336600461276b565b6109e5565b61033160065481565b6103db61044f36600461276b565b610a44565b6103db6104623660046128e3565b610bb8565b600b546104879073ffffffffffffffffffffffffffffffffffffffff1681565b60405173ffffffffffffffffffffffffffffffffffffffff90911681526020016102f7565b6102eb6104ba3660046128e3565b60055473ffffffffffffffffffffffffffffffffffffffff91821691161490565b6102eb6104e93660046128b0565b610c2a565b600c546104879073ffffffffffffffffffffffffffffffffffffffff1681565b61033161051c3660046128e3565b73ffffffffffffffffffffffffffffffffffffffff1660009081526020819052604090205490565b6103db6105523660046128fe565b610c56565b6102eb610565366004612795565b610d52565b6102eb610578366004612661565b610d64565b6103317f000000000000000000000000000000000000000000000000000000000000000081565b6102eb6105b2366004612884565b600091825260076020908152604080842073ffffffffffffffffffffffffffffffffffffffff93909316845291905290205460ff1690565b61031b610d74565b610331600081565b6102eb61060836600461276b565b610d83565b6102eb61061b36600461276b565b610e61565b6103db61062e3660046128e3565b610e79565b6102eb61064136600461286b565b610ee7565b6103db610654366004612937565b610efe565b6103db610667366004612884565b610fbc565b61033161067a3660046129ba565b73ffffffffffffffffffffffffffffffffffffffff918216600090815260016020908152604080832093909416825291909152205490565b60007fffffffff0000000000000000000000000000000000000000000000000000000082167fea6162b200000000000000000000000000000000000000000000000000000000148061070857506107088261103c565b92915050565b600061071e8585858560016110d3565b95945050505050565b606060038054610736906129e4565b80601f0160208091040260200160405190810160405280929190818152602001828054610762906129e4565b80156107af5780601f10610784576101008083540402835291602001916107af565b820191906000526020600020905b81548152906001019060200180831161079257829003601f168201915b5050505050905090565b60006107c78383600061126d565b50600192915050565b6000806107db611468565b90506107e8818585611472565b5060019392505050565b60006108048787878787876000611625565b979650505050505050565b60008061081a611468565b9050610827858285611960565b610832858585611a31565b506001949350505050565b61084e610848611468565b82611ce4565b50565b60008281526007602052604090206001015461086c81611ed1565b6108768383611ee2565b505050565b610883611468565b73ffffffffffffffffffffffffffffffffffffffff168173ffffffffffffffffffffffffffffffffffffffff1614610942576040517f08c379a000000000000000000000000000000000000000000000000000000000815260206004820152602f60248201527f416363657373436f6e74726f6c3a2063616e206f6e6c792072656e6f756e636560448201527f20726f6c657320666f722073656c66000000000000000000000000000000000060648201526084015b60405180910390fd5b61094c8282611fd7565b5050565b600061096461095d611468565b8585611a31565b8373ffffffffffffffffffffffffffffffffffffffff16610983611468565b73ffffffffffffffffffffffffffffffffffffffff167f9be86a1edd93f234e9c42b9ec0ff205d1b91b05eed309f225cc0a82f9365083085856040516109d3929190918252602082015260400190565b60405180910390a35060019392505050565b6000806109f0611468565b90506107e8818585610a35858973ffffffffffffffffffffffffffffffffffffffff918216600090815260016020908152604080832093909416825291909152205490565b610a3f9190612a66565b611472565b610a707fc9fc9949603a50f5cc3a96f774f1d68287789a241d2082dc81d0fb19a53bcf2b6105b2611468565b80610aa25750610aa27fc9eb32e43bf5ecbceacf00b32281dfc5d6d700a0db676ea26ccf938a385ac3f76105b2611468565b610b08576040517f08c379a000000000000000000000000000000000000000000000000000000000815260206004820152601760248201527f4e6f7420617574686f72697a656420746f206d696e742e0000000000000000006044820152606401610939565b600c5473ffffffffffffffffffffffffffffffffffffffff1615610bae576040517f08c379a000000000000000000000000000000000000000000000000000000000815260206004820152603060248201527f4d696e74696e672064697361626c6564207768656e20506f6c79676f6e20627260448201527f6964676520697320656e61626c65642e000000000000000000000000000000006064820152608401610939565b61094c82826120ca565b7fc9fc9949603a50f5cc3a96f774f1d68287789a241d2082dc81d0fb19a53bcf2b610be281611ed1565b50600c80547fffffffffffffffffffffffff00000000000000000000000000000000000000001673ffffffffffffffffffffffffffffffffffffffff92909216919091179055565b6000610c3684846107b9565b508373ffffffffffffffffffffffffffffffffffffffff16610983611468565b7fc9fc9949603a50f5cc3a96f774f1d68287789a241d2082dc81d0fb19a53bcf2b610c8081611ed1565b73ffffffffffffffffffffffffffffffffffffffff8516610cfd576040517f08c379a000000000000000000000000000000000000000000000000000000000815260206004820152601360248201527f726563697069656e7420697320302061646472000000000000000000000000006044820152606401610939565b50600b80547fffffffffffffffffffffffff00000000000000000000000000000000000000001673ffffffffffffffffffffffffffffffffffffffff9590951694909417909355600891909155600955600a55565b60006108048787878787876001611625565b600061071e8585858560006110d3565b606060048054610736906129e4565b600080610d8e611468565b73ffffffffffffffffffffffffffffffffffffffff81811660009081526001602090815260408083209389168352929052205490915083811015610e54576040517f08c379a000000000000000000000000000000000000000000000000000000000815260206004820152602560248201527f45524332303a2064656372656173656420616c6c6f77616e63652062656c6f7760448201527f207a65726f0000000000000000000000000000000000000000000000000000006064820152608401610939565b6108328286868403611472565b600080610e6c611468565b90506107e8818585611a31565b7fc9fc9949603a50f5cc3a96f774f1d68287789a241d2082dc81d0fb19a53bcf2b610ea381611ed1565b600580547fffffffffffffffffffffffff00000000000000000000000000000000000000001673ffffffffffffffffffffffffffffffffffffffff84161790555050565b6000610ef6600083600161126d565b506001919050565b600c5473ffffffffffffffffffffffffffffffffffffffff16610f1f611468565b73ffffffffffffffffffffffffffffffffffffffff1614610f9c576040517f08c379a000000000000000000000000000000000000000000000000000000000815260206004820152601f60248201527f41646472657373206e6f7420616c6c6f77656420746f206465706f7369742e006044820152606401610939565b6000610faa8284018461286b565b9050610fb684826120ca565b50505050565b600082815260076020526040902060010154610fd781611ed1565b6108768383611fd7565b60055460009073ffffffffffffffffffffffffffffffffffffffff16330361102e57507fffffffffffffffffffffffffffffffffffffffffffffffffffffffffffffffec36013560601c90565b503390565b905090565b3390565b60007fffffffff0000000000000000000000000000000000000000000000000000000082167f7965db0b00000000000000000000000000000000000000000000000000000000148061070857507f01ffc9a7000000000000000000000000000000000000000000000000000000007fffffffff00000000000000000000000000000000000000000000000000000000831614610708565b60008461113c576040517f08c379a000000000000000000000000000000000000000000000000000000000815260206004820152600d60248201527f4e6f20726563697069656e7473000000000000000000000000000000000000006044820152606401610939565b8483146111a5576040517f08c379a000000000000000000000000000000000000000000000000000000000815260206004820181905260248201527f616d6f756e747320617267756d656e742073697a65206d69736d6174636865646044820152606401610939565b60005b85811015611260578215611204576111fe8787838181106111cb576111cb612a79565b90506020020160208101906111e091906128e3565b8686848181106111f2576111f2612a79565b905060200201356107b9565b5061124e565b61124c87878381811061121957611219612a79565b905060200201602081019061122e91906128e3565b86868481811061124057611240612a79565b90506020020135610e61565b505b8061125881612aa8565b9150506111a8565b5060019695505050505050565b600061127a61051c611468565b600b5490915073ffffffffffffffffffffffffffffffffffffffff16611322576040517f08c379a000000000000000000000000000000000000000000000000000000000815260206004820152603160248201527f46656520726563697069656e74206e6f74207365742c2063616e6e6f7420757360448201527f65207472616e73666572576974684665650000000000000000000000000000006064820152608401610939565b828110156113b2576040517f08c379a000000000000000000000000000000000000000000000000000000000815260206004820152602760248201527f45524332303a207472616e7366657220616d6f756e742065786365656473206260448201527f616c616e63652e000000000000000000000000000000000000000000000000006064820152608401610939565b6000600954612710600854866113c89190612ae0565b6113d29190612b1d565b6113dc9190612a66565b90506000600a548211156113f257600a546113f4565b815b9050611420611401611468565b600b5473ffffffffffffffffffffffffffffffffffffffff1683611a31565b831561144557611440611431611468565b61143b8388612b58565b611ce4565b611460565b611460611450611468565b8761145b8489612b58565b611a31565b505050505050565b6000611033610fe1565b73ffffffffffffffffffffffffffffffffffffffff8316611514576040517f08c379a0000000000000000000000000000000000000000000000000000000008152602060048201526024808201527f45524332303a20617070726f76652066726f6d20746865207a65726f2061646460448201527f72657373000000000000000000000000000000000000000000000000000000006064820152608401610939565b73ffffffffffffffffffffffffffffffffffffffff82166115b7576040517f08c379a000000000000000000000000000000000000000000000000000000000815260206004820152602260248201527f45524332303a20617070726f766520746f20746865207a65726f20616464726560448201527f73730000000000000000000000000000000000000000000000000000000000006064820152608401610939565b73ffffffffffffffffffffffffffffffffffffffff83811660008181526001602090815260408083209487168084529482529182902085905590518481527f8c5be1e5ebec7d5bd14f71427d1e84f3dd0314c0f7b2291e5b200ac8c7c3b925910160405180910390a3505050565b60008661168e576040517f08c379a000000000000000000000000000000000000000000000000000000000815260206004820152600d60248201527f4e6f20726563697069656e7473000000000000000000000000000000000000006044820152606401610939565b8685146116f7576040517f08c379a000000000000000000000000000000000000000000000000000000000815260206004820181905260248201527f616d6f756e747320617267756d656e742073697a65206d69736d6174636865646044820152606401610939565b868314611760576040517f08c379a000000000000000000000000000000000000000000000000000000000815260206004820152601d60248201527f7265667320617267756d656e742073697a65206d69736d6174636865640000006044820152606401610939565b60005b878110156118f25782156117b3576117ad89898381811061178657611786612a79565b905060200201602081019061179b91906128e3565b8888848181106111f2576111f2612a79565b506117f1565b6117ef8989838181106117c8576117c8612a79565b90506020020160208101906117dd91906128e3565b88888481811061124057611240612a79565b505b600085858381811061180557611805612a79565b9050602002013511156118e05788888281811061182457611824612a79565b905060200201602081019061183991906128e3565b73ffffffffffffffffffffffffffffffffffffffff16611857611468565b73ffffffffffffffffffffffffffffffffffffffff167f9be86a1edd93f234e9c42b9ec0ff205d1b91b05eed309f225cc0a82f936508308989858181106118a0576118a0612a79565b905060200201358888868181106118b9576118b9612a79565b905060200201356040516118d7929190918252602082015260400190565b60405180910390a35b806118ea81612aa8565b915050611763565b506118fb611468565b73ffffffffffffffffffffffffffffffffffffffff167fa91f78721ec724c5d8f9e089dcea4047a178a40bbff32381b463c701f37aabd889898989898960405161194a96959493929190612bb6565b60405180910390a2506001979650505050505050565b73ffffffffffffffffffffffffffffffffffffffff8381166000908152600160209081526040808320938616835292905220547fffffffffffffffffffffffffffffffffffffffffffffffffffffffffffffffff8114610fb65781811015611a24576040517f08c379a000000000000000000000000000000000000000000000000000000000815260206004820152601d60248201527f45524332303a20696e73756666696369656e7420616c6c6f77616e63650000006044820152606401610939565b610fb68484848403611472565b73ffffffffffffffffffffffffffffffffffffffff8316611ad4576040517f08c379a000000000000000000000000000000000000000000000000000000000815260206004820152602560248201527f45524332303a207472616e736665722066726f6d20746865207a65726f20616460448201527f64726573730000000000000000000000000000000000000000000000000000006064820152608401610939565b73ffffffffffffffffffffffffffffffffffffffff8216611b77576040517f08c379a000000000000000000000000000000000000000000000000000000000815260206004820152602360248201527f45524332303a207472616e7366657220746f20746865207a65726f206164647260448201527f65737300000000000000000000000000000000000000000000000000000000006064820152608401610939565b73ffffffffffffffffffffffffffffffffffffffff831660009081526020819052604090205481811015611c2d576040517f08c379a000000000000000000000000000000000000000000000000000000000815260206004820152602660248201527f45524332303a207472616e7366657220616d6f756e742065786365656473206260448201527f616c616e636500000000000000000000000000000000000000000000000000006064820152608401610939565b73ffffffffffffffffffffffffffffffffffffffff808516600090815260208190526040808220858503905591851681529081208054849290611c71908490612a66565b925050819055508273ffffffffffffffffffffffffffffffffffffffff168473ffffffffffffffffffffffffffffffffffffffff167fddf252ad1be2c89b69c2b068fc378daa952ba7f163c4a11628f55a4df523b3ef84604051611cd791815260200190565b60405180910390a3610fb6565b73ffffffffffffffffffffffffffffffffffffffff8216611d87576040517f08c379a000000000000000000000000000000000000000000000000000000000815260206004820152602160248201527f45524332303a206275726e2066726f6d20746865207a65726f2061646472657360448201527f73000000000000000000000000000000000000000000000000000000000000006064820152608401610939565b73ffffffffffffffffffffffffffffffffffffffff821660009081526020819052604090205481811015611e3d576040517f08c379a000000000000000000000000000000000000000000000000000000000815260206004820152602260248201527f45524332303a206275726e20616d6f756e7420657863656564732062616c616e60448201527f63650000000000000000000000000000000000000000000000000000000000006064820152608401610939565b73ffffffffffffffffffffffffffffffffffffffff83166000908152602081905260408120838303905560028054849290611e79908490612b58565b909155505060405182815260009073ffffffffffffffffffffffffffffffffffffffff8516907fddf252ad1be2c89b69c2b068fc378daa952ba7f163c4a11628f55a4df523b3ef9060200160405180910390a3505050565b61084e81611edd611468565b612197565b600082815260076020908152604080832073ffffffffffffffffffffffffffffffffffffffff8516845290915290205460ff1661094c57600082815260076020908152604080832073ffffffffffffffffffffffffffffffffffffffff85168452909152902080547fffffffffffffffffffffffffffffffffffffffffffffffffffffffffffffff00166001179055611f79611468565b73ffffffffffffffffffffffffffffffffffffffff168173ffffffffffffffffffffffffffffffffffffffff16837f2f8788117e7eff1d82e926ec794901d17c78024a50270940304540a733656f0d60405160405180910390a45050565b600082815260076020908152604080832073ffffffffffffffffffffffffffffffffffffffff8516845290915290205460ff161561094c57600082815260076020908152604080832073ffffffffffffffffffffffffffffffffffffffff85168452909152902080547fffffffffffffffffffffffffffffffffffffffffffffffffffffffffffffff0016905561206c611468565b73ffffffffffffffffffffffffffffffffffffffff168173ffffffffffffffffffffffffffffffffffffffff16837ff6391f5c32d9c69d2a47ea670b442974b53935d1edc7fd64eb21e047a839171b60405160405180910390a45050565b7f00000000000000000000000000000000000000000000000000000000000000001561218d577f00000000000000000000000000000000000000000000000000000000000000008161211b60025490565b6121259190612a66565b111561218d576040517f08c379a000000000000000000000000000000000000000000000000000000000815260206004820152601960248201527f455243323020737570706c7920636170206578636565646564000000000000006044820152606401610939565b61094c8282612269565b600082815260076020908152604080832073ffffffffffffffffffffffffffffffffffffffff8516845290915290205460ff1661094c576121ef8173ffffffffffffffffffffffffffffffffffffffff166014612389565b6121fa836020612389565b60405160200161220b929190612c3b565b604080517fffffffffffffffffffffffffffffffffffffffffffffffffffffffffffffffe0818403018152908290527f08c379a0000000000000000000000000000000000000000000000000000000008252610939916004016126f1565b73ffffffffffffffffffffffffffffffffffffffff82166122e6576040517f08c379a000000000000000000000000000000000000000000000000000000000815260206004820152601f60248201527f45524332303a206d696e7420746f20746865207a65726f2061646472657373006044820152606401610939565b80600260008282546122f89190612a66565b909155505073ffffffffffffffffffffffffffffffffffffffff821660009081526020819052604081208054839290612332908490612a66565b909155505060405181815273ffffffffffffffffffffffffffffffffffffffff8316906000907fddf252ad1be2c89b69c2b068fc378daa952ba7f163c4a11628f55a4df523b3ef9060200160405180910390a35050565b60606000612398836002612ae0565b6123a3906002612a66565b67ffffffffffffffff8111156123bb576123bb612cbc565b6040519080825280601f01601f1916602001820160405280156123e5576020820181803683370190505b5090507f30000000000000000000000000000000000000000000000000000000000000008160008151811061241c5761241c612a79565b60200101907effffffffffffffffffffffffffffffffffffffffffffffffffffffffffffff1916908160001a9053507f78000000000000000000000000000000000000000000000000000000000000008160018151811061247f5761247f612a79565b60200101907effffffffffffffffffffffffffffffffffffffffffffffffffffffffffffff1916908160001a90535060006124bb846002612ae0565b6124c6906001612a66565b90505b6001811115612563577f303132333435363738396162636465660000000000000000000000000000000085600f166010811061250757612507612a79565b1a60f81b82828151811061251d5761251d612a79565b60200101907effffffffffffffffffffffffffffffffffffffffffffffffffffffffffffff1916908160001a90535060049490941c9361255c81612ceb565b90506124c9565b5083156125cc576040517f08c379a000000000000000000000000000000000000000000000000000000000815260206004820181905260248201527f537472696e67733a20686578206c656e67746820696e73756666696369656e746044820152606401610939565b9392505050565b6000602082840312156125e557600080fd5b81357fffffffff00000000000000000000000000000000000000000000000000000000811681146125cc57600080fd5b60008083601f84011261262757600080fd5b50813567ffffffffffffffff81111561263f57600080fd5b6020830191508360208260051b850101111561265a57600080fd5b9250929050565b6000806000806040858703121561267757600080fd5b843567ffffffffffffffff8082111561268f57600080fd5b61269b88838901612615565b909650945060208701359150808211156126b457600080fd5b506126c187828801612615565b95989497509550505050565b60005b838110156126e85781810151838201526020016126d0565b50506000910152565b60208152600082518060208401526127108160408501602087016126cd565b601f017fffffffffffffffffffffffffffffffffffffffffffffffffffffffffffffffe0169190910160400192915050565b803573ffffffffffffffffffffffffffffffffffffffff8116811461276657600080fd5b919050565b6000806040838503121561277e57600080fd5b61278783612742565b946020939093013593505050565b600080600080600080606087890312156127ae57600080fd5b863567ffffffffffffffff808211156127c657600080fd5b6127d28a838b01612615565b909850965060208901359150808211156127eb57600080fd5b6127f78a838b01612615565b9096509450604089013591508082111561281057600080fd5b5061281d89828a01612615565b979a9699509497509295939492505050565b60008060006060848603121561284457600080fd5b61284d84612742565b925061285b60208501612742565b9150604084013590509250925092565b60006020828403121561287d57600080fd5b5035919050565b6000806040838503121561289757600080fd5b823591506128a760208401612742565b90509250929050565b6000806000606084860312156128c557600080fd5b6128ce84612742565b95602085013595506040909401359392505050565b6000602082840312156128f557600080fd5b6125cc82612742565b6000806000806080858703121561291457600080fd5b61291d85612742565b966020860135965060408601359560600135945092505050565b60008060006040848603121561294c57600080fd5b61295584612742565b9250602084013567ffffffffffffffff8082111561297257600080fd5b818601915086601f83011261298657600080fd5b81358181111561299557600080fd5b8760208285010111156129a757600080fd5b6020830194508093505050509250925092565b600080604083850312156129cd57600080fd5b6129d683612742565b91506128a760208401612742565b600181811c908216806129f857607f821691505b602082108103612a31577f4e487b7100000000000000000000000000000000000000000000000000000000600052602260045260246000fd5b50919050565b7f4e487b7100000000000000000000000000000000000000000000000000000000600052601160045260246000fd5b8082018082111561070857610708612a37565b7f4e487b7100000000000000000000000000000000000000000000000000000000600052603260045260246000fd5b60007fffffffffffffffffffffffffffffffffffffffffffffffffffffffffffffffff8203612ad957612ad9612a37565b5060010190565b6000817fffffffffffffffffffffffffffffffffffffffffffffffffffffffffffffffff0483118215151615612b1857612b18612a37565b500290565b600082612b53577f4e487b7100000000000000000000000000000000000000000000000000000000600052601260045260246000fd5b500490565b8181038181111561070857610708612a37565b81835260007f07ffffffffffffffffffffffffffffffffffffffffffffffffffffffffffffff831115612b9d57600080fd5b8260051b80836020870137939093016020019392505050565b6060808252810186905260008760808301825b89811015612c045773ffffffffffffffffffffffffffffffffffffffff612bef84612742565b16825260209283019290910190600101612bc9565b508381036020850152612c1881888a612b6b565b9150508281036040840152612c2e818587612b6b565b9998505050505050505050565b7f416363657373436f6e74726f6c3a206163636f756e7420000000000000000000815260008351612c738160178501602088016126cd565b7f206973206d697373696e6720726f6c65200000000000000000000000000000006017918401918201528351612cb08160288401602088016126cd565b01602801949350505050565b7f4e487b7100000000000000000000000000000000000000000000000000000000600052604160045260246000fd5b600081612cfa57612cfa612a37565b507fffffffffffffffffffffffffffffffffffffffffffffffffffffffffffffffff019056fea264697066735822122005da8af60159326fbd6bbcb16ef3a8329f5414054a50a07cf52b73806956009464736f6c63430008100033",
  "linkReferences": {},
  "deployedLinkReferences": {}
}