{
  "_format": "hh-sol-artifact-1",
  "contractName": "Game_Items_Lootbox",
  "sourceName": "contracts/Lootbox/Game_Lootbox.sol",
  "abi": [
    {
      "inputs": [
        {
          "internalType": "address",
          "name": "_forwarder",
          "type": "address"
        }
      ],
      "stateMutability": "nonpayable",
      "type": "constructor"
    },
    {
      "anonymous": false,
      "inputs": [
        {
          "indexed": true,
          "internalType": "bytes32",
          "name": "role",
          "type": "bytes32"
        },
        {
          "indexed": true,
          "internalType": "bytes32",
          "name": "previousAdminRole",
          "type": "bytes32"
        },
        {
          "indexed": true,
          "internalType": "bytes32",
          "name": "newAdminRole",
          "type": "bytes32"
        }
      ],
      "name": "RoleAdminChanged",
      "type": "event"
    },
    {
      "anonymous": false,
      "inputs": [
        {
          "indexed": true,
          "internalType": "bytes32",
          "name": "role",
          "type": "bytes32"
        },
        {
          "indexed": true,
          "internalType": "address",
          "name": "account",
          "type": "address"
        },
        {
          "indexed": true,
          "internalType": "address",
          "name": "sender",
          "type": "address"
        }
      ],
      "name": "RoleGranted",
      "type": "event"
    },
    {
      "anonymous": false,
      "inputs": [
        {
          "indexed": true,
          "internalType": "bytes32",
          "name": "role",
          "type": "bytes32"
        },
        {
          "indexed": true,
          "internalType": "address",
          "name": "account",
          "type": "address"
        },
        {
          "indexed": true,
          "internalType": "address",
          "name": "sender",
          "type": "address"
        }
      ],
      "name": "RoleRevoked",
      "type": "event"
    },
    {
      "inputs": [],
      "name": "DEFAULT_ADMIN_ROLE",
      "outputs": [
        {
          "internalType": "bytes32",
          "name": "",
          "type": "bytes32"
        }
      ],
      "stateMutability": "view",
      "type": "function"
    },
    {
      "inputs": [
        {
          "internalType": "bytes32",
          "name": "role",
          "type": "bytes32"
        }
      ],
      "name": "getRoleAdmin",
      "outputs": [
        {
          "internalType": "bytes32",
          "name": "",
          "type": "bytes32"
        }
      ],
      "stateMutability": "view",
      "type": "function"
    },
    {
      "inputs": [
        {
          "internalType": "bytes32",
          "name": "role",
          "type": "bytes32"
        },
        {
          "internalType": "address",
          "name": "account",
          "type": "address"
        }
      ],
      "name": "grantRole",
      "outputs": [],
      "stateMutability": "nonpayable",
      "type": "function"
    },
    {
      "inputs": [
        {
          "internalType": "bytes32",
          "name": "role",
          "type": "bytes32"
        },
        {
          "internalType": "address",
          "name": "account",
          "type": "address"
        }
      ],
      "name": "hasRole",
      "outputs": [
        {
          "internalType": "bool",
          "name": "",
          "type": "bool"
        }
      ],
      "stateMutability": "view",
      "type": "function"
    },
    {
      "inputs": [
        {
          "internalType": "address",
          "name": "forwarder",
          "type": "address"
        }
      ],
      "name": "isTrustedForwarder",
      "outputs": [
        {
          "internalType": "bool",
          "name": "",
          "type": "bool"
        }
      ],
      "stateMutability": "view",
      "type": "function"
    },
    {
      "inputs": [
        {
          "internalType": "bytes32",
          "name": "role",
          "type": "bytes32"
        },
        {
          "internalType": "address",
          "name": "account",
          "type": "address"
        }
      ],
      "name": "renounceRole",
      "outputs": [],
      "stateMutability": "nonpayable",
      "type": "function"
    },
    {
      "inputs": [
        {
          "internalType": "bytes32",
          "name": "role",
          "type": "bytes32"
        },
        {
          "internalType": "address",
          "name": "account",
          "type": "address"
        }
      ],
      "name": "revokeRole",
      "outputs": [],
      "stateMutability": "nonpayable",
      "type": "function"
    },
    {
      "inputs": [
        {
          "internalType": "bytes4",
          "name": "interfaceId",
          "type": "bytes4"
        }
      ],
      "name": "supportsInterface",
      "outputs": [
        {
          "internalType": "bool",
          "name": "",
          "type": "bool"
        }
      ],
      "stateMutability": "view",
      "type": "function"
    },
    {
      "inputs": [
        {
          "internalType": "address",
          "name": "_newTrustedForwarder",
          "type": "address"
        }
      ],
      "name": "upgradeTrustedForwarder",
      "outputs": [],
      "stateMutability": "nonpayable",
      "type": "function"
    }
  ],
  "bytecode": "0x60806040523480156200001157600080fd5b5060405162000e7738038062000e778339810160408190526200003491620001a7565b600080546001600160a01b0319166001600160a01b03831617815562000064906200005e6200009a565b620000b6565b620000937fb19546dff01e856fb3f010c267a7b1c60363cf8a4664e21cc89c26224620214e6200005e6200009a565b50620001d9565b6000620000b1620000c660201b620003721760201c565b905090565b620000c28282620000fc565b5050565b600080546001600160a01b03163303620000e7575060131936013560601c90565b620000b1620001a360201b620003c71760201c565b60008281526001602090815260408083206001600160a01b038516845290915290205460ff16620000c25760008281526001602081815260408084206001600160a01b0386168552909152909120805460ff191690911790556200015f6200009a565b6001600160a01b0316816001600160a01b0316837f2f8788117e7eff1d82e926ec794901d17c78024a50270940304540a733656f0d60405160405180910390a45050565b3390565b600060208284031215620001ba57600080fd5b81516001600160a01b0381168114620001d257600080fd5b9392505050565b610c8e80620001e96000396000f3fe608060405234801561001057600080fd5b50600436106100a35760003560e01c8063572b6c0511610076578063a217fddf1161005b578063a217fddf1461019f578063aa2a7eea146101a7578063d547741f146101ba57600080fd5b8063572b6c051461012a57806391d148541461015957600080fd5b806301ffc9a7146100a8578063248a9ca3146100d05780632f2ff15d1461010257806336568abe14610117575b600080fd5b6100bb6100b6366004610985565b6101cd565b60405190151581526020015b60405180910390f35b6100f46100de3660046109c7565b6000908152600160208190526040909120015490565b6040519081526020016100c7565b610115610110366004610a09565b6101de565b005b610115610125366004610a09565b610209565b6100bb610138366004610a35565b60005473ffffffffffffffffffffffffffffffffffffffff91821691161490565b6100bb610167366004610a09565b600091825260016020908152604080842073ffffffffffffffffffffffffffffffffffffffff93909316845291905290205460ff1690565b6100f4600081565b6101156101b5366004610a35565b6102de565b6101156101c8366004610a09565b61034c565b60006101d8826103cb565b92915050565b600082815260016020819052604090912001546101fa81610462565b6102048383610476565b505050565b61021161056c565b73ffffffffffffffffffffffffffffffffffffffff168173ffffffffffffffffffffffffffffffffffffffff16146102d0576040517f08c379a000000000000000000000000000000000000000000000000000000000815260206004820152602f60248201527f416363657373436f6e74726f6c3a2063616e206f6e6c792072656e6f756e636560448201527f20726f6c657320666f722073656c66000000000000000000000000000000000060648201526084015b60405180910390fd5b6102da8282610576565b5050565b7fb19546dff01e856fb3f010c267a7b1c60363cf8a4664e21cc89c26224620214e61030881610462565b600080547fffffffffffffffffffffffff00000000000000000000000000000000000000001673ffffffffffffffffffffffffffffffffffffffff84161790555050565b6000828152600160208190526040909120015461036881610462565b6102048383610576565b6000805473ffffffffffffffffffffffffffffffffffffffff1633036103bd57507fffffffffffffffffffffffffffffffffffffffffffffffffffffffffffffffec36013560601c90565b503390565b905090565b3390565b60007fffffffff0000000000000000000000000000000000000000000000000000000082167f7965db0b0000000000000000000000000000000000000000000000000000000014806101d857507f01ffc9a7000000000000000000000000000000000000000000000000000000007fffffffff000000000000000000000000000000000000000000000000000000008316146101d8565b6104738161046e61056c565b610669565b50565b600082815260016020908152604080832073ffffffffffffffffffffffffffffffffffffffff8516845290915290205460ff166102da57600082815260016020818152604080842073ffffffffffffffffffffffffffffffffffffffff8616855290915290912080547fffffffffffffffffffffffffffffffffffffffffffffffffffffffffffffff0016909117905561050e61056c565b73ffffffffffffffffffffffffffffffffffffffff168173ffffffffffffffffffffffffffffffffffffffff16837f2f8788117e7eff1d82e926ec794901d17c78024a50270940304540a733656f0d60405160405180910390a45050565b60006103c2610372565b600082815260016020908152604080832073ffffffffffffffffffffffffffffffffffffffff8516845290915290205460ff16156102da57600082815260016020908152604080832073ffffffffffffffffffffffffffffffffffffffff85168452909152902080547fffffffffffffffffffffffffffffffffffffffffffffffffffffffffffffff0016905561060b61056c565b73ffffffffffffffffffffffffffffffffffffffff168173ffffffffffffffffffffffffffffffffffffffff16837ff6391f5c32d9c69d2a47ea670b442974b53935d1edc7fd64eb21e047a839171b60405160405180910390a45050565b600082815260016020908152604080832073ffffffffffffffffffffffffffffffffffffffff8516845290915290205460ff166102da576106c18173ffffffffffffffffffffffffffffffffffffffff16601461073b565b6106cc83602061073b565b6040516020016106dd929190610a74565b604080517fffffffffffffffffffffffffffffffffffffffffffffffffffffffffffffffe0818403018152908290527f08c379a00000000000000000000000000000000000000000000000000000000082526102c791600401610af5565b6060600061074a836002610b75565b610755906002610bb2565b67ffffffffffffffff81111561076d5761076d610bc5565b6040519080825280601f01601f191660200182016040528015610797576020820181803683370190505b5090507f3000000000000000000000000000000000000000000000000000000000000000816000815181106107ce576107ce610bf4565b60200101907effffffffffffffffffffffffffffffffffffffffffffffffffffffffffffff1916908160001a9053507f78000000000000000000000000000000000000000000000000000000000000008160018151811061083157610831610bf4565b60200101907effffffffffffffffffffffffffffffffffffffffffffffffffffffffffffff1916908160001a905350600061086d846002610b75565b610878906001610bb2565b90505b6001811115610915577f303132333435363738396162636465660000000000000000000000000000000085600f16601081106108b9576108b9610bf4565b1a60f81b8282815181106108cf576108cf610bf4565b60200101907effffffffffffffffffffffffffffffffffffffffffffffffffffffffffffff1916908160001a90535060049490941c9361090e81610c23565b905061087b565b50831561097e576040517f08c379a000000000000000000000000000000000000000000000000000000000815260206004820181905260248201527f537472696e67733a20686578206c656e67746820696e73756666696369656e7460448201526064016102c7565b9392505050565b60006020828403121561099757600080fd5b81357fffffffff000000000000000000000000000000000000000000000000000000008116811461097e57600080fd5b6000602082840312156109d957600080fd5b5035919050565b803573ffffffffffffffffffffffffffffffffffffffff81168114610a0457600080fd5b919050565b60008060408385031215610a1c57600080fd5b82359150610a2c602084016109e0565b90509250929050565b600060208284031215610a4757600080fd5b61097e826109e0565b60005b83811015610a6b578181015183820152602001610a53565b50506000910152565b7f416363657373436f6e74726f6c3a206163636f756e7420000000000000000000815260008351610aac816017850160208801610a50565b7f206973206d697373696e6720726f6c65200000000000000000000000000000006017918401918201528351610ae9816028840160208801610a50565b01602801949350505050565b6020815260008251806020840152610b14816040850160208701610a50565b601f017fffffffffffffffffffffffffffffffffffffffffffffffffffffffffffffffe0169190910160400192915050565b7f4e487b7100000000000000000000000000000000000000000000000000000000600052601160045260246000fd5b6000817fffffffffffffffffffffffffffffffffffffffffffffffffffffffffffffffff0483118215151615610bad57610bad610b46565b500290565b808201808211156101d8576101d8610b46565b7f4e487b7100000000000000000000000000000000000000000000000000000000600052604160045260246000fd5b7f4e487b7100000000000000000000000000000000000000000000000000000000600052603260045260246000fd5b600081610c3257610c32610b46565b507fffffffffffffffffffffffffffffffffffffffffffffffffffffffffffffffff019056fea2646970667358221220da2bb6042f8b7f1b2a36090277169a3cada54ba23880b23edde7bf685e692fb764736f6c63430008100033",
  "linkReferences": {},
  "deployedLinkReferences": {}
}