{
  "_format": "hh-sol-artifact-1",
  "contractName": "ERC1155_Game_Items",
  "sourceName": "contracts/Items/ERC1155_Game_Items.sol",
  "abi": [
    {
      "inputs": [
        {
          "internalType": "address",
          "name": "_forwarder",
          "type": "address"
        }
      ],
      "stateMutability": "nonpayable",
      "type": "constructor"
    },
    {
      "anonymous": false,
      "inputs": [
        {
          "indexed": true,
          "internalType": "address",
          "name": "account",
          "type": "address"
        },
        {
          "indexed": true,
          "internalType": "address",
          "name": "operator",
          "type": "address"
        },
        {
          "indexed": false,
          "internalType": "bool",
          "name": "approved",
          "type": "bool"
        }
      ],
      "name": "ApprovalForAll",
      "type": "event"
    },
    {
      "anonymous": false,
      "inputs": [
        {
          "indexed": true,
          "internalType": "bytes32",
          "name": "role",
          "type": "bytes32"
        },
        {
          "indexed": true,
          "internalType": "bytes32",
          "name": "previousAdminRole",
          "type": "bytes32"
        },
        {
          "indexed": true,
          "internalType": "bytes32",
          "name": "newAdminRole",
          "type": "bytes32"
        }
      ],
      "name": "RoleAdminChanged",
      "type": "event"
    },
    {
      "anonymous": false,
      "inputs": [
        {
          "indexed": true,
          "internalType": "bytes32",
          "name": "role",
          "type": "bytes32"
        },
        {
          "indexed": true,
          "internalType": "address",
          "name": "account",
          "type": "address"
        },
        {
          "indexed": true,
          "internalType": "address",
          "name": "sender",
          "type": "address"
        }
      ],
      "name": "RoleGranted",
      "type": "event"
    },
    {
      "anonymous": false,
      "inputs": [
        {
          "indexed": true,
          "internalType": "bytes32",
          "name": "role",
          "type": "bytes32"
        },
        {
          "indexed": true,
          "internalType": "address",
          "name": "account",
          "type": "address"
        },
        {
          "indexed": true,
          "internalType": "address",
          "name": "sender",
          "type": "address"
        }
      ],
      "name": "RoleRevoked",
      "type": "event"
    },
    {
      "anonymous": false,
      "inputs": [
        {
          "indexed": true,
          "internalType": "address",
          "name": "operator",
          "type": "address"
        },
        {
          "indexed": true,
          "internalType": "address",
          "name": "from",
          "type": "address"
        },
        {
          "indexed": true,
          "internalType": "address",
          "name": "to",
          "type": "address"
        },
        {
          "indexed": false,
          "internalType": "uint256[]",
          "name": "ids",
          "type": "uint256[]"
        },
        {
          "indexed": false,
          "internalType": "uint256[]",
          "name": "values",
          "type": "uint256[]"
        }
      ],
      "name": "TransferBatch",
      "type": "event"
    },
    {
      "anonymous": false,
      "inputs": [
        {
          "indexed": true,
          "internalType": "address",
          "name": "operator",
          "type": "address"
        },
        {
          "indexed": true,
          "internalType": "address",
          "name": "from",
          "type": "address"
        },
        {
          "indexed": true,
          "internalType": "address",
          "name": "to",
          "type": "address"
        },
        {
          "indexed": false,
          "internalType": "uint256",
          "name": "id",
          "type": "uint256"
        },
        {
          "indexed": false,
          "internalType": "uint256",
          "name": "value",
          "type": "uint256"
        }
      ],
      "name": "TransferSingle",
      "type": "event"
    },
    {
      "anonymous": false,
      "inputs": [
        {
          "indexed": false,
          "internalType": "string",
          "name": "value",
          "type": "string"
        },
        {
          "indexed": true,
          "internalType": "uint256",
          "name": "id",
          "type": "uint256"
        }
      ],
      "name": "URI",
      "type": "event"
    },
    {
      "inputs": [],
      "name": "DEFAULT_ADMIN_ROLE",
      "outputs": [
        {
          "internalType": "bytes32",
          "name": "",
          "type": "bytes32"
        }
      ],
      "stateMutability": "view",
      "type": "function"
    },
    {
      "inputs": [],
      "name": "allItemIds",
      "outputs": [
        {
          "internalType": "uint256[]",
          "name": "",
          "type": "uint256[]"
        }
      ],
      "stateMutability": "view",
      "type": "function"
    },
    {
      "inputs": [
        {
          "internalType": "address",
          "name": "account",
          "type": "address"
        },
        {
          "internalType": "uint256",
          "name": "id",
          "type": "uint256"
        }
      ],
      "name": "balanceOf",
      "outputs": [
        {
          "internalType": "uint256",
          "name": "",
          "type": "uint256"
        }
      ],
      "stateMutability": "view",
      "type": "function"
    },
    {
      "inputs": [
        {
          "internalType": "address[]",
          "name": "accounts",
          "type": "address[]"
        },
        {
          "internalType": "uint256[]",
          "name": "ids",
          "type": "uint256[]"
        }
      ],
      "name": "balanceOfBatch",
      "outputs": [
        {
          "internalType": "uint256[]",
          "name": "",
          "type": "uint256[]"
        }
      ],
      "stateMutability": "view",
      "type": "function"
    },
    {
      "inputs": [
        {
          "internalType": "address[]",
          "name": "_toAddresses",
          "type": "address[]"
        },
        {
          "internalType": "uint256[]",
          "name": "_itemIds",
          "type": "uint256[]"
        },
        {
          "internalType": "uint256[]",
          "name": "_quantitiesPerAddress",
          "type": "uint256[]"
        }
      ],
      "name": "bulkSafeBatchTransfer",
      "outputs": [],
      "stateMutability": "nonpayable",
      "type": "function"
    },
    {
      "inputs": [
        {
          "internalType": "address[]",
          "name": "_toAddresses",
          "type": "address[]"
        },
        {
          "internalType": "uint256",
          "name": "_itemId",
          "type": "uint256"
        },
        {
          "internalType": "uint256",
          "name": "_quantityPerAddress",
          "type": "uint256"
        }
      ],
      "name": "bulkSafeTransfer",
      "outputs": [],
      "stateMutability": "nonpayable",
      "type": "function"
    },
    {
      "inputs": [
        {
          "internalType": "uint256[]",
          "name": "_itemIds",
          "type": "uint256[]"
        },
        {
          "internalType": "string[]",
          "name": "_uris",
          "type": "string[]"
        }
      ],
      "name": "bulkSetItemURIs",
      "outputs": [],
      "stateMutability": "nonpayable",
      "type": "function"
    },
    {
      "inputs": [
        {
          "internalType": "uint256",
          "name": "_itemId",
          "type": "uint256"
        },
        {
          "internalType": "uint256",
          "name": "_quantity",
          "type": "uint256"
        }
      ],
      "name": "burn",
      "outputs": [],
      "stateMutability": "nonpayable",
      "type": "function"
    },
    {
      "inputs": [
        {
          "internalType": "address",
          "name": "_fromAddress",
          "type": "address"
        },
        {
          "internalType": "uint256[]",
          "name": "_itemIds",
          "type": "uint256[]"
        },
        {
          "internalType": "uint256[]",
          "name": "_quantities",
          "type": "uint256[]"
        }
      ],
      "name": "burnBatchFromAddress",
      "outputs": [],
      "stateMutability": "nonpayable",
      "type": "function"
    },
    {
      "inputs": [
        {
          "internalType": "address",
          "name": "_fromAddress",
          "type": "address"
        },
        {
          "internalType": "uint256",
          "name": "_itemId",
          "type": "uint256"
        },
        {
          "internalType": "uint256",
          "name": "_quantity",
          "type": "uint256"
        }
      ],
      "name": "burnFromAddress",
      "outputs": [],
      "stateMutability": "nonpayable",
      "type": "function"
    },
    {
      "inputs": [
        {
          "internalType": "bytes32",
          "name": "role",
          "type": "bytes32"
        }
      ],
      "name": "getRoleAdmin",
      "outputs": [
        {
          "internalType": "bytes32",
          "name": "",
          "type": "bytes32"
        }
      ],
      "stateMutability": "view",
      "type": "function"
    },
    {
      "inputs": [
        {
          "internalType": "bytes32",
          "name": "role",
          "type": "bytes32"
        },
        {
          "internalType": "address",
          "name": "account",
          "type": "address"
        }
      ],
      "name": "grantRole",
      "outputs": [],
      "stateMutability": "nonpayable",
      "type": "function"
    },
    {
      "inputs": [
        {
          "internalType": "bytes32",
          "name": "role",
          "type": "bytes32"
        },
        {
          "internalType": "address",
          "name": "account",
          "type": "address"
        }
      ],
      "name": "hasRole",
      "outputs": [
        {
          "internalType": "bool",
          "name": "",
          "type": "bool"
        }
      ],
      "stateMutability": "view",
      "type": "function"
    },
    {
      "inputs": [
        {
          "internalType": "address",
          "name": "account",
          "type": "address"
        },
        {
          "internalType": "address",
          "name": "operator",
          "type": "address"
        }
      ],
      "name": "isApprovedForAll",
      "outputs": [
        {
          "internalType": "bool",
          "name": "",
          "type": "bool"
        }
      ],
      "stateMutability": "view",
      "type": "function"
    },
    {
      "inputs": [
        {
          "internalType": "uint256",
          "name": "_itemId",
          "type": "uint256"
        }
      ],
      "name": "isItemTransferrable",
      "outputs": [
        {
          "internalType": "bool",
          "name": "",
          "type": "bool"
        }
      ],
      "stateMutability": "view",
      "type": "function"
    },
    {
      "inputs": [
        {
          "internalType": "address",
          "name": "forwarder",
          "type": "address"
        }
      ],
      "name": "isTrustedForwarder",
      "outputs": [
        {
          "internalType": "bool",
          "name": "",
          "type": "bool"
        }
      ],
      "stateMutability": "view",
      "type": "function"
    },
    {
      "inputs": [
        {
          "internalType": "uint256",
          "name": "_itemId",
          "type": "uint256"
        }
      ],
      "name": "itemExists",
      "outputs": [
        {
          "internalType": "bool",
          "name": "",
          "type": "bool"
        }
      ],
      "stateMutability": "view",
      "type": "function"
    },
    {
      "inputs": [
        {
          "internalType": "uint256",
          "name": "",
          "type": "uint256"
        }
      ],
      "name": "itemIds",
      "outputs": [
        {
          "internalType": "uint256",
          "name": "",
          "type": "uint256"
        }
      ],
      "stateMutability": "view",
      "type": "function"
    },
    {
      "inputs": [
        {
          "internalType": "uint256",
          "name": "",
          "type": "uint256"
        }
      ],
      "name": "itemSupplies",
      "outputs": [
        {
          "internalType": "uint256",
          "name": "",
          "type": "uint256"
        }
      ],
      "stateMutability": "view",
      "type": "function"
    },
    {
      "inputs": [
        {
          "internalType": "uint256",
          "name": "",
          "type": "uint256"
        }
      ],
      "name": "itemTransferTimelocks",
      "outputs": [
        {
          "internalType": "uint256",
          "name": "",
          "type": "uint256"
        }
      ],
      "stateMutability": "view",
      "type": "function"
    },
    {
      "inputs": [
        {
          "internalType": "uint256",
          "name": "",
          "type": "uint256"
        }
      ],
      "name": "itemURIs",
      "outputs": [
        {
          "internalType": "string",
          "name": "",
          "type": "string"
        }
      ],
      "stateMutability": "view",
      "type": "function"
    },
    {
      "inputs": [
        {
          "internalType": "address",
          "name": "_toAddress",
          "type": "address"
        },
        {
          "internalType": "uint256[]",
          "name": "_itemIds",
          "type": "uint256[]"
        },
        {
          "internalType": "uint256[]",
          "name": "_quantities",
          "type": "uint256[]"
        }
      ],
      "name": "mintBatchToAddress",
      "outputs": [],
      "stateMutability": "nonpayable",
      "type": "function"
    },
    {
      "inputs": [
        {
          "internalType": "address",
          "name": "_toAddress",
          "type": "address"
        },
        {
          "internalType": "uint256",
          "name": "_itemId",
          "type": "uint256"
        },
        {
          "internalType": "uint256",
          "name": "_quantity",
          "type": "uint256"
        }
      ],
      "name": "mintToAddress",
      "outputs": [],
      "stateMutability": "nonpayable",
      "type": "function"
    },
    {
      "inputs": [
        {
          "internalType": "bytes32",
          "name": "role",
          "type": "bytes32"
        },
        {
          "internalType": "address",
          "name": "account",
          "type": "address"
        }
      ],
      "name": "renounceRole",
      "outputs": [],
      "stateMutability": "nonpayable",
      "type": "function"
    },
    {
      "inputs": [
        {
          "internalType": "bytes32",
          "name": "role",
          "type": "bytes32"
        },
        {
          "internalType": "address",
          "name": "account",
          "type": "address"
        }
      ],
      "name": "revokeRole",
      "outputs": [],
      "stateMutability": "nonpayable",
      "type": "function"
    },
    {
      "inputs": [
        {
          "internalType": "address",
          "name": "from",
          "type": "address"
        },
        {
          "internalType": "address",
          "name": "to",
          "type": "address"
        },
        {
          "internalType": "uint256[]",
          "name": "ids",
          "type": "uint256[]"
        },
        {
          "internalType": "uint256[]",
          "name": "amounts",
          "type": "uint256[]"
        },
        {
          "internalType": "bytes",
          "name": "data",
          "type": "bytes"
        }
      ],
      "name": "safeBatchTransferFrom",
      "outputs": [],
      "stateMutability": "nonpayable",
      "type": "function"
    },
    {
      "inputs": [
        {
          "internalType": "address",
          "name": "from",
          "type": "address"
        },
        {
          "internalType": "address",
          "name": "to",
          "type": "address"
        },
        {
          "internalType": "uint256",
          "name": "id",
          "type": "uint256"
        },
        {
          "internalType": "uint256",
          "name": "amount",
          "type": "uint256"
        },
        {
          "internalType": "bytes",
          "name": "data",
          "type": "bytes"
        }
      ],
      "name": "safeTransferFrom",
      "outputs": [],
      "stateMutability": "nonpayable",
      "type": "function"
    },
    {
      "inputs": [
        {
          "internalType": "address",
          "name": "operator",
          "type": "address"
        },
        {
          "internalType": "bool",
          "name": "approved",
          "type": "bool"
        }
      ],
      "name": "setApprovalForAll",
      "outputs": [],
      "stateMutability": "nonpayable",
      "type": "function"
    },
    {
      "inputs": [
        {
          "internalType": "uint256",
          "name": "_itemId",
          "type": "uint256"
        },
        {
          "internalType": "uint256",
          "name": "_unlockTimestamp",
          "type": "uint256"
        }
      ],
      "name": "setItemTransferTimelock",
      "outputs": [],
      "stateMutability": "nonpayable",
      "type": "function"
    },
    {
      "inputs": [
        {
          "internalType": "uint256",
          "name": "_itemId",
          "type": "uint256"
        },
        {
          "internalType": "string",
          "name": "_uri",
          "type": "string"
        }
      ],
      "name": "setItemURI",
      "outputs": [],
      "stateMutability": "nonpayable",
      "type": "function"
    },
    {
      "inputs": [
        {
          "internalType": "bytes4",
          "name": "interfaceId",
          "type": "bytes4"
        }
      ],
      "name": "supportsInterface",
      "outputs": [
        {
          "internalType": "bool",
          "name": "",
          "type": "bool"
        }
      ],
      "stateMutability": "view",
      "type": "function"
    },
    {
      "inputs": [],
      "name": "totalItemIds",
      "outputs": [
        {
          "internalType": "uint256",
          "name": "",
          "type": "uint256"
        }
      ],
      "stateMutability": "view",
      "type": "function"
    },
    {
      "inputs": [
        {
          "internalType": "address",
          "name": "_newTrustedForwarder",
          "type": "address"
        }
      ],
      "name": "upgradeTrustedForwarder",
      "outputs": [],
      "stateMutability": "nonpayable",
      "type": "function"
    },
    {
      "inputs": [
        {
          "internalType": "uint256",
          "name": "_itemId",
          "type": "uint256"
        }
      ],
      "name": "uri",
      "outputs": [
        {
          "internalType": "string",
          "name": "",
          "type": "string"
        }
      ],
      "stateMutability": "view",
      "type": "function"
    }
  ],
  "bytecode": "0x60806040523480156200001157600080fd5b50604051620043d4380380620043d48339810160408190526200003491620001d9565b60408051602081019091526000815281906200005081620000bd565b50600380546001600160a01b0319166001600160a01b039290921691909117905562000087600062000081620000cf565b620000eb565b620000b67fc9fc9949603a50f5cc3a96f774f1d68287789a241d2082dc81d0fb19a53bcf2b62000081620000cf565b506200037c565b6002620000cb8282620002b0565b5050565b6000620000e6620000f760201b620013aa1760201c565b905090565b620000cb82826200012f565b6003546000906001600160a01b031633036200011a575060131936013560601c90565b620000e6620001d560201b620014041760201c565b60008281526004602090815260408083206001600160a01b038516845290915290205460ff16620000cb5760008281526004602090815260408083206001600160a01b03851684529091529020805460ff1916600117905562000191620000cf565b6001600160a01b0316816001600160a01b0316837f2f8788117e7eff1d82e926ec794901d17c78024a50270940304540a733656f0d60405160405180910390a45050565b3390565b600060208284031215620001ec57600080fd5b81516001600160a01b03811681146200020457600080fd5b9392505050565b634e487b7160e01b600052604160045260246000fd5b600181811c908216806200023657607f821691505b6020821081036200025757634e487b7160e01b600052602260045260246000fd5b50919050565b601f821115620002ab57600081815260208120601f850160051c81016020861015620002865750805b601f850160051c820191505b81811015620002a75782815560010162000292565b5050505b505050565b81516001600160401b03811115620002cc57620002cc6200020b565b620002e481620002dd845462000221565b846200025d565b602080601f8311600181146200031c5760008415620003035750858301515b600019600386901b1c1916600185901b178555620002a7565b600085815260208120601f198616915b828110156200034d578886015182559484019460019091019084016200032c565b50858210156200036c5787850151600019600388901b60f8161c191681555b5050505050600190811b01905550565b614048806200038c6000396000f3fe608060405234801561001057600080fd5b50600436106102255760003560e01c806358ec07c71161012a578063aa2a7eea116100bd578063b9babeba1161008c578063dc7aa9ef11610071578063dc7aa9ef1461052c578063e985e9c51461053f578063f242432a1461058857600080fd5b8063b9babeba14610506578063d547741f1461051957600080fd5b8063aa2a7eea146104ab578063ae06363f146104be578063b390c0ab146104e0578063b3dc00fe146104f357600080fd5b80638c892cfd116100f95780638c892cfd1461044257806391d148541461044a578063a217fddf14610490578063a22cb4651461049857600080fd5b806358ec07c7146103da5780635d814dea146103fa5780637bc6cb741461040d578063843bd6411461042057600080fd5b80632eb2c2d6116101bd57806348e1219a1161018c5780634e1273f4116101715780634e1273f414610378578063521eb72514610398578063572b6c05146103ab57600080fd5b806348e1219a1461035d5780634b7c78dc1461036557600080fd5b80632eb2c2d6146103115780632f2ff15d1461032457806335f637161461033757806336568abe1461034a57600080fd5b80630e89341c116101f95780630e89341c1461029b57806317d5f7d0146102bb5780632257eb7e146102ce578063248a9ca3146102ee57600080fd5b8062fdd58e1461022a57806301ffc9a71461025057806303cb92fc1461027357806308f427c714610288575b600080fd5b61023d610238366004613246565b61059b565b6040519081526020015b60405180910390f35b61026361025e36600461329e565b61067b565b6040519015158152602001610247565b6102866102813660046133c7565b6106d1565b005b61028661029636600461345a565b610719565b6102ae6102a93660046134db565b610860565b6040516102479190613562565b6102866102c9366004613575565b610902565b61023d6102dc3660046134db565b60066020526000908152604090205481565b61023d6102fc3660046134db565b60009081526004602052604090206001015490565b61028661031f3660046136a4565b6109d2565b61028661033236600461374e565b610ab3565b61028661034536600461377a565b610add565b61028661035836600461374e565b610b76565b60055461023d565b61028661037336600461345a565b610c46565b61038b61038636600461385f565b610d6b565b604051610247919061395b565b6102866103a636600461396e565b610ec3565b6102636103b93660046139bf565b60035473ffffffffffffffffffffffffffffffffffffffff91821691161490565b61023d6103e83660046134db565b60086020526000908152604090205481565b6102ae6104083660046134db565b610f29565b61028661041b3660046139da565b610fc3565b61026361042e3660046134db565b600090815260066020526040902054151590565b61038b611000565b61026361045836600461374e565b600091825260046020908152604080842073ffffffffffffffffffffffffffffffffffffffff93909316845291905290205460ff1690565b61023d600081565b6102866104a63660046139fc565b611058565b6102866104b93660046139bf565b61106a565b6102636104cc3660046134db565b600090815260086020526040902054421190565b6102866104ee3660046139da565b6110d8565b61023d6105013660046134db565b6110ea565b610286610514366004613a38565b61110b565b61028661052736600461374e565b6111c5565b61028661053a366004613a38565b6111ea565b61026361054d366004613a6b565b73ffffffffffffffffffffffffffffffffffffffff918216600090815260016020908152604080832093909416825291909152205460ff1690565b610286610596366004613a95565b6112c9565b600073ffffffffffffffffffffffffffffffffffffffff8316610645576040517f08c379a000000000000000000000000000000000000000000000000000000000815260206004820152602a60248201527f455243313135353a2061646472657373207a65726f206973206e6f742061207660448201527f616c6964206f776e65720000000000000000000000000000000000000000000060648201526084015b60405180910390fd5b5060008181526020818152604080832073ffffffffffffffffffffffffffffffffffffffff861684529091529020545b92915050565b60007fffffffff0000000000000000000000000000000000000000000000000000000082167fe75bea3a000000000000000000000000000000000000000000000000000000001480610675575061067582611408565b7fc9fc9949603a50f5cc3a96f774f1d68287789a241d2082dc81d0fb19a53bcf2b6106fb8161145e565b60008381526007602052604090206107138382613b93565b50505050565b6107457fc9fc9949603a50f5cc3a96f774f1d68287789a241d2082dc81d0fb19a53bcf2b610458611472565b8061077757506107777fc9eb32e43bf5ecbceacf00b32281dfc5d6d700a0db676ea26ccf938a385ac3f7610458611472565b6107dd576040517f08c379a000000000000000000000000000000000000000000000000000000000815260206004820152601760248201527f4e6f7420617574686f72697a656420746f206d696e742e000000000000000000604482015260640161063c565b610859858585808060200260200160405190810160405280939291908181526020018383602002808284376000920191909152505060408051602080890282810182019093528882529093508892508791829185019084908082843760009201829052506040805160208101909152908152925061147c915050565b5050505050565b600081815260076020526040902080546060919061087d90613afa565b80601f01602080910402602001604051908101604052809291908181526020018280546108a990613afa565b80156108f65780601f106108cb576101008083540402835291602001916108f6565b820191906000526020600020905b8154815290600101906020018083116108d957829003601f168201915b50505050509050919050565b60005b858110156109c9576109b7610918611472565b88888481811061092a5761092a613cad565b905060200201602081019061093f91906139bf565b87878080602002602001604051908101604052809392919081815260200183836020028082843760009201919091525050604080516020808b0282810182019093528a82529093508a9250899182918501908490808284376000920182905250604080516020810190915290815292506109d2915050565b806109c181613d0b565b915050610905565b50505050505050565b6109da611472565b73ffffffffffffffffffffffffffffffffffffffff168573ffffffffffffffffffffffffffffffffffffffff161480610a1a5750610a1a8561054d611472565b610aa6576040517f08c379a000000000000000000000000000000000000000000000000000000000815260206004820152602f60248201527f455243313135353a2063616c6c6572206973206e6f7420746f6b656e206f776e60448201527f6572206e6f7220617070726f7665640000000000000000000000000000000000606482015260840161063c565b610859858585858561170f565b600082815260046020526040902060010154610ace8161145e565b610ad88383611a5a565b505050565b7fc9fc9949603a50f5cc3a96f774f1d68287789a241d2082dc81d0fb19a53bcf2b610b078161145e565b60005b8381101561085957828181518110610b2457610b24613cad565b602002602001015160076000878785818110610b4257610b42613cad565b9050602002013581526020019081526020016000209081610b639190613b93565b5080610b6e81613d0b565b915050610b0a565b610b7e611472565b73ffffffffffffffffffffffffffffffffffffffff168173ffffffffffffffffffffffffffffffffffffffff1614610c38576040517f08c379a000000000000000000000000000000000000000000000000000000000815260206004820152602f60248201527f416363657373436f6e74726f6c3a2063616e206f6e6c792072656e6f756e636560448201527f20726f6c657320666f722073656c660000000000000000000000000000000000606482015260840161063c565b610c428282611b4f565b5050565b84610c4f611472565b73ffffffffffffffffffffffffffffffffffffffff168173ffffffffffffffffffffffffffffffffffffffff161480610c8f5750610c8f8161054d611472565b610cf5576040517f08c379a000000000000000000000000000000000000000000000000000000000815260206004820152601560248201527f4e6f7420617070726f76656420746f206275726e2e0000000000000000000000604482015260640161063c565b610d638686868080602002602001604051908101604052809392919081815260200183836020028082843760009201919091525050604080516020808a02828101820190935289825290935089925088918291850190849080828437600092019190915250611c4292505050565b505050505050565b60608151835114610dfe576040517f08c379a000000000000000000000000000000000000000000000000000000000815260206004820152602960248201527f455243313135353a206163636f756e747320616e6420696473206c656e67746860448201527f206d69736d617463680000000000000000000000000000000000000000000000606482015260840161063c565b6000835167ffffffffffffffff811115610e1a57610e1a6132bb565b604051908082528060200260200182016040528015610e43578160200160208202803683370190505b50905060005b8451811015610ebb57610e8e858281518110610e6757610e67613cad565b6020026020010151858381518110610e8157610e81613cad565b602002602001015161059b565b828281518110610ea057610ea0613cad565b6020908102919091010152610eb481613d0b565b9050610e49565b509392505050565b60005b8381101561085957610f17610ed9611472565b868684818110610eeb57610eeb613cad565b9050602002016020810190610f0091906139bf565b8585604051806020016040528060008152506112c9565b80610f2181613d0b565b915050610ec6565b60076020526000908152604090208054610f4290613afa565b80601f0160208091040260200160405190810160405280929190818152602001828054610f6e90613afa565b8015610fbb5780601f10610f9057610100808354040283529160200191610fbb565b820191906000526020600020905b815481529060010190602001808311610f9e57829003601f168201915b505050505081565b7fc9fc9949603a50f5cc3a96f774f1d68287789a241d2082dc81d0fb19a53bcf2b610fed8161145e565b5060009182526008602052604090912055565b6060600580548060200260200160405190810160405280929190818152602001828054801561104e57602002820191906000526020600020905b81548152602001906001019080831161103a575b5050505050905090565b610c42611063611472565b8383611f82565b7fc9fc9949603a50f5cc3a96f774f1d68287789a241d2082dc81d0fb19a53bcf2b6110948161145e565b600380547fffffffffffffffffffffffff00000000000000000000000000000000000000001673ffffffffffffffffffffffffffffffffffffffff84161790555050565b610c426110e3611472565b83836120d5565b600581815481106110fa57600080fd5b600091825260209091200154905081565b82611114611472565b73ffffffffffffffffffffffffffffffffffffffff168173ffffffffffffffffffffffffffffffffffffffff16148061115457506111548161054d611472565b6111ba576040517f08c379a000000000000000000000000000000000000000000000000000000000815260206004820152601560248201527f4e6f7420617070726f76656420746f206275726e2e0000000000000000000000604482015260640161063c565b6107138484846120d5565b6000828152600460205260409020600101546111e08161145e565b610ad88383611b4f565b6112167fc9fc9949603a50f5cc3a96f774f1d68287789a241d2082dc81d0fb19a53bcf2b610458611472565b8061124857506112487fc9eb32e43bf5ecbceacf00b32281dfc5d6d700a0db676ea26ccf938a385ac3f7610458611472565b6112ae576040517f08c379a000000000000000000000000000000000000000000000000000000000815260206004820152601760248201527f4e6f7420617574686f72697a656420746f206d696e742e000000000000000000604482015260640161063c565b610ad8838383604051806020016040528060008152506122fe565b6112d1611472565b73ffffffffffffffffffffffffffffffffffffffff168573ffffffffffffffffffffffffffffffffffffffff16148061131157506113118561054d611472565b61139d576040517f08c379a000000000000000000000000000000000000000000000000000000000815260206004820152602f60248201527f455243313135353a2063616c6c6572206973206e6f7420746f6b656e206f776e60448201527f6572206e6f7220617070726f7665640000000000000000000000000000000000606482015260840161063c565b6108598585858585612480565b60035460009073ffffffffffffffffffffffffffffffffffffffff1633036113f757507fffffffffffffffffffffffffffffffffffffffffffffffffffffffffffffffec36013560601c90565b503390565b905090565b90565b3390565b60007fffffffff0000000000000000000000000000000000000000000000000000000082167f7965db0b0000000000000000000000000000000000000000000000000000000014806106755750610675826126d7565b61146f8161146a611472565b6127ba565b50565b60006113fc6113aa565b73ffffffffffffffffffffffffffffffffffffffff841661151f576040517f08c379a000000000000000000000000000000000000000000000000000000000815260206004820152602160248201527f455243313135353a206d696e7420746f20746865207a65726f2061646472657360448201527f7300000000000000000000000000000000000000000000000000000000000000606482015260840161063c565b81518351146115b0576040517f08c379a000000000000000000000000000000000000000000000000000000000815260206004820152602860248201527f455243313135353a2069647320616e6420616d6f756e7473206c656e6774682060448201527f6d69736d61746368000000000000000000000000000000000000000000000000606482015260840161063c565b60006115ba611472565b90506115cb8160008787878761288c565b60005b8451811015611680578381815181106115e9576115e9613cad565b602002602001015160008087848151811061160657611606613cad565b6020026020010151815260200190815260200160002060008873ffffffffffffffffffffffffffffffffffffffff1673ffffffffffffffffffffffffffffffffffffffff16815260200190815260200160002060008282546116689190613d43565b9091555081905061167881613d0b565b9150506115ce565b508473ffffffffffffffffffffffffffffffffffffffff16600073ffffffffffffffffffffffffffffffffffffffff168273ffffffffffffffffffffffffffffffffffffffff167f4a39dc06d4c0dbc64b70af90fd698a233a518aa5d07e595d983b8c0526c8f7fb87876040516116f8929190613d56565b60405180910390a461085981600087878787612b51565b81518351146117a0576040517f08c379a000000000000000000000000000000000000000000000000000000000815260206004820152602860248201527f455243313135353a2069647320616e6420616d6f756e7473206c656e6774682060448201527f6d69736d61746368000000000000000000000000000000000000000000000000606482015260840161063c565b73ffffffffffffffffffffffffffffffffffffffff8416611843576040517f08c379a000000000000000000000000000000000000000000000000000000000815260206004820152602560248201527f455243313135353a207472616e7366657220746f20746865207a65726f20616460448201527f6472657373000000000000000000000000000000000000000000000000000000606482015260840161063c565b600061184d611472565b905061185d81878787878761288c565b60005b84518110156119cd57600085828151811061187d5761187d613cad565b60200260200101519050600085838151811061189b5761189b613cad565b6020908102919091018101516000848152808352604080822073ffffffffffffffffffffffffffffffffffffffff8e168352909352919091205490915081811015611968576040517f08c379a000000000000000000000000000000000000000000000000000000000815260206004820152602a60248201527f455243313135353a20696e73756666696369656e742062616c616e636520666f60448201527f72207472616e7366657200000000000000000000000000000000000000000000606482015260840161063c565b60008381526020818152604080832073ffffffffffffffffffffffffffffffffffffffff8e8116855292528083208585039055908b168252812080548492906119b2908490613d43565b92505081905550505050806119c690613d0b565b9050611860565b508473ffffffffffffffffffffffffffffffffffffffff168673ffffffffffffffffffffffffffffffffffffffff168273ffffffffffffffffffffffffffffffffffffffff167f4a39dc06d4c0dbc64b70af90fd698a233a518aa5d07e595d983b8c0526c8f7fb8787604051611a44929190613d56565b60405180910390a4610d63818787878787612b51565b600082815260046020908152604080832073ffffffffffffffffffffffffffffffffffffffff8516845290915290205460ff16610c4257600082815260046020908152604080832073ffffffffffffffffffffffffffffffffffffffff85168452909152902080547fffffffffffffffffffffffffffffffffffffffffffffffffffffffffffffff00166001179055611af1611472565b73ffffffffffffffffffffffffffffffffffffffff168173ffffffffffffffffffffffffffffffffffffffff16837f2f8788117e7eff1d82e926ec794901d17c78024a50270940304540a733656f0d60405160405180910390a45050565b600082815260046020908152604080832073ffffffffffffffffffffffffffffffffffffffff8516845290915290205460ff1615610c4257600082815260046020908152604080832073ffffffffffffffffffffffffffffffffffffffff85168452909152902080547fffffffffffffffffffffffffffffffffffffffffffffffffffffffffffffff00169055611be4611472565b73ffffffffffffffffffffffffffffffffffffffff168173ffffffffffffffffffffffffffffffffffffffff16837ff6391f5c32d9c69d2a47ea670b442974b53935d1edc7fd64eb21e047a839171b60405160405180910390a45050565b73ffffffffffffffffffffffffffffffffffffffff8316611ce5576040517f08c379a000000000000000000000000000000000000000000000000000000000815260206004820152602360248201527f455243313135353a206275726e2066726f6d20746865207a65726f206164647260448201527f6573730000000000000000000000000000000000000000000000000000000000606482015260840161063c565b8051825114611d76576040517f08c379a000000000000000000000000000000000000000000000000000000000815260206004820152602860248201527f455243313135353a2069647320616e6420616d6f756e7473206c656e6774682060448201527f6d69736d61746368000000000000000000000000000000000000000000000000606482015260840161063c565b6000611d80611472565b9050611da08185600086866040518060200160405280600081525061288c565b60005b8351811015611eee576000848281518110611dc057611dc0613cad565b602002602001015190506000848381518110611dde57611dde613cad565b6020908102919091018101516000848152808352604080822073ffffffffffffffffffffffffffffffffffffffff8c168352909352919091205490915081811015611eaa576040517f08c379a0000000000000000000000000000000000000000000000000000000008152602060048201526024808201527f455243313135353a206275726e20616d6f756e7420657863656564732062616c60448201527f616e636500000000000000000000000000000000000000000000000000000000606482015260840161063c565b60009283526020838152604080852073ffffffffffffffffffffffffffffffffffffffff8b1686529091529092209103905580611ee681613d0b565b915050611da3565b50600073ffffffffffffffffffffffffffffffffffffffff168473ffffffffffffffffffffffffffffffffffffffff168273ffffffffffffffffffffffffffffffffffffffff167f4a39dc06d4c0dbc64b70af90fd698a233a518aa5d07e595d983b8c0526c8f7fb8686604051611f66929190613d56565b60405180910390a4604080516020810190915260009052610713565b8173ffffffffffffffffffffffffffffffffffffffff168373ffffffffffffffffffffffffffffffffffffffff160361203d576040517f08c379a000000000000000000000000000000000000000000000000000000000815260206004820152602960248201527f455243313135353a2073657474696e6720617070726f76616c2073746174757360448201527f20666f722073656c660000000000000000000000000000000000000000000000606482015260840161063c565b73ffffffffffffffffffffffffffffffffffffffff83811660008181526001602090815260408083209487168084529482529182902080547fffffffffffffffffffffffffffffffffffffffffffffffffffffffffffffff001686151590811790915591519182527f17307eab39ab6107e8899845ad3d59bd9653f200f220920489ca2b5937696c31910160405180910390a3505050565b73ffffffffffffffffffffffffffffffffffffffff8316612178576040517f08c379a000000000000000000000000000000000000000000000000000000000815260206004820152602360248201527f455243313135353a206275726e2066726f6d20746865207a65726f206164647260448201527f6573730000000000000000000000000000000000000000000000000000000000606482015260840161063c565b6000612182611472565b9050600061218f84612ddb565b9050600061219c84612ddb565b90506121bc8387600085856040518060200160405280600081525061288c565b60008581526020818152604080832073ffffffffffffffffffffffffffffffffffffffff8a16845290915290205484811015612279576040517f08c379a0000000000000000000000000000000000000000000000000000000008152602060048201526024808201527f455243313135353a206275726e20616d6f756e7420657863656564732062616c60448201527f616e636500000000000000000000000000000000000000000000000000000000606482015260840161063c565b60008681526020818152604080832073ffffffffffffffffffffffffffffffffffffffff8b81168086529184528285208a8703905582518b81529384018a90529092908816917fc3d58168c5ae7397731d063d5bbf3d657854427343f4c083240f7aacaa2d0f62910160405180910390a46040805160208101909152600090526109c9565b73ffffffffffffffffffffffffffffffffffffffff84166123a1576040517f08c379a000000000000000000000000000000000000000000000000000000000815260206004820152602160248201527f455243313135353a206d696e7420746f20746865207a65726f2061646472657360448201527f7300000000000000000000000000000000000000000000000000000000000000606482015260840161063c565b60006123ab611472565b905060006123b885612ddb565b905060006123c585612ddb565b90506123d68360008985858961288c565b60008681526020818152604080832073ffffffffffffffffffffffffffffffffffffffff8b16845290915281208054879290612413908490613d43565b9091555050604080518781526020810187905273ffffffffffffffffffffffffffffffffffffffff808a1692600092918716917fc3d58168c5ae7397731d063d5bbf3d657854427343f4c083240f7aacaa2d0f62910160405180910390a46109c983600089898989612e26565b73ffffffffffffffffffffffffffffffffffffffff8416612523576040517f08c379a000000000000000000000000000000000000000000000000000000000815260206004820152602560248201527f455243313135353a207472616e7366657220746f20746865207a65726f20616460448201527f6472657373000000000000000000000000000000000000000000000000000000606482015260840161063c565b600061252d611472565b9050600061253a85612ddb565b9050600061254785612ddb565b905061255783898985858961288c565b60008681526020818152604080832073ffffffffffffffffffffffffffffffffffffffff8c16845290915290205485811015612615576040517f08c379a000000000000000000000000000000000000000000000000000000000815260206004820152602a60248201527f455243313135353a20696e73756666696369656e742062616c616e636520666f60448201527f72207472616e7366657200000000000000000000000000000000000000000000606482015260840161063c565b60008781526020818152604080832073ffffffffffffffffffffffffffffffffffffffff8d8116855292528083208985039055908a1682528120805488929061265f908490613d43565b9091555050604080518881526020810188905273ffffffffffffffffffffffffffffffffffffffff808b16928c821692918816917fc3d58168c5ae7397731d063d5bbf3d657854427343f4c083240f7aacaa2d0f62910160405180910390a46126cc848a8a8a8a8a612e26565b505050505050505050565b60007fffffffff0000000000000000000000000000000000000000000000000000000082167fd9b67a2600000000000000000000000000000000000000000000000000000000148061276a57507fffffffff0000000000000000000000000000000000000000000000000000000082167f0e89341c00000000000000000000000000000000000000000000000000000000145b8061067557507f01ffc9a7000000000000000000000000000000000000000000000000000000007fffffffff00000000000000000000000000000000000000000000000000000000831614610675565b600082815260046020908152604080832073ffffffffffffffffffffffffffffffffffffffff8516845290915290205460ff16610c42576128128173ffffffffffffffffffffffffffffffffffffffff166014612fd3565b61281d836020612fd3565b60405160200161282e929190613d84565b604080517fffffffffffffffffffffffffffffffffffffffffffffffffffffffffffffffe0818403018152908290527f08c379a000000000000000000000000000000000000000000000000000000000825261063c91600401613562565b60005b83518110156109c95760008482815181106128ac576128ac613cad565b60200260200101519050600073ffffffffffffffffffffffffffffffffffffffff168773ffffffffffffffffffffffffffffffffffffffff1614806128fe575060008181526008602052604090205442115b61298a576040517f08c379a000000000000000000000000000000000000000000000000000000000815260206004820152602360248201527f4974656d206973206e6f742063757272656e746c79207472616e73666572616260448201527f6c652e0000000000000000000000000000000000000000000000000000000000606482015260840161063c565b73ffffffffffffffffffffffffffffffffffffffff8716612a325760008181526006602052604081205490036129f057600580546001810182556000919091527f036b6384b5eca791c62761152d0c79bb0604c104a5fb6f4eb0703f3154bb3db0018190555b838281518110612a0257612a02613cad565b6020026020010151600660008381526020019081526020016000206000828254612a2c9190613d43565b90915550505b73ffffffffffffffffffffffffffffffffffffffff8616612b3e57838281518110612a5f57612a5f613cad565b6020026020010151600660008381526020019081526020016000205411612b08576040517f08c379a000000000000000000000000000000000000000000000000000000000815260206004820152602760248201527f455243313135353a206275726e20616d6f756e7420657863656564732069746560448201527f6d537570706c7900000000000000000000000000000000000000000000000000606482015260840161063c565b838281518110612b1a57612b1a613cad565b60209081029190910181015160008381526006909252604090912080549190910390555b5080612b4981613d0b565b91505061288f565b73ffffffffffffffffffffffffffffffffffffffff84163b15610d63576040517fbc197c8100000000000000000000000000000000000000000000000000000000815273ffffffffffffffffffffffffffffffffffffffff85169063bc197c8190612bc89089908990889088908890600401613e05565b6020604051808303816000875af1925050508015612c21575060408051601f3d9081017fffffffffffffffffffffffffffffffffffffffffffffffffffffffffffffffe0168201909252612c1e91810190613e70565b60015b612d0a57612c2d613e8d565b806308c379a003612c805750612c41613ea8565b80612c4c5750612c82565b806040517f08c379a000000000000000000000000000000000000000000000000000000000815260040161063c9190613562565b505b6040517f08c379a000000000000000000000000000000000000000000000000000000000815260206004820152603460248201527f455243313135353a207472616e7366657220746f206e6f6e204552433131353560448201527f526563656976657220696d706c656d656e746572000000000000000000000000606482015260840161063c565b7fffffffff0000000000000000000000000000000000000000000000000000000081167fbc197c8100000000000000000000000000000000000000000000000000000000146109c9576040517f08c379a000000000000000000000000000000000000000000000000000000000815260206004820152602860248201527f455243313135353a204552433131353552656365697665722072656a6563746560448201527f6420746f6b656e73000000000000000000000000000000000000000000000000606482015260840161063c565b60408051600180825281830190925260609160009190602080830190803683370190505090508281600081518110612e1557612e15613cad565b602090810291909101015292915050565b73ffffffffffffffffffffffffffffffffffffffff84163b15610d63576040517ff23a6e6100000000000000000000000000000000000000000000000000000000815273ffffffffffffffffffffffffffffffffffffffff85169063f23a6e6190612e9d9089908990889088908890600401613f50565b6020604051808303816000875af1925050508015612ef6575060408051601f3d9081017fffffffffffffffffffffffffffffffffffffffffffffffffffffffffffffffe0168201909252612ef391810190613e70565b60015b612f0257612c2d613e8d565b7fffffffff0000000000000000000000000000000000000000000000000000000081167ff23a6e6100000000000000000000000000000000000000000000000000000000146109c9576040517f08c379a000000000000000000000000000000000000000000000000000000000815260206004820152602860248201527f455243313135353a204552433131353552656365697665722072656a6563746560448201527f6420746f6b656e73000000000000000000000000000000000000000000000000606482015260840161063c565b60606000612fe2836002613fa0565b612fed906002613d43565b67ffffffffffffffff811115613005576130056132bb565b6040519080825280601f01601f19166020018201604052801561302f576020820181803683370190505b5090507f30000000000000000000000000000000000000000000000000000000000000008160008151811061306657613066613cad565b60200101907effffffffffffffffffffffffffffffffffffffffffffffffffffffffffffff1916908160001a9053507f7800000000000000000000000000000000000000000000000000000000000000816001815181106130c9576130c9613cad565b60200101907effffffffffffffffffffffffffffffffffffffffffffffffffffffffffffff1916908160001a9053506000613105846002613fa0565b613110906001613d43565b90505b60018111156131ad577f303132333435363738396162636465660000000000000000000000000000000085600f166010811061315157613151613cad565b1a60f81b82828151811061316757613167613cad565b60200101907effffffffffffffffffffffffffffffffffffffffffffffffffffffffffffff1916908160001a90535060049490941c936131a681613fdd565b9050613113565b508315613216576040517f08c379a000000000000000000000000000000000000000000000000000000000815260206004820181905260248201527f537472696e67733a20686578206c656e67746820696e73756666696369656e74604482015260640161063c565b9392505050565b803573ffffffffffffffffffffffffffffffffffffffff8116811461324157600080fd5b919050565b6000806040838503121561325957600080fd5b6132628361321d565b946020939093013593505050565b7fffffffff000000000000000000000000000000000000000000000000000000008116811461146f57600080fd5b6000602082840312156132b057600080fd5b813561321681613270565b7f4e487b7100000000000000000000000000000000000000000000000000000000600052604160045260246000fd5b7fffffffffffffffffffffffffffffffffffffffffffffffffffffffffffffffe0601f830116810181811067ffffffffffffffff8211171561332e5761332e6132bb565b6040525050565b600082601f83011261334657600080fd5b813567ffffffffffffffff811115613360576133606132bb565b60405161339560207fffffffffffffffffffffffffffffffffffffffffffffffffffffffffffffffe0601f85011601826132ea565b8181528460208386010111156133aa57600080fd5b816020850160208301376000918101602001919091529392505050565b600080604083850312156133da57600080fd5b82359150602083013567ffffffffffffffff8111156133f857600080fd5b61340485828601613335565b9150509250929050565b60008083601f84011261342057600080fd5b50813567ffffffffffffffff81111561343857600080fd5b6020830191508360208260051b850101111561345357600080fd5b9250929050565b60008060008060006060868803121561347257600080fd5b61347b8661321d565b9450602086013567ffffffffffffffff8082111561349857600080fd5b6134a489838a0161340e565b909650945060408801359150808211156134bd57600080fd5b506134ca8882890161340e565b969995985093965092949392505050565b6000602082840312156134ed57600080fd5b5035919050565b60005b8381101561350f5781810151838201526020016134f7565b50506000910152565b600081518084526135308160208601602086016134f4565b601f017fffffffffffffffffffffffffffffffffffffffffffffffffffffffffffffffe0169290920160200192915050565b6020815260006132166020830184613518565b6000806000806000806060878903121561358e57600080fd5b863567ffffffffffffffff808211156135a657600080fd5b6135b28a838b0161340e565b909850965060208901359150808211156135cb57600080fd5b6135d78a838b0161340e565b909650945060408901359150808211156135f057600080fd5b506135fd89828a0161340e565b979a9699509497509295939492505050565b600067ffffffffffffffff821115613629576136296132bb565b5060051b60200190565b600082601f83011261364457600080fd5b813560206136518261360f565b60405161365e82826132ea565b83815260059390931b850182019282810191508684111561367e57600080fd5b8286015b848110156136995780358352918301918301613682565b509695505050505050565b600080600080600060a086880312156136bc57600080fd5b6136c58661321d565b94506136d36020870161321d565b9350604086013567ffffffffffffffff808211156136f057600080fd5b6136fc89838a01613633565b9450606088013591508082111561371257600080fd5b61371e89838a01613633565b9350608088013591508082111561373457600080fd5b5061374188828901613335565b9150509295509295909350565b6000806040838503121561376157600080fd5b823591506137716020840161321d565b90509250929050565b60008060006040848603121561378f57600080fd5b833567ffffffffffffffff808211156137a757600080fd5b6137b38783880161340e565b90955093506020915085820135818111156137cd57600080fd5b8601601f810188136137de57600080fd5b80356137e98161360f565b6040516137f682826132ea565b82815260059290921b830185019185810191508a83111561381657600080fd5b8584015b8381101561384e578035868111156138325760008081fd5b6138408d8983890101613335565b84525091860191860161381a565b508096505050505050509250925092565b6000806040838503121561387257600080fd5b823567ffffffffffffffff8082111561388a57600080fd5b818501915085601f83011261389e57600080fd5b813560206138ab8261360f565b6040516138b882826132ea565b83815260059390931b85018201928281019150898411156138d857600080fd5b948201945b838610156138fd576138ee8661321d565b825294820194908201906138dd565b9650508601359250508082111561391357600080fd5b5061340485828601613633565b600081518084526020808501945080840160005b8381101561395057815187529582019590820190600101613934565b509495945050505050565b6020815260006132166020830184613920565b6000806000806060858703121561398457600080fd5b843567ffffffffffffffff81111561399b57600080fd5b6139a78782880161340e565b90989097506020870135966040013595509350505050565b6000602082840312156139d157600080fd5b6132168261321d565b600080604083850312156139ed57600080fd5b50508035926020909101359150565b60008060408385031215613a0f57600080fd5b613a188361321d565b915060208301358015158114613a2d57600080fd5b809150509250929050565b600080600060608486031215613a4d57600080fd5b613a568461321d565b95602085013595506040909401359392505050565b60008060408385031215613a7e57600080fd5b613a878361321d565b91506137716020840161321d565b600080600080600060a08688031215613aad57600080fd5b613ab68661321d565b9450613ac46020870161321d565b93506040860135925060608601359150608086013567ffffffffffffffff811115613aee57600080fd5b61374188828901613335565b600181811c90821680613b0e57607f821691505b602082108103613b47577f4e487b7100000000000000000000000000000000000000000000000000000000600052602260045260246000fd5b50919050565b601f821115610ad857600081815260208120601f850160051c81016020861015613b745750805b601f850160051c820191505b81811015610d6357828155600101613b80565b815167ffffffffffffffff811115613bad57613bad6132bb565b613bc181613bbb8454613afa565b84613b4d565b602080601f831160018114613c145760008415613bde5750858301515b7fffffffffffffffffffffffffffffffffffffffffffffffffffffffffffffffff600386901b1c1916600185901b178555610d63565b6000858152602081207fffffffffffffffffffffffffffffffffffffffffffffffffffffffffffffffe08616915b82811015613c6157888601518255948401946001909101908401613c42565b5085821015613c9d57878501517fffffffffffffffffffffffffffffffffffffffffffffffffffffffffffffffff600388901b60f8161c191681555b5050505050600190811b01905550565b7f4e487b7100000000000000000000000000000000000000000000000000000000600052603260045260246000fd5b7f4e487b7100000000000000000000000000000000000000000000000000000000600052601160045260246000fd5b60007fffffffffffffffffffffffffffffffffffffffffffffffffffffffffffffffff8203613d3c57613d3c613cdc565b5060010190565b8082018082111561067557610675613cdc565b604081526000613d696040830185613920565b8281036020840152613d7b8185613920565b95945050505050565b7f416363657373436f6e74726f6c3a206163636f756e7420000000000000000000815260008351613dbc8160178501602088016134f4565b7f206973206d697373696e6720726f6c65200000000000000000000000000000006017918401918201528351613df98160288401602088016134f4565b01602801949350505050565b600073ffffffffffffffffffffffffffffffffffffffff808816835280871660208401525060a06040830152613e3e60a0830186613920565b8281036060840152613e508186613920565b90508281036080840152613e648185613518565b98975050505050505050565b600060208284031215613e8257600080fd5b815161321681613270565b600060033d11156114015760046000803e5060005160e01c90565b600060443d1015613eb65790565b6040517ffffffffffffffffffffffffffffffffffffffffffffffffffffffffffffffffc803d016004833e81513d67ffffffffffffffff8160248401118184111715613f0457505050505090565b8285019150815181811115613f1c5750505050505090565b843d8701016020828501011115613f365750505050505090565b613f45602082860101876132ea565b509095945050505050565b600073ffffffffffffffffffffffffffffffffffffffff808816835280871660208401525084604083015283606083015260a06080830152613f9560a0830184613518565b979650505050505050565b6000817fffffffffffffffffffffffffffffffffffffffffffffffffffffffffffffffff0483118215151615613fd857613fd8613cdc565b500290565b600081613fec57613fec613cdc565b507fffffffffffffffffffffffffffffffffffffffffffffffffffffffffffffffff019056fea264697066735822122077fa880d400d99800abca12b4dec98cea18d537c4a0aaf6245d8a8304e6cc35564736f6c63430008100033",
  "linkReferences": {},
  "deployedLinkReferences": {}
}