{
  "_format": "hh-sol-artifact-1",
  "contractName": "ERC1155_Game_Items",
  "sourceName": "contracts/Items/ERC1155_Game_Items.sol",
  "abi": [
    {
      "inputs": [
        {
          "internalType": "address",
          "name": "_forwarder",
          "type": "address"
        }
      ],
      "stateMutability": "nonpayable",
      "type": "constructor"
    },
    {
      "anonymous": false,
      "inputs": [
        {
          "indexed": true,
          "internalType": "address",
          "name": "account",
          "type": "address"
        },
        {
          "indexed": true,
          "internalType": "address",
          "name": "operator",
          "type": "address"
        },
        {
          "indexed": false,
          "internalType": "bool",
          "name": "approved",
          "type": "bool"
        }
      ],
      "name": "ApprovalForAll",
      "type": "event"
    },
    {
      "anonymous": false,
      "inputs": [
        {
          "indexed": true,
          "internalType": "bytes32",
          "name": "role",
          "type": "bytes32"
        },
        {
          "indexed": true,
          "internalType": "bytes32",
          "name": "previousAdminRole",
          "type": "bytes32"
        },
        {
          "indexed": true,
          "internalType": "bytes32",
          "name": "newAdminRole",
          "type": "bytes32"
        }
      ],
      "name": "RoleAdminChanged",
      "type": "event"
    },
    {
      "anonymous": false,
      "inputs": [
        {
          "indexed": true,
          "internalType": "bytes32",
          "name": "role",
          "type": "bytes32"
        },
        {
          "indexed": true,
          "internalType": "address",
          "name": "account",
          "type": "address"
        },
        {
          "indexed": true,
          "internalType": "address",
          "name": "sender",
          "type": "address"
        }
      ],
      "name": "RoleGranted",
      "type": "event"
    },
    {
      "anonymous": false,
      "inputs": [
        {
          "indexed": true,
          "internalType": "bytes32",
          "name": "role",
          "type": "bytes32"
        },
        {
          "indexed": true,
          "internalType": "address",
          "name": "account",
          "type": "address"
        },
        {
          "indexed": true,
          "internalType": "address",
          "name": "sender",
          "type": "address"
        }
      ],
      "name": "RoleRevoked",
      "type": "event"
    },
    {
      "anonymous": false,
      "inputs": [
        {
          "indexed": true,
          "internalType": "address",
          "name": "operator",
          "type": "address"
        },
        {
          "indexed": true,
          "internalType": "address",
          "name": "from",
          "type": "address"
        },
        {
          "indexed": true,
          "internalType": "address",
          "name": "to",
          "type": "address"
        },
        {
          "indexed": false,
          "internalType": "uint256[]",
          "name": "ids",
          "type": "uint256[]"
        },
        {
          "indexed": false,
          "internalType": "uint256[]",
          "name": "values",
          "type": "uint256[]"
        }
      ],
      "name": "TransferBatch",
      "type": "event"
    },
    {
      "anonymous": false,
      "inputs": [
        {
          "indexed": true,
          "internalType": "address",
          "name": "operator",
          "type": "address"
        },
        {
          "indexed": true,
          "internalType": "address",
          "name": "from",
          "type": "address"
        },
        {
          "indexed": true,
          "internalType": "address",
          "name": "to",
          "type": "address"
        },
        {
          "indexed": false,
          "internalType": "uint256",
          "name": "id",
          "type": "uint256"
        },
        {
          "indexed": false,
          "internalType": "uint256",
          "name": "value",
          "type": "uint256"
        }
      ],
      "name": "TransferSingle",
      "type": "event"
    },
    {
      "anonymous": false,
      "inputs": [
        {
          "indexed": false,
          "internalType": "string",
          "name": "value",
          "type": "string"
        },
        {
          "indexed": true,
          "internalType": "uint256",
          "name": "id",
          "type": "uint256"
        }
      ],
      "name": "URI",
      "type": "event"
    },
    {
      "inputs": [],
      "name": "DEFAULT_ADMIN_ROLE",
      "outputs": [
        {
          "internalType": "bytes32",
          "name": "",
          "type": "bytes32"
        }
      ],
      "stateMutability": "view",
      "type": "function"
    },
    {
      "inputs": [],
      "name": "allItemIds",
      "outputs": [
        {
          "internalType": "uint256[]",
          "name": "",
          "type": "uint256[]"
        }
      ],
      "stateMutability": "view",
      "type": "function"
    },
    {
      "inputs": [],
      "name": "allItemSupplies",
      "outputs": [
        {
          "internalType": "uint256[]",
          "name": "",
          "type": "uint256[]"
        }
      ],
      "stateMutability": "view",
      "type": "function"
    },
    {
      "inputs": [],
      "name": "allItemURIs",
      "outputs": [
        {
          "internalType": "string[]",
          "name": "",
          "type": "string[]"
        }
      ],
      "stateMutability": "view",
      "type": "function"
    },
    {
      "inputs": [
        {
          "internalType": "address",
          "name": "account",
          "type": "address"
        },
        {
          "internalType": "uint256",
          "name": "id",
          "type": "uint256"
        }
      ],
      "name": "balanceOf",
      "outputs": [
        {
          "internalType": "uint256",
          "name": "",
          "type": "uint256"
        }
      ],
      "stateMutability": "view",
      "type": "function"
    },
    {
      "inputs": [
        {
          "internalType": "address[]",
          "name": "accounts",
          "type": "address[]"
        },
        {
          "internalType": "uint256[]",
          "name": "ids",
          "type": "uint256[]"
        }
      ],
      "name": "balanceOfBatch",
      "outputs": [
        {
          "internalType": "uint256[]",
          "name": "",
          "type": "uint256[]"
        }
      ],
      "stateMutability": "view",
      "type": "function"
    },
    {
      "inputs": [
        {
          "internalType": "address",
          "name": "_fromAddress",
          "type": "address"
        },
        {
          "internalType": "address[]",
          "name": "_toAddresses",
          "type": "address[]"
        },
        {
          "internalType": "uint256[]",
          "name": "_itemIds",
          "type": "uint256[]"
        },
        {
          "internalType": "uint256[]",
          "name": "_quantitiesPerAddress",
          "type": "uint256[]"
        }
      ],
      "name": "bulkSafeBatchTransferFrom",
      "outputs": [],
      "stateMutability": "nonpayable",
      "type": "function"
    },
    {
      "inputs": [
        {
          "internalType": "address",
          "name": "_fromAddress",
          "type": "address"
        },
        {
          "internalType": "address[]",
          "name": "_toAddresses",
          "type": "address[]"
        },
        {
          "internalType": "uint256",
          "name": "_itemId",
          "type": "uint256"
        },
        {
          "internalType": "uint256",
          "name": "_quantityPerAddress",
          "type": "uint256"
        }
      ],
      "name": "bulkSafeTransferFrom",
      "outputs": [],
      "stateMutability": "nonpayable",
      "type": "function"
    },
    {
      "inputs": [
        {
          "internalType": "uint256[]",
          "name": "_itemIds",
          "type": "uint256[]"
        },
        {
          "internalType": "string[]",
          "name": "_uris",
          "type": "string[]"
        }
      ],
      "name": "bulkSetItemURIs",
      "outputs": [],
      "stateMutability": "nonpayable",
      "type": "function"
    },
    {
      "inputs": [
        {
          "internalType": "address",
          "name": "_fromAddress",
          "type": "address"
        },
        {
          "internalType": "uint256[]",
          "name": "_itemIds",
          "type": "uint256[]"
        },
        {
          "internalType": "uint256[]",
          "name": "_quantities",
          "type": "uint256[]"
        }
      ],
      "name": "burnBatchFromAddress",
      "outputs": [],
      "stateMutability": "nonpayable",
      "type": "function"
    },
    {
      "inputs": [
        {
          "internalType": "address",
          "name": "_fromAddress",
          "type": "address"
        },
        {
          "internalType": "uint256",
          "name": "_itemId",
          "type": "uint256"
        },
        {
          "internalType": "uint256",
          "name": "_quantity",
          "type": "uint256"
        }
      ],
      "name": "burnFromAddress",
      "outputs": [],
      "stateMutability": "nonpayable",
      "type": "function"
    },
    {
      "inputs": [
        {
          "internalType": "bytes32",
          "name": "role",
          "type": "bytes32"
        }
      ],
      "name": "getRoleAdmin",
      "outputs": [
        {
          "internalType": "bytes32",
          "name": "",
          "type": "bytes32"
        }
      ],
      "stateMutability": "view",
      "type": "function"
    },
    {
      "inputs": [
        {
          "internalType": "bytes32",
          "name": "role",
          "type": "bytes32"
        },
        {
          "internalType": "address",
          "name": "account",
          "type": "address"
        }
      ],
      "name": "grantRole",
      "outputs": [],
      "stateMutability": "nonpayable",
      "type": "function"
    },
    {
      "inputs": [
        {
          "internalType": "bytes32",
          "name": "role",
          "type": "bytes32"
        },
        {
          "internalType": "address",
          "name": "account",
          "type": "address"
        }
      ],
      "name": "hasRole",
      "outputs": [
        {
          "internalType": "bool",
          "name": "",
          "type": "bool"
        }
      ],
      "stateMutability": "view",
      "type": "function"
    },
    {
      "inputs": [
        {
          "internalType": "address",
          "name": "account",
          "type": "address"
        },
        {
          "internalType": "address",
          "name": "operator",
          "type": "address"
        }
      ],
      "name": "isApprovedForAll",
      "outputs": [
        {
          "internalType": "bool",
          "name": "",
          "type": "bool"
        }
      ],
      "stateMutability": "view",
      "type": "function"
    },
    {
      "inputs": [
        {
          "internalType": "uint256",
          "name": "_itemId",
          "type": "uint256"
        }
      ],
      "name": "isItemTransferrable",
      "outputs": [
        {
          "internalType": "bool",
          "name": "",
          "type": "bool"
        }
      ],
      "stateMutability": "view",
      "type": "function"
    },
    {
      "inputs": [
        {
          "internalType": "address",
          "name": "forwarder",
          "type": "address"
        }
      ],
      "name": "isTrustedForwarder",
      "outputs": [
        {
          "internalType": "bool",
          "name": "",
          "type": "bool"
        }
      ],
      "stateMutability": "view",
      "type": "function"
    },
    {
      "inputs": [
        {
          "internalType": "uint256",
          "name": "_itemId",
          "type": "uint256"
        }
      ],
      "name": "itemExists",
      "outputs": [
        {
          "internalType": "bool",
          "name": "",
          "type": "bool"
        }
      ],
      "stateMutability": "view",
      "type": "function"
    },
    {
      "inputs": [
        {
          "internalType": "uint256",
          "name": "",
          "type": "uint256"
        }
      ],
      "name": "itemIds",
      "outputs": [
        {
          "internalType": "uint256",
          "name": "",
          "type": "uint256"
        }
      ],
      "stateMutability": "view",
      "type": "function"
    },
    {
      "inputs": [
        {
          "internalType": "uint256",
          "name": "",
          "type": "uint256"
        }
      ],
      "name": "itemSupplies",
      "outputs": [
        {
          "internalType": "uint256",
          "name": "",
          "type": "uint256"
        }
      ],
      "stateMutability": "view",
      "type": "function"
    },
    {
      "inputs": [
        {
          "internalType": "uint256",
          "name": "",
          "type": "uint256"
        }
      ],
      "name": "itemTransferTimelocks",
      "outputs": [
        {
          "internalType": "uint256",
          "name": "",
          "type": "uint256"
        }
      ],
      "stateMutability": "view",
      "type": "function"
    },
    {
      "inputs": [
        {
          "internalType": "address",
          "name": "_toAddress",
          "type": "address"
        },
        {
          "internalType": "uint256[]",
          "name": "_itemIds",
          "type": "uint256[]"
        },
        {
          "internalType": "uint256[]",
          "name": "_quantities",
          "type": "uint256[]"
        }
      ],
      "name": "mintBatchToAddress",
      "outputs": [],
      "stateMutability": "nonpayable",
      "type": "function"
    },
    {
      "inputs": [
        {
          "internalType": "address",
          "name": "_toAddress",
          "type": "address"
        },
        {
          "internalType": "uint256",
          "name": "_itemId",
          "type": "uint256"
        },
        {
          "internalType": "uint256",
          "name": "_quantity",
          "type": "uint256"
        }
      ],
      "name": "mintToAddress",
      "outputs": [],
      "stateMutability": "nonpayable",
      "type": "function"
    },
    {
      "inputs": [
        {
          "internalType": "uint256",
          "name": "itemIdsStartIndexInclusive",
          "type": "uint256"
        },
        {
          "internalType": "uint256",
          "name": "limit",
          "type": "uint256"
        }
      ],
      "name": "paginateItemIds",
      "outputs": [
        {
          "internalType": "uint256[]",
          "name": "",
          "type": "uint256[]"
        }
      ],
      "stateMutability": "view",
      "type": "function"
    },
    {
      "inputs": [
        {
          "internalType": "uint256",
          "name": "itemIdsStartIndexInclusive",
          "type": "uint256"
        },
        {
          "internalType": "uint256",
          "name": "limit",
          "type": "uint256"
        }
      ],
      "name": "paginateItemSupplies",
      "outputs": [
        {
          "internalType": "uint256[]",
          "name": "",
          "type": "uint256[]"
        }
      ],
      "stateMutability": "view",
      "type": "function"
    },
    {
      "inputs": [
        {
          "internalType": "uint256",
          "name": "itemIdsStartIndexInclusive",
          "type": "uint256"
        },
        {
          "internalType": "uint256",
          "name": "limit",
          "type": "uint256"
        }
      ],
      "name": "paginateItemURIs",
      "outputs": [
        {
          "internalType": "string[]",
          "name": "",
          "type": "string[]"
        }
      ],
      "stateMutability": "view",
      "type": "function"
    },
    {
      "inputs": [
        {
          "internalType": "bytes32",
          "name": "role",
          "type": "bytes32"
        },
        {
          "internalType": "address",
          "name": "account",
          "type": "address"
        }
      ],
      "name": "renounceRole",
      "outputs": [],
      "stateMutability": "nonpayable",
      "type": "function"
    },
    {
      "inputs": [
        {
          "internalType": "bytes32",
          "name": "role",
          "type": "bytes32"
        },
        {
          "internalType": "address",
          "name": "account",
          "type": "address"
        }
      ],
      "name": "revokeRole",
      "outputs": [],
      "stateMutability": "nonpayable",
      "type": "function"
    },
    {
      "inputs": [
        {
          "internalType": "address",
          "name": "from",
          "type": "address"
        },
        {
          "internalType": "address",
          "name": "to",
          "type": "address"
        },
        {
          "internalType": "uint256[]",
          "name": "ids",
          "type": "uint256[]"
        },
        {
          "internalType": "uint256[]",
          "name": "amounts",
          "type": "uint256[]"
        },
        {
          "internalType": "bytes",
          "name": "data",
          "type": "bytes"
        }
      ],
      "name": "safeBatchTransferFrom",
      "outputs": [],
      "stateMutability": "nonpayable",
      "type": "function"
    },
    {
      "inputs": [
        {
          "internalType": "address",
          "name": "from",
          "type": "address"
        },
        {
          "internalType": "address",
          "name": "to",
          "type": "address"
        },
        {
          "internalType": "uint256",
          "name": "id",
          "type": "uint256"
        },
        {
          "internalType": "uint256",
          "name": "amount",
          "type": "uint256"
        },
        {
          "internalType": "bytes",
          "name": "data",
          "type": "bytes"
        }
      ],
      "name": "safeTransferFrom",
      "outputs": [],
      "stateMutability": "nonpayable",
      "type": "function"
    },
    {
      "inputs": [
        {
          "internalType": "address",
          "name": "operator",
          "type": "address"
        },
        {
          "internalType": "bool",
          "name": "approved",
          "type": "bool"
        }
      ],
      "name": "setApprovalForAll",
      "outputs": [],
      "stateMutability": "nonpayable",
      "type": "function"
    },
    {
      "inputs": [
        {
          "internalType": "uint256",
          "name": "_itemId",
          "type": "uint256"
        },
        {
          "internalType": "uint256",
          "name": "_unlockTimestamp",
          "type": "uint256"
        }
      ],
      "name": "setItemTransferTimelock",
      "outputs": [],
      "stateMutability": "nonpayable",
      "type": "function"
    },
    {
      "inputs": [
        {
          "internalType": "uint256",
          "name": "_itemId",
          "type": "uint256"
        },
        {
          "internalType": "string",
          "name": "_uri",
          "type": "string"
        }
      ],
      "name": "setItemURI",
      "outputs": [],
      "stateMutability": "nonpayable",
      "type": "function"
    },
    {
      "inputs": [
        {
          "internalType": "bytes4",
          "name": "interfaceId",
          "type": "bytes4"
        }
      ],
      "name": "supportsInterface",
      "outputs": [
        {
          "internalType": "bool",
          "name": "",
          "type": "bool"
        }
      ],
      "stateMutability": "view",
      "type": "function"
    },
    {
      "inputs": [],
      "name": "totalItemIds",
      "outputs": [
        {
          "internalType": "uint256",
          "name": "",
          "type": "uint256"
        }
      ],
      "stateMutability": "view",
      "type": "function"
    },
    {
      "inputs": [
        {
          "internalType": "address",
          "name": "_newTrustedForwarder",
          "type": "address"
        }
      ],
      "name": "upgradeTrustedForwarder",
      "outputs": [],
      "stateMutability": "nonpayable",
      "type": "function"
    },
    {
      "inputs": [
        {
          "internalType": "uint256",
          "name": "_itemId",
          "type": "uint256"
        }
      ],
      "name": "uri",
      "outputs": [
        {
          "internalType": "string",
          "name": "",
          "type": "string"
        }
      ],
      "stateMutability": "view",
      "type": "function"
    }
  ],
  "bytecode": "0x60806040523480156200001157600080fd5b5060405162004a8838038062004a888339810160408190526200003491620001d9565b60408051602081019091526000815281906200005081620000bd565b50600380546001600160a01b0319166001600160a01b039290921691909117905562000087600062000081620000cf565b620000eb565b620000b67fc9fc9949603a50f5cc3a96f774f1d68287789a241d2082dc81d0fb19a53bcf2b62000081620000cf565b506200037c565b6002620000cb8282620002b0565b5050565b6000620000e6620000f760201b620018e81760201c565b905090565b620000cb82826200012f565b6003546000906001600160a01b031633036200011a575060131936013560601c90565b620000e6620001d560201b620019421760201c565b60008281526004602090815260408083206001600160a01b038516845290915290205460ff16620000cb5760008281526004602090815260408083206001600160a01b03851684529091529020805460ff1916600117905562000191620000cf565b6001600160a01b0316816001600160a01b0316837f2f8788117e7eff1d82e926ec794901d17c78024a50270940304540a733656f0d60405160405180910390a45050565b3390565b600060208284031215620001ec57600080fd5b81516001600160a01b03811681146200020457600080fd5b9392505050565b634e487b7160e01b600052604160045260246000fd5b600181811c908216806200023657607f821691505b6020821081036200025757634e487b7160e01b600052602260045260246000fd5b50919050565b601f821115620002ab57600081815260208120601f850160051c81016020861015620002865750805b601f850160051c820191505b81811015620002a75782815560010162000292565b5050505b505050565b81516001600160401b03811115620002cc57620002cc6200020b565b620002e481620002dd845462000221565b846200025d565b602080601f8311600181146200031c5760008415620003035750858301515b600019600386901b1c1916600185901b178555620002a7565b600085815260208120601f198616915b828110156200034d578886015182559484019460019091019084016200032c565b50858210156200036c5787850151600019600388901b60f8161c191681555b5050505050600190811b01905550565b6146fc806200038c6000396000f3fe608060405234801561001057600080fd5b50600436106102765760003560e01c80637bc6cb7411610160578063af9c50c7116100d8578063d8e141751161008c578063e985e9c511610071578063e985e9c5146105b8578063efa52e9014610601578063f242432a1461060957600080fd5b8063d8e1417514610585578063dc7aa9ef146105a557600080fd5b8063b3dc00fe116100bd578063b3dc00fe1461054c578063b9babeba1461055f578063d547741f1461057257600080fd5b8063af9c50c714610526578063b1da7a551461053957600080fd5b8063951549b91161012f578063a22cb46511610114578063a22cb465146104de578063aa2a7eea146104f1578063ae06363f1461050457600080fd5b8063951549b9146104c3578063a217fddf146104d657600080fd5b80637bc6cb7414610440578063843bd641146104535780638c892cfd1461047557806391d148541461047d57600080fd5b80632eb2c2d6116101f357806348e1219a116101c25780634e1273f4116101a75780634e1273f4146103de578063572b6c05146103f157806358ec07c71461042057600080fd5b806348e1219a146103c35780634b7c78dc146103cb57600080fd5b80632eb2c2d6146103775780632f2ff15d1461038a57806335f637161461039d57806336568abe146103b057600080fd5b806308f427c71161024a57806313f2f6bd1161022f57806313f2f6bd146103215780632257eb7e14610334578063248a9ca31461035457600080fd5b806308f427c7146102ee5780630e89341c1461030157600080fd5b8062fdd58e1461027b57806301ffc9a7146102a157806303cb92fc146102c45780630515cf8d146102d9575b600080fd5b61028e610289366004613848565b61061c565b6040519081526020015b60405180910390f35b6102b46102af3660046138a0565b6106fc565b6040519015158152602001610298565b6102d76102d23660046139c9565b610752565b005b6102e161079a565b6040516102989190613a4b565b6102d76102fc366004613aaa565b61085a565b61031461030f366004613b2b565b6109a1565b6040516102989190613bb2565b6102e161032f366004613bc5565b610a43565b61028e610342366004613b2b565b60066020526000908152604090205481565b61028e610362366004613b2b565b60009081526004602052604090206001015490565b6102d7610385366004613c7c565b610b42565b6102d7610398366004613d26565b610c23565b6102d76103ab366004613d52565b610c4d565b6102d76103be366004613d26565b610ce6565b60055461028e565b6102d76103d9366004613aaa565b610db6565b6102e16103ec366004613e37565b610edb565b6102b46103ff366004613ef8565b60035473ffffffffffffffffffffffffffffffffffffffff91821691161490565b61028e61042e366004613b2b565b60076020526000908152604090205481565b6102d761044e366004613bc5565b611033565b6102b4610461366004613b2b565b600090815260066020526040902054151590565b6102e1611070565b6102b461048b366004613d26565b600091825260046020908152604080842073ffffffffffffffffffffffffffffffffffffffff93909316845291905290205460ff1690565b6102e16104d1366004613bc5565b6110c8565b61028e600081565b6102d76104ec366004613f13565b6111aa565b6102d76104ff366004613ef8565b6111bc565b6102b4610512366004613b2b565b600090815260076020526040902054421190565b6102d7610534366004613f4f565b61122a565b6102d7610547366004613fb4565b611289565b61028e61055a366004613b2b565b611353565b6102d761056d36600461405f565b611374565b6102d7610580366004613d26565b61142e565b610598610593366004613bc5565b611453565b6040516102989190614092565b6102d76105b336600461405f565b6115db565b6102b46105c6366004614112565b73ffffffffffffffffffffffffffffffffffffffff918216600090815260016020908152604080832093909416825291909152205460ff1690565b6105986116ba565b6102d761061736600461413c565b611807565b600073ffffffffffffffffffffffffffffffffffffffff83166106c6576040517f08c379a000000000000000000000000000000000000000000000000000000000815260206004820152602a60248201527f455243313135353a2061646472657373207a65726f206973206e6f742061207660448201527f616c6964206f776e65720000000000000000000000000000000000000000000060648201526084015b60405180910390fd5b5060008181526020818152604080832073ffffffffffffffffffffffffffffffffffffffff861684529091529020545b92915050565b60007fffffffff0000000000000000000000000000000000000000000000000000000082167fe67112700000000000000000000000000000000000000000000000000000000014806106f657506106f682611946565b7fc9fc9949603a50f5cc3a96f774f1d68287789a241d2082dc81d0fb19a53bcf2b61077c8161199c565b60008381526008602052604090206107948382614234565b50505050565b60055460609060009067ffffffffffffffff8111156107bb576107bb6138bd565b6040519080825280602002602001820160405280156107e4578160200160208202803683370190505b50905060005b60055481101561085457600660006005838154811061080b5761080b61434e565b90600052602060002001548152602001908152602001600020548282815181106108375761083761434e565b60209081029190910101528061084c816143ac565b9150506107ea565b50919050565b6108867fc9fc9949603a50f5cc3a96f774f1d68287789a241d2082dc81d0fb19a53bcf2b61048b6119b0565b806108b857506108b87fc9eb32e43bf5ecbceacf00b32281dfc5d6d700a0db676ea26ccf938a385ac3f761048b6119b0565b61091e576040517f08c379a000000000000000000000000000000000000000000000000000000000815260206004820152601760248201527f4e6f7420617574686f72697a656420746f206d696e742e00000000000000000060448201526064016106bd565b61099a85858580806020026020016040519081016040528093929190818152602001838360200280828437600092019190915250506040805160208089028281018201909352888252909350889250879182918501908490808284376000920182905250604080516020810190915290815292506119ba915050565b5050505050565b60008181526008602052604090208054606091906109be906141a1565b80601f01602080910402602001604051908101604052809291908181526020018280546109ea906141a1565b8015610a375780601f10610a0c57610100808354040283529160200191610a37565b820191906000526020600020905b815481529060010190602001808311610a1a57829003601f168201915b50505050509050919050565b6005546060906000908410610a59576000610a67565b600554610a679085906143e4565b9050600083821115610a795783610a7b565b815b905060008167ffffffffffffffff811115610a9857610a986138bd565b604051908082528060200260200182016040528015610ac1578160200160208202803683370190505b50905060005b82811015610b3857600660006005610adf848b6143f7565b81548110610aef57610aef61434e565b9060005260206000200154815260200190815260200160002054828281518110610b1b57610b1b61434e565b602090810291909101015280610b30816143ac565b915050610ac7565b5095945050505050565b610b4a6119b0565b73ffffffffffffffffffffffffffffffffffffffff168573ffffffffffffffffffffffffffffffffffffffff161480610b8a5750610b8a856105c66119b0565b610c16576040517f08c379a000000000000000000000000000000000000000000000000000000000815260206004820152602f60248201527f455243313135353a2063616c6c6572206973206e6f7420746f6b656e206f776e60448201527f6572206e6f7220617070726f766564000000000000000000000000000000000060648201526084016106bd565b61099a8585858585611c4d565b600082815260046020526040902060010154610c3e8161199c565b610c488383611f98565b505050565b7fc9fc9949603a50f5cc3a96f774f1d68287789a241d2082dc81d0fb19a53bcf2b610c778161199c565b60005b8381101561099a57828181518110610c9457610c9461434e565b602002602001015160086000878785818110610cb257610cb261434e565b9050602002013581526020019081526020016000209081610cd39190614234565b5080610cde816143ac565b915050610c7a565b610cee6119b0565b73ffffffffffffffffffffffffffffffffffffffff168173ffffffffffffffffffffffffffffffffffffffff1614610da8576040517f08c379a000000000000000000000000000000000000000000000000000000000815260206004820152602f60248201527f416363657373436f6e74726f6c3a2063616e206f6e6c792072656e6f756e636560448201527f20726f6c657320666f722073656c66000000000000000000000000000000000060648201526084016106bd565b610db2828261208d565b5050565b84610dbf6119b0565b73ffffffffffffffffffffffffffffffffffffffff168173ffffffffffffffffffffffffffffffffffffffff161480610dff5750610dff816105c66119b0565b610e65576040517f08c379a000000000000000000000000000000000000000000000000000000000815260206004820152601560248201527f4e6f7420617070726f76656420746f206275726e2e000000000000000000000060448201526064016106bd565b610ed38686868080602002602001604051908101604052809392919081815260200183836020028082843760009201919091525050604080516020808a0282810182019093528982529093508992508891829185019084908082843760009201919091525061218092505050565b505050505050565b60608151835114610f6e576040517f08c379a000000000000000000000000000000000000000000000000000000000815260206004820152602960248201527f455243313135353a206163636f756e747320616e6420696473206c656e67746860448201527f206d69736d61746368000000000000000000000000000000000000000000000060648201526084016106bd565b6000835167ffffffffffffffff811115610f8a57610f8a6138bd565b604051908082528060200260200182016040528015610fb3578160200160208202803683370190505b50905060005b845181101561102b57610ffe858281518110610fd757610fd761434e565b6020026020010151858381518110610ff157610ff161434e565b602002602001015161061c565b8282815181106110105761101061434e565b6020908102919091010152611024816143ac565b9050610fb9565b509392505050565b7fc9fc9949603a50f5cc3a96f774f1d68287789a241d2082dc81d0fb19a53bcf2b61105d8161199c565b5060009182526007602052604090912055565b606060058054806020026020016040519081016040528092919081815260200182805480156110be57602002820191906000526020600020905b8154815260200190600101908083116110aa575b5050505050905090565b60055460609060009084106110de5760006110ec565b6005546110ec9085906143e4565b90506000838211156110fe5783611100565b815b905060008167ffffffffffffffff81111561111d5761111d6138bd565b604051908082528060200260200182016040528015611146578160200160208202803683370190505b50905060005b82811015610b3857600561116082896143f7565b815481106111705761117061434e565b906000526020600020015482828151811061118d5761118d61434e565b6020908102919091010152806111a2816143ac565b91505061114c565b610db26111b56119b0565b83836124c0565b7fc9fc9949603a50f5cc3a96f774f1d68287789a241d2082dc81d0fb19a53bcf2b6111e68161199c565b600380547fffffffffffffffffffffffff00000000000000000000000000000000000000001673ffffffffffffffffffffffffffffffffffffffff84161790555050565b60005b83811015610ed3576112778686868481811061124b5761124b61434e565b90506020020160208101906112609190613ef8565b858560405180602001604052806000815250611807565b80611281816143ac565b91505061122d565b60005b8581101561134957611337888888848181106112aa576112aa61434e565b90506020020160208101906112bf9190613ef8565b87878080602002602001604051908101604052809392919081815260200183836020028082843760009201919091525050604080516020808b0282810182019093528a82529093508a925089918291850190849080828437600092018290525060408051602081019091529081529250610b42915050565b80611341816143ac565b91505061128c565b5050505050505050565b6005818154811061136357600080fd5b600091825260209091200154905081565b8261137d6119b0565b73ffffffffffffffffffffffffffffffffffffffff168173ffffffffffffffffffffffffffffffffffffffff1614806113bd57506113bd816105c66119b0565b611423576040517f08c379a000000000000000000000000000000000000000000000000000000000815260206004820152601560248201527f4e6f7420617070726f76656420746f206275726e2e000000000000000000000060448201526064016106bd565b610794848484612613565b6000828152600460205260409020600101546114498161199c565b610c48838361208d565b6005546060906000908410611469576000611477565b6005546114779085906143e4565b9050600083821115611489578361148b565b815b905060008167ffffffffffffffff8111156114a8576114a86138bd565b6040519080825280602002602001820160405280156114db57816020015b60608152602001906001900390816114c65790505b50905060005b82811015610b38576008600060056114f9848b6143f7565b815481106115095761150961434e565b90600052602060002001548152602001908152602001600020805461152d906141a1565b80601f0160208091040260200160405190810160405280929190818152602001828054611559906141a1565b80156115a65780601f1061157b576101008083540402835291602001916115a6565b820191906000526020600020905b81548152906001019060200180831161158957829003601f168201915b50505050508282815181106115bd576115bd61434e565b602002602001018190525080806115d3906143ac565b9150506114e1565b6116077fc9fc9949603a50f5cc3a96f774f1d68287789a241d2082dc81d0fb19a53bcf2b61048b6119b0565b8061163957506116397fc9eb32e43bf5ecbceacf00b32281dfc5d6d700a0db676ea26ccf938a385ac3f761048b6119b0565b61169f576040517f08c379a000000000000000000000000000000000000000000000000000000000815260206004820152601760248201527f4e6f7420617574686f72697a656420746f206d696e742e00000000000000000060448201526064016106bd565b610c4883838360405180602001604052806000815250612841565b60055460609060009067ffffffffffffffff8111156116db576116db6138bd565b60405190808252806020026020018201604052801561170e57816020015b60608152602001906001900390816116f95790505b50905060005b6005548110156108545760086000600583815481106117355761173561434e565b906000526020600020015481526020019081526020016000208054611759906141a1565b80601f0160208091040260200160405190810160405280929190818152602001828054611785906141a1565b80156117d25780601f106117a7576101008083540402835291602001916117d2565b820191906000526020600020905b8154815290600101906020018083116117b557829003601f168201915b50505050508282815181106117e9576117e961434e565b602002602001018190525080806117ff906143ac565b915050611714565b61180f6119b0565b73ffffffffffffffffffffffffffffffffffffffff168573ffffffffffffffffffffffffffffffffffffffff16148061184f575061184f856105c66119b0565b6118db576040517f08c379a000000000000000000000000000000000000000000000000000000000815260206004820152602f60248201527f455243313135353a2063616c6c6572206973206e6f7420746f6b656e206f776e60448201527f6572206e6f7220617070726f766564000000000000000000000000000000000060648201526084016106bd565b61099a85858585856129c3565b60035460009073ffffffffffffffffffffffffffffffffffffffff16330361193557507fffffffffffffffffffffffffffffffffffffffffffffffffffffffffffffffec36013560601c90565b503390565b905090565b90565b3390565b60007fffffffff0000000000000000000000000000000000000000000000000000000082167f7965db0b0000000000000000000000000000000000000000000000000000000014806106f657506106f682612c1a565b6119ad816119a86119b0565b612cfd565b50565b600061193a6118e8565b73ffffffffffffffffffffffffffffffffffffffff8416611a5d576040517f08c379a000000000000000000000000000000000000000000000000000000000815260206004820152602160248201527f455243313135353a206d696e7420746f20746865207a65726f2061646472657360448201527f730000000000000000000000000000000000000000000000000000000000000060648201526084016106bd565b8151835114611aee576040517f08c379a000000000000000000000000000000000000000000000000000000000815260206004820152602860248201527f455243313135353a2069647320616e6420616d6f756e7473206c656e6774682060448201527f6d69736d6174636800000000000000000000000000000000000000000000000060648201526084016106bd565b6000611af86119b0565b9050611b0981600087878787612dcf565b60005b8451811015611bbe57838181518110611b2757611b2761434e565b6020026020010151600080878481518110611b4457611b4461434e565b6020026020010151815260200190815260200160002060008873ffffffffffffffffffffffffffffffffffffffff1673ffffffffffffffffffffffffffffffffffffffff1681526020019081526020016000206000828254611ba691906143f7565b90915550819050611bb6816143ac565b915050611b0c565b508473ffffffffffffffffffffffffffffffffffffffff16600073ffffffffffffffffffffffffffffffffffffffff168273ffffffffffffffffffffffffffffffffffffffff167f4a39dc06d4c0dbc64b70af90fd698a233a518aa5d07e595d983b8c0526c8f7fb8787604051611c3692919061440a565b60405180910390a461099a81600087878787613153565b8151835114611cde576040517f08c379a000000000000000000000000000000000000000000000000000000000815260206004820152602860248201527f455243313135353a2069647320616e6420616d6f756e7473206c656e6774682060448201527f6d69736d6174636800000000000000000000000000000000000000000000000060648201526084016106bd565b73ffffffffffffffffffffffffffffffffffffffff8416611d81576040517f08c379a000000000000000000000000000000000000000000000000000000000815260206004820152602560248201527f455243313135353a207472616e7366657220746f20746865207a65726f20616460448201527f647265737300000000000000000000000000000000000000000000000000000060648201526084016106bd565b6000611d8b6119b0565b9050611d9b818787878787612dcf565b60005b8451811015611f0b576000858281518110611dbb57611dbb61434e565b602002602001015190506000858381518110611dd957611dd961434e565b6020908102919091018101516000848152808352604080822073ffffffffffffffffffffffffffffffffffffffff8e168352909352919091205490915081811015611ea6576040517f08c379a000000000000000000000000000000000000000000000000000000000815260206004820152602a60248201527f455243313135353a20696e73756666696369656e742062616c616e636520666f60448201527f72207472616e736665720000000000000000000000000000000000000000000060648201526084016106bd565b60008381526020818152604080832073ffffffffffffffffffffffffffffffffffffffff8e8116855292528083208585039055908b16825281208054849290611ef09084906143f7565b9250508190555050505080611f04906143ac565b9050611d9e565b508473ffffffffffffffffffffffffffffffffffffffff168673ffffffffffffffffffffffffffffffffffffffff168273ffffffffffffffffffffffffffffffffffffffff167f4a39dc06d4c0dbc64b70af90fd698a233a518aa5d07e595d983b8c0526c8f7fb8787604051611f8292919061440a565b60405180910390a4610ed3818787878787613153565b600082815260046020908152604080832073ffffffffffffffffffffffffffffffffffffffff8516845290915290205460ff16610db257600082815260046020908152604080832073ffffffffffffffffffffffffffffffffffffffff85168452909152902080547fffffffffffffffffffffffffffffffffffffffffffffffffffffffffffffff0016600117905561202f6119b0565b73ffffffffffffffffffffffffffffffffffffffff168173ffffffffffffffffffffffffffffffffffffffff16837f2f8788117e7eff1d82e926ec794901d17c78024a50270940304540a733656f0d60405160405180910390a45050565b600082815260046020908152604080832073ffffffffffffffffffffffffffffffffffffffff8516845290915290205460ff1615610db257600082815260046020908152604080832073ffffffffffffffffffffffffffffffffffffffff85168452909152902080547fffffffffffffffffffffffffffffffffffffffffffffffffffffffffffffff001690556121226119b0565b73ffffffffffffffffffffffffffffffffffffffff168173ffffffffffffffffffffffffffffffffffffffff16837ff6391f5c32d9c69d2a47ea670b442974b53935d1edc7fd64eb21e047a839171b60405160405180910390a45050565b73ffffffffffffffffffffffffffffffffffffffff8316612223576040517f08c379a000000000000000000000000000000000000000000000000000000000815260206004820152602360248201527f455243313135353a206275726e2066726f6d20746865207a65726f206164647260448201527f657373000000000000000000000000000000000000000000000000000000000060648201526084016106bd565b80518251146122b4576040517f08c379a000000000000000000000000000000000000000000000000000000000815260206004820152602860248201527f455243313135353a2069647320616e6420616d6f756e7473206c656e6774682060448201527f6d69736d6174636800000000000000000000000000000000000000000000000060648201526084016106bd565b60006122be6119b0565b90506122de81856000868660405180602001604052806000815250612dcf565b60005b835181101561242c5760008482815181106122fe576122fe61434e565b60200260200101519050600084838151811061231c5761231c61434e565b6020908102919091018101516000848152808352604080822073ffffffffffffffffffffffffffffffffffffffff8c1683529093529190912054909150818110156123e8576040517f08c379a0000000000000000000000000000000000000000000000000000000008152602060048201526024808201527f455243313135353a206275726e20616d6f756e7420657863656564732062616c60448201527f616e63650000000000000000000000000000000000000000000000000000000060648201526084016106bd565b60009283526020838152604080852073ffffffffffffffffffffffffffffffffffffffff8b1686529091529092209103905580612424816143ac565b9150506122e1565b50600073ffffffffffffffffffffffffffffffffffffffff168473ffffffffffffffffffffffffffffffffffffffff168273ffffffffffffffffffffffffffffffffffffffff167f4a39dc06d4c0dbc64b70af90fd698a233a518aa5d07e595d983b8c0526c8f7fb86866040516124a492919061440a565b60405180910390a4604080516020810190915260009052610794565b8173ffffffffffffffffffffffffffffffffffffffff168373ffffffffffffffffffffffffffffffffffffffff160361257b576040517f08c379a000000000000000000000000000000000000000000000000000000000815260206004820152602960248201527f455243313135353a2073657474696e6720617070726f76616c2073746174757360448201527f20666f722073656c66000000000000000000000000000000000000000000000060648201526084016106bd565b73ffffffffffffffffffffffffffffffffffffffff83811660008181526001602090815260408083209487168084529482529182902080547fffffffffffffffffffffffffffffffffffffffffffffffffffffffffffffff001686151590811790915591519182527f17307eab39ab6107e8899845ad3d59bd9653f200f220920489ca2b5937696c31910160405180910390a3505050565b73ffffffffffffffffffffffffffffffffffffffff83166126b6576040517f08c379a000000000000000000000000000000000000000000000000000000000815260206004820152602360248201527f455243313135353a206275726e2066726f6d20746865207a65726f206164647260448201527f657373000000000000000000000000000000000000000000000000000000000060648201526084016106bd565b60006126c06119b0565b905060006126cd846133dd565b905060006126da846133dd565b90506126fa83876000858560405180602001604052806000815250612dcf565b60008581526020818152604080832073ffffffffffffffffffffffffffffffffffffffff8a168452909152902054848110156127b7576040517f08c379a0000000000000000000000000000000000000000000000000000000008152602060048201526024808201527f455243313135353a206275726e20616d6f756e7420657863656564732062616c60448201527f616e63650000000000000000000000000000000000000000000000000000000060648201526084016106bd565b60008681526020818152604080832073ffffffffffffffffffffffffffffffffffffffff8b81168086529184528285208a8703905582518b81529384018a90529092908816917fc3d58168c5ae7397731d063d5bbf3d657854427343f4c083240f7aacaa2d0f62910160405180910390a46040805160208101909152600090525b50505050505050565b73ffffffffffffffffffffffffffffffffffffffff84166128e4576040517f08c379a000000000000000000000000000000000000000000000000000000000815260206004820152602160248201527f455243313135353a206d696e7420746f20746865207a65726f2061646472657360448201527f730000000000000000000000000000000000000000000000000000000000000060648201526084016106bd565b60006128ee6119b0565b905060006128fb856133dd565b90506000612908856133dd565b905061291983600089858589612dcf565b60008681526020818152604080832073ffffffffffffffffffffffffffffffffffffffff8b168452909152812080548792906129569084906143f7565b9091555050604080518781526020810187905273ffffffffffffffffffffffffffffffffffffffff808a1692600092918716917fc3d58168c5ae7397731d063d5bbf3d657854427343f4c083240f7aacaa2d0f62910160405180910390a461283883600089898989613428565b73ffffffffffffffffffffffffffffffffffffffff8416612a66576040517f08c379a000000000000000000000000000000000000000000000000000000000815260206004820152602560248201527f455243313135353a207472616e7366657220746f20746865207a65726f20616460448201527f647265737300000000000000000000000000000000000000000000000000000060648201526084016106bd565b6000612a706119b0565b90506000612a7d856133dd565b90506000612a8a856133dd565b9050612a9a838989858589612dcf565b60008681526020818152604080832073ffffffffffffffffffffffffffffffffffffffff8c16845290915290205485811015612b58576040517f08c379a000000000000000000000000000000000000000000000000000000000815260206004820152602a60248201527f455243313135353a20696e73756666696369656e742062616c616e636520666f60448201527f72207472616e736665720000000000000000000000000000000000000000000060648201526084016106bd565b60008781526020818152604080832073ffffffffffffffffffffffffffffffffffffffff8d8116855292528083208985039055908a16825281208054889290612ba29084906143f7565b9091555050604080518881526020810188905273ffffffffffffffffffffffffffffffffffffffff808b16928c821692918816917fc3d58168c5ae7397731d063d5bbf3d657854427343f4c083240f7aacaa2d0f62910160405180910390a4612c0f848a8a8a8a8a613428565b505050505050505050565b60007fffffffff0000000000000000000000000000000000000000000000000000000082167fd9b67a26000000000000000000000000000000000000000000000000000000001480612cad57507fffffffff0000000000000000000000000000000000000000000000000000000082167f0e89341c00000000000000000000000000000000000000000000000000000000145b806106f657507f01ffc9a7000000000000000000000000000000000000000000000000000000007fffffffff000000000000000000000000000000000000000000000000000000008316146106f6565b600082815260046020908152604080832073ffffffffffffffffffffffffffffffffffffffff8516845290915290205460ff16610db257612d558173ffffffffffffffffffffffffffffffffffffffff1660146135d5565b612d608360206135d5565b604051602001612d71929190614438565b604080517fffffffffffffffffffffffffffffffffffffffffffffffffffffffffffffffe0818403018152908290527f08c379a00000000000000000000000000000000000000000000000000000000082526106bd91600401613bb2565b60005b8351811015612838576000848281518110612def57612def61434e565b60200260200101519050612e1181600090815260076020526040902054421190565b80612e30575073ffffffffffffffffffffffffffffffffffffffff8716155b80612e7f575073ffffffffffffffffffffffffffffffffffffffff871660009081527f0bd32db21b4e7a5c682cc92107b99c9dbb2d6d64a346752e11eb45bfb97567f5602052604090205460ff165b80612ece575073ffffffffffffffffffffffffffffffffffffffff871660009081527ff9fd1248c586affabc10fb0262dbbca2f7cedc4a81d738b33283f93d7668f836602052604090205460ff165b80612eed575073ffffffffffffffffffffffffffffffffffffffff8616155b612f79576040517f08c379a000000000000000000000000000000000000000000000000000000000815260206004820152602360248201527f4974656d206973206e6f742063757272656e746c79207472616e73666572616260448201527f6c652e000000000000000000000000000000000000000000000000000000000060648201526084016106bd565b73ffffffffffffffffffffffffffffffffffffffff8716613021576000818152600660205260408120549003612fdf57600580546001810182556000919091527f036b6384b5eca791c62761152d0c79bb0604c104a5fb6f4eb0703f3154bb3db0018190555b838281518110612ff157612ff161434e565b602002602001015160066000838152602001908152602001600020600082825461301b91906143f7565b90915550505b73ffffffffffffffffffffffffffffffffffffffff86166131405783828151811061304e5761304e61434e565b6020026020010151600660008381526020019081526020016000205410156130f8576040517f08c379a000000000000000000000000000000000000000000000000000000000815260206004820152602760248201527f455243313135353a206275726e20616d6f756e7420657863656564732069746560448201527f6d537570706c790000000000000000000000000000000000000000000000000060648201526084016106bd565b83828151811061310a5761310a61434e565b6020026020010151600660008381526020019081526020016000205461313091906143e4565b6000828152600660205260409020555b508061314b816143ac565b915050612dd2565b73ffffffffffffffffffffffffffffffffffffffff84163b15610ed3576040517fbc197c8100000000000000000000000000000000000000000000000000000000815273ffffffffffffffffffffffffffffffffffffffff85169063bc197c81906131ca90899089908890889088906004016144b9565b6020604051808303816000875af1925050508015613223575060408051601f3d9081017fffffffffffffffffffffffffffffffffffffffffffffffffffffffffffffffe016820190925261322091810190614524565b60015b61330c5761322f614541565b806308c379a003613282575061324361455c565b8061324e5750613284565b806040517f08c379a00000000000000000000000000000000000000000000000000000000081526004016106bd9190613bb2565b505b6040517f08c379a000000000000000000000000000000000000000000000000000000000815260206004820152603460248201527f455243313135353a207472616e7366657220746f206e6f6e204552433131353560448201527f526563656976657220696d706c656d656e74657200000000000000000000000060648201526084016106bd565b7fffffffff0000000000000000000000000000000000000000000000000000000081167fbc197c810000000000000000000000000000000000000000000000000000000014612838576040517f08c379a000000000000000000000000000000000000000000000000000000000815260206004820152602860248201527f455243313135353a204552433131353552656365697665722072656a6563746560448201527f6420746f6b656e7300000000000000000000000000000000000000000000000060648201526084016106bd565b604080516001808252818301909252606091600091906020808301908036833701905050905082816000815181106134175761341761434e565b602090810291909101015292915050565b73ffffffffffffffffffffffffffffffffffffffff84163b15610ed3576040517ff23a6e6100000000000000000000000000000000000000000000000000000000815273ffffffffffffffffffffffffffffffffffffffff85169063f23a6e619061349f9089908990889088908890600401614604565b6020604051808303816000875af19250505080156134f8575060408051601f3d9081017fffffffffffffffffffffffffffffffffffffffffffffffffffffffffffffffe01682019092526134f591810190614524565b60015b6135045761322f614541565b7fffffffff0000000000000000000000000000000000000000000000000000000081167ff23a6e610000000000000000000000000000000000000000000000000000000014612838576040517f08c379a000000000000000000000000000000000000000000000000000000000815260206004820152602860248201527f455243313135353a204552433131353552656365697665722072656a6563746560448201527f6420746f6b656e7300000000000000000000000000000000000000000000000060648201526084016106bd565b606060006135e4836002614654565b6135ef9060026143f7565b67ffffffffffffffff811115613607576136076138bd565b6040519080825280601f01601f191660200182016040528015613631576020820181803683370190505b5090507f3000000000000000000000000000000000000000000000000000000000000000816000815181106136685761366861434e565b60200101907effffffffffffffffffffffffffffffffffffffffffffffffffffffffffffff1916908160001a9053507f7800000000000000000000000000000000000000000000000000000000000000816001815181106136cb576136cb61434e565b60200101907effffffffffffffffffffffffffffffffffffffffffffffffffffffffffffff1916908160001a9053506000613707846002614654565b6137129060016143f7565b90505b60018111156137af577f303132333435363738396162636465660000000000000000000000000000000085600f16601081106137535761375361434e565b1a60f81b8282815181106137695761376961434e565b60200101907effffffffffffffffffffffffffffffffffffffffffffffffffffffffffffff1916908160001a90535060049490941c936137a881614691565b9050613715565b508315613818576040517f08c379a000000000000000000000000000000000000000000000000000000000815260206004820181905260248201527f537472696e67733a20686578206c656e67746820696e73756666696369656e7460448201526064016106bd565b9392505050565b803573ffffffffffffffffffffffffffffffffffffffff8116811461384357600080fd5b919050565b6000806040838503121561385b57600080fd5b6138648361381f565b946020939093013593505050565b7fffffffff00000000000000000000000000000000000000000000000000000000811681146119ad57600080fd5b6000602082840312156138b257600080fd5b813561381881613872565b7f4e487b7100000000000000000000000000000000000000000000000000000000600052604160045260246000fd5b7fffffffffffffffffffffffffffffffffffffffffffffffffffffffffffffffe0601f830116810181811067ffffffffffffffff82111715613930576139306138bd565b6040525050565b600082601f83011261394857600080fd5b813567ffffffffffffffff811115613962576139626138bd565b60405161399760207fffffffffffffffffffffffffffffffffffffffffffffffffffffffffffffffe0601f85011601826138ec565b8181528460208386010111156139ac57600080fd5b816020850160208301376000918101602001919091529392505050565b600080604083850312156139dc57600080fd5b82359150602083013567ffffffffffffffff8111156139fa57600080fd5b613a0685828601613937565b9150509250929050565b600081518084526020808501945080840160005b83811015613a4057815187529582019590820190600101613a24565b509495945050505050565b6020815260006138186020830184613a10565b60008083601f840112613a7057600080fd5b50813567ffffffffffffffff811115613a8857600080fd5b6020830191508360208260051b8501011115613aa357600080fd5b9250929050565b600080600080600060608688031215613ac257600080fd5b613acb8661381f565b9450602086013567ffffffffffffffff80821115613ae857600080fd5b613af489838a01613a5e565b90965094506040880135915080821115613b0d57600080fd5b50613b1a88828901613a5e565b969995985093965092949392505050565b600060208284031215613b3d57600080fd5b5035919050565b60005b83811015613b5f578181015183820152602001613b47565b50506000910152565b60008151808452613b80816020860160208601613b44565b601f017fffffffffffffffffffffffffffffffffffffffffffffffffffffffffffffffe0169290920160200192915050565b6020815260006138186020830184613b68565b60008060408385031215613bd857600080fd5b50508035926020909101359150565b600067ffffffffffffffff821115613c0157613c016138bd565b5060051b60200190565b600082601f830112613c1c57600080fd5b81356020613c2982613be7565b604051613c3682826138ec565b83815260059390931b8501820192828101915086841115613c5657600080fd5b8286015b84811015613c715780358352918301918301613c5a565b509695505050505050565b600080600080600060a08688031215613c9457600080fd5b613c9d8661381f565b9450613cab6020870161381f565b9350604086013567ffffffffffffffff80821115613cc857600080fd5b613cd489838a01613c0b565b94506060880135915080821115613cea57600080fd5b613cf689838a01613c0b565b93506080880135915080821115613d0c57600080fd5b50613d1988828901613937565b9150509295509295909350565b60008060408385031215613d3957600080fd5b82359150613d496020840161381f565b90509250929050565b600080600060408486031215613d6757600080fd5b833567ffffffffffffffff80821115613d7f57600080fd5b613d8b87838801613a5e565b9095509350602091508582013581811115613da557600080fd5b8601601f81018813613db657600080fd5b8035613dc181613be7565b604051613dce82826138ec565b82815260059290921b830185019185810191508a831115613dee57600080fd5b8584015b83811015613e2657803586811115613e0a5760008081fd5b613e188d8983890101613937565b845250918601918601613df2565b508096505050505050509250925092565b60008060408385031215613e4a57600080fd5b823567ffffffffffffffff80821115613e6257600080fd5b818501915085601f830112613e7657600080fd5b81356020613e8382613be7565b604051613e9082826138ec565b83815260059390931b8501820192828101915089841115613eb057600080fd5b948201945b83861015613ed557613ec68661381f565b82529482019490820190613eb5565b96505086013592505080821115613eeb57600080fd5b50613a0685828601613c0b565b600060208284031215613f0a57600080fd5b6138188261381f565b60008060408385031215613f2657600080fd5b613f2f8361381f565b915060208301358015158114613f4457600080fd5b809150509250929050565b600080600080600060808688031215613f6757600080fd5b613f708661381f565b9450602086013567ffffffffffffffff811115613f8c57600080fd5b613f9888828901613a5e565b9699909850959660408101359660609091013595509350505050565b60008060008060008060006080888a031215613fcf57600080fd5b613fd88861381f565b9650602088013567ffffffffffffffff80821115613ff557600080fd5b6140018b838c01613a5e565b909850965060408a013591508082111561401a57600080fd5b6140268b838c01613a5e565b909650945060608a013591508082111561403f57600080fd5b5061404c8a828b01613a5e565b989b979a50959850939692959293505050565b60008060006060848603121561407457600080fd5b61407d8461381f565b95602085013595506040909401359392505050565b6000602080830181845280855180835260408601915060408160051b870101925083870160005b82811015614105577fffffffffffffffffffffffffffffffffffffffffffffffffffffffffffffffc08886030184526140f3858351613b68565b945092850192908501906001016140b9565b5092979650505050505050565b6000806040838503121561412557600080fd5b61412e8361381f565b9150613d496020840161381f565b600080600080600060a0868803121561415457600080fd5b61415d8661381f565b945061416b6020870161381f565b93506040860135925060608601359150608086013567ffffffffffffffff81111561419557600080fd5b613d1988828901613937565b600181811c908216806141b557607f821691505b602082108103610854577f4e487b7100000000000000000000000000000000000000000000000000000000600052602260045260246000fd5b601f821115610c4857600081815260208120601f850160051c810160208610156142155750805b601f850160051c820191505b81811015610ed357828155600101614221565b815167ffffffffffffffff81111561424e5761424e6138bd565b6142628161425c84546141a1565b846141ee565b602080601f8311600181146142b5576000841561427f5750858301515b7fffffffffffffffffffffffffffffffffffffffffffffffffffffffffffffffff600386901b1c1916600185901b178555610ed3565b6000858152602081207fffffffffffffffffffffffffffffffffffffffffffffffffffffffffffffffe08616915b82811015614302578886015182559484019460019091019084016142e3565b508582101561433e57878501517fffffffffffffffffffffffffffffffffffffffffffffffffffffffffffffffff600388901b60f8161c191681555b5050505050600190811b01905550565b7f4e487b7100000000000000000000000000000000000000000000000000000000600052603260045260246000fd5b7f4e487b7100000000000000000000000000000000000000000000000000000000600052601160045260246000fd5b60007fffffffffffffffffffffffffffffffffffffffffffffffffffffffffffffffff82036143dd576143dd61437d565b5060010190565b818103818111156106f6576106f661437d565b808201808211156106f6576106f661437d565b60408152600061441d6040830185613a10565b828103602084015261442f8185613a10565b95945050505050565b7f416363657373436f6e74726f6c3a206163636f756e7420000000000000000000815260008351614470816017850160208801613b44565b7f206973206d697373696e6720726f6c652000000000000000000000000000000060179184019182015283516144ad816028840160208801613b44565b01602801949350505050565b600073ffffffffffffffffffffffffffffffffffffffff808816835280871660208401525060a060408301526144f260a0830186613a10565b82810360608401526145048186613a10565b905082810360808401526145188185613b68565b98975050505050505050565b60006020828403121561453657600080fd5b815161381881613872565b600060033d111561193f5760046000803e5060005160e01c90565b600060443d101561456a5790565b6040517ffffffffffffffffffffffffffffffffffffffffffffffffffffffffffffffffc803d016004833e81513d67ffffffffffffffff81602484011181841117156145b857505050505090565b82850191508151818111156145d05750505050505090565b843d87010160208285010111156145ea5750505050505090565b6145f9602082860101876138ec565b509095945050505050565b600073ffffffffffffffffffffffffffffffffffffffff808816835280871660208401525084604083015283606083015260a0608083015261464960a0830184613b68565b979650505050505050565b6000817fffffffffffffffffffffffffffffffffffffffffffffffffffffffffffffffff048311821515161561468c5761468c61437d565b500290565b6000816146a0576146a061437d565b507fffffffffffffffffffffffffffffffffffffffffffffffffffffffffffffffff019056fea26469706673582212206ad90d8097177fcd394b44bd2a1d2b665fa0081828e5281382ee48c116f0a5b364736f6c63430008100033",
  "linkReferences": {},
  "deployedLinkReferences": {}
}