{
  "_format": "hh-sol-artifact-1",
  "contractName": "ERC2771_Trusted_Forwarder",
  "sourceName": "contracts/common/ERC2771_Trusted_Forwarder.sol",
  "abi": [
    {
      "inputs": [],
      "stateMutability": "nonpayable",
      "type": "constructor"
    },
    {
      "inputs": [
        {
          "components": [
            {
              "internalType": "address",
              "name": "from",
              "type": "address"
            },
            {
              "internalType": "address",
              "name": "to",
              "type": "address"
            },
            {
              "internalType": "uint256",
              "name": "value",
              "type": "uint256"
            },
            {
              "internalType": "uint256",
              "name": "gas",
              "type": "uint256"
            },
            {
              "internalType": "uint256",
              "name": "nonce",
              "type": "uint256"
            },
            {
              "internalType": "bytes",
              "name": "data",
              "type": "bytes"
            }
          ],
          "internalType": "struct ERC2771_Trusted_Forwarder.ForwardRequest",
          "name": "req",
          "type": "tuple"
        },
        {
          "internalType": "bytes",
          "name": "signature",
          "type": "bytes"
        }
      ],
      "name": "execute",
      "outputs": [
        {
          "internalType": "bool",
          "name": "",
          "type": "bool"
        },
        {
          "internalType": "bytes",
          "name": "",
          "type": "bytes"
        }
      ],
      "stateMutability": "payable",
      "type": "function"
    },
    {
      "inputs": [
        {
          "components": [
            {
              "internalType": "address",
              "name": "from",
              "type": "address"
            },
            {
              "internalType": "address",
              "name": "to",
              "type": "address"
            },
            {
              "internalType": "uint256",
              "name": "value",
              "type": "uint256"
            },
            {
              "internalType": "uint256",
              "name": "gas",
              "type": "uint256"
            },
            {
              "internalType": "uint256",
              "name": "nonce",
              "type": "uint256"
            },
            {
              "internalType": "bytes",
              "name": "data",
              "type": "bytes"
            }
          ],
          "internalType": "struct ERC2771_Trusted_Forwarder.ForwardRequest",
          "name": "req",
          "type": "tuple"
        },
        {
          "internalType": "bytes",
          "name": "signature",
          "type": "bytes"
        }
      ],
      "name": "verify",
      "outputs": [
        {
          "internalType": "bool",
          "name": "",
          "type": "bool"
        }
      ],
      "stateMutability": "view",
      "type": "function"
    }
  ],
  "bytecode": "0x61014060405234801561001157600080fd5b50604080518082018252601981527f455243323737315f547275737465645f466f72776172646572000000000000006020808301918252835180850190945260058452640312e302e360dc1b908401528151902060e08190527f06c015bd22b4c69690933c1058878ebdfef31f9aaae40bbe86d8a09fe1b2972c6101008190524660a0529192917f8b73c3c69bb8fe3d512ecc4cf759cc79239f7b179b0ffacaa9a75d522b39400f6101088184846040805160208101859052908101839052606081018290524660808201523060a082015260009060c0016040516020818303038152906040528051906020012090509392505050565b6080523060c052610120525061011d92505050565b60805160a05160c05160e0516101005161012051610cf361016c60003960006105af015260006105fe015260006105d9015260006105320152600061055c015260006105860152610cf36000f3fe6080604052600436106100295760003560e01c806347153f821461002e578063bf5d3bdb14610058575b600080fd5b61004161003c366004610a00565b610088565b60405161004f929190610ac3565b60405180910390f35b34801561006457600080fd5b50610078610073366004610a00565b6102cb565b604051901515815260200161004f565b600060606100978585856102cb565b61014e576040517f08c379a000000000000000000000000000000000000000000000000000000000815260206004820152605260248201527f455243323737315f547275737465645f466f727761726465723a207369676e6160448201527f7475726520646f6573206e6f74206d617463682072657175657374206f72206e60648201527f6f6e636520686173206265656e20757365640000000000000000000000000000608482015260a4015b60405180910390fd5b60016000806101606020890189610b1d565b73ffffffffffffffffffffffffffffffffffffffff1681526020808201929092526040908101600090812060808a01358252835281812080547fffffffffffffffffffffffffffffffffffffffffffffffffffffffffffffff00169415159490941790935582916101d5918901908901610b1d565b73ffffffffffffffffffffffffffffffffffffffff166060880135604089013561020260a08b018b610b5a565b61020f60208d018d610b1d565b60405160200161022193929190610bbf565b604080517fffffffffffffffffffffffffffffffffffffffffffffffffffffffffffffffe08184030181529082905261025991610bf8565b600060405180830381858888f193505050503d8060008114610297576040519150601f19603f3d011682016040523d82523d6000602084013e61029c565b606091505b5090925090506102b1603f6060890135610c14565b5a116102bf576102bf610c4f565b90969095509350505050565b6000806103eb84848080601f0160208091040260200160405190810160405280939291908181526020018383808284376000920191909152506103e592507fdd8f4b70b0f4393e889bd39128a30628a78b61816a9eb8199759e7a349657e48915061033b905060208a018a610b1d565b61034b60408b0160208c01610b1d565b60408b013560608c013560808d013561036760a08f018f610b5a565b604051610375929190610c7e565b60408051918290038220602083019890985273ffffffffffffffffffffffffffffffffffffffff96871690820152949093166060850152608084019190915260a083015260c082015260e08101919091526101000160405160208183030381529060405280519060200120610485565b906104f4565b90506000806103fd6020880188610b1d565b73ffffffffffffffffffffffffffffffffffffffff168152602080820192909252604090810160009081206080890135825290925290205460ff1615801561047c575061044d6020860186610b1d565b73ffffffffffffffffffffffffffffffffffffffff168173ffffffffffffffffffffffffffffffffffffffff16145b95945050505050565b60006104ee610492610518565b836040517f19010000000000000000000000000000000000000000000000000000000000006020820152602281018390526042810182905260009060620160405160208183030381529060405280519060200120905092915050565b92915050565b6000806000610503858561064c565b9150915061051081610691565b509392505050565b60003073ffffffffffffffffffffffffffffffffffffffff7f00000000000000000000000000000000000000000000000000000000000000001614801561057e57507f000000000000000000000000000000000000000000000000000000000000000046145b156105a857507f000000000000000000000000000000000000000000000000000000000000000090565b50604080517f00000000000000000000000000000000000000000000000000000000000000006020808301919091527f0000000000000000000000000000000000000000000000000000000000000000828401527f000000000000000000000000000000000000000000000000000000000000000060608301524660808301523060a0808401919091528351808403909101815260c0909201909252805191012090565b60008082516041036106825760208301516040840151606085015160001a610676878285856108e8565b9450945050505061068a565b506000905060025b9250929050565b60008160048111156106a5576106a5610c8e565b036106ad5750565b60018160048111156106c1576106c1610c8e565b03610728576040517f08c379a000000000000000000000000000000000000000000000000000000000815260206004820152601860248201527f45434453413a20696e76616c6964207369676e617475726500000000000000006044820152606401610145565b600281600481111561073c5761073c610c8e565b036107a3576040517f08c379a000000000000000000000000000000000000000000000000000000000815260206004820152601f60248201527f45434453413a20696e76616c6964207369676e6174757265206c656e677468006044820152606401610145565b60038160048111156107b7576107b7610c8e565b03610844576040517f08c379a000000000000000000000000000000000000000000000000000000000815260206004820152602260248201527f45434453413a20696e76616c6964207369676e6174757265202773272076616c60448201527f75650000000000000000000000000000000000000000000000000000000000006064820152608401610145565b600481600481111561085857610858610c8e565b036108e5576040517f08c379a000000000000000000000000000000000000000000000000000000000815260206004820152602260248201527f45434453413a20696e76616c6964207369676e6174757265202776272076616c60448201527f75650000000000000000000000000000000000000000000000000000000000006064820152608401610145565b50565b6000807f7fffffffffffffffffffffffffffffff5d576e7357a4501ddfe92f46681b20a083111561091f57506000905060036109f7565b8460ff16601b1415801561093757508460ff16601c14155b1561094857506000905060046109f7565b6040805160008082526020820180845289905260ff881692820192909252606081018690526080810185905260019060a0016020604051602081039080840390855afa15801561099c573d6000803e3d6000fd5b50506040517fffffffffffffffffffffffffffffffffffffffffffffffffffffffffffffffe0015191505073ffffffffffffffffffffffffffffffffffffffff81166109f0576000600192509250506109f7565b9150600090505b94509492505050565b600080600060408486031215610a1557600080fd5b833567ffffffffffffffff80821115610a2d57600080fd5b9085019060c08288031215610a4157600080fd5b90935060208501359080821115610a5757600080fd5b818601915086601f830112610a6b57600080fd5b813581811115610a7a57600080fd5b876020828501011115610a8c57600080fd5b6020830194508093505050509250925092565b60005b83811015610aba578181015183820152602001610aa2565b50506000910152565b82151581526040602082015260008251806040840152610aea816060850160208701610a9f565b601f017fffffffffffffffffffffffffffffffffffffffffffffffffffffffffffffffe016919091016060019392505050565b600060208284031215610b2f57600080fd5b813573ffffffffffffffffffffffffffffffffffffffff81168114610b5357600080fd5b9392505050565b60008083357fffffffffffffffffffffffffffffffffffffffffffffffffffffffffffffffe1843603018112610b8f57600080fd5b83018035915067ffffffffffffffff821115610baa57600080fd5b60200191503681900382131561068a57600080fd5b8284823760609190911b7fffffffffffffffffffffffffffffffffffffffff000000000000000000000000169101908152601401919050565b60008251610c0a818460208701610a9f565b9190910192915050565b600082610c4a577f4e487b7100000000000000000000000000000000000000000000000000000000600052601260045260246000fd5b500490565b7f4e487b7100000000000000000000000000000000000000000000000000000000600052600160045260246000fd5b8183823760009101908152919050565b7f4e487b7100000000000000000000000000000000000000000000000000000000600052602160045260246000fdfea2646970667358221220df2eef2ee1378499ad087a6da87d28f4a63b57c3596ed35e3376195787781a3564736f6c63430008100033",
  "linkReferences": {},
  "deployedLinkReferences": {}
}