{
  "_format": "hh-sol-artifact-1",
  "contractName": "ERC2771_Trusted_Forwarder",
  "sourceName": "contracts/common/ERC2771_Trusted_Forwarder.sol",
  "abi": [
    {
      "inputs": [],
      "stateMutability": "nonpayable",
      "type": "constructor"
    },
    {
      "inputs": [
        {
          "components": [
            {
              "internalType": "address",
              "name": "from",
              "type": "address"
            },
            {
              "internalType": "address",
              "name": "to",
              "type": "address"
            },
            {
              "internalType": "uint256",
              "name": "value",
              "type": "uint256"
            },
            {
              "internalType": "uint256",
              "name": "gas",
              "type": "uint256"
            },
            {
              "internalType": "uint256",
              "name": "nonce",
              "type": "uint256"
            },
            {
              "internalType": "bytes",
              "name": "data",
              "type": "bytes"
            }
          ],
          "internalType": "struct ERC2771_Trusted_Forwarder.ForwardRequest",
          "name": "req",
          "type": "tuple"
        },
        {
          "internalType": "bytes",
          "name": "signature",
          "type": "bytes"
        }
      ],
      "name": "execute",
      "outputs": [
        {
          "internalType": "bool",
          "name": "",
          "type": "bool"
        },
        {
          "internalType": "bytes",
          "name": "",
          "type": "bytes"
        }
      ],
      "stateMutability": "payable",
      "type": "function"
    },
    {
      "inputs": [
        {
          "internalType": "address",
          "name": "delegate",
          "type": "address"
        },
        {
          "internalType": "bool",
          "name": "approved",
          "type": "bool"
        }
      ],
      "name": "setApprovalForAll",
      "outputs": [],
      "stateMutability": "nonpayable",
      "type": "function"
    },
    {
      "inputs": [
        {
          "internalType": "address",
          "name": "delegate",
          "type": "address"
        },
        {
          "internalType": "bool",
          "name": "approved",
          "type": "bool"
        },
        {
          "internalType": "address",
          "name": "signer",
          "type": "address"
        },
        {
          "internalType": "uint256",
          "name": "nonce",
          "type": "uint256"
        },
        {
          "internalType": "bytes",
          "name": "signature",
          "type": "bytes"
        }
      ],
      "name": "setApprovalForAllBySignature",
      "outputs": [],
      "stateMutability": "nonpayable",
      "type": "function"
    },
    {
      "inputs": [
        {
          "components": [
            {
              "internalType": "address",
              "name": "from",
              "type": "address"
            },
            {
              "internalType": "address",
              "name": "to",
              "type": "address"
            },
            {
              "internalType": "uint256",
              "name": "value",
              "type": "uint256"
            },
            {
              "internalType": "uint256",
              "name": "gas",
              "type": "uint256"
            },
            {
              "internalType": "uint256",
              "name": "nonce",
              "type": "uint256"
            },
            {
              "internalType": "bytes",
              "name": "data",
              "type": "bytes"
            }
          ],
          "internalType": "struct ERC2771_Trusted_Forwarder.ForwardRequest",
          "name": "req",
          "type": "tuple"
        },
        {
          "internalType": "bytes",
          "name": "signature",
          "type": "bytes"
        }
      ],
      "name": "verify",
      "outputs": [
        {
          "internalType": "bool",
          "name": "",
          "type": "bool"
        }
      ],
      "stateMutability": "view",
      "type": "function"
    }
  ],
  "bytecode": "0x61014060405234801561001157600080fd5b50604080518082018252601981527f455243323737315f547275737465645f466f72776172646572000000000000006020808301918252835180850190945260058452640312e302e360dc1b908401528151902060e08190527f06c015bd22b4c69690933c1058878ebdfef31f9aaae40bbe86d8a09fe1b2972c6101008190524660a0529192917f8b73c3c69bb8fe3d512ecc4cf759cc79239f7b179b0ffacaa9a75d522b39400f6101088184846040805160208101859052908101839052606081018290524660808201523060a082015260009060c0016040516020818303038152906040528051906020012090509392505050565b6080523060c052610120525061011d92505050565b60805160a05160c05160e051610100516101205161119061016c6000396000610c0401526000610c5301526000610c2e01526000610b8701526000610bb101526000610bdb01526111906000f3fe60806040526004361061003f5760003560e01c80633c7872711461004457806347153f8214610066578063a22cb46514610090578063bf5d3bdb1461010e575b600080fd5b34801561005057600080fd5b5061006461005f366004610e34565b61013e565b005b610079610074366004610eb3565b6103fb565b604051610087929190610f48565b60405180910390f35b34801561009c57600080fd5b506100646100ab366004610fa2565b33600090815260016020908152604080832073ffffffffffffffffffffffffffffffffffffffff9590951683529390529190912080547fffffffffffffffffffffffffffffffffffffffffffffffffffffffffffffff0016911515919091179055565b34801561011a57600080fd5b5061012e610129366004610eb3565b610639565b6040519015158152602001610087565b600061021e83838080601f016020809104026020016040519081016040528093929190818152602001838380828437600092019190915250506040805173ffffffffffffffffffffffffffffffffffffffff8d81166020808401919091528d151583850152908c16606083015260808083018c90528351808403909101815260a0830184528051908201207f19457468657265756d205369676e6564204d6573736167653a0a33320000000060c084015260dc808401919091528351808403909101815260fc909201909252805191012091506102189050565b9061083e565b90508073ffffffffffffffffffffffffffffffffffffffff168573ffffffffffffffffffffffffffffffffffffffff16146102e0576040517f08c379a000000000000000000000000000000000000000000000000000000000815260206004820152603160248201527f5369676e6572207265636f76657265642066726f6d207369676e61747572652060448201527f6d69736d617463686564207369676e657200000000000000000000000000000060648201526084015b60405180910390fd5b73ffffffffffffffffffffffffffffffffffffffff851660009081526020818152604080832087845290915290205460ff1615610379576040517f08c379a000000000000000000000000000000000000000000000000000000000815260206004820152601360248201527f6e6f6e636520686173206265656e20757365640000000000000000000000000060448201526064016102d7565b50505073ffffffffffffffffffffffffffffffffffffffff918216600081815260208181526040808320948352938152838220805460017fffffffffffffffffffffffffffffffffffffffffffffffffffffffffffffff0091821681179092559383528152838220969094168152949092529092208054909216901515179055565b6000606061040a858585610639565b6104bc576040517f08c379a000000000000000000000000000000000000000000000000000000000815260206004820152605860248201527f455243323737315f547275737465645f466f727761726465723a20626164207360448201527f69676e61747572652c206e6f6e636520686173206265656e20757365642c206f60648201527f72206e6f7420617070726f7665642064656c65676174652e0000000000000000608482015260a4016102d7565b60016000806104ce6020890189610fd5565b73ffffffffffffffffffffffffffffffffffffffff1681526020808201929092526040908101600090812060808a01358252835281812080547fffffffffffffffffffffffffffffffffffffffffffffffffffffffffffffff0016941515949094179093558291610543918901908901610fd5565b73ffffffffffffffffffffffffffffffffffffffff166060880135604089013561057060a08b018b610ff7565b61057d60208d018d610fd5565b60405160200161058f9392919061105c565b604080517fffffffffffffffffffffffffffffffffffffffffffffffffffffffffffffffe0818403018152908290526105c791611095565b600060405180830381858888f193505050503d8060008114610605576040519150601f19603f3d011682016040523d82523d6000602084013e61060a565b606091505b50909250905061061f603f60608901356110b1565b5a1161062d5761062d6110ec565b90969095509350505050565b60008061075384848080601f01602080910402602001604051908101604052809392919081815260200183838082843760009201919091525061021892507fdd8f4b70b0f4393e889bd39128a30628a78b61816a9eb8199759e7a349657e4891506106a9905060208a018a610fd5565b6106b960408b0160208c01610fd5565b60408b013560608c013560808d01356106d560a08f018f610ff7565b6040516106e392919061111b565b60408051918290038220602083019890985273ffffffffffffffffffffffffffffffffffffffff96871690820152949093166060850152608084019190915260a083015260c082015260e08101919091526101000160405160208183030381529060405280519060200120610862565b90506000806107656020880188610fd5565b73ffffffffffffffffffffffffffffffffffffffff168152602080820192909252604090810160009081206080890135825290925290205460ff1615801561083557506107b56020860186610fd5565b73ffffffffffffffffffffffffffffffffffffffff168173ffffffffffffffffffffffffffffffffffffffff1614806108355750600160006107fa6020880188610fd5565b73ffffffffffffffffffffffffffffffffffffffff9081168252602080830193909352604091820160009081209185168152925290205460ff165b95945050505050565b600080600061084d85856108d1565b9150915061085a81610916565b509392505050565b60006108cb61086f610b6d565b836040517f19010000000000000000000000000000000000000000000000000000000000006020820152602281018390526042810182905260009060620160405160208183030381529060405280519060200120905092915050565b92915050565b60008082516041036109075760208301516040840151606085015160001a6108fb87828585610ca1565b9450945050505061090f565b506000905060025b9250929050565b600081600481111561092a5761092a61112b565b036109325750565b60018160048111156109465761094661112b565b036109ad576040517f08c379a000000000000000000000000000000000000000000000000000000000815260206004820152601860248201527f45434453413a20696e76616c6964207369676e6174757265000000000000000060448201526064016102d7565b60028160048111156109c1576109c161112b565b03610a28576040517f08c379a000000000000000000000000000000000000000000000000000000000815260206004820152601f60248201527f45434453413a20696e76616c6964207369676e6174757265206c656e6774680060448201526064016102d7565b6003816004811115610a3c57610a3c61112b565b03610ac9576040517f08c379a000000000000000000000000000000000000000000000000000000000815260206004820152602260248201527f45434453413a20696e76616c6964207369676e6174757265202773272076616c60448201527f756500000000000000000000000000000000000000000000000000000000000060648201526084016102d7565b6004816004811115610add57610add61112b565b03610b6a576040517f08c379a000000000000000000000000000000000000000000000000000000000815260206004820152602260248201527f45434453413a20696e76616c6964207369676e6174757265202776272076616c60448201527f756500000000000000000000000000000000000000000000000000000000000060648201526084016102d7565b50565b60003073ffffffffffffffffffffffffffffffffffffffff7f000000000000000000000000000000000000000000000000000000000000000016148015610bd357507f000000000000000000000000000000000000000000000000000000000000000046145b15610bfd57507f000000000000000000000000000000000000000000000000000000000000000090565b50604080517f00000000000000000000000000000000000000000000000000000000000000006020808301919091527f0000000000000000000000000000000000000000000000000000000000000000828401527f000000000000000000000000000000000000000000000000000000000000000060608301524660808301523060a0808401919091528351808403909101815260c0909201909252805191012090565b6000807f7fffffffffffffffffffffffffffffff5d576e7357a4501ddfe92f46681b20a0831115610cd85750600090506003610db0565b8460ff16601b14158015610cf057508460ff16601c14155b15610d015750600090506004610db0565b6040805160008082526020820180845289905260ff881692820192909252606081018690526080810185905260019060a0016020604051602081039080840390855afa158015610d55573d6000803e3d6000fd5b50506040517fffffffffffffffffffffffffffffffffffffffffffffffffffffffffffffffe0015191505073ffffffffffffffffffffffffffffffffffffffff8116610da957600060019250925050610db0565b9150600090505b94509492505050565b803573ffffffffffffffffffffffffffffffffffffffff81168114610ddd57600080fd5b919050565b80358015158114610ddd57600080fd5b60008083601f840112610e0457600080fd5b50813567ffffffffffffffff811115610e1c57600080fd5b60208301915083602082850101111561090f57600080fd5b60008060008060008060a08789031215610e4d57600080fd5b610e5687610db9565b9550610e6460208801610de2565b9450610e7260408801610db9565b935060608701359250608087013567ffffffffffffffff811115610e9557600080fd5b610ea189828a01610df2565b979a9699509497509295939492505050565b600080600060408486031215610ec857600080fd5b833567ffffffffffffffff80821115610ee057600080fd5b9085019060c08288031215610ef457600080fd5b90935060208501359080821115610f0a57600080fd5b50610f1786828701610df2565b9497909650939450505050565b60005b83811015610f3f578181015183820152602001610f27565b50506000910152565b82151581526040602082015260008251806040840152610f6f816060850160208701610f24565b601f017fffffffffffffffffffffffffffffffffffffffffffffffffffffffffffffffe016919091016060019392505050565b60008060408385031215610fb557600080fd5b610fbe83610db9565b9150610fcc60208401610de2565b90509250929050565b600060208284031215610fe757600080fd5b610ff082610db9565b9392505050565b60008083357fffffffffffffffffffffffffffffffffffffffffffffffffffffffffffffffe184360301811261102c57600080fd5b83018035915067ffffffffffffffff82111561104757600080fd5b60200191503681900382131561090f57600080fd5b8284823760609190911b7fffffffffffffffffffffffffffffffffffffffff000000000000000000000000169101908152601401919050565b600082516110a7818460208701610f24565b9190910192915050565b6000826110e7577f4e487b7100000000000000000000000000000000000000000000000000000000600052601260045260246000fd5b500490565b7f4e487b7100000000000000000000000000000000000000000000000000000000600052600160045260246000fd5b8183823760009101908152919050565b7f4e487b7100000000000000000000000000000000000000000000000000000000600052602160045260246000fdfea26469706673582212201438c5ecea9bfa6106eeb6408f104663b303ebddf20e9a6788f9ddfb61494f8d64736f6c63430008100033",
  "linkReferences": {},
  "deployedLinkReferences": {}
}