{
  "_format": "hh-sol-artifact-1",
  "contractName": "ERC2771_Trusted_Forwarder",
  "sourceName": "contracts/common/ERC2771_Trusted_Forwarder.sol",
  "abi": [
    {
      "inputs": [
        {
          "internalType": "address",
          "name": "_systemDelegateApprover",
          "type": "address"
        }
      ],
      "stateMutability": "nonpayable",
      "type": "constructor"
    },
    {
      "inputs": [
        {
          "components": [
            {
              "internalType": "address",
              "name": "from",
              "type": "address"
            },
            {
              "internalType": "address",
              "name": "to",
              "type": "address"
            },
            {
              "internalType": "uint256",
              "name": "value",
              "type": "uint256"
            },
            {
              "internalType": "uint256",
              "name": "gas",
              "type": "uint256"
            },
            {
              "internalType": "uint256",
              "name": "nonce",
              "type": "uint256"
            },
            {
              "internalType": "bytes",
              "name": "data",
              "type": "bytes"
            }
          ],
          "internalType": "struct ERC2771_Trusted_Forwarder.ForwardRequest",
          "name": "req",
          "type": "tuple"
        },
        {
          "internalType": "bytes",
          "name": "signature",
          "type": "bytes"
        }
      ],
      "name": "execute",
      "outputs": [
        {
          "internalType": "bool",
          "name": "",
          "type": "bool"
        },
        {
          "internalType": "bytes",
          "name": "",
          "type": "bytes"
        }
      ],
      "stateMutability": "payable",
      "type": "function"
    },
    {
      "inputs": [
        {
          "components": [
            {
              "internalType": "address",
              "name": "from",
              "type": "address"
            },
            {
              "internalType": "address",
              "name": "to",
              "type": "address"
            },
            {
              "internalType": "uint256",
              "name": "value",
              "type": "uint256"
            },
            {
              "internalType": "uint256",
              "name": "gas",
              "type": "uint256"
            },
            {
              "internalType": "uint256",
              "name": "nonce",
              "type": "uint256"
            },
            {
              "internalType": "bytes",
              "name": "data",
              "type": "bytes"
            }
          ],
          "internalType": "struct ERC2771_Trusted_Forwarder.ForwardRequest",
          "name": "req",
          "type": "tuple"
        },
        {
          "internalType": "bytes",
          "name": "signature",
          "type": "bytes"
        }
      ],
      "name": "verify",
      "outputs": [
        {
          "internalType": "bool",
          "name": "",
          "type": "bool"
        }
      ],
      "stateMutability": "view",
      "type": "function"
    }
  ],
  "bytecode": "0x61016060405234801561001157600080fd5b506040516111c43803806111c483398101604081905261003091610147565b604080518082018252601981527f455243323737315f547275737465645f466f72776172646572000000000000006020808301918252835180850190945260058452640312e302e360dc1b908401528151902060e08190527f06c015bd22b4c69690933c1058878ebdfef31f9aaae40bbe86d8a09fe1b2972c6101008190524660a0529192917f8b73c3c69bb8fe3d512ecc4cf759cc79239f7b179b0ffacaa9a75d522b39400f6101268184846040805160208101859052908101839052606081018290524660808201523060a082015260009060c0016040516020818303038152906040528051906020012090509392505050565b6080523060c05261012052505050506001600160a01b031661014052610177565b60006020828403121561015957600080fd5b81516001600160a01b038116811461017057600080fd5b9392505050565b60805160a05160c05160e051610100516101205161014051610ff36101d1600039600061057d015260006107c501526000610814015260006107ef01526000610748015260006107720152600061079c0152610ff36000f3fe6080604052600436106100295760003560e01c806347153f821461002e578063bf5d3bdb14610058575b600080fd5b61004161003c366004610b4c565b610088565b60405161004f929190610c0f565b60405180910390f35b34801561006457600080fd5b50610078610073366004610b4c565b6102f1565b604051901515815260200161004f565b600060606100978585856102f1565b610174576040517f08c379a000000000000000000000000000000000000000000000000000000000815260206004820152607660248201527f455243323737315f547275737465645f466f727761726465723a207369676e6160448201527f7475726520646f6573206e6f74206d6174636820726571756573742c2073696760648201527f6e6572206973206e6f7420617070726f76656420666f722073797374656d2c2060848201527f6f72206e6f6e636520686173206265656e20757365640000000000000000000060a482015260c4015b60405180910390fd5b60016000806101866020890189610c69565b73ffffffffffffffffffffffffffffffffffffffff1681526020808201929092526040908101600090812060808a01358252835281812080547fffffffffffffffffffffffffffffffffffffffffffffffffffffffffffffff00169415159490941790935582916101fb918901908901610c69565b73ffffffffffffffffffffffffffffffffffffffff166060880135604089013561022860a08b018b610c9f565b61023560208d018d610c69565b60405160200161024793929190610d04565b604080517fffffffffffffffffffffffffffffffffffffffffffffffffffffffffffffffe08184030181529082905261027f91610d3d565b600060405180830381858888f193505050503d80600081146102bd576040519150601f19603f3d011682016040523d82523d6000602084013e6102c2565b606091505b5090925090506102d7603f6060890135610d59565b5a116102e5576102e5610d94565b90969095509350505050565b60008061041184848080601f01602080910402602001604051908101604052809392919081815260200183838082843760009201919091525061040b92507fdd8f4b70b0f4393e889bd39128a30628a78b61816a9eb8199759e7a349657e489150610361905060208a018a610c69565b61037160408b0160208c01610c69565b60408b013560608c013560808d013561038d60a08f018f610c9f565b60405161039b929190610dc3565b60408051918290038220602083019890985273ffffffffffffffffffffffffffffffffffffffff96871690820152949093166060850152608084019190915260a083015260c082015260e0810191909152610100016040516020818303038152906040528051906020012061069b565b9061070a565b90506000806104236020880188610c69565b73ffffffffffffffffffffffffffffffffffffffff168152602080820192909252604090810160009081206080890135825290925290205460ff161561046d576000915050610694565b61047a6020860186610c69565b73ffffffffffffffffffffffffffffffffffffffff168173ffffffffffffffffffffffffffffffffffffffff16036104b6576001915050610694565b60006104c86040870160208801610c69565b73ffffffffffffffffffffffffffffffffffffffff1663cd11fa466040518163ffffffff1660e01b8152600401600060405180830381865afa158015610512573d6000803e3d6000fd5b505050506040513d6000823e601f3d9081017fffffffffffffffffffffffffffffffffffffffffffffffffffffffffffffffe01682016040526105589190810190610e02565b905060005b815181101561068c5773ffffffffffffffffffffffffffffffffffffffff7f0000000000000000000000000000000000000000000000000000000000000000166384249eef6105af60208a018a610c69565b8484815181106105c1576105c1610ede565b60209081029190910101516040517fffffffff0000000000000000000000000000000000000000000000000000000060e085901b16815273ffffffffffffffffffffffffffffffffffffffff928316600482015260248101919091529086166044820152606401602060405180830381865afa158015610645573d6000803e3d6000fd5b505050506040513d601f19601f820116820180604052508101906106699190610f0d565b1561067a5760019350505050610694565b8061068481610f2f565b91505061055d565b506000925050505b9392505050565b60006107046106a861072e565b836040517f19010000000000000000000000000000000000000000000000000000000000006020820152602281018390526042810182905260009060620160405160208183030381529060405280519060200120905092915050565b92915050565b60008060006107198585610862565b91509150610726816108a7565b509392505050565b60003073ffffffffffffffffffffffffffffffffffffffff7f00000000000000000000000000000000000000000000000000000000000000001614801561079457507f000000000000000000000000000000000000000000000000000000000000000046145b156107be57507f000000000000000000000000000000000000000000000000000000000000000090565b50604080517f00000000000000000000000000000000000000000000000000000000000000006020808301919091527f0000000000000000000000000000000000000000000000000000000000000000828401527f000000000000000000000000000000000000000000000000000000000000000060608301524660808301523060a0808401919091528351808403909101815260c0909201909252805191012090565b60008082516041036108985760208301516040840151606085015160001a61088c87828585610a5d565b945094505050506108a0565b506000905060025b9250929050565b60008160048111156108bb576108bb610f8e565b036108c35750565b60018160048111156108d7576108d7610f8e565b0361093e576040517f08c379a000000000000000000000000000000000000000000000000000000000815260206004820152601860248201527f45434453413a20696e76616c6964207369676e61747572650000000000000000604482015260640161016b565b600281600481111561095257610952610f8e565b036109b9576040517f08c379a000000000000000000000000000000000000000000000000000000000815260206004820152601f60248201527f45434453413a20696e76616c6964207369676e6174757265206c656e67746800604482015260640161016b565b60038160048111156109cd576109cd610f8e565b03610a5a576040517f08c379a000000000000000000000000000000000000000000000000000000000815260206004820152602260248201527f45434453413a20696e76616c6964207369676e6174757265202773272076616c60448201527f7565000000000000000000000000000000000000000000000000000000000000606482015260840161016b565b50565b6000807f7fffffffffffffffffffffffffffffff5d576e7357a4501ddfe92f46681b20a0831115610a945750600090506003610b43565b6040805160008082526020820180845289905260ff881692820192909252606081018690526080810185905260019060a0016020604051602081039080840390855afa158015610ae8573d6000803e3d6000fd5b50506040517fffffffffffffffffffffffffffffffffffffffffffffffffffffffffffffffe0015191505073ffffffffffffffffffffffffffffffffffffffff8116610b3c57600060019250925050610b43565b9150600090505b94509492505050565b600080600060408486031215610b6157600080fd5b833567ffffffffffffffff80821115610b7957600080fd5b9085019060c08288031215610b8d57600080fd5b90935060208501359080821115610ba357600080fd5b818601915086601f830112610bb757600080fd5b813581811115610bc657600080fd5b876020828501011115610bd857600080fd5b6020830194508093505050509250925092565b60005b83811015610c06578181015183820152602001610bee565b50506000910152565b82151581526040602082015260008251806040840152610c36816060850160208701610beb565b601f017fffffffffffffffffffffffffffffffffffffffffffffffffffffffffffffffe016919091016060019392505050565b600060208284031215610c7b57600080fd5b813573ffffffffffffffffffffffffffffffffffffffff8116811461069457600080fd5b60008083357fffffffffffffffffffffffffffffffffffffffffffffffffffffffffffffffe1843603018112610cd457600080fd5b83018035915067ffffffffffffffff821115610cef57600080fd5b6020019150368190038213156108a057600080fd5b8284823760609190911b7fffffffffffffffffffffffffffffffffffffffff000000000000000000000000169101908152601401919050565b60008251610d4f818460208701610beb565b9190910192915050565b600082610d8f577f4e487b7100000000000000000000000000000000000000000000000000000000600052601260045260246000fd5b500490565b7f4e487b7100000000000000000000000000000000000000000000000000000000600052600160045260246000fd5b8183823760009101908152919050565b7f4e487b7100000000000000000000000000000000000000000000000000000000600052604160045260246000fd5b60006020808385031215610e1557600080fd5b825167ffffffffffffffff80821115610e2d57600080fd5b818501915085601f830112610e4157600080fd5b815181811115610e5357610e53610dd3565b8060051b6040517fffffffffffffffffffffffffffffffffffffffffffffffffffffffffffffffe0603f83011681018181108582111715610e9657610e96610dd3565b604052918252848201925083810185019188831115610eb457600080fd5b938501935b82851015610ed257845184529385019392850192610eb9565b98975050505050505050565b7f4e487b7100000000000000000000000000000000000000000000000000000000600052603260045260246000fd5b600060208284031215610f1f57600080fd5b8151801515811461069457600080fd5b60007fffffffffffffffffffffffffffffffffffffffffffffffffffffffffffffffff8203610f87577f4e487b7100000000000000000000000000000000000000000000000000000000600052601160045260246000fd5b5060010190565b7f4e487b7100000000000000000000000000000000000000000000000000000000600052602160045260246000fdfea2646970667358221220c56e8733da72e13a3ec29cda2772941ccba1513139a5b0c9c74a60d83b5adfae64736f6c63430008100033",
  "linkReferences": {},
  "deployedLinkReferences": {}
}