{
  "_format": "hh-sol-artifact-1",
  "contractName": "ERC2771_Trusted_Forwarder",
  "sourceName": "contracts/common/ERC2771_Trusted_Forwarder.sol",
  "abi": [
    {
      "inputs": [],
      "stateMutability": "nonpayable",
      "type": "constructor"
    },
    {
      "inputs": [
        {
          "components": [
            {
              "internalType": "address",
              "name": "from",
              "type": "address"
            },
            {
              "internalType": "address",
              "name": "to",
              "type": "address"
            },
            {
              "internalType": "uint256",
              "name": "value",
              "type": "uint256"
            },
            {
              "internalType": "uint256",
              "name": "gas",
              "type": "uint256"
            },
            {
              "internalType": "uint256",
              "name": "nonce",
              "type": "uint256"
            },
            {
              "internalType": "bytes",
              "name": "data",
              "type": "bytes"
            }
          ],
          "internalType": "struct ERC2771_Trusted_Forwarder.ForwardRequest",
          "name": "req",
          "type": "tuple"
        },
        {
          "internalType": "bytes",
          "name": "signature",
          "type": "bytes"
        }
      ],
      "name": "execute",
      "outputs": [
        {
          "internalType": "bool",
          "name": "",
          "type": "bool"
        },
        {
          "internalType": "bytes",
          "name": "",
          "type": "bytes"
        }
      ],
      "stateMutability": "payable",
      "type": "function"
    },
    {
      "inputs": [
        {
          "internalType": "address",
          "name": "account",
          "type": "address"
        },
        {
          "internalType": "bytes32",
          "name": "systemId",
          "type": "bytes32"
        },
        {
          "internalType": "address",
          "name": "delegate",
          "type": "address"
        }
      ],
      "name": "isDelegateApprovedForSystem",
      "outputs": [
        {
          "internalType": "bool",
          "name": "",
          "type": "bool"
        }
      ],
      "stateMutability": "view",
      "type": "function"
    },
    {
      "inputs": [
        {
          "internalType": "bytes32",
          "name": "systemId",
          "type": "bytes32"
        },
        {
          "internalType": "address",
          "name": "delegate",
          "type": "address"
        },
        {
          "internalType": "bool",
          "name": "approved",
          "type": "bool"
        }
      ],
      "name": "setDelegateApprovalForSystem",
      "outputs": [],
      "stateMutability": "nonpayable",
      "type": "function"
    },
    {
      "inputs": [
        {
          "internalType": "bytes32",
          "name": "systemId",
          "type": "bytes32"
        },
        {
          "internalType": "address",
          "name": "delegate",
          "type": "address"
        },
        {
          "internalType": "bool",
          "name": "approved",
          "type": "bool"
        },
        {
          "internalType": "address",
          "name": "signer",
          "type": "address"
        },
        {
          "internalType": "uint256",
          "name": "nonce",
          "type": "uint256"
        },
        {
          "internalType": "bytes",
          "name": "signature",
          "type": "bytes"
        }
      ],
      "name": "setDelegateApprovalForSystemBySignature",
      "outputs": [],
      "stateMutability": "nonpayable",
      "type": "function"
    },
    {
      "inputs": [
        {
          "components": [
            {
              "internalType": "address",
              "name": "from",
              "type": "address"
            },
            {
              "internalType": "address",
              "name": "to",
              "type": "address"
            },
            {
              "internalType": "uint256",
              "name": "value",
              "type": "uint256"
            },
            {
              "internalType": "uint256",
              "name": "gas",
              "type": "uint256"
            },
            {
              "internalType": "uint256",
              "name": "nonce",
              "type": "uint256"
            },
            {
              "internalType": "bytes",
              "name": "data",
              "type": "bytes"
            }
          ],
          "internalType": "struct ERC2771_Trusted_Forwarder.ForwardRequest",
          "name": "req",
          "type": "tuple"
        },
        {
          "internalType": "bytes",
          "name": "signature",
          "type": "bytes"
        }
      ],
      "name": "verify",
      "outputs": [
        {
          "internalType": "bool",
          "name": "",
          "type": "bool"
        }
      ],
      "stateMutability": "view",
      "type": "function"
    }
  ],
  "bytecode": "0x61014060405234801561001157600080fd5b50604080518082018252601981527f455243323737315f547275737465645f466f72776172646572000000000000006020808301918252835180850190945260058452640312e302e360dc1b908401528151902060e08190527f06c015bd22b4c69690933c1058878ebdfef31f9aaae40bbe86d8a09fe1b2972c6101008190524660a0529192917f8b73c3c69bb8fe3d512ecc4cf759cc79239f7b179b0ffacaa9a75d522b39400f6101088184846040805160208101859052908101839052606081018290524660808201523060a082015260009060c0016040516020818303038152906040528051906020012090509392505050565b6080523060c052610120525061011d92505050565b60805160a05160c05160e051610100516101205161132e61016c6000396000610d4301526000610d9201526000610d6d01526000610cc601526000610cf001526000610d1a015261132e6000f3fe60806040526004361061005a5760003560e01c8063a83a42bb11610043578063a83a42bb146100f7578063bca5bee514610180578063bf5d3bdb146101a057600080fd5b806347153f821461005f57806384249eef14610089575b600080fd5b61007261006d366004610f3a565b6101c0565b604051610080929190610fcf565b60405180910390f35b34801561009557600080fd5b506100e76100a4366004611052565b73ffffffffffffffffffffffffffffffffffffffff9283166000908152600160209081526040808320948352938152838220929094168152925290205460ff1690565b6040519015158152602001610080565b34801561010357600080fd5b5061017e61011236600461109e565b33600090815260016020908152604080832095835294815284822073ffffffffffffffffffffffffffffffffffffffff9490941682529290925291902080547fffffffffffffffffffffffffffffffffffffffffffffffffffffffffffffff0016911515919091179055565b005b34801561018c57600080fd5b5061017e61019b3660046110d1565b610429565b3480156101ac57600080fd5b506100e76101bb366004610f3a565b6106f2565b600060606101cf8585856106f2565b6102ac576040517f08c379a000000000000000000000000000000000000000000000000000000000815260206004820152607660248201527f455243323737315f547275737465645f466f727761726465723a207369676e6160448201527f7475726520646f6573206e6f74206d6174636820726571756573742c2073696760648201527f6e6572206973206e6f7420617070726f76656420666f722073797374656d2c2060848201527f6f72206e6f6e636520686173206265656e20757365640000000000000000000060a482015260c4015b60405180910390fd5b60016000806102be602089018961115a565b73ffffffffffffffffffffffffffffffffffffffff1681526020808201929092526040908101600090812060808a01358252835281812080547fffffffffffffffffffffffffffffffffffffffffffffffffffffffffffffff001694151594909417909355829161033391890190890161115a565b73ffffffffffffffffffffffffffffffffffffffff166060880135604089013561036060a08b018b61117c565b61036d60208d018d61115a565b60405160200161037f939291906111e1565b604080517fffffffffffffffffffffffffffffffffffffffffffffffffffffffffffffffe0818403018152908290526103b79161121a565b600060405180830381858888f193505050503d80600081146103f5576040519150601f19603f3d011682016040523d82523d6000602084013e6103fa565b606091505b50909250905061040f603f6060890135611236565b5a1161041d5761041d611271565b90969095509350505050565b600061050d83838080601f016020809104026020016040519081016040528093929190818152602001838380828437600092019190915250506040805160208082018f905273ffffffffffffffffffffffffffffffffffffffff8e8116838501528d151560608401528c16608083015260a08083018c90528351808403909101815260c0830184528051908201207f19457468657265756d205369676e6564204d6573736167653a0a33320000000060e084015260fc808401919091528351808403909101815261011c909201909252805191012091506105079050565b9061097d565b90508073ffffffffffffffffffffffffffffffffffffffff168573ffffffffffffffffffffffffffffffffffffffff16146105ca576040517f08c379a000000000000000000000000000000000000000000000000000000000815260206004820152603160248201527f5369676e6572207265636f76657265642066726f6d207369676e61747572652060448201527f6d69736d617463686564207369676e657200000000000000000000000000000060648201526084016102a3565b73ffffffffffffffffffffffffffffffffffffffff851660009081526020818152604080832087845290915290205460ff1615610663576040517f08c379a000000000000000000000000000000000000000000000000000000000815260206004820152601360248201527f6e6f6e636520686173206265656e20757365640000000000000000000000000060448201526064016102a3565b50505073ffffffffffffffffffffffffffffffffffffffff918216600081815260208181526040808320948352938152838220805460017fffffffffffffffffffffffffffffffffffffffffffffffffffffffffffffff009182168117909255938352815283822097825296875282812095909316835293909452929092208054909116911515919091179055565b60008061080c84848080601f01602080910402602001604051908101604052809392919081815260200183838082843760009201919091525061050792507fdd8f4b70b0f4393e889bd39128a30628a78b61816a9eb8199759e7a349657e489150610762905060208a018a61115a565b61077260408b0160208c0161115a565b60408b013560608c013560808d013561078e60a08f018f61117c565b60405161079c9291906112a0565b60408051918290038220602083019890985273ffffffffffffffffffffffffffffffffffffffff96871690820152949093166060850152608084019190915260a083015260c082015260e081019190915261010001604051602081830303815290604052805190602001206109a1565b905060008061081e602088018861115a565b73ffffffffffffffffffffffffffffffffffffffff168152602080820192909252604090810160009081206080890135825290925290205460ff16158015610974575061086e602086018661115a565b73ffffffffffffffffffffffffffffffffffffffff168173ffffffffffffffffffffffffffffffffffffffff16148061097457506109746108b2602087018761115a565b6108c2604088016020890161115a565b73ffffffffffffffffffffffffffffffffffffffff166339f898bc6040518163ffffffff1660e01b8152600401602060405180830381865afa15801561090c573d6000803e3d6000fd5b505050506040513d601f19601f8201168201806040525081019061093091906112b0565b8373ffffffffffffffffffffffffffffffffffffffff9283166000908152600160209081526040808320948352938152838220929094168152925290205460ff1690565b95945050505050565b600080600061098c8585610a10565b9150915061099981610a55565b509392505050565b6000610a0a6109ae610cac565b836040517f19010000000000000000000000000000000000000000000000000000000000006020820152602281018390526042810182905260009060620160405160208183030381529060405280519060200120905092915050565b92915050565b6000808251604103610a465760208301516040840151606085015160001a610a3a87828585610de0565b94509450505050610a4e565b506000905060025b9250929050565b6000816004811115610a6957610a696112c9565b03610a715750565b6001816004811115610a8557610a856112c9565b03610aec576040517f08c379a000000000000000000000000000000000000000000000000000000000815260206004820152601860248201527f45434453413a20696e76616c6964207369676e6174757265000000000000000060448201526064016102a3565b6002816004811115610b0057610b006112c9565b03610b67576040517f08c379a000000000000000000000000000000000000000000000000000000000815260206004820152601f60248201527f45434453413a20696e76616c6964207369676e6174757265206c656e6774680060448201526064016102a3565b6003816004811115610b7b57610b7b6112c9565b03610c08576040517f08c379a000000000000000000000000000000000000000000000000000000000815260206004820152602260248201527f45434453413a20696e76616c6964207369676e6174757265202773272076616c60448201527f756500000000000000000000000000000000000000000000000000000000000060648201526084016102a3565b6004816004811115610c1c57610c1c6112c9565b03610ca9576040517f08c379a000000000000000000000000000000000000000000000000000000000815260206004820152602260248201527f45434453413a20696e76616c6964207369676e6174757265202776272076616c60448201527f756500000000000000000000000000000000000000000000000000000000000060648201526084016102a3565b50565b60003073ffffffffffffffffffffffffffffffffffffffff7f000000000000000000000000000000000000000000000000000000000000000016148015610d1257507f000000000000000000000000000000000000000000000000000000000000000046145b15610d3c57507f000000000000000000000000000000000000000000000000000000000000000090565b50604080517f00000000000000000000000000000000000000000000000000000000000000006020808301919091527f0000000000000000000000000000000000000000000000000000000000000000828401527f000000000000000000000000000000000000000000000000000000000000000060608301524660808301523060a0808401919091528351808403909101815260c0909201909252805191012090565b6000807f7fffffffffffffffffffffffffffffff5d576e7357a4501ddfe92f46681b20a0831115610e175750600090506003610eef565b8460ff16601b14158015610e2f57508460ff16601c14155b15610e405750600090506004610eef565b6040805160008082526020820180845289905260ff881692820192909252606081018690526080810185905260019060a0016020604051602081039080840390855afa158015610e94573d6000803e3d6000fd5b50506040517fffffffffffffffffffffffffffffffffffffffffffffffffffffffffffffffe0015191505073ffffffffffffffffffffffffffffffffffffffff8116610ee857600060019250925050610eef565b9150600090505b94509492505050565b60008083601f840112610f0a57600080fd5b50813567ffffffffffffffff811115610f2257600080fd5b602083019150836020828501011115610a4e57600080fd5b600080600060408486031215610f4f57600080fd5b833567ffffffffffffffff80821115610f6757600080fd5b9085019060c08288031215610f7b57600080fd5b90935060208501359080821115610f9157600080fd5b50610f9e86828701610ef8565b9497909650939450505050565b60005b83811015610fc6578181015183820152602001610fae565b50506000910152565b82151581526040602082015260008251806040840152610ff6816060850160208701610fab565b601f017fffffffffffffffffffffffffffffffffffffffffffffffffffffffffffffffe016919091016060019392505050565b803573ffffffffffffffffffffffffffffffffffffffff8116811461104d57600080fd5b919050565b60008060006060848603121561106757600080fd5b61107084611029565b92506020840135915061108560408501611029565b90509250925092565b8035801515811461104d57600080fd5b6000806000606084860312156110b357600080fd5b833592506110c360208501611029565b91506110856040850161108e565b600080600080600080600060c0888a0312156110ec57600080fd5b873596506110fc60208901611029565b955061110a6040890161108e565b945061111860608901611029565b93506080880135925060a088013567ffffffffffffffff81111561113b57600080fd5b6111478a828b01610ef8565b989b979a50959850939692959293505050565b60006020828403121561116c57600080fd5b61117582611029565b9392505050565b60008083357fffffffffffffffffffffffffffffffffffffffffffffffffffffffffffffffe18436030181126111b157600080fd5b83018035915067ffffffffffffffff8211156111cc57600080fd5b602001915036819003821315610a4e57600080fd5b8284823760609190911b7fffffffffffffffffffffffffffffffffffffffff000000000000000000000000169101908152601401919050565b6000825161122c818460208701610fab565b9190910192915050565b60008261126c577f4e487b7100000000000000000000000000000000000000000000000000000000600052601260045260246000fd5b500490565b7f4e487b7100000000000000000000000000000000000000000000000000000000600052600160045260246000fd5b8183823760009101908152919050565b6000602082840312156112c257600080fd5b5051919050565b7f4e487b7100000000000000000000000000000000000000000000000000000000600052602160045260246000fdfea26469706673582212201d42ef096a79096727823b95baf0b34b453c65accc9c9f5a163510af77080fe064736f6c63430008100033",
  "linkReferences": {},
  "deployedLinkReferences": {}
}