{
  "_format": "hh-sol-artifact-1",
  "contractName": "System_Delegate_Approvals",
  "sourceName": "contracts/common/System_Delegate_Approvals.sol",
  "abi": [
    {
      "inputs": [
        {
          "internalType": "address",
          "name": "account",
          "type": "address"
        },
        {
          "internalType": "bytes32",
          "name": "systemId",
          "type": "bytes32"
        },
        {
          "internalType": "address",
          "name": "delegate",
          "type": "address"
        }
      ],
      "name": "isDelegateApprovedForSystem",
      "outputs": [
        {
          "internalType": "bool",
          "name": "",
          "type": "bool"
        }
      ],
      "stateMutability": "view",
      "type": "function"
    },
    {
      "inputs": [
        {
          "internalType": "bytes32",
          "name": "systemId",
          "type": "bytes32"
        },
        {
          "internalType": "address",
          "name": "delegate",
          "type": "address"
        },
        {
          "internalType": "bool",
          "name": "approved",
          "type": "bool"
        }
      ],
      "name": "setDelegateApprovalForSystem",
      "outputs": [],
      "stateMutability": "nonpayable",
      "type": "function"
    },
    {
      "inputs": [
        {
          "internalType": "bytes32",
          "name": "systemId",
          "type": "bytes32"
        },
        {
          "internalType": "address",
          "name": "delegate",
          "type": "address"
        },
        {
          "internalType": "bool",
          "name": "approved",
          "type": "bool"
        },
        {
          "internalType": "address",
          "name": "signer",
          "type": "address"
        },
        {
          "internalType": "uint256",
          "name": "nonce",
          "type": "uint256"
        },
        {
          "internalType": "bytes",
          "name": "signature",
          "type": "bytes"
        }
      ],
      "name": "setDelegateApprovalForSystemBySignature",
      "outputs": [],
      "stateMutability": "nonpayable",
      "type": "function"
    }
  ],
  "bytecode": "0x608060405234801561001057600080fd5b506108d6806100206000396000f3fe608060405234801561001057600080fd5b50600436106100415760003560e01c806384249eef14610046578063a83a42bb146100ab578063bca5bee514610127575b600080fd5b61009761005436600461073a565b73ffffffffffffffffffffffffffffffffffffffff9283166000908152600160209081526040808320948352938152838220929094168152925290205460ff1690565b604051901515815260200160405180910390f35b6101256100b9366004610786565b33600090815260016020908152604080832095835294815284822073ffffffffffffffffffffffffffffffffffffffff9490941682529290925291902080547fffffffffffffffffffffffffffffffffffffffffffffffffffffffffffffff0016911515919091179055565b005b6101256101353660046107b9565b600061021983838080601f016020809104026020016040519081016040528093929190818152602001838380828437600092019190915250506040805160208082018f905273ffffffffffffffffffffffffffffffffffffffff8e8116838501528d151560608401528c16608083015260a08083018c90528351808403909101815260c0830184528051908201207f19457468657265756d205369676e6564204d6573736167653a0a33320000000060e084015260fc808401919091528351808403909101815261011c909201909252805191012091506102139050565b90610403565b90508073ffffffffffffffffffffffffffffffffffffffff168573ffffffffffffffffffffffffffffffffffffffff16146102db576040517f08c379a000000000000000000000000000000000000000000000000000000000815260206004820152603160248201527f5369676e6572207265636f76657265642066726f6d207369676e61747572652060448201527f6d69736d617463686564207369676e657200000000000000000000000000000060648201526084015b60405180910390fd5b73ffffffffffffffffffffffffffffffffffffffff851660009081526020818152604080832087845290915290205460ff1615610374576040517f08c379a000000000000000000000000000000000000000000000000000000000815260206004820152601360248201527f6e6f6e636520686173206265656e20757365640000000000000000000000000060448201526064016102d2565b50505073ffffffffffffffffffffffffffffffffffffffff918216600081815260208181526040808320948352938152838220805460017fffffffffffffffffffffffffffffffffffffffffffffffffffffffffffffff009182168117909255938352815283822097825296875282812095909316835293909452929092208054909116911515919091179055565b60008060006104128585610427565b9150915061041f8161046c565b509392505050565b600080825160410361045d5760208301516040840151606085015160001a61045187828585610622565b94509450505050610465565b506000905060025b9250929050565b600081600481111561048057610480610871565b036104885750565b600181600481111561049c5761049c610871565b03610503576040517f08c379a000000000000000000000000000000000000000000000000000000000815260206004820152601860248201527f45434453413a20696e76616c6964207369676e6174757265000000000000000060448201526064016102d2565b600281600481111561051757610517610871565b0361057e576040517f08c379a000000000000000000000000000000000000000000000000000000000815260206004820152601f60248201527f45434453413a20696e76616c6964207369676e6174757265206c656e6774680060448201526064016102d2565b600381600481111561059257610592610871565b0361061f576040517f08c379a000000000000000000000000000000000000000000000000000000000815260206004820152602260248201527f45434453413a20696e76616c6964207369676e6174757265202773272076616c60448201527f756500000000000000000000000000000000000000000000000000000000000060648201526084016102d2565b50565b6000807f7fffffffffffffffffffffffffffffff5d576e7357a4501ddfe92f46681b20a08311156106595750600090506003610708565b6040805160008082526020820180845289905260ff881692820192909252606081018690526080810185905260019060a0016020604051602081039080840390855afa1580156106ad573d6000803e3d6000fd5b50506040517fffffffffffffffffffffffffffffffffffffffffffffffffffffffffffffffe0015191505073ffffffffffffffffffffffffffffffffffffffff811661070157600060019250925050610708565b9150600090505b94509492505050565b803573ffffffffffffffffffffffffffffffffffffffff8116811461073557600080fd5b919050565b60008060006060848603121561074f57600080fd5b61075884610711565b92506020840135915061076d60408501610711565b90509250925092565b8035801515811461073557600080fd5b60008060006060848603121561079b57600080fd5b833592506107ab60208501610711565b915061076d60408501610776565b600080600080600080600060c0888a0312156107d457600080fd5b873596506107e460208901610711565b95506107f260408901610776565b945061080060608901610711565b93506080880135925060a088013567ffffffffffffffff8082111561082457600080fd5b818a0191508a601f83011261083857600080fd5b81358181111561084757600080fd5b8b602082850101111561085957600080fd5b60208301945080935050505092959891949750929550565b7f4e487b7100000000000000000000000000000000000000000000000000000000600052602160045260246000fdfea26469706673582212208dde9373eb9d1d4831eff98d22be94e3d9796ea9abaeb19db2a565ecb7fda36064736f6c63430008100033",
  "linkReferences": {},
  "deployedLinkReferences": {}
}