{
  "_format": "hh-sol-artifact-1",
  "contractName": "Game_Exchange",
  "sourceName": "contracts/Exchange/Game_Exchange.sol",
  "abi": [
    {
      "inputs": [
        {
          "internalType": "address",
          "name": "_forwarder",
          "type": "address"
        }
      ],
      "stateMutability": "nonpayable",
      "type": "constructor"
    },
    {
      "anonymous": false,
      "inputs": [
        {
          "indexed": true,
          "internalType": "uint256",
          "name": "offerId",
          "type": "uint256"
        },
        {
          "components": [
            {
              "internalType": "uint256",
              "name": "id",
              "type": "uint256"
            },
            {
              "internalType": "contract IERC1155",
              "name": "inputCollection",
              "type": "address"
            },
            {
              "internalType": "uint256[]",
              "name": "inputCollectionItemIds",
              "type": "uint256[]"
            },
            {
              "internalType": "uint256[]",
              "name": "inputCollectionItemAmounts",
              "type": "uint256[]"
            },
            {
              "internalType": "contract IERC20",
              "name": "inputCurrency",
              "type": "address"
            },
            {
              "internalType": "uint256",
              "name": "inputCurrencyAmount",
              "type": "uint256"
            },
            {
              "internalType": "contract IERC1155",
              "name": "outputCollection",
              "type": "address"
            },
            {
              "internalType": "uint256[]",
              "name": "outputCollectionItemIds",
              "type": "uint256[]"
            },
            {
              "internalType": "uint256[]",
              "name": "outputCollectionItemAmounts",
              "type": "uint256[]"
            },
            {
              "internalType": "contract IERC20",
              "name": "outputCurrency",
              "type": "address"
            },
            {
              "internalType": "uint256",
              "name": "outputCurrencyAmount",
              "type": "uint256"
            },
            {
              "internalType": "uint256",
              "name": "uses",
              "type": "uint256"
            },
            {
              "internalType": "uint256",
              "name": "maxUses",
              "type": "uint256"
            },
            {
              "internalType": "uint256",
              "name": "lastUpdatedAt",
              "type": "uint256"
            }
          ],
          "indexed": false,
          "internalType": "struct IGame_Exchange.Offer",
          "name": "offer",
          "type": "tuple"
        }
      ],
      "name": "OfferRemoved",
      "type": "event"
    },
    {
      "anonymous": false,
      "inputs": [
        {
          "indexed": true,
          "internalType": "uint256",
          "name": "offerId",
          "type": "uint256"
        },
        {
          "components": [
            {
              "internalType": "uint256",
              "name": "id",
              "type": "uint256"
            },
            {
              "internalType": "contract IERC1155",
              "name": "inputCollection",
              "type": "address"
            },
            {
              "internalType": "uint256[]",
              "name": "inputCollectionItemIds",
              "type": "uint256[]"
            },
            {
              "internalType": "uint256[]",
              "name": "inputCollectionItemAmounts",
              "type": "uint256[]"
            },
            {
              "internalType": "contract IERC20",
              "name": "inputCurrency",
              "type": "address"
            },
            {
              "internalType": "uint256",
              "name": "inputCurrencyAmount",
              "type": "uint256"
            },
            {
              "internalType": "contract IERC1155",
              "name": "outputCollection",
              "type": "address"
            },
            {
              "internalType": "uint256[]",
              "name": "outputCollectionItemIds",
              "type": "uint256[]"
            },
            {
              "internalType": "uint256[]",
              "name": "outputCollectionItemAmounts",
              "type": "uint256[]"
            },
            {
              "internalType": "contract IERC20",
              "name": "outputCurrency",
              "type": "address"
            },
            {
              "internalType": "uint256",
              "name": "outputCurrencyAmount",
              "type": "uint256"
            },
            {
              "internalType": "uint256",
              "name": "uses",
              "type": "uint256"
            },
            {
              "internalType": "uint256",
              "name": "maxUses",
              "type": "uint256"
            },
            {
              "internalType": "uint256",
              "name": "lastUpdatedAt",
              "type": "uint256"
            }
          ],
          "indexed": false,
          "internalType": "struct IGame_Exchange.Offer",
          "name": "offer",
          "type": "tuple"
        }
      ],
      "name": "OfferSet",
      "type": "event"
    },
    {
      "anonymous": false,
      "inputs": [
        {
          "indexed": true,
          "internalType": "uint256",
          "name": "offerId",
          "type": "uint256"
        },
        {
          "components": [
            {
              "internalType": "uint256",
              "name": "id",
              "type": "uint256"
            },
            {
              "internalType": "contract IERC1155",
              "name": "inputCollection",
              "type": "address"
            },
            {
              "internalType": "uint256[]",
              "name": "inputCollectionItemIds",
              "type": "uint256[]"
            },
            {
              "internalType": "uint256[]",
              "name": "inputCollectionItemAmounts",
              "type": "uint256[]"
            },
            {
              "internalType": "contract IERC20",
              "name": "inputCurrency",
              "type": "address"
            },
            {
              "internalType": "uint256",
              "name": "inputCurrencyAmount",
              "type": "uint256"
            },
            {
              "internalType": "contract IERC1155",
              "name": "outputCollection",
              "type": "address"
            },
            {
              "internalType": "uint256[]",
              "name": "outputCollectionItemIds",
              "type": "uint256[]"
            },
            {
              "internalType": "uint256[]",
              "name": "outputCollectionItemAmounts",
              "type": "uint256[]"
            },
            {
              "internalType": "contract IERC20",
              "name": "outputCurrency",
              "type": "address"
            },
            {
              "internalType": "uint256",
              "name": "outputCurrencyAmount",
              "type": "uint256"
            },
            {
              "internalType": "uint256",
              "name": "uses",
              "type": "uint256"
            },
            {
              "internalType": "uint256",
              "name": "maxUses",
              "type": "uint256"
            },
            {
              "internalType": "uint256",
              "name": "lastUpdatedAt",
              "type": "uint256"
            }
          ],
          "indexed": false,
          "internalType": "struct IGame_Exchange.Offer",
          "name": "offer",
          "type": "tuple"
        },
        {
          "indexed": false,
          "internalType": "address",
          "name": "user",
          "type": "address"
        }
      ],
      "name": "OfferUsed",
      "type": "event"
    },
    {
      "anonymous": false,
      "inputs": [
        {
          "indexed": true,
          "internalType": "bytes32",
          "name": "role",
          "type": "bytes32"
        },
        {
          "indexed": true,
          "internalType": "bytes32",
          "name": "previousAdminRole",
          "type": "bytes32"
        },
        {
          "indexed": true,
          "internalType": "bytes32",
          "name": "newAdminRole",
          "type": "bytes32"
        }
      ],
      "name": "RoleAdminChanged",
      "type": "event"
    },
    {
      "anonymous": false,
      "inputs": [
        {
          "indexed": true,
          "internalType": "bytes32",
          "name": "role",
          "type": "bytes32"
        },
        {
          "indexed": true,
          "internalType": "address",
          "name": "account",
          "type": "address"
        },
        {
          "indexed": true,
          "internalType": "address",
          "name": "sender",
          "type": "address"
        }
      ],
      "name": "RoleGranted",
      "type": "event"
    },
    {
      "anonymous": false,
      "inputs": [
        {
          "indexed": true,
          "internalType": "bytes32",
          "name": "role",
          "type": "bytes32"
        },
        {
          "indexed": true,
          "internalType": "address",
          "name": "account",
          "type": "address"
        },
        {
          "indexed": true,
          "internalType": "address",
          "name": "sender",
          "type": "address"
        }
      ],
      "name": "RoleRevoked",
      "type": "event"
    },
    {
      "inputs": [],
      "name": "DEFAULT_ADMIN_ROLE",
      "outputs": [
        {
          "internalType": "bytes32",
          "name": "",
          "type": "bytes32"
        }
      ],
      "stateMutability": "view",
      "type": "function"
    },
    {
      "inputs": [],
      "name": "allOfferIds",
      "outputs": [
        {
          "internalType": "uint256[]",
          "name": "",
          "type": "uint256[]"
        }
      ],
      "stateMutability": "view",
      "type": "function"
    },
    {
      "inputs": [],
      "name": "allOfferLastUpdates",
      "outputs": [
        {
          "internalType": "uint256[][]",
          "name": "",
          "type": "uint256[][]"
        }
      ],
      "stateMutability": "view",
      "type": "function"
    },
    {
      "inputs": [],
      "name": "allOffers",
      "outputs": [
        {
          "components": [
            {
              "internalType": "uint256",
              "name": "id",
              "type": "uint256"
            },
            {
              "internalType": "contract IERC1155",
              "name": "inputCollection",
              "type": "address"
            },
            {
              "internalType": "uint256[]",
              "name": "inputCollectionItemIds",
              "type": "uint256[]"
            },
            {
              "internalType": "uint256[]",
              "name": "inputCollectionItemAmounts",
              "type": "uint256[]"
            },
            {
              "internalType": "contract IERC20",
              "name": "inputCurrency",
              "type": "address"
            },
            {
              "internalType": "uint256",
              "name": "inputCurrencyAmount",
              "type": "uint256"
            },
            {
              "internalType": "contract IERC1155",
              "name": "outputCollection",
              "type": "address"
            },
            {
              "internalType": "uint256[]",
              "name": "outputCollectionItemIds",
              "type": "uint256[]"
            },
            {
              "internalType": "uint256[]",
              "name": "outputCollectionItemAmounts",
              "type": "uint256[]"
            },
            {
              "internalType": "contract IERC20",
              "name": "outputCurrency",
              "type": "address"
            },
            {
              "internalType": "uint256",
              "name": "outputCurrencyAmount",
              "type": "uint256"
            },
            {
              "internalType": "uint256",
              "name": "uses",
              "type": "uint256"
            },
            {
              "internalType": "uint256",
              "name": "maxUses",
              "type": "uint256"
            },
            {
              "internalType": "uint256",
              "name": "lastUpdatedAt",
              "type": "uint256"
            }
          ],
          "internalType": "struct IGame_Exchange.Offer[]",
          "name": "",
          "type": "tuple[]"
        }
      ],
      "stateMutability": "view",
      "type": "function"
    },
    {
      "inputs": [
        {
          "internalType": "bytes32",
          "name": "role",
          "type": "bytes32"
        }
      ],
      "name": "getRoleAdmin",
      "outputs": [
        {
          "internalType": "bytes32",
          "name": "",
          "type": "bytes32"
        }
      ],
      "stateMutability": "view",
      "type": "function"
    },
    {
      "inputs": [
        {
          "internalType": "bytes32",
          "name": "role",
          "type": "bytes32"
        },
        {
          "internalType": "address",
          "name": "account",
          "type": "address"
        }
      ],
      "name": "grantRole",
      "outputs": [],
      "stateMutability": "nonpayable",
      "type": "function"
    },
    {
      "inputs": [
        {
          "internalType": "bytes32",
          "name": "role",
          "type": "bytes32"
        },
        {
          "internalType": "address",
          "name": "account",
          "type": "address"
        }
      ],
      "name": "hasRole",
      "outputs": [
        {
          "internalType": "bool",
          "name": "",
          "type": "bool"
        }
      ],
      "stateMutability": "view",
      "type": "function"
    },
    {
      "inputs": [
        {
          "internalType": "address",
          "name": "forwarder",
          "type": "address"
        }
      ],
      "name": "isTrustedForwarder",
      "outputs": [
        {
          "internalType": "bool",
          "name": "",
          "type": "bool"
        }
      ],
      "stateMutability": "view",
      "type": "function"
    },
    {
      "inputs": [
        {
          "internalType": "uint256",
          "name": "_offerId",
          "type": "uint256"
        }
      ],
      "name": "offer",
      "outputs": [
        {
          "components": [
            {
              "internalType": "uint256",
              "name": "id",
              "type": "uint256"
            },
            {
              "internalType": "contract IERC1155",
              "name": "inputCollection",
              "type": "address"
            },
            {
              "internalType": "uint256[]",
              "name": "inputCollectionItemIds",
              "type": "uint256[]"
            },
            {
              "internalType": "uint256[]",
              "name": "inputCollectionItemAmounts",
              "type": "uint256[]"
            },
            {
              "internalType": "contract IERC20",
              "name": "inputCurrency",
              "type": "address"
            },
            {
              "internalType": "uint256",
              "name": "inputCurrencyAmount",
              "type": "uint256"
            },
            {
              "internalType": "contract IERC1155",
              "name": "outputCollection",
              "type": "address"
            },
            {
              "internalType": "uint256[]",
              "name": "outputCollectionItemIds",
              "type": "uint256[]"
            },
            {
              "internalType": "uint256[]",
              "name": "outputCollectionItemAmounts",
              "type": "uint256[]"
            },
            {
              "internalType": "contract IERC20",
              "name": "outputCurrency",
              "type": "address"
            },
            {
              "internalType": "uint256",
              "name": "outputCurrencyAmount",
              "type": "uint256"
            },
            {
              "internalType": "uint256",
              "name": "uses",
              "type": "uint256"
            },
            {
              "internalType": "uint256",
              "name": "maxUses",
              "type": "uint256"
            },
            {
              "internalType": "uint256",
              "name": "lastUpdatedAt",
              "type": "uint256"
            }
          ],
          "internalType": "struct IGame_Exchange.Offer",
          "name": "",
          "type": "tuple"
        }
      ],
      "stateMutability": "view",
      "type": "function"
    },
    {
      "inputs": [
        {
          "internalType": "uint256",
          "name": "_index",
          "type": "uint256"
        }
      ],
      "name": "offerId",
      "outputs": [
        {
          "internalType": "uint256",
          "name": "",
          "type": "uint256"
        }
      ],
      "stateMutability": "view",
      "type": "function"
    },
    {
      "inputs": [
        {
          "internalType": "uint256",
          "name": "_offerId",
          "type": "uint256"
        }
      ],
      "name": "offerLastUpdate",
      "outputs": [
        {
          "internalType": "uint256[]",
          "name": "",
          "type": "uint256[]"
        }
      ],
      "stateMutability": "view",
      "type": "function"
    },
    {
      "inputs": [
        {
          "internalType": "address",
          "name": "",
          "type": "address"
        },
        {
          "internalType": "address",
          "name": "",
          "type": "address"
        },
        {
          "internalType": "uint256[]",
          "name": "",
          "type": "uint256[]"
        },
        {
          "internalType": "uint256[]",
          "name": "",
          "type": "uint256[]"
        },
        {
          "internalType": "bytes",
          "name": "",
          "type": "bytes"
        }
      ],
      "name": "onERC1155BatchReceived",
      "outputs": [
        {
          "internalType": "bytes4",
          "name": "",
          "type": "bytes4"
        }
      ],
      "stateMutability": "nonpayable",
      "type": "function"
    },
    {
      "inputs": [
        {
          "internalType": "address",
          "name": "",
          "type": "address"
        },
        {
          "internalType": "address",
          "name": "",
          "type": "address"
        },
        {
          "internalType": "uint256",
          "name": "",
          "type": "uint256"
        },
        {
          "internalType": "uint256",
          "name": "",
          "type": "uint256"
        },
        {
          "internalType": "bytes",
          "name": "",
          "type": "bytes"
        }
      ],
      "name": "onERC1155Received",
      "outputs": [
        {
          "internalType": "bytes4",
          "name": "",
          "type": "bytes4"
        }
      ],
      "stateMutability": "nonpayable",
      "type": "function"
    },
    {
      "inputs": [
        {
          "internalType": "uint256",
          "name": "_startIndexInclusive",
          "type": "uint256"
        },
        {
          "internalType": "uint256",
          "name": "_limit",
          "type": "uint256"
        }
      ],
      "name": "paginateOfferIds",
      "outputs": [
        {
          "internalType": "uint256[]",
          "name": "",
          "type": "uint256[]"
        }
      ],
      "stateMutability": "view",
      "type": "function"
    },
    {
      "inputs": [
        {
          "internalType": "uint256",
          "name": "_startIndexInclusive",
          "type": "uint256"
        },
        {
          "internalType": "uint256",
          "name": "_limit",
          "type": "uint256"
        }
      ],
      "name": "paginateOfferLastUpdates",
      "outputs": [
        {
          "internalType": "uint256[][]",
          "name": "",
          "type": "uint256[][]"
        }
      ],
      "stateMutability": "view",
      "type": "function"
    },
    {
      "inputs": [
        {
          "internalType": "uint256",
          "name": "_startIndexInclusive",
          "type": "uint256"
        },
        {
          "internalType": "uint256",
          "name": "_limit",
          "type": "uint256"
        }
      ],
      "name": "paginateOffers",
      "outputs": [
        {
          "components": [
            {
              "internalType": "uint256",
              "name": "id",
              "type": "uint256"
            },
            {
              "internalType": "contract IERC1155",
              "name": "inputCollection",
              "type": "address"
            },
            {
              "internalType": "uint256[]",
              "name": "inputCollectionItemIds",
              "type": "uint256[]"
            },
            {
              "internalType": "uint256[]",
              "name": "inputCollectionItemAmounts",
              "type": "uint256[]"
            },
            {
              "internalType": "contract IERC20",
              "name": "inputCurrency",
              "type": "address"
            },
            {
              "internalType": "uint256",
              "name": "inputCurrencyAmount",
              "type": "uint256"
            },
            {
              "internalType": "contract IERC1155",
              "name": "outputCollection",
              "type": "address"
            },
            {
              "internalType": "uint256[]",
              "name": "outputCollectionItemIds",
              "type": "uint256[]"
            },
            {
              "internalType": "uint256[]",
              "name": "outputCollectionItemAmounts",
              "type": "uint256[]"
            },
            {
              "internalType": "contract IERC20",
              "name": "outputCurrency",
              "type": "address"
            },
            {
              "internalType": "uint256",
              "name": "outputCurrencyAmount",
              "type": "uint256"
            },
            {
              "internalType": "uint256",
              "name": "uses",
              "type": "uint256"
            },
            {
              "internalType": "uint256",
              "name": "maxUses",
              "type": "uint256"
            },
            {
              "internalType": "uint256",
              "name": "lastUpdatedAt",
              "type": "uint256"
            }
          ],
          "internalType": "struct IGame_Exchange.Offer[]",
          "name": "",
          "type": "tuple[]"
        }
      ],
      "stateMutability": "view",
      "type": "function"
    },
    {
      "inputs": [
        {
          "internalType": "uint256",
          "name": "_offerId",
          "type": "uint256"
        }
      ],
      "name": "removeOffer",
      "outputs": [],
      "stateMutability": "nonpayable",
      "type": "function"
    },
    {
      "inputs": [
        {
          "internalType": "bytes32",
          "name": "role",
          "type": "bytes32"
        },
        {
          "internalType": "address",
          "name": "account",
          "type": "address"
        }
      ],
      "name": "renounceRole",
      "outputs": [],
      "stateMutability": "nonpayable",
      "type": "function"
    },
    {
      "inputs": [
        {
          "internalType": "bytes32",
          "name": "role",
          "type": "bytes32"
        },
        {
          "internalType": "address",
          "name": "account",
          "type": "address"
        }
      ],
      "name": "revokeRole",
      "outputs": [],
      "stateMutability": "nonpayable",
      "type": "function"
    },
    {
      "inputs": [
        {
          "internalType": "uint256",
          "name": "_offerId",
          "type": "uint256"
        },
        {
          "internalType": "address[2]",
          "name": "_inputOutputCollections",
          "type": "address[2]"
        },
        {
          "internalType": "uint256[][2]",
          "name": "_inputOutputCollectionItemIds",
          "type": "uint256[][2]"
        },
        {
          "internalType": "uint256[][2]",
          "name": "_inputOutputCollectionItemAmounts",
          "type": "uint256[][2]"
        },
        {
          "internalType": "address[2]",
          "name": "_inputOutputCurrency",
          "type": "address[2]"
        },
        {
          "internalType": "uint256[2]",
          "name": "_inputOutputCurrencyAmounts",
          "type": "uint256[2]"
        },
        {
          "internalType": "uint256",
          "name": "_maxUses",
          "type": "uint256"
        }
      ],
      "name": "setOffer",
      "outputs": [],
      "stateMutability": "nonpayable",
      "type": "function"
    },
    {
      "inputs": [
        {
          "internalType": "bytes4",
          "name": "interfaceId",
          "type": "bytes4"
        }
      ],
      "name": "supportsInterface",
      "outputs": [
        {
          "internalType": "bool",
          "name": "",
          "type": "bool"
        }
      ],
      "stateMutability": "view",
      "type": "function"
    },
    {
      "inputs": [],
      "name": "totalOffers",
      "outputs": [
        {
          "internalType": "uint256",
          "name": "",
          "type": "uint256"
        }
      ],
      "stateMutability": "view",
      "type": "function"
    },
    {
      "inputs": [
        {
          "internalType": "address",
          "name": "_newTrustedForwarder",
          "type": "address"
        }
      ],
      "name": "upgradeTrustedForwarder",
      "outputs": [],
      "stateMutability": "nonpayable",
      "type": "function"
    },
    {
      "inputs": [
        {
          "internalType": "uint256",
          "name": "_offerId",
          "type": "uint256"
        }
      ],
      "name": "useOffer",
      "outputs": [],
      "stateMutability": "payable",
      "type": "function"
    },
    {
      "inputs": [
        {
          "internalType": "address",
          "name": "_currencyAddress",
          "type": "address"
        },
        {
          "internalType": "address",
          "name": "_to",
          "type": "address"
        }
      ],
      "name": "withdrawCurrencyTo",
      "outputs": [],
      "stateMutability": "nonpayable",
      "type": "function"
    },
    {
      "inputs": [
        {
          "internalType": "address",
          "name": "_collectionAddress",
          "type": "address"
        },
        {
          "internalType": "uint256[]",
          "name": "_itemIds",
          "type": "uint256[]"
        },
        {
          "internalType": "address",
          "name": "_to",
          "type": "address"
        }
      ],
      "name": "withdrawItemsTo",
      "outputs": [],
      "stateMutability": "nonpayable",
      "type": "function"
    },
    {
      "inputs": [
        {
          "internalType": "address",
          "name": "_to",
          "type": "address"
        }
      ],
      "name": "withdrawTo",
      "outputs": [],
      "stateMutability": "nonpayable",
      "type": "function"
    },
    {
      "stateMutability": "payable",
      "type": "receive"
    }
  ],
  "bytecode": "0x60806040523480156200001157600080fd5b5060405162004143380380620041438339810160408190526200003491620001ac565b600080546001600160a01b0319166001600160a01b03831617815560016002556200006990620000636200009f565b620000bb565b620000987fc9fc9949603a50f5cc3a96f774f1d68287789a241d2082dc81d0fb19a53bcf2b620000636200009f565b50620001de565b6000620000b6620000cb60201b620027a01760201c565b905090565b620000c7828262000101565b5050565b600080546001600160a01b03163303620000ec575060131936013560601c90565b620000b6620001a860201b620027f01760201c565b60008281526001602090815260408083206001600160a01b038516845290915290205460ff16620000c75760008281526001602081815260408084206001600160a01b0386168552909152909120805460ff19169091179055620001646200009f565b6001600160a01b0316816001600160a01b0316837f2f8788117e7eff1d82e926ec794901d17c78024a50270940304540a733656f0d60405160405180910390a45050565b3390565b600060208284031215620001bf57600080fd5b81516001600160a01b0381168114620001d757600080fd5b9392505050565b613f5580620001ee6000396000f3fe6080604052600436106101b05760003560e01c80637f413af2116100ec578063a217fddf1161008a578063bc197c8111610064578063bc197c8114610511578063cdf1917414610587578063d547741f146105a7578063f23a6e61146105c757600080fd5b8063a217fddf146104c7578063a9fd8ed1146104dc578063aa2a7eea146104f157600080fd5b80638b839502116100c65780638b8395021461041457806391d148541461043457806395a0f9c7146104875780639c66b063146104a757600080fd5b80637f413af2146103b457806382335ab0146103d457806389fe7c3b146103f457600080fd5b8063500ceb4811610159578063687c08dd11610133578063687c08dd1461032557806372b0d90c1461034757806374d3335314610367578063761610fc1461038757600080fd5b8063500ceb48146102b257806351a30c65146102c7578063572b6c05146102e957600080fd5b80632f2ff15d1161018a5780632f2ff15d1461025d57806336568abe1461027f57806349fe03671461029f57600080fd5b806301ffc9a7146101bc5780631675187c146101f1578063248a9ca31461021e57600080fd5b366101b757005b600080fd5b3480156101c857600080fd5b506101dc6101d7366004613134565b61060c565b60405190151581526020015b60405180910390f35b3480156101fd57600080fd5b5061021161020c366004613176565b6106b4565b6040516101e891906131ca565b34801561022a57600080fd5b5061024f610239366004613176565b6000908152600160208190526040909120015490565b6040519081526020016101e8565b34801561026957600080fd5b5061027d610278366004613206565b610734565b005b34801561028b57600080fd5b5061027d61029a366004613206565b61075f565b61027d6102ad366004613176565b610834565b3480156102be57600080fd5b50610211610fa6565b3480156102d357600080fd5b506102dc610fb7565b6040516101e89190613232565b3480156102f557600080fd5b506101dc6103043660046132b2565b60005473ffffffffffffffffffffffffffffffffffffffff91821691161490565b34801561033157600080fd5b5061033a611067565b6040516101e89190613420565b34801561035357600080fd5b5061027d6103623660046132b2565b6113fc565b34801561037357600080fd5b5061024f610382366004613176565b611468565b34801561039357600080fd5b506103a76103a2366004613176565b6114e7565b6040516101e89190613493565b3480156103c057600080fd5b5061027d6103cf3660046134a6565b61186e565b3480156103e057600080fd5b5061033a6103ef36600461353d565b611a79565b34801561040057600080fd5b506102dc61040f36600461353d565b611e58565b34801561042057600080fd5b5061027d61042f36600461355f565b611f3a565b34801561044057600080fd5b506101dc61044f366004613206565b600091825260016020908152604080842073ffffffffffffffffffffffffffffffffffffffff93909316845291905290205460ff1690565b34801561049357600080fd5b5061027d6104a2366004613176565b612099565b3480156104b357600080fd5b5061027d6104c236600461359a565b612124565b3480156104d357600080fd5b5061024f600081565b3480156104e857600080fd5b5061024f61262c565b3480156104fd57600080fd5b5061027d61050c3660046132b2565b612638565b34801561051d57600080fd5b5061055661052c3660046137d4565b7fbc197c810000000000000000000000000000000000000000000000000000000095945050505050565b6040517fffffffff0000000000000000000000000000000000000000000000000000000090911681526020016101e8565b34801561059357600080fd5b506102116105a236600461353d565b6126a6565b3480156105b357600080fd5b5061027d6105c2366004613206565b61277a565b3480156105d357600080fd5b506105566105e236600461387e565b7ff23a6e610000000000000000000000000000000000000000000000000000000095945050505050565b60007fffffffff0000000000000000000000000000000000000000000000000000000082167fd4e8d13200000000000000000000000000000000000000000000000000000000148061069f57507fffffffff0000000000000000000000000000000000000000000000000000000082167f4e2312e000000000000000000000000000000000000000000000000000000000145b806106ae57506106ae826127f4565b92915050565b6040805160028082526060808301845292600092919060208301908036833701905050905082816000815181106106ed576106ed6138e3565b60200260200101818152505060056000848152602001908152602001600020600d015481600181518110610723576107236138e3565b602090810291909101015292915050565b600082815260016020819052604090912001546107508161284a565b61075a838361285e565b505050565b610767612954565b73ffffffffffffffffffffffffffffffffffffffff168173ffffffffffffffffffffffffffffffffffffffff1614610826576040517f08c379a000000000000000000000000000000000000000000000000000000000815260206004820152602f60248201527f416363657373436f6e74726f6c3a2063616e206f6e6c792072656e6f756e636560448201527f20726f6c657320666f722073656c66000000000000000000000000000000000060648201526084015b60405180910390fd5b610830828261295e565b5050565b600280540361089f576040517f08c379a000000000000000000000000000000000000000000000000000000000815260206004820152601f60248201527f5265656e7472616e637947756172643a207265656e7472616e742063616c6c00604482015260640161081d565b600280556108ae600382612a51565b61093a576040517f08c379a000000000000000000000000000000000000000000000000000000000815260206004820152602b60248201527f6f66666572496420646f6573206e6f74206578697374206f722068617320626560448201527f656e2072656d6f7665642e000000000000000000000000000000000000000000606482015260840161081d565b6000818152600560205260409020600c8101541580610960575080600c015481600b0154105b6109c6576040517f08c379a000000000000000000000000000000000000000000000000000000000815260206004820152601b60248201527f4f66666572206861732072656163686564206d617820757365732e0000000000604482015260640161081d565b600181015473ffffffffffffffffffffffffffffffffffffffff1615610a6957600181015473ffffffffffffffffffffffffffffffffffffffff16632eb2c2d6610a0e612954565b3084600201856003016040518563ffffffff1660e01b8152600401610a369493929190613947565b600060405180830381600087803b158015610a5057600080fd5b505af1158015610a64573d6000803e3d6000fd5b505050505b600581015415610bce57600481015473ffffffffffffffffffffffffffffffffffffffff1615610b6057600481015473ffffffffffffffffffffffffffffffffffffffff166323b872dd610abb612954565b60058401546040517fffffffff0000000000000000000000000000000000000000000000000000000060e085901b16815273ffffffffffffffffffffffffffffffffffffffff909216600483015230602483015260448201526064016020604051808303816000875af1158015610b36573d6000803e3d6000fd5b505050506040513d601f19601f82011682018060405250810190610b5a91906139af565b50610bce565b8060050154341015610bce576040517f08c379a000000000000000000000000000000000000000000000000000000000815260206004820152601660248201527f5061796d656e74206c657373207468616e20636f737400000000000000000000604482015260640161081d565b600681015473ffffffffffffffffffffffffffffffffffffffff1615610d21576006810154610c129073ffffffffffffffffffffffffffffffffffffffff16612a6c565b15610c9e57600681015473ffffffffffffffffffffffffffffffffffffffff16806308f427c7610c40612954565b84600701856008016040518463ffffffff1660e01b8152600401610c66939291906139d1565b600060405180830381600087803b158015610c8057600080fd5b505af1158015610c94573d6000803e3d6000fd5b5050505050610d21565b600681015473ffffffffffffffffffffffffffffffffffffffff16632eb2c2d630610cc7612954565b84600701856008016040518563ffffffff1660e01b8152600401610cee9493929190613947565b600060405180830381600087803b158015610d0857600080fd5b505af1158015610d1c573d6000803e3d6000fd5b505050505b600981015473ffffffffffffffffffffffffffffffffffffffff1615610ee8576009810154610d659073ffffffffffffffffffffffffffffffffffffffff16612a6c565b15610e2157600981015473ffffffffffffffffffffffffffffffffffffffff16806340c10f19610d93612954565b600a8501546040517fffffffff0000000000000000000000000000000000000000000000000000000060e085901b16815273ffffffffffffffffffffffffffffffffffffffff90921660048301526024820152604401600060405180830381600087803b158015610e0357600080fd5b505af1158015610e17573d6000803e3d6000fd5b5050505050610f45565b600981015473ffffffffffffffffffffffffffffffffffffffff1663a9059cbb610e49612954565b600a8401546040517fffffffff0000000000000000000000000000000000000000000000000000000060e085901b16815273ffffffffffffffffffffffffffffffffffffffff909216600483015260248201526044016020604051808303816000875af1158015610ebe573d6000803e3d6000fd5b505050506040513d601f19601f82011682018060405250810190610ee291906139af565b50610f45565b600a81015415610f4557610efa612954565b73ffffffffffffffffffffffffffffffffffffffff166108fc82600a01549081150290604051600060405180830381858888f19350505050158015610f43573d6000803e3d6000fd5b505b600b81018054906000610f5783613a4b565b9190505550817feab8772ecfad019c9f5c5cff325bd3316d0c456b3e53260ea5191feb57b2359182610f87612954565b604051610f95929190613bec565b60405180910390a250506001600255565b6060610fb26003612b25565b905090565b60606000610fc361262c565b67ffffffffffffffff811115610fdb57610fdb613648565b60405190808252806020026020018201604052801561100e57816020015b6060815260200190600190039081610ff95790505b50905060005b61101c61262c565b8110156110615761103161020c600383612b32565b828281518110611043576110436138e3565b6020026020010181905250808061105990613a4b565b915050611014565b50919050565b6060600061107361262c565b67ffffffffffffffff81111561108b5761108b613648565b60405190808252806020026020018201604052801561118657816020015b611173604051806101c0016040528060008152602001600073ffffffffffffffffffffffffffffffffffffffff1681526020016060815260200160608152602001600073ffffffffffffffffffffffffffffffffffffffff16815260200160008152602001600073ffffffffffffffffffffffffffffffffffffffff1681526020016060815260200160608152602001600073ffffffffffffffffffffffffffffffffffffffff168152602001600081526020016000815260200160008152602001600081525090565b8152602001906001900390816110a95790505b50905060005b61119461262c565b81101561106157600560006111aa600384612b32565b8152602080820192909252604090810160002081516101c08101835281548152600182015473ffffffffffffffffffffffffffffffffffffffff168185015260028201805484518187028101870186528181529295939486019383018282801561123357602002820191906000526020600020905b81548152602001906001019080831161121f575b505050505081526020016003820180548060200260200160405190810160405280929190818152602001828054801561128b57602002820191906000526020600020905b815481526020019060010190808311611277575b5050509183525050600482015473ffffffffffffffffffffffffffffffffffffffff908116602080840191909152600584015460408085019190915260068501549092166060840152600784018054835181840281018401909452808452608090940193909183018282801561132057602002820191906000526020600020905b81548152602001906001019080831161130c575b505050505081526020016008820180548060200260200160405190810160405280929190818152602001828054801561137857602002820191906000526020600020905b815481526020019060010190808311611364575b5050509183525050600982015473ffffffffffffffffffffffffffffffffffffffff166020820152600a8201546040820152600b8201546060820152600c8201546080820152600d9091015460a09091015282518390839081106113de576113de6138e3565b602002602001018190525080806113f490613a4b565b91505061118c565b7fc9fc9949603a50f5cc3a96f774f1d68287789a241d2082dc81d0fb19a53bcf2b6114268161284a565b60405173ffffffffffffffffffffffffffffffffffffffff8316904780156108fc02916000818181858888f1935050505015801561075a573d6000803e3d6000fd5b60006114746003612b3e565b82106114dc576040517f08c379a000000000000000000000000000000000000000000000000000000000815260206004820152601360248201527f496e646578206f7574206f6620626f756e647300000000000000000000000000604482015260640161081d565b6106ae600383612b32565b6115b1604051806101c0016040528060008152602001600073ffffffffffffffffffffffffffffffffffffffff1681526020016060815260200160608152602001600073ffffffffffffffffffffffffffffffffffffffff16815260200160008152602001600073ffffffffffffffffffffffffffffffffffffffff1681526020016060815260200160608152602001600073ffffffffffffffffffffffffffffffffffffffff168152602001600081526020016000815260200160008152602001600081525090565b6115bc600383612a51565b611648576040517f08c379a000000000000000000000000000000000000000000000000000000000815260206004820152602b60248201527f6f66666572496420646f6573206e6f74206578697374206f722068617320626560448201527f656e2072656d6f7665642e000000000000000000000000000000000000000000606482015260840161081d565b60008281526005602090815260409182902082516101c08101845281548152600182015473ffffffffffffffffffffffffffffffffffffffff1681840152600282018054855181860281018601875281815292959394938601938301828280156116d157602002820191906000526020600020905b8154815260200190600101908083116116bd575b505050505081526020016003820180548060200260200160405190810160405280929190818152602001828054801561172957602002820191906000526020600020905b815481526020019060010190808311611715575b5050509183525050600482015473ffffffffffffffffffffffffffffffffffffffff90811660208084019190915260058401546040808501919091526006850154909216606084015260078401805483518184028101840190945280845260809094019390918301828280156117be57602002820191906000526020600020905b8154815260200190600101908083116117aa575b505050505081526020016008820180548060200260200160405190810160405280929190818152602001828054801561181657602002820191906000526020600020905b815481526020019060010190808311611802575b5050509183525050600982015473ffffffffffffffffffffffffffffffffffffffff166020820152600a8201546040820152600b8201546060820152600c8201546080820152600d9091015460a09091015292915050565b7fc9fc9949603a50f5cc3a96f774f1d68287789a241d2082dc81d0fb19a53bcf2b6118988161284a565b8460008467ffffffffffffffff8111156118b4576118b4613648565b6040519080825280602002602001820160405280156118dd578160200160208202803683370190505b50905060005b858110156119e3578273ffffffffffffffffffffffffffffffffffffffff1662fdd58e30898985818110611919576119196138e3565b6040517fffffffff0000000000000000000000000000000000000000000000000000000060e087901b16815273ffffffffffffffffffffffffffffffffffffffff90941660048501526020029190910135602483015250604401602060405180830381865afa158015611990573d6000803e3d6000fd5b505050506040513d601f19601f820116820180604052508101906119b49190613c24565b8282815181106119c6576119c66138e3565b6020908102919091010152806119db81613a4b565b9150506118e3565b506040517f2eb2c2d600000000000000000000000000000000000000000000000000000000815273ffffffffffffffffffffffffffffffffffffffff831690632eb2c2d690611a3e90309088908b908b908890600401613c3d565b600060405180830381600087803b158015611a5857600080fd5b505af1158015611a6c573d6000803e3d6000fd5b5050505050505050505050565b60606000611a876003612b3e565b8410611a94576000611aa9565b83611a9f6003612b3e565b611aa99190613ce0565b9050600083821115611abb5783611abd565b815b905060008167ffffffffffffffff811115611ada57611ada613648565b604051908082528060200260200182016040528015611bd557816020015b611bc2604051806101c0016040528060008152602001600073ffffffffffffffffffffffffffffffffffffffff1681526020016060815260200160608152602001600073ffffffffffffffffffffffffffffffffffffffff16815260200160008152602001600073ffffffffffffffffffffffffffffffffffffffff1681526020016060815260200160608152602001600073ffffffffffffffffffffffffffffffffffffffff168152602001600081526020016000815260200160008152602001600081525090565b815260200190600190039081611af85790505b50905060005b82811015611e4e5760056000611bfc611bf4848b613cf3565b600390612b32565b8152602080820192909252604090810160002081516101c08101835281548152600182015473ffffffffffffffffffffffffffffffffffffffff1681850152600282018054845181870281018701865281815292959394860193830182828015611c8557602002820191906000526020600020905b815481526020019060010190808311611c71575b5050505050815260200160038201805480602002602001604051908101604052809291908181526020018280548015611cdd57602002820191906000526020600020905b815481526020019060010190808311611cc9575b5050509183525050600482015473ffffffffffffffffffffffffffffffffffffffff9081166020808401919091526005840154604080850191909152600685015490921660608401526007840180548351818402810184019094528084526080909401939091830182828015611d7257602002820191906000526020600020905b815481526020019060010190808311611d5e575b5050505050815260200160088201805480602002602001604051908101604052809291908181526020018280548015611dca57602002820191906000526020600020905b815481526020019060010190808311611db6575b5050509183525050600982015473ffffffffffffffffffffffffffffffffffffffff166020820152600a8201546040820152600b8201546060820152600c8201546080820152600d9091015460a0909101528251839083908110611e3057611e306138e3565b60200260200101819052508080611e4690613a4b565b915050611bdb565b5095945050505050565b60606000611e666003612b3e565b8410611e73576000611e88565b83611e7e6003612b3e565b611e889190613ce0565b9050600083821115611e9a5783611e9c565b815b905060008167ffffffffffffffff811115611eb957611eb9613648565b604051908082528060200260200182016040528015611eec57816020015b6060815260200190600190039081611ed75790505b50905060005b82811015611e4e57611f0a61020c611bf4838a613cf3565b828281518110611f1c57611f1c6138e3565b60200260200101819052508080611f3290613a4b565b915050611ef2565b7fc9fc9949603a50f5cc3a96f774f1d68287789a241d2082dc81d0fb19a53bcf2b611f648161284a565b6040517f70a08231000000000000000000000000000000000000000000000000000000008152306004820152839073ffffffffffffffffffffffffffffffffffffffff82169063a9059cbb90859083906370a0823190602401602060405180830381865afa158015611fda573d6000803e3d6000fd5b505050506040513d601f19601f82011682018060405250810190611ffe9190613c24565b6040517fffffffff0000000000000000000000000000000000000000000000000000000060e085901b16815273ffffffffffffffffffffffffffffffffffffffff909216600483015260248201526044016020604051808303816000875af115801561206e573d6000803e3d6000fd5b505050506040513d601f19601f8201168201806040525081019061209291906139af565b5050505050565b7fc9fc9949603a50f5cc3a96f774f1d68287789a241d2082dc81d0fb19a53bcf2b6120c38161284a565b6120ce600383612b48565b5060008281526005602052604090819020905183907f6a1a138e164465aabd2f777a1616db53b1e03ebfc20e197765e62fa2b748600b90612110908490613d06565b60405180910390a26000600b909101555050565b7fc9fc9949603a50f5cc3a96f774f1d68287789a241d2082dc81d0fb19a53bcf2b61214e8161284a565b6121588580613d19565b90506121648780613d19565b9050146121a7576040517f08c379a0000000000000000000000000000000000000000000000000000000008152602060048201526000602482015260440161081d565b6121b46020860186613d19565b90506121c36020880188613d19565b905014612206576040517f08c379a0000000000000000000000000000000000000000000000000000000008152602060048201526000602482015260440161081d565b6000604051806101c001604052808a81526020018960006002811061222d5761222d6138e3565b60200201602081019061224091906132b2565b73ffffffffffffffffffffffffffffffffffffffff1681526020016122658980613d19565b808060200260200160405190810160405280939291908181526020018383602002808284376000920191909152505050908252506020016122a68880613d19565b808060200260200160405190810160405280939291908181526020018383602002808284376000920191909152505050908252506020908101906122ec908801886132b2565b73ffffffffffffffffffffffffffffffffffffffff1681528535602082015260400189600160200201602081019061232491906132b2565b73ffffffffffffffffffffffffffffffffffffffff16815260209081019061234e908a018a613d19565b8080602002602001604051908101604052809392919081815260200183836020028082843760009201919091525050509082525060209081019061239490890189613d19565b808060200260200160405190810160405280939291908181526020018383602002808284376000920191909152505050908252506020908101906123de90604089019089016132b2565b73ffffffffffffffffffffffffffffffffffffffff1681526020868101358183015260008c81526005909152604090819020600b0154908201526060810185905242608090910152905061243360038a612b54565b5060008981526005602090815260409182902083518155838201516001820180547fffffffffffffffffffffffff00000000000000000000000000000000000000001673ffffffffffffffffffffffffffffffffffffffff9092169190911790559183015180518493926124ae9260028501929101906130d4565b50606082015180516124ca9160038401916020909101906130d4565b50608082015160048201805473ffffffffffffffffffffffffffffffffffffffff9283167fffffffffffffffffffffffff00000000000000000000000000000000000000009182161790915560a0840151600584015560c084015160068401805491909316911617905560e0820151805161254f9160078401916020909101906130d4565b50610100820151805161256c9160088401916020909101906130d4565b506101208201516009820180547fffffffffffffffffffffffff00000000000000000000000000000000000000001673ffffffffffffffffffffffffffffffffffffffff909216919091179055610140820151600a820155610160820151600b820155610180820151600c8201556101a090910151600d9091015560405189907ffcb9e66873133101ffdf745da3859e2b3736909576d4d11d6982e3e0e19d975490612619908490613493565b60405180910390a2505050505050505050565b6000610fb26003612b3e565b7fc9fc9949603a50f5cc3a96f774f1d68287789a241d2082dc81d0fb19a53bcf2b6126628161284a565b600080547fffffffffffffffffffffffff00000000000000000000000000000000000000001673ffffffffffffffffffffffffffffffffffffffff84161790555050565b606060006126b46003612b3e565b84106126c15760006126d6565b836126cc6003612b3e565b6126d69190613ce0565b90506000838211156126e857836126ea565b815b905060008167ffffffffffffffff81111561270757612707613648565b604051908082528060200260200182016040528015612730578160200160208202803683370190505b50905060005b82811015611e4e5761274b611bf48289613cf3565b82828151811061275d5761275d6138e3565b60209081029190910101528061277281613a4b565b915050612736565b600082815260016020819052604090912001546127968161284a565b61075a838361295e565b6000805473ffffffffffffffffffffffffffffffffffffffff1633036127eb57507fffffffffffffffffffffffffffffffffffffffffffffffffffffffffffffffec36013560601c90565b503390565b3390565b60007fffffffff0000000000000000000000000000000000000000000000000000000082167f4e2312e00000000000000000000000000000000000000000000000000000000014806106ae57506106ae82612b60565b61285b81612856612954565b612bf7565b50565b600082815260016020908152604080832073ffffffffffffffffffffffffffffffffffffffff8516845290915290205460ff1661083057600082815260016020818152604080842073ffffffffffffffffffffffffffffffffffffffff8616855290915290912080547fffffffffffffffffffffffffffffffffffffffffffffffffffffffffffffff001690911790556128f6612954565b73ffffffffffffffffffffffffffffffffffffffff168173ffffffffffffffffffffffffffffffffffffffff16837f2f8788117e7eff1d82e926ec794901d17c78024a50270940304540a733656f0d60405160405180910390a45050565b6000610fb26127a0565b600082815260016020908152604080832073ffffffffffffffffffffffffffffffffffffffff8516845290915290205460ff161561083057600082815260016020908152604080832073ffffffffffffffffffffffffffffffffffffffff85168452909152902080547fffffffffffffffffffffffffffffffffffffffffffffffffffffffffffffff001690556129f3612954565b73ffffffffffffffffffffffffffffffffffffffff168173ffffffffffffffffffffffffffffffffffffffff16837ff6391f5c32d9c69d2a47ea670b442974b53935d1edc7fd64eb21e047a839171b60405160405180910390a45050565b600081815260018301602052604081205415155b9392505050565b6040517f91d148540000000000000000000000000000000000000000000000000000000081527fc9eb32e43bf5ecbceacf00b32281dfc5d6d700a0db676ea26ccf938a385ac3f76004820152306024820152600090829073ffffffffffffffffffffffffffffffffffffffff8216906391d1485490604401602060405180830381865afa158015612b01573d6000803e3d6000fd5b505050506040513d601f19601f82011682018060405250810190612a6591906139af565b60606000612a6583612cc9565b6000612a658383612d25565b60006106ae825490565b6000612a658383612d4f565b6000612a658383612e42565b60007fffffffff0000000000000000000000000000000000000000000000000000000082167f7965db0b0000000000000000000000000000000000000000000000000000000014806106ae57507f01ffc9a7000000000000000000000000000000000000000000000000000000007fffffffff000000000000000000000000000000000000000000000000000000008316146106ae565b600082815260016020908152604080832073ffffffffffffffffffffffffffffffffffffffff8516845290915290205460ff1661083057612c4f8173ffffffffffffffffffffffffffffffffffffffff166014612e91565b612c5a836020612e91565b604051602001612c6b929190613dac565b604080517fffffffffffffffffffffffffffffffffffffffffffffffffffffffffffffffe0818403018152908290527f08c379a000000000000000000000000000000000000000000000000000000000825261081d91600401613e2d565b606081600001805480602002602001604051908101604052809291908181526020018280548015612d1957602002820191906000526020600020905b815481526020019060010190808311612d05575b50505050509050919050565b6000826000018281548110612d3c57612d3c6138e3565b9060005260206000200154905092915050565b60008181526001830160205260408120548015612e38576000612d73600183613ce0565b8554909150600090612d8790600190613ce0565b9050818114612dec576000866000018281548110612da757612da76138e3565b9060005260206000200154905080876000018481548110612dca57612dca6138e3565b6000918252602080832090910192909255918252600188019052604090208390555b8554869080612dfd57612dfd613e7e565b6001900381819060005260206000200160009055905585600101600086815260200190815260200160002060009055600193505050506106ae565b60009150506106ae565b6000818152600183016020526040812054612e89575081546001818101845560008481526020808220909301849055845484825282860190935260409020919091556106ae565b5060006106ae565b60606000612ea0836002613ead565b612eab906002613cf3565b67ffffffffffffffff811115612ec357612ec3613648565b6040519080825280601f01601f191660200182016040528015612eed576020820181803683370190505b5090507f300000000000000000000000000000000000000000000000000000000000000081600081518110612f2457612f246138e3565b60200101907effffffffffffffffffffffffffffffffffffffffffffffffffffffffffffff1916908160001a9053507f780000000000000000000000000000000000000000000000000000000000000081600181518110612f8757612f876138e3565b60200101907effffffffffffffffffffffffffffffffffffffffffffffffffffffffffffff1916908160001a9053506000612fc3846002613ead565b612fce906001613cf3565b90505b600181111561306b577f303132333435363738396162636465660000000000000000000000000000000085600f166010811061300f5761300f6138e3565b1a60f81b828281518110613025576130256138e3565b60200101907effffffffffffffffffffffffffffffffffffffffffffffffffffffffffffff1916908160001a90535060049490941c9361306481613eea565b9050612fd1565b508315612a65576040517f08c379a000000000000000000000000000000000000000000000000000000000815260206004820181905260248201527f537472696e67733a20686578206c656e67746820696e73756666696369656e74604482015260640161081d565b82805482825590600052602060002090810192821561310f579160200282015b8281111561310f5782518255916020019190600101906130f4565b5061311b92915061311f565b5090565b5b8082111561311b5760008155600101613120565b60006020828403121561314657600080fd5b81357fffffffff0000000000000000000000000000000000000000000000000000000081168114612a6557600080fd5b60006020828403121561318857600080fd5b5035919050565b600081518084526020808501945080840160005b838110156131bf578151875295820195908201906001016131a3565b509495945050505050565b602081526000612a65602083018461318f565b803573ffffffffffffffffffffffffffffffffffffffff8116811461320157600080fd5b919050565b6000806040838503121561321957600080fd5b82359150613229602084016131dd565b90509250929050565b6000602080830181845280855180835260408601915060408160051b870101925083870160005b828110156132a5577fffffffffffffffffffffffffffffffffffffffffffffffffffffffffffffffc088860301845261329385835161318f565b94509285019290850190600101613259565b5092979650505050505050565b6000602082840312156132c457600080fd5b612a65826131dd565b60006101c08251845260208301516132fd602086018273ffffffffffffffffffffffffffffffffffffffff169052565b5060408301518160408601526133158286018261318f565b9150506060830151848203606086015261332f828261318f565b9150506080830151613359608086018273ffffffffffffffffffffffffffffffffffffffff169052565b5060a083015160a085015260c083015161338b60c086018273ffffffffffffffffffffffffffffffffffffffff169052565b5060e083015184820360e08601526133a3828261318f565b91505061010080840151858303828701526133be838261318f565b92505050610120808401516133ea8287018273ffffffffffffffffffffffffffffffffffffffff169052565b50506101408381015190850152610160808401519085015261018080840151908501526101a09283015192909301919091525090565b6000602080830181845280855180835260408601915060408160051b870101925083870160005b828110156132a5577fffffffffffffffffffffffffffffffffffffffffffffffffffffffffffffffc08886030184526134818583516132cd565b94509285019290850190600101613447565b602081526000612a6560208301846132cd565b600080600080606085870312156134bc57600080fd5b6134c5856131dd565b9350602085013567ffffffffffffffff808211156134e257600080fd5b818701915087601f8301126134f657600080fd5b81358181111561350557600080fd5b8860208260051b850101111561351a57600080fd5b602083019550809450505050613532604086016131dd565b905092959194509250565b6000806040838503121561355057600080fd5b50508035926020909101359150565b6000806040838503121561357257600080fd5b61357b836131dd565b9150613229602084016131dd565b80604081018310156106ae57600080fd5b6000806000806000806000610140888a0312156135b657600080fd5b873596506135c78960208a01613589565b9550606088013567ffffffffffffffff808211156135e457600080fd5b6135f08b838c01613589565b965060808a013591508082111561360657600080fd5b506136138a828b01613589565b9450506136238960a08a01613589565b92506136328960e08a01613589565b9150610120880135905092959891949750929550565b7f4e487b7100000000000000000000000000000000000000000000000000000000600052604160045260246000fd5b604051601f82017fffffffffffffffffffffffffffffffffffffffffffffffffffffffffffffffe016810167ffffffffffffffff811182821017156136be576136be613648565b604052919050565b600082601f8301126136d757600080fd5b8135602067ffffffffffffffff8211156136f3576136f3613648565b8160051b613702828201613677565b928352848101820192828101908785111561371c57600080fd5b83870192505b8483101561373b57823582529183019190830190613722565b979650505050505050565b600082601f83011261375757600080fd5b813567ffffffffffffffff81111561377157613771613648565b6137a260207fffffffffffffffffffffffffffffffffffffffffffffffffffffffffffffffe0601f84011601613677565b8181528460208386010111156137b757600080fd5b816020850160208301376000918101602001919091529392505050565b600080600080600060a086880312156137ec57600080fd5b6137f5866131dd565b9450613803602087016131dd565b9350604086013567ffffffffffffffff8082111561382057600080fd5b61382c89838a016136c6565b9450606088013591508082111561384257600080fd5b61384e89838a016136c6565b9350608088013591508082111561386457600080fd5b5061387188828901613746565b9150509295509295909350565b600080600080600060a0868803121561389657600080fd5b61389f866131dd565b94506138ad602087016131dd565b93506040860135925060608601359150608086013567ffffffffffffffff8111156138d757600080fd5b61387188828901613746565b7f4e487b7100000000000000000000000000000000000000000000000000000000600052603260045260246000fd5b6000815480845260208085019450836000528060002060005b838110156131bf5781548752958201956001918201910161392b565b600073ffffffffffffffffffffffffffffffffffffffff808716835280861660208401525060a0604083015261398060a0830185613912565b82810360608401526139928185613912565b838103608090940193909352505060008152602001949350505050565b6000602082840312156139c157600080fd5b81518015158114612a6557600080fd5b73ffffffffffffffffffffffffffffffffffffffff84168152606060208201526000613a006060830185613912565b8281036040840152613a128185613912565b9695505050505050565b7f4e487b7100000000000000000000000000000000000000000000000000000000600052601160045260246000fd5b60007fffffffffffffffffffffffffffffffffffffffffffffffffffffffffffffffff8203613a7c57613a7c613a1c565b5060010190565b60006101c082548452613aad600184015473ffffffffffffffffffffffffffffffffffffffff1690565b73ffffffffffffffffffffffffffffffffffffffff16602085015260408401819052613ade81850160028501613912565b90508381036060850152613af58160038501613912565b9050613b18600484015473ffffffffffffffffffffffffffffffffffffffff1690565b73ffffffffffffffffffffffffffffffffffffffff9081166080860152600584015460a086015260068401541660c085015283810360e0850152613b5f8160078501613912565b9050838103610100850152613b778160088501613912565b9050613b9a600984015473ffffffffffffffffffffffffffffffffffffffff1690565b73ffffffffffffffffffffffffffffffffffffffff16610120850152600a830154610140850152600b830154610160850152600c830154610180850152600d909201546101a090930192909252919050565b604081526000613bff6040830185613a83565b905073ffffffffffffffffffffffffffffffffffffffff831660208301529392505050565b600060208284031215613c3657600080fd5b5051919050565b600073ffffffffffffffffffffffffffffffffffffffff808816835280871660208401525060a060408301528360a08301527f07ffffffffffffffffffffffffffffffffffffffffffffffffffffffffffffff841115613c9c57600080fd5b8360051b808660c0850137820182810360c09081016060850152613cc29082018561318f565b83810360809094019390935250506000815260200195945050505050565b818103818111156106ae576106ae613a1c565b808201808211156106ae576106ae613a1c565b602081526000612a656020830184613a83565b60008083357fffffffffffffffffffffffffffffffffffffffffffffffffffffffffffffffe1843603018112613d4e57600080fd5b83018035915067ffffffffffffffff821115613d6957600080fd5b6020019150600581901b3603821315613d8157600080fd5b9250929050565b60005b83811015613da3578181015183820152602001613d8b565b50506000910152565b7f416363657373436f6e74726f6c3a206163636f756e7420000000000000000000815260008351613de4816017850160208801613d88565b7f206973206d697373696e6720726f6c65200000000000000000000000000000006017918401918201528351613e21816028840160208801613d88565b01602801949350505050565b6020815260008251806020840152613e4c816040850160208701613d88565b601f017fffffffffffffffffffffffffffffffffffffffffffffffffffffffffffffffe0169190910160400192915050565b7f4e487b7100000000000000000000000000000000000000000000000000000000600052603160045260246000fd5b6000817fffffffffffffffffffffffffffffffffffffffffffffffffffffffffffffffff0483118215151615613ee557613ee5613a1c565b500290565b600081613ef957613ef9613a1c565b507fffffffffffffffffffffffffffffffffffffffffffffffffffffffffffffffff019056fea264697066735822122047f64c12c55782cf1e42a7422b470c508cd2c653711d2c01ed8257db95efb6ca64736f6c63430008100033",
  "linkReferences": {},
  "deployedLinkReferences": {}
}