{
  "_format": "hh-sol-artifact-1",
  "contractName": "Game_Lootbox_Manager",
  "sourceName": "contracts/Lootbox_Manager/Game_Lootbox_Manager.sol",
  "abi": [
    {
      "inputs": [
        {
          "internalType": "address",
          "name": "_forwarder",
          "type": "address"
        },
        {
          "internalType": "bytes32",
          "name": "_systemId",
          "type": "bytes32"
        }
      ],
      "stateMutability": "nonpayable",
      "type": "constructor"
    },
    {
      "anonymous": false,
      "inputs": [
        {
          "indexed": true,
          "internalType": "uint256",
          "name": "lootboxId",
          "type": "uint256"
        },
        {
          "components": [
            {
              "internalType": "uint256",
              "name": "id",
              "type": "uint256"
            },
            {
              "internalType": "contract IERC1155",
              "name": "inputCollection",
              "type": "address"
            },
            {
              "internalType": "uint256[]",
              "name": "inputCollectionItemIds",
              "type": "uint256[]"
            },
            {
              "internalType": "uint256[]",
              "name": "inputCollectionItemAmounts",
              "type": "uint256[]"
            },
            {
              "internalType": "contract IERC1155",
              "name": "outputCollection",
              "type": "address"
            },
            {
              "internalType": "uint256[]",
              "name": "outputCollectionItemIds",
              "type": "uint256[]"
            },
            {
              "internalType": "uint256[]",
              "name": "outputCollectionItemAmounts",
              "type": "uint256[]"
            },
            {
              "internalType": "uint256[]",
              "name": "outputCollectionItemWeights",
              "type": "uint256[]"
            },
            {
              "internalType": "uint256",
              "name": "outputTotalItemsWeight",
              "type": "uint256"
            },
            {
              "internalType": "uint256",
              "name": "outputTotalItems",
              "type": "uint256"
            },
            {
              "internalType": "uint256",
              "name": "opens",
              "type": "uint256"
            },
            {
              "internalType": "uint256",
              "name": "lastUpdatedAt",
              "type": "uint256"
            }
          ],
          "indexed": false,
          "internalType": "struct IGame_Lootbox_Manager.Lootbox",
          "name": "lootbox",
          "type": "tuple"
        },
        {
          "indexed": false,
          "internalType": "address",
          "name": "user",
          "type": "address"
        },
        {
          "indexed": false,
          "internalType": "uint256",
          "name": "openedLootboxIndex",
          "type": "uint256"
        },
        {
          "indexed": false,
          "internalType": "uint256[]",
          "name": "outputCollectionItemIds",
          "type": "uint256[]"
        },
        {
          "indexed": false,
          "internalType": "uint256[]",
          "name": "outputCollectionItemAmounts",
          "type": "uint256[]"
        }
      ],
      "name": "LootboxClaimed",
      "type": "event"
    },
    {
      "anonymous": false,
      "inputs": [
        {
          "indexed": true,
          "internalType": "uint256",
          "name": "lootboxId",
          "type": "uint256"
        },
        {
          "components": [
            {
              "internalType": "uint256",
              "name": "id",
              "type": "uint256"
            },
            {
              "internalType": "contract IERC1155",
              "name": "inputCollection",
              "type": "address"
            },
            {
              "internalType": "uint256[]",
              "name": "inputCollectionItemIds",
              "type": "uint256[]"
            },
            {
              "internalType": "uint256[]",
              "name": "inputCollectionItemAmounts",
              "type": "uint256[]"
            },
            {
              "internalType": "contract IERC1155",
              "name": "outputCollection",
              "type": "address"
            },
            {
              "internalType": "uint256[]",
              "name": "outputCollectionItemIds",
              "type": "uint256[]"
            },
            {
              "internalType": "uint256[]",
              "name": "outputCollectionItemAmounts",
              "type": "uint256[]"
            },
            {
              "internalType": "uint256[]",
              "name": "outputCollectionItemWeights",
              "type": "uint256[]"
            },
            {
              "internalType": "uint256",
              "name": "outputTotalItemsWeight",
              "type": "uint256"
            },
            {
              "internalType": "uint256",
              "name": "outputTotalItems",
              "type": "uint256"
            },
            {
              "internalType": "uint256",
              "name": "opens",
              "type": "uint256"
            },
            {
              "internalType": "uint256",
              "name": "lastUpdatedAt",
              "type": "uint256"
            }
          ],
          "indexed": false,
          "internalType": "struct IGame_Lootbox_Manager.Lootbox",
          "name": "lootbox",
          "type": "tuple"
        },
        {
          "indexed": false,
          "internalType": "address",
          "name": "user",
          "type": "address"
        }
      ],
      "name": "LootboxOpened",
      "type": "event"
    },
    {
      "anonymous": false,
      "inputs": [
        {
          "indexed": true,
          "internalType": "uint256",
          "name": "lootboxId",
          "type": "uint256"
        },
        {
          "components": [
            {
              "internalType": "uint256",
              "name": "id",
              "type": "uint256"
            },
            {
              "internalType": "contract IERC1155",
              "name": "inputCollection",
              "type": "address"
            },
            {
              "internalType": "uint256[]",
              "name": "inputCollectionItemIds",
              "type": "uint256[]"
            },
            {
              "internalType": "uint256[]",
              "name": "inputCollectionItemAmounts",
              "type": "uint256[]"
            },
            {
              "internalType": "contract IERC1155",
              "name": "outputCollection",
              "type": "address"
            },
            {
              "internalType": "uint256[]",
              "name": "outputCollectionItemIds",
              "type": "uint256[]"
            },
            {
              "internalType": "uint256[]",
              "name": "outputCollectionItemAmounts",
              "type": "uint256[]"
            },
            {
              "internalType": "uint256[]",
              "name": "outputCollectionItemWeights",
              "type": "uint256[]"
            },
            {
              "internalType": "uint256",
              "name": "outputTotalItemsWeight",
              "type": "uint256"
            },
            {
              "internalType": "uint256",
              "name": "outputTotalItems",
              "type": "uint256"
            },
            {
              "internalType": "uint256",
              "name": "opens",
              "type": "uint256"
            },
            {
              "internalType": "uint256",
              "name": "lastUpdatedAt",
              "type": "uint256"
            }
          ],
          "indexed": false,
          "internalType": "struct IGame_Lootbox_Manager.Lootbox",
          "name": "lootbox",
          "type": "tuple"
        }
      ],
      "name": "LootboxRemoved",
      "type": "event"
    },
    {
      "anonymous": false,
      "inputs": [
        {
          "indexed": true,
          "internalType": "uint256",
          "name": "lootboxId",
          "type": "uint256"
        },
        {
          "components": [
            {
              "internalType": "uint256",
              "name": "id",
              "type": "uint256"
            },
            {
              "internalType": "contract IERC1155",
              "name": "inputCollection",
              "type": "address"
            },
            {
              "internalType": "uint256[]",
              "name": "inputCollectionItemIds",
              "type": "uint256[]"
            },
            {
              "internalType": "uint256[]",
              "name": "inputCollectionItemAmounts",
              "type": "uint256[]"
            },
            {
              "internalType": "contract IERC1155",
              "name": "outputCollection",
              "type": "address"
            },
            {
              "internalType": "uint256[]",
              "name": "outputCollectionItemIds",
              "type": "uint256[]"
            },
            {
              "internalType": "uint256[]",
              "name": "outputCollectionItemAmounts",
              "type": "uint256[]"
            },
            {
              "internalType": "uint256[]",
              "name": "outputCollectionItemWeights",
              "type": "uint256[]"
            },
            {
              "internalType": "uint256",
              "name": "outputTotalItemsWeight",
              "type": "uint256"
            },
            {
              "internalType": "uint256",
              "name": "outputTotalItems",
              "type": "uint256"
            },
            {
              "internalType": "uint256",
              "name": "opens",
              "type": "uint256"
            },
            {
              "internalType": "uint256",
              "name": "lastUpdatedAt",
              "type": "uint256"
            }
          ],
          "indexed": false,
          "internalType": "struct IGame_Lootbox_Manager.Lootbox",
          "name": "lootbox",
          "type": "tuple"
        }
      ],
      "name": "LootboxSet",
      "type": "event"
    },
    {
      "anonymous": false,
      "inputs": [
        {
          "indexed": true,
          "internalType": "bytes32",
          "name": "role",
          "type": "bytes32"
        },
        {
          "indexed": true,
          "internalType": "bytes32",
          "name": "previousAdminRole",
          "type": "bytes32"
        },
        {
          "indexed": true,
          "internalType": "bytes32",
          "name": "newAdminRole",
          "type": "bytes32"
        }
      ],
      "name": "RoleAdminChanged",
      "type": "event"
    },
    {
      "anonymous": false,
      "inputs": [
        {
          "indexed": true,
          "internalType": "bytes32",
          "name": "role",
          "type": "bytes32"
        },
        {
          "indexed": true,
          "internalType": "address",
          "name": "account",
          "type": "address"
        },
        {
          "indexed": true,
          "internalType": "address",
          "name": "sender",
          "type": "address"
        }
      ],
      "name": "RoleGranted",
      "type": "event"
    },
    {
      "anonymous": false,
      "inputs": [
        {
          "indexed": true,
          "internalType": "bytes32",
          "name": "role",
          "type": "bytes32"
        },
        {
          "indexed": true,
          "internalType": "address",
          "name": "account",
          "type": "address"
        },
        {
          "indexed": true,
          "internalType": "address",
          "name": "sender",
          "type": "address"
        }
      ],
      "name": "RoleRevoked",
      "type": "event"
    },
    {
      "inputs": [],
      "name": "DEFAULT_ADMIN_ROLE",
      "outputs": [
        {
          "internalType": "bytes32",
          "name": "",
          "type": "bytes32"
        }
      ],
      "stateMutability": "view",
      "type": "function"
    },
    {
      "inputs": [],
      "name": "allLootboxIds",
      "outputs": [
        {
          "internalType": "uint256[]",
          "name": "",
          "type": "uint256[]"
        }
      ],
      "stateMutability": "view",
      "type": "function"
    },
    {
      "inputs": [],
      "name": "allLootboxLastUpdates",
      "outputs": [
        {
          "internalType": "uint256[][]",
          "name": "",
          "type": "uint256[][]"
        }
      ],
      "stateMutability": "view",
      "type": "function"
    },
    {
      "inputs": [],
      "name": "allLootboxes",
      "outputs": [
        {
          "components": [
            {
              "internalType": "uint256",
              "name": "id",
              "type": "uint256"
            },
            {
              "internalType": "contract IERC1155",
              "name": "inputCollection",
              "type": "address"
            },
            {
              "internalType": "uint256[]",
              "name": "inputCollectionItemIds",
              "type": "uint256[]"
            },
            {
              "internalType": "uint256[]",
              "name": "inputCollectionItemAmounts",
              "type": "uint256[]"
            },
            {
              "internalType": "contract IERC1155",
              "name": "outputCollection",
              "type": "address"
            },
            {
              "internalType": "uint256[]",
              "name": "outputCollectionItemIds",
              "type": "uint256[]"
            },
            {
              "internalType": "uint256[]",
              "name": "outputCollectionItemAmounts",
              "type": "uint256[]"
            },
            {
              "internalType": "uint256[]",
              "name": "outputCollectionItemWeights",
              "type": "uint256[]"
            },
            {
              "internalType": "uint256",
              "name": "outputTotalItemsWeight",
              "type": "uint256"
            },
            {
              "internalType": "uint256",
              "name": "outputTotalItems",
              "type": "uint256"
            },
            {
              "internalType": "uint256",
              "name": "opens",
              "type": "uint256"
            },
            {
              "internalType": "uint256",
              "name": "lastUpdatedAt",
              "type": "uint256"
            }
          ],
          "internalType": "struct IGame_Lootbox_Manager.Lootbox[]",
          "name": "",
          "type": "tuple[]"
        }
      ],
      "stateMutability": "view",
      "type": "function"
    },
    {
      "inputs": [
        {
          "internalType": "address",
          "name": "_address",
          "type": "address"
        },
        {
          "internalType": "uint256",
          "name": "_lootboxId",
          "type": "uint256"
        }
      ],
      "name": "allOpenedLootboxes",
      "outputs": [
        {
          "components": [
            {
              "internalType": "uint256",
              "name": "lootboxId",
              "type": "uint256"
            },
            {
              "internalType": "uint256",
              "name": "claimSeedBlock",
              "type": "uint256"
            },
            {
              "internalType": "uint256[]",
              "name": "outputCollectionItemIds",
              "type": "uint256[]"
            },
            {
              "internalType": "uint256[]",
              "name": "outputCollectionItemAmounts",
              "type": "uint256[]"
            },
            {
              "internalType": "bool",
              "name": "claimed",
              "type": "bool"
            }
          ],
          "internalType": "struct IGame_Lootbox_Manager.OpenedLootbox[]",
          "name": "",
          "type": "tuple[]"
        }
      ],
      "stateMutability": "view",
      "type": "function"
    },
    {
      "inputs": [
        {
          "internalType": "uint256",
          "name": "_lootboxId",
          "type": "uint256"
        },
        {
          "internalType": "uint256",
          "name": "_openedLootboxIndex",
          "type": "uint256"
        }
      ],
      "name": "claimLootbox",
      "outputs": [],
      "stateMutability": "nonpayable",
      "type": "function"
    },
    {
      "inputs": [
        {
          "internalType": "uint256",
          "name": "_lootboxId",
          "type": "uint256"
        }
      ],
      "name": "claimLootboxes",
      "outputs": [],
      "stateMutability": "nonpayable",
      "type": "function"
    },
    {
      "inputs": [
        {
          "internalType": "bytes32",
          "name": "role",
          "type": "bytes32"
        }
      ],
      "name": "getRoleAdmin",
      "outputs": [
        {
          "internalType": "bytes32",
          "name": "",
          "type": "bytes32"
        }
      ],
      "stateMutability": "view",
      "type": "function"
    },
    {
      "inputs": [
        {
          "internalType": "bytes32",
          "name": "_role",
          "type": "bytes32"
        },
        {
          "internalType": "address",
          "name": "_account",
          "type": "address"
        }
      ],
      "name": "grantRole",
      "outputs": [],
      "stateMutability": "nonpayable",
      "type": "function"
    },
    {
      "inputs": [
        {
          "internalType": "bytes32",
          "name": "role",
          "type": "bytes32"
        },
        {
          "internalType": "address",
          "name": "account",
          "type": "address"
        }
      ],
      "name": "hasRole",
      "outputs": [
        {
          "internalType": "bool",
          "name": "",
          "type": "bool"
        }
      ],
      "stateMutability": "view",
      "type": "function"
    },
    {
      "inputs": [
        {
          "internalType": "address",
          "name": "forwarder",
          "type": "address"
        }
      ],
      "name": "isTrustedForwarder",
      "outputs": [
        {
          "internalType": "bool",
          "name": "",
          "type": "bool"
        }
      ],
      "stateMutability": "view",
      "type": "function"
    },
    {
      "inputs": [
        {
          "internalType": "uint256",
          "name": "_lootboxId",
          "type": "uint256"
        }
      ],
      "name": "lootbox",
      "outputs": [
        {
          "components": [
            {
              "internalType": "uint256",
              "name": "id",
              "type": "uint256"
            },
            {
              "internalType": "contract IERC1155",
              "name": "inputCollection",
              "type": "address"
            },
            {
              "internalType": "uint256[]",
              "name": "inputCollectionItemIds",
              "type": "uint256[]"
            },
            {
              "internalType": "uint256[]",
              "name": "inputCollectionItemAmounts",
              "type": "uint256[]"
            },
            {
              "internalType": "contract IERC1155",
              "name": "outputCollection",
              "type": "address"
            },
            {
              "internalType": "uint256[]",
              "name": "outputCollectionItemIds",
              "type": "uint256[]"
            },
            {
              "internalType": "uint256[]",
              "name": "outputCollectionItemAmounts",
              "type": "uint256[]"
            },
            {
              "internalType": "uint256[]",
              "name": "outputCollectionItemWeights",
              "type": "uint256[]"
            },
            {
              "internalType": "uint256",
              "name": "outputTotalItemsWeight",
              "type": "uint256"
            },
            {
              "internalType": "uint256",
              "name": "outputTotalItems",
              "type": "uint256"
            },
            {
              "internalType": "uint256",
              "name": "opens",
              "type": "uint256"
            },
            {
              "internalType": "uint256",
              "name": "lastUpdatedAt",
              "type": "uint256"
            }
          ],
          "internalType": "struct IGame_Lootbox_Manager.Lootbox",
          "name": "",
          "type": "tuple"
        }
      ],
      "stateMutability": "view",
      "type": "function"
    },
    {
      "inputs": [
        {
          "internalType": "uint256",
          "name": "_index",
          "type": "uint256"
        }
      ],
      "name": "lootboxId",
      "outputs": [
        {
          "internalType": "uint256",
          "name": "",
          "type": "uint256"
        }
      ],
      "stateMutability": "view",
      "type": "function"
    },
    {
      "inputs": [
        {
          "internalType": "uint256",
          "name": "_lootboxId",
          "type": "uint256"
        }
      ],
      "name": "lootboxLastUpdate",
      "outputs": [
        {
          "internalType": "uint256[]",
          "name": "",
          "type": "uint256[]"
        }
      ],
      "stateMutability": "view",
      "type": "function"
    },
    {
      "inputs": [
        {
          "internalType": "address",
          "name": "",
          "type": "address"
        },
        {
          "internalType": "address",
          "name": "",
          "type": "address"
        },
        {
          "internalType": "uint256[]",
          "name": "",
          "type": "uint256[]"
        },
        {
          "internalType": "uint256[]",
          "name": "",
          "type": "uint256[]"
        },
        {
          "internalType": "bytes",
          "name": "",
          "type": "bytes"
        }
      ],
      "name": "onERC1155BatchReceived",
      "outputs": [
        {
          "internalType": "bytes4",
          "name": "",
          "type": "bytes4"
        }
      ],
      "stateMutability": "nonpayable",
      "type": "function"
    },
    {
      "inputs": [
        {
          "internalType": "address",
          "name": "",
          "type": "address"
        },
        {
          "internalType": "address",
          "name": "",
          "type": "address"
        },
        {
          "internalType": "uint256",
          "name": "",
          "type": "uint256"
        },
        {
          "internalType": "uint256",
          "name": "",
          "type": "uint256"
        },
        {
          "internalType": "bytes",
          "name": "",
          "type": "bytes"
        }
      ],
      "name": "onERC1155Received",
      "outputs": [
        {
          "internalType": "bytes4",
          "name": "",
          "type": "bytes4"
        }
      ],
      "stateMutability": "nonpayable",
      "type": "function"
    },
    {
      "inputs": [
        {
          "internalType": "uint256",
          "name": "_lootboxId",
          "type": "uint256"
        }
      ],
      "name": "openLootbox",
      "outputs": [],
      "stateMutability": "nonpayable",
      "type": "function"
    },
    {
      "inputs": [
        {
          "internalType": "address",
          "name": "_address",
          "type": "address"
        },
        {
          "internalType": "uint256",
          "name": "_lootboxId",
          "type": "uint256"
        },
        {
          "internalType": "uint256",
          "name": "_openedLootboxIndex",
          "type": "uint256"
        }
      ],
      "name": "openedLootbox",
      "outputs": [
        {
          "components": [
            {
              "internalType": "uint256",
              "name": "lootboxId",
              "type": "uint256"
            },
            {
              "internalType": "uint256",
              "name": "claimSeedBlock",
              "type": "uint256"
            },
            {
              "internalType": "uint256[]",
              "name": "outputCollectionItemIds",
              "type": "uint256[]"
            },
            {
              "internalType": "uint256[]",
              "name": "outputCollectionItemAmounts",
              "type": "uint256[]"
            },
            {
              "internalType": "bool",
              "name": "claimed",
              "type": "bool"
            }
          ],
          "internalType": "struct IGame_Lootbox_Manager.OpenedLootbox",
          "name": "",
          "type": "tuple"
        }
      ],
      "stateMutability": "view",
      "type": "function"
    },
    {
      "inputs": [
        {
          "internalType": "uint256",
          "name": "_startIndexInclusive",
          "type": "uint256"
        },
        {
          "internalType": "uint256",
          "name": "_limit",
          "type": "uint256"
        }
      ],
      "name": "paginateLootboxIds",
      "outputs": [
        {
          "internalType": "uint256[]",
          "name": "",
          "type": "uint256[]"
        }
      ],
      "stateMutability": "view",
      "type": "function"
    },
    {
      "inputs": [
        {
          "internalType": "uint256",
          "name": "_startIndexInclusive",
          "type": "uint256"
        },
        {
          "internalType": "uint256",
          "name": "_limit",
          "type": "uint256"
        }
      ],
      "name": "paginateLootboxLastUpdates",
      "outputs": [
        {
          "internalType": "uint256[][]",
          "name": "",
          "type": "uint256[][]"
        }
      ],
      "stateMutability": "view",
      "type": "function"
    },
    {
      "inputs": [
        {
          "internalType": "uint256",
          "name": "_startIndexInclusive",
          "type": "uint256"
        },
        {
          "internalType": "uint256",
          "name": "_limit",
          "type": "uint256"
        }
      ],
      "name": "paginateLootboxes",
      "outputs": [
        {
          "components": [
            {
              "internalType": "uint256",
              "name": "id",
              "type": "uint256"
            },
            {
              "internalType": "contract IERC1155",
              "name": "inputCollection",
              "type": "address"
            },
            {
              "internalType": "uint256[]",
              "name": "inputCollectionItemIds",
              "type": "uint256[]"
            },
            {
              "internalType": "uint256[]",
              "name": "inputCollectionItemAmounts",
              "type": "uint256[]"
            },
            {
              "internalType": "contract IERC1155",
              "name": "outputCollection",
              "type": "address"
            },
            {
              "internalType": "uint256[]",
              "name": "outputCollectionItemIds",
              "type": "uint256[]"
            },
            {
              "internalType": "uint256[]",
              "name": "outputCollectionItemAmounts",
              "type": "uint256[]"
            },
            {
              "internalType": "uint256[]",
              "name": "outputCollectionItemWeights",
              "type": "uint256[]"
            },
            {
              "internalType": "uint256",
              "name": "outputTotalItemsWeight",
              "type": "uint256"
            },
            {
              "internalType": "uint256",
              "name": "outputTotalItems",
              "type": "uint256"
            },
            {
              "internalType": "uint256",
              "name": "opens",
              "type": "uint256"
            },
            {
              "internalType": "uint256",
              "name": "lastUpdatedAt",
              "type": "uint256"
            }
          ],
          "internalType": "struct IGame_Lootbox_Manager.Lootbox[]",
          "name": "",
          "type": "tuple[]"
        }
      ],
      "stateMutability": "view",
      "type": "function"
    },
    {
      "inputs": [
        {
          "internalType": "address",
          "name": "_address",
          "type": "address"
        },
        {
          "internalType": "uint256",
          "name": "_lootboxId",
          "type": "uint256"
        },
        {
          "internalType": "uint256",
          "name": "_startIndexInclusive",
          "type": "uint256"
        },
        {
          "internalType": "uint256",
          "name": "_limit",
          "type": "uint256"
        }
      ],
      "name": "paginateOpenedLootboxes",
      "outputs": [
        {
          "components": [
            {
              "internalType": "uint256",
              "name": "lootboxId",
              "type": "uint256"
            },
            {
              "internalType": "uint256",
              "name": "claimSeedBlock",
              "type": "uint256"
            },
            {
              "internalType": "uint256[]",
              "name": "outputCollectionItemIds",
              "type": "uint256[]"
            },
            {
              "internalType": "uint256[]",
              "name": "outputCollectionItemAmounts",
              "type": "uint256[]"
            },
            {
              "internalType": "bool",
              "name": "claimed",
              "type": "bool"
            }
          ],
          "internalType": "struct IGame_Lootbox_Manager.OpenedLootbox[]",
          "name": "",
          "type": "tuple[]"
        }
      ],
      "stateMutability": "view",
      "type": "function"
    },
    {
      "inputs": [
        {
          "internalType": "uint256",
          "name": "_lootboxId",
          "type": "uint256"
        }
      ],
      "name": "removeLootbox",
      "outputs": [],
      "stateMutability": "nonpayable",
      "type": "function"
    },
    {
      "inputs": [
        {
          "internalType": "bytes32",
          "name": "role",
          "type": "bytes32"
        },
        {
          "internalType": "address",
          "name": "account",
          "type": "address"
        }
      ],
      "name": "renounceRole",
      "outputs": [],
      "stateMutability": "nonpayable",
      "type": "function"
    },
    {
      "inputs": [
        {
          "internalType": "bytes32",
          "name": "role",
          "type": "bytes32"
        },
        {
          "internalType": "address",
          "name": "account",
          "type": "address"
        }
      ],
      "name": "revokeRole",
      "outputs": [],
      "stateMutability": "nonpayable",
      "type": "function"
    },
    {
      "inputs": [
        {
          "internalType": "uint256",
          "name": "_offset",
          "type": "uint256"
        }
      ],
      "name": "setClaimableBlockOffset",
      "outputs": [],
      "stateMutability": "nonpayable",
      "type": "function"
    },
    {
      "inputs": [
        {
          "internalType": "uint256",
          "name": "_lootboxId",
          "type": "uint256"
        },
        {
          "internalType": "address[2]",
          "name": "_inputOutputCollections",
          "type": "address[2]"
        },
        {
          "internalType": "uint256[][2]",
          "name": "_inputOutputCollectionItemIds",
          "type": "uint256[][2]"
        },
        {
          "internalType": "uint256[][2]",
          "name": "_inputOutputCollectionItemAmounts",
          "type": "uint256[][2]"
        },
        {
          "internalType": "uint256[]",
          "name": "_outputCollectionItemWeights",
          "type": "uint256[]"
        },
        {
          "internalType": "uint256",
          "name": "_outputTotalItems",
          "type": "uint256"
        }
      ],
      "name": "setLootbox",
      "outputs": [],
      "stateMutability": "nonpayable",
      "type": "function"
    },
    {
      "inputs": [
        {
          "internalType": "bytes4",
          "name": "interfaceId",
          "type": "bytes4"
        }
      ],
      "name": "supportsInterface",
      "outputs": [
        {
          "internalType": "bool",
          "name": "",
          "type": "bool"
        }
      ],
      "stateMutability": "view",
      "type": "function"
    },
    {
      "inputs": [],
      "name": "systemId",
      "outputs": [
        {
          "internalType": "bytes32",
          "name": "",
          "type": "bytes32"
        }
      ],
      "stateMutability": "view",
      "type": "function"
    },
    {
      "inputs": [
        {
          "internalType": "address",
          "name": "_address",
          "type": "address"
        },
        {
          "internalType": "uint256",
          "name": "_lootboxId",
          "type": "uint256"
        }
      ],
      "name": "totalClaimableLootboxes",
      "outputs": [
        {
          "internalType": "uint256",
          "name": "",
          "type": "uint256"
        }
      ],
      "stateMutability": "view",
      "type": "function"
    },
    {
      "inputs": [],
      "name": "totalLootboxes",
      "outputs": [
        {
          "internalType": "uint256",
          "name": "",
          "type": "uint256"
        }
      ],
      "stateMutability": "view",
      "type": "function"
    },
    {
      "inputs": [
        {
          "internalType": "address",
          "name": "_address",
          "type": "address"
        },
        {
          "internalType": "uint256",
          "name": "_lootboxId",
          "type": "uint256"
        }
      ],
      "name": "totalOpenedLootboxes",
      "outputs": [
        {
          "internalType": "uint256",
          "name": "",
          "type": "uint256"
        }
      ],
      "stateMutability": "view",
      "type": "function"
    },
    {
      "inputs": [
        {
          "internalType": "address",
          "name": "_newOwner",
          "type": "address"
        }
      ],
      "name": "transferOwnershipControl",
      "outputs": [],
      "stateMutability": "nonpayable",
      "type": "function"
    },
    {
      "inputs": [],
      "name": "trustedForwarder",
      "outputs": [
        {
          "internalType": "address",
          "name": "",
          "type": "address"
        }
      ],
      "stateMutability": "view",
      "type": "function"
    },
    {
      "inputs": [
        {
          "internalType": "address",
          "name": "_newTrustedForwarder",
          "type": "address"
        }
      ],
      "name": "upgradeTrustedForwarder",
      "outputs": [],
      "stateMutability": "nonpayable",
      "type": "function"
    }
  ],
  "bytecode": "0x608060405260026008553480156200001657600080fd5b5060405162004b3538038062004b358339810160408190526200003991620001b4565b600080546001600160a01b0319166001600160a01b038416178155600182815560035562000071906200006b620000a8565b620000c4565b620000a07f5b618ab2fee761c09bf71319707cefa62eccc93dcc483744898e6c3acf4526436200006b620000a8565b5050620001f0565b6000620000bf620000d460201b62002b071760201c565b905090565b620000d082826200010a565b5050565b600080546001600160a01b03163303620000f5575060131936013560601c90565b620000bf620001b060201b62002b571760201c565b60008281526002602090815260408083206001600160a01b038516845290915290205460ff16620000d05760008281526002602090815260408083206001600160a01b03851684529091529020805460ff191660011790556200016c620000a8565b6001600160a01b0316816001600160a01b0316837f2f8788117e7eff1d82e926ec794901d17c78024a50270940304540a733656f0d60405160405180910390a45050565b3390565b60008060408385031215620001c857600080fd5b82516001600160a01b0381168114620001e057600080fd5b6020939093015192949293505050565b61493580620002006000396000f3fe608060405234801561001057600080fd5b50600436106102415760003560e01c80637ffb5c6511610145578063af90a2b7116100bd578063e1394b901161008c578063ea61401a11610071578063ea61401a146105ce578063f23a6e61146105d6578063fbf3040d1461060e57600080fd5b8063e1394b90146105a8578063e8c683fd146105bb57600080fd5b8063af90a2b714610511578063bc197c8114610524578063d547741f1461058d578063de0ef5e4146105a057600080fd5b806392e1150011610114578063a217fddf116100f9578063a217fddf146104e3578063aa2a7eea146104eb578063abb5d942146104fe57600080fd5b806392e11500146104a357806394cba64e146104c357600080fd5b80637ffb5c651461042f578063826410fc146104425780638404adc11461044a57806391d148541461045d57600080fd5b806339f898bc116101d857806360234af9116101a75780637f1d0ad21161018c5780637f1d0ad2146103f45780637f416510146104145780637ff481901461041c57600080fd5b806360234af91461038f5780637da0a877146103af57600080fd5b806339f898bc146103315780634252ac3f1461033a578063572b6c051461034d5780635ec2d0221461037c57600080fd5b80630e1d1da7116102145780630e1d1da7146102ba578063248a9ca3146102da5780632f2ff15d1461030b57806336568abe1461031e57600080fd5b806301bab1681461024657806301ffc9a71461026f578063021b06471461029257806307af4117146102a7575b600080fd5b610259610254366004613a38565b610651565b6040516102669190613a95565b60405180910390f35b61028261027d366004613b15565b610747565b6040519015158152602001610266565b6102a56102a0366004613b57565b6107e9565b005b6102a56102b5366004613b57565b610888565b6102cd6102c8366004613b57565b610913565b6040516102669190613b70565b6102fd6102e8366004613b57565b60009081526002602052604090206001015490565b604051908152602001610266565b6102a5610319366004613bac565b610993565b6102a561032c366004613bac565b610b36565b6102fd60015481565b6102a5610348366004613bd8565b610c06565b61028261035b366004613bd8565b60005473ffffffffffffffffffffffffffffffffffffffff91821691161490565b6102cd61038a366004613a38565b610c2e565b6103a261039d366004613a38565b610d02565b6040516102669190613d03565b6000546103cf9073ffffffffffffffffffffffffffffffffffffffff1681565b60405173ffffffffffffffffffffffffffffffffffffffff9091168152602001610266565b610407610402366004613d76565b6110aa565b6040516102669190613dfb565b61025961120b565b6102a561042a366004613b57565b6112bb565b6102a561043d366004613a38565b6116ca565b6102fd6116e8565b6102a5610458366004613e7f565b6116f9565b61028261046b366004613bac565b600091825260026020908152604080842073ffffffffffffffffffffffffffffffffffffffff93909316845291905290205460ff1690565b6104b66104b1366004613b57565b611cfb565b6040516102669190613f63565b6104d66104d1366004613f76565b612060565b6040516102669190613fa9565b6102fd600081565b6102a56104f9366004613bd8565b61228b565b6102fd61050c366004613d76565b6122f9565b61040761051f366004613fbc565b6123cf565b61055c610532366004614181565b7fbc197c810000000000000000000000000000000000000000000000000000000095945050505050565b6040517fffffffff000000000000000000000000000000000000000000000000000000009091168152602001610266565b6102a561059b366004613bac565b612667565b6103a2612691565b6102a56105b6366004613b57565b612a01565b6102fd6105c9366004613b57565b612a7c565b6102cd612afb565b61055c6105e436600461422b565b7ff23a6e610000000000000000000000000000000000000000000000000000000095945050505050565b6102fd61061c366004613d76565b73ffffffffffffffffffffffffffffffffffffffff919091166000908152600760209081526040808320938352929052205490565b6060600061065f6004612b5b565b841061066c576000610681565b836106776004612b5b565b61068191906142bf565b90506000838211156106935783610695565b815b905060008167ffffffffffffffff8111156106b2576106b2613ff5565b6040519080825280602002602001820160405280156106e557816020015b60608152602001906001900390816106d05790505b50905060005b8281101561073b5761070b6102c8610703838a6142d2565b600490612b65565b82828151811061071d5761071d6142e5565b6020026020010181905250808061073390614314565b9150506106eb565b50925050505b92915050565b60007fffffffff0000000000000000000000000000000000000000000000000000000082167fb4ff63540000000000000000000000000000000000000000000000000000000014806107da57507fffffffff0000000000000000000000000000000000000000000000000000000082167f4e2312e000000000000000000000000000000000000000000000000000000000145b80610741575061074182612b78565b7f5b618ab2fee761c09bf71319707cefa62eccc93dcc483744898e6c3acf45264361081381612bce565b60008211610882576040517f08c379a000000000000000000000000000000000000000000000000000000000815260206004820152601260248201527f4f66667365742063616e6e6f742062652030000000000000000000000000000060448201526064015b60405180910390fd5b50600855565b7f5b618ab2fee761c09bf71319707cefa62eccc93dcc483744898e6c3acf4526436108b281612bce565b6108bd600483612bdf565b5060008281526006602052604090819020905183907f0864136c4ebca2d8889222bc6e0378756c87aa96dbac4e5645772cf08d4112ee906108ff9084906144ab565b60405180910390a26000600a909101555050565b60408051600280825260608083018452926000929190602083019080368337019050509050828160008151811061094c5761094c6142e5565b60200260200101818152505060066000848152602001908152602001600020600b015481600181518110610982576109826142e5565b602090810291909101015292915050565b60006109a18161046b612beb565b905060006109d17f5b618ab2fee761c09bf71319707cefa62eccc93dcc483744898e6c3acf45264361046b612beb565b905081806109dc5750805b610a68576040517f08c379a000000000000000000000000000000000000000000000000000000000815260206004820152602d60248201527f526f6c65206772616e74696e672072657175697265732061646d696e206f722060448201527f6d616e6167657220726f6c652e000000000000000000000000000000000000006064820152608401610879565b831580610a9457507f5b618ab2fee761c09bf71319707cefa62eccc93dcc483744898e6c3acf45264384145b15610b265781610b26576040517f08c379a000000000000000000000000000000000000000000000000000000000815260206004820152602b60248201527f4f6e6c792061646d696e2063616e206772616e742061646d696e206f72206d6160448201527f6e6167657220726f6c652e0000000000000000000000000000000000000000006064820152608401610879565b610b308484612bf5565b50505050565b610b3e612beb565b73ffffffffffffffffffffffffffffffffffffffff168173ffffffffffffffffffffffffffffffffffffffff1614610bf8576040517f08c379a000000000000000000000000000000000000000000000000000000000815260206004820152602f60248201527f416363657373436f6e74726f6c3a2063616e206f6e6c792072656e6f756e636560448201527f20726f6c657320666f722073656c6600000000000000000000000000000000006064820152608401610879565b610c028282612cea565b5050565b6000610c1181612bce565b610c1c600083612bf5565b610c026000610c29612beb565b612cea565b60606000610c3c6004612b5b565b8410610c49576000610c5e565b83610c546004612b5b565b610c5e91906142bf565b9050600083821115610c705783610c72565b815b905060008167ffffffffffffffff811115610c8f57610c8f613ff5565b604051908082528060200260200182016040528015610cb8578160200160208202803683370190505b50905060005b8281101561073b57610cd361070382896142d2565b828281518110610ce557610ce56142e5565b602090810291909101015280610cfa81614314565b915050610cbe565b60606000610d106004612b5b565b8410610d1d576000610d32565b83610d286004612b5b565b610d3291906142bf565b9050600083821115610d445783610d46565b815b905060008167ffffffffffffffff811115610d6357610d63613ff5565b604051908082528060200260200182016040528015610e2457816020015b610e1160405180610180016040528060008152602001600073ffffffffffffffffffffffffffffffffffffffff1681526020016060815260200160608152602001600073ffffffffffffffffffffffffffffffffffffffff168152602001606081526020016060815260200160608152602001600081526020016000815260200160008152602001600081525090565b815260200190600190039081610d815790505b50905060005b8281101561073b5760066000610e43610703848b6142d2565b8152602080820192909252604090810160002081516101808101835281548152600182015473ffffffffffffffffffffffffffffffffffffffff1681850152600282018054845181870281018701865281815292959394860193830182828015610ecc57602002820191906000526020600020905b815481526020019060010190808311610eb8575b5050505050815260200160038201805480602002602001604051908101604052809291908181526020018280548015610f2457602002820191906000526020600020905b815481526020019060010190808311610f10575b5050509183525050600482015473ffffffffffffffffffffffffffffffffffffffff166020808301919091526005830180546040805182850281018501825282815294019392830182828015610f9957602002820191906000526020600020905b815481526020019060010190808311610f85575b5050505050815260200160068201805480602002602001604051908101604052809291908181526020018280548015610ff157602002820191906000526020600020905b815481526020019060010190808311610fdd575b505050505081526020016007820180548060200260200160405190810160405280929190818152602001828054801561104957602002820191906000526020600020905b815481526020019060010190808311611035575b505050505081526020016008820154815260200160098201548152602001600a8201548152602001600b8201548152505082828151811061108c5761108c6142e5565b602002602001018190525080806110a290614314565b915050610e2a565b73ffffffffffffffffffffffffffffffffffffffff821660009081526007602090815260408083208484528252808320805482518185028101850190935280835260609492939192909184015b828210156111ff57838290600052602060002090600502016040518060a001604052908160008201548152602001600182015481526020016002820180548060200260200160405190810160405280929190818152602001828054801561117d57602002820191906000526020600020905b815481526020019060010190808311611169575b50505050508152602001600382018054806020026020016040519081016040528092919081815260200182805480156111d557602002820191906000526020600020905b8154815260200190600101908083116111c1575b50505091835250506004919091015460ff16151560209182015290825260019290920191016110f7565b50505050905092915050565b606060006112176116e8565b67ffffffffffffffff81111561122f5761122f613ff5565b60405190808252806020026020018201604052801561126257816020015b606081526020019060019003908161124d5790505b50905060005b6112706116e8565b8110156112b5576112856102c8600483612b65565b828281518110611297576112976142e5565b602002602001018190525080806112ad90614314565b915050611268565b50919050565b6112c3612ddd565b6112ce600482612e50565b61135a576040517f08c379a000000000000000000000000000000000000000000000000000000000815260206004820152602d60248201527f6c6f6f74626f78496420646f6573206e6f74206578697374206f72206861732060448201527f6265656e2072656d6f7665642e000000000000000000000000000000000000006064820152608401610879565b6000818152600660205260409020600181015473ffffffffffffffffffffffffffffffffffffffff16156115495760018101546040517f01ffc9a70000000000000000000000000000000000000000000000000000000081527fd2c80a6200000000000000000000000000000000000000000000000000000000600482015273ffffffffffffffffffffffffffffffffffffffff909116906301ffc9a790602401602060405180830381865afa158015611418573d6000803e3d6000fd5b505050506040513d601f19601f8201168201806040525081019061143c91906144be565b156114c657600181015473ffffffffffffffffffffffffffffffffffffffff16634b7c78dc611469612beb565b83600201846003016040518463ffffffff1660e01b815260040161148f939291906144e0565b600060405180830381600087803b1580156114a957600080fd5b505af11580156114bd573d6000803e3d6000fd5b50505050611549565b600181015473ffffffffffffffffffffffffffffffffffffffff16632eb2c2d66114ee612beb565b3084600201856003016040518563ffffffff1660e01b8152600401611516949392919061452b565b600060405180830381600087803b15801561153057600080fd5b505af1158015611544573d6000803e3d6000fd5b505050505b61157d6040518060a00160405280600081526020016000815260200160608152602001606081526020016000151581525090565b82815260085461158d90436142d2565b60208201526007600061159e612beb565b73ffffffffffffffffffffffffffffffffffffffff1681526020808201929092526040908101600090812086825283528181208054600181810183559183529184902085516005909302019182558484015190820155908301518051849361160d9260028501929101906139d8565b50606082015180516116299160038401916020909101906139d8565b5060809190910151600490910180547fffffffffffffffffffffffffffffffffffffffffffffffffffffffffffffff0016911515919091179055600a8201805490600061167583614314565b9190505550827fcbe236ccb8bf2ae258fd54e73752d614c82aa6293d5256658cc3ce58dc4d4bf0836116a5612beb565b6040516116b3929190614593565b60405180910390a250506116c76001600355565b50565b6116d2612ddd565b6116de82826001612e68565b610c026001600355565b60006116f46004612b5b565b905090565b7f5b618ab2fee761c09bf71319707cefa62eccc93dcc483744898e6c3acf45264361172381612bce565b61172d85806145cb565b905061173987806145cb565b9050146117c8576040517f08c379a000000000000000000000000000000000000000000000000000000000815260206004820152602d60248201527f4d69736d61746368656420696e707574206974656d2069647320616e6420616d60448201527f6f756e74206c656e677468732e000000000000000000000000000000000000006064820152608401610879565b6117d560208601866145cb565b90506117e460208801886145cb565b905014611873576040517f08c379a000000000000000000000000000000000000000000000000000000000815260206004820152602d60248201527f4d69736d617463686564206f7574707574206974656d2069647320616e64206160448201527f6d6f756e74206c656e6774682e000000000000000000000000000000000000006064820152608401610879565b8261188160208801886145cb565b905014611910576040517f08c379a000000000000000000000000000000000000000000000000000000000815260206004820152603160248201527f4d69736d61746368206f7574707574206974656d2069647320616e642069746560448201527f6d2077656967687473206c656e6774682e0000000000000000000000000000006064820152608401610879565b6000805b848110156119545785858281811061192e5761192e6142e5565b905060200201358261194091906142d2565b91508061194c81614314565b915050611914565b5060006040518061018001604052808b81526020018a60006002811061197c5761197c6142e5565b60200201602081019061198f9190613bd8565b73ffffffffffffffffffffffffffffffffffffffff1681526020016119b48a806145cb565b808060200260200160405190810160405280939291908181526020018383602002808284376000920191909152505050908252506020016119f589806145cb565b80806020026020016040519081016040528093929190818152602001838360200280828437600092019190915250505090825250602090810190611a3f9060408d01908d01613bd8565b73ffffffffffffffffffffffffffffffffffffffff168152602090810190611a69908b018b6145cb565b80806020026020016040519081016040528093929190818152602001838360200280828437600092019190915250505090825250602090810190611aaf908a018a6145cb565b8080602002602001604051908101604052809392919081815260200183836020028082843760009201919091525050509082525060408051602089810282810182019093528982529283019290918a918a9182918501908490808284376000920182905250938552505050602080830186905260408084018990528e835260069091529020600a01546060820152426080909101529050611b5160048b613444565b5060008a81526006602090815260409182902083518155838201516001820180547fffffffffffffffffffffffff00000000000000000000000000000000000000001673ffffffffffffffffffffffffffffffffffffffff909216919091179055918301518051849392611bcc9260028501929101906139d8565b5060608201518051611be89160038401916020909101906139d8565b5060808201516004820180547fffffffffffffffffffffffff00000000000000000000000000000000000000001673ffffffffffffffffffffffffffffffffffffffff90921691909117905560a08201518051611c4f9160058401916020909101906139d8565b5060c08201518051611c6b9160068401916020909101906139d8565b5060e08201518051611c879160078401916020909101906139d8565b506101008201518160080155610120820151816009015561014082015181600a015561016082015181600b0155905050897fb2e547eb18679a18ee72bf11d33344b9a6a24f4afecf77e5ff1833294b4b0ab982604051611ce79190613f63565b60405180910390a250505050505050505050565b611d8b60405180610180016040528060008152602001600073ffffffffffffffffffffffffffffffffffffffff1681526020016060815260200160608152602001600073ffffffffffffffffffffffffffffffffffffffff168152602001606081526020016060815260200160608152602001600081526020016000815260200160008152602001600081525090565b611d96600483612e50565b611e22576040517f08c379a000000000000000000000000000000000000000000000000000000000815260206004820152602d60248201527f6c6f6f74626f78496420646f6573206e6f74206578697374206f72206861732060448201527f6265656e2072656d6f7665642e000000000000000000000000000000000000006064820152608401610879565b60008281526006602090815260409182902082516101808101845281548152600182015473ffffffffffffffffffffffffffffffffffffffff168184015260028201805485518186028101860187528181529295939493860193830182828015611eab57602002820191906000526020600020905b815481526020019060010190808311611e97575b5050505050815260200160038201805480602002602001604051908101604052809291908181526020018280548015611f0357602002820191906000526020600020905b815481526020019060010190808311611eef575b5050509183525050600482015473ffffffffffffffffffffffffffffffffffffffff166020808301919091526005830180546040805182850281018501825282815294019392830182828015611f7857602002820191906000526020600020905b815481526020019060010190808311611f64575b5050505050815260200160068201805480602002602001604051908101604052809291908181526020018280548015611fd057602002820191906000526020600020905b815481526020019060010190808311611fbc575b505050505081526020016007820180548060200260200160405190810160405280929190818152602001828054801561202857602002820191906000526020600020905b815481526020019060010190808311612014575b505050505081526020016008820154815260200160098201548152602001600a8201548152602001600b820154815250509050919050565b6120946040518060a00160405280600081526020016000815260200160608152602001606081526020016000151581525090565b73ffffffffffffffffffffffffffffffffffffffff841660009081526007602090815260408083208684529091529020548210612153576040517f08c379a000000000000000000000000000000000000000000000000000000000815260206004820152602360248201527f6f70656e65644c6f6f74626f78496e64657820646f6573206e6f74206578697360448201527f74732e00000000000000000000000000000000000000000000000000000000006064820152608401610879565b73ffffffffffffffffffffffffffffffffffffffff841660009081526007602090815260408083208684529091529020805483908110612195576121956142e5565b90600052602060002090600502016040518060a001604052908160008201548152602001600182015481526020016002820180548060200260200160405190810160405280929190818152602001828054801561221157602002820191906000526020600020905b8154815260200190600101908083116121fd575b505050505081526020016003820180548060200260200160405190810160405280929190818152602001828054801561226957602002820191906000526020600020905b815481526020019060010190808311612255575b50505091835250506004919091015460ff161515602090910152949350505050565b7f5b618ab2fee761c09bf71319707cefa62eccc93dcc483744898e6c3acf4526436122b581612bce565b600080547fffffffffffffffffffffffff00000000000000000000000000000000000000001673ffffffffffffffffffffffffffffffffffffffff84161790555050565b600080805b73ffffffffffffffffffffffffffffffffffffffff851660009081526007602090815260408083208784529091529020548110156123c75773ffffffffffffffffffffffffffffffffffffffff851660009081526007602090815260408083208784529091528120805483908110612378576123786142e5565b90600052602060002090600502019050806001015443101580156123a15750600481015460ff16155b156123b457826123b081614314565b9350505b50806123bf81614314565b9150506122fe565b509392505050565b73ffffffffffffffffffffffffffffffffffffffff8416600090815260076020908152604080832086845290915281205460609190841061241157600061244d565b73ffffffffffffffffffffffffffffffffffffffff8616600090815260076020908152604080832088845290915290205461244d9085906142bf565b905060008382111561245f5783612461565b815b905060008167ffffffffffffffff81111561247e5761247e613ff5565b6040519080825280602002602001820160405280156124e357816020015b6124d06040518060a00160405280600081526020016000815260200160608152602001606081526020016000151581525090565b81526020019060019003908161249c5790505b50905060005b8281101561265b5773ffffffffffffffffffffffffffffffffffffffff891660009081526007602090815260408083208b8452909152902061252b82896142d2565b8154811061253b5761253b6142e5565b90600052602060002090600502016040518060a00160405290816000820154815260200160018201548152602001600282018054806020026020016040519081016040528092919081815260200182805480156125b757602002820191906000526020600020905b8154815260200190600101908083116125a3575b505050505081526020016003820180548060200260200160405190810160405280929190818152602001828054801561260f57602002820191906000526020600020905b8154815260200190600101908083116125fb575b50505091835250506004919091015460ff161515602090910152825183908390811061263d5761263d6142e5565b6020026020010181905250808061265390614314565b9150506124e9565b50979650505050505050565b60008281526002602052604090206001015461268281612bce565b61268c8383612cea565b505050565b6060600061269d6116e8565b67ffffffffffffffff8111156126b5576126b5613ff5565b60405190808252806020026020018201604052801561277657816020015b61276360405180610180016040528060008152602001600073ffffffffffffffffffffffffffffffffffffffff1681526020016060815260200160608152602001600073ffffffffffffffffffffffffffffffffffffffff168152602001606081526020016060815260200160608152602001600081526020016000815260200160008152602001600081525090565b8152602001906001900390816126d35790505b50905060005b6127846116e8565b8110156112b5576006600061279a600484612b65565b8152602080820192909252604090810160002081516101808101835281548152600182015473ffffffffffffffffffffffffffffffffffffffff168185015260028201805484518187028101870186528181529295939486019383018282801561282357602002820191906000526020600020905b81548152602001906001019080831161280f575b505050505081526020016003820180548060200260200160405190810160405280929190818152602001828054801561287b57602002820191906000526020600020905b815481526020019060010190808311612867575b5050509183525050600482015473ffffffffffffffffffffffffffffffffffffffff1660208083019190915260058301805460408051828502810185018252828152940193928301828280156128f057602002820191906000526020600020905b8154815260200190600101908083116128dc575b505050505081526020016006820180548060200260200160405190810160405280929190818152602001828054801561294857602002820191906000526020600020905b815481526020019060010190808311612934575b50505050508152602001600782018054806020026020016040519081016040528092919081815260200182805480156129a057602002820191906000526020600020905b81548152602001906001019080831161298c575b505050505081526020016008820154815260200160098201548152602001600a8201548152602001600b820154815250508282815181106129e3576129e36142e5565b602002602001018190525080806129f990614314565b91505061277c565b612a09612ddd565b60005b60076000612a18612beb565b73ffffffffffffffffffffffffffffffffffffffff16815260208082019290925260409081016000908120858252909252902054811015612a7157612a5f82826000612e68565b80612a6981614314565b915050612a0c565b506116c76001600355565b6000612a886004612b5b565b8210612af0576040517f08c379a000000000000000000000000000000000000000000000000000000000815260206004820152601360248201527f496e646578206f7574206f6620626f756e6473000000000000000000000000006044820152606401610879565b610741600483612b65565b60606116f46004613450565b6000805473ffffffffffffffffffffffffffffffffffffffff163303612b5257507fffffffffffffffffffffffffffffffffffffffffffffffffffffffffffffffec36013560601c90565b503390565b3390565b6000610741825490565b6000612b71838361345d565b9392505050565b60007fffffffff0000000000000000000000000000000000000000000000000000000082167f7965db0b000000000000000000000000000000000000000000000000000000001480610741575061074182613487565b6116c781612bda612beb565b61351e565b6000612b7183836135d8565b60006116f4612b07565b600082815260026020908152604080832073ffffffffffffffffffffffffffffffffffffffff8516845290915290205460ff16610c0257600082815260026020908152604080832073ffffffffffffffffffffffffffffffffffffffff85168452909152902080547fffffffffffffffffffffffffffffffffffffffffffffffffffffffffffffff00166001179055612c8c612beb565b73ffffffffffffffffffffffffffffffffffffffff168173ffffffffffffffffffffffffffffffffffffffff16837f2f8788117e7eff1d82e926ec794901d17c78024a50270940304540a733656f0d60405160405180910390a45050565b600082815260026020908152604080832073ffffffffffffffffffffffffffffffffffffffff8516845290915290205460ff1615610c0257600082815260026020908152604080832073ffffffffffffffffffffffffffffffffffffffff85168452909152902080547fffffffffffffffffffffffffffffffffffffffffffffffffffffffffffffff00169055612d7f612beb565b73ffffffffffffffffffffffffffffffffffffffff168173ffffffffffffffffffffffffffffffffffffffff16837ff6391f5c32d9c69d2a47ea670b442974b53935d1edc7fd64eb21e047a839171b60405160405180910390a45050565b600260035403612e49576040517f08c379a000000000000000000000000000000000000000000000000000000000815260206004820152601f60248201527f5265656e7472616e637947756172643a207265656e7472616e742063616c6c006044820152606401610879565b6002600355565b60008181526001830160205260408120541515612b71565b600060076000612e76612beb565b73ffffffffffffffffffffffffffffffffffffffff1673ffffffffffffffffffffffffffffffffffffffff16815260200190815260200160002060008581526020019081526020016000208381548110612ed257612ed26142e5565b9060005260206000209060050201905060006006600086815260200190815260200160002090508160010154431080612f0f5750600482015460ff165b15612fab578215612fa457604080517f08c379a00000000000000000000000000000000000000000000000000000000081526020600482015260248101919091527f4c6f6f74626f7820756e636c61696d61626c652e20436c61696d20626c6f636b60448201527f206e6f742072656163686564206f7220616c726561647920636c61696d65642e6064820152608401610879565b5050505050565b6000816009015467ffffffffffffffff811115612fca57612fca613ff5565b604051908082528060200260200182016040528015612ff3578160200160208202803683370190505b5090506000826009015467ffffffffffffffff81111561301557613015613ff5565b60405190808252806020026020018201604052801561303e578160200160208202803683370190505b50905060005b83600901548110156131de5760006001866001015461306391906142bf565b4061306c612beb565b89846040516020016130bc949392919093845260609290921b7fffffffffffffffffffffffffffffffffffffffff0000000000000000000000001660208401526034830152605482015260740190565b6040516020818303038152906040528051906020012060001c905060008560080154826130e9919061463a565b905060005b60078701548110156131c8576000876007018281548110613111576131116142e5565b90600052602060002001549050828111156131a85787600501828154811061313b5761313b6142e5565b9060005260206000200154878681518110613158576131586142e5565b602002602001018181525050876006018281548110613179576131796142e5565b9060005260206000200154868681518110613196576131966142e5565b602002602001018181525050506131c8565b6131b281846142bf565b92505080806131c090614314565b9150506130ee565b50505080806131d690614314565b915050613044565b506004838101546040517f91d148540000000000000000000000000000000000000000000000000000000081527fc9eb32e43bf5ecbceacf00b32281dfc5d6d700a0db676ea26ccf938a385ac3f79281019290925230602483015273ffffffffffffffffffffffffffffffffffffffff16906391d1485490604401602060405180830381865afa158015613276573d6000803e3d6000fd5b505050506040513d601f19601f8201168201806040525081019061329a91906144be565b1561331e57600483015473ffffffffffffffffffffffffffffffffffffffff166308f427c76132c7612beb565b84846040518463ffffffff1660e01b81526004016132e793929190614675565b600060405180830381600087803b15801561330157600080fd5b505af1158015613315573d6000803e3d6000fd5b5050505061339b565b600483015473ffffffffffffffffffffffffffffffffffffffff16632eb2c2d630613347612beb565b85856040518563ffffffff1660e01b815260040161336894939291906146b6565b600060405180830381600087803b15801561338257600080fd5b505af1158015613396573d6000803e3d6000fd5b505050505b81516133b090600286019060208501906139d8565b5080516133c690600386019060208401906139d8565b506004840180547fffffffffffffffffffffffffffffffffffffffffffffffffffffffffffffff00166001179055867fa90466a1141d4242085b5ac5c6634a366ec37ad66c953e191b51c3441e56010e8461341f612beb565b898686604051613433959493929190614701565b60405180910390a250505050505050565b6000612b7183836136cb565b60606000612b718361371a565b6000826000018281548110613474576134746142e5565b9060005260206000200154905092915050565b60007fffffffff0000000000000000000000000000000000000000000000000000000082167f4e2312e000000000000000000000000000000000000000000000000000000000148061074157507f01ffc9a7000000000000000000000000000000000000000000000000000000007fffffffff00000000000000000000000000000000000000000000000000000000831614610741565b600082815260026020908152604080832073ffffffffffffffffffffffffffffffffffffffff8516845290915290205460ff16610c025761355e81613776565b613569836020613795565b60405160200161357a92919061478c565b604080517fffffffffffffffffffffffffffffffffffffffffffffffffffffffffffffffe0818403018152908290527f08c379a00000000000000000000000000000000000000000000000000000000082526108799160040161480d565b600081815260018301602052604081205480156136c15760006135fc6001836142bf565b8554909150600090613610906001906142bf565b9050818114613675576000866000018281548110613630576136306142e5565b9060005260206000200154905080876000018481548110613653576136536142e5565b6000918252602080832090910192909255918252600188019052604090208390555b85548690806136865761368661485e565b600190038181906000526020600020016000905590558560010160008681526020019081526020016000206000905560019350505050610741565b6000915050610741565b600081815260018301602052604081205461371257508154600181810184556000848152602080822090930184905584548482528286019093526040902091909155610741565b506000610741565b60608160000180548060200260200160405190810160405280929190818152602001828054801561376a57602002820191906000526020600020905b815481526020019060010190808311613756575b50505050509050919050565b606061074173ffffffffffffffffffffffffffffffffffffffff831660145b606060006137a483600261488d565b6137af9060026142d2565b67ffffffffffffffff8111156137c7576137c7613ff5565b6040519080825280601f01601f1916602001820160405280156137f1576020820181803683370190505b5090507f300000000000000000000000000000000000000000000000000000000000000081600081518110613828576138286142e5565b60200101907effffffffffffffffffffffffffffffffffffffffffffffffffffffffffffff1916908160001a9053507f78000000000000000000000000000000000000000000000000000000000000008160018151811061388b5761388b6142e5565b60200101907effffffffffffffffffffffffffffffffffffffffffffffffffffffffffffff1916908160001a90535060006138c784600261488d565b6138d29060016142d2565b90505b600181111561396f577f303132333435363738396162636465660000000000000000000000000000000085600f1660108110613913576139136142e5565b1a60f81b828281518110613929576139296142e5565b60200101907effffffffffffffffffffffffffffffffffffffffffffffffffffffffffffff1916908160001a90535060049490941c93613968816148ca565b90506138d5565b508315612b71576040517f08c379a000000000000000000000000000000000000000000000000000000000815260206004820181905260248201527f537472696e67733a20686578206c656e67746820696e73756666696369656e746044820152606401610879565b828054828255906000526020600020908101928215613a13579160200282015b82811115613a135782518255916020019190600101906139f8565b50613a1f929150613a23565b5090565b5b80821115613a1f5760008155600101613a24565b60008060408385031215613a4b57600080fd5b50508035926020909101359150565b600081518084526020808501945080840160005b83811015613a8a57815187529582019590820190600101613a6e565b509495945050505050565b6000602080830181845280855180835260408601915060408160051b870101925083870160005b82811015613b08577fffffffffffffffffffffffffffffffffffffffffffffffffffffffffffffffc0888603018452613af6858351613a5a565b94509285019290850190600101613abc565b5092979650505050505050565b600060208284031215613b2757600080fd5b81357fffffffff0000000000000000000000000000000000000000000000000000000081168114612b7157600080fd5b600060208284031215613b6957600080fd5b5035919050565b602081526000612b716020830184613a5a565b803573ffffffffffffffffffffffffffffffffffffffff81168114613ba757600080fd5b919050565b60008060408385031215613bbf57600080fd5b82359150613bcf60208401613b83565b90509250929050565b600060208284031215613bea57600080fd5b612b7182613b83565b6000610180825184526020830151613c23602086018273ffffffffffffffffffffffffffffffffffffffff169052565b506040830151816040860152613c3b82860182613a5a565b91505060608301518482036060860152613c558282613a5a565b9150506080830151613c7f608086018273ffffffffffffffffffffffffffffffffffffffff169052565b5060a083015184820360a0860152613c978282613a5a565b91505060c083015184820360c0860152613cb18282613a5a565b91505060e083015184820360e0860152613ccb8282613a5a565b610100858101519087015261012080860151908701526101408086015190870152610160948501519490950193909352509192915050565b6000602080830181845280855180835260408601915060408160051b870101925083870160005b82811015613b08577fffffffffffffffffffffffffffffffffffffffffffffffffffffffffffffffc0888603018452613d64858351613bf3565b94509285019290850190600101613d2a565b60008060408385031215613d8957600080fd5b613d9283613b83565b946020939093013593505050565b80518252602081015160208301526000604082015160a06040850152613dc960a0850182613a5a565b905060608301518482036060860152613de28282613a5a565b9150506080830151151560808501528091505092915050565b6000602080830181845280855180835260408601915060408160051b870101925083870160005b82811015613b08577fffffffffffffffffffffffffffffffffffffffffffffffffffffffffffffffc0888603018452613e5c858351613da0565b94509285019290850190600101613e22565b806040810183101561074157600080fd5b600080600080600080600060e0888a031215613e9a57600080fd5b87359650613eab8960208a01613e6e565b9550606088013567ffffffffffffffff80821115613ec857600080fd5b613ed48b838c01613e6e565b965060808a0135915080821115613eea57600080fd5b613ef68b838c01613e6e565b955060a08a0135915080821115613f0c57600080fd5b818a0191508a601f830112613f2057600080fd5b813581811115613f2f57600080fd5b8b60208260051b8501011115613f4457600080fd5b60208301955080945050505060c0880135905092959891949750929550565b602081526000612b716020830184613bf3565b600080600060608486031215613f8b57600080fd5b613f9484613b83565b95602085013595506040909401359392505050565b602081526000612b716020830184613da0565b60008060008060808587031215613fd257600080fd5b613fdb85613b83565b966020860135965060408601359560600135945092505050565b7f4e487b7100000000000000000000000000000000000000000000000000000000600052604160045260246000fd5b604051601f82017fffffffffffffffffffffffffffffffffffffffffffffffffffffffffffffffe016810167ffffffffffffffff8111828210171561406b5761406b613ff5565b604052919050565b600082601f83011261408457600080fd5b8135602067ffffffffffffffff8211156140a0576140a0613ff5565b8160051b6140af828201614024565b92835284810182019282810190878511156140c957600080fd5b83870192505b848310156140e8578235825291830191908301906140cf565b979650505050505050565b600082601f83011261410457600080fd5b813567ffffffffffffffff81111561411e5761411e613ff5565b61414f60207fffffffffffffffffffffffffffffffffffffffffffffffffffffffffffffffe0601f84011601614024565b81815284602083860101111561416457600080fd5b816020850160208301376000918101602001919091529392505050565b600080600080600060a0868803121561419957600080fd5b6141a286613b83565b94506141b060208701613b83565b9350604086013567ffffffffffffffff808211156141cd57600080fd5b6141d989838a01614073565b945060608801359150808211156141ef57600080fd5b6141fb89838a01614073565b9350608088013591508082111561421157600080fd5b5061421e888289016140f3565b9150509295509295909350565b600080600080600060a0868803121561424357600080fd5b61424c86613b83565b945061425a60208701613b83565b93506040860135925060608601359150608086013567ffffffffffffffff81111561428457600080fd5b61421e888289016140f3565b7f4e487b7100000000000000000000000000000000000000000000000000000000600052601160045260246000fd5b8181038181111561074157610741614290565b8082018082111561074157610741614290565b7f4e487b7100000000000000000000000000000000000000000000000000000000600052603260045260246000fd5b60007fffffffffffffffffffffffffffffffffffffffffffffffffffffffffffffffff820361434557614345614290565b5060010190565b6000815480845260208085019450836000528060002060005b83811015613a8a57815487529582019560019182019101614365565b6000610180825484526143ab600184015473ffffffffffffffffffffffffffffffffffffffff1690565b73ffffffffffffffffffffffffffffffffffffffff166020850152604084018190526143dc8185016002850161434c565b905083810360608501526143f3816003850161434c565b9050614416600484015473ffffffffffffffffffffffffffffffffffffffff1690565b73ffffffffffffffffffffffffffffffffffffffff16608085015283810360a0850152614446816005850161434c565b905083810360c085015261445d816006850161434c565b905083810360e0850152614474816007850161434c565b60088401546101008601526009840154610120860152600a840154610140860152600b909301546101609094019390935250919050565b602081526000612b716020830184614381565b6000602082840312156144d057600080fd5b81518015158114612b7157600080fd5b73ffffffffffffffffffffffffffffffffffffffff8416815260606020820152600061450f606083018561434c565b8281036040840152614521818561434c565b9695505050505050565b600073ffffffffffffffffffffffffffffffffffffffff808716835280861660208401525060a0604083015261456460a083018561434c565b8281036060840152614576818561434c565b838103608090940193909352505060008152602001949350505050565b6040815260006145a66040830185614381565b905073ffffffffffffffffffffffffffffffffffffffff831660208301529392505050565b60008083357fffffffffffffffffffffffffffffffffffffffffffffffffffffffffffffffe184360301811261460057600080fd5b83018035915067ffffffffffffffff82111561461b57600080fd5b6020019150600581901b360382131561463357600080fd5b9250929050565b600082614670577f4e487b7100000000000000000000000000000000000000000000000000000000600052601260045260246000fd5b500690565b73ffffffffffffffffffffffffffffffffffffffff841681526060602082015260006146a46060830185613a5a565b82810360408401526145218185613a5a565b600073ffffffffffffffffffffffffffffffffffffffff808716835280861660208401525060a060408301526146ef60a0830185613a5a565b82810360608401526145768185613a5a565b60a08152600061471460a0830188614381565b73ffffffffffffffffffffffffffffffffffffffff8716602084015285604084015282810360608401526147488186613a5a565b9050828103608084015261475c8185613a5a565b98975050505050505050565b60005b8381101561478357818101518382015260200161476b565b50506000910152565b7f416363657373436f6e74726f6c3a206163636f756e74200000000000000000008152600083516147c4816017850160208801614768565b7f206973206d697373696e6720726f6c65200000000000000000000000000000006017918401918201528351614801816028840160208801614768565b01602801949350505050565b602081526000825180602084015261482c816040850160208701614768565b601f017fffffffffffffffffffffffffffffffffffffffffffffffffffffffffffffffe0169190910160400192915050565b7f4e487b7100000000000000000000000000000000000000000000000000000000600052603160045260246000fd5b6000817fffffffffffffffffffffffffffffffffffffffffffffffffffffffffffffffff04831182151516156148c5576148c5614290565b500290565b6000816148d9576148d9614290565b507fffffffffffffffffffffffffffffffffffffffffffffffffffffffffffffffff019056fea26469706673582212205b2f855fe3bbb5117aec65048419d3c84f31cedd95f0727d5a2505cca4f5629d64736f6c63430008100033",
  "linkReferences": {},
  "deployedLinkReferences": {}
}