{
  "_format": "hh-sol-artifact-1",
  "contractName": "Game_Lootbox_Manager",
  "sourceName": "contracts/Lootbox_Manager/Game_Lootbox_Manager.sol",
  "abi": [
    {
      "inputs": [
        {
          "internalType": "address",
          "name": "_forwarder",
          "type": "address"
        },
        {
          "internalType": "bytes32",
          "name": "_systemId",
          "type": "bytes32"
        }
      ],
      "stateMutability": "nonpayable",
      "type": "constructor"
    },
    {
      "anonymous": false,
      "inputs": [
        {
          "indexed": true,
          "internalType": "uint256",
          "name": "lootboxId",
          "type": "uint256"
        },
        {
          "components": [
            {
              "internalType": "uint256",
              "name": "id",
              "type": "uint256"
            },
            {
              "internalType": "contract IERC1155",
              "name": "inputCollection",
              "type": "address"
            },
            {
              "internalType": "uint256[]",
              "name": "inputCollectionItemIds",
              "type": "uint256[]"
            },
            {
              "internalType": "uint256[]",
              "name": "inputCollectionItemAmounts",
              "type": "uint256[]"
            },
            {
              "internalType": "contract IERC1155",
              "name": "outputCollection",
              "type": "address"
            },
            {
              "internalType": "uint256[]",
              "name": "outputCollectionItemIds",
              "type": "uint256[]"
            },
            {
              "internalType": "uint256[]",
              "name": "outputCollectionItemAmounts",
              "type": "uint256[]"
            },
            {
              "internalType": "uint256[]",
              "name": "outputCollectionItemWeights",
              "type": "uint256[]"
            },
            {
              "internalType": "uint256",
              "name": "outputTotalItemsWeight",
              "type": "uint256"
            },
            {
              "internalType": "uint256",
              "name": "outputTotalItems",
              "type": "uint256"
            },
            {
              "internalType": "uint256",
              "name": "opens",
              "type": "uint256"
            },
            {
              "internalType": "uint256",
              "name": "lastUpdatedAt",
              "type": "uint256"
            }
          ],
          "indexed": false,
          "internalType": "struct IGame_Lootbox_Manager.Lootbox",
          "name": "lootbox",
          "type": "tuple"
        },
        {
          "indexed": false,
          "internalType": "address",
          "name": "user",
          "type": "address"
        },
        {
          "indexed": false,
          "internalType": "uint256",
          "name": "openedLootboxIndex",
          "type": "uint256"
        },
        {
          "indexed": false,
          "internalType": "uint256[]",
          "name": "outputCollectionItemIds",
          "type": "uint256[]"
        },
        {
          "indexed": false,
          "internalType": "uint256[]",
          "name": "outputCollectionItemAmounts",
          "type": "uint256[]"
        }
      ],
      "name": "LootboxClaimed",
      "type": "event"
    },
    {
      "anonymous": false,
      "inputs": [
        {
          "indexed": true,
          "internalType": "uint256",
          "name": "lootboxId",
          "type": "uint256"
        },
        {
          "components": [
            {
              "internalType": "uint256",
              "name": "id",
              "type": "uint256"
            },
            {
              "internalType": "contract IERC1155",
              "name": "inputCollection",
              "type": "address"
            },
            {
              "internalType": "uint256[]",
              "name": "inputCollectionItemIds",
              "type": "uint256[]"
            },
            {
              "internalType": "uint256[]",
              "name": "inputCollectionItemAmounts",
              "type": "uint256[]"
            },
            {
              "internalType": "contract IERC1155",
              "name": "outputCollection",
              "type": "address"
            },
            {
              "internalType": "uint256[]",
              "name": "outputCollectionItemIds",
              "type": "uint256[]"
            },
            {
              "internalType": "uint256[]",
              "name": "outputCollectionItemAmounts",
              "type": "uint256[]"
            },
            {
              "internalType": "uint256[]",
              "name": "outputCollectionItemWeights",
              "type": "uint256[]"
            },
            {
              "internalType": "uint256",
              "name": "outputTotalItemsWeight",
              "type": "uint256"
            },
            {
              "internalType": "uint256",
              "name": "outputTotalItems",
              "type": "uint256"
            },
            {
              "internalType": "uint256",
              "name": "opens",
              "type": "uint256"
            },
            {
              "internalType": "uint256",
              "name": "lastUpdatedAt",
              "type": "uint256"
            }
          ],
          "indexed": false,
          "internalType": "struct IGame_Lootbox_Manager.Lootbox",
          "name": "lootbox",
          "type": "tuple"
        },
        {
          "indexed": false,
          "internalType": "address",
          "name": "user",
          "type": "address"
        }
      ],
      "name": "LootboxOpened",
      "type": "event"
    },
    {
      "anonymous": false,
      "inputs": [
        {
          "indexed": true,
          "internalType": "uint256",
          "name": "lootboxId",
          "type": "uint256"
        },
        {
          "components": [
            {
              "internalType": "uint256",
              "name": "id",
              "type": "uint256"
            },
            {
              "internalType": "contract IERC1155",
              "name": "inputCollection",
              "type": "address"
            },
            {
              "internalType": "uint256[]",
              "name": "inputCollectionItemIds",
              "type": "uint256[]"
            },
            {
              "internalType": "uint256[]",
              "name": "inputCollectionItemAmounts",
              "type": "uint256[]"
            },
            {
              "internalType": "contract IERC1155",
              "name": "outputCollection",
              "type": "address"
            },
            {
              "internalType": "uint256[]",
              "name": "outputCollectionItemIds",
              "type": "uint256[]"
            },
            {
              "internalType": "uint256[]",
              "name": "outputCollectionItemAmounts",
              "type": "uint256[]"
            },
            {
              "internalType": "uint256[]",
              "name": "outputCollectionItemWeights",
              "type": "uint256[]"
            },
            {
              "internalType": "uint256",
              "name": "outputTotalItemsWeight",
              "type": "uint256"
            },
            {
              "internalType": "uint256",
              "name": "outputTotalItems",
              "type": "uint256"
            },
            {
              "internalType": "uint256",
              "name": "opens",
              "type": "uint256"
            },
            {
              "internalType": "uint256",
              "name": "lastUpdatedAt",
              "type": "uint256"
            }
          ],
          "indexed": false,
          "internalType": "struct IGame_Lootbox_Manager.Lootbox",
          "name": "lootbox",
          "type": "tuple"
        }
      ],
      "name": "LootboxRemoved",
      "type": "event"
    },
    {
      "anonymous": false,
      "inputs": [
        {
          "indexed": true,
          "internalType": "uint256",
          "name": "lootboxId",
          "type": "uint256"
        },
        {
          "components": [
            {
              "internalType": "uint256",
              "name": "id",
              "type": "uint256"
            },
            {
              "internalType": "contract IERC1155",
              "name": "inputCollection",
              "type": "address"
            },
            {
              "internalType": "uint256[]",
              "name": "inputCollectionItemIds",
              "type": "uint256[]"
            },
            {
              "internalType": "uint256[]",
              "name": "inputCollectionItemAmounts",
              "type": "uint256[]"
            },
            {
              "internalType": "contract IERC1155",
              "name": "outputCollection",
              "type": "address"
            },
            {
              "internalType": "uint256[]",
              "name": "outputCollectionItemIds",
              "type": "uint256[]"
            },
            {
              "internalType": "uint256[]",
              "name": "outputCollectionItemAmounts",
              "type": "uint256[]"
            },
            {
              "internalType": "uint256[]",
              "name": "outputCollectionItemWeights",
              "type": "uint256[]"
            },
            {
              "internalType": "uint256",
              "name": "outputTotalItemsWeight",
              "type": "uint256"
            },
            {
              "internalType": "uint256",
              "name": "outputTotalItems",
              "type": "uint256"
            },
            {
              "internalType": "uint256",
              "name": "opens",
              "type": "uint256"
            },
            {
              "internalType": "uint256",
              "name": "lastUpdatedAt",
              "type": "uint256"
            }
          ],
          "indexed": false,
          "internalType": "struct IGame_Lootbox_Manager.Lootbox",
          "name": "lootbox",
          "type": "tuple"
        }
      ],
      "name": "LootboxSet",
      "type": "event"
    },
    {
      "anonymous": false,
      "inputs": [
        {
          "indexed": true,
          "internalType": "bytes32",
          "name": "role",
          "type": "bytes32"
        },
        {
          "indexed": true,
          "internalType": "bytes32",
          "name": "previousAdminRole",
          "type": "bytes32"
        },
        {
          "indexed": true,
          "internalType": "bytes32",
          "name": "newAdminRole",
          "type": "bytes32"
        }
      ],
      "name": "RoleAdminChanged",
      "type": "event"
    },
    {
      "anonymous": false,
      "inputs": [
        {
          "indexed": true,
          "internalType": "bytes32",
          "name": "role",
          "type": "bytes32"
        },
        {
          "indexed": true,
          "internalType": "address",
          "name": "account",
          "type": "address"
        },
        {
          "indexed": true,
          "internalType": "address",
          "name": "sender",
          "type": "address"
        }
      ],
      "name": "RoleGranted",
      "type": "event"
    },
    {
      "anonymous": false,
      "inputs": [
        {
          "indexed": true,
          "internalType": "bytes32",
          "name": "role",
          "type": "bytes32"
        },
        {
          "indexed": true,
          "internalType": "address",
          "name": "account",
          "type": "address"
        },
        {
          "indexed": true,
          "internalType": "address",
          "name": "sender",
          "type": "address"
        }
      ],
      "name": "RoleRevoked",
      "type": "event"
    },
    {
      "inputs": [],
      "name": "DEFAULT_ADMIN_ROLE",
      "outputs": [
        {
          "internalType": "bytes32",
          "name": "",
          "type": "bytes32"
        }
      ],
      "stateMutability": "view",
      "type": "function"
    },
    {
      "inputs": [],
      "name": "allLootboxIds",
      "outputs": [
        {
          "internalType": "uint256[]",
          "name": "",
          "type": "uint256[]"
        }
      ],
      "stateMutability": "view",
      "type": "function"
    },
    {
      "inputs": [],
      "name": "allLootboxLastUpdates",
      "outputs": [
        {
          "internalType": "uint256[][]",
          "name": "",
          "type": "uint256[][]"
        }
      ],
      "stateMutability": "view",
      "type": "function"
    },
    {
      "inputs": [],
      "name": "allLootboxes",
      "outputs": [
        {
          "components": [
            {
              "internalType": "uint256",
              "name": "id",
              "type": "uint256"
            },
            {
              "internalType": "contract IERC1155",
              "name": "inputCollection",
              "type": "address"
            },
            {
              "internalType": "uint256[]",
              "name": "inputCollectionItemIds",
              "type": "uint256[]"
            },
            {
              "internalType": "uint256[]",
              "name": "inputCollectionItemAmounts",
              "type": "uint256[]"
            },
            {
              "internalType": "contract IERC1155",
              "name": "outputCollection",
              "type": "address"
            },
            {
              "internalType": "uint256[]",
              "name": "outputCollectionItemIds",
              "type": "uint256[]"
            },
            {
              "internalType": "uint256[]",
              "name": "outputCollectionItemAmounts",
              "type": "uint256[]"
            },
            {
              "internalType": "uint256[]",
              "name": "outputCollectionItemWeights",
              "type": "uint256[]"
            },
            {
              "internalType": "uint256",
              "name": "outputTotalItemsWeight",
              "type": "uint256"
            },
            {
              "internalType": "uint256",
              "name": "outputTotalItems",
              "type": "uint256"
            },
            {
              "internalType": "uint256",
              "name": "opens",
              "type": "uint256"
            },
            {
              "internalType": "uint256",
              "name": "lastUpdatedAt",
              "type": "uint256"
            }
          ],
          "internalType": "struct IGame_Lootbox_Manager.Lootbox[]",
          "name": "",
          "type": "tuple[]"
        }
      ],
      "stateMutability": "view",
      "type": "function"
    },
    {
      "inputs": [
        {
          "internalType": "address",
          "name": "_address",
          "type": "address"
        },
        {
          "internalType": "uint256",
          "name": "_lootboxId",
          "type": "uint256"
        }
      ],
      "name": "allOpenedLootboxes",
      "outputs": [
        {
          "components": [
            {
              "internalType": "uint256",
              "name": "lootboxId",
              "type": "uint256"
            },
            {
              "internalType": "uint256",
              "name": "claimSeedBlock",
              "type": "uint256"
            },
            {
              "internalType": "uint256[]",
              "name": "outputCollectionItemIds",
              "type": "uint256[]"
            },
            {
              "internalType": "uint256[]",
              "name": "outputCollectionItemAmounts",
              "type": "uint256[]"
            },
            {
              "internalType": "bool",
              "name": "claimed",
              "type": "bool"
            }
          ],
          "internalType": "struct IGame_Lootbox_Manager.OpenedLootbox[]",
          "name": "",
          "type": "tuple[]"
        }
      ],
      "stateMutability": "view",
      "type": "function"
    },
    {
      "inputs": [
        {
          "internalType": "uint256",
          "name": "_lootboxId",
          "type": "uint256"
        },
        {
          "internalType": "uint256",
          "name": "_openedLootboxIndex",
          "type": "uint256"
        }
      ],
      "name": "claimLootbox",
      "outputs": [],
      "stateMutability": "nonpayable",
      "type": "function"
    },
    {
      "inputs": [
        {
          "internalType": "uint256",
          "name": "_lootboxId",
          "type": "uint256"
        }
      ],
      "name": "claimLootboxes",
      "outputs": [],
      "stateMutability": "nonpayable",
      "type": "function"
    },
    {
      "inputs": [
        {
          "internalType": "bytes32",
          "name": "role",
          "type": "bytes32"
        }
      ],
      "name": "getRoleAdmin",
      "outputs": [
        {
          "internalType": "bytes32",
          "name": "",
          "type": "bytes32"
        }
      ],
      "stateMutability": "view",
      "type": "function"
    },
    {
      "inputs": [
        {
          "internalType": "bytes32",
          "name": "role",
          "type": "bytes32"
        },
        {
          "internalType": "address",
          "name": "account",
          "type": "address"
        }
      ],
      "name": "grantRole",
      "outputs": [],
      "stateMutability": "nonpayable",
      "type": "function"
    },
    {
      "inputs": [
        {
          "internalType": "bytes32",
          "name": "role",
          "type": "bytes32"
        },
        {
          "internalType": "address",
          "name": "account",
          "type": "address"
        }
      ],
      "name": "hasRole",
      "outputs": [
        {
          "internalType": "bool",
          "name": "",
          "type": "bool"
        }
      ],
      "stateMutability": "view",
      "type": "function"
    },
    {
      "inputs": [
        {
          "internalType": "address",
          "name": "forwarder",
          "type": "address"
        }
      ],
      "name": "isTrustedForwarder",
      "outputs": [
        {
          "internalType": "bool",
          "name": "",
          "type": "bool"
        }
      ],
      "stateMutability": "view",
      "type": "function"
    },
    {
      "inputs": [
        {
          "internalType": "uint256",
          "name": "_lootboxId",
          "type": "uint256"
        }
      ],
      "name": "lootbox",
      "outputs": [
        {
          "components": [
            {
              "internalType": "uint256",
              "name": "id",
              "type": "uint256"
            },
            {
              "internalType": "contract IERC1155",
              "name": "inputCollection",
              "type": "address"
            },
            {
              "internalType": "uint256[]",
              "name": "inputCollectionItemIds",
              "type": "uint256[]"
            },
            {
              "internalType": "uint256[]",
              "name": "inputCollectionItemAmounts",
              "type": "uint256[]"
            },
            {
              "internalType": "contract IERC1155",
              "name": "outputCollection",
              "type": "address"
            },
            {
              "internalType": "uint256[]",
              "name": "outputCollectionItemIds",
              "type": "uint256[]"
            },
            {
              "internalType": "uint256[]",
              "name": "outputCollectionItemAmounts",
              "type": "uint256[]"
            },
            {
              "internalType": "uint256[]",
              "name": "outputCollectionItemWeights",
              "type": "uint256[]"
            },
            {
              "internalType": "uint256",
              "name": "outputTotalItemsWeight",
              "type": "uint256"
            },
            {
              "internalType": "uint256",
              "name": "outputTotalItems",
              "type": "uint256"
            },
            {
              "internalType": "uint256",
              "name": "opens",
              "type": "uint256"
            },
            {
              "internalType": "uint256",
              "name": "lastUpdatedAt",
              "type": "uint256"
            }
          ],
          "internalType": "struct IGame_Lootbox_Manager.Lootbox",
          "name": "",
          "type": "tuple"
        }
      ],
      "stateMutability": "view",
      "type": "function"
    },
    {
      "inputs": [
        {
          "internalType": "uint256",
          "name": "_index",
          "type": "uint256"
        }
      ],
      "name": "lootboxId",
      "outputs": [
        {
          "internalType": "uint256",
          "name": "",
          "type": "uint256"
        }
      ],
      "stateMutability": "view",
      "type": "function"
    },
    {
      "inputs": [
        {
          "internalType": "uint256",
          "name": "_lootboxId",
          "type": "uint256"
        }
      ],
      "name": "lootboxLastUpdate",
      "outputs": [
        {
          "internalType": "uint256[]",
          "name": "",
          "type": "uint256[]"
        }
      ],
      "stateMutability": "view",
      "type": "function"
    },
    {
      "inputs": [
        {
          "internalType": "address",
          "name": "",
          "type": "address"
        },
        {
          "internalType": "address",
          "name": "",
          "type": "address"
        },
        {
          "internalType": "uint256[]",
          "name": "",
          "type": "uint256[]"
        },
        {
          "internalType": "uint256[]",
          "name": "",
          "type": "uint256[]"
        },
        {
          "internalType": "bytes",
          "name": "",
          "type": "bytes"
        }
      ],
      "name": "onERC1155BatchReceived",
      "outputs": [
        {
          "internalType": "bytes4",
          "name": "",
          "type": "bytes4"
        }
      ],
      "stateMutability": "nonpayable",
      "type": "function"
    },
    {
      "inputs": [
        {
          "internalType": "address",
          "name": "",
          "type": "address"
        },
        {
          "internalType": "address",
          "name": "",
          "type": "address"
        },
        {
          "internalType": "uint256",
          "name": "",
          "type": "uint256"
        },
        {
          "internalType": "uint256",
          "name": "",
          "type": "uint256"
        },
        {
          "internalType": "bytes",
          "name": "",
          "type": "bytes"
        }
      ],
      "name": "onERC1155Received",
      "outputs": [
        {
          "internalType": "bytes4",
          "name": "",
          "type": "bytes4"
        }
      ],
      "stateMutability": "nonpayable",
      "type": "function"
    },
    {
      "inputs": [
        {
          "internalType": "uint256",
          "name": "_lootboxId",
          "type": "uint256"
        }
      ],
      "name": "openLootbox",
      "outputs": [],
      "stateMutability": "nonpayable",
      "type": "function"
    },
    {
      "inputs": [
        {
          "internalType": "address",
          "name": "_address",
          "type": "address"
        },
        {
          "internalType": "uint256",
          "name": "_lootboxId",
          "type": "uint256"
        },
        {
          "internalType": "uint256",
          "name": "_openedLootboxIndex",
          "type": "uint256"
        }
      ],
      "name": "openedLootbox",
      "outputs": [
        {
          "components": [
            {
              "internalType": "uint256",
              "name": "lootboxId",
              "type": "uint256"
            },
            {
              "internalType": "uint256",
              "name": "claimSeedBlock",
              "type": "uint256"
            },
            {
              "internalType": "uint256[]",
              "name": "outputCollectionItemIds",
              "type": "uint256[]"
            },
            {
              "internalType": "uint256[]",
              "name": "outputCollectionItemAmounts",
              "type": "uint256[]"
            },
            {
              "internalType": "bool",
              "name": "claimed",
              "type": "bool"
            }
          ],
          "internalType": "struct IGame_Lootbox_Manager.OpenedLootbox",
          "name": "",
          "type": "tuple"
        }
      ],
      "stateMutability": "view",
      "type": "function"
    },
    {
      "inputs": [
        {
          "internalType": "uint256",
          "name": "_startIndexInclusive",
          "type": "uint256"
        },
        {
          "internalType": "uint256",
          "name": "_limit",
          "type": "uint256"
        }
      ],
      "name": "paginateLootboxIds",
      "outputs": [
        {
          "internalType": "uint256[]",
          "name": "",
          "type": "uint256[]"
        }
      ],
      "stateMutability": "view",
      "type": "function"
    },
    {
      "inputs": [
        {
          "internalType": "uint256",
          "name": "_startIndexInclusive",
          "type": "uint256"
        },
        {
          "internalType": "uint256",
          "name": "_limit",
          "type": "uint256"
        }
      ],
      "name": "paginateLootboxLastUpdates",
      "outputs": [
        {
          "internalType": "uint256[][]",
          "name": "",
          "type": "uint256[][]"
        }
      ],
      "stateMutability": "view",
      "type": "function"
    },
    {
      "inputs": [
        {
          "internalType": "uint256",
          "name": "_startIndexInclusive",
          "type": "uint256"
        },
        {
          "internalType": "uint256",
          "name": "_limit",
          "type": "uint256"
        }
      ],
      "name": "paginateLootboxes",
      "outputs": [
        {
          "components": [
            {
              "internalType": "uint256",
              "name": "id",
              "type": "uint256"
            },
            {
              "internalType": "contract IERC1155",
              "name": "inputCollection",
              "type": "address"
            },
            {
              "internalType": "uint256[]",
              "name": "inputCollectionItemIds",
              "type": "uint256[]"
            },
            {
              "internalType": "uint256[]",
              "name": "inputCollectionItemAmounts",
              "type": "uint256[]"
            },
            {
              "internalType": "contract IERC1155",
              "name": "outputCollection",
              "type": "address"
            },
            {
              "internalType": "uint256[]",
              "name": "outputCollectionItemIds",
              "type": "uint256[]"
            },
            {
              "internalType": "uint256[]",
              "name": "outputCollectionItemAmounts",
              "type": "uint256[]"
            },
            {
              "internalType": "uint256[]",
              "name": "outputCollectionItemWeights",
              "type": "uint256[]"
            },
            {
              "internalType": "uint256",
              "name": "outputTotalItemsWeight",
              "type": "uint256"
            },
            {
              "internalType": "uint256",
              "name": "outputTotalItems",
              "type": "uint256"
            },
            {
              "internalType": "uint256",
              "name": "opens",
              "type": "uint256"
            },
            {
              "internalType": "uint256",
              "name": "lastUpdatedAt",
              "type": "uint256"
            }
          ],
          "internalType": "struct IGame_Lootbox_Manager.Lootbox[]",
          "name": "",
          "type": "tuple[]"
        }
      ],
      "stateMutability": "view",
      "type": "function"
    },
    {
      "inputs": [
        {
          "internalType": "address",
          "name": "_address",
          "type": "address"
        },
        {
          "internalType": "uint256",
          "name": "_lootboxId",
          "type": "uint256"
        },
        {
          "internalType": "uint256",
          "name": "_startIndexInclusive",
          "type": "uint256"
        },
        {
          "internalType": "uint256",
          "name": "_limit",
          "type": "uint256"
        }
      ],
      "name": "paginateOpenedLootboxes",
      "outputs": [
        {
          "components": [
            {
              "internalType": "uint256",
              "name": "lootboxId",
              "type": "uint256"
            },
            {
              "internalType": "uint256",
              "name": "claimSeedBlock",
              "type": "uint256"
            },
            {
              "internalType": "uint256[]",
              "name": "outputCollectionItemIds",
              "type": "uint256[]"
            },
            {
              "internalType": "uint256[]",
              "name": "outputCollectionItemAmounts",
              "type": "uint256[]"
            },
            {
              "internalType": "bool",
              "name": "claimed",
              "type": "bool"
            }
          ],
          "internalType": "struct IGame_Lootbox_Manager.OpenedLootbox[]",
          "name": "",
          "type": "tuple[]"
        }
      ],
      "stateMutability": "view",
      "type": "function"
    },
    {
      "inputs": [
        {
          "internalType": "uint256",
          "name": "_lootboxId",
          "type": "uint256"
        }
      ],
      "name": "removeLootbox",
      "outputs": [],
      "stateMutability": "nonpayable",
      "type": "function"
    },
    {
      "inputs": [
        {
          "internalType": "bytes32",
          "name": "role",
          "type": "bytes32"
        },
        {
          "internalType": "address",
          "name": "account",
          "type": "address"
        }
      ],
      "name": "renounceRole",
      "outputs": [],
      "stateMutability": "nonpayable",
      "type": "function"
    },
    {
      "inputs": [
        {
          "internalType": "bytes32",
          "name": "role",
          "type": "bytes32"
        },
        {
          "internalType": "address",
          "name": "account",
          "type": "address"
        }
      ],
      "name": "revokeRole",
      "outputs": [],
      "stateMutability": "nonpayable",
      "type": "function"
    },
    {
      "inputs": [
        {
          "internalType": "uint256",
          "name": "_offset",
          "type": "uint256"
        }
      ],
      "name": "setClaimableBlockOffset",
      "outputs": [],
      "stateMutability": "nonpayable",
      "type": "function"
    },
    {
      "inputs": [
        {
          "internalType": "uint256",
          "name": "_lootboxId",
          "type": "uint256"
        },
        {
          "internalType": "address[2]",
          "name": "_inputOutputCollections",
          "type": "address[2]"
        },
        {
          "internalType": "uint256[][2]",
          "name": "_inputOutputCollectionItemIds",
          "type": "uint256[][2]"
        },
        {
          "internalType": "uint256[][2]",
          "name": "_inputOutputCollectionItemAmounts",
          "type": "uint256[][2]"
        },
        {
          "internalType": "uint256[]",
          "name": "_outputCollectionItemWeights",
          "type": "uint256[]"
        },
        {
          "internalType": "uint256",
          "name": "_outputTotalItems",
          "type": "uint256"
        }
      ],
      "name": "setLootbox",
      "outputs": [],
      "stateMutability": "nonpayable",
      "type": "function"
    },
    {
      "inputs": [
        {
          "internalType": "bytes4",
          "name": "interfaceId",
          "type": "bytes4"
        }
      ],
      "name": "supportsInterface",
      "outputs": [
        {
          "internalType": "bool",
          "name": "",
          "type": "bool"
        }
      ],
      "stateMutability": "view",
      "type": "function"
    },
    {
      "inputs": [],
      "name": "systemId",
      "outputs": [
        {
          "internalType": "bytes32",
          "name": "",
          "type": "bytes32"
        }
      ],
      "stateMutability": "view",
      "type": "function"
    },
    {
      "inputs": [
        {
          "internalType": "address",
          "name": "_address",
          "type": "address"
        },
        {
          "internalType": "uint256",
          "name": "_lootboxId",
          "type": "uint256"
        }
      ],
      "name": "totalClaimableLootboxes",
      "outputs": [
        {
          "internalType": "uint256",
          "name": "",
          "type": "uint256"
        }
      ],
      "stateMutability": "view",
      "type": "function"
    },
    {
      "inputs": [],
      "name": "totalLootboxes",
      "outputs": [
        {
          "internalType": "uint256",
          "name": "",
          "type": "uint256"
        }
      ],
      "stateMutability": "view",
      "type": "function"
    },
    {
      "inputs": [
        {
          "internalType": "address",
          "name": "_address",
          "type": "address"
        },
        {
          "internalType": "uint256",
          "name": "_lootboxId",
          "type": "uint256"
        }
      ],
      "name": "totalOpenedLootboxes",
      "outputs": [
        {
          "internalType": "uint256",
          "name": "",
          "type": "uint256"
        }
      ],
      "stateMutability": "view",
      "type": "function"
    },
    {
      "inputs": [
        {
          "internalType": "address",
          "name": "_newTrustedForwarder",
          "type": "address"
        }
      ],
      "name": "upgradeTrustedForwarder",
      "outputs": [],
      "stateMutability": "nonpayable",
      "type": "function"
    }
  ],
  "bytecode": "0x608060405260016008553480156200001657600080fd5b50604051620049b4380380620049b48339810160408190526200003991620001b4565b600080546001600160a01b0319166001600160a01b038416178155600182815560035562000071906200006b620000a8565b620000c4565b620000a07fc9fc9949603a50f5cc3a96f774f1d68287789a241d2082dc81d0fb19a53bcf2b6200006b620000a8565b5050620001f0565b6000620000bf620000d460201b620029fd1760201c565b905090565b620000d082826200010a565b5050565b600080546001600160a01b03163303620000f5575060131936013560601c90565b620000bf620001b060201b62002a4d1760201c565b60008281526002602090815260408083206001600160a01b038516845290915290205460ff16620000d05760008281526002602090815260408083206001600160a01b03851684529091529020805460ff191660011790556200016c620000a8565b6001600160a01b0316816001600160a01b0316837f2f8788117e7eff1d82e926ec794901d17c78024a50270940304540a733656f0d60405160405180910390a45050565b3390565b60008060408385031215620001c857600080fd5b82516001600160a01b0381168114620001e057600080fd5b6020939093015192949293505050565b6147b480620002006000396000f3fe608060405234801561001057600080fd5b506004361061020b5760003560e01c8063826410fc1161012a578063af90a2b7116100bd578063e1394b901161008c578063ea61401a11610071578063ea61401a14610540578063f23a6e6114610548578063fbf3040d1461058057600080fd5b8063e1394b901461051a578063e8c683fd1461052d57600080fd5b8063af90a2b714610483578063bc197c8114610496578063d547741f146104ff578063de0ef5e41461051257600080fd5b806394cba64e116100f957806394cba64e14610435578063a217fddf14610455578063aa2a7eea1461045d578063abb5d9421461047057600080fd5b8063826410fc146103b45780638404adc1146103bc57806391d14854146103cf57806392e115001461041557600080fd5b806339f898bc116101a25780637f1d0ad2116101715780637f1d0ad2146103665780637f416510146103865780637ff481901461038e5780637ffb5c65146103a157600080fd5b806339f898bc146102fb578063572b6c05146103045780635ec2d0221461033357806360234af91461034657600080fd5b80630e1d1da7116101de5780630e1d1da714610284578063248a9ca3146102a45780632f2ff15d146102d557806336568abe146102e857600080fd5b806301bab1681461021057806301ffc9a714610239578063021b06471461025c57806307af411714610271575b600080fd5b61022361021e3660046138b7565b6105c3565b6040516102309190613914565b60405180910390f35b61024c610247366004613994565b6106b9565b6040519015158152602001610230565b61026f61026a3660046139d6565b61075b565b005b61026f61027f3660046139d6565b6107fa565b6102976102923660046139d6565b610885565b60405161023091906139ef565b6102c76102b23660046139d6565b60009081526002602052604090206001015490565b604051908152602001610230565b61026f6102e3366004613a2b565b610905565b61026f6102f6366004613a2b565b61092f565b6102c760015481565b61024c610312366004613a57565b60005473ffffffffffffffffffffffffffffffffffffffff91821691161490565b6102976103413660046138b7565b6109ff565b6103596103543660046138b7565b610ad3565b6040516102309190613b82565b610379610374366004613bf5565b610e7b565b6040516102309190613c7a565b610223610fdc565b61026f61039c3660046139d6565b61108c565b61026f6103af3660046138b7565b6114ff565b6102c7611585565b61026f6103ca366004613cfe565b611596565b61024c6103dd366004613a2b565b600091825260026020908152604080842073ffffffffffffffffffffffffffffffffffffffff93909316845291905290205460ff1690565b6104286104233660046139d6565b611b98565b6040516102309190613de2565b610448610443366004613df5565b611efd565b6040516102309190613e28565b6102c7600081565b61026f61046b366004613a57565b612128565b6102c761047e366004613bf5565b612196565b610379610491366004613e3b565b61226c565b6104ce6104a4366004614000565b7fbc197c810000000000000000000000000000000000000000000000000000000095945050505050565b6040517fffffffff000000000000000000000000000000000000000000000000000000009091168152602001610230565b61026f61050d366004613a2b565b612504565b610359612529565b61026f6105283660046139d6565b612899565b6102c761053b3660046139d6565b612972565b6102976129f1565b6104ce6105563660046140aa565b7ff23a6e610000000000000000000000000000000000000000000000000000000095945050505050565b6102c761058e366004613bf5565b73ffffffffffffffffffffffffffffffffffffffff919091166000908152600760209081526040808320938352929052205490565b606060006105d16004612a51565b84106105de5760006105f3565b836105e96004612a51565b6105f3919061413e565b90506000838211156106055783610607565b815b905060008167ffffffffffffffff81111561062457610624613e74565b60405190808252806020026020018201604052801561065757816020015b60608152602001906001900390816106425790505b50905060005b828110156106ad5761067d610292610675838a614151565b600490612a5b565b82828151811061068f5761068f614164565b602002602001018190525080806106a590614193565b91505061065d565b50925050505b92915050565b60007fffffffff0000000000000000000000000000000000000000000000000000000082167ff6adcf6b00000000000000000000000000000000000000000000000000000000148061074c57507fffffffff0000000000000000000000000000000000000000000000000000000082167f4e2312e000000000000000000000000000000000000000000000000000000000145b806106b357506106b382612a6e565b7fc9fc9949603a50f5cc3a96f774f1d68287789a241d2082dc81d0fb19a53bcf2b61078581612ac4565b600082116107f4576040517f08c379a000000000000000000000000000000000000000000000000000000000815260206004820152601260248201527f4f66667365742063616e6e6f742062652030000000000000000000000000000060448201526064015b60405180910390fd5b50600855565b7fc9fc9949603a50f5cc3a96f774f1d68287789a241d2082dc81d0fb19a53bcf2b61082481612ac4565b61082f600483612ad8565b5060008281526006602052604090819020905183907f0864136c4ebca2d8889222bc6e0378756c87aa96dbac4e5645772cf08d4112ee9061087190849061432a565b60405180910390a26000600a909101555050565b6040805160028082526060808301845292600092919060208301908036833701905050905082816000815181106108be576108be614164565b60200260200101818152505060066000848152602001908152602001600020600b0154816001815181106108f4576108f4614164565b602090810291909101015292915050565b60008281526002602052604090206001015461092081612ac4565b61092a8383612ae4565b505050565b610937612bd9565b73ffffffffffffffffffffffffffffffffffffffff168173ffffffffffffffffffffffffffffffffffffffff16146109f1576040517f08c379a000000000000000000000000000000000000000000000000000000000815260206004820152602f60248201527f416363657373436f6e74726f6c3a2063616e206f6e6c792072656e6f756e636560448201527f20726f6c657320666f722073656c66000000000000000000000000000000000060648201526084016107eb565b6109fb8282612be3565b5050565b60606000610a0d6004612a51565b8410610a1a576000610a2f565b83610a256004612a51565b610a2f919061413e565b9050600083821115610a415783610a43565b815b905060008167ffffffffffffffff811115610a6057610a60613e74565b604051908082528060200260200182016040528015610a89578160200160208202803683370190505b50905060005b828110156106ad57610aa46106758289614151565b828281518110610ab657610ab6614164565b602090810291909101015280610acb81614193565b915050610a8f565b60606000610ae16004612a51565b8410610aee576000610b03565b83610af96004612a51565b610b03919061413e565b9050600083821115610b155783610b17565b815b905060008167ffffffffffffffff811115610b3457610b34613e74565b604051908082528060200260200182016040528015610bf557816020015b610be260405180610180016040528060008152602001600073ffffffffffffffffffffffffffffffffffffffff1681526020016060815260200160608152602001600073ffffffffffffffffffffffffffffffffffffffff168152602001606081526020016060815260200160608152602001600081526020016000815260200160008152602001600081525090565b815260200190600190039081610b525790505b50905060005b828110156106ad5760066000610c14610675848b614151565b8152602080820192909252604090810160002081516101808101835281548152600182015473ffffffffffffffffffffffffffffffffffffffff1681850152600282018054845181870281018701865281815292959394860193830182828015610c9d57602002820191906000526020600020905b815481526020019060010190808311610c89575b5050505050815260200160038201805480602002602001604051908101604052809291908181526020018280548015610cf557602002820191906000526020600020905b815481526020019060010190808311610ce1575b5050509183525050600482015473ffffffffffffffffffffffffffffffffffffffff166020808301919091526005830180546040805182850281018501825282815294019392830182828015610d6a57602002820191906000526020600020905b815481526020019060010190808311610d56575b5050505050815260200160068201805480602002602001604051908101604052809291908181526020018280548015610dc257602002820191906000526020600020905b815481526020019060010190808311610dae575b5050505050815260200160078201805480602002602001604051908101604052809291908181526020018280548015610e1a57602002820191906000526020600020905b815481526020019060010190808311610e06575b505050505081526020016008820154815260200160098201548152602001600a8201548152602001600b82015481525050828281518110610e5d57610e5d614164565b60200260200101819052508080610e7390614193565b915050610bfb565b73ffffffffffffffffffffffffffffffffffffffff821660009081526007602090815260408083208484528252808320805482518185028101850190935280835260609492939192909184015b82821015610fd057838290600052602060002090600502016040518060a0016040529081600082015481526020016001820154815260200160028201805480602002602001604051908101604052809291908181526020018280548015610f4e57602002820191906000526020600020905b815481526020019060010190808311610f3a575b5050505050815260200160038201805480602002602001604051908101604052809291908181526020018280548015610fa657602002820191906000526020600020905b815481526020019060010190808311610f92575b50505091835250506004919091015460ff1615156020918201529082526001929092019101610ec8565b50505050905092915050565b60606000610fe8611585565b67ffffffffffffffff81111561100057611000613e74565b60405190808252806020026020018201604052801561103357816020015b606081526020019060019003908161101e5790505b50905060005b611041611585565b81101561108657611056610292600483612a5b565b82828151811061106857611068614164565b6020026020010181905250808061107e90614193565b915050611039565b50919050565b6002600354036110f8576040517f08c379a000000000000000000000000000000000000000000000000000000000815260206004820152601f60248201527f5265656e7472616e637947756172643a207265656e7472616e742063616c6c0060448201526064016107eb565b6002600355611108600482612cd6565b611194576040517f08c379a000000000000000000000000000000000000000000000000000000000815260206004820152602d60248201527f6c6f6f74626f78496420646f6573206e6f74206578697374206f72206861732060448201527f6265656e2072656d6f7665642e0000000000000000000000000000000000000060648201526084016107eb565b6000818152600660205260409020600181015473ffffffffffffffffffffffffffffffffffffffff16156113835760018101546040517f01ffc9a70000000000000000000000000000000000000000000000000000000081527f909aa65d00000000000000000000000000000000000000000000000000000000600482015273ffffffffffffffffffffffffffffffffffffffff909116906301ffc9a790602401602060405180830381865afa158015611252573d6000803e3d6000fd5b505050506040513d601f19601f82011682018060405250810190611276919061433d565b1561130057600181015473ffffffffffffffffffffffffffffffffffffffff16634b7c78dc6112a3612bd9565b83600201846003016040518463ffffffff1660e01b81526004016112c99392919061435f565b600060405180830381600087803b1580156112e357600080fd5b505af11580156112f7573d6000803e3d6000fd5b50505050611383565b600181015473ffffffffffffffffffffffffffffffffffffffff16632eb2c2d6611328612bd9565b3084600201856003016040518563ffffffff1660e01b815260040161135094939291906143aa565b600060405180830381600087803b15801561136a57600080fd5b505af115801561137e573d6000803e3d6000fd5b505050505b6113b76040518060a00160405280600081526020016000815260200160608152602001606081526020016000151581525090565b8281526008546113c79043614151565b6020820152600760006113d8612bd9565b73ffffffffffffffffffffffffffffffffffffffff16815260208082019290925260409081016000908120868252835281812080546001818101835591835291849020855160059093020191825584840151908201559083015180518493611447926002850192910190613857565b5060608201518051611463916003840191602090910190613857565b5060809190910151600490910180547fffffffffffffffffffffffffffffffffffffffffffffffffffffffffffffff0016911515919091179055600a820180549060006114af83614193565b9190505550827fcbe236ccb8bf2ae258fd54e73752d614c82aa6293d5256658cc3ce58dc4d4bf0836114df612bd9565b6040516114ed929190614412565b60405180910390a25050600160035550565b60026003540361156b576040517f08c379a000000000000000000000000000000000000000000000000000000000815260206004820152601f60248201527f5265656e7472616e637947756172643a207265656e7472616e742063616c6c0060448201526064016107eb565b600260035561157c82826001612cee565b50506001600355565b60006115916004612a51565b905090565b7fc9fc9949603a50f5cc3a96f774f1d68287789a241d2082dc81d0fb19a53bcf2b6115c081612ac4565b6115ca858061444a565b90506115d6878061444a565b905014611665576040517f08c379a000000000000000000000000000000000000000000000000000000000815260206004820152602d60248201527f4d69736d61746368656420696e707574206974656d2069647320616e6420616d60448201527f6f756e74206c656e677468732e0000000000000000000000000000000000000060648201526084016107eb565b611672602086018661444a565b9050611681602088018861444a565b905014611710576040517f08c379a000000000000000000000000000000000000000000000000000000000815260206004820152602d60248201527f4d69736d617463686564206f7574707574206974656d2069647320616e64206160448201527f6d6f756e74206c656e6774682e0000000000000000000000000000000000000060648201526084016107eb565b8261171e602088018861444a565b9050146117ad576040517f08c379a000000000000000000000000000000000000000000000000000000000815260206004820152603160248201527f4d69736d61746368206f7574707574206974656d2069647320616e642069746560448201527f6d2077656967687473206c656e6774682e00000000000000000000000000000060648201526084016107eb565b6000805b848110156117f1578585828181106117cb576117cb614164565b90506020020135826117dd9190614151565b9150806117e981614193565b9150506117b1565b5060006040518061018001604052808b81526020018a60006002811061181957611819614164565b60200201602081019061182c9190613a57565b73ffffffffffffffffffffffffffffffffffffffff1681526020016118518a8061444a565b80806020026020016040519081016040528093929190818152602001838360200280828437600092019190915250505090825250602001611892898061444a565b808060200260200160405190810160405280939291908181526020018383602002808284376000920191909152505050908252506020908101906118dc9060408d01908d01613a57565b73ffffffffffffffffffffffffffffffffffffffff168152602090810190611906908b018b61444a565b8080602002602001604051908101604052809392919081815260200183836020028082843760009201919091525050509082525060209081019061194c908a018a61444a565b8080602002602001604051908101604052809392919081815260200183836020028082843760009201919091525050509082525060408051602089810282810182019093528982529283019290918a918a9182918501908490808284376000920182905250938552505050602080830186905260408084018990528e835260069091529020600a015460608201524260809091015290506119ee60048b6132ca565b5060008a81526006602090815260409182902083518155838201516001820180547fffffffffffffffffffffffff00000000000000000000000000000000000000001673ffffffffffffffffffffffffffffffffffffffff909216919091179055918301518051849392611a69926002850192910190613857565b5060608201518051611a85916003840191602090910190613857565b5060808201516004820180547fffffffffffffffffffffffff00000000000000000000000000000000000000001673ffffffffffffffffffffffffffffffffffffffff90921691909117905560a08201518051611aec916005840191602090910190613857565b5060c08201518051611b08916006840191602090910190613857565b5060e08201518051611b24916007840191602090910190613857565b506101008201518160080155610120820151816009015561014082015181600a015561016082015181600b0155905050897fb2e547eb18679a18ee72bf11d33344b9a6a24f4afecf77e5ff1833294b4b0ab982604051611b849190613de2565b60405180910390a250505050505050505050565b611c2860405180610180016040528060008152602001600073ffffffffffffffffffffffffffffffffffffffff1681526020016060815260200160608152602001600073ffffffffffffffffffffffffffffffffffffffff168152602001606081526020016060815260200160608152602001600081526020016000815260200160008152602001600081525090565b611c33600483612cd6565b611cbf576040517f08c379a000000000000000000000000000000000000000000000000000000000815260206004820152602d60248201527f6c6f6f74626f78496420646f6573206e6f74206578697374206f72206861732060448201527f6265656e2072656d6f7665642e0000000000000000000000000000000000000060648201526084016107eb565b60008281526006602090815260409182902082516101808101845281548152600182015473ffffffffffffffffffffffffffffffffffffffff168184015260028201805485518186028101860187528181529295939493860193830182828015611d4857602002820191906000526020600020905b815481526020019060010190808311611d34575b5050505050815260200160038201805480602002602001604051908101604052809291908181526020018280548015611da057602002820191906000526020600020905b815481526020019060010190808311611d8c575b5050509183525050600482015473ffffffffffffffffffffffffffffffffffffffff166020808301919091526005830180546040805182850281018501825282815294019392830182828015611e1557602002820191906000526020600020905b815481526020019060010190808311611e01575b5050505050815260200160068201805480602002602001604051908101604052809291908181526020018280548015611e6d57602002820191906000526020600020905b815481526020019060010190808311611e59575b5050505050815260200160078201805480602002602001604051908101604052809291908181526020018280548015611ec557602002820191906000526020600020905b815481526020019060010190808311611eb1575b505050505081526020016008820154815260200160098201548152602001600a8201548152602001600b820154815250509050919050565b611f316040518060a00160405280600081526020016000815260200160608152602001606081526020016000151581525090565b73ffffffffffffffffffffffffffffffffffffffff841660009081526007602090815260408083208684529091529020548210611ff0576040517f08c379a000000000000000000000000000000000000000000000000000000000815260206004820152602360248201527f6f70656e65644c6f6f74626f78496e64657820646f6573206e6f74206578697360448201527f74732e000000000000000000000000000000000000000000000000000000000060648201526084016107eb565b73ffffffffffffffffffffffffffffffffffffffff84166000908152600760209081526040808320868452909152902080548390811061203257612032614164565b90600052602060002090600502016040518060a00160405290816000820154815260200160018201548152602001600282018054806020026020016040519081016040528092919081815260200182805480156120ae57602002820191906000526020600020905b81548152602001906001019080831161209a575b505050505081526020016003820180548060200260200160405190810160405280929190818152602001828054801561210657602002820191906000526020600020905b8154815260200190600101908083116120f2575b50505091835250506004919091015460ff161515602090910152949350505050565b7fc9fc9949603a50f5cc3a96f774f1d68287789a241d2082dc81d0fb19a53bcf2b61215281612ac4565b600080547fffffffffffffffffffffffff00000000000000000000000000000000000000001673ffffffffffffffffffffffffffffffffffffffff84161790555050565b600080805b73ffffffffffffffffffffffffffffffffffffffff851660009081526007602090815260408083208784529091529020548110156122645773ffffffffffffffffffffffffffffffffffffffff85166000908152600760209081526040808320878452909152812080548390811061221557612215614164565b906000526020600020906005020190508060010154431015801561223e5750600481015460ff16155b15612251578261224d81614193565b9350505b508061225c81614193565b91505061219b565b509392505050565b73ffffffffffffffffffffffffffffffffffffffff841660009081526007602090815260408083208684529091528120546060919084106122ae5760006122ea565b73ffffffffffffffffffffffffffffffffffffffff861660009081526007602090815260408083208884529091529020546122ea90859061413e565b90506000838211156122fc57836122fe565b815b905060008167ffffffffffffffff81111561231b5761231b613e74565b60405190808252806020026020018201604052801561238057816020015b61236d6040518060a00160405280600081526020016000815260200160608152602001606081526020016000151581525090565b8152602001906001900390816123395790505b50905060005b828110156124f85773ffffffffffffffffffffffffffffffffffffffff891660009081526007602090815260408083208b845290915290206123c88289614151565b815481106123d8576123d8614164565b90600052602060002090600502016040518060a001604052908160008201548152602001600182015481526020016002820180548060200260200160405190810160405280929190818152602001828054801561245457602002820191906000526020600020905b815481526020019060010190808311612440575b50505050508152602001600382018054806020026020016040519081016040528092919081815260200182805480156124ac57602002820191906000526020600020905b815481526020019060010190808311612498575b50505091835250506004919091015460ff16151560209091015282518390839081106124da576124da614164565b602002602001018190525080806124f090614193565b915050612386565b50979650505050505050565b60008281526002602052604090206001015461251f81612ac4565b61092a8383612be3565b60606000612535611585565b67ffffffffffffffff81111561254d5761254d613e74565b60405190808252806020026020018201604052801561260e57816020015b6125fb60405180610180016040528060008152602001600073ffffffffffffffffffffffffffffffffffffffff1681526020016060815260200160608152602001600073ffffffffffffffffffffffffffffffffffffffff168152602001606081526020016060815260200160608152602001600081526020016000815260200160008152602001600081525090565b81526020019060019003908161256b5790505b50905060005b61261c611585565b8110156110865760066000612632600484612a5b565b8152602080820192909252604090810160002081516101808101835281548152600182015473ffffffffffffffffffffffffffffffffffffffff16818501526002820180548451818702810187018652818152929593948601938301828280156126bb57602002820191906000526020600020905b8154815260200190600101908083116126a7575b505050505081526020016003820180548060200260200160405190810160405280929190818152602001828054801561271357602002820191906000526020600020905b8154815260200190600101908083116126ff575b5050509183525050600482015473ffffffffffffffffffffffffffffffffffffffff16602080830191909152600583018054604080518285028101850182528281529401939283018282801561278857602002820191906000526020600020905b815481526020019060010190808311612774575b50505050508152602001600682018054806020026020016040519081016040528092919081815260200182805480156127e057602002820191906000526020600020905b8154815260200190600101908083116127cc575b505050505081526020016007820180548060200260200160405190810160405280929190818152602001828054801561283857602002820191906000526020600020905b815481526020019060010190808311612824575b505050505081526020016008820154815260200160098201548152602001600a8201548152602001600b8201548152505082828151811061287b5761287b614164565b6020026020010181905250808061289190614193565b915050612614565b600260035403612905576040517f08c379a000000000000000000000000000000000000000000000000000000000815260206004820152601f60248201527f5265656e7472616e637947756172643a207265656e7472616e742063616c6c0060448201526064016107eb565b600260035560005b60076000612919612bd9565b73ffffffffffffffffffffffffffffffffffffffff1681526020808201929092526040908101600090812085825290925290205481101561157c5761296082826000612cee565b8061296a81614193565b91505061290d565b600061297e6004612a51565b82106129e6576040517f08c379a000000000000000000000000000000000000000000000000000000000815260206004820152601360248201527f496e646578206f7574206f6620626f756e64730000000000000000000000000060448201526064016107eb565b6106b3600483612a5b565b606061159160046132d6565b6000805473ffffffffffffffffffffffffffffffffffffffff163303612a4857507fffffffffffffffffffffffffffffffffffffffffffffffffffffffffffffffec36013560601c90565b503390565b3390565b60006106b3825490565b6000612a6783836132e3565b9392505050565b60007fffffffff0000000000000000000000000000000000000000000000000000000082167f7965db0b0000000000000000000000000000000000000000000000000000000014806106b357506106b38261330d565b612ad581612ad0612bd9565b6133a4565b50565b6000612a678383613476565b600082815260026020908152604080832073ffffffffffffffffffffffffffffffffffffffff8516845290915290205460ff166109fb57600082815260026020908152604080832073ffffffffffffffffffffffffffffffffffffffff85168452909152902080547fffffffffffffffffffffffffffffffffffffffffffffffffffffffffffffff00166001179055612b7b612bd9565b73ffffffffffffffffffffffffffffffffffffffff168173ffffffffffffffffffffffffffffffffffffffff16837f2f8788117e7eff1d82e926ec794901d17c78024a50270940304540a733656f0d60405160405180910390a45050565b60006115916129fd565b600082815260026020908152604080832073ffffffffffffffffffffffffffffffffffffffff8516845290915290205460ff16156109fb57600082815260026020908152604080832073ffffffffffffffffffffffffffffffffffffffff85168452909152902080547fffffffffffffffffffffffffffffffffffffffffffffffffffffffffffffff00169055612c78612bd9565b73ffffffffffffffffffffffffffffffffffffffff168173ffffffffffffffffffffffffffffffffffffffff16837ff6391f5c32d9c69d2a47ea670b442974b53935d1edc7fd64eb21e047a839171b60405160405180910390a45050565b60008181526001830160205260408120541515612a67565b600060076000612cfc612bd9565b73ffffffffffffffffffffffffffffffffffffffff1673ffffffffffffffffffffffffffffffffffffffff16815260200190815260200160002060008581526020019081526020016000208381548110612d5857612d58614164565b9060005260206000209060050201905060006006600086815260200190815260200160002090508160010154431080612d955750600482015460ff165b15612e31578215612e2a57604080517f08c379a00000000000000000000000000000000000000000000000000000000081526020600482015260248101919091527f4c6f6f74626f7820756e636c61696d61626c652e20436c61696d20626c6f636b60448201527f206e6f742072656163686564206f7220616c726561647920636c61696d65642e60648201526084016107eb565b5050505050565b6000816009015467ffffffffffffffff811115612e5057612e50613e74565b604051908082528060200260200182016040528015612e79578160200160208202803683370190505b5090506000826009015467ffffffffffffffff811115612e9b57612e9b613e74565b604051908082528060200260200182016040528015612ec4578160200160208202803683370190505b50905060005b836009015481101561306457600060018660010154612ee9919061413e565b40612ef2612bd9565b8984604051602001612f42949392919093845260609290921b7fffffffffffffffffffffffffffffffffffffffff0000000000000000000000001660208401526034830152605482015260740190565b6040516020818303038152906040528051906020012060001c90506000856008015482612f6f91906144b9565b905060005b600787015481101561304e576000876007018281548110612f9757612f97614164565b906000526020600020015490508281111561302e57876005018281548110612fc157612fc1614164565b9060005260206000200154878681518110612fde57612fde614164565b602002602001018181525050876006018281548110612fff57612fff614164565b906000526020600020015486868151811061301c5761301c614164565b6020026020010181815250505061304e565b613038818461413e565b925050808061304690614193565b915050612f74565b505050808061305c90614193565b915050612eca565b506004838101546040517f91d148540000000000000000000000000000000000000000000000000000000081527fc9eb32e43bf5ecbceacf00b32281dfc5d6d700a0db676ea26ccf938a385ac3f79281019290925230602483015273ffffffffffffffffffffffffffffffffffffffff16906391d1485490604401602060405180830381865afa1580156130fc573d6000803e3d6000fd5b505050506040513d601f19601f82011682018060405250810190613120919061433d565b156131a457600483015473ffffffffffffffffffffffffffffffffffffffff166308f427c761314d612bd9565b84846040518463ffffffff1660e01b815260040161316d939291906144f4565b600060405180830381600087803b15801561318757600080fd5b505af115801561319b573d6000803e3d6000fd5b50505050613221565b600483015473ffffffffffffffffffffffffffffffffffffffff16632eb2c2d6306131cd612bd9565b85856040518563ffffffff1660e01b81526004016131ee9493929190614535565b600060405180830381600087803b15801561320857600080fd5b505af115801561321c573d6000803e3d6000fd5b505050505b81516132369060028601906020850190613857565b50805161324c9060038601906020840190613857565b506004840180547fffffffffffffffffffffffffffffffffffffffffffffffffffffffffffffff00166001179055867fa90466a1141d4242085b5ac5c6634a366ec37ad66c953e191b51c3441e56010e846132a5612bd9565b8986866040516132b9959493929190614580565b60405180910390a250505050505050565b6000612a678383613569565b60606000612a67836135b8565b60008260000182815481106132fa576132fa614164565b9060005260206000200154905092915050565b60007fffffffff0000000000000000000000000000000000000000000000000000000082167f4e2312e00000000000000000000000000000000000000000000000000000000014806106b357507f01ffc9a7000000000000000000000000000000000000000000000000000000007fffffffff000000000000000000000000000000000000000000000000000000008316146106b3565b600082815260026020908152604080832073ffffffffffffffffffffffffffffffffffffffff8516845290915290205460ff166109fb576133fc8173ffffffffffffffffffffffffffffffffffffffff166014613614565b613407836020613614565b60405160200161341892919061460b565b604080517fffffffffffffffffffffffffffffffffffffffffffffffffffffffffffffffe0818403018152908290527f08c379a00000000000000000000000000000000000000000000000000000000082526107eb9160040161468c565b6000818152600183016020526040812054801561355f57600061349a60018361413e565b85549091506000906134ae9060019061413e565b90508181146135135760008660000182815481106134ce576134ce614164565b90600052602060002001549050808760000184815481106134f1576134f1614164565b6000918252602080832090910192909255918252600188019052604090208390555b8554869080613524576135246146dd565b6001900381819060005260206000200160009055905585600101600086815260200190815260200160002060009055600193505050506106b3565b60009150506106b3565b60008181526001830160205260408120546135b0575081546001818101845560008481526020808220909301849055845484825282860190935260409020919091556106b3565b5060006106b3565b60608160000180548060200260200160405190810160405280929190818152602001828054801561360857602002820191906000526020600020905b8154815260200190600101908083116135f4575b50505050509050919050565b6060600061362383600261470c565b61362e906002614151565b67ffffffffffffffff81111561364657613646613e74565b6040519080825280601f01601f191660200182016040528015613670576020820181803683370190505b5090507f3000000000000000000000000000000000000000000000000000000000000000816000815181106136a7576136a7614164565b60200101907effffffffffffffffffffffffffffffffffffffffffffffffffffffffffffff1916908160001a9053507f78000000000000000000000000000000000000000000000000000000000000008160018151811061370a5761370a614164565b60200101907effffffffffffffffffffffffffffffffffffffffffffffffffffffffffffff1916908160001a905350600061374684600261470c565b613751906001614151565b90505b60018111156137ee577f303132333435363738396162636465660000000000000000000000000000000085600f166010811061379257613792614164565b1a60f81b8282815181106137a8576137a8614164565b60200101907effffffffffffffffffffffffffffffffffffffffffffffffffffffffffffff1916908160001a90535060049490941c936137e781614749565b9050613754565b508315612a67576040517f08c379a000000000000000000000000000000000000000000000000000000000815260206004820181905260248201527f537472696e67733a20686578206c656e67746820696e73756666696369656e7460448201526064016107eb565b828054828255906000526020600020908101928215613892579160200282015b82811115613892578251825591602001919060010190613877565b5061389e9291506138a2565b5090565b5b8082111561389e57600081556001016138a3565b600080604083850312156138ca57600080fd5b50508035926020909101359150565b600081518084526020808501945080840160005b83811015613909578151875295820195908201906001016138ed565b509495945050505050565b6000602080830181845280855180835260408601915060408160051b870101925083870160005b82811015613987577fffffffffffffffffffffffffffffffffffffffffffffffffffffffffffffffc08886030184526139758583516138d9565b9450928501929085019060010161393b565b5092979650505050505050565b6000602082840312156139a657600080fd5b81357fffffffff0000000000000000000000000000000000000000000000000000000081168114612a6757600080fd5b6000602082840312156139e857600080fd5b5035919050565b602081526000612a6760208301846138d9565b803573ffffffffffffffffffffffffffffffffffffffff81168114613a2657600080fd5b919050565b60008060408385031215613a3e57600080fd5b82359150613a4e60208401613a02565b90509250929050565b600060208284031215613a6957600080fd5b612a6782613a02565b6000610180825184526020830151613aa2602086018273ffffffffffffffffffffffffffffffffffffffff169052565b506040830151816040860152613aba828601826138d9565b91505060608301518482036060860152613ad482826138d9565b9150506080830151613afe608086018273ffffffffffffffffffffffffffffffffffffffff169052565b5060a083015184820360a0860152613b1682826138d9565b91505060c083015184820360c0860152613b3082826138d9565b91505060e083015184820360e0860152613b4a82826138d9565b610100858101519087015261012080860151908701526101408086015190870152610160948501519490950193909352509192915050565b6000602080830181845280855180835260408601915060408160051b870101925083870160005b82811015613987577fffffffffffffffffffffffffffffffffffffffffffffffffffffffffffffffc0888603018452613be3858351613a72565b94509285019290850190600101613ba9565b60008060408385031215613c0857600080fd5b613c1183613a02565b946020939093013593505050565b80518252602081015160208301526000604082015160a06040850152613c4860a08501826138d9565b905060608301518482036060860152613c6182826138d9565b9150506080830151151560808501528091505092915050565b6000602080830181845280855180835260408601915060408160051b870101925083870160005b82811015613987577fffffffffffffffffffffffffffffffffffffffffffffffffffffffffffffffc0888603018452613cdb858351613c1f565b94509285019290850190600101613ca1565b80604081018310156106b357600080fd5b600080600080600080600060e0888a031215613d1957600080fd5b87359650613d2a8960208a01613ced565b9550606088013567ffffffffffffffff80821115613d4757600080fd5b613d538b838c01613ced565b965060808a0135915080821115613d6957600080fd5b613d758b838c01613ced565b955060a08a0135915080821115613d8b57600080fd5b818a0191508a601f830112613d9f57600080fd5b813581811115613dae57600080fd5b8b60208260051b8501011115613dc357600080fd5b60208301955080945050505060c0880135905092959891949750929550565b602081526000612a676020830184613a72565b600080600060608486031215613e0a57600080fd5b613e1384613a02565b95602085013595506040909401359392505050565b602081526000612a676020830184613c1f565b60008060008060808587031215613e5157600080fd5b613e5a85613a02565b966020860135965060408601359560600135945092505050565b7f4e487b7100000000000000000000000000000000000000000000000000000000600052604160045260246000fd5b604051601f82017fffffffffffffffffffffffffffffffffffffffffffffffffffffffffffffffe016810167ffffffffffffffff81118282101715613eea57613eea613e74565b604052919050565b600082601f830112613f0357600080fd5b8135602067ffffffffffffffff821115613f1f57613f1f613e74565b8160051b613f2e828201613ea3565b9283528481018201928281019087851115613f4857600080fd5b83870192505b84831015613f6757823582529183019190830190613f4e565b979650505050505050565b600082601f830112613f8357600080fd5b813567ffffffffffffffff811115613f9d57613f9d613e74565b613fce60207fffffffffffffffffffffffffffffffffffffffffffffffffffffffffffffffe0601f84011601613ea3565b818152846020838601011115613fe357600080fd5b816020850160208301376000918101602001919091529392505050565b600080600080600060a0868803121561401857600080fd5b61402186613a02565b945061402f60208701613a02565b9350604086013567ffffffffffffffff8082111561404c57600080fd5b61405889838a01613ef2565b9450606088013591508082111561406e57600080fd5b61407a89838a01613ef2565b9350608088013591508082111561409057600080fd5b5061409d88828901613f72565b9150509295509295909350565b600080600080600060a086880312156140c257600080fd5b6140cb86613a02565b94506140d960208701613a02565b93506040860135925060608601359150608086013567ffffffffffffffff81111561410357600080fd5b61409d88828901613f72565b7f4e487b7100000000000000000000000000000000000000000000000000000000600052601160045260246000fd5b818103818111156106b3576106b361410f565b808201808211156106b3576106b361410f565b7f4e487b7100000000000000000000000000000000000000000000000000000000600052603260045260246000fd5b60007fffffffffffffffffffffffffffffffffffffffffffffffffffffffffffffffff82036141c4576141c461410f565b5060010190565b6000815480845260208085019450836000528060002060005b83811015613909578154875295820195600191820191016141e4565b60006101808254845261422a600184015473ffffffffffffffffffffffffffffffffffffffff1690565b73ffffffffffffffffffffffffffffffffffffffff1660208501526040840181905261425b818501600285016141cb565b9050838103606085015261427281600385016141cb565b9050614295600484015473ffffffffffffffffffffffffffffffffffffffff1690565b73ffffffffffffffffffffffffffffffffffffffff16608085015283810360a08501526142c581600585016141cb565b905083810360c08501526142dc81600685016141cb565b905083810360e08501526142f381600785016141cb565b60088401546101008601526009840154610120860152600a840154610140860152600b909301546101609094019390935250919050565b602081526000612a676020830184614200565b60006020828403121561434f57600080fd5b81518015158114612a6757600080fd5b73ffffffffffffffffffffffffffffffffffffffff8416815260606020820152600061438e60608301856141cb565b82810360408401526143a081856141cb565b9695505050505050565b600073ffffffffffffffffffffffffffffffffffffffff808716835280861660208401525060a060408301526143e360a08301856141cb565b82810360608401526143f581856141cb565b838103608090940193909352505060008152602001949350505050565b6040815260006144256040830185614200565b905073ffffffffffffffffffffffffffffffffffffffff831660208301529392505050565b60008083357fffffffffffffffffffffffffffffffffffffffffffffffffffffffffffffffe184360301811261447f57600080fd5b83018035915067ffffffffffffffff82111561449a57600080fd5b6020019150600581901b36038213156144b257600080fd5b9250929050565b6000826144ef577f4e487b7100000000000000000000000000000000000000000000000000000000600052601260045260246000fd5b500690565b73ffffffffffffffffffffffffffffffffffffffff8416815260606020820152600061452360608301856138d9565b82810360408401526143a081856138d9565b600073ffffffffffffffffffffffffffffffffffffffff808716835280861660208401525060a0604083015261456e60a08301856138d9565b82810360608401526143f581856138d9565b60a08152600061459360a0830188614200565b73ffffffffffffffffffffffffffffffffffffffff8716602084015285604084015282810360608401526145c781866138d9565b905082810360808401526145db81856138d9565b98975050505050505050565b60005b838110156146025781810151838201526020016145ea565b50506000910152565b7f416363657373436f6e74726f6c3a206163636f756e74200000000000000000008152600083516146438160178501602088016145e7565b7f206973206d697373696e6720726f6c652000000000000000000000000000000060179184019182015283516146808160288401602088016145e7565b01602801949350505050565b60208152600082518060208401526146ab8160408501602087016145e7565b601f017fffffffffffffffffffffffffffffffffffffffffffffffffffffffffffffffe0169190910160400192915050565b7f4e487b7100000000000000000000000000000000000000000000000000000000600052603160045260246000fd5b6000817fffffffffffffffffffffffffffffffffffffffffffffffffffffffffffffffff04831182151516156147445761474461410f565b500290565b6000816147585761475861410f565b507fffffffffffffffffffffffffffffffffffffffffffffffffffffffffffffffff019056fea26469706673582212205187f65114b4ffb2282cf03c6ca7a7cd69b3bce659f6dce8a53680347659625964736f6c63430008100033",
  "linkReferences": {},
  "deployedLinkReferences": {}
}