{
  "_format": "hh-sol-artifact-1",
  "contractName": "Game_Lootbox_Manager",
  "sourceName": "contracts/Lootbox_Manager/Game_Lootbox_Manager.sol",
  "abi": [
    {
      "inputs": [
        {
          "internalType": "address",
          "name": "_forwarder",
          "type": "address"
        },
        {
          "internalType": "bytes32",
          "name": "_systemId",
          "type": "bytes32"
        }
      ],
      "stateMutability": "nonpayable",
      "type": "constructor"
    },
    {
      "anonymous": false,
      "inputs": [
        {
          "indexed": true,
          "internalType": "uint256",
          "name": "lootboxId",
          "type": "uint256"
        },
        {
          "components": [
            {
              "internalType": "uint256",
              "name": "id",
              "type": "uint256"
            },
            {
              "internalType": "contract IERC1155",
              "name": "inputCollection",
              "type": "address"
            },
            {
              "internalType": "uint256[]",
              "name": "inputCollectionItemIds",
              "type": "uint256[]"
            },
            {
              "internalType": "uint256[]",
              "name": "inputCollectionItemAmounts",
              "type": "uint256[]"
            },
            {
              "internalType": "contract IERC1155",
              "name": "outputCollection",
              "type": "address"
            },
            {
              "internalType": "uint256[]",
              "name": "outputCollectionItemIds",
              "type": "uint256[]"
            },
            {
              "internalType": "uint256[]",
              "name": "outputCollectionItemAmounts",
              "type": "uint256[]"
            },
            {
              "internalType": "uint256[]",
              "name": "outputCollectionItemWeights",
              "type": "uint256[]"
            },
            {
              "internalType": "uint256",
              "name": "outputTotalItemsWeight",
              "type": "uint256"
            },
            {
              "internalType": "uint256",
              "name": "outputTotalItems",
              "type": "uint256"
            },
            {
              "internalType": "uint256",
              "name": "opens",
              "type": "uint256"
            },
            {
              "internalType": "uint256",
              "name": "lastUpdatedAt",
              "type": "uint256"
            }
          ],
          "indexed": false,
          "internalType": "struct IGame_Lootbox_Manager.Lootbox",
          "name": "lootbox",
          "type": "tuple"
        },
        {
          "indexed": false,
          "internalType": "address",
          "name": "user",
          "type": "address"
        },
        {
          "indexed": false,
          "internalType": "uint256",
          "name": "openedLootboxIndex",
          "type": "uint256"
        },
        {
          "indexed": false,
          "internalType": "uint256[]",
          "name": "outputCollectionItemIds",
          "type": "uint256[]"
        },
        {
          "indexed": false,
          "internalType": "uint256[]",
          "name": "outputCollectionItemAmounts",
          "type": "uint256[]"
        }
      ],
      "name": "LootboxClaimed",
      "type": "event"
    },
    {
      "anonymous": false,
      "inputs": [
        {
          "indexed": true,
          "internalType": "uint256",
          "name": "lootboxId",
          "type": "uint256"
        },
        {
          "components": [
            {
              "internalType": "uint256",
              "name": "id",
              "type": "uint256"
            },
            {
              "internalType": "contract IERC1155",
              "name": "inputCollection",
              "type": "address"
            },
            {
              "internalType": "uint256[]",
              "name": "inputCollectionItemIds",
              "type": "uint256[]"
            },
            {
              "internalType": "uint256[]",
              "name": "inputCollectionItemAmounts",
              "type": "uint256[]"
            },
            {
              "internalType": "contract IERC1155",
              "name": "outputCollection",
              "type": "address"
            },
            {
              "internalType": "uint256[]",
              "name": "outputCollectionItemIds",
              "type": "uint256[]"
            },
            {
              "internalType": "uint256[]",
              "name": "outputCollectionItemAmounts",
              "type": "uint256[]"
            },
            {
              "internalType": "uint256[]",
              "name": "outputCollectionItemWeights",
              "type": "uint256[]"
            },
            {
              "internalType": "uint256",
              "name": "outputTotalItemsWeight",
              "type": "uint256"
            },
            {
              "internalType": "uint256",
              "name": "outputTotalItems",
              "type": "uint256"
            },
            {
              "internalType": "uint256",
              "name": "opens",
              "type": "uint256"
            },
            {
              "internalType": "uint256",
              "name": "lastUpdatedAt",
              "type": "uint256"
            }
          ],
          "indexed": false,
          "internalType": "struct IGame_Lootbox_Manager.Lootbox",
          "name": "lootbox",
          "type": "tuple"
        },
        {
          "indexed": false,
          "internalType": "address",
          "name": "user",
          "type": "address"
        }
      ],
      "name": "LootboxOpened",
      "type": "event"
    },
    {
      "anonymous": false,
      "inputs": [
        {
          "indexed": true,
          "internalType": "uint256",
          "name": "lootboxId",
          "type": "uint256"
        },
        {
          "components": [
            {
              "internalType": "uint256",
              "name": "id",
              "type": "uint256"
            },
            {
              "internalType": "contract IERC1155",
              "name": "inputCollection",
              "type": "address"
            },
            {
              "internalType": "uint256[]",
              "name": "inputCollectionItemIds",
              "type": "uint256[]"
            },
            {
              "internalType": "uint256[]",
              "name": "inputCollectionItemAmounts",
              "type": "uint256[]"
            },
            {
              "internalType": "contract IERC1155",
              "name": "outputCollection",
              "type": "address"
            },
            {
              "internalType": "uint256[]",
              "name": "outputCollectionItemIds",
              "type": "uint256[]"
            },
            {
              "internalType": "uint256[]",
              "name": "outputCollectionItemAmounts",
              "type": "uint256[]"
            },
            {
              "internalType": "uint256[]",
              "name": "outputCollectionItemWeights",
              "type": "uint256[]"
            },
            {
              "internalType": "uint256",
              "name": "outputTotalItemsWeight",
              "type": "uint256"
            },
            {
              "internalType": "uint256",
              "name": "outputTotalItems",
              "type": "uint256"
            },
            {
              "internalType": "uint256",
              "name": "opens",
              "type": "uint256"
            },
            {
              "internalType": "uint256",
              "name": "lastUpdatedAt",
              "type": "uint256"
            }
          ],
          "indexed": false,
          "internalType": "struct IGame_Lootbox_Manager.Lootbox",
          "name": "lootbox",
          "type": "tuple"
        }
      ],
      "name": "LootboxRemoved",
      "type": "event"
    },
    {
      "anonymous": false,
      "inputs": [
        {
          "indexed": true,
          "internalType": "uint256",
          "name": "lootboxId",
          "type": "uint256"
        },
        {
          "components": [
            {
              "internalType": "uint256",
              "name": "id",
              "type": "uint256"
            },
            {
              "internalType": "contract IERC1155",
              "name": "inputCollection",
              "type": "address"
            },
            {
              "internalType": "uint256[]",
              "name": "inputCollectionItemIds",
              "type": "uint256[]"
            },
            {
              "internalType": "uint256[]",
              "name": "inputCollectionItemAmounts",
              "type": "uint256[]"
            },
            {
              "internalType": "contract IERC1155",
              "name": "outputCollection",
              "type": "address"
            },
            {
              "internalType": "uint256[]",
              "name": "outputCollectionItemIds",
              "type": "uint256[]"
            },
            {
              "internalType": "uint256[]",
              "name": "outputCollectionItemAmounts",
              "type": "uint256[]"
            },
            {
              "internalType": "uint256[]",
              "name": "outputCollectionItemWeights",
              "type": "uint256[]"
            },
            {
              "internalType": "uint256",
              "name": "outputTotalItemsWeight",
              "type": "uint256"
            },
            {
              "internalType": "uint256",
              "name": "outputTotalItems",
              "type": "uint256"
            },
            {
              "internalType": "uint256",
              "name": "opens",
              "type": "uint256"
            },
            {
              "internalType": "uint256",
              "name": "lastUpdatedAt",
              "type": "uint256"
            }
          ],
          "indexed": false,
          "internalType": "struct IGame_Lootbox_Manager.Lootbox",
          "name": "lootbox",
          "type": "tuple"
        }
      ],
      "name": "LootboxSet",
      "type": "event"
    },
    {
      "anonymous": false,
      "inputs": [
        {
          "indexed": true,
          "internalType": "bytes32",
          "name": "role",
          "type": "bytes32"
        },
        {
          "indexed": true,
          "internalType": "bytes32",
          "name": "previousAdminRole",
          "type": "bytes32"
        },
        {
          "indexed": true,
          "internalType": "bytes32",
          "name": "newAdminRole",
          "type": "bytes32"
        }
      ],
      "name": "RoleAdminChanged",
      "type": "event"
    },
    {
      "anonymous": false,
      "inputs": [
        {
          "indexed": true,
          "internalType": "bytes32",
          "name": "role",
          "type": "bytes32"
        },
        {
          "indexed": true,
          "internalType": "address",
          "name": "account",
          "type": "address"
        },
        {
          "indexed": true,
          "internalType": "address",
          "name": "sender",
          "type": "address"
        }
      ],
      "name": "RoleGranted",
      "type": "event"
    },
    {
      "anonymous": false,
      "inputs": [
        {
          "indexed": true,
          "internalType": "bytes32",
          "name": "role",
          "type": "bytes32"
        },
        {
          "indexed": true,
          "internalType": "address",
          "name": "account",
          "type": "address"
        },
        {
          "indexed": true,
          "internalType": "address",
          "name": "sender",
          "type": "address"
        }
      ],
      "name": "RoleRevoked",
      "type": "event"
    },
    {
      "inputs": [],
      "name": "DEFAULT_ADMIN_ROLE",
      "outputs": [
        {
          "internalType": "bytes32",
          "name": "",
          "type": "bytes32"
        }
      ],
      "stateMutability": "view",
      "type": "function"
    },
    {
      "inputs": [],
      "name": "allLootboxIds",
      "outputs": [
        {
          "internalType": "uint256[]",
          "name": "",
          "type": "uint256[]"
        }
      ],
      "stateMutability": "view",
      "type": "function"
    },
    {
      "inputs": [],
      "name": "allLootboxLastUpdates",
      "outputs": [
        {
          "internalType": "uint256[][]",
          "name": "",
          "type": "uint256[][]"
        }
      ],
      "stateMutability": "view",
      "type": "function"
    },
    {
      "inputs": [],
      "name": "allLootboxes",
      "outputs": [
        {
          "components": [
            {
              "internalType": "uint256",
              "name": "id",
              "type": "uint256"
            },
            {
              "internalType": "contract IERC1155",
              "name": "inputCollection",
              "type": "address"
            },
            {
              "internalType": "uint256[]",
              "name": "inputCollectionItemIds",
              "type": "uint256[]"
            },
            {
              "internalType": "uint256[]",
              "name": "inputCollectionItemAmounts",
              "type": "uint256[]"
            },
            {
              "internalType": "contract IERC1155",
              "name": "outputCollection",
              "type": "address"
            },
            {
              "internalType": "uint256[]",
              "name": "outputCollectionItemIds",
              "type": "uint256[]"
            },
            {
              "internalType": "uint256[]",
              "name": "outputCollectionItemAmounts",
              "type": "uint256[]"
            },
            {
              "internalType": "uint256[]",
              "name": "outputCollectionItemWeights",
              "type": "uint256[]"
            },
            {
              "internalType": "uint256",
              "name": "outputTotalItemsWeight",
              "type": "uint256"
            },
            {
              "internalType": "uint256",
              "name": "outputTotalItems",
              "type": "uint256"
            },
            {
              "internalType": "uint256",
              "name": "opens",
              "type": "uint256"
            },
            {
              "internalType": "uint256",
              "name": "lastUpdatedAt",
              "type": "uint256"
            }
          ],
          "internalType": "struct IGame_Lootbox_Manager.Lootbox[]",
          "name": "",
          "type": "tuple[]"
        }
      ],
      "stateMutability": "view",
      "type": "function"
    },
    {
      "inputs": [
        {
          "internalType": "address",
          "name": "_address",
          "type": "address"
        },
        {
          "internalType": "uint256",
          "name": "_lootboxId",
          "type": "uint256"
        }
      ],
      "name": "allOpenedLootboxes",
      "outputs": [
        {
          "components": [
            {
              "internalType": "uint256",
              "name": "lootboxId",
              "type": "uint256"
            },
            {
              "internalType": "uint256",
              "name": "claimSeedBlock",
              "type": "uint256"
            },
            {
              "internalType": "uint256[]",
              "name": "outputCollectionItemIds",
              "type": "uint256[]"
            },
            {
              "internalType": "uint256[]",
              "name": "outputCollectionItemAmounts",
              "type": "uint256[]"
            },
            {
              "internalType": "bool",
              "name": "claimed",
              "type": "bool"
            }
          ],
          "internalType": "struct IGame_Lootbox_Manager.OpenedLootbox[]",
          "name": "",
          "type": "tuple[]"
        }
      ],
      "stateMutability": "view",
      "type": "function"
    },
    {
      "inputs": [
        {
          "internalType": "uint256",
          "name": "_lootboxId",
          "type": "uint256"
        },
        {
          "internalType": "uint256",
          "name": "_openedLootboxIndex",
          "type": "uint256"
        }
      ],
      "name": "claimLootbox",
      "outputs": [],
      "stateMutability": "nonpayable",
      "type": "function"
    },
    {
      "inputs": [
        {
          "internalType": "uint256",
          "name": "_lootboxId",
          "type": "uint256"
        }
      ],
      "name": "claimLootboxes",
      "outputs": [],
      "stateMutability": "nonpayable",
      "type": "function"
    },
    {
      "inputs": [],
      "name": "claimableBlockOffset",
      "outputs": [
        {
          "internalType": "uint256",
          "name": "",
          "type": "uint256"
        }
      ],
      "stateMutability": "view",
      "type": "function"
    },
    {
      "inputs": [
        {
          "internalType": "bytes32",
          "name": "role",
          "type": "bytes32"
        }
      ],
      "name": "getRoleAdmin",
      "outputs": [
        {
          "internalType": "bytes32",
          "name": "",
          "type": "bytes32"
        }
      ],
      "stateMutability": "view",
      "type": "function"
    },
    {
      "inputs": [
        {
          "internalType": "bytes32",
          "name": "_role",
          "type": "bytes32"
        },
        {
          "internalType": "address",
          "name": "_account",
          "type": "address"
        }
      ],
      "name": "grantRole",
      "outputs": [],
      "stateMutability": "nonpayable",
      "type": "function"
    },
    {
      "inputs": [
        {
          "internalType": "bytes32",
          "name": "role",
          "type": "bytes32"
        },
        {
          "internalType": "address",
          "name": "account",
          "type": "address"
        }
      ],
      "name": "hasRole",
      "outputs": [
        {
          "internalType": "bool",
          "name": "",
          "type": "bool"
        }
      ],
      "stateMutability": "view",
      "type": "function"
    },
    {
      "inputs": [
        {
          "internalType": "address",
          "name": "forwarder",
          "type": "address"
        }
      ],
      "name": "isTrustedForwarder",
      "outputs": [
        {
          "internalType": "bool",
          "name": "",
          "type": "bool"
        }
      ],
      "stateMutability": "view",
      "type": "function"
    },
    {
      "inputs": [
        {
          "internalType": "uint256",
          "name": "_lootboxId",
          "type": "uint256"
        }
      ],
      "name": "lootbox",
      "outputs": [
        {
          "components": [
            {
              "internalType": "uint256",
              "name": "id",
              "type": "uint256"
            },
            {
              "internalType": "contract IERC1155",
              "name": "inputCollection",
              "type": "address"
            },
            {
              "internalType": "uint256[]",
              "name": "inputCollectionItemIds",
              "type": "uint256[]"
            },
            {
              "internalType": "uint256[]",
              "name": "inputCollectionItemAmounts",
              "type": "uint256[]"
            },
            {
              "internalType": "contract IERC1155",
              "name": "outputCollection",
              "type": "address"
            },
            {
              "internalType": "uint256[]",
              "name": "outputCollectionItemIds",
              "type": "uint256[]"
            },
            {
              "internalType": "uint256[]",
              "name": "outputCollectionItemAmounts",
              "type": "uint256[]"
            },
            {
              "internalType": "uint256[]",
              "name": "outputCollectionItemWeights",
              "type": "uint256[]"
            },
            {
              "internalType": "uint256",
              "name": "outputTotalItemsWeight",
              "type": "uint256"
            },
            {
              "internalType": "uint256",
              "name": "outputTotalItems",
              "type": "uint256"
            },
            {
              "internalType": "uint256",
              "name": "opens",
              "type": "uint256"
            },
            {
              "internalType": "uint256",
              "name": "lastUpdatedAt",
              "type": "uint256"
            }
          ],
          "internalType": "struct IGame_Lootbox_Manager.Lootbox",
          "name": "",
          "type": "tuple"
        }
      ],
      "stateMutability": "view",
      "type": "function"
    },
    {
      "inputs": [
        {
          "internalType": "uint256",
          "name": "_index",
          "type": "uint256"
        }
      ],
      "name": "lootboxId",
      "outputs": [
        {
          "internalType": "uint256",
          "name": "",
          "type": "uint256"
        }
      ],
      "stateMutability": "view",
      "type": "function"
    },
    {
      "inputs": [
        {
          "internalType": "uint256",
          "name": "_lootboxId",
          "type": "uint256"
        }
      ],
      "name": "lootboxLastUpdate",
      "outputs": [
        {
          "internalType": "uint256[]",
          "name": "",
          "type": "uint256[]"
        }
      ],
      "stateMutability": "view",
      "type": "function"
    },
    {
      "inputs": [
        {
          "internalType": "address",
          "name": "",
          "type": "address"
        },
        {
          "internalType": "address",
          "name": "",
          "type": "address"
        },
        {
          "internalType": "uint256[]",
          "name": "",
          "type": "uint256[]"
        },
        {
          "internalType": "uint256[]",
          "name": "",
          "type": "uint256[]"
        },
        {
          "internalType": "bytes",
          "name": "",
          "type": "bytes"
        }
      ],
      "name": "onERC1155BatchReceived",
      "outputs": [
        {
          "internalType": "bytes4",
          "name": "",
          "type": "bytes4"
        }
      ],
      "stateMutability": "nonpayable",
      "type": "function"
    },
    {
      "inputs": [
        {
          "internalType": "address",
          "name": "",
          "type": "address"
        },
        {
          "internalType": "address",
          "name": "",
          "type": "address"
        },
        {
          "internalType": "uint256",
          "name": "",
          "type": "uint256"
        },
        {
          "internalType": "uint256",
          "name": "",
          "type": "uint256"
        },
        {
          "internalType": "bytes",
          "name": "",
          "type": "bytes"
        }
      ],
      "name": "onERC1155Received",
      "outputs": [
        {
          "internalType": "bytes4",
          "name": "",
          "type": "bytes4"
        }
      ],
      "stateMutability": "nonpayable",
      "type": "function"
    },
    {
      "inputs": [
        {
          "internalType": "uint256",
          "name": "_lootboxId",
          "type": "uint256"
        }
      ],
      "name": "openLootbox",
      "outputs": [],
      "stateMutability": "nonpayable",
      "type": "function"
    },
    {
      "inputs": [
        {
          "internalType": "address",
          "name": "_address",
          "type": "address"
        },
        {
          "internalType": "uint256",
          "name": "_lootboxId",
          "type": "uint256"
        },
        {
          "internalType": "uint256",
          "name": "_openedLootboxIndex",
          "type": "uint256"
        }
      ],
      "name": "openedLootbox",
      "outputs": [
        {
          "components": [
            {
              "internalType": "uint256",
              "name": "lootboxId",
              "type": "uint256"
            },
            {
              "internalType": "uint256",
              "name": "claimSeedBlock",
              "type": "uint256"
            },
            {
              "internalType": "uint256[]",
              "name": "outputCollectionItemIds",
              "type": "uint256[]"
            },
            {
              "internalType": "uint256[]",
              "name": "outputCollectionItemAmounts",
              "type": "uint256[]"
            },
            {
              "internalType": "bool",
              "name": "claimed",
              "type": "bool"
            }
          ],
          "internalType": "struct IGame_Lootbox_Manager.OpenedLootbox",
          "name": "",
          "type": "tuple"
        }
      ],
      "stateMutability": "view",
      "type": "function"
    },
    {
      "inputs": [
        {
          "internalType": "uint256",
          "name": "_startIndexInclusive",
          "type": "uint256"
        },
        {
          "internalType": "uint256",
          "name": "_limit",
          "type": "uint256"
        }
      ],
      "name": "paginateLootboxIds",
      "outputs": [
        {
          "internalType": "uint256[]",
          "name": "",
          "type": "uint256[]"
        }
      ],
      "stateMutability": "view",
      "type": "function"
    },
    {
      "inputs": [
        {
          "internalType": "uint256",
          "name": "_startIndexInclusive",
          "type": "uint256"
        },
        {
          "internalType": "uint256",
          "name": "_limit",
          "type": "uint256"
        }
      ],
      "name": "paginateLootboxLastUpdates",
      "outputs": [
        {
          "internalType": "uint256[][]",
          "name": "",
          "type": "uint256[][]"
        }
      ],
      "stateMutability": "view",
      "type": "function"
    },
    {
      "inputs": [
        {
          "internalType": "uint256",
          "name": "_startIndexInclusive",
          "type": "uint256"
        },
        {
          "internalType": "uint256",
          "name": "_limit",
          "type": "uint256"
        }
      ],
      "name": "paginateLootboxes",
      "outputs": [
        {
          "components": [
            {
              "internalType": "uint256",
              "name": "id",
              "type": "uint256"
            },
            {
              "internalType": "contract IERC1155",
              "name": "inputCollection",
              "type": "address"
            },
            {
              "internalType": "uint256[]",
              "name": "inputCollectionItemIds",
              "type": "uint256[]"
            },
            {
              "internalType": "uint256[]",
              "name": "inputCollectionItemAmounts",
              "type": "uint256[]"
            },
            {
              "internalType": "contract IERC1155",
              "name": "outputCollection",
              "type": "address"
            },
            {
              "internalType": "uint256[]",
              "name": "outputCollectionItemIds",
              "type": "uint256[]"
            },
            {
              "internalType": "uint256[]",
              "name": "outputCollectionItemAmounts",
              "type": "uint256[]"
            },
            {
              "internalType": "uint256[]",
              "name": "outputCollectionItemWeights",
              "type": "uint256[]"
            },
            {
              "internalType": "uint256",
              "name": "outputTotalItemsWeight",
              "type": "uint256"
            },
            {
              "internalType": "uint256",
              "name": "outputTotalItems",
              "type": "uint256"
            },
            {
              "internalType": "uint256",
              "name": "opens",
              "type": "uint256"
            },
            {
              "internalType": "uint256",
              "name": "lastUpdatedAt",
              "type": "uint256"
            }
          ],
          "internalType": "struct IGame_Lootbox_Manager.Lootbox[]",
          "name": "",
          "type": "tuple[]"
        }
      ],
      "stateMutability": "view",
      "type": "function"
    },
    {
      "inputs": [
        {
          "internalType": "address",
          "name": "_address",
          "type": "address"
        },
        {
          "internalType": "uint256",
          "name": "_lootboxId",
          "type": "uint256"
        },
        {
          "internalType": "uint256",
          "name": "_startIndexInclusive",
          "type": "uint256"
        },
        {
          "internalType": "uint256",
          "name": "_limit",
          "type": "uint256"
        }
      ],
      "name": "paginateOpenedLootboxes",
      "outputs": [
        {
          "components": [
            {
              "internalType": "uint256",
              "name": "lootboxId",
              "type": "uint256"
            },
            {
              "internalType": "uint256",
              "name": "claimSeedBlock",
              "type": "uint256"
            },
            {
              "internalType": "uint256[]",
              "name": "outputCollectionItemIds",
              "type": "uint256[]"
            },
            {
              "internalType": "uint256[]",
              "name": "outputCollectionItemAmounts",
              "type": "uint256[]"
            },
            {
              "internalType": "bool",
              "name": "claimed",
              "type": "bool"
            }
          ],
          "internalType": "struct IGame_Lootbox_Manager.OpenedLootbox[]",
          "name": "",
          "type": "tuple[]"
        }
      ],
      "stateMutability": "view",
      "type": "function"
    },
    {
      "inputs": [
        {
          "internalType": "uint256",
          "name": "_lootboxId",
          "type": "uint256"
        }
      ],
      "name": "removeLootbox",
      "outputs": [],
      "stateMutability": "nonpayable",
      "type": "function"
    },
    {
      "inputs": [
        {
          "internalType": "bytes32",
          "name": "role",
          "type": "bytes32"
        },
        {
          "internalType": "address",
          "name": "account",
          "type": "address"
        }
      ],
      "name": "renounceRole",
      "outputs": [],
      "stateMutability": "nonpayable",
      "type": "function"
    },
    {
      "inputs": [
        {
          "internalType": "bytes32",
          "name": "role",
          "type": "bytes32"
        },
        {
          "internalType": "address",
          "name": "account",
          "type": "address"
        }
      ],
      "name": "revokeRole",
      "outputs": [],
      "stateMutability": "nonpayable",
      "type": "function"
    },
    {
      "inputs": [
        {
          "internalType": "uint256",
          "name": "_offset",
          "type": "uint256"
        }
      ],
      "name": "setClaimableBlockOffset",
      "outputs": [],
      "stateMutability": "nonpayable",
      "type": "function"
    },
    {
      "inputs": [
        {
          "internalType": "uint256",
          "name": "_lootboxId",
          "type": "uint256"
        },
        {
          "internalType": "address[2]",
          "name": "_inputOutputCollections",
          "type": "address[2]"
        },
        {
          "internalType": "uint256[][2]",
          "name": "_inputOutputCollectionItemIds",
          "type": "uint256[][2]"
        },
        {
          "internalType": "uint256[][2]",
          "name": "_inputOutputCollectionItemAmounts",
          "type": "uint256[][2]"
        },
        {
          "internalType": "uint256[]",
          "name": "_outputCollectionItemWeights",
          "type": "uint256[]"
        },
        {
          "internalType": "uint256",
          "name": "_outputTotalItems",
          "type": "uint256"
        }
      ],
      "name": "setLootbox",
      "outputs": [],
      "stateMutability": "nonpayable",
      "type": "function"
    },
    {
      "inputs": [
        {
          "internalType": "bytes4",
          "name": "interfaceId",
          "type": "bytes4"
        }
      ],
      "name": "supportsInterface",
      "outputs": [
        {
          "internalType": "bool",
          "name": "",
          "type": "bool"
        }
      ],
      "stateMutability": "view",
      "type": "function"
    },
    {
      "inputs": [],
      "name": "systemId",
      "outputs": [
        {
          "internalType": "bytes32",
          "name": "",
          "type": "bytes32"
        }
      ],
      "stateMutability": "view",
      "type": "function"
    },
    {
      "inputs": [
        {
          "internalType": "address",
          "name": "_address",
          "type": "address"
        },
        {
          "internalType": "uint256",
          "name": "_lootboxId",
          "type": "uint256"
        }
      ],
      "name": "totalClaimableLootboxes",
      "outputs": [
        {
          "internalType": "uint256",
          "name": "",
          "type": "uint256"
        }
      ],
      "stateMutability": "view",
      "type": "function"
    },
    {
      "inputs": [],
      "name": "totalLootboxes",
      "outputs": [
        {
          "internalType": "uint256",
          "name": "",
          "type": "uint256"
        }
      ],
      "stateMutability": "view",
      "type": "function"
    },
    {
      "inputs": [
        {
          "internalType": "address",
          "name": "_address",
          "type": "address"
        },
        {
          "internalType": "uint256",
          "name": "_lootboxId",
          "type": "uint256"
        }
      ],
      "name": "totalOpenedLootboxes",
      "outputs": [
        {
          "internalType": "uint256",
          "name": "",
          "type": "uint256"
        }
      ],
      "stateMutability": "view",
      "type": "function"
    },
    {
      "inputs": [
        {
          "internalType": "address",
          "name": "_newOwner",
          "type": "address"
        }
      ],
      "name": "transferOwnershipControl",
      "outputs": [],
      "stateMutability": "nonpayable",
      "type": "function"
    },
    {
      "inputs": [],
      "name": "trustedForwarder",
      "outputs": [
        {
          "internalType": "address",
          "name": "",
          "type": "address"
        }
      ],
      "stateMutability": "view",
      "type": "function"
    },
    {
      "inputs": [
        {
          "internalType": "address",
          "name": "_newTrustedForwarder",
          "type": "address"
        }
      ],
      "name": "upgradeTrustedForwarder",
      "outputs": [],
      "stateMutability": "nonpayable",
      "type": "function"
    }
  ],
  "bytecode": "0x608060405260026008553480156200001657600080fd5b5060405162004b5938038062004b598339810160408190526200003991620001b4565b600080546001600160a01b0319166001600160a01b038416178155600182815560035562000071906200006b620000a8565b620000c4565b620000a07f5b618ab2fee761c09bf71319707cefa62eccc93dcc483744898e6c3acf4526436200006b620000a8565b5050620001f0565b6000620000bf620000d460201b62002b2b1760201c565b905090565b620000d082826200010a565b5050565b600080546001600160a01b03163303620000f5575060131936013560601c90565b620000bf620001b060201b62002b7b1760201c565b60008281526002602090815260408083206001600160a01b038516845290915290205460ff16620000d05760008281526002602090815260408083206001600160a01b03851684529091529020805460ff191660011790556200016c620000a8565b6001600160a01b0316816001600160a01b0316837f2f8788117e7eff1d82e926ec794901d17c78024a50270940304540a733656f0d60405160405180910390a45050565b3390565b60008060408385031215620001c857600080fd5b82516001600160a01b0381168114620001e057600080fd5b6020939093015192949293505050565b61495980620002006000396000f3fe608060405234801561001057600080fd5b506004361061025c5760003560e01c8063826410fc11610145578063af90a2b7116100bd578063e1394b901161008c578063ea61401a11610071578063ea61401a146105f2578063f23a6e61146105fa578063fbf3040d1461063257600080fd5b8063e1394b90146105cc578063e8c683fd146105df57600080fd5b8063af90a2b714610535578063bc197c8114610548578063d547741f146105b1578063de0ef5e4146105c457600080fd5b8063940502ea11610114578063a217fddf116100f9578063a217fddf14610507578063aa2a7eea1461050f578063abb5d9421461052257600080fd5b8063940502ea146104de57806394cba64e146104e757600080fd5b8063826410fc1461045d5780638404adc11461046557806391d148541461047857806392e11500146104be57600080fd5b80634252ac3f116101d85780637da0a877116101a75780637f4165101161018c5780637f4165101461042f5780637ff48190146104375780637ffb5c651461044a57600080fd5b80637da0a877146103ca5780637f1d0ad21461040f57600080fd5b80634252ac3f14610355578063572b6c05146103685780635ec2d0221461039757806360234af9146103aa57600080fd5b80630e1d1da71161022f5780632f2ff15d116102145780632f2ff15d1461032657806336568abe1461033957806339f898bc1461034c57600080fd5b80630e1d1da7146102d5578063248a9ca3146102f557600080fd5b806301bab1681461026157806301ffc9a71461028a578063021b0647146102ad57806307af4117146102c2575b600080fd5b61027461026f366004613a5c565b610675565b6040516102819190613ab9565b60405180910390f35b61029d610298366004613b39565b61076b565b6040519015158152602001610281565b6102c06102bb366004613b7b565b61080d565b005b6102c06102d0366004613b7b565b6108ac565b6102e86102e3366004613b7b565b610937565b6040516102819190613b94565b610318610303366004613b7b565b60009081526002602052604090206001015490565b604051908152602001610281565b6102c0610334366004613bd0565b6109b7565b6102c0610347366004613bd0565b610b5a565b61031860015481565b6102c0610363366004613bfc565b610c2a565b61029d610376366004613bfc565b60005473ffffffffffffffffffffffffffffffffffffffff91821691161490565b6102e86103a5366004613a5c565b610c52565b6103bd6103b8366004613a5c565b610d26565b6040516102819190613d27565b6000546103ea9073ffffffffffffffffffffffffffffffffffffffff1681565b60405173ffffffffffffffffffffffffffffffffffffffff9091168152602001610281565b61042261041d366004613d9a565b6110ce565b6040516102819190613e1f565b61027461122f565b6102c0610445366004613b7b565b6112df565b6102c0610458366004613a5c565b6116ee565b61031861170c565b6102c0610473366004613ea3565b61171d565b61029d610486366004613bd0565b600091825260026020908152604080842073ffffffffffffffffffffffffffffffffffffffff93909316845291905290205460ff1690565b6104d16104cc366004613b7b565b611d1f565b6040516102819190613f87565b61031860085481565b6104fa6104f5366004613f9a565b612084565b6040516102819190613fcd565b610318600081565b6102c061051d366004613bfc565b6122af565b610318610530366004613d9a565b61231d565b610422610543366004613fe0565b6123f3565b6105806105563660046141a5565b7fbc197c810000000000000000000000000000000000000000000000000000000095945050505050565b6040517fffffffff000000000000000000000000000000000000000000000000000000009091168152602001610281565b6102c06105bf366004613bd0565b61268b565b6103bd6126b5565b6102c06105da366004613b7b565b612a25565b6103186105ed366004613b7b565b612aa0565b6102e8612b1f565b61058061060836600461424f565b7ff23a6e610000000000000000000000000000000000000000000000000000000095945050505050565b610318610640366004613d9a565b73ffffffffffffffffffffffffffffffffffffffff919091166000908152600760209081526040808320938352929052205490565b606060006106836004612b7f565b84106106905760006106a5565b8361069b6004612b7f565b6106a591906142e3565b90506000838211156106b757836106b9565b815b905060008167ffffffffffffffff8111156106d6576106d6614019565b60405190808252806020026020018201604052801561070957816020015b60608152602001906001900390816106f45790505b50905060005b8281101561075f5761072f6102e3610727838a6142f6565b600490612b89565b82828151811061074157610741614309565b6020026020010181905250808061075790614338565b91505061070f565b50925050505b92915050565b60007fffffffff0000000000000000000000000000000000000000000000000000000082167f20fa61be0000000000000000000000000000000000000000000000000000000014806107fe57507fffffffff0000000000000000000000000000000000000000000000000000000082167f4e2312e000000000000000000000000000000000000000000000000000000000145b80610765575061076582612b9c565b7f5b618ab2fee761c09bf71319707cefa62eccc93dcc483744898e6c3acf45264361083781612bf2565b600082116108a6576040517f08c379a000000000000000000000000000000000000000000000000000000000815260206004820152601260248201527f4f66667365742063616e6e6f742062652030000000000000000000000000000060448201526064015b60405180910390fd5b50600855565b7f5b618ab2fee761c09bf71319707cefa62eccc93dcc483744898e6c3acf4526436108d681612bf2565b6108e1600483612c03565b5060008281526006602052604090819020905183907f0864136c4ebca2d8889222bc6e0378756c87aa96dbac4e5645772cf08d4112ee906109239084906144cf565b60405180910390a26000600a909101555050565b60408051600280825260608083018452926000929190602083019080368337019050509050828160008151811061097057610970614309565b60200260200101818152505060066000848152602001908152602001600020600b0154816001815181106109a6576109a6614309565b602090810291909101015292915050565b60006109c581610486612c0f565b905060006109f57f5b618ab2fee761c09bf71319707cefa62eccc93dcc483744898e6c3acf452643610486612c0f565b90508180610a005750805b610a8c576040517f08c379a000000000000000000000000000000000000000000000000000000000815260206004820152602d60248201527f526f6c65206772616e74696e672072657175697265732061646d696e206f722060448201527f6d616e6167657220726f6c652e00000000000000000000000000000000000000606482015260840161089d565b831580610ab857507f5b618ab2fee761c09bf71319707cefa62eccc93dcc483744898e6c3acf45264384145b15610b4a5781610b4a576040517f08c379a000000000000000000000000000000000000000000000000000000000815260206004820152602b60248201527f4f6e6c792061646d696e2063616e206772616e742061646d696e206f72206d6160448201527f6e6167657220726f6c652e000000000000000000000000000000000000000000606482015260840161089d565b610b548484612c19565b50505050565b610b62612c0f565b73ffffffffffffffffffffffffffffffffffffffff168173ffffffffffffffffffffffffffffffffffffffff1614610c1c576040517f08c379a000000000000000000000000000000000000000000000000000000000815260206004820152602f60248201527f416363657373436f6e74726f6c3a2063616e206f6e6c792072656e6f756e636560448201527f20726f6c657320666f722073656c660000000000000000000000000000000000606482015260840161089d565b610c268282612d0e565b5050565b6000610c3581612bf2565b610c40600083612c19565b610c266000610c4d612c0f565b612d0e565b60606000610c606004612b7f565b8410610c6d576000610c82565b83610c786004612b7f565b610c8291906142e3565b9050600083821115610c945783610c96565b815b905060008167ffffffffffffffff811115610cb357610cb3614019565b604051908082528060200260200182016040528015610cdc578160200160208202803683370190505b50905060005b8281101561075f57610cf761072782896142f6565b828281518110610d0957610d09614309565b602090810291909101015280610d1e81614338565b915050610ce2565b60606000610d346004612b7f565b8410610d41576000610d56565b83610d4c6004612b7f565b610d5691906142e3565b9050600083821115610d685783610d6a565b815b905060008167ffffffffffffffff811115610d8757610d87614019565b604051908082528060200260200182016040528015610e4857816020015b610e3560405180610180016040528060008152602001600073ffffffffffffffffffffffffffffffffffffffff1681526020016060815260200160608152602001600073ffffffffffffffffffffffffffffffffffffffff168152602001606081526020016060815260200160608152602001600081526020016000815260200160008152602001600081525090565b815260200190600190039081610da55790505b50905060005b8281101561075f5760066000610e67610727848b6142f6565b8152602080820192909252604090810160002081516101808101835281548152600182015473ffffffffffffffffffffffffffffffffffffffff1681850152600282018054845181870281018701865281815292959394860193830182828015610ef057602002820191906000526020600020905b815481526020019060010190808311610edc575b5050505050815260200160038201805480602002602001604051908101604052809291908181526020018280548015610f4857602002820191906000526020600020905b815481526020019060010190808311610f34575b5050509183525050600482015473ffffffffffffffffffffffffffffffffffffffff166020808301919091526005830180546040805182850281018501825282815294019392830182828015610fbd57602002820191906000526020600020905b815481526020019060010190808311610fa9575b505050505081526020016006820180548060200260200160405190810160405280929190818152602001828054801561101557602002820191906000526020600020905b815481526020019060010190808311611001575b505050505081526020016007820180548060200260200160405190810160405280929190818152602001828054801561106d57602002820191906000526020600020905b815481526020019060010190808311611059575b505050505081526020016008820154815260200160098201548152602001600a8201548152602001600b820154815250508282815181106110b0576110b0614309565b602002602001018190525080806110c690614338565b915050610e4e565b73ffffffffffffffffffffffffffffffffffffffff821660009081526007602090815260408083208484528252808320805482518185028101850190935280835260609492939192909184015b8282101561122357838290600052602060002090600502016040518060a00160405290816000820154815260200160018201548152602001600282018054806020026020016040519081016040528092919081815260200182805480156111a157602002820191906000526020600020905b81548152602001906001019080831161118d575b50505050508152602001600382018054806020026020016040519081016040528092919081815260200182805480156111f957602002820191906000526020600020905b8154815260200190600101908083116111e5575b50505091835250506004919091015460ff161515602091820152908252600192909201910161111b565b50505050905092915050565b6060600061123b61170c565b67ffffffffffffffff81111561125357611253614019565b60405190808252806020026020018201604052801561128657816020015b60608152602001906001900390816112715790505b50905060005b61129461170c565b8110156112d9576112a96102e3600483612b89565b8282815181106112bb576112bb614309565b602002602001018190525080806112d190614338565b91505061128c565b50919050565b6112e7612e01565b6112f2600482612e74565b61137e576040517f08c379a000000000000000000000000000000000000000000000000000000000815260206004820152602d60248201527f6c6f6f74626f78496420646f6573206e6f74206578697374206f72206861732060448201527f6265656e2072656d6f7665642e00000000000000000000000000000000000000606482015260840161089d565b6000818152600660205260409020600181015473ffffffffffffffffffffffffffffffffffffffff161561156d5760018101546040517f01ffc9a70000000000000000000000000000000000000000000000000000000081527fd2c80a6200000000000000000000000000000000000000000000000000000000600482015273ffffffffffffffffffffffffffffffffffffffff909116906301ffc9a790602401602060405180830381865afa15801561143c573d6000803e3d6000fd5b505050506040513d601f19601f8201168201806040525081019061146091906144e2565b156114ea57600181015473ffffffffffffffffffffffffffffffffffffffff16634b7c78dc61148d612c0f565b83600201846003016040518463ffffffff1660e01b81526004016114b393929190614504565b600060405180830381600087803b1580156114cd57600080fd5b505af11580156114e1573d6000803e3d6000fd5b5050505061156d565b600181015473ffffffffffffffffffffffffffffffffffffffff16632eb2c2d6611512612c0f565b3084600201856003016040518563ffffffff1660e01b815260040161153a949392919061454f565b600060405180830381600087803b15801561155457600080fd5b505af1158015611568573d6000803e3d6000fd5b505050505b6115a16040518060a00160405280600081526020016000815260200160608152602001606081526020016000151581525090565b8281526008546115b190436142f6565b6020820152600760006115c2612c0f565b73ffffffffffffffffffffffffffffffffffffffff168152602080820192909252604090810160009081208682528352818120805460018181018355918352918490208551600590930201918255848401519082015590830151805184936116319260028501929101906139fc565b506060820151805161164d9160038401916020909101906139fc565b5060809190910151600490910180547fffffffffffffffffffffffffffffffffffffffffffffffffffffffffffffff0016911515919091179055600a8201805490600061169983614338565b9190505550827fcbe236ccb8bf2ae258fd54e73752d614c82aa6293d5256658cc3ce58dc4d4bf0836116c9612c0f565b6040516116d79291906145b7565b60405180910390a250506116eb6001600355565b50565b6116f6612e01565b61170282826001612e8c565b610c266001600355565b60006117186004612b7f565b905090565b7f5b618ab2fee761c09bf71319707cefa62eccc93dcc483744898e6c3acf45264361174781612bf2565b61175185806145ef565b905061175d87806145ef565b9050146117ec576040517f08c379a000000000000000000000000000000000000000000000000000000000815260206004820152602d60248201527f4d69736d61746368656420696e707574206974656d2069647320616e6420616d60448201527f6f756e74206c656e677468732e00000000000000000000000000000000000000606482015260840161089d565b6117f960208601866145ef565b905061180860208801886145ef565b905014611897576040517f08c379a000000000000000000000000000000000000000000000000000000000815260206004820152602d60248201527f4d69736d617463686564206f7574707574206974656d2069647320616e64206160448201527f6d6f756e74206c656e6774682e00000000000000000000000000000000000000606482015260840161089d565b826118a560208801886145ef565b905014611934576040517f08c379a000000000000000000000000000000000000000000000000000000000815260206004820152603160248201527f4d69736d61746368206f7574707574206974656d2069647320616e642069746560448201527f6d2077656967687473206c656e6774682e000000000000000000000000000000606482015260840161089d565b6000805b848110156119785785858281811061195257611952614309565b905060200201358261196491906142f6565b91508061197081614338565b915050611938565b5060006040518061018001604052808b81526020018a6000600281106119a0576119a0614309565b6020020160208101906119b39190613bfc565b73ffffffffffffffffffffffffffffffffffffffff1681526020016119d88a806145ef565b80806020026020016040519081016040528093929190818152602001838360200280828437600092019190915250505090825250602001611a1989806145ef565b80806020026020016040519081016040528093929190818152602001838360200280828437600092019190915250505090825250602090810190611a639060408d01908d01613bfc565b73ffffffffffffffffffffffffffffffffffffffff168152602090810190611a8d908b018b6145ef565b80806020026020016040519081016040528093929190818152602001838360200280828437600092019190915250505090825250602090810190611ad3908a018a6145ef565b8080602002602001604051908101604052809392919081815260200183836020028082843760009201919091525050509082525060408051602089810282810182019093528982529283019290918a918a9182918501908490808284376000920182905250938552505050602080830186905260408084018990528e835260069091529020600a01546060820152426080909101529050611b7560048b613468565b5060008a81526006602090815260409182902083518155838201516001820180547fffffffffffffffffffffffff00000000000000000000000000000000000000001673ffffffffffffffffffffffffffffffffffffffff909216919091179055918301518051849392611bf09260028501929101906139fc565b5060608201518051611c0c9160038401916020909101906139fc565b5060808201516004820180547fffffffffffffffffffffffff00000000000000000000000000000000000000001673ffffffffffffffffffffffffffffffffffffffff90921691909117905560a08201518051611c739160058401916020909101906139fc565b5060c08201518051611c8f9160068401916020909101906139fc565b5060e08201518051611cab9160078401916020909101906139fc565b506101008201518160080155610120820151816009015561014082015181600a015561016082015181600b0155905050897fb2e547eb18679a18ee72bf11d33344b9a6a24f4afecf77e5ff1833294b4b0ab982604051611d0b9190613f87565b60405180910390a250505050505050505050565b611daf60405180610180016040528060008152602001600073ffffffffffffffffffffffffffffffffffffffff1681526020016060815260200160608152602001600073ffffffffffffffffffffffffffffffffffffffff168152602001606081526020016060815260200160608152602001600081526020016000815260200160008152602001600081525090565b611dba600483612e74565b611e46576040517f08c379a000000000000000000000000000000000000000000000000000000000815260206004820152602d60248201527f6c6f6f74626f78496420646f6573206e6f74206578697374206f72206861732060448201527f6265656e2072656d6f7665642e00000000000000000000000000000000000000606482015260840161089d565b60008281526006602090815260409182902082516101808101845281548152600182015473ffffffffffffffffffffffffffffffffffffffff168184015260028201805485518186028101860187528181529295939493860193830182828015611ecf57602002820191906000526020600020905b815481526020019060010190808311611ebb575b5050505050815260200160038201805480602002602001604051908101604052809291908181526020018280548015611f2757602002820191906000526020600020905b815481526020019060010190808311611f13575b5050509183525050600482015473ffffffffffffffffffffffffffffffffffffffff166020808301919091526005830180546040805182850281018501825282815294019392830182828015611f9c57602002820191906000526020600020905b815481526020019060010190808311611f88575b5050505050815260200160068201805480602002602001604051908101604052809291908181526020018280548015611ff457602002820191906000526020600020905b815481526020019060010190808311611fe0575b505050505081526020016007820180548060200260200160405190810160405280929190818152602001828054801561204c57602002820191906000526020600020905b815481526020019060010190808311612038575b505050505081526020016008820154815260200160098201548152602001600a8201548152602001600b820154815250509050919050565b6120b86040518060a00160405280600081526020016000815260200160608152602001606081526020016000151581525090565b73ffffffffffffffffffffffffffffffffffffffff841660009081526007602090815260408083208684529091529020548210612177576040517f08c379a000000000000000000000000000000000000000000000000000000000815260206004820152602360248201527f6f70656e65644c6f6f74626f78496e64657820646f6573206e6f74206578697360448201527f74732e0000000000000000000000000000000000000000000000000000000000606482015260840161089d565b73ffffffffffffffffffffffffffffffffffffffff8416600090815260076020908152604080832086845290915290208054839081106121b9576121b9614309565b90600052602060002090600502016040518060a001604052908160008201548152602001600182015481526020016002820180548060200260200160405190810160405280929190818152602001828054801561223557602002820191906000526020600020905b815481526020019060010190808311612221575b505050505081526020016003820180548060200260200160405190810160405280929190818152602001828054801561228d57602002820191906000526020600020905b815481526020019060010190808311612279575b50505091835250506004919091015460ff161515602090910152949350505050565b7f5b618ab2fee761c09bf71319707cefa62eccc93dcc483744898e6c3acf4526436122d981612bf2565b600080547fffffffffffffffffffffffff00000000000000000000000000000000000000001673ffffffffffffffffffffffffffffffffffffffff84161790555050565b600080805b73ffffffffffffffffffffffffffffffffffffffff851660009081526007602090815260408083208784529091529020548110156123eb5773ffffffffffffffffffffffffffffffffffffffff85166000908152600760209081526040808320878452909152812080548390811061239c5761239c614309565b90600052602060002090600502019050806001015443101580156123c55750600481015460ff16155b156123d857826123d481614338565b9350505b50806123e381614338565b915050612322565b509392505050565b73ffffffffffffffffffffffffffffffffffffffff84166000908152600760209081526040808320868452909152812054606091908410612435576000612471565b73ffffffffffffffffffffffffffffffffffffffff861660009081526007602090815260408083208884529091529020546124719085906142e3565b90506000838211156124835783612485565b815b905060008167ffffffffffffffff8111156124a2576124a2614019565b60405190808252806020026020018201604052801561250757816020015b6124f46040518060a00160405280600081526020016000815260200160608152602001606081526020016000151581525090565b8152602001906001900390816124c05790505b50905060005b8281101561267f5773ffffffffffffffffffffffffffffffffffffffff891660009081526007602090815260408083208b8452909152902061254f82896142f6565b8154811061255f5761255f614309565b90600052602060002090600502016040518060a00160405290816000820154815260200160018201548152602001600282018054806020026020016040519081016040528092919081815260200182805480156125db57602002820191906000526020600020905b8154815260200190600101908083116125c7575b505050505081526020016003820180548060200260200160405190810160405280929190818152602001828054801561263357602002820191906000526020600020905b81548152602001906001019080831161261f575b50505091835250506004919091015460ff161515602090910152825183908390811061266157612661614309565b6020026020010181905250808061267790614338565b91505061250d565b50979650505050505050565b6000828152600260205260409020600101546126a681612bf2565b6126b08383612d0e565b505050565b606060006126c161170c565b67ffffffffffffffff8111156126d9576126d9614019565b60405190808252806020026020018201604052801561279a57816020015b61278760405180610180016040528060008152602001600073ffffffffffffffffffffffffffffffffffffffff1681526020016060815260200160608152602001600073ffffffffffffffffffffffffffffffffffffffff168152602001606081526020016060815260200160608152602001600081526020016000815260200160008152602001600081525090565b8152602001906001900390816126f75790505b50905060005b6127a861170c565b8110156112d957600660006127be600484612b89565b8152602080820192909252604090810160002081516101808101835281548152600182015473ffffffffffffffffffffffffffffffffffffffff168185015260028201805484518187028101870186528181529295939486019383018282801561284757602002820191906000526020600020905b815481526020019060010190808311612833575b505050505081526020016003820180548060200260200160405190810160405280929190818152602001828054801561289f57602002820191906000526020600020905b81548152602001906001019080831161288b575b5050509183525050600482015473ffffffffffffffffffffffffffffffffffffffff16602080830191909152600583018054604080518285028101850182528281529401939283018282801561291457602002820191906000526020600020905b815481526020019060010190808311612900575b505050505081526020016006820180548060200260200160405190810160405280929190818152602001828054801561296c57602002820191906000526020600020905b815481526020019060010190808311612958575b50505050508152602001600782018054806020026020016040519081016040528092919081815260200182805480156129c457602002820191906000526020600020905b8154815260200190600101908083116129b0575b505050505081526020016008820154815260200160098201548152602001600a8201548152602001600b82015481525050828281518110612a0757612a07614309565b60200260200101819052508080612a1d90614338565b9150506127a0565b612a2d612e01565b60005b60076000612a3c612c0f565b73ffffffffffffffffffffffffffffffffffffffff16815260208082019290925260409081016000908120858252909252902054811015612a9557612a8382826000612e8c565b80612a8d81614338565b915050612a30565b506116eb6001600355565b6000612aac6004612b7f565b8210612b14576040517f08c379a000000000000000000000000000000000000000000000000000000000815260206004820152601360248201527f496e646578206f7574206f6620626f756e647300000000000000000000000000604482015260640161089d565b610765600483612b89565b60606117186004613474565b6000805473ffffffffffffffffffffffffffffffffffffffff163303612b7657507fffffffffffffffffffffffffffffffffffffffffffffffffffffffffffffffec36013560601c90565b503390565b3390565b6000610765825490565b6000612b958383613481565b9392505050565b60007fffffffff0000000000000000000000000000000000000000000000000000000082167f7965db0b0000000000000000000000000000000000000000000000000000000014806107655750610765826134ab565b6116eb81612bfe612c0f565b613542565b6000612b9583836135fc565b6000611718612b2b565b600082815260026020908152604080832073ffffffffffffffffffffffffffffffffffffffff8516845290915290205460ff16610c2657600082815260026020908152604080832073ffffffffffffffffffffffffffffffffffffffff85168452909152902080547fffffffffffffffffffffffffffffffffffffffffffffffffffffffffffffff00166001179055612cb0612c0f565b73ffffffffffffffffffffffffffffffffffffffff168173ffffffffffffffffffffffffffffffffffffffff16837f2f8788117e7eff1d82e926ec794901d17c78024a50270940304540a733656f0d60405160405180910390a45050565b600082815260026020908152604080832073ffffffffffffffffffffffffffffffffffffffff8516845290915290205460ff1615610c2657600082815260026020908152604080832073ffffffffffffffffffffffffffffffffffffffff85168452909152902080547fffffffffffffffffffffffffffffffffffffffffffffffffffffffffffffff00169055612da3612c0f565b73ffffffffffffffffffffffffffffffffffffffff168173ffffffffffffffffffffffffffffffffffffffff16837ff6391f5c32d9c69d2a47ea670b442974b53935d1edc7fd64eb21e047a839171b60405160405180910390a45050565b600260035403612e6d576040517f08c379a000000000000000000000000000000000000000000000000000000000815260206004820152601f60248201527f5265656e7472616e637947756172643a207265656e7472616e742063616c6c00604482015260640161089d565b6002600355565b60008181526001830160205260408120541515612b95565b600060076000612e9a612c0f565b73ffffffffffffffffffffffffffffffffffffffff1673ffffffffffffffffffffffffffffffffffffffff16815260200190815260200160002060008581526020019081526020016000208381548110612ef657612ef6614309565b9060005260206000209060050201905060006006600086815260200190815260200160002090508160010154431080612f335750600482015460ff165b15612fcf578215612fc857604080517f08c379a00000000000000000000000000000000000000000000000000000000081526020600482015260248101919091527f4c6f6f74626f7820756e636c61696d61626c652e20436c61696d20626c6f636b60448201527f206e6f742072656163686564206f7220616c726561647920636c61696d65642e606482015260840161089d565b5050505050565b6000816009015467ffffffffffffffff811115612fee57612fee614019565b604051908082528060200260200182016040528015613017578160200160208202803683370190505b5090506000826009015467ffffffffffffffff81111561303957613039614019565b604051908082528060200260200182016040528015613062578160200160208202803683370190505b50905060005b83600901548110156132025760006001866001015461308791906142e3565b40613090612c0f565b89846040516020016130e0949392919093845260609290921b7fffffffffffffffffffffffffffffffffffffffff0000000000000000000000001660208401526034830152605482015260740190565b6040516020818303038152906040528051906020012060001c9050600085600801548261310d919061465e565b905060005b60078701548110156131ec57600087600701828154811061313557613135614309565b90600052602060002001549050828111156131cc5787600501828154811061315f5761315f614309565b906000526020600020015487868151811061317c5761317c614309565b60200260200101818152505087600601828154811061319d5761319d614309565b90600052602060002001548686815181106131ba576131ba614309565b602002602001018181525050506131ec565b6131d681846142e3565b92505080806131e490614338565b915050613112565b50505080806131fa90614338565b915050613068565b506004838101546040517f91d148540000000000000000000000000000000000000000000000000000000081527fc9eb32e43bf5ecbceacf00b32281dfc5d6d700a0db676ea26ccf938a385ac3f79281019290925230602483015273ffffffffffffffffffffffffffffffffffffffff16906391d1485490604401602060405180830381865afa15801561329a573d6000803e3d6000fd5b505050506040513d601f19601f820116820180604052508101906132be91906144e2565b1561334257600483015473ffffffffffffffffffffffffffffffffffffffff166308f427c76132eb612c0f565b84846040518463ffffffff1660e01b815260040161330b93929190614699565b600060405180830381600087803b15801561332557600080fd5b505af1158015613339573d6000803e3d6000fd5b505050506133bf565b600483015473ffffffffffffffffffffffffffffffffffffffff16632eb2c2d63061336b612c0f565b85856040518563ffffffff1660e01b815260040161338c94939291906146da565b600060405180830381600087803b1580156133a657600080fd5b505af11580156133ba573d6000803e3d6000fd5b505050505b81516133d490600286019060208501906139fc565b5080516133ea90600386019060208401906139fc565b506004840180547fffffffffffffffffffffffffffffffffffffffffffffffffffffffffffffff00166001179055867fa90466a1141d4242085b5ac5c6634a366ec37ad66c953e191b51c3441e56010e84613443612c0f565b898686604051613457959493929190614725565b60405180910390a250505050505050565b6000612b9583836136ef565b60606000612b958361373e565b600082600001828154811061349857613498614309565b9060005260206000200154905092915050565b60007fffffffff0000000000000000000000000000000000000000000000000000000082167f4e2312e000000000000000000000000000000000000000000000000000000000148061076557507f01ffc9a7000000000000000000000000000000000000000000000000000000007fffffffff00000000000000000000000000000000000000000000000000000000831614610765565b600082815260026020908152604080832073ffffffffffffffffffffffffffffffffffffffff8516845290915290205460ff16610c26576135828161379a565b61358d8360206137b9565b60405160200161359e9291906147b0565b604080517fffffffffffffffffffffffffffffffffffffffffffffffffffffffffffffffe0818403018152908290527f08c379a000000000000000000000000000000000000000000000000000000000825261089d91600401614831565b600081815260018301602052604081205480156136e55760006136206001836142e3565b8554909150600090613634906001906142e3565b905081811461369957600086600001828154811061365457613654614309565b906000526020600020015490508087600001848154811061367757613677614309565b6000918252602080832090910192909255918252600188019052604090208390555b85548690806136aa576136aa614882565b600190038181906000526020600020016000905590558560010160008681526020019081526020016000206000905560019350505050610765565b6000915050610765565b600081815260018301602052604081205461373657508154600181810184556000848152602080822090930184905584548482528286019093526040902091909155610765565b506000610765565b60608160000180548060200260200160405190810160405280929190818152602001828054801561378e57602002820191906000526020600020905b81548152602001906001019080831161377a575b50505050509050919050565b606061076573ffffffffffffffffffffffffffffffffffffffff831660145b606060006137c88360026148b1565b6137d39060026142f6565b67ffffffffffffffff8111156137eb576137eb614019565b6040519080825280601f01601f191660200182016040528015613815576020820181803683370190505b5090507f30000000000000000000000000000000000000000000000000000000000000008160008151811061384c5761384c614309565b60200101907effffffffffffffffffffffffffffffffffffffffffffffffffffffffffffff1916908160001a9053507f7800000000000000000000000000000000000000000000000000000000000000816001815181106138af576138af614309565b60200101907effffffffffffffffffffffffffffffffffffffffffffffffffffffffffffff1916908160001a90535060006138eb8460026148b1565b6138f69060016142f6565b90505b6001811115613993577f303132333435363738396162636465660000000000000000000000000000000085600f166010811061393757613937614309565b1a60f81b82828151811061394d5761394d614309565b60200101907effffffffffffffffffffffffffffffffffffffffffffffffffffffffffffff1916908160001a90535060049490941c9361398c816148ee565b90506138f9565b508315612b95576040517f08c379a000000000000000000000000000000000000000000000000000000000815260206004820181905260248201527f537472696e67733a20686578206c656e67746820696e73756666696369656e74604482015260640161089d565b828054828255906000526020600020908101928215613a37579160200282015b82811115613a37578251825591602001919060010190613a1c565b50613a43929150613a47565b5090565b5b80821115613a435760008155600101613a48565b60008060408385031215613a6f57600080fd5b50508035926020909101359150565b600081518084526020808501945080840160005b83811015613aae57815187529582019590820190600101613a92565b509495945050505050565b6000602080830181845280855180835260408601915060408160051b870101925083870160005b82811015613b2c577fffffffffffffffffffffffffffffffffffffffffffffffffffffffffffffffc0888603018452613b1a858351613a7e565b94509285019290850190600101613ae0565b5092979650505050505050565b600060208284031215613b4b57600080fd5b81357fffffffff0000000000000000000000000000000000000000000000000000000081168114612b9557600080fd5b600060208284031215613b8d57600080fd5b5035919050565b602081526000612b956020830184613a7e565b803573ffffffffffffffffffffffffffffffffffffffff81168114613bcb57600080fd5b919050565b60008060408385031215613be357600080fd5b82359150613bf360208401613ba7565b90509250929050565b600060208284031215613c0e57600080fd5b612b9582613ba7565b6000610180825184526020830151613c47602086018273ffffffffffffffffffffffffffffffffffffffff169052565b506040830151816040860152613c5f82860182613a7e565b91505060608301518482036060860152613c798282613a7e565b9150506080830151613ca3608086018273ffffffffffffffffffffffffffffffffffffffff169052565b5060a083015184820360a0860152613cbb8282613a7e565b91505060c083015184820360c0860152613cd58282613a7e565b91505060e083015184820360e0860152613cef8282613a7e565b610100858101519087015261012080860151908701526101408086015190870152610160948501519490950193909352509192915050565b6000602080830181845280855180835260408601915060408160051b870101925083870160005b82811015613b2c577fffffffffffffffffffffffffffffffffffffffffffffffffffffffffffffffc0888603018452613d88858351613c17565b94509285019290850190600101613d4e565b60008060408385031215613dad57600080fd5b613db683613ba7565b946020939093013593505050565b80518252602081015160208301526000604082015160a06040850152613ded60a0850182613a7e565b905060608301518482036060860152613e068282613a7e565b9150506080830151151560808501528091505092915050565b6000602080830181845280855180835260408601915060408160051b870101925083870160005b82811015613b2c577fffffffffffffffffffffffffffffffffffffffffffffffffffffffffffffffc0888603018452613e80858351613dc4565b94509285019290850190600101613e46565b806040810183101561076557600080fd5b600080600080600080600060e0888a031215613ebe57600080fd5b87359650613ecf8960208a01613e92565b9550606088013567ffffffffffffffff80821115613eec57600080fd5b613ef88b838c01613e92565b965060808a0135915080821115613f0e57600080fd5b613f1a8b838c01613e92565b955060a08a0135915080821115613f3057600080fd5b818a0191508a601f830112613f4457600080fd5b813581811115613f5357600080fd5b8b60208260051b8501011115613f6857600080fd5b60208301955080945050505060c0880135905092959891949750929550565b602081526000612b956020830184613c17565b600080600060608486031215613faf57600080fd5b613fb884613ba7565b95602085013595506040909401359392505050565b602081526000612b956020830184613dc4565b60008060008060808587031215613ff657600080fd5b613fff85613ba7565b966020860135965060408601359560600135945092505050565b7f4e487b7100000000000000000000000000000000000000000000000000000000600052604160045260246000fd5b604051601f82017fffffffffffffffffffffffffffffffffffffffffffffffffffffffffffffffe016810167ffffffffffffffff8111828210171561408f5761408f614019565b604052919050565b600082601f8301126140a857600080fd5b8135602067ffffffffffffffff8211156140c4576140c4614019565b8160051b6140d3828201614048565b92835284810182019282810190878511156140ed57600080fd5b83870192505b8483101561410c578235825291830191908301906140f3565b979650505050505050565b600082601f83011261412857600080fd5b813567ffffffffffffffff81111561414257614142614019565b61417360207fffffffffffffffffffffffffffffffffffffffffffffffffffffffffffffffe0601f84011601614048565b81815284602083860101111561418857600080fd5b816020850160208301376000918101602001919091529392505050565b600080600080600060a086880312156141bd57600080fd5b6141c686613ba7565b94506141d460208701613ba7565b9350604086013567ffffffffffffffff808211156141f157600080fd5b6141fd89838a01614097565b9450606088013591508082111561421357600080fd5b61421f89838a01614097565b9350608088013591508082111561423557600080fd5b5061424288828901614117565b9150509295509295909350565b600080600080600060a0868803121561426757600080fd5b61427086613ba7565b945061427e60208701613ba7565b93506040860135925060608601359150608086013567ffffffffffffffff8111156142a857600080fd5b61424288828901614117565b7f4e487b7100000000000000000000000000000000000000000000000000000000600052601160045260246000fd5b81810381811115610765576107656142b4565b80820180821115610765576107656142b4565b7f4e487b7100000000000000000000000000000000000000000000000000000000600052603260045260246000fd5b60007fffffffffffffffffffffffffffffffffffffffffffffffffffffffffffffffff8203614369576143696142b4565b5060010190565b6000815480845260208085019450836000528060002060005b83811015613aae57815487529582019560019182019101614389565b6000610180825484526143cf600184015473ffffffffffffffffffffffffffffffffffffffff1690565b73ffffffffffffffffffffffffffffffffffffffff1660208501526040840181905261440081850160028501614370565b905083810360608501526144178160038501614370565b905061443a600484015473ffffffffffffffffffffffffffffffffffffffff1690565b73ffffffffffffffffffffffffffffffffffffffff16608085015283810360a085015261446a8160058501614370565b905083810360c08501526144818160068501614370565b905083810360e08501526144988160078501614370565b60088401546101008601526009840154610120860152600a840154610140860152600b909301546101609094019390935250919050565b602081526000612b9560208301846143a5565b6000602082840312156144f457600080fd5b81518015158114612b9557600080fd5b73ffffffffffffffffffffffffffffffffffffffff841681526060602082015260006145336060830185614370565b82810360408401526145458185614370565b9695505050505050565b600073ffffffffffffffffffffffffffffffffffffffff808716835280861660208401525060a0604083015261458860a0830185614370565b828103606084015261459a8185614370565b838103608090940193909352505060008152602001949350505050565b6040815260006145ca60408301856143a5565b905073ffffffffffffffffffffffffffffffffffffffff831660208301529392505050565b60008083357fffffffffffffffffffffffffffffffffffffffffffffffffffffffffffffffe184360301811261462457600080fd5b83018035915067ffffffffffffffff82111561463f57600080fd5b6020019150600581901b360382131561465757600080fd5b9250929050565b600082614694577f4e487b7100000000000000000000000000000000000000000000000000000000600052601260045260246000fd5b500690565b73ffffffffffffffffffffffffffffffffffffffff841681526060602082015260006146c86060830185613a7e565b82810360408401526145458185613a7e565b600073ffffffffffffffffffffffffffffffffffffffff808716835280861660208401525060a0604083015261471360a0830185613a7e565b828103606084015261459a8185613a7e565b60a08152600061473860a08301886143a5565b73ffffffffffffffffffffffffffffffffffffffff87166020840152856040840152828103606084015261476c8186613a7e565b905082810360808401526147808185613a7e565b98975050505050505050565b60005b838110156147a757818101518382015260200161478f565b50506000910152565b7f416363657373436f6e74726f6c3a206163636f756e74200000000000000000008152600083516147e881601785016020880161478c565b7f206973206d697373696e6720726f6c6520000000000000000000000000000000601791840191820152835161482581602884016020880161478c565b01602801949350505050565b602081526000825180602084015261485081604085016020870161478c565b601f017fffffffffffffffffffffffffffffffffffffffffffffffffffffffffffffffe0169190910160400192915050565b7f4e487b7100000000000000000000000000000000000000000000000000000000600052603160045260246000fd5b6000817fffffffffffffffffffffffffffffffffffffffffffffffffffffffffffffffff04831182151516156148e9576148e96142b4565b500290565b6000816148fd576148fd6142b4565b507fffffffffffffffffffffffffffffffffffffffffffffffffffffffffffffffff019056fea26469706673582212204a19e12bfb45952938e7a0b1ee5afa9cc66960d747a3e339148ad7e69ed83a3164736f6c63430008100033",
  "linkReferences": {},
  "deployedLinkReferences": {}
}