{
  "_format": "hh-sol-artifact-1",
  "contractName": "Game_Lootbox_Manager",
  "sourceName": "contracts/Lootbox_Manager/Game_Lootbox_Manager.sol",
  "abi": [
    {
      "inputs": [
        {
          "internalType": "address",
          "name": "_forwarder",
          "type": "address"
        },
        {
          "internalType": "bytes32",
          "name": "_systemId",
          "type": "bytes32"
        }
      ],
      "stateMutability": "nonpayable",
      "type": "constructor"
    },
    {
      "anonymous": false,
      "inputs": [
        {
          "indexed": true,
          "internalType": "uint256",
          "name": "lootboxId",
          "type": "uint256"
        },
        {
          "components": [
            {
              "internalType": "uint256",
              "name": "id",
              "type": "uint256"
            },
            {
              "internalType": "contract IERC1155",
              "name": "inputCollection",
              "type": "address"
            },
            {
              "internalType": "uint256[]",
              "name": "inputCollectionItemIds",
              "type": "uint256[]"
            },
            {
              "internalType": "uint256[]",
              "name": "inputCollectionItemAmounts",
              "type": "uint256[]"
            },
            {
              "internalType": "contract IERC1155",
              "name": "outputCollection",
              "type": "address"
            },
            {
              "internalType": "uint256[]",
              "name": "outputCollectionItemIds",
              "type": "uint256[]"
            },
            {
              "internalType": "uint256[]",
              "name": "outputCollectionItemAmounts",
              "type": "uint256[]"
            },
            {
              "internalType": "uint256[]",
              "name": "outputCollectionItemWeights",
              "type": "uint256[]"
            },
            {
              "internalType": "uint256",
              "name": "outputTotalItemsWeight",
              "type": "uint256"
            },
            {
              "internalType": "uint256",
              "name": "outputTotalItems",
              "type": "uint256"
            },
            {
              "internalType": "uint256",
              "name": "opens",
              "type": "uint256"
            },
            {
              "internalType": "uint256",
              "name": "lastUpdatedAt",
              "type": "uint256"
            }
          ],
          "indexed": false,
          "internalType": "struct IGame_Lootbox_Manager.Lootbox",
          "name": "lootbox",
          "type": "tuple"
        },
        {
          "indexed": false,
          "internalType": "address",
          "name": "user",
          "type": "address"
        },
        {
          "indexed": false,
          "internalType": "uint256",
          "name": "openedLootboxIndex",
          "type": "uint256"
        },
        {
          "indexed": false,
          "internalType": "uint256[]",
          "name": "outputCollectionItemIds",
          "type": "uint256[]"
        },
        {
          "indexed": false,
          "internalType": "uint256[]",
          "name": "outputCollectionItemAmounts",
          "type": "uint256[]"
        }
      ],
      "name": "LootboxClaimed",
      "type": "event"
    },
    {
      "anonymous": false,
      "inputs": [
        {
          "indexed": true,
          "internalType": "uint256",
          "name": "lootboxId",
          "type": "uint256"
        },
        {
          "components": [
            {
              "internalType": "uint256",
              "name": "id",
              "type": "uint256"
            },
            {
              "internalType": "contract IERC1155",
              "name": "inputCollection",
              "type": "address"
            },
            {
              "internalType": "uint256[]",
              "name": "inputCollectionItemIds",
              "type": "uint256[]"
            },
            {
              "internalType": "uint256[]",
              "name": "inputCollectionItemAmounts",
              "type": "uint256[]"
            },
            {
              "internalType": "contract IERC1155",
              "name": "outputCollection",
              "type": "address"
            },
            {
              "internalType": "uint256[]",
              "name": "outputCollectionItemIds",
              "type": "uint256[]"
            },
            {
              "internalType": "uint256[]",
              "name": "outputCollectionItemAmounts",
              "type": "uint256[]"
            },
            {
              "internalType": "uint256[]",
              "name": "outputCollectionItemWeights",
              "type": "uint256[]"
            },
            {
              "internalType": "uint256",
              "name": "outputTotalItemsWeight",
              "type": "uint256"
            },
            {
              "internalType": "uint256",
              "name": "outputTotalItems",
              "type": "uint256"
            },
            {
              "internalType": "uint256",
              "name": "opens",
              "type": "uint256"
            },
            {
              "internalType": "uint256",
              "name": "lastUpdatedAt",
              "type": "uint256"
            }
          ],
          "indexed": false,
          "internalType": "struct IGame_Lootbox_Manager.Lootbox",
          "name": "lootbox",
          "type": "tuple"
        },
        {
          "indexed": false,
          "internalType": "address",
          "name": "user",
          "type": "address"
        }
      ],
      "name": "LootboxOpened",
      "type": "event"
    },
    {
      "anonymous": false,
      "inputs": [
        {
          "indexed": true,
          "internalType": "uint256",
          "name": "lootboxId",
          "type": "uint256"
        },
        {
          "components": [
            {
              "internalType": "uint256",
              "name": "id",
              "type": "uint256"
            },
            {
              "internalType": "contract IERC1155",
              "name": "inputCollection",
              "type": "address"
            },
            {
              "internalType": "uint256[]",
              "name": "inputCollectionItemIds",
              "type": "uint256[]"
            },
            {
              "internalType": "uint256[]",
              "name": "inputCollectionItemAmounts",
              "type": "uint256[]"
            },
            {
              "internalType": "contract IERC1155",
              "name": "outputCollection",
              "type": "address"
            },
            {
              "internalType": "uint256[]",
              "name": "outputCollectionItemIds",
              "type": "uint256[]"
            },
            {
              "internalType": "uint256[]",
              "name": "outputCollectionItemAmounts",
              "type": "uint256[]"
            },
            {
              "internalType": "uint256[]",
              "name": "outputCollectionItemWeights",
              "type": "uint256[]"
            },
            {
              "internalType": "uint256",
              "name": "outputTotalItemsWeight",
              "type": "uint256"
            },
            {
              "internalType": "uint256",
              "name": "outputTotalItems",
              "type": "uint256"
            },
            {
              "internalType": "uint256",
              "name": "opens",
              "type": "uint256"
            },
            {
              "internalType": "uint256",
              "name": "lastUpdatedAt",
              "type": "uint256"
            }
          ],
          "indexed": false,
          "internalType": "struct IGame_Lootbox_Manager.Lootbox",
          "name": "lootbox",
          "type": "tuple"
        }
      ],
      "name": "LootboxRemoved",
      "type": "event"
    },
    {
      "anonymous": false,
      "inputs": [
        {
          "indexed": true,
          "internalType": "uint256",
          "name": "lootboxId",
          "type": "uint256"
        },
        {
          "components": [
            {
              "internalType": "uint256",
              "name": "id",
              "type": "uint256"
            },
            {
              "internalType": "contract IERC1155",
              "name": "inputCollection",
              "type": "address"
            },
            {
              "internalType": "uint256[]",
              "name": "inputCollectionItemIds",
              "type": "uint256[]"
            },
            {
              "internalType": "uint256[]",
              "name": "inputCollectionItemAmounts",
              "type": "uint256[]"
            },
            {
              "internalType": "contract IERC1155",
              "name": "outputCollection",
              "type": "address"
            },
            {
              "internalType": "uint256[]",
              "name": "outputCollectionItemIds",
              "type": "uint256[]"
            },
            {
              "internalType": "uint256[]",
              "name": "outputCollectionItemAmounts",
              "type": "uint256[]"
            },
            {
              "internalType": "uint256[]",
              "name": "outputCollectionItemWeights",
              "type": "uint256[]"
            },
            {
              "internalType": "uint256",
              "name": "outputTotalItemsWeight",
              "type": "uint256"
            },
            {
              "internalType": "uint256",
              "name": "outputTotalItems",
              "type": "uint256"
            },
            {
              "internalType": "uint256",
              "name": "opens",
              "type": "uint256"
            },
            {
              "internalType": "uint256",
              "name": "lastUpdatedAt",
              "type": "uint256"
            }
          ],
          "indexed": false,
          "internalType": "struct IGame_Lootbox_Manager.Lootbox",
          "name": "lootbox",
          "type": "tuple"
        }
      ],
      "name": "LootboxSet",
      "type": "event"
    },
    {
      "anonymous": false,
      "inputs": [
        {
          "indexed": true,
          "internalType": "bytes32",
          "name": "role",
          "type": "bytes32"
        },
        {
          "indexed": true,
          "internalType": "bytes32",
          "name": "previousAdminRole",
          "type": "bytes32"
        },
        {
          "indexed": true,
          "internalType": "bytes32",
          "name": "newAdminRole",
          "type": "bytes32"
        }
      ],
      "name": "RoleAdminChanged",
      "type": "event"
    },
    {
      "anonymous": false,
      "inputs": [
        {
          "indexed": true,
          "internalType": "bytes32",
          "name": "role",
          "type": "bytes32"
        },
        {
          "indexed": true,
          "internalType": "address",
          "name": "account",
          "type": "address"
        },
        {
          "indexed": true,
          "internalType": "address",
          "name": "sender",
          "type": "address"
        }
      ],
      "name": "RoleGranted",
      "type": "event"
    },
    {
      "anonymous": false,
      "inputs": [
        {
          "indexed": true,
          "internalType": "bytes32",
          "name": "role",
          "type": "bytes32"
        },
        {
          "indexed": true,
          "internalType": "address",
          "name": "account",
          "type": "address"
        },
        {
          "indexed": true,
          "internalType": "address",
          "name": "sender",
          "type": "address"
        }
      ],
      "name": "RoleRevoked",
      "type": "event"
    },
    {
      "inputs": [],
      "name": "DEFAULT_ADMIN_ROLE",
      "outputs": [
        {
          "internalType": "bytes32",
          "name": "",
          "type": "bytes32"
        }
      ],
      "stateMutability": "view",
      "type": "function"
    },
    {
      "inputs": [],
      "name": "allLootboxIds",
      "outputs": [
        {
          "internalType": "uint256[]",
          "name": "",
          "type": "uint256[]"
        }
      ],
      "stateMutability": "view",
      "type": "function"
    },
    {
      "inputs": [],
      "name": "allLootboxLastUpdates",
      "outputs": [
        {
          "internalType": "uint256[][]",
          "name": "",
          "type": "uint256[][]"
        }
      ],
      "stateMutability": "view",
      "type": "function"
    },
    {
      "inputs": [],
      "name": "allLootboxes",
      "outputs": [
        {
          "components": [
            {
              "internalType": "uint256",
              "name": "id",
              "type": "uint256"
            },
            {
              "internalType": "contract IERC1155",
              "name": "inputCollection",
              "type": "address"
            },
            {
              "internalType": "uint256[]",
              "name": "inputCollectionItemIds",
              "type": "uint256[]"
            },
            {
              "internalType": "uint256[]",
              "name": "inputCollectionItemAmounts",
              "type": "uint256[]"
            },
            {
              "internalType": "contract IERC1155",
              "name": "outputCollection",
              "type": "address"
            },
            {
              "internalType": "uint256[]",
              "name": "outputCollectionItemIds",
              "type": "uint256[]"
            },
            {
              "internalType": "uint256[]",
              "name": "outputCollectionItemAmounts",
              "type": "uint256[]"
            },
            {
              "internalType": "uint256[]",
              "name": "outputCollectionItemWeights",
              "type": "uint256[]"
            },
            {
              "internalType": "uint256",
              "name": "outputTotalItemsWeight",
              "type": "uint256"
            },
            {
              "internalType": "uint256",
              "name": "outputTotalItems",
              "type": "uint256"
            },
            {
              "internalType": "uint256",
              "name": "opens",
              "type": "uint256"
            },
            {
              "internalType": "uint256",
              "name": "lastUpdatedAt",
              "type": "uint256"
            }
          ],
          "internalType": "struct IGame_Lootbox_Manager.Lootbox[]",
          "name": "",
          "type": "tuple[]"
        }
      ],
      "stateMutability": "view",
      "type": "function"
    },
    {
      "inputs": [
        {
          "internalType": "address",
          "name": "_address",
          "type": "address"
        },
        {
          "internalType": "uint256",
          "name": "_lootboxId",
          "type": "uint256"
        }
      ],
      "name": "allOpenedLootboxes",
      "outputs": [
        {
          "components": [
            {
              "internalType": "uint256",
              "name": "lootboxId",
              "type": "uint256"
            },
            {
              "internalType": "uint256",
              "name": "claimSeedBlock",
              "type": "uint256"
            },
            {
              "internalType": "uint256[]",
              "name": "outputCollectionItemIds",
              "type": "uint256[]"
            },
            {
              "internalType": "uint256[]",
              "name": "outputCollectionItemAmounts",
              "type": "uint256[]"
            },
            {
              "internalType": "bool",
              "name": "claimed",
              "type": "bool"
            }
          ],
          "internalType": "struct IGame_Lootbox_Manager.OpenedLootbox[]",
          "name": "",
          "type": "tuple[]"
        }
      ],
      "stateMutability": "view",
      "type": "function"
    },
    {
      "inputs": [
        {
          "internalType": "uint256",
          "name": "_lootboxId",
          "type": "uint256"
        },
        {
          "internalType": "uint256",
          "name": "_openedLootboxIndex",
          "type": "uint256"
        }
      ],
      "name": "claimLootbox",
      "outputs": [],
      "stateMutability": "nonpayable",
      "type": "function"
    },
    {
      "inputs": [
        {
          "internalType": "uint256",
          "name": "_lootboxId",
          "type": "uint256"
        }
      ],
      "name": "claimLootboxes",
      "outputs": [],
      "stateMutability": "nonpayable",
      "type": "function"
    },
    {
      "inputs": [
        {
          "internalType": "bytes32",
          "name": "role",
          "type": "bytes32"
        }
      ],
      "name": "getRoleAdmin",
      "outputs": [
        {
          "internalType": "bytes32",
          "name": "",
          "type": "bytes32"
        }
      ],
      "stateMutability": "view",
      "type": "function"
    },
    {
      "inputs": [
        {
          "internalType": "bytes32",
          "name": "role",
          "type": "bytes32"
        },
        {
          "internalType": "address",
          "name": "account",
          "type": "address"
        }
      ],
      "name": "grantRole",
      "outputs": [],
      "stateMutability": "nonpayable",
      "type": "function"
    },
    {
      "inputs": [
        {
          "internalType": "bytes32",
          "name": "role",
          "type": "bytes32"
        },
        {
          "internalType": "address",
          "name": "account",
          "type": "address"
        }
      ],
      "name": "hasRole",
      "outputs": [
        {
          "internalType": "bool",
          "name": "",
          "type": "bool"
        }
      ],
      "stateMutability": "view",
      "type": "function"
    },
    {
      "inputs": [
        {
          "internalType": "address",
          "name": "forwarder",
          "type": "address"
        }
      ],
      "name": "isTrustedForwarder",
      "outputs": [
        {
          "internalType": "bool",
          "name": "",
          "type": "bool"
        }
      ],
      "stateMutability": "view",
      "type": "function"
    },
    {
      "inputs": [
        {
          "internalType": "uint256",
          "name": "_lootboxId",
          "type": "uint256"
        }
      ],
      "name": "lootbox",
      "outputs": [
        {
          "components": [
            {
              "internalType": "uint256",
              "name": "id",
              "type": "uint256"
            },
            {
              "internalType": "contract IERC1155",
              "name": "inputCollection",
              "type": "address"
            },
            {
              "internalType": "uint256[]",
              "name": "inputCollectionItemIds",
              "type": "uint256[]"
            },
            {
              "internalType": "uint256[]",
              "name": "inputCollectionItemAmounts",
              "type": "uint256[]"
            },
            {
              "internalType": "contract IERC1155",
              "name": "outputCollection",
              "type": "address"
            },
            {
              "internalType": "uint256[]",
              "name": "outputCollectionItemIds",
              "type": "uint256[]"
            },
            {
              "internalType": "uint256[]",
              "name": "outputCollectionItemAmounts",
              "type": "uint256[]"
            },
            {
              "internalType": "uint256[]",
              "name": "outputCollectionItemWeights",
              "type": "uint256[]"
            },
            {
              "internalType": "uint256",
              "name": "outputTotalItemsWeight",
              "type": "uint256"
            },
            {
              "internalType": "uint256",
              "name": "outputTotalItems",
              "type": "uint256"
            },
            {
              "internalType": "uint256",
              "name": "opens",
              "type": "uint256"
            },
            {
              "internalType": "uint256",
              "name": "lastUpdatedAt",
              "type": "uint256"
            }
          ],
          "internalType": "struct IGame_Lootbox_Manager.Lootbox",
          "name": "",
          "type": "tuple"
        }
      ],
      "stateMutability": "view",
      "type": "function"
    },
    {
      "inputs": [
        {
          "internalType": "uint256",
          "name": "_index",
          "type": "uint256"
        }
      ],
      "name": "lootboxId",
      "outputs": [
        {
          "internalType": "uint256",
          "name": "",
          "type": "uint256"
        }
      ],
      "stateMutability": "view",
      "type": "function"
    },
    {
      "inputs": [
        {
          "internalType": "uint256",
          "name": "_lootboxId",
          "type": "uint256"
        }
      ],
      "name": "lootboxLastUpdate",
      "outputs": [
        {
          "internalType": "uint256[]",
          "name": "",
          "type": "uint256[]"
        }
      ],
      "stateMutability": "view",
      "type": "function"
    },
    {
      "inputs": [
        {
          "internalType": "address",
          "name": "",
          "type": "address"
        },
        {
          "internalType": "address",
          "name": "",
          "type": "address"
        },
        {
          "internalType": "uint256[]",
          "name": "",
          "type": "uint256[]"
        },
        {
          "internalType": "uint256[]",
          "name": "",
          "type": "uint256[]"
        },
        {
          "internalType": "bytes",
          "name": "",
          "type": "bytes"
        }
      ],
      "name": "onERC1155BatchReceived",
      "outputs": [
        {
          "internalType": "bytes4",
          "name": "",
          "type": "bytes4"
        }
      ],
      "stateMutability": "nonpayable",
      "type": "function"
    },
    {
      "inputs": [
        {
          "internalType": "address",
          "name": "",
          "type": "address"
        },
        {
          "internalType": "address",
          "name": "",
          "type": "address"
        },
        {
          "internalType": "uint256",
          "name": "",
          "type": "uint256"
        },
        {
          "internalType": "uint256",
          "name": "",
          "type": "uint256"
        },
        {
          "internalType": "bytes",
          "name": "",
          "type": "bytes"
        }
      ],
      "name": "onERC1155Received",
      "outputs": [
        {
          "internalType": "bytes4",
          "name": "",
          "type": "bytes4"
        }
      ],
      "stateMutability": "nonpayable",
      "type": "function"
    },
    {
      "inputs": [
        {
          "internalType": "uint256",
          "name": "_lootboxId",
          "type": "uint256"
        }
      ],
      "name": "openLootbox",
      "outputs": [],
      "stateMutability": "nonpayable",
      "type": "function"
    },
    {
      "inputs": [
        {
          "internalType": "address",
          "name": "_address",
          "type": "address"
        },
        {
          "internalType": "uint256",
          "name": "_lootboxId",
          "type": "uint256"
        },
        {
          "internalType": "uint256",
          "name": "_openedLootboxIndex",
          "type": "uint256"
        }
      ],
      "name": "openedLootbox",
      "outputs": [
        {
          "components": [
            {
              "internalType": "uint256",
              "name": "lootboxId",
              "type": "uint256"
            },
            {
              "internalType": "uint256",
              "name": "claimSeedBlock",
              "type": "uint256"
            },
            {
              "internalType": "uint256[]",
              "name": "outputCollectionItemIds",
              "type": "uint256[]"
            },
            {
              "internalType": "uint256[]",
              "name": "outputCollectionItemAmounts",
              "type": "uint256[]"
            },
            {
              "internalType": "bool",
              "name": "claimed",
              "type": "bool"
            }
          ],
          "internalType": "struct IGame_Lootbox_Manager.OpenedLootbox",
          "name": "",
          "type": "tuple"
        }
      ],
      "stateMutability": "view",
      "type": "function"
    },
    {
      "inputs": [
        {
          "internalType": "uint256",
          "name": "_startIndexInclusive",
          "type": "uint256"
        },
        {
          "internalType": "uint256",
          "name": "_limit",
          "type": "uint256"
        }
      ],
      "name": "paginateLootboxIds",
      "outputs": [
        {
          "internalType": "uint256[]",
          "name": "",
          "type": "uint256[]"
        }
      ],
      "stateMutability": "view",
      "type": "function"
    },
    {
      "inputs": [
        {
          "internalType": "uint256",
          "name": "_startIndexInclusive",
          "type": "uint256"
        },
        {
          "internalType": "uint256",
          "name": "_limit",
          "type": "uint256"
        }
      ],
      "name": "paginateLootboxLastUpdates",
      "outputs": [
        {
          "internalType": "uint256[][]",
          "name": "",
          "type": "uint256[][]"
        }
      ],
      "stateMutability": "view",
      "type": "function"
    },
    {
      "inputs": [
        {
          "internalType": "uint256",
          "name": "_startIndexInclusive",
          "type": "uint256"
        },
        {
          "internalType": "uint256",
          "name": "_limit",
          "type": "uint256"
        }
      ],
      "name": "paginateLootboxes",
      "outputs": [
        {
          "components": [
            {
              "internalType": "uint256",
              "name": "id",
              "type": "uint256"
            },
            {
              "internalType": "contract IERC1155",
              "name": "inputCollection",
              "type": "address"
            },
            {
              "internalType": "uint256[]",
              "name": "inputCollectionItemIds",
              "type": "uint256[]"
            },
            {
              "internalType": "uint256[]",
              "name": "inputCollectionItemAmounts",
              "type": "uint256[]"
            },
            {
              "internalType": "contract IERC1155",
              "name": "outputCollection",
              "type": "address"
            },
            {
              "internalType": "uint256[]",
              "name": "outputCollectionItemIds",
              "type": "uint256[]"
            },
            {
              "internalType": "uint256[]",
              "name": "outputCollectionItemAmounts",
              "type": "uint256[]"
            },
            {
              "internalType": "uint256[]",
              "name": "outputCollectionItemWeights",
              "type": "uint256[]"
            },
            {
              "internalType": "uint256",
              "name": "outputTotalItemsWeight",
              "type": "uint256"
            },
            {
              "internalType": "uint256",
              "name": "outputTotalItems",
              "type": "uint256"
            },
            {
              "internalType": "uint256",
              "name": "opens",
              "type": "uint256"
            },
            {
              "internalType": "uint256",
              "name": "lastUpdatedAt",
              "type": "uint256"
            }
          ],
          "internalType": "struct IGame_Lootbox_Manager.Lootbox[]",
          "name": "",
          "type": "tuple[]"
        }
      ],
      "stateMutability": "view",
      "type": "function"
    },
    {
      "inputs": [
        {
          "internalType": "address",
          "name": "_address",
          "type": "address"
        },
        {
          "internalType": "uint256",
          "name": "_lootboxId",
          "type": "uint256"
        },
        {
          "internalType": "uint256",
          "name": "_startIndexInclusive",
          "type": "uint256"
        },
        {
          "internalType": "uint256",
          "name": "_limit",
          "type": "uint256"
        }
      ],
      "name": "paginateOpenedLootboxes",
      "outputs": [
        {
          "components": [
            {
              "internalType": "uint256",
              "name": "lootboxId",
              "type": "uint256"
            },
            {
              "internalType": "uint256",
              "name": "claimSeedBlock",
              "type": "uint256"
            },
            {
              "internalType": "uint256[]",
              "name": "outputCollectionItemIds",
              "type": "uint256[]"
            },
            {
              "internalType": "uint256[]",
              "name": "outputCollectionItemAmounts",
              "type": "uint256[]"
            },
            {
              "internalType": "bool",
              "name": "claimed",
              "type": "bool"
            }
          ],
          "internalType": "struct IGame_Lootbox_Manager.OpenedLootbox[]",
          "name": "",
          "type": "tuple[]"
        }
      ],
      "stateMutability": "view",
      "type": "function"
    },
    {
      "inputs": [
        {
          "internalType": "uint256",
          "name": "_lootboxId",
          "type": "uint256"
        }
      ],
      "name": "removeLootbox",
      "outputs": [],
      "stateMutability": "nonpayable",
      "type": "function"
    },
    {
      "inputs": [
        {
          "internalType": "bytes32",
          "name": "role",
          "type": "bytes32"
        },
        {
          "internalType": "address",
          "name": "account",
          "type": "address"
        }
      ],
      "name": "renounceRole",
      "outputs": [],
      "stateMutability": "nonpayable",
      "type": "function"
    },
    {
      "inputs": [
        {
          "internalType": "bytes32",
          "name": "role",
          "type": "bytes32"
        },
        {
          "internalType": "address",
          "name": "account",
          "type": "address"
        }
      ],
      "name": "revokeRole",
      "outputs": [],
      "stateMutability": "nonpayable",
      "type": "function"
    },
    {
      "inputs": [
        {
          "internalType": "uint256",
          "name": "_offset",
          "type": "uint256"
        }
      ],
      "name": "setClaimableBlockOffset",
      "outputs": [],
      "stateMutability": "nonpayable",
      "type": "function"
    },
    {
      "inputs": [
        {
          "internalType": "uint256",
          "name": "_lootboxId",
          "type": "uint256"
        },
        {
          "internalType": "address[2]",
          "name": "_inputOutputCollections",
          "type": "address[2]"
        },
        {
          "internalType": "uint256[][2]",
          "name": "_inputOutputCollectionItemIds",
          "type": "uint256[][2]"
        },
        {
          "internalType": "uint256[][2]",
          "name": "_inputOutputCollectionItemAmounts",
          "type": "uint256[][2]"
        },
        {
          "internalType": "uint256[]",
          "name": "_outputCollectionItemWeights",
          "type": "uint256[]"
        },
        {
          "internalType": "uint256",
          "name": "_outputTotalItems",
          "type": "uint256"
        }
      ],
      "name": "setLootbox",
      "outputs": [],
      "stateMutability": "nonpayable",
      "type": "function"
    },
    {
      "inputs": [
        {
          "internalType": "bytes4",
          "name": "interfaceId",
          "type": "bytes4"
        }
      ],
      "name": "supportsInterface",
      "outputs": [
        {
          "internalType": "bool",
          "name": "",
          "type": "bool"
        }
      ],
      "stateMutability": "view",
      "type": "function"
    },
    {
      "inputs": [],
      "name": "systemId",
      "outputs": [
        {
          "internalType": "bytes32",
          "name": "",
          "type": "bytes32"
        }
      ],
      "stateMutability": "view",
      "type": "function"
    },
    {
      "inputs": [
        {
          "internalType": "address",
          "name": "_address",
          "type": "address"
        },
        {
          "internalType": "uint256",
          "name": "_lootboxId",
          "type": "uint256"
        }
      ],
      "name": "totalClaimableLootboxes",
      "outputs": [
        {
          "internalType": "uint256",
          "name": "",
          "type": "uint256"
        }
      ],
      "stateMutability": "view",
      "type": "function"
    },
    {
      "inputs": [],
      "name": "totalLootboxes",
      "outputs": [
        {
          "internalType": "uint256",
          "name": "",
          "type": "uint256"
        }
      ],
      "stateMutability": "view",
      "type": "function"
    },
    {
      "inputs": [
        {
          "internalType": "address",
          "name": "_address",
          "type": "address"
        },
        {
          "internalType": "uint256",
          "name": "_lootboxId",
          "type": "uint256"
        }
      ],
      "name": "totalOpenedLootboxes",
      "outputs": [
        {
          "internalType": "uint256",
          "name": "",
          "type": "uint256"
        }
      ],
      "stateMutability": "view",
      "type": "function"
    },
    {
      "inputs": [],
      "name": "trustedForwarder",
      "outputs": [
        {
          "internalType": "address",
          "name": "",
          "type": "address"
        }
      ],
      "stateMutability": "view",
      "type": "function"
    },
    {
      "inputs": [
        {
          "internalType": "address",
          "name": "_newTrustedForwarder",
          "type": "address"
        }
      ],
      "name": "upgradeTrustedForwarder",
      "outputs": [],
      "stateMutability": "nonpayable",
      "type": "function"
    }
  ],
  "bytecode": "0x608060405260016008553480156200001657600080fd5b5060405162004a1438038062004a148339810160408190526200003991620001b4565b600080546001600160a01b0319166001600160a01b038416178155600182815560035562000071906200006b620000a8565b620000c4565b620000a07fc9fc9949603a50f5cc3a96f774f1d68287789a241d2082dc81d0fb19a53bcf2b6200006b620000a8565b5050620001f0565b6000620000bf620000d460201b62002a5d1760201c565b905090565b620000d082826200010a565b5050565b600080546001600160a01b03163303620000f5575060131936013560601c90565b620000bf620001b060201b62002aad1760201c565b60008281526002602090815260408083206001600160a01b038516845290915290205460ff16620000d05760008281526002602090815260408083206001600160a01b03851684529091529020805460ff191660011790556200016c620000a8565b6001600160a01b0316816001600160a01b0316837f2f8788117e7eff1d82e926ec794901d17c78024a50270940304540a733656f0d60405160405180910390a45050565b3390565b60008060408385031215620001c857600080fd5b82516001600160a01b0381168114620001e057600080fd5b6020939093015192949293505050565b61481480620002006000396000f3fe608060405234801561001057600080fd5b50600436106102265760003560e01c8063826410fc1161012a578063af90a2b7116100bd578063e1394b901161008c578063ea61401a11610071578063ea61401a146105a0578063f23a6e61146105a8578063fbf3040d146105e057600080fd5b8063e1394b901461057a578063e8c683fd1461058d57600080fd5b8063af90a2b7146104e3578063bc197c81146104f6578063d547741f1461055f578063de0ef5e41461057257600080fd5b806394cba64e116100f957806394cba64e14610495578063a217fddf146104b5578063aa2a7eea146104bd578063abb5d942146104d057600080fd5b8063826410fc146104145780638404adc11461041c57806391d148541461042f57806392e115001461047557600080fd5b806339f898bc116101bd5780637da0a8771161018c5780637f416510116101715780637f416510146103e65780637ff48190146103ee5780637ffb5c651461040157600080fd5b80637da0a877146103815780637f1d0ad2146103c657600080fd5b806339f898bc14610316578063572b6c051461031f5780635ec2d0221461034e57806360234af91461036157600080fd5b80630e1d1da7116101f95780630e1d1da71461029f578063248a9ca3146102bf5780632f2ff15d146102f057806336568abe1461030357600080fd5b806301bab1681461022b57806301ffc9a714610254578063021b06471461027757806307af41171461028c575b600080fd5b61023e610239366004613917565b610623565b60405161024b9190613974565b60405180910390f35b6102676102623660046139f4565b610719565b604051901515815260200161024b565b61028a610285366004613a36565b6107bb565b005b61028a61029a366004613a36565b61085a565b6102b26102ad366004613a36565b6108e5565b60405161024b9190613a4f565b6102e26102cd366004613a36565b60009081526002602052604090206001015490565b60405190815260200161024b565b61028a6102fe366004613a8b565b610965565b61028a610311366004613a8b565b61098f565b6102e260015481565b61026761032d366004613ab7565b60005473ffffffffffffffffffffffffffffffffffffffff91821691161490565b6102b261035c366004613917565b610a5f565b61037461036f366004613917565b610b33565b60405161024b9190613be2565b6000546103a19073ffffffffffffffffffffffffffffffffffffffff1681565b60405173ffffffffffffffffffffffffffffffffffffffff909116815260200161024b565b6103d96103d4366004613c55565b610edb565b60405161024b9190613cda565b61023e61103c565b61028a6103fc366004613a36565b6110ec565b61028a61040f366004613917565b61155f565b6102e26115e5565b61028a61042a366004613d5e565b6115f6565b61026761043d366004613a8b565b600091825260026020908152604080842073ffffffffffffffffffffffffffffffffffffffff93909316845291905290205460ff1690565b610488610483366004613a36565b611bf8565b60405161024b9190613e42565b6104a86104a3366004613e55565b611f5d565b60405161024b9190613e88565b6102e2600081565b61028a6104cb366004613ab7565b612188565b6102e26104de366004613c55565b6121f6565b6103d96104f1366004613e9b565b6122cc565b61052e610504366004614060565b7fbc197c810000000000000000000000000000000000000000000000000000000095945050505050565b6040517fffffffff00000000000000000000000000000000000000000000000000000000909116815260200161024b565b61028a61056d366004613a8b565b612564565b610374612589565b61028a610588366004613a36565b6128f9565b6102e261059b366004613a36565b6129d2565b6102b2612a51565b61052e6105b636600461410a565b7ff23a6e610000000000000000000000000000000000000000000000000000000095945050505050565b6102e26105ee366004613c55565b73ffffffffffffffffffffffffffffffffffffffff919091166000908152600760209081526040808320938352929052205490565b606060006106316004612ab1565b841061063e576000610653565b836106496004612ab1565b610653919061419e565b90506000838211156106655783610667565b815b905060008167ffffffffffffffff81111561068457610684613ed4565b6040519080825280602002602001820160405280156106b757816020015b60608152602001906001900390816106a25790505b50905060005b8281101561070d576106dd6102ad6106d5838a6141b1565b600490612abb565b8282815181106106ef576106ef6141c4565b60200260200101819052508080610705906141f3565b9150506106bd565b50925050505b92915050565b60007fffffffff0000000000000000000000000000000000000000000000000000000082167ff6adcf6b0000000000000000000000000000000000000000000000000000000014806107ac57507fffffffff0000000000000000000000000000000000000000000000000000000082167f4e2312e000000000000000000000000000000000000000000000000000000000145b80610713575061071382612ace565b7fc9fc9949603a50f5cc3a96f774f1d68287789a241d2082dc81d0fb19a53bcf2b6107e581612b24565b60008211610854576040517f08c379a000000000000000000000000000000000000000000000000000000000815260206004820152601260248201527f4f66667365742063616e6e6f742062652030000000000000000000000000000060448201526064015b60405180910390fd5b50600855565b7fc9fc9949603a50f5cc3a96f774f1d68287789a241d2082dc81d0fb19a53bcf2b61088481612b24565b61088f600483612b38565b5060008281526006602052604090819020905183907f0864136c4ebca2d8889222bc6e0378756c87aa96dbac4e5645772cf08d4112ee906108d190849061438a565b60405180910390a26000600a909101555050565b60408051600280825260608083018452926000929190602083019080368337019050509050828160008151811061091e5761091e6141c4565b60200260200101818152505060066000848152602001908152602001600020600b015481600181518110610954576109546141c4565b602090810291909101015292915050565b60008281526002602052604090206001015461098081612b24565b61098a8383612b44565b505050565b610997612c39565b73ffffffffffffffffffffffffffffffffffffffff168173ffffffffffffffffffffffffffffffffffffffff1614610a51576040517f08c379a000000000000000000000000000000000000000000000000000000000815260206004820152602f60248201527f416363657373436f6e74726f6c3a2063616e206f6e6c792072656e6f756e636560448201527f20726f6c657320666f722073656c660000000000000000000000000000000000606482015260840161084b565b610a5b8282612c43565b5050565b60606000610a6d6004612ab1565b8410610a7a576000610a8f565b83610a856004612ab1565b610a8f919061419e565b9050600083821115610aa15783610aa3565b815b905060008167ffffffffffffffff811115610ac057610ac0613ed4565b604051908082528060200260200182016040528015610ae9578160200160208202803683370190505b50905060005b8281101561070d57610b046106d582896141b1565b828281518110610b1657610b166141c4565b602090810291909101015280610b2b816141f3565b915050610aef565b60606000610b416004612ab1565b8410610b4e576000610b63565b83610b596004612ab1565b610b63919061419e565b9050600083821115610b755783610b77565b815b905060008167ffffffffffffffff811115610b9457610b94613ed4565b604051908082528060200260200182016040528015610c5557816020015b610c4260405180610180016040528060008152602001600073ffffffffffffffffffffffffffffffffffffffff1681526020016060815260200160608152602001600073ffffffffffffffffffffffffffffffffffffffff168152602001606081526020016060815260200160608152602001600081526020016000815260200160008152602001600081525090565b815260200190600190039081610bb25790505b50905060005b8281101561070d5760066000610c746106d5848b6141b1565b8152602080820192909252604090810160002081516101808101835281548152600182015473ffffffffffffffffffffffffffffffffffffffff1681850152600282018054845181870281018701865281815292959394860193830182828015610cfd57602002820191906000526020600020905b815481526020019060010190808311610ce9575b5050505050815260200160038201805480602002602001604051908101604052809291908181526020018280548015610d5557602002820191906000526020600020905b815481526020019060010190808311610d41575b5050509183525050600482015473ffffffffffffffffffffffffffffffffffffffff166020808301919091526005830180546040805182850281018501825282815294019392830182828015610dca57602002820191906000526020600020905b815481526020019060010190808311610db6575b5050505050815260200160068201805480602002602001604051908101604052809291908181526020018280548015610e2257602002820191906000526020600020905b815481526020019060010190808311610e0e575b5050505050815260200160078201805480602002602001604051908101604052809291908181526020018280548015610e7a57602002820191906000526020600020905b815481526020019060010190808311610e66575b505050505081526020016008820154815260200160098201548152602001600a8201548152602001600b82015481525050828281518110610ebd57610ebd6141c4565b60200260200101819052508080610ed3906141f3565b915050610c5b565b73ffffffffffffffffffffffffffffffffffffffff821660009081526007602090815260408083208484528252808320805482518185028101850190935280835260609492939192909184015b8282101561103057838290600052602060002090600502016040518060a0016040529081600082015481526020016001820154815260200160028201805480602002602001604051908101604052809291908181526020018280548015610fae57602002820191906000526020600020905b815481526020019060010190808311610f9a575b505050505081526020016003820180548060200260200160405190810160405280929190818152602001828054801561100657602002820191906000526020600020905b815481526020019060010190808311610ff2575b50505091835250506004919091015460ff1615156020918201529082526001929092019101610f28565b50505050905092915050565b606060006110486115e5565b67ffffffffffffffff81111561106057611060613ed4565b60405190808252806020026020018201604052801561109357816020015b606081526020019060019003908161107e5790505b50905060005b6110a16115e5565b8110156110e6576110b66102ad600483612abb565b8282815181106110c8576110c86141c4565b602002602001018190525080806110de906141f3565b915050611099565b50919050565b600260035403611158576040517f08c379a000000000000000000000000000000000000000000000000000000000815260206004820152601f60248201527f5265656e7472616e637947756172643a207265656e7472616e742063616c6c00604482015260640161084b565b6002600355611168600482612d36565b6111f4576040517f08c379a000000000000000000000000000000000000000000000000000000000815260206004820152602d60248201527f6c6f6f74626f78496420646f6573206e6f74206578697374206f72206861732060448201527f6265656e2072656d6f7665642e00000000000000000000000000000000000000606482015260840161084b565b6000818152600660205260409020600181015473ffffffffffffffffffffffffffffffffffffffff16156113e35760018101546040517f01ffc9a70000000000000000000000000000000000000000000000000000000081527f909aa65d00000000000000000000000000000000000000000000000000000000600482015273ffffffffffffffffffffffffffffffffffffffff909116906301ffc9a790602401602060405180830381865afa1580156112b2573d6000803e3d6000fd5b505050506040513d601f19601f820116820180604052508101906112d6919061439d565b1561136057600181015473ffffffffffffffffffffffffffffffffffffffff16634b7c78dc611303612c39565b83600201846003016040518463ffffffff1660e01b8152600401611329939291906143bf565b600060405180830381600087803b15801561134357600080fd5b505af1158015611357573d6000803e3d6000fd5b505050506113e3565b600181015473ffffffffffffffffffffffffffffffffffffffff16632eb2c2d6611388612c39565b3084600201856003016040518563ffffffff1660e01b81526004016113b0949392919061440a565b600060405180830381600087803b1580156113ca57600080fd5b505af11580156113de573d6000803e3d6000fd5b505050505b6114176040518060a00160405280600081526020016000815260200160608152602001606081526020016000151581525090565b82815260085461142790436141b1565b602082015260076000611438612c39565b73ffffffffffffffffffffffffffffffffffffffff168152602080820192909252604090810160009081208682528352818120805460018181018355918352918490208551600590930201918255848401519082015590830151805184936114a79260028501929101906138b7565b50606082015180516114c39160038401916020909101906138b7565b5060809190910151600490910180547fffffffffffffffffffffffffffffffffffffffffffffffffffffffffffffff0016911515919091179055600a8201805490600061150f836141f3565b9190505550827fcbe236ccb8bf2ae258fd54e73752d614c82aa6293d5256658cc3ce58dc4d4bf08361153f612c39565b60405161154d929190614472565b60405180910390a25050600160035550565b6002600354036115cb576040517f08c379a000000000000000000000000000000000000000000000000000000000815260206004820152601f60248201527f5265656e7472616e637947756172643a207265656e7472616e742063616c6c00604482015260640161084b565b60026003556115dc82826001612d4e565b50506001600355565b60006115f16004612ab1565b905090565b7fc9fc9949603a50f5cc3a96f774f1d68287789a241d2082dc81d0fb19a53bcf2b61162081612b24565b61162a85806144aa565b905061163687806144aa565b9050146116c5576040517f08c379a000000000000000000000000000000000000000000000000000000000815260206004820152602d60248201527f4d69736d61746368656420696e707574206974656d2069647320616e6420616d60448201527f6f756e74206c656e677468732e00000000000000000000000000000000000000606482015260840161084b565b6116d260208601866144aa565b90506116e160208801886144aa565b905014611770576040517f08c379a000000000000000000000000000000000000000000000000000000000815260206004820152602d60248201527f4d69736d617463686564206f7574707574206974656d2069647320616e64206160448201527f6d6f756e74206c656e6774682e00000000000000000000000000000000000000606482015260840161084b565b8261177e60208801886144aa565b90501461180d576040517f08c379a000000000000000000000000000000000000000000000000000000000815260206004820152603160248201527f4d69736d61746368206f7574707574206974656d2069647320616e642069746560448201527f6d2077656967687473206c656e6774682e000000000000000000000000000000606482015260840161084b565b6000805b848110156118515785858281811061182b5761182b6141c4565b905060200201358261183d91906141b1565b915080611849816141f3565b915050611811565b5060006040518061018001604052808b81526020018a600060028110611879576118796141c4565b60200201602081019061188c9190613ab7565b73ffffffffffffffffffffffffffffffffffffffff1681526020016118b18a806144aa565b808060200260200160405190810160405280939291908181526020018383602002808284376000920191909152505050908252506020016118f289806144aa565b8080602002602001604051908101604052809392919081815260200183836020028082843760009201919091525050509082525060209081019061193c9060408d01908d01613ab7565b73ffffffffffffffffffffffffffffffffffffffff168152602090810190611966908b018b6144aa565b808060200260200160405190810160405280939291908181526020018383602002808284376000920191909152505050908252506020908101906119ac908a018a6144aa565b8080602002602001604051908101604052809392919081815260200183836020028082843760009201919091525050509082525060408051602089810282810182019093528982529283019290918a918a9182918501908490808284376000920182905250938552505050602080830186905260408084018990528e835260069091529020600a01546060820152426080909101529050611a4e60048b61332a565b5060008a81526006602090815260409182902083518155838201516001820180547fffffffffffffffffffffffff00000000000000000000000000000000000000001673ffffffffffffffffffffffffffffffffffffffff909216919091179055918301518051849392611ac99260028501929101906138b7565b5060608201518051611ae59160038401916020909101906138b7565b5060808201516004820180547fffffffffffffffffffffffff00000000000000000000000000000000000000001673ffffffffffffffffffffffffffffffffffffffff90921691909117905560a08201518051611b4c9160058401916020909101906138b7565b5060c08201518051611b689160068401916020909101906138b7565b5060e08201518051611b849160078401916020909101906138b7565b506101008201518160080155610120820151816009015561014082015181600a015561016082015181600b0155905050897fb2e547eb18679a18ee72bf11d33344b9a6a24f4afecf77e5ff1833294b4b0ab982604051611be49190613e42565b60405180910390a250505050505050505050565b611c8860405180610180016040528060008152602001600073ffffffffffffffffffffffffffffffffffffffff1681526020016060815260200160608152602001600073ffffffffffffffffffffffffffffffffffffffff168152602001606081526020016060815260200160608152602001600081526020016000815260200160008152602001600081525090565b611c93600483612d36565b611d1f576040517f08c379a000000000000000000000000000000000000000000000000000000000815260206004820152602d60248201527f6c6f6f74626f78496420646f6573206e6f74206578697374206f72206861732060448201527f6265656e2072656d6f7665642e00000000000000000000000000000000000000606482015260840161084b565b60008281526006602090815260409182902082516101808101845281548152600182015473ffffffffffffffffffffffffffffffffffffffff168184015260028201805485518186028101860187528181529295939493860193830182828015611da857602002820191906000526020600020905b815481526020019060010190808311611d94575b5050505050815260200160038201805480602002602001604051908101604052809291908181526020018280548015611e0057602002820191906000526020600020905b815481526020019060010190808311611dec575b5050509183525050600482015473ffffffffffffffffffffffffffffffffffffffff166020808301919091526005830180546040805182850281018501825282815294019392830182828015611e7557602002820191906000526020600020905b815481526020019060010190808311611e61575b5050505050815260200160068201805480602002602001604051908101604052809291908181526020018280548015611ecd57602002820191906000526020600020905b815481526020019060010190808311611eb9575b5050505050815260200160078201805480602002602001604051908101604052809291908181526020018280548015611f2557602002820191906000526020600020905b815481526020019060010190808311611f11575b505050505081526020016008820154815260200160098201548152602001600a8201548152602001600b820154815250509050919050565b611f916040518060a00160405280600081526020016000815260200160608152602001606081526020016000151581525090565b73ffffffffffffffffffffffffffffffffffffffff841660009081526007602090815260408083208684529091529020548210612050576040517f08c379a000000000000000000000000000000000000000000000000000000000815260206004820152602360248201527f6f70656e65644c6f6f74626f78496e64657820646f6573206e6f74206578697360448201527f74732e0000000000000000000000000000000000000000000000000000000000606482015260840161084b565b73ffffffffffffffffffffffffffffffffffffffff841660009081526007602090815260408083208684529091529020805483908110612092576120926141c4565b90600052602060002090600502016040518060a001604052908160008201548152602001600182015481526020016002820180548060200260200160405190810160405280929190818152602001828054801561210e57602002820191906000526020600020905b8154815260200190600101908083116120fa575b505050505081526020016003820180548060200260200160405190810160405280929190818152602001828054801561216657602002820191906000526020600020905b815481526020019060010190808311612152575b50505091835250506004919091015460ff161515602090910152949350505050565b7fc9fc9949603a50f5cc3a96f774f1d68287789a241d2082dc81d0fb19a53bcf2b6121b281612b24565b600080547fffffffffffffffffffffffff00000000000000000000000000000000000000001673ffffffffffffffffffffffffffffffffffffffff84161790555050565b600080805b73ffffffffffffffffffffffffffffffffffffffff851660009081526007602090815260408083208784529091529020548110156122c45773ffffffffffffffffffffffffffffffffffffffff851660009081526007602090815260408083208784529091528120805483908110612275576122756141c4565b906000526020600020906005020190508060010154431015801561229e5750600481015460ff16155b156122b157826122ad816141f3565b9350505b50806122bc816141f3565b9150506121fb565b509392505050565b73ffffffffffffffffffffffffffffffffffffffff8416600090815260076020908152604080832086845290915281205460609190841061230e57600061234a565b73ffffffffffffffffffffffffffffffffffffffff8616600090815260076020908152604080832088845290915290205461234a90859061419e565b905060008382111561235c578361235e565b815b905060008167ffffffffffffffff81111561237b5761237b613ed4565b6040519080825280602002602001820160405280156123e057816020015b6123cd6040518060a00160405280600081526020016000815260200160608152602001606081526020016000151581525090565b8152602001906001900390816123995790505b50905060005b828110156125585773ffffffffffffffffffffffffffffffffffffffff891660009081526007602090815260408083208b8452909152902061242882896141b1565b81548110612438576124386141c4565b90600052602060002090600502016040518060a00160405290816000820154815260200160018201548152602001600282018054806020026020016040519081016040528092919081815260200182805480156124b457602002820191906000526020600020905b8154815260200190600101908083116124a0575b505050505081526020016003820180548060200260200160405190810160405280929190818152602001828054801561250c57602002820191906000526020600020905b8154815260200190600101908083116124f8575b50505091835250506004919091015460ff161515602090910152825183908390811061253a5761253a6141c4565b60200260200101819052508080612550906141f3565b9150506123e6565b50979650505050505050565b60008281526002602052604090206001015461257f81612b24565b61098a8383612c43565b606060006125956115e5565b67ffffffffffffffff8111156125ad576125ad613ed4565b60405190808252806020026020018201604052801561266e57816020015b61265b60405180610180016040528060008152602001600073ffffffffffffffffffffffffffffffffffffffff1681526020016060815260200160608152602001600073ffffffffffffffffffffffffffffffffffffffff168152602001606081526020016060815260200160608152602001600081526020016000815260200160008152602001600081525090565b8152602001906001900390816125cb5790505b50905060005b61267c6115e5565b8110156110e65760066000612692600484612abb565b8152602080820192909252604090810160002081516101808101835281548152600182015473ffffffffffffffffffffffffffffffffffffffff168185015260028201805484518187028101870186528181529295939486019383018282801561271b57602002820191906000526020600020905b815481526020019060010190808311612707575b505050505081526020016003820180548060200260200160405190810160405280929190818152602001828054801561277357602002820191906000526020600020905b81548152602001906001019080831161275f575b5050509183525050600482015473ffffffffffffffffffffffffffffffffffffffff1660208083019190915260058301805460408051828502810185018252828152940193928301828280156127e857602002820191906000526020600020905b8154815260200190600101908083116127d4575b505050505081526020016006820180548060200260200160405190810160405280929190818152602001828054801561284057602002820191906000526020600020905b81548152602001906001019080831161282c575b505050505081526020016007820180548060200260200160405190810160405280929190818152602001828054801561289857602002820191906000526020600020905b815481526020019060010190808311612884575b505050505081526020016008820154815260200160098201548152602001600a8201548152602001600b820154815250508282815181106128db576128db6141c4565b602002602001018190525080806128f1906141f3565b915050612674565b600260035403612965576040517f08c379a000000000000000000000000000000000000000000000000000000000815260206004820152601f60248201527f5265656e7472616e637947756172643a207265656e7472616e742063616c6c00604482015260640161084b565b600260035560005b60076000612979612c39565b73ffffffffffffffffffffffffffffffffffffffff168152602080820192909252604090810160009081208582529092529020548110156115dc576129c082826000612d4e565b806129ca816141f3565b91505061296d565b60006129de6004612ab1565b8210612a46576040517f08c379a000000000000000000000000000000000000000000000000000000000815260206004820152601360248201527f496e646578206f7574206f6620626f756e647300000000000000000000000000604482015260640161084b565b610713600483612abb565b60606115f16004613336565b6000805473ffffffffffffffffffffffffffffffffffffffff163303612aa857507fffffffffffffffffffffffffffffffffffffffffffffffffffffffffffffffec36013560601c90565b503390565b3390565b6000610713825490565b6000612ac78383613343565b9392505050565b60007fffffffff0000000000000000000000000000000000000000000000000000000082167f7965db0b00000000000000000000000000000000000000000000000000000000148061071357506107138261336d565b612b3581612b30612c39565b613404565b50565b6000612ac783836134d6565b600082815260026020908152604080832073ffffffffffffffffffffffffffffffffffffffff8516845290915290205460ff16610a5b57600082815260026020908152604080832073ffffffffffffffffffffffffffffffffffffffff85168452909152902080547fffffffffffffffffffffffffffffffffffffffffffffffffffffffffffffff00166001179055612bdb612c39565b73ffffffffffffffffffffffffffffffffffffffff168173ffffffffffffffffffffffffffffffffffffffff16837f2f8788117e7eff1d82e926ec794901d17c78024a50270940304540a733656f0d60405160405180910390a45050565b60006115f1612a5d565b600082815260026020908152604080832073ffffffffffffffffffffffffffffffffffffffff8516845290915290205460ff1615610a5b57600082815260026020908152604080832073ffffffffffffffffffffffffffffffffffffffff85168452909152902080547fffffffffffffffffffffffffffffffffffffffffffffffffffffffffffffff00169055612cd8612c39565b73ffffffffffffffffffffffffffffffffffffffff168173ffffffffffffffffffffffffffffffffffffffff16837ff6391f5c32d9c69d2a47ea670b442974b53935d1edc7fd64eb21e047a839171b60405160405180910390a45050565b60008181526001830160205260408120541515612ac7565b600060076000612d5c612c39565b73ffffffffffffffffffffffffffffffffffffffff1673ffffffffffffffffffffffffffffffffffffffff16815260200190815260200160002060008581526020019081526020016000208381548110612db857612db86141c4565b9060005260206000209060050201905060006006600086815260200190815260200160002090508160010154431080612df55750600482015460ff165b15612e91578215612e8a57604080517f08c379a00000000000000000000000000000000000000000000000000000000081526020600482015260248101919091527f4c6f6f74626f7820756e636c61696d61626c652e20436c61696d20626c6f636b60448201527f206e6f742072656163686564206f7220616c726561647920636c61696d65642e606482015260840161084b565b5050505050565b6000816009015467ffffffffffffffff811115612eb057612eb0613ed4565b604051908082528060200260200182016040528015612ed9578160200160208202803683370190505b5090506000826009015467ffffffffffffffff811115612efb57612efb613ed4565b604051908082528060200260200182016040528015612f24578160200160208202803683370190505b50905060005b83600901548110156130c457600060018660010154612f49919061419e565b40612f52612c39565b8984604051602001612fa2949392919093845260609290921b7fffffffffffffffffffffffffffffffffffffffff0000000000000000000000001660208401526034830152605482015260740190565b6040516020818303038152906040528051906020012060001c90506000856008015482612fcf9190614519565b905060005b60078701548110156130ae576000876007018281548110612ff757612ff76141c4565b906000526020600020015490508281111561308e57876005018281548110613021576130216141c4565b906000526020600020015487868151811061303e5761303e6141c4565b60200260200101818152505087600601828154811061305f5761305f6141c4565b906000526020600020015486868151811061307c5761307c6141c4565b602002602001018181525050506130ae565b613098818461419e565b92505080806130a6906141f3565b915050612fd4565b50505080806130bc906141f3565b915050612f2a565b506004838101546040517f91d148540000000000000000000000000000000000000000000000000000000081527fc9eb32e43bf5ecbceacf00b32281dfc5d6d700a0db676ea26ccf938a385ac3f79281019290925230602483015273ffffffffffffffffffffffffffffffffffffffff16906391d1485490604401602060405180830381865afa15801561315c573d6000803e3d6000fd5b505050506040513d601f19601f82011682018060405250810190613180919061439d565b1561320457600483015473ffffffffffffffffffffffffffffffffffffffff166308f427c76131ad612c39565b84846040518463ffffffff1660e01b81526004016131cd93929190614554565b600060405180830381600087803b1580156131e757600080fd5b505af11580156131fb573d6000803e3d6000fd5b50505050613281565b600483015473ffffffffffffffffffffffffffffffffffffffff16632eb2c2d63061322d612c39565b85856040518563ffffffff1660e01b815260040161324e9493929190614595565b600060405180830381600087803b15801561326857600080fd5b505af115801561327c573d6000803e3d6000fd5b505050505b815161329690600286019060208501906138b7565b5080516132ac90600386019060208401906138b7565b506004840180547fffffffffffffffffffffffffffffffffffffffffffffffffffffffffffffff00166001179055867fa90466a1141d4242085b5ac5c6634a366ec37ad66c953e191b51c3441e56010e84613305612c39565b8986866040516133199594939291906145e0565b60405180910390a250505050505050565b6000612ac783836135c9565b60606000612ac783613618565b600082600001828154811061335a5761335a6141c4565b9060005260206000200154905092915050565b60007fffffffff0000000000000000000000000000000000000000000000000000000082167f4e2312e000000000000000000000000000000000000000000000000000000000148061071357507f01ffc9a7000000000000000000000000000000000000000000000000000000007fffffffff00000000000000000000000000000000000000000000000000000000831614610713565b600082815260026020908152604080832073ffffffffffffffffffffffffffffffffffffffff8516845290915290205460ff16610a5b5761345c8173ffffffffffffffffffffffffffffffffffffffff166014613674565b613467836020613674565b60405160200161347892919061466b565b604080517fffffffffffffffffffffffffffffffffffffffffffffffffffffffffffffffe0818403018152908290527f08c379a000000000000000000000000000000000000000000000000000000000825261084b916004016146ec565b600081815260018301602052604081205480156135bf5760006134fa60018361419e565b855490915060009061350e9060019061419e565b905081811461357357600086600001828154811061352e5761352e6141c4565b9060005260206000200154905080876000018481548110613551576135516141c4565b6000918252602080832090910192909255918252600188019052604090208390555b85548690806135845761358461473d565b600190038181906000526020600020016000905590558560010160008681526020019081526020016000206000905560019350505050610713565b6000915050610713565b600081815260018301602052604081205461361057508154600181810184556000848152602080822090930184905584548482528286019093526040902091909155610713565b506000610713565b60608160000180548060200260200160405190810160405280929190818152602001828054801561366857602002820191906000526020600020905b815481526020019060010190808311613654575b50505050509050919050565b6060600061368383600261476c565b61368e9060026141b1565b67ffffffffffffffff8111156136a6576136a6613ed4565b6040519080825280601f01601f1916602001820160405280156136d0576020820181803683370190505b5090507f300000000000000000000000000000000000000000000000000000000000000081600081518110613707576137076141c4565b60200101907effffffffffffffffffffffffffffffffffffffffffffffffffffffffffffff1916908160001a9053507f78000000000000000000000000000000000000000000000000000000000000008160018151811061376a5761376a6141c4565b60200101907effffffffffffffffffffffffffffffffffffffffffffffffffffffffffffff1916908160001a90535060006137a684600261476c565b6137b19060016141b1565b90505b600181111561384e577f303132333435363738396162636465660000000000000000000000000000000085600f16601081106137f2576137f26141c4565b1a60f81b828281518110613808576138086141c4565b60200101907effffffffffffffffffffffffffffffffffffffffffffffffffffffffffffff1916908160001a90535060049490941c93613847816147a9565b90506137b4565b508315612ac7576040517f08c379a000000000000000000000000000000000000000000000000000000000815260206004820181905260248201527f537472696e67733a20686578206c656e67746820696e73756666696369656e74604482015260640161084b565b8280548282559060005260206000209081019282156138f2579160200282015b828111156138f25782518255916020019190600101906138d7565b506138fe929150613902565b5090565b5b808211156138fe5760008155600101613903565b6000806040838503121561392a57600080fd5b50508035926020909101359150565b600081518084526020808501945080840160005b838110156139695781518752958201959082019060010161394d565b509495945050505050565b6000602080830181845280855180835260408601915060408160051b870101925083870160005b828110156139e7577fffffffffffffffffffffffffffffffffffffffffffffffffffffffffffffffc08886030184526139d5858351613939565b9450928501929085019060010161399b565b5092979650505050505050565b600060208284031215613a0657600080fd5b81357fffffffff0000000000000000000000000000000000000000000000000000000081168114612ac757600080fd5b600060208284031215613a4857600080fd5b5035919050565b602081526000612ac76020830184613939565b803573ffffffffffffffffffffffffffffffffffffffff81168114613a8657600080fd5b919050565b60008060408385031215613a9e57600080fd5b82359150613aae60208401613a62565b90509250929050565b600060208284031215613ac957600080fd5b612ac782613a62565b6000610180825184526020830151613b02602086018273ffffffffffffffffffffffffffffffffffffffff169052565b506040830151816040860152613b1a82860182613939565b91505060608301518482036060860152613b348282613939565b9150506080830151613b5e608086018273ffffffffffffffffffffffffffffffffffffffff169052565b5060a083015184820360a0860152613b768282613939565b91505060c083015184820360c0860152613b908282613939565b91505060e083015184820360e0860152613baa8282613939565b610100858101519087015261012080860151908701526101408086015190870152610160948501519490950193909352509192915050565b6000602080830181845280855180835260408601915060408160051b870101925083870160005b828110156139e7577fffffffffffffffffffffffffffffffffffffffffffffffffffffffffffffffc0888603018452613c43858351613ad2565b94509285019290850190600101613c09565b60008060408385031215613c6857600080fd5b613c7183613a62565b946020939093013593505050565b80518252602081015160208301526000604082015160a06040850152613ca860a0850182613939565b905060608301518482036060860152613cc18282613939565b9150506080830151151560808501528091505092915050565b6000602080830181845280855180835260408601915060408160051b870101925083870160005b828110156139e7577fffffffffffffffffffffffffffffffffffffffffffffffffffffffffffffffc0888603018452613d3b858351613c7f565b94509285019290850190600101613d01565b806040810183101561071357600080fd5b600080600080600080600060e0888a031215613d7957600080fd5b87359650613d8a8960208a01613d4d565b9550606088013567ffffffffffffffff80821115613da757600080fd5b613db38b838c01613d4d565b965060808a0135915080821115613dc957600080fd5b613dd58b838c01613d4d565b955060a08a0135915080821115613deb57600080fd5b818a0191508a601f830112613dff57600080fd5b813581811115613e0e57600080fd5b8b60208260051b8501011115613e2357600080fd5b60208301955080945050505060c0880135905092959891949750929550565b602081526000612ac76020830184613ad2565b600080600060608486031215613e6a57600080fd5b613e7384613a62565b95602085013595506040909401359392505050565b602081526000612ac76020830184613c7f565b60008060008060808587031215613eb157600080fd5b613eba85613a62565b966020860135965060408601359560600135945092505050565b7f4e487b7100000000000000000000000000000000000000000000000000000000600052604160045260246000fd5b604051601f82017fffffffffffffffffffffffffffffffffffffffffffffffffffffffffffffffe016810167ffffffffffffffff81118282101715613f4a57613f4a613ed4565b604052919050565b600082601f830112613f6357600080fd5b8135602067ffffffffffffffff821115613f7f57613f7f613ed4565b8160051b613f8e828201613f03565b9283528481018201928281019087851115613fa857600080fd5b83870192505b84831015613fc757823582529183019190830190613fae565b979650505050505050565b600082601f830112613fe357600080fd5b813567ffffffffffffffff811115613ffd57613ffd613ed4565b61402e60207fffffffffffffffffffffffffffffffffffffffffffffffffffffffffffffffe0601f84011601613f03565b81815284602083860101111561404357600080fd5b816020850160208301376000918101602001919091529392505050565b600080600080600060a0868803121561407857600080fd5b61408186613a62565b945061408f60208701613a62565b9350604086013567ffffffffffffffff808211156140ac57600080fd5b6140b889838a01613f52565b945060608801359150808211156140ce57600080fd5b6140da89838a01613f52565b935060808801359150808211156140f057600080fd5b506140fd88828901613fd2565b9150509295509295909350565b600080600080600060a0868803121561412257600080fd5b61412b86613a62565b945061413960208701613a62565b93506040860135925060608601359150608086013567ffffffffffffffff81111561416357600080fd5b6140fd88828901613fd2565b7f4e487b7100000000000000000000000000000000000000000000000000000000600052601160045260246000fd5b818103818111156107135761071361416f565b808201808211156107135761071361416f565b7f4e487b7100000000000000000000000000000000000000000000000000000000600052603260045260246000fd5b60007fffffffffffffffffffffffffffffffffffffffffffffffffffffffffffffffff82036142245761422461416f565b5060010190565b6000815480845260208085019450836000528060002060005b8381101561396957815487529582019560019182019101614244565b60006101808254845261428a600184015473ffffffffffffffffffffffffffffffffffffffff1690565b73ffffffffffffffffffffffffffffffffffffffff166020850152604084018190526142bb8185016002850161422b565b905083810360608501526142d2816003850161422b565b90506142f5600484015473ffffffffffffffffffffffffffffffffffffffff1690565b73ffffffffffffffffffffffffffffffffffffffff16608085015283810360a0850152614325816005850161422b565b905083810360c085015261433c816006850161422b565b905083810360e0850152614353816007850161422b565b60088401546101008601526009840154610120860152600a840154610140860152600b909301546101609094019390935250919050565b602081526000612ac76020830184614260565b6000602082840312156143af57600080fd5b81518015158114612ac757600080fd5b73ffffffffffffffffffffffffffffffffffffffff841681526060602082015260006143ee606083018561422b565b8281036040840152614400818561422b565b9695505050505050565b600073ffffffffffffffffffffffffffffffffffffffff808716835280861660208401525060a0604083015261444360a083018561422b565b8281036060840152614455818561422b565b838103608090940193909352505060008152602001949350505050565b6040815260006144856040830185614260565b905073ffffffffffffffffffffffffffffffffffffffff831660208301529392505050565b60008083357fffffffffffffffffffffffffffffffffffffffffffffffffffffffffffffffe18436030181126144df57600080fd5b83018035915067ffffffffffffffff8211156144fa57600080fd5b6020019150600581901b360382131561451257600080fd5b9250929050565b60008261454f577f4e487b7100000000000000000000000000000000000000000000000000000000600052601260045260246000fd5b500690565b73ffffffffffffffffffffffffffffffffffffffff841681526060602082015260006145836060830185613939565b82810360408401526144008185613939565b600073ffffffffffffffffffffffffffffffffffffffff808716835280861660208401525060a060408301526145ce60a0830185613939565b82810360608401526144558185613939565b60a0815260006145f360a0830188614260565b73ffffffffffffffffffffffffffffffffffffffff8716602084015285604084015282810360608401526146278186613939565b9050828103608084015261463b8185613939565b98975050505050505050565b60005b8381101561466257818101518382015260200161464a565b50506000910152565b7f416363657373436f6e74726f6c3a206163636f756e74200000000000000000008152600083516146a3816017850160208801614647565b7f206973206d697373696e6720726f6c652000000000000000000000000000000060179184019182015283516146e0816028840160208801614647565b01602801949350505050565b602081526000825180602084015261470b816040850160208701614647565b601f017fffffffffffffffffffffffffffffffffffffffffffffffffffffffffffffffe0169190910160400192915050565b7f4e487b7100000000000000000000000000000000000000000000000000000000600052603160045260246000fd5b6000817fffffffffffffffffffffffffffffffffffffffffffffffffffffffffffffffff04831182151516156147a4576147a461416f565b500290565b6000816147b8576147b861416f565b507fffffffffffffffffffffffffffffffffffffffffffffffffffffffffffffffff019056fea2646970667358221220cb909c5a5a6ea7347a05b7d1fadd6e6969e08d210cf03b55543d34bfe7ce255f64736f6c63430008100033",
  "linkReferences": {},
  "deployedLinkReferences": {}
}