{
  "_format": "hh-sol-artifact-1",
  "contractName": "Game_Lootbox_Manager",
  "sourceName": "contracts/Lootbox_Manager/Game_Lootbox_Manager.sol",
  "abi": [
    {
      "inputs": [
        {
          "internalType": "address",
          "name": "_forwarder",
          "type": "address"
        },
        {
          "internalType": "bytes32",
          "name": "_systemId",
          "type": "bytes32"
        }
      ],
      "stateMutability": "nonpayable",
      "type": "constructor"
    },
    {
      "anonymous": false,
      "inputs": [
        {
          "indexed": true,
          "internalType": "uint256",
          "name": "lootboxId",
          "type": "uint256"
        },
        {
          "components": [
            {
              "internalType": "uint256",
              "name": "id",
              "type": "uint256"
            },
            {
              "internalType": "contract IERC1155",
              "name": "inputCollection",
              "type": "address"
            },
            {
              "internalType": "uint256[]",
              "name": "inputCollectionItemIds",
              "type": "uint256[]"
            },
            {
              "internalType": "uint256[]",
              "name": "inputCollectionItemAmounts",
              "type": "uint256[]"
            },
            {
              "internalType": "contract IERC1155",
              "name": "outputCollection",
              "type": "address"
            },
            {
              "internalType": "uint256[]",
              "name": "outputCollectionItemIds",
              "type": "uint256[]"
            },
            {
              "internalType": "uint256[]",
              "name": "outputCollectionItemAmounts",
              "type": "uint256[]"
            },
            {
              "internalType": "uint256[]",
              "name": "outputCollectionItemWeights",
              "type": "uint256[]"
            },
            {
              "internalType": "uint256",
              "name": "outputTotalItemsWeight",
              "type": "uint256"
            },
            {
              "internalType": "uint256",
              "name": "outputTotalItems",
              "type": "uint256"
            },
            {
              "internalType": "uint256",
              "name": "opens",
              "type": "uint256"
            },
            {
              "internalType": "uint256",
              "name": "lastUpdatedAt",
              "type": "uint256"
            }
          ],
          "indexed": false,
          "internalType": "struct IGame_Lootbox_Manager.Lootbox",
          "name": "lootbox",
          "type": "tuple"
        },
        {
          "indexed": false,
          "internalType": "address",
          "name": "user",
          "type": "address"
        },
        {
          "indexed": false,
          "internalType": "uint256",
          "name": "openedLootboxIndex",
          "type": "uint256"
        },
        {
          "indexed": false,
          "internalType": "uint256[]",
          "name": "outputCollectionItemIds",
          "type": "uint256[]"
        },
        {
          "indexed": false,
          "internalType": "uint256[]",
          "name": "outputCollectionItemAmounts",
          "type": "uint256[]"
        }
      ],
      "name": "LootboxClaimed",
      "type": "event"
    },
    {
      "anonymous": false,
      "inputs": [
        {
          "indexed": true,
          "internalType": "uint256",
          "name": "lootboxId",
          "type": "uint256"
        },
        {
          "components": [
            {
              "internalType": "uint256",
              "name": "id",
              "type": "uint256"
            },
            {
              "internalType": "contract IERC1155",
              "name": "inputCollection",
              "type": "address"
            },
            {
              "internalType": "uint256[]",
              "name": "inputCollectionItemIds",
              "type": "uint256[]"
            },
            {
              "internalType": "uint256[]",
              "name": "inputCollectionItemAmounts",
              "type": "uint256[]"
            },
            {
              "internalType": "contract IERC1155",
              "name": "outputCollection",
              "type": "address"
            },
            {
              "internalType": "uint256[]",
              "name": "outputCollectionItemIds",
              "type": "uint256[]"
            },
            {
              "internalType": "uint256[]",
              "name": "outputCollectionItemAmounts",
              "type": "uint256[]"
            },
            {
              "internalType": "uint256[]",
              "name": "outputCollectionItemWeights",
              "type": "uint256[]"
            },
            {
              "internalType": "uint256",
              "name": "outputTotalItemsWeight",
              "type": "uint256"
            },
            {
              "internalType": "uint256",
              "name": "outputTotalItems",
              "type": "uint256"
            },
            {
              "internalType": "uint256",
              "name": "opens",
              "type": "uint256"
            },
            {
              "internalType": "uint256",
              "name": "lastUpdatedAt",
              "type": "uint256"
            }
          ],
          "indexed": false,
          "internalType": "struct IGame_Lootbox_Manager.Lootbox",
          "name": "lootbox",
          "type": "tuple"
        },
        {
          "indexed": false,
          "internalType": "address",
          "name": "user",
          "type": "address"
        }
      ],
      "name": "LootboxOpened",
      "type": "event"
    },
    {
      "anonymous": false,
      "inputs": [
        {
          "indexed": true,
          "internalType": "uint256",
          "name": "lootboxId",
          "type": "uint256"
        },
        {
          "components": [
            {
              "internalType": "uint256",
              "name": "id",
              "type": "uint256"
            },
            {
              "internalType": "contract IERC1155",
              "name": "inputCollection",
              "type": "address"
            },
            {
              "internalType": "uint256[]",
              "name": "inputCollectionItemIds",
              "type": "uint256[]"
            },
            {
              "internalType": "uint256[]",
              "name": "inputCollectionItemAmounts",
              "type": "uint256[]"
            },
            {
              "internalType": "contract IERC1155",
              "name": "outputCollection",
              "type": "address"
            },
            {
              "internalType": "uint256[]",
              "name": "outputCollectionItemIds",
              "type": "uint256[]"
            },
            {
              "internalType": "uint256[]",
              "name": "outputCollectionItemAmounts",
              "type": "uint256[]"
            },
            {
              "internalType": "uint256[]",
              "name": "outputCollectionItemWeights",
              "type": "uint256[]"
            },
            {
              "internalType": "uint256",
              "name": "outputTotalItemsWeight",
              "type": "uint256"
            },
            {
              "internalType": "uint256",
              "name": "outputTotalItems",
              "type": "uint256"
            },
            {
              "internalType": "uint256",
              "name": "opens",
              "type": "uint256"
            },
            {
              "internalType": "uint256",
              "name": "lastUpdatedAt",
              "type": "uint256"
            }
          ],
          "indexed": false,
          "internalType": "struct IGame_Lootbox_Manager.Lootbox",
          "name": "lootbox",
          "type": "tuple"
        }
      ],
      "name": "LootboxRemoved",
      "type": "event"
    },
    {
      "anonymous": false,
      "inputs": [
        {
          "indexed": true,
          "internalType": "uint256",
          "name": "lootboxId",
          "type": "uint256"
        },
        {
          "components": [
            {
              "internalType": "uint256",
              "name": "id",
              "type": "uint256"
            },
            {
              "internalType": "contract IERC1155",
              "name": "inputCollection",
              "type": "address"
            },
            {
              "internalType": "uint256[]",
              "name": "inputCollectionItemIds",
              "type": "uint256[]"
            },
            {
              "internalType": "uint256[]",
              "name": "inputCollectionItemAmounts",
              "type": "uint256[]"
            },
            {
              "internalType": "contract IERC1155",
              "name": "outputCollection",
              "type": "address"
            },
            {
              "internalType": "uint256[]",
              "name": "outputCollectionItemIds",
              "type": "uint256[]"
            },
            {
              "internalType": "uint256[]",
              "name": "outputCollectionItemAmounts",
              "type": "uint256[]"
            },
            {
              "internalType": "uint256[]",
              "name": "outputCollectionItemWeights",
              "type": "uint256[]"
            },
            {
              "internalType": "uint256",
              "name": "outputTotalItemsWeight",
              "type": "uint256"
            },
            {
              "internalType": "uint256",
              "name": "outputTotalItems",
              "type": "uint256"
            },
            {
              "internalType": "uint256",
              "name": "opens",
              "type": "uint256"
            },
            {
              "internalType": "uint256",
              "name": "lastUpdatedAt",
              "type": "uint256"
            }
          ],
          "indexed": false,
          "internalType": "struct IGame_Lootbox_Manager.Lootbox",
          "name": "lootbox",
          "type": "tuple"
        }
      ],
      "name": "LootboxSet",
      "type": "event"
    },
    {
      "anonymous": false,
      "inputs": [
        {
          "indexed": true,
          "internalType": "bytes32",
          "name": "role",
          "type": "bytes32"
        },
        {
          "indexed": true,
          "internalType": "bytes32",
          "name": "previousAdminRole",
          "type": "bytes32"
        },
        {
          "indexed": true,
          "internalType": "bytes32",
          "name": "newAdminRole",
          "type": "bytes32"
        }
      ],
      "name": "RoleAdminChanged",
      "type": "event"
    },
    {
      "anonymous": false,
      "inputs": [
        {
          "indexed": true,
          "internalType": "bytes32",
          "name": "role",
          "type": "bytes32"
        },
        {
          "indexed": true,
          "internalType": "address",
          "name": "account",
          "type": "address"
        },
        {
          "indexed": true,
          "internalType": "address",
          "name": "sender",
          "type": "address"
        }
      ],
      "name": "RoleGranted",
      "type": "event"
    },
    {
      "anonymous": false,
      "inputs": [
        {
          "indexed": true,
          "internalType": "bytes32",
          "name": "role",
          "type": "bytes32"
        },
        {
          "indexed": true,
          "internalType": "address",
          "name": "account",
          "type": "address"
        },
        {
          "indexed": true,
          "internalType": "address",
          "name": "sender",
          "type": "address"
        }
      ],
      "name": "RoleRevoked",
      "type": "event"
    },
    {
      "inputs": [],
      "name": "DEFAULT_ADMIN_ROLE",
      "outputs": [
        {
          "internalType": "bytes32",
          "name": "",
          "type": "bytes32"
        }
      ],
      "stateMutability": "view",
      "type": "function"
    },
    {
      "inputs": [
        {
          "internalType": "bytes32",
          "name": "_systemId",
          "type": "bytes32"
        }
      ],
      "name": "addSystemId",
      "outputs": [],
      "stateMutability": "nonpayable",
      "type": "function"
    },
    {
      "inputs": [],
      "name": "allLootboxIds",
      "outputs": [
        {
          "internalType": "uint256[]",
          "name": "",
          "type": "uint256[]"
        }
      ],
      "stateMutability": "view",
      "type": "function"
    },
    {
      "inputs": [],
      "name": "allLootboxLastUpdates",
      "outputs": [
        {
          "internalType": "uint256[][]",
          "name": "",
          "type": "uint256[][]"
        }
      ],
      "stateMutability": "view",
      "type": "function"
    },
    {
      "inputs": [],
      "name": "allLootboxes",
      "outputs": [
        {
          "components": [
            {
              "internalType": "uint256",
              "name": "id",
              "type": "uint256"
            },
            {
              "internalType": "contract IERC1155",
              "name": "inputCollection",
              "type": "address"
            },
            {
              "internalType": "uint256[]",
              "name": "inputCollectionItemIds",
              "type": "uint256[]"
            },
            {
              "internalType": "uint256[]",
              "name": "inputCollectionItemAmounts",
              "type": "uint256[]"
            },
            {
              "internalType": "contract IERC1155",
              "name": "outputCollection",
              "type": "address"
            },
            {
              "internalType": "uint256[]",
              "name": "outputCollectionItemIds",
              "type": "uint256[]"
            },
            {
              "internalType": "uint256[]",
              "name": "outputCollectionItemAmounts",
              "type": "uint256[]"
            },
            {
              "internalType": "uint256[]",
              "name": "outputCollectionItemWeights",
              "type": "uint256[]"
            },
            {
              "internalType": "uint256",
              "name": "outputTotalItemsWeight",
              "type": "uint256"
            },
            {
              "internalType": "uint256",
              "name": "outputTotalItems",
              "type": "uint256"
            },
            {
              "internalType": "uint256",
              "name": "opens",
              "type": "uint256"
            },
            {
              "internalType": "uint256",
              "name": "lastUpdatedAt",
              "type": "uint256"
            }
          ],
          "internalType": "struct IGame_Lootbox_Manager.Lootbox[]",
          "name": "",
          "type": "tuple[]"
        }
      ],
      "stateMutability": "view",
      "type": "function"
    },
    {
      "inputs": [
        {
          "internalType": "address",
          "name": "_address",
          "type": "address"
        },
        {
          "internalType": "uint256",
          "name": "_lootboxId",
          "type": "uint256"
        }
      ],
      "name": "allOpenedLootboxes",
      "outputs": [
        {
          "components": [
            {
              "internalType": "uint256",
              "name": "lootboxId",
              "type": "uint256"
            },
            {
              "internalType": "uint256",
              "name": "claimSeedBlock",
              "type": "uint256"
            },
            {
              "internalType": "uint256[]",
              "name": "outputCollectionItemIds",
              "type": "uint256[]"
            },
            {
              "internalType": "uint256[]",
              "name": "outputCollectionItemAmounts",
              "type": "uint256[]"
            },
            {
              "internalType": "bool",
              "name": "claimed",
              "type": "bool"
            }
          ],
          "internalType": "struct IGame_Lootbox_Manager.OpenedLootbox[]",
          "name": "",
          "type": "tuple[]"
        }
      ],
      "stateMutability": "view",
      "type": "function"
    },
    {
      "inputs": [
        {
          "internalType": "uint256",
          "name": "_lootboxId",
          "type": "uint256"
        },
        {
          "internalType": "uint256",
          "name": "_openedLootboxIndex",
          "type": "uint256"
        }
      ],
      "name": "claimLootbox",
      "outputs": [],
      "stateMutability": "nonpayable",
      "type": "function"
    },
    {
      "inputs": [
        {
          "internalType": "uint256",
          "name": "_lootboxId",
          "type": "uint256"
        }
      ],
      "name": "claimLootboxes",
      "outputs": [],
      "stateMutability": "nonpayable",
      "type": "function"
    },
    {
      "inputs": [],
      "name": "claimableBlockOffset",
      "outputs": [
        {
          "internalType": "uint256",
          "name": "",
          "type": "uint256"
        }
      ],
      "stateMutability": "view",
      "type": "function"
    },
    {
      "inputs": [
        {
          "internalType": "bytes32",
          "name": "role",
          "type": "bytes32"
        }
      ],
      "name": "getRoleAdmin",
      "outputs": [
        {
          "internalType": "bytes32",
          "name": "",
          "type": "bytes32"
        }
      ],
      "stateMutability": "view",
      "type": "function"
    },
    {
      "inputs": [
        {
          "internalType": "bytes32",
          "name": "_role",
          "type": "bytes32"
        },
        {
          "internalType": "address",
          "name": "_account",
          "type": "address"
        }
      ],
      "name": "grantRole",
      "outputs": [],
      "stateMutability": "nonpayable",
      "type": "function"
    },
    {
      "inputs": [
        {
          "internalType": "bytes32",
          "name": "role",
          "type": "bytes32"
        },
        {
          "internalType": "address",
          "name": "account",
          "type": "address"
        }
      ],
      "name": "hasRole",
      "outputs": [
        {
          "internalType": "bool",
          "name": "",
          "type": "bool"
        }
      ],
      "stateMutability": "view",
      "type": "function"
    },
    {
      "inputs": [
        {
          "internalType": "address",
          "name": "forwarder",
          "type": "address"
        }
      ],
      "name": "isTrustedForwarder",
      "outputs": [
        {
          "internalType": "bool",
          "name": "",
          "type": "bool"
        }
      ],
      "stateMutability": "view",
      "type": "function"
    },
    {
      "inputs": [
        {
          "internalType": "uint256",
          "name": "_lootboxId",
          "type": "uint256"
        }
      ],
      "name": "lootbox",
      "outputs": [
        {
          "components": [
            {
              "internalType": "uint256",
              "name": "id",
              "type": "uint256"
            },
            {
              "internalType": "contract IERC1155",
              "name": "inputCollection",
              "type": "address"
            },
            {
              "internalType": "uint256[]",
              "name": "inputCollectionItemIds",
              "type": "uint256[]"
            },
            {
              "internalType": "uint256[]",
              "name": "inputCollectionItemAmounts",
              "type": "uint256[]"
            },
            {
              "internalType": "contract IERC1155",
              "name": "outputCollection",
              "type": "address"
            },
            {
              "internalType": "uint256[]",
              "name": "outputCollectionItemIds",
              "type": "uint256[]"
            },
            {
              "internalType": "uint256[]",
              "name": "outputCollectionItemAmounts",
              "type": "uint256[]"
            },
            {
              "internalType": "uint256[]",
              "name": "outputCollectionItemWeights",
              "type": "uint256[]"
            },
            {
              "internalType": "uint256",
              "name": "outputTotalItemsWeight",
              "type": "uint256"
            },
            {
              "internalType": "uint256",
              "name": "outputTotalItems",
              "type": "uint256"
            },
            {
              "internalType": "uint256",
              "name": "opens",
              "type": "uint256"
            },
            {
              "internalType": "uint256",
              "name": "lastUpdatedAt",
              "type": "uint256"
            }
          ],
          "internalType": "struct IGame_Lootbox_Manager.Lootbox",
          "name": "",
          "type": "tuple"
        }
      ],
      "stateMutability": "view",
      "type": "function"
    },
    {
      "inputs": [
        {
          "internalType": "uint256",
          "name": "_index",
          "type": "uint256"
        }
      ],
      "name": "lootboxId",
      "outputs": [
        {
          "internalType": "uint256",
          "name": "",
          "type": "uint256"
        }
      ],
      "stateMutability": "view",
      "type": "function"
    },
    {
      "inputs": [
        {
          "internalType": "uint256",
          "name": "_lootboxId",
          "type": "uint256"
        }
      ],
      "name": "lootboxLastUpdate",
      "outputs": [
        {
          "internalType": "uint256[]",
          "name": "",
          "type": "uint256[]"
        }
      ],
      "stateMutability": "view",
      "type": "function"
    },
    {
      "inputs": [
        {
          "internalType": "address",
          "name": "",
          "type": "address"
        },
        {
          "internalType": "address",
          "name": "",
          "type": "address"
        },
        {
          "internalType": "uint256[]",
          "name": "",
          "type": "uint256[]"
        },
        {
          "internalType": "uint256[]",
          "name": "",
          "type": "uint256[]"
        },
        {
          "internalType": "bytes",
          "name": "",
          "type": "bytes"
        }
      ],
      "name": "onERC1155BatchReceived",
      "outputs": [
        {
          "internalType": "bytes4",
          "name": "",
          "type": "bytes4"
        }
      ],
      "stateMutability": "nonpayable",
      "type": "function"
    },
    {
      "inputs": [
        {
          "internalType": "address",
          "name": "",
          "type": "address"
        },
        {
          "internalType": "address",
          "name": "",
          "type": "address"
        },
        {
          "internalType": "uint256",
          "name": "",
          "type": "uint256"
        },
        {
          "internalType": "uint256",
          "name": "",
          "type": "uint256"
        },
        {
          "internalType": "bytes",
          "name": "",
          "type": "bytes"
        }
      ],
      "name": "onERC1155Received",
      "outputs": [
        {
          "internalType": "bytes4",
          "name": "",
          "type": "bytes4"
        }
      ],
      "stateMutability": "nonpayable",
      "type": "function"
    },
    {
      "inputs": [
        {
          "internalType": "uint256",
          "name": "_lootboxId",
          "type": "uint256"
        }
      ],
      "name": "openLootbox",
      "outputs": [],
      "stateMutability": "nonpayable",
      "type": "function"
    },
    {
      "inputs": [
        {
          "internalType": "address",
          "name": "_address",
          "type": "address"
        },
        {
          "internalType": "uint256",
          "name": "_lootboxId",
          "type": "uint256"
        },
        {
          "internalType": "uint256",
          "name": "_openedLootboxIndex",
          "type": "uint256"
        }
      ],
      "name": "openedLootbox",
      "outputs": [
        {
          "components": [
            {
              "internalType": "uint256",
              "name": "lootboxId",
              "type": "uint256"
            },
            {
              "internalType": "uint256",
              "name": "claimSeedBlock",
              "type": "uint256"
            },
            {
              "internalType": "uint256[]",
              "name": "outputCollectionItemIds",
              "type": "uint256[]"
            },
            {
              "internalType": "uint256[]",
              "name": "outputCollectionItemAmounts",
              "type": "uint256[]"
            },
            {
              "internalType": "bool",
              "name": "claimed",
              "type": "bool"
            }
          ],
          "internalType": "struct IGame_Lootbox_Manager.OpenedLootbox",
          "name": "",
          "type": "tuple"
        }
      ],
      "stateMutability": "view",
      "type": "function"
    },
    {
      "inputs": [
        {
          "internalType": "uint256",
          "name": "_startIndexInclusive",
          "type": "uint256"
        },
        {
          "internalType": "uint256",
          "name": "_limit",
          "type": "uint256"
        }
      ],
      "name": "paginateLootboxIds",
      "outputs": [
        {
          "internalType": "uint256[]",
          "name": "",
          "type": "uint256[]"
        }
      ],
      "stateMutability": "view",
      "type": "function"
    },
    {
      "inputs": [
        {
          "internalType": "uint256",
          "name": "_startIndexInclusive",
          "type": "uint256"
        },
        {
          "internalType": "uint256",
          "name": "_limit",
          "type": "uint256"
        }
      ],
      "name": "paginateLootboxLastUpdates",
      "outputs": [
        {
          "internalType": "uint256[][]",
          "name": "",
          "type": "uint256[][]"
        }
      ],
      "stateMutability": "view",
      "type": "function"
    },
    {
      "inputs": [
        {
          "internalType": "uint256",
          "name": "_startIndexInclusive",
          "type": "uint256"
        },
        {
          "internalType": "uint256",
          "name": "_limit",
          "type": "uint256"
        }
      ],
      "name": "paginateLootboxes",
      "outputs": [
        {
          "components": [
            {
              "internalType": "uint256",
              "name": "id",
              "type": "uint256"
            },
            {
              "internalType": "contract IERC1155",
              "name": "inputCollection",
              "type": "address"
            },
            {
              "internalType": "uint256[]",
              "name": "inputCollectionItemIds",
              "type": "uint256[]"
            },
            {
              "internalType": "uint256[]",
              "name": "inputCollectionItemAmounts",
              "type": "uint256[]"
            },
            {
              "internalType": "contract IERC1155",
              "name": "outputCollection",
              "type": "address"
            },
            {
              "internalType": "uint256[]",
              "name": "outputCollectionItemIds",
              "type": "uint256[]"
            },
            {
              "internalType": "uint256[]",
              "name": "outputCollectionItemAmounts",
              "type": "uint256[]"
            },
            {
              "internalType": "uint256[]",
              "name": "outputCollectionItemWeights",
              "type": "uint256[]"
            },
            {
              "internalType": "uint256",
              "name": "outputTotalItemsWeight",
              "type": "uint256"
            },
            {
              "internalType": "uint256",
              "name": "outputTotalItems",
              "type": "uint256"
            },
            {
              "internalType": "uint256",
              "name": "opens",
              "type": "uint256"
            },
            {
              "internalType": "uint256",
              "name": "lastUpdatedAt",
              "type": "uint256"
            }
          ],
          "internalType": "struct IGame_Lootbox_Manager.Lootbox[]",
          "name": "",
          "type": "tuple[]"
        }
      ],
      "stateMutability": "view",
      "type": "function"
    },
    {
      "inputs": [
        {
          "internalType": "address",
          "name": "_address",
          "type": "address"
        },
        {
          "internalType": "uint256",
          "name": "_lootboxId",
          "type": "uint256"
        },
        {
          "internalType": "uint256",
          "name": "_startIndexInclusive",
          "type": "uint256"
        },
        {
          "internalType": "uint256",
          "name": "_limit",
          "type": "uint256"
        }
      ],
      "name": "paginateOpenedLootboxes",
      "outputs": [
        {
          "components": [
            {
              "internalType": "uint256",
              "name": "lootboxId",
              "type": "uint256"
            },
            {
              "internalType": "uint256",
              "name": "claimSeedBlock",
              "type": "uint256"
            },
            {
              "internalType": "uint256[]",
              "name": "outputCollectionItemIds",
              "type": "uint256[]"
            },
            {
              "internalType": "uint256[]",
              "name": "outputCollectionItemAmounts",
              "type": "uint256[]"
            },
            {
              "internalType": "bool",
              "name": "claimed",
              "type": "bool"
            }
          ],
          "internalType": "struct IGame_Lootbox_Manager.OpenedLootbox[]",
          "name": "",
          "type": "tuple[]"
        }
      ],
      "stateMutability": "view",
      "type": "function"
    },
    {
      "inputs": [
        {
          "internalType": "uint256",
          "name": "_lootboxId",
          "type": "uint256"
        }
      ],
      "name": "removeLootbox",
      "outputs": [],
      "stateMutability": "nonpayable",
      "type": "function"
    },
    {
      "inputs": [
        {
          "internalType": "bytes32",
          "name": "_systemId",
          "type": "bytes32"
        }
      ],
      "name": "removeSystemId",
      "outputs": [],
      "stateMutability": "nonpayable",
      "type": "function"
    },
    {
      "inputs": [
        {
          "internalType": "bytes32",
          "name": "role",
          "type": "bytes32"
        },
        {
          "internalType": "address",
          "name": "account",
          "type": "address"
        }
      ],
      "name": "renounceRole",
      "outputs": [],
      "stateMutability": "nonpayable",
      "type": "function"
    },
    {
      "inputs": [
        {
          "internalType": "bytes32",
          "name": "role",
          "type": "bytes32"
        },
        {
          "internalType": "address",
          "name": "account",
          "type": "address"
        }
      ],
      "name": "revokeRole",
      "outputs": [],
      "stateMutability": "nonpayable",
      "type": "function"
    },
    {
      "inputs": [
        {
          "internalType": "uint256",
          "name": "_offset",
          "type": "uint256"
        }
      ],
      "name": "setClaimableBlockOffset",
      "outputs": [],
      "stateMutability": "nonpayable",
      "type": "function"
    },
    {
      "inputs": [
        {
          "internalType": "uint256",
          "name": "_lootboxId",
          "type": "uint256"
        },
        {
          "internalType": "address[2]",
          "name": "_inputOutputCollections",
          "type": "address[2]"
        },
        {
          "internalType": "uint256[][2]",
          "name": "_inputOutputCollectionItemIds",
          "type": "uint256[][2]"
        },
        {
          "internalType": "uint256[][2]",
          "name": "_inputOutputCollectionItemAmounts",
          "type": "uint256[][2]"
        },
        {
          "internalType": "uint256[]",
          "name": "_outputCollectionItemWeights",
          "type": "uint256[]"
        },
        {
          "internalType": "uint256",
          "name": "_outputTotalItems",
          "type": "uint256"
        }
      ],
      "name": "setLootbox",
      "outputs": [],
      "stateMutability": "nonpayable",
      "type": "function"
    },
    {
      "inputs": [],
      "name": "supportedSystemIds",
      "outputs": [
        {
          "internalType": "bytes32[]",
          "name": "",
          "type": "bytes32[]"
        }
      ],
      "stateMutability": "view",
      "type": "function"
    },
    {
      "inputs": [
        {
          "internalType": "bytes4",
          "name": "interfaceId",
          "type": "bytes4"
        }
      ],
      "name": "supportsInterface",
      "outputs": [
        {
          "internalType": "bool",
          "name": "",
          "type": "bool"
        }
      ],
      "stateMutability": "view",
      "type": "function"
    },
    {
      "inputs": [
        {
          "internalType": "bytes32",
          "name": "_systemId",
          "type": "bytes32"
        }
      ],
      "name": "supportsSystemId",
      "outputs": [
        {
          "internalType": "bool",
          "name": "",
          "type": "bool"
        }
      ],
      "stateMutability": "view",
      "type": "function"
    },
    {
      "inputs": [],
      "name": "systemId",
      "outputs": [
        {
          "internalType": "bytes32",
          "name": "",
          "type": "bytes32"
        }
      ],
      "stateMutability": "view",
      "type": "function"
    },
    {
      "inputs": [
        {
          "internalType": "address",
          "name": "_address",
          "type": "address"
        },
        {
          "internalType": "uint256",
          "name": "_lootboxId",
          "type": "uint256"
        }
      ],
      "name": "totalClaimableLootboxes",
      "outputs": [
        {
          "internalType": "uint256",
          "name": "",
          "type": "uint256"
        }
      ],
      "stateMutability": "view",
      "type": "function"
    },
    {
      "inputs": [],
      "name": "totalLootboxes",
      "outputs": [
        {
          "internalType": "uint256",
          "name": "",
          "type": "uint256"
        }
      ],
      "stateMutability": "view",
      "type": "function"
    },
    {
      "inputs": [
        {
          "internalType": "address",
          "name": "_address",
          "type": "address"
        },
        {
          "internalType": "uint256",
          "name": "_lootboxId",
          "type": "uint256"
        }
      ],
      "name": "totalOpenedLootboxes",
      "outputs": [
        {
          "internalType": "uint256",
          "name": "",
          "type": "uint256"
        }
      ],
      "stateMutability": "view",
      "type": "function"
    },
    {
      "inputs": [
        {
          "internalType": "address",
          "name": "_newOwner",
          "type": "address"
        }
      ],
      "name": "transferOwnershipControl",
      "outputs": [],
      "stateMutability": "nonpayable",
      "type": "function"
    },
    {
      "inputs": [],
      "name": "trustedForwarder",
      "outputs": [
        {
          "internalType": "address",
          "name": "",
          "type": "address"
        }
      ],
      "stateMutability": "view",
      "type": "function"
    },
    {
      "inputs": [
        {
          "internalType": "address",
          "name": "_newTrustedForwarder",
          "type": "address"
        }
      ],
      "name": "upgradeTrustedForwarder",
      "outputs": [],
      "stateMutability": "nonpayable",
      "type": "function"
    }
  ],
  "bytecode": "0x60806040526002600a553480156200001657600080fd5b5060405162004d0a38038062004d0a833981016040819052620000399162000239565b600080546001600160a01b0319166001600160a01b038416179055806200006e600182620000c4602090811b62002c1317901c565b5060035560016005556200008d600062000087620000db565b620000f7565b620000bc7f5b618ab2fee761c09bf71319707cefa62eccc93dcc483744898e6c3acf45264362000087620000db565b505062000275565b6000620000d2838362000107565b90505b92915050565b6000620000f26200015960201b62002c261760201c565b905090565b6200010382826200018f565b5050565b60008181526001830160205260408120546200015057508154600181810184556000848152602080822090930184905584548482528286019093526040902091909155620000d5565b506000620000d5565b600080546001600160a01b031633036200017a575060131936013560601c90565b620000f26200023560201b62002c761760201c565b60008281526004602090815260408083206001600160a01b038516845290915290205460ff16620001035760008281526004602090815260408083206001600160a01b03851684529091529020805460ff19166001179055620001f1620000db565b6001600160a01b0316816001600160a01b0316837f2f8788117e7eff1d82e926ec794901d17c78024a50270940304540a733656f0d60405160405180910390a45050565b3390565b600080604083850312156200024d57600080fd5b82516001600160a01b03811681146200026557600080fd5b6020939093015192949293505050565b614a8580620002856000396000f3fe608060405234801561001057600080fd5b50600436106102c85760003560e01c80638404adc11161017b578063bc197c81116100d8578063e1394b901161008c578063ea61401a11610071578063ea61401a146106ab578063f23a6e61146106b3578063fbf3040d146106eb57600080fd5b8063e1394b9014610685578063e8c683fd1461069857600080fd5b8063cd11fa46116100bd578063cd11fa4614610655578063d547741f1461066a578063de0ef5e41461067d57600080fd5b8063bc197c81146105d9578063bf2424c31461064257600080fd5b8063a217fddf1161012f578063abb5d94211610114578063abb5d942146105a0578063af90a2b7146105b3578063b53f3c01146105c657600080fd5b8063a217fddf14610585578063aa2a7eea1461058d57600080fd5b806392e115001161016057806392e115001461053c578063940502ea1461055c57806394cba64e1461056557600080fd5b80638404adc1146104e357806391d14854146104f657600080fd5b80634252ac3f116102295780637f1d0ad2116101dd5780637ff48190116101c25780637ff48190146104b55780637ffb5c65146104c8578063826410fc146104db57600080fd5b80637f1d0ad21461048d5780637f416510146104ad57600080fd5b80635ec2d0221161020e5780635ec2d0221461041557806360234af9146104285780637da0a8771461044857600080fd5b80634252ac3f146103d3578063572b6c05146103e657600080fd5b80630e1d1da7116102805780632f2ff15d116102655780632f2ff15d146103a557806336568abe146103b857806339f898bc146103cb57600080fd5b80630e1d1da714610354578063248a9ca31461037457600080fd5b8063021b0647116102b1578063021b06471461031957806306313ac01461032e57806307af41171461034157600080fd5b806301bab168146102cd57806301ffc9a7146102f6575b600080fd5b6102e06102db366004613b44565b61072e565b6040516102ed9190613ba1565b60405180910390f35b610309610304366004613c21565b610824565b60405190151581526020016102ed565b61032c610327366004613c63565b6108c6565b005b61032c61033c366004613c63565b610965565b61032c61034f366004613c63565b610974565b610367610362366004613c63565b6109ff565b6040516102ed9190613c7c565b610397610382366004613c63565b60009081526004602052604090206001015490565b6040519081526020016102ed565b61032c6103b3366004613cb8565b610a7f565b61032c6103c6366004613cb8565b610c22565b600354610397565b61032c6103e1366004613ce4565b610cee565b6103096103f4366004613ce4565b60005473ffffffffffffffffffffffffffffffffffffffff91821691161490565b610367610423366004613b44565b610d16565b61043b610436366004613b44565b610dea565b6040516102ed9190613e0f565b6000546104689073ffffffffffffffffffffffffffffffffffffffff1681565b60405173ffffffffffffffffffffffffffffffffffffffff90911681526020016102ed565b6104a061049b366004613e82565b611192565b6040516102ed9190613f07565b6102e06112f3565b61032c6104c3366004613c63565b6113a3565b61032c6104d6366004613b44565b6117b2565b6103976117d0565b61032c6104f1366004613f8b565b6117e1565b610309610504366004613cb8565b600091825260046020908152604080842073ffffffffffffffffffffffffffffffffffffffff93909316845291905290205460ff1690565b61054f61054a366004613c63565b611de3565b6040516102ed919061406f565b610397600a5481565b610578610573366004614082565b612148565b6040516102ed91906140b5565b610397600081565b61032c61059b366004613ce4565b612373565b6103976105ae366004613e82565b6123e1565b6104a06105c13660046140c8565b6124b7565b61032c6105d4366004613c63565b61274f565b6106116105e736600461428d565b7fbc197c810000000000000000000000000000000000000000000000000000000095945050505050565b6040517fffffffff0000000000000000000000000000000000000000000000000000000090911681526020016102ed565b610309610650366004613c63565b61275a565b61065d612767565b6040516102ed9190614337565b61032c610678366004613cb8565b612773565b61043b61279d565b61032c610693366004613c63565b612b0d565b6103976106a6366004613c63565b612b88565b610367612c07565b6106116106c136600461437b565b7ff23a6e610000000000000000000000000000000000000000000000000000000095945050505050565b6103976106f9366004613e82565b73ffffffffffffffffffffffffffffffffffffffff919091166000908152600960209081526040808320938352929052205490565b6060600061073c6006612c7a565b841061074957600061075e565b836107546006612c7a565b61075e919061440f565b90506000838211156107705783610772565b815b905060008167ffffffffffffffff81111561078f5761078f614101565b6040519080825280602002602001820160405280156107c257816020015b60608152602001906001900390816107ad5790505b50905060005b82811015610818576107e86103626107e0838a614422565b600690612c84565b8282815181106107fa576107fa614435565b6020026020010181905250808061081090614464565b9150506107c8565b50925050505b92915050565b60007fffffffff0000000000000000000000000000000000000000000000000000000082167f20fa61be0000000000000000000000000000000000000000000000000000000014806108b757507fffffffff0000000000000000000000000000000000000000000000000000000082167f4e2312e000000000000000000000000000000000000000000000000000000000145b8061081e575061081e82612c90565b7f5b618ab2fee761c09bf71319707cefa62eccc93dcc483744898e6c3acf4526436108f081612ce6565b6000821161095f576040517f08c379a000000000000000000000000000000000000000000000000000000000815260206004820152601260248201527f4f66667365742063616e6e6f742062652030000000000000000000000000000060448201526064015b60405180910390fd5b50600a55565b610970600182612cf7565b5050565b7f5b618ab2fee761c09bf71319707cefa62eccc93dcc483744898e6c3acf45264361099e81612ce6565b6109a9600683612cf7565b5060008281526008602052604090819020905183907f0864136c4ebca2d8889222bc6e0378756c87aa96dbac4e5645772cf08d4112ee906109eb9084906145fb565b60405180910390a26000600a909101555050565b604080516002808252606080830184529260009291906020830190803683370190505090508281600081518110610a3857610a38614435565b60200260200101818152505060086000848152602001908152602001600020600b015481600181518110610a6e57610a6e614435565b602090810291909101015292915050565b6000610a8d81610504612d03565b90506000610abd7f5b618ab2fee761c09bf71319707cefa62eccc93dcc483744898e6c3acf452643610504612d03565b90508180610ac85750805b610b54576040517f08c379a000000000000000000000000000000000000000000000000000000000815260206004820152602d60248201527f526f6c65206772616e74696e672072657175697265732061646d696e206f722060448201527f6d616e6167657220726f6c652e000000000000000000000000000000000000006064820152608401610956565b831580610b8057507f5b618ab2fee761c09bf71319707cefa62eccc93dcc483744898e6c3acf45264384145b15610c125781610c12576040517f08c379a000000000000000000000000000000000000000000000000000000000815260206004820152602b60248201527f4f6e6c792061646d696e2063616e206772616e742061646d696e206f72206d6160448201527f6e6167657220726f6c652e0000000000000000000000000000000000000000006064820152608401610956565b610c1c8484612d0d565b50505050565b610c2a612d03565b73ffffffffffffffffffffffffffffffffffffffff168173ffffffffffffffffffffffffffffffffffffffff1614610ce4576040517f08c379a000000000000000000000000000000000000000000000000000000000815260206004820152602f60248201527f416363657373436f6e74726f6c3a2063616e206f6e6c792072656e6f756e636560448201527f20726f6c657320666f722073656c6600000000000000000000000000000000006064820152608401610956565b6109708282612e02565b6000610cf981612ce6565b610d04600083612d0d565b6109706000610d11612d03565b612e02565b60606000610d246006612c7a565b8410610d31576000610d46565b83610d3c6006612c7a565b610d46919061440f565b9050600083821115610d585783610d5a565b815b905060008167ffffffffffffffff811115610d7757610d77614101565b604051908082528060200260200182016040528015610da0578160200160208202803683370190505b50905060005b8281101561081857610dbb6107e08289614422565b828281518110610dcd57610dcd614435565b602090810291909101015280610de281614464565b915050610da6565b60606000610df86006612c7a565b8410610e05576000610e1a565b83610e106006612c7a565b610e1a919061440f565b9050600083821115610e2c5783610e2e565b815b905060008167ffffffffffffffff811115610e4b57610e4b614101565b604051908082528060200260200182016040528015610f0c57816020015b610ef960405180610180016040528060008152602001600073ffffffffffffffffffffffffffffffffffffffff1681526020016060815260200160608152602001600073ffffffffffffffffffffffffffffffffffffffff168152602001606081526020016060815260200160608152602001600081526020016000815260200160008152602001600081525090565b815260200190600190039081610e695790505b50905060005b828110156108185760086000610f2b6107e0848b614422565b8152602080820192909252604090810160002081516101808101835281548152600182015473ffffffffffffffffffffffffffffffffffffffff1681850152600282018054845181870281018701865281815292959394860193830182828015610fb457602002820191906000526020600020905b815481526020019060010190808311610fa0575b505050505081526020016003820180548060200260200160405190810160405280929190818152602001828054801561100c57602002820191906000526020600020905b815481526020019060010190808311610ff8575b5050509183525050600482015473ffffffffffffffffffffffffffffffffffffffff16602080830191909152600583018054604080518285028101850182528281529401939283018282801561108157602002820191906000526020600020905b81548152602001906001019080831161106d575b50505050508152602001600682018054806020026020016040519081016040528092919081815260200182805480156110d957602002820191906000526020600020905b8154815260200190600101908083116110c5575b505050505081526020016007820180548060200260200160405190810160405280929190818152602001828054801561113157602002820191906000526020600020905b81548152602001906001019080831161111d575b505050505081526020016008820154815260200160098201548152602001600a8201548152602001600b8201548152505082828151811061117457611174614435565b6020026020010181905250808061118a90614464565b915050610f12565b73ffffffffffffffffffffffffffffffffffffffff821660009081526009602090815260408083208484528252808320805482518185028101850190935280835260609492939192909184015b828210156112e757838290600052602060002090600502016040518060a001604052908160008201548152602001600182015481526020016002820180548060200260200160405190810160405280929190818152602001828054801561126557602002820191906000526020600020905b815481526020019060010190808311611251575b50505050508152602001600382018054806020026020016040519081016040528092919081815260200182805480156112bd57602002820191906000526020600020905b8154815260200190600101908083116112a9575b50505091835250506004919091015460ff16151560209182015290825260019290920191016111df565b50505050905092915050565b606060006112ff6117d0565b67ffffffffffffffff81111561131757611317614101565b60405190808252806020026020018201604052801561134a57816020015b60608152602001906001900390816113355790505b50905060005b6113586117d0565b81101561139d5761136d610362600683612c84565b82828151811061137f5761137f614435565b6020026020010181905250808061139590614464565b915050611350565b50919050565b6113ab612ef5565b6113b6600682612f68565b611442576040517f08c379a000000000000000000000000000000000000000000000000000000000815260206004820152602d60248201527f6c6f6f74626f78496420646f6573206e6f74206578697374206f72206861732060448201527f6265656e2072656d6f7665642e000000000000000000000000000000000000006064820152608401610956565b6000818152600860205260409020600181015473ffffffffffffffffffffffffffffffffffffffff16156116315760018101546040517f01ffc9a70000000000000000000000000000000000000000000000000000000081527fd2c80a6200000000000000000000000000000000000000000000000000000000600482015273ffffffffffffffffffffffffffffffffffffffff909116906301ffc9a790602401602060405180830381865afa158015611500573d6000803e3d6000fd5b505050506040513d601f19601f82011682018060405250810190611524919061460e565b156115ae57600181015473ffffffffffffffffffffffffffffffffffffffff16634b7c78dc611551612d03565b83600201846003016040518463ffffffff1660e01b815260040161157793929190614630565b600060405180830381600087803b15801561159157600080fd5b505af11580156115a5573d6000803e3d6000fd5b50505050611631565b600181015473ffffffffffffffffffffffffffffffffffffffff16632eb2c2d66115d6612d03565b3084600201856003016040518563ffffffff1660e01b81526004016115fe949392919061467b565b600060405180830381600087803b15801561161857600080fd5b505af115801561162c573d6000803e3d6000fd5b505050505b6116656040518060a00160405280600081526020016000815260200160608152602001606081526020016000151581525090565b828152600a546116759043614422565b602082015260096000611686612d03565b73ffffffffffffffffffffffffffffffffffffffff168152602080820192909252604090810160009081208682528352818120805460018181018355918352918490208551600590930201918255848401519082015590830151805184936116f5926002850192910190613ae4565b5060608201518051611711916003840191602090910190613ae4565b5060809190910151600490910180547fffffffffffffffffffffffffffffffffffffffffffffffffffffffffffffff0016911515919091179055600a8201805490600061175d83614464565b9190505550827fcbe236ccb8bf2ae258fd54e73752d614c82aa6293d5256658cc3ce58dc4d4bf08361178d612d03565b60405161179b9291906146e3565b60405180910390a250506117af6001600555565b50565b6117ba612ef5565b6117c682826001612f80565b6109706001600555565b60006117dc6006612c7a565b905090565b7f5b618ab2fee761c09bf71319707cefa62eccc93dcc483744898e6c3acf45264361180b81612ce6565b611815858061471b565b9050611821878061471b565b9050146118b0576040517f08c379a000000000000000000000000000000000000000000000000000000000815260206004820152602d60248201527f4d69736d61746368656420696e707574206974656d2069647320616e6420616d60448201527f6f756e74206c656e677468732e000000000000000000000000000000000000006064820152608401610956565b6118bd602086018661471b565b90506118cc602088018861471b565b90501461195b576040517f08c379a000000000000000000000000000000000000000000000000000000000815260206004820152602d60248201527f4d69736d617463686564206f7574707574206974656d2069647320616e64206160448201527f6d6f756e74206c656e6774682e000000000000000000000000000000000000006064820152608401610956565b82611969602088018861471b565b9050146119f8576040517f08c379a000000000000000000000000000000000000000000000000000000000815260206004820152603160248201527f4d69736d61746368206f7574707574206974656d2069647320616e642069746560448201527f6d2077656967687473206c656e6774682e0000000000000000000000000000006064820152608401610956565b6000805b84811015611a3c57858582818110611a1657611a16614435565b9050602002013582611a289190614422565b915080611a3481614464565b9150506119fc565b5060006040518061018001604052808b81526020018a600060028110611a6457611a64614435565b602002016020810190611a779190613ce4565b73ffffffffffffffffffffffffffffffffffffffff168152602001611a9c8a8061471b565b80806020026020016040519081016040528093929190818152602001838360200280828437600092019190915250505090825250602001611add898061471b565b80806020026020016040519081016040528093929190818152602001838360200280828437600092019190915250505090825250602090810190611b279060408d01908d01613ce4565b73ffffffffffffffffffffffffffffffffffffffff168152602090810190611b51908b018b61471b565b80806020026020016040519081016040528093929190818152602001838360200280828437600092019190915250505090825250602090810190611b97908a018a61471b565b8080602002602001604051908101604052809392919081815260200183836020028082843760009201919091525050509082525060408051602089810282810182019093528982529283019290918a918a9182918501908490808284376000920182905250938552505050602080830186905260408084018990528e835260089091529020600a01546060820152426080909101529050611c3960068b612c13565b5060008a81526008602090815260409182902083518155838201516001820180547fffffffffffffffffffffffff00000000000000000000000000000000000000001673ffffffffffffffffffffffffffffffffffffffff909216919091179055918301518051849392611cb4926002850192910190613ae4565b5060608201518051611cd0916003840191602090910190613ae4565b5060808201516004820180547fffffffffffffffffffffffff00000000000000000000000000000000000000001673ffffffffffffffffffffffffffffffffffffffff90921691909117905560a08201518051611d37916005840191602090910190613ae4565b5060c08201518051611d53916006840191602090910190613ae4565b5060e08201518051611d6f916007840191602090910190613ae4565b506101008201518160080155610120820151816009015561014082015181600a015561016082015181600b0155905050897fb2e547eb18679a18ee72bf11d33344b9a6a24f4afecf77e5ff1833294b4b0ab982604051611dcf919061406f565b60405180910390a250505050505050505050565b611e7360405180610180016040528060008152602001600073ffffffffffffffffffffffffffffffffffffffff1681526020016060815260200160608152602001600073ffffffffffffffffffffffffffffffffffffffff168152602001606081526020016060815260200160608152602001600081526020016000815260200160008152602001600081525090565b611e7e600683612f68565b611f0a576040517f08c379a000000000000000000000000000000000000000000000000000000000815260206004820152602d60248201527f6c6f6f74626f78496420646f6573206e6f74206578697374206f72206861732060448201527f6265656e2072656d6f7665642e000000000000000000000000000000000000006064820152608401610956565b60008281526008602090815260409182902082516101808101845281548152600182015473ffffffffffffffffffffffffffffffffffffffff168184015260028201805485518186028101860187528181529295939493860193830182828015611f9357602002820191906000526020600020905b815481526020019060010190808311611f7f575b5050505050815260200160038201805480602002602001604051908101604052809291908181526020018280548015611feb57602002820191906000526020600020905b815481526020019060010190808311611fd7575b5050509183525050600482015473ffffffffffffffffffffffffffffffffffffffff16602080830191909152600583018054604080518285028101850182528281529401939283018282801561206057602002820191906000526020600020905b81548152602001906001019080831161204c575b50505050508152602001600682018054806020026020016040519081016040528092919081815260200182805480156120b857602002820191906000526020600020905b8154815260200190600101908083116120a4575b505050505081526020016007820180548060200260200160405190810160405280929190818152602001828054801561211057602002820191906000526020600020905b8154815260200190600101908083116120fc575b505050505081526020016008820154815260200160098201548152602001600a8201548152602001600b820154815250509050919050565b61217c6040518060a00160405280600081526020016000815260200160608152602001606081526020016000151581525090565b73ffffffffffffffffffffffffffffffffffffffff84166000908152600960209081526040808320868452909152902054821061223b576040517f08c379a000000000000000000000000000000000000000000000000000000000815260206004820152602360248201527f6f70656e65644c6f6f74626f78496e64657820646f6573206e6f74206578697360448201527f74732e00000000000000000000000000000000000000000000000000000000006064820152608401610956565b73ffffffffffffffffffffffffffffffffffffffff84166000908152600960209081526040808320868452909152902080548390811061227d5761227d614435565b90600052602060002090600502016040518060a00160405290816000820154815260200160018201548152602001600282018054806020026020016040519081016040528092919081815260200182805480156122f957602002820191906000526020600020905b8154815260200190600101908083116122e5575b505050505081526020016003820180548060200260200160405190810160405280929190818152602001828054801561235157602002820191906000526020600020905b81548152602001906001019080831161233d575b50505091835250506004919091015460ff161515602090910152949350505050565b7f5b618ab2fee761c09bf71319707cefa62eccc93dcc483744898e6c3acf45264361239d81612ce6565b600080547fffffffffffffffffffffffff00000000000000000000000000000000000000001673ffffffffffffffffffffffffffffffffffffffff84161790555050565b600080805b73ffffffffffffffffffffffffffffffffffffffff851660009081526009602090815260408083208784529091529020548110156124af5773ffffffffffffffffffffffffffffffffffffffff85166000908152600960209081526040808320878452909152812080548390811061246057612460614435565b90600052602060002090600502019050806001015443101580156124895750600481015460ff16155b1561249c578261249881614464565b9350505b50806124a781614464565b9150506123e6565b509392505050565b73ffffffffffffffffffffffffffffffffffffffff841660009081526009602090815260408083208684529091528120546060919084106124f9576000612535565b73ffffffffffffffffffffffffffffffffffffffff8616600090815260096020908152604080832088845290915290205461253590859061440f565b90506000838211156125475783612549565b815b905060008167ffffffffffffffff81111561256657612566614101565b6040519080825280602002602001820160405280156125cb57816020015b6125b86040518060a00160405280600081526020016000815260200160608152602001606081526020016000151581525090565b8152602001906001900390816125845790505b50905060005b828110156127435773ffffffffffffffffffffffffffffffffffffffff891660009081526009602090815260408083208b845290915290206126138289614422565b8154811061262357612623614435565b90600052602060002090600502016040518060a001604052908160008201548152602001600182015481526020016002820180548060200260200160405190810160405280929190818152602001828054801561269f57602002820191906000526020600020905b81548152602001906001019080831161268b575b50505050508152602001600382018054806020026020016040519081016040528092919081815260200182805480156126f757602002820191906000526020600020905b8154815260200190600101908083116126e3575b50505091835250506004919091015460ff161515602090910152825183908390811061272557612725614435565b6020026020010181905250808061273b90614464565b9150506125d1565b50979650505050505050565b610970600182612c13565b600061081e600183612f68565b60606117dc600161355c565b60008281526004602052604090206001015461278e81612ce6565b6127988383612e02565b505050565b606060006127a96117d0565b67ffffffffffffffff8111156127c1576127c1614101565b60405190808252806020026020018201604052801561288257816020015b61286f60405180610180016040528060008152602001600073ffffffffffffffffffffffffffffffffffffffff1681526020016060815260200160608152602001600073ffffffffffffffffffffffffffffffffffffffff168152602001606081526020016060815260200160608152602001600081526020016000815260200160008152602001600081525090565b8152602001906001900390816127df5790505b50905060005b6128906117d0565b81101561139d57600860006128a6600684612c84565b8152602080820192909252604090810160002081516101808101835281548152600182015473ffffffffffffffffffffffffffffffffffffffff168185015260028201805484518187028101870186528181529295939486019383018282801561292f57602002820191906000526020600020905b81548152602001906001019080831161291b575b505050505081526020016003820180548060200260200160405190810160405280929190818152602001828054801561298757602002820191906000526020600020905b815481526020019060010190808311612973575b5050509183525050600482015473ffffffffffffffffffffffffffffffffffffffff1660208083019190915260058301805460408051828502810185018252828152940193928301828280156129fc57602002820191906000526020600020905b8154815260200190600101908083116129e8575b5050505050815260200160068201805480602002602001604051908101604052809291908181526020018280548015612a5457602002820191906000526020600020905b815481526020019060010190808311612a40575b5050505050815260200160078201805480602002602001604051908101604052809291908181526020018280548015612aac57602002820191906000526020600020905b815481526020019060010190808311612a98575b505050505081526020016008820154815260200160098201548152602001600a8201548152602001600b82015481525050828281518110612aef57612aef614435565b60200260200101819052508080612b0590614464565b915050612888565b612b15612ef5565b60005b60096000612b24612d03565b73ffffffffffffffffffffffffffffffffffffffff16815260208082019290925260409081016000908120858252909252902054811015612b7d57612b6b82826000612f80565b80612b7581614464565b915050612b18565b506117af6001600555565b6000612b946006612c7a565b8210612bfc576040517f08c379a000000000000000000000000000000000000000000000000000000000815260206004820152601360248201527f496e646578206f7574206f6620626f756e6473000000000000000000000000006044820152606401610956565b61081e600683612c84565b60606117dc600661355c565b6000612c1f8383613569565b9392505050565b6000805473ffffffffffffffffffffffffffffffffffffffff163303612c7157507fffffffffffffffffffffffffffffffffffffffffffffffffffffffffffffffec36013560601c90565b503390565b3390565b600061081e825490565b6000612c1f83836135b8565b60007fffffffff0000000000000000000000000000000000000000000000000000000082167f7965db0b00000000000000000000000000000000000000000000000000000000148061081e575061081e826135e2565b6117af81612cf2612d03565b613679565b6000612c1f8383613733565b60006117dc612c26565b600082815260046020908152604080832073ffffffffffffffffffffffffffffffffffffffff8516845290915290205460ff1661097057600082815260046020908152604080832073ffffffffffffffffffffffffffffffffffffffff85168452909152902080547fffffffffffffffffffffffffffffffffffffffffffffffffffffffffffffff00166001179055612da4612d03565b73ffffffffffffffffffffffffffffffffffffffff168173ffffffffffffffffffffffffffffffffffffffff16837f2f8788117e7eff1d82e926ec794901d17c78024a50270940304540a733656f0d60405160405180910390a45050565b600082815260046020908152604080832073ffffffffffffffffffffffffffffffffffffffff8516845290915290205460ff161561097057600082815260046020908152604080832073ffffffffffffffffffffffffffffffffffffffff85168452909152902080547fffffffffffffffffffffffffffffffffffffffffffffffffffffffffffffff00169055612e97612d03565b73ffffffffffffffffffffffffffffffffffffffff168173ffffffffffffffffffffffffffffffffffffffff16837ff6391f5c32d9c69d2a47ea670b442974b53935d1edc7fd64eb21e047a839171b60405160405180910390a45050565b600260055403612f61576040517f08c379a000000000000000000000000000000000000000000000000000000000815260206004820152601f60248201527f5265656e7472616e637947756172643a207265656e7472616e742063616c6c006044820152606401610956565b6002600555565b60008181526001830160205260408120541515612c1f565b600060096000612f8e612d03565b73ffffffffffffffffffffffffffffffffffffffff1673ffffffffffffffffffffffffffffffffffffffff16815260200190815260200160002060008581526020019081526020016000208381548110612fea57612fea614435565b90600052602060002090600502019050600060086000868152602001908152602001600020905081600101544310806130275750600482015460ff165b156130c35782156130bc57604080517f08c379a00000000000000000000000000000000000000000000000000000000081526020600482015260248101919091527f4c6f6f74626f7820756e636c61696d61626c652e20436c61696d20626c6f636b60448201527f206e6f742072656163686564206f7220616c726561647920636c61696d65642e6064820152608401610956565b5050505050565b6000816009015467ffffffffffffffff8111156130e2576130e2614101565b60405190808252806020026020018201604052801561310b578160200160208202803683370190505b5090506000826009015467ffffffffffffffff81111561312d5761312d614101565b604051908082528060200260200182016040528015613156578160200160208202803683370190505b50905060005b83600901548110156132f65760006001866001015461317b919061440f565b40613184612d03565b89846040516020016131d4949392919093845260609290921b7fffffffffffffffffffffffffffffffffffffffff0000000000000000000000001660208401526034830152605482015260740190565b6040516020818303038152906040528051906020012060001c90506000856008015482613201919061478a565b905060005b60078701548110156132e057600087600701828154811061322957613229614435565b90600052602060002001549050828111156132c05787600501828154811061325357613253614435565b906000526020600020015487868151811061327057613270614435565b60200260200101818152505087600601828154811061329157613291614435565b90600052602060002001548686815181106132ae576132ae614435565b602002602001018181525050506132e0565b6132ca818461440f565b92505080806132d890614464565b915050613206565b50505080806132ee90614464565b91505061315c565b506004838101546040517f91d148540000000000000000000000000000000000000000000000000000000081527fc9eb32e43bf5ecbceacf00b32281dfc5d6d700a0db676ea26ccf938a385ac3f79281019290925230602483015273ffffffffffffffffffffffffffffffffffffffff16906391d1485490604401602060405180830381865afa15801561338e573d6000803e3d6000fd5b505050506040513d601f19601f820116820180604052508101906133b2919061460e565b1561343657600483015473ffffffffffffffffffffffffffffffffffffffff166308f427c76133df612d03565b84846040518463ffffffff1660e01b81526004016133ff939291906147c5565b600060405180830381600087803b15801561341957600080fd5b505af115801561342d573d6000803e3d6000fd5b505050506134b3565b600483015473ffffffffffffffffffffffffffffffffffffffff16632eb2c2d63061345f612d03565b85856040518563ffffffff1660e01b81526004016134809493929190614806565b600060405180830381600087803b15801561349a57600080fd5b505af11580156134ae573d6000803e3d6000fd5b505050505b81516134c89060028601906020850190613ae4565b5080516134de9060038601906020840190613ae4565b506004840180547fffffffffffffffffffffffffffffffffffffffffffffffffffffffffffffff00166001179055867fa90466a1141d4242085b5ac5c6634a366ec37ad66c953e191b51c3441e56010e84613537612d03565b89868660405161354b959493929190614851565b60405180910390a250505050505050565b60606000612c1f83613826565b60008181526001830160205260408120546135b05750815460018181018455600084815260208082209093018490558454848252828601909352604090209190915561081e565b50600061081e565b60008260000182815481106135cf576135cf614435565b9060005260206000200154905092915050565b60007fffffffff0000000000000000000000000000000000000000000000000000000082167f4e2312e000000000000000000000000000000000000000000000000000000000148061081e57507f01ffc9a7000000000000000000000000000000000000000000000000000000007fffffffff0000000000000000000000000000000000000000000000000000000083161461081e565b600082815260046020908152604080832073ffffffffffffffffffffffffffffffffffffffff8516845290915290205460ff16610970576136b981613882565b6136c48360206138a1565b6040516020016136d59291906148dc565b604080517fffffffffffffffffffffffffffffffffffffffffffffffffffffffffffffffe0818403018152908290527f08c379a00000000000000000000000000000000000000000000000000000000082526109569160040161495d565b6000818152600183016020526040812054801561381c57600061375760018361440f565b855490915060009061376b9060019061440f565b90508181146137d057600086600001828154811061378b5761378b614435565b90600052602060002001549050808760000184815481106137ae576137ae614435565b6000918252602080832090910192909255918252600188019052604090208390555b85548690806137e1576137e16149ae565b60019003818190600052602060002001600090559055856001016000868152602001908152602001600020600090556001935050505061081e565b600091505061081e565b60608160000180548060200260200160405190810160405280929190818152602001828054801561387657602002820191906000526020600020905b815481526020019060010190808311613862575b50505050509050919050565b606061081e73ffffffffffffffffffffffffffffffffffffffff831660145b606060006138b08360026149dd565b6138bb906002614422565b67ffffffffffffffff8111156138d3576138d3614101565b6040519080825280601f01601f1916602001820160405280156138fd576020820181803683370190505b5090507f30000000000000000000000000000000000000000000000000000000000000008160008151811061393457613934614435565b60200101907effffffffffffffffffffffffffffffffffffffffffffffffffffffffffffff1916908160001a9053507f78000000000000000000000000000000000000000000000000000000000000008160018151811061399757613997614435565b60200101907effffffffffffffffffffffffffffffffffffffffffffffffffffffffffffff1916908160001a90535060006139d38460026149dd565b6139de906001614422565b90505b6001811115613a7b577f303132333435363738396162636465660000000000000000000000000000000085600f1660108110613a1f57613a1f614435565b1a60f81b828281518110613a3557613a35614435565b60200101907effffffffffffffffffffffffffffffffffffffffffffffffffffffffffffff1916908160001a90535060049490941c93613a7481614a1a565b90506139e1565b508315612c1f576040517f08c379a000000000000000000000000000000000000000000000000000000000815260206004820181905260248201527f537472696e67733a20686578206c656e67746820696e73756666696369656e746044820152606401610956565b828054828255906000526020600020908101928215613b1f579160200282015b82811115613b1f578251825591602001919060010190613b04565b50613b2b929150613b2f565b5090565b5b80821115613b2b5760008155600101613b30565b60008060408385031215613b5757600080fd5b50508035926020909101359150565b600081518084526020808501945080840160005b83811015613b9657815187529582019590820190600101613b7a565b509495945050505050565b6000602080830181845280855180835260408601915060408160051b870101925083870160005b82811015613c14577fffffffffffffffffffffffffffffffffffffffffffffffffffffffffffffffc0888603018452613c02858351613b66565b94509285019290850190600101613bc8565b5092979650505050505050565b600060208284031215613c3357600080fd5b81357fffffffff0000000000000000000000000000000000000000000000000000000081168114612c1f57600080fd5b600060208284031215613c7557600080fd5b5035919050565b602081526000612c1f6020830184613b66565b803573ffffffffffffffffffffffffffffffffffffffff81168114613cb357600080fd5b919050565b60008060408385031215613ccb57600080fd5b82359150613cdb60208401613c8f565b90509250929050565b600060208284031215613cf657600080fd5b612c1f82613c8f565b6000610180825184526020830151613d2f602086018273ffffffffffffffffffffffffffffffffffffffff169052565b506040830151816040860152613d4782860182613b66565b91505060608301518482036060860152613d618282613b66565b9150506080830151613d8b608086018273ffffffffffffffffffffffffffffffffffffffff169052565b5060a083015184820360a0860152613da38282613b66565b91505060c083015184820360c0860152613dbd8282613b66565b91505060e083015184820360e0860152613dd78282613b66565b610100858101519087015261012080860151908701526101408086015190870152610160948501519490950193909352509192915050565b6000602080830181845280855180835260408601915060408160051b870101925083870160005b82811015613c14577fffffffffffffffffffffffffffffffffffffffffffffffffffffffffffffffc0888603018452613e70858351613cff565b94509285019290850190600101613e36565b60008060408385031215613e9557600080fd5b613e9e83613c8f565b946020939093013593505050565b80518252602081015160208301526000604082015160a06040850152613ed560a0850182613b66565b905060608301518482036060860152613eee8282613b66565b9150506080830151151560808501528091505092915050565b6000602080830181845280855180835260408601915060408160051b870101925083870160005b82811015613c14577fffffffffffffffffffffffffffffffffffffffffffffffffffffffffffffffc0888603018452613f68858351613eac565b94509285019290850190600101613f2e565b806040810183101561081e57600080fd5b600080600080600080600060e0888a031215613fa657600080fd5b87359650613fb78960208a01613f7a565b9550606088013567ffffffffffffffff80821115613fd457600080fd5b613fe08b838c01613f7a565b965060808a0135915080821115613ff657600080fd5b6140028b838c01613f7a565b955060a08a013591508082111561401857600080fd5b818a0191508a601f83011261402c57600080fd5b81358181111561403b57600080fd5b8b60208260051b850101111561405057600080fd5b60208301955080945050505060c0880135905092959891949750929550565b602081526000612c1f6020830184613cff565b60008060006060848603121561409757600080fd5b6140a084613c8f565b95602085013595506040909401359392505050565b602081526000612c1f6020830184613eac565b600080600080608085870312156140de57600080fd5b6140e785613c8f565b966020860135965060408601359560600135945092505050565b7f4e487b7100000000000000000000000000000000000000000000000000000000600052604160045260246000fd5b604051601f82017fffffffffffffffffffffffffffffffffffffffffffffffffffffffffffffffe016810167ffffffffffffffff8111828210171561417757614177614101565b604052919050565b600082601f83011261419057600080fd5b8135602067ffffffffffffffff8211156141ac576141ac614101565b8160051b6141bb828201614130565b92835284810182019282810190878511156141d557600080fd5b83870192505b848310156141f4578235825291830191908301906141db565b979650505050505050565b600082601f83011261421057600080fd5b813567ffffffffffffffff81111561422a5761422a614101565b61425b60207fffffffffffffffffffffffffffffffffffffffffffffffffffffffffffffffe0601f84011601614130565b81815284602083860101111561427057600080fd5b816020850160208301376000918101602001919091529392505050565b600080600080600060a086880312156142a557600080fd5b6142ae86613c8f565b94506142bc60208701613c8f565b9350604086013567ffffffffffffffff808211156142d957600080fd5b6142e589838a0161417f565b945060608801359150808211156142fb57600080fd5b61430789838a0161417f565b9350608088013591508082111561431d57600080fd5b5061432a888289016141ff565b9150509295509295909350565b6020808252825182820181905260009190848201906040850190845b8181101561436f57835183529284019291840191600101614353565b50909695505050505050565b600080600080600060a0868803121561439357600080fd5b61439c86613c8f565b94506143aa60208701613c8f565b93506040860135925060608601359150608086013567ffffffffffffffff8111156143d457600080fd5b61432a888289016141ff565b7f4e487b7100000000000000000000000000000000000000000000000000000000600052601160045260246000fd5b8181038181111561081e5761081e6143e0565b8082018082111561081e5761081e6143e0565b7f4e487b7100000000000000000000000000000000000000000000000000000000600052603260045260246000fd5b60007fffffffffffffffffffffffffffffffffffffffffffffffffffffffffffffffff8203614495576144956143e0565b5060010190565b6000815480845260208085019450836000528060002060005b83811015613b96578154875295820195600191820191016144b5565b6000610180825484526144fb600184015473ffffffffffffffffffffffffffffffffffffffff1690565b73ffffffffffffffffffffffffffffffffffffffff1660208501526040840181905261452c8185016002850161449c565b90508381036060850152614543816003850161449c565b9050614566600484015473ffffffffffffffffffffffffffffffffffffffff1690565b73ffffffffffffffffffffffffffffffffffffffff16608085015283810360a0850152614596816005850161449c565b905083810360c08501526145ad816006850161449c565b905083810360e08501526145c4816007850161449c565b60088401546101008601526009840154610120860152600a840154610140860152600b909301546101609094019390935250919050565b602081526000612c1f60208301846144d1565b60006020828403121561462057600080fd5b81518015158114612c1f57600080fd5b73ffffffffffffffffffffffffffffffffffffffff8416815260606020820152600061465f606083018561449c565b8281036040840152614671818561449c565b9695505050505050565b600073ffffffffffffffffffffffffffffffffffffffff808716835280861660208401525060a060408301526146b460a083018561449c565b82810360608401526146c6818561449c565b838103608090940193909352505060008152602001949350505050565b6040815260006146f660408301856144d1565b905073ffffffffffffffffffffffffffffffffffffffff831660208301529392505050565b60008083357fffffffffffffffffffffffffffffffffffffffffffffffffffffffffffffffe184360301811261475057600080fd5b83018035915067ffffffffffffffff82111561476b57600080fd5b6020019150600581901b360382131561478357600080fd5b9250929050565b6000826147c0577f4e487b7100000000000000000000000000000000000000000000000000000000600052601260045260246000fd5b500690565b73ffffffffffffffffffffffffffffffffffffffff841681526060602082015260006147f46060830185613b66565b82810360408401526146718185613b66565b600073ffffffffffffffffffffffffffffffffffffffff808716835280861660208401525060a0604083015261483f60a0830185613b66565b82810360608401526146c68185613b66565b60a08152600061486460a08301886144d1565b73ffffffffffffffffffffffffffffffffffffffff8716602084015285604084015282810360608401526148988186613b66565b905082810360808401526148ac8185613b66565b98975050505050505050565b60005b838110156148d35781810151838201526020016148bb565b50506000910152565b7f416363657373436f6e74726f6c3a206163636f756e74200000000000000000008152600083516149148160178501602088016148b8565b7f206973206d697373696e6720726f6c652000000000000000000000000000000060179184019182015283516149518160288401602088016148b8565b01602801949350505050565b602081526000825180602084015261497c8160408501602087016148b8565b601f017fffffffffffffffffffffffffffffffffffffffffffffffffffffffffffffffe0169190910160400192915050565b7f4e487b7100000000000000000000000000000000000000000000000000000000600052603160045260246000fd5b6000817fffffffffffffffffffffffffffffffffffffffffffffffffffffffffffffffff0483118215151615614a1557614a156143e0565b500290565b600081614a2957614a296143e0565b507fffffffffffffffffffffffffffffffffffffffffffffffffffffffffffffffff019056fea2646970667358221220c30916196859955def3ae38ddc05db2ed9d8d4bf92467b462c56aa25e6e226d864736f6c63430008100033",
  "linkReferences": {},
  "deployedLinkReferences": {}
}