{
  "_format": "hh-sol-artifact-1",
  "contractName": "Game_Lootbox_Manager",
  "sourceName": "contracts/Lootbox_Manager/Game_Lootbox_Manager.sol",
  "abi": [
    {
      "inputs": [
        {
          "internalType": "address",
          "name": "_forwarder",
          "type": "address"
        },
        {
          "internalType": "bytes32",
          "name": "_systemId",
          "type": "bytes32"
        }
      ],
      "stateMutability": "nonpayable",
      "type": "constructor"
    },
    {
      "anonymous": false,
      "inputs": [
        {
          "indexed": true,
          "internalType": "uint256",
          "name": "lootboxId",
          "type": "uint256"
        },
        {
          "components": [
            {
              "internalType": "uint256",
              "name": "id",
              "type": "uint256"
            },
            {
              "internalType": "contract IERC1155",
              "name": "inputCollection",
              "type": "address"
            },
            {
              "internalType": "uint256[]",
              "name": "inputCollectionItemIds",
              "type": "uint256[]"
            },
            {
              "internalType": "uint256[]",
              "name": "inputCollectionItemAmounts",
              "type": "uint256[]"
            },
            {
              "internalType": "contract IERC1155",
              "name": "outputCollection",
              "type": "address"
            },
            {
              "internalType": "uint256[]",
              "name": "outputCollectionItemIds",
              "type": "uint256[]"
            },
            {
              "internalType": "uint256[]",
              "name": "outputCollectionItemAmounts",
              "type": "uint256[]"
            },
            {
              "internalType": "uint256[]",
              "name": "outputCollectionItemWeights",
              "type": "uint256[]"
            },
            {
              "internalType": "uint256",
              "name": "outputTotalItemsWeight",
              "type": "uint256"
            },
            {
              "internalType": "uint256",
              "name": "outputTotalItems",
              "type": "uint256"
            },
            {
              "internalType": "uint256",
              "name": "opens",
              "type": "uint256"
            },
            {
              "internalType": "uint256",
              "name": "lastUpdatedAt",
              "type": "uint256"
            }
          ],
          "indexed": false,
          "internalType": "struct IGame_Lootbox_Manager.Lootbox",
          "name": "lootbox",
          "type": "tuple"
        },
        {
          "indexed": false,
          "internalType": "address",
          "name": "user",
          "type": "address"
        },
        {
          "indexed": false,
          "internalType": "uint256",
          "name": "openedLootboxIndex",
          "type": "uint256"
        },
        {
          "indexed": false,
          "internalType": "uint256[]",
          "name": "outputCollectionItemIds",
          "type": "uint256[]"
        },
        {
          "indexed": false,
          "internalType": "uint256[]",
          "name": "outputCollectionItemAmounts",
          "type": "uint256[]"
        }
      ],
      "name": "LootboxClaimed",
      "type": "event"
    },
    {
      "anonymous": false,
      "inputs": [
        {
          "indexed": true,
          "internalType": "uint256",
          "name": "lootboxId",
          "type": "uint256"
        },
        {
          "components": [
            {
              "internalType": "uint256",
              "name": "id",
              "type": "uint256"
            },
            {
              "internalType": "contract IERC1155",
              "name": "inputCollection",
              "type": "address"
            },
            {
              "internalType": "uint256[]",
              "name": "inputCollectionItemIds",
              "type": "uint256[]"
            },
            {
              "internalType": "uint256[]",
              "name": "inputCollectionItemAmounts",
              "type": "uint256[]"
            },
            {
              "internalType": "contract IERC1155",
              "name": "outputCollection",
              "type": "address"
            },
            {
              "internalType": "uint256[]",
              "name": "outputCollectionItemIds",
              "type": "uint256[]"
            },
            {
              "internalType": "uint256[]",
              "name": "outputCollectionItemAmounts",
              "type": "uint256[]"
            },
            {
              "internalType": "uint256[]",
              "name": "outputCollectionItemWeights",
              "type": "uint256[]"
            },
            {
              "internalType": "uint256",
              "name": "outputTotalItemsWeight",
              "type": "uint256"
            },
            {
              "internalType": "uint256",
              "name": "outputTotalItems",
              "type": "uint256"
            },
            {
              "internalType": "uint256",
              "name": "opens",
              "type": "uint256"
            },
            {
              "internalType": "uint256",
              "name": "lastUpdatedAt",
              "type": "uint256"
            }
          ],
          "indexed": false,
          "internalType": "struct IGame_Lootbox_Manager.Lootbox",
          "name": "lootbox",
          "type": "tuple"
        },
        {
          "indexed": false,
          "internalType": "address",
          "name": "user",
          "type": "address"
        }
      ],
      "name": "LootboxOpened",
      "type": "event"
    },
    {
      "anonymous": false,
      "inputs": [
        {
          "indexed": true,
          "internalType": "uint256",
          "name": "lootboxId",
          "type": "uint256"
        },
        {
          "components": [
            {
              "internalType": "uint256",
              "name": "id",
              "type": "uint256"
            },
            {
              "internalType": "contract IERC1155",
              "name": "inputCollection",
              "type": "address"
            },
            {
              "internalType": "uint256[]",
              "name": "inputCollectionItemIds",
              "type": "uint256[]"
            },
            {
              "internalType": "uint256[]",
              "name": "inputCollectionItemAmounts",
              "type": "uint256[]"
            },
            {
              "internalType": "contract IERC1155",
              "name": "outputCollection",
              "type": "address"
            },
            {
              "internalType": "uint256[]",
              "name": "outputCollectionItemIds",
              "type": "uint256[]"
            },
            {
              "internalType": "uint256[]",
              "name": "outputCollectionItemAmounts",
              "type": "uint256[]"
            },
            {
              "internalType": "uint256[]",
              "name": "outputCollectionItemWeights",
              "type": "uint256[]"
            },
            {
              "internalType": "uint256",
              "name": "outputTotalItemsWeight",
              "type": "uint256"
            },
            {
              "internalType": "uint256",
              "name": "outputTotalItems",
              "type": "uint256"
            },
            {
              "internalType": "uint256",
              "name": "opens",
              "type": "uint256"
            },
            {
              "internalType": "uint256",
              "name": "lastUpdatedAt",
              "type": "uint256"
            }
          ],
          "indexed": false,
          "internalType": "struct IGame_Lootbox_Manager.Lootbox",
          "name": "lootbox",
          "type": "tuple"
        }
      ],
      "name": "LootboxRemoved",
      "type": "event"
    },
    {
      "anonymous": false,
      "inputs": [
        {
          "indexed": true,
          "internalType": "uint256",
          "name": "lootboxId",
          "type": "uint256"
        },
        {
          "components": [
            {
              "internalType": "uint256",
              "name": "id",
              "type": "uint256"
            },
            {
              "internalType": "contract IERC1155",
              "name": "inputCollection",
              "type": "address"
            },
            {
              "internalType": "uint256[]",
              "name": "inputCollectionItemIds",
              "type": "uint256[]"
            },
            {
              "internalType": "uint256[]",
              "name": "inputCollectionItemAmounts",
              "type": "uint256[]"
            },
            {
              "internalType": "contract IERC1155",
              "name": "outputCollection",
              "type": "address"
            },
            {
              "internalType": "uint256[]",
              "name": "outputCollectionItemIds",
              "type": "uint256[]"
            },
            {
              "internalType": "uint256[]",
              "name": "outputCollectionItemAmounts",
              "type": "uint256[]"
            },
            {
              "internalType": "uint256[]",
              "name": "outputCollectionItemWeights",
              "type": "uint256[]"
            },
            {
              "internalType": "uint256",
              "name": "outputTotalItemsWeight",
              "type": "uint256"
            },
            {
              "internalType": "uint256",
              "name": "outputTotalItems",
              "type": "uint256"
            },
            {
              "internalType": "uint256",
              "name": "opens",
              "type": "uint256"
            },
            {
              "internalType": "uint256",
              "name": "lastUpdatedAt",
              "type": "uint256"
            }
          ],
          "indexed": false,
          "internalType": "struct IGame_Lootbox_Manager.Lootbox",
          "name": "lootbox",
          "type": "tuple"
        }
      ],
      "name": "LootboxSet",
      "type": "event"
    },
    {
      "anonymous": false,
      "inputs": [
        {
          "indexed": true,
          "internalType": "bytes32",
          "name": "role",
          "type": "bytes32"
        },
        {
          "indexed": true,
          "internalType": "bytes32",
          "name": "previousAdminRole",
          "type": "bytes32"
        },
        {
          "indexed": true,
          "internalType": "bytes32",
          "name": "newAdminRole",
          "type": "bytes32"
        }
      ],
      "name": "RoleAdminChanged",
      "type": "event"
    },
    {
      "anonymous": false,
      "inputs": [
        {
          "indexed": true,
          "internalType": "bytes32",
          "name": "role",
          "type": "bytes32"
        },
        {
          "indexed": true,
          "internalType": "address",
          "name": "account",
          "type": "address"
        },
        {
          "indexed": true,
          "internalType": "address",
          "name": "sender",
          "type": "address"
        }
      ],
      "name": "RoleGranted",
      "type": "event"
    },
    {
      "anonymous": false,
      "inputs": [
        {
          "indexed": true,
          "internalType": "bytes32",
          "name": "role",
          "type": "bytes32"
        },
        {
          "indexed": true,
          "internalType": "address",
          "name": "account",
          "type": "address"
        },
        {
          "indexed": true,
          "internalType": "address",
          "name": "sender",
          "type": "address"
        }
      ],
      "name": "RoleRevoked",
      "type": "event"
    },
    {
      "inputs": [],
      "name": "DEFAULT_ADMIN_ROLE",
      "outputs": [
        {
          "internalType": "bytes32",
          "name": "",
          "type": "bytes32"
        }
      ],
      "stateMutability": "view",
      "type": "function"
    },
    {
      "inputs": [],
      "name": "allLootboxIds",
      "outputs": [
        {
          "internalType": "uint256[]",
          "name": "",
          "type": "uint256[]"
        }
      ],
      "stateMutability": "view",
      "type": "function"
    },
    {
      "inputs": [],
      "name": "allLootboxLastUpdates",
      "outputs": [
        {
          "internalType": "uint256[][]",
          "name": "",
          "type": "uint256[][]"
        }
      ],
      "stateMutability": "view",
      "type": "function"
    },
    {
      "inputs": [],
      "name": "allLootboxes",
      "outputs": [
        {
          "components": [
            {
              "internalType": "uint256",
              "name": "id",
              "type": "uint256"
            },
            {
              "internalType": "contract IERC1155",
              "name": "inputCollection",
              "type": "address"
            },
            {
              "internalType": "uint256[]",
              "name": "inputCollectionItemIds",
              "type": "uint256[]"
            },
            {
              "internalType": "uint256[]",
              "name": "inputCollectionItemAmounts",
              "type": "uint256[]"
            },
            {
              "internalType": "contract IERC1155",
              "name": "outputCollection",
              "type": "address"
            },
            {
              "internalType": "uint256[]",
              "name": "outputCollectionItemIds",
              "type": "uint256[]"
            },
            {
              "internalType": "uint256[]",
              "name": "outputCollectionItemAmounts",
              "type": "uint256[]"
            },
            {
              "internalType": "uint256[]",
              "name": "outputCollectionItemWeights",
              "type": "uint256[]"
            },
            {
              "internalType": "uint256",
              "name": "outputTotalItemsWeight",
              "type": "uint256"
            },
            {
              "internalType": "uint256",
              "name": "outputTotalItems",
              "type": "uint256"
            },
            {
              "internalType": "uint256",
              "name": "opens",
              "type": "uint256"
            },
            {
              "internalType": "uint256",
              "name": "lastUpdatedAt",
              "type": "uint256"
            }
          ],
          "internalType": "struct IGame_Lootbox_Manager.Lootbox[]",
          "name": "",
          "type": "tuple[]"
        }
      ],
      "stateMutability": "view",
      "type": "function"
    },
    {
      "inputs": [
        {
          "internalType": "address",
          "name": "_address",
          "type": "address"
        },
        {
          "internalType": "uint256",
          "name": "_lootboxId",
          "type": "uint256"
        }
      ],
      "name": "allOpenedLootboxes",
      "outputs": [
        {
          "components": [
            {
              "internalType": "uint256",
              "name": "lootboxId",
              "type": "uint256"
            },
            {
              "internalType": "uint256",
              "name": "claimSeedBlock",
              "type": "uint256"
            },
            {
              "internalType": "uint256[]",
              "name": "outputCollectionItemIds",
              "type": "uint256[]"
            },
            {
              "internalType": "uint256[]",
              "name": "outputCollectionItemAmounts",
              "type": "uint256[]"
            },
            {
              "internalType": "bool",
              "name": "claimed",
              "type": "bool"
            }
          ],
          "internalType": "struct IGame_Lootbox_Manager.OpenedLootbox[]",
          "name": "",
          "type": "tuple[]"
        }
      ],
      "stateMutability": "view",
      "type": "function"
    },
    {
      "inputs": [
        {
          "internalType": "uint256",
          "name": "_lootboxId",
          "type": "uint256"
        },
        {
          "internalType": "uint256",
          "name": "_openedLootboxIndex",
          "type": "uint256"
        }
      ],
      "name": "claimLootbox",
      "outputs": [],
      "stateMutability": "nonpayable",
      "type": "function"
    },
    {
      "inputs": [
        {
          "internalType": "uint256",
          "name": "_lootboxId",
          "type": "uint256"
        }
      ],
      "name": "claimLootboxes",
      "outputs": [],
      "stateMutability": "nonpayable",
      "type": "function"
    },
    {
      "inputs": [
        {
          "internalType": "bytes32",
          "name": "role",
          "type": "bytes32"
        }
      ],
      "name": "getRoleAdmin",
      "outputs": [
        {
          "internalType": "bytes32",
          "name": "",
          "type": "bytes32"
        }
      ],
      "stateMutability": "view",
      "type": "function"
    },
    {
      "inputs": [
        {
          "internalType": "bytes32",
          "name": "role",
          "type": "bytes32"
        },
        {
          "internalType": "address",
          "name": "account",
          "type": "address"
        }
      ],
      "name": "grantRole",
      "outputs": [],
      "stateMutability": "nonpayable",
      "type": "function"
    },
    {
      "inputs": [
        {
          "internalType": "bytes32",
          "name": "role",
          "type": "bytes32"
        },
        {
          "internalType": "address",
          "name": "account",
          "type": "address"
        }
      ],
      "name": "hasRole",
      "outputs": [
        {
          "internalType": "bool",
          "name": "",
          "type": "bool"
        }
      ],
      "stateMutability": "view",
      "type": "function"
    },
    {
      "inputs": [
        {
          "internalType": "address",
          "name": "forwarder",
          "type": "address"
        }
      ],
      "name": "isTrustedForwarder",
      "outputs": [
        {
          "internalType": "bool",
          "name": "",
          "type": "bool"
        }
      ],
      "stateMutability": "view",
      "type": "function"
    },
    {
      "inputs": [
        {
          "internalType": "uint256",
          "name": "_lootboxId",
          "type": "uint256"
        }
      ],
      "name": "lootbox",
      "outputs": [
        {
          "components": [
            {
              "internalType": "uint256",
              "name": "id",
              "type": "uint256"
            },
            {
              "internalType": "contract IERC1155",
              "name": "inputCollection",
              "type": "address"
            },
            {
              "internalType": "uint256[]",
              "name": "inputCollectionItemIds",
              "type": "uint256[]"
            },
            {
              "internalType": "uint256[]",
              "name": "inputCollectionItemAmounts",
              "type": "uint256[]"
            },
            {
              "internalType": "contract IERC1155",
              "name": "outputCollection",
              "type": "address"
            },
            {
              "internalType": "uint256[]",
              "name": "outputCollectionItemIds",
              "type": "uint256[]"
            },
            {
              "internalType": "uint256[]",
              "name": "outputCollectionItemAmounts",
              "type": "uint256[]"
            },
            {
              "internalType": "uint256[]",
              "name": "outputCollectionItemWeights",
              "type": "uint256[]"
            },
            {
              "internalType": "uint256",
              "name": "outputTotalItemsWeight",
              "type": "uint256"
            },
            {
              "internalType": "uint256",
              "name": "outputTotalItems",
              "type": "uint256"
            },
            {
              "internalType": "uint256",
              "name": "opens",
              "type": "uint256"
            },
            {
              "internalType": "uint256",
              "name": "lastUpdatedAt",
              "type": "uint256"
            }
          ],
          "internalType": "struct IGame_Lootbox_Manager.Lootbox",
          "name": "",
          "type": "tuple"
        }
      ],
      "stateMutability": "view",
      "type": "function"
    },
    {
      "inputs": [
        {
          "internalType": "uint256",
          "name": "_index",
          "type": "uint256"
        }
      ],
      "name": "lootboxId",
      "outputs": [
        {
          "internalType": "uint256",
          "name": "",
          "type": "uint256"
        }
      ],
      "stateMutability": "view",
      "type": "function"
    },
    {
      "inputs": [
        {
          "internalType": "uint256",
          "name": "_lootboxId",
          "type": "uint256"
        }
      ],
      "name": "lootboxLastUpdate",
      "outputs": [
        {
          "internalType": "uint256[]",
          "name": "",
          "type": "uint256[]"
        }
      ],
      "stateMutability": "view",
      "type": "function"
    },
    {
      "inputs": [
        {
          "internalType": "address",
          "name": "",
          "type": "address"
        },
        {
          "internalType": "address",
          "name": "",
          "type": "address"
        },
        {
          "internalType": "uint256[]",
          "name": "",
          "type": "uint256[]"
        },
        {
          "internalType": "uint256[]",
          "name": "",
          "type": "uint256[]"
        },
        {
          "internalType": "bytes",
          "name": "",
          "type": "bytes"
        }
      ],
      "name": "onERC1155BatchReceived",
      "outputs": [
        {
          "internalType": "bytes4",
          "name": "",
          "type": "bytes4"
        }
      ],
      "stateMutability": "nonpayable",
      "type": "function"
    },
    {
      "inputs": [
        {
          "internalType": "address",
          "name": "",
          "type": "address"
        },
        {
          "internalType": "address",
          "name": "",
          "type": "address"
        },
        {
          "internalType": "uint256",
          "name": "",
          "type": "uint256"
        },
        {
          "internalType": "uint256",
          "name": "",
          "type": "uint256"
        },
        {
          "internalType": "bytes",
          "name": "",
          "type": "bytes"
        }
      ],
      "name": "onERC1155Received",
      "outputs": [
        {
          "internalType": "bytes4",
          "name": "",
          "type": "bytes4"
        }
      ],
      "stateMutability": "nonpayable",
      "type": "function"
    },
    {
      "inputs": [
        {
          "internalType": "uint256",
          "name": "_lootboxId",
          "type": "uint256"
        }
      ],
      "name": "openLootbox",
      "outputs": [],
      "stateMutability": "nonpayable",
      "type": "function"
    },
    {
      "inputs": [
        {
          "internalType": "address",
          "name": "_address",
          "type": "address"
        },
        {
          "internalType": "uint256",
          "name": "_lootboxId",
          "type": "uint256"
        },
        {
          "internalType": "uint256",
          "name": "_openedLootboxIndex",
          "type": "uint256"
        }
      ],
      "name": "openedLootbox",
      "outputs": [
        {
          "components": [
            {
              "internalType": "uint256",
              "name": "lootboxId",
              "type": "uint256"
            },
            {
              "internalType": "uint256",
              "name": "claimSeedBlock",
              "type": "uint256"
            },
            {
              "internalType": "uint256[]",
              "name": "outputCollectionItemIds",
              "type": "uint256[]"
            },
            {
              "internalType": "uint256[]",
              "name": "outputCollectionItemAmounts",
              "type": "uint256[]"
            },
            {
              "internalType": "bool",
              "name": "claimed",
              "type": "bool"
            }
          ],
          "internalType": "struct IGame_Lootbox_Manager.OpenedLootbox",
          "name": "",
          "type": "tuple"
        }
      ],
      "stateMutability": "view",
      "type": "function"
    },
    {
      "inputs": [
        {
          "internalType": "uint256",
          "name": "_startIndexInclusive",
          "type": "uint256"
        },
        {
          "internalType": "uint256",
          "name": "_limit",
          "type": "uint256"
        }
      ],
      "name": "paginateLootboxIds",
      "outputs": [
        {
          "internalType": "uint256[]",
          "name": "",
          "type": "uint256[]"
        }
      ],
      "stateMutability": "view",
      "type": "function"
    },
    {
      "inputs": [
        {
          "internalType": "uint256",
          "name": "_startIndexInclusive",
          "type": "uint256"
        },
        {
          "internalType": "uint256",
          "name": "_limit",
          "type": "uint256"
        }
      ],
      "name": "paginateLootboxLastUpdates",
      "outputs": [
        {
          "internalType": "uint256[][]",
          "name": "",
          "type": "uint256[][]"
        }
      ],
      "stateMutability": "view",
      "type": "function"
    },
    {
      "inputs": [
        {
          "internalType": "uint256",
          "name": "_startIndexInclusive",
          "type": "uint256"
        },
        {
          "internalType": "uint256",
          "name": "_limit",
          "type": "uint256"
        }
      ],
      "name": "paginateLootboxes",
      "outputs": [
        {
          "components": [
            {
              "internalType": "uint256",
              "name": "id",
              "type": "uint256"
            },
            {
              "internalType": "contract IERC1155",
              "name": "inputCollection",
              "type": "address"
            },
            {
              "internalType": "uint256[]",
              "name": "inputCollectionItemIds",
              "type": "uint256[]"
            },
            {
              "internalType": "uint256[]",
              "name": "inputCollectionItemAmounts",
              "type": "uint256[]"
            },
            {
              "internalType": "contract IERC1155",
              "name": "outputCollection",
              "type": "address"
            },
            {
              "internalType": "uint256[]",
              "name": "outputCollectionItemIds",
              "type": "uint256[]"
            },
            {
              "internalType": "uint256[]",
              "name": "outputCollectionItemAmounts",
              "type": "uint256[]"
            },
            {
              "internalType": "uint256[]",
              "name": "outputCollectionItemWeights",
              "type": "uint256[]"
            },
            {
              "internalType": "uint256",
              "name": "outputTotalItemsWeight",
              "type": "uint256"
            },
            {
              "internalType": "uint256",
              "name": "outputTotalItems",
              "type": "uint256"
            },
            {
              "internalType": "uint256",
              "name": "opens",
              "type": "uint256"
            },
            {
              "internalType": "uint256",
              "name": "lastUpdatedAt",
              "type": "uint256"
            }
          ],
          "internalType": "struct IGame_Lootbox_Manager.Lootbox[]",
          "name": "",
          "type": "tuple[]"
        }
      ],
      "stateMutability": "view",
      "type": "function"
    },
    {
      "inputs": [
        {
          "internalType": "address",
          "name": "_address",
          "type": "address"
        },
        {
          "internalType": "uint256",
          "name": "_lootboxId",
          "type": "uint256"
        },
        {
          "internalType": "uint256",
          "name": "_startIndexInclusive",
          "type": "uint256"
        },
        {
          "internalType": "uint256",
          "name": "_limit",
          "type": "uint256"
        }
      ],
      "name": "paginateOpenedLootboxes",
      "outputs": [
        {
          "components": [
            {
              "internalType": "uint256",
              "name": "lootboxId",
              "type": "uint256"
            },
            {
              "internalType": "uint256",
              "name": "claimSeedBlock",
              "type": "uint256"
            },
            {
              "internalType": "uint256[]",
              "name": "outputCollectionItemIds",
              "type": "uint256[]"
            },
            {
              "internalType": "uint256[]",
              "name": "outputCollectionItemAmounts",
              "type": "uint256[]"
            },
            {
              "internalType": "bool",
              "name": "claimed",
              "type": "bool"
            }
          ],
          "internalType": "struct IGame_Lootbox_Manager.OpenedLootbox[]",
          "name": "",
          "type": "tuple[]"
        }
      ],
      "stateMutability": "view",
      "type": "function"
    },
    {
      "inputs": [
        {
          "internalType": "uint256",
          "name": "_lootboxId",
          "type": "uint256"
        }
      ],
      "name": "removeLootbox",
      "outputs": [],
      "stateMutability": "nonpayable",
      "type": "function"
    },
    {
      "inputs": [
        {
          "internalType": "bytes32",
          "name": "role",
          "type": "bytes32"
        },
        {
          "internalType": "address",
          "name": "account",
          "type": "address"
        }
      ],
      "name": "renounceRole",
      "outputs": [],
      "stateMutability": "nonpayable",
      "type": "function"
    },
    {
      "inputs": [
        {
          "internalType": "bytes32",
          "name": "role",
          "type": "bytes32"
        },
        {
          "internalType": "address",
          "name": "account",
          "type": "address"
        }
      ],
      "name": "revokeRole",
      "outputs": [],
      "stateMutability": "nonpayable",
      "type": "function"
    },
    {
      "inputs": [
        {
          "internalType": "uint256",
          "name": "_offset",
          "type": "uint256"
        }
      ],
      "name": "setClaimableBlockOffset",
      "outputs": [],
      "stateMutability": "nonpayable",
      "type": "function"
    },
    {
      "inputs": [
        {
          "internalType": "uint256",
          "name": "_lootboxId",
          "type": "uint256"
        },
        {
          "internalType": "address[2]",
          "name": "_inputOutputCollections",
          "type": "address[2]"
        },
        {
          "internalType": "uint256[][2]",
          "name": "_inputOutputCollectionItemIds",
          "type": "uint256[][2]"
        },
        {
          "internalType": "uint256[][2]",
          "name": "_inputOutputCollectionItemAmounts",
          "type": "uint256[][2]"
        },
        {
          "internalType": "uint256[]",
          "name": "_outputCollectionItemWeights",
          "type": "uint256[]"
        },
        {
          "internalType": "uint256",
          "name": "_outputTotalItems",
          "type": "uint256"
        }
      ],
      "name": "setLootbox",
      "outputs": [],
      "stateMutability": "nonpayable",
      "type": "function"
    },
    {
      "inputs": [
        {
          "internalType": "bytes4",
          "name": "interfaceId",
          "type": "bytes4"
        }
      ],
      "name": "supportsInterface",
      "outputs": [
        {
          "internalType": "bool",
          "name": "",
          "type": "bool"
        }
      ],
      "stateMutability": "view",
      "type": "function"
    },
    {
      "inputs": [],
      "name": "systemId",
      "outputs": [
        {
          "internalType": "bytes32",
          "name": "",
          "type": "bytes32"
        }
      ],
      "stateMutability": "view",
      "type": "function"
    },
    {
      "inputs": [
        {
          "internalType": "address",
          "name": "_address",
          "type": "address"
        },
        {
          "internalType": "uint256",
          "name": "_lootboxId",
          "type": "uint256"
        }
      ],
      "name": "totalClaimableLootboxes",
      "outputs": [
        {
          "internalType": "uint256",
          "name": "",
          "type": "uint256"
        }
      ],
      "stateMutability": "view",
      "type": "function"
    },
    {
      "inputs": [],
      "name": "totalLootboxes",
      "outputs": [
        {
          "internalType": "uint256",
          "name": "",
          "type": "uint256"
        }
      ],
      "stateMutability": "view",
      "type": "function"
    },
    {
      "inputs": [
        {
          "internalType": "address",
          "name": "_address",
          "type": "address"
        },
        {
          "internalType": "uint256",
          "name": "_lootboxId",
          "type": "uint256"
        }
      ],
      "name": "totalOpenedLootboxes",
      "outputs": [
        {
          "internalType": "uint256",
          "name": "",
          "type": "uint256"
        }
      ],
      "stateMutability": "view",
      "type": "function"
    },
    {
      "inputs": [],
      "name": "trustedForwarder",
      "outputs": [
        {
          "internalType": "address",
          "name": "",
          "type": "address"
        }
      ],
      "stateMutability": "view",
      "type": "function"
    },
    {
      "inputs": [
        {
          "internalType": "address",
          "name": "_newTrustedForwarder",
          "type": "address"
        }
      ],
      "name": "upgradeTrustedForwarder",
      "outputs": [],
      "stateMutability": "nonpayable",
      "type": "function"
    }
  ],
  "bytecode": "0x608060405260016008553480156200001657600080fd5b5060405162004961380380620049618339810160408190526200003991620001b4565b600080546001600160a01b0319166001600160a01b038416178155600182815560035562000071906200006b620000a8565b620000c4565b620000a07fc9fc9949603a50f5cc3a96f774f1d68287789a241d2082dc81d0fb19a53bcf2b6200006b620000a8565b5050620001f0565b6000620000bf620000d460201b620029331760201c565b905090565b620000d082826200010a565b5050565b600080546001600160a01b03163303620000f5575060131936013560601c90565b620000bf620001b060201b620029831760201c565b60008281526002602090815260408083206001600160a01b038516845290915290205460ff16620000d05760008281526002602090815260408083206001600160a01b03851684529091529020805460ff191660011790556200016c620000a8565b6001600160a01b0316816001600160a01b0316837f2f8788117e7eff1d82e926ec794901d17c78024a50270940304540a733656f0d60405160405180910390a45050565b3390565b60008060408385031215620001c857600080fd5b82516001600160a01b0381168114620001e057600080fd5b6020939093015192949293505050565b61476180620002006000396000f3fe608060405234801561001057600080fd5b50600436106102265760003560e01c8063826410fc1161012a578063af90a2b7116100bd578063e1394b901161008c578063ea61401a11610071578063ea61401a146105a0578063f23a6e61146105a8578063fbf3040d146105e057600080fd5b8063e1394b901461057a578063e8c683fd1461058d57600080fd5b8063af90a2b7146104e3578063bc197c81146104f6578063d547741f1461055f578063de0ef5e41461057257600080fd5b806394cba64e116100f957806394cba64e14610495578063a217fddf146104b5578063aa2a7eea146104bd578063abb5d942146104d057600080fd5b8063826410fc146104145780638404adc11461041c57806391d148541461042f57806392e115001461047557600080fd5b806339f898bc116101bd5780637da0a8771161018c5780637f416510116101715780637f416510146103e65780637ff48190146103ee5780637ffb5c651461040157600080fd5b80637da0a877146103815780637f1d0ad2146103c657600080fd5b806339f898bc14610316578063572b6c051461031f5780635ec2d0221461034e57806360234af91461036157600080fd5b80630e1d1da7116101f95780630e1d1da71461029f578063248a9ca3146102bf5780632f2ff15d146102f057806336568abe1461030357600080fd5b806301bab1681461022b57806301ffc9a714610254578063021b06471461027757806307af41171461028c575b600080fd5b61023e610239366004613864565b610623565b60405161024b91906138c1565b60405180910390f35b610267610262366004613941565b610719565b604051901515815260200161024b565b61028a610285366004613983565b6107bb565b005b61028a61029a366004613983565b61085a565b6102b26102ad366004613983565b6108e5565b60405161024b919061399c565b6102e26102cd366004613983565b60009081526002602052604090206001015490565b60405190815260200161024b565b61028a6102fe3660046139d8565b610965565b61028a6103113660046139d8565b61098f565b6102e260015481565b61026761032d366004613a04565b60005473ffffffffffffffffffffffffffffffffffffffff91821691161490565b6102b261035c366004613864565b610a5f565b61037461036f366004613864565b610b33565b60405161024b9190613b2f565b6000546103a19073ffffffffffffffffffffffffffffffffffffffff1681565b60405173ffffffffffffffffffffffffffffffffffffffff909116815260200161024b565b6103d96103d4366004613ba2565b610edb565b60405161024b9190613c27565b61023e61103c565b61028a6103fc366004613983565b6110ec565b61028a61040f366004613864565b6114fb565b6102e2611519565b61028a61042a366004613cab565b61152a565b61026761043d3660046139d8565b600091825260026020908152604080842073ffffffffffffffffffffffffffffffffffffffff93909316845291905290205460ff1690565b610488610483366004613983565b611b2c565b60405161024b9190613d8f565b6104a86104a3366004613da2565b611e91565b60405161024b9190613dd5565b6102e2600081565b61028a6104cb366004613a04565b6120bc565b6102e26104de366004613ba2565b61212a565b6103d96104f1366004613de8565b612200565b61052e610504366004613fad565b7fbc197c810000000000000000000000000000000000000000000000000000000095945050505050565b6040517fffffffff00000000000000000000000000000000000000000000000000000000909116815260200161024b565b61028a61056d3660046139d8565b612498565b6103746124bd565b61028a610588366004613983565b61282d565b6102e261059b366004613983565b6128a8565b6102b2612927565b61052e6105b6366004614057565b7ff23a6e610000000000000000000000000000000000000000000000000000000095945050505050565b6102e26105ee366004613ba2565b73ffffffffffffffffffffffffffffffffffffffff919091166000908152600760209081526040808320938352929052205490565b606060006106316004612987565b841061063e576000610653565b836106496004612987565b61065391906140eb565b90506000838211156106655783610667565b815b905060008167ffffffffffffffff81111561068457610684613e21565b6040519080825280602002602001820160405280156106b757816020015b60608152602001906001900390816106a25790505b50905060005b8281101561070d576106dd6102ad6106d5838a6140fe565b600490612991565b8282815181106106ef576106ef614111565b6020026020010181905250808061070590614140565b9150506106bd565b50925050505b92915050565b60007fffffffff0000000000000000000000000000000000000000000000000000000082167ff6adcf6b0000000000000000000000000000000000000000000000000000000014806107ac57507fffffffff0000000000000000000000000000000000000000000000000000000082167f4e2312e000000000000000000000000000000000000000000000000000000000145b806107135750610713826129a4565b7fc9fc9949603a50f5cc3a96f774f1d68287789a241d2082dc81d0fb19a53bcf2b6107e5816129fa565b60008211610854576040517f08c379a000000000000000000000000000000000000000000000000000000000815260206004820152601260248201527f4f66667365742063616e6e6f742062652030000000000000000000000000000060448201526064015b60405180910390fd5b50600855565b7fc9fc9949603a50f5cc3a96f774f1d68287789a241d2082dc81d0fb19a53bcf2b610884816129fa565b61088f600483612a0b565b5060008281526006602052604090819020905183907f0864136c4ebca2d8889222bc6e0378756c87aa96dbac4e5645772cf08d4112ee906108d19084906142d7565b60405180910390a26000600a909101555050565b60408051600280825260608083018452926000929190602083019080368337019050509050828160008151811061091e5761091e614111565b60200260200101818152505060066000848152602001908152602001600020600b01548160018151811061095457610954614111565b602090810291909101015292915050565b600082815260026020526040902060010154610980816129fa565b61098a8383612a17565b505050565b610997612b0c565b73ffffffffffffffffffffffffffffffffffffffff168173ffffffffffffffffffffffffffffffffffffffff1614610a51576040517f08c379a000000000000000000000000000000000000000000000000000000000815260206004820152602f60248201527f416363657373436f6e74726f6c3a2063616e206f6e6c792072656e6f756e636560448201527f20726f6c657320666f722073656c660000000000000000000000000000000000606482015260840161084b565b610a5b8282612b16565b5050565b60606000610a6d6004612987565b8410610a7a576000610a8f565b83610a856004612987565b610a8f91906140eb565b9050600083821115610aa15783610aa3565b815b905060008167ffffffffffffffff811115610ac057610ac0613e21565b604051908082528060200260200182016040528015610ae9578160200160208202803683370190505b50905060005b8281101561070d57610b046106d582896140fe565b828281518110610b1657610b16614111565b602090810291909101015280610b2b81614140565b915050610aef565b60606000610b416004612987565b8410610b4e576000610b63565b83610b596004612987565b610b6391906140eb565b9050600083821115610b755783610b77565b815b905060008167ffffffffffffffff811115610b9457610b94613e21565b604051908082528060200260200182016040528015610c5557816020015b610c4260405180610180016040528060008152602001600073ffffffffffffffffffffffffffffffffffffffff1681526020016060815260200160608152602001600073ffffffffffffffffffffffffffffffffffffffff168152602001606081526020016060815260200160608152602001600081526020016000815260200160008152602001600081525090565b815260200190600190039081610bb25790505b50905060005b8281101561070d5760066000610c746106d5848b6140fe565b8152602080820192909252604090810160002081516101808101835281548152600182015473ffffffffffffffffffffffffffffffffffffffff1681850152600282018054845181870281018701865281815292959394860193830182828015610cfd57602002820191906000526020600020905b815481526020019060010190808311610ce9575b5050505050815260200160038201805480602002602001604051908101604052809291908181526020018280548015610d5557602002820191906000526020600020905b815481526020019060010190808311610d41575b5050509183525050600482015473ffffffffffffffffffffffffffffffffffffffff166020808301919091526005830180546040805182850281018501825282815294019392830182828015610dca57602002820191906000526020600020905b815481526020019060010190808311610db6575b5050505050815260200160068201805480602002602001604051908101604052809291908181526020018280548015610e2257602002820191906000526020600020905b815481526020019060010190808311610e0e575b5050505050815260200160078201805480602002602001604051908101604052809291908181526020018280548015610e7a57602002820191906000526020600020905b815481526020019060010190808311610e66575b505050505081526020016008820154815260200160098201548152602001600a8201548152602001600b82015481525050828281518110610ebd57610ebd614111565b60200260200101819052508080610ed390614140565b915050610c5b565b73ffffffffffffffffffffffffffffffffffffffff821660009081526007602090815260408083208484528252808320805482518185028101850190935280835260609492939192909184015b8282101561103057838290600052602060002090600502016040518060a0016040529081600082015481526020016001820154815260200160028201805480602002602001604051908101604052809291908181526020018280548015610fae57602002820191906000526020600020905b815481526020019060010190808311610f9a575b505050505081526020016003820180548060200260200160405190810160405280929190818152602001828054801561100657602002820191906000526020600020905b815481526020019060010190808311610ff2575b50505091835250506004919091015460ff1615156020918201529082526001929092019101610f28565b50505050905092915050565b60606000611048611519565b67ffffffffffffffff81111561106057611060613e21565b60405190808252806020026020018201604052801561109357816020015b606081526020019060019003908161107e5790505b50905060005b6110a1611519565b8110156110e6576110b66102ad600483612991565b8282815181106110c8576110c8614111565b602002602001018190525080806110de90614140565b915050611099565b50919050565b6110f4612c09565b6110ff600482612c7c565b61118b576040517f08c379a000000000000000000000000000000000000000000000000000000000815260206004820152602d60248201527f6c6f6f74626f78496420646f6573206e6f74206578697374206f72206861732060448201527f6265656e2072656d6f7665642e00000000000000000000000000000000000000606482015260840161084b565b6000818152600660205260409020600181015473ffffffffffffffffffffffffffffffffffffffff161561137a5760018101546040517f01ffc9a70000000000000000000000000000000000000000000000000000000081527f909aa65d00000000000000000000000000000000000000000000000000000000600482015273ffffffffffffffffffffffffffffffffffffffff909116906301ffc9a790602401602060405180830381865afa158015611249573d6000803e3d6000fd5b505050506040513d601f19601f8201168201806040525081019061126d91906142ea565b156112f757600181015473ffffffffffffffffffffffffffffffffffffffff16634b7c78dc61129a612b0c565b83600201846003016040518463ffffffff1660e01b81526004016112c09392919061430c565b600060405180830381600087803b1580156112da57600080fd5b505af11580156112ee573d6000803e3d6000fd5b5050505061137a565b600181015473ffffffffffffffffffffffffffffffffffffffff16632eb2c2d661131f612b0c565b3084600201856003016040518563ffffffff1660e01b81526004016113479493929190614357565b600060405180830381600087803b15801561136157600080fd5b505af1158015611375573d6000803e3d6000fd5b505050505b6113ae6040518060a00160405280600081526020016000815260200160608152602001606081526020016000151581525090565b8281526008546113be90436140fe565b6020820152600760006113cf612b0c565b73ffffffffffffffffffffffffffffffffffffffff1681526020808201929092526040908101600090812086825283528181208054600181810183559183529184902085516005909302019182558484015190820155908301518051849361143e926002850192910190613804565b506060820151805161145a916003840191602090910190613804565b5060809190910151600490910180547fffffffffffffffffffffffffffffffffffffffffffffffffffffffffffffff0016911515919091179055600a820180549060006114a683614140565b9190505550827fcbe236ccb8bf2ae258fd54e73752d614c82aa6293d5256658cc3ce58dc4d4bf0836114d6612b0c565b6040516114e49291906143bf565b60405180910390a250506114f86001600355565b50565b611503612c09565b61150f82826001612c94565b610a5b6001600355565b60006115256004612987565b905090565b7fc9fc9949603a50f5cc3a96f774f1d68287789a241d2082dc81d0fb19a53bcf2b611554816129fa565b61155e85806143f7565b905061156a87806143f7565b9050146115f9576040517f08c379a000000000000000000000000000000000000000000000000000000000815260206004820152602d60248201527f4d69736d61746368656420696e707574206974656d2069647320616e6420616d60448201527f6f756e74206c656e677468732e00000000000000000000000000000000000000606482015260840161084b565b61160660208601866143f7565b905061161560208801886143f7565b9050146116a4576040517f08c379a000000000000000000000000000000000000000000000000000000000815260206004820152602d60248201527f4d69736d617463686564206f7574707574206974656d2069647320616e64206160448201527f6d6f756e74206c656e6774682e00000000000000000000000000000000000000606482015260840161084b565b826116b260208801886143f7565b905014611741576040517f08c379a000000000000000000000000000000000000000000000000000000000815260206004820152603160248201527f4d69736d61746368206f7574707574206974656d2069647320616e642069746560448201527f6d2077656967687473206c656e6774682e000000000000000000000000000000606482015260840161084b565b6000805b848110156117855785858281811061175f5761175f614111565b905060200201358261177191906140fe565b91508061177d81614140565b915050611745565b5060006040518061018001604052808b81526020018a6000600281106117ad576117ad614111565b6020020160208101906117c09190613a04565b73ffffffffffffffffffffffffffffffffffffffff1681526020016117e58a806143f7565b8080602002602001604051908101604052809392919081815260200183836020028082843760009201919091525050509082525060200161182689806143f7565b808060200260200160405190810160405280939291908181526020018383602002808284376000920191909152505050908252506020908101906118709060408d01908d01613a04565b73ffffffffffffffffffffffffffffffffffffffff16815260209081019061189a908b018b6143f7565b808060200260200160405190810160405280939291908181526020018383602002808284376000920191909152505050908252506020908101906118e0908a018a6143f7565b8080602002602001604051908101604052809392919081815260200183836020028082843760009201919091525050509082525060408051602089810282810182019093528982529283019290918a918a9182918501908490808284376000920182905250938552505050602080830186905260408084018990528e835260069091529020600a0154606082015242608090910152905061198260048b613270565b5060008a81526006602090815260409182902083518155838201516001820180547fffffffffffffffffffffffff00000000000000000000000000000000000000001673ffffffffffffffffffffffffffffffffffffffff9092169190911790559183015180518493926119fd926002850192910190613804565b5060608201518051611a19916003840191602090910190613804565b5060808201516004820180547fffffffffffffffffffffffff00000000000000000000000000000000000000001673ffffffffffffffffffffffffffffffffffffffff90921691909117905560a08201518051611a80916005840191602090910190613804565b5060c08201518051611a9c916006840191602090910190613804565b5060e08201518051611ab8916007840191602090910190613804565b506101008201518160080155610120820151816009015561014082015181600a015561016082015181600b0155905050897fb2e547eb18679a18ee72bf11d33344b9a6a24f4afecf77e5ff1833294b4b0ab982604051611b189190613d8f565b60405180910390a250505050505050505050565b611bbc60405180610180016040528060008152602001600073ffffffffffffffffffffffffffffffffffffffff1681526020016060815260200160608152602001600073ffffffffffffffffffffffffffffffffffffffff168152602001606081526020016060815260200160608152602001600081526020016000815260200160008152602001600081525090565b611bc7600483612c7c565b611c53576040517f08c379a000000000000000000000000000000000000000000000000000000000815260206004820152602d60248201527f6c6f6f74626f78496420646f6573206e6f74206578697374206f72206861732060448201527f6265656e2072656d6f7665642e00000000000000000000000000000000000000606482015260840161084b565b60008281526006602090815260409182902082516101808101845281548152600182015473ffffffffffffffffffffffffffffffffffffffff168184015260028201805485518186028101860187528181529295939493860193830182828015611cdc57602002820191906000526020600020905b815481526020019060010190808311611cc8575b5050505050815260200160038201805480602002602001604051908101604052809291908181526020018280548015611d3457602002820191906000526020600020905b815481526020019060010190808311611d20575b5050509183525050600482015473ffffffffffffffffffffffffffffffffffffffff166020808301919091526005830180546040805182850281018501825282815294019392830182828015611da957602002820191906000526020600020905b815481526020019060010190808311611d95575b5050505050815260200160068201805480602002602001604051908101604052809291908181526020018280548015611e0157602002820191906000526020600020905b815481526020019060010190808311611ded575b5050505050815260200160078201805480602002602001604051908101604052809291908181526020018280548015611e5957602002820191906000526020600020905b815481526020019060010190808311611e45575b505050505081526020016008820154815260200160098201548152602001600a8201548152602001600b820154815250509050919050565b611ec56040518060a00160405280600081526020016000815260200160608152602001606081526020016000151581525090565b73ffffffffffffffffffffffffffffffffffffffff841660009081526007602090815260408083208684529091529020548210611f84576040517f08c379a000000000000000000000000000000000000000000000000000000000815260206004820152602360248201527f6f70656e65644c6f6f74626f78496e64657820646f6573206e6f74206578697360448201527f74732e0000000000000000000000000000000000000000000000000000000000606482015260840161084b565b73ffffffffffffffffffffffffffffffffffffffff841660009081526007602090815260408083208684529091529020805483908110611fc657611fc6614111565b90600052602060002090600502016040518060a001604052908160008201548152602001600182015481526020016002820180548060200260200160405190810160405280929190818152602001828054801561204257602002820191906000526020600020905b81548152602001906001019080831161202e575b505050505081526020016003820180548060200260200160405190810160405280929190818152602001828054801561209a57602002820191906000526020600020905b815481526020019060010190808311612086575b50505091835250506004919091015460ff161515602090910152949350505050565b7fc9fc9949603a50f5cc3a96f774f1d68287789a241d2082dc81d0fb19a53bcf2b6120e6816129fa565b600080547fffffffffffffffffffffffff00000000000000000000000000000000000000001673ffffffffffffffffffffffffffffffffffffffff84161790555050565b600080805b73ffffffffffffffffffffffffffffffffffffffff851660009081526007602090815260408083208784529091529020548110156121f85773ffffffffffffffffffffffffffffffffffffffff8516600090815260076020908152604080832087845290915281208054839081106121a9576121a9614111565b90600052602060002090600502019050806001015443101580156121d25750600481015460ff16155b156121e557826121e181614140565b9350505b50806121f081614140565b91505061212f565b509392505050565b73ffffffffffffffffffffffffffffffffffffffff8416600090815260076020908152604080832086845290915281205460609190841061224257600061227e565b73ffffffffffffffffffffffffffffffffffffffff8616600090815260076020908152604080832088845290915290205461227e9085906140eb565b90506000838211156122905783612292565b815b905060008167ffffffffffffffff8111156122af576122af613e21565b60405190808252806020026020018201604052801561231457816020015b6123016040518060a00160405280600081526020016000815260200160608152602001606081526020016000151581525090565b8152602001906001900390816122cd5790505b50905060005b8281101561248c5773ffffffffffffffffffffffffffffffffffffffff891660009081526007602090815260408083208b8452909152902061235c82896140fe565b8154811061236c5761236c614111565b90600052602060002090600502016040518060a00160405290816000820154815260200160018201548152602001600282018054806020026020016040519081016040528092919081815260200182805480156123e857602002820191906000526020600020905b8154815260200190600101908083116123d4575b505050505081526020016003820180548060200260200160405190810160405280929190818152602001828054801561244057602002820191906000526020600020905b81548152602001906001019080831161242c575b50505091835250506004919091015460ff161515602090910152825183908390811061246e5761246e614111565b6020026020010181905250808061248490614140565b91505061231a565b50979650505050505050565b6000828152600260205260409020600101546124b3816129fa565b61098a8383612b16565b606060006124c9611519565b67ffffffffffffffff8111156124e1576124e1613e21565b6040519080825280602002602001820160405280156125a257816020015b61258f60405180610180016040528060008152602001600073ffffffffffffffffffffffffffffffffffffffff1681526020016060815260200160608152602001600073ffffffffffffffffffffffffffffffffffffffff168152602001606081526020016060815260200160608152602001600081526020016000815260200160008152602001600081525090565b8152602001906001900390816124ff5790505b50905060005b6125b0611519565b8110156110e657600660006125c6600484612991565b8152602080820192909252604090810160002081516101808101835281548152600182015473ffffffffffffffffffffffffffffffffffffffff168185015260028201805484518187028101870186528181529295939486019383018282801561264f57602002820191906000526020600020905b81548152602001906001019080831161263b575b50505050508152602001600382018054806020026020016040519081016040528092919081815260200182805480156126a757602002820191906000526020600020905b815481526020019060010190808311612693575b5050509183525050600482015473ffffffffffffffffffffffffffffffffffffffff16602080830191909152600583018054604080518285028101850182528281529401939283018282801561271c57602002820191906000526020600020905b815481526020019060010190808311612708575b505050505081526020016006820180548060200260200160405190810160405280929190818152602001828054801561277457602002820191906000526020600020905b815481526020019060010190808311612760575b50505050508152602001600782018054806020026020016040519081016040528092919081815260200182805480156127cc57602002820191906000526020600020905b8154815260200190600101908083116127b8575b505050505081526020016008820154815260200160098201548152602001600a8201548152602001600b8201548152505082828151811061280f5761280f614111565b6020026020010181905250808061282590614140565b9150506125a8565b612835612c09565b60005b60076000612844612b0c565b73ffffffffffffffffffffffffffffffffffffffff1681526020808201929092526040908101600090812085825290925290205481101561289d5761288b82826000612c94565b8061289581614140565b915050612838565b506114f86001600355565b60006128b46004612987565b821061291c576040517f08c379a000000000000000000000000000000000000000000000000000000000815260206004820152601360248201527f496e646578206f7574206f6620626f756e647300000000000000000000000000604482015260640161084b565b610713600483612991565b6060611525600461327c565b6000805473ffffffffffffffffffffffffffffffffffffffff16330361297e57507fffffffffffffffffffffffffffffffffffffffffffffffffffffffffffffffec36013560601c90565b503390565b3390565b6000610713825490565b600061299d8383613289565b9392505050565b60007fffffffff0000000000000000000000000000000000000000000000000000000082167f7965db0b0000000000000000000000000000000000000000000000000000000014806107135750610713826132b3565b6114f881612a06612b0c565b61334a565b600061299d8383613404565b600082815260026020908152604080832073ffffffffffffffffffffffffffffffffffffffff8516845290915290205460ff16610a5b57600082815260026020908152604080832073ffffffffffffffffffffffffffffffffffffffff85168452909152902080547fffffffffffffffffffffffffffffffffffffffffffffffffffffffffffffff00166001179055612aae612b0c565b73ffffffffffffffffffffffffffffffffffffffff168173ffffffffffffffffffffffffffffffffffffffff16837f2f8788117e7eff1d82e926ec794901d17c78024a50270940304540a733656f0d60405160405180910390a45050565b6000611525612933565b600082815260026020908152604080832073ffffffffffffffffffffffffffffffffffffffff8516845290915290205460ff1615610a5b57600082815260026020908152604080832073ffffffffffffffffffffffffffffffffffffffff85168452909152902080547fffffffffffffffffffffffffffffffffffffffffffffffffffffffffffffff00169055612bab612b0c565b73ffffffffffffffffffffffffffffffffffffffff168173ffffffffffffffffffffffffffffffffffffffff16837ff6391f5c32d9c69d2a47ea670b442974b53935d1edc7fd64eb21e047a839171b60405160405180910390a45050565b600260035403612c75576040517f08c379a000000000000000000000000000000000000000000000000000000000815260206004820152601f60248201527f5265656e7472616e637947756172643a207265656e7472616e742063616c6c00604482015260640161084b565b6002600355565b6000818152600183016020526040812054151561299d565b600060076000612ca2612b0c565b73ffffffffffffffffffffffffffffffffffffffff1673ffffffffffffffffffffffffffffffffffffffff16815260200190815260200160002060008581526020019081526020016000208381548110612cfe57612cfe614111565b9060005260206000209060050201905060006006600086815260200190815260200160002090508160010154431080612d3b5750600482015460ff165b15612dd7578215612dd057604080517f08c379a00000000000000000000000000000000000000000000000000000000081526020600482015260248101919091527f4c6f6f74626f7820756e636c61696d61626c652e20436c61696d20626c6f636b60448201527f206e6f742072656163686564206f7220616c726561647920636c61696d65642e606482015260840161084b565b5050505050565b6000816009015467ffffffffffffffff811115612df657612df6613e21565b604051908082528060200260200182016040528015612e1f578160200160208202803683370190505b5090506000826009015467ffffffffffffffff811115612e4157612e41613e21565b604051908082528060200260200182016040528015612e6a578160200160208202803683370190505b50905060005b836009015481101561300a57600060018660010154612e8f91906140eb565b40612e98612b0c565b8984604051602001612ee8949392919093845260609290921b7fffffffffffffffffffffffffffffffffffffffff0000000000000000000000001660208401526034830152605482015260740190565b6040516020818303038152906040528051906020012060001c90506000856008015482612f159190614466565b905060005b6007870154811015612ff4576000876007018281548110612f3d57612f3d614111565b9060005260206000200154905082811115612fd457876005018281548110612f6757612f67614111565b9060005260206000200154878681518110612f8457612f84614111565b602002602001018181525050876006018281548110612fa557612fa5614111565b9060005260206000200154868681518110612fc257612fc2614111565b60200260200101818152505050612ff4565b612fde81846140eb565b9250508080612fec90614140565b915050612f1a565b505050808061300290614140565b915050612e70565b506004838101546040517f91d148540000000000000000000000000000000000000000000000000000000081527fc9eb32e43bf5ecbceacf00b32281dfc5d6d700a0db676ea26ccf938a385ac3f79281019290925230602483015273ffffffffffffffffffffffffffffffffffffffff16906391d1485490604401602060405180830381865afa1580156130a2573d6000803e3d6000fd5b505050506040513d601f19601f820116820180604052508101906130c691906142ea565b1561314a57600483015473ffffffffffffffffffffffffffffffffffffffff166308f427c76130f3612b0c565b84846040518463ffffffff1660e01b8152600401613113939291906144a1565b600060405180830381600087803b15801561312d57600080fd5b505af1158015613141573d6000803e3d6000fd5b505050506131c7565b600483015473ffffffffffffffffffffffffffffffffffffffff16632eb2c2d630613173612b0c565b85856040518563ffffffff1660e01b815260040161319494939291906144e2565b600060405180830381600087803b1580156131ae57600080fd5b505af11580156131c2573d6000803e3d6000fd5b505050505b81516131dc9060028601906020850190613804565b5080516131f29060038601906020840190613804565b506004840180547fffffffffffffffffffffffffffffffffffffffffffffffffffffffffffffff00166001179055867fa90466a1141d4242085b5ac5c6634a366ec37ad66c953e191b51c3441e56010e8461324b612b0c565b89868660405161325f95949392919061452d565b60405180910390a250505050505050565b600061299d83836134f7565b6060600061299d83613546565b60008260000182815481106132a0576132a0614111565b9060005260206000200154905092915050565b60007fffffffff0000000000000000000000000000000000000000000000000000000082167f4e2312e000000000000000000000000000000000000000000000000000000000148061071357507f01ffc9a7000000000000000000000000000000000000000000000000000000007fffffffff00000000000000000000000000000000000000000000000000000000831614610713565b600082815260026020908152604080832073ffffffffffffffffffffffffffffffffffffffff8516845290915290205460ff16610a5b5761338a816135a2565b6133958360206135c1565b6040516020016133a69291906145b8565b604080517fffffffffffffffffffffffffffffffffffffffffffffffffffffffffffffffe0818403018152908290527f08c379a000000000000000000000000000000000000000000000000000000000825261084b91600401614639565b600081815260018301602052604081205480156134ed5760006134286001836140eb565b855490915060009061343c906001906140eb565b90508181146134a157600086600001828154811061345c5761345c614111565b906000526020600020015490508087600001848154811061347f5761347f614111565b6000918252602080832090910192909255918252600188019052604090208390555b85548690806134b2576134b261468a565b600190038181906000526020600020016000905590558560010160008681526020019081526020016000206000905560019350505050610713565b6000915050610713565b600081815260018301602052604081205461353e57508154600181810184556000848152602080822090930184905584548482528286019093526040902091909155610713565b506000610713565b60608160000180548060200260200160405190810160405280929190818152602001828054801561359657602002820191906000526020600020905b815481526020019060010190808311613582575b50505050509050919050565b606061071373ffffffffffffffffffffffffffffffffffffffff831660145b606060006135d08360026146b9565b6135db9060026140fe565b67ffffffffffffffff8111156135f3576135f3613e21565b6040519080825280601f01601f19166020018201604052801561361d576020820181803683370190505b5090507f30000000000000000000000000000000000000000000000000000000000000008160008151811061365457613654614111565b60200101907effffffffffffffffffffffffffffffffffffffffffffffffffffffffffffff1916908160001a9053507f7800000000000000000000000000000000000000000000000000000000000000816001815181106136b7576136b7614111565b60200101907effffffffffffffffffffffffffffffffffffffffffffffffffffffffffffff1916908160001a90535060006136f38460026146b9565b6136fe9060016140fe565b90505b600181111561379b577f303132333435363738396162636465660000000000000000000000000000000085600f166010811061373f5761373f614111565b1a60f81b82828151811061375557613755614111565b60200101907effffffffffffffffffffffffffffffffffffffffffffffffffffffffffffff1916908160001a90535060049490941c93613794816146f6565b9050613701565b50831561299d576040517f08c379a000000000000000000000000000000000000000000000000000000000815260206004820181905260248201527f537472696e67733a20686578206c656e67746820696e73756666696369656e74604482015260640161084b565b82805482825590600052602060002090810192821561383f579160200282015b8281111561383f578251825591602001919060010190613824565b5061384b92915061384f565b5090565b5b8082111561384b5760008155600101613850565b6000806040838503121561387757600080fd5b50508035926020909101359150565b600081518084526020808501945080840160005b838110156138b65781518752958201959082019060010161389a565b509495945050505050565b6000602080830181845280855180835260408601915060408160051b870101925083870160005b82811015613934577fffffffffffffffffffffffffffffffffffffffffffffffffffffffffffffffc0888603018452613922858351613886565b945092850192908501906001016138e8565b5092979650505050505050565b60006020828403121561395357600080fd5b81357fffffffff000000000000000000000000000000000000000000000000000000008116811461299d57600080fd5b60006020828403121561399557600080fd5b5035919050565b60208152600061299d6020830184613886565b803573ffffffffffffffffffffffffffffffffffffffff811681146139d357600080fd5b919050565b600080604083850312156139eb57600080fd5b823591506139fb602084016139af565b90509250929050565b600060208284031215613a1657600080fd5b61299d826139af565b6000610180825184526020830151613a4f602086018273ffffffffffffffffffffffffffffffffffffffff169052565b506040830151816040860152613a6782860182613886565b91505060608301518482036060860152613a818282613886565b9150506080830151613aab608086018273ffffffffffffffffffffffffffffffffffffffff169052565b5060a083015184820360a0860152613ac38282613886565b91505060c083015184820360c0860152613add8282613886565b91505060e083015184820360e0860152613af78282613886565b610100858101519087015261012080860151908701526101408086015190870152610160948501519490950193909352509192915050565b6000602080830181845280855180835260408601915060408160051b870101925083870160005b82811015613934577fffffffffffffffffffffffffffffffffffffffffffffffffffffffffffffffc0888603018452613b90858351613a1f565b94509285019290850190600101613b56565b60008060408385031215613bb557600080fd5b613bbe836139af565b946020939093013593505050565b80518252602081015160208301526000604082015160a06040850152613bf560a0850182613886565b905060608301518482036060860152613c0e8282613886565b9150506080830151151560808501528091505092915050565b6000602080830181845280855180835260408601915060408160051b870101925083870160005b82811015613934577fffffffffffffffffffffffffffffffffffffffffffffffffffffffffffffffc0888603018452613c88858351613bcc565b94509285019290850190600101613c4e565b806040810183101561071357600080fd5b600080600080600080600060e0888a031215613cc657600080fd5b87359650613cd78960208a01613c9a565b9550606088013567ffffffffffffffff80821115613cf457600080fd5b613d008b838c01613c9a565b965060808a0135915080821115613d1657600080fd5b613d228b838c01613c9a565b955060a08a0135915080821115613d3857600080fd5b818a0191508a601f830112613d4c57600080fd5b813581811115613d5b57600080fd5b8b60208260051b8501011115613d7057600080fd5b60208301955080945050505060c0880135905092959891949750929550565b60208152600061299d6020830184613a1f565b600080600060608486031215613db757600080fd5b613dc0846139af565b95602085013595506040909401359392505050565b60208152600061299d6020830184613bcc565b60008060008060808587031215613dfe57600080fd5b613e07856139af565b966020860135965060408601359560600135945092505050565b7f4e487b7100000000000000000000000000000000000000000000000000000000600052604160045260246000fd5b604051601f82017fffffffffffffffffffffffffffffffffffffffffffffffffffffffffffffffe016810167ffffffffffffffff81118282101715613e9757613e97613e21565b604052919050565b600082601f830112613eb057600080fd5b8135602067ffffffffffffffff821115613ecc57613ecc613e21565b8160051b613edb828201613e50565b9283528481018201928281019087851115613ef557600080fd5b83870192505b84831015613f1457823582529183019190830190613efb565b979650505050505050565b600082601f830112613f3057600080fd5b813567ffffffffffffffff811115613f4a57613f4a613e21565b613f7b60207fffffffffffffffffffffffffffffffffffffffffffffffffffffffffffffffe0601f84011601613e50565b818152846020838601011115613f9057600080fd5b816020850160208301376000918101602001919091529392505050565b600080600080600060a08688031215613fc557600080fd5b613fce866139af565b9450613fdc602087016139af565b9350604086013567ffffffffffffffff80821115613ff957600080fd5b61400589838a01613e9f565b9450606088013591508082111561401b57600080fd5b61402789838a01613e9f565b9350608088013591508082111561403d57600080fd5b5061404a88828901613f1f565b9150509295509295909350565b600080600080600060a0868803121561406f57600080fd5b614078866139af565b9450614086602087016139af565b93506040860135925060608601359150608086013567ffffffffffffffff8111156140b057600080fd5b61404a88828901613f1f565b7f4e487b7100000000000000000000000000000000000000000000000000000000600052601160045260246000fd5b81810381811115610713576107136140bc565b80820180821115610713576107136140bc565b7f4e487b7100000000000000000000000000000000000000000000000000000000600052603260045260246000fd5b60007fffffffffffffffffffffffffffffffffffffffffffffffffffffffffffffffff8203614171576141716140bc565b5060010190565b6000815480845260208085019450836000528060002060005b838110156138b657815487529582019560019182019101614191565b6000610180825484526141d7600184015473ffffffffffffffffffffffffffffffffffffffff1690565b73ffffffffffffffffffffffffffffffffffffffff1660208501526040840181905261420881850160028501614178565b9050838103606085015261421f8160038501614178565b9050614242600484015473ffffffffffffffffffffffffffffffffffffffff1690565b73ffffffffffffffffffffffffffffffffffffffff16608085015283810360a08501526142728160058501614178565b905083810360c08501526142898160068501614178565b905083810360e08501526142a08160078501614178565b60088401546101008601526009840154610120860152600a840154610140860152600b909301546101609094019390935250919050565b60208152600061299d60208301846141ad565b6000602082840312156142fc57600080fd5b8151801515811461299d57600080fd5b73ffffffffffffffffffffffffffffffffffffffff8416815260606020820152600061433b6060830185614178565b828103604084015261434d8185614178565b9695505050505050565b600073ffffffffffffffffffffffffffffffffffffffff808716835280861660208401525060a0604083015261439060a0830185614178565b82810360608401526143a28185614178565b838103608090940193909352505060008152602001949350505050565b6040815260006143d260408301856141ad565b905073ffffffffffffffffffffffffffffffffffffffff831660208301529392505050565b60008083357fffffffffffffffffffffffffffffffffffffffffffffffffffffffffffffffe184360301811261442c57600080fd5b83018035915067ffffffffffffffff82111561444757600080fd5b6020019150600581901b360382131561445f57600080fd5b9250929050565b60008261449c577f4e487b7100000000000000000000000000000000000000000000000000000000600052601260045260246000fd5b500690565b73ffffffffffffffffffffffffffffffffffffffff841681526060602082015260006144d06060830185613886565b828103604084015261434d8185613886565b600073ffffffffffffffffffffffffffffffffffffffff808716835280861660208401525060a0604083015261451b60a0830185613886565b82810360608401526143a28185613886565b60a08152600061454060a08301886141ad565b73ffffffffffffffffffffffffffffffffffffffff8716602084015285604084015282810360608401526145748186613886565b905082810360808401526145888185613886565b98975050505050505050565b60005b838110156145af578181015183820152602001614597565b50506000910152565b7f416363657373436f6e74726f6c3a206163636f756e74200000000000000000008152600083516145f0816017850160208801614594565b7f206973206d697373696e6720726f6c6520000000000000000000000000000000601791840191820152835161462d816028840160208801614594565b01602801949350505050565b6020815260008251806020840152614658816040850160208701614594565b601f017fffffffffffffffffffffffffffffffffffffffffffffffffffffffffffffffe0169190910160400192915050565b7f4e487b7100000000000000000000000000000000000000000000000000000000600052603160045260246000fd5b6000817fffffffffffffffffffffffffffffffffffffffffffffffffffffffffffffffff04831182151516156146f1576146f16140bc565b500290565b600081614705576147056140bc565b507fffffffffffffffffffffffffffffffffffffffffffffffffffffffffffffffff019056fea2646970667358221220de2d726186d71de8649b0b3db09774da953f84e7942e1797f2d36b22fc830c7d64736f6c63430008100033",
  "linkReferences": {},
  "deployedLinkReferences": {}
}