{
  "_format": "hh-sol-artifact-1",
  "contractName": "ERC20_Game_Currency",
  "sourceName": "contracts/ERC20_Game_Currency.sol",
  "abi": [
    {
      "inputs": [
        {
          "internalType": "string",
          "name": "_name",
          "type": "string"
        },
        {
          "internalType": "string",
          "name": "_symbol",
          "type": "string"
        },
        {
          "internalType": "uint256",
          "name": "_supplyCap",
          "type": "uint256"
        },
        {
          "internalType": "address",
          "name": "_forwarder",
          "type": "address"
        }
      ],
      "stateMutability": "nonpayable",
      "type": "constructor"
    },
    {
      "anonymous": false,
      "inputs": [
        {
          "indexed": true,
          "internalType": "address",
          "name": "owner",
          "type": "address"
        },
        {
          "indexed": true,
          "internalType": "address",
          "name": "spender",
          "type": "address"
        },
        {
          "indexed": false,
          "internalType": "uint256",
          "name": "value",
          "type": "uint256"
        }
      ],
      "name": "Approval",
      "type": "event"
    },
    {
      "anonymous": false,
      "inputs": [
        {
          "indexed": true,
          "internalType": "address",
          "name": "sender",
          "type": "address"
        },
        {
          "indexed": false,
          "internalType": "address[]",
          "name": "recipients",
          "type": "address[]"
        },
        {
          "indexed": false,
          "internalType": "uint256[]",
          "name": "amounts",
          "type": "uint256[]"
        },
        {
          "indexed": false,
          "internalType": "uint256[]",
          "name": "refs",
          "type": "uint256[]"
        }
      ],
      "name": "BatchTransferRef",
      "type": "event"
    },
    {
      "anonymous": false,
      "inputs": [
        {
          "indexed": true,
          "internalType": "address",
          "name": "previousOwner",
          "type": "address"
        },
        {
          "indexed": true,
          "internalType": "address",
          "name": "newOwner",
          "type": "address"
        }
      ],
      "name": "OwnershipTransferred",
      "type": "event"
    },
    {
      "anonymous": false,
      "inputs": [
        {
          "indexed": true,
          "internalType": "address",
          "name": "from",
          "type": "address"
        },
        {
          "indexed": true,
          "internalType": "address",
          "name": "to",
          "type": "address"
        },
        {
          "indexed": false,
          "internalType": "uint256",
          "name": "value",
          "type": "uint256"
        }
      ],
      "name": "Transfer",
      "type": "event"
    },
    {
      "anonymous": false,
      "inputs": [
        {
          "indexed": true,
          "internalType": "address",
          "name": "sender",
          "type": "address"
        },
        {
          "indexed": true,
          "internalType": "address",
          "name": "recipient",
          "type": "address"
        },
        {
          "indexed": false,
          "internalType": "uint256",
          "name": "amount",
          "type": "uint256"
        },
        {
          "indexed": false,
          "internalType": "uint256",
          "name": "ref",
          "type": "uint256"
        }
      ],
      "name": "TransferRef",
      "type": "event"
    },
    {
      "inputs": [
        {
          "internalType": "address",
          "name": "owner",
          "type": "address"
        },
        {
          "internalType": "address",
          "name": "spender",
          "type": "address"
        }
      ],
      "name": "allowance",
      "outputs": [
        {
          "internalType": "uint256",
          "name": "",
          "type": "uint256"
        }
      ],
      "stateMutability": "view",
      "type": "function"
    },
    {
      "inputs": [
        {
          "internalType": "address",
          "name": "spender",
          "type": "address"
        },
        {
          "internalType": "uint256",
          "name": "amount",
          "type": "uint256"
        }
      ],
      "name": "approve",
      "outputs": [
        {
          "internalType": "bool",
          "name": "",
          "type": "bool"
        }
      ],
      "stateMutability": "nonpayable",
      "type": "function"
    },
    {
      "inputs": [
        {
          "internalType": "address",
          "name": "account",
          "type": "address"
        }
      ],
      "name": "balanceOf",
      "outputs": [
        {
          "internalType": "uint256",
          "name": "",
          "type": "uint256"
        }
      ],
      "stateMutability": "view",
      "type": "function"
    },
    {
      "inputs": [
        {
          "internalType": "address[]",
          "name": "recipients",
          "type": "address[]"
        },
        {
          "internalType": "uint256[]",
          "name": "amounts",
          "type": "uint256[]"
        }
      ],
      "name": "batchTransfer",
      "outputs": [
        {
          "internalType": "bool",
          "name": "",
          "type": "bool"
        }
      ],
      "stateMutability": "nonpayable",
      "type": "function"
    },
    {
      "inputs": [
        {
          "internalType": "address[]",
          "name": "recipients",
          "type": "address[]"
        },
        {
          "internalType": "uint256[]",
          "name": "amounts",
          "type": "uint256[]"
        }
      ],
      "name": "batchTransferWithFees",
      "outputs": [
        {
          "internalType": "bool",
          "name": "",
          "type": "bool"
        }
      ],
      "stateMutability": "nonpayable",
      "type": "function"
    },
    {
      "inputs": [
        {
          "internalType": "address[]",
          "name": "recipients",
          "type": "address[]"
        },
        {
          "internalType": "uint256[]",
          "name": "amounts",
          "type": "uint256[]"
        },
        {
          "internalType": "uint256[]",
          "name": "refs",
          "type": "uint256[]"
        }
      ],
      "name": "batchTransferWithFeesRefs",
      "outputs": [
        {
          "internalType": "bool",
          "name": "",
          "type": "bool"
        }
      ],
      "stateMutability": "nonpayable",
      "type": "function"
    },
    {
      "inputs": [
        {
          "internalType": "address[]",
          "name": "recipients",
          "type": "address[]"
        },
        {
          "internalType": "uint256[]",
          "name": "amounts",
          "type": "uint256[]"
        },
        {
          "internalType": "uint256[]",
          "name": "refs",
          "type": "uint256[]"
        }
      ],
      "name": "batchTransferWithRefs",
      "outputs": [
        {
          "internalType": "bool",
          "name": "",
          "type": "bool"
        }
      ],
      "stateMutability": "nonpayable",
      "type": "function"
    },
    {
      "inputs": [
        {
          "internalType": "uint256",
          "name": "_amount",
          "type": "uint256"
        }
      ],
      "name": "burn",
      "outputs": [],
      "stateMutability": "nonpayable",
      "type": "function"
    },
    {
      "inputs": [
        {
          "internalType": "uint256",
          "name": "amount",
          "type": "uint256"
        }
      ],
      "name": "burnWithFee",
      "outputs": [
        {
          "internalType": "bool",
          "name": "",
          "type": "bool"
        }
      ],
      "stateMutability": "nonpayable",
      "type": "function"
    },
    {
      "inputs": [],
      "name": "childChainManagerProxy",
      "outputs": [
        {
          "internalType": "address",
          "name": "",
          "type": "address"
        }
      ],
      "stateMutability": "view",
      "type": "function"
    },
    {
      "inputs": [],
      "name": "decimals",
      "outputs": [
        {
          "internalType": "uint8",
          "name": "",
          "type": "uint8"
        }
      ],
      "stateMutability": "view",
      "type": "function"
    },
    {
      "inputs": [
        {
          "internalType": "address",
          "name": "spender",
          "type": "address"
        },
        {
          "internalType": "uint256",
          "name": "subtractedValue",
          "type": "uint256"
        }
      ],
      "name": "decreaseAllowance",
      "outputs": [
        {
          "internalType": "bool",
          "name": "",
          "type": "bool"
        }
      ],
      "stateMutability": "nonpayable",
      "type": "function"
    },
    {
      "inputs": [
        {
          "internalType": "address",
          "name": "user",
          "type": "address"
        },
        {
          "internalType": "bytes",
          "name": "depositData",
          "type": "bytes"
        }
      ],
      "name": "deposit",
      "outputs": [],
      "stateMutability": "nonpayable",
      "type": "function"
    },
    {
      "inputs": [],
      "name": "feeBps",
      "outputs": [
        {
          "internalType": "uint256",
          "name": "",
          "type": "uint256"
        }
      ],
      "stateMutability": "view",
      "type": "function"
    },
    {
      "inputs": [],
      "name": "feeCap",
      "outputs": [
        {
          "internalType": "uint256",
          "name": "",
          "type": "uint256"
        }
      ],
      "stateMutability": "view",
      "type": "function"
    },
    {
      "inputs": [],
      "name": "feeFixed",
      "outputs": [
        {
          "internalType": "uint256",
          "name": "",
          "type": "uint256"
        }
      ],
      "stateMutability": "view",
      "type": "function"
    },
    {
      "inputs": [],
      "name": "feeRecipient",
      "outputs": [
        {
          "internalType": "address",
          "name": "",
          "type": "address"
        }
      ],
      "stateMutability": "view",
      "type": "function"
    },
    {
      "inputs": [
        {
          "internalType": "address",
          "name": "spender",
          "type": "address"
        },
        {
          "internalType": "uint256",
          "name": "addedValue",
          "type": "uint256"
        }
      ],
      "name": "increaseAllowance",
      "outputs": [
        {
          "internalType": "bool",
          "name": "",
          "type": "bool"
        }
      ],
      "stateMutability": "nonpayable",
      "type": "function"
    },
    {
      "inputs": [
        {
          "internalType": "address",
          "name": "forwarder",
          "type": "address"
        }
      ],
      "name": "isTrustedForwarder",
      "outputs": [
        {
          "internalType": "bool",
          "name": "",
          "type": "bool"
        }
      ],
      "stateMutability": "view",
      "type": "function"
    },
    {
      "inputs": [
        {
          "internalType": "address",
          "name": "_to",
          "type": "address"
        },
        {
          "internalType": "uint256",
          "name": "_amount",
          "type": "uint256"
        }
      ],
      "name": "mint",
      "outputs": [],
      "stateMutability": "nonpayable",
      "type": "function"
    },
    {
      "inputs": [],
      "name": "name",
      "outputs": [
        {
          "internalType": "string",
          "name": "",
          "type": "string"
        }
      ],
      "stateMutability": "view",
      "type": "function"
    },
    {
      "inputs": [],
      "name": "owner",
      "outputs": [
        {
          "internalType": "address",
          "name": "",
          "type": "address"
        }
      ],
      "stateMutability": "view",
      "type": "function"
    },
    {
      "inputs": [],
      "name": "renounceOwnership",
      "outputs": [],
      "stateMutability": "nonpayable",
      "type": "function"
    },
    {
      "inputs": [
        {
          "internalType": "address",
          "name": "recipient",
          "type": "address"
        },
        {
          "internalType": "uint256",
          "name": "_feeBps",
          "type": "uint256"
        },
        {
          "internalType": "uint256",
          "name": "_feeFixed",
          "type": "uint256"
        },
        {
          "internalType": "uint256",
          "name": "_feeCap",
          "type": "uint256"
        }
      ],
      "name": "setFees",
      "outputs": [],
      "stateMutability": "nonpayable",
      "type": "function"
    },
    {
      "inputs": [],
      "name": "supplyCap",
      "outputs": [
        {
          "internalType": "uint256",
          "name": "",
          "type": "uint256"
        }
      ],
      "stateMutability": "view",
      "type": "function"
    },
    {
      "inputs": [],
      "name": "symbol",
      "outputs": [
        {
          "internalType": "string",
          "name": "",
          "type": "string"
        }
      ],
      "stateMutability": "view",
      "type": "function"
    },
    {
      "inputs": [],
      "name": "totalSupply",
      "outputs": [
        {
          "internalType": "uint256",
          "name": "",
          "type": "uint256"
        }
      ],
      "stateMutability": "view",
      "type": "function"
    },
    {
      "inputs": [
        {
          "internalType": "address",
          "name": "to",
          "type": "address"
        },
        {
          "internalType": "uint256",
          "name": "amount",
          "type": "uint256"
        }
      ],
      "name": "transfer",
      "outputs": [
        {
          "internalType": "bool",
          "name": "",
          "type": "bool"
        }
      ],
      "stateMutability": "nonpayable",
      "type": "function"
    },
    {
      "inputs": [
        {
          "internalType": "address",
          "name": "from",
          "type": "address"
        },
        {
          "internalType": "address",
          "name": "to",
          "type": "address"
        },
        {
          "internalType": "uint256",
          "name": "amount",
          "type": "uint256"
        }
      ],
      "name": "transferFrom",
      "outputs": [
        {
          "internalType": "bool",
          "name": "",
          "type": "bool"
        }
      ],
      "stateMutability": "nonpayable",
      "type": "function"
    },
    {
      "inputs": [
        {
          "internalType": "address",
          "name": "newOwner",
          "type": "address"
        }
      ],
      "name": "transferOwnership",
      "outputs": [],
      "stateMutability": "nonpayable",
      "type": "function"
    },
    {
      "inputs": [
        {
          "internalType": "address",
          "name": "recipient",
          "type": "address"
        },
        {
          "internalType": "uint256",
          "name": "amount",
          "type": "uint256"
        }
      ],
      "name": "transferWithFee",
      "outputs": [
        {
          "internalType": "bool",
          "name": "",
          "type": "bool"
        }
      ],
      "stateMutability": "nonpayable",
      "type": "function"
    },
    {
      "inputs": [
        {
          "internalType": "address",
          "name": "recipient",
          "type": "address"
        },
        {
          "internalType": "uint256",
          "name": "amount",
          "type": "uint256"
        },
        {
          "internalType": "uint256",
          "name": "ref",
          "type": "uint256"
        }
      ],
      "name": "transferWithFeeRef",
      "outputs": [
        {
          "internalType": "bool",
          "name": "",
          "type": "bool"
        }
      ],
      "stateMutability": "nonpayable",
      "type": "function"
    },
    {
      "inputs": [
        {
          "internalType": "address",
          "name": "recipient",
          "type": "address"
        },
        {
          "internalType": "uint256",
          "name": "amount",
          "type": "uint256"
        },
        {
          "internalType": "uint256",
          "name": "ref",
          "type": "uint256"
        }
      ],
      "name": "transferWithRef",
      "outputs": [
        {
          "internalType": "bool",
          "name": "",
          "type": "bool"
        }
      ],
      "stateMutability": "nonpayable",
      "type": "function"
    },
    {
      "inputs": [
        {
          "internalType": "address",
          "name": "_childChainManagerProxy",
          "type": "address"
        }
      ],
      "name": "updateChildChainManager",
      "outputs": [],
      "stateMutability": "nonpayable",
      "type": "function"
    },
    {
      "inputs": [
        {
          "internalType": "address",
          "name": "_newTrustedForwarder",
          "type": "address"
        }
      ],
      "name": "upgradeTrustedForwarder",
      "outputs": [],
      "stateMutability": "nonpayable",
      "type": "function"
    },
    {
      "inputs": [
        {
          "internalType": "uint256",
          "name": "amount",
          "type": "uint256"
        }
      ],
      "name": "withdraw",
      "outputs": [],
      "stateMutability": "nonpayable",
      "type": "function"
    }
  ],
  "bytecode": "0x60a06040523480156200001157600080fd5b50604051620029a0380380620029a0833981016040819052620000349162000232565b808484600362000045838262000356565b50600462000054828262000356565b5050600580546001600160a01b0319166001600160a01b039390931692909217909155506200008c62000086620000c3565b620000df565b62000096620000c3565b600a80546001600160a01b0319166001600160a01b03929092169190911790555060805250620004229050565b6000620000da6200013160201b62000dad1760201c565b905090565b600680546001600160a01b038381166001600160a01b0319831681179093556040519116919082907f8be0079c531659141344cd1fd0a4f28419497f9722a3daafe3b4186f6b6457e090600090a35050565b6005546000906001600160a01b0316330362000154575060131936013560601c90565b620000da6200016960201b62000e041760201c565b3390565b634e487b7160e01b600052604160045260246000fd5b600082601f8301126200019557600080fd5b81516001600160401b0380821115620001b257620001b26200016d565b604051601f8301601f19908116603f01168101908282118183101715620001dd57620001dd6200016d565b81604052838152602092508683858801011115620001fa57600080fd5b600091505b838210156200021e5785820183015181830184015290820190620001ff565b600093810190920192909252949350505050565b600080600080608085870312156200024957600080fd5b84516001600160401b03808211156200026157600080fd5b6200026f8883890162000183565b955060208701519150808211156200028657600080fd5b50620002958782880162000183565b60408701516060880151919550935090506001600160a01b0381168114620002bc57600080fd5b939692955090935050565b600181811c90821680620002dc57607f821691505b602082108103620002fd57634e487b7160e01b600052602260045260246000fd5b50919050565b601f8211156200035157600081815260208120601f850160051c810160208610156200032c5750805b601f850160051c820191505b818110156200034d5782815560010162000338565b5050505b505050565b81516001600160401b038111156200037257620003726200016d565b6200038a81620003838454620002c7565b8462000303565b602080601f831160018114620003c25760008415620003a95750858301515b600019600386901b1c1916600185901b1785556200034d565b600085815260208120601f198616915b82811015620003f357888601518255948401946001909101908401620003d2565b5085821015620004125787850151600019600388901b60f8161c191681555b5050505050600190811b01905550565b6080516125546200044c600039600081816104cc01528181611cbb0152611ce101526125546000f3fe608060405234801561001057600080fd5b506004361061025c5760003560e01c8063572b6c05116101455780638f770ad0116100bd578063aa2a7eea1161008c578063cf2c52cb11610071578063cf2c52cb14610542578063dd62ed3e14610555578063f2fde38b1461059b57600080fd5b8063aa2a7eea1461051c578063c6be49e71461052f57600080fd5b80638f770ad0146104c757806395d89b41146104ee578063a457c2d7146104f6578063a9059cbb1461050957600080fd5b8063715018a611610114578063824c0d66116100f9578063824c0d661461048357806388d695b2146104965780638da5cb5b146104a957600080fd5b8063715018a6146104685780637669d4891461047057600080fd5b8063572b6c05146103d05780635932a78e146103ff57806362f629e71461041257806370a082311461043257600080fd5b806324a9d853116101d857806339509351116101a757806342966c681161018c57806342966c681461031b578063445a679714610378578063469048401461038b57600080fd5b8063395093511461035257806340c10f191461036557600080fd5b806324a9d853146103125780632e1a7d4d1461031b578063313ce5671461033057806337ea010a1461033f57600080fd5b8063095ea7b31161022f57806312b681981161021457806312b68198146102e457806318160ddd146102f757806323b872dd146102ff57600080fd5b8063095ea7b3146102c85780630e3d2202146102db57600080fd5b8063050b78831461026157806306fdde0314610289578063075b6e331461029e57806308acece2146102b5575b600080fd5b61027461026f366004611f69565b6105ae565b60405190151581526020015b60405180910390f35b6102916105c7565b6040516102809190611fd5565b6102a760095481565b604051908152602001610280565b6102746102c336600461206a565b610659565b6102746102d636600461206a565b610671565b6102a760085481565b6102746102f2366004612094565b610693565b6002546102a7565b61027461030d36600461212e565b6106b0565b6102a760075481565b61032e61032936600461216a565b6106de565b005b60405160128152602001610280565b61027461034d366004612183565b6106f2565b61027461036036600461206a565b610787565b61032e61037336600461206a565b6107e6565b61032e6103863660046121b6565b6108a7565b600a546103ab9073ffffffffffffffffffffffffffffffffffffffff1681565b60405173ffffffffffffffffffffffffffffffffffffffff9091168152602001610280565b6102746103de3660046121b6565b60055473ffffffffffffffffffffffffffffffffffffffff91821691161490565b61027461040d366004612183565b610999565b600b546103ab9073ffffffffffffffffffffffffffffffffffffffff1681565b6102a76104403660046121b6565b73ffffffffffffffffffffffffffffffffffffffff1660009081526020819052604090205490565b61032e6109c5565b61032e61047e3660046121d8565b6109d9565b610274610491366004612094565b610ab2565b6102746104a4366004611f69565b610ac4565b60065473ffffffffffffffffffffffffffffffffffffffff166103ab565b6102a77f000000000000000000000000000000000000000000000000000000000000000081565b610291610ad4565b61027461050436600461206a565b610ae3565b61027461051736600461206a565b610bc1565b61032e61052a3660046121b6565b610bd9565b61027461053d36600461216a565b610c24565b61032e610550366004612211565b610c3b565b6102a7610563366004612294565b73ffffffffffffffffffffffffffffffffffffffff918216600090815260016020908152604080832093909416825291909152205490565b61032e6105a93660046121b6565b610cf9565b60006105be858585856001610e08565b95945050505050565b6060600380546105d6906122c7565b80601f0160208091040260200160405190810160405280929190818152602001828054610602906122c7565b801561064f5780601f106106245761010080835404028352916020019161064f565b820191906000526020600020905b81548152906001019060200180831161063257829003601f168201915b5050505050905090565b600061066783836000610fa2565b5060015b92915050565b60008061067c61119d565b90506106898185856111a7565b5060019392505050565b60006106a5878787878787600061135b565b979650505050505050565b6000806106bb61119d565b90506106c8858285611696565b6106d3858585611767565b506001949350505050565b6106ef6106e961119d565b82611a1a565b50565b60006107066106ff61119d565b8585611767565b8373ffffffffffffffffffffffffffffffffffffffff1661072561119d565b73ffffffffffffffffffffffffffffffffffffffff167f9be86a1edd93f234e9c42b9ec0ff205d1b91b05eed309f225cc0a82f936508308585604051610775929190918252602082015260400190565b60405180910390a35060019392505050565b60008061079261119d565b90506106898185856107d7858973ffffffffffffffffffffffffffffffffffffffff918216600090815260016020908152604080832093909416825291909152205490565b6107e19190612349565b6111a7565b6107ee611bff565b600b5473ffffffffffffffffffffffffffffffffffffffff1615610899576040517f08c379a000000000000000000000000000000000000000000000000000000000815260206004820152603060248201527f4d696e74696e672064697361626c6564207768656e20506f6c79676f6e20627260448201527f6964676520697320656e61626c65642e0000000000000000000000000000000060648201526084015b60405180910390fd5b6108a38282611cb9565b5050565b6108af611bff565b73ffffffffffffffffffffffffffffffffffffffff8116610952576040517f08c379a000000000000000000000000000000000000000000000000000000000815260206004820152602360248201527f426164204368696c64436861696e4d616e6167657250726f787920616464726560448201527f73732e00000000000000000000000000000000000000000000000000000000006064820152608401610890565b600b80547fffffffffffffffffffffffff00000000000000000000000000000000000000001673ffffffffffffffffffffffffffffffffffffffff92909216919091179055565b60006109a58484610659565b508373ffffffffffffffffffffffffffffffffffffffff1661072561119d565b6109cd611bff565b6109d76000611d86565b565b6109e1611bff565b73ffffffffffffffffffffffffffffffffffffffff8416610a5e576040517f08c379a000000000000000000000000000000000000000000000000000000000815260206004820152601360248201527f726563697069656e7420697320302061646472000000000000000000000000006044820152606401610890565b600a80547fffffffffffffffffffffffff00000000000000000000000000000000000000001673ffffffffffffffffffffffffffffffffffffffff9590951694909417909355600791909155600855600955565b60006106a5878787878787600161135b565b60006105be858585856000610e08565b6060600480546105d6906122c7565b600080610aee61119d565b73ffffffffffffffffffffffffffffffffffffffff81811660009081526001602090815260408083209389168352929052205490915083811015610bb4576040517f08c379a000000000000000000000000000000000000000000000000000000000815260206004820152602560248201527f45524332303a2064656372656173656420616c6c6f77616e63652062656c6f7760448201527f207a65726f0000000000000000000000000000000000000000000000000000006064820152608401610890565b6106d382868684036111a7565b600080610bcc61119d565b9050610689818585611767565b610be1611bff565b600580547fffffffffffffffffffffffff00000000000000000000000000000000000000001673ffffffffffffffffffffffffffffffffffffffff831617905550565b6000610c336000836001610fa2565b506001919050565b600b5473ffffffffffffffffffffffffffffffffffffffff16610c5c61119d565b73ffffffffffffffffffffffffffffffffffffffff1614610cd9576040517f08c379a000000000000000000000000000000000000000000000000000000000815260206004820152601f60248201527f41646472657373206e6f7420616c6c6f77656420746f206465706f7369742e006044820152606401610890565b6000610ce78284018461216a565b9050610cf38482611cb9565b50505050565b610d01611bff565b73ffffffffffffffffffffffffffffffffffffffff8116610da4576040517f08c379a000000000000000000000000000000000000000000000000000000000815260206004820152602660248201527f4f776e61626c653a206e6577206f776e657220697320746865207a65726f206160448201527f64647265737300000000000000000000000000000000000000000000000000006064820152608401610890565b6106ef81611d86565b60055460009073ffffffffffffffffffffffffffffffffffffffff163303610dfa57507fffffffffffffffffffffffffffffffffffffffffffffffffffffffffffffffec36013560601c90565b503390565b905090565b3390565b600084610e71576040517f08c379a000000000000000000000000000000000000000000000000000000000815260206004820152600d60248201527f4e6f20726563697069656e7473000000000000000000000000000000000000006044820152606401610890565b848314610eda576040517f08c379a000000000000000000000000000000000000000000000000000000000815260206004820181905260248201527f616d6f756e747320617267756d656e742073697a65206d69736d6174636865646044820152606401610890565b60005b85811015610f95578215610f3957610f33878783818110610f0057610f0061235c565b9050602002016020810190610f1591906121b6565b868684818110610f2757610f2761235c565b90506020020135610659565b50610f83565b610f81878783818110610f4e57610f4e61235c565b9050602002016020810190610f6391906121b6565b868684818110610f7557610f7561235c565b90506020020135610bc1565b505b80610f8d8161238b565b915050610edd565b5060019695505050505050565b6000610faf61044061119d565b600a5490915073ffffffffffffffffffffffffffffffffffffffff16611057576040517f08c379a000000000000000000000000000000000000000000000000000000000815260206004820152603160248201527f46656520726563697069656e74206e6f74207365742c2063616e6e6f7420757360448201527f65207472616e73666572576974684665650000000000000000000000000000006064820152608401610890565b828110156110e7576040517f08c379a000000000000000000000000000000000000000000000000000000000815260206004820152602760248201527f45524332303a207472616e7366657220616d6f756e742065786365656473206260448201527f616c616e63652e000000000000000000000000000000000000000000000000006064820152608401610890565b6000600854612710600754866110fd91906123c3565b6111079190612400565b6111119190612349565b9050600060095482111561112757600954611129565b815b905061115561113661119d565b600a5473ffffffffffffffffffffffffffffffffffffffff1683611767565b831561117a5761117561116661119d565b611170838861243b565b611a1a565b611195565b61119561118561119d565b87611190848961243b565b611767565b505050505050565b6000610dff610dad565b73ffffffffffffffffffffffffffffffffffffffff8316611249576040517f08c379a0000000000000000000000000000000000000000000000000000000008152602060048201526024808201527f45524332303a20617070726f76652066726f6d20746865207a65726f2061646460448201527f72657373000000000000000000000000000000000000000000000000000000006064820152608401610890565b73ffffffffffffffffffffffffffffffffffffffff82166112ec576040517f08c379a000000000000000000000000000000000000000000000000000000000815260206004820152602260248201527f45524332303a20617070726f766520746f20746865207a65726f20616464726560448201527f73730000000000000000000000000000000000000000000000000000000000006064820152608401610890565b73ffffffffffffffffffffffffffffffffffffffff83811660008181526001602090815260408083209487168084529482529182902085905590518481527f8c5be1e5ebec7d5bd14f71427d1e84f3dd0314c0f7b2291e5b200ac8c7c3b92591015b60405180910390a3505050565b6000866113c4576040517f08c379a000000000000000000000000000000000000000000000000000000000815260206004820152600d60248201527f4e6f20726563697069656e7473000000000000000000000000000000000000006044820152606401610890565b86851461142d576040517f08c379a000000000000000000000000000000000000000000000000000000000815260206004820181905260248201527f616d6f756e747320617267756d656e742073697a65206d69736d6174636865646044820152606401610890565b868314611496576040517f08c379a000000000000000000000000000000000000000000000000000000000815260206004820152601d60248201527f7265667320617267756d656e742073697a65206d69736d6174636865640000006044820152606401610890565b60005b878110156116285782156114e9576114e38989838181106114bc576114bc61235c565b90506020020160208101906114d191906121b6565b888884818110610f2757610f2761235c565b50611527565b6115258989838181106114fe576114fe61235c565b905060200201602081019061151391906121b6565b888884818110610f7557610f7561235c565b505b600085858381811061153b5761153b61235c565b9050602002013511156116165788888281811061155a5761155a61235c565b905060200201602081019061156f91906121b6565b73ffffffffffffffffffffffffffffffffffffffff1661158d61119d565b73ffffffffffffffffffffffffffffffffffffffff167f9be86a1edd93f234e9c42b9ec0ff205d1b91b05eed309f225cc0a82f936508308989858181106115d6576115d661235c565b905060200201358888868181106115ef576115ef61235c565b9050602002013560405161160d929190918252602082015260400190565b60405180910390a35b806116208161238b565b915050611499565b5061163161119d565b73ffffffffffffffffffffffffffffffffffffffff167fa91f78721ec724c5d8f9e089dcea4047a178a40bbff32381b463c701f37aabd889898989898960405161168096959493929190612499565b60405180910390a2506001979650505050505050565b73ffffffffffffffffffffffffffffffffffffffff8381166000908152600160209081526040808320938616835292905220547fffffffffffffffffffffffffffffffffffffffffffffffffffffffffffffffff8114610cf3578181101561175a576040517f08c379a000000000000000000000000000000000000000000000000000000000815260206004820152601d60248201527f45524332303a20696e73756666696369656e7420616c6c6f77616e63650000006044820152606401610890565b610cf384848484036111a7565b73ffffffffffffffffffffffffffffffffffffffff831661180a576040517f08c379a000000000000000000000000000000000000000000000000000000000815260206004820152602560248201527f45524332303a207472616e736665722066726f6d20746865207a65726f20616460448201527f64726573730000000000000000000000000000000000000000000000000000006064820152608401610890565b73ffffffffffffffffffffffffffffffffffffffff82166118ad576040517f08c379a000000000000000000000000000000000000000000000000000000000815260206004820152602360248201527f45524332303a207472616e7366657220746f20746865207a65726f206164647260448201527f65737300000000000000000000000000000000000000000000000000000000006064820152608401610890565b73ffffffffffffffffffffffffffffffffffffffff831660009081526020819052604090205481811015611963576040517f08c379a000000000000000000000000000000000000000000000000000000000815260206004820152602660248201527f45524332303a207472616e7366657220616d6f756e742065786365656473206260448201527f616c616e636500000000000000000000000000000000000000000000000000006064820152608401610890565b73ffffffffffffffffffffffffffffffffffffffff8085166000908152602081905260408082208585039055918516815290812080548492906119a7908490612349565b925050819055508273ffffffffffffffffffffffffffffffffffffffff168473ffffffffffffffffffffffffffffffffffffffff167fddf252ad1be2c89b69c2b068fc378daa952ba7f163c4a11628f55a4df523b3ef84604051611a0d91815260200190565b60405180910390a3610cf3565b73ffffffffffffffffffffffffffffffffffffffff8216611abd576040517f08c379a000000000000000000000000000000000000000000000000000000000815260206004820152602160248201527f45524332303a206275726e2066726f6d20746865207a65726f2061646472657360448201527f73000000000000000000000000000000000000000000000000000000000000006064820152608401610890565b73ffffffffffffffffffffffffffffffffffffffff821660009081526020819052604090205481811015611b73576040517f08c379a000000000000000000000000000000000000000000000000000000000815260206004820152602260248201527f45524332303a206275726e20616d6f756e7420657863656564732062616c616e60448201527f63650000000000000000000000000000000000000000000000000000000000006064820152608401610890565b73ffffffffffffffffffffffffffffffffffffffff83166000908152602081905260408120838303905560028054849290611baf90849061243b565b909155505060405182815260009073ffffffffffffffffffffffffffffffffffffffff8516907fddf252ad1be2c89b69c2b068fc378daa952ba7f163c4a11628f55a4df523b3ef9060200161134e565b611c0761119d565b73ffffffffffffffffffffffffffffffffffffffff16611c3c60065473ffffffffffffffffffffffffffffffffffffffff1690565b73ffffffffffffffffffffffffffffffffffffffff16146109d7576040517f08c379a000000000000000000000000000000000000000000000000000000000815260206004820181905260248201527f4f776e61626c653a2063616c6c6572206973206e6f7420746865206f776e65726044820152606401610890565b7f000000000000000000000000000000000000000000000000000000000000000015611d7c577f000000000000000000000000000000000000000000000000000000000000000081611d0a60025490565b611d149190612349565b1115611d7c576040517f08c379a000000000000000000000000000000000000000000000000000000000815260206004820152601960248201527f455243323020737570706c7920636170206578636565646564000000000000006044820152606401610890565b6108a38282611dfd565b6006805473ffffffffffffffffffffffffffffffffffffffff8381167fffffffffffffffffffffffff0000000000000000000000000000000000000000831681179093556040519116919082907f8be0079c531659141344cd1fd0a4f28419497f9722a3daafe3b4186f6b6457e090600090a35050565b73ffffffffffffffffffffffffffffffffffffffff8216611e7a576040517f08c379a000000000000000000000000000000000000000000000000000000000815260206004820152601f60248201527f45524332303a206d696e7420746f20746865207a65726f2061646472657373006044820152606401610890565b8060026000828254611e8c9190612349565b909155505073ffffffffffffffffffffffffffffffffffffffff821660009081526020819052604081208054839290611ec6908490612349565b909155505060405181815273ffffffffffffffffffffffffffffffffffffffff8316906000907fddf252ad1be2c89b69c2b068fc378daa952ba7f163c4a11628f55a4df523b3ef9060200160405180910390a35050565b60008083601f840112611f2f57600080fd5b50813567ffffffffffffffff811115611f4757600080fd5b6020830191508360208260051b8501011115611f6257600080fd5b9250929050565b60008060008060408587031215611f7f57600080fd5b843567ffffffffffffffff80821115611f9757600080fd5b611fa388838901611f1d565b90965094506020870135915080821115611fbc57600080fd5b50611fc987828801611f1d565b95989497509550505050565b600060208083528351808285015260005b8181101561200257858101830151858201604001528201611fe6565b5060006040828601015260407fffffffffffffffffffffffffffffffffffffffffffffffffffffffffffffffe0601f8301168501019250505092915050565b803573ffffffffffffffffffffffffffffffffffffffff8116811461206557600080fd5b919050565b6000806040838503121561207d57600080fd5b61208683612041565b946020939093013593505050565b600080600080600080606087890312156120ad57600080fd5b863567ffffffffffffffff808211156120c557600080fd5b6120d18a838b01611f1d565b909850965060208901359150808211156120ea57600080fd5b6120f68a838b01611f1d565b9096509450604089013591508082111561210f57600080fd5b5061211c89828a01611f1d565b979a9699509497509295939492505050565b60008060006060848603121561214357600080fd5b61214c84612041565b925061215a60208501612041565b9150604084013590509250925092565b60006020828403121561217c57600080fd5b5035919050565b60008060006060848603121561219857600080fd5b6121a184612041565b95602085013595506040909401359392505050565b6000602082840312156121c857600080fd5b6121d182612041565b9392505050565b600080600080608085870312156121ee57600080fd5b6121f785612041565b966020860135965060408601359560600135945092505050565b60008060006040848603121561222657600080fd5b61222f84612041565b9250602084013567ffffffffffffffff8082111561224c57600080fd5b818601915086601f83011261226057600080fd5b81358181111561226f57600080fd5b87602082850101111561228157600080fd5b6020830194508093505050509250925092565b600080604083850312156122a757600080fd5b6122b083612041565b91506122be60208401612041565b90509250929050565b600181811c908216806122db57607f821691505b602082108103612314577f4e487b7100000000000000000000000000000000000000000000000000000000600052602260045260246000fd5b50919050565b7f4e487b7100000000000000000000000000000000000000000000000000000000600052601160045260246000fd5b8082018082111561066b5761066b61231a565b7f4e487b7100000000000000000000000000000000000000000000000000000000600052603260045260246000fd5b60007fffffffffffffffffffffffffffffffffffffffffffffffffffffffffffffffff82036123bc576123bc61231a565b5060010190565b6000817fffffffffffffffffffffffffffffffffffffffffffffffffffffffffffffffff04831182151516156123fb576123fb61231a565b500290565b600082612436577f4e487b7100000000000000000000000000000000000000000000000000000000600052601260045260246000fd5b500490565b8181038181111561066b5761066b61231a565b81835260007f07ffffffffffffffffffffffffffffffffffffffffffffffffffffffffffffff83111561248057600080fd5b8260051b80836020870137939093016020019392505050565b6060808252810186905260008760808301825b898110156124e75773ffffffffffffffffffffffffffffffffffffffff6124d284612041565b168252602092830192909101906001016124ac565b5083810360208501526124fb81888a61244e565b915050828103604084015261251181858761244e565b999850505050505050505056fea26469706673582212201f5cc30bb848e462ab13534a0839f1b1a802d1945f8cd5ace426babc4a1f980664736f6c63430008100033",
  "linkReferences": {},
  "deployedLinkReferences": {}
}