{
  "_format": "hh-sol-artifact-1",
  "contractName": "Game_Items_Merchant",
  "sourceName": "contracts/Items_Merchant/Game_Items_Merchant.sol",
  "abi": [
    {
      "inputs": [
        {
          "internalType": "address",
          "name": "_forwarder",
          "type": "address"
        }
      ],
      "stateMutability": "nonpayable",
      "type": "constructor"
    },
    {
      "anonymous": false,
      "inputs": [
        {
          "indexed": true,
          "internalType": "uint256",
          "name": "offerId",
          "type": "uint256"
        },
        {
          "components": [
            {
              "internalType": "uint256",
              "name": "id",
              "type": "uint256"
            },
            {
              "internalType": "uint256[]",
              "name": "itemIds",
              "type": "uint256[]"
            },
            {
              "internalType": "uint256[]",
              "name": "itemAmounts",
              "type": "uint256[]"
            },
            {
              "internalType": "uint256",
              "name": "currencyAmount",
              "type": "uint256"
            },
            {
              "internalType": "uint256",
              "name": "uses",
              "type": "uint256"
            },
            {
              "internalType": "uint256",
              "name": "maxUses",
              "type": "uint256"
            },
            {
              "internalType": "uint256",
              "name": "lastUpdatedAt",
              "type": "uint256"
            },
            {
              "internalType": "enum IGame_Items_Merchant.OfferType",
              "name": "offerType",
              "type": "uint8"
            },
            {
              "internalType": "contract IERC1155_Game_Items_Collection",
              "name": "itemsCollection",
              "type": "address"
            },
            {
              "internalType": "contract IERC20",
              "name": "currency",
              "type": "address"
            }
          ],
          "indexed": false,
          "internalType": "struct IGame_Items_Merchant.Offer",
          "name": "offer",
          "type": "tuple"
        },
        {
          "indexed": false,
          "internalType": "address",
          "name": "buyer",
          "type": "address"
        }
      ],
      "name": "Buy",
      "type": "event"
    },
    {
      "anonymous": false,
      "inputs": [
        {
          "indexed": true,
          "internalType": "uint256",
          "name": "offerId",
          "type": "uint256"
        },
        {
          "components": [
            {
              "internalType": "uint256",
              "name": "id",
              "type": "uint256"
            },
            {
              "internalType": "uint256[]",
              "name": "itemIds",
              "type": "uint256[]"
            },
            {
              "internalType": "uint256[]",
              "name": "itemAmounts",
              "type": "uint256[]"
            },
            {
              "internalType": "uint256",
              "name": "currencyAmount",
              "type": "uint256"
            },
            {
              "internalType": "uint256",
              "name": "uses",
              "type": "uint256"
            },
            {
              "internalType": "uint256",
              "name": "maxUses",
              "type": "uint256"
            },
            {
              "internalType": "uint256",
              "name": "lastUpdatedAt",
              "type": "uint256"
            },
            {
              "internalType": "enum IGame_Items_Merchant.OfferType",
              "name": "offerType",
              "type": "uint8"
            },
            {
              "internalType": "contract IERC1155_Game_Items_Collection",
              "name": "itemsCollection",
              "type": "address"
            },
            {
              "internalType": "contract IERC20",
              "name": "currency",
              "type": "address"
            }
          ],
          "indexed": false,
          "internalType": "struct IGame_Items_Merchant.Offer",
          "name": "offer",
          "type": "tuple"
        }
      ],
      "name": "BuyOfferRemoved",
      "type": "event"
    },
    {
      "anonymous": false,
      "inputs": [
        {
          "indexed": true,
          "internalType": "uint256",
          "name": "offerId",
          "type": "uint256"
        },
        {
          "components": [
            {
              "internalType": "uint256",
              "name": "id",
              "type": "uint256"
            },
            {
              "internalType": "uint256[]",
              "name": "itemIds",
              "type": "uint256[]"
            },
            {
              "internalType": "uint256[]",
              "name": "itemAmounts",
              "type": "uint256[]"
            },
            {
              "internalType": "uint256",
              "name": "currencyAmount",
              "type": "uint256"
            },
            {
              "internalType": "uint256",
              "name": "uses",
              "type": "uint256"
            },
            {
              "internalType": "uint256",
              "name": "maxUses",
              "type": "uint256"
            },
            {
              "internalType": "uint256",
              "name": "lastUpdatedAt",
              "type": "uint256"
            },
            {
              "internalType": "enum IGame_Items_Merchant.OfferType",
              "name": "offerType",
              "type": "uint8"
            },
            {
              "internalType": "contract IERC1155_Game_Items_Collection",
              "name": "itemsCollection",
              "type": "address"
            },
            {
              "internalType": "contract IERC20",
              "name": "currency",
              "type": "address"
            }
          ],
          "indexed": false,
          "internalType": "struct IGame_Items_Merchant.Offer",
          "name": "offer",
          "type": "tuple"
        }
      ],
      "name": "BuyOfferSet",
      "type": "event"
    },
    {
      "anonymous": false,
      "inputs": [
        {
          "indexed": true,
          "internalType": "bytes32",
          "name": "role",
          "type": "bytes32"
        },
        {
          "indexed": true,
          "internalType": "bytes32",
          "name": "previousAdminRole",
          "type": "bytes32"
        },
        {
          "indexed": true,
          "internalType": "bytes32",
          "name": "newAdminRole",
          "type": "bytes32"
        }
      ],
      "name": "RoleAdminChanged",
      "type": "event"
    },
    {
      "anonymous": false,
      "inputs": [
        {
          "indexed": true,
          "internalType": "bytes32",
          "name": "role",
          "type": "bytes32"
        },
        {
          "indexed": true,
          "internalType": "address",
          "name": "account",
          "type": "address"
        },
        {
          "indexed": true,
          "internalType": "address",
          "name": "sender",
          "type": "address"
        }
      ],
      "name": "RoleGranted",
      "type": "event"
    },
    {
      "anonymous": false,
      "inputs": [
        {
          "indexed": true,
          "internalType": "bytes32",
          "name": "role",
          "type": "bytes32"
        },
        {
          "indexed": true,
          "internalType": "address",
          "name": "account",
          "type": "address"
        },
        {
          "indexed": true,
          "internalType": "address",
          "name": "sender",
          "type": "address"
        }
      ],
      "name": "RoleRevoked",
      "type": "event"
    },
    {
      "anonymous": false,
      "inputs": [
        {
          "indexed": true,
          "internalType": "uint256",
          "name": "offerId",
          "type": "uint256"
        },
        {
          "components": [
            {
              "internalType": "uint256",
              "name": "id",
              "type": "uint256"
            },
            {
              "internalType": "uint256[]",
              "name": "itemIds",
              "type": "uint256[]"
            },
            {
              "internalType": "uint256[]",
              "name": "itemAmounts",
              "type": "uint256[]"
            },
            {
              "internalType": "uint256",
              "name": "currencyAmount",
              "type": "uint256"
            },
            {
              "internalType": "uint256",
              "name": "uses",
              "type": "uint256"
            },
            {
              "internalType": "uint256",
              "name": "maxUses",
              "type": "uint256"
            },
            {
              "internalType": "uint256",
              "name": "lastUpdatedAt",
              "type": "uint256"
            },
            {
              "internalType": "enum IGame_Items_Merchant.OfferType",
              "name": "offerType",
              "type": "uint8"
            },
            {
              "internalType": "contract IERC1155_Game_Items_Collection",
              "name": "itemsCollection",
              "type": "address"
            },
            {
              "internalType": "contract IERC20",
              "name": "currency",
              "type": "address"
            }
          ],
          "indexed": false,
          "internalType": "struct IGame_Items_Merchant.Offer",
          "name": "offer",
          "type": "tuple"
        },
        {
          "indexed": false,
          "internalType": "address",
          "name": "seller",
          "type": "address"
        }
      ],
      "name": "Sell",
      "type": "event"
    },
    {
      "anonymous": false,
      "inputs": [
        {
          "indexed": true,
          "internalType": "uint256",
          "name": "offerId",
          "type": "uint256"
        },
        {
          "components": [
            {
              "internalType": "uint256",
              "name": "id",
              "type": "uint256"
            },
            {
              "internalType": "uint256[]",
              "name": "itemIds",
              "type": "uint256[]"
            },
            {
              "internalType": "uint256[]",
              "name": "itemAmounts",
              "type": "uint256[]"
            },
            {
              "internalType": "uint256",
              "name": "currencyAmount",
              "type": "uint256"
            },
            {
              "internalType": "uint256",
              "name": "uses",
              "type": "uint256"
            },
            {
              "internalType": "uint256",
              "name": "maxUses",
              "type": "uint256"
            },
            {
              "internalType": "uint256",
              "name": "lastUpdatedAt",
              "type": "uint256"
            },
            {
              "internalType": "enum IGame_Items_Merchant.OfferType",
              "name": "offerType",
              "type": "uint8"
            },
            {
              "internalType": "contract IERC1155_Game_Items_Collection",
              "name": "itemsCollection",
              "type": "address"
            },
            {
              "internalType": "contract IERC20",
              "name": "currency",
              "type": "address"
            }
          ],
          "indexed": false,
          "internalType": "struct IGame_Items_Merchant.Offer",
          "name": "offer",
          "type": "tuple"
        }
      ],
      "name": "SellOfferRemoved",
      "type": "event"
    },
    {
      "anonymous": false,
      "inputs": [
        {
          "indexed": true,
          "internalType": "uint256",
          "name": "offerId",
          "type": "uint256"
        },
        {
          "components": [
            {
              "internalType": "uint256",
              "name": "id",
              "type": "uint256"
            },
            {
              "internalType": "uint256[]",
              "name": "itemIds",
              "type": "uint256[]"
            },
            {
              "internalType": "uint256[]",
              "name": "itemAmounts",
              "type": "uint256[]"
            },
            {
              "internalType": "uint256",
              "name": "currencyAmount",
              "type": "uint256"
            },
            {
              "internalType": "uint256",
              "name": "uses",
              "type": "uint256"
            },
            {
              "internalType": "uint256",
              "name": "maxUses",
              "type": "uint256"
            },
            {
              "internalType": "uint256",
              "name": "lastUpdatedAt",
              "type": "uint256"
            },
            {
              "internalType": "enum IGame_Items_Merchant.OfferType",
              "name": "offerType",
              "type": "uint8"
            },
            {
              "internalType": "contract IERC1155_Game_Items_Collection",
              "name": "itemsCollection",
              "type": "address"
            },
            {
              "internalType": "contract IERC20",
              "name": "currency",
              "type": "address"
            }
          ],
          "indexed": false,
          "internalType": "struct IGame_Items_Merchant.Offer",
          "name": "offer",
          "type": "tuple"
        }
      ],
      "name": "SellOfferSet",
      "type": "event"
    },
    {
      "inputs": [],
      "name": "DEFAULT_ADMIN_ROLE",
      "outputs": [
        {
          "internalType": "bytes32",
          "name": "",
          "type": "bytes32"
        }
      ],
      "stateMutability": "view",
      "type": "function"
    },
    {
      "inputs": [],
      "name": "allOfferIds",
      "outputs": [
        {
          "internalType": "uint256[]",
          "name": "",
          "type": "uint256[]"
        }
      ],
      "stateMutability": "view",
      "type": "function"
    },
    {
      "inputs": [],
      "name": "allOfferLastUpdates",
      "outputs": [
        {
          "internalType": "uint256[][]",
          "name": "",
          "type": "uint256[][]"
        }
      ],
      "stateMutability": "view",
      "type": "function"
    },
    {
      "inputs": [],
      "name": "allOffers",
      "outputs": [
        {
          "components": [
            {
              "internalType": "uint256",
              "name": "id",
              "type": "uint256"
            },
            {
              "internalType": "uint256[]",
              "name": "itemIds",
              "type": "uint256[]"
            },
            {
              "internalType": "uint256[]",
              "name": "itemAmounts",
              "type": "uint256[]"
            },
            {
              "internalType": "uint256",
              "name": "currencyAmount",
              "type": "uint256"
            },
            {
              "internalType": "uint256",
              "name": "uses",
              "type": "uint256"
            },
            {
              "internalType": "uint256",
              "name": "maxUses",
              "type": "uint256"
            },
            {
              "internalType": "uint256",
              "name": "lastUpdatedAt",
              "type": "uint256"
            },
            {
              "internalType": "enum IGame_Items_Merchant.OfferType",
              "name": "offerType",
              "type": "uint8"
            },
            {
              "internalType": "contract IERC1155_Game_Items_Collection",
              "name": "itemsCollection",
              "type": "address"
            },
            {
              "internalType": "contract IERC20",
              "name": "currency",
              "type": "address"
            }
          ],
          "internalType": "struct IGame_Items_Merchant.Offer[]",
          "name": "",
          "type": "tuple[]"
        }
      ],
      "stateMutability": "view",
      "type": "function"
    },
    {
      "inputs": [
        {
          "internalType": "bytes32",
          "name": "role",
          "type": "bytes32"
        }
      ],
      "name": "getRoleAdmin",
      "outputs": [
        {
          "internalType": "bytes32",
          "name": "",
          "type": "bytes32"
        }
      ],
      "stateMutability": "view",
      "type": "function"
    },
    {
      "inputs": [
        {
          "internalType": "bytes32",
          "name": "role",
          "type": "bytes32"
        },
        {
          "internalType": "address",
          "name": "account",
          "type": "address"
        }
      ],
      "name": "grantRole",
      "outputs": [],
      "stateMutability": "nonpayable",
      "type": "function"
    },
    {
      "inputs": [
        {
          "internalType": "bytes32",
          "name": "role",
          "type": "bytes32"
        },
        {
          "internalType": "address",
          "name": "account",
          "type": "address"
        }
      ],
      "name": "hasRole",
      "outputs": [
        {
          "internalType": "bool",
          "name": "",
          "type": "bool"
        }
      ],
      "stateMutability": "view",
      "type": "function"
    },
    {
      "inputs": [
        {
          "internalType": "address",
          "name": "forwarder",
          "type": "address"
        }
      ],
      "name": "isTrustedForwarder",
      "outputs": [
        {
          "internalType": "bool",
          "name": "",
          "type": "bool"
        }
      ],
      "stateMutability": "view",
      "type": "function"
    },
    {
      "inputs": [
        {
          "internalType": "uint256",
          "name": "_offerId",
          "type": "uint256"
        }
      ],
      "name": "offer",
      "outputs": [
        {
          "components": [
            {
              "internalType": "uint256",
              "name": "id",
              "type": "uint256"
            },
            {
              "internalType": "uint256[]",
              "name": "itemIds",
              "type": "uint256[]"
            },
            {
              "internalType": "uint256[]",
              "name": "itemAmounts",
              "type": "uint256[]"
            },
            {
              "internalType": "uint256",
              "name": "currencyAmount",
              "type": "uint256"
            },
            {
              "internalType": "uint256",
              "name": "uses",
              "type": "uint256"
            },
            {
              "internalType": "uint256",
              "name": "maxUses",
              "type": "uint256"
            },
            {
              "internalType": "uint256",
              "name": "lastUpdatedAt",
              "type": "uint256"
            },
            {
              "internalType": "enum IGame_Items_Merchant.OfferType",
              "name": "offerType",
              "type": "uint8"
            },
            {
              "internalType": "contract IERC1155_Game_Items_Collection",
              "name": "itemsCollection",
              "type": "address"
            },
            {
              "internalType": "contract IERC20",
              "name": "currency",
              "type": "address"
            }
          ],
          "internalType": "struct IGame_Items_Merchant.Offer",
          "name": "",
          "type": "tuple"
        }
      ],
      "stateMutability": "view",
      "type": "function"
    },
    {
      "inputs": [
        {
          "internalType": "uint256",
          "name": "_index",
          "type": "uint256"
        }
      ],
      "name": "offerId",
      "outputs": [
        {
          "internalType": "uint256",
          "name": "",
          "type": "uint256"
        }
      ],
      "stateMutability": "view",
      "type": "function"
    },
    {
      "inputs": [
        {
          "internalType": "uint256",
          "name": "_offerId",
          "type": "uint256"
        }
      ],
      "name": "offerLastUpdate",
      "outputs": [
        {
          "internalType": "uint256[]",
          "name": "",
          "type": "uint256[]"
        }
      ],
      "stateMutability": "view",
      "type": "function"
    },
    {
      "inputs": [
        {
          "internalType": "address",
          "name": "",
          "type": "address"
        },
        {
          "internalType": "address",
          "name": "",
          "type": "address"
        },
        {
          "internalType": "uint256[]",
          "name": "",
          "type": "uint256[]"
        },
        {
          "internalType": "uint256[]",
          "name": "",
          "type": "uint256[]"
        },
        {
          "internalType": "bytes",
          "name": "",
          "type": "bytes"
        }
      ],
      "name": "onERC1155BatchReceived",
      "outputs": [
        {
          "internalType": "bytes4",
          "name": "",
          "type": "bytes4"
        }
      ],
      "stateMutability": "nonpayable",
      "type": "function"
    },
    {
      "inputs": [
        {
          "internalType": "address",
          "name": "",
          "type": "address"
        },
        {
          "internalType": "address",
          "name": "",
          "type": "address"
        },
        {
          "internalType": "uint256",
          "name": "",
          "type": "uint256"
        },
        {
          "internalType": "uint256",
          "name": "",
          "type": "uint256"
        },
        {
          "internalType": "bytes",
          "name": "",
          "type": "bytes"
        }
      ],
      "name": "onERC1155Received",
      "outputs": [
        {
          "internalType": "bytes4",
          "name": "",
          "type": "bytes4"
        }
      ],
      "stateMutability": "nonpayable",
      "type": "function"
    },
    {
      "inputs": [
        {
          "internalType": "uint256",
          "name": "_startIndexInclusive",
          "type": "uint256"
        },
        {
          "internalType": "uint256",
          "name": "_limit",
          "type": "uint256"
        }
      ],
      "name": "paginateOfferIds",
      "outputs": [
        {
          "internalType": "uint256[]",
          "name": "",
          "type": "uint256[]"
        }
      ],
      "stateMutability": "view",
      "type": "function"
    },
    {
      "inputs": [
        {
          "internalType": "uint256",
          "name": "_startIndexInclusive",
          "type": "uint256"
        },
        {
          "internalType": "uint256",
          "name": "_limit",
          "type": "uint256"
        }
      ],
      "name": "paginateOfferLastUpdates",
      "outputs": [
        {
          "internalType": "uint256[][]",
          "name": "",
          "type": "uint256[][]"
        }
      ],
      "stateMutability": "view",
      "type": "function"
    },
    {
      "inputs": [
        {
          "internalType": "uint256",
          "name": "_startIndexInclusive",
          "type": "uint256"
        },
        {
          "internalType": "uint256",
          "name": "_limit",
          "type": "uint256"
        }
      ],
      "name": "paginateOffers",
      "outputs": [
        {
          "components": [
            {
              "internalType": "uint256",
              "name": "id",
              "type": "uint256"
            },
            {
              "internalType": "uint256[]",
              "name": "itemIds",
              "type": "uint256[]"
            },
            {
              "internalType": "uint256[]",
              "name": "itemAmounts",
              "type": "uint256[]"
            },
            {
              "internalType": "uint256",
              "name": "currencyAmount",
              "type": "uint256"
            },
            {
              "internalType": "uint256",
              "name": "uses",
              "type": "uint256"
            },
            {
              "internalType": "uint256",
              "name": "maxUses",
              "type": "uint256"
            },
            {
              "internalType": "uint256",
              "name": "lastUpdatedAt",
              "type": "uint256"
            },
            {
              "internalType": "enum IGame_Items_Merchant.OfferType",
              "name": "offerType",
              "type": "uint8"
            },
            {
              "internalType": "contract IERC1155_Game_Items_Collection",
              "name": "itemsCollection",
              "type": "address"
            },
            {
              "internalType": "contract IERC20",
              "name": "currency",
              "type": "address"
            }
          ],
          "internalType": "struct IGame_Items_Merchant.Offer[]",
          "name": "",
          "type": "tuple[]"
        }
      ],
      "stateMutability": "view",
      "type": "function"
    },
    {
      "inputs": [
        {
          "internalType": "uint256",
          "name": "_offerId",
          "type": "uint256"
        }
      ],
      "name": "removeOffer",
      "outputs": [],
      "stateMutability": "nonpayable",
      "type": "function"
    },
    {
      "inputs": [
        {
          "internalType": "bytes32",
          "name": "role",
          "type": "bytes32"
        },
        {
          "internalType": "address",
          "name": "account",
          "type": "address"
        }
      ],
      "name": "renounceRole",
      "outputs": [],
      "stateMutability": "nonpayable",
      "type": "function"
    },
    {
      "inputs": [
        {
          "internalType": "bytes32",
          "name": "role",
          "type": "bytes32"
        },
        {
          "internalType": "address",
          "name": "account",
          "type": "address"
        }
      ],
      "name": "revokeRole",
      "outputs": [],
      "stateMutability": "nonpayable",
      "type": "function"
    },
    {
      "inputs": [
        {
          "internalType": "uint256",
          "name": "_offerId",
          "type": "uint256"
        },
        {
          "internalType": "enum IGame_Items_Merchant.OfferType",
          "name": "_type",
          "type": "uint8"
        },
        {
          "internalType": "address",
          "name": "_itemsCollectionAddress",
          "type": "address"
        },
        {
          "internalType": "uint256[]",
          "name": "_itemIds",
          "type": "uint256[]"
        },
        {
          "internalType": "uint256[]",
          "name": "_itemAmounts",
          "type": "uint256[]"
        },
        {
          "internalType": "address",
          "name": "_currencyAddress",
          "type": "address"
        },
        {
          "internalType": "uint256",
          "name": "_currencyAmount",
          "type": "uint256"
        },
        {
          "internalType": "uint256",
          "name": "_maxUses",
          "type": "uint256"
        }
      ],
      "name": "setOffer",
      "outputs": [],
      "stateMutability": "nonpayable",
      "type": "function"
    },
    {
      "inputs": [
        {
          "internalType": "bytes4",
          "name": "interfaceId",
          "type": "bytes4"
        }
      ],
      "name": "supportsInterface",
      "outputs": [
        {
          "internalType": "bool",
          "name": "",
          "type": "bool"
        }
      ],
      "stateMutability": "view",
      "type": "function"
    },
    {
      "inputs": [],
      "name": "totalOffers",
      "outputs": [
        {
          "internalType": "uint256",
          "name": "",
          "type": "uint256"
        }
      ],
      "stateMutability": "view",
      "type": "function"
    },
    {
      "inputs": [
        {
          "internalType": "address",
          "name": "_newTrustedForwarder",
          "type": "address"
        }
      ],
      "name": "upgradeTrustedForwarder",
      "outputs": [],
      "stateMutability": "nonpayable",
      "type": "function"
    },
    {
      "inputs": [
        {
          "internalType": "uint256",
          "name": "_offerId",
          "type": "uint256"
        }
      ],
      "name": "useOffer",
      "outputs": [],
      "stateMutability": "payable",
      "type": "function"
    },
    {
      "inputs": [
        {
          "internalType": "address",
          "name": "_currencyAddress",
          "type": "address"
        },
        {
          "internalType": "address",
          "name": "_to",
          "type": "address"
        }
      ],
      "name": "withdrawCurrencyTo",
      "outputs": [],
      "stateMutability": "nonpayable",
      "type": "function"
    },
    {
      "inputs": [
        {
          "internalType": "address",
          "name": "_itemsCollectionAddress",
          "type": "address"
        },
        {
          "internalType": "uint256[]",
          "name": "_itemIds",
          "type": "uint256[]"
        },
        {
          "internalType": "address",
          "name": "_to",
          "type": "address"
        }
      ],
      "name": "withdrawItemsTo",
      "outputs": [],
      "stateMutability": "nonpayable",
      "type": "function"
    },
    {
      "inputs": [
        {
          "internalType": "address",
          "name": "_to",
          "type": "address"
        }
      ],
      "name": "withdrawTo",
      "outputs": [],
      "stateMutability": "nonpayable",
      "type": "function"
    },
    {
      "stateMutability": "payable",
      "type": "receive"
    }
  ],
  "bytecode": "0x60806040523480156200001157600080fd5b5060405162003cac38038062003cac8339810160408190526200003491620001ac565b600080546001600160a01b0319166001600160a01b03831617815560016002556200006990620000636200009f565b620000bb565b620000987fc9fc9949603a50f5cc3a96f774f1d68287789a241d2082dc81d0fb19a53bcf2b620000636200009f565b50620001de565b6000620000b6620000cb60201b620023e91760201c565b905090565b620000c7828262000101565b5050565b600080546001600160a01b03163303620000ec575060131936013560601c90565b620000b6620001a860201b620024391760201c565b60008281526001602090815260408083206001600160a01b038516845290915290205460ff16620000c75760008281526001602081815260408084206001600160a01b0386168552909152909120805460ff19169091179055620001646200009f565b6001600160a01b0316816001600160a01b0316837f2f8788117e7eff1d82e926ec794901d17c78024a50270940304540a733656f0d60405160405180910390a45050565b3390565b600060208284031215620001bf57600080fd5b81516001600160a01b0381168114620001d757600080fd5b9392505050565b613abe80620001ee6000396000f3fe6080604052600436106101b05760003560e01c8063761610fc116100ec578063a217fddf1161008a578063bc197c8111610064578063bc197c8114610511578063cdf1917414610587578063d547741f146105a7578063f23a6e61146105c757600080fd5b8063a217fddf146104c7578063a9fd8ed1146104dc578063aa2a7eea146104f157600080fd5b806389fe7c3b116100c657806389fe7c3b146104145780638b8395021461043457806391d148541461045457806395a0f9c7146104a757600080fd5b8063761610fc146103a75780637f413af2146103d457806382335ab0146103f457600080fd5b8063500ceb4811610159578063635ab98111610133578063635ab98114610325578063687c08dd1461034557806372b0d90c1461036757806374d333531461038757600080fd5b8063500ceb48146102b257806351a30c65146102c7578063572b6c05146102e957600080fd5b80632f2ff15d1161018a5780632f2ff15d1461025d57806336568abe1461027f57806349fe03671461029f57600080fd5b806301ffc9a7146101bc5780631675187c146101f1578063248a9ca31461021e57600080fd5b366101b757005b600080fd5b3480156101c857600080fd5b506101dc6101d7366004612de1565b61060c565b60405190151581526020015b60405180910390f35b3480156101fd57600080fd5b5061021161020c366004612e23565b6106b4565b6040516101e89190612e77565b34801561022a57600080fd5b5061024f610239366004612e23565b6000908152600160208190526040909120015490565b6040519081526020016101e8565b34801561026957600080fd5b5061027d610278366004612eb3565b610734565b005b34801561028b57600080fd5b5061027d61029a366004612eb3565b61075f565b61027d6102ad366004612e23565b610834565b3480156102be57600080fd5b50610211610fe8565b3480156102d357600080fd5b506102dc610ff9565b6040516101e89190612edf565b3480156102f557600080fd5b506101dc610304366004612f5f565b60005473ffffffffffffffffffffffffffffffffffffffff91821691161490565b34801561033157600080fd5b5061027d610340366004612fc6565b6110a9565b34801561035157600080fd5b5061035a6115e0565b6040516101e891906131a7565b34801561037357600080fd5b5061027d610382366004612f5f565b6117f6565b34801561039357600080fd5b5061024f6103a2366004612e23565b611862565b3480156103b357600080fd5b506103c76103c2366004612e23565b6118e1565b6040516101e8919061321a565b3480156103e057600080fd5b5061027d6103ef36600461322d565b611ae3565b34801561040057600080fd5b5061035a61040f366004613292565b611cee565b34801561042057600080fd5b506102dc61042f366004613292565b611f4e565b34801561044057600080fd5b5061027d61044f3660046132b4565b612030565b34801561046057600080fd5b506101dc61046f366004612eb3565b600091825260016020908152604080842073ffffffffffffffffffffffffffffffffffffffff93909316845291905290205460ff1690565b3480156104b357600080fd5b5061027d6104c2366004612e23565b61218f565b3480156104d357600080fd5b5061024f600081565b3480156104e857600080fd5b5061024f612275565b3480156104fd57600080fd5b5061027d61050c366004612f5f565b612281565b34801561051d57600080fd5b5061055661052c36600461346a565b7fbc197c810000000000000000000000000000000000000000000000000000000095945050505050565b6040517fffffffff0000000000000000000000000000000000000000000000000000000090911681526020016101e8565b34801561059357600080fd5b506102116105a2366004613292565b6122ef565b3480156105b357600080fd5b5061027d6105c2366004612eb3565b6123c3565b3480156105d357600080fd5b506105566105e2366004613514565b7ff23a6e610000000000000000000000000000000000000000000000000000000095945050505050565b60007fffffffff0000000000000000000000000000000000000000000000000000000082167f2bd4d8d000000000000000000000000000000000000000000000000000000000148061069f57507fffffffff0000000000000000000000000000000000000000000000000000000082167f4e2312e000000000000000000000000000000000000000000000000000000000145b806106ae57506106ae8261243d565b92915050565b6040805160028082526060808301845292600092919060208301908036833701905050905082816000815181106106ed576106ed613579565b60200260200101818152505060056000848152602001908152602001600020600601548160018151811061072357610723613579565b602090810291909101015292915050565b6000828152600160208190526040909120015461075081612493565b61075a83836124a7565b505050565b61076761259d565b73ffffffffffffffffffffffffffffffffffffffff168173ffffffffffffffffffffffffffffffffffffffff1614610826576040517f08c379a000000000000000000000000000000000000000000000000000000000815260206004820152602f60248201527f416363657373436f6e74726f6c3a2063616e206f6e6c792072656e6f756e636560448201527f20726f6c657320666f722073656c66000000000000000000000000000000000060648201526084015b60405180910390fd5b61083082826125a7565b5050565b600280540361089f576040517f08c379a000000000000000000000000000000000000000000000000000000000815260206004820152601f60248201527f5265656e7472616e637947756172643a207265656e7472616e742063616c6c00604482015260640161081d565b600280556108ae60038261269a565b61093a576040517f08c379a000000000000000000000000000000000000000000000000000000000815260206004820152602b60248201527f6f66666572496420646f6573206e6f74206578697374206f722068617320626560448201527f656e2072656d6f7665642e000000000000000000000000000000000000000000606482015260840161081d565b6000818152600560208190526040909120908101541580610962575080600501548160040154105b6109c8576040517f08c379a000000000000000000000000000000000000000000000000000000000815260206004820152601b60248201527f4f66666572206861732072656163686564206d617820757365732e0000000000604482015260640161081d565b6001600782015460ff1660028111156109e3576109e361308b565b03610cc557600881015473ffffffffffffffffffffffffffffffffffffffff1615610ad557600881015473ffffffffffffffffffffffffffffffffffffffff166323b872dd610a3061259d565b60038401546040517fffffffff0000000000000000000000000000000000000000000000000000000060e085901b16815273ffffffffffffffffffffffffffffffffffffffff909216600483015230602483015260448201526064016020604051808303816000875af1158015610aab573d6000803e3d6000fd5b505050506040513d601f19601f82011682018060405250810190610acf91906135a8565b50610b43565b8060030154341015610b43576040517f08c379a000000000000000000000000000000000000000000000000000000000815260206004820152601660248201527f5061796d656e74206c657373207468616e20636f737400000000000000000000604482015260640161081d565b6007810154610b6c90610100900473ffffffffffffffffffffffffffffffffffffffff166126b5565b15610bfb576007810154610100900473ffffffffffffffffffffffffffffffffffffffff166308f427c7610b9e61259d565b83600101846002016040518463ffffffff1660e01b8152600401610bc4939291906135ff565b600060405180830381600087803b158015610bde57600080fd5b505af1158015610bf2573d6000803e3d6000fd5b50505050610c83565b6007810154610100900473ffffffffffffffffffffffffffffffffffffffff16632eb2c2d630610c2961259d565b84600101856002016040518563ffffffff1660e01b8152600401610c50949392919061364a565b600060405180830381600087803b158015610c6a57600080fd5b505af1158015610c7e573d6000803e3d6000fd5b505050505b817fdb66cdca507e41e2e41d98cc4501b32beb7674415c150ba797ff99f9f3f1138282610cae61259d565b604051610cbc92919061375d565b60405180910390a25b6002600782015460ff166002811115610ce057610ce061308b565b03610fc8576007810154610100900473ffffffffffffffffffffffffffffffffffffffff16632eb2c2d6610d1261259d565b3084600101856002016040518563ffffffff1660e01b8152600401610d3a949392919061364a565b600060405180830381600087803b158015610d5457600080fd5b505af1158015610d68573d6000803e3d6000fd5b50505050600881015473ffffffffffffffffffffffffffffffffffffffff1615610f33576008810154610db09073ffffffffffffffffffffffffffffffffffffffff166126b5565b15610e6c57600881015473ffffffffffffffffffffffffffffffffffffffff16806340c10f19610dde61259d565b60038501546040517fffffffff0000000000000000000000000000000000000000000000000000000060e085901b16815273ffffffffffffffffffffffffffffffffffffffff90921660048301526024820152604401600060405180830381600087803b158015610e4e57600080fd5b505af1158015610e62573d6000803e3d6000fd5b5050505050610f86565b600881015473ffffffffffffffffffffffffffffffffffffffff1663a9059cbb610e9461259d565b60038401546040517fffffffff0000000000000000000000000000000000000000000000000000000060e085901b16815273ffffffffffffffffffffffffffffffffffffffff909216600483015260248201526044016020604051808303816000875af1158015610f09573d6000803e3d6000fd5b505050506040513d601f19601f82011682018060405250810190610f2d91906135a8565b50610f86565b610f3b61259d565b73ffffffffffffffffffffffffffffffffffffffff166108fc82600301549081150290604051600060405180830381858888f19350505050158015610f84573d6000803e3d6000fd5b505b817fe1e2505164f4ff082658ee762fde1854dfc88e6d2c3e722c152773d86ada720882610fb161259d565b604051610fbf92919061375d565b60405180910390a25b600481018054906000610fda836137c4565b909155505060016002555050565b6060610ff4600361276e565b905090565b60606000611005612275565b67ffffffffffffffff81111561101d5761101d6132de565b60405190808252806020026020018201604052801561105057816020015b606081526020019060019003908161103b5790505b50905060005b61105e612275565b8110156110a35761107361020c60038361277b565b82828151811061108557611085613579565b6020026020010181905250808061109b906137c4565b915050611056565b50919050565b7fc9fc9949603a50f5cc3a96f774f1d68287789a241d2082dc81d0fb19a53bcf2b6110d381612493565b60018a60028111156110e7576110e761308b565b1480611104575060028a60028111156111025761110261308b565b145b61116a576040517f08c379a000000000000000000000000000000000000000000000000000000000815260206004820152601260248201527f496e76616c6964206f6666657220747970650000000000000000000000000000604482015260640161081d565b8685146111f9576040517f08c379a000000000000000000000000000000000000000000000000000000000815260206004820152602560248201527f6974656d49647320616e64206974656d416d6f756e74732073697a65206d697360448201527f6d61746368000000000000000000000000000000000000000000000000000000606482015260840161081d565b6040517f01ffc9a70000000000000000000000000000000000000000000000000000000081527f909aa65d00000000000000000000000000000000000000000000000000000000600482015273ffffffffffffffffffffffffffffffffffffffff8a16906301ffc9a790602401602060405180830381865afa158015611283573d6000803e3d6000fd5b505050506040513d601f19601f820116820180604052508101906112a791906135a8565b61130d576040517f08c379a000000000000000000000000000000000000000000000000000000000815260206004820152601660248201527f496e76616c6964206974656d7320636f6e747261637400000000000000000000604482015260640161081d565b60006040518061014001604052808d81526020018a8a808060200260200160405190810160405280939291908181526020018383602002808284376000920191909152505050908252506040805160208a810282810182019093528a82529283019290918b918b918291850190849080828437600092018290525093855250505060208083018890528f82526005905260409081902060040154908201526060810185905242608082015260a0018c60028111156113cd576113cd61308b565b815273ffffffffffffffffffffffffffffffffffffffff808d1660208301528716604090910152905061140160038d612787565b5060008c8152600560209081526040909120825181558183015180518493611430926001850192910190612d1d565b506040820151805161144c916002840191602090910190612d1d565b50606082015160038201556080820151600482015560a0820151600582015560c0820151600682015560e08201516007820180547fffffffffffffffffffffffffffffffffffffffffffffffffffffffffffffff001660018360028111156114b6576114b661308b565b0217905550610100828101516007830180547fffffffffffffffffffffff0000000000000000000000000000000000000000ff1673ffffffffffffffffffffffffffffffffffffffff9283169093029290921790915561012090920151600890910180547fffffffffffffffffffffffff0000000000000000000000000000000000000000169190921617905560018b60028111156115575761155761308b565b03611599578b7fe74c18d32d0a0910a01bfa54a7955a847a27cf9c5f9db2f31f98f84fe9c8ab7e8260405161158c919061321a565b60405180910390a26115d2565b8b7fd5c227a9cf24fde6e59528c78351d6ae3890e9f4e5afb6e030946347422271aa826040516115c9919061321a565b60405180910390a25b505050505050505050505050565b606060006115ec612275565b67ffffffffffffffff811115611604576116046132de565b60405190808252806020026020018201604052801561163d57816020015b61162a612d68565b8152602001906001900390816116225790505b50905060005b61164b612275565b8110156110a3576005600061166160038461277b565b81526020019081526020016000206040518061014001604052908160008201548152602001600182018054806020026020016040519081016040528092919081815260200182805480156116d457602002820191906000526020600020905b8154815260200190600101908083116116c0575b505050505081526020016002820180548060200260200160405190810160405280929190818152602001828054801561172c57602002820191906000526020600020905b815481526020019060010190808311611718575b505050918352505060038201546020820152600482015460408201526005820154606082015260068201546080820152600782015460a09091019060ff16600281111561177b5761177b61308b565b600281111561178c5761178c61308b565b8152600782015473ffffffffffffffffffffffffffffffffffffffff6101009091048116602083015260089092015490911660409091015282518390839081106117d8576117d8613579565b602002602001018190525080806117ee906137c4565b915050611643565b7fc9fc9949603a50f5cc3a96f774f1d68287789a241d2082dc81d0fb19a53bcf2b61182081612493565b60405173ffffffffffffffffffffffffffffffffffffffff8316904780156108fc02916000818181858888f1935050505015801561075a573d6000803e3d6000fd5b600061186e6003612793565b82106118d6576040517f08c379a000000000000000000000000000000000000000000000000000000000815260206004820152601360248201527f496e646578206f7574206f6620626f756e647300000000000000000000000000604482015260640161081d565b6106ae60038361277b565b6118e9612d68565b6118f460038361269a565b611980576040517f08c379a000000000000000000000000000000000000000000000000000000000815260206004820152602b60248201527f6f66666572496420646f6573206e6f74206578697374206f722068617320626560448201527f656e2072656d6f7665642e000000000000000000000000000000000000000000606482015260840161081d565b60008281526005602090815260409182902082516101408101845281548152600182018054855181860281018601909652808652919492938581019392908301828280156119ed57602002820191906000526020600020905b8154815260200190600101908083116119d9575b5050505050815260200160028201805480602002602001604051908101604052809291908181526020018280548015611a4557602002820191906000526020600020905b815481526020019060010190808311611a31575b505050918352505060038201546020820152600482015460408201526005820154606082015260068201546080820152600782015460a09091019060ff166002811115611a9457611a9461308b565b6002811115611aa557611aa561308b565b8152600782015473ffffffffffffffffffffffffffffffffffffffff6101009091048116602083015260089092015490911660409091015292915050565b7fc9fc9949603a50f5cc3a96f774f1d68287789a241d2082dc81d0fb19a53bcf2b611b0d81612493565b8460008467ffffffffffffffff811115611b2957611b296132de565b604051908082528060200260200182016040528015611b52578160200160208202803683370190505b50905060005b85811015611c58578273ffffffffffffffffffffffffffffffffffffffff1662fdd58e30898985818110611b8e57611b8e613579565b6040517fffffffff0000000000000000000000000000000000000000000000000000000060e087901b16815273ffffffffffffffffffffffffffffffffffffffff90941660048501526020029190910135602483015250604401602060405180830381865afa158015611c05573d6000803e3d6000fd5b505050506040513d601f19601f82011682018060405250810190611c2991906137fc565b828281518110611c3b57611c3b613579565b602090810291909101015280611c50816137c4565b915050611b58565b506040517f2eb2c2d600000000000000000000000000000000000000000000000000000000815273ffffffffffffffffffffffffffffffffffffffff831690632eb2c2d690611cb390309088908b908b908890600401613815565b600060405180830381600087803b158015611ccd57600080fd5b505af1158015611ce1573d6000803e3d6000fd5b5050505050505050505050565b60606000611cfc6003612793565b8410611d09576000611d1e565b83611d146003612793565b611d1e91906138b8565b9050600083821115611d305783611d32565b815b905060008167ffffffffffffffff811115611d4f57611d4f6132de565b604051908082528060200260200182016040528015611d8857816020015b611d75612d68565b815260200190600190039081611d6d5790505b50905060005b82811015611f445760056000611daf611da7848b6138cb565b60039061277b565b8152602001908152602001600020604051806101400160405290816000820154815260200160018201805480602002602001604051908101604052809291908181526020018280548015611e2257602002820191906000526020600020905b815481526020019060010190808311611e0e575b5050505050815260200160028201805480602002602001604051908101604052809291908181526020018280548015611e7a57602002820191906000526020600020905b815481526020019060010190808311611e66575b505050918352505060038201546020820152600482015460408201526005820154606082015260068201546080820152600782015460a09091019060ff166002811115611ec957611ec961308b565b6002811115611eda57611eda61308b565b8152600782015473ffffffffffffffffffffffffffffffffffffffff610100909104811660208301526008909201549091166040909101528251839083908110611f2657611f26613579565b60200260200101819052508080611f3c906137c4565b915050611d8e565b5095945050505050565b60606000611f5c6003612793565b8410611f69576000611f7e565b83611f746003612793565b611f7e91906138b8565b9050600083821115611f905783611f92565b815b905060008167ffffffffffffffff811115611faf57611faf6132de565b604051908082528060200260200182016040528015611fe257816020015b6060815260200190600190039081611fcd5790505b50905060005b82811015611f445761200061020c611da7838a6138cb565b82828151811061201257612012613579565b60200260200101819052508080612028906137c4565b915050611fe8565b7fc9fc9949603a50f5cc3a96f774f1d68287789a241d2082dc81d0fb19a53bcf2b61205a81612493565b6040517f70a08231000000000000000000000000000000000000000000000000000000008152306004820152839073ffffffffffffffffffffffffffffffffffffffff82169063a9059cbb90859083906370a0823190602401602060405180830381865afa1580156120d0573d6000803e3d6000fd5b505050506040513d601f19601f820116820180604052508101906120f491906137fc565b6040517fffffffff0000000000000000000000000000000000000000000000000000000060e085901b16815273ffffffffffffffffffffffffffffffffffffffff909216600483015260248201526044016020604051808303816000875af1158015612164573d6000803e3d6000fd5b505050506040513d601f19601f8201168201806040525081019061218891906135a8565b5050505050565b7fc9fc9949603a50f5cc3a96f774f1d68287789a241d2082dc81d0fb19a53bcf2b6121b981612493565b6121c460038361279d565b5060008281526005602052604090206001600782015460ff1660028111156121ee576121ee61308b565b0361223057827f3b83053a9ef7bc250a0828f9a3f8474a9a8e47d68f21d3a59d490c5204dea8ef8260405161222391906138de565b60405180910390a2612269565b827f977611306174d21e3610a6bc4727efdd3a46cf2392cd0da3d31e20a6e6a922818260405161226091906138de565b60405180910390a25b60006004909101555050565b6000610ff46003612793565b7fc9fc9949603a50f5cc3a96f774f1d68287789a241d2082dc81d0fb19a53bcf2b6122ab81612493565b600080547fffffffffffffffffffffffff00000000000000000000000000000000000000001673ffffffffffffffffffffffffffffffffffffffff84161790555050565b606060006122fd6003612793565b841061230a57600061231f565b836123156003612793565b61231f91906138b8565b90506000838211156123315783612333565b815b905060008167ffffffffffffffff811115612350576123506132de565b604051908082528060200260200182016040528015612379578160200160208202803683370190505b50905060005b82811015611f4457612394611da782896138cb565b8282815181106123a6576123a6613579565b6020908102919091010152806123bb816137c4565b91505061237f565b600082815260016020819052604090912001546123df81612493565b61075a83836125a7565b6000805473ffffffffffffffffffffffffffffffffffffffff16330361243457507fffffffffffffffffffffffffffffffffffffffffffffffffffffffffffffffec36013560601c90565b503390565b3390565b60007fffffffff0000000000000000000000000000000000000000000000000000000082167f4e2312e00000000000000000000000000000000000000000000000000000000014806106ae57506106ae826127a9565b6124a48161249f61259d565b612840565b50565b600082815260016020908152604080832073ffffffffffffffffffffffffffffffffffffffff8516845290915290205460ff1661083057600082815260016020818152604080842073ffffffffffffffffffffffffffffffffffffffff8616855290915290912080547fffffffffffffffffffffffffffffffffffffffffffffffffffffffffffffff0016909117905561253f61259d565b73ffffffffffffffffffffffffffffffffffffffff168173ffffffffffffffffffffffffffffffffffffffff16837f2f8788117e7eff1d82e926ec794901d17c78024a50270940304540a733656f0d60405160405180910390a45050565b6000610ff46123e9565b600082815260016020908152604080832073ffffffffffffffffffffffffffffffffffffffff8516845290915290205460ff161561083057600082815260016020908152604080832073ffffffffffffffffffffffffffffffffffffffff85168452909152902080547fffffffffffffffffffffffffffffffffffffffffffffffffffffffffffffff0016905561263c61259d565b73ffffffffffffffffffffffffffffffffffffffff168173ffffffffffffffffffffffffffffffffffffffff16837ff6391f5c32d9c69d2a47ea670b442974b53935d1edc7fd64eb21e047a839171b60405160405180910390a45050565b600081815260018301602052604081205415155b9392505050565b6040517f91d148540000000000000000000000000000000000000000000000000000000081527fc9eb32e43bf5ecbceacf00b32281dfc5d6d700a0db676ea26ccf938a385ac3f76004820152306024820152600090829073ffffffffffffffffffffffffffffffffffffffff8216906391d1485490604401602060405180830381865afa15801561274a573d6000803e3d6000fd5b505050506040513d601f19601f820116820180604052508101906126ae91906135a8565b606060006126ae83612912565b60006126ae838361296e565b60006126ae8383612998565b60006106ae825490565b60006126ae83836129e7565b60007fffffffff0000000000000000000000000000000000000000000000000000000082167f7965db0b0000000000000000000000000000000000000000000000000000000014806106ae57507f01ffc9a7000000000000000000000000000000000000000000000000000000007fffffffff000000000000000000000000000000000000000000000000000000008316146106ae565b600082815260016020908152604080832073ffffffffffffffffffffffffffffffffffffffff8516845290915290205460ff16610830576128988173ffffffffffffffffffffffffffffffffffffffff166014612ada565b6128a3836020612ada565b6040516020016128b4929190613915565b604080517fffffffffffffffffffffffffffffffffffffffffffffffffffffffffffffffe0818403018152908290527f08c379a000000000000000000000000000000000000000000000000000000000825261081d91600401613996565b60608160000180548060200260200160405190810160405280929190818152602001828054801561296257602002820191906000526020600020905b81548152602001906001019080831161294e575b50505050509050919050565b600082600001828154811061298557612985613579565b9060005260206000200154905092915050565b60008181526001830160205260408120546129df575081546001818101845560008481526020808220909301849055845484825282860190935260409020919091556106ae565b5060006106ae565b60008181526001830160205260408120548015612ad0576000612a0b6001836138b8565b8554909150600090612a1f906001906138b8565b9050818114612a84576000866000018281548110612a3f57612a3f613579565b9060005260206000200154905080876000018481548110612a6257612a62613579565b6000918252602080832090910192909255918252600188019052604090208390555b8554869080612a9557612a956139e7565b6001900381819060005260206000200160009055905585600101600086815260200190815260200160002060009055600193505050506106ae565b60009150506106ae565b60606000612ae9836002613a16565b612af49060026138cb565b67ffffffffffffffff811115612b0c57612b0c6132de565b6040519080825280601f01601f191660200182016040528015612b36576020820181803683370190505b5090507f300000000000000000000000000000000000000000000000000000000000000081600081518110612b6d57612b6d613579565b60200101907effffffffffffffffffffffffffffffffffffffffffffffffffffffffffffff1916908160001a9053507f780000000000000000000000000000000000000000000000000000000000000081600181518110612bd057612bd0613579565b60200101907effffffffffffffffffffffffffffffffffffffffffffffffffffffffffffff1916908160001a9053506000612c0c846002613a16565b612c179060016138cb565b90505b6001811115612cb4577f303132333435363738396162636465660000000000000000000000000000000085600f1660108110612c5857612c58613579565b1a60f81b828281518110612c6e57612c6e613579565b60200101907effffffffffffffffffffffffffffffffffffffffffffffffffffffffffffff1916908160001a90535060049490941c93612cad81613a53565b9050612c1a565b5083156126ae576040517f08c379a000000000000000000000000000000000000000000000000000000000815260206004820181905260248201527f537472696e67733a20686578206c656e67746820696e73756666696369656e74604482015260640161081d565b828054828255906000526020600020908101928215612d58579160200282015b82811115612d58578251825591602001919060010190612d3d565b50612d64929150612dcc565b5090565b6040518061014001604052806000815260200160608152602001606081526020016000815260200160008152602001600081526020016000815260200160006002811115612db857612db861308b565b815260006020820181905260409091015290565b5b80821115612d645760008155600101612dcd565b600060208284031215612df357600080fd5b81357fffffffff00000000000000000000000000000000000000000000000000000000811681146126ae57600080fd5b600060208284031215612e3557600080fd5b5035919050565b600081518084526020808501945080840160005b83811015612e6c57815187529582019590820190600101612e50565b509495945050505050565b6020815260006126ae6020830184612e3c565b803573ffffffffffffffffffffffffffffffffffffffff81168114612eae57600080fd5b919050565b60008060408385031215612ec657600080fd5b82359150612ed660208401612e8a565b90509250929050565b6000602080830181845280855180835260408601915060408160051b870101925083870160005b82811015612f52577fffffffffffffffffffffffffffffffffffffffffffffffffffffffffffffffc0888603018452612f40858351612e3c565b94509285019290850190600101612f06565b5092979650505050505050565b600060208284031215612f7157600080fd5b6126ae82612e8a565b60008083601f840112612f8c57600080fd5b50813567ffffffffffffffff811115612fa457600080fd5b6020830191508360208260051b8501011115612fbf57600080fd5b9250929050565b6000806000806000806000806000806101008b8d031215612fe657600080fd5b8a35995060208b013560038110612ffc57600080fd5b985061300a60408c01612e8a565b975060608b013567ffffffffffffffff8082111561302757600080fd5b6130338e838f01612f7a565b909950975060808d013591508082111561304c57600080fd5b506130598d828e01612f7a565b909650945061306c905060a08c01612e8a565b925060c08b0135915060e08b013590509295989b9194979a5092959850565b7f4e487b7100000000000000000000000000000000000000000000000000000000600052602160045260246000fd5b600381106130f1577f4e487b7100000000000000000000000000000000000000000000000000000000600052602160045260246000fd5b9052565b600061014082518452602083015181602086015261311582860182612e3c565b9150506040830151848203604086015261312f8282612e3c565b915050606083015160608501526080830151608085015260a083015160a085015260c083015160c085015260e083015161316c60e08601826130ba565b506101008381015173ffffffffffffffffffffffffffffffffffffffff90811691860191909152610120938401511692909301919091525090565b6000602080830181845280855180835260408601915060408160051b870101925083870160005b82811015612f52577fffffffffffffffffffffffffffffffffffffffffffffffffffffffffffffffc08886030184526132088583516130f5565b945092850192908501906001016131ce565b6020815260006126ae60208301846130f5565b6000806000806060858703121561324357600080fd5b61324c85612e8a565b9350602085013567ffffffffffffffff81111561326857600080fd5b61327487828801612f7a565b9094509250613287905060408601612e8a565b905092959194509250565b600080604083850312156132a557600080fd5b50508035926020909101359150565b600080604083850312156132c757600080fd5b6132d083612e8a565b9150612ed660208401612e8a565b7f4e487b7100000000000000000000000000000000000000000000000000000000600052604160045260246000fd5b604051601f82017fffffffffffffffffffffffffffffffffffffffffffffffffffffffffffffffe016810167ffffffffffffffff81118282101715613354576133546132de565b604052919050565b600082601f83011261336d57600080fd5b8135602067ffffffffffffffff821115613389576133896132de565b8160051b61339882820161330d565b92835284810182019282810190878511156133b257600080fd5b83870192505b848310156133d1578235825291830191908301906133b8565b979650505050505050565b600082601f8301126133ed57600080fd5b813567ffffffffffffffff811115613407576134076132de565b61343860207fffffffffffffffffffffffffffffffffffffffffffffffffffffffffffffffe0601f8401160161330d565b81815284602083860101111561344d57600080fd5b816020850160208301376000918101602001919091529392505050565b600080600080600060a0868803121561348257600080fd5b61348b86612e8a565b945061349960208701612e8a565b9350604086013567ffffffffffffffff808211156134b657600080fd5b6134c289838a0161335c565b945060608801359150808211156134d857600080fd5b6134e489838a0161335c565b935060808801359150808211156134fa57600080fd5b50613507888289016133dc565b9150509295509295909350565b600080600080600060a0868803121561352c57600080fd5b61353586612e8a565b945061354360208701612e8a565b93506040860135925060608601359150608086013567ffffffffffffffff81111561356d57600080fd5b613507888289016133dc565b7f4e487b7100000000000000000000000000000000000000000000000000000000600052603260045260246000fd5b6000602082840312156135ba57600080fd5b815180151581146126ae57600080fd5b6000815480845260208085019450836000528060002060005b83811015612e6c578154875295820195600191820191016135e3565b73ffffffffffffffffffffffffffffffffffffffff8416815260606020820152600061362e60608301856135ca565b828103604084015261364081856135ca565b9695505050505050565b600073ffffffffffffffffffffffffffffffffffffffff808716835280861660208401525060a0604083015261368360a08301856135ca565b828103606084015261369581856135ca565b838103608090940193909352505060008152602001949350505050565b6000610140825484528060208501526136d0818501600185016135ca565b905083810360408501526136e781600285016135ca565b90506003830154606085015260048301546080850152600583015460a0850152600683015460c0850152600783015461372660e0860160ff83166130ba565b73ffffffffffffffffffffffffffffffffffffffff600891821c811661010087015293015490921661012090930192909252919050565b60408152600061377060408301856136b2565b905073ffffffffffffffffffffffffffffffffffffffff831660208301529392505050565b7f4e487b7100000000000000000000000000000000000000000000000000000000600052601160045260246000fd5b60007fffffffffffffffffffffffffffffffffffffffffffffffffffffffffffffffff82036137f5576137f5613795565b5060010190565b60006020828403121561380e57600080fd5b5051919050565b600073ffffffffffffffffffffffffffffffffffffffff808816835280871660208401525060a060408301528360a08301527f07ffffffffffffffffffffffffffffffffffffffffffffffffffffffffffffff84111561387457600080fd5b8360051b808660c0850137820182810360c0908101606085015261389a90820185612e3c565b83810360809094019390935250506000815260200195945050505050565b818103818111156106ae576106ae613795565b808201808211156106ae576106ae613795565b6020815260006126ae60208301846136b2565b60005b8381101561390c5781810151838201526020016138f4565b50506000910152565b7f416363657373436f6e74726f6c3a206163636f756e742000000000000000000081526000835161394d8160178501602088016138f1565b7f206973206d697373696e6720726f6c6520000000000000000000000000000000601791840191820152835161398a8160288401602088016138f1565b01602801949350505050565b60208152600082518060208401526139b58160408501602087016138f1565b601f017fffffffffffffffffffffffffffffffffffffffffffffffffffffffffffffffe0169190910160400192915050565b7f4e487b7100000000000000000000000000000000000000000000000000000000600052603160045260246000fd5b6000817fffffffffffffffffffffffffffffffffffffffffffffffffffffffffffffffff0483118215151615613a4e57613a4e613795565b500290565b600081613a6257613a62613795565b507fffffffffffffffffffffffffffffffffffffffffffffffffffffffffffffffff019056fea26469706673582212200993290d734059148f793c71c3e588564fd5cbf77efcabb885fa5dc7042ee12764736f6c63430008100033",
  "linkReferences": {},
  "deployedLinkReferences": {}
}