{
  "_format": "hh-sol-artifact-1",
  "contractName": "Game_Items_Merchant",
  "sourceName": "contracts/Items_Merchant/Game_Items_Merchant.sol",
  "abi": [
    {
      "inputs": [
        {
          "internalType": "address",
          "name": "_forwarder",
          "type": "address"
        }
      ],
      "stateMutability": "nonpayable",
      "type": "constructor"
    },
    {
      "anonymous": false,
      "inputs": [
        {
          "indexed": true,
          "internalType": "uint256",
          "name": "offerId",
          "type": "uint256"
        },
        {
          "components": [
            {
              "internalType": "uint256",
              "name": "id",
              "type": "uint256"
            },
            {
              "internalType": "uint256[]",
              "name": "itemIds",
              "type": "uint256[]"
            },
            {
              "internalType": "uint256[]",
              "name": "itemAmounts",
              "type": "uint256[]"
            },
            {
              "internalType": "uint256",
              "name": "currencyAmount",
              "type": "uint256"
            },
            {
              "internalType": "uint256",
              "name": "uses",
              "type": "uint256"
            },
            {
              "internalType": "uint256",
              "name": "maxUses",
              "type": "uint256"
            },
            {
              "internalType": "uint256",
              "name": "lastUpdatedAt",
              "type": "uint256"
            },
            {
              "internalType": "enum IGame_Items_Merchant.OfferType",
              "name": "offerType",
              "type": "uint8"
            },
            {
              "internalType": "contract IERC1155_Game_Items_Collection",
              "name": "itemsCollection",
              "type": "address"
            },
            {
              "internalType": "contract IERC20",
              "name": "currency",
              "type": "address"
            }
          ],
          "indexed": false,
          "internalType": "struct IGame_Items_Merchant.Offer",
          "name": "offer",
          "type": "tuple"
        },
        {
          "indexed": false,
          "internalType": "address",
          "name": "buyer",
          "type": "address"
        }
      ],
      "name": "Buy",
      "type": "event"
    },
    {
      "anonymous": false,
      "inputs": [
        {
          "indexed": true,
          "internalType": "uint256",
          "name": "offerId",
          "type": "uint256"
        },
        {
          "components": [
            {
              "internalType": "uint256",
              "name": "id",
              "type": "uint256"
            },
            {
              "internalType": "uint256[]",
              "name": "itemIds",
              "type": "uint256[]"
            },
            {
              "internalType": "uint256[]",
              "name": "itemAmounts",
              "type": "uint256[]"
            },
            {
              "internalType": "uint256",
              "name": "currencyAmount",
              "type": "uint256"
            },
            {
              "internalType": "uint256",
              "name": "uses",
              "type": "uint256"
            },
            {
              "internalType": "uint256",
              "name": "maxUses",
              "type": "uint256"
            },
            {
              "internalType": "uint256",
              "name": "lastUpdatedAt",
              "type": "uint256"
            },
            {
              "internalType": "enum IGame_Items_Merchant.OfferType",
              "name": "offerType",
              "type": "uint8"
            },
            {
              "internalType": "contract IERC1155_Game_Items_Collection",
              "name": "itemsCollection",
              "type": "address"
            },
            {
              "internalType": "contract IERC20",
              "name": "currency",
              "type": "address"
            }
          ],
          "indexed": false,
          "internalType": "struct IGame_Items_Merchant.Offer",
          "name": "offer",
          "type": "tuple"
        }
      ],
      "name": "BuyOfferRemoved",
      "type": "event"
    },
    {
      "anonymous": false,
      "inputs": [
        {
          "indexed": true,
          "internalType": "uint256",
          "name": "offerId",
          "type": "uint256"
        },
        {
          "components": [
            {
              "internalType": "uint256",
              "name": "id",
              "type": "uint256"
            },
            {
              "internalType": "uint256[]",
              "name": "itemIds",
              "type": "uint256[]"
            },
            {
              "internalType": "uint256[]",
              "name": "itemAmounts",
              "type": "uint256[]"
            },
            {
              "internalType": "uint256",
              "name": "currencyAmount",
              "type": "uint256"
            },
            {
              "internalType": "uint256",
              "name": "uses",
              "type": "uint256"
            },
            {
              "internalType": "uint256",
              "name": "maxUses",
              "type": "uint256"
            },
            {
              "internalType": "uint256",
              "name": "lastUpdatedAt",
              "type": "uint256"
            },
            {
              "internalType": "enum IGame_Items_Merchant.OfferType",
              "name": "offerType",
              "type": "uint8"
            },
            {
              "internalType": "contract IERC1155_Game_Items_Collection",
              "name": "itemsCollection",
              "type": "address"
            },
            {
              "internalType": "contract IERC20",
              "name": "currency",
              "type": "address"
            }
          ],
          "indexed": false,
          "internalType": "struct IGame_Items_Merchant.Offer",
          "name": "offer",
          "type": "tuple"
        }
      ],
      "name": "BuyOfferSet",
      "type": "event"
    },
    {
      "anonymous": false,
      "inputs": [
        {
          "indexed": true,
          "internalType": "bytes32",
          "name": "role",
          "type": "bytes32"
        },
        {
          "indexed": true,
          "internalType": "bytes32",
          "name": "previousAdminRole",
          "type": "bytes32"
        },
        {
          "indexed": true,
          "internalType": "bytes32",
          "name": "newAdminRole",
          "type": "bytes32"
        }
      ],
      "name": "RoleAdminChanged",
      "type": "event"
    },
    {
      "anonymous": false,
      "inputs": [
        {
          "indexed": true,
          "internalType": "bytes32",
          "name": "role",
          "type": "bytes32"
        },
        {
          "indexed": true,
          "internalType": "address",
          "name": "account",
          "type": "address"
        },
        {
          "indexed": true,
          "internalType": "address",
          "name": "sender",
          "type": "address"
        }
      ],
      "name": "RoleGranted",
      "type": "event"
    },
    {
      "anonymous": false,
      "inputs": [
        {
          "indexed": true,
          "internalType": "bytes32",
          "name": "role",
          "type": "bytes32"
        },
        {
          "indexed": true,
          "internalType": "address",
          "name": "account",
          "type": "address"
        },
        {
          "indexed": true,
          "internalType": "address",
          "name": "sender",
          "type": "address"
        }
      ],
      "name": "RoleRevoked",
      "type": "event"
    },
    {
      "anonymous": false,
      "inputs": [
        {
          "indexed": true,
          "internalType": "uint256",
          "name": "offerId",
          "type": "uint256"
        },
        {
          "components": [
            {
              "internalType": "uint256",
              "name": "id",
              "type": "uint256"
            },
            {
              "internalType": "uint256[]",
              "name": "itemIds",
              "type": "uint256[]"
            },
            {
              "internalType": "uint256[]",
              "name": "itemAmounts",
              "type": "uint256[]"
            },
            {
              "internalType": "uint256",
              "name": "currencyAmount",
              "type": "uint256"
            },
            {
              "internalType": "uint256",
              "name": "uses",
              "type": "uint256"
            },
            {
              "internalType": "uint256",
              "name": "maxUses",
              "type": "uint256"
            },
            {
              "internalType": "uint256",
              "name": "lastUpdatedAt",
              "type": "uint256"
            },
            {
              "internalType": "enum IGame_Items_Merchant.OfferType",
              "name": "offerType",
              "type": "uint8"
            },
            {
              "internalType": "contract IERC1155_Game_Items_Collection",
              "name": "itemsCollection",
              "type": "address"
            },
            {
              "internalType": "contract IERC20",
              "name": "currency",
              "type": "address"
            }
          ],
          "indexed": false,
          "internalType": "struct IGame_Items_Merchant.Offer",
          "name": "offer",
          "type": "tuple"
        },
        {
          "indexed": false,
          "internalType": "address",
          "name": "seller",
          "type": "address"
        }
      ],
      "name": "Sell",
      "type": "event"
    },
    {
      "anonymous": false,
      "inputs": [
        {
          "indexed": true,
          "internalType": "uint256",
          "name": "offerId",
          "type": "uint256"
        },
        {
          "components": [
            {
              "internalType": "uint256",
              "name": "id",
              "type": "uint256"
            },
            {
              "internalType": "uint256[]",
              "name": "itemIds",
              "type": "uint256[]"
            },
            {
              "internalType": "uint256[]",
              "name": "itemAmounts",
              "type": "uint256[]"
            },
            {
              "internalType": "uint256",
              "name": "currencyAmount",
              "type": "uint256"
            },
            {
              "internalType": "uint256",
              "name": "uses",
              "type": "uint256"
            },
            {
              "internalType": "uint256",
              "name": "maxUses",
              "type": "uint256"
            },
            {
              "internalType": "uint256",
              "name": "lastUpdatedAt",
              "type": "uint256"
            },
            {
              "internalType": "enum IGame_Items_Merchant.OfferType",
              "name": "offerType",
              "type": "uint8"
            },
            {
              "internalType": "contract IERC1155_Game_Items_Collection",
              "name": "itemsCollection",
              "type": "address"
            },
            {
              "internalType": "contract IERC20",
              "name": "currency",
              "type": "address"
            }
          ],
          "indexed": false,
          "internalType": "struct IGame_Items_Merchant.Offer",
          "name": "offer",
          "type": "tuple"
        }
      ],
      "name": "SellOfferRemoved",
      "type": "event"
    },
    {
      "anonymous": false,
      "inputs": [
        {
          "indexed": true,
          "internalType": "uint256",
          "name": "offerId",
          "type": "uint256"
        },
        {
          "components": [
            {
              "internalType": "uint256",
              "name": "id",
              "type": "uint256"
            },
            {
              "internalType": "uint256[]",
              "name": "itemIds",
              "type": "uint256[]"
            },
            {
              "internalType": "uint256[]",
              "name": "itemAmounts",
              "type": "uint256[]"
            },
            {
              "internalType": "uint256",
              "name": "currencyAmount",
              "type": "uint256"
            },
            {
              "internalType": "uint256",
              "name": "uses",
              "type": "uint256"
            },
            {
              "internalType": "uint256",
              "name": "maxUses",
              "type": "uint256"
            },
            {
              "internalType": "uint256",
              "name": "lastUpdatedAt",
              "type": "uint256"
            },
            {
              "internalType": "enum IGame_Items_Merchant.OfferType",
              "name": "offerType",
              "type": "uint8"
            },
            {
              "internalType": "contract IERC1155_Game_Items_Collection",
              "name": "itemsCollection",
              "type": "address"
            },
            {
              "internalType": "contract IERC20",
              "name": "currency",
              "type": "address"
            }
          ],
          "indexed": false,
          "internalType": "struct IGame_Items_Merchant.Offer",
          "name": "offer",
          "type": "tuple"
        }
      ],
      "name": "SellOfferSet",
      "type": "event"
    },
    {
      "inputs": [],
      "name": "DEFAULT_ADMIN_ROLE",
      "outputs": [
        {
          "internalType": "bytes32",
          "name": "",
          "type": "bytes32"
        }
      ],
      "stateMutability": "view",
      "type": "function"
    },
    {
      "inputs": [],
      "name": "allOfferIds",
      "outputs": [
        {
          "internalType": "uint256[]",
          "name": "",
          "type": "uint256[]"
        }
      ],
      "stateMutability": "view",
      "type": "function"
    },
    {
      "inputs": [],
      "name": "allOfferLastUpdates",
      "outputs": [
        {
          "internalType": "uint256[][]",
          "name": "",
          "type": "uint256[][]"
        }
      ],
      "stateMutability": "view",
      "type": "function"
    },
    {
      "inputs": [],
      "name": "allOffers",
      "outputs": [
        {
          "components": [
            {
              "internalType": "uint256",
              "name": "id",
              "type": "uint256"
            },
            {
              "internalType": "uint256[]",
              "name": "itemIds",
              "type": "uint256[]"
            },
            {
              "internalType": "uint256[]",
              "name": "itemAmounts",
              "type": "uint256[]"
            },
            {
              "internalType": "uint256",
              "name": "currencyAmount",
              "type": "uint256"
            },
            {
              "internalType": "uint256",
              "name": "uses",
              "type": "uint256"
            },
            {
              "internalType": "uint256",
              "name": "maxUses",
              "type": "uint256"
            },
            {
              "internalType": "uint256",
              "name": "lastUpdatedAt",
              "type": "uint256"
            },
            {
              "internalType": "enum IGame_Items_Merchant.OfferType",
              "name": "offerType",
              "type": "uint8"
            },
            {
              "internalType": "contract IERC1155_Game_Items_Collection",
              "name": "itemsCollection",
              "type": "address"
            },
            {
              "internalType": "contract IERC20",
              "name": "currency",
              "type": "address"
            }
          ],
          "internalType": "struct IGame_Items_Merchant.Offer[]",
          "name": "",
          "type": "tuple[]"
        }
      ],
      "stateMutability": "view",
      "type": "function"
    },
    {
      "inputs": [
        {
          "internalType": "bytes32",
          "name": "role",
          "type": "bytes32"
        }
      ],
      "name": "getRoleAdmin",
      "outputs": [
        {
          "internalType": "bytes32",
          "name": "",
          "type": "bytes32"
        }
      ],
      "stateMutability": "view",
      "type": "function"
    },
    {
      "inputs": [
        {
          "internalType": "bytes32",
          "name": "role",
          "type": "bytes32"
        },
        {
          "internalType": "address",
          "name": "account",
          "type": "address"
        }
      ],
      "name": "grantRole",
      "outputs": [],
      "stateMutability": "nonpayable",
      "type": "function"
    },
    {
      "inputs": [
        {
          "internalType": "bytes32",
          "name": "role",
          "type": "bytes32"
        },
        {
          "internalType": "address",
          "name": "account",
          "type": "address"
        }
      ],
      "name": "hasRole",
      "outputs": [
        {
          "internalType": "bool",
          "name": "",
          "type": "bool"
        }
      ],
      "stateMutability": "view",
      "type": "function"
    },
    {
      "inputs": [
        {
          "internalType": "address",
          "name": "forwarder",
          "type": "address"
        }
      ],
      "name": "isTrustedForwarder",
      "outputs": [
        {
          "internalType": "bool",
          "name": "",
          "type": "bool"
        }
      ],
      "stateMutability": "view",
      "type": "function"
    },
    {
      "inputs": [
        {
          "internalType": "uint256",
          "name": "_offerId",
          "type": "uint256"
        }
      ],
      "name": "offer",
      "outputs": [
        {
          "components": [
            {
              "internalType": "uint256",
              "name": "id",
              "type": "uint256"
            },
            {
              "internalType": "uint256[]",
              "name": "itemIds",
              "type": "uint256[]"
            },
            {
              "internalType": "uint256[]",
              "name": "itemAmounts",
              "type": "uint256[]"
            },
            {
              "internalType": "uint256",
              "name": "currencyAmount",
              "type": "uint256"
            },
            {
              "internalType": "uint256",
              "name": "uses",
              "type": "uint256"
            },
            {
              "internalType": "uint256",
              "name": "maxUses",
              "type": "uint256"
            },
            {
              "internalType": "uint256",
              "name": "lastUpdatedAt",
              "type": "uint256"
            },
            {
              "internalType": "enum IGame_Items_Merchant.OfferType",
              "name": "offerType",
              "type": "uint8"
            },
            {
              "internalType": "contract IERC1155_Game_Items_Collection",
              "name": "itemsCollection",
              "type": "address"
            },
            {
              "internalType": "contract IERC20",
              "name": "currency",
              "type": "address"
            }
          ],
          "internalType": "struct IGame_Items_Merchant.Offer",
          "name": "",
          "type": "tuple"
        }
      ],
      "stateMutability": "view",
      "type": "function"
    },
    {
      "inputs": [
        {
          "internalType": "uint256",
          "name": "_index",
          "type": "uint256"
        }
      ],
      "name": "offerId",
      "outputs": [
        {
          "internalType": "uint256",
          "name": "",
          "type": "uint256"
        }
      ],
      "stateMutability": "view",
      "type": "function"
    },
    {
      "inputs": [
        {
          "internalType": "uint256",
          "name": "_offerId",
          "type": "uint256"
        }
      ],
      "name": "offerLastUpdate",
      "outputs": [
        {
          "internalType": "uint256[]",
          "name": "",
          "type": "uint256[]"
        }
      ],
      "stateMutability": "view",
      "type": "function"
    },
    {
      "inputs": [
        {
          "internalType": "address",
          "name": "",
          "type": "address"
        },
        {
          "internalType": "address",
          "name": "",
          "type": "address"
        },
        {
          "internalType": "uint256[]",
          "name": "",
          "type": "uint256[]"
        },
        {
          "internalType": "uint256[]",
          "name": "",
          "type": "uint256[]"
        },
        {
          "internalType": "bytes",
          "name": "",
          "type": "bytes"
        }
      ],
      "name": "onERC1155BatchReceived",
      "outputs": [
        {
          "internalType": "bytes4",
          "name": "",
          "type": "bytes4"
        }
      ],
      "stateMutability": "nonpayable",
      "type": "function"
    },
    {
      "inputs": [
        {
          "internalType": "address",
          "name": "",
          "type": "address"
        },
        {
          "internalType": "address",
          "name": "",
          "type": "address"
        },
        {
          "internalType": "uint256",
          "name": "",
          "type": "uint256"
        },
        {
          "internalType": "uint256",
          "name": "",
          "type": "uint256"
        },
        {
          "internalType": "bytes",
          "name": "",
          "type": "bytes"
        }
      ],
      "name": "onERC1155Received",
      "outputs": [
        {
          "internalType": "bytes4",
          "name": "",
          "type": "bytes4"
        }
      ],
      "stateMutability": "nonpayable",
      "type": "function"
    },
    {
      "inputs": [
        {
          "internalType": "uint256",
          "name": "_startIndexInclusive",
          "type": "uint256"
        },
        {
          "internalType": "uint256",
          "name": "_limit",
          "type": "uint256"
        }
      ],
      "name": "paginateOfferIds",
      "outputs": [
        {
          "internalType": "uint256[]",
          "name": "",
          "type": "uint256[]"
        }
      ],
      "stateMutability": "view",
      "type": "function"
    },
    {
      "inputs": [
        {
          "internalType": "uint256",
          "name": "_startIndexInclusive",
          "type": "uint256"
        },
        {
          "internalType": "uint256",
          "name": "_limit",
          "type": "uint256"
        }
      ],
      "name": "paginateOfferLastUpdates",
      "outputs": [
        {
          "internalType": "uint256[][]",
          "name": "",
          "type": "uint256[][]"
        }
      ],
      "stateMutability": "view",
      "type": "function"
    },
    {
      "inputs": [
        {
          "internalType": "uint256",
          "name": "_startIndexInclusive",
          "type": "uint256"
        },
        {
          "internalType": "uint256",
          "name": "_limit",
          "type": "uint256"
        }
      ],
      "name": "paginateOffers",
      "outputs": [
        {
          "components": [
            {
              "internalType": "uint256",
              "name": "id",
              "type": "uint256"
            },
            {
              "internalType": "uint256[]",
              "name": "itemIds",
              "type": "uint256[]"
            },
            {
              "internalType": "uint256[]",
              "name": "itemAmounts",
              "type": "uint256[]"
            },
            {
              "internalType": "uint256",
              "name": "currencyAmount",
              "type": "uint256"
            },
            {
              "internalType": "uint256",
              "name": "uses",
              "type": "uint256"
            },
            {
              "internalType": "uint256",
              "name": "maxUses",
              "type": "uint256"
            },
            {
              "internalType": "uint256",
              "name": "lastUpdatedAt",
              "type": "uint256"
            },
            {
              "internalType": "enum IGame_Items_Merchant.OfferType",
              "name": "offerType",
              "type": "uint8"
            },
            {
              "internalType": "contract IERC1155_Game_Items_Collection",
              "name": "itemsCollection",
              "type": "address"
            },
            {
              "internalType": "contract IERC20",
              "name": "currency",
              "type": "address"
            }
          ],
          "internalType": "struct IGame_Items_Merchant.Offer[]",
          "name": "",
          "type": "tuple[]"
        }
      ],
      "stateMutability": "view",
      "type": "function"
    },
    {
      "inputs": [
        {
          "internalType": "uint256",
          "name": "_offerId",
          "type": "uint256"
        }
      ],
      "name": "removeOffer",
      "outputs": [],
      "stateMutability": "nonpayable",
      "type": "function"
    },
    {
      "inputs": [
        {
          "internalType": "bytes32",
          "name": "role",
          "type": "bytes32"
        },
        {
          "internalType": "address",
          "name": "account",
          "type": "address"
        }
      ],
      "name": "renounceRole",
      "outputs": [],
      "stateMutability": "nonpayable",
      "type": "function"
    },
    {
      "inputs": [
        {
          "internalType": "bytes32",
          "name": "role",
          "type": "bytes32"
        },
        {
          "internalType": "address",
          "name": "account",
          "type": "address"
        }
      ],
      "name": "revokeRole",
      "outputs": [],
      "stateMutability": "nonpayable",
      "type": "function"
    },
    {
      "inputs": [
        {
          "internalType": "uint256",
          "name": "_offerId",
          "type": "uint256"
        },
        {
          "internalType": "enum IGame_Items_Merchant.OfferType",
          "name": "_type",
          "type": "uint8"
        },
        {
          "internalType": "address",
          "name": "_itemsCollectionAddress",
          "type": "address"
        },
        {
          "internalType": "uint256[]",
          "name": "_itemIds",
          "type": "uint256[]"
        },
        {
          "internalType": "uint256[]",
          "name": "_itemAmounts",
          "type": "uint256[]"
        },
        {
          "internalType": "address",
          "name": "_currencyAddress",
          "type": "address"
        },
        {
          "internalType": "uint256",
          "name": "_currencyAmount",
          "type": "uint256"
        },
        {
          "internalType": "uint256",
          "name": "_maxUses",
          "type": "uint256"
        }
      ],
      "name": "setOffer",
      "outputs": [],
      "stateMutability": "nonpayable",
      "type": "function"
    },
    {
      "inputs": [
        {
          "internalType": "bytes4",
          "name": "interfaceId",
          "type": "bytes4"
        }
      ],
      "name": "supportsInterface",
      "outputs": [
        {
          "internalType": "bool",
          "name": "",
          "type": "bool"
        }
      ],
      "stateMutability": "view",
      "type": "function"
    },
    {
      "inputs": [],
      "name": "totalOffers",
      "outputs": [
        {
          "internalType": "uint256",
          "name": "",
          "type": "uint256"
        }
      ],
      "stateMutability": "view",
      "type": "function"
    },
    {
      "inputs": [
        {
          "internalType": "address",
          "name": "_newTrustedForwarder",
          "type": "address"
        }
      ],
      "name": "upgradeTrustedForwarder",
      "outputs": [],
      "stateMutability": "nonpayable",
      "type": "function"
    },
    {
      "inputs": [
        {
          "internalType": "uint256",
          "name": "_offerId",
          "type": "uint256"
        }
      ],
      "name": "useOffer",
      "outputs": [],
      "stateMutability": "payable",
      "type": "function"
    },
    {
      "inputs": [
        {
          "internalType": "address",
          "name": "_currencyAddress",
          "type": "address"
        },
        {
          "internalType": "address",
          "name": "_to",
          "type": "address"
        }
      ],
      "name": "withdrawCurrencyTo",
      "outputs": [],
      "stateMutability": "nonpayable",
      "type": "function"
    },
    {
      "inputs": [
        {
          "internalType": "address",
          "name": "_itemsCollectionAddress",
          "type": "address"
        },
        {
          "internalType": "uint256[]",
          "name": "_itemIds",
          "type": "uint256[]"
        },
        {
          "internalType": "address",
          "name": "_to",
          "type": "address"
        }
      ],
      "name": "withdrawItemsTo",
      "outputs": [],
      "stateMutability": "nonpayable",
      "type": "function"
    },
    {
      "inputs": [
        {
          "internalType": "address",
          "name": "_to",
          "type": "address"
        }
      ],
      "name": "withdrawTo",
      "outputs": [],
      "stateMutability": "nonpayable",
      "type": "function"
    },
    {
      "stateMutability": "payable",
      "type": "receive"
    }
  ],
  "bytecode": "0x60806040523480156200001157600080fd5b5060405162003c1d38038062003c1d8339810160408190526200003491620001ac565b600080546001600160a01b0319166001600160a01b03831617815560016002556200006990620000636200009f565b620000bb565b620000987fc9fc9949603a50f5cc3a96f774f1d68287789a241d2082dc81d0fb19a53bcf2b620000636200009f565b50620001de565b6000620000b6620000cb60201b6200235a1760201c565b905090565b620000c7828262000101565b5050565b600080546001600160a01b03163303620000ec575060131936013560601c90565b620000b6620001a860201b620023aa1760201c565b60008281526001602090815260408083206001600160a01b038516845290915290205460ff16620000c75760008281526001602081815260408084206001600160a01b0386168552909152909120805460ff19169091179055620001646200009f565b6001600160a01b0316816001600160a01b0316837f2f8788117e7eff1d82e926ec794901d17c78024a50270940304540a733656f0d60405160405180910390a45050565b3390565b600060208284031215620001bf57600080fd5b81516001600160a01b0381168114620001d757600080fd5b9392505050565b613a2f80620001ee6000396000f3fe6080604052600436106101b05760003560e01c8063761610fc116100ec578063a217fddf1161008a578063bc197c8111610064578063bc197c8114610511578063cdf1917414610587578063d547741f146105a7578063f23a6e61146105c757600080fd5b8063a217fddf146104c7578063a9fd8ed1146104dc578063aa2a7eea146104f157600080fd5b806389fe7c3b116100c657806389fe7c3b146104145780638b8395021461043457806391d148541461045457806395a0f9c7146104a757600080fd5b8063761610fc146103a75780637f413af2146103d457806382335ab0146103f457600080fd5b8063500ceb4811610159578063635ab98111610133578063635ab98114610325578063687c08dd1461034557806372b0d90c1461036757806374d333531461038757600080fd5b8063500ceb48146102b257806351a30c65146102c7578063572b6c05146102e957600080fd5b80632f2ff15d1161018a5780632f2ff15d1461025d57806336568abe1461027f57806349fe03671461029f57600080fd5b806301ffc9a7146101bc5780631675187c146101f1578063248a9ca31461021e57600080fd5b366101b757005b600080fd5b3480156101c857600080fd5b506101dc6101d7366004612d52565b61060c565b60405190151581526020015b60405180910390f35b3480156101fd57600080fd5b5061021161020c366004612d94565b6106b4565b6040516101e89190612de8565b34801561022a57600080fd5b5061024f610239366004612d94565b6000908152600160208190526040909120015490565b6040519081526020016101e8565b34801561026957600080fd5b5061027d610278366004612e24565b610734565b005b34801561028b57600080fd5b5061027d61029a366004612e24565b61075f565b61027d6102ad366004612d94565b610834565b3480156102be57600080fd5b50610211610fe8565b3480156102d357600080fd5b506102dc610ff9565b6040516101e89190612e50565b3480156102f557600080fd5b506101dc610304366004612ed0565b60005473ffffffffffffffffffffffffffffffffffffffff91821691161490565b34801561033157600080fd5b5061027d610340366004612f37565b6110a9565b34801561035157600080fd5b5061035a611551565b6040516101e89190613118565b34801561037357600080fd5b5061027d610382366004612ed0565b611767565b34801561039357600080fd5b5061024f6103a2366004612d94565b6117d3565b3480156103b357600080fd5b506103c76103c2366004612d94565b611852565b6040516101e8919061318b565b3480156103e057600080fd5b5061027d6103ef36600461319e565b611a54565b34801561040057600080fd5b5061035a61040f366004613203565b611c5f565b34801561042057600080fd5b506102dc61042f366004613203565b611ebf565b34801561044057600080fd5b5061027d61044f366004613225565b611fa1565b34801561046057600080fd5b506101dc61046f366004612e24565b600091825260016020908152604080842073ffffffffffffffffffffffffffffffffffffffff93909316845291905290205460ff1690565b3480156104b357600080fd5b5061027d6104c2366004612d94565b612100565b3480156104d357600080fd5b5061024f600081565b3480156104e857600080fd5b5061024f6121e6565b3480156104fd57600080fd5b5061027d61050c366004612ed0565b6121f2565b34801561051d57600080fd5b5061055661052c3660046133db565b7fbc197c810000000000000000000000000000000000000000000000000000000095945050505050565b6040517fffffffff0000000000000000000000000000000000000000000000000000000090911681526020016101e8565b34801561059357600080fd5b506102116105a2366004613203565b612260565b3480156105b357600080fd5b5061027d6105c2366004612e24565b612334565b3480156105d357600080fd5b506105566105e2366004613485565b7ff23a6e610000000000000000000000000000000000000000000000000000000095945050505050565b60007fffffffff0000000000000000000000000000000000000000000000000000000082167f2bd4d8d000000000000000000000000000000000000000000000000000000000148061069f57507fffffffff0000000000000000000000000000000000000000000000000000000082167f4e2312e000000000000000000000000000000000000000000000000000000000145b806106ae57506106ae826123ae565b92915050565b6040805160028082526060808301845292600092919060208301908036833701905050905082816000815181106106ed576106ed6134ea565b602002602001018181525050600560008481526020019081526020016000206006015481600181518110610723576107236134ea565b602090810291909101015292915050565b6000828152600160208190526040909120015461075081612404565b61075a8383612418565b505050565b61076761250e565b73ffffffffffffffffffffffffffffffffffffffff168173ffffffffffffffffffffffffffffffffffffffff1614610826576040517f08c379a000000000000000000000000000000000000000000000000000000000815260206004820152602f60248201527f416363657373436f6e74726f6c3a2063616e206f6e6c792072656e6f756e636560448201527f20726f6c657320666f722073656c66000000000000000000000000000000000060648201526084015b60405180910390fd5b6108308282612518565b5050565b600280540361089f576040517f08c379a000000000000000000000000000000000000000000000000000000000815260206004820152601f60248201527f5265656e7472616e637947756172643a207265656e7472616e742063616c6c00604482015260640161081d565b600280556108ae60038261260b565b61093a576040517f08c379a000000000000000000000000000000000000000000000000000000000815260206004820152602b60248201527f6f66666572496420646f6573206e6f74206578697374206f722068617320626560448201527f656e2072656d6f7665642e000000000000000000000000000000000000000000606482015260840161081d565b6000818152600560208190526040909120908101541580610962575080600501548160040154105b6109c8576040517f08c379a000000000000000000000000000000000000000000000000000000000815260206004820152601b60248201527f4f66666572206861732072656163686564206d617820757365732e0000000000604482015260640161081d565b6001600782015460ff1660028111156109e3576109e3612ffc565b03610cc557600881015473ffffffffffffffffffffffffffffffffffffffff1615610ad557600881015473ffffffffffffffffffffffffffffffffffffffff166323b872dd610a3061250e565b60038401546040517fffffffff0000000000000000000000000000000000000000000000000000000060e085901b16815273ffffffffffffffffffffffffffffffffffffffff909216600483015230602483015260448201526064016020604051808303816000875af1158015610aab573d6000803e3d6000fd5b505050506040513d601f19601f82011682018060405250810190610acf9190613519565b50610b43565b8060030154341015610b43576040517f08c379a000000000000000000000000000000000000000000000000000000000815260206004820152601660248201527f5061796d656e74206c657373207468616e20636f737400000000000000000000604482015260640161081d565b6007810154610b6c90610100900473ffffffffffffffffffffffffffffffffffffffff16612626565b15610bfb576007810154610100900473ffffffffffffffffffffffffffffffffffffffff166308f427c7610b9e61250e565b83600101846002016040518463ffffffff1660e01b8152600401610bc493929190613570565b600060405180830381600087803b158015610bde57600080fd5b505af1158015610bf2573d6000803e3d6000fd5b50505050610c83565b6007810154610100900473ffffffffffffffffffffffffffffffffffffffff16632eb2c2d630610c2961250e565b84600101856002016040518563ffffffff1660e01b8152600401610c5094939291906135bb565b600060405180830381600087803b158015610c6a57600080fd5b505af1158015610c7e573d6000803e3d6000fd5b505050505b817fdb66cdca507e41e2e41d98cc4501b32beb7674415c150ba797ff99f9f3f1138282610cae61250e565b604051610cbc9291906136ce565b60405180910390a25b6002600782015460ff166002811115610ce057610ce0612ffc565b03610fc8576007810154610100900473ffffffffffffffffffffffffffffffffffffffff16632eb2c2d6610d1261250e565b3084600101856002016040518563ffffffff1660e01b8152600401610d3a94939291906135bb565b600060405180830381600087803b158015610d5457600080fd5b505af1158015610d68573d6000803e3d6000fd5b50505050600881015473ffffffffffffffffffffffffffffffffffffffff1615610f33576008810154610db09073ffffffffffffffffffffffffffffffffffffffff16612626565b15610e6c57600881015473ffffffffffffffffffffffffffffffffffffffff16806340c10f19610dde61250e565b60038501546040517fffffffff0000000000000000000000000000000000000000000000000000000060e085901b16815273ffffffffffffffffffffffffffffffffffffffff90921660048301526024820152604401600060405180830381600087803b158015610e4e57600080fd5b505af1158015610e62573d6000803e3d6000fd5b5050505050610f86565b600881015473ffffffffffffffffffffffffffffffffffffffff1663a9059cbb610e9461250e565b60038401546040517fffffffff0000000000000000000000000000000000000000000000000000000060e085901b16815273ffffffffffffffffffffffffffffffffffffffff909216600483015260248201526044016020604051808303816000875af1158015610f09573d6000803e3d6000fd5b505050506040513d601f19601f82011682018060405250810190610f2d9190613519565b50610f86565b610f3b61250e565b73ffffffffffffffffffffffffffffffffffffffff166108fc82600301549081150290604051600060405180830381858888f19350505050158015610f84573d6000803e3d6000fd5b505b817fe1e2505164f4ff082658ee762fde1854dfc88e6d2c3e722c152773d86ada720882610fb161250e565b604051610fbf9291906136ce565b60405180910390a25b600481018054906000610fda83613735565b909155505060016002555050565b6060610ff460036126df565b905090565b606060006110056121e6565b67ffffffffffffffff81111561101d5761101d61324f565b60405190808252806020026020018201604052801561105057816020015b606081526020019060019003908161103b5790505b50905060005b61105e6121e6565b8110156110a35761107361020c6003836126ec565b828281518110611085576110856134ea565b6020026020010181905250808061109b90613735565b915050611056565b50919050565b7fc9fc9949603a50f5cc3a96f774f1d68287789a241d2082dc81d0fb19a53bcf2b6110d381612404565b60018a60028111156110e7576110e7612ffc565b1480611104575060028a600281111561110257611102612ffc565b145b61116a576040517f08c379a000000000000000000000000000000000000000000000000000000000815260206004820152601260248201527f496e76616c6964206f6666657220747970650000000000000000000000000000604482015260640161081d565b6040517f01ffc9a70000000000000000000000000000000000000000000000000000000081527f909aa65d00000000000000000000000000000000000000000000000000000000600482015273ffffffffffffffffffffffffffffffffffffffff8a16906301ffc9a790602401602060405180830381865afa1580156111f4573d6000803e3d6000fd5b505050506040513d601f19601f820116820180604052508101906112189190613519565b61127e576040517f08c379a000000000000000000000000000000000000000000000000000000000815260206004820152601660248201527f496e76616c6964206974656d7320636f6e747261637400000000000000000000604482015260640161081d565b60006040518061014001604052808d81526020018a8a808060200260200160405190810160405280939291908181526020018383602002808284376000920191909152505050908252506040805160208a810282810182019093528a82529283019290918b918b918291850190849080828437600092018290525093855250505060208083018890528f82526005905260409081902060040154908201526060810185905242608082015260a0018c600281111561133e5761133e612ffc565b815273ffffffffffffffffffffffffffffffffffffffff808d1660208301528716604090910152905061137260038d6126f8565b5060008c81526005602090815260409091208251815581830151805184936113a1926001850192910190612c8e565b50604082015180516113bd916002840191602090910190612c8e565b50606082015160038201556080820151600482015560a0820151600582015560c0820151600682015560e08201516007820180547fffffffffffffffffffffffffffffffffffffffffffffffffffffffffffffff0016600183600281111561142757611427612ffc565b0217905550610100828101516007830180547fffffffffffffffffffffff0000000000000000000000000000000000000000ff1673ffffffffffffffffffffffffffffffffffffffff9283169093029290921790915561012090920151600890910180547fffffffffffffffffffffffff0000000000000000000000000000000000000000169190921617905560018b60028111156114c8576114c8612ffc565b0361150a578b7fe74c18d32d0a0910a01bfa54a7955a847a27cf9c5f9db2f31f98f84fe9c8ab7e826040516114fd919061318b565b60405180910390a2611543565b8b7fd5c227a9cf24fde6e59528c78351d6ae3890e9f4e5afb6e030946347422271aa8260405161153a919061318b565b60405180910390a25b505050505050505050505050565b6060600061155d6121e6565b67ffffffffffffffff8111156115755761157561324f565b6040519080825280602002602001820160405280156115ae57816020015b61159b612cd9565b8152602001906001900390816115935790505b50905060005b6115bc6121e6565b8110156110a357600560006115d26003846126ec565b815260200190815260200160002060405180610140016040529081600082015481526020016001820180548060200260200160405190810160405280929190818152602001828054801561164557602002820191906000526020600020905b815481526020019060010190808311611631575b505050505081526020016002820180548060200260200160405190810160405280929190818152602001828054801561169d57602002820191906000526020600020905b815481526020019060010190808311611689575b505050918352505060038201546020820152600482015460408201526005820154606082015260068201546080820152600782015460a09091019060ff1660028111156116ec576116ec612ffc565b60028111156116fd576116fd612ffc565b8152600782015473ffffffffffffffffffffffffffffffffffffffff610100909104811660208301526008909201549091166040909101528251839083908110611749576117496134ea565b6020026020010181905250808061175f90613735565b9150506115b4565b7fc9fc9949603a50f5cc3a96f774f1d68287789a241d2082dc81d0fb19a53bcf2b61179181612404565b60405173ffffffffffffffffffffffffffffffffffffffff8316904780156108fc02916000818181858888f1935050505015801561075a573d6000803e3d6000fd5b60006117df6003612704565b8210611847576040517f08c379a000000000000000000000000000000000000000000000000000000000815260206004820152601360248201527f496e646578206f7574206f6620626f756e647300000000000000000000000000604482015260640161081d565b6106ae6003836126ec565b61185a612cd9565b61186560038361260b565b6118f1576040517f08c379a000000000000000000000000000000000000000000000000000000000815260206004820152602b60248201527f6f66666572496420646f6573206e6f74206578697374206f722068617320626560448201527f656e2072656d6f7665642e000000000000000000000000000000000000000000606482015260840161081d565b600082815260056020908152604091829020825161014081018452815481526001820180548551818602810186019096528086529194929385810193929083018282801561195e57602002820191906000526020600020905b81548152602001906001019080831161194a575b50505050508152602001600282018054806020026020016040519081016040528092919081815260200182805480156119b657602002820191906000526020600020905b8154815260200190600101908083116119a2575b505050918352505060038201546020820152600482015460408201526005820154606082015260068201546080820152600782015460a09091019060ff166002811115611a0557611a05612ffc565b6002811115611a1657611a16612ffc565b8152600782015473ffffffffffffffffffffffffffffffffffffffff6101009091048116602083015260089092015490911660409091015292915050565b7fc9fc9949603a50f5cc3a96f774f1d68287789a241d2082dc81d0fb19a53bcf2b611a7e81612404565b8460008467ffffffffffffffff811115611a9a57611a9a61324f565b604051908082528060200260200182016040528015611ac3578160200160208202803683370190505b50905060005b85811015611bc9578273ffffffffffffffffffffffffffffffffffffffff1662fdd58e30898985818110611aff57611aff6134ea565b6040517fffffffff0000000000000000000000000000000000000000000000000000000060e087901b16815273ffffffffffffffffffffffffffffffffffffffff90941660048501526020029190910135602483015250604401602060405180830381865afa158015611b76573d6000803e3d6000fd5b505050506040513d601f19601f82011682018060405250810190611b9a919061376d565b828281518110611bac57611bac6134ea565b602090810291909101015280611bc181613735565b915050611ac9565b506040517f2eb2c2d600000000000000000000000000000000000000000000000000000000815273ffffffffffffffffffffffffffffffffffffffff831690632eb2c2d690611c2490309088908b908b908890600401613786565b600060405180830381600087803b158015611c3e57600080fd5b505af1158015611c52573d6000803e3d6000fd5b5050505050505050505050565b60606000611c6d6003612704565b8410611c7a576000611c8f565b83611c856003612704565b611c8f9190613829565b9050600083821115611ca15783611ca3565b815b905060008167ffffffffffffffff811115611cc057611cc061324f565b604051908082528060200260200182016040528015611cf957816020015b611ce6612cd9565b815260200190600190039081611cde5790505b50905060005b82811015611eb55760056000611d20611d18848b61383c565b6003906126ec565b8152602001908152602001600020604051806101400160405290816000820154815260200160018201805480602002602001604051908101604052809291908181526020018280548015611d9357602002820191906000526020600020905b815481526020019060010190808311611d7f575b5050505050815260200160028201805480602002602001604051908101604052809291908181526020018280548015611deb57602002820191906000526020600020905b815481526020019060010190808311611dd7575b505050918352505060038201546020820152600482015460408201526005820154606082015260068201546080820152600782015460a09091019060ff166002811115611e3a57611e3a612ffc565b6002811115611e4b57611e4b612ffc565b8152600782015473ffffffffffffffffffffffffffffffffffffffff610100909104811660208301526008909201549091166040909101528251839083908110611e9757611e976134ea565b60200260200101819052508080611ead90613735565b915050611cff565b5095945050505050565b60606000611ecd6003612704565b8410611eda576000611eef565b83611ee56003612704565b611eef9190613829565b9050600083821115611f015783611f03565b815b905060008167ffffffffffffffff811115611f2057611f2061324f565b604051908082528060200260200182016040528015611f5357816020015b6060815260200190600190039081611f3e5790505b50905060005b82811015611eb557611f7161020c611d18838a61383c565b828281518110611f8357611f836134ea565b60200260200101819052508080611f9990613735565b915050611f59565b7fc9fc9949603a50f5cc3a96f774f1d68287789a241d2082dc81d0fb19a53bcf2b611fcb81612404565b6040517f70a08231000000000000000000000000000000000000000000000000000000008152306004820152839073ffffffffffffffffffffffffffffffffffffffff82169063a9059cbb90859083906370a0823190602401602060405180830381865afa158015612041573d6000803e3d6000fd5b505050506040513d601f19601f82011682018060405250810190612065919061376d565b6040517fffffffff0000000000000000000000000000000000000000000000000000000060e085901b16815273ffffffffffffffffffffffffffffffffffffffff909216600483015260248201526044016020604051808303816000875af11580156120d5573d6000803e3d6000fd5b505050506040513d601f19601f820116820180604052508101906120f99190613519565b5050505050565b7fc9fc9949603a50f5cc3a96f774f1d68287789a241d2082dc81d0fb19a53bcf2b61212a81612404565b61213560038361270e565b5060008281526005602052604090206001600782015460ff16600281111561215f5761215f612ffc565b036121a157827f3b83053a9ef7bc250a0828f9a3f8474a9a8e47d68f21d3a59d490c5204dea8ef82604051612194919061384f565b60405180910390a26121da565b827f977611306174d21e3610a6bc4727efdd3a46cf2392cd0da3d31e20a6e6a92281826040516121d1919061384f565b60405180910390a25b60006004909101555050565b6000610ff46003612704565b7fc9fc9949603a50f5cc3a96f774f1d68287789a241d2082dc81d0fb19a53bcf2b61221c81612404565b600080547fffffffffffffffffffffffff00000000000000000000000000000000000000001673ffffffffffffffffffffffffffffffffffffffff84161790555050565b6060600061226e6003612704565b841061227b576000612290565b836122866003612704565b6122909190613829565b90506000838211156122a257836122a4565b815b905060008167ffffffffffffffff8111156122c1576122c161324f565b6040519080825280602002602001820160405280156122ea578160200160208202803683370190505b50905060005b82811015611eb557612305611d18828961383c565b828281518110612317576123176134ea565b60209081029190910101528061232c81613735565b9150506122f0565b6000828152600160208190526040909120015461235081612404565b61075a8383612518565b6000805473ffffffffffffffffffffffffffffffffffffffff1633036123a557507fffffffffffffffffffffffffffffffffffffffffffffffffffffffffffffffec36013560601c90565b503390565b3390565b60007fffffffff0000000000000000000000000000000000000000000000000000000082167f4e2312e00000000000000000000000000000000000000000000000000000000014806106ae57506106ae8261271a565b6124158161241061250e565b6127b1565b50565b600082815260016020908152604080832073ffffffffffffffffffffffffffffffffffffffff8516845290915290205460ff1661083057600082815260016020818152604080842073ffffffffffffffffffffffffffffffffffffffff8616855290915290912080547fffffffffffffffffffffffffffffffffffffffffffffffffffffffffffffff001690911790556124b061250e565b73ffffffffffffffffffffffffffffffffffffffff168173ffffffffffffffffffffffffffffffffffffffff16837f2f8788117e7eff1d82e926ec794901d17c78024a50270940304540a733656f0d60405160405180910390a45050565b6000610ff461235a565b600082815260016020908152604080832073ffffffffffffffffffffffffffffffffffffffff8516845290915290205460ff161561083057600082815260016020908152604080832073ffffffffffffffffffffffffffffffffffffffff85168452909152902080547fffffffffffffffffffffffffffffffffffffffffffffffffffffffffffffff001690556125ad61250e565b73ffffffffffffffffffffffffffffffffffffffff168173ffffffffffffffffffffffffffffffffffffffff16837ff6391f5c32d9c69d2a47ea670b442974b53935d1edc7fd64eb21e047a839171b60405160405180910390a45050565b600081815260018301602052604081205415155b9392505050565b6040517f91d148540000000000000000000000000000000000000000000000000000000081527fc9eb32e43bf5ecbceacf00b32281dfc5d6d700a0db676ea26ccf938a385ac3f76004820152306024820152600090829073ffffffffffffffffffffffffffffffffffffffff8216906391d1485490604401602060405180830381865afa1580156126bb573d6000803e3d6000fd5b505050506040513d601f19601f8201168201806040525081019061261f9190613519565b6060600061261f83612883565b600061261f83836128df565b600061261f8383612909565b60006106ae825490565b600061261f8383612958565b60007fffffffff0000000000000000000000000000000000000000000000000000000082167f7965db0b0000000000000000000000000000000000000000000000000000000014806106ae57507f01ffc9a7000000000000000000000000000000000000000000000000000000007fffffffff000000000000000000000000000000000000000000000000000000008316146106ae565b600082815260016020908152604080832073ffffffffffffffffffffffffffffffffffffffff8516845290915290205460ff16610830576128098173ffffffffffffffffffffffffffffffffffffffff166014612a4b565b612814836020612a4b565b604051602001612825929190613886565b604080517fffffffffffffffffffffffffffffffffffffffffffffffffffffffffffffffe0818403018152908290527f08c379a000000000000000000000000000000000000000000000000000000000825261081d91600401613907565b6060816000018054806020026020016040519081016040528092919081815260200182805480156128d357602002820191906000526020600020905b8154815260200190600101908083116128bf575b50505050509050919050565b60008260000182815481106128f6576128f66134ea565b9060005260206000200154905092915050565b6000818152600183016020526040812054612950575081546001818101845560008481526020808220909301849055845484825282860190935260409020919091556106ae565b5060006106ae565b60008181526001830160205260408120548015612a4157600061297c600183613829565b855490915060009061299090600190613829565b90508181146129f55760008660000182815481106129b0576129b06134ea565b90600052602060002001549050808760000184815481106129d3576129d36134ea565b6000918252602080832090910192909255918252600188019052604090208390555b8554869080612a0657612a06613958565b6001900381819060005260206000200160009055905585600101600086815260200190815260200160002060009055600193505050506106ae565b60009150506106ae565b60606000612a5a836002613987565b612a6590600261383c565b67ffffffffffffffff811115612a7d57612a7d61324f565b6040519080825280601f01601f191660200182016040528015612aa7576020820181803683370190505b5090507f300000000000000000000000000000000000000000000000000000000000000081600081518110612ade57612ade6134ea565b60200101907effffffffffffffffffffffffffffffffffffffffffffffffffffffffffffff1916908160001a9053507f780000000000000000000000000000000000000000000000000000000000000081600181518110612b4157612b416134ea565b60200101907effffffffffffffffffffffffffffffffffffffffffffffffffffffffffffff1916908160001a9053506000612b7d846002613987565b612b8890600161383c565b90505b6001811115612c25577f303132333435363738396162636465660000000000000000000000000000000085600f1660108110612bc957612bc96134ea565b1a60f81b828281518110612bdf57612bdf6134ea565b60200101907effffffffffffffffffffffffffffffffffffffffffffffffffffffffffffff1916908160001a90535060049490941c93612c1e816139c4565b9050612b8b565b50831561261f576040517f08c379a000000000000000000000000000000000000000000000000000000000815260206004820181905260248201527f537472696e67733a20686578206c656e67746820696e73756666696369656e74604482015260640161081d565b828054828255906000526020600020908101928215612cc9579160200282015b82811115612cc9578251825591602001919060010190612cae565b50612cd5929150612d3d565b5090565b6040518061014001604052806000815260200160608152602001606081526020016000815260200160008152602001600081526020016000815260200160006002811115612d2957612d29612ffc565b815260006020820181905260409091015290565b5b80821115612cd55760008155600101612d3e565b600060208284031215612d6457600080fd5b81357fffffffff000000000000000000000000000000000000000000000000000000008116811461261f57600080fd5b600060208284031215612da657600080fd5b5035919050565b600081518084526020808501945080840160005b83811015612ddd57815187529582019590820190600101612dc1565b509495945050505050565b60208152600061261f6020830184612dad565b803573ffffffffffffffffffffffffffffffffffffffff81168114612e1f57600080fd5b919050565b60008060408385031215612e3757600080fd5b82359150612e4760208401612dfb565b90509250929050565b6000602080830181845280855180835260408601915060408160051b870101925083870160005b82811015612ec3577fffffffffffffffffffffffffffffffffffffffffffffffffffffffffffffffc0888603018452612eb1858351612dad565b94509285019290850190600101612e77565b5092979650505050505050565b600060208284031215612ee257600080fd5b61261f82612dfb565b60008083601f840112612efd57600080fd5b50813567ffffffffffffffff811115612f1557600080fd5b6020830191508360208260051b8501011115612f3057600080fd5b9250929050565b6000806000806000806000806000806101008b8d031215612f5757600080fd5b8a35995060208b013560038110612f6d57600080fd5b9850612f7b60408c01612dfb565b975060608b013567ffffffffffffffff80821115612f9857600080fd5b612fa48e838f01612eeb565b909950975060808d0135915080821115612fbd57600080fd5b50612fca8d828e01612eeb565b9096509450612fdd905060a08c01612dfb565b925060c08b0135915060e08b013590509295989b9194979a5092959850565b7f4e487b7100000000000000000000000000000000000000000000000000000000600052602160045260246000fd5b60038110613062577f4e487b7100000000000000000000000000000000000000000000000000000000600052602160045260246000fd5b9052565b600061014082518452602083015181602086015261308682860182612dad565b915050604083015184820360408601526130a08282612dad565b915050606083015160608501526080830151608085015260a083015160a085015260c083015160c085015260e08301516130dd60e086018261302b565b506101008381015173ffffffffffffffffffffffffffffffffffffffff90811691860191909152610120938401511692909301919091525090565b6000602080830181845280855180835260408601915060408160051b870101925083870160005b82811015612ec3577fffffffffffffffffffffffffffffffffffffffffffffffffffffffffffffffc0888603018452613179858351613066565b9450928501929085019060010161313f565b60208152600061261f6020830184613066565b600080600080606085870312156131b457600080fd5b6131bd85612dfb565b9350602085013567ffffffffffffffff8111156131d957600080fd5b6131e587828801612eeb565b90945092506131f8905060408601612dfb565b905092959194509250565b6000806040838503121561321657600080fd5b50508035926020909101359150565b6000806040838503121561323857600080fd5b61324183612dfb565b9150612e4760208401612dfb565b7f4e487b7100000000000000000000000000000000000000000000000000000000600052604160045260246000fd5b604051601f82017fffffffffffffffffffffffffffffffffffffffffffffffffffffffffffffffe016810167ffffffffffffffff811182821017156132c5576132c561324f565b604052919050565b600082601f8301126132de57600080fd5b8135602067ffffffffffffffff8211156132fa576132fa61324f565b8160051b61330982820161327e565b928352848101820192828101908785111561332357600080fd5b83870192505b8483101561334257823582529183019190830190613329565b979650505050505050565b600082601f83011261335e57600080fd5b813567ffffffffffffffff8111156133785761337861324f565b6133a960207fffffffffffffffffffffffffffffffffffffffffffffffffffffffffffffffe0601f8401160161327e565b8181528460208386010111156133be57600080fd5b816020850160208301376000918101602001919091529392505050565b600080600080600060a086880312156133f357600080fd5b6133fc86612dfb565b945061340a60208701612dfb565b9350604086013567ffffffffffffffff8082111561342757600080fd5b61343389838a016132cd565b9450606088013591508082111561344957600080fd5b61345589838a016132cd565b9350608088013591508082111561346b57600080fd5b506134788882890161334d565b9150509295509295909350565b600080600080600060a0868803121561349d57600080fd5b6134a686612dfb565b94506134b460208701612dfb565b93506040860135925060608601359150608086013567ffffffffffffffff8111156134de57600080fd5b6134788882890161334d565b7f4e487b7100000000000000000000000000000000000000000000000000000000600052603260045260246000fd5b60006020828403121561352b57600080fd5b8151801515811461261f57600080fd5b6000815480845260208085019450836000528060002060005b83811015612ddd57815487529582019560019182019101613554565b73ffffffffffffffffffffffffffffffffffffffff8416815260606020820152600061359f606083018561353b565b82810360408401526135b1818561353b565b9695505050505050565b600073ffffffffffffffffffffffffffffffffffffffff808716835280861660208401525060a060408301526135f460a083018561353b565b8281036060840152613606818561353b565b838103608090940193909352505060008152602001949350505050565b6000610140825484528060208501526136418185016001850161353b565b90508381036040850152613658816002850161353b565b90506003830154606085015260048301546080850152600583015460a0850152600683015460c0850152600783015461369760e0860160ff831661302b565b73ffffffffffffffffffffffffffffffffffffffff600891821c811661010087015293015490921661012090930192909252919050565b6040815260006136e16040830185613623565b905073ffffffffffffffffffffffffffffffffffffffff831660208301529392505050565b7f4e487b7100000000000000000000000000000000000000000000000000000000600052601160045260246000fd5b60007fffffffffffffffffffffffffffffffffffffffffffffffffffffffffffffffff820361376657613766613706565b5060010190565b60006020828403121561377f57600080fd5b5051919050565b600073ffffffffffffffffffffffffffffffffffffffff808816835280871660208401525060a060408301528360a08301527f07ffffffffffffffffffffffffffffffffffffffffffffffffffffffffffffff8411156137e557600080fd5b8360051b808660c0850137820182810360c0908101606085015261380b90820185612dad565b83810360809094019390935250506000815260200195945050505050565b818103818111156106ae576106ae613706565b808201808211156106ae576106ae613706565b60208152600061261f6020830184613623565b60005b8381101561387d578181015183820152602001613865565b50506000910152565b7f416363657373436f6e74726f6c3a206163636f756e74200000000000000000008152600083516138be816017850160208801613862565b7f206973206d697373696e6720726f6c652000000000000000000000000000000060179184019182015283516138fb816028840160208801613862565b01602801949350505050565b6020815260008251806020840152613926816040850160208701613862565b601f017fffffffffffffffffffffffffffffffffffffffffffffffffffffffffffffffe0169190910160400192915050565b7f4e487b7100000000000000000000000000000000000000000000000000000000600052603160045260246000fd5b6000817fffffffffffffffffffffffffffffffffffffffffffffffffffffffffffffffff04831182151516156139bf576139bf613706565b500290565b6000816139d3576139d3613706565b507fffffffffffffffffffffffffffffffffffffffffffffffffffffffffffffffff019056fea2646970667358221220fb3722f8743f8a8d8573ae01bc94b2b3e14a9b35a70e48cae3dde545ff2d388464736f6c63430008100033",
  "linkReferences": {},
  "deployedLinkReferences": {}
}