{
  "_format": "hh-sol-artifact-1",
  "contractName": "Game_Items_Merchant",
  "sourceName": "contracts/Items_Merchant/Game_Items_Merchant.sol",
  "abi": [
    {
      "inputs": [
        {
          "internalType": "address",
          "name": "_forwarder",
          "type": "address"
        }
      ],
      "stateMutability": "nonpayable",
      "type": "constructor"
    },
    {
      "anonymous": false,
      "inputs": [
        {
          "indexed": true,
          "internalType": "bytes32",
          "name": "role",
          "type": "bytes32"
        },
        {
          "indexed": true,
          "internalType": "bytes32",
          "name": "previousAdminRole",
          "type": "bytes32"
        },
        {
          "indexed": true,
          "internalType": "bytes32",
          "name": "newAdminRole",
          "type": "bytes32"
        }
      ],
      "name": "RoleAdminChanged",
      "type": "event"
    },
    {
      "anonymous": false,
      "inputs": [
        {
          "indexed": true,
          "internalType": "bytes32",
          "name": "role",
          "type": "bytes32"
        },
        {
          "indexed": true,
          "internalType": "address",
          "name": "account",
          "type": "address"
        },
        {
          "indexed": true,
          "internalType": "address",
          "name": "sender",
          "type": "address"
        }
      ],
      "name": "RoleGranted",
      "type": "event"
    },
    {
      "anonymous": false,
      "inputs": [
        {
          "indexed": true,
          "internalType": "bytes32",
          "name": "role",
          "type": "bytes32"
        },
        {
          "indexed": true,
          "internalType": "address",
          "name": "account",
          "type": "address"
        },
        {
          "indexed": true,
          "internalType": "address",
          "name": "sender",
          "type": "address"
        }
      ],
      "name": "RoleRevoked",
      "type": "event"
    },
    {
      "inputs": [],
      "name": "DEFAULT_ADMIN_ROLE",
      "outputs": [
        {
          "internalType": "bytes32",
          "name": "",
          "type": "bytes32"
        }
      ],
      "stateMutability": "view",
      "type": "function"
    },
    {
      "inputs": [],
      "name": "allBuyableItemOfferIds",
      "outputs": [
        {
          "internalType": "bytes32[]",
          "name": "",
          "type": "bytes32[]"
        }
      ],
      "stateMutability": "view",
      "type": "function"
    },
    {
      "inputs": [],
      "name": "allSellableItemOfferIds",
      "outputs": [
        {
          "internalType": "bytes32[]",
          "name": "",
          "type": "bytes32[]"
        }
      ],
      "stateMutability": "view",
      "type": "function"
    },
    {
      "inputs": [
        {
          "internalType": "bytes32",
          "name": "_itemOfferId",
          "type": "bytes32"
        }
      ],
      "name": "buy",
      "outputs": [],
      "stateMutability": "payable",
      "type": "function"
    },
    {
      "inputs": [
        {
          "internalType": "uint256",
          "name": "",
          "type": "uint256"
        }
      ],
      "name": "buyableItemOfferIds",
      "outputs": [
        {
          "internalType": "bytes32",
          "name": "",
          "type": "bytes32"
        }
      ],
      "stateMutability": "view",
      "type": "function"
    },
    {
      "inputs": [
        {
          "internalType": "address",
          "name": "_itemsAddress",
          "type": "address"
        },
        {
          "internalType": "address",
          "name": "_currencyAddress",
          "type": "address"
        },
        {
          "internalType": "uint256[]",
          "name": "_itemIds",
          "type": "uint256[]"
        }
      ],
      "name": "generateItemOfferId",
      "outputs": [
        {
          "internalType": "bytes32",
          "name": "",
          "type": "bytes32"
        }
      ],
      "stateMutability": "pure",
      "type": "function"
    },
    {
      "inputs": [
        {
          "internalType": "bytes32",
          "name": "_itemOfferId",
          "type": "bytes32"
        }
      ],
      "name": "getBuyableItemOffer",
      "outputs": [
        {
          "components": [
            {
              "internalType": "bool",
              "name": "isActive",
              "type": "bool"
            },
            {
              "internalType": "uint256[]",
              "name": "itemIds",
              "type": "uint256[]"
            },
            {
              "internalType": "uint256[]",
              "name": "itemAmounts",
              "type": "uint256[]"
            },
            {
              "internalType": "uint256",
              "name": "currencyAmount",
              "type": "uint256"
            },
            {
              "internalType": "uint256",
              "name": "uses",
              "type": "uint256"
            },
            {
              "internalType": "uint256",
              "name": "maxUses",
              "type": "uint256"
            },
            {
              "internalType": "contract IERC1155_Game_Items",
              "name": "items",
              "type": "address"
            },
            {
              "internalType": "contract IERC20",
              "name": "currency",
              "type": "address"
            }
          ],
          "internalType": "struct IGame_Items_Merchant.ItemOffer",
          "name": "",
          "type": "tuple"
        }
      ],
      "stateMutability": "view",
      "type": "function"
    },
    {
      "inputs": [
        {
          "internalType": "bytes32",
          "name": "role",
          "type": "bytes32"
        }
      ],
      "name": "getRoleAdmin",
      "outputs": [
        {
          "internalType": "bytes32",
          "name": "",
          "type": "bytes32"
        }
      ],
      "stateMutability": "view",
      "type": "function"
    },
    {
      "inputs": [
        {
          "internalType": "bytes32",
          "name": "_itemOfferId",
          "type": "bytes32"
        }
      ],
      "name": "getSellableItemOffer",
      "outputs": [
        {
          "components": [
            {
              "internalType": "bool",
              "name": "isActive",
              "type": "bool"
            },
            {
              "internalType": "uint256[]",
              "name": "itemIds",
              "type": "uint256[]"
            },
            {
              "internalType": "uint256[]",
              "name": "itemAmounts",
              "type": "uint256[]"
            },
            {
              "internalType": "uint256",
              "name": "currencyAmount",
              "type": "uint256"
            },
            {
              "internalType": "uint256",
              "name": "uses",
              "type": "uint256"
            },
            {
              "internalType": "uint256",
              "name": "maxUses",
              "type": "uint256"
            },
            {
              "internalType": "contract IERC1155_Game_Items",
              "name": "items",
              "type": "address"
            },
            {
              "internalType": "contract IERC20",
              "name": "currency",
              "type": "address"
            }
          ],
          "internalType": "struct IGame_Items_Merchant.ItemOffer",
          "name": "",
          "type": "tuple"
        }
      ],
      "stateMutability": "view",
      "type": "function"
    },
    {
      "inputs": [
        {
          "internalType": "bytes32",
          "name": "role",
          "type": "bytes32"
        },
        {
          "internalType": "address",
          "name": "account",
          "type": "address"
        }
      ],
      "name": "grantRole",
      "outputs": [],
      "stateMutability": "nonpayable",
      "type": "function"
    },
    {
      "inputs": [
        {
          "internalType": "bytes32",
          "name": "role",
          "type": "bytes32"
        },
        {
          "internalType": "address",
          "name": "account",
          "type": "address"
        }
      ],
      "name": "hasRole",
      "outputs": [
        {
          "internalType": "bool",
          "name": "",
          "type": "bool"
        }
      ],
      "stateMutability": "view",
      "type": "function"
    },
    {
      "inputs": [
        {
          "internalType": "address",
          "name": "forwarder",
          "type": "address"
        }
      ],
      "name": "isTrustedForwarder",
      "outputs": [
        {
          "internalType": "bool",
          "name": "",
          "type": "bool"
        }
      ],
      "stateMutability": "view",
      "type": "function"
    },
    {
      "inputs": [
        {
          "internalType": "address",
          "name": "",
          "type": "address"
        },
        {
          "internalType": "address",
          "name": "",
          "type": "address"
        },
        {
          "internalType": "uint256[]",
          "name": "",
          "type": "uint256[]"
        },
        {
          "internalType": "uint256[]",
          "name": "",
          "type": "uint256[]"
        },
        {
          "internalType": "bytes",
          "name": "",
          "type": "bytes"
        }
      ],
      "name": "onERC1155BatchReceived",
      "outputs": [
        {
          "internalType": "bytes4",
          "name": "",
          "type": "bytes4"
        }
      ],
      "stateMutability": "nonpayable",
      "type": "function"
    },
    {
      "inputs": [
        {
          "internalType": "address",
          "name": "",
          "type": "address"
        },
        {
          "internalType": "address",
          "name": "",
          "type": "address"
        },
        {
          "internalType": "uint256",
          "name": "",
          "type": "uint256"
        },
        {
          "internalType": "uint256",
          "name": "",
          "type": "uint256"
        },
        {
          "internalType": "bytes",
          "name": "",
          "type": "bytes"
        }
      ],
      "name": "onERC1155Received",
      "outputs": [
        {
          "internalType": "bytes4",
          "name": "",
          "type": "bytes4"
        }
      ],
      "stateMutability": "nonpayable",
      "type": "function"
    },
    {
      "inputs": [
        {
          "internalType": "uint256",
          "name": "_startIndexInclusive",
          "type": "uint256"
        },
        {
          "internalType": "uint256",
          "name": "_limit",
          "type": "uint256"
        }
      ],
      "name": "paginateBuyableItemOffers",
      "outputs": [
        {
          "components": [
            {
              "internalType": "bool",
              "name": "isActive",
              "type": "bool"
            },
            {
              "internalType": "uint256[]",
              "name": "itemIds",
              "type": "uint256[]"
            },
            {
              "internalType": "uint256[]",
              "name": "itemAmounts",
              "type": "uint256[]"
            },
            {
              "internalType": "uint256",
              "name": "currencyAmount",
              "type": "uint256"
            },
            {
              "internalType": "uint256",
              "name": "uses",
              "type": "uint256"
            },
            {
              "internalType": "uint256",
              "name": "maxUses",
              "type": "uint256"
            },
            {
              "internalType": "contract IERC1155_Game_Items",
              "name": "items",
              "type": "address"
            },
            {
              "internalType": "contract IERC20",
              "name": "currency",
              "type": "address"
            }
          ],
          "internalType": "struct IGame_Items_Merchant.ItemOffer[]",
          "name": "",
          "type": "tuple[]"
        }
      ],
      "stateMutability": "view",
      "type": "function"
    },
    {
      "inputs": [
        {
          "internalType": "uint256",
          "name": "_startIndexInclusive",
          "type": "uint256"
        },
        {
          "internalType": "uint256",
          "name": "_limit",
          "type": "uint256"
        }
      ],
      "name": "paginateSellableItemOffers",
      "outputs": [
        {
          "components": [
            {
              "internalType": "bool",
              "name": "isActive",
              "type": "bool"
            },
            {
              "internalType": "uint256[]",
              "name": "itemIds",
              "type": "uint256[]"
            },
            {
              "internalType": "uint256[]",
              "name": "itemAmounts",
              "type": "uint256[]"
            },
            {
              "internalType": "uint256",
              "name": "currencyAmount",
              "type": "uint256"
            },
            {
              "internalType": "uint256",
              "name": "uses",
              "type": "uint256"
            },
            {
              "internalType": "uint256",
              "name": "maxUses",
              "type": "uint256"
            },
            {
              "internalType": "contract IERC1155_Game_Items",
              "name": "items",
              "type": "address"
            },
            {
              "internalType": "contract IERC20",
              "name": "currency",
              "type": "address"
            }
          ],
          "internalType": "struct IGame_Items_Merchant.ItemOffer[]",
          "name": "",
          "type": "tuple[]"
        }
      ],
      "stateMutability": "view",
      "type": "function"
    },
    {
      "inputs": [
        {
          "internalType": "bytes32",
          "name": "_itemOfferId",
          "type": "bytes32"
        }
      ],
      "name": "removeBuyableItemOffer",
      "outputs": [],
      "stateMutability": "nonpayable",
      "type": "function"
    },
    {
      "inputs": [
        {
          "internalType": "bytes32",
          "name": "_itemOfferId",
          "type": "bytes32"
        }
      ],
      "name": "removeSellableItemOffer",
      "outputs": [],
      "stateMutability": "nonpayable",
      "type": "function"
    },
    {
      "inputs": [
        {
          "internalType": "bytes32",
          "name": "role",
          "type": "bytes32"
        },
        {
          "internalType": "address",
          "name": "account",
          "type": "address"
        }
      ],
      "name": "renounceRole",
      "outputs": [],
      "stateMutability": "nonpayable",
      "type": "function"
    },
    {
      "inputs": [
        {
          "internalType": "bytes32",
          "name": "role",
          "type": "bytes32"
        },
        {
          "internalType": "address",
          "name": "account",
          "type": "address"
        }
      ],
      "name": "revokeRole",
      "outputs": [],
      "stateMutability": "nonpayable",
      "type": "function"
    },
    {
      "inputs": [
        {
          "internalType": "bytes32",
          "name": "_itemOfferId",
          "type": "bytes32"
        }
      ],
      "name": "sell",
      "outputs": [],
      "stateMutability": "nonpayable",
      "type": "function"
    },
    {
      "inputs": [
        {
          "internalType": "uint256",
          "name": "",
          "type": "uint256"
        }
      ],
      "name": "sellableItemOfferIds",
      "outputs": [
        {
          "internalType": "bytes32",
          "name": "",
          "type": "bytes32"
        }
      ],
      "stateMutability": "view",
      "type": "function"
    },
    {
      "inputs": [
        {
          "internalType": "address",
          "name": "_itemsAddress",
          "type": "address"
        },
        {
          "internalType": "uint256[]",
          "name": "_itemIds",
          "type": "uint256[]"
        },
        {
          "internalType": "uint256[]",
          "name": "_itemAmounts",
          "type": "uint256[]"
        },
        {
          "internalType": "address",
          "name": "_currencyAddress",
          "type": "address"
        },
        {
          "internalType": "uint256",
          "name": "_currencyAmount",
          "type": "uint256"
        },
        {
          "internalType": "uint256",
          "name": "_maxUses",
          "type": "uint256"
        }
      ],
      "name": "setBuyableItemOffer",
      "outputs": [],
      "stateMutability": "nonpayable",
      "type": "function"
    },
    {
      "inputs": [
        {
          "internalType": "address",
          "name": "_itemsAddress",
          "type": "address"
        },
        {
          "internalType": "uint256[]",
          "name": "_itemIds",
          "type": "uint256[]"
        },
        {
          "internalType": "uint256[]",
          "name": "_itemAmounts",
          "type": "uint256[]"
        },
        {
          "internalType": "address",
          "name": "_currencyAddress",
          "type": "address"
        },
        {
          "internalType": "uint256",
          "name": "_currencyAmount",
          "type": "uint256"
        },
        {
          "internalType": "uint256",
          "name": "_maxUses",
          "type": "uint256"
        }
      ],
      "name": "setSellableItemOffer",
      "outputs": [],
      "stateMutability": "nonpayable",
      "type": "function"
    },
    {
      "inputs": [
        {
          "internalType": "bytes4",
          "name": "interfaceId",
          "type": "bytes4"
        }
      ],
      "name": "supportsInterface",
      "outputs": [
        {
          "internalType": "bool",
          "name": "",
          "type": "bool"
        }
      ],
      "stateMutability": "view",
      "type": "function"
    },
    {
      "inputs": [],
      "name": "totalBuyableItemOffers",
      "outputs": [
        {
          "internalType": "uint256",
          "name": "",
          "type": "uint256"
        }
      ],
      "stateMutability": "view",
      "type": "function"
    },
    {
      "inputs": [],
      "name": "totalSellableItemOffers",
      "outputs": [
        {
          "internalType": "uint256",
          "name": "",
          "type": "uint256"
        }
      ],
      "stateMutability": "view",
      "type": "function"
    },
    {
      "inputs": [
        {
          "internalType": "address",
          "name": "_newTrustedForwarder",
          "type": "address"
        }
      ],
      "name": "upgradeTrustedForwarder",
      "outputs": [],
      "stateMutability": "nonpayable",
      "type": "function"
    },
    {
      "inputs": [],
      "name": "withdraw",
      "outputs": [],
      "stateMutability": "nonpayable",
      "type": "function"
    },
    {
      "inputs": [
        {
          "internalType": "address",
          "name": "_currencyAddress",
          "type": "address"
        }
      ],
      "name": "withdrawCurrency",
      "outputs": [],
      "stateMutability": "nonpayable",
      "type": "function"
    },
    {
      "inputs": [
        {
          "internalType": "address",
          "name": "_itemsAddress",
          "type": "address"
        },
        {
          "internalType": "uint256[]",
          "name": "_itemIds",
          "type": "uint256[]"
        }
      ],
      "name": "withdrawItems",
      "outputs": [],
      "stateMutability": "nonpayable",
      "type": "function"
    },
    {
      "stateMutability": "payable",
      "type": "receive"
    }
  ],
  "bytecode": "0x60806040523480156200001157600080fd5b5060405162003adb38038062003adb8339810160408190526200003491620001ac565b600080546001600160a01b0319166001600160a01b03831617815560016002556200006990620000636200009f565b620000bb565b620000987fc9fc9949603a50f5cc3a96f774f1d68287789a241d2082dc81d0fb19a53bcf2b620000636200009f565b50620001de565b6000620000b6620000cb60201b62001ff01760201c565b905090565b620000c7828262000101565b5050565b600080546001600160a01b03163303620000ec575060131936013560601c90565b620000b6620001a860201b620020451760201c565b60008281526001602090815260408083206001600160a01b038516845290915290205460ff16620000c75760008281526001602081815260408084206001600160a01b0386168552909152909120805460ff19169091179055620001646200009f565b6001600160a01b0316816001600160a01b0316837f2f8788117e7eff1d82e926ec794901d17c78024a50270940304540a733656f0d60405160405180910390a45050565b3390565b600060208284031215620001bf57600080fd5b81516001600160a01b0381168114620001d757600080fd5b9392505050565b6138ed80620001ee6000396000f3fe6080604052600436106101dc5760003560e01c8063940315f011610102578063c408257111610095578063e8e5180211610064578063e8e51802146105fb578063ead388351461061b578063f23a6e611461063b578063fc3d74c61461068057600080fd5b8063c40825711461057b578063c9182fa51461059b578063cb686303146105bb578063d547741f146105db57600080fd5b8063a9db8eaf116100d1578063a9db8eaf146104a3578063aa2a7eea146104d0578063bc197c81146104f0578063c38adf331461056657600080fd5b8063940315f0146104465780639c9a10611461045b578063a071a1591461046e578063a217fddf1461048e57600080fd5b80633ccfd60b1161017a578063724e3c7411610149578063724e3c741461039e57806384ed8d94146103be578063851f966f146103d357806391d14854146103f357600080fd5b80633ccfd60b1461030d57806347aff48a14610322578063498c957714610342578063572b6c051461036257600080fd5b806321fd3f81116101b657806321fd3f8114610261578063248a9ca31461028e5780632f2ff15d146102cd57806336568abe146102ed57600080fd5b806301ffc9a7146101e85780630c2533cb1461021d5780630e5605621461023f57600080fd5b366101e357005b600080fd5b3480156101f457600080fd5b50610208610203366004612d09565b6106a0565b60405190151581526020015b60405180910390f35b34801561022957600080fd5b5061023d610238366004612d4b565b610748565b005b34801561024b57600080fd5b50610254610b8d565b6040516102149190612d64565b34801561026d57600080fd5b5061028161027c366004612d4b565b610be5565b6040516102149190612e8f565b34801561029a57600080fd5b506102bf6102a9366004612d4b565b6000908152600160208190526040909120015490565b604051908152602001610214565b3480156102d957600080fd5b5061023d6102e8366004612ecb565b610d82565b3480156102f957600080fd5b5061023d610308366004612ecb565b610dad565b34801561031957600080fd5b5061023d610e7d565b34801561032e57600080fd5b506102bf61033d366004612f43565b610ef4565b34801561034e57600080fd5b5061023d61035d366004612fa4565b610f2d565b34801561036e57600080fd5b5061020861037d366004613048565b60005473ffffffffffffffffffffffffffffffffffffffff91821691161490565b3480156103aa57600080fd5b5061023d6103b9366004613063565b610f74565b3480156103ca57600080fd5b506003546102bf565b3480156103df57600080fd5b5061023d6103ee366004612d4b565b61116c565b3480156103ff57600080fd5b5061020861040e366004612ecb565b600091825260016020908152604080842073ffffffffffffffffffffffffffffffffffffffff93909316845291905290205460ff1690565b34801561045257600080fd5b506005546102bf565b61023d610469366004612d4b565b6111cd565b34801561047a57600080fd5b506102bf610489366004612d4b565b6115e7565b34801561049a57600080fd5b506102bf600081565b3480156104af57600080fd5b506104c36104be3660046130b6565b611608565b60405161021491906130d8565b3480156104dc57600080fd5b5061023d6104eb366004613048565b61189c565b3480156104fc57600080fd5b5061053561050b3660046132e4565b7fbc197c810000000000000000000000000000000000000000000000000000000095945050505050565b6040517fffffffff000000000000000000000000000000000000000000000000000000009091168152602001610214565b34801561057257600080fd5b5061025461190a565b34801561058757600080fd5b5061023d610596366004612d4b565b611960565b3480156105a757600080fd5b5061023d6105b6366004612fa4565b6119c1565b3480156105c757600080fd5b506102816105d6366004612d4b565b6119fd565b3480156105e757600080fd5b5061023d6105f6366004612ecb565b611b96565b34801561060757600080fd5b506102bf610616366004612d4b565b611bbc565b34801561062757600080fd5b506104c36106363660046130b6565b611bcc565b34801561064757600080fd5b5061053561065636600461338e565b7ff23a6e610000000000000000000000000000000000000000000000000000000095945050505050565b34801561068c57600080fd5b5061023d61069b366004613048565b611e56565b60007fffffffff0000000000000000000000000000000000000000000000000000000082167fd080587800000000000000000000000000000000000000000000000000000000148061073357507fffffffff0000000000000000000000000000000000000000000000000000000082167f4e2312e000000000000000000000000000000000000000000000000000000000145b80610742575061074282612049565b92915050565b6000818152600660205260409020600581015460019183911580610773575080600501548160040154105b6107b8576040517f08c379a000000000000000000000000000000000000000000000000000000000815260206004820152600060248201526044015b60405180910390fd5b6002805403610823576040517f08c379a000000000000000000000000000000000000000000000000000000000815260206004820152601f60248201527f5265656e7472616e637947756172643a207265656e7472616e742063616c6c0060448201526064016107af565b6002805561083260018561209f565b6108be576040517f08c379a000000000000000000000000000000000000000000000000000000000815260206004820152602a60248201527f6974656d4f666665724964206973206e6f7420612076616c69642073656c6c6160448201527f626c65206f666665722e0000000000000000000000000000000000000000000060648201526084016107af565b60008481526006602081905260409091209081015473ffffffffffffffffffffffffffffffffffffffff16632eb2c2d66108f66120ea565b3084600101856002016040518563ffffffff1660e01b815260040161091e9493929190613457565b600060405180830381600087803b15801561093857600080fd5b505af115801561094c573d6000803e3d6000fd5b50505050600781015473ffffffffffffffffffffffffffffffffffffffff1615610b175760078101546109949073ffffffffffffffffffffffffffffffffffffffff166120f4565b15610a5057600781015473ffffffffffffffffffffffffffffffffffffffff16806340c10f196109c26120ea565b60038501546040517fffffffff0000000000000000000000000000000000000000000000000000000060e085901b16815273ffffffffffffffffffffffffffffffffffffffff90921660048301526024820152604401600060405180830381600087803b158015610a3257600080fd5b505af1158015610a46573d6000803e3d6000fd5b5050505050610b6a565b600781015473ffffffffffffffffffffffffffffffffffffffff1663a9059cbb610a786120ea565b60038401546040517fffffffff0000000000000000000000000000000000000000000000000000000060e085901b16815273ffffffffffffffffffffffffffffffffffffffff909216600483015260248201526044016020604051808303816000875af1158015610aed573d6000803e3d6000fd5b505050506040513d601f19601f82011682018060405250810190610b1191906134bf565b50610b6a565b610b1f6120ea565b73ffffffffffffffffffffffffffffffffffffffff166108fc82600301549081150290604051600060405180830381858888f19350505050158015610b68573d6000803e3d6000fd5b505b600481018054906000610b7c83613510565b909155505060016002555050505050565b60606005805480602002602001604051908101604052809291908181526020018280548015610bdb57602002820191906000526020600020905b815481526020019060010190808311610bc7575b5050505050905090565b610c5b6040518061010001604052806000151581526020016060815260200160608152602001600081526020016000815260200160008152602001600073ffffffffffffffffffffffffffffffffffffffff168152602001600073ffffffffffffffffffffffffffffffffffffffff1681525090565b600082815260066020908152604091829020825161010081018452815460ff161515815260018201805485518186028101860190965280865291949293858101939290830182828015610ccd57602002820191906000526020600020905b815481526020019060010190808311610cb9575b5050505050815260200160028201805480602002602001604051908101604052809291908181526020018280548015610d2557602002820191906000526020600020905b815481526020019060010190808311610d11575b5050509183525050600382015460208201526004820154604082015260058201546060820152600682015473ffffffffffffffffffffffffffffffffffffffff908116608083015260079092015490911660a09091015292915050565b60008281526001602081905260409091200154610d9e816121ad565b610da883836121c1565b505050565b610db56120ea565b73ffffffffffffffffffffffffffffffffffffffff168173ffffffffffffffffffffffffffffffffffffffff1614610e6f576040517f08c379a000000000000000000000000000000000000000000000000000000000815260206004820152602f60248201527f416363657373436f6e74726f6c3a2063616e206f6e6c792072656e6f756e636560448201527f20726f6c657320666f722073656c66000000000000000000000000000000000060648201526084016107af565b610e7982826122b7565b5050565b7fc9fc9949603a50f5cc3a96f774f1d68287789a241d2082dc81d0fb19a53bcf2b610ea7816121ad565b610eaf6120ea565b73ffffffffffffffffffffffffffffffffffffffff166108fc479081150290604051600060405180830381858888f19350505050158015610e79573d6000803e3d6000fd5b600084848484604051602001610f0d9493929190613548565b604051602081830303815290604052805190602001209050949350505050565b7fc9fc9949603a50f5cc3a96f774f1d68287789a241d2082dc81d0fb19a53bcf2b610f57816121ad565b610f6960008a8a8a8a8a8a8a8a6123aa565b505050505050505050565b7fc9fc9949603a50f5cc3a96f774f1d68287789a241d2082dc81d0fb19a53bcf2b610f9e816121ad565b8360008367ffffffffffffffff811115610fba57610fba613158565b604051908082528060200260200182016040528015610fe3578160200160208202803683370190505b50905060005b848110156110e9578273ffffffffffffffffffffffffffffffffffffffff1662fdd58e3088888581811061101f5761101f6135c7565b6040517fffffffff0000000000000000000000000000000000000000000000000000000060e087901b16815273ffffffffffffffffffffffffffffffffffffffff90941660048501526020029190910135602483015250604401602060405180830381865afa158015611096573d6000803e3d6000fd5b505050506040513d601f19601f820116820180604052508101906110ba91906135f6565b8282815181106110cc576110cc6135c7565b6020908102919091010152806110e181613510565b915050610fe9565b508173ffffffffffffffffffffffffffffffffffffffff16632eb2c2d63061110f6120ea565b8888866040518663ffffffff1660e01b815260040161113295949392919061360f565b600060405180830381600087803b15801561114c57600080fd5b505af1158015611160573d6000803e3d6000fd5b50505050505050505050565b7fc9fc9949603a50f5cc3a96f774f1d68287789a241d2082dc81d0fb19a53bcf2b611196816121ad565b50600090815260066020526040902080547fffffffffffffffffffffffffffffffffffffffffffffffffffffffffffffff00169055565b6000818152600460205260408120600581015483919015806111f6575080600501548160040154105b611236576040517f08c379a000000000000000000000000000000000000000000000000000000000815260206004820152600060248201526044016107af565b60028054036112a1576040517f08c379a000000000000000000000000000000000000000000000000000000000815260206004820152601f60248201527f5265656e7472616e637947756172643a207265656e7472616e742063616c6c0060448201526064016107af565b600280556112b060008561209f565b61133c576040517f08c379a000000000000000000000000000000000000000000000000000000000815260206004820152602960248201527f6974656d4f666665724964206973206e6f7420612076616c696420627579616260448201527f6c65206f666665722e000000000000000000000000000000000000000000000060648201526084016107af565b6000848152600460205260409020600781015473ffffffffffffffffffffffffffffffffffffffff161561143757600781015473ffffffffffffffffffffffffffffffffffffffff166323b872dd6113926120ea565b60038401546040517fffffffff0000000000000000000000000000000000000000000000000000000060e085901b16815273ffffffffffffffffffffffffffffffffffffffff909216600483015230602483015260448201526064016020604051808303816000875af115801561140d573d6000803e3d6000fd5b505050506040513d601f19601f8201168201806040525081019061143191906134bf565b506114a5565b80600301543410156114a5576040517f08c379a000000000000000000000000000000000000000000000000000000000815260206004820152601660248201527f5061796d656e74206c657373207468616e20636f73740000000000000000000060448201526064016107af565b60068101546114c99073ffffffffffffffffffffffffffffffffffffffff166120f4565b1561155357600681015473ffffffffffffffffffffffffffffffffffffffff166308f427c76114f66120ea565b83600101846002016040518463ffffffff1660e01b815260040161151c939291906136de565b600060405180830381600087803b15801561153657600080fd5b505af115801561154a573d6000803e3d6000fd5b50505050610b6a565b600681015473ffffffffffffffffffffffffffffffffffffffff16632eb2c2d63061157c6120ea565b84600101856002016040518563ffffffff1660e01b81526004016115a39493929190613457565b600060405180830381600087803b1580156115bd57600080fd5b505af11580156115d1573d6000803e3d6000fd5b50505050600481018054906000610b7c83613510565b600581815481106115f757600080fd5b600091825260209091200154905081565b600554606090600090841061161e57600061162c565b60055461162c908590613729565b905060008382111561163e5783611640565b815b905060008167ffffffffffffffff81111561165d5761165d613158565b60405190808252806020026020018201604052801561170457816020015b6116f16040518061010001604052806000151581526020016060815260200160608152602001600081526020016000815260200160008152602001600073ffffffffffffffffffffffffffffffffffffffff168152602001600073ffffffffffffffffffffffffffffffffffffffff1681525090565b81526020019060019003908161167b5790505b50905060005b8281101561189257600660006005611722848b61373c565b81548110611732576117326135c7565b600091825260208083209091015483528281019390935260409182019020815161010081018352815460ff161515815260018201805484518187028101870190955280855291949293858401939092908301828280156117b157602002820191906000526020600020905b81548152602001906001019080831161179d575b505050505081526020016002820180548060200260200160405190810160405280929190818152602001828054801561180957602002820191906000526020600020905b8154815260200190600101908083116117f5575b5050509183525050600382015460208201526004820154604082015260058201546060820152600682015473ffffffffffffffffffffffffffffffffffffffff908116608083015260079092015490911660a0909101528251839083908110611874576118746135c7565b6020026020010181905250808061188a90613510565b91505061170a565b5095945050505050565b7fc9fc9949603a50f5cc3a96f774f1d68287789a241d2082dc81d0fb19a53bcf2b6118c6816121ad565b600080547fffffffffffffffffffffffff00000000000000000000000000000000000000001673ffffffffffffffffffffffffffffffffffffffff84161790555050565b60606003805480602002602001604051908101604052809291908181526020018280548015610bdb5760200282019190600052602060002090815481526020019060010190808311610bc7575050505050905090565b7fc9fc9949603a50f5cc3a96f774f1d68287789a241d2082dc81d0fb19a53bcf2b61198a816121ad565b50600090815260046020526040902080547fffffffffffffffffffffffffffffffffffffffffffffffffffffffffffffff00169055565b7fc9fc9949603a50f5cc3a96f774f1d68287789a241d2082dc81d0fb19a53bcf2b6119eb816121ad565b610f6960018a8a8a8a8a8a8a8a6123aa565b611a736040518061010001604052806000151581526020016060815260200160608152602001600081526020016000815260200160008152602001600073ffffffffffffffffffffffffffffffffffffffff168152602001600073ffffffffffffffffffffffffffffffffffffffff1681525090565b600082815260046020908152604091829020825161010081018452815460ff161515815260018201805485518186028101860190965280865291949293858101939290830182828015610ccd5760200282019190600052602060002090815481526020019060010190808311610cb9575050505050815260200160028201805480602002602001604051908101604052809291908181526020018280548015610d255760200282019190600052602060002090815481526020019060010190808311610d11575050509183525050600382015460208201526004820154604082015260058201546060820152600682015473ffffffffffffffffffffffffffffffffffffffff908116608083015260079092015490911660a09091015292915050565b60008281526001602081905260409091200154611bb2816121ad565b610da883836122b7565b600381815481106115f757600080fd5b6003546060906000908410611be2576000611bf0565b600354611bf0908590613729565b9050600083821115611c025783611c04565b815b905060008167ffffffffffffffff811115611c2157611c21613158565b604051908082528060200260200182016040528015611cc857816020015b611cb56040518061010001604052806000151581526020016060815260200160608152602001600081526020016000815260200160008152602001600073ffffffffffffffffffffffffffffffffffffffff168152602001600073ffffffffffffffffffffffffffffffffffffffff1681525090565b815260200190600190039081611c3f5790505b50905060005b8281101561189257600460006003611ce6848b61373c565b81548110611cf657611cf66135c7565b600091825260208083209091015483528281019390935260409182019020815161010081018352815460ff16151581526001820180548451818702810187019095528085529194929385840193909290830182828015611d7557602002820191906000526020600020905b815481526020019060010190808311611d61575b5050505050815260200160028201805480602002602001604051908101604052809291908181526020018280548015611dcd57602002820191906000526020600020905b815481526020019060010190808311611db9575b5050509183525050600382015460208201526004820154604082015260058201546060820152600682015473ffffffffffffffffffffffffffffffffffffffff908116608083015260079092015490911660a0909101528251839083908110611e3857611e386135c7565b60200260200101819052508080611e4e90613510565b915050611cce565b7fc9fc9949603a50f5cc3a96f774f1d68287789a241d2082dc81d0fb19a53bcf2b611e80816121ad565b8173ffffffffffffffffffffffffffffffffffffffff811663a9059cbb611ea56120ea565b8373ffffffffffffffffffffffffffffffffffffffff166370a08231611ec96120ea565b6040517fffffffff0000000000000000000000000000000000000000000000000000000060e084901b16815273ffffffffffffffffffffffffffffffffffffffff9091166004820152602401602060405180830381865afa158015611f32573d6000803e3d6000fd5b505050506040513d601f19601f82011682018060405250810190611f5691906135f6565b6040517fffffffff0000000000000000000000000000000000000000000000000000000060e085901b16815273ffffffffffffffffffffffffffffffffffffffff909216600483015260248201526044016020604051808303816000875af1158015611fc6573d6000803e3d6000fd5b505050506040513d601f19601f82011682018060405250810190611fea91906134bf565b50505050565b6000805473ffffffffffffffffffffffffffffffffffffffff16330361203b57507fffffffffffffffffffffffffffffffffffffffffffffffffffffffffffffffec36013560601c90565b503390565b905090565b3390565b60007fffffffff0000000000000000000000000000000000000000000000000000000082167f4e2312e0000000000000000000000000000000000000000000000000000000001480610742575061074282612883565b6000808360018111156120b4576120b46133f3565b146120d05760008281526006602052604090205460ff166120e3565b60008281526004602052604090205460ff165b9392505050565b6000612040611ff0565b6040517f91d148540000000000000000000000000000000000000000000000000000000081527fc9eb32e43bf5ecbceacf00b32281dfc5d6d700a0db676ea26ccf938a385ac3f76004820152306024820152600090829073ffffffffffffffffffffffffffffffffffffffff8216906391d1485490604401602060405180830381865afa158015612189573d6000803e3d6000fd5b505050506040513d601f19601f820116820180604052508101906120e391906134bf565b6121be816121b96120ea565b61291a565b50565b600082815260016020908152604080832073ffffffffffffffffffffffffffffffffffffffff8516845290915290205460ff16610e7957600082815260016020818152604080842073ffffffffffffffffffffffffffffffffffffffff8616855290915290912080547fffffffffffffffffffffffffffffffffffffffffffffffffffffffffffffff001690911790556122596120ea565b73ffffffffffffffffffffffffffffffffffffffff168173ffffffffffffffffffffffffffffffffffffffff16837f2f8788117e7eff1d82e926ec794901d17c78024a50270940304540a733656f0d60405160405180910390a45050565b600082815260016020908152604080832073ffffffffffffffffffffffffffffffffffffffff8516845290915290205460ff1615610e7957600082815260016020908152604080832073ffffffffffffffffffffffffffffffffffffffff85168452909152902080547fffffffffffffffffffffffffffffffffffffffffffffffffffffffffffffff0016905561234c6120ea565b73ffffffffffffffffffffffffffffffffffffffff168173ffffffffffffffffffffffffffffffffffffffff16837ff6391f5c32d9c69d2a47ea670b442974b53935d1edc7fd64eb21e047a839171b60405160405180910390a45050565b6040517f01ffc9a70000000000000000000000000000000000000000000000000000000081527fe67112700000000000000000000000000000000000000000000000000000000060048201528890849073ffffffffffffffffffffffffffffffffffffffff8316906301ffc9a790602401602060405180830381865afa158015612438573d6000803e3d6000fd5b505050506040513d601f19601f8201168201806040525081019061245c91906134bf565b6124c2576040517f08c379a000000000000000000000000000000000000000000000000000000000815260206004820152601660248201527f496e76616c6964206974656d7320636f6e74726163740000000000000000000060448201526064016107af565b60006124d08b878c8c610ef4565b90506000808d60018111156124e7576124e76133f3565b1461250357600082815260066020526040902060040154612517565b600082815260046020819052604090912001545b905060006040518061010001604052806001151581526020018d8d808060200260200160405190810160405280939291908181526020018383602002808284376000920191909152505050908252506040805160208d810282810182019093528d82529283019290918e918e91829185019084908082843760009201919091525050509082525060208101899052604081018490526060810188905273ffffffffffffffffffffffffffffffffffffffff8088166080830152861660a09091015290506125e48e846129ec565b6126715760008e60018111156125fc576125fc6133f3565b1461263b57600580546001810182556000919091527f036b6384b5eca791c62761152d0c79bb0604c104a5fb6f4eb0703f3154bb3db001839055612671565b600380546001810182556000919091527fc2575a0e9e593c00f959f8c92f12db2869c3395a3b0502d05e2516446f71f85b018390555b60008e6001811115612685576126856133f3565b14612780576000838152600660209081526040909120825181547fffffffffffffffffffffffffffffffffffffffffffffffffffffffffffffff001690151517815582820151805184936126e0926001850192910190612ca9565b50604082015180516126fc916002840191602090910190612ca9565b50606082015160038201556080820151600482015560a0820151600582015560c08201516006820180547fffffffffffffffffffffffff000000000000000000000000000000000000000090811673ffffffffffffffffffffffffffffffffffffffff9384161790915560e090930151600783018054909416911617909155612872565b6000838152600460209081526040909120825181547fffffffffffffffffffffffffffffffffffffffffffffffffffffffffffffff001690151517815582820151805184936127d6926001850192910190612ca9565b50604082015180516127f2916002840191602090910190612ca9565b50606082015160038201556080820151600482015560a0820151600582015560c08201516006820180547fffffffffffffffffffffffff000000000000000000000000000000000000000090811673ffffffffffffffffffffffffffffffffffffffff9384161790915560e0909301516007830180549094169116179091555b505050505050505050505050505050565b60007fffffffff0000000000000000000000000000000000000000000000000000000082167f7965db0b00000000000000000000000000000000000000000000000000000000148061074257507f01ffc9a7000000000000000000000000000000000000000000000000000000007fffffffff00000000000000000000000000000000000000000000000000000000831614610742565b600082815260016020908152604080832073ffffffffffffffffffffffffffffffffffffffff8516845290915290205460ff16610e79576129728173ffffffffffffffffffffffffffffffffffffffff166014612a66565b61297d836020612a66565b60405160200161298e929190613773565b604080517fffffffffffffffffffffffffffffffffffffffffffffffffffffffffffffffe0818403018152908290527f08c379a00000000000000000000000000000000000000000000000000000000082526107af916004016137f4565b600080836001811115612a0157612a016133f3565b14612a36576000828152600660208190526040909120015473ffffffffffffffffffffffffffffffffffffffff1615156120e3565b5060009081526004602052604090206006015473ffffffffffffffffffffffffffffffffffffffff161515919050565b60606000612a75836002613845565b612a8090600261373c565b67ffffffffffffffff811115612a9857612a98613158565b6040519080825280601f01601f191660200182016040528015612ac2576020820181803683370190505b5090507f300000000000000000000000000000000000000000000000000000000000000081600081518110612af957612af96135c7565b60200101907effffffffffffffffffffffffffffffffffffffffffffffffffffffffffffff1916908160001a9053507f780000000000000000000000000000000000000000000000000000000000000081600181518110612b5c57612b5c6135c7565b60200101907effffffffffffffffffffffffffffffffffffffffffffffffffffffffffffff1916908160001a9053506000612b98846002613845565b612ba390600161373c565b90505b6001811115612c40577f303132333435363738396162636465660000000000000000000000000000000085600f1660108110612be457612be46135c7565b1a60f81b828281518110612bfa57612bfa6135c7565b60200101907effffffffffffffffffffffffffffffffffffffffffffffffffffffffffffff1916908160001a90535060049490941c93612c3981613882565b9050612ba6565b5083156120e3576040517f08c379a000000000000000000000000000000000000000000000000000000000815260206004820181905260248201527f537472696e67733a20686578206c656e67746820696e73756666696369656e7460448201526064016107af565b828054828255906000526020600020908101928215612ce4579160200282015b82811115612ce4578251825591602001919060010190612cc9565b50612cf0929150612cf4565b5090565b5b80821115612cf05760008155600101612cf5565b600060208284031215612d1b57600080fd5b81357fffffffff00000000000000000000000000000000000000000000000000000000811681146120e357600080fd5b600060208284031215612d5d57600080fd5b5035919050565b6020808252825182820181905260009190848201906040850190845b81811015612d9c57835183529284019291840191600101612d80565b50909695505050505050565b600081518084526020808501945080840160005b83811015612dd857815187529582019590820190600101612dbc565b509495945050505050565b60006101008251151584526020830151816020860152612e0582860182612da8565b91505060408301518482036040860152612e1f8282612da8565b915050606083015160608501526080830151608085015260a083015160a085015273ffffffffffffffffffffffffffffffffffffffff60c08401511660c085015260e0830151612e8760e086018273ffffffffffffffffffffffffffffffffffffffff169052565b509392505050565b6020815260006120e36020830184612de3565b803573ffffffffffffffffffffffffffffffffffffffff81168114612ec657600080fd5b919050565b60008060408385031215612ede57600080fd5b82359150612eee60208401612ea2565b90509250929050565b60008083601f840112612f0957600080fd5b50813567ffffffffffffffff811115612f2157600080fd5b6020830191508360208260051b8501011115612f3c57600080fd5b9250929050565b60008060008060608587031215612f5957600080fd5b612f6285612ea2565b9350612f7060208601612ea2565b9250604085013567ffffffffffffffff811115612f8c57600080fd5b612f9887828801612ef7565b95989497509550505050565b60008060008060008060008060c0898b031215612fc057600080fd5b612fc989612ea2565b9750602089013567ffffffffffffffff80821115612fe657600080fd5b612ff28c838d01612ef7565b909950975060408b013591508082111561300b57600080fd5b506130188b828c01612ef7565b909650945061302b905060608a01612ea2565b92506080890135915060a089013590509295985092959890939650565b60006020828403121561305a57600080fd5b6120e382612ea2565b60008060006040848603121561307857600080fd5b61308184612ea2565b9250602084013567ffffffffffffffff81111561309d57600080fd5b6130a986828701612ef7565b9497909650939450505050565b600080604083850312156130c957600080fd5b50508035926020909101359150565b6000602080830181845280855180835260408601915060408160051b870101925083870160005b8281101561314b577fffffffffffffffffffffffffffffffffffffffffffffffffffffffffffffffc0888603018452613139858351612de3565b945092850192908501906001016130ff565b5092979650505050505050565b7f4e487b7100000000000000000000000000000000000000000000000000000000600052604160045260246000fd5b604051601f82017fffffffffffffffffffffffffffffffffffffffffffffffffffffffffffffffe016810167ffffffffffffffff811182821017156131ce576131ce613158565b604052919050565b600082601f8301126131e757600080fd5b8135602067ffffffffffffffff82111561320357613203613158565b8160051b613212828201613187565b928352848101820192828101908785111561322c57600080fd5b83870192505b8483101561324b57823582529183019190830190613232565b979650505050505050565b600082601f83011261326757600080fd5b813567ffffffffffffffff81111561328157613281613158565b6132b260207fffffffffffffffffffffffffffffffffffffffffffffffffffffffffffffffe0601f84011601613187565b8181528460208386010111156132c757600080fd5b816020850160208301376000918101602001919091529392505050565b600080600080600060a086880312156132fc57600080fd5b61330586612ea2565b945061331360208701612ea2565b9350604086013567ffffffffffffffff8082111561333057600080fd5b61333c89838a016131d6565b9450606088013591508082111561335257600080fd5b61335e89838a016131d6565b9350608088013591508082111561337457600080fd5b5061338188828901613256565b9150509295509295909350565b600080600080600060a086880312156133a657600080fd5b6133af86612ea2565b94506133bd60208701612ea2565b93506040860135925060608601359150608086013567ffffffffffffffff8111156133e757600080fd5b61338188828901613256565b7f4e487b7100000000000000000000000000000000000000000000000000000000600052602160045260246000fd5b6000815480845260208085019450836000528060002060005b83811015612dd85781548752958201956001918201910161343b565b600073ffffffffffffffffffffffffffffffffffffffff808716835280861660208401525060a0604083015261349060a0830185613422565b82810360608401526134a28185613422565b838103608090940193909352505060008152602001949350505050565b6000602082840312156134d157600080fd5b815180151581146120e357600080fd5b7f4e487b7100000000000000000000000000000000000000000000000000000000600052601160045260246000fd5b60007fffffffffffffffffffffffffffffffffffffffffffffffffffffffffffffffff8203613541576135416134e1565b5060010190565b60007fffffffffffffffffffffffffffffffffffffffff000000000000000000000000808760601b168352808660601b166014840152507f07ffffffffffffffffffffffffffffffffffffffffffffffffffffffffffffff8311156135ac57600080fd5b8260051b808560288501379190910160280195945050505050565b7f4e487b7100000000000000000000000000000000000000000000000000000000600052603260045260246000fd5b60006020828403121561360857600080fd5b5051919050565b600073ffffffffffffffffffffffffffffffffffffffff808816835260208188168185015260a060408501528560a08501527f07ffffffffffffffffffffffffffffffffffffffffffffffffffffffffffffff86111561366e57600080fd5b8560051b9150818760c086013760c09184018481038301606086015285519281018390528582019260009160e001905b808310156136be578451825293830193600192909201919083019061369e565b50858103608087015260008152602081019b9a5050505050505050505050565b73ffffffffffffffffffffffffffffffffffffffff8416815260606020820152600061370d6060830185613422565b828103604084015261371f8185613422565b9695505050505050565b81810381811115610742576107426134e1565b80820180821115610742576107426134e1565b60005b8381101561376a578181015183820152602001613752565b50506000910152565b7f416363657373436f6e74726f6c3a206163636f756e74200000000000000000008152600083516137ab81601785016020880161374f565b7f206973206d697373696e6720726f6c652000000000000000000000000000000060179184019182015283516137e881602884016020880161374f565b01602801949350505050565b602081526000825180602084015261381381604085016020870161374f565b601f017fffffffffffffffffffffffffffffffffffffffffffffffffffffffffffffffe0169190910160400192915050565b6000817fffffffffffffffffffffffffffffffffffffffffffffffffffffffffffffffff048311821515161561387d5761387d6134e1565b500290565b600081613891576138916134e1565b507fffffffffffffffffffffffffffffffffffffffffffffffffffffffffffffffff019056fea2646970667358221220f15e1e2ec57b3567228c56bd14e7ffc0aca08c0f2c144b7ee9ea24818fa140a464736f6c63430008100033",
  "linkReferences": {},
  "deployedLinkReferences": {}
}