{
  "_format": "hh-sol-artifact-1",
  "contractName": "Game_Items_Merchant",
  "sourceName": "contracts/Items_Merchant/Game_Items_Merchant.sol",
  "abi": [
    {
      "inputs": [
        {
          "internalType": "address",
          "name": "_forwarder",
          "type": "address"
        }
      ],
      "stateMutability": "nonpayable",
      "type": "constructor"
    },
    {
      "anonymous": false,
      "inputs": [
        {
          "indexed": true,
          "internalType": "bytes32",
          "name": "role",
          "type": "bytes32"
        },
        {
          "indexed": true,
          "internalType": "bytes32",
          "name": "previousAdminRole",
          "type": "bytes32"
        },
        {
          "indexed": true,
          "internalType": "bytes32",
          "name": "newAdminRole",
          "type": "bytes32"
        }
      ],
      "name": "RoleAdminChanged",
      "type": "event"
    },
    {
      "anonymous": false,
      "inputs": [
        {
          "indexed": true,
          "internalType": "bytes32",
          "name": "role",
          "type": "bytes32"
        },
        {
          "indexed": true,
          "internalType": "address",
          "name": "account",
          "type": "address"
        },
        {
          "indexed": true,
          "internalType": "address",
          "name": "sender",
          "type": "address"
        }
      ],
      "name": "RoleGranted",
      "type": "event"
    },
    {
      "anonymous": false,
      "inputs": [
        {
          "indexed": true,
          "internalType": "bytes32",
          "name": "role",
          "type": "bytes32"
        },
        {
          "indexed": true,
          "internalType": "address",
          "name": "account",
          "type": "address"
        },
        {
          "indexed": true,
          "internalType": "address",
          "name": "sender",
          "type": "address"
        }
      ],
      "name": "RoleRevoked",
      "type": "event"
    },
    {
      "inputs": [],
      "name": "DEFAULT_ADMIN_ROLE",
      "outputs": [
        {
          "internalType": "bytes32",
          "name": "",
          "type": "bytes32"
        }
      ],
      "stateMutability": "view",
      "type": "function"
    },
    {
      "inputs": [
        {
          "internalType": "bytes32",
          "name": "_itemOfferId",
          "type": "bytes32"
        }
      ],
      "name": "buy",
      "outputs": [],
      "stateMutability": "payable",
      "type": "function"
    },
    {
      "inputs": [
        {
          "internalType": "uint256",
          "name": "",
          "type": "uint256"
        }
      ],
      "name": "buyableItemOfferIds",
      "outputs": [
        {
          "internalType": "bytes32",
          "name": "",
          "type": "bytes32"
        }
      ],
      "stateMutability": "view",
      "type": "function"
    },
    {
      "inputs": [
        {
          "internalType": "bytes32",
          "name": "",
          "type": "bytes32"
        }
      ],
      "name": "buyableItemOffers",
      "outputs": [
        {
          "internalType": "bool",
          "name": "isActive",
          "type": "bool"
        },
        {
          "internalType": "uint256",
          "name": "currencyAmount",
          "type": "uint256"
        },
        {
          "internalType": "uint256",
          "name": "uses",
          "type": "uint256"
        },
        {
          "internalType": "uint256",
          "name": "maxUses",
          "type": "uint256"
        },
        {
          "internalType": "contract IERC1155_Game_Items",
          "name": "items",
          "type": "address"
        },
        {
          "internalType": "contract IERC20",
          "name": "currency",
          "type": "address"
        }
      ],
      "stateMutability": "view",
      "type": "function"
    },
    {
      "inputs": [
        {
          "internalType": "address",
          "name": "_itemsAddress",
          "type": "address"
        },
        {
          "internalType": "address",
          "name": "_currencyAddress",
          "type": "address"
        },
        {
          "internalType": "uint256[]",
          "name": "_itemIds",
          "type": "uint256[]"
        }
      ],
      "name": "generateItemOfferId",
      "outputs": [
        {
          "internalType": "bytes32",
          "name": "",
          "type": "bytes32"
        }
      ],
      "stateMutability": "pure",
      "type": "function"
    },
    {
      "inputs": [
        {
          "internalType": "bytes32",
          "name": "_itemOfferId",
          "type": "bytes32"
        }
      ],
      "name": "getBuyableItemOffer",
      "outputs": [
        {
          "components": [
            {
              "internalType": "bool",
              "name": "isActive",
              "type": "bool"
            },
            {
              "internalType": "uint256[]",
              "name": "itemIds",
              "type": "uint256[]"
            },
            {
              "internalType": "uint256[]",
              "name": "itemAmounts",
              "type": "uint256[]"
            },
            {
              "internalType": "uint256",
              "name": "currencyAmount",
              "type": "uint256"
            },
            {
              "internalType": "uint256",
              "name": "uses",
              "type": "uint256"
            },
            {
              "internalType": "uint256",
              "name": "maxUses",
              "type": "uint256"
            },
            {
              "internalType": "contract IERC1155_Game_Items",
              "name": "items",
              "type": "address"
            },
            {
              "internalType": "contract IERC20",
              "name": "currency",
              "type": "address"
            }
          ],
          "internalType": "struct IGame_Items_Merchant.ItemOffer",
          "name": "",
          "type": "tuple"
        }
      ],
      "stateMutability": "view",
      "type": "function"
    },
    {
      "inputs": [
        {
          "internalType": "bytes32",
          "name": "role",
          "type": "bytes32"
        }
      ],
      "name": "getRoleAdmin",
      "outputs": [
        {
          "internalType": "bytes32",
          "name": "",
          "type": "bytes32"
        }
      ],
      "stateMutability": "view",
      "type": "function"
    },
    {
      "inputs": [
        {
          "internalType": "bytes32",
          "name": "_itemOfferId",
          "type": "bytes32"
        }
      ],
      "name": "getSellableItemOffer",
      "outputs": [
        {
          "components": [
            {
              "internalType": "bool",
              "name": "isActive",
              "type": "bool"
            },
            {
              "internalType": "uint256[]",
              "name": "itemIds",
              "type": "uint256[]"
            },
            {
              "internalType": "uint256[]",
              "name": "itemAmounts",
              "type": "uint256[]"
            },
            {
              "internalType": "uint256",
              "name": "currencyAmount",
              "type": "uint256"
            },
            {
              "internalType": "uint256",
              "name": "uses",
              "type": "uint256"
            },
            {
              "internalType": "uint256",
              "name": "maxUses",
              "type": "uint256"
            },
            {
              "internalType": "contract IERC1155_Game_Items",
              "name": "items",
              "type": "address"
            },
            {
              "internalType": "contract IERC20",
              "name": "currency",
              "type": "address"
            }
          ],
          "internalType": "struct IGame_Items_Merchant.ItemOffer",
          "name": "",
          "type": "tuple"
        }
      ],
      "stateMutability": "view",
      "type": "function"
    },
    {
      "inputs": [
        {
          "internalType": "bytes32",
          "name": "role",
          "type": "bytes32"
        },
        {
          "internalType": "address",
          "name": "account",
          "type": "address"
        }
      ],
      "name": "grantRole",
      "outputs": [],
      "stateMutability": "nonpayable",
      "type": "function"
    },
    {
      "inputs": [
        {
          "internalType": "bytes32",
          "name": "role",
          "type": "bytes32"
        },
        {
          "internalType": "address",
          "name": "account",
          "type": "address"
        }
      ],
      "name": "hasRole",
      "outputs": [
        {
          "internalType": "bool",
          "name": "",
          "type": "bool"
        }
      ],
      "stateMutability": "view",
      "type": "function"
    },
    {
      "inputs": [
        {
          "internalType": "address",
          "name": "forwarder",
          "type": "address"
        }
      ],
      "name": "isTrustedForwarder",
      "outputs": [
        {
          "internalType": "bool",
          "name": "",
          "type": "bool"
        }
      ],
      "stateMutability": "view",
      "type": "function"
    },
    {
      "inputs": [
        {
          "internalType": "bytes32",
          "name": "_itemOfferId",
          "type": "bytes32"
        }
      ],
      "name": "removeBuyableItemOffer",
      "outputs": [],
      "stateMutability": "nonpayable",
      "type": "function"
    },
    {
      "inputs": [
        {
          "internalType": "bytes32",
          "name": "_itemOfferId",
          "type": "bytes32"
        }
      ],
      "name": "removeSellableItemOffer",
      "outputs": [],
      "stateMutability": "nonpayable",
      "type": "function"
    },
    {
      "inputs": [
        {
          "internalType": "bytes32",
          "name": "role",
          "type": "bytes32"
        },
        {
          "internalType": "address",
          "name": "account",
          "type": "address"
        }
      ],
      "name": "renounceRole",
      "outputs": [],
      "stateMutability": "nonpayable",
      "type": "function"
    },
    {
      "inputs": [
        {
          "internalType": "bytes32",
          "name": "role",
          "type": "bytes32"
        },
        {
          "internalType": "address",
          "name": "account",
          "type": "address"
        }
      ],
      "name": "revokeRole",
      "outputs": [],
      "stateMutability": "nonpayable",
      "type": "function"
    },
    {
      "inputs": [
        {
          "internalType": "bytes32",
          "name": "_itemOfferId",
          "type": "bytes32"
        }
      ],
      "name": "sell",
      "outputs": [],
      "stateMutability": "nonpayable",
      "type": "function"
    },
    {
      "inputs": [
        {
          "internalType": "uint256",
          "name": "",
          "type": "uint256"
        }
      ],
      "name": "sellableItemOfferIds",
      "outputs": [
        {
          "internalType": "bytes32",
          "name": "",
          "type": "bytes32"
        }
      ],
      "stateMutability": "view",
      "type": "function"
    },
    {
      "inputs": [
        {
          "internalType": "bytes32",
          "name": "",
          "type": "bytes32"
        }
      ],
      "name": "sellableItemOffers",
      "outputs": [
        {
          "internalType": "bool",
          "name": "isActive",
          "type": "bool"
        },
        {
          "internalType": "uint256",
          "name": "currencyAmount",
          "type": "uint256"
        },
        {
          "internalType": "uint256",
          "name": "uses",
          "type": "uint256"
        },
        {
          "internalType": "uint256",
          "name": "maxUses",
          "type": "uint256"
        },
        {
          "internalType": "contract IERC1155_Game_Items",
          "name": "items",
          "type": "address"
        },
        {
          "internalType": "contract IERC20",
          "name": "currency",
          "type": "address"
        }
      ],
      "stateMutability": "view",
      "type": "function"
    },
    {
      "inputs": [
        {
          "internalType": "address",
          "name": "_itemsAddress",
          "type": "address"
        },
        {
          "internalType": "uint256[]",
          "name": "_itemIds",
          "type": "uint256[]"
        },
        {
          "internalType": "uint256[]",
          "name": "_itemAmounts",
          "type": "uint256[]"
        },
        {
          "internalType": "address",
          "name": "_currencyAddress",
          "type": "address"
        },
        {
          "internalType": "uint256",
          "name": "_currencyAmount",
          "type": "uint256"
        },
        {
          "internalType": "uint256",
          "name": "_maxUses",
          "type": "uint256"
        }
      ],
      "name": "setBuyableItemOffer",
      "outputs": [],
      "stateMutability": "nonpayable",
      "type": "function"
    },
    {
      "inputs": [
        {
          "internalType": "address",
          "name": "_itemsAddress",
          "type": "address"
        },
        {
          "internalType": "uint256[]",
          "name": "_itemIds",
          "type": "uint256[]"
        },
        {
          "internalType": "uint256[]",
          "name": "_itemAmounts",
          "type": "uint256[]"
        },
        {
          "internalType": "address",
          "name": "_currencyAddress",
          "type": "address"
        },
        {
          "internalType": "uint256",
          "name": "_currencyAmount",
          "type": "uint256"
        },
        {
          "internalType": "uint256",
          "name": "_maxUses",
          "type": "uint256"
        }
      ],
      "name": "setSellableItemOffer",
      "outputs": [],
      "stateMutability": "nonpayable",
      "type": "function"
    },
    {
      "inputs": [
        {
          "internalType": "bytes4",
          "name": "interfaceId",
          "type": "bytes4"
        }
      ],
      "name": "supportsInterface",
      "outputs": [
        {
          "internalType": "bool",
          "name": "",
          "type": "bool"
        }
      ],
      "stateMutability": "view",
      "type": "function"
    },
    {
      "inputs": [],
      "name": "totalBuyableItemOffers",
      "outputs": [
        {
          "internalType": "uint256",
          "name": "",
          "type": "uint256"
        }
      ],
      "stateMutability": "view",
      "type": "function"
    },
    {
      "inputs": [],
      "name": "totalSellableItemOffers",
      "outputs": [
        {
          "internalType": "uint256",
          "name": "",
          "type": "uint256"
        }
      ],
      "stateMutability": "view",
      "type": "function"
    },
    {
      "inputs": [
        {
          "internalType": "address",
          "name": "_newTrustedForwarder",
          "type": "address"
        }
      ],
      "name": "upgradeTrustedForwarder",
      "outputs": [],
      "stateMutability": "nonpayable",
      "type": "function"
    },
    {
      "inputs": [],
      "name": "withdraw",
      "outputs": [],
      "stateMutability": "nonpayable",
      "type": "function"
    },
    {
      "inputs": [
        {
          "internalType": "address",
          "name": "_currencyAddress",
          "type": "address"
        }
      ],
      "name": "withdrawCurrency",
      "outputs": [],
      "stateMutability": "nonpayable",
      "type": "function"
    },
    {
      "inputs": [
        {
          "internalType": "address",
          "name": "_itemsAddress",
          "type": "address"
        },
        {
          "internalType": "uint256[]",
          "name": "_itemIds",
          "type": "uint256[]"
        }
      ],
      "name": "withdrawItems",
      "outputs": [],
      "stateMutability": "nonpayable",
      "type": "function"
    }
  ],
  "bytecode": "0x60806040523480156200001157600080fd5b5060405162003074380380620030748339810160408190526200003491620001ac565b600080546001600160a01b0319166001600160a01b03831617815560016002556200006990620000636200009f565b620000bb565b620000987fc9fc9949603a50f5cc3a96f774f1d68287789a241d2082dc81d0fb19a53bcf2b620000636200009f565b50620001de565b6000620000b6620000cb60201b6200192a1760201c565b905090565b620000c7828262000101565b5050565b600080546001600160a01b03163303620000ec575060131936013560601c90565b620000b6620001a860201b6200197f1760201c565b60008281526001602090815260408083206001600160a01b038516845290915290205460ff16620000c75760008281526001602081815260408084206001600160a01b0386168552909152909120805460ff19169091179055620001646200009f565b6001600160a01b0316816001600160a01b0316837f2f8788117e7eff1d82e926ec794901d17c78024a50270940304540a733656f0d60405160405180910390a45050565b3390565b600060208284031215620001bf57600080fd5b81516001600160a01b0381168114620001d757600080fd5b9392505050565b612e8680620001ee6000396000f3fe6080604052600436106101ac5760003560e01c806391d14854116100ec578063c9182fa51161008a578063e8e5180211610064578063e8e51802146104ea578063f0e742b51461050a578063f2b7d542146105c0578063fc3d74c61461062f57600080fd5b8063c9182fa51461048a578063cb686303146104aa578063d547741f146104ca57600080fd5b8063a071a159116100c6578063a071a15914610415578063a217fddf14610435578063aa2a7eea1461044a578063c40825711461046a57600080fd5b806391d148541461039a578063940315f0146103ed5780639c9a10611461040257600080fd5b80633ccfd60b11610159578063572b6c0511610133578063572b6c0514610309578063724e3c741461034557806384ed8d9414610365578063851f966f1461037a57600080fd5b80633ccfd60b146102b457806347aff48a146102c9578063498c9577146102e957600080fd5b8063248a9ca31161018a578063248a9ca3146102355780632f2ff15d1461027457806336568abe1461029457600080fd5b806301ffc9a7146101b15780630c2533cb146101e657806321fd3f8114610208575b600080fd5b3480156101bd57600080fd5b506101d16101cc3660046125ed565b61064f565b60405190151581526020015b60405180910390f35b3480156101f257600080fd5b5061020661020136600461262f565b6106ab565b005b34801561021457600080fd5b5061022861022336600461262f565b610af0565b6040516101dd9190612683565b34801561024157600080fd5b5061026661025036600461262f565b6000908152600160208190526040909120015490565b6040519081526020016101dd565b34801561028057600080fd5b5061020661028f366004612785565b610c8d565b3480156102a057600080fd5b506102066102af366004612785565b610cb8565b3480156102c057600080fd5b50610206610d88565b3480156102d557600080fd5b506102666102e43660046127fd565b610dff565b3480156102f557600080fd5b5061020661030436600461285e565b610e38565b34801561031557600080fd5b506101d1610324366004612902565b60005473ffffffffffffffffffffffffffffffffffffffff91821691161490565b34801561035157600080fd5b5061020661036036600461291d565b610e7f565b34801561037157600080fd5b50600354610266565b34801561038657600080fd5b5061020661039536600461262f565b611077565b3480156103a657600080fd5b506101d16103b5366004612785565b600091825260016020908152604080842073ffffffffffffffffffffffffffffffffffffffff93909316845291905290205460ff1690565b3480156103f957600080fd5b50600554610266565b61020661041036600461262f565b6110d8565b34801561042157600080fd5b5061026661043036600461262f565b611495565b34801561044157600080fd5b50610266600081565b34801561045657600080fd5b50610206610465366004612902565b6114b6565b34801561047657600080fd5b5061020661048536600461262f565b611524565b34801561049657600080fd5b506102066104a536600461285e565b611585565b3480156104b657600080fd5b506102286104c536600461262f565b6115c1565b3480156104d657600080fd5b506102066104e5366004612785565b61175a565b3480156104f657600080fd5b5061026661050536600461262f565b611780565b34801561051657600080fd5b5061057861052536600461262f565b600660208190526000918252604090912080546003820154600483015460058401549484015460079094015460ff909316949193909273ffffffffffffffffffffffffffffffffffffffff918216911686565b604080519615158752602087019590955293850192909252606084015273ffffffffffffffffffffffffffffffffffffffff90811660808401521660a082015260c0016101dd565b3480156105cc57600080fd5b506105786105db36600461262f565b600460208190526000918252604090912080546003820154928201546005830154600684015460079094015460ff90931694939192909173ffffffffffffffffffffffffffffffffffffffff908116911686565b34801561063b57600080fd5b5061020661064a366004612902565b611790565b60007fffffffff0000000000000000000000000000000000000000000000000000000082167f16c03de80000000000000000000000000000000000000000000000000000000014806106a557506106a582611983565b92915050565b60008181526006602052604090206005810154600191839115806106d6575080600501548160040154105b61071b576040517f08c379a000000000000000000000000000000000000000000000000000000000815260206004820152600060248201526044015b60405180910390fd5b6002805403610786576040517f08c379a000000000000000000000000000000000000000000000000000000000815260206004820152601f60248201527f5265656e7472616e637947756172643a207265656e7472616e742063616c6c006044820152606401610712565b60028055610795600185611a1a565b610821576040517f08c379a000000000000000000000000000000000000000000000000000000000815260206004820152602a60248201527f6974656d4f666665724964206973206e6f7420612076616c69642073656c6c6160448201527f626c65206f666665722e000000000000000000000000000000000000000000006064820152608401610712565b60008481526006602081905260409091209081015473ffffffffffffffffffffffffffffffffffffffff16632eb2c2d6610859611a65565b3084600101856002016040518563ffffffff1660e01b815260040161088194939291906129d4565b600060405180830381600087803b15801561089b57600080fd5b505af11580156108af573d6000803e3d6000fd5b50505050600781015473ffffffffffffffffffffffffffffffffffffffff1615610a7a5760078101546108f79073ffffffffffffffffffffffffffffffffffffffff16611a6f565b156109b357600781015473ffffffffffffffffffffffffffffffffffffffff16806340c10f19610925611a65565b60038501546040517fffffffff0000000000000000000000000000000000000000000000000000000060e085901b16815273ffffffffffffffffffffffffffffffffffffffff90921660048301526024820152604401600060405180830381600087803b15801561099557600080fd5b505af11580156109a9573d6000803e3d6000fd5b5050505050610acd565b600781015473ffffffffffffffffffffffffffffffffffffffff1663a9059cbb6109db611a65565b60038401546040517fffffffff0000000000000000000000000000000000000000000000000000000060e085901b16815273ffffffffffffffffffffffffffffffffffffffff909216600483015260248201526044016020604051808303816000875af1158015610a50573d6000803e3d6000fd5b505050506040513d601f19601f82011682018060405250810190610a749190612a3c565b50610acd565b610a82611a65565b73ffffffffffffffffffffffffffffffffffffffff166108fc82600301549081150290604051600060405180830381858888f19350505050158015610acb573d6000803e3d6000fd5b505b600481018054906000610adf83612a8d565b909155505060016002555050505050565b610b666040518061010001604052806000151581526020016060815260200160608152602001600081526020016000815260200160008152602001600073ffffffffffffffffffffffffffffffffffffffff168152602001600073ffffffffffffffffffffffffffffffffffffffff1681525090565b600082815260066020908152604091829020825161010081018452815460ff161515815260018201805485518186028101860190965280865291949293858101939290830182828015610bd857602002820191906000526020600020905b815481526020019060010190808311610bc4575b5050505050815260200160028201805480602002602001604051908101604052809291908181526020018280548015610c3057602002820191906000526020600020905b815481526020019060010190808311610c1c575b5050509183525050600382015460208201526004820154604082015260058201546060820152600682015473ffffffffffffffffffffffffffffffffffffffff908116608083015260079092015490911660a09091015292915050565b60008281526001602081905260409091200154610ca981611b28565b610cb38383611b3c565b505050565b610cc0611a65565b73ffffffffffffffffffffffffffffffffffffffff168173ffffffffffffffffffffffffffffffffffffffff1614610d7a576040517f08c379a000000000000000000000000000000000000000000000000000000000815260206004820152602f60248201527f416363657373436f6e74726f6c3a2063616e206f6e6c792072656e6f756e636560448201527f20726f6c657320666f722073656c6600000000000000000000000000000000006064820152608401610712565b610d848282611c32565b5050565b7fc9fc9949603a50f5cc3a96f774f1d68287789a241d2082dc81d0fb19a53bcf2b610db281611b28565b610dba611a65565b73ffffffffffffffffffffffffffffffffffffffff166108fc479081150290604051600060405180830381858888f19350505050158015610d84573d6000803e3d6000fd5b600084848484604051602001610e189493929190612ac5565b604051602081830303815290604052805190602001209050949350505050565b7fc9fc9949603a50f5cc3a96f774f1d68287789a241d2082dc81d0fb19a53bcf2b610e6281611b28565b610e7460008a8a8a8a8a8a8a8a611d25565b505050505050505050565b7fc9fc9949603a50f5cc3a96f774f1d68287789a241d2082dc81d0fb19a53bcf2b610ea981611b28565b8360008367ffffffffffffffff811115610ec557610ec5612b44565b604051908082528060200260200182016040528015610eee578160200160208202803683370190505b50905060005b84811015610ff4578273ffffffffffffffffffffffffffffffffffffffff1662fdd58e30888885818110610f2a57610f2a612b73565b6040517fffffffff0000000000000000000000000000000000000000000000000000000060e087901b16815273ffffffffffffffffffffffffffffffffffffffff90941660048501526020029190910135602483015250604401602060405180830381865afa158015610fa1573d6000803e3d6000fd5b505050506040513d601f19601f82011682018060405250810190610fc59190612ba2565b828281518110610fd757610fd7612b73565b602090810291909101015280610fec81612a8d565b915050610ef4565b508173ffffffffffffffffffffffffffffffffffffffff16632eb2c2d63061101a611a65565b8888866040518663ffffffff1660e01b815260040161103d959493929190612bbb565b600060405180830381600087803b15801561105757600080fd5b505af115801561106b573d6000803e3d6000fd5b50505050505050505050565b7fc9fc9949603a50f5cc3a96f774f1d68287789a241d2082dc81d0fb19a53bcf2b6110a181611b28565b50600090815260066020526040902080547fffffffffffffffffffffffffffffffffffffffffffffffffffffffffffffff00169055565b600081815260046020526040812060058101548391901580611101575080600501548160040154105b611141576040517f08c379a00000000000000000000000000000000000000000000000000000000081526020600482015260006024820152604401610712565b60028054036111ac576040517f08c379a000000000000000000000000000000000000000000000000000000000815260206004820152601f60248201527f5265656e7472616e637947756172643a207265656e7472616e742063616c6c006044820152606401610712565b600280556111bb600085611a1a565b611247576040517f08c379a000000000000000000000000000000000000000000000000000000000815260206004820152602960248201527f6974656d4f666665724964206973206e6f7420612076616c696420627579616260448201527f6c65206f666665722e00000000000000000000000000000000000000000000006064820152608401610712565b6000848152600460205260409020600781015473ffffffffffffffffffffffffffffffffffffffff161561134257600781015473ffffffffffffffffffffffffffffffffffffffff166323b872dd61129d611a65565b60038401546040517fffffffff0000000000000000000000000000000000000000000000000000000060e085901b16815273ffffffffffffffffffffffffffffffffffffffff909216600483015230602483015260448201526064016020604051808303816000875af1158015611318573d6000803e3d6000fd5b505050506040513d601f19601f8201168201806040525081019061133c9190612a3c565b50611353565b806003015434101561135357600080fd5b60068101546113779073ffffffffffffffffffffffffffffffffffffffff16611a6f565b1561140157600681015473ffffffffffffffffffffffffffffffffffffffff166308f427c76113a4611a65565b83600101846002016040518463ffffffff1660e01b81526004016113ca93929190612c8a565b600060405180830381600087803b1580156113e457600080fd5b505af11580156113f8573d6000803e3d6000fd5b50505050610acd565b600681015473ffffffffffffffffffffffffffffffffffffffff16632eb2c2d63061142a611a65565b84600101856002016040518563ffffffff1660e01b815260040161145194939291906129d4565b600060405180830381600087803b15801561146b57600080fd5b505af115801561147f573d6000803e3d6000fd5b50505050600481018054906000610adf83612a8d565b600581815481106114a557600080fd5b600091825260209091200154905081565b7fc9fc9949603a50f5cc3a96f774f1d68287789a241d2082dc81d0fb19a53bcf2b6114e081611b28565b600080547fffffffffffffffffffffffff00000000000000000000000000000000000000001673ffffffffffffffffffffffffffffffffffffffff84161790555050565b7fc9fc9949603a50f5cc3a96f774f1d68287789a241d2082dc81d0fb19a53bcf2b61154e81611b28565b50600090815260046020526040902080547fffffffffffffffffffffffffffffffffffffffffffffffffffffffffffffff00169055565b7fc9fc9949603a50f5cc3a96f774f1d68287789a241d2082dc81d0fb19a53bcf2b6115af81611b28565b610e7460018a8a8a8a8a8a8a8a611d25565b6116376040518061010001604052806000151581526020016060815260200160608152602001600081526020016000815260200160008152602001600073ffffffffffffffffffffffffffffffffffffffff168152602001600073ffffffffffffffffffffffffffffffffffffffff1681525090565b600082815260046020908152604091829020825161010081018452815460ff161515815260018201805485518186028101860190965280865291949293858101939290830182828015610bd85760200282019190600052602060002090815481526020019060010190808311610bc4575050505050815260200160028201805480602002602001604051908101604052809291908181526020018280548015610c305760200282019190600052602060002090815481526020019060010190808311610c1c575050509183525050600382015460208201526004820154604082015260058201546060820152600682015473ffffffffffffffffffffffffffffffffffffffff908116608083015260079092015490911660a09091015292915050565b6000828152600160208190526040909120015461177681611b28565b610cb38383611c32565b600381815481106114a557600080fd5b7fc9fc9949603a50f5cc3a96f774f1d68287789a241d2082dc81d0fb19a53bcf2b6117ba81611b28565b8173ffffffffffffffffffffffffffffffffffffffff811663a9059cbb6117df611a65565b8373ffffffffffffffffffffffffffffffffffffffff166370a08231611803611a65565b6040517fffffffff0000000000000000000000000000000000000000000000000000000060e084901b16815273ffffffffffffffffffffffffffffffffffffffff9091166004820152602401602060405180830381865afa15801561186c573d6000803e3d6000fd5b505050506040513d601f19601f820116820180604052508101906118909190612ba2565b6040517fffffffff0000000000000000000000000000000000000000000000000000000060e085901b16815273ffffffffffffffffffffffffffffffffffffffff909216600483015260248201526044016020604051808303816000875af1158015611900573d6000803e3d6000fd5b505050506040513d601f19601f820116820180604052508101906119249190612a3c565b50505050565b6000805473ffffffffffffffffffffffffffffffffffffffff16330361197557507fffffffffffffffffffffffffffffffffffffffffffffffffffffffffffffffec36013560601c90565b503390565b905090565b3390565b60007fffffffff0000000000000000000000000000000000000000000000000000000082167f7965db0b0000000000000000000000000000000000000000000000000000000014806106a557507f01ffc9a7000000000000000000000000000000000000000000000000000000007fffffffff000000000000000000000000000000000000000000000000000000008316146106a5565b600080836001811115611a2f57611a2f612970565b14611a4b5760008281526006602052604090205460ff16611a5e565b60008281526004602052604090205460ff165b9392505050565b600061197a61192a565b6040517f91d148540000000000000000000000000000000000000000000000000000000081527fc9eb32e43bf5ecbceacf00b32281dfc5d6d700a0db676ea26ccf938a385ac3f76004820152306024820152600090829073ffffffffffffffffffffffffffffffffffffffff8216906391d1485490604401602060405180830381865afa158015611b04573d6000803e3d6000fd5b505050506040513d601f19601f82011682018060405250810190611a5e9190612a3c565b611b3981611b34611a65565b6121fe565b50565b600082815260016020908152604080832073ffffffffffffffffffffffffffffffffffffffff8516845290915290205460ff16610d8457600082815260016020818152604080842073ffffffffffffffffffffffffffffffffffffffff8616855290915290912080547fffffffffffffffffffffffffffffffffffffffffffffffffffffffffffffff00169091179055611bd4611a65565b73ffffffffffffffffffffffffffffffffffffffff168173ffffffffffffffffffffffffffffffffffffffff16837f2f8788117e7eff1d82e926ec794901d17c78024a50270940304540a733656f0d60405160405180910390a45050565b600082815260016020908152604080832073ffffffffffffffffffffffffffffffffffffffff8516845290915290205460ff1615610d8457600082815260016020908152604080832073ffffffffffffffffffffffffffffffffffffffff85168452909152902080547fffffffffffffffffffffffffffffffffffffffffffffffffffffffffffffff00169055611cc7611a65565b73ffffffffffffffffffffffffffffffffffffffff168173ffffffffffffffffffffffffffffffffffffffff16837ff6391f5c32d9c69d2a47ea670b442974b53935d1edc7fd64eb21e047a839171b60405160405180910390a45050565b6040517f01ffc9a70000000000000000000000000000000000000000000000000000000081527fe75bea3a0000000000000000000000000000000000000000000000000000000060048201528890849073ffffffffffffffffffffffffffffffffffffffff8316906301ffc9a790602401602060405180830381865afa158015611db3573d6000803e3d6000fd5b505050506040513d601f19601f82011682018060405250810190611dd79190612a3c565b611e3d576040517f08c379a000000000000000000000000000000000000000000000000000000000815260206004820152601660248201527f496e76616c6964206974656d7320636f6e7472616374000000000000000000006044820152606401610712565b6000611e4b8b878c8c610dff565b90506000808d6001811115611e6257611e62612970565b14611e7e57600082815260066020526040902060040154611e92565b600082815260046020819052604090912001545b905060006040518061010001604052806001151581526020018d8d808060200260200160405190810160405280939291908181526020018383602002808284376000920191909152505050908252506040805160208d810282810182019093528d82529283019290918e918e91829185019084908082843760009201919091525050509082525060208101899052604081018490526060810188905273ffffffffffffffffffffffffffffffffffffffff8088166080830152861660a0909101529050611f5f8e846122d0565b611fec5760008e6001811115611f7757611f77612970565b14611fb657600580546001810182556000919091527f036b6384b5eca791c62761152d0c79bb0604c104a5fb6f4eb0703f3154bb3db001839055611fec565b600380546001810182556000919091527fc2575a0e9e593c00f959f8c92f12db2869c3395a3b0502d05e2516446f71f85b018390555b60008e600181111561200057612000612970565b146120fb576000838152600660209081526040909120825181547fffffffffffffffffffffffffffffffffffffffffffffffffffffffffffffff0016901515178155828201518051849361205b92600185019291019061258d565b506040820151805161207791600284019160209091019061258d565b50606082015160038201556080820151600482015560a0820151600582015560c08201516006820180547fffffffffffffffffffffffff000000000000000000000000000000000000000090811673ffffffffffffffffffffffffffffffffffffffff9384161790915560e0909301516007830180549094169116179091556121ed565b6000838152600460209081526040909120825181547fffffffffffffffffffffffffffffffffffffffffffffffffffffffffffffff0016901515178155828201518051849361215192600185019291019061258d565b506040820151805161216d91600284019160209091019061258d565b50606082015160038201556080820151600482015560a0820151600582015560c08201516006820180547fffffffffffffffffffffffff000000000000000000000000000000000000000090811673ffffffffffffffffffffffffffffffffffffffff9384161790915560e0909301516007830180549094169116179091555b505050505050505050505050505050565b600082815260016020908152604080832073ffffffffffffffffffffffffffffffffffffffff8516845290915290205460ff16610d84576122568173ffffffffffffffffffffffffffffffffffffffff16601461234a565b61226183602061234a565b604051602001612272929190612cf9565b604080517fffffffffffffffffffffffffffffffffffffffffffffffffffffffffffffffe0818403018152908290527f08c379a000000000000000000000000000000000000000000000000000000000825261071291600401612d7a565b6000808360018111156122e5576122e5612970565b1461231a576000828152600660208190526040909120015473ffffffffffffffffffffffffffffffffffffffff161515611a5e565b5060009081526004602052604090206006015473ffffffffffffffffffffffffffffffffffffffff161515919050565b60606000612359836002612dcb565b612364906002612e08565b67ffffffffffffffff81111561237c5761237c612b44565b6040519080825280601f01601f1916602001820160405280156123a6576020820181803683370190505b5090507f3000000000000000000000000000000000000000000000000000000000000000816000815181106123dd576123dd612b73565b60200101907effffffffffffffffffffffffffffffffffffffffffffffffffffffffffffff1916908160001a9053507f78000000000000000000000000000000000000000000000000000000000000008160018151811061244057612440612b73565b60200101907effffffffffffffffffffffffffffffffffffffffffffffffffffffffffffff1916908160001a905350600061247c846002612dcb565b612487906001612e08565b90505b6001811115612524577f303132333435363738396162636465660000000000000000000000000000000085600f16601081106124c8576124c8612b73565b1a60f81b8282815181106124de576124de612b73565b60200101907effffffffffffffffffffffffffffffffffffffffffffffffffffffffffffff1916908160001a90535060049490941c9361251d81612e1b565b905061248a565b508315611a5e576040517f08c379a000000000000000000000000000000000000000000000000000000000815260206004820181905260248201527f537472696e67733a20686578206c656e67746820696e73756666696369656e746044820152606401610712565b8280548282559060005260206000209081019282156125c8579160200282015b828111156125c85782518255916020019190600101906125ad565b506125d49291506125d8565b5090565b5b808211156125d457600081556001016125d9565b6000602082840312156125ff57600080fd5b81357fffffffff0000000000000000000000000000000000000000000000000000000081168114611a5e57600080fd5b60006020828403121561264157600080fd5b5035919050565b600081518084526020808501945080840160005b838110156126785781518752958201959082019060010161265c565b509495945050505050565b60208152815115156020820152600060208301516101008060408501526126ae610120850183612648565b915060408501517fffffffffffffffffffffffffffffffffffffffffffffffffffffffffffffffe08584030160608601526126e98382612648565b92505060608501516080850152608085015160a085015260a085015160c085015260c085015161273160e086018273ffffffffffffffffffffffffffffffffffffffff169052565b5060e085015173ffffffffffffffffffffffffffffffffffffffff8116858301525090949350505050565b803573ffffffffffffffffffffffffffffffffffffffff8116811461278057600080fd5b919050565b6000806040838503121561279857600080fd5b823591506127a86020840161275c565b90509250929050565b60008083601f8401126127c357600080fd5b50813567ffffffffffffffff8111156127db57600080fd5b6020830191508360208260051b85010111156127f657600080fd5b9250929050565b6000806000806060858703121561281357600080fd5b61281c8561275c565b935061282a6020860161275c565b9250604085013567ffffffffffffffff81111561284657600080fd5b612852878288016127b1565b95989497509550505050565b60008060008060008060008060c0898b03121561287a57600080fd5b6128838961275c565b9750602089013567ffffffffffffffff808211156128a057600080fd5b6128ac8c838d016127b1565b909950975060408b01359150808211156128c557600080fd5b506128d28b828c016127b1565b90965094506128e5905060608a0161275c565b92506080890135915060a089013590509295985092959890939650565b60006020828403121561291457600080fd5b611a5e8261275c565b60008060006040848603121561293257600080fd5b61293b8461275c565b9250602084013567ffffffffffffffff81111561295757600080fd5b612963868287016127b1565b9497909650939450505050565b7f4e487b7100000000000000000000000000000000000000000000000000000000600052602160045260246000fd5b6000815480845260208085019450836000528060002060005b83811015612678578154875295820195600191820191016129b8565b600073ffffffffffffffffffffffffffffffffffffffff808716835280861660208401525060a06040830152612a0d60a083018561299f565b8281036060840152612a1f818561299f565b838103608090940193909352505060008152602001949350505050565b600060208284031215612a4e57600080fd5b81518015158114611a5e57600080fd5b7f4e487b7100000000000000000000000000000000000000000000000000000000600052601160045260246000fd5b60007fffffffffffffffffffffffffffffffffffffffffffffffffffffffffffffffff8203612abe57612abe612a5e565b5060010190565b60007fffffffffffffffffffffffffffffffffffffffff000000000000000000000000808760601b168352808660601b166014840152507f07ffffffffffffffffffffffffffffffffffffffffffffffffffffffffffffff831115612b2957600080fd5b8260051b808560288501379190910160280195945050505050565b7f4e487b7100000000000000000000000000000000000000000000000000000000600052604160045260246000fd5b7f4e487b7100000000000000000000000000000000000000000000000000000000600052603260045260246000fd5b600060208284031215612bb457600080fd5b5051919050565b600073ffffffffffffffffffffffffffffffffffffffff808816835260208188168185015260a060408501528560a08501527f07ffffffffffffffffffffffffffffffffffffffffffffffffffffffffffffff861115612c1a57600080fd5b8560051b9150818760c086013760c09184018481038301606086015285519281018390528582019260009160e001905b80831015612c6a5784518252938301936001929092019190830190612c4a565b50858103608087015260008152602081019b9a5050505050505050505050565b73ffffffffffffffffffffffffffffffffffffffff84168152606060208201526000612cb9606083018561299f565b8281036040840152612ccb818561299f565b9695505050505050565b60005b83811015612cf0578181015183820152602001612cd8565b50506000910152565b7f416363657373436f6e74726f6c3a206163636f756e7420000000000000000000815260008351612d31816017850160208801612cd5565b7f206973206d697373696e6720726f6c65200000000000000000000000000000006017918401918201528351612d6e816028840160208801612cd5565b01602801949350505050565b6020815260008251806020840152612d99816040850160208701612cd5565b601f017fffffffffffffffffffffffffffffffffffffffffffffffffffffffffffffffe0169190910160400192915050565b6000817fffffffffffffffffffffffffffffffffffffffffffffffffffffffffffffffff0483118215151615612e0357612e03612a5e565b500290565b808201808211156106a5576106a5612a5e565b600081612e2a57612e2a612a5e565b507fffffffffffffffffffffffffffffffffffffffffffffffffffffffffffffffff019056fea26469706673582212202f29f9a3dbba1e967cfa963459e82f36af2e5717c02fd74a8b7005a1217b379864736f6c63430008100033",
  "linkReferences": {},
  "deployedLinkReferences": {}
}