{
  "_format": "hh-sol-artifact-1",
  "contractName": "Game_Items_Merchant",
  "sourceName": "contracts/Items_Merchant/Game_Items_Merchant.sol",
  "abi": [
    {
      "inputs": [
        {
          "internalType": "address",
          "name": "_forwarder",
          "type": "address"
        }
      ],
      "stateMutability": "nonpayable",
      "type": "constructor"
    },
    {
      "anonymous": false,
      "inputs": [
        {
          "indexed": true,
          "internalType": "bytes32",
          "name": "role",
          "type": "bytes32"
        },
        {
          "indexed": true,
          "internalType": "bytes32",
          "name": "previousAdminRole",
          "type": "bytes32"
        },
        {
          "indexed": true,
          "internalType": "bytes32",
          "name": "newAdminRole",
          "type": "bytes32"
        }
      ],
      "name": "RoleAdminChanged",
      "type": "event"
    },
    {
      "anonymous": false,
      "inputs": [
        {
          "indexed": true,
          "internalType": "bytes32",
          "name": "role",
          "type": "bytes32"
        },
        {
          "indexed": true,
          "internalType": "address",
          "name": "account",
          "type": "address"
        },
        {
          "indexed": true,
          "internalType": "address",
          "name": "sender",
          "type": "address"
        }
      ],
      "name": "RoleGranted",
      "type": "event"
    },
    {
      "anonymous": false,
      "inputs": [
        {
          "indexed": true,
          "internalType": "bytes32",
          "name": "role",
          "type": "bytes32"
        },
        {
          "indexed": true,
          "internalType": "address",
          "name": "account",
          "type": "address"
        },
        {
          "indexed": true,
          "internalType": "address",
          "name": "sender",
          "type": "address"
        }
      ],
      "name": "RoleRevoked",
      "type": "event"
    },
    {
      "inputs": [],
      "name": "DEFAULT_ADMIN_ROLE",
      "outputs": [
        {
          "internalType": "bytes32",
          "name": "",
          "type": "bytes32"
        }
      ],
      "stateMutability": "view",
      "type": "function"
    },
    {
      "inputs": [],
      "name": "allBuyableItemOfferIds",
      "outputs": [
        {
          "internalType": "bytes32[]",
          "name": "",
          "type": "bytes32[]"
        }
      ],
      "stateMutability": "view",
      "type": "function"
    },
    {
      "inputs": [],
      "name": "allSellableItemOfferIds",
      "outputs": [
        {
          "internalType": "bytes32[]",
          "name": "",
          "type": "bytes32[]"
        }
      ],
      "stateMutability": "view",
      "type": "function"
    },
    {
      "inputs": [
        {
          "internalType": "bytes32",
          "name": "_itemOfferId",
          "type": "bytes32"
        }
      ],
      "name": "buy",
      "outputs": [],
      "stateMutability": "payable",
      "type": "function"
    },
    {
      "inputs": [
        {
          "internalType": "uint256",
          "name": "",
          "type": "uint256"
        }
      ],
      "name": "buyableItemOfferIds",
      "outputs": [
        {
          "internalType": "bytes32",
          "name": "",
          "type": "bytes32"
        }
      ],
      "stateMutability": "view",
      "type": "function"
    },
    {
      "inputs": [
        {
          "internalType": "address",
          "name": "_itemsAddress",
          "type": "address"
        },
        {
          "internalType": "address",
          "name": "_currencyAddress",
          "type": "address"
        },
        {
          "internalType": "uint256[]",
          "name": "_itemIds",
          "type": "uint256[]"
        }
      ],
      "name": "generateItemOfferId",
      "outputs": [
        {
          "internalType": "bytes32",
          "name": "",
          "type": "bytes32"
        }
      ],
      "stateMutability": "pure",
      "type": "function"
    },
    {
      "inputs": [
        {
          "internalType": "bytes32",
          "name": "_itemOfferId",
          "type": "bytes32"
        }
      ],
      "name": "getBuyableItemOffer",
      "outputs": [
        {
          "components": [
            {
              "internalType": "bool",
              "name": "isActive",
              "type": "bool"
            },
            {
              "internalType": "uint256[]",
              "name": "itemIds",
              "type": "uint256[]"
            },
            {
              "internalType": "uint256[]",
              "name": "itemAmounts",
              "type": "uint256[]"
            },
            {
              "internalType": "uint256",
              "name": "currencyAmount",
              "type": "uint256"
            },
            {
              "internalType": "uint256",
              "name": "uses",
              "type": "uint256"
            },
            {
              "internalType": "uint256",
              "name": "maxUses",
              "type": "uint256"
            },
            {
              "internalType": "contract IERC1155_Game_Items",
              "name": "items",
              "type": "address"
            },
            {
              "internalType": "contract IERC20",
              "name": "currency",
              "type": "address"
            }
          ],
          "internalType": "struct IGame_Items_Merchant.ItemOffer",
          "name": "",
          "type": "tuple"
        }
      ],
      "stateMutability": "view",
      "type": "function"
    },
    {
      "inputs": [
        {
          "internalType": "bytes32",
          "name": "role",
          "type": "bytes32"
        }
      ],
      "name": "getRoleAdmin",
      "outputs": [
        {
          "internalType": "bytes32",
          "name": "",
          "type": "bytes32"
        }
      ],
      "stateMutability": "view",
      "type": "function"
    },
    {
      "inputs": [
        {
          "internalType": "bytes32",
          "name": "_itemOfferId",
          "type": "bytes32"
        }
      ],
      "name": "getSellableItemOffer",
      "outputs": [
        {
          "components": [
            {
              "internalType": "bool",
              "name": "isActive",
              "type": "bool"
            },
            {
              "internalType": "uint256[]",
              "name": "itemIds",
              "type": "uint256[]"
            },
            {
              "internalType": "uint256[]",
              "name": "itemAmounts",
              "type": "uint256[]"
            },
            {
              "internalType": "uint256",
              "name": "currencyAmount",
              "type": "uint256"
            },
            {
              "internalType": "uint256",
              "name": "uses",
              "type": "uint256"
            },
            {
              "internalType": "uint256",
              "name": "maxUses",
              "type": "uint256"
            },
            {
              "internalType": "contract IERC1155_Game_Items",
              "name": "items",
              "type": "address"
            },
            {
              "internalType": "contract IERC20",
              "name": "currency",
              "type": "address"
            }
          ],
          "internalType": "struct IGame_Items_Merchant.ItemOffer",
          "name": "",
          "type": "tuple"
        }
      ],
      "stateMutability": "view",
      "type": "function"
    },
    {
      "inputs": [
        {
          "internalType": "bytes32",
          "name": "role",
          "type": "bytes32"
        },
        {
          "internalType": "address",
          "name": "account",
          "type": "address"
        }
      ],
      "name": "grantRole",
      "outputs": [],
      "stateMutability": "nonpayable",
      "type": "function"
    },
    {
      "inputs": [
        {
          "internalType": "bytes32",
          "name": "role",
          "type": "bytes32"
        },
        {
          "internalType": "address",
          "name": "account",
          "type": "address"
        }
      ],
      "name": "hasRole",
      "outputs": [
        {
          "internalType": "bool",
          "name": "",
          "type": "bool"
        }
      ],
      "stateMutability": "view",
      "type": "function"
    },
    {
      "inputs": [
        {
          "internalType": "address",
          "name": "forwarder",
          "type": "address"
        }
      ],
      "name": "isTrustedForwarder",
      "outputs": [
        {
          "internalType": "bool",
          "name": "",
          "type": "bool"
        }
      ],
      "stateMutability": "view",
      "type": "function"
    },
    {
      "inputs": [
        {
          "internalType": "address",
          "name": "",
          "type": "address"
        },
        {
          "internalType": "address",
          "name": "",
          "type": "address"
        },
        {
          "internalType": "uint256[]",
          "name": "",
          "type": "uint256[]"
        },
        {
          "internalType": "uint256[]",
          "name": "",
          "type": "uint256[]"
        },
        {
          "internalType": "bytes",
          "name": "",
          "type": "bytes"
        }
      ],
      "name": "onERC1155BatchReceived",
      "outputs": [
        {
          "internalType": "bytes4",
          "name": "",
          "type": "bytes4"
        }
      ],
      "stateMutability": "nonpayable",
      "type": "function"
    },
    {
      "inputs": [
        {
          "internalType": "address",
          "name": "",
          "type": "address"
        },
        {
          "internalType": "address",
          "name": "",
          "type": "address"
        },
        {
          "internalType": "uint256",
          "name": "",
          "type": "uint256"
        },
        {
          "internalType": "uint256",
          "name": "",
          "type": "uint256"
        },
        {
          "internalType": "bytes",
          "name": "",
          "type": "bytes"
        }
      ],
      "name": "onERC1155Received",
      "outputs": [
        {
          "internalType": "bytes4",
          "name": "",
          "type": "bytes4"
        }
      ],
      "stateMutability": "nonpayable",
      "type": "function"
    },
    {
      "inputs": [
        {
          "internalType": "uint256",
          "name": "_startIndexInclusive",
          "type": "uint256"
        },
        {
          "internalType": "uint256",
          "name": "_limit",
          "type": "uint256"
        }
      ],
      "name": "paginateBuyableItemOffers",
      "outputs": [
        {
          "components": [
            {
              "internalType": "bool",
              "name": "isActive",
              "type": "bool"
            },
            {
              "internalType": "uint256[]",
              "name": "itemIds",
              "type": "uint256[]"
            },
            {
              "internalType": "uint256[]",
              "name": "itemAmounts",
              "type": "uint256[]"
            },
            {
              "internalType": "uint256",
              "name": "currencyAmount",
              "type": "uint256"
            },
            {
              "internalType": "uint256",
              "name": "uses",
              "type": "uint256"
            },
            {
              "internalType": "uint256",
              "name": "maxUses",
              "type": "uint256"
            },
            {
              "internalType": "contract IERC1155_Game_Items",
              "name": "items",
              "type": "address"
            },
            {
              "internalType": "contract IERC20",
              "name": "currency",
              "type": "address"
            }
          ],
          "internalType": "struct IGame_Items_Merchant.ItemOffer[]",
          "name": "",
          "type": "tuple[]"
        }
      ],
      "stateMutability": "view",
      "type": "function"
    },
    {
      "inputs": [
        {
          "internalType": "uint256",
          "name": "_startIndexInclusive",
          "type": "uint256"
        },
        {
          "internalType": "uint256",
          "name": "_limit",
          "type": "uint256"
        }
      ],
      "name": "paginateSellableItemOffers",
      "outputs": [
        {
          "components": [
            {
              "internalType": "bool",
              "name": "isActive",
              "type": "bool"
            },
            {
              "internalType": "uint256[]",
              "name": "itemIds",
              "type": "uint256[]"
            },
            {
              "internalType": "uint256[]",
              "name": "itemAmounts",
              "type": "uint256[]"
            },
            {
              "internalType": "uint256",
              "name": "currencyAmount",
              "type": "uint256"
            },
            {
              "internalType": "uint256",
              "name": "uses",
              "type": "uint256"
            },
            {
              "internalType": "uint256",
              "name": "maxUses",
              "type": "uint256"
            },
            {
              "internalType": "contract IERC1155_Game_Items",
              "name": "items",
              "type": "address"
            },
            {
              "internalType": "contract IERC20",
              "name": "currency",
              "type": "address"
            }
          ],
          "internalType": "struct IGame_Items_Merchant.ItemOffer[]",
          "name": "",
          "type": "tuple[]"
        }
      ],
      "stateMutability": "view",
      "type": "function"
    },
    {
      "inputs": [
        {
          "internalType": "bytes32",
          "name": "_itemOfferId",
          "type": "bytes32"
        }
      ],
      "name": "removeBuyableItemOffer",
      "outputs": [],
      "stateMutability": "nonpayable",
      "type": "function"
    },
    {
      "inputs": [
        {
          "internalType": "bytes32",
          "name": "_itemOfferId",
          "type": "bytes32"
        }
      ],
      "name": "removeSellableItemOffer",
      "outputs": [],
      "stateMutability": "nonpayable",
      "type": "function"
    },
    {
      "inputs": [
        {
          "internalType": "bytes32",
          "name": "role",
          "type": "bytes32"
        },
        {
          "internalType": "address",
          "name": "account",
          "type": "address"
        }
      ],
      "name": "renounceRole",
      "outputs": [],
      "stateMutability": "nonpayable",
      "type": "function"
    },
    {
      "inputs": [
        {
          "internalType": "bytes32",
          "name": "role",
          "type": "bytes32"
        },
        {
          "internalType": "address",
          "name": "account",
          "type": "address"
        }
      ],
      "name": "revokeRole",
      "outputs": [],
      "stateMutability": "nonpayable",
      "type": "function"
    },
    {
      "inputs": [
        {
          "internalType": "bytes32",
          "name": "_itemOfferId",
          "type": "bytes32"
        }
      ],
      "name": "sell",
      "outputs": [],
      "stateMutability": "nonpayable",
      "type": "function"
    },
    {
      "inputs": [
        {
          "internalType": "uint256",
          "name": "",
          "type": "uint256"
        }
      ],
      "name": "sellableItemOfferIds",
      "outputs": [
        {
          "internalType": "bytes32",
          "name": "",
          "type": "bytes32"
        }
      ],
      "stateMutability": "view",
      "type": "function"
    },
    {
      "inputs": [
        {
          "internalType": "address",
          "name": "_itemsAddress",
          "type": "address"
        },
        {
          "internalType": "uint256[]",
          "name": "_itemIds",
          "type": "uint256[]"
        },
        {
          "internalType": "uint256[]",
          "name": "_itemAmounts",
          "type": "uint256[]"
        },
        {
          "internalType": "address",
          "name": "_currencyAddress",
          "type": "address"
        },
        {
          "internalType": "uint256",
          "name": "_currencyAmount",
          "type": "uint256"
        },
        {
          "internalType": "uint256",
          "name": "_maxUses",
          "type": "uint256"
        }
      ],
      "name": "setBuyableItemOffer",
      "outputs": [],
      "stateMutability": "nonpayable",
      "type": "function"
    },
    {
      "inputs": [
        {
          "internalType": "address",
          "name": "_itemsAddress",
          "type": "address"
        },
        {
          "internalType": "uint256[]",
          "name": "_itemIds",
          "type": "uint256[]"
        },
        {
          "internalType": "uint256[]",
          "name": "_itemAmounts",
          "type": "uint256[]"
        },
        {
          "internalType": "address",
          "name": "_currencyAddress",
          "type": "address"
        },
        {
          "internalType": "uint256",
          "name": "_currencyAmount",
          "type": "uint256"
        },
        {
          "internalType": "uint256",
          "name": "_maxUses",
          "type": "uint256"
        }
      ],
      "name": "setSellableItemOffer",
      "outputs": [],
      "stateMutability": "nonpayable",
      "type": "function"
    },
    {
      "inputs": [
        {
          "internalType": "bytes4",
          "name": "interfaceId",
          "type": "bytes4"
        }
      ],
      "name": "supportsInterface",
      "outputs": [
        {
          "internalType": "bool",
          "name": "",
          "type": "bool"
        }
      ],
      "stateMutability": "view",
      "type": "function"
    },
    {
      "inputs": [],
      "name": "totalBuyableItemOffers",
      "outputs": [
        {
          "internalType": "uint256",
          "name": "",
          "type": "uint256"
        }
      ],
      "stateMutability": "view",
      "type": "function"
    },
    {
      "inputs": [],
      "name": "totalSellableItemOffers",
      "outputs": [
        {
          "internalType": "uint256",
          "name": "",
          "type": "uint256"
        }
      ],
      "stateMutability": "view",
      "type": "function"
    },
    {
      "inputs": [
        {
          "internalType": "address",
          "name": "_newTrustedForwarder",
          "type": "address"
        }
      ],
      "name": "upgradeTrustedForwarder",
      "outputs": [],
      "stateMutability": "nonpayable",
      "type": "function"
    },
    {
      "inputs": [],
      "name": "withdraw",
      "outputs": [],
      "stateMutability": "nonpayable",
      "type": "function"
    },
    {
      "inputs": [
        {
          "internalType": "address",
          "name": "_currencyAddress",
          "type": "address"
        }
      ],
      "name": "withdrawCurrency",
      "outputs": [],
      "stateMutability": "nonpayable",
      "type": "function"
    },
    {
      "inputs": [
        {
          "internalType": "address",
          "name": "_itemsAddress",
          "type": "address"
        },
        {
          "internalType": "uint256[]",
          "name": "_itemIds",
          "type": "uint256[]"
        }
      ],
      "name": "withdrawItems",
      "outputs": [],
      "stateMutability": "nonpayable",
      "type": "function"
    }
  ],
  "bytecode": "0x60806040523480156200001157600080fd5b5060405162003a7338038062003a738339810160408190526200003491620001ac565b600080546001600160a01b0319166001600160a01b03831617815560016002556200006990620000636200009f565b620000bb565b620000987fc9fc9949603a50f5cc3a96f774f1d68287789a241d2082dc81d0fb19a53bcf2b620000636200009f565b50620001de565b6000620000b6620000cb60201b62001f881760201c565b905090565b620000c7828262000101565b5050565b600080546001600160a01b03163303620000ec575060131936013560601c90565b620000b6620001a860201b62001fdd1760201c565b60008281526001602090815260408083206001600160a01b038516845290915290205460ff16620000c75760008281526001602081815260408084206001600160a01b0386168552909152909120805460ff19169091179055620001646200009f565b6001600160a01b0316816001600160a01b0316837f2f8788117e7eff1d82e926ec794901d17c78024a50270940304540a733656f0d60405160405180910390a45050565b3390565b600060208284031215620001bf57600080fd5b81516001600160a01b0381168114620001d757600080fd5b9392505050565b61388580620001ee6000396000f3fe6080604052600436106101d85760003560e01c8063940315f011610102578063c408257111610095578063e8e5180211610064578063e8e51802146105f0578063ead3883514610610578063f23a6e6114610630578063fc3d74c61461067557600080fd5b8063c408257114610570578063c9182fa514610590578063cb686303146105b0578063d547741f146105d057600080fd5b8063a9db8eaf116100d1578063a9db8eaf14610498578063aa2a7eea146104c5578063bc197c81146104e5578063c38adf331461055b57600080fd5b8063940315f01461043b5780639c9a106114610450578063a071a15914610463578063a217fddf1461048357600080fd5b80633ccfd60b1161017a578063724e3c7411610149578063724e3c741461039357806384ed8d94146103b3578063851f966f146103c857806391d14854146103e857600080fd5b80633ccfd60b1461030257806347aff48a14610317578063498c957714610337578063572b6c051461035757600080fd5b806321fd3f81116101b657806321fd3f8114610256578063248a9ca3146102835780632f2ff15d146102c257806336568abe146102e257600080fd5b806301ffc9a7146101dd5780630c2533cb146102125780630e56056214610234575b600080fd5b3480156101e957600080fd5b506101fd6101f8366004612ca1565b610695565b60405190151581526020015b60405180910390f35b34801561021e57600080fd5b5061023261022d366004612ce3565b61073d565b005b34801561024057600080fd5b50610249610b82565b6040516102099190612cfc565b34801561026257600080fd5b50610276610271366004612ce3565b610bda565b6040516102099190612e27565b34801561028f57600080fd5b506102b461029e366004612ce3565b6000908152600160208190526040909120015490565b604051908152602001610209565b3480156102ce57600080fd5b506102326102dd366004612e63565b610d77565b3480156102ee57600080fd5b506102326102fd366004612e63565b610da2565b34801561030e57600080fd5b50610232610e72565b34801561032357600080fd5b506102b4610332366004612edb565b610ee9565b34801561034357600080fd5b50610232610352366004612f3c565b610f22565b34801561036357600080fd5b506101fd610372366004612fe0565b60005473ffffffffffffffffffffffffffffffffffffffff91821691161490565b34801561039f57600080fd5b506102326103ae366004612ffb565b610f69565b3480156103bf57600080fd5b506003546102b4565b3480156103d457600080fd5b506102326103e3366004612ce3565b611161565b3480156103f457600080fd5b506101fd610403366004612e63565b600091825260016020908152604080842073ffffffffffffffffffffffffffffffffffffffff93909316845291905290205460ff1690565b34801561044757600080fd5b506005546102b4565b61023261045e366004612ce3565b6111c2565b34801561046f57600080fd5b506102b461047e366004612ce3565b61157f565b34801561048f57600080fd5b506102b4600081565b3480156104a457600080fd5b506104b86104b336600461304e565b6115a0565b6040516102099190613070565b3480156104d157600080fd5b506102326104e0366004612fe0565b611834565b3480156104f157600080fd5b5061052a61050036600461327c565b7fbc197c810000000000000000000000000000000000000000000000000000000095945050505050565b6040517fffffffff000000000000000000000000000000000000000000000000000000009091168152602001610209565b34801561056757600080fd5b506102496118a2565b34801561057c57600080fd5b5061023261058b366004612ce3565b6118f8565b34801561059c57600080fd5b506102326105ab366004612f3c565b611959565b3480156105bc57600080fd5b506102766105cb366004612ce3565b611995565b3480156105dc57600080fd5b506102326105eb366004612e63565b611b2e565b3480156105fc57600080fd5b506102b461060b366004612ce3565b611b54565b34801561061c57600080fd5b506104b861062b36600461304e565b611b64565b34801561063c57600080fd5b5061052a61064b366004613326565b7ff23a6e610000000000000000000000000000000000000000000000000000000095945050505050565b34801561068157600080fd5b50610232610690366004612fe0565b611dee565b60007fffffffff0000000000000000000000000000000000000000000000000000000082167fd080587800000000000000000000000000000000000000000000000000000000148061072857507fffffffff0000000000000000000000000000000000000000000000000000000082167f4e2312e000000000000000000000000000000000000000000000000000000000145b80610737575061073782611fe1565b92915050565b6000818152600660205260409020600581015460019183911580610768575080600501548160040154105b6107ad576040517f08c379a000000000000000000000000000000000000000000000000000000000815260206004820152600060248201526044015b60405180910390fd5b6002805403610818576040517f08c379a000000000000000000000000000000000000000000000000000000000815260206004820152601f60248201527f5265656e7472616e637947756172643a207265656e7472616e742063616c6c0060448201526064016107a4565b60028055610827600185612037565b6108b3576040517f08c379a000000000000000000000000000000000000000000000000000000000815260206004820152602a60248201527f6974656d4f666665724964206973206e6f7420612076616c69642073656c6c6160448201527f626c65206f666665722e0000000000000000000000000000000000000000000060648201526084016107a4565b60008481526006602081905260409091209081015473ffffffffffffffffffffffffffffffffffffffff16632eb2c2d66108eb612082565b3084600101856002016040518563ffffffff1660e01b815260040161091394939291906133ef565b600060405180830381600087803b15801561092d57600080fd5b505af1158015610941573d6000803e3d6000fd5b50505050600781015473ffffffffffffffffffffffffffffffffffffffff1615610b0c5760078101546109899073ffffffffffffffffffffffffffffffffffffffff1661208c565b15610a4557600781015473ffffffffffffffffffffffffffffffffffffffff16806340c10f196109b7612082565b60038501546040517fffffffff0000000000000000000000000000000000000000000000000000000060e085901b16815273ffffffffffffffffffffffffffffffffffffffff90921660048301526024820152604401600060405180830381600087803b158015610a2757600080fd5b505af1158015610a3b573d6000803e3d6000fd5b5050505050610b5f565b600781015473ffffffffffffffffffffffffffffffffffffffff1663a9059cbb610a6d612082565b60038401546040517fffffffff0000000000000000000000000000000000000000000000000000000060e085901b16815273ffffffffffffffffffffffffffffffffffffffff909216600483015260248201526044016020604051808303816000875af1158015610ae2573d6000803e3d6000fd5b505050506040513d601f19601f82011682018060405250810190610b069190613457565b50610b5f565b610b14612082565b73ffffffffffffffffffffffffffffffffffffffff166108fc82600301549081150290604051600060405180830381858888f19350505050158015610b5d573d6000803e3d6000fd5b505b600481018054906000610b71836134a8565b909155505060016002555050505050565b60606005805480602002602001604051908101604052809291908181526020018280548015610bd057602002820191906000526020600020905b815481526020019060010190808311610bbc575b5050505050905090565b610c506040518061010001604052806000151581526020016060815260200160608152602001600081526020016000815260200160008152602001600073ffffffffffffffffffffffffffffffffffffffff168152602001600073ffffffffffffffffffffffffffffffffffffffff1681525090565b600082815260066020908152604091829020825161010081018452815460ff161515815260018201805485518186028101860190965280865291949293858101939290830182828015610cc257602002820191906000526020600020905b815481526020019060010190808311610cae575b5050505050815260200160028201805480602002602001604051908101604052809291908181526020018280548015610d1a57602002820191906000526020600020905b815481526020019060010190808311610d06575b5050509183525050600382015460208201526004820154604082015260058201546060820152600682015473ffffffffffffffffffffffffffffffffffffffff908116608083015260079092015490911660a09091015292915050565b60008281526001602081905260409091200154610d9381612145565b610d9d8383612159565b505050565b610daa612082565b73ffffffffffffffffffffffffffffffffffffffff168173ffffffffffffffffffffffffffffffffffffffff1614610e64576040517f08c379a000000000000000000000000000000000000000000000000000000000815260206004820152602f60248201527f416363657373436f6e74726f6c3a2063616e206f6e6c792072656e6f756e636560448201527f20726f6c657320666f722073656c66000000000000000000000000000000000060648201526084016107a4565b610e6e828261224f565b5050565b7fc9fc9949603a50f5cc3a96f774f1d68287789a241d2082dc81d0fb19a53bcf2b610e9c81612145565b610ea4612082565b73ffffffffffffffffffffffffffffffffffffffff166108fc479081150290604051600060405180830381858888f19350505050158015610e6e573d6000803e3d6000fd5b600084848484604051602001610f0294939291906134e0565b604051602081830303815290604052805190602001209050949350505050565b7fc9fc9949603a50f5cc3a96f774f1d68287789a241d2082dc81d0fb19a53bcf2b610f4c81612145565b610f5e60008a8a8a8a8a8a8a8a612342565b505050505050505050565b7fc9fc9949603a50f5cc3a96f774f1d68287789a241d2082dc81d0fb19a53bcf2b610f9381612145565b8360008367ffffffffffffffff811115610faf57610faf6130f0565b604051908082528060200260200182016040528015610fd8578160200160208202803683370190505b50905060005b848110156110de578273ffffffffffffffffffffffffffffffffffffffff1662fdd58e308888858181106110145761101461355f565b6040517fffffffff0000000000000000000000000000000000000000000000000000000060e087901b16815273ffffffffffffffffffffffffffffffffffffffff90941660048501526020029190910135602483015250604401602060405180830381865afa15801561108b573d6000803e3d6000fd5b505050506040513d601f19601f820116820180604052508101906110af919061358e565b8282815181106110c1576110c161355f565b6020908102919091010152806110d6816134a8565b915050610fde565b508173ffffffffffffffffffffffffffffffffffffffff16632eb2c2d630611104612082565b8888866040518663ffffffff1660e01b81526004016111279594939291906135a7565b600060405180830381600087803b15801561114157600080fd5b505af1158015611155573d6000803e3d6000fd5b50505050505050505050565b7fc9fc9949603a50f5cc3a96f774f1d68287789a241d2082dc81d0fb19a53bcf2b61118b81612145565b50600090815260066020526040902080547fffffffffffffffffffffffffffffffffffffffffffffffffffffffffffffff00169055565b6000818152600460205260408120600581015483919015806111eb575080600501548160040154105b61122b576040517f08c379a000000000000000000000000000000000000000000000000000000000815260206004820152600060248201526044016107a4565b6002805403611296576040517f08c379a000000000000000000000000000000000000000000000000000000000815260206004820152601f60248201527f5265656e7472616e637947756172643a207265656e7472616e742063616c6c0060448201526064016107a4565b600280556112a5600085612037565b611331576040517f08c379a000000000000000000000000000000000000000000000000000000000815260206004820152602960248201527f6974656d4f666665724964206973206e6f7420612076616c696420627579616260448201527f6c65206f666665722e000000000000000000000000000000000000000000000060648201526084016107a4565b6000848152600460205260409020600781015473ffffffffffffffffffffffffffffffffffffffff161561142c57600781015473ffffffffffffffffffffffffffffffffffffffff166323b872dd611387612082565b60038401546040517fffffffff0000000000000000000000000000000000000000000000000000000060e085901b16815273ffffffffffffffffffffffffffffffffffffffff909216600483015230602483015260448201526064016020604051808303816000875af1158015611402573d6000803e3d6000fd5b505050506040513d601f19601f820116820180604052508101906114269190613457565b5061143d565b806003015434101561143d57600080fd5b60068101546114619073ffffffffffffffffffffffffffffffffffffffff1661208c565b156114eb57600681015473ffffffffffffffffffffffffffffffffffffffff166308f427c761148e612082565b83600101846002016040518463ffffffff1660e01b81526004016114b493929190613676565b600060405180830381600087803b1580156114ce57600080fd5b505af11580156114e2573d6000803e3d6000fd5b50505050610b5f565b600681015473ffffffffffffffffffffffffffffffffffffffff16632eb2c2d630611514612082565b84600101856002016040518563ffffffff1660e01b815260040161153b94939291906133ef565b600060405180830381600087803b15801561155557600080fd5b505af1158015611569573d6000803e3d6000fd5b50505050600481018054906000610b71836134a8565b6005818154811061158f57600080fd5b600091825260209091200154905081565b60055460609060009084106115b65760006115c4565b6005546115c49085906136c1565b90506000838211156115d657836115d8565b815b905060008167ffffffffffffffff8111156115f5576115f56130f0565b60405190808252806020026020018201604052801561169c57816020015b6116896040518061010001604052806000151581526020016060815260200160608152602001600081526020016000815260200160008152602001600073ffffffffffffffffffffffffffffffffffffffff168152602001600073ffffffffffffffffffffffffffffffffffffffff1681525090565b8152602001906001900390816116135790505b50905060005b8281101561182a576006600060056116ba848b6136d4565b815481106116ca576116ca61355f565b600091825260208083209091015483528281019390935260409182019020815161010081018352815460ff1615158152600182018054845181870281018701909552808552919492938584019390929083018282801561174957602002820191906000526020600020905b815481526020019060010190808311611735575b50505050508152602001600282018054806020026020016040519081016040528092919081815260200182805480156117a157602002820191906000526020600020905b81548152602001906001019080831161178d575b5050509183525050600382015460208201526004820154604082015260058201546060820152600682015473ffffffffffffffffffffffffffffffffffffffff908116608083015260079092015490911660a090910152825183908390811061180c5761180c61355f565b60200260200101819052508080611822906134a8565b9150506116a2565b5095945050505050565b7fc9fc9949603a50f5cc3a96f774f1d68287789a241d2082dc81d0fb19a53bcf2b61185e81612145565b600080547fffffffffffffffffffffffff00000000000000000000000000000000000000001673ffffffffffffffffffffffffffffffffffffffff84161790555050565b60606003805480602002602001604051908101604052809291908181526020018280548015610bd05760200282019190600052602060002090815481526020019060010190808311610bbc575050505050905090565b7fc9fc9949603a50f5cc3a96f774f1d68287789a241d2082dc81d0fb19a53bcf2b61192281612145565b50600090815260046020526040902080547fffffffffffffffffffffffffffffffffffffffffffffffffffffffffffffff00169055565b7fc9fc9949603a50f5cc3a96f774f1d68287789a241d2082dc81d0fb19a53bcf2b61198381612145565b610f5e60018a8a8a8a8a8a8a8a612342565b611a0b6040518061010001604052806000151581526020016060815260200160608152602001600081526020016000815260200160008152602001600073ffffffffffffffffffffffffffffffffffffffff168152602001600073ffffffffffffffffffffffffffffffffffffffff1681525090565b600082815260046020908152604091829020825161010081018452815460ff161515815260018201805485518186028101860190965280865291949293858101939290830182828015610cc25760200282019190600052602060002090815481526020019060010190808311610cae575050505050815260200160028201805480602002602001604051908101604052809291908181526020018280548015610d1a5760200282019190600052602060002090815481526020019060010190808311610d06575050509183525050600382015460208201526004820154604082015260058201546060820152600682015473ffffffffffffffffffffffffffffffffffffffff908116608083015260079092015490911660a09091015292915050565b60008281526001602081905260409091200154611b4a81612145565b610d9d838361224f565b6003818154811061158f57600080fd5b6003546060906000908410611b7a576000611b88565b600354611b889085906136c1565b9050600083821115611b9a5783611b9c565b815b905060008167ffffffffffffffff811115611bb957611bb96130f0565b604051908082528060200260200182016040528015611c6057816020015b611c4d6040518061010001604052806000151581526020016060815260200160608152602001600081526020016000815260200160008152602001600073ffffffffffffffffffffffffffffffffffffffff168152602001600073ffffffffffffffffffffffffffffffffffffffff1681525090565b815260200190600190039081611bd75790505b50905060005b8281101561182a57600460006003611c7e848b6136d4565b81548110611c8e57611c8e61355f565b600091825260208083209091015483528281019390935260409182019020815161010081018352815460ff16151581526001820180548451818702810187019095528085529194929385840193909290830182828015611d0d57602002820191906000526020600020905b815481526020019060010190808311611cf9575b5050505050815260200160028201805480602002602001604051908101604052809291908181526020018280548015611d6557602002820191906000526020600020905b815481526020019060010190808311611d51575b5050509183525050600382015460208201526004820154604082015260058201546060820152600682015473ffffffffffffffffffffffffffffffffffffffff908116608083015260079092015490911660a0909101528251839083908110611dd057611dd061355f565b60200260200101819052508080611de6906134a8565b915050611c66565b7fc9fc9949603a50f5cc3a96f774f1d68287789a241d2082dc81d0fb19a53bcf2b611e1881612145565b8173ffffffffffffffffffffffffffffffffffffffff811663a9059cbb611e3d612082565b8373ffffffffffffffffffffffffffffffffffffffff166370a08231611e61612082565b6040517fffffffff0000000000000000000000000000000000000000000000000000000060e084901b16815273ffffffffffffffffffffffffffffffffffffffff9091166004820152602401602060405180830381865afa158015611eca573d6000803e3d6000fd5b505050506040513d601f19601f82011682018060405250810190611eee919061358e565b6040517fffffffff0000000000000000000000000000000000000000000000000000000060e085901b16815273ffffffffffffffffffffffffffffffffffffffff909216600483015260248201526044016020604051808303816000875af1158015611f5e573d6000803e3d6000fd5b505050506040513d601f19601f82011682018060405250810190611f829190613457565b50505050565b6000805473ffffffffffffffffffffffffffffffffffffffff163303611fd357507fffffffffffffffffffffffffffffffffffffffffffffffffffffffffffffffec36013560601c90565b503390565b905090565b3390565b60007fffffffff0000000000000000000000000000000000000000000000000000000082167f4e2312e000000000000000000000000000000000000000000000000000000000148061073757506107378261281b565b60008083600181111561204c5761204c61338b565b146120685760008281526006602052604090205460ff1661207b565b60008281526004602052604090205460ff165b9392505050565b6000611fd8611f88565b6040517f91d148540000000000000000000000000000000000000000000000000000000081527fc9eb32e43bf5ecbceacf00b32281dfc5d6d700a0db676ea26ccf938a385ac3f76004820152306024820152600090829073ffffffffffffffffffffffffffffffffffffffff8216906391d1485490604401602060405180830381865afa158015612121573d6000803e3d6000fd5b505050506040513d601f19601f8201168201806040525081019061207b9190613457565b61215681612151612082565b6128b2565b50565b600082815260016020908152604080832073ffffffffffffffffffffffffffffffffffffffff8516845290915290205460ff16610e6e57600082815260016020818152604080842073ffffffffffffffffffffffffffffffffffffffff8616855290915290912080547fffffffffffffffffffffffffffffffffffffffffffffffffffffffffffffff001690911790556121f1612082565b73ffffffffffffffffffffffffffffffffffffffff168173ffffffffffffffffffffffffffffffffffffffff16837f2f8788117e7eff1d82e926ec794901d17c78024a50270940304540a733656f0d60405160405180910390a45050565b600082815260016020908152604080832073ffffffffffffffffffffffffffffffffffffffff8516845290915290205460ff1615610e6e57600082815260016020908152604080832073ffffffffffffffffffffffffffffffffffffffff85168452909152902080547fffffffffffffffffffffffffffffffffffffffffffffffffffffffffffffff001690556122e4612082565b73ffffffffffffffffffffffffffffffffffffffff168173ffffffffffffffffffffffffffffffffffffffff16837ff6391f5c32d9c69d2a47ea670b442974b53935d1edc7fd64eb21e047a839171b60405160405180910390a45050565b6040517f01ffc9a70000000000000000000000000000000000000000000000000000000081527fe67112700000000000000000000000000000000000000000000000000000000060048201528890849073ffffffffffffffffffffffffffffffffffffffff8316906301ffc9a790602401602060405180830381865afa1580156123d0573d6000803e3d6000fd5b505050506040513d601f19601f820116820180604052508101906123f49190613457565b61245a576040517f08c379a000000000000000000000000000000000000000000000000000000000815260206004820152601660248201527f496e76616c6964206974656d7320636f6e74726163740000000000000000000060448201526064016107a4565b60006124688b878c8c610ee9565b90506000808d600181111561247f5761247f61338b565b1461249b576000828152600660205260409020600401546124af565b600082815260046020819052604090912001545b905060006040518061010001604052806001151581526020018d8d808060200260200160405190810160405280939291908181526020018383602002808284376000920191909152505050908252506040805160208d810282810182019093528d82529283019290918e918e91829185019084908082843760009201919091525050509082525060208101899052604081018490526060810188905273ffffffffffffffffffffffffffffffffffffffff8088166080830152861660a090910152905061257c8e84612984565b6126095760008e60018111156125945761259461338b565b146125d357600580546001810182556000919091527f036b6384b5eca791c62761152d0c79bb0604c104a5fb6f4eb0703f3154bb3db001839055612609565b600380546001810182556000919091527fc2575a0e9e593c00f959f8c92f12db2869c3395a3b0502d05e2516446f71f85b018390555b60008e600181111561261d5761261d61338b565b14612718576000838152600660209081526040909120825181547fffffffffffffffffffffffffffffffffffffffffffffffffffffffffffffff00169015151781558282015180518493612678926001850192910190612c41565b5060408201518051612694916002840191602090910190612c41565b50606082015160038201556080820151600482015560a0820151600582015560c08201516006820180547fffffffffffffffffffffffff000000000000000000000000000000000000000090811673ffffffffffffffffffffffffffffffffffffffff9384161790915560e09093015160078301805490941691161790915561280a565b6000838152600460209081526040909120825181547fffffffffffffffffffffffffffffffffffffffffffffffffffffffffffffff0016901515178155828201518051849361276e926001850192910190612c41565b506040820151805161278a916002840191602090910190612c41565b50606082015160038201556080820151600482015560a0820151600582015560c08201516006820180547fffffffffffffffffffffffff000000000000000000000000000000000000000090811673ffffffffffffffffffffffffffffffffffffffff9384161790915560e0909301516007830180549094169116179091555b505050505050505050505050505050565b60007fffffffff0000000000000000000000000000000000000000000000000000000082167f7965db0b00000000000000000000000000000000000000000000000000000000148061073757507f01ffc9a7000000000000000000000000000000000000000000000000000000007fffffffff00000000000000000000000000000000000000000000000000000000831614610737565b600082815260016020908152604080832073ffffffffffffffffffffffffffffffffffffffff8516845290915290205460ff16610e6e5761290a8173ffffffffffffffffffffffffffffffffffffffff1660146129fe565b6129158360206129fe565b60405160200161292692919061370b565b604080517fffffffffffffffffffffffffffffffffffffffffffffffffffffffffffffffe0818403018152908290527f08c379a00000000000000000000000000000000000000000000000000000000082526107a49160040161378c565b6000808360018111156129995761299961338b565b146129ce576000828152600660208190526040909120015473ffffffffffffffffffffffffffffffffffffffff16151561207b565b5060009081526004602052604090206006015473ffffffffffffffffffffffffffffffffffffffff161515919050565b60606000612a0d8360026137dd565b612a189060026136d4565b67ffffffffffffffff811115612a3057612a306130f0565b6040519080825280601f01601f191660200182016040528015612a5a576020820181803683370190505b5090507f300000000000000000000000000000000000000000000000000000000000000081600081518110612a9157612a9161355f565b60200101907effffffffffffffffffffffffffffffffffffffffffffffffffffffffffffff1916908160001a9053507f780000000000000000000000000000000000000000000000000000000000000081600181518110612af457612af461355f565b60200101907effffffffffffffffffffffffffffffffffffffffffffffffffffffffffffff1916908160001a9053506000612b308460026137dd565b612b3b9060016136d4565b90505b6001811115612bd8577f303132333435363738396162636465660000000000000000000000000000000085600f1660108110612b7c57612b7c61355f565b1a60f81b828281518110612b9257612b9261355f565b60200101907effffffffffffffffffffffffffffffffffffffffffffffffffffffffffffff1916908160001a90535060049490941c93612bd18161381a565b9050612b3e565b50831561207b576040517f08c379a000000000000000000000000000000000000000000000000000000000815260206004820181905260248201527f537472696e67733a20686578206c656e67746820696e73756666696369656e7460448201526064016107a4565b828054828255906000526020600020908101928215612c7c579160200282015b82811115612c7c578251825591602001919060010190612c61565b50612c88929150612c8c565b5090565b5b80821115612c885760008155600101612c8d565b600060208284031215612cb357600080fd5b81357fffffffff000000000000000000000000000000000000000000000000000000008116811461207b57600080fd5b600060208284031215612cf557600080fd5b5035919050565b6020808252825182820181905260009190848201906040850190845b81811015612d3457835183529284019291840191600101612d18565b50909695505050505050565b600081518084526020808501945080840160005b83811015612d7057815187529582019590820190600101612d54565b509495945050505050565b60006101008251151584526020830151816020860152612d9d82860182612d40565b91505060408301518482036040860152612db78282612d40565b915050606083015160608501526080830151608085015260a083015160a085015273ffffffffffffffffffffffffffffffffffffffff60c08401511660c085015260e0830151612e1f60e086018273ffffffffffffffffffffffffffffffffffffffff169052565b509392505050565b60208152600061207b6020830184612d7b565b803573ffffffffffffffffffffffffffffffffffffffff81168114612e5e57600080fd5b919050565b60008060408385031215612e7657600080fd5b82359150612e8660208401612e3a565b90509250929050565b60008083601f840112612ea157600080fd5b50813567ffffffffffffffff811115612eb957600080fd5b6020830191508360208260051b8501011115612ed457600080fd5b9250929050565b60008060008060608587031215612ef157600080fd5b612efa85612e3a565b9350612f0860208601612e3a565b9250604085013567ffffffffffffffff811115612f2457600080fd5b612f3087828801612e8f565b95989497509550505050565b60008060008060008060008060c0898b031215612f5857600080fd5b612f6189612e3a565b9750602089013567ffffffffffffffff80821115612f7e57600080fd5b612f8a8c838d01612e8f565b909950975060408b0135915080821115612fa357600080fd5b50612fb08b828c01612e8f565b9096509450612fc3905060608a01612e3a565b92506080890135915060a089013590509295985092959890939650565b600060208284031215612ff257600080fd5b61207b82612e3a565b60008060006040848603121561301057600080fd5b61301984612e3a565b9250602084013567ffffffffffffffff81111561303557600080fd5b61304186828701612e8f565b9497909650939450505050565b6000806040838503121561306157600080fd5b50508035926020909101359150565b6000602080830181845280855180835260408601915060408160051b870101925083870160005b828110156130e3577fffffffffffffffffffffffffffffffffffffffffffffffffffffffffffffffc08886030184526130d1858351612d7b565b94509285019290850190600101613097565b5092979650505050505050565b7f4e487b7100000000000000000000000000000000000000000000000000000000600052604160045260246000fd5b604051601f82017fffffffffffffffffffffffffffffffffffffffffffffffffffffffffffffffe016810167ffffffffffffffff81118282101715613166576131666130f0565b604052919050565b600082601f83011261317f57600080fd5b8135602067ffffffffffffffff82111561319b5761319b6130f0565b8160051b6131aa82820161311f565b92835284810182019282810190878511156131c457600080fd5b83870192505b848310156131e3578235825291830191908301906131ca565b979650505050505050565b600082601f8301126131ff57600080fd5b813567ffffffffffffffff811115613219576132196130f0565b61324a60207fffffffffffffffffffffffffffffffffffffffffffffffffffffffffffffffe0601f8401160161311f565b81815284602083860101111561325f57600080fd5b816020850160208301376000918101602001919091529392505050565b600080600080600060a0868803121561329457600080fd5b61329d86612e3a565b94506132ab60208701612e3a565b9350604086013567ffffffffffffffff808211156132c857600080fd5b6132d489838a0161316e565b945060608801359150808211156132ea57600080fd5b6132f689838a0161316e565b9350608088013591508082111561330c57600080fd5b50613319888289016131ee565b9150509295509295909350565b600080600080600060a0868803121561333e57600080fd5b61334786612e3a565b945061335560208701612e3a565b93506040860135925060608601359150608086013567ffffffffffffffff81111561337f57600080fd5b613319888289016131ee565b7f4e487b7100000000000000000000000000000000000000000000000000000000600052602160045260246000fd5b6000815480845260208085019450836000528060002060005b83811015612d70578154875295820195600191820191016133d3565b600073ffffffffffffffffffffffffffffffffffffffff808716835280861660208401525060a0604083015261342860a08301856133ba565b828103606084015261343a81856133ba565b838103608090940193909352505060008152602001949350505050565b60006020828403121561346957600080fd5b8151801515811461207b57600080fd5b7f4e487b7100000000000000000000000000000000000000000000000000000000600052601160045260246000fd5b60007fffffffffffffffffffffffffffffffffffffffffffffffffffffffffffffffff82036134d9576134d9613479565b5060010190565b60007fffffffffffffffffffffffffffffffffffffffff000000000000000000000000808760601b168352808660601b166014840152507f07ffffffffffffffffffffffffffffffffffffffffffffffffffffffffffffff83111561354457600080fd5b8260051b808560288501379190910160280195945050505050565b7f4e487b7100000000000000000000000000000000000000000000000000000000600052603260045260246000fd5b6000602082840312156135a057600080fd5b5051919050565b600073ffffffffffffffffffffffffffffffffffffffff808816835260208188168185015260a060408501528560a08501527f07ffffffffffffffffffffffffffffffffffffffffffffffffffffffffffffff86111561360657600080fd5b8560051b9150818760c086013760c09184018481038301606086015285519281018390528582019260009160e001905b808310156136565784518252938301936001929092019190830190613636565b50858103608087015260008152602081019b9a5050505050505050505050565b73ffffffffffffffffffffffffffffffffffffffff841681526060602082015260006136a560608301856133ba565b82810360408401526136b781856133ba565b9695505050505050565b8181038181111561073757610737613479565b8082018082111561073757610737613479565b60005b838110156137025781810151838201526020016136ea565b50506000910152565b7f416363657373436f6e74726f6c3a206163636f756e74200000000000000000008152600083516137438160178501602088016136e7565b7f206973206d697373696e6720726f6c652000000000000000000000000000000060179184019182015283516137808160288401602088016136e7565b01602801949350505050565b60208152600082518060208401526137ab8160408501602087016136e7565b601f017fffffffffffffffffffffffffffffffffffffffffffffffffffffffffffffffe0169190910160400192915050565b6000817fffffffffffffffffffffffffffffffffffffffffffffffffffffffffffffffff048311821515161561381557613815613479565b500290565b60008161382957613829613479565b507fffffffffffffffffffffffffffffffffffffffffffffffffffffffffffffffff019056fea264697066735822122071ede4d2e7b97031ee6b18263bc44d78cb0ec631afc12582513c4fb64f3546b264736f6c63430008100033",
  "linkReferences": {},
  "deployedLinkReferences": {}
}