{
  "_format": "hh-sol-artifact-1",
  "contractName": "Game_Items_Merchant",
  "sourceName": "contracts/Items_Merchant/Game_Items_Merchant.sol",
  "abi": [
    {
      "inputs": [
        {
          "internalType": "address",
          "name": "_forwarder",
          "type": "address"
        }
      ],
      "stateMutability": "nonpayable",
      "type": "constructor"
    },
    {
      "anonymous": false,
      "inputs": [
        {
          "indexed": true,
          "internalType": "bytes32",
          "name": "offerId",
          "type": "bytes32"
        },
        {
          "components": [
            {
              "internalType": "bool",
              "name": "isActive",
              "type": "bool"
            },
            {
              "internalType": "uint256[]",
              "name": "itemIds",
              "type": "uint256[]"
            },
            {
              "internalType": "uint256[]",
              "name": "itemAmounts",
              "type": "uint256[]"
            },
            {
              "internalType": "uint256",
              "name": "currencyAmount",
              "type": "uint256"
            },
            {
              "internalType": "uint256",
              "name": "uses",
              "type": "uint256"
            },
            {
              "internalType": "uint256",
              "name": "maxUses",
              "type": "uint256"
            },
            {
              "internalType": "contract IERC1155_Game_Items_Collection",
              "name": "itemsCollection",
              "type": "address"
            },
            {
              "internalType": "contract IERC20",
              "name": "currency",
              "type": "address"
            }
          ],
          "indexed": false,
          "internalType": "struct IGame_Items_Merchant.ItemOffer",
          "name": "offer",
          "type": "tuple"
        },
        {
          "indexed": false,
          "internalType": "address",
          "name": "buyer",
          "type": "address"
        }
      ],
      "name": "Buy",
      "type": "event"
    },
    {
      "anonymous": false,
      "inputs": [
        {
          "indexed": true,
          "internalType": "bytes32",
          "name": "offerId",
          "type": "bytes32"
        },
        {
          "components": [
            {
              "internalType": "bool",
              "name": "isActive",
              "type": "bool"
            },
            {
              "internalType": "uint256[]",
              "name": "itemIds",
              "type": "uint256[]"
            },
            {
              "internalType": "uint256[]",
              "name": "itemAmounts",
              "type": "uint256[]"
            },
            {
              "internalType": "uint256",
              "name": "currencyAmount",
              "type": "uint256"
            },
            {
              "internalType": "uint256",
              "name": "uses",
              "type": "uint256"
            },
            {
              "internalType": "uint256",
              "name": "maxUses",
              "type": "uint256"
            },
            {
              "internalType": "contract IERC1155_Game_Items_Collection",
              "name": "itemsCollection",
              "type": "address"
            },
            {
              "internalType": "contract IERC20",
              "name": "currency",
              "type": "address"
            }
          ],
          "indexed": false,
          "internalType": "struct IGame_Items_Merchant.ItemOffer",
          "name": "offer",
          "type": "tuple"
        }
      ],
      "name": "BuyOfferRemoved",
      "type": "event"
    },
    {
      "anonymous": false,
      "inputs": [
        {
          "indexed": true,
          "internalType": "bytes32",
          "name": "offerId",
          "type": "bytes32"
        },
        {
          "components": [
            {
              "internalType": "bool",
              "name": "isActive",
              "type": "bool"
            },
            {
              "internalType": "uint256[]",
              "name": "itemIds",
              "type": "uint256[]"
            },
            {
              "internalType": "uint256[]",
              "name": "itemAmounts",
              "type": "uint256[]"
            },
            {
              "internalType": "uint256",
              "name": "currencyAmount",
              "type": "uint256"
            },
            {
              "internalType": "uint256",
              "name": "uses",
              "type": "uint256"
            },
            {
              "internalType": "uint256",
              "name": "maxUses",
              "type": "uint256"
            },
            {
              "internalType": "contract IERC1155_Game_Items_Collection",
              "name": "itemsCollection",
              "type": "address"
            },
            {
              "internalType": "contract IERC20",
              "name": "currency",
              "type": "address"
            }
          ],
          "indexed": false,
          "internalType": "struct IGame_Items_Merchant.ItemOffer",
          "name": "offer",
          "type": "tuple"
        }
      ],
      "name": "BuyOfferSet",
      "type": "event"
    },
    {
      "anonymous": false,
      "inputs": [
        {
          "indexed": true,
          "internalType": "bytes32",
          "name": "role",
          "type": "bytes32"
        },
        {
          "indexed": true,
          "internalType": "bytes32",
          "name": "previousAdminRole",
          "type": "bytes32"
        },
        {
          "indexed": true,
          "internalType": "bytes32",
          "name": "newAdminRole",
          "type": "bytes32"
        }
      ],
      "name": "RoleAdminChanged",
      "type": "event"
    },
    {
      "anonymous": false,
      "inputs": [
        {
          "indexed": true,
          "internalType": "bytes32",
          "name": "role",
          "type": "bytes32"
        },
        {
          "indexed": true,
          "internalType": "address",
          "name": "account",
          "type": "address"
        },
        {
          "indexed": true,
          "internalType": "address",
          "name": "sender",
          "type": "address"
        }
      ],
      "name": "RoleGranted",
      "type": "event"
    },
    {
      "anonymous": false,
      "inputs": [
        {
          "indexed": true,
          "internalType": "bytes32",
          "name": "role",
          "type": "bytes32"
        },
        {
          "indexed": true,
          "internalType": "address",
          "name": "account",
          "type": "address"
        },
        {
          "indexed": true,
          "internalType": "address",
          "name": "sender",
          "type": "address"
        }
      ],
      "name": "RoleRevoked",
      "type": "event"
    },
    {
      "anonymous": false,
      "inputs": [
        {
          "indexed": true,
          "internalType": "bytes32",
          "name": "offerId",
          "type": "bytes32"
        },
        {
          "components": [
            {
              "internalType": "bool",
              "name": "isActive",
              "type": "bool"
            },
            {
              "internalType": "uint256[]",
              "name": "itemIds",
              "type": "uint256[]"
            },
            {
              "internalType": "uint256[]",
              "name": "itemAmounts",
              "type": "uint256[]"
            },
            {
              "internalType": "uint256",
              "name": "currencyAmount",
              "type": "uint256"
            },
            {
              "internalType": "uint256",
              "name": "uses",
              "type": "uint256"
            },
            {
              "internalType": "uint256",
              "name": "maxUses",
              "type": "uint256"
            },
            {
              "internalType": "contract IERC1155_Game_Items_Collection",
              "name": "itemsCollection",
              "type": "address"
            },
            {
              "internalType": "contract IERC20",
              "name": "currency",
              "type": "address"
            }
          ],
          "indexed": false,
          "internalType": "struct IGame_Items_Merchant.ItemOffer",
          "name": "offer",
          "type": "tuple"
        },
        {
          "indexed": false,
          "internalType": "address",
          "name": "seller",
          "type": "address"
        }
      ],
      "name": "Sell",
      "type": "event"
    },
    {
      "anonymous": false,
      "inputs": [
        {
          "indexed": true,
          "internalType": "bytes32",
          "name": "offerId",
          "type": "bytes32"
        },
        {
          "components": [
            {
              "internalType": "bool",
              "name": "isActive",
              "type": "bool"
            },
            {
              "internalType": "uint256[]",
              "name": "itemIds",
              "type": "uint256[]"
            },
            {
              "internalType": "uint256[]",
              "name": "itemAmounts",
              "type": "uint256[]"
            },
            {
              "internalType": "uint256",
              "name": "currencyAmount",
              "type": "uint256"
            },
            {
              "internalType": "uint256",
              "name": "uses",
              "type": "uint256"
            },
            {
              "internalType": "uint256",
              "name": "maxUses",
              "type": "uint256"
            },
            {
              "internalType": "contract IERC1155_Game_Items_Collection",
              "name": "itemsCollection",
              "type": "address"
            },
            {
              "internalType": "contract IERC20",
              "name": "currency",
              "type": "address"
            }
          ],
          "indexed": false,
          "internalType": "struct IGame_Items_Merchant.ItemOffer",
          "name": "offer",
          "type": "tuple"
        }
      ],
      "name": "SellOfferRemoved",
      "type": "event"
    },
    {
      "anonymous": false,
      "inputs": [
        {
          "indexed": true,
          "internalType": "bytes32",
          "name": "offerId",
          "type": "bytes32"
        },
        {
          "components": [
            {
              "internalType": "bool",
              "name": "isActive",
              "type": "bool"
            },
            {
              "internalType": "uint256[]",
              "name": "itemIds",
              "type": "uint256[]"
            },
            {
              "internalType": "uint256[]",
              "name": "itemAmounts",
              "type": "uint256[]"
            },
            {
              "internalType": "uint256",
              "name": "currencyAmount",
              "type": "uint256"
            },
            {
              "internalType": "uint256",
              "name": "uses",
              "type": "uint256"
            },
            {
              "internalType": "uint256",
              "name": "maxUses",
              "type": "uint256"
            },
            {
              "internalType": "contract IERC1155_Game_Items_Collection",
              "name": "itemsCollection",
              "type": "address"
            },
            {
              "internalType": "contract IERC20",
              "name": "currency",
              "type": "address"
            }
          ],
          "indexed": false,
          "internalType": "struct IGame_Items_Merchant.ItemOffer",
          "name": "offer",
          "type": "tuple"
        }
      ],
      "name": "SellOfferSet",
      "type": "event"
    },
    {
      "inputs": [],
      "name": "DEFAULT_ADMIN_ROLE",
      "outputs": [
        {
          "internalType": "bytes32",
          "name": "",
          "type": "bytes32"
        }
      ],
      "stateMutability": "view",
      "type": "function"
    },
    {
      "inputs": [],
      "name": "allBuyableItemOfferIds",
      "outputs": [
        {
          "internalType": "bytes32[]",
          "name": "",
          "type": "bytes32[]"
        }
      ],
      "stateMutability": "view",
      "type": "function"
    },
    {
      "inputs": [],
      "name": "allSellableItemOfferIds",
      "outputs": [
        {
          "internalType": "bytes32[]",
          "name": "",
          "type": "bytes32[]"
        }
      ],
      "stateMutability": "view",
      "type": "function"
    },
    {
      "inputs": [
        {
          "internalType": "bytes32",
          "name": "_itemOfferId",
          "type": "bytes32"
        }
      ],
      "name": "buy",
      "outputs": [],
      "stateMutability": "payable",
      "type": "function"
    },
    {
      "inputs": [
        {
          "internalType": "uint256",
          "name": "",
          "type": "uint256"
        }
      ],
      "name": "buyableItemOfferIds",
      "outputs": [
        {
          "internalType": "bytes32",
          "name": "",
          "type": "bytes32"
        }
      ],
      "stateMutability": "view",
      "type": "function"
    },
    {
      "inputs": [
        {
          "internalType": "address",
          "name": "_itemsCollectionAddress",
          "type": "address"
        },
        {
          "internalType": "address",
          "name": "_currencyAddress",
          "type": "address"
        },
        {
          "internalType": "uint256[]",
          "name": "_itemIds",
          "type": "uint256[]"
        }
      ],
      "name": "generateItemOfferId",
      "outputs": [
        {
          "internalType": "bytes32",
          "name": "",
          "type": "bytes32"
        }
      ],
      "stateMutability": "pure",
      "type": "function"
    },
    {
      "inputs": [
        {
          "internalType": "bytes32",
          "name": "_itemOfferId",
          "type": "bytes32"
        }
      ],
      "name": "getBuyableItemOffer",
      "outputs": [
        {
          "components": [
            {
              "internalType": "bool",
              "name": "isActive",
              "type": "bool"
            },
            {
              "internalType": "uint256[]",
              "name": "itemIds",
              "type": "uint256[]"
            },
            {
              "internalType": "uint256[]",
              "name": "itemAmounts",
              "type": "uint256[]"
            },
            {
              "internalType": "uint256",
              "name": "currencyAmount",
              "type": "uint256"
            },
            {
              "internalType": "uint256",
              "name": "uses",
              "type": "uint256"
            },
            {
              "internalType": "uint256",
              "name": "maxUses",
              "type": "uint256"
            },
            {
              "internalType": "contract IERC1155_Game_Items_Collection",
              "name": "itemsCollection",
              "type": "address"
            },
            {
              "internalType": "contract IERC20",
              "name": "currency",
              "type": "address"
            }
          ],
          "internalType": "struct IGame_Items_Merchant.ItemOffer",
          "name": "",
          "type": "tuple"
        }
      ],
      "stateMutability": "view",
      "type": "function"
    },
    {
      "inputs": [
        {
          "internalType": "bytes32",
          "name": "role",
          "type": "bytes32"
        }
      ],
      "name": "getRoleAdmin",
      "outputs": [
        {
          "internalType": "bytes32",
          "name": "",
          "type": "bytes32"
        }
      ],
      "stateMutability": "view",
      "type": "function"
    },
    {
      "inputs": [
        {
          "internalType": "bytes32",
          "name": "_itemOfferId",
          "type": "bytes32"
        }
      ],
      "name": "getSellableItemOffer",
      "outputs": [
        {
          "components": [
            {
              "internalType": "bool",
              "name": "isActive",
              "type": "bool"
            },
            {
              "internalType": "uint256[]",
              "name": "itemIds",
              "type": "uint256[]"
            },
            {
              "internalType": "uint256[]",
              "name": "itemAmounts",
              "type": "uint256[]"
            },
            {
              "internalType": "uint256",
              "name": "currencyAmount",
              "type": "uint256"
            },
            {
              "internalType": "uint256",
              "name": "uses",
              "type": "uint256"
            },
            {
              "internalType": "uint256",
              "name": "maxUses",
              "type": "uint256"
            },
            {
              "internalType": "contract IERC1155_Game_Items_Collection",
              "name": "itemsCollection",
              "type": "address"
            },
            {
              "internalType": "contract IERC20",
              "name": "currency",
              "type": "address"
            }
          ],
          "internalType": "struct IGame_Items_Merchant.ItemOffer",
          "name": "",
          "type": "tuple"
        }
      ],
      "stateMutability": "view",
      "type": "function"
    },
    {
      "inputs": [
        {
          "internalType": "bytes32",
          "name": "role",
          "type": "bytes32"
        },
        {
          "internalType": "address",
          "name": "account",
          "type": "address"
        }
      ],
      "name": "grantRole",
      "outputs": [],
      "stateMutability": "nonpayable",
      "type": "function"
    },
    {
      "inputs": [
        {
          "internalType": "bytes32",
          "name": "role",
          "type": "bytes32"
        },
        {
          "internalType": "address",
          "name": "account",
          "type": "address"
        }
      ],
      "name": "hasRole",
      "outputs": [
        {
          "internalType": "bool",
          "name": "",
          "type": "bool"
        }
      ],
      "stateMutability": "view",
      "type": "function"
    },
    {
      "inputs": [
        {
          "internalType": "address",
          "name": "forwarder",
          "type": "address"
        }
      ],
      "name": "isTrustedForwarder",
      "outputs": [
        {
          "internalType": "bool",
          "name": "",
          "type": "bool"
        }
      ],
      "stateMutability": "view",
      "type": "function"
    },
    {
      "inputs": [
        {
          "internalType": "address",
          "name": "",
          "type": "address"
        },
        {
          "internalType": "address",
          "name": "",
          "type": "address"
        },
        {
          "internalType": "uint256[]",
          "name": "",
          "type": "uint256[]"
        },
        {
          "internalType": "uint256[]",
          "name": "",
          "type": "uint256[]"
        },
        {
          "internalType": "bytes",
          "name": "",
          "type": "bytes"
        }
      ],
      "name": "onERC1155BatchReceived",
      "outputs": [
        {
          "internalType": "bytes4",
          "name": "",
          "type": "bytes4"
        }
      ],
      "stateMutability": "nonpayable",
      "type": "function"
    },
    {
      "inputs": [
        {
          "internalType": "address",
          "name": "",
          "type": "address"
        },
        {
          "internalType": "address",
          "name": "",
          "type": "address"
        },
        {
          "internalType": "uint256",
          "name": "",
          "type": "uint256"
        },
        {
          "internalType": "uint256",
          "name": "",
          "type": "uint256"
        },
        {
          "internalType": "bytes",
          "name": "",
          "type": "bytes"
        }
      ],
      "name": "onERC1155Received",
      "outputs": [
        {
          "internalType": "bytes4",
          "name": "",
          "type": "bytes4"
        }
      ],
      "stateMutability": "nonpayable",
      "type": "function"
    },
    {
      "inputs": [
        {
          "internalType": "uint256",
          "name": "_startIndexInclusive",
          "type": "uint256"
        },
        {
          "internalType": "uint256",
          "name": "_limit",
          "type": "uint256"
        }
      ],
      "name": "paginateBuyableItemOffers",
      "outputs": [
        {
          "components": [
            {
              "internalType": "bool",
              "name": "isActive",
              "type": "bool"
            },
            {
              "internalType": "uint256[]",
              "name": "itemIds",
              "type": "uint256[]"
            },
            {
              "internalType": "uint256[]",
              "name": "itemAmounts",
              "type": "uint256[]"
            },
            {
              "internalType": "uint256",
              "name": "currencyAmount",
              "type": "uint256"
            },
            {
              "internalType": "uint256",
              "name": "uses",
              "type": "uint256"
            },
            {
              "internalType": "uint256",
              "name": "maxUses",
              "type": "uint256"
            },
            {
              "internalType": "contract IERC1155_Game_Items_Collection",
              "name": "itemsCollection",
              "type": "address"
            },
            {
              "internalType": "contract IERC20",
              "name": "currency",
              "type": "address"
            }
          ],
          "internalType": "struct IGame_Items_Merchant.ItemOffer[]",
          "name": "",
          "type": "tuple[]"
        }
      ],
      "stateMutability": "view",
      "type": "function"
    },
    {
      "inputs": [
        {
          "internalType": "uint256",
          "name": "_startIndexInclusive",
          "type": "uint256"
        },
        {
          "internalType": "uint256",
          "name": "_limit",
          "type": "uint256"
        }
      ],
      "name": "paginateSellableItemOffers",
      "outputs": [
        {
          "components": [
            {
              "internalType": "bool",
              "name": "isActive",
              "type": "bool"
            },
            {
              "internalType": "uint256[]",
              "name": "itemIds",
              "type": "uint256[]"
            },
            {
              "internalType": "uint256[]",
              "name": "itemAmounts",
              "type": "uint256[]"
            },
            {
              "internalType": "uint256",
              "name": "currencyAmount",
              "type": "uint256"
            },
            {
              "internalType": "uint256",
              "name": "uses",
              "type": "uint256"
            },
            {
              "internalType": "uint256",
              "name": "maxUses",
              "type": "uint256"
            },
            {
              "internalType": "contract IERC1155_Game_Items_Collection",
              "name": "itemsCollection",
              "type": "address"
            },
            {
              "internalType": "contract IERC20",
              "name": "currency",
              "type": "address"
            }
          ],
          "internalType": "struct IGame_Items_Merchant.ItemOffer[]",
          "name": "",
          "type": "tuple[]"
        }
      ],
      "stateMutability": "view",
      "type": "function"
    },
    {
      "inputs": [
        {
          "internalType": "bytes32",
          "name": "_itemOfferId",
          "type": "bytes32"
        }
      ],
      "name": "removeBuyableItemOffer",
      "outputs": [],
      "stateMutability": "nonpayable",
      "type": "function"
    },
    {
      "inputs": [
        {
          "internalType": "bytes32",
          "name": "_itemOfferId",
          "type": "bytes32"
        }
      ],
      "name": "removeSellableItemOffer",
      "outputs": [],
      "stateMutability": "nonpayable",
      "type": "function"
    },
    {
      "inputs": [
        {
          "internalType": "bytes32",
          "name": "role",
          "type": "bytes32"
        },
        {
          "internalType": "address",
          "name": "account",
          "type": "address"
        }
      ],
      "name": "renounceRole",
      "outputs": [],
      "stateMutability": "nonpayable",
      "type": "function"
    },
    {
      "inputs": [
        {
          "internalType": "bytes32",
          "name": "role",
          "type": "bytes32"
        },
        {
          "internalType": "address",
          "name": "account",
          "type": "address"
        }
      ],
      "name": "revokeRole",
      "outputs": [],
      "stateMutability": "nonpayable",
      "type": "function"
    },
    {
      "inputs": [
        {
          "internalType": "bytes32",
          "name": "_itemOfferId",
          "type": "bytes32"
        }
      ],
      "name": "sell",
      "outputs": [],
      "stateMutability": "nonpayable",
      "type": "function"
    },
    {
      "inputs": [
        {
          "internalType": "uint256",
          "name": "",
          "type": "uint256"
        }
      ],
      "name": "sellableItemOfferIds",
      "outputs": [
        {
          "internalType": "bytes32",
          "name": "",
          "type": "bytes32"
        }
      ],
      "stateMutability": "view",
      "type": "function"
    },
    {
      "inputs": [
        {
          "internalType": "address",
          "name": "_itemsCollectionAddress",
          "type": "address"
        },
        {
          "internalType": "uint256[]",
          "name": "_itemIds",
          "type": "uint256[]"
        },
        {
          "internalType": "uint256[]",
          "name": "_itemAmounts",
          "type": "uint256[]"
        },
        {
          "internalType": "address",
          "name": "_currencyAddress",
          "type": "address"
        },
        {
          "internalType": "uint256",
          "name": "_currencyAmount",
          "type": "uint256"
        },
        {
          "internalType": "uint256",
          "name": "_maxUses",
          "type": "uint256"
        }
      ],
      "name": "setBuyableItemOffer",
      "outputs": [],
      "stateMutability": "nonpayable",
      "type": "function"
    },
    {
      "inputs": [
        {
          "internalType": "address",
          "name": "_itemsCollectionAddress",
          "type": "address"
        },
        {
          "internalType": "uint256[]",
          "name": "_itemIds",
          "type": "uint256[]"
        },
        {
          "internalType": "uint256[]",
          "name": "_itemAmounts",
          "type": "uint256[]"
        },
        {
          "internalType": "address",
          "name": "_currencyAddress",
          "type": "address"
        },
        {
          "internalType": "uint256",
          "name": "_currencyAmount",
          "type": "uint256"
        },
        {
          "internalType": "uint256",
          "name": "_maxUses",
          "type": "uint256"
        }
      ],
      "name": "setSellableItemOffer",
      "outputs": [],
      "stateMutability": "nonpayable",
      "type": "function"
    },
    {
      "inputs": [
        {
          "internalType": "bytes4",
          "name": "interfaceId",
          "type": "bytes4"
        }
      ],
      "name": "supportsInterface",
      "outputs": [
        {
          "internalType": "bool",
          "name": "",
          "type": "bool"
        }
      ],
      "stateMutability": "view",
      "type": "function"
    },
    {
      "inputs": [],
      "name": "totalBuyableItemOffers",
      "outputs": [
        {
          "internalType": "uint256",
          "name": "",
          "type": "uint256"
        }
      ],
      "stateMutability": "view",
      "type": "function"
    },
    {
      "inputs": [],
      "name": "totalSellableItemOffers",
      "outputs": [
        {
          "internalType": "uint256",
          "name": "",
          "type": "uint256"
        }
      ],
      "stateMutability": "view",
      "type": "function"
    },
    {
      "inputs": [
        {
          "internalType": "address",
          "name": "_newTrustedForwarder",
          "type": "address"
        }
      ],
      "name": "upgradeTrustedForwarder",
      "outputs": [],
      "stateMutability": "nonpayable",
      "type": "function"
    },
    {
      "inputs": [
        {
          "internalType": "address",
          "name": "_currencyAddress",
          "type": "address"
        },
        {
          "internalType": "address",
          "name": "_to",
          "type": "address"
        }
      ],
      "name": "withdrawCurrencyTo",
      "outputs": [],
      "stateMutability": "nonpayable",
      "type": "function"
    },
    {
      "inputs": [
        {
          "internalType": "address",
          "name": "_itemsCollectionAddress",
          "type": "address"
        },
        {
          "internalType": "uint256[]",
          "name": "_itemIds",
          "type": "uint256[]"
        },
        {
          "internalType": "address",
          "name": "_to",
          "type": "address"
        }
      ],
      "name": "withdrawItemsTo",
      "outputs": [],
      "stateMutability": "nonpayable",
      "type": "function"
    },
    {
      "inputs": [
        {
          "internalType": "address",
          "name": "_to",
          "type": "address"
        }
      ],
      "name": "withdrawTo",
      "outputs": [],
      "stateMutability": "nonpayable",
      "type": "function"
    },
    {
      "stateMutability": "payable",
      "type": "receive"
    }
  ],
  "bytecode": "0x60806040523480156200001157600080fd5b5060405162003d8b38038062003d8b8339810160408190526200003491620001ac565b600080546001600160a01b0319166001600160a01b03831617815560016002556200006990620000636200009f565b620000bb565b620000987fc9fc9949603a50f5cc3a96f774f1d68287789a241d2082dc81d0fb19a53bcf2b620000636200009f565b50620001de565b6000620000b6620000cb60201b620020f01760201c565b905090565b620000c7828262000101565b5050565b600080546001600160a01b03163303620000ec575060131936013560601c90565b620000b6620001a860201b620021451760201c565b60008281526001602090815260408083206001600160a01b038516845290915290205460ff16620000c75760008281526001602081815260408084206001600160a01b0386168552909152909120805460ff19169091179055620001646200009f565b6001600160a01b0316816001600160a01b0316837f2f8788117e7eff1d82e926ec794901d17c78024a50270940304540a733656f0d60405160405180910390a45050565b3390565b600060208284031215620001bf57600080fd5b81516001600160a01b0381168114620001d757600080fd5b9392505050565b613b9d80620001ee6000396000f3fe6080604052600436106101dc5760003560e01c806391d1485411610102578063c38adf3311610095578063d547741f11610064578063d547741f14610606578063e8e5180214610626578063ead3883514610646578063f23a6e611461066657600080fd5b8063c38adf3314610591578063c4082571146105a6578063c9182fa5146105c6578063cb686303146105e657600080fd5b8063a217fddf116100d1578063a217fddf146104b9578063a9db8eaf146104ce578063aa2a7eea146104fb578063bc197c811461051b57600080fd5b806391d148541461041e578063940315f0146104715780639c9a106114610486578063a071a1591461049957600080fd5b806347aff48a1161017a5780637f413af2116101495780637f413af2146103a957806384ed8d94146103c9578063851f966f146103de5780638b839502146103fe57600080fd5b806347aff48a1461030d578063498c95771461032d578063572b6c051461034d57806372b0d90c1461038957600080fd5b806321fd3f81116101b657806321fd3f8114610261578063248a9ca31461028e5780632f2ff15d146102cd57806336568abe146102ed57600080fd5b806301ffc9a7146101e85780630c2533cb1461021d5780630e5605621461023f57600080fd5b366101e357005b600080fd5b3480156101f457600080fd5b50610208610203366004612e7c565b6106ab565b60405190151581526020015b60405180910390f35b34801561022957600080fd5b5061023d610238366004612ebe565b610753565b005b34801561024b57600080fd5b50610254610bff565b6040516102149190612ed7565b34801561026d57600080fd5b5061028161027c366004612ebe565b610c57565b6040516102149190613002565b34801561029a57600080fd5b506102bf6102a9366004612ebe565b6000908152600160208190526040909120015490565b604051908152602001610214565b3480156102d957600080fd5b5061023d6102e836600461303e565b610df4565b3480156102f957600080fd5b5061023d61030836600461303e565b610e1f565b34801561031957600080fd5b506102bf6103283660046130b6565b610eef565b34801561033957600080fd5b5061023d610348366004613117565b610f28565b34801561035957600080fd5b506102086103683660046131bb565b60005473ffffffffffffffffffffffffffffffffffffffff91821691161490565b34801561039557600080fd5b5061023d6103a43660046131bb565b610f6f565b3480156103b557600080fd5b5061023d6103c43660046131d6565b610fdb565b3480156103d557600080fd5b506003546102bf565b3480156103ea57600080fd5b5061023d6103f9366004612ebe565b6111e6565b34801561040a57600080fd5b5061023d61041936600461323b565b611282565b34801561042a57600080fd5b5061020861043936600461303e565b600091825260016020908152604080842073ffffffffffffffffffffffffffffffffffffffff93909316845291905290205460ff1690565b34801561047d57600080fd5b506005546102bf565b61023d610494366004612ebe565b6113e1565b3480156104a557600080fd5b506102bf6104b4366004612ebe565b611852565b3480156104c557600080fd5b506102bf600081565b3480156104da57600080fd5b506104ee6104e9366004613265565b611873565b6040516102149190613287565b34801561050757600080fd5b5061023d6105163660046131bb565b611b07565b34801561052757600080fd5b50610560610536366004613493565b7fbc197c810000000000000000000000000000000000000000000000000000000095945050505050565b6040517fffffffff000000000000000000000000000000000000000000000000000000009091168152602001610214565b34801561059d57600080fd5b50610254611b75565b3480156105b257600080fd5b5061023d6105c1366004612ebe565b611bcb565b3480156105d257600080fd5b5061023d6105e1366004613117565b611c5b565b3480156105f257600080fd5b50610281610601366004612ebe565b611c97565b34801561061257600080fd5b5061023d61062136600461303e565b611e30565b34801561063257600080fd5b506102bf610641366004612ebe565b611e56565b34801561065257600080fd5b506104ee610661366004613265565b611e66565b34801561067257600080fd5b5061056061068136600461353d565b7ff23a6e610000000000000000000000000000000000000000000000000000000095945050505050565b60007fffffffff0000000000000000000000000000000000000000000000000000000082167fe44eb03d00000000000000000000000000000000000000000000000000000000148061073e57507fffffffff0000000000000000000000000000000000000000000000000000000082167f4e2312e000000000000000000000000000000000000000000000000000000000145b8061074d575061074d82612149565b92915050565b600081815260066020526040902060058101546001918391158061077e575080600501548160040154105b6107e9576040517f08c379a000000000000000000000000000000000000000000000000000000000815260206004820152601b60248201527f4f66666572206861732072656163686564206d617820757365732e000000000060448201526064015b60405180910390fd5b6002805403610854576040517f08c379a000000000000000000000000000000000000000000000000000000000815260206004820152601f60248201527f5265656e7472616e637947756172643a207265656e7472616e742063616c6c0060448201526064016107e0565b6002805561086360018561219f565b6108ef576040517f08c379a000000000000000000000000000000000000000000000000000000000815260206004820152602a60248201527f6974656d4f666665724964206973206e6f7420612076616c69642073656c6c6160448201527f626c65206f666665722e0000000000000000000000000000000000000000000060648201526084016107e0565b60008481526006602081905260409091209081015473ffffffffffffffffffffffffffffffffffffffff16632eb2c2d66109276121ea565b3084600101856002016040518563ffffffff1660e01b815260040161094f9493929190613606565b600060405180830381600087803b15801561096957600080fd5b505af115801561097d573d6000803e3d6000fd5b50505050600781015473ffffffffffffffffffffffffffffffffffffffff1615610b485760078101546109c59073ffffffffffffffffffffffffffffffffffffffff166121f4565b15610a8157600781015473ffffffffffffffffffffffffffffffffffffffff16806340c10f196109f36121ea565b60038501546040517fffffffff0000000000000000000000000000000000000000000000000000000060e085901b16815273ffffffffffffffffffffffffffffffffffffffff90921660048301526024820152604401600060405180830381600087803b158015610a6357600080fd5b505af1158015610a77573d6000803e3d6000fd5b5050505050610b9b565b600781015473ffffffffffffffffffffffffffffffffffffffff1663a9059cbb610aa96121ea565b60038401546040517fffffffff0000000000000000000000000000000000000000000000000000000060e085901b16815273ffffffffffffffffffffffffffffffffffffffff909216600483015260248201526044016020604051808303816000875af1158015610b1e573d6000803e3d6000fd5b505050506040513d601f19601f82011682018060405250810190610b42919061366e565b50610b9b565b610b506121ea565b73ffffffffffffffffffffffffffffffffffffffff166108fc82600301549081150290604051600060405180830381858888f19350505050158015610b99573d6000803e3d6000fd5b505b600481018054906000610bad836136bf565b9190505550847f524f7a32b335a4cca95a96da06713c79b9e1a652b767678a15c1edbd763e756282610bdd6121ea565b604051610beb9291906137ad565b60405180910390a250506001600255505050565b60606005805480602002602001604051908101604052809291908181526020018280548015610c4d57602002820191906000526020600020905b815481526020019060010190808311610c39575b5050505050905090565b610ccd6040518061010001604052806000151581526020016060815260200160608152602001600081526020016000815260200160008152602001600073ffffffffffffffffffffffffffffffffffffffff168152602001600073ffffffffffffffffffffffffffffffffffffffff1681525090565b600082815260066020908152604091829020825161010081018452815460ff161515815260018201805485518186028101860190965280865291949293858101939290830182828015610d3f57602002820191906000526020600020905b815481526020019060010190808311610d2b575b5050505050815260200160028201805480602002602001604051908101604052809291908181526020018280548015610d9757602002820191906000526020600020905b815481526020019060010190808311610d83575b5050509183525050600382015460208201526004820154604082015260058201546060820152600682015473ffffffffffffffffffffffffffffffffffffffff908116608083015260079092015490911660a09091015292915050565b60008281526001602081905260409091200154610e10816122ad565b610e1a83836122c1565b505050565b610e276121ea565b73ffffffffffffffffffffffffffffffffffffffff168173ffffffffffffffffffffffffffffffffffffffff1614610ee1576040517f08c379a000000000000000000000000000000000000000000000000000000000815260206004820152602f60248201527f416363657373436f6e74726f6c3a2063616e206f6e6c792072656e6f756e636560448201527f20726f6c657320666f722073656c66000000000000000000000000000000000060648201526084016107e0565b610eeb82826123b7565b5050565b600084848484604051602001610f0894939291906137e5565b604051602081830303815290604052805190602001209050949350505050565b7fc9fc9949603a50f5cc3a96f774f1d68287789a241d2082dc81d0fb19a53bcf2b610f52816122ad565b610f6460008a8a8a8a8a8a8a8a6124aa565b505050505050505050565b7fc9fc9949603a50f5cc3a96f774f1d68287789a241d2082dc81d0fb19a53bcf2b610f99816122ad565b60405173ffffffffffffffffffffffffffffffffffffffff8316904780156108fc02916000818181858888f19350505050158015610e1a573d6000803e3d6000fd5b7fc9fc9949603a50f5cc3a96f774f1d68287789a241d2082dc81d0fb19a53bcf2b611005816122ad565b8460008467ffffffffffffffff81111561102157611021613307565b60405190808252806020026020018201604052801561104a578160200160208202803683370190505b50905060005b85811015611150578273ffffffffffffffffffffffffffffffffffffffff1662fdd58e3089898581811061108657611086613864565b6040517fffffffff0000000000000000000000000000000000000000000000000000000060e087901b16815273ffffffffffffffffffffffffffffffffffffffff90941660048501526020029190910135602483015250604401602060405180830381865afa1580156110fd573d6000803e3d6000fd5b505050506040513d601f19601f820116820180604052508101906111219190613893565b82828151811061113357611133613864565b602090810291909101015280611148816136bf565b915050611050565b506040517f2eb2c2d600000000000000000000000000000000000000000000000000000000815273ffffffffffffffffffffffffffffffffffffffff831690632eb2c2d6906111ab90309088908b908b9088906004016138ac565b600060405180830381600087803b1580156111c557600080fd5b505af11580156111d9573d6000803e3d6000fd5b5050505050505050505050565b7fc9fc9949603a50f5cc3a96f774f1d68287789a241d2082dc81d0fb19a53bcf2b611210816122ad565b6000828152600660205260409081902080547fffffffffffffffffffffffffffffffffffffffffffffffffffffffffffffff00168155905183917f791a9d4d831b04433f01f05c1eb93fd1ee9e0d05300c761db1e4de6774cc77d291611276919061397b565b60405180910390a25050565b7fc9fc9949603a50f5cc3a96f774f1d68287789a241d2082dc81d0fb19a53bcf2b6112ac816122ad565b6040517f70a08231000000000000000000000000000000000000000000000000000000008152306004820152839073ffffffffffffffffffffffffffffffffffffffff82169063a9059cbb90859083906370a0823190602401602060405180830381865afa158015611322573d6000803e3d6000fd5b505050506040513d601f19601f820116820180604052508101906113469190613893565b6040517fffffffff0000000000000000000000000000000000000000000000000000000060e085901b16815273ffffffffffffffffffffffffffffffffffffffff909216600483015260248201526044016020604051808303816000875af11580156113b6573d6000803e3d6000fd5b505050506040513d601f19601f820116820180604052508101906113da919061366e565b5050505050565b60008181526004602052604081206005810154839190158061140a575080600501548160040154105b611470576040517f08c379a000000000000000000000000000000000000000000000000000000000815260206004820152601b60248201527f4f66666572206861732072656163686564206d617820757365732e000000000060448201526064016107e0565b60028054036114db576040517f08c379a000000000000000000000000000000000000000000000000000000000815260206004820152601f60248201527f5265656e7472616e637947756172643a207265656e7472616e742063616c6c0060448201526064016107e0565b600280556114ea60008561219f565b611576576040517f08c379a000000000000000000000000000000000000000000000000000000000815260206004820152602960248201527f6974656d4f666665724964206973206e6f7420612076616c696420627579616260448201527f6c65206f666665722e000000000000000000000000000000000000000000000060648201526084016107e0565b6000848152600460205260409020600781015473ffffffffffffffffffffffffffffffffffffffff161561167157600781015473ffffffffffffffffffffffffffffffffffffffff166323b872dd6115cc6121ea565b60038401546040517fffffffff0000000000000000000000000000000000000000000000000000000060e085901b16815273ffffffffffffffffffffffffffffffffffffffff909216600483015230602483015260448201526064016020604051808303816000875af1158015611647573d6000803e3d6000fd5b505050506040513d601f19601f8201168201806040525081019061166b919061366e565b506116df565b80600301543410156116df576040517f08c379a000000000000000000000000000000000000000000000000000000000815260206004820152601660248201527f5061796d656e74206c657373207468616e20636f73740000000000000000000060448201526064016107e0565b60068101546117039073ffffffffffffffffffffffffffffffffffffffff166121f4565b1561178d57600681015473ffffffffffffffffffffffffffffffffffffffff166308f427c76117306121ea565b83600101846002016040518463ffffffff1660e01b81526004016117569392919061398e565b600060405180830381600087803b15801561177057600080fd5b505af1158015611784573d6000803e3d6000fd5b50505050611810565b600681015473ffffffffffffffffffffffffffffffffffffffff16632eb2c2d6306117b66121ea565b84600101856002016040518563ffffffff1660e01b81526004016117dd9493929190613606565b600060405180830381600087803b1580156117f757600080fd5b505af115801561180b573d6000803e3d6000fd5b505050505b600481018054906000611822836136bf565b9190505550847fc8d404fe31169cec6410cfdafe61a7cb688c86975da6fcb34f30866afb965d6982610bdd6121ea565b6005818154811061186257600080fd5b600091825260209091200154905081565b6005546060906000908410611889576000611897565b6005546118979085906139d9565b90506000838211156118a957836118ab565b815b905060008167ffffffffffffffff8111156118c8576118c8613307565b60405190808252806020026020018201604052801561196f57816020015b61195c6040518061010001604052806000151581526020016060815260200160608152602001600081526020016000815260200160008152602001600073ffffffffffffffffffffffffffffffffffffffff168152602001600073ffffffffffffffffffffffffffffffffffffffff1681525090565b8152602001906001900390816118e65790505b50905060005b82811015611afd5760066000600561198d848b6139ec565b8154811061199d5761199d613864565b600091825260208083209091015483528281019390935260409182019020815161010081018352815460ff16151581526001820180548451818702810187019095528085529194929385840193909290830182828015611a1c57602002820191906000526020600020905b815481526020019060010190808311611a08575b5050505050815260200160028201805480602002602001604051908101604052809291908181526020018280548015611a7457602002820191906000526020600020905b815481526020019060010190808311611a60575b5050509183525050600382015460208201526004820154604082015260058201546060820152600682015473ffffffffffffffffffffffffffffffffffffffff908116608083015260079092015490911660a0909101528251839083908110611adf57611adf613864565b60200260200101819052508080611af5906136bf565b915050611975565b5095945050505050565b7fc9fc9949603a50f5cc3a96f774f1d68287789a241d2082dc81d0fb19a53bcf2b611b31816122ad565b600080547fffffffffffffffffffffffff00000000000000000000000000000000000000001673ffffffffffffffffffffffffffffffffffffffff84161790555050565b60606003805480602002602001604051908101604052809291908181526020018280548015610c4d5760200282019190600052602060002090815481526020019060010190808311610c39575050505050905090565b7fc9fc9949603a50f5cc3a96f774f1d68287789a241d2082dc81d0fb19a53bcf2b611bf5816122ad565b6000828152600460205260409081902080547fffffffffffffffffffffffffffffffffffffffffffffffffffffffffffffff00168155905183917f08d0c710dd2368e2a0211bc05a3d4b8233455dce1f93a02b7897fc89a24dfcef91611276919061397b565b7fc9fc9949603a50f5cc3a96f774f1d68287789a241d2082dc81d0fb19a53bcf2b611c85816122ad565b610f6460018a8a8a8a8a8a8a8a6124aa565b611d0d6040518061010001604052806000151581526020016060815260200160608152602001600081526020016000815260200160008152602001600073ffffffffffffffffffffffffffffffffffffffff168152602001600073ffffffffffffffffffffffffffffffffffffffff1681525090565b600082815260046020908152604091829020825161010081018452815460ff161515815260018201805485518186028101860190965280865291949293858101939290830182828015610d3f5760200282019190600052602060002090815481526020019060010190808311610d2b575050505050815260200160028201805480602002602001604051908101604052809291908181526020018280548015610d975760200282019190600052602060002090815481526020019060010190808311610d83575050509183525050600382015460208201526004820154604082015260058201546060820152600682015473ffffffffffffffffffffffffffffffffffffffff908116608083015260079092015490911660a09091015292915050565b60008281526001602081905260409091200154611e4c816122ad565b610e1a83836123b7565b6003818154811061186257600080fd5b6003546060906000908410611e7c576000611e8a565b600354611e8a9085906139d9565b9050600083821115611e9c5783611e9e565b815b905060008167ffffffffffffffff811115611ebb57611ebb613307565b604051908082528060200260200182016040528015611f6257816020015b611f4f6040518061010001604052806000151581526020016060815260200160608152602001600081526020016000815260200160008152602001600073ffffffffffffffffffffffffffffffffffffffff168152602001600073ffffffffffffffffffffffffffffffffffffffff1681525090565b815260200190600190039081611ed95790505b50905060005b82811015611afd57600460006003611f80848b6139ec565b81548110611f9057611f90613864565b600091825260208083209091015483528281019390935260409182019020815161010081018352815460ff1615158152600182018054845181870281018701909552808552919492938584019390929083018282801561200f57602002820191906000526020600020905b815481526020019060010190808311611ffb575b505050505081526020016002820180548060200260200160405190810160405280929190818152602001828054801561206757602002820191906000526020600020905b815481526020019060010190808311612053575b5050509183525050600382015460208201526004820154604082015260058201546060820152600682015473ffffffffffffffffffffffffffffffffffffffff908116608083015260079092015490911660a09091015282518390839081106120d2576120d2613864565b602002602001018190525080806120e8906136bf565b915050611f68565b6000805473ffffffffffffffffffffffffffffffffffffffff16330361213b57507fffffffffffffffffffffffffffffffffffffffffffffffffffffffffffffffec36013560601c90565b503390565b905090565b3390565b60007fffffffff0000000000000000000000000000000000000000000000000000000082167f4e2312e000000000000000000000000000000000000000000000000000000000148061074d575061074d826129f6565b6000808360018111156121b4576121b46135a2565b146121d05760008281526006602052604090205460ff166121e3565b60008281526004602052604090205460ff165b9392505050565b60006121406120f0565b6040517f91d148540000000000000000000000000000000000000000000000000000000081527fc9eb32e43bf5ecbceacf00b32281dfc5d6d700a0db676ea26ccf938a385ac3f76004820152306024820152600090829073ffffffffffffffffffffffffffffffffffffffff8216906391d1485490604401602060405180830381865afa158015612289573d6000803e3d6000fd5b505050506040513d601f19601f820116820180604052508101906121e3919061366e565b6122be816122b96121ea565b612a8d565b50565b600082815260016020908152604080832073ffffffffffffffffffffffffffffffffffffffff8516845290915290205460ff16610eeb57600082815260016020818152604080842073ffffffffffffffffffffffffffffffffffffffff8616855290915290912080547fffffffffffffffffffffffffffffffffffffffffffffffffffffffffffffff001690911790556123596121ea565b73ffffffffffffffffffffffffffffffffffffffff168173ffffffffffffffffffffffffffffffffffffffff16837f2f8788117e7eff1d82e926ec794901d17c78024a50270940304540a733656f0d60405160405180910390a45050565b600082815260016020908152604080832073ffffffffffffffffffffffffffffffffffffffff8516845290915290205460ff1615610eeb57600082815260016020908152604080832073ffffffffffffffffffffffffffffffffffffffff85168452909152902080547fffffffffffffffffffffffffffffffffffffffffffffffffffffffffffffff0016905561244c6121ea565b73ffffffffffffffffffffffffffffffffffffffff168173ffffffffffffffffffffffffffffffffffffffff16837ff6391f5c32d9c69d2a47ea670b442974b53935d1edc7fd64eb21e047a839171b60405160405180910390a45050565b6040517f01ffc9a70000000000000000000000000000000000000000000000000000000081527f909aa65d0000000000000000000000000000000000000000000000000000000060048201528890849073ffffffffffffffffffffffffffffffffffffffff8316906301ffc9a790602401602060405180830381865afa158015612538573d6000803e3d6000fd5b505050506040513d601f19601f8201168201806040525081019061255c919061366e565b6125c2576040517f08c379a000000000000000000000000000000000000000000000000000000000815260206004820152601660248201527f496e76616c6964206974656d7320636f6e74726163740000000000000000000060448201526064016107e0565b60006125d08b878c8c610eef565b90506000808d60018111156125e7576125e76135a2565b1461260357600082815260066020526040902060040154612617565b600082815260046020819052604090912001545b905060006040518061010001604052806001151581526020018d8d808060200260200160405190810160405280939291908181526020018383602002808284376000920191909152505050908252506040805160208d810282810182019093528d82529283019290918e918e91829185019084908082843760009201919091525050509082525060208101899052604081018490526060810188905273ffffffffffffffffffffffffffffffffffffffff8088166080830152861660a09091015290506126e48e84612b5f565b6127715760008e60018111156126fc576126fc6135a2565b1461273b57600580546001810182556000919091527f036b6384b5eca791c62761152d0c79bb0604c104a5fb6f4eb0703f3154bb3db001839055612771565b600380546001810182556000919091527fc2575a0e9e593c00f959f8c92f12db2869c3395a3b0502d05e2516446f71f85b018390555b60008e6001811115612785576127856135a2565b036128ba576000838152600460209081526040909120825181547fffffffffffffffffffffffffffffffffffffffffffffffffffffffffffffff001690151517815582820151805184936127e0926001850192910190612e1c565b50604082015180516127fc916002840191602090910190612e1c565b50606082015160038201556080820151600482015560a0820151600582015560c08201516006820180547fffffffffffffffffffffffff000000000000000000000000000000000000000090811673ffffffffffffffffffffffffffffffffffffffff9384161790915560e09093015160079092018054909316911617905560405183907fe9e1f29945310cffea73788fa21acea6d3fbe3e4d08573002c3dcd57772bba6b906128ad908490613002565b60405180910390a26129e6565b6000838152600660209081526040909120825181547fffffffffffffffffffffffffffffffffffffffffffffffffffffffffffffff00169015151781558282015180518493612910926001850192910190612e1c565b506040820151805161292c916002840191602090910190612e1c565b50606082015160038201556080820151600482015560a0820151600582015560c08201516006820180547fffffffffffffffffffffffff000000000000000000000000000000000000000090811673ffffffffffffffffffffffffffffffffffffffff9384161790915560e09093015160079092018054909316911617905560405183907feb5b40610c25cdf0d6e9683c624a9afd3888863d298757edafb838c5b0d04f67906129dd908490613002565b60405180910390a25b5050505050505050505050505050565b60007fffffffff0000000000000000000000000000000000000000000000000000000082167f7965db0b00000000000000000000000000000000000000000000000000000000148061074d57507f01ffc9a7000000000000000000000000000000000000000000000000000000007fffffffff0000000000000000000000000000000000000000000000000000000083161461074d565b600082815260016020908152604080832073ffffffffffffffffffffffffffffffffffffffff8516845290915290205460ff16610eeb57612ae58173ffffffffffffffffffffffffffffffffffffffff166014612bd9565b612af0836020612bd9565b604051602001612b01929190613a23565b604080517fffffffffffffffffffffffffffffffffffffffffffffffffffffffffffffffe0818403018152908290527f08c379a00000000000000000000000000000000000000000000000000000000082526107e091600401613aa4565b600080836001811115612b7457612b746135a2565b14612ba9576000828152600660208190526040909120015473ffffffffffffffffffffffffffffffffffffffff1615156121e3565b5060009081526004602052604090206006015473ffffffffffffffffffffffffffffffffffffffff161515919050565b60606000612be8836002613af5565b612bf39060026139ec565b67ffffffffffffffff811115612c0b57612c0b613307565b6040519080825280601f01601f191660200182016040528015612c35576020820181803683370190505b5090507f300000000000000000000000000000000000000000000000000000000000000081600081518110612c6c57612c6c613864565b60200101907effffffffffffffffffffffffffffffffffffffffffffffffffffffffffffff1916908160001a9053507f780000000000000000000000000000000000000000000000000000000000000081600181518110612ccf57612ccf613864565b60200101907effffffffffffffffffffffffffffffffffffffffffffffffffffffffffffff1916908160001a9053506000612d0b846002613af5565b612d169060016139ec565b90505b6001811115612db3577f303132333435363738396162636465660000000000000000000000000000000085600f1660108110612d5757612d57613864565b1a60f81b828281518110612d6d57612d6d613864565b60200101907effffffffffffffffffffffffffffffffffffffffffffffffffffffffffffff1916908160001a90535060049490941c93612dac81613b32565b9050612d19565b5083156121e3576040517f08c379a000000000000000000000000000000000000000000000000000000000815260206004820181905260248201527f537472696e67733a20686578206c656e67746820696e73756666696369656e7460448201526064016107e0565b828054828255906000526020600020908101928215612e57579160200282015b82811115612e57578251825591602001919060010190612e3c565b50612e63929150612e67565b5090565b5b80821115612e635760008155600101612e68565b600060208284031215612e8e57600080fd5b81357fffffffff00000000000000000000000000000000000000000000000000000000811681146121e357600080fd5b600060208284031215612ed057600080fd5b5035919050565b6020808252825182820181905260009190848201906040850190845b81811015612f0f57835183529284019291840191600101612ef3565b50909695505050505050565b600081518084526020808501945080840160005b83811015612f4b57815187529582019590820190600101612f2f565b509495945050505050565b60006101008251151584526020830151816020860152612f7882860182612f1b565b91505060408301518482036040860152612f928282612f1b565b915050606083015160608501526080830151608085015260a083015160a085015273ffffffffffffffffffffffffffffffffffffffff60c08401511660c085015260e0830151612ffa60e086018273ffffffffffffffffffffffffffffffffffffffff169052565b509392505050565b6020815260006121e36020830184612f56565b803573ffffffffffffffffffffffffffffffffffffffff8116811461303957600080fd5b919050565b6000806040838503121561305157600080fd5b8235915061306160208401613015565b90509250929050565b60008083601f84011261307c57600080fd5b50813567ffffffffffffffff81111561309457600080fd5b6020830191508360208260051b85010111156130af57600080fd5b9250929050565b600080600080606085870312156130cc57600080fd5b6130d585613015565b93506130e360208601613015565b9250604085013567ffffffffffffffff8111156130ff57600080fd5b61310b8782880161306a565b95989497509550505050565b60008060008060008060008060c0898b03121561313357600080fd5b61313c89613015565b9750602089013567ffffffffffffffff8082111561315957600080fd5b6131658c838d0161306a565b909950975060408b013591508082111561317e57600080fd5b5061318b8b828c0161306a565b909650945061319e905060608a01613015565b92506080890135915060a089013590509295985092959890939650565b6000602082840312156131cd57600080fd5b6121e382613015565b600080600080606085870312156131ec57600080fd5b6131f585613015565b9350602085013567ffffffffffffffff81111561321157600080fd5b61321d8782880161306a565b9094509250613230905060408601613015565b905092959194509250565b6000806040838503121561324e57600080fd5b61325783613015565b915061306160208401613015565b6000806040838503121561327857600080fd5b50508035926020909101359150565b6000602080830181845280855180835260408601915060408160051b870101925083870160005b828110156132fa577fffffffffffffffffffffffffffffffffffffffffffffffffffffffffffffffc08886030184526132e8858351612f56565b945092850192908501906001016132ae565b5092979650505050505050565b7f4e487b7100000000000000000000000000000000000000000000000000000000600052604160045260246000fd5b604051601f82017fffffffffffffffffffffffffffffffffffffffffffffffffffffffffffffffe016810167ffffffffffffffff8111828210171561337d5761337d613307565b604052919050565b600082601f83011261339657600080fd5b8135602067ffffffffffffffff8211156133b2576133b2613307565b8160051b6133c1828201613336565b92835284810182019282810190878511156133db57600080fd5b83870192505b848310156133fa578235825291830191908301906133e1565b979650505050505050565b600082601f83011261341657600080fd5b813567ffffffffffffffff81111561343057613430613307565b61346160207fffffffffffffffffffffffffffffffffffffffffffffffffffffffffffffffe0601f84011601613336565b81815284602083860101111561347657600080fd5b816020850160208301376000918101602001919091529392505050565b600080600080600060a086880312156134ab57600080fd5b6134b486613015565b94506134c260208701613015565b9350604086013567ffffffffffffffff808211156134df57600080fd5b6134eb89838a01613385565b9450606088013591508082111561350157600080fd5b61350d89838a01613385565b9350608088013591508082111561352357600080fd5b5061353088828901613405565b9150509295509295909350565b600080600080600060a0868803121561355557600080fd5b61355e86613015565b945061356c60208701613015565b93506040860135925060608601359150608086013567ffffffffffffffff81111561359657600080fd5b61353088828901613405565b7f4e487b7100000000000000000000000000000000000000000000000000000000600052602160045260246000fd5b6000815480845260208085019450836000528060002060005b83811015612f4b578154875295820195600191820191016135ea565b600073ffffffffffffffffffffffffffffffffffffffff808716835280861660208401525060a0604083015261363f60a08301856135d1565b828103606084015261365181856135d1565b838103608090940193909352505060008152602001949350505050565b60006020828403121561368057600080fd5b815180151581146121e357600080fd5b7f4e487b7100000000000000000000000000000000000000000000000000000000600052601160045260246000fd5b60007fffffffffffffffffffffffffffffffffffffffffffffffffffffffffffffffff82036136f0576136f0613690565b5060010190565b60006101006137118461370b855460ff1690565b15159052565b806020850152613726818501600185016135d1565b9050838103604085015261373d81600285016135d1565b90506003830154606085015260048301546080850152600583015460a085015261377e600684015473ffffffffffffffffffffffffffffffffffffffff1690565b73ffffffffffffffffffffffffffffffffffffffff90811660c086015260078401541660e08501819052612ffa565b6040815260006137c060408301856136f7565b905073ffffffffffffffffffffffffffffffffffffffff831660208301529392505050565b60007fffffffffffffffffffffffffffffffffffffffff000000000000000000000000808760601b168352808660601b166014840152507f07ffffffffffffffffffffffffffffffffffffffffffffffffffffffffffffff83111561384957600080fd5b8260051b808560288501379190910160280195945050505050565b7f4e487b7100000000000000000000000000000000000000000000000000000000600052603260045260246000fd5b6000602082840312156138a557600080fd5b5051919050565b600073ffffffffffffffffffffffffffffffffffffffff808816835260208188168185015260a060408501528560a08501527f07ffffffffffffffffffffffffffffffffffffffffffffffffffffffffffffff86111561390b57600080fd5b8560051b9150818760c086013760c09184018481038301606086015285519281018390528582019260009160e001905b8083101561395b578451825293830193600192909201919083019061393b565b50858103608087015260008152602081019b9a5050505050505050505050565b6020815260006121e360208301846136f7565b73ffffffffffffffffffffffffffffffffffffffff841681526060602082015260006139bd60608301856135d1565b82810360408401526139cf81856135d1565b9695505050505050565b8181038181111561074d5761074d613690565b8082018082111561074d5761074d613690565b60005b83811015613a1a578181015183820152602001613a02565b50506000910152565b7f416363657373436f6e74726f6c3a206163636f756e7420000000000000000000815260008351613a5b8160178501602088016139ff565b7f206973206d697373696e6720726f6c65200000000000000000000000000000006017918401918201528351613a988160288401602088016139ff565b01602801949350505050565b6020815260008251806020840152613ac38160408501602087016139ff565b601f017fffffffffffffffffffffffffffffffffffffffffffffffffffffffffffffffe0169190910160400192915050565b6000817fffffffffffffffffffffffffffffffffffffffffffffffffffffffffffffffff0483118215151615613b2d57613b2d613690565b500290565b600081613b4157613b41613690565b507fffffffffffffffffffffffffffffffffffffffffffffffffffffffffffffffff019056fea2646970667358221220482df84b78ada51ebdd46c1a1f32a3d1b85eebe3db40778ba38c4c9f4997946b64736f6c63430008100033",
  "linkReferences": {},
  "deployedLinkReferences": {}
}