{
  "_format": "hh-sol-artifact-1",
  "contractName": "Game_Items_Merchant",
  "sourceName": "contracts/Items_Merchant/Game_Items_Merchant.sol",
  "abi": [
    {
      "inputs": [
        {
          "internalType": "address",
          "name": "_forwarder",
          "type": "address"
        }
      ],
      "stateMutability": "nonpayable",
      "type": "constructor"
    },
    {
      "anonymous": false,
      "inputs": [
        {
          "indexed": true,
          "internalType": "bytes32",
          "name": "role",
          "type": "bytes32"
        },
        {
          "indexed": true,
          "internalType": "bytes32",
          "name": "previousAdminRole",
          "type": "bytes32"
        },
        {
          "indexed": true,
          "internalType": "bytes32",
          "name": "newAdminRole",
          "type": "bytes32"
        }
      ],
      "name": "RoleAdminChanged",
      "type": "event"
    },
    {
      "anonymous": false,
      "inputs": [
        {
          "indexed": true,
          "internalType": "bytes32",
          "name": "role",
          "type": "bytes32"
        },
        {
          "indexed": true,
          "internalType": "address",
          "name": "account",
          "type": "address"
        },
        {
          "indexed": true,
          "internalType": "address",
          "name": "sender",
          "type": "address"
        }
      ],
      "name": "RoleGranted",
      "type": "event"
    },
    {
      "anonymous": false,
      "inputs": [
        {
          "indexed": true,
          "internalType": "bytes32",
          "name": "role",
          "type": "bytes32"
        },
        {
          "indexed": true,
          "internalType": "address",
          "name": "account",
          "type": "address"
        },
        {
          "indexed": true,
          "internalType": "address",
          "name": "sender",
          "type": "address"
        }
      ],
      "name": "RoleRevoked",
      "type": "event"
    },
    {
      "inputs": [],
      "name": "DEFAULT_ADMIN_ROLE",
      "outputs": [
        {
          "internalType": "bytes32",
          "name": "",
          "type": "bytes32"
        }
      ],
      "stateMutability": "view",
      "type": "function"
    },
    {
      "inputs": [],
      "name": "allBuyableItemOfferIds",
      "outputs": [
        {
          "internalType": "bytes32[]",
          "name": "",
          "type": "bytes32[]"
        }
      ],
      "stateMutability": "view",
      "type": "function"
    },
    {
      "inputs": [],
      "name": "allSellableItemOfferIds",
      "outputs": [
        {
          "internalType": "bytes32[]",
          "name": "",
          "type": "bytes32[]"
        }
      ],
      "stateMutability": "view",
      "type": "function"
    },
    {
      "inputs": [
        {
          "internalType": "bytes32",
          "name": "_itemOfferId",
          "type": "bytes32"
        }
      ],
      "name": "buy",
      "outputs": [],
      "stateMutability": "payable",
      "type": "function"
    },
    {
      "inputs": [
        {
          "internalType": "uint256",
          "name": "",
          "type": "uint256"
        }
      ],
      "name": "buyableItemOfferIds",
      "outputs": [
        {
          "internalType": "bytes32",
          "name": "",
          "type": "bytes32"
        }
      ],
      "stateMutability": "view",
      "type": "function"
    },
    {
      "inputs": [
        {
          "internalType": "address",
          "name": "_itemsCollectionAddress",
          "type": "address"
        },
        {
          "internalType": "address",
          "name": "_currencyAddress",
          "type": "address"
        },
        {
          "internalType": "uint256[]",
          "name": "_itemIds",
          "type": "uint256[]"
        }
      ],
      "name": "generateItemOfferId",
      "outputs": [
        {
          "internalType": "bytes32",
          "name": "",
          "type": "bytes32"
        }
      ],
      "stateMutability": "pure",
      "type": "function"
    },
    {
      "inputs": [
        {
          "internalType": "bytes32",
          "name": "_itemOfferId",
          "type": "bytes32"
        }
      ],
      "name": "getBuyableItemOffer",
      "outputs": [
        {
          "components": [
            {
              "internalType": "bool",
              "name": "isActive",
              "type": "bool"
            },
            {
              "internalType": "uint256[]",
              "name": "itemIds",
              "type": "uint256[]"
            },
            {
              "internalType": "uint256[]",
              "name": "itemAmounts",
              "type": "uint256[]"
            },
            {
              "internalType": "uint256",
              "name": "currencyAmount",
              "type": "uint256"
            },
            {
              "internalType": "uint256",
              "name": "uses",
              "type": "uint256"
            },
            {
              "internalType": "uint256",
              "name": "maxUses",
              "type": "uint256"
            },
            {
              "internalType": "contract IERC1155_Game_Items_Collection",
              "name": "itemsCollection",
              "type": "address"
            },
            {
              "internalType": "contract IERC20",
              "name": "currency",
              "type": "address"
            }
          ],
          "internalType": "struct IGame_Items_Merchant.ItemOffer",
          "name": "",
          "type": "tuple"
        }
      ],
      "stateMutability": "view",
      "type": "function"
    },
    {
      "inputs": [
        {
          "internalType": "bytes32",
          "name": "role",
          "type": "bytes32"
        }
      ],
      "name": "getRoleAdmin",
      "outputs": [
        {
          "internalType": "bytes32",
          "name": "",
          "type": "bytes32"
        }
      ],
      "stateMutability": "view",
      "type": "function"
    },
    {
      "inputs": [
        {
          "internalType": "bytes32",
          "name": "_itemOfferId",
          "type": "bytes32"
        }
      ],
      "name": "getSellableItemOffer",
      "outputs": [
        {
          "components": [
            {
              "internalType": "bool",
              "name": "isActive",
              "type": "bool"
            },
            {
              "internalType": "uint256[]",
              "name": "itemIds",
              "type": "uint256[]"
            },
            {
              "internalType": "uint256[]",
              "name": "itemAmounts",
              "type": "uint256[]"
            },
            {
              "internalType": "uint256",
              "name": "currencyAmount",
              "type": "uint256"
            },
            {
              "internalType": "uint256",
              "name": "uses",
              "type": "uint256"
            },
            {
              "internalType": "uint256",
              "name": "maxUses",
              "type": "uint256"
            },
            {
              "internalType": "contract IERC1155_Game_Items_Collection",
              "name": "itemsCollection",
              "type": "address"
            },
            {
              "internalType": "contract IERC20",
              "name": "currency",
              "type": "address"
            }
          ],
          "internalType": "struct IGame_Items_Merchant.ItemOffer",
          "name": "",
          "type": "tuple"
        }
      ],
      "stateMutability": "view",
      "type": "function"
    },
    {
      "inputs": [
        {
          "internalType": "bytes32",
          "name": "role",
          "type": "bytes32"
        },
        {
          "internalType": "address",
          "name": "account",
          "type": "address"
        }
      ],
      "name": "grantRole",
      "outputs": [],
      "stateMutability": "nonpayable",
      "type": "function"
    },
    {
      "inputs": [
        {
          "internalType": "bytes32",
          "name": "role",
          "type": "bytes32"
        },
        {
          "internalType": "address",
          "name": "account",
          "type": "address"
        }
      ],
      "name": "hasRole",
      "outputs": [
        {
          "internalType": "bool",
          "name": "",
          "type": "bool"
        }
      ],
      "stateMutability": "view",
      "type": "function"
    },
    {
      "inputs": [
        {
          "internalType": "address",
          "name": "forwarder",
          "type": "address"
        }
      ],
      "name": "isTrustedForwarder",
      "outputs": [
        {
          "internalType": "bool",
          "name": "",
          "type": "bool"
        }
      ],
      "stateMutability": "view",
      "type": "function"
    },
    {
      "inputs": [
        {
          "internalType": "address",
          "name": "",
          "type": "address"
        },
        {
          "internalType": "address",
          "name": "",
          "type": "address"
        },
        {
          "internalType": "uint256[]",
          "name": "",
          "type": "uint256[]"
        },
        {
          "internalType": "uint256[]",
          "name": "",
          "type": "uint256[]"
        },
        {
          "internalType": "bytes",
          "name": "",
          "type": "bytes"
        }
      ],
      "name": "onERC1155BatchReceived",
      "outputs": [
        {
          "internalType": "bytes4",
          "name": "",
          "type": "bytes4"
        }
      ],
      "stateMutability": "nonpayable",
      "type": "function"
    },
    {
      "inputs": [
        {
          "internalType": "address",
          "name": "",
          "type": "address"
        },
        {
          "internalType": "address",
          "name": "",
          "type": "address"
        },
        {
          "internalType": "uint256",
          "name": "",
          "type": "uint256"
        },
        {
          "internalType": "uint256",
          "name": "",
          "type": "uint256"
        },
        {
          "internalType": "bytes",
          "name": "",
          "type": "bytes"
        }
      ],
      "name": "onERC1155Received",
      "outputs": [
        {
          "internalType": "bytes4",
          "name": "",
          "type": "bytes4"
        }
      ],
      "stateMutability": "nonpayable",
      "type": "function"
    },
    {
      "inputs": [
        {
          "internalType": "uint256",
          "name": "_startIndexInclusive",
          "type": "uint256"
        },
        {
          "internalType": "uint256",
          "name": "_limit",
          "type": "uint256"
        }
      ],
      "name": "paginateBuyableItemOffers",
      "outputs": [
        {
          "components": [
            {
              "internalType": "bool",
              "name": "isActive",
              "type": "bool"
            },
            {
              "internalType": "uint256[]",
              "name": "itemIds",
              "type": "uint256[]"
            },
            {
              "internalType": "uint256[]",
              "name": "itemAmounts",
              "type": "uint256[]"
            },
            {
              "internalType": "uint256",
              "name": "currencyAmount",
              "type": "uint256"
            },
            {
              "internalType": "uint256",
              "name": "uses",
              "type": "uint256"
            },
            {
              "internalType": "uint256",
              "name": "maxUses",
              "type": "uint256"
            },
            {
              "internalType": "contract IERC1155_Game_Items_Collection",
              "name": "itemsCollection",
              "type": "address"
            },
            {
              "internalType": "contract IERC20",
              "name": "currency",
              "type": "address"
            }
          ],
          "internalType": "struct IGame_Items_Merchant.ItemOffer[]",
          "name": "",
          "type": "tuple[]"
        }
      ],
      "stateMutability": "view",
      "type": "function"
    },
    {
      "inputs": [
        {
          "internalType": "uint256",
          "name": "_startIndexInclusive",
          "type": "uint256"
        },
        {
          "internalType": "uint256",
          "name": "_limit",
          "type": "uint256"
        }
      ],
      "name": "paginateSellableItemOffers",
      "outputs": [
        {
          "components": [
            {
              "internalType": "bool",
              "name": "isActive",
              "type": "bool"
            },
            {
              "internalType": "uint256[]",
              "name": "itemIds",
              "type": "uint256[]"
            },
            {
              "internalType": "uint256[]",
              "name": "itemAmounts",
              "type": "uint256[]"
            },
            {
              "internalType": "uint256",
              "name": "currencyAmount",
              "type": "uint256"
            },
            {
              "internalType": "uint256",
              "name": "uses",
              "type": "uint256"
            },
            {
              "internalType": "uint256",
              "name": "maxUses",
              "type": "uint256"
            },
            {
              "internalType": "contract IERC1155_Game_Items_Collection",
              "name": "itemsCollection",
              "type": "address"
            },
            {
              "internalType": "contract IERC20",
              "name": "currency",
              "type": "address"
            }
          ],
          "internalType": "struct IGame_Items_Merchant.ItemOffer[]",
          "name": "",
          "type": "tuple[]"
        }
      ],
      "stateMutability": "view",
      "type": "function"
    },
    {
      "inputs": [
        {
          "internalType": "bytes32",
          "name": "_itemOfferId",
          "type": "bytes32"
        }
      ],
      "name": "removeBuyableItemOffer",
      "outputs": [],
      "stateMutability": "nonpayable",
      "type": "function"
    },
    {
      "inputs": [
        {
          "internalType": "bytes32",
          "name": "_itemOfferId",
          "type": "bytes32"
        }
      ],
      "name": "removeSellableItemOffer",
      "outputs": [],
      "stateMutability": "nonpayable",
      "type": "function"
    },
    {
      "inputs": [
        {
          "internalType": "bytes32",
          "name": "role",
          "type": "bytes32"
        },
        {
          "internalType": "address",
          "name": "account",
          "type": "address"
        }
      ],
      "name": "renounceRole",
      "outputs": [],
      "stateMutability": "nonpayable",
      "type": "function"
    },
    {
      "inputs": [
        {
          "internalType": "bytes32",
          "name": "role",
          "type": "bytes32"
        },
        {
          "internalType": "address",
          "name": "account",
          "type": "address"
        }
      ],
      "name": "revokeRole",
      "outputs": [],
      "stateMutability": "nonpayable",
      "type": "function"
    },
    {
      "inputs": [
        {
          "internalType": "bytes32",
          "name": "_itemOfferId",
          "type": "bytes32"
        }
      ],
      "name": "sell",
      "outputs": [],
      "stateMutability": "nonpayable",
      "type": "function"
    },
    {
      "inputs": [
        {
          "internalType": "uint256",
          "name": "",
          "type": "uint256"
        }
      ],
      "name": "sellableItemOfferIds",
      "outputs": [
        {
          "internalType": "bytes32",
          "name": "",
          "type": "bytes32"
        }
      ],
      "stateMutability": "view",
      "type": "function"
    },
    {
      "inputs": [
        {
          "internalType": "address",
          "name": "_itemsCollectionAddress",
          "type": "address"
        },
        {
          "internalType": "uint256[]",
          "name": "_itemIds",
          "type": "uint256[]"
        },
        {
          "internalType": "uint256[]",
          "name": "_itemAmounts",
          "type": "uint256[]"
        },
        {
          "internalType": "address",
          "name": "_currencyAddress",
          "type": "address"
        },
        {
          "internalType": "uint256",
          "name": "_currencyAmount",
          "type": "uint256"
        },
        {
          "internalType": "uint256",
          "name": "_maxUses",
          "type": "uint256"
        }
      ],
      "name": "setBuyableItemOffer",
      "outputs": [],
      "stateMutability": "nonpayable",
      "type": "function"
    },
    {
      "inputs": [
        {
          "internalType": "address",
          "name": "_itemsCollectionAddress",
          "type": "address"
        },
        {
          "internalType": "uint256[]",
          "name": "_itemIds",
          "type": "uint256[]"
        },
        {
          "internalType": "uint256[]",
          "name": "_itemAmounts",
          "type": "uint256[]"
        },
        {
          "internalType": "address",
          "name": "_currencyAddress",
          "type": "address"
        },
        {
          "internalType": "uint256",
          "name": "_currencyAmount",
          "type": "uint256"
        },
        {
          "internalType": "uint256",
          "name": "_maxUses",
          "type": "uint256"
        }
      ],
      "name": "setSellableItemOffer",
      "outputs": [],
      "stateMutability": "nonpayable",
      "type": "function"
    },
    {
      "inputs": [
        {
          "internalType": "bytes4",
          "name": "interfaceId",
          "type": "bytes4"
        }
      ],
      "name": "supportsInterface",
      "outputs": [
        {
          "internalType": "bool",
          "name": "",
          "type": "bool"
        }
      ],
      "stateMutability": "view",
      "type": "function"
    },
    {
      "inputs": [],
      "name": "totalBuyableItemOffers",
      "outputs": [
        {
          "internalType": "uint256",
          "name": "",
          "type": "uint256"
        }
      ],
      "stateMutability": "view",
      "type": "function"
    },
    {
      "inputs": [],
      "name": "totalSellableItemOffers",
      "outputs": [
        {
          "internalType": "uint256",
          "name": "",
          "type": "uint256"
        }
      ],
      "stateMutability": "view",
      "type": "function"
    },
    {
      "inputs": [
        {
          "internalType": "address",
          "name": "_newTrustedForwarder",
          "type": "address"
        }
      ],
      "name": "upgradeTrustedForwarder",
      "outputs": [],
      "stateMutability": "nonpayable",
      "type": "function"
    },
    {
      "inputs": [
        {
          "internalType": "address",
          "name": "_currencyAddress",
          "type": "address"
        },
        {
          "internalType": "address",
          "name": "_to",
          "type": "address"
        }
      ],
      "name": "withdrawCurrencyTo",
      "outputs": [],
      "stateMutability": "nonpayable",
      "type": "function"
    },
    {
      "inputs": [
        {
          "internalType": "address",
          "name": "_itemsCollectionAddress",
          "type": "address"
        },
        {
          "internalType": "uint256[]",
          "name": "_itemIds",
          "type": "uint256[]"
        },
        {
          "internalType": "address",
          "name": "_to",
          "type": "address"
        }
      ],
      "name": "withdrawItemsTo",
      "outputs": [],
      "stateMutability": "nonpayable",
      "type": "function"
    },
    {
      "inputs": [
        {
          "internalType": "address",
          "name": "_to",
          "type": "address"
        }
      ],
      "name": "withdrawTo",
      "outputs": [],
      "stateMutability": "nonpayable",
      "type": "function"
    },
    {
      "stateMutability": "payable",
      "type": "receive"
    }
  ],
  "bytecode": "0x60806040523480156200001157600080fd5b5060405162003b3b38038062003b3b8339810160408190526200003491620001ac565b600080546001600160a01b0319166001600160a01b03831617815560016002556200006990620000636200009f565b620000bb565b620000987fc9fc9949603a50f5cc3a96f774f1d68287789a241d2082dc81d0fb19a53bcf2b620000636200009f565b50620001de565b6000620000b6620000cb60201b620020141760201c565b905090565b620000c7828262000101565b5050565b600080546001600160a01b03163303620000ec575060131936013560601c90565b620000b6620001a860201b620020691760201c565b60008281526001602090815260408083206001600160a01b038516845290915290205460ff16620000c75760008281526001602081815260408084206001600160a01b0386168552909152909120805460ff19169091179055620001646200009f565b6001600160a01b0316816001600160a01b0316837f2f8788117e7eff1d82e926ec794901d17c78024a50270940304540a733656f0d60405160405180910390a45050565b3390565b600060208284031215620001bf57600080fd5b81516001600160a01b0381168114620001d757600080fd5b9392505050565b61394d80620001ee6000396000f3fe6080604052600436106101dc5760003560e01c806391d1485411610102578063c38adf3311610095578063d547741f11610064578063d547741f14610606578063e8e5180214610626578063ead3883514610646578063f23a6e611461066657600080fd5b8063c38adf3314610591578063c4082571146105a6578063c9182fa5146105c6578063cb686303146105e657600080fd5b8063a217fddf116100d1578063a217fddf146104b9578063a9db8eaf146104ce578063aa2a7eea146104fb578063bc197c811461051b57600080fd5b806391d148541461041e578063940315f0146104715780639c9a106114610486578063a071a1591461049957600080fd5b806347aff48a1161017a5780637f413af2116101495780637f413af2146103a957806384ed8d94146103c9578063851f966f146103de5780638b839502146103fe57600080fd5b806347aff48a1461030d578063498c95771461032d578063572b6c051461034d57806372b0d90c1461038957600080fd5b806321fd3f81116101b657806321fd3f8114610261578063248a9ca31461028e5780632f2ff15d146102cd57806336568abe146102ed57600080fd5b806301ffc9a7146101e85780630c2533cb1461021d5780630e5605621461023f57600080fd5b366101e357005b600080fd5b3480156101f457600080fd5b50610208610203366004612d2d565b6106ab565b60405190151581526020015b60405180910390f35b34801561022957600080fd5b5061023d610238366004612d6f565b610753565b005b34801561024b57600080fd5b50610254610bbe565b6040516102149190612d88565b34801561026d57600080fd5b5061028161027c366004612d6f565b610c16565b6040516102149190612eb3565b34801561029a57600080fd5b506102bf6102a9366004612d6f565b6000908152600160208190526040909120015490565b604051908152602001610214565b3480156102d957600080fd5b5061023d6102e8366004612eef565b610db3565b3480156102f957600080fd5b5061023d610308366004612eef565b610dde565b34801561031957600080fd5b506102bf610328366004612f67565b610eae565b34801561033957600080fd5b5061023d610348366004612fc8565b610ee7565b34801561035957600080fd5b5061020861036836600461306c565b60005473ffffffffffffffffffffffffffffffffffffffff91821691161490565b34801561039557600080fd5b5061023d6103a436600461306c565b610f2e565b3480156103b557600080fd5b5061023d6103c4366004613087565b610f9a565b3480156103d557600080fd5b506003546102bf565b3480156103ea57600080fd5b5061023d6103f9366004612d6f565b6111a5565b34801561040a57600080fd5b5061023d6104193660046130ec565b611206565b34801561042a57600080fd5b50610208610439366004612eef565b600091825260016020908152604080842073ffffffffffffffffffffffffffffffffffffffff93909316845291905290205460ff1690565b34801561047d57600080fd5b506005546102bf565b61023d610494366004612d6f565b611365565b3480156104a557600080fd5b506102bf6104b4366004612d6f565b6117a5565b3480156104c557600080fd5b506102bf600081565b3480156104da57600080fd5b506104ee6104e9366004613116565b6117c6565b6040516102149190613138565b34801561050757600080fd5b5061023d61051636600461306c565b611a5a565b34801561052757600080fd5b50610560610536366004613344565b7fbc197c810000000000000000000000000000000000000000000000000000000095945050505050565b6040517fffffffff000000000000000000000000000000000000000000000000000000009091168152602001610214565b34801561059d57600080fd5b50610254611ac8565b3480156105b257600080fd5b5061023d6105c1366004612d6f565b611b1e565b3480156105d257600080fd5b5061023d6105e1366004612fc8565b611b7f565b3480156105f257600080fd5b50610281610601366004612d6f565b611bbb565b34801561061257600080fd5b5061023d610621366004612eef565b611d54565b34801561063257600080fd5b506102bf610641366004612d6f565b611d7a565b34801561065257600080fd5b506104ee610661366004613116565b611d8a565b34801561067257600080fd5b506105606106813660046133ee565b7ff23a6e610000000000000000000000000000000000000000000000000000000095945050505050565b60007fffffffff0000000000000000000000000000000000000000000000000000000082167fe44eb03d00000000000000000000000000000000000000000000000000000000148061073e57507fffffffff0000000000000000000000000000000000000000000000000000000082167f4e2312e000000000000000000000000000000000000000000000000000000000145b8061074d575061074d8261206d565b92915050565b600081815260066020526040902060058101546001918391158061077e575080600501548160040154105b6107e9576040517f08c379a000000000000000000000000000000000000000000000000000000000815260206004820152601b60248201527f4f66666572206861732072656163686564206d617820757365732e000000000060448201526064015b60405180910390fd5b6002805403610854576040517f08c379a000000000000000000000000000000000000000000000000000000000815260206004820152601f60248201527f5265656e7472616e637947756172643a207265656e7472616e742063616c6c0060448201526064016107e0565b600280556108636001856120c3565b6108ef576040517f08c379a000000000000000000000000000000000000000000000000000000000815260206004820152602a60248201527f6974656d4f666665724964206973206e6f7420612076616c69642073656c6c6160448201527f626c65206f666665722e0000000000000000000000000000000000000000000060648201526084016107e0565b60008481526006602081905260409091209081015473ffffffffffffffffffffffffffffffffffffffff16632eb2c2d661092761210e565b3084600101856002016040518563ffffffff1660e01b815260040161094f94939291906134b7565b600060405180830381600087803b15801561096957600080fd5b505af115801561097d573d6000803e3d6000fd5b50505050600781015473ffffffffffffffffffffffffffffffffffffffff1615610b485760078101546109c59073ffffffffffffffffffffffffffffffffffffffff16612118565b15610a8157600781015473ffffffffffffffffffffffffffffffffffffffff16806340c10f196109f361210e565b60038501546040517fffffffff0000000000000000000000000000000000000000000000000000000060e085901b16815273ffffffffffffffffffffffffffffffffffffffff90921660048301526024820152604401600060405180830381600087803b158015610a6357600080fd5b505af1158015610a77573d6000803e3d6000fd5b5050505050610b9b565b600781015473ffffffffffffffffffffffffffffffffffffffff1663a9059cbb610aa961210e565b60038401546040517fffffffff0000000000000000000000000000000000000000000000000000000060e085901b16815273ffffffffffffffffffffffffffffffffffffffff909216600483015260248201526044016020604051808303816000875af1158015610b1e573d6000803e3d6000fd5b505050506040513d601f19601f82011682018060405250810190610b42919061351f565b50610b9b565b610b5061210e565b73ffffffffffffffffffffffffffffffffffffffff166108fc82600301549081150290604051600060405180830381858888f19350505050158015610b99573d6000803e3d6000fd5b505b600481018054906000610bad83613570565b909155505060016002555050505050565b60606005805480602002602001604051908101604052809291908181526020018280548015610c0c57602002820191906000526020600020905b815481526020019060010190808311610bf8575b5050505050905090565b610c8c6040518061010001604052806000151581526020016060815260200160608152602001600081526020016000815260200160008152602001600073ffffffffffffffffffffffffffffffffffffffff168152602001600073ffffffffffffffffffffffffffffffffffffffff1681525090565b600082815260066020908152604091829020825161010081018452815460ff161515815260018201805485518186028101860190965280865291949293858101939290830182828015610cfe57602002820191906000526020600020905b815481526020019060010190808311610cea575b5050505050815260200160028201805480602002602001604051908101604052809291908181526020018280548015610d5657602002820191906000526020600020905b815481526020019060010190808311610d42575b5050509183525050600382015460208201526004820154604082015260058201546060820152600682015473ffffffffffffffffffffffffffffffffffffffff908116608083015260079092015490911660a09091015292915050565b60008281526001602081905260409091200154610dcf816121d1565b610dd983836121e5565b505050565b610de661210e565b73ffffffffffffffffffffffffffffffffffffffff168173ffffffffffffffffffffffffffffffffffffffff1614610ea0576040517f08c379a000000000000000000000000000000000000000000000000000000000815260206004820152602f60248201527f416363657373436f6e74726f6c3a2063616e206f6e6c792072656e6f756e636560448201527f20726f6c657320666f722073656c66000000000000000000000000000000000060648201526084016107e0565b610eaa82826122db565b5050565b600084848484604051602001610ec794939291906135a8565b604051602081830303815290604052805190602001209050949350505050565b7fc9fc9949603a50f5cc3a96f774f1d68287789a241d2082dc81d0fb19a53bcf2b610f11816121d1565b610f2360008a8a8a8a8a8a8a8a6123ce565b505050505050505050565b7fc9fc9949603a50f5cc3a96f774f1d68287789a241d2082dc81d0fb19a53bcf2b610f58816121d1565b60405173ffffffffffffffffffffffffffffffffffffffff8316904780156108fc02916000818181858888f19350505050158015610dd9573d6000803e3d6000fd5b7fc9fc9949603a50f5cc3a96f774f1d68287789a241d2082dc81d0fb19a53bcf2b610fc4816121d1565b8460008467ffffffffffffffff811115610fe057610fe06131b8565b604051908082528060200260200182016040528015611009578160200160208202803683370190505b50905060005b8581101561110f578273ffffffffffffffffffffffffffffffffffffffff1662fdd58e3089898581811061104557611045613627565b6040517fffffffff0000000000000000000000000000000000000000000000000000000060e087901b16815273ffffffffffffffffffffffffffffffffffffffff90941660048501526020029190910135602483015250604401602060405180830381865afa1580156110bc573d6000803e3d6000fd5b505050506040513d601f19601f820116820180604052508101906110e09190613656565b8282815181106110f2576110f2613627565b60209081029190910101528061110781613570565b91505061100f565b506040517f2eb2c2d600000000000000000000000000000000000000000000000000000000815273ffffffffffffffffffffffffffffffffffffffff831690632eb2c2d69061116a90309088908b908b90889060040161366f565b600060405180830381600087803b15801561118457600080fd5b505af1158015611198573d6000803e3d6000fd5b5050505050505050505050565b7fc9fc9949603a50f5cc3a96f774f1d68287789a241d2082dc81d0fb19a53bcf2b6111cf816121d1565b50600090815260066020526040902080547fffffffffffffffffffffffffffffffffffffffffffffffffffffffffffffff00169055565b7fc9fc9949603a50f5cc3a96f774f1d68287789a241d2082dc81d0fb19a53bcf2b611230816121d1565b6040517f70a08231000000000000000000000000000000000000000000000000000000008152306004820152839073ffffffffffffffffffffffffffffffffffffffff82169063a9059cbb90859083906370a0823190602401602060405180830381865afa1580156112a6573d6000803e3d6000fd5b505050506040513d601f19601f820116820180604052508101906112ca9190613656565b6040517fffffffff0000000000000000000000000000000000000000000000000000000060e085901b16815273ffffffffffffffffffffffffffffffffffffffff909216600483015260248201526044016020604051808303816000875af115801561133a573d6000803e3d6000fd5b505050506040513d601f19601f8201168201806040525081019061135e919061351f565b5050505050565b60008181526004602052604081206005810154839190158061138e575080600501548160040154105b6113f4576040517f08c379a000000000000000000000000000000000000000000000000000000000815260206004820152601b60248201527f4f66666572206861732072656163686564206d617820757365732e000000000060448201526064016107e0565b600280540361145f576040517f08c379a000000000000000000000000000000000000000000000000000000000815260206004820152601f60248201527f5265656e7472616e637947756172643a207265656e7472616e742063616c6c0060448201526064016107e0565b6002805561146e6000856120c3565b6114fa576040517f08c379a000000000000000000000000000000000000000000000000000000000815260206004820152602960248201527f6974656d4f666665724964206973206e6f7420612076616c696420627579616260448201527f6c65206f666665722e000000000000000000000000000000000000000000000060648201526084016107e0565b6000848152600460205260409020600781015473ffffffffffffffffffffffffffffffffffffffff16156115f557600781015473ffffffffffffffffffffffffffffffffffffffff166323b872dd61155061210e565b60038401546040517fffffffff0000000000000000000000000000000000000000000000000000000060e085901b16815273ffffffffffffffffffffffffffffffffffffffff909216600483015230602483015260448201526064016020604051808303816000875af11580156115cb573d6000803e3d6000fd5b505050506040513d601f19601f820116820180604052508101906115ef919061351f565b50611663565b8060030154341015611663576040517f08c379a000000000000000000000000000000000000000000000000000000000815260206004820152601660248201527f5061796d656e74206c657373207468616e20636f73740000000000000000000060448201526064016107e0565b60068101546116879073ffffffffffffffffffffffffffffffffffffffff16612118565b1561171157600681015473ffffffffffffffffffffffffffffffffffffffff166308f427c76116b461210e565b83600101846002016040518463ffffffff1660e01b81526004016116da9392919061373e565b600060405180830381600087803b1580156116f457600080fd5b505af1158015611708573d6000803e3d6000fd5b50505050610b9b565b600681015473ffffffffffffffffffffffffffffffffffffffff16632eb2c2d63061173a61210e565b84600101856002016040518563ffffffff1660e01b815260040161176194939291906134b7565b600060405180830381600087803b15801561177b57600080fd5b505af115801561178f573d6000803e3d6000fd5b50505050600481018054906000610bad83613570565b600581815481106117b557600080fd5b600091825260209091200154905081565b60055460609060009084106117dc5760006117ea565b6005546117ea908590613789565b90506000838211156117fc57836117fe565b815b905060008167ffffffffffffffff81111561181b5761181b6131b8565b6040519080825280602002602001820160405280156118c257816020015b6118af6040518061010001604052806000151581526020016060815260200160608152602001600081526020016000815260200160008152602001600073ffffffffffffffffffffffffffffffffffffffff168152602001600073ffffffffffffffffffffffffffffffffffffffff1681525090565b8152602001906001900390816118395790505b50905060005b82811015611a50576006600060056118e0848b61379c565b815481106118f0576118f0613627565b600091825260208083209091015483528281019390935260409182019020815161010081018352815460ff1615158152600182018054845181870281018701909552808552919492938584019390929083018282801561196f57602002820191906000526020600020905b81548152602001906001019080831161195b575b50505050508152602001600282018054806020026020016040519081016040528092919081815260200182805480156119c757602002820191906000526020600020905b8154815260200190600101908083116119b3575b5050509183525050600382015460208201526004820154604082015260058201546060820152600682015473ffffffffffffffffffffffffffffffffffffffff908116608083015260079092015490911660a0909101528251839083908110611a3257611a32613627565b60200260200101819052508080611a4890613570565b9150506118c8565b5095945050505050565b7fc9fc9949603a50f5cc3a96f774f1d68287789a241d2082dc81d0fb19a53bcf2b611a84816121d1565b600080547fffffffffffffffffffffffff00000000000000000000000000000000000000001673ffffffffffffffffffffffffffffffffffffffff84161790555050565b60606003805480602002602001604051908101604052809291908181526020018280548015610c0c5760200282019190600052602060002090815481526020019060010190808311610bf8575050505050905090565b7fc9fc9949603a50f5cc3a96f774f1d68287789a241d2082dc81d0fb19a53bcf2b611b48816121d1565b50600090815260046020526040902080547fffffffffffffffffffffffffffffffffffffffffffffffffffffffffffffff00169055565b7fc9fc9949603a50f5cc3a96f774f1d68287789a241d2082dc81d0fb19a53bcf2b611ba9816121d1565b610f2360018a8a8a8a8a8a8a8a6123ce565b611c316040518061010001604052806000151581526020016060815260200160608152602001600081526020016000815260200160008152602001600073ffffffffffffffffffffffffffffffffffffffff168152602001600073ffffffffffffffffffffffffffffffffffffffff1681525090565b600082815260046020908152604091829020825161010081018452815460ff161515815260018201805485518186028101860190965280865291949293858101939290830182828015610cfe5760200282019190600052602060002090815481526020019060010190808311610cea575050505050815260200160028201805480602002602001604051908101604052809291908181526020018280548015610d565760200282019190600052602060002090815481526020019060010190808311610d42575050509183525050600382015460208201526004820154604082015260058201546060820152600682015473ffffffffffffffffffffffffffffffffffffffff908116608083015260079092015490911660a09091015292915050565b60008281526001602081905260409091200154611d70816121d1565b610dd983836122db565b600381815481106117b557600080fd5b6003546060906000908410611da0576000611dae565b600354611dae908590613789565b9050600083821115611dc05783611dc2565b815b905060008167ffffffffffffffff811115611ddf57611ddf6131b8565b604051908082528060200260200182016040528015611e8657816020015b611e736040518061010001604052806000151581526020016060815260200160608152602001600081526020016000815260200160008152602001600073ffffffffffffffffffffffffffffffffffffffff168152602001600073ffffffffffffffffffffffffffffffffffffffff1681525090565b815260200190600190039081611dfd5790505b50905060005b82811015611a5057600460006003611ea4848b61379c565b81548110611eb457611eb4613627565b600091825260208083209091015483528281019390935260409182019020815161010081018352815460ff16151581526001820180548451818702810187019095528085529194929385840193909290830182828015611f3357602002820191906000526020600020905b815481526020019060010190808311611f1f575b5050505050815260200160028201805480602002602001604051908101604052809291908181526020018280548015611f8b57602002820191906000526020600020905b815481526020019060010190808311611f77575b5050509183525050600382015460208201526004820154604082015260058201546060820152600682015473ffffffffffffffffffffffffffffffffffffffff908116608083015260079092015490911660a0909101528251839083908110611ff657611ff6613627565b6020026020010181905250808061200c90613570565b915050611e8c565b6000805473ffffffffffffffffffffffffffffffffffffffff16330361205f57507fffffffffffffffffffffffffffffffffffffffffffffffffffffffffffffffec36013560601c90565b503390565b905090565b3390565b60007fffffffff0000000000000000000000000000000000000000000000000000000082167f4e2312e000000000000000000000000000000000000000000000000000000000148061074d575061074d826128a7565b6000808360018111156120d8576120d8613453565b146120f45760008281526006602052604090205460ff16612107565b60008281526004602052604090205460ff165b9392505050565b6000612064612014565b6040517f91d148540000000000000000000000000000000000000000000000000000000081527fc9eb32e43bf5ecbceacf00b32281dfc5d6d700a0db676ea26ccf938a385ac3f76004820152306024820152600090829073ffffffffffffffffffffffffffffffffffffffff8216906391d1485490604401602060405180830381865afa1580156121ad573d6000803e3d6000fd5b505050506040513d601f19601f82011682018060405250810190612107919061351f565b6121e2816121dd61210e565b61293e565b50565b600082815260016020908152604080832073ffffffffffffffffffffffffffffffffffffffff8516845290915290205460ff16610eaa57600082815260016020818152604080842073ffffffffffffffffffffffffffffffffffffffff8616855290915290912080547fffffffffffffffffffffffffffffffffffffffffffffffffffffffffffffff0016909117905561227d61210e565b73ffffffffffffffffffffffffffffffffffffffff168173ffffffffffffffffffffffffffffffffffffffff16837f2f8788117e7eff1d82e926ec794901d17c78024a50270940304540a733656f0d60405160405180910390a45050565b600082815260016020908152604080832073ffffffffffffffffffffffffffffffffffffffff8516845290915290205460ff1615610eaa57600082815260016020908152604080832073ffffffffffffffffffffffffffffffffffffffff85168452909152902080547fffffffffffffffffffffffffffffffffffffffffffffffffffffffffffffff0016905561237061210e565b73ffffffffffffffffffffffffffffffffffffffff168173ffffffffffffffffffffffffffffffffffffffff16837ff6391f5c32d9c69d2a47ea670b442974b53935d1edc7fd64eb21e047a839171b60405160405180910390a45050565b6040517f01ffc9a70000000000000000000000000000000000000000000000000000000081527f18e83ee80000000000000000000000000000000000000000000000000000000060048201528890849073ffffffffffffffffffffffffffffffffffffffff8316906301ffc9a790602401602060405180830381865afa15801561245c573d6000803e3d6000fd5b505050506040513d601f19601f82011682018060405250810190612480919061351f565b6124e6576040517f08c379a000000000000000000000000000000000000000000000000000000000815260206004820152601660248201527f496e76616c6964206974656d7320636f6e74726163740000000000000000000060448201526064016107e0565b60006124f48b878c8c610eae565b90506000808d600181111561250b5761250b613453565b146125275760008281526006602052604090206004015461253b565b600082815260046020819052604090912001545b905060006040518061010001604052806001151581526020018d8d808060200260200160405190810160405280939291908181526020018383602002808284376000920191909152505050908252506040805160208d810282810182019093528d82529283019290918e918e91829185019084908082843760009201919091525050509082525060208101899052604081018490526060810188905273ffffffffffffffffffffffffffffffffffffffff8088166080830152861660a09091015290506126088e84612a10565b6126955760008e600181111561262057612620613453565b1461265f57600580546001810182556000919091527f036b6384b5eca791c62761152d0c79bb0604c104a5fb6f4eb0703f3154bb3db001839055612695565b600380546001810182556000919091527fc2575a0e9e593c00f959f8c92f12db2869c3395a3b0502d05e2516446f71f85b018390555b60008e60018111156126a9576126a9613453565b146127a4576000838152600660209081526040909120825181547fffffffffffffffffffffffffffffffffffffffffffffffffffffffffffffff00169015151781558282015180518493612704926001850192910190612ccd565b5060408201518051612720916002840191602090910190612ccd565b50606082015160038201556080820151600482015560a0820151600582015560c08201516006820180547fffffffffffffffffffffffff000000000000000000000000000000000000000090811673ffffffffffffffffffffffffffffffffffffffff9384161790915560e090930151600783018054909416911617909155612896565b6000838152600460209081526040909120825181547fffffffffffffffffffffffffffffffffffffffffffffffffffffffffffffff001690151517815582820151805184936127fa926001850192910190612ccd565b5060408201518051612816916002840191602090910190612ccd565b50606082015160038201556080820151600482015560a0820151600582015560c08201516006820180547fffffffffffffffffffffffff000000000000000000000000000000000000000090811673ffffffffffffffffffffffffffffffffffffffff9384161790915560e0909301516007830180549094169116179091555b505050505050505050505050505050565b60007fffffffff0000000000000000000000000000000000000000000000000000000082167f7965db0b00000000000000000000000000000000000000000000000000000000148061074d57507f01ffc9a7000000000000000000000000000000000000000000000000000000007fffffffff0000000000000000000000000000000000000000000000000000000083161461074d565b600082815260016020908152604080832073ffffffffffffffffffffffffffffffffffffffff8516845290915290205460ff16610eaa576129968173ffffffffffffffffffffffffffffffffffffffff166014612a8a565b6129a1836020612a8a565b6040516020016129b29291906137d3565b604080517fffffffffffffffffffffffffffffffffffffffffffffffffffffffffffffffe0818403018152908290527f08c379a00000000000000000000000000000000000000000000000000000000082526107e091600401613854565b600080836001811115612a2557612a25613453565b14612a5a576000828152600660208190526040909120015473ffffffffffffffffffffffffffffffffffffffff161515612107565b5060009081526004602052604090206006015473ffffffffffffffffffffffffffffffffffffffff161515919050565b60606000612a998360026138a5565b612aa490600261379c565b67ffffffffffffffff811115612abc57612abc6131b8565b6040519080825280601f01601f191660200182016040528015612ae6576020820181803683370190505b5090507f300000000000000000000000000000000000000000000000000000000000000081600081518110612b1d57612b1d613627565b60200101907effffffffffffffffffffffffffffffffffffffffffffffffffffffffffffff1916908160001a9053507f780000000000000000000000000000000000000000000000000000000000000081600181518110612b8057612b80613627565b60200101907effffffffffffffffffffffffffffffffffffffffffffffffffffffffffffff1916908160001a9053506000612bbc8460026138a5565b612bc790600161379c565b90505b6001811115612c64577f303132333435363738396162636465660000000000000000000000000000000085600f1660108110612c0857612c08613627565b1a60f81b828281518110612c1e57612c1e613627565b60200101907effffffffffffffffffffffffffffffffffffffffffffffffffffffffffffff1916908160001a90535060049490941c93612c5d816138e2565b9050612bca565b508315612107576040517f08c379a000000000000000000000000000000000000000000000000000000000815260206004820181905260248201527f537472696e67733a20686578206c656e67746820696e73756666696369656e7460448201526064016107e0565b828054828255906000526020600020908101928215612d08579160200282015b82811115612d08578251825591602001919060010190612ced565b50612d14929150612d18565b5090565b5b80821115612d145760008155600101612d19565b600060208284031215612d3f57600080fd5b81357fffffffff000000000000000000000000000000000000000000000000000000008116811461210757600080fd5b600060208284031215612d8157600080fd5b5035919050565b6020808252825182820181905260009190848201906040850190845b81811015612dc057835183529284019291840191600101612da4565b50909695505050505050565b600081518084526020808501945080840160005b83811015612dfc57815187529582019590820190600101612de0565b509495945050505050565b60006101008251151584526020830151816020860152612e2982860182612dcc565b91505060408301518482036040860152612e438282612dcc565b915050606083015160608501526080830151608085015260a083015160a085015273ffffffffffffffffffffffffffffffffffffffff60c08401511660c085015260e0830151612eab60e086018273ffffffffffffffffffffffffffffffffffffffff169052565b509392505050565b6020815260006121076020830184612e07565b803573ffffffffffffffffffffffffffffffffffffffff81168114612eea57600080fd5b919050565b60008060408385031215612f0257600080fd5b82359150612f1260208401612ec6565b90509250929050565b60008083601f840112612f2d57600080fd5b50813567ffffffffffffffff811115612f4557600080fd5b6020830191508360208260051b8501011115612f6057600080fd5b9250929050565b60008060008060608587031215612f7d57600080fd5b612f8685612ec6565b9350612f9460208601612ec6565b9250604085013567ffffffffffffffff811115612fb057600080fd5b612fbc87828801612f1b565b95989497509550505050565b60008060008060008060008060c0898b031215612fe457600080fd5b612fed89612ec6565b9750602089013567ffffffffffffffff8082111561300a57600080fd5b6130168c838d01612f1b565b909950975060408b013591508082111561302f57600080fd5b5061303c8b828c01612f1b565b909650945061304f905060608a01612ec6565b92506080890135915060a089013590509295985092959890939650565b60006020828403121561307e57600080fd5b61210782612ec6565b6000806000806060858703121561309d57600080fd5b6130a685612ec6565b9350602085013567ffffffffffffffff8111156130c257600080fd5b6130ce87828801612f1b565b90945092506130e1905060408601612ec6565b905092959194509250565b600080604083850312156130ff57600080fd5b61310883612ec6565b9150612f1260208401612ec6565b6000806040838503121561312957600080fd5b50508035926020909101359150565b6000602080830181845280855180835260408601915060408160051b870101925083870160005b828110156131ab577fffffffffffffffffffffffffffffffffffffffffffffffffffffffffffffffc0888603018452613199858351612e07565b9450928501929085019060010161315f565b5092979650505050505050565b7f4e487b7100000000000000000000000000000000000000000000000000000000600052604160045260246000fd5b604051601f82017fffffffffffffffffffffffffffffffffffffffffffffffffffffffffffffffe016810167ffffffffffffffff8111828210171561322e5761322e6131b8565b604052919050565b600082601f83011261324757600080fd5b8135602067ffffffffffffffff821115613263576132636131b8565b8160051b6132728282016131e7565b928352848101820192828101908785111561328c57600080fd5b83870192505b848310156132ab57823582529183019190830190613292565b979650505050505050565b600082601f8301126132c757600080fd5b813567ffffffffffffffff8111156132e1576132e16131b8565b61331260207fffffffffffffffffffffffffffffffffffffffffffffffffffffffffffffffe0601f840116016131e7565b81815284602083860101111561332757600080fd5b816020850160208301376000918101602001919091529392505050565b600080600080600060a0868803121561335c57600080fd5b61336586612ec6565b945061337360208701612ec6565b9350604086013567ffffffffffffffff8082111561339057600080fd5b61339c89838a01613236565b945060608801359150808211156133b257600080fd5b6133be89838a01613236565b935060808801359150808211156133d457600080fd5b506133e1888289016132b6565b9150509295509295909350565b600080600080600060a0868803121561340657600080fd5b61340f86612ec6565b945061341d60208701612ec6565b93506040860135925060608601359150608086013567ffffffffffffffff81111561344757600080fd5b6133e1888289016132b6565b7f4e487b7100000000000000000000000000000000000000000000000000000000600052602160045260246000fd5b6000815480845260208085019450836000528060002060005b83811015612dfc5781548752958201956001918201910161349b565b600073ffffffffffffffffffffffffffffffffffffffff808716835280861660208401525060a060408301526134f060a0830185613482565b82810360608401526135028185613482565b838103608090940193909352505060008152602001949350505050565b60006020828403121561353157600080fd5b8151801515811461210757600080fd5b7f4e487b7100000000000000000000000000000000000000000000000000000000600052601160045260246000fd5b60007fffffffffffffffffffffffffffffffffffffffffffffffffffffffffffffffff82036135a1576135a1613541565b5060010190565b60007fffffffffffffffffffffffffffffffffffffffff000000000000000000000000808760601b168352808660601b166014840152507f07ffffffffffffffffffffffffffffffffffffffffffffffffffffffffffffff83111561360c57600080fd5b8260051b808560288501379190910160280195945050505050565b7f4e487b7100000000000000000000000000000000000000000000000000000000600052603260045260246000fd5b60006020828403121561366857600080fd5b5051919050565b600073ffffffffffffffffffffffffffffffffffffffff808816835260208188168185015260a060408501528560a08501527f07ffffffffffffffffffffffffffffffffffffffffffffffffffffffffffffff8611156136ce57600080fd5b8560051b9150818760c086013760c09184018481038301606086015285519281018390528582019260009160e001905b8083101561371e57845182529383019360019290920191908301906136fe565b50858103608087015260008152602081019b9a5050505050505050505050565b73ffffffffffffffffffffffffffffffffffffffff8416815260606020820152600061376d6060830185613482565b828103604084015261377f8185613482565b9695505050505050565b8181038181111561074d5761074d613541565b8082018082111561074d5761074d613541565b60005b838110156137ca5781810151838201526020016137b2565b50506000910152565b7f416363657373436f6e74726f6c3a206163636f756e742000000000000000000081526000835161380b8160178501602088016137af565b7f206973206d697373696e6720726f6c652000000000000000000000000000000060179184019182015283516138488160288401602088016137af565b01602801949350505050565b60208152600082518060208401526138738160408501602087016137af565b601f017fffffffffffffffffffffffffffffffffffffffffffffffffffffffffffffffe0169190910160400192915050565b6000817fffffffffffffffffffffffffffffffffffffffffffffffffffffffffffffffff04831182151516156138dd576138dd613541565b500290565b6000816138f1576138f1613541565b507fffffffffffffffffffffffffffffffffffffffffffffffffffffffffffffffff019056fea2646970667358221220af8dad0b74dd983fbaed09915558cc211dbbb1e74e1b343a9da68ce355d2b27f64736f6c63430008100033",
  "linkReferences": {},
  "deployedLinkReferences": {}
}