{
  "_format": "hh-sol-artifact-1",
  "contractName": "Game_Items_Merchant",
  "sourceName": "contracts/Items_Merchant/Game_Items_Merchant.sol",
  "abi": [
    {
      "inputs": [
        {
          "internalType": "address",
          "name": "_forwarder",
          "type": "address"
        }
      ],
      "stateMutability": "nonpayable",
      "type": "constructor"
    },
    {
      "anonymous": false,
      "inputs": [
        {
          "indexed": true,
          "internalType": "bytes32",
          "name": "role",
          "type": "bytes32"
        },
        {
          "indexed": true,
          "internalType": "bytes32",
          "name": "previousAdminRole",
          "type": "bytes32"
        },
        {
          "indexed": true,
          "internalType": "bytes32",
          "name": "newAdminRole",
          "type": "bytes32"
        }
      ],
      "name": "RoleAdminChanged",
      "type": "event"
    },
    {
      "anonymous": false,
      "inputs": [
        {
          "indexed": true,
          "internalType": "bytes32",
          "name": "role",
          "type": "bytes32"
        },
        {
          "indexed": true,
          "internalType": "address",
          "name": "account",
          "type": "address"
        },
        {
          "indexed": true,
          "internalType": "address",
          "name": "sender",
          "type": "address"
        }
      ],
      "name": "RoleGranted",
      "type": "event"
    },
    {
      "anonymous": false,
      "inputs": [
        {
          "indexed": true,
          "internalType": "bytes32",
          "name": "role",
          "type": "bytes32"
        },
        {
          "indexed": true,
          "internalType": "address",
          "name": "account",
          "type": "address"
        },
        {
          "indexed": true,
          "internalType": "address",
          "name": "sender",
          "type": "address"
        }
      ],
      "name": "RoleRevoked",
      "type": "event"
    },
    {
      "inputs": [],
      "name": "DEFAULT_ADMIN_ROLE",
      "outputs": [
        {
          "internalType": "bytes32",
          "name": "",
          "type": "bytes32"
        }
      ],
      "stateMutability": "view",
      "type": "function"
    },
    {
      "inputs": [
        {
          "internalType": "bytes32",
          "name": "_itemOfferId",
          "type": "bytes32"
        }
      ],
      "name": "buy",
      "outputs": [],
      "stateMutability": "payable",
      "type": "function"
    },
    {
      "inputs": [
        {
          "internalType": "uint256",
          "name": "",
          "type": "uint256"
        }
      ],
      "name": "buyableItemOfferIds",
      "outputs": [
        {
          "internalType": "bytes32",
          "name": "",
          "type": "bytes32"
        }
      ],
      "stateMutability": "view",
      "type": "function"
    },
    {
      "inputs": [
        {
          "internalType": "bytes32",
          "name": "",
          "type": "bytes32"
        }
      ],
      "name": "buyableItemOffers",
      "outputs": [
        {
          "internalType": "bool",
          "name": "isActive",
          "type": "bool"
        },
        {
          "internalType": "uint256",
          "name": "currencyAmount",
          "type": "uint256"
        },
        {
          "internalType": "uint256",
          "name": "uses",
          "type": "uint256"
        },
        {
          "internalType": "uint256",
          "name": "maxUses",
          "type": "uint256"
        },
        {
          "internalType": "contract IERC1155_Game_Items",
          "name": "items",
          "type": "address"
        },
        {
          "internalType": "contract IERC20",
          "name": "currency",
          "type": "address"
        }
      ],
      "stateMutability": "view",
      "type": "function"
    },
    {
      "inputs": [
        {
          "internalType": "address",
          "name": "_itemsAddress",
          "type": "address"
        },
        {
          "internalType": "address",
          "name": "_currencyAddress",
          "type": "address"
        },
        {
          "internalType": "uint256[]",
          "name": "_itemIds",
          "type": "uint256[]"
        }
      ],
      "name": "generateItemOfferId",
      "outputs": [
        {
          "internalType": "bytes32",
          "name": "",
          "type": "bytes32"
        }
      ],
      "stateMutability": "pure",
      "type": "function"
    },
    {
      "inputs": [
        {
          "internalType": "bytes32",
          "name": "_itemOfferId",
          "type": "bytes32"
        }
      ],
      "name": "getBuyableItemOfferDetails",
      "outputs": [
        {
          "components": [
            {
              "internalType": "bool",
              "name": "isActive",
              "type": "bool"
            },
            {
              "internalType": "uint256[]",
              "name": "itemIds",
              "type": "uint256[]"
            },
            {
              "internalType": "uint256[]",
              "name": "itemAmounts",
              "type": "uint256[]"
            },
            {
              "internalType": "uint256",
              "name": "currencyAmount",
              "type": "uint256"
            },
            {
              "internalType": "uint256",
              "name": "uses",
              "type": "uint256"
            },
            {
              "internalType": "uint256",
              "name": "maxUses",
              "type": "uint256"
            },
            {
              "internalType": "contract IERC1155_Game_Items",
              "name": "items",
              "type": "address"
            },
            {
              "internalType": "contract IERC20",
              "name": "currency",
              "type": "address"
            }
          ],
          "internalType": "struct IGame_Items_Merchant.ItemOffer",
          "name": "",
          "type": "tuple"
        }
      ],
      "stateMutability": "view",
      "type": "function"
    },
    {
      "inputs": [
        {
          "internalType": "bytes32",
          "name": "_itemOfferId",
          "type": "bytes32"
        }
      ],
      "name": "getBuyableItemOfferItemAmounts",
      "outputs": [
        {
          "internalType": "uint256[]",
          "name": "",
          "type": "uint256[]"
        }
      ],
      "stateMutability": "view",
      "type": "function"
    },
    {
      "inputs": [
        {
          "internalType": "bytes32",
          "name": "_itemOfferId",
          "type": "bytes32"
        }
      ],
      "name": "getBuyableItemOfferItemIds",
      "outputs": [
        {
          "internalType": "uint256[]",
          "name": "",
          "type": "uint256[]"
        }
      ],
      "stateMutability": "view",
      "type": "function"
    },
    {
      "inputs": [
        {
          "internalType": "bytes32",
          "name": "role",
          "type": "bytes32"
        }
      ],
      "name": "getRoleAdmin",
      "outputs": [
        {
          "internalType": "bytes32",
          "name": "",
          "type": "bytes32"
        }
      ],
      "stateMutability": "view",
      "type": "function"
    },
    {
      "inputs": [
        {
          "internalType": "bytes32",
          "name": "_itemOfferId",
          "type": "bytes32"
        }
      ],
      "name": "getSellableItemOfferDetails",
      "outputs": [
        {
          "components": [
            {
              "internalType": "bool",
              "name": "isActive",
              "type": "bool"
            },
            {
              "internalType": "uint256[]",
              "name": "itemIds",
              "type": "uint256[]"
            },
            {
              "internalType": "uint256[]",
              "name": "itemAmounts",
              "type": "uint256[]"
            },
            {
              "internalType": "uint256",
              "name": "currencyAmount",
              "type": "uint256"
            },
            {
              "internalType": "uint256",
              "name": "uses",
              "type": "uint256"
            },
            {
              "internalType": "uint256",
              "name": "maxUses",
              "type": "uint256"
            },
            {
              "internalType": "contract IERC1155_Game_Items",
              "name": "items",
              "type": "address"
            },
            {
              "internalType": "contract IERC20",
              "name": "currency",
              "type": "address"
            }
          ],
          "internalType": "struct IGame_Items_Merchant.ItemOffer",
          "name": "",
          "type": "tuple"
        }
      ],
      "stateMutability": "view",
      "type": "function"
    },
    {
      "inputs": [
        {
          "internalType": "bytes32",
          "name": "_itemOfferId",
          "type": "bytes32"
        }
      ],
      "name": "getSellableItemOfferItemAmounts",
      "outputs": [
        {
          "internalType": "uint256[]",
          "name": "",
          "type": "uint256[]"
        }
      ],
      "stateMutability": "view",
      "type": "function"
    },
    {
      "inputs": [
        {
          "internalType": "bytes32",
          "name": "_itemOfferId",
          "type": "bytes32"
        }
      ],
      "name": "getSellableItemOfferItemIds",
      "outputs": [
        {
          "internalType": "uint256[]",
          "name": "",
          "type": "uint256[]"
        }
      ],
      "stateMutability": "view",
      "type": "function"
    },
    {
      "inputs": [
        {
          "internalType": "bytes32",
          "name": "role",
          "type": "bytes32"
        },
        {
          "internalType": "address",
          "name": "account",
          "type": "address"
        }
      ],
      "name": "grantRole",
      "outputs": [],
      "stateMutability": "nonpayable",
      "type": "function"
    },
    {
      "inputs": [
        {
          "internalType": "bytes32",
          "name": "role",
          "type": "bytes32"
        },
        {
          "internalType": "address",
          "name": "account",
          "type": "address"
        }
      ],
      "name": "hasRole",
      "outputs": [
        {
          "internalType": "bool",
          "name": "",
          "type": "bool"
        }
      ],
      "stateMutability": "view",
      "type": "function"
    },
    {
      "inputs": [
        {
          "internalType": "address",
          "name": "forwarder",
          "type": "address"
        }
      ],
      "name": "isTrustedForwarder",
      "outputs": [
        {
          "internalType": "bool",
          "name": "",
          "type": "bool"
        }
      ],
      "stateMutability": "view",
      "type": "function"
    },
    {
      "inputs": [
        {
          "internalType": "bytes32",
          "name": "_itemOfferId",
          "type": "bytes32"
        }
      ],
      "name": "removeBuyableItemOffer",
      "outputs": [],
      "stateMutability": "nonpayable",
      "type": "function"
    },
    {
      "inputs": [
        {
          "internalType": "bytes32",
          "name": "_itemOfferId",
          "type": "bytes32"
        }
      ],
      "name": "removeSellableItemOffer",
      "outputs": [],
      "stateMutability": "nonpayable",
      "type": "function"
    },
    {
      "inputs": [
        {
          "internalType": "bytes32",
          "name": "role",
          "type": "bytes32"
        },
        {
          "internalType": "address",
          "name": "account",
          "type": "address"
        }
      ],
      "name": "renounceRole",
      "outputs": [],
      "stateMutability": "nonpayable",
      "type": "function"
    },
    {
      "inputs": [
        {
          "internalType": "bytes32",
          "name": "role",
          "type": "bytes32"
        },
        {
          "internalType": "address",
          "name": "account",
          "type": "address"
        }
      ],
      "name": "revokeRole",
      "outputs": [],
      "stateMutability": "nonpayable",
      "type": "function"
    },
    {
      "inputs": [
        {
          "internalType": "bytes32",
          "name": "_itemOfferId",
          "type": "bytes32"
        }
      ],
      "name": "sell",
      "outputs": [],
      "stateMutability": "nonpayable",
      "type": "function"
    },
    {
      "inputs": [
        {
          "internalType": "uint256",
          "name": "",
          "type": "uint256"
        }
      ],
      "name": "sellableItemOfferIds",
      "outputs": [
        {
          "internalType": "bytes32",
          "name": "",
          "type": "bytes32"
        }
      ],
      "stateMutability": "view",
      "type": "function"
    },
    {
      "inputs": [
        {
          "internalType": "bytes32",
          "name": "",
          "type": "bytes32"
        }
      ],
      "name": "sellableItemOffers",
      "outputs": [
        {
          "internalType": "bool",
          "name": "isActive",
          "type": "bool"
        },
        {
          "internalType": "uint256",
          "name": "currencyAmount",
          "type": "uint256"
        },
        {
          "internalType": "uint256",
          "name": "uses",
          "type": "uint256"
        },
        {
          "internalType": "uint256",
          "name": "maxUses",
          "type": "uint256"
        },
        {
          "internalType": "contract IERC1155_Game_Items",
          "name": "items",
          "type": "address"
        },
        {
          "internalType": "contract IERC20",
          "name": "currency",
          "type": "address"
        }
      ],
      "stateMutability": "view",
      "type": "function"
    },
    {
      "inputs": [
        {
          "internalType": "address",
          "name": "_itemsAddress",
          "type": "address"
        },
        {
          "internalType": "uint256[]",
          "name": "_itemIds",
          "type": "uint256[]"
        },
        {
          "internalType": "uint256[]",
          "name": "_itemAmounts",
          "type": "uint256[]"
        },
        {
          "internalType": "address",
          "name": "_currencyAddress",
          "type": "address"
        },
        {
          "internalType": "uint256",
          "name": "_currencyAmount",
          "type": "uint256"
        },
        {
          "internalType": "uint256",
          "name": "_maxUses",
          "type": "uint256"
        }
      ],
      "name": "setBuyableItemOffer",
      "outputs": [],
      "stateMutability": "nonpayable",
      "type": "function"
    },
    {
      "inputs": [
        {
          "internalType": "address",
          "name": "_itemsAddress",
          "type": "address"
        },
        {
          "internalType": "uint256[]",
          "name": "_itemIds",
          "type": "uint256[]"
        },
        {
          "internalType": "uint256[]",
          "name": "_itemAmounts",
          "type": "uint256[]"
        },
        {
          "internalType": "address",
          "name": "_currencyAddress",
          "type": "address"
        },
        {
          "internalType": "uint256",
          "name": "_currencyAmount",
          "type": "uint256"
        },
        {
          "internalType": "uint256",
          "name": "_maxUses",
          "type": "uint256"
        }
      ],
      "name": "setSellableItemOffer",
      "outputs": [],
      "stateMutability": "nonpayable",
      "type": "function"
    },
    {
      "inputs": [
        {
          "internalType": "bytes4",
          "name": "interfaceId",
          "type": "bytes4"
        }
      ],
      "name": "supportsInterface",
      "outputs": [
        {
          "internalType": "bool",
          "name": "",
          "type": "bool"
        }
      ],
      "stateMutability": "view",
      "type": "function"
    },
    {
      "inputs": [],
      "name": "totalBuyableItemOffers",
      "outputs": [
        {
          "internalType": "uint256",
          "name": "",
          "type": "uint256"
        }
      ],
      "stateMutability": "view",
      "type": "function"
    },
    {
      "inputs": [],
      "name": "totalSellableItemOffers",
      "outputs": [
        {
          "internalType": "uint256",
          "name": "",
          "type": "uint256"
        }
      ],
      "stateMutability": "view",
      "type": "function"
    },
    {
      "inputs": [
        {
          "internalType": "address",
          "name": "_newTrustedForwarder",
          "type": "address"
        }
      ],
      "name": "upgradeTrustedForwarder",
      "outputs": [],
      "stateMutability": "nonpayable",
      "type": "function"
    },
    {
      "inputs": [],
      "name": "withdraw",
      "outputs": [],
      "stateMutability": "nonpayable",
      "type": "function"
    },
    {
      "inputs": [
        {
          "internalType": "address",
          "name": "_currencyAddress",
          "type": "address"
        }
      ],
      "name": "withdrawCurrency",
      "outputs": [],
      "stateMutability": "nonpayable",
      "type": "function"
    },
    {
      "inputs": [
        {
          "internalType": "address",
          "name": "_itemsAddress",
          "type": "address"
        },
        {
          "internalType": "uint256[]",
          "name": "_itemIds",
          "type": "uint256[]"
        }
      ],
      "name": "withdrawItems",
      "outputs": [],
      "stateMutability": "nonpayable",
      "type": "function"
    }
  ],
  "bytecode": "0x60806040523480156200001157600080fd5b50604051620032a2380380620032a28339810160408190526200003491620001ac565b600080546001600160a01b0319166001600160a01b03831617815560016002556200006990620000636200009f565b620000bb565b620000987fc9fc9949603a50f5cc3a96f774f1d68287789a241d2082dc81d0fb19a53bcf2b620000636200009f565b50620001de565b6000620000b6620000cb60201b62001b711760201c565b905090565b620000c7828262000101565b5050565b600080546001600160a01b03163303620000ec575060131936013560601c90565b620000b6620001a860201b62001bc61760201c565b60008281526001602090815260408083206001600160a01b038516845290915290205460ff16620000c75760008281526001602081815260408084206001600160a01b0386168552909152909120805460ff19169091179055620001646200009f565b6001600160a01b0316816001600160a01b0316837f2f8788117e7eff1d82e926ec794901d17c78024a50270940304540a733656f0d60405160405180910390a45050565b3390565b600060208284031215620001bf57600080fd5b81516001600160a01b0381168114620001d757600080fd5b9392505050565b6130b480620001ee6000396000f3fe6080604052600436106101d85760003560e01c806391d1485411610102578063c54b7c1811610095578063f0e742b511610064578063f0e742b5146105a3578063f247b4d314610659578063f2b7d54214610679578063fc3d74c6146106e857600080fd5b8063c54b7c1814610523578063c9182fa514610543578063d547741f14610563578063e8e518021461058357600080fd5b8063a217fddf116100d1578063a217fddf146104a1578063aa2a7eea146104b6578063b62ab0a5146104d6578063c40825711461050357600080fd5b806391d1485414610406578063940315f0146104595780639c9a10611461046e578063a071a1591461048157600080fd5b80633ccfd60b1161017a578063724e3c7411610149578063724e3c741461039157806382f411fc146103b157806384ed8d94146103d1578063851f966f146103e657600080fd5b80633ccfd60b1461030057806347aff48a14610315578063498c957714610335578063572b6c051461035557600080fd5b806312154abc116101b657806312154abc14610261578063248a9ca3146102815780632f2ff15d146102c057806336568abe146102e057600080fd5b806301ffc9a7146101dd5780630c2533cb1461021257806310d618eb14610234575b600080fd5b3480156101e957600080fd5b506101fd6101f8366004612834565b610708565b60405190151581526020015b60405180910390f35b34801561021e57600080fd5b5061023261022d366004612876565b610764565b005b34801561024057600080fd5b5061025461024f366004612876565b610ba9565b60405161020991906128ca565b34801561026d57600080fd5b5061025461027c366004612876565b610c0e565b34801561028d57600080fd5b506102b261029c366004612876565b6000908152600160208190526040909120015490565b604051908152602001610209565b3480156102cc57600080fd5b506102326102db366004612906565b610c71565b3480156102ec57600080fd5b506102326102fb366004612906565b610c9c565b34801561030c57600080fd5b50610232610d6c565b34801561032157600080fd5b506102b261033036600461297e565b610de3565b34801561034157600080fd5b506102326103503660046129df565b610e1c565b34801561036157600080fd5b506101fd610370366004612a83565b60005473ffffffffffffffffffffffffffffffffffffffff91821691161490565b34801561039d57600080fd5b506102326103ac366004612a9e565b610e63565b3480156103bd57600080fd5b506102546103cc366004612876565b61105b565b3480156103dd57600080fd5b506003546102b2565b3480156103f257600080fd5b50610232610401366004612876565b6110be565b34801561041257600080fd5b506101fd610421366004612906565b600091825260016020908152604080842073ffffffffffffffffffffffffffffffffffffffff93909316845291905290205460ff1690565b34801561046557600080fd5b506005546102b2565b61023261047c366004612876565b61111f565b34801561048d57600080fd5b506102b261049c366004612876565b6114dc565b3480156104ad57600080fd5b506102b2600081565b3480156104c257600080fd5b506102326104d1366004612a83565b6114fd565b3480156104e257600080fd5b506104f66104f1366004612876565b61156b565b6040516102099190612af1565b34801561050f57600080fd5b5061023261051e366004612876565b611708565b34801561052f57600080fd5b506104f661053e366004612876565b611769565b34801561054f57600080fd5b5061023261055e3660046129df565b611902565b34801561056f57600080fd5b5061023261057e366004612906565b61193e565b34801561058f57600080fd5b506102b261059e366004612876565b611964565b3480156105af57600080fd5b506106116105be366004612876565b600660208190526000918252604090912080546003820154600483015460058401549484015460079094015460ff909316949193909273ffffffffffffffffffffffffffffffffffffffff918216911686565b604080519615158752602087019590955293850192909252606084015273ffffffffffffffffffffffffffffffffffffffff90811660808401521660a082015260c001610209565b34801561066557600080fd5b50610254610674366004612876565b611974565b34801561068557600080fd5b50610611610694366004612876565b600460208190526000918252604090912080546003820154928201546005830154600684015460079094015460ff90931694939192909173ffffffffffffffffffffffffffffffffffffffff908116911686565b3480156106f457600080fd5b50610232610703366004612a83565b6119d7565b60007fffffffff0000000000000000000000000000000000000000000000000000000082167ffd445aaf00000000000000000000000000000000000000000000000000000000148061075e575061075e82611bca565b92915050565b600081815260066020526040902060058101546001918391158061078f575080600501548160040154105b6107d4576040517f08c379a000000000000000000000000000000000000000000000000000000000815260206004820152600060248201526044015b60405180910390fd5b600280540361083f576040517f08c379a000000000000000000000000000000000000000000000000000000000815260206004820152601f60248201527f5265656e7472616e637947756172643a207265656e7472616e742063616c6c0060448201526064016107cb565b6002805561084e600185611c61565b6108da576040517f08c379a000000000000000000000000000000000000000000000000000000000815260206004820152602a60248201527f6974656d4f666665724964206973206e6f7420612076616c69642073656c6c6160448201527f626c65206f666665722e0000000000000000000000000000000000000000000060648201526084016107cb565b60008481526006602081905260409091209081015473ffffffffffffffffffffffffffffffffffffffff16632eb2c2d6610912611cac565b3084600101856002016040518563ffffffff1660e01b815260040161093a9493929190612c2e565b600060405180830381600087803b15801561095457600080fd5b505af1158015610968573d6000803e3d6000fd5b50505050600781015473ffffffffffffffffffffffffffffffffffffffff1615610b335760078101546109b09073ffffffffffffffffffffffffffffffffffffffff16611cb6565b15610a6c57600781015473ffffffffffffffffffffffffffffffffffffffff16806340c10f196109de611cac565b60038501546040517fffffffff0000000000000000000000000000000000000000000000000000000060e085901b16815273ffffffffffffffffffffffffffffffffffffffff90921660048301526024820152604401600060405180830381600087803b158015610a4e57600080fd5b505af1158015610a62573d6000803e3d6000fd5b5050505050610b86565b600781015473ffffffffffffffffffffffffffffffffffffffff1663a9059cbb610a94611cac565b60038401546040517fffffffff0000000000000000000000000000000000000000000000000000000060e085901b16815273ffffffffffffffffffffffffffffffffffffffff909216600483015260248201526044016020604051808303816000875af1158015610b09573d6000803e3d6000fd5b505050506040513d601f19601f82011682018060405250810190610b2d9190612c96565b50610b86565b610b3b611cac565b73ffffffffffffffffffffffffffffffffffffffff166108fc82600301549081150290604051600060405180830381858888f19350505050158015610b84573d6000803e3d6000fd5b505b600481018054906000610b9883612ce7565b909155505060016002555050505050565b600081815260046020908152604091829020600201805483518184028101840190945280845260609392830182828015610c0257602002820191906000526020600020905b815481526020019060010190808311610bee575b50505050509050919050565b600081815260046020908152604091829020600101805483518184028101840190945280845260609392830182828015610c025760200282019190600052602060002090815481526020019060010190808311610bee5750505050509050919050565b60008281526001602081905260409091200154610c8d81611d6f565b610c978383611d83565b505050565b610ca4611cac565b73ffffffffffffffffffffffffffffffffffffffff168173ffffffffffffffffffffffffffffffffffffffff1614610d5e576040517f08c379a000000000000000000000000000000000000000000000000000000000815260206004820152602f60248201527f416363657373436f6e74726f6c3a2063616e206f6e6c792072656e6f756e636560448201527f20726f6c657320666f722073656c66000000000000000000000000000000000060648201526084016107cb565b610d688282611e79565b5050565b7fc9fc9949603a50f5cc3a96f774f1d68287789a241d2082dc81d0fb19a53bcf2b610d9681611d6f565b610d9e611cac565b73ffffffffffffffffffffffffffffffffffffffff166108fc479081150290604051600060405180830381858888f19350505050158015610d68573d6000803e3d6000fd5b600084848484604051602001610dfc9493929190612d1f565b604051602081830303815290604052805190602001209050949350505050565b7fc9fc9949603a50f5cc3a96f774f1d68287789a241d2082dc81d0fb19a53bcf2b610e4681611d6f565b610e5860008a8a8a8a8a8a8a8a611f6c565b505050505050505050565b7fc9fc9949603a50f5cc3a96f774f1d68287789a241d2082dc81d0fb19a53bcf2b610e8d81611d6f565b8360008367ffffffffffffffff811115610ea957610ea9612d9e565b604051908082528060200260200182016040528015610ed2578160200160208202803683370190505b50905060005b84811015610fd8578273ffffffffffffffffffffffffffffffffffffffff1662fdd58e30888885818110610f0e57610f0e612dcd565b6040517fffffffff0000000000000000000000000000000000000000000000000000000060e087901b16815273ffffffffffffffffffffffffffffffffffffffff90941660048501526020029190910135602483015250604401602060405180830381865afa158015610f85573d6000803e3d6000fd5b505050506040513d601f19601f82011682018060405250810190610fa99190612dfc565b828281518110610fbb57610fbb612dcd565b602090810291909101015280610fd081612ce7565b915050610ed8565b508173ffffffffffffffffffffffffffffffffffffffff16632eb2c2d630610ffe611cac565b8888866040518663ffffffff1660e01b8152600401611021959493929190612e15565b600060405180830381600087803b15801561103b57600080fd5b505af115801561104f573d6000803e3d6000fd5b50505050505050505050565b600081815260066020908152604091829020600201805483518184028101840190945280845260609392830182828015610c025760200282019190600052602060002090815481526020019060010190808311610bee5750505050509050919050565b7fc9fc9949603a50f5cc3a96f774f1d68287789a241d2082dc81d0fb19a53bcf2b6110e881611d6f565b50600090815260066020526040902080547fffffffffffffffffffffffffffffffffffffffffffffffffffffffffffffff00169055565b600081815260046020526040812060058101548391901580611148575080600501548160040154105b611188576040517f08c379a000000000000000000000000000000000000000000000000000000000815260206004820152600060248201526044016107cb565b60028054036111f3576040517f08c379a000000000000000000000000000000000000000000000000000000000815260206004820152601f60248201527f5265656e7472616e637947756172643a207265656e7472616e742063616c6c0060448201526064016107cb565b60028055611202600085611c61565b61128e576040517f08c379a000000000000000000000000000000000000000000000000000000000815260206004820152602960248201527f6974656d4f666665724964206973206e6f7420612076616c696420627579616260448201527f6c65206f666665722e000000000000000000000000000000000000000000000060648201526084016107cb565b6000848152600460205260409020600781015473ffffffffffffffffffffffffffffffffffffffff161561138957600781015473ffffffffffffffffffffffffffffffffffffffff166323b872dd6112e4611cac565b60038401546040517fffffffff0000000000000000000000000000000000000000000000000000000060e085901b16815273ffffffffffffffffffffffffffffffffffffffff909216600483015230602483015260448201526064016020604051808303816000875af115801561135f573d6000803e3d6000fd5b505050506040513d601f19601f820116820180604052508101906113839190612c96565b5061139a565b806003015434101561139a57600080fd5b60068101546113be9073ffffffffffffffffffffffffffffffffffffffff16611cb6565b1561144857600681015473ffffffffffffffffffffffffffffffffffffffff166308f427c76113eb611cac565b83600101846002016040518463ffffffff1660e01b815260040161141193929190612eb8565b600060405180830381600087803b15801561142b57600080fd5b505af115801561143f573d6000803e3d6000fd5b50505050610b86565b600681015473ffffffffffffffffffffffffffffffffffffffff16632eb2c2d630611471611cac565b84600101856002016040518563ffffffff1660e01b81526004016114989493929190612c2e565b600060405180830381600087803b1580156114b257600080fd5b505af11580156114c6573d6000803e3d6000fd5b50505050600481018054906000610b9883612ce7565b600581815481106114ec57600080fd5b600091825260209091200154905081565b7fc9fc9949603a50f5cc3a96f774f1d68287789a241d2082dc81d0fb19a53bcf2b61152781611d6f565b600080547fffffffffffffffffffffffff00000000000000000000000000000000000000001673ffffffffffffffffffffffffffffffffffffffff84161790555050565b6115e16040518061010001604052806000151581526020016060815260200160608152602001600081526020016000815260200160008152602001600073ffffffffffffffffffffffffffffffffffffffff168152602001600073ffffffffffffffffffffffffffffffffffffffff1681525090565b600082815260066020908152604091829020825161010081018452815460ff16151581526001820180548551818602810186019096528086529194929385810193929083018282801561165357602002820191906000526020600020905b81548152602001906001019080831161163f575b50505050508152602001600282018054806020026020016040519081016040528092919081815260200182805480156116ab57602002820191906000526020600020905b815481526020019060010190808311611697575b5050509183525050600382015460208201526004820154604082015260058201546060820152600682015473ffffffffffffffffffffffffffffffffffffffff908116608083015260079092015490911660a09091015292915050565b7fc9fc9949603a50f5cc3a96f774f1d68287789a241d2082dc81d0fb19a53bcf2b61173281611d6f565b50600090815260046020526040902080547fffffffffffffffffffffffffffffffffffffffffffffffffffffffffffffff00169055565b6117df6040518061010001604052806000151581526020016060815260200160608152602001600081526020016000815260200160008152602001600073ffffffffffffffffffffffffffffffffffffffff168152602001600073ffffffffffffffffffffffffffffffffffffffff1681525090565b600082815260046020908152604091829020825161010081018452815460ff161515815260018201805485518186028101860190965280865291949293858101939290830182828015611653576020028201919060005260206000209081548152602001906001019080831161163f5750505050508152602001600282018054806020026020016040519081016040528092919081815260200182805480156116ab5760200282019190600052602060002090815481526020019060010190808311611697575050509183525050600382015460208201526004820154604082015260058201546060820152600682015473ffffffffffffffffffffffffffffffffffffffff908116608083015260079092015490911660a09091015292915050565b7fc9fc9949603a50f5cc3a96f774f1d68287789a241d2082dc81d0fb19a53bcf2b61192c81611d6f565b610e5860018a8a8a8a8a8a8a8a611f6c565b6000828152600160208190526040909120015461195a81611d6f565b610c978383611e79565b600381815481106114ec57600080fd5b600081815260066020908152604091829020600101805483518184028101840190945280845260609392830182828015610c025760200282019190600052602060002090815481526020019060010190808311610bee5750505050509050919050565b7fc9fc9949603a50f5cc3a96f774f1d68287789a241d2082dc81d0fb19a53bcf2b611a0181611d6f565b8173ffffffffffffffffffffffffffffffffffffffff811663a9059cbb611a26611cac565b8373ffffffffffffffffffffffffffffffffffffffff166370a08231611a4a611cac565b6040517fffffffff0000000000000000000000000000000000000000000000000000000060e084901b16815273ffffffffffffffffffffffffffffffffffffffff9091166004820152602401602060405180830381865afa158015611ab3573d6000803e3d6000fd5b505050506040513d601f19601f82011682018060405250810190611ad79190612dfc565b6040517fffffffff0000000000000000000000000000000000000000000000000000000060e085901b16815273ffffffffffffffffffffffffffffffffffffffff909216600483015260248201526044016020604051808303816000875af1158015611b47573d6000803e3d6000fd5b505050506040513d601f19601f82011682018060405250810190611b6b9190612c96565b50505050565b6000805473ffffffffffffffffffffffffffffffffffffffff163303611bbc57507fffffffffffffffffffffffffffffffffffffffffffffffffffffffffffffffec36013560601c90565b503390565b905090565b3390565b60007fffffffff0000000000000000000000000000000000000000000000000000000082167f7965db0b00000000000000000000000000000000000000000000000000000000148061075e57507f01ffc9a7000000000000000000000000000000000000000000000000000000007fffffffff0000000000000000000000000000000000000000000000000000000083161461075e565b600080836001811115611c7657611c76612bca565b14611c925760008281526006602052604090205460ff16611ca5565b60008281526004602052604090205460ff165b9392505050565b6000611bc1611b71565b6040517f91d148540000000000000000000000000000000000000000000000000000000081527fc9eb32e43bf5ecbceacf00b32281dfc5d6d700a0db676ea26ccf938a385ac3f76004820152306024820152600090829073ffffffffffffffffffffffffffffffffffffffff8216906391d1485490604401602060405180830381865afa158015611d4b573d6000803e3d6000fd5b505050506040513d601f19601f82011682018060405250810190611ca59190612c96565b611d8081611d7b611cac565b612445565b50565b600082815260016020908152604080832073ffffffffffffffffffffffffffffffffffffffff8516845290915290205460ff16610d6857600082815260016020818152604080842073ffffffffffffffffffffffffffffffffffffffff8616855290915290912080547fffffffffffffffffffffffffffffffffffffffffffffffffffffffffffffff00169091179055611e1b611cac565b73ffffffffffffffffffffffffffffffffffffffff168173ffffffffffffffffffffffffffffffffffffffff16837f2f8788117e7eff1d82e926ec794901d17c78024a50270940304540a733656f0d60405160405180910390a45050565b600082815260016020908152604080832073ffffffffffffffffffffffffffffffffffffffff8516845290915290205460ff1615610d6857600082815260016020908152604080832073ffffffffffffffffffffffffffffffffffffffff85168452909152902080547fffffffffffffffffffffffffffffffffffffffffffffffffffffffffffffff00169055611f0e611cac565b73ffffffffffffffffffffffffffffffffffffffff168173ffffffffffffffffffffffffffffffffffffffff16837ff6391f5c32d9c69d2a47ea670b442974b53935d1edc7fd64eb21e047a839171b60405160405180910390a45050565b6040517f01ffc9a70000000000000000000000000000000000000000000000000000000081527fe67112700000000000000000000000000000000000000000000000000000000060048201528890849073ffffffffffffffffffffffffffffffffffffffff8316906301ffc9a790602401602060405180830381865afa158015611ffa573d6000803e3d6000fd5b505050506040513d601f19601f8201168201806040525081019061201e9190612c96565b612084576040517f08c379a000000000000000000000000000000000000000000000000000000000815260206004820152601660248201527f496e76616c6964206974656d7320636f6e74726163740000000000000000000060448201526064016107cb565b60006120928b878c8c610de3565b90506000808d60018111156120a9576120a9612bca565b146120c5576000828152600660205260409020600401546120d9565b600082815260046020819052604090912001545b905060006040518061010001604052806001151581526020018d8d808060200260200160405190810160405280939291908181526020018383602002808284376000920191909152505050908252506040805160208d810282810182019093528d82529283019290918e918e91829185019084908082843760009201919091525050509082525060208101899052604081018490526060810188905273ffffffffffffffffffffffffffffffffffffffff8088166080830152861660a09091015290506121a68e84612517565b6122335760008e60018111156121be576121be612bca565b146121fd57600580546001810182556000919091527f036b6384b5eca791c62761152d0c79bb0604c104a5fb6f4eb0703f3154bb3db001839055612233565b600380546001810182556000919091527fc2575a0e9e593c00f959f8c92f12db2869c3395a3b0502d05e2516446f71f85b018390555b60008e600181111561224757612247612bca565b14612342576000838152600660209081526040909120825181547fffffffffffffffffffffffffffffffffffffffffffffffffffffffffffffff001690151517815582820151805184936122a29260018501929101906127d4565b50604082015180516122be9160028401916020909101906127d4565b50606082015160038201556080820151600482015560a0820151600582015560c08201516006820180547fffffffffffffffffffffffff000000000000000000000000000000000000000090811673ffffffffffffffffffffffffffffffffffffffff9384161790915560e090930151600783018054909416911617909155612434565b6000838152600460209081526040909120825181547fffffffffffffffffffffffffffffffffffffffffffffffffffffffffffffff001690151517815582820151805184936123989260018501929101906127d4565b50604082015180516123b49160028401916020909101906127d4565b50606082015160038201556080820151600482015560a0820151600582015560c08201516006820180547fffffffffffffffffffffffff000000000000000000000000000000000000000090811673ffffffffffffffffffffffffffffffffffffffff9384161790915560e0909301516007830180549094169116179091555b505050505050505050505050505050565b600082815260016020908152604080832073ffffffffffffffffffffffffffffffffffffffff8516845290915290205460ff16610d685761249d8173ffffffffffffffffffffffffffffffffffffffff166014612591565b6124a8836020612591565b6040516020016124b9929190612f27565b604080517fffffffffffffffffffffffffffffffffffffffffffffffffffffffffffffffe0818403018152908290527f08c379a00000000000000000000000000000000000000000000000000000000082526107cb91600401612fa8565b60008083600181111561252c5761252c612bca565b14612561576000828152600660208190526040909120015473ffffffffffffffffffffffffffffffffffffffff161515611ca5565b5060009081526004602052604090206006015473ffffffffffffffffffffffffffffffffffffffff161515919050565b606060006125a0836002612ff9565b6125ab906002613036565b67ffffffffffffffff8111156125c3576125c3612d9e565b6040519080825280601f01601f1916602001820160405280156125ed576020820181803683370190505b5090507f30000000000000000000000000000000000000000000000000000000000000008160008151811061262457612624612dcd565b60200101907effffffffffffffffffffffffffffffffffffffffffffffffffffffffffffff1916908160001a9053507f78000000000000000000000000000000000000000000000000000000000000008160018151811061268757612687612dcd565b60200101907effffffffffffffffffffffffffffffffffffffffffffffffffffffffffffff1916908160001a90535060006126c3846002612ff9565b6126ce906001613036565b90505b600181111561276b577f303132333435363738396162636465660000000000000000000000000000000085600f166010811061270f5761270f612dcd565b1a60f81b82828151811061272557612725612dcd565b60200101907effffffffffffffffffffffffffffffffffffffffffffffffffffffffffffff1916908160001a90535060049490941c9361276481613049565b90506126d1565b508315611ca5576040517f08c379a000000000000000000000000000000000000000000000000000000000815260206004820181905260248201527f537472696e67733a20686578206c656e67746820696e73756666696369656e7460448201526064016107cb565b82805482825590600052602060002090810192821561280f579160200282015b8281111561280f5782518255916020019190600101906127f4565b5061281b92915061281f565b5090565b5b8082111561281b5760008155600101612820565b60006020828403121561284657600080fd5b81357fffffffff0000000000000000000000000000000000000000000000000000000081168114611ca557600080fd5b60006020828403121561288857600080fd5b5035919050565b600081518084526020808501945080840160005b838110156128bf578151875295820195908201906001016128a3565b509495945050505050565b602081526000611ca5602083018461288f565b803573ffffffffffffffffffffffffffffffffffffffff8116811461290157600080fd5b919050565b6000806040838503121561291957600080fd5b82359150612929602084016128dd565b90509250929050565b60008083601f84011261294457600080fd5b50813567ffffffffffffffff81111561295c57600080fd5b6020830191508360208260051b850101111561297757600080fd5b9250929050565b6000806000806060858703121561299457600080fd5b61299d856128dd565b93506129ab602086016128dd565b9250604085013567ffffffffffffffff8111156129c757600080fd5b6129d387828801612932565b95989497509550505050565b60008060008060008060008060c0898b0312156129fb57600080fd5b612a04896128dd565b9750602089013567ffffffffffffffff80821115612a2157600080fd5b612a2d8c838d01612932565b909950975060408b0135915080821115612a4657600080fd5b50612a538b828c01612932565b9096509450612a66905060608a016128dd565b92506080890135915060a089013590509295985092959890939650565b600060208284031215612a9557600080fd5b611ca5826128dd565b600080600060408486031215612ab357600080fd5b612abc846128dd565b9250602084013567ffffffffffffffff811115612ad857600080fd5b612ae486828701612932565b9497909650939450505050565b6020815281511515602082015260006020830151610100806040850152612b1c61012085018361288f565b915060408501517fffffffffffffffffffffffffffffffffffffffffffffffffffffffffffffffe0858403016060860152612b57838261288f565b92505060608501516080850152608085015160a085015260a085015160c085015260c0850151612b9f60e086018273ffffffffffffffffffffffffffffffffffffffff169052565b5060e085015173ffffffffffffffffffffffffffffffffffffffff8116858301525090949350505050565b7f4e487b7100000000000000000000000000000000000000000000000000000000600052602160045260246000fd5b6000815480845260208085019450836000528060002060005b838110156128bf57815487529582019560019182019101612c12565b600073ffffffffffffffffffffffffffffffffffffffff808716835280861660208401525060a06040830152612c6760a0830185612bf9565b8281036060840152612c798185612bf9565b838103608090940193909352505060008152602001949350505050565b600060208284031215612ca857600080fd5b81518015158114611ca557600080fd5b7f4e487b7100000000000000000000000000000000000000000000000000000000600052601160045260246000fd5b60007fffffffffffffffffffffffffffffffffffffffffffffffffffffffffffffffff8203612d1857612d18612cb8565b5060010190565b60007fffffffffffffffffffffffffffffffffffffffff000000000000000000000000808760601b168352808660601b166014840152507f07ffffffffffffffffffffffffffffffffffffffffffffffffffffffffffffff831115612d8357600080fd5b8260051b808560288501379190910160280195945050505050565b7f4e487b7100000000000000000000000000000000000000000000000000000000600052604160045260246000fd5b7f4e487b7100000000000000000000000000000000000000000000000000000000600052603260045260246000fd5b600060208284031215612e0e57600080fd5b5051919050565b600073ffffffffffffffffffffffffffffffffffffffff808816835280871660208401525060a060408301528360a08301527f07ffffffffffffffffffffffffffffffffffffffffffffffffffffffffffffff841115612e7457600080fd5b8360051b808660c0850137820182810360c09081016060850152612e9a9082018561288f565b83810360809094019390935250506000815260200195945050505050565b73ffffffffffffffffffffffffffffffffffffffff84168152606060208201526000612ee76060830185612bf9565b8281036040840152612ef98185612bf9565b9695505050505050565b60005b83811015612f1e578181015183820152602001612f06565b50506000910152565b7f416363657373436f6e74726f6c3a206163636f756e7420000000000000000000815260008351612f5f816017850160208801612f03565b7f206973206d697373696e6720726f6c65200000000000000000000000000000006017918401918201528351612f9c816028840160208801612f03565b01602801949350505050565b6020815260008251806020840152612fc7816040850160208701612f03565b601f017fffffffffffffffffffffffffffffffffffffffffffffffffffffffffffffffe0169190910160400192915050565b6000817fffffffffffffffffffffffffffffffffffffffffffffffffffffffffffffffff048311821515161561303157613031612cb8565b500290565b8082018082111561075e5761075e612cb8565b60008161305857613058612cb8565b507fffffffffffffffffffffffffffffffffffffffffffffffffffffffffffffffff019056fea2646970667358221220268e560713a6d8ba3b1ce32086d5ee844f5d57e4145641428534a7cbb19eb33064736f6c63430008100033",
  "linkReferences": {},
  "deployedLinkReferences": {}
}