{
  "_format": "hh-sol-artifact-1",
  "contractName": "Game_Shop",
  "sourceName": "contracts/Shop/Game_Shop.sol",
  "abi": [
    {
      "inputs": [
        {
          "internalType": "address",
          "name": "_forwarder",
          "type": "address"
        },
        {
          "internalType": "bytes32",
          "name": "_systemId",
          "type": "bytes32"
        }
      ],
      "stateMutability": "nonpayable",
      "type": "constructor"
    },
    {
      "anonymous": false,
      "inputs": [
        {
          "indexed": true,
          "internalType": "uint256",
          "name": "offerId",
          "type": "uint256"
        },
        {
          "components": [
            {
              "internalType": "uint256",
              "name": "id",
              "type": "uint256"
            },
            {
              "internalType": "contract IERC1155",
              "name": "inputCollection",
              "type": "address"
            },
            {
              "internalType": "uint256[]",
              "name": "inputCollectionItemIds",
              "type": "uint256[]"
            },
            {
              "internalType": "uint256[]",
              "name": "inputCollectionItemAmounts",
              "type": "uint256[]"
            },
            {
              "internalType": "contract IERC20",
              "name": "inputCurrency",
              "type": "address"
            },
            {
              "internalType": "uint256",
              "name": "inputCurrencyAmount",
              "type": "uint256"
            },
            {
              "internalType": "contract IERC1155",
              "name": "outputCollection",
              "type": "address"
            },
            {
              "internalType": "uint256[]",
              "name": "outputCollectionItemIds",
              "type": "uint256[]"
            },
            {
              "internalType": "uint256[]",
              "name": "outputCollectionItemAmounts",
              "type": "uint256[]"
            },
            {
              "internalType": "contract IERC20",
              "name": "outputCurrency",
              "type": "address"
            },
            {
              "internalType": "uint256",
              "name": "outputCurrencyAmount",
              "type": "uint256"
            },
            {
              "internalType": "uint256",
              "name": "uses",
              "type": "uint256"
            },
            {
              "internalType": "uint256",
              "name": "maxUses",
              "type": "uint256"
            },
            {
              "internalType": "uint256",
              "name": "lastUpdatedAt",
              "type": "uint256"
            }
          ],
          "indexed": false,
          "internalType": "struct IGame_Shop.Offer",
          "name": "offer",
          "type": "tuple"
        }
      ],
      "name": "OfferRemoved",
      "type": "event"
    },
    {
      "anonymous": false,
      "inputs": [
        {
          "indexed": true,
          "internalType": "uint256",
          "name": "offerId",
          "type": "uint256"
        },
        {
          "components": [
            {
              "internalType": "uint256",
              "name": "id",
              "type": "uint256"
            },
            {
              "internalType": "contract IERC1155",
              "name": "inputCollection",
              "type": "address"
            },
            {
              "internalType": "uint256[]",
              "name": "inputCollectionItemIds",
              "type": "uint256[]"
            },
            {
              "internalType": "uint256[]",
              "name": "inputCollectionItemAmounts",
              "type": "uint256[]"
            },
            {
              "internalType": "contract IERC20",
              "name": "inputCurrency",
              "type": "address"
            },
            {
              "internalType": "uint256",
              "name": "inputCurrencyAmount",
              "type": "uint256"
            },
            {
              "internalType": "contract IERC1155",
              "name": "outputCollection",
              "type": "address"
            },
            {
              "internalType": "uint256[]",
              "name": "outputCollectionItemIds",
              "type": "uint256[]"
            },
            {
              "internalType": "uint256[]",
              "name": "outputCollectionItemAmounts",
              "type": "uint256[]"
            },
            {
              "internalType": "contract IERC20",
              "name": "outputCurrency",
              "type": "address"
            },
            {
              "internalType": "uint256",
              "name": "outputCurrencyAmount",
              "type": "uint256"
            },
            {
              "internalType": "uint256",
              "name": "uses",
              "type": "uint256"
            },
            {
              "internalType": "uint256",
              "name": "maxUses",
              "type": "uint256"
            },
            {
              "internalType": "uint256",
              "name": "lastUpdatedAt",
              "type": "uint256"
            }
          ],
          "indexed": false,
          "internalType": "struct IGame_Shop.Offer",
          "name": "offer",
          "type": "tuple"
        }
      ],
      "name": "OfferSet",
      "type": "event"
    },
    {
      "anonymous": false,
      "inputs": [
        {
          "indexed": true,
          "internalType": "uint256",
          "name": "offerId",
          "type": "uint256"
        },
        {
          "components": [
            {
              "internalType": "uint256",
              "name": "id",
              "type": "uint256"
            },
            {
              "internalType": "contract IERC1155",
              "name": "inputCollection",
              "type": "address"
            },
            {
              "internalType": "uint256[]",
              "name": "inputCollectionItemIds",
              "type": "uint256[]"
            },
            {
              "internalType": "uint256[]",
              "name": "inputCollectionItemAmounts",
              "type": "uint256[]"
            },
            {
              "internalType": "contract IERC20",
              "name": "inputCurrency",
              "type": "address"
            },
            {
              "internalType": "uint256",
              "name": "inputCurrencyAmount",
              "type": "uint256"
            },
            {
              "internalType": "contract IERC1155",
              "name": "outputCollection",
              "type": "address"
            },
            {
              "internalType": "uint256[]",
              "name": "outputCollectionItemIds",
              "type": "uint256[]"
            },
            {
              "internalType": "uint256[]",
              "name": "outputCollectionItemAmounts",
              "type": "uint256[]"
            },
            {
              "internalType": "contract IERC20",
              "name": "outputCurrency",
              "type": "address"
            },
            {
              "internalType": "uint256",
              "name": "outputCurrencyAmount",
              "type": "uint256"
            },
            {
              "internalType": "uint256",
              "name": "uses",
              "type": "uint256"
            },
            {
              "internalType": "uint256",
              "name": "maxUses",
              "type": "uint256"
            },
            {
              "internalType": "uint256",
              "name": "lastUpdatedAt",
              "type": "uint256"
            }
          ],
          "indexed": false,
          "internalType": "struct IGame_Shop.Offer",
          "name": "offer",
          "type": "tuple"
        },
        {
          "indexed": false,
          "internalType": "address",
          "name": "user",
          "type": "address"
        }
      ],
      "name": "OfferUsed",
      "type": "event"
    },
    {
      "anonymous": false,
      "inputs": [
        {
          "indexed": true,
          "internalType": "bytes32",
          "name": "role",
          "type": "bytes32"
        },
        {
          "indexed": true,
          "internalType": "bytes32",
          "name": "previousAdminRole",
          "type": "bytes32"
        },
        {
          "indexed": true,
          "internalType": "bytes32",
          "name": "newAdminRole",
          "type": "bytes32"
        }
      ],
      "name": "RoleAdminChanged",
      "type": "event"
    },
    {
      "anonymous": false,
      "inputs": [
        {
          "indexed": true,
          "internalType": "bytes32",
          "name": "role",
          "type": "bytes32"
        },
        {
          "indexed": true,
          "internalType": "address",
          "name": "account",
          "type": "address"
        },
        {
          "indexed": true,
          "internalType": "address",
          "name": "sender",
          "type": "address"
        }
      ],
      "name": "RoleGranted",
      "type": "event"
    },
    {
      "anonymous": false,
      "inputs": [
        {
          "indexed": true,
          "internalType": "bytes32",
          "name": "role",
          "type": "bytes32"
        },
        {
          "indexed": true,
          "internalType": "address",
          "name": "account",
          "type": "address"
        },
        {
          "indexed": true,
          "internalType": "address",
          "name": "sender",
          "type": "address"
        }
      ],
      "name": "RoleRevoked",
      "type": "event"
    },
    {
      "inputs": [],
      "name": "DEFAULT_ADMIN_ROLE",
      "outputs": [
        {
          "internalType": "bytes32",
          "name": "",
          "type": "bytes32"
        }
      ],
      "stateMutability": "view",
      "type": "function"
    },
    {
      "inputs": [],
      "name": "allOfferIds",
      "outputs": [
        {
          "internalType": "uint256[]",
          "name": "",
          "type": "uint256[]"
        }
      ],
      "stateMutability": "view",
      "type": "function"
    },
    {
      "inputs": [],
      "name": "allOfferLastUpdates",
      "outputs": [
        {
          "internalType": "uint256[][]",
          "name": "",
          "type": "uint256[][]"
        }
      ],
      "stateMutability": "view",
      "type": "function"
    },
    {
      "inputs": [],
      "name": "allOffers",
      "outputs": [
        {
          "components": [
            {
              "internalType": "uint256",
              "name": "id",
              "type": "uint256"
            },
            {
              "internalType": "contract IERC1155",
              "name": "inputCollection",
              "type": "address"
            },
            {
              "internalType": "uint256[]",
              "name": "inputCollectionItemIds",
              "type": "uint256[]"
            },
            {
              "internalType": "uint256[]",
              "name": "inputCollectionItemAmounts",
              "type": "uint256[]"
            },
            {
              "internalType": "contract IERC20",
              "name": "inputCurrency",
              "type": "address"
            },
            {
              "internalType": "uint256",
              "name": "inputCurrencyAmount",
              "type": "uint256"
            },
            {
              "internalType": "contract IERC1155",
              "name": "outputCollection",
              "type": "address"
            },
            {
              "internalType": "uint256[]",
              "name": "outputCollectionItemIds",
              "type": "uint256[]"
            },
            {
              "internalType": "uint256[]",
              "name": "outputCollectionItemAmounts",
              "type": "uint256[]"
            },
            {
              "internalType": "contract IERC20",
              "name": "outputCurrency",
              "type": "address"
            },
            {
              "internalType": "uint256",
              "name": "outputCurrencyAmount",
              "type": "uint256"
            },
            {
              "internalType": "uint256",
              "name": "uses",
              "type": "uint256"
            },
            {
              "internalType": "uint256",
              "name": "maxUses",
              "type": "uint256"
            },
            {
              "internalType": "uint256",
              "name": "lastUpdatedAt",
              "type": "uint256"
            }
          ],
          "internalType": "struct IGame_Shop.Offer[]",
          "name": "",
          "type": "tuple[]"
        }
      ],
      "stateMutability": "view",
      "type": "function"
    },
    {
      "inputs": [
        {
          "internalType": "bytes32",
          "name": "role",
          "type": "bytes32"
        }
      ],
      "name": "getRoleAdmin",
      "outputs": [
        {
          "internalType": "bytes32",
          "name": "",
          "type": "bytes32"
        }
      ],
      "stateMutability": "view",
      "type": "function"
    },
    {
      "inputs": [
        {
          "internalType": "bytes32",
          "name": "_role",
          "type": "bytes32"
        },
        {
          "internalType": "address",
          "name": "_account",
          "type": "address"
        }
      ],
      "name": "grantRole",
      "outputs": [],
      "stateMutability": "nonpayable",
      "type": "function"
    },
    {
      "inputs": [
        {
          "internalType": "bytes32",
          "name": "role",
          "type": "bytes32"
        },
        {
          "internalType": "address",
          "name": "account",
          "type": "address"
        }
      ],
      "name": "hasRole",
      "outputs": [
        {
          "internalType": "bool",
          "name": "",
          "type": "bool"
        }
      ],
      "stateMutability": "view",
      "type": "function"
    },
    {
      "inputs": [
        {
          "internalType": "address",
          "name": "forwarder",
          "type": "address"
        }
      ],
      "name": "isTrustedForwarder",
      "outputs": [
        {
          "internalType": "bool",
          "name": "",
          "type": "bool"
        }
      ],
      "stateMutability": "view",
      "type": "function"
    },
    {
      "inputs": [
        {
          "internalType": "uint256",
          "name": "_offerId",
          "type": "uint256"
        }
      ],
      "name": "offer",
      "outputs": [
        {
          "components": [
            {
              "internalType": "uint256",
              "name": "id",
              "type": "uint256"
            },
            {
              "internalType": "contract IERC1155",
              "name": "inputCollection",
              "type": "address"
            },
            {
              "internalType": "uint256[]",
              "name": "inputCollectionItemIds",
              "type": "uint256[]"
            },
            {
              "internalType": "uint256[]",
              "name": "inputCollectionItemAmounts",
              "type": "uint256[]"
            },
            {
              "internalType": "contract IERC20",
              "name": "inputCurrency",
              "type": "address"
            },
            {
              "internalType": "uint256",
              "name": "inputCurrencyAmount",
              "type": "uint256"
            },
            {
              "internalType": "contract IERC1155",
              "name": "outputCollection",
              "type": "address"
            },
            {
              "internalType": "uint256[]",
              "name": "outputCollectionItemIds",
              "type": "uint256[]"
            },
            {
              "internalType": "uint256[]",
              "name": "outputCollectionItemAmounts",
              "type": "uint256[]"
            },
            {
              "internalType": "contract IERC20",
              "name": "outputCurrency",
              "type": "address"
            },
            {
              "internalType": "uint256",
              "name": "outputCurrencyAmount",
              "type": "uint256"
            },
            {
              "internalType": "uint256",
              "name": "uses",
              "type": "uint256"
            },
            {
              "internalType": "uint256",
              "name": "maxUses",
              "type": "uint256"
            },
            {
              "internalType": "uint256",
              "name": "lastUpdatedAt",
              "type": "uint256"
            }
          ],
          "internalType": "struct IGame_Shop.Offer",
          "name": "",
          "type": "tuple"
        }
      ],
      "stateMutability": "view",
      "type": "function"
    },
    {
      "inputs": [
        {
          "internalType": "uint256",
          "name": "_index",
          "type": "uint256"
        }
      ],
      "name": "offerId",
      "outputs": [
        {
          "internalType": "uint256",
          "name": "",
          "type": "uint256"
        }
      ],
      "stateMutability": "view",
      "type": "function"
    },
    {
      "inputs": [
        {
          "internalType": "uint256",
          "name": "_offerId",
          "type": "uint256"
        }
      ],
      "name": "offerLastUpdate",
      "outputs": [
        {
          "internalType": "uint256[]",
          "name": "",
          "type": "uint256[]"
        }
      ],
      "stateMutability": "view",
      "type": "function"
    },
    {
      "inputs": [
        {
          "internalType": "address",
          "name": "",
          "type": "address"
        },
        {
          "internalType": "address",
          "name": "",
          "type": "address"
        },
        {
          "internalType": "uint256[]",
          "name": "",
          "type": "uint256[]"
        },
        {
          "internalType": "uint256[]",
          "name": "",
          "type": "uint256[]"
        },
        {
          "internalType": "bytes",
          "name": "",
          "type": "bytes"
        }
      ],
      "name": "onERC1155BatchReceived",
      "outputs": [
        {
          "internalType": "bytes4",
          "name": "",
          "type": "bytes4"
        }
      ],
      "stateMutability": "nonpayable",
      "type": "function"
    },
    {
      "inputs": [
        {
          "internalType": "address",
          "name": "",
          "type": "address"
        },
        {
          "internalType": "address",
          "name": "",
          "type": "address"
        },
        {
          "internalType": "uint256",
          "name": "",
          "type": "uint256"
        },
        {
          "internalType": "uint256",
          "name": "",
          "type": "uint256"
        },
        {
          "internalType": "bytes",
          "name": "",
          "type": "bytes"
        }
      ],
      "name": "onERC1155Received",
      "outputs": [
        {
          "internalType": "bytes4",
          "name": "",
          "type": "bytes4"
        }
      ],
      "stateMutability": "nonpayable",
      "type": "function"
    },
    {
      "inputs": [
        {
          "internalType": "uint256",
          "name": "_startIndexInclusive",
          "type": "uint256"
        },
        {
          "internalType": "uint256",
          "name": "_limit",
          "type": "uint256"
        }
      ],
      "name": "paginateOfferIds",
      "outputs": [
        {
          "internalType": "uint256[]",
          "name": "",
          "type": "uint256[]"
        }
      ],
      "stateMutability": "view",
      "type": "function"
    },
    {
      "inputs": [
        {
          "internalType": "uint256",
          "name": "_startIndexInclusive",
          "type": "uint256"
        },
        {
          "internalType": "uint256",
          "name": "_limit",
          "type": "uint256"
        }
      ],
      "name": "paginateOfferLastUpdates",
      "outputs": [
        {
          "internalType": "uint256[][]",
          "name": "",
          "type": "uint256[][]"
        }
      ],
      "stateMutability": "view",
      "type": "function"
    },
    {
      "inputs": [
        {
          "internalType": "uint256",
          "name": "_startIndexInclusive",
          "type": "uint256"
        },
        {
          "internalType": "uint256",
          "name": "_limit",
          "type": "uint256"
        }
      ],
      "name": "paginateOffers",
      "outputs": [
        {
          "components": [
            {
              "internalType": "uint256",
              "name": "id",
              "type": "uint256"
            },
            {
              "internalType": "contract IERC1155",
              "name": "inputCollection",
              "type": "address"
            },
            {
              "internalType": "uint256[]",
              "name": "inputCollectionItemIds",
              "type": "uint256[]"
            },
            {
              "internalType": "uint256[]",
              "name": "inputCollectionItemAmounts",
              "type": "uint256[]"
            },
            {
              "internalType": "contract IERC20",
              "name": "inputCurrency",
              "type": "address"
            },
            {
              "internalType": "uint256",
              "name": "inputCurrencyAmount",
              "type": "uint256"
            },
            {
              "internalType": "contract IERC1155",
              "name": "outputCollection",
              "type": "address"
            },
            {
              "internalType": "uint256[]",
              "name": "outputCollectionItemIds",
              "type": "uint256[]"
            },
            {
              "internalType": "uint256[]",
              "name": "outputCollectionItemAmounts",
              "type": "uint256[]"
            },
            {
              "internalType": "contract IERC20",
              "name": "outputCurrency",
              "type": "address"
            },
            {
              "internalType": "uint256",
              "name": "outputCurrencyAmount",
              "type": "uint256"
            },
            {
              "internalType": "uint256",
              "name": "uses",
              "type": "uint256"
            },
            {
              "internalType": "uint256",
              "name": "maxUses",
              "type": "uint256"
            },
            {
              "internalType": "uint256",
              "name": "lastUpdatedAt",
              "type": "uint256"
            }
          ],
          "internalType": "struct IGame_Shop.Offer[]",
          "name": "",
          "type": "tuple[]"
        }
      ],
      "stateMutability": "view",
      "type": "function"
    },
    {
      "inputs": [
        {
          "internalType": "uint256",
          "name": "_offerId",
          "type": "uint256"
        }
      ],
      "name": "removeOffer",
      "outputs": [],
      "stateMutability": "nonpayable",
      "type": "function"
    },
    {
      "inputs": [
        {
          "internalType": "bytes32",
          "name": "role",
          "type": "bytes32"
        },
        {
          "internalType": "address",
          "name": "account",
          "type": "address"
        }
      ],
      "name": "renounceRole",
      "outputs": [],
      "stateMutability": "nonpayable",
      "type": "function"
    },
    {
      "inputs": [
        {
          "internalType": "bytes32",
          "name": "role",
          "type": "bytes32"
        },
        {
          "internalType": "address",
          "name": "account",
          "type": "address"
        }
      ],
      "name": "revokeRole",
      "outputs": [],
      "stateMutability": "nonpayable",
      "type": "function"
    },
    {
      "inputs": [
        {
          "internalType": "uint256",
          "name": "_offerId",
          "type": "uint256"
        },
        {
          "internalType": "address[2]",
          "name": "_inputOutputCollections",
          "type": "address[2]"
        },
        {
          "internalType": "uint256[][2]",
          "name": "_inputOutputCollectionItemIds",
          "type": "uint256[][2]"
        },
        {
          "internalType": "uint256[][2]",
          "name": "_inputOutputCollectionItemAmounts",
          "type": "uint256[][2]"
        },
        {
          "internalType": "address[2]",
          "name": "_inputOutputCurrency",
          "type": "address[2]"
        },
        {
          "internalType": "uint256[2]",
          "name": "_inputOutputCurrencyAmounts",
          "type": "uint256[2]"
        },
        {
          "internalType": "uint256",
          "name": "_maxUses",
          "type": "uint256"
        }
      ],
      "name": "setOffer",
      "outputs": [],
      "stateMutability": "nonpayable",
      "type": "function"
    },
    {
      "inputs": [
        {
          "internalType": "bytes4",
          "name": "interfaceId",
          "type": "bytes4"
        }
      ],
      "name": "supportsInterface",
      "outputs": [
        {
          "internalType": "bool",
          "name": "",
          "type": "bool"
        }
      ],
      "stateMutability": "view",
      "type": "function"
    },
    {
      "inputs": [],
      "name": "systemId",
      "outputs": [
        {
          "internalType": "bytes32",
          "name": "",
          "type": "bytes32"
        }
      ],
      "stateMutability": "view",
      "type": "function"
    },
    {
      "inputs": [],
      "name": "totalOffers",
      "outputs": [
        {
          "internalType": "uint256",
          "name": "",
          "type": "uint256"
        }
      ],
      "stateMutability": "view",
      "type": "function"
    },
    {
      "inputs": [
        {
          "internalType": "address",
          "name": "_newOwner",
          "type": "address"
        }
      ],
      "name": "transferOwnershipControl",
      "outputs": [],
      "stateMutability": "nonpayable",
      "type": "function"
    },
    {
      "inputs": [],
      "name": "trustedForwarder",
      "outputs": [
        {
          "internalType": "address",
          "name": "",
          "type": "address"
        }
      ],
      "stateMutability": "view",
      "type": "function"
    },
    {
      "inputs": [
        {
          "internalType": "address",
          "name": "_newTrustedForwarder",
          "type": "address"
        }
      ],
      "name": "upgradeTrustedForwarder",
      "outputs": [],
      "stateMutability": "nonpayable",
      "type": "function"
    },
    {
      "inputs": [
        {
          "internalType": "uint256",
          "name": "_offerId",
          "type": "uint256"
        }
      ],
      "name": "useOffer",
      "outputs": [],
      "stateMutability": "payable",
      "type": "function"
    },
    {
      "inputs": [
        {
          "internalType": "address",
          "name": "_currencyAddress",
          "type": "address"
        },
        {
          "internalType": "address",
          "name": "_to",
          "type": "address"
        }
      ],
      "name": "withdrawCurrencyTo",
      "outputs": [],
      "stateMutability": "nonpayable",
      "type": "function"
    },
    {
      "inputs": [
        {
          "internalType": "address",
          "name": "_collectionAddress",
          "type": "address"
        },
        {
          "internalType": "uint256[]",
          "name": "_itemIds",
          "type": "uint256[]"
        },
        {
          "internalType": "address",
          "name": "_to",
          "type": "address"
        }
      ],
      "name": "withdrawItemsTo",
      "outputs": [],
      "stateMutability": "nonpayable",
      "type": "function"
    },
    {
      "inputs": [
        {
          "internalType": "address",
          "name": "_to",
          "type": "address"
        }
      ],
      "name": "withdrawTo",
      "outputs": [],
      "stateMutability": "nonpayable",
      "type": "function"
    },
    {
      "stateMutability": "payable",
      "type": "receive"
    }
  ],
  "bytecode": "0x60806040523480156200001157600080fd5b5060405162004448380380620044488339810160408190526200003491620001af565b600080546001600160a01b0319166001600160a01b03841617815560018281556003556200006c9062000066620000a3565b620000bf565b6200009b7f5b618ab2fee761c09bf71319707cefa62eccc93dcc483744898e6c3acf45264362000066620000a3565b5050620001eb565b6000620000ba620000cf60201b62002a221760201c565b905090565b620000cb828262000105565b5050565b600080546001600160a01b03163303620000f0575060131936013560601c90565b620000ba620001ab60201b62002a721760201c565b60008281526002602090815260408083206001600160a01b038516845290915290205460ff16620000cb5760008281526002602090815260408083206001600160a01b03851684529091529020805460ff1916600117905562000167620000a3565b6001600160a01b0316816001600160a01b0316837f2f8788117e7eff1d82e926ec794901d17c78024a50270940304540a733656f0d60405160405180910390a45050565b3390565b60008060408385031215620001c357600080fd5b82516001600160a01b0381168114620001db57600080fd5b6020939093015192949293505050565b61424d80620001fb6000396000f3fe6080604052600436106101d15760003560e01c80637da0a877116100f75780639c66b06311610095578063bc197c8111610064578063bc197c81146105b9578063cdf191741461062f578063d547741f1461064f578063f23a6e611461066f57600080fd5b80639c66b0631461054f578063a217fddf1461056f578063a9fd8ed114610584578063aa2a7eea1461059957600080fd5b806389fe7c3b116100d157806389fe7c3b1461049c5780638b839502146104bc57806391d14854146104dc57806395a0f9c71461052f57600080fd5b80637da0a8771461040a5780637f413af21461045c57806382335ab01461047c57600080fd5b806349fe03671161016f578063687c08dd1161013e578063687c08dd1461037b57806372b0d90c1461039d57806374d33353146103bd578063761610fc146103dd57600080fd5b806349fe0367146102f5578063500ceb481461030857806351a30c651461031d578063572b6c051461033f57600080fd5b80632f2ff15d116101ab5780632f2ff15d1461027d57806336568abe1461029f57806339f898bc146102bf5780634252ac3f146102d557600080fd5b806301ffc9a7146101dd5780631675187c14610212578063248a9ca31461023f57600080fd5b366101d857005b600080fd5b3480156101e957600080fd5b506101fd6101f836600461342c565b6106b4565b60405190151581526020015b60405180910390f35b34801561021e57600080fd5b5061023261022d36600461346e565b61075c565b60405161020991906134c2565b34801561024b57600080fd5b5061026f61025a36600461346e565b60009081526002602052604090206001015490565b604051908152602001610209565b34801561028957600080fd5b5061029d6102983660046134fe565b6107dc565b005b3480156102ab57600080fd5b5061029d6102ba3660046134fe565b610984565b3480156102cb57600080fd5b5061026f60015481565b3480156102e157600080fd5b5061029d6102f036600461352a565b610a54565b61029d61030336600461346e565b610a7c565b34801561031457600080fd5b5061023261118c565b34801561032957600080fd5b5061033261119d565b6040516102099190613545565b34801561034b57600080fd5b506101fd61035a36600461352a565b60005473ffffffffffffffffffffffffffffffffffffffff91821691161490565b34801561038757600080fd5b5061039061124d565b6040516102099190613718565b3480156103a957600080fd5b5061029d6103b836600461352a565b6115e2565b3480156103c957600080fd5b5061026f6103d836600461346e565b611653565b3480156103e957600080fd5b506103fd6103f836600461346e565b6116d2565b604051610209919061378b565b34801561041657600080fd5b506000546104379073ffffffffffffffffffffffffffffffffffffffff1681565b60405173ffffffffffffffffffffffffffffffffffffffff9091168152602001610209565b34801561046857600080fd5b5061029d61047736600461379e565b611a59565b34801561048857600080fd5b50610390610497366004613835565b611c64565b3480156104a857600080fd5b506103326104b7366004613835565b612043565b3480156104c857600080fd5b5061029d6104d7366004613857565b612125565b3480156104e857600080fd5b506101fd6104f73660046134fe565b600091825260026020908152604080842073ffffffffffffffffffffffffffffffffffffffff93909316845291905290205460ff1690565b34801561053b57600080fd5b5061029d61054a36600461346e565b612284565b34801561055b57600080fd5b5061029d61056a366004613892565b61230f565b34801561057b57600080fd5b5061026f600081565b34801561059057600080fd5b5061026f6128af565b3480156105a557600080fd5b5061029d6105b436600461352a565b6128bb565b3480156105c557600080fd5b506105fe6105d4366004613acc565b7fbc197c810000000000000000000000000000000000000000000000000000000095945050505050565b6040517fffffffff000000000000000000000000000000000000000000000000000000009091168152602001610209565b34801561063b57600080fd5b5061023261064a366004613835565b612929565b34801561065b57600080fd5b5061029d61066a3660046134fe565b6129fd565b34801561067b57600080fd5b506105fe61068a366004613b76565b7ff23a6e610000000000000000000000000000000000000000000000000000000095945050505050565b60007fffffffff0000000000000000000000000000000000000000000000000000000082167f96ba7d0d00000000000000000000000000000000000000000000000000000000148061074757507fffffffff0000000000000000000000000000000000000000000000000000000082167f4e2312e000000000000000000000000000000000000000000000000000000000145b80610756575061075682612a76565b92915050565b60408051600280825260608083018452926000929190602083019080368337019050509050828160008151811061079557610795613bdb565b60200260200101818152505060066000848152602001908152602001600020600d0154816001815181106107cb576107cb613bdb565b602090810291909101015292915050565b60006107ea816104f7612acc565b9050600061081a7f5b618ab2fee761c09bf71319707cefa62eccc93dcc483744898e6c3acf4526436104f7612acc565b905081806108255750805b6108b6576040517f08c379a000000000000000000000000000000000000000000000000000000000815260206004820152602d60248201527f526f6c65206772616e74696e672072657175697265732061646d696e206f722060448201527f6d616e6167657220726f6c652e0000000000000000000000000000000000000060648201526084015b60405180910390fd5b8315806108e257507f5b618ab2fee761c09bf71319707cefa62eccc93dcc483744898e6c3acf45264384145b156109745781610974576040517f08c379a000000000000000000000000000000000000000000000000000000000815260206004820152602b60248201527f4f6e6c792061646d696e2063616e206772616e742061646d696e206f72206d6160448201527f6e6167657220726f6c652e00000000000000000000000000000000000000000060648201526084016108ad565b61097e8484612ad6565b50505050565b61098c612acc565b73ffffffffffffffffffffffffffffffffffffffff168173ffffffffffffffffffffffffffffffffffffffff1614610a46576040517f08c379a000000000000000000000000000000000000000000000000000000000815260206004820152602f60248201527f416363657373436f6e74726f6c3a2063616e206f6e6c792072656e6f756e636560448201527f20726f6c657320666f722073656c66000000000000000000000000000000000060648201526084016108ad565b610a508282612bcb565b5050565b6000610a5f81612cbe565b610a6a600083612ad6565b610a506000610a77612acc565b612bcb565b610a84612ccf565b610a8f600482612d42565b610b1b576040517f08c379a000000000000000000000000000000000000000000000000000000000815260206004820152602b60248201527f6f66666572496420646f6573206e6f74206578697374206f722068617320626560448201527f656e2072656d6f7665642e00000000000000000000000000000000000000000060648201526084016108ad565b6000818152600660205260409020600c8101541580610b41575080600c015481600b0154105b610ba7576040517f08c379a000000000000000000000000000000000000000000000000000000000815260206004820152601b60248201527f4f66666572206861732072656163686564206d617820757365732e000000000060448201526064016108ad565b600181015473ffffffffffffffffffffffffffffffffffffffff1615610c4a57600181015473ffffffffffffffffffffffffffffffffffffffff16632eb2c2d6610bef612acc565b3084600201856003016040518563ffffffff1660e01b8152600401610c179493929190613c3f565b600060405180830381600087803b158015610c3157600080fd5b505af1158015610c45573d6000803e3d6000fd5b505050505b600581015415610daf57600481015473ffffffffffffffffffffffffffffffffffffffff1615610d4157600481015473ffffffffffffffffffffffffffffffffffffffff166323b872dd610c9c612acc565b60058401546040517fffffffff0000000000000000000000000000000000000000000000000000000060e085901b16815273ffffffffffffffffffffffffffffffffffffffff909216600483015230602483015260448201526064016020604051808303816000875af1158015610d17573d6000803e3d6000fd5b505050506040513d601f19601f82011682018060405250810190610d3b9190613ca7565b50610daf565b8060050154341015610daf576040517f08c379a000000000000000000000000000000000000000000000000000000000815260206004820152601660248201527f5061796d656e74206c657373207468616e20636f73740000000000000000000060448201526064016108ad565b600681015473ffffffffffffffffffffffffffffffffffffffff1615610f02576006810154610df39073ffffffffffffffffffffffffffffffffffffffff16612d5d565b15610e7f57600681015473ffffffffffffffffffffffffffffffffffffffff16806308f427c7610e21612acc565b84600701856008016040518463ffffffff1660e01b8152600401610e4793929190613cc9565b600060405180830381600087803b158015610e6157600080fd5b505af1158015610e75573d6000803e3d6000fd5b5050505050610f02565b600681015473ffffffffffffffffffffffffffffffffffffffff16632eb2c2d630610ea8612acc565b84600701856008016040518563ffffffff1660e01b8152600401610ecf9493929190613c3f565b600060405180830381600087803b158015610ee957600080fd5b505af1158015610efd573d6000803e3d6000fd5b505050505b600981015473ffffffffffffffffffffffffffffffffffffffff16156110c9576009810154610f469073ffffffffffffffffffffffffffffffffffffffff16612d5d565b1561100257600981015473ffffffffffffffffffffffffffffffffffffffff16806340c10f19610f74612acc565b600a8501546040517fffffffff0000000000000000000000000000000000000000000000000000000060e085901b16815273ffffffffffffffffffffffffffffffffffffffff90921660048301526024820152604401600060405180830381600087803b158015610fe457600080fd5b505af1158015610ff8573d6000803e3d6000fd5b5050505050611126565b600981015473ffffffffffffffffffffffffffffffffffffffff1663a9059cbb61102a612acc565b600a8401546040517fffffffff0000000000000000000000000000000000000000000000000000000060e085901b16815273ffffffffffffffffffffffffffffffffffffffff909216600483015260248201526044016020604051808303816000875af115801561109f573d6000803e3d6000fd5b505050506040513d601f19601f820116820180604052508101906110c39190613ca7565b50611126565b600a81015415611126576110db612acc565b73ffffffffffffffffffffffffffffffffffffffff166108fc82600a01549081150290604051600060405180830381858888f19350505050158015611124573d6000803e3d6000fd5b505b600b8101805490600061113883613d43565b9190505550817feab8772ecfad019c9f5c5cff325bd3316d0c456b3e53260ea5191feb57b2359182611168612acc565b604051611176929190613ee4565b60405180910390a2506111896001600355565b50565b60606111986004612e16565b905090565b606060006111a96128af565b67ffffffffffffffff8111156111c1576111c1613940565b6040519080825280602002602001820160405280156111f457816020015b60608152602001906001900390816111df5790505b50905060005b6112026128af565b8110156112475761121761022d600483612e23565b82828151811061122957611229613bdb565b6020026020010181905250808061123f90613d43565b9150506111fa565b50919050565b606060006112596128af565b67ffffffffffffffff81111561127157611271613940565b60405190808252806020026020018201604052801561136c57816020015b611359604051806101c0016040528060008152602001600073ffffffffffffffffffffffffffffffffffffffff1681526020016060815260200160608152602001600073ffffffffffffffffffffffffffffffffffffffff16815260200160008152602001600073ffffffffffffffffffffffffffffffffffffffff1681526020016060815260200160608152602001600073ffffffffffffffffffffffffffffffffffffffff168152602001600081526020016000815260200160008152602001600081525090565b81526020019060019003908161128f5790505b50905060005b61137a6128af565b8110156112475760066000611390600484612e23565b8152602080820192909252604090810160002081516101c08101835281548152600182015473ffffffffffffffffffffffffffffffffffffffff168185015260028201805484518187028101870186528181529295939486019383018282801561141957602002820191906000526020600020905b815481526020019060010190808311611405575b505050505081526020016003820180548060200260200160405190810160405280929190818152602001828054801561147157602002820191906000526020600020905b81548152602001906001019080831161145d575b5050509183525050600482015473ffffffffffffffffffffffffffffffffffffffff908116602080840191909152600584015460408085019190915260068501549092166060840152600784018054835181840281018401909452808452608090940193909183018282801561150657602002820191906000526020600020905b8154815260200190600101908083116114f2575b505050505081526020016008820180548060200260200160405190810160405280929190818152602001828054801561155e57602002820191906000526020600020905b81548152602001906001019080831161154a575b5050509183525050600982015473ffffffffffffffffffffffffffffffffffffffff166020820152600a8201546040820152600b8201546060820152600c8201546080820152600d9091015460a09091015282518390839081106115c4576115c4613bdb565b602002602001018190525080806115da90613d43565b915050611372565b7f5b618ab2fee761c09bf71319707cefa62eccc93dcc483744898e6c3acf45264361160c81612cbe565b60405173ffffffffffffffffffffffffffffffffffffffff8316904780156108fc02916000818181858888f1935050505015801561164e573d6000803e3d6000fd5b505050565b600061165f6004612e2f565b82106116c7576040517f08c379a000000000000000000000000000000000000000000000000000000000815260206004820152601360248201527f496e646578206f7574206f6620626f756e64730000000000000000000000000060448201526064016108ad565b610756600483612e23565b61179c604051806101c0016040528060008152602001600073ffffffffffffffffffffffffffffffffffffffff1681526020016060815260200160608152602001600073ffffffffffffffffffffffffffffffffffffffff16815260200160008152602001600073ffffffffffffffffffffffffffffffffffffffff1681526020016060815260200160608152602001600073ffffffffffffffffffffffffffffffffffffffff168152602001600081526020016000815260200160008152602001600081525090565b6117a7600483612d42565b611833576040517f08c379a000000000000000000000000000000000000000000000000000000000815260206004820152602b60248201527f6f66666572496420646f6573206e6f74206578697374206f722068617320626560448201527f656e2072656d6f7665642e00000000000000000000000000000000000000000060648201526084016108ad565b60008281526006602090815260409182902082516101c08101845281548152600182015473ffffffffffffffffffffffffffffffffffffffff1681840152600282018054855181860281018601875281815292959394938601938301828280156118bc57602002820191906000526020600020905b8154815260200190600101908083116118a8575b505050505081526020016003820180548060200260200160405190810160405280929190818152602001828054801561191457602002820191906000526020600020905b815481526020019060010190808311611900575b5050509183525050600482015473ffffffffffffffffffffffffffffffffffffffff90811660208084019190915260058401546040808501919091526006850154909216606084015260078401805483518184028101840190945280845260809094019390918301828280156119a957602002820191906000526020600020905b815481526020019060010190808311611995575b5050505050815260200160088201805480602002602001604051908101604052809291908181526020018280548015611a0157602002820191906000526020600020905b8154815260200190600101908083116119ed575b5050509183525050600982015473ffffffffffffffffffffffffffffffffffffffff166020820152600a8201546040820152600b8201546060820152600c8201546080820152600d9091015460a09091015292915050565b7f5b618ab2fee761c09bf71319707cefa62eccc93dcc483744898e6c3acf452643611a8381612cbe565b8460008467ffffffffffffffff811115611a9f57611a9f613940565b604051908082528060200260200182016040528015611ac8578160200160208202803683370190505b50905060005b85811015611bce578273ffffffffffffffffffffffffffffffffffffffff1662fdd58e30898985818110611b0457611b04613bdb565b6040517fffffffff0000000000000000000000000000000000000000000000000000000060e087901b16815273ffffffffffffffffffffffffffffffffffffffff90941660048501526020029190910135602483015250604401602060405180830381865afa158015611b7b573d6000803e3d6000fd5b505050506040513d601f19601f82011682018060405250810190611b9f9190613f1c565b828281518110611bb157611bb1613bdb565b602090810291909101015280611bc681613d43565b915050611ace565b506040517f2eb2c2d600000000000000000000000000000000000000000000000000000000815273ffffffffffffffffffffffffffffffffffffffff831690632eb2c2d690611c2990309088908b908b908890600401613f35565b600060405180830381600087803b158015611c4357600080fd5b505af1158015611c57573d6000803e3d6000fd5b5050505050505050505050565b60606000611c726004612e2f565b8410611c7f576000611c94565b83611c8a6004612e2f565b611c949190613fd8565b9050600083821115611ca65783611ca8565b815b905060008167ffffffffffffffff811115611cc557611cc5613940565b604051908082528060200260200182016040528015611dc057816020015b611dad604051806101c0016040528060008152602001600073ffffffffffffffffffffffffffffffffffffffff1681526020016060815260200160608152602001600073ffffffffffffffffffffffffffffffffffffffff16815260200160008152602001600073ffffffffffffffffffffffffffffffffffffffff1681526020016060815260200160608152602001600073ffffffffffffffffffffffffffffffffffffffff168152602001600081526020016000815260200160008152602001600081525090565b815260200190600190039081611ce35790505b50905060005b828110156120395760066000611de7611ddf848b613feb565b600490612e23565b8152602080820192909252604090810160002081516101c08101835281548152600182015473ffffffffffffffffffffffffffffffffffffffff1681850152600282018054845181870281018701865281815292959394860193830182828015611e7057602002820191906000526020600020905b815481526020019060010190808311611e5c575b5050505050815260200160038201805480602002602001604051908101604052809291908181526020018280548015611ec857602002820191906000526020600020905b815481526020019060010190808311611eb4575b5050509183525050600482015473ffffffffffffffffffffffffffffffffffffffff9081166020808401919091526005840154604080850191909152600685015490921660608401526007840180548351818402810184019094528084526080909401939091830182828015611f5d57602002820191906000526020600020905b815481526020019060010190808311611f49575b5050505050815260200160088201805480602002602001604051908101604052809291908181526020018280548015611fb557602002820191906000526020600020905b815481526020019060010190808311611fa1575b5050509183525050600982015473ffffffffffffffffffffffffffffffffffffffff166020820152600a8201546040820152600b8201546060820152600c8201546080820152600d9091015460a090910152825183908390811061201b5761201b613bdb565b6020026020010181905250808061203190613d43565b915050611dc6565b5095945050505050565b606060006120516004612e2f565b841061205e576000612073565b836120696004612e2f565b6120739190613fd8565b90506000838211156120855783612087565b815b905060008167ffffffffffffffff8111156120a4576120a4613940565b6040519080825280602002602001820160405280156120d757816020015b60608152602001906001900390816120c25790505b50905060005b82811015612039576120f561022d611ddf838a613feb565b82828151811061210757612107613bdb565b6020026020010181905250808061211d90613d43565b9150506120dd565b7f5b618ab2fee761c09bf71319707cefa62eccc93dcc483744898e6c3acf45264361214f81612cbe565b6040517f70a08231000000000000000000000000000000000000000000000000000000008152306004820152839073ffffffffffffffffffffffffffffffffffffffff82169063a9059cbb90859083906370a0823190602401602060405180830381865afa1580156121c5573d6000803e3d6000fd5b505050506040513d601f19601f820116820180604052508101906121e99190613f1c565b6040517fffffffff0000000000000000000000000000000000000000000000000000000060e085901b16815273ffffffffffffffffffffffffffffffffffffffff909216600483015260248201526044016020604051808303816000875af1158015612259573d6000803e3d6000fd5b505050506040513d601f19601f8201168201806040525081019061227d9190613ca7565b5050505050565b7f5b618ab2fee761c09bf71319707cefa62eccc93dcc483744898e6c3acf4526436122ae81612cbe565b6122b9600483612e39565b5060008281526006602052604090819020905183907f6a1a138e164465aabd2f777a1616db53b1e03ebfc20e197765e62fa2b748600b906122fb908490613ffe565b60405180910390a26000600b909101555050565b7f5b618ab2fee761c09bf71319707cefa62eccc93dcc483744898e6c3acf45264361233981612cbe565b6123438580614011565b905061234f8780614011565b9050146123de576040517f08c379a000000000000000000000000000000000000000000000000000000000815260206004820152602260248201527f496e707574206974656d7320616e6420616d6f756e7473206d69736d6174636860448201527f656400000000000000000000000000000000000000000000000000000000000060648201526084016108ad565b6123eb6020860186614011565b90506123fa6020880188614011565b905014612489576040517f08c379a000000000000000000000000000000000000000000000000000000000815260206004820152602360248201527f4f7574707574206974656d7320616e6420616d6f756e7473206d69736d61746360448201527f686564000000000000000000000000000000000000000000000000000000000060648201526084016108ad565b6000604051806101c001604052808a8152602001896000600281106124b0576124b0613bdb565b6020020160208101906124c3919061352a565b73ffffffffffffffffffffffffffffffffffffffff1681526020016124e88980614011565b808060200260200160405190810160405280939291908181526020018383602002808284376000920191909152505050908252506020016125298880614011565b8080602002602001604051908101604052809392919081815260200183836020028082843760009201919091525050509082525060209081019061256f9088018861352a565b73ffffffffffffffffffffffffffffffffffffffff168152853560208201526040018960016020020160208101906125a7919061352a565b73ffffffffffffffffffffffffffffffffffffffff1681526020908101906125d1908a018a614011565b8080602002602001604051908101604052809392919081815260200183836020028082843760009201919091525050509082525060209081019061261790890189614011565b80806020026020016040519081016040528093929190818152602001838360200280828437600092019190915250505090825250602090810190612661906040890190890161352a565b73ffffffffffffffffffffffffffffffffffffffff1681526020868101358183015260008c81526006909152604090819020600b015490820152606081018590524260809091015290506126b660048a612e45565b5060008981526006602090815260409182902083518155838201516001820180547fffffffffffffffffffffffff00000000000000000000000000000000000000001673ffffffffffffffffffffffffffffffffffffffff9092169190911790559183015180518493926127319260028501929101906133cc565b506060820151805161274d9160038401916020909101906133cc565b50608082015160048201805473ffffffffffffffffffffffffffffffffffffffff9283167fffffffffffffffffffffffff00000000000000000000000000000000000000009182161790915560a0840151600584015560c084015160068401805491909316911617905560e082015180516127d29160078401916020909101906133cc565b5061010082015180516127ef9160088401916020909101906133cc565b506101208201516009820180547fffffffffffffffffffffffff00000000000000000000000000000000000000001673ffffffffffffffffffffffffffffffffffffffff909216919091179055610140820151600a820155610160820151600b820155610180820151600c8201556101a090910151600d9091015560405189907ffcb9e66873133101ffdf745da3859e2b3736909576d4d11d6982e3e0e19d97549061289c90849061378b565b60405180910390a2505050505050505050565b60006111986004612e2f565b7f5b618ab2fee761c09bf71319707cefa62eccc93dcc483744898e6c3acf4526436128e581612cbe565b600080547fffffffffffffffffffffffff00000000000000000000000000000000000000001673ffffffffffffffffffffffffffffffffffffffff84161790555050565b606060006129376004612e2f565b8410612944576000612959565b8361294f6004612e2f565b6129599190613fd8565b905060008382111561296b578361296d565b815b905060008167ffffffffffffffff81111561298a5761298a613940565b6040519080825280602002602001820160405280156129b3578160200160208202803683370190505b50905060005b82811015612039576129ce611ddf8289613feb565b8282815181106129e0576129e0613bdb565b6020908102919091010152806129f581613d43565b9150506129b9565b600082815260026020526040902060010154612a1881612cbe565b61164e8383612bcb565b6000805473ffffffffffffffffffffffffffffffffffffffff163303612a6d57507fffffffffffffffffffffffffffffffffffffffffffffffffffffffffffffffec36013560601c90565b503390565b3390565b60007fffffffff0000000000000000000000000000000000000000000000000000000082167f4e2312e0000000000000000000000000000000000000000000000000000000001480610756575061075682612e51565b6000611198612a22565b600082815260026020908152604080832073ffffffffffffffffffffffffffffffffffffffff8516845290915290205460ff16610a5057600082815260026020908152604080832073ffffffffffffffffffffffffffffffffffffffff85168452909152902080547fffffffffffffffffffffffffffffffffffffffffffffffffffffffffffffff00166001179055612b6d612acc565b73ffffffffffffffffffffffffffffffffffffffff168173ffffffffffffffffffffffffffffffffffffffff16837f2f8788117e7eff1d82e926ec794901d17c78024a50270940304540a733656f0d60405160405180910390a45050565b600082815260026020908152604080832073ffffffffffffffffffffffffffffffffffffffff8516845290915290205460ff1615610a5057600082815260026020908152604080832073ffffffffffffffffffffffffffffffffffffffff85168452909152902080547fffffffffffffffffffffffffffffffffffffffffffffffffffffffffffffff00169055612c60612acc565b73ffffffffffffffffffffffffffffffffffffffff168173ffffffffffffffffffffffffffffffffffffffff16837ff6391f5c32d9c69d2a47ea670b442974b53935d1edc7fd64eb21e047a839171b60405160405180910390a45050565b61118981612cca612acc565b612ee8565b600260035403612d3b576040517f08c379a000000000000000000000000000000000000000000000000000000000815260206004820152601f60248201527f5265656e7472616e637947756172643a207265656e7472616e742063616c6c0060448201526064016108ad565b6002600355565b600081815260018301602052604081205415155b9392505050565b6040517f91d148540000000000000000000000000000000000000000000000000000000081527fc9eb32e43bf5ecbceacf00b32281dfc5d6d700a0db676ea26ccf938a385ac3f76004820152306024820152600090829073ffffffffffffffffffffffffffffffffffffffff8216906391d1485490604401602060405180830381865afa158015612df2573d6000803e3d6000fd5b505050506040513d601f19601f82011682018060405250810190612d569190613ca7565b60606000612d5683612fa2565b6000612d568383612ffe565b6000610756825490565b6000612d568383613028565b6000612d56838361311b565b60007fffffffff0000000000000000000000000000000000000000000000000000000082167f7965db0b00000000000000000000000000000000000000000000000000000000148061075657507f01ffc9a7000000000000000000000000000000000000000000000000000000007fffffffff00000000000000000000000000000000000000000000000000000000831614610756565b600082815260026020908152604080832073ffffffffffffffffffffffffffffffffffffffff8516845290915290205460ff16610a5057612f288161316a565b612f33836020613189565b604051602001612f449291906140a4565b604080517fffffffffffffffffffffffffffffffffffffffffffffffffffffffffffffffe0818403018152908290527f08c379a00000000000000000000000000000000000000000000000000000000082526108ad91600401614125565b606081600001805480602002602001604051908101604052809291908181526020018280548015612ff257602002820191906000526020600020905b815481526020019060010190808311612fde575b50505050509050919050565b600082600001828154811061301557613015613bdb565b9060005260206000200154905092915050565b6000818152600183016020526040812054801561311157600061304c600183613fd8565b855490915060009061306090600190613fd8565b90508181146130c557600086600001828154811061308057613080613bdb565b90600052602060002001549050808760000184815481106130a3576130a3613bdb565b6000918252602080832090910192909255918252600188019052604090208390555b85548690806130d6576130d6614176565b600190038181906000526020600020016000905590558560010160008681526020019081526020016000206000905560019350505050610756565b6000915050610756565b600081815260018301602052604081205461316257508154600181810184556000848152602080822090930184905584548482528286019093526040902091909155610756565b506000610756565b606061075673ffffffffffffffffffffffffffffffffffffffff831660145b606060006131988360026141a5565b6131a3906002613feb565b67ffffffffffffffff8111156131bb576131bb613940565b6040519080825280601f01601f1916602001820160405280156131e5576020820181803683370190505b5090507f30000000000000000000000000000000000000000000000000000000000000008160008151811061321c5761321c613bdb565b60200101907effffffffffffffffffffffffffffffffffffffffffffffffffffffffffffff1916908160001a9053507f78000000000000000000000000000000000000000000000000000000000000008160018151811061327f5761327f613bdb565b60200101907effffffffffffffffffffffffffffffffffffffffffffffffffffffffffffff1916908160001a90535060006132bb8460026141a5565b6132c6906001613feb565b90505b6001811115613363577f303132333435363738396162636465660000000000000000000000000000000085600f166010811061330757613307613bdb565b1a60f81b82828151811061331d5761331d613bdb565b60200101907effffffffffffffffffffffffffffffffffffffffffffffffffffffffffffff1916908160001a90535060049490941c9361335c816141e2565b90506132c9565b508315612d56576040517f08c379a000000000000000000000000000000000000000000000000000000000815260206004820181905260248201527f537472696e67733a20686578206c656e67746820696e73756666696369656e7460448201526064016108ad565b828054828255906000526020600020908101928215613407579160200282015b828111156134075782518255916020019190600101906133ec565b50613413929150613417565b5090565b5b808211156134135760008155600101613418565b60006020828403121561343e57600080fd5b81357fffffffff0000000000000000000000000000000000000000000000000000000081168114612d5657600080fd5b60006020828403121561348057600080fd5b5035919050565b600081518084526020808501945080840160005b838110156134b75781518752958201959082019060010161349b565b509495945050505050565b602081526000612d566020830184613487565b803573ffffffffffffffffffffffffffffffffffffffff811681146134f957600080fd5b919050565b6000806040838503121561351157600080fd5b82359150613521602084016134d5565b90509250929050565b60006020828403121561353c57600080fd5b612d56826134d5565b6000602080830181845280855180835260408601915060408160051b870101925083870160005b828110156135b8577fffffffffffffffffffffffffffffffffffffffffffffffffffffffffffffffc08886030184526135a6858351613487565b9450928501929085019060010161356c565b5092979650505050505050565b60006101c08251845260208301516135f5602086018273ffffffffffffffffffffffffffffffffffffffff169052565b50604083015181604086015261360d82860182613487565b915050606083015184820360608601526136278282613487565b9150506080830151613651608086018273ffffffffffffffffffffffffffffffffffffffff169052565b5060a083015160a085015260c083015161368360c086018273ffffffffffffffffffffffffffffffffffffffff169052565b5060e083015184820360e086015261369b8282613487565b91505061010080840151858303828701526136b68382613487565b92505050610120808401516136e28287018273ffffffffffffffffffffffffffffffffffffffff169052565b50506101408381015190850152610160808401519085015261018080840151908501526101a09283015192909301919091525090565b6000602080830181845280855180835260408601915060408160051b870101925083870160005b828110156135b8577fffffffffffffffffffffffffffffffffffffffffffffffffffffffffffffffc08886030184526137798583516135c5565b9450928501929085019060010161373f565b602081526000612d5660208301846135c5565b600080600080606085870312156137b457600080fd5b6137bd856134d5565b9350602085013567ffffffffffffffff808211156137da57600080fd5b818701915087601f8301126137ee57600080fd5b8135818111156137fd57600080fd5b8860208260051b850101111561381257600080fd5b60208301955080945050505061382a604086016134d5565b905092959194509250565b6000806040838503121561384857600080fd5b50508035926020909101359150565b6000806040838503121561386a57600080fd5b613873836134d5565b9150613521602084016134d5565b806040810183101561075657600080fd5b6000806000806000806000610140888a0312156138ae57600080fd5b873596506138bf8960208a01613881565b9550606088013567ffffffffffffffff808211156138dc57600080fd5b6138e88b838c01613881565b965060808a01359150808211156138fe57600080fd5b5061390b8a828b01613881565b94505061391b8960a08a01613881565b925061392a8960e08a01613881565b9150610120880135905092959891949750929550565b7f4e487b7100000000000000000000000000000000000000000000000000000000600052604160045260246000fd5b604051601f82017fffffffffffffffffffffffffffffffffffffffffffffffffffffffffffffffe016810167ffffffffffffffff811182821017156139b6576139b6613940565b604052919050565b600082601f8301126139cf57600080fd5b8135602067ffffffffffffffff8211156139eb576139eb613940565b8160051b6139fa82820161396f565b9283528481018201928281019087851115613a1457600080fd5b83870192505b84831015613a3357823582529183019190830190613a1a565b979650505050505050565b600082601f830112613a4f57600080fd5b813567ffffffffffffffff811115613a6957613a69613940565b613a9a60207fffffffffffffffffffffffffffffffffffffffffffffffffffffffffffffffe0601f8401160161396f565b818152846020838601011115613aaf57600080fd5b816020850160208301376000918101602001919091529392505050565b600080600080600060a08688031215613ae457600080fd5b613aed866134d5565b9450613afb602087016134d5565b9350604086013567ffffffffffffffff80821115613b1857600080fd5b613b2489838a016139be565b94506060880135915080821115613b3a57600080fd5b613b4689838a016139be565b93506080880135915080821115613b5c57600080fd5b50613b6988828901613a3e565b9150509295509295909350565b600080600080600060a08688031215613b8e57600080fd5b613b97866134d5565b9450613ba5602087016134d5565b93506040860135925060608601359150608086013567ffffffffffffffff811115613bcf57600080fd5b613b6988828901613a3e565b7f4e487b7100000000000000000000000000000000000000000000000000000000600052603260045260246000fd5b6000815480845260208085019450836000528060002060005b838110156134b757815487529582019560019182019101613c23565b600073ffffffffffffffffffffffffffffffffffffffff808716835280861660208401525060a06040830152613c7860a0830185613c0a565b8281036060840152613c8a8185613c0a565b838103608090940193909352505060008152602001949350505050565b600060208284031215613cb957600080fd5b81518015158114612d5657600080fd5b73ffffffffffffffffffffffffffffffffffffffff84168152606060208201526000613cf86060830185613c0a565b8281036040840152613d0a8185613c0a565b9695505050505050565b7f4e487b7100000000000000000000000000000000000000000000000000000000600052601160045260246000fd5b60007fffffffffffffffffffffffffffffffffffffffffffffffffffffffffffffffff8203613d7457613d74613d14565b5060010190565b60006101c082548452613da5600184015473ffffffffffffffffffffffffffffffffffffffff1690565b73ffffffffffffffffffffffffffffffffffffffff16602085015260408401819052613dd681850160028501613c0a565b90508381036060850152613ded8160038501613c0a565b9050613e10600484015473ffffffffffffffffffffffffffffffffffffffff1690565b73ffffffffffffffffffffffffffffffffffffffff9081166080860152600584015460a086015260068401541660c085015283810360e0850152613e578160078501613c0a565b9050838103610100850152613e6f8160088501613c0a565b9050613e92600984015473ffffffffffffffffffffffffffffffffffffffff1690565b73ffffffffffffffffffffffffffffffffffffffff16610120850152600a830154610140850152600b830154610160850152600c830154610180850152600d909201546101a090930192909252919050565b604081526000613ef76040830185613d7b565b905073ffffffffffffffffffffffffffffffffffffffff831660208301529392505050565b600060208284031215613f2e57600080fd5b5051919050565b600073ffffffffffffffffffffffffffffffffffffffff808816835280871660208401525060a060408301528360a08301527f07ffffffffffffffffffffffffffffffffffffffffffffffffffffffffffffff841115613f9457600080fd5b8360051b808660c0850137820182810360c09081016060850152613fba90820185613487565b83810360809094019390935250506000815260200195945050505050565b8181038181111561075657610756613d14565b8082018082111561075657610756613d14565b602081526000612d566020830184613d7b565b60008083357fffffffffffffffffffffffffffffffffffffffffffffffffffffffffffffffe184360301811261404657600080fd5b83018035915067ffffffffffffffff82111561406157600080fd5b6020019150600581901b360382131561407957600080fd5b9250929050565b60005b8381101561409b578181015183820152602001614083565b50506000910152565b7f416363657373436f6e74726f6c3a206163636f756e74200000000000000000008152600083516140dc816017850160208801614080565b7f206973206d697373696e6720726f6c65200000000000000000000000000000006017918401918201528351614119816028840160208801614080565b01602801949350505050565b6020815260008251806020840152614144816040850160208701614080565b601f017fffffffffffffffffffffffffffffffffffffffffffffffffffffffffffffffe0169190910160400192915050565b7f4e487b7100000000000000000000000000000000000000000000000000000000600052603160045260246000fd5b6000817fffffffffffffffffffffffffffffffffffffffffffffffffffffffffffffffff04831182151516156141dd576141dd613d14565b500290565b6000816141f1576141f1613d14565b507fffffffffffffffffffffffffffffffffffffffffffffffffffffffffffffffff019056fea26469706673582212208e1e6a9fbb5ec5bf10e1143383d49ad0b87b1870b6e920f049f80b33ca421f1664736f6c63430008100033",
  "linkReferences": {},
  "deployedLinkReferences": {}
}