{
  "_format": "hh-sol-artifact-1",
  "contractName": "Game_Shop",
  "sourceName": "contracts/Shop/Game_Shop.sol",
  "abi": [
    {
      "inputs": [
        {
          "internalType": "address",
          "name": "_forwarder",
          "type": "address"
        },
        {
          "internalType": "bytes32",
          "name": "_systemId",
          "type": "bytes32"
        }
      ],
      "stateMutability": "nonpayable",
      "type": "constructor"
    },
    {
      "anonymous": false,
      "inputs": [
        {
          "indexed": true,
          "internalType": "uint256",
          "name": "offerId",
          "type": "uint256"
        },
        {
          "components": [
            {
              "internalType": "uint256",
              "name": "id",
              "type": "uint256"
            },
            {
              "internalType": "contract IERC1155",
              "name": "inputCollection",
              "type": "address"
            },
            {
              "internalType": "uint256[]",
              "name": "inputCollectionItemIds",
              "type": "uint256[]"
            },
            {
              "internalType": "uint256[]",
              "name": "inputCollectionItemAmounts",
              "type": "uint256[]"
            },
            {
              "internalType": "contract IERC20",
              "name": "inputCurrency",
              "type": "address"
            },
            {
              "internalType": "uint256",
              "name": "inputCurrencyAmount",
              "type": "uint256"
            },
            {
              "internalType": "contract IERC1155",
              "name": "outputCollection",
              "type": "address"
            },
            {
              "internalType": "uint256[]",
              "name": "outputCollectionItemIds",
              "type": "uint256[]"
            },
            {
              "internalType": "uint256[]",
              "name": "outputCollectionItemAmounts",
              "type": "uint256[]"
            },
            {
              "internalType": "contract IERC20",
              "name": "outputCurrency",
              "type": "address"
            },
            {
              "internalType": "uint256",
              "name": "outputCurrencyAmount",
              "type": "uint256"
            },
            {
              "internalType": "uint256",
              "name": "uses",
              "type": "uint256"
            },
            {
              "internalType": "uint256",
              "name": "maxUses",
              "type": "uint256"
            },
            {
              "internalType": "uint256",
              "name": "lastUpdatedAt",
              "type": "uint256"
            }
          ],
          "indexed": false,
          "internalType": "struct IGame_Shop.Offer",
          "name": "offer",
          "type": "tuple"
        }
      ],
      "name": "OfferRemoved",
      "type": "event"
    },
    {
      "anonymous": false,
      "inputs": [
        {
          "indexed": true,
          "internalType": "uint256",
          "name": "offerId",
          "type": "uint256"
        },
        {
          "components": [
            {
              "internalType": "uint256",
              "name": "id",
              "type": "uint256"
            },
            {
              "internalType": "contract IERC1155",
              "name": "inputCollection",
              "type": "address"
            },
            {
              "internalType": "uint256[]",
              "name": "inputCollectionItemIds",
              "type": "uint256[]"
            },
            {
              "internalType": "uint256[]",
              "name": "inputCollectionItemAmounts",
              "type": "uint256[]"
            },
            {
              "internalType": "contract IERC20",
              "name": "inputCurrency",
              "type": "address"
            },
            {
              "internalType": "uint256",
              "name": "inputCurrencyAmount",
              "type": "uint256"
            },
            {
              "internalType": "contract IERC1155",
              "name": "outputCollection",
              "type": "address"
            },
            {
              "internalType": "uint256[]",
              "name": "outputCollectionItemIds",
              "type": "uint256[]"
            },
            {
              "internalType": "uint256[]",
              "name": "outputCollectionItemAmounts",
              "type": "uint256[]"
            },
            {
              "internalType": "contract IERC20",
              "name": "outputCurrency",
              "type": "address"
            },
            {
              "internalType": "uint256",
              "name": "outputCurrencyAmount",
              "type": "uint256"
            },
            {
              "internalType": "uint256",
              "name": "uses",
              "type": "uint256"
            },
            {
              "internalType": "uint256",
              "name": "maxUses",
              "type": "uint256"
            },
            {
              "internalType": "uint256",
              "name": "lastUpdatedAt",
              "type": "uint256"
            }
          ],
          "indexed": false,
          "internalType": "struct IGame_Shop.Offer",
          "name": "offer",
          "type": "tuple"
        }
      ],
      "name": "OfferSet",
      "type": "event"
    },
    {
      "anonymous": false,
      "inputs": [
        {
          "indexed": true,
          "internalType": "uint256",
          "name": "offerId",
          "type": "uint256"
        },
        {
          "components": [
            {
              "internalType": "uint256",
              "name": "id",
              "type": "uint256"
            },
            {
              "internalType": "contract IERC1155",
              "name": "inputCollection",
              "type": "address"
            },
            {
              "internalType": "uint256[]",
              "name": "inputCollectionItemIds",
              "type": "uint256[]"
            },
            {
              "internalType": "uint256[]",
              "name": "inputCollectionItemAmounts",
              "type": "uint256[]"
            },
            {
              "internalType": "contract IERC20",
              "name": "inputCurrency",
              "type": "address"
            },
            {
              "internalType": "uint256",
              "name": "inputCurrencyAmount",
              "type": "uint256"
            },
            {
              "internalType": "contract IERC1155",
              "name": "outputCollection",
              "type": "address"
            },
            {
              "internalType": "uint256[]",
              "name": "outputCollectionItemIds",
              "type": "uint256[]"
            },
            {
              "internalType": "uint256[]",
              "name": "outputCollectionItemAmounts",
              "type": "uint256[]"
            },
            {
              "internalType": "contract IERC20",
              "name": "outputCurrency",
              "type": "address"
            },
            {
              "internalType": "uint256",
              "name": "outputCurrencyAmount",
              "type": "uint256"
            },
            {
              "internalType": "uint256",
              "name": "uses",
              "type": "uint256"
            },
            {
              "internalType": "uint256",
              "name": "maxUses",
              "type": "uint256"
            },
            {
              "internalType": "uint256",
              "name": "lastUpdatedAt",
              "type": "uint256"
            }
          ],
          "indexed": false,
          "internalType": "struct IGame_Shop.Offer",
          "name": "offer",
          "type": "tuple"
        },
        {
          "indexed": false,
          "internalType": "address",
          "name": "user",
          "type": "address"
        }
      ],
      "name": "OfferUsed",
      "type": "event"
    },
    {
      "anonymous": false,
      "inputs": [
        {
          "indexed": true,
          "internalType": "bytes32",
          "name": "role",
          "type": "bytes32"
        },
        {
          "indexed": true,
          "internalType": "bytes32",
          "name": "previousAdminRole",
          "type": "bytes32"
        },
        {
          "indexed": true,
          "internalType": "bytes32",
          "name": "newAdminRole",
          "type": "bytes32"
        }
      ],
      "name": "RoleAdminChanged",
      "type": "event"
    },
    {
      "anonymous": false,
      "inputs": [
        {
          "indexed": true,
          "internalType": "bytes32",
          "name": "role",
          "type": "bytes32"
        },
        {
          "indexed": true,
          "internalType": "address",
          "name": "account",
          "type": "address"
        },
        {
          "indexed": true,
          "internalType": "address",
          "name": "sender",
          "type": "address"
        }
      ],
      "name": "RoleGranted",
      "type": "event"
    },
    {
      "anonymous": false,
      "inputs": [
        {
          "indexed": true,
          "internalType": "bytes32",
          "name": "role",
          "type": "bytes32"
        },
        {
          "indexed": true,
          "internalType": "address",
          "name": "account",
          "type": "address"
        },
        {
          "indexed": true,
          "internalType": "address",
          "name": "sender",
          "type": "address"
        }
      ],
      "name": "RoleRevoked",
      "type": "event"
    },
    {
      "inputs": [],
      "name": "DEFAULT_ADMIN_ROLE",
      "outputs": [
        {
          "internalType": "bytes32",
          "name": "",
          "type": "bytes32"
        }
      ],
      "stateMutability": "view",
      "type": "function"
    },
    {
      "inputs": [],
      "name": "allOfferIds",
      "outputs": [
        {
          "internalType": "uint256[]",
          "name": "",
          "type": "uint256[]"
        }
      ],
      "stateMutability": "view",
      "type": "function"
    },
    {
      "inputs": [],
      "name": "allOfferLastUpdates",
      "outputs": [
        {
          "internalType": "uint256[][]",
          "name": "",
          "type": "uint256[][]"
        }
      ],
      "stateMutability": "view",
      "type": "function"
    },
    {
      "inputs": [],
      "name": "allOffers",
      "outputs": [
        {
          "components": [
            {
              "internalType": "uint256",
              "name": "id",
              "type": "uint256"
            },
            {
              "internalType": "contract IERC1155",
              "name": "inputCollection",
              "type": "address"
            },
            {
              "internalType": "uint256[]",
              "name": "inputCollectionItemIds",
              "type": "uint256[]"
            },
            {
              "internalType": "uint256[]",
              "name": "inputCollectionItemAmounts",
              "type": "uint256[]"
            },
            {
              "internalType": "contract IERC20",
              "name": "inputCurrency",
              "type": "address"
            },
            {
              "internalType": "uint256",
              "name": "inputCurrencyAmount",
              "type": "uint256"
            },
            {
              "internalType": "contract IERC1155",
              "name": "outputCollection",
              "type": "address"
            },
            {
              "internalType": "uint256[]",
              "name": "outputCollectionItemIds",
              "type": "uint256[]"
            },
            {
              "internalType": "uint256[]",
              "name": "outputCollectionItemAmounts",
              "type": "uint256[]"
            },
            {
              "internalType": "contract IERC20",
              "name": "outputCurrency",
              "type": "address"
            },
            {
              "internalType": "uint256",
              "name": "outputCurrencyAmount",
              "type": "uint256"
            },
            {
              "internalType": "uint256",
              "name": "uses",
              "type": "uint256"
            },
            {
              "internalType": "uint256",
              "name": "maxUses",
              "type": "uint256"
            },
            {
              "internalType": "uint256",
              "name": "lastUpdatedAt",
              "type": "uint256"
            }
          ],
          "internalType": "struct IGame_Shop.Offer[]",
          "name": "",
          "type": "tuple[]"
        }
      ],
      "stateMutability": "view",
      "type": "function"
    },
    {
      "inputs": [
        {
          "internalType": "bytes32",
          "name": "role",
          "type": "bytes32"
        }
      ],
      "name": "getRoleAdmin",
      "outputs": [
        {
          "internalType": "bytes32",
          "name": "",
          "type": "bytes32"
        }
      ],
      "stateMutability": "view",
      "type": "function"
    },
    {
      "inputs": [
        {
          "internalType": "bytes32",
          "name": "role",
          "type": "bytes32"
        },
        {
          "internalType": "address",
          "name": "account",
          "type": "address"
        }
      ],
      "name": "grantRole",
      "outputs": [],
      "stateMutability": "nonpayable",
      "type": "function"
    },
    {
      "inputs": [
        {
          "internalType": "bytes32",
          "name": "role",
          "type": "bytes32"
        },
        {
          "internalType": "address",
          "name": "account",
          "type": "address"
        }
      ],
      "name": "hasRole",
      "outputs": [
        {
          "internalType": "bool",
          "name": "",
          "type": "bool"
        }
      ],
      "stateMutability": "view",
      "type": "function"
    },
    {
      "inputs": [
        {
          "internalType": "address",
          "name": "forwarder",
          "type": "address"
        }
      ],
      "name": "isTrustedForwarder",
      "outputs": [
        {
          "internalType": "bool",
          "name": "",
          "type": "bool"
        }
      ],
      "stateMutability": "view",
      "type": "function"
    },
    {
      "inputs": [
        {
          "internalType": "uint256",
          "name": "_offerId",
          "type": "uint256"
        }
      ],
      "name": "offer",
      "outputs": [
        {
          "components": [
            {
              "internalType": "uint256",
              "name": "id",
              "type": "uint256"
            },
            {
              "internalType": "contract IERC1155",
              "name": "inputCollection",
              "type": "address"
            },
            {
              "internalType": "uint256[]",
              "name": "inputCollectionItemIds",
              "type": "uint256[]"
            },
            {
              "internalType": "uint256[]",
              "name": "inputCollectionItemAmounts",
              "type": "uint256[]"
            },
            {
              "internalType": "contract IERC20",
              "name": "inputCurrency",
              "type": "address"
            },
            {
              "internalType": "uint256",
              "name": "inputCurrencyAmount",
              "type": "uint256"
            },
            {
              "internalType": "contract IERC1155",
              "name": "outputCollection",
              "type": "address"
            },
            {
              "internalType": "uint256[]",
              "name": "outputCollectionItemIds",
              "type": "uint256[]"
            },
            {
              "internalType": "uint256[]",
              "name": "outputCollectionItemAmounts",
              "type": "uint256[]"
            },
            {
              "internalType": "contract IERC20",
              "name": "outputCurrency",
              "type": "address"
            },
            {
              "internalType": "uint256",
              "name": "outputCurrencyAmount",
              "type": "uint256"
            },
            {
              "internalType": "uint256",
              "name": "uses",
              "type": "uint256"
            },
            {
              "internalType": "uint256",
              "name": "maxUses",
              "type": "uint256"
            },
            {
              "internalType": "uint256",
              "name": "lastUpdatedAt",
              "type": "uint256"
            }
          ],
          "internalType": "struct IGame_Shop.Offer",
          "name": "",
          "type": "tuple"
        }
      ],
      "stateMutability": "view",
      "type": "function"
    },
    {
      "inputs": [
        {
          "internalType": "uint256",
          "name": "_index",
          "type": "uint256"
        }
      ],
      "name": "offerId",
      "outputs": [
        {
          "internalType": "uint256",
          "name": "",
          "type": "uint256"
        }
      ],
      "stateMutability": "view",
      "type": "function"
    },
    {
      "inputs": [
        {
          "internalType": "uint256",
          "name": "_offerId",
          "type": "uint256"
        }
      ],
      "name": "offerLastUpdate",
      "outputs": [
        {
          "internalType": "uint256[]",
          "name": "",
          "type": "uint256[]"
        }
      ],
      "stateMutability": "view",
      "type": "function"
    },
    {
      "inputs": [
        {
          "internalType": "address",
          "name": "",
          "type": "address"
        },
        {
          "internalType": "address",
          "name": "",
          "type": "address"
        },
        {
          "internalType": "uint256[]",
          "name": "",
          "type": "uint256[]"
        },
        {
          "internalType": "uint256[]",
          "name": "",
          "type": "uint256[]"
        },
        {
          "internalType": "bytes",
          "name": "",
          "type": "bytes"
        }
      ],
      "name": "onERC1155BatchReceived",
      "outputs": [
        {
          "internalType": "bytes4",
          "name": "",
          "type": "bytes4"
        }
      ],
      "stateMutability": "nonpayable",
      "type": "function"
    },
    {
      "inputs": [
        {
          "internalType": "address",
          "name": "",
          "type": "address"
        },
        {
          "internalType": "address",
          "name": "",
          "type": "address"
        },
        {
          "internalType": "uint256",
          "name": "",
          "type": "uint256"
        },
        {
          "internalType": "uint256",
          "name": "",
          "type": "uint256"
        },
        {
          "internalType": "bytes",
          "name": "",
          "type": "bytes"
        }
      ],
      "name": "onERC1155Received",
      "outputs": [
        {
          "internalType": "bytes4",
          "name": "",
          "type": "bytes4"
        }
      ],
      "stateMutability": "nonpayable",
      "type": "function"
    },
    {
      "inputs": [
        {
          "internalType": "uint256",
          "name": "_startIndexInclusive",
          "type": "uint256"
        },
        {
          "internalType": "uint256",
          "name": "_limit",
          "type": "uint256"
        }
      ],
      "name": "paginateOfferIds",
      "outputs": [
        {
          "internalType": "uint256[]",
          "name": "",
          "type": "uint256[]"
        }
      ],
      "stateMutability": "view",
      "type": "function"
    },
    {
      "inputs": [
        {
          "internalType": "uint256",
          "name": "_startIndexInclusive",
          "type": "uint256"
        },
        {
          "internalType": "uint256",
          "name": "_limit",
          "type": "uint256"
        }
      ],
      "name": "paginateOfferLastUpdates",
      "outputs": [
        {
          "internalType": "uint256[][]",
          "name": "",
          "type": "uint256[][]"
        }
      ],
      "stateMutability": "view",
      "type": "function"
    },
    {
      "inputs": [
        {
          "internalType": "uint256",
          "name": "_startIndexInclusive",
          "type": "uint256"
        },
        {
          "internalType": "uint256",
          "name": "_limit",
          "type": "uint256"
        }
      ],
      "name": "paginateOffers",
      "outputs": [
        {
          "components": [
            {
              "internalType": "uint256",
              "name": "id",
              "type": "uint256"
            },
            {
              "internalType": "contract IERC1155",
              "name": "inputCollection",
              "type": "address"
            },
            {
              "internalType": "uint256[]",
              "name": "inputCollectionItemIds",
              "type": "uint256[]"
            },
            {
              "internalType": "uint256[]",
              "name": "inputCollectionItemAmounts",
              "type": "uint256[]"
            },
            {
              "internalType": "contract IERC20",
              "name": "inputCurrency",
              "type": "address"
            },
            {
              "internalType": "uint256",
              "name": "inputCurrencyAmount",
              "type": "uint256"
            },
            {
              "internalType": "contract IERC1155",
              "name": "outputCollection",
              "type": "address"
            },
            {
              "internalType": "uint256[]",
              "name": "outputCollectionItemIds",
              "type": "uint256[]"
            },
            {
              "internalType": "uint256[]",
              "name": "outputCollectionItemAmounts",
              "type": "uint256[]"
            },
            {
              "internalType": "contract IERC20",
              "name": "outputCurrency",
              "type": "address"
            },
            {
              "internalType": "uint256",
              "name": "outputCurrencyAmount",
              "type": "uint256"
            },
            {
              "internalType": "uint256",
              "name": "uses",
              "type": "uint256"
            },
            {
              "internalType": "uint256",
              "name": "maxUses",
              "type": "uint256"
            },
            {
              "internalType": "uint256",
              "name": "lastUpdatedAt",
              "type": "uint256"
            }
          ],
          "internalType": "struct IGame_Shop.Offer[]",
          "name": "",
          "type": "tuple[]"
        }
      ],
      "stateMutability": "view",
      "type": "function"
    },
    {
      "inputs": [
        {
          "internalType": "uint256",
          "name": "_offerId",
          "type": "uint256"
        }
      ],
      "name": "removeOffer",
      "outputs": [],
      "stateMutability": "nonpayable",
      "type": "function"
    },
    {
      "inputs": [
        {
          "internalType": "bytes32",
          "name": "role",
          "type": "bytes32"
        },
        {
          "internalType": "address",
          "name": "account",
          "type": "address"
        }
      ],
      "name": "renounceRole",
      "outputs": [],
      "stateMutability": "nonpayable",
      "type": "function"
    },
    {
      "inputs": [
        {
          "internalType": "bytes32",
          "name": "role",
          "type": "bytes32"
        },
        {
          "internalType": "address",
          "name": "account",
          "type": "address"
        }
      ],
      "name": "revokeRole",
      "outputs": [],
      "stateMutability": "nonpayable",
      "type": "function"
    },
    {
      "inputs": [
        {
          "internalType": "uint256",
          "name": "_offerId",
          "type": "uint256"
        },
        {
          "internalType": "address[2]",
          "name": "_inputOutputCollections",
          "type": "address[2]"
        },
        {
          "internalType": "uint256[][2]",
          "name": "_inputOutputCollectionItemIds",
          "type": "uint256[][2]"
        },
        {
          "internalType": "uint256[][2]",
          "name": "_inputOutputCollectionItemAmounts",
          "type": "uint256[][2]"
        },
        {
          "internalType": "address[2]",
          "name": "_inputOutputCurrency",
          "type": "address[2]"
        },
        {
          "internalType": "uint256[2]",
          "name": "_inputOutputCurrencyAmounts",
          "type": "uint256[2]"
        },
        {
          "internalType": "uint256",
          "name": "_maxUses",
          "type": "uint256"
        }
      ],
      "name": "setOffer",
      "outputs": [],
      "stateMutability": "nonpayable",
      "type": "function"
    },
    {
      "inputs": [
        {
          "internalType": "bytes4",
          "name": "interfaceId",
          "type": "bytes4"
        }
      ],
      "name": "supportsInterface",
      "outputs": [
        {
          "internalType": "bool",
          "name": "",
          "type": "bool"
        }
      ],
      "stateMutability": "view",
      "type": "function"
    },
    {
      "inputs": [],
      "name": "systemId",
      "outputs": [
        {
          "internalType": "bytes32",
          "name": "",
          "type": "bytes32"
        }
      ],
      "stateMutability": "view",
      "type": "function"
    },
    {
      "inputs": [],
      "name": "totalOffers",
      "outputs": [
        {
          "internalType": "uint256",
          "name": "",
          "type": "uint256"
        }
      ],
      "stateMutability": "view",
      "type": "function"
    },
    {
      "inputs": [],
      "name": "trustedForwarder",
      "outputs": [
        {
          "internalType": "address",
          "name": "",
          "type": "address"
        }
      ],
      "stateMutability": "view",
      "type": "function"
    },
    {
      "inputs": [
        {
          "internalType": "address",
          "name": "_newTrustedForwarder",
          "type": "address"
        }
      ],
      "name": "upgradeTrustedForwarder",
      "outputs": [],
      "stateMutability": "nonpayable",
      "type": "function"
    },
    {
      "inputs": [
        {
          "internalType": "uint256",
          "name": "_offerId",
          "type": "uint256"
        }
      ],
      "name": "useOffer",
      "outputs": [],
      "stateMutability": "payable",
      "type": "function"
    },
    {
      "inputs": [
        {
          "internalType": "address",
          "name": "_currencyAddress",
          "type": "address"
        },
        {
          "internalType": "address",
          "name": "_to",
          "type": "address"
        }
      ],
      "name": "withdrawCurrencyTo",
      "outputs": [],
      "stateMutability": "nonpayable",
      "type": "function"
    },
    {
      "inputs": [
        {
          "internalType": "address",
          "name": "_collectionAddress",
          "type": "address"
        },
        {
          "internalType": "uint256[]",
          "name": "_itemIds",
          "type": "uint256[]"
        },
        {
          "internalType": "address",
          "name": "_to",
          "type": "address"
        }
      ],
      "name": "withdrawItemsTo",
      "outputs": [],
      "stateMutability": "nonpayable",
      "type": "function"
    },
    {
      "inputs": [
        {
          "internalType": "address",
          "name": "_to",
          "type": "address"
        }
      ],
      "name": "withdrawTo",
      "outputs": [],
      "stateMutability": "nonpayable",
      "type": "function"
    },
    {
      "stateMutability": "payable",
      "type": "receive"
    }
  ],
  "bytecode": "0x60806040523480156200001157600080fd5b5060405162004277380380620042778339810160408190526200003491620001af565b600080546001600160a01b0319166001600160a01b03841617815560018281556003556200006c9062000066620000a3565b620000bf565b6200009b7fc9fc9949603a50f5cc3a96f774f1d68287789a241d2082dc81d0fb19a53bcf2b62000066620000a3565b5050620001eb565b6000620000ba620000cf60201b620028511760201c565b905090565b620000cb828262000105565b5050565b600080546001600160a01b03163303620000f0575060131936013560601c90565b620000ba620001ab60201b620028a11760201c565b60008281526002602090815260408083206001600160a01b038516845290915290205460ff16620000cb5760008281526002602090815260408083206001600160a01b03851684529091529020805460ff1916600117905562000167620000a3565b6001600160a01b0316816001600160a01b0316837f2f8788117e7eff1d82e926ec794901d17c78024a50270940304540a733656f0d60405160405180910390a45050565b3390565b60008060408385031215620001c357600080fd5b82516001600160a01b0381168114620001db57600080fd5b6020939093015192949293505050565b61407c80620001fb6000396000f3fe6080604052600436106101c65760003560e01c80637da0a877116100f75780639c66b06311610095578063bc197c8111610064578063bc197c811461058e578063cdf1917414610604578063d547741f14610624578063f23a6e611461064457600080fd5b80639c66b06314610524578063a217fddf14610544578063a9fd8ed114610559578063aa2a7eea1461056e57600080fd5b806389fe7c3b116100d157806389fe7c3b146104715780638b8395021461049157806391d14854146104b157806395a0f9c71461050457600080fd5b80637da0a877146103df5780637f413af21461043157806382335ab01461045157600080fd5b8063500ceb4811610164578063687c08dd1161013e578063687c08dd1461035057806372b0d90c1461037257806374d3335314610392578063761610fc146103b257600080fd5b8063500ceb48146102dd57806351a30c65146102f2578063572b6c051461031457600080fd5b80632f2ff15d116101a05780632f2ff15d1461027257806336568abe1461029457806339f898bc146102b457806349fe0367146102ca57600080fd5b806301ffc9a7146101d25780631675187c14610207578063248a9ca31461023457600080fd5b366101cd57005b600080fd5b3480156101de57600080fd5b506101f26101ed36600461325b565b610689565b60405190151581526020015b60405180910390f35b34801561021357600080fd5b5061022761022236600461329d565b610731565b6040516101fe91906132f1565b34801561024057600080fd5b5061026461024f36600461329d565b60009081526002602052604090206001015490565b6040519081526020016101fe565b34801561027e57600080fd5b5061029261028d36600461332d565b6107b1565b005b3480156102a057600080fd5b506102926102af36600461332d565b6107db565b3480156102c057600080fd5b5061026460015481565b6102926102d836600461329d565b6108b0565b3480156102e957600080fd5b50610227610fc0565b3480156102fe57600080fd5b50610307610fd1565b6040516101fe9190613359565b34801561032057600080fd5b506101f261032f3660046133d9565b60005473ffffffffffffffffffffffffffffffffffffffff91821691161490565b34801561035c57600080fd5b50610365611081565b6040516101fe9190613547565b34801561037e57600080fd5b5061029261038d3660046133d9565b611416565b34801561039e57600080fd5b506102646103ad36600461329d565b611482565b3480156103be57600080fd5b506103d26103cd36600461329d565b611501565b6040516101fe91906135ba565b3480156103eb57600080fd5b5060005461040c9073ffffffffffffffffffffffffffffffffffffffff1681565b60405173ffffffffffffffffffffffffffffffffffffffff90911681526020016101fe565b34801561043d57600080fd5b5061029261044c3660046135cd565b611888565b34801561045d57600080fd5b5061036561046c366004613664565b611a93565b34801561047d57600080fd5b5061030761048c366004613664565b611e72565b34801561049d57600080fd5b506102926104ac366004613686565b611f54565b3480156104bd57600080fd5b506101f26104cc36600461332d565b600091825260026020908152604080842073ffffffffffffffffffffffffffffffffffffffff93909316845291905290205460ff1690565b34801561051057600080fd5b5061029261051f36600461329d565b6120b3565b34801561053057600080fd5b5061029261053f3660046136c1565b61213e565b34801561055057600080fd5b50610264600081565b34801561056557600080fd5b506102646126de565b34801561057a57600080fd5b506102926105893660046133d9565b6126ea565b34801561059a57600080fd5b506105d36105a93660046138fb565b7fbc197c810000000000000000000000000000000000000000000000000000000095945050505050565b6040517fffffffff0000000000000000000000000000000000000000000000000000000090911681526020016101fe565b34801561061057600080fd5b5061022761061f366004613664565b612758565b34801561063057600080fd5b5061029261063f36600461332d565b61282c565b34801561065057600080fd5b506105d361065f3660046139a5565b7ff23a6e610000000000000000000000000000000000000000000000000000000095945050505050565b60007fffffffff0000000000000000000000000000000000000000000000000000000082167fd4e8d13200000000000000000000000000000000000000000000000000000000148061071c57507fffffffff0000000000000000000000000000000000000000000000000000000082167f4e2312e000000000000000000000000000000000000000000000000000000000145b8061072b575061072b826128a5565b92915050565b60408051600280825260608083018452926000929190602083019080368337019050509050828160008151811061076a5761076a613a0a565b60200260200101818152505060066000848152602001908152602001600020600d0154816001815181106107a0576107a0613a0a565b602090810291909101015292915050565b6000828152600260205260409020600101546107cc816128fb565b6107d6838361290c565b505050565b6107e3612a01565b73ffffffffffffffffffffffffffffffffffffffff168173ffffffffffffffffffffffffffffffffffffffff16146108a2576040517f08c379a000000000000000000000000000000000000000000000000000000000815260206004820152602f60248201527f416363657373436f6e74726f6c3a2063616e206f6e6c792072656e6f756e636560448201527f20726f6c657320666f722073656c66000000000000000000000000000000000060648201526084015b60405180910390fd5b6108ac8282612a0b565b5050565b6108b8612afe565b6108c3600482612b71565b61094f576040517f08c379a000000000000000000000000000000000000000000000000000000000815260206004820152602b60248201527f6f66666572496420646f6573206e6f74206578697374206f722068617320626560448201527f656e2072656d6f7665642e0000000000000000000000000000000000000000006064820152608401610899565b6000818152600660205260409020600c8101541580610975575080600c015481600b0154105b6109db576040517f08c379a000000000000000000000000000000000000000000000000000000000815260206004820152601b60248201527f4f66666572206861732072656163686564206d617820757365732e00000000006044820152606401610899565b600181015473ffffffffffffffffffffffffffffffffffffffff1615610a7e57600181015473ffffffffffffffffffffffffffffffffffffffff16632eb2c2d6610a23612a01565b3084600201856003016040518563ffffffff1660e01b8152600401610a4b9493929190613a6e565b600060405180830381600087803b158015610a6557600080fd5b505af1158015610a79573d6000803e3d6000fd5b505050505b600581015415610be357600481015473ffffffffffffffffffffffffffffffffffffffff1615610b7557600481015473ffffffffffffffffffffffffffffffffffffffff166323b872dd610ad0612a01565b60058401546040517fffffffff0000000000000000000000000000000000000000000000000000000060e085901b16815273ffffffffffffffffffffffffffffffffffffffff909216600483015230602483015260448201526064016020604051808303816000875af1158015610b4b573d6000803e3d6000fd5b505050506040513d601f19601f82011682018060405250810190610b6f9190613ad6565b50610be3565b8060050154341015610be3576040517f08c379a000000000000000000000000000000000000000000000000000000000815260206004820152601660248201527f5061796d656e74206c657373207468616e20636f7374000000000000000000006044820152606401610899565b600681015473ffffffffffffffffffffffffffffffffffffffff1615610d36576006810154610c279073ffffffffffffffffffffffffffffffffffffffff16612b8c565b15610cb357600681015473ffffffffffffffffffffffffffffffffffffffff16806308f427c7610c55612a01565b84600701856008016040518463ffffffff1660e01b8152600401610c7b93929190613af8565b600060405180830381600087803b158015610c9557600080fd5b505af1158015610ca9573d6000803e3d6000fd5b5050505050610d36565b600681015473ffffffffffffffffffffffffffffffffffffffff16632eb2c2d630610cdc612a01565b84600701856008016040518563ffffffff1660e01b8152600401610d039493929190613a6e565b600060405180830381600087803b158015610d1d57600080fd5b505af1158015610d31573d6000803e3d6000fd5b505050505b600981015473ffffffffffffffffffffffffffffffffffffffff1615610efd576009810154610d7a9073ffffffffffffffffffffffffffffffffffffffff16612b8c565b15610e3657600981015473ffffffffffffffffffffffffffffffffffffffff16806340c10f19610da8612a01565b600a8501546040517fffffffff0000000000000000000000000000000000000000000000000000000060e085901b16815273ffffffffffffffffffffffffffffffffffffffff90921660048301526024820152604401600060405180830381600087803b158015610e1857600080fd5b505af1158015610e2c573d6000803e3d6000fd5b5050505050610f5a565b600981015473ffffffffffffffffffffffffffffffffffffffff1663a9059cbb610e5e612a01565b600a8401546040517fffffffff0000000000000000000000000000000000000000000000000000000060e085901b16815273ffffffffffffffffffffffffffffffffffffffff909216600483015260248201526044016020604051808303816000875af1158015610ed3573d6000803e3d6000fd5b505050506040513d601f19601f82011682018060405250810190610ef79190613ad6565b50610f5a565b600a81015415610f5a57610f0f612a01565b73ffffffffffffffffffffffffffffffffffffffff166108fc82600a01549081150290604051600060405180830381858888f19350505050158015610f58573d6000803e3d6000fd5b505b600b81018054906000610f6c83613b72565b9190505550817feab8772ecfad019c9f5c5cff325bd3316d0c456b3e53260ea5191feb57b2359182610f9c612a01565b604051610faa929190613d13565b60405180910390a250610fbd6001600355565b50565b6060610fcc6004612c45565b905090565b60606000610fdd6126de565b67ffffffffffffffff811115610ff557610ff561376f565b60405190808252806020026020018201604052801561102857816020015b60608152602001906001900390816110135790505b50905060005b6110366126de565b81101561107b5761104b610222600483612c52565b82828151811061105d5761105d613a0a565b6020026020010181905250808061107390613b72565b91505061102e565b50919050565b6060600061108d6126de565b67ffffffffffffffff8111156110a5576110a561376f565b6040519080825280602002602001820160405280156111a057816020015b61118d604051806101c0016040528060008152602001600073ffffffffffffffffffffffffffffffffffffffff1681526020016060815260200160608152602001600073ffffffffffffffffffffffffffffffffffffffff16815260200160008152602001600073ffffffffffffffffffffffffffffffffffffffff1681526020016060815260200160608152602001600073ffffffffffffffffffffffffffffffffffffffff168152602001600081526020016000815260200160008152602001600081525090565b8152602001906001900390816110c35790505b50905060005b6111ae6126de565b81101561107b57600660006111c4600484612c52565b8152602080820192909252604090810160002081516101c08101835281548152600182015473ffffffffffffffffffffffffffffffffffffffff168185015260028201805484518187028101870186528181529295939486019383018282801561124d57602002820191906000526020600020905b815481526020019060010190808311611239575b50505050508152602001600382018054806020026020016040519081016040528092919081815260200182805480156112a557602002820191906000526020600020905b815481526020019060010190808311611291575b5050509183525050600482015473ffffffffffffffffffffffffffffffffffffffff908116602080840191909152600584015460408085019190915260068501549092166060840152600784018054835181840281018401909452808452608090940193909183018282801561133a57602002820191906000526020600020905b815481526020019060010190808311611326575b505050505081526020016008820180548060200260200160405190810160405280929190818152602001828054801561139257602002820191906000526020600020905b81548152602001906001019080831161137e575b5050509183525050600982015473ffffffffffffffffffffffffffffffffffffffff166020820152600a8201546040820152600b8201546060820152600c8201546080820152600d9091015460a09091015282518390839081106113f8576113f8613a0a565b6020026020010181905250808061140e90613b72565b9150506111a6565b7fc9fc9949603a50f5cc3a96f774f1d68287789a241d2082dc81d0fb19a53bcf2b611440816128fb565b60405173ffffffffffffffffffffffffffffffffffffffff8316904780156108fc02916000818181858888f193505050501580156107d6573d6000803e3d6000fd5b600061148e6004612c5e565b82106114f6576040517f08c379a000000000000000000000000000000000000000000000000000000000815260206004820152601360248201527f496e646578206f7574206f6620626f756e6473000000000000000000000000006044820152606401610899565b61072b600483612c52565b6115cb604051806101c0016040528060008152602001600073ffffffffffffffffffffffffffffffffffffffff1681526020016060815260200160608152602001600073ffffffffffffffffffffffffffffffffffffffff16815260200160008152602001600073ffffffffffffffffffffffffffffffffffffffff1681526020016060815260200160608152602001600073ffffffffffffffffffffffffffffffffffffffff168152602001600081526020016000815260200160008152602001600081525090565b6115d6600483612b71565b611662576040517f08c379a000000000000000000000000000000000000000000000000000000000815260206004820152602b60248201527f6f66666572496420646f6573206e6f74206578697374206f722068617320626560448201527f656e2072656d6f7665642e0000000000000000000000000000000000000000006064820152608401610899565b60008281526006602090815260409182902082516101c08101845281548152600182015473ffffffffffffffffffffffffffffffffffffffff1681840152600282018054855181860281018601875281815292959394938601938301828280156116eb57602002820191906000526020600020905b8154815260200190600101908083116116d7575b505050505081526020016003820180548060200260200160405190810160405280929190818152602001828054801561174357602002820191906000526020600020905b81548152602001906001019080831161172f575b5050509183525050600482015473ffffffffffffffffffffffffffffffffffffffff90811660208084019190915260058401546040808501919091526006850154909216606084015260078401805483518184028101840190945280845260809094019390918301828280156117d857602002820191906000526020600020905b8154815260200190600101908083116117c4575b505050505081526020016008820180548060200260200160405190810160405280929190818152602001828054801561183057602002820191906000526020600020905b81548152602001906001019080831161181c575b5050509183525050600982015473ffffffffffffffffffffffffffffffffffffffff166020820152600a8201546040820152600b8201546060820152600c8201546080820152600d9091015460a09091015292915050565b7fc9fc9949603a50f5cc3a96f774f1d68287789a241d2082dc81d0fb19a53bcf2b6118b2816128fb565b8460008467ffffffffffffffff8111156118ce576118ce61376f565b6040519080825280602002602001820160405280156118f7578160200160208202803683370190505b50905060005b858110156119fd578273ffffffffffffffffffffffffffffffffffffffff1662fdd58e3089898581811061193357611933613a0a565b6040517fffffffff0000000000000000000000000000000000000000000000000000000060e087901b16815273ffffffffffffffffffffffffffffffffffffffff90941660048501526020029190910135602483015250604401602060405180830381865afa1580156119aa573d6000803e3d6000fd5b505050506040513d601f19601f820116820180604052508101906119ce9190613d4b565b8282815181106119e0576119e0613a0a565b6020908102919091010152806119f581613b72565b9150506118fd565b506040517f2eb2c2d600000000000000000000000000000000000000000000000000000000815273ffffffffffffffffffffffffffffffffffffffff831690632eb2c2d690611a5890309088908b908b908890600401613d64565b600060405180830381600087803b158015611a7257600080fd5b505af1158015611a86573d6000803e3d6000fd5b5050505050505050505050565b60606000611aa16004612c5e565b8410611aae576000611ac3565b83611ab96004612c5e565b611ac39190613e07565b9050600083821115611ad55783611ad7565b815b905060008167ffffffffffffffff811115611af457611af461376f565b604051908082528060200260200182016040528015611bef57816020015b611bdc604051806101c0016040528060008152602001600073ffffffffffffffffffffffffffffffffffffffff1681526020016060815260200160608152602001600073ffffffffffffffffffffffffffffffffffffffff16815260200160008152602001600073ffffffffffffffffffffffffffffffffffffffff1681526020016060815260200160608152602001600073ffffffffffffffffffffffffffffffffffffffff168152602001600081526020016000815260200160008152602001600081525090565b815260200190600190039081611b125790505b50905060005b82811015611e685760066000611c16611c0e848b613e1a565b600490612c52565b8152602080820192909252604090810160002081516101c08101835281548152600182015473ffffffffffffffffffffffffffffffffffffffff1681850152600282018054845181870281018701865281815292959394860193830182828015611c9f57602002820191906000526020600020905b815481526020019060010190808311611c8b575b5050505050815260200160038201805480602002602001604051908101604052809291908181526020018280548015611cf757602002820191906000526020600020905b815481526020019060010190808311611ce3575b5050509183525050600482015473ffffffffffffffffffffffffffffffffffffffff9081166020808401919091526005840154604080850191909152600685015490921660608401526007840180548351818402810184019094528084526080909401939091830182828015611d8c57602002820191906000526020600020905b815481526020019060010190808311611d78575b5050505050815260200160088201805480602002602001604051908101604052809291908181526020018280548015611de457602002820191906000526020600020905b815481526020019060010190808311611dd0575b5050509183525050600982015473ffffffffffffffffffffffffffffffffffffffff166020820152600a8201546040820152600b8201546060820152600c8201546080820152600d9091015460a0909101528251839083908110611e4a57611e4a613a0a565b60200260200101819052508080611e6090613b72565b915050611bf5565b5095945050505050565b60606000611e806004612c5e565b8410611e8d576000611ea2565b83611e986004612c5e565b611ea29190613e07565b9050600083821115611eb45783611eb6565b815b905060008167ffffffffffffffff811115611ed357611ed361376f565b604051908082528060200260200182016040528015611f0657816020015b6060815260200190600190039081611ef15790505b50905060005b82811015611e6857611f24610222611c0e838a613e1a565b828281518110611f3657611f36613a0a565b60200260200101819052508080611f4c90613b72565b915050611f0c565b7fc9fc9949603a50f5cc3a96f774f1d68287789a241d2082dc81d0fb19a53bcf2b611f7e816128fb565b6040517f70a08231000000000000000000000000000000000000000000000000000000008152306004820152839073ffffffffffffffffffffffffffffffffffffffff82169063a9059cbb90859083906370a0823190602401602060405180830381865afa158015611ff4573d6000803e3d6000fd5b505050506040513d601f19601f820116820180604052508101906120189190613d4b565b6040517fffffffff0000000000000000000000000000000000000000000000000000000060e085901b16815273ffffffffffffffffffffffffffffffffffffffff909216600483015260248201526044016020604051808303816000875af1158015612088573d6000803e3d6000fd5b505050506040513d601f19601f820116820180604052508101906120ac9190613ad6565b5050505050565b7fc9fc9949603a50f5cc3a96f774f1d68287789a241d2082dc81d0fb19a53bcf2b6120dd816128fb565b6120e8600483612c68565b5060008281526006602052604090819020905183907f6a1a138e164465aabd2f777a1616db53b1e03ebfc20e197765e62fa2b748600b9061212a908490613e2d565b60405180910390a26000600b909101555050565b7fc9fc9949603a50f5cc3a96f774f1d68287789a241d2082dc81d0fb19a53bcf2b612168816128fb565b6121728580613e40565b905061217e8780613e40565b90501461220d576040517f08c379a000000000000000000000000000000000000000000000000000000000815260206004820152602260248201527f496e707574206974656d7320616e6420616d6f756e7473206d69736d6174636860448201527f65640000000000000000000000000000000000000000000000000000000000006064820152608401610899565b61221a6020860186613e40565b90506122296020880188613e40565b9050146122b8576040517f08c379a000000000000000000000000000000000000000000000000000000000815260206004820152602360248201527f4f7574707574206974656d7320616e6420616d6f756e7473206d69736d61746360448201527f68656400000000000000000000000000000000000000000000000000000000006064820152608401610899565b6000604051806101c001604052808a8152602001896000600281106122df576122df613a0a565b6020020160208101906122f291906133d9565b73ffffffffffffffffffffffffffffffffffffffff1681526020016123178980613e40565b808060200260200160405190810160405280939291908181526020018383602002808284376000920191909152505050908252506020016123588880613e40565b8080602002602001604051908101604052809392919081815260200183836020028082843760009201919091525050509082525060209081019061239e908801886133d9565b73ffffffffffffffffffffffffffffffffffffffff168152853560208201526040018960016020020160208101906123d691906133d9565b73ffffffffffffffffffffffffffffffffffffffff168152602090810190612400908a018a613e40565b8080602002602001604051908101604052809392919081815260200183836020028082843760009201919091525050509082525060209081019061244690890189613e40565b8080602002602001604051908101604052809392919081815260200183836020028082843760009201919091525050509082525060209081019061249090604089019089016133d9565b73ffffffffffffffffffffffffffffffffffffffff1681526020868101358183015260008c81526006909152604090819020600b015490820152606081018590524260809091015290506124e560048a612c74565b5060008981526006602090815260409182902083518155838201516001820180547fffffffffffffffffffffffff00000000000000000000000000000000000000001673ffffffffffffffffffffffffffffffffffffffff9092169190911790559183015180518493926125609260028501929101906131fb565b506060820151805161257c9160038401916020909101906131fb565b50608082015160048201805473ffffffffffffffffffffffffffffffffffffffff9283167fffffffffffffffffffffffff00000000000000000000000000000000000000009182161790915560a0840151600584015560c084015160068401805491909316911617905560e082015180516126019160078401916020909101906131fb565b50610100820151805161261e9160088401916020909101906131fb565b506101208201516009820180547fffffffffffffffffffffffff00000000000000000000000000000000000000001673ffffffffffffffffffffffffffffffffffffffff909216919091179055610140820151600a820155610160820151600b820155610180820151600c8201556101a090910151600d9091015560405189907ffcb9e66873133101ffdf745da3859e2b3736909576d4d11d6982e3e0e19d9754906126cb9084906135ba565b60405180910390a2505050505050505050565b6000610fcc6004612c5e565b7fc9fc9949603a50f5cc3a96f774f1d68287789a241d2082dc81d0fb19a53bcf2b612714816128fb565b600080547fffffffffffffffffffffffff00000000000000000000000000000000000000001673ffffffffffffffffffffffffffffffffffffffff84161790555050565b606060006127666004612c5e565b8410612773576000612788565b8361277e6004612c5e565b6127889190613e07565b905060008382111561279a578361279c565b815b905060008167ffffffffffffffff8111156127b9576127b961376f565b6040519080825280602002602001820160405280156127e2578160200160208202803683370190505b50905060005b82811015611e68576127fd611c0e8289613e1a565b82828151811061280f5761280f613a0a565b60209081029190910101528061282481613b72565b9150506127e8565b600082815260026020526040902060010154612847816128fb565b6107d68383612a0b565b6000805473ffffffffffffffffffffffffffffffffffffffff16330361289c57507fffffffffffffffffffffffffffffffffffffffffffffffffffffffffffffffec36013560601c90565b503390565b3390565b60007fffffffff0000000000000000000000000000000000000000000000000000000082167f4e2312e000000000000000000000000000000000000000000000000000000000148061072b575061072b82612c80565b610fbd81612907612a01565b612d17565b600082815260026020908152604080832073ffffffffffffffffffffffffffffffffffffffff8516845290915290205460ff166108ac57600082815260026020908152604080832073ffffffffffffffffffffffffffffffffffffffff85168452909152902080547fffffffffffffffffffffffffffffffffffffffffffffffffffffffffffffff001660011790556129a3612a01565b73ffffffffffffffffffffffffffffffffffffffff168173ffffffffffffffffffffffffffffffffffffffff16837f2f8788117e7eff1d82e926ec794901d17c78024a50270940304540a733656f0d60405160405180910390a45050565b6000610fcc612851565b600082815260026020908152604080832073ffffffffffffffffffffffffffffffffffffffff8516845290915290205460ff16156108ac57600082815260026020908152604080832073ffffffffffffffffffffffffffffffffffffffff85168452909152902080547fffffffffffffffffffffffffffffffffffffffffffffffffffffffffffffff00169055612aa0612a01565b73ffffffffffffffffffffffffffffffffffffffff168173ffffffffffffffffffffffffffffffffffffffff16837ff6391f5c32d9c69d2a47ea670b442974b53935d1edc7fd64eb21e047a839171b60405160405180910390a45050565b600260035403612b6a576040517f08c379a000000000000000000000000000000000000000000000000000000000815260206004820152601f60248201527f5265656e7472616e637947756172643a207265656e7472616e742063616c6c006044820152606401610899565b6002600355565b600081815260018301602052604081205415155b9392505050565b6040517f91d148540000000000000000000000000000000000000000000000000000000081527fc9eb32e43bf5ecbceacf00b32281dfc5d6d700a0db676ea26ccf938a385ac3f76004820152306024820152600090829073ffffffffffffffffffffffffffffffffffffffff8216906391d1485490604401602060405180830381865afa158015612c21573d6000803e3d6000fd5b505050506040513d601f19601f82011682018060405250810190612b859190613ad6565b60606000612b8583612dd1565b6000612b858383612e2d565b600061072b825490565b6000612b858383612e57565b6000612b858383612f4a565b60007fffffffff0000000000000000000000000000000000000000000000000000000082167f7965db0b00000000000000000000000000000000000000000000000000000000148061072b57507f01ffc9a7000000000000000000000000000000000000000000000000000000007fffffffff0000000000000000000000000000000000000000000000000000000083161461072b565b600082815260026020908152604080832073ffffffffffffffffffffffffffffffffffffffff8516845290915290205460ff166108ac57612d5781612f99565b612d62836020612fb8565b604051602001612d73929190613ed3565b604080517fffffffffffffffffffffffffffffffffffffffffffffffffffffffffffffffe0818403018152908290527f08c379a000000000000000000000000000000000000000000000000000000000825261089991600401613f54565b606081600001805480602002602001604051908101604052809291908181526020018280548015612e2157602002820191906000526020600020905b815481526020019060010190808311612e0d575b50505050509050919050565b6000826000018281548110612e4457612e44613a0a565b9060005260206000200154905092915050565b60008181526001830160205260408120548015612f40576000612e7b600183613e07565b8554909150600090612e8f90600190613e07565b9050818114612ef4576000866000018281548110612eaf57612eaf613a0a565b9060005260206000200154905080876000018481548110612ed257612ed2613a0a565b6000918252602080832090910192909255918252600188019052604090208390555b8554869080612f0557612f05613fa5565b60019003818190600052602060002001600090559055856001016000868152602001908152602001600020600090556001935050505061072b565b600091505061072b565b6000818152600183016020526040812054612f915750815460018181018455600084815260208082209093018490558454848252828601909352604090209190915561072b565b50600061072b565b606061072b73ffffffffffffffffffffffffffffffffffffffff831660145b60606000612fc7836002613fd4565b612fd2906002613e1a565b67ffffffffffffffff811115612fea57612fea61376f565b6040519080825280601f01601f191660200182016040528015613014576020820181803683370190505b5090507f30000000000000000000000000000000000000000000000000000000000000008160008151811061304b5761304b613a0a565b60200101907effffffffffffffffffffffffffffffffffffffffffffffffffffffffffffff1916908160001a9053507f7800000000000000000000000000000000000000000000000000000000000000816001815181106130ae576130ae613a0a565b60200101907effffffffffffffffffffffffffffffffffffffffffffffffffffffffffffff1916908160001a90535060006130ea846002613fd4565b6130f5906001613e1a565b90505b6001811115613192577f303132333435363738396162636465660000000000000000000000000000000085600f166010811061313657613136613a0a565b1a60f81b82828151811061314c5761314c613a0a565b60200101907effffffffffffffffffffffffffffffffffffffffffffffffffffffffffffff1916908160001a90535060049490941c9361318b81614011565b90506130f8565b508315612b85576040517f08c379a000000000000000000000000000000000000000000000000000000000815260206004820181905260248201527f537472696e67733a20686578206c656e67746820696e73756666696369656e746044820152606401610899565b828054828255906000526020600020908101928215613236579160200282015b8281111561323657825182559160200191906001019061321b565b50613242929150613246565b5090565b5b808211156132425760008155600101613247565b60006020828403121561326d57600080fd5b81357fffffffff0000000000000000000000000000000000000000000000000000000081168114612b8557600080fd5b6000602082840312156132af57600080fd5b5035919050565b600081518084526020808501945080840160005b838110156132e6578151875295820195908201906001016132ca565b509495945050505050565b602081526000612b8560208301846132b6565b803573ffffffffffffffffffffffffffffffffffffffff8116811461332857600080fd5b919050565b6000806040838503121561334057600080fd5b8235915061335060208401613304565b90509250929050565b6000602080830181845280855180835260408601915060408160051b870101925083870160005b828110156133cc577fffffffffffffffffffffffffffffffffffffffffffffffffffffffffffffffc08886030184526133ba8583516132b6565b94509285019290850190600101613380565b5092979650505050505050565b6000602082840312156133eb57600080fd5b612b8582613304565b60006101c0825184526020830151613424602086018273ffffffffffffffffffffffffffffffffffffffff169052565b50604083015181604086015261343c828601826132b6565b9150506060830151848203606086015261345682826132b6565b9150506080830151613480608086018273ffffffffffffffffffffffffffffffffffffffff169052565b5060a083015160a085015260c08301516134b260c086018273ffffffffffffffffffffffffffffffffffffffff169052565b5060e083015184820360e08601526134ca82826132b6565b91505061010080840151858303828701526134e583826132b6565b92505050610120808401516135118287018273ffffffffffffffffffffffffffffffffffffffff169052565b50506101408381015190850152610160808401519085015261018080840151908501526101a09283015192909301919091525090565b6000602080830181845280855180835260408601915060408160051b870101925083870160005b828110156133cc577fffffffffffffffffffffffffffffffffffffffffffffffffffffffffffffffc08886030184526135a88583516133f4565b9450928501929085019060010161356e565b602081526000612b8560208301846133f4565b600080600080606085870312156135e357600080fd5b6135ec85613304565b9350602085013567ffffffffffffffff8082111561360957600080fd5b818701915087601f83011261361d57600080fd5b81358181111561362c57600080fd5b8860208260051b850101111561364157600080fd5b60208301955080945050505061365960408601613304565b905092959194509250565b6000806040838503121561367757600080fd5b50508035926020909101359150565b6000806040838503121561369957600080fd5b6136a283613304565b915061335060208401613304565b806040810183101561072b57600080fd5b6000806000806000806000610140888a0312156136dd57600080fd5b873596506136ee8960208a016136b0565b9550606088013567ffffffffffffffff8082111561370b57600080fd5b6137178b838c016136b0565b965060808a013591508082111561372d57600080fd5b5061373a8a828b016136b0565b94505061374a8960a08a016136b0565b92506137598960e08a016136b0565b9150610120880135905092959891949750929550565b7f4e487b7100000000000000000000000000000000000000000000000000000000600052604160045260246000fd5b604051601f82017fffffffffffffffffffffffffffffffffffffffffffffffffffffffffffffffe016810167ffffffffffffffff811182821017156137e5576137e561376f565b604052919050565b600082601f8301126137fe57600080fd5b8135602067ffffffffffffffff82111561381a5761381a61376f565b8160051b61382982820161379e565b928352848101820192828101908785111561384357600080fd5b83870192505b8483101561386257823582529183019190830190613849565b979650505050505050565b600082601f83011261387e57600080fd5b813567ffffffffffffffff8111156138985761389861376f565b6138c960207fffffffffffffffffffffffffffffffffffffffffffffffffffffffffffffffe0601f8401160161379e565b8181528460208386010111156138de57600080fd5b816020850160208301376000918101602001919091529392505050565b600080600080600060a0868803121561391357600080fd5b61391c86613304565b945061392a60208701613304565b9350604086013567ffffffffffffffff8082111561394757600080fd5b61395389838a016137ed565b9450606088013591508082111561396957600080fd5b61397589838a016137ed565b9350608088013591508082111561398b57600080fd5b506139988882890161386d565b9150509295509295909350565b600080600080600060a086880312156139bd57600080fd5b6139c686613304565b94506139d460208701613304565b93506040860135925060608601359150608086013567ffffffffffffffff8111156139fe57600080fd5b6139988882890161386d565b7f4e487b7100000000000000000000000000000000000000000000000000000000600052603260045260246000fd5b6000815480845260208085019450836000528060002060005b838110156132e657815487529582019560019182019101613a52565b600073ffffffffffffffffffffffffffffffffffffffff808716835280861660208401525060a06040830152613aa760a0830185613a39565b8281036060840152613ab98185613a39565b838103608090940193909352505060008152602001949350505050565b600060208284031215613ae857600080fd5b81518015158114612b8557600080fd5b73ffffffffffffffffffffffffffffffffffffffff84168152606060208201526000613b276060830185613a39565b8281036040840152613b398185613a39565b9695505050505050565b7f4e487b7100000000000000000000000000000000000000000000000000000000600052601160045260246000fd5b60007fffffffffffffffffffffffffffffffffffffffffffffffffffffffffffffffff8203613ba357613ba3613b43565b5060010190565b60006101c082548452613bd4600184015473ffffffffffffffffffffffffffffffffffffffff1690565b73ffffffffffffffffffffffffffffffffffffffff16602085015260408401819052613c0581850160028501613a39565b90508381036060850152613c1c8160038501613a39565b9050613c3f600484015473ffffffffffffffffffffffffffffffffffffffff1690565b73ffffffffffffffffffffffffffffffffffffffff9081166080860152600584015460a086015260068401541660c085015283810360e0850152613c868160078501613a39565b9050838103610100850152613c9e8160088501613a39565b9050613cc1600984015473ffffffffffffffffffffffffffffffffffffffff1690565b73ffffffffffffffffffffffffffffffffffffffff16610120850152600a830154610140850152600b830154610160850152600c830154610180850152600d909201546101a090930192909252919050565b604081526000613d266040830185613baa565b905073ffffffffffffffffffffffffffffffffffffffff831660208301529392505050565b600060208284031215613d5d57600080fd5b5051919050565b600073ffffffffffffffffffffffffffffffffffffffff808816835280871660208401525060a060408301528360a08301527f07ffffffffffffffffffffffffffffffffffffffffffffffffffffffffffffff841115613dc357600080fd5b8360051b808660c0850137820182810360c09081016060850152613de9908201856132b6565b83810360809094019390935250506000815260200195945050505050565b8181038181111561072b5761072b613b43565b8082018082111561072b5761072b613b43565b602081526000612b856020830184613baa565b60008083357fffffffffffffffffffffffffffffffffffffffffffffffffffffffffffffffe1843603018112613e7557600080fd5b83018035915067ffffffffffffffff821115613e9057600080fd5b6020019150600581901b3603821315613ea857600080fd5b9250929050565b60005b83811015613eca578181015183820152602001613eb2565b50506000910152565b7f416363657373436f6e74726f6c3a206163636f756e7420000000000000000000815260008351613f0b816017850160208801613eaf565b7f206973206d697373696e6720726f6c65200000000000000000000000000000006017918401918201528351613f48816028840160208801613eaf565b01602801949350505050565b6020815260008251806020840152613f73816040850160208701613eaf565b601f017fffffffffffffffffffffffffffffffffffffffffffffffffffffffffffffffe0169190910160400192915050565b7f4e487b7100000000000000000000000000000000000000000000000000000000600052603160045260246000fd5b6000817fffffffffffffffffffffffffffffffffffffffffffffffffffffffffffffffff048311821515161561400c5761400c613b43565b500290565b60008161402057614020613b43565b507fffffffffffffffffffffffffffffffffffffffffffffffffffffffffffffffff019056fea2646970667358221220df68fde13bb7178123c425607e31ec1e78a680c902633edd39d66cb46e63c87e64736f6c63430008100033",
  "linkReferences": {},
  "deployedLinkReferences": {}
}