{
  "_format": "hh-sol-artifact-1",
  "contractName": "Game_Shop",
  "sourceName": "contracts/Shop/Game_Shop.sol",
  "abi": [
    {
      "inputs": [
        {
          "internalType": "address",
          "name": "_forwarder",
          "type": "address"
        },
        {
          "internalType": "bytes32",
          "name": "_systemId",
          "type": "bytes32"
        }
      ],
      "stateMutability": "nonpayable",
      "type": "constructor"
    },
    {
      "anonymous": false,
      "inputs": [
        {
          "indexed": true,
          "internalType": "uint256",
          "name": "offerId",
          "type": "uint256"
        },
        {
          "components": [
            {
              "internalType": "uint256",
              "name": "id",
              "type": "uint256"
            },
            {
              "internalType": "contract IERC1155",
              "name": "inputCollection",
              "type": "address"
            },
            {
              "internalType": "uint256[]",
              "name": "inputCollectionItemIds",
              "type": "uint256[]"
            },
            {
              "internalType": "uint256[]",
              "name": "inputCollectionItemAmounts",
              "type": "uint256[]"
            },
            {
              "internalType": "contract IERC20",
              "name": "inputCurrency",
              "type": "address"
            },
            {
              "internalType": "uint256",
              "name": "inputCurrencyAmount",
              "type": "uint256"
            },
            {
              "internalType": "contract IERC1155",
              "name": "outputCollection",
              "type": "address"
            },
            {
              "internalType": "uint256[]",
              "name": "outputCollectionItemIds",
              "type": "uint256[]"
            },
            {
              "internalType": "uint256[]",
              "name": "outputCollectionItemAmounts",
              "type": "uint256[]"
            },
            {
              "internalType": "contract IERC20",
              "name": "outputCurrency",
              "type": "address"
            },
            {
              "internalType": "uint256",
              "name": "outputCurrencyAmount",
              "type": "uint256"
            },
            {
              "internalType": "uint256",
              "name": "uses",
              "type": "uint256"
            },
            {
              "internalType": "uint256",
              "name": "maxUses",
              "type": "uint256"
            },
            {
              "internalType": "uint256",
              "name": "lastUpdatedAt",
              "type": "uint256"
            }
          ],
          "indexed": false,
          "internalType": "struct IGame_Shop.Offer",
          "name": "offer",
          "type": "tuple"
        }
      ],
      "name": "OfferRemoved",
      "type": "event"
    },
    {
      "anonymous": false,
      "inputs": [
        {
          "indexed": true,
          "internalType": "uint256",
          "name": "offerId",
          "type": "uint256"
        },
        {
          "components": [
            {
              "internalType": "uint256",
              "name": "id",
              "type": "uint256"
            },
            {
              "internalType": "contract IERC1155",
              "name": "inputCollection",
              "type": "address"
            },
            {
              "internalType": "uint256[]",
              "name": "inputCollectionItemIds",
              "type": "uint256[]"
            },
            {
              "internalType": "uint256[]",
              "name": "inputCollectionItemAmounts",
              "type": "uint256[]"
            },
            {
              "internalType": "contract IERC20",
              "name": "inputCurrency",
              "type": "address"
            },
            {
              "internalType": "uint256",
              "name": "inputCurrencyAmount",
              "type": "uint256"
            },
            {
              "internalType": "contract IERC1155",
              "name": "outputCollection",
              "type": "address"
            },
            {
              "internalType": "uint256[]",
              "name": "outputCollectionItemIds",
              "type": "uint256[]"
            },
            {
              "internalType": "uint256[]",
              "name": "outputCollectionItemAmounts",
              "type": "uint256[]"
            },
            {
              "internalType": "contract IERC20",
              "name": "outputCurrency",
              "type": "address"
            },
            {
              "internalType": "uint256",
              "name": "outputCurrencyAmount",
              "type": "uint256"
            },
            {
              "internalType": "uint256",
              "name": "uses",
              "type": "uint256"
            },
            {
              "internalType": "uint256",
              "name": "maxUses",
              "type": "uint256"
            },
            {
              "internalType": "uint256",
              "name": "lastUpdatedAt",
              "type": "uint256"
            }
          ],
          "indexed": false,
          "internalType": "struct IGame_Shop.Offer",
          "name": "offer",
          "type": "tuple"
        }
      ],
      "name": "OfferSet",
      "type": "event"
    },
    {
      "anonymous": false,
      "inputs": [
        {
          "indexed": true,
          "internalType": "uint256",
          "name": "offerId",
          "type": "uint256"
        },
        {
          "components": [
            {
              "internalType": "uint256",
              "name": "id",
              "type": "uint256"
            },
            {
              "internalType": "contract IERC1155",
              "name": "inputCollection",
              "type": "address"
            },
            {
              "internalType": "uint256[]",
              "name": "inputCollectionItemIds",
              "type": "uint256[]"
            },
            {
              "internalType": "uint256[]",
              "name": "inputCollectionItemAmounts",
              "type": "uint256[]"
            },
            {
              "internalType": "contract IERC20",
              "name": "inputCurrency",
              "type": "address"
            },
            {
              "internalType": "uint256",
              "name": "inputCurrencyAmount",
              "type": "uint256"
            },
            {
              "internalType": "contract IERC1155",
              "name": "outputCollection",
              "type": "address"
            },
            {
              "internalType": "uint256[]",
              "name": "outputCollectionItemIds",
              "type": "uint256[]"
            },
            {
              "internalType": "uint256[]",
              "name": "outputCollectionItemAmounts",
              "type": "uint256[]"
            },
            {
              "internalType": "contract IERC20",
              "name": "outputCurrency",
              "type": "address"
            },
            {
              "internalType": "uint256",
              "name": "outputCurrencyAmount",
              "type": "uint256"
            },
            {
              "internalType": "uint256",
              "name": "uses",
              "type": "uint256"
            },
            {
              "internalType": "uint256",
              "name": "maxUses",
              "type": "uint256"
            },
            {
              "internalType": "uint256",
              "name": "lastUpdatedAt",
              "type": "uint256"
            }
          ],
          "indexed": false,
          "internalType": "struct IGame_Shop.Offer",
          "name": "offer",
          "type": "tuple"
        },
        {
          "indexed": false,
          "internalType": "address",
          "name": "user",
          "type": "address"
        }
      ],
      "name": "OfferUsed",
      "type": "event"
    },
    {
      "anonymous": false,
      "inputs": [
        {
          "indexed": true,
          "internalType": "bytes32",
          "name": "role",
          "type": "bytes32"
        },
        {
          "indexed": true,
          "internalType": "bytes32",
          "name": "previousAdminRole",
          "type": "bytes32"
        },
        {
          "indexed": true,
          "internalType": "bytes32",
          "name": "newAdminRole",
          "type": "bytes32"
        }
      ],
      "name": "RoleAdminChanged",
      "type": "event"
    },
    {
      "anonymous": false,
      "inputs": [
        {
          "indexed": true,
          "internalType": "bytes32",
          "name": "role",
          "type": "bytes32"
        },
        {
          "indexed": true,
          "internalType": "address",
          "name": "account",
          "type": "address"
        },
        {
          "indexed": true,
          "internalType": "address",
          "name": "sender",
          "type": "address"
        }
      ],
      "name": "RoleGranted",
      "type": "event"
    },
    {
      "anonymous": false,
      "inputs": [
        {
          "indexed": true,
          "internalType": "bytes32",
          "name": "role",
          "type": "bytes32"
        },
        {
          "indexed": true,
          "internalType": "address",
          "name": "account",
          "type": "address"
        },
        {
          "indexed": true,
          "internalType": "address",
          "name": "sender",
          "type": "address"
        }
      ],
      "name": "RoleRevoked",
      "type": "event"
    },
    {
      "inputs": [],
      "name": "DEFAULT_ADMIN_ROLE",
      "outputs": [
        {
          "internalType": "bytes32",
          "name": "",
          "type": "bytes32"
        }
      ],
      "stateMutability": "view",
      "type": "function"
    },
    {
      "inputs": [],
      "name": "allOfferIds",
      "outputs": [
        {
          "internalType": "uint256[]",
          "name": "",
          "type": "uint256[]"
        }
      ],
      "stateMutability": "view",
      "type": "function"
    },
    {
      "inputs": [],
      "name": "allOfferLastUpdates",
      "outputs": [
        {
          "internalType": "uint256[][]",
          "name": "",
          "type": "uint256[][]"
        }
      ],
      "stateMutability": "view",
      "type": "function"
    },
    {
      "inputs": [],
      "name": "allOffers",
      "outputs": [
        {
          "components": [
            {
              "internalType": "uint256",
              "name": "id",
              "type": "uint256"
            },
            {
              "internalType": "contract IERC1155",
              "name": "inputCollection",
              "type": "address"
            },
            {
              "internalType": "uint256[]",
              "name": "inputCollectionItemIds",
              "type": "uint256[]"
            },
            {
              "internalType": "uint256[]",
              "name": "inputCollectionItemAmounts",
              "type": "uint256[]"
            },
            {
              "internalType": "contract IERC20",
              "name": "inputCurrency",
              "type": "address"
            },
            {
              "internalType": "uint256",
              "name": "inputCurrencyAmount",
              "type": "uint256"
            },
            {
              "internalType": "contract IERC1155",
              "name": "outputCollection",
              "type": "address"
            },
            {
              "internalType": "uint256[]",
              "name": "outputCollectionItemIds",
              "type": "uint256[]"
            },
            {
              "internalType": "uint256[]",
              "name": "outputCollectionItemAmounts",
              "type": "uint256[]"
            },
            {
              "internalType": "contract IERC20",
              "name": "outputCurrency",
              "type": "address"
            },
            {
              "internalType": "uint256",
              "name": "outputCurrencyAmount",
              "type": "uint256"
            },
            {
              "internalType": "uint256",
              "name": "uses",
              "type": "uint256"
            },
            {
              "internalType": "uint256",
              "name": "maxUses",
              "type": "uint256"
            },
            {
              "internalType": "uint256",
              "name": "lastUpdatedAt",
              "type": "uint256"
            }
          ],
          "internalType": "struct IGame_Shop.Offer[]",
          "name": "",
          "type": "tuple[]"
        }
      ],
      "stateMutability": "view",
      "type": "function"
    },
    {
      "inputs": [
        {
          "internalType": "bytes32",
          "name": "role",
          "type": "bytes32"
        }
      ],
      "name": "getRoleAdmin",
      "outputs": [
        {
          "internalType": "bytes32",
          "name": "",
          "type": "bytes32"
        }
      ],
      "stateMutability": "view",
      "type": "function"
    },
    {
      "inputs": [
        {
          "internalType": "bytes32",
          "name": "role",
          "type": "bytes32"
        },
        {
          "internalType": "address",
          "name": "account",
          "type": "address"
        }
      ],
      "name": "grantRole",
      "outputs": [],
      "stateMutability": "nonpayable",
      "type": "function"
    },
    {
      "inputs": [
        {
          "internalType": "bytes32",
          "name": "role",
          "type": "bytes32"
        },
        {
          "internalType": "address",
          "name": "account",
          "type": "address"
        }
      ],
      "name": "hasRole",
      "outputs": [
        {
          "internalType": "bool",
          "name": "",
          "type": "bool"
        }
      ],
      "stateMutability": "view",
      "type": "function"
    },
    {
      "inputs": [
        {
          "internalType": "address",
          "name": "forwarder",
          "type": "address"
        }
      ],
      "name": "isTrustedForwarder",
      "outputs": [
        {
          "internalType": "bool",
          "name": "",
          "type": "bool"
        }
      ],
      "stateMutability": "view",
      "type": "function"
    },
    {
      "inputs": [
        {
          "internalType": "uint256",
          "name": "_offerId",
          "type": "uint256"
        }
      ],
      "name": "offer",
      "outputs": [
        {
          "components": [
            {
              "internalType": "uint256",
              "name": "id",
              "type": "uint256"
            },
            {
              "internalType": "contract IERC1155",
              "name": "inputCollection",
              "type": "address"
            },
            {
              "internalType": "uint256[]",
              "name": "inputCollectionItemIds",
              "type": "uint256[]"
            },
            {
              "internalType": "uint256[]",
              "name": "inputCollectionItemAmounts",
              "type": "uint256[]"
            },
            {
              "internalType": "contract IERC20",
              "name": "inputCurrency",
              "type": "address"
            },
            {
              "internalType": "uint256",
              "name": "inputCurrencyAmount",
              "type": "uint256"
            },
            {
              "internalType": "contract IERC1155",
              "name": "outputCollection",
              "type": "address"
            },
            {
              "internalType": "uint256[]",
              "name": "outputCollectionItemIds",
              "type": "uint256[]"
            },
            {
              "internalType": "uint256[]",
              "name": "outputCollectionItemAmounts",
              "type": "uint256[]"
            },
            {
              "internalType": "contract IERC20",
              "name": "outputCurrency",
              "type": "address"
            },
            {
              "internalType": "uint256",
              "name": "outputCurrencyAmount",
              "type": "uint256"
            },
            {
              "internalType": "uint256",
              "name": "uses",
              "type": "uint256"
            },
            {
              "internalType": "uint256",
              "name": "maxUses",
              "type": "uint256"
            },
            {
              "internalType": "uint256",
              "name": "lastUpdatedAt",
              "type": "uint256"
            }
          ],
          "internalType": "struct IGame_Shop.Offer",
          "name": "",
          "type": "tuple"
        }
      ],
      "stateMutability": "view",
      "type": "function"
    },
    {
      "inputs": [
        {
          "internalType": "uint256",
          "name": "_index",
          "type": "uint256"
        }
      ],
      "name": "offerId",
      "outputs": [
        {
          "internalType": "uint256",
          "name": "",
          "type": "uint256"
        }
      ],
      "stateMutability": "view",
      "type": "function"
    },
    {
      "inputs": [
        {
          "internalType": "uint256",
          "name": "_offerId",
          "type": "uint256"
        }
      ],
      "name": "offerLastUpdate",
      "outputs": [
        {
          "internalType": "uint256[]",
          "name": "",
          "type": "uint256[]"
        }
      ],
      "stateMutability": "view",
      "type": "function"
    },
    {
      "inputs": [
        {
          "internalType": "address",
          "name": "",
          "type": "address"
        },
        {
          "internalType": "address",
          "name": "",
          "type": "address"
        },
        {
          "internalType": "uint256[]",
          "name": "",
          "type": "uint256[]"
        },
        {
          "internalType": "uint256[]",
          "name": "",
          "type": "uint256[]"
        },
        {
          "internalType": "bytes",
          "name": "",
          "type": "bytes"
        }
      ],
      "name": "onERC1155BatchReceived",
      "outputs": [
        {
          "internalType": "bytes4",
          "name": "",
          "type": "bytes4"
        }
      ],
      "stateMutability": "nonpayable",
      "type": "function"
    },
    {
      "inputs": [
        {
          "internalType": "address",
          "name": "",
          "type": "address"
        },
        {
          "internalType": "address",
          "name": "",
          "type": "address"
        },
        {
          "internalType": "uint256",
          "name": "",
          "type": "uint256"
        },
        {
          "internalType": "uint256",
          "name": "",
          "type": "uint256"
        },
        {
          "internalType": "bytes",
          "name": "",
          "type": "bytes"
        }
      ],
      "name": "onERC1155Received",
      "outputs": [
        {
          "internalType": "bytes4",
          "name": "",
          "type": "bytes4"
        }
      ],
      "stateMutability": "nonpayable",
      "type": "function"
    },
    {
      "inputs": [
        {
          "internalType": "uint256",
          "name": "_startIndexInclusive",
          "type": "uint256"
        },
        {
          "internalType": "uint256",
          "name": "_limit",
          "type": "uint256"
        }
      ],
      "name": "paginateOfferIds",
      "outputs": [
        {
          "internalType": "uint256[]",
          "name": "",
          "type": "uint256[]"
        }
      ],
      "stateMutability": "view",
      "type": "function"
    },
    {
      "inputs": [
        {
          "internalType": "uint256",
          "name": "_startIndexInclusive",
          "type": "uint256"
        },
        {
          "internalType": "uint256",
          "name": "_limit",
          "type": "uint256"
        }
      ],
      "name": "paginateOfferLastUpdates",
      "outputs": [
        {
          "internalType": "uint256[][]",
          "name": "",
          "type": "uint256[][]"
        }
      ],
      "stateMutability": "view",
      "type": "function"
    },
    {
      "inputs": [
        {
          "internalType": "uint256",
          "name": "_startIndexInclusive",
          "type": "uint256"
        },
        {
          "internalType": "uint256",
          "name": "_limit",
          "type": "uint256"
        }
      ],
      "name": "paginateOffers",
      "outputs": [
        {
          "components": [
            {
              "internalType": "uint256",
              "name": "id",
              "type": "uint256"
            },
            {
              "internalType": "contract IERC1155",
              "name": "inputCollection",
              "type": "address"
            },
            {
              "internalType": "uint256[]",
              "name": "inputCollectionItemIds",
              "type": "uint256[]"
            },
            {
              "internalType": "uint256[]",
              "name": "inputCollectionItemAmounts",
              "type": "uint256[]"
            },
            {
              "internalType": "contract IERC20",
              "name": "inputCurrency",
              "type": "address"
            },
            {
              "internalType": "uint256",
              "name": "inputCurrencyAmount",
              "type": "uint256"
            },
            {
              "internalType": "contract IERC1155",
              "name": "outputCollection",
              "type": "address"
            },
            {
              "internalType": "uint256[]",
              "name": "outputCollectionItemIds",
              "type": "uint256[]"
            },
            {
              "internalType": "uint256[]",
              "name": "outputCollectionItemAmounts",
              "type": "uint256[]"
            },
            {
              "internalType": "contract IERC20",
              "name": "outputCurrency",
              "type": "address"
            },
            {
              "internalType": "uint256",
              "name": "outputCurrencyAmount",
              "type": "uint256"
            },
            {
              "internalType": "uint256",
              "name": "uses",
              "type": "uint256"
            },
            {
              "internalType": "uint256",
              "name": "maxUses",
              "type": "uint256"
            },
            {
              "internalType": "uint256",
              "name": "lastUpdatedAt",
              "type": "uint256"
            }
          ],
          "internalType": "struct IGame_Shop.Offer[]",
          "name": "",
          "type": "tuple[]"
        }
      ],
      "stateMutability": "view",
      "type": "function"
    },
    {
      "inputs": [
        {
          "internalType": "uint256",
          "name": "_offerId",
          "type": "uint256"
        }
      ],
      "name": "removeOffer",
      "outputs": [],
      "stateMutability": "nonpayable",
      "type": "function"
    },
    {
      "inputs": [
        {
          "internalType": "bytes32",
          "name": "role",
          "type": "bytes32"
        },
        {
          "internalType": "address",
          "name": "account",
          "type": "address"
        }
      ],
      "name": "renounceRole",
      "outputs": [],
      "stateMutability": "nonpayable",
      "type": "function"
    },
    {
      "inputs": [
        {
          "internalType": "bytes32",
          "name": "role",
          "type": "bytes32"
        },
        {
          "internalType": "address",
          "name": "account",
          "type": "address"
        }
      ],
      "name": "revokeRole",
      "outputs": [],
      "stateMutability": "nonpayable",
      "type": "function"
    },
    {
      "inputs": [
        {
          "internalType": "uint256",
          "name": "_offerId",
          "type": "uint256"
        },
        {
          "internalType": "address[2]",
          "name": "_inputOutputCollections",
          "type": "address[2]"
        },
        {
          "internalType": "uint256[][2]",
          "name": "_inputOutputCollectionItemIds",
          "type": "uint256[][2]"
        },
        {
          "internalType": "uint256[][2]",
          "name": "_inputOutputCollectionItemAmounts",
          "type": "uint256[][2]"
        },
        {
          "internalType": "address[2]",
          "name": "_inputOutputCurrency",
          "type": "address[2]"
        },
        {
          "internalType": "uint256[2]",
          "name": "_inputOutputCurrencyAmounts",
          "type": "uint256[2]"
        },
        {
          "internalType": "uint256",
          "name": "_maxUses",
          "type": "uint256"
        }
      ],
      "name": "setOffer",
      "outputs": [],
      "stateMutability": "nonpayable",
      "type": "function"
    },
    {
      "inputs": [
        {
          "internalType": "bytes4",
          "name": "interfaceId",
          "type": "bytes4"
        }
      ],
      "name": "supportsInterface",
      "outputs": [
        {
          "internalType": "bool",
          "name": "",
          "type": "bool"
        }
      ],
      "stateMutability": "view",
      "type": "function"
    },
    {
      "inputs": [],
      "name": "systemId",
      "outputs": [
        {
          "internalType": "bytes32",
          "name": "",
          "type": "bytes32"
        }
      ],
      "stateMutability": "view",
      "type": "function"
    },
    {
      "inputs": [],
      "name": "totalOffers",
      "outputs": [
        {
          "internalType": "uint256",
          "name": "",
          "type": "uint256"
        }
      ],
      "stateMutability": "view",
      "type": "function"
    },
    {
      "inputs": [
        {
          "internalType": "address",
          "name": "_newTrustedForwarder",
          "type": "address"
        }
      ],
      "name": "upgradeTrustedForwarder",
      "outputs": [],
      "stateMutability": "nonpayable",
      "type": "function"
    },
    {
      "inputs": [
        {
          "internalType": "uint256",
          "name": "_offerId",
          "type": "uint256"
        }
      ],
      "name": "useOffer",
      "outputs": [],
      "stateMutability": "payable",
      "type": "function"
    },
    {
      "inputs": [
        {
          "internalType": "address",
          "name": "_currencyAddress",
          "type": "address"
        },
        {
          "internalType": "address",
          "name": "_to",
          "type": "address"
        }
      ],
      "name": "withdrawCurrencyTo",
      "outputs": [],
      "stateMutability": "nonpayable",
      "type": "function"
    },
    {
      "inputs": [
        {
          "internalType": "address",
          "name": "_collectionAddress",
          "type": "address"
        },
        {
          "internalType": "uint256[]",
          "name": "_itemIds",
          "type": "uint256[]"
        },
        {
          "internalType": "address",
          "name": "_to",
          "type": "address"
        }
      ],
      "name": "withdrawItemsTo",
      "outputs": [],
      "stateMutability": "nonpayable",
      "type": "function"
    },
    {
      "inputs": [
        {
          "internalType": "address",
          "name": "_to",
          "type": "address"
        }
      ],
      "name": "withdrawTo",
      "outputs": [],
      "stateMutability": "nonpayable",
      "type": "function"
    },
    {
      "stateMutability": "payable",
      "type": "receive"
    }
  ],
  "bytecode": "0x60806040523480156200001157600080fd5b5060405162004207380380620042078339810160408190526200003491620001af565b600080546001600160a01b0319166001600160a01b03841617815560018281556003556200006c9062000066620000a3565b620000bf565b6200009b7fc9fc9949603a50f5cc3a96f774f1d68287789a241d2082dc81d0fb19a53bcf2b62000066620000a3565b5050620001eb565b6000620000ba620000cf60201b620028581760201c565b905090565b620000cb828262000105565b5050565b600080546001600160a01b03163303620000f0575060131936013560601c90565b620000ba620001ab60201b620028a81760201c565b60008281526002602090815260408083206001600160a01b038516845290915290205460ff16620000cb5760008281526002602090815260408083206001600160a01b03851684529091529020805460ff1916600117905562000167620000a3565b6001600160a01b0316816001600160a01b0316837f2f8788117e7eff1d82e926ec794901d17c78024a50270940304540a733656f0d60405160405180910390a45050565b3390565b60008060408385031215620001c357600080fd5b82516001600160a01b0381168114620001db57600080fd5b6020939093015192949293505050565b61400c80620001fb6000396000f3fe6080604052600436106101bb5760003560e01c80637f413af2116100ec578063a217fddf1161008a578063bc197c8111610064578063bc197c8114610531578063cdf19174146105a7578063d547741f146105c7578063f23a6e61146105e757600080fd5b8063a217fddf146104e7578063a9fd8ed1146104fc578063aa2a7eea1461051157600080fd5b80638b839502116100c65780638b8395021461043457806391d148541461045457806395a0f9c7146104a75780639c66b063146104c757600080fd5b80637f413af2146103d457806382335ab0146103f457806389fe7c3b1461041457600080fd5b8063500ceb4811610159578063687c08dd11610133578063687c08dd1461034557806372b0d90c1461036757806374d3335314610387578063761610fc146103a757600080fd5b8063500ceb48146102d257806351a30c65146102e7578063572b6c051461030957600080fd5b80632f2ff15d116101955780632f2ff15d1461026757806336568abe1461028957806339f898bc146102a957806349fe0367146102bf57600080fd5b806301ffc9a7146101c75780631675187c146101fc578063248a9ca31461022957600080fd5b366101c257005b600080fd5b3480156101d357600080fd5b506101e76101e23660046131eb565b61062c565b60405190151581526020015b60405180910390f35b34801561020857600080fd5b5061021c61021736600461322d565b6106d4565b6040516101f39190613281565b34801561023557600080fd5b5061025961024436600461322d565b60009081526002602052604090206001015490565b6040519081526020016101f3565b34801561027357600080fd5b506102876102823660046132bd565b610754565b005b34801561029557600080fd5b506102876102a43660046132bd565b61077e565b3480156102b557600080fd5b5061025960015481565b6102876102cd36600461322d565b610853565b3480156102de57600080fd5b5061021c610fc7565b3480156102f357600080fd5b506102fc610fd8565b6040516101f391906132e9565b34801561031557600080fd5b506101e7610324366004613369565b60005473ffffffffffffffffffffffffffffffffffffffff91821691161490565b34801561035157600080fd5b5061035a611088565b6040516101f391906134d7565b34801561037357600080fd5b50610287610382366004613369565b61141d565b34801561039357600080fd5b506102596103a236600461322d565b611489565b3480156103b357600080fd5b506103c76103c236600461322d565b611508565b6040516101f3919061354a565b3480156103e057600080fd5b506102876103ef36600461355d565b61188f565b34801561040057600080fd5b5061035a61040f3660046135f4565b611a9a565b34801561042057600080fd5b506102fc61042f3660046135f4565b611e79565b34801561044057600080fd5b5061028761044f366004613616565b611f5b565b34801561046057600080fd5b506101e761046f3660046132bd565b600091825260026020908152604080842073ffffffffffffffffffffffffffffffffffffffff93909316845291905290205460ff1690565b3480156104b357600080fd5b506102876104c236600461322d565b6120ba565b3480156104d357600080fd5b506102876104e2366004613651565b612145565b3480156104f357600080fd5b50610259600081565b34801561050857600080fd5b506102596126e5565b34801561051d57600080fd5b5061028761052c366004613369565b6126f1565b34801561053d57600080fd5b5061057661054c36600461388b565b7fbc197c810000000000000000000000000000000000000000000000000000000095945050505050565b6040517fffffffff0000000000000000000000000000000000000000000000000000000090911681526020016101f3565b3480156105b357600080fd5b5061021c6105c23660046135f4565b61275f565b3480156105d357600080fd5b506102876105e23660046132bd565b612833565b3480156105f357600080fd5b50610576610602366004613935565b7ff23a6e610000000000000000000000000000000000000000000000000000000095945050505050565b60007fffffffff0000000000000000000000000000000000000000000000000000000082167fd4e8d1320000000000000000000000000000000000000000000000000000000014806106bf57507fffffffff0000000000000000000000000000000000000000000000000000000082167f4e2312e000000000000000000000000000000000000000000000000000000000145b806106ce57506106ce826128ac565b92915050565b60408051600280825260608083018452926000929190602083019080368337019050509050828160008151811061070d5761070d61399a565b60200260200101818152505060066000848152602001908152602001600020600d0154816001815181106107435761074361399a565b602090810291909101015292915050565b60008281526002602052604090206001015461076f81612902565b6107798383612916565b505050565b610786612a0b565b73ffffffffffffffffffffffffffffffffffffffff168173ffffffffffffffffffffffffffffffffffffffff1614610845576040517f08c379a000000000000000000000000000000000000000000000000000000000815260206004820152602f60248201527f416363657373436f6e74726f6c3a2063616e206f6e6c792072656e6f756e636560448201527f20726f6c657320666f722073656c66000000000000000000000000000000000060648201526084015b60405180910390fd5b61084f8282612a15565b5050565b6002600354036108bf576040517f08c379a000000000000000000000000000000000000000000000000000000000815260206004820152601f60248201527f5265656e7472616e637947756172643a207265656e7472616e742063616c6c00604482015260640161083c565b60026003556108cf600482612b08565b61095b576040517f08c379a000000000000000000000000000000000000000000000000000000000815260206004820152602b60248201527f6f66666572496420646f6573206e6f74206578697374206f722068617320626560448201527f656e2072656d6f7665642e000000000000000000000000000000000000000000606482015260840161083c565b6000818152600660205260409020600c8101541580610981575080600c015481600b0154105b6109e7576040517f08c379a000000000000000000000000000000000000000000000000000000000815260206004820152601b60248201527f4f66666572206861732072656163686564206d617820757365732e0000000000604482015260640161083c565b600181015473ffffffffffffffffffffffffffffffffffffffff1615610a8a57600181015473ffffffffffffffffffffffffffffffffffffffff16632eb2c2d6610a2f612a0b565b3084600201856003016040518563ffffffff1660e01b8152600401610a5794939291906139fe565b600060405180830381600087803b158015610a7157600080fd5b505af1158015610a85573d6000803e3d6000fd5b505050505b600581015415610bef57600481015473ffffffffffffffffffffffffffffffffffffffff1615610b8157600481015473ffffffffffffffffffffffffffffffffffffffff166323b872dd610adc612a0b565b60058401546040517fffffffff0000000000000000000000000000000000000000000000000000000060e085901b16815273ffffffffffffffffffffffffffffffffffffffff909216600483015230602483015260448201526064016020604051808303816000875af1158015610b57573d6000803e3d6000fd5b505050506040513d601f19601f82011682018060405250810190610b7b9190613a66565b50610bef565b8060050154341015610bef576040517f08c379a000000000000000000000000000000000000000000000000000000000815260206004820152601660248201527f5061796d656e74206c657373207468616e20636f737400000000000000000000604482015260640161083c565b600681015473ffffffffffffffffffffffffffffffffffffffff1615610d42576006810154610c339073ffffffffffffffffffffffffffffffffffffffff16612b23565b15610cbf57600681015473ffffffffffffffffffffffffffffffffffffffff16806308f427c7610c61612a0b565b84600701856008016040518463ffffffff1660e01b8152600401610c8793929190613a88565b600060405180830381600087803b158015610ca157600080fd5b505af1158015610cb5573d6000803e3d6000fd5b5050505050610d42565b600681015473ffffffffffffffffffffffffffffffffffffffff16632eb2c2d630610ce8612a0b565b84600701856008016040518563ffffffff1660e01b8152600401610d0f94939291906139fe565b600060405180830381600087803b158015610d2957600080fd5b505af1158015610d3d573d6000803e3d6000fd5b505050505b600981015473ffffffffffffffffffffffffffffffffffffffff1615610f09576009810154610d869073ffffffffffffffffffffffffffffffffffffffff16612b23565b15610e4257600981015473ffffffffffffffffffffffffffffffffffffffff16806340c10f19610db4612a0b565b600a8501546040517fffffffff0000000000000000000000000000000000000000000000000000000060e085901b16815273ffffffffffffffffffffffffffffffffffffffff90921660048301526024820152604401600060405180830381600087803b158015610e2457600080fd5b505af1158015610e38573d6000803e3d6000fd5b5050505050610f66565b600981015473ffffffffffffffffffffffffffffffffffffffff1663a9059cbb610e6a612a0b565b600a8401546040517fffffffff0000000000000000000000000000000000000000000000000000000060e085901b16815273ffffffffffffffffffffffffffffffffffffffff909216600483015260248201526044016020604051808303816000875af1158015610edf573d6000803e3d6000fd5b505050506040513d601f19601f82011682018060405250810190610f039190613a66565b50610f66565b600a81015415610f6657610f1b612a0b565b73ffffffffffffffffffffffffffffffffffffffff166108fc82600a01549081150290604051600060405180830381858888f19350505050158015610f64573d6000803e3d6000fd5b505b600b81018054906000610f7883613b02565b9190505550817feab8772ecfad019c9f5c5cff325bd3316d0c456b3e53260ea5191feb57b2359182610fa8612a0b565b604051610fb6929190613ca3565b60405180910390a250506001600355565b6060610fd36004612bdc565b905090565b60606000610fe46126e5565b67ffffffffffffffff811115610ffc57610ffc6136ff565b60405190808252806020026020018201604052801561102f57816020015b606081526020019060019003908161101a5790505b50905060005b61103d6126e5565b81101561108257611052610217600483612be9565b8282815181106110645761106461399a565b6020026020010181905250808061107a90613b02565b915050611035565b50919050565b606060006110946126e5565b67ffffffffffffffff8111156110ac576110ac6136ff565b6040519080825280602002602001820160405280156111a757816020015b611194604051806101c0016040528060008152602001600073ffffffffffffffffffffffffffffffffffffffff1681526020016060815260200160608152602001600073ffffffffffffffffffffffffffffffffffffffff16815260200160008152602001600073ffffffffffffffffffffffffffffffffffffffff1681526020016060815260200160608152602001600073ffffffffffffffffffffffffffffffffffffffff168152602001600081526020016000815260200160008152602001600081525090565b8152602001906001900390816110ca5790505b50905060005b6111b56126e5565b81101561108257600660006111cb600484612be9565b8152602080820192909252604090810160002081516101c08101835281548152600182015473ffffffffffffffffffffffffffffffffffffffff168185015260028201805484518187028101870186528181529295939486019383018282801561125457602002820191906000526020600020905b815481526020019060010190808311611240575b50505050508152602001600382018054806020026020016040519081016040528092919081815260200182805480156112ac57602002820191906000526020600020905b815481526020019060010190808311611298575b5050509183525050600482015473ffffffffffffffffffffffffffffffffffffffff908116602080840191909152600584015460408085019190915260068501549092166060840152600784018054835181840281018401909452808452608090940193909183018282801561134157602002820191906000526020600020905b81548152602001906001019080831161132d575b505050505081526020016008820180548060200260200160405190810160405280929190818152602001828054801561139957602002820191906000526020600020905b815481526020019060010190808311611385575b5050509183525050600982015473ffffffffffffffffffffffffffffffffffffffff166020820152600a8201546040820152600b8201546060820152600c8201546080820152600d9091015460a09091015282518390839081106113ff576113ff61399a565b6020026020010181905250808061141590613b02565b9150506111ad565b7fc9fc9949603a50f5cc3a96f774f1d68287789a241d2082dc81d0fb19a53bcf2b61144781612902565b60405173ffffffffffffffffffffffffffffffffffffffff8316904780156108fc02916000818181858888f19350505050158015610779573d6000803e3d6000fd5b60006114956004612bf5565b82106114fd576040517f08c379a000000000000000000000000000000000000000000000000000000000815260206004820152601360248201527f496e646578206f7574206f6620626f756e647300000000000000000000000000604482015260640161083c565b6106ce600483612be9565b6115d2604051806101c0016040528060008152602001600073ffffffffffffffffffffffffffffffffffffffff1681526020016060815260200160608152602001600073ffffffffffffffffffffffffffffffffffffffff16815260200160008152602001600073ffffffffffffffffffffffffffffffffffffffff1681526020016060815260200160608152602001600073ffffffffffffffffffffffffffffffffffffffff168152602001600081526020016000815260200160008152602001600081525090565b6115dd600483612b08565b611669576040517f08c379a000000000000000000000000000000000000000000000000000000000815260206004820152602b60248201527f6f66666572496420646f6573206e6f74206578697374206f722068617320626560448201527f656e2072656d6f7665642e000000000000000000000000000000000000000000606482015260840161083c565b60008281526006602090815260409182902082516101c08101845281548152600182015473ffffffffffffffffffffffffffffffffffffffff1681840152600282018054855181860281018601875281815292959394938601938301828280156116f257602002820191906000526020600020905b8154815260200190600101908083116116de575b505050505081526020016003820180548060200260200160405190810160405280929190818152602001828054801561174a57602002820191906000526020600020905b815481526020019060010190808311611736575b5050509183525050600482015473ffffffffffffffffffffffffffffffffffffffff90811660208084019190915260058401546040808501919091526006850154909216606084015260078401805483518184028101840190945280845260809094019390918301828280156117df57602002820191906000526020600020905b8154815260200190600101908083116117cb575b505050505081526020016008820180548060200260200160405190810160405280929190818152602001828054801561183757602002820191906000526020600020905b815481526020019060010190808311611823575b5050509183525050600982015473ffffffffffffffffffffffffffffffffffffffff166020820152600a8201546040820152600b8201546060820152600c8201546080820152600d9091015460a09091015292915050565b7fc9fc9949603a50f5cc3a96f774f1d68287789a241d2082dc81d0fb19a53bcf2b6118b981612902565b8460008467ffffffffffffffff8111156118d5576118d56136ff565b6040519080825280602002602001820160405280156118fe578160200160208202803683370190505b50905060005b85811015611a04578273ffffffffffffffffffffffffffffffffffffffff1662fdd58e3089898581811061193a5761193a61399a565b6040517fffffffff0000000000000000000000000000000000000000000000000000000060e087901b16815273ffffffffffffffffffffffffffffffffffffffff90941660048501526020029190910135602483015250604401602060405180830381865afa1580156119b1573d6000803e3d6000fd5b505050506040513d601f19601f820116820180604052508101906119d59190613cdb565b8282815181106119e7576119e761399a565b6020908102919091010152806119fc81613b02565b915050611904565b506040517f2eb2c2d600000000000000000000000000000000000000000000000000000000815273ffffffffffffffffffffffffffffffffffffffff831690632eb2c2d690611a5f90309088908b908b908890600401613cf4565b600060405180830381600087803b158015611a7957600080fd5b505af1158015611a8d573d6000803e3d6000fd5b5050505050505050505050565b60606000611aa86004612bf5565b8410611ab5576000611aca565b83611ac06004612bf5565b611aca9190613d97565b9050600083821115611adc5783611ade565b815b905060008167ffffffffffffffff811115611afb57611afb6136ff565b604051908082528060200260200182016040528015611bf657816020015b611be3604051806101c0016040528060008152602001600073ffffffffffffffffffffffffffffffffffffffff1681526020016060815260200160608152602001600073ffffffffffffffffffffffffffffffffffffffff16815260200160008152602001600073ffffffffffffffffffffffffffffffffffffffff1681526020016060815260200160608152602001600073ffffffffffffffffffffffffffffffffffffffff168152602001600081526020016000815260200160008152602001600081525090565b815260200190600190039081611b195790505b50905060005b82811015611e6f5760066000611c1d611c15848b613daa565b600490612be9565b8152602080820192909252604090810160002081516101c08101835281548152600182015473ffffffffffffffffffffffffffffffffffffffff1681850152600282018054845181870281018701865281815292959394860193830182828015611ca657602002820191906000526020600020905b815481526020019060010190808311611c92575b5050505050815260200160038201805480602002602001604051908101604052809291908181526020018280548015611cfe57602002820191906000526020600020905b815481526020019060010190808311611cea575b5050509183525050600482015473ffffffffffffffffffffffffffffffffffffffff9081166020808401919091526005840154604080850191909152600685015490921660608401526007840180548351818402810184019094528084526080909401939091830182828015611d9357602002820191906000526020600020905b815481526020019060010190808311611d7f575b5050505050815260200160088201805480602002602001604051908101604052809291908181526020018280548015611deb57602002820191906000526020600020905b815481526020019060010190808311611dd7575b5050509183525050600982015473ffffffffffffffffffffffffffffffffffffffff166020820152600a8201546040820152600b8201546060820152600c8201546080820152600d9091015460a0909101528251839083908110611e5157611e5161399a565b60200260200101819052508080611e6790613b02565b915050611bfc565b5095945050505050565b60606000611e876004612bf5565b8410611e94576000611ea9565b83611e9f6004612bf5565b611ea99190613d97565b9050600083821115611ebb5783611ebd565b815b905060008167ffffffffffffffff811115611eda57611eda6136ff565b604051908082528060200260200182016040528015611f0d57816020015b6060815260200190600190039081611ef85790505b50905060005b82811015611e6f57611f2b610217611c15838a613daa565b828281518110611f3d57611f3d61399a565b60200260200101819052508080611f5390613b02565b915050611f13565b7fc9fc9949603a50f5cc3a96f774f1d68287789a241d2082dc81d0fb19a53bcf2b611f8581612902565b6040517f70a08231000000000000000000000000000000000000000000000000000000008152306004820152839073ffffffffffffffffffffffffffffffffffffffff82169063a9059cbb90859083906370a0823190602401602060405180830381865afa158015611ffb573d6000803e3d6000fd5b505050506040513d601f19601f8201168201806040525081019061201f9190613cdb565b6040517fffffffff0000000000000000000000000000000000000000000000000000000060e085901b16815273ffffffffffffffffffffffffffffffffffffffff909216600483015260248201526044016020604051808303816000875af115801561208f573d6000803e3d6000fd5b505050506040513d601f19601f820116820180604052508101906120b39190613a66565b5050505050565b7fc9fc9949603a50f5cc3a96f774f1d68287789a241d2082dc81d0fb19a53bcf2b6120e481612902565b6120ef600483612bff565b5060008281526006602052604090819020905183907f6a1a138e164465aabd2f777a1616db53b1e03ebfc20e197765e62fa2b748600b90612131908490613dbd565b60405180910390a26000600b909101555050565b7fc9fc9949603a50f5cc3a96f774f1d68287789a241d2082dc81d0fb19a53bcf2b61216f81612902565b6121798580613dd0565b90506121858780613dd0565b905014612214576040517f08c379a000000000000000000000000000000000000000000000000000000000815260206004820152602260248201527f496e707574206974656d7320616e6420616d6f756e7473206d69736d6174636860448201527f6564000000000000000000000000000000000000000000000000000000000000606482015260840161083c565b6122216020860186613dd0565b90506122306020880188613dd0565b9050146122bf576040517f08c379a000000000000000000000000000000000000000000000000000000000815260206004820152602360248201527f4f7574707574206974656d7320616e6420616d6f756e7473206d69736d61746360448201527f6865640000000000000000000000000000000000000000000000000000000000606482015260840161083c565b6000604051806101c001604052808a8152602001896000600281106122e6576122e661399a565b6020020160208101906122f99190613369565b73ffffffffffffffffffffffffffffffffffffffff16815260200161231e8980613dd0565b8080602002602001604051908101604052809392919081815260200183836020028082843760009201919091525050509082525060200161235f8880613dd0565b808060200260200160405190810160405280939291908181526020018383602002808284376000920191909152505050908252506020908101906123a590880188613369565b73ffffffffffffffffffffffffffffffffffffffff168152853560208201526040018960016020020160208101906123dd9190613369565b73ffffffffffffffffffffffffffffffffffffffff168152602090810190612407908a018a613dd0565b8080602002602001604051908101604052809392919081815260200183836020028082843760009201919091525050509082525060209081019061244d90890189613dd0565b808060200260200160405190810160405280939291908181526020018383602002808284376000920191909152505050908252506020908101906124979060408901908901613369565b73ffffffffffffffffffffffffffffffffffffffff1681526020868101358183015260008c81526006909152604090819020600b015490820152606081018590524260809091015290506124ec60048a612c0b565b5060008981526006602090815260409182902083518155838201516001820180547fffffffffffffffffffffffff00000000000000000000000000000000000000001673ffffffffffffffffffffffffffffffffffffffff90921691909117905591830151805184939261256792600285019291019061318b565b506060820151805161258391600384019160209091019061318b565b50608082015160048201805473ffffffffffffffffffffffffffffffffffffffff9283167fffffffffffffffffffffffff00000000000000000000000000000000000000009182161790915560a0840151600584015560c084015160068401805491909316911617905560e0820151805161260891600784019160209091019061318b565b50610100820151805161262591600884019160209091019061318b565b506101208201516009820180547fffffffffffffffffffffffff00000000000000000000000000000000000000001673ffffffffffffffffffffffffffffffffffffffff909216919091179055610140820151600a820155610160820151600b820155610180820151600c8201556101a090910151600d9091015560405189907ffcb9e66873133101ffdf745da3859e2b3736909576d4d11d6982e3e0e19d9754906126d290849061354a565b60405180910390a2505050505050505050565b6000610fd36004612bf5565b7fc9fc9949603a50f5cc3a96f774f1d68287789a241d2082dc81d0fb19a53bcf2b61271b81612902565b600080547fffffffffffffffffffffffff00000000000000000000000000000000000000001673ffffffffffffffffffffffffffffffffffffffff84161790555050565b6060600061276d6004612bf5565b841061277a57600061278f565b836127856004612bf5565b61278f9190613d97565b90506000838211156127a157836127a3565b815b905060008167ffffffffffffffff8111156127c0576127c06136ff565b6040519080825280602002602001820160405280156127e9578160200160208202803683370190505b50905060005b82811015611e6f57612804611c158289613daa565b8282815181106128165761281661399a565b60209081029190910101528061282b81613b02565b9150506127ef565b60008281526002602052604090206001015461284e81612902565b6107798383612a15565b6000805473ffffffffffffffffffffffffffffffffffffffff1633036128a357507fffffffffffffffffffffffffffffffffffffffffffffffffffffffffffffffec36013560601c90565b503390565b3390565b60007fffffffff0000000000000000000000000000000000000000000000000000000082167f4e2312e00000000000000000000000000000000000000000000000000000000014806106ce57506106ce82612c17565b6129138161290e612a0b565b612cae565b50565b600082815260026020908152604080832073ffffffffffffffffffffffffffffffffffffffff8516845290915290205460ff1661084f57600082815260026020908152604080832073ffffffffffffffffffffffffffffffffffffffff85168452909152902080547fffffffffffffffffffffffffffffffffffffffffffffffffffffffffffffff001660011790556129ad612a0b565b73ffffffffffffffffffffffffffffffffffffffff168173ffffffffffffffffffffffffffffffffffffffff16837f2f8788117e7eff1d82e926ec794901d17c78024a50270940304540a733656f0d60405160405180910390a45050565b6000610fd3612858565b600082815260026020908152604080832073ffffffffffffffffffffffffffffffffffffffff8516845290915290205460ff161561084f57600082815260026020908152604080832073ffffffffffffffffffffffffffffffffffffffff85168452909152902080547fffffffffffffffffffffffffffffffffffffffffffffffffffffffffffffff00169055612aaa612a0b565b73ffffffffffffffffffffffffffffffffffffffff168173ffffffffffffffffffffffffffffffffffffffff16837ff6391f5c32d9c69d2a47ea670b442974b53935d1edc7fd64eb21e047a839171b60405160405180910390a45050565b600081815260018301602052604081205415155b9392505050565b6040517f91d148540000000000000000000000000000000000000000000000000000000081527fc9eb32e43bf5ecbceacf00b32281dfc5d6d700a0db676ea26ccf938a385ac3f76004820152306024820152600090829073ffffffffffffffffffffffffffffffffffffffff8216906391d1485490604401602060405180830381865afa158015612bb8573d6000803e3d6000fd5b505050506040513d601f19601f82011682018060405250810190612b1c9190613a66565b60606000612b1c83612d80565b6000612b1c8383612ddc565b60006106ce825490565b6000612b1c8383612e06565b6000612b1c8383612ef9565b60007fffffffff0000000000000000000000000000000000000000000000000000000082167f7965db0b0000000000000000000000000000000000000000000000000000000014806106ce57507f01ffc9a7000000000000000000000000000000000000000000000000000000007fffffffff000000000000000000000000000000000000000000000000000000008316146106ce565b600082815260026020908152604080832073ffffffffffffffffffffffffffffffffffffffff8516845290915290205460ff1661084f57612d068173ffffffffffffffffffffffffffffffffffffffff166014612f48565b612d11836020612f48565b604051602001612d22929190613e63565b604080517fffffffffffffffffffffffffffffffffffffffffffffffffffffffffffffffe0818403018152908290527f08c379a000000000000000000000000000000000000000000000000000000000825261083c91600401613ee4565b606081600001805480602002602001604051908101604052809291908181526020018280548015612dd057602002820191906000526020600020905b815481526020019060010190808311612dbc575b50505050509050919050565b6000826000018281548110612df357612df361399a565b9060005260206000200154905092915050565b60008181526001830160205260408120548015612eef576000612e2a600183613d97565b8554909150600090612e3e90600190613d97565b9050818114612ea3576000866000018281548110612e5e57612e5e61399a565b9060005260206000200154905080876000018481548110612e8157612e8161399a565b6000918252602080832090910192909255918252600188019052604090208390555b8554869080612eb457612eb4613f35565b6001900381819060005260206000200160009055905585600101600086815260200190815260200160002060009055600193505050506106ce565b60009150506106ce565b6000818152600183016020526040812054612f40575081546001818101845560008481526020808220909301849055845484825282860190935260409020919091556106ce565b5060006106ce565b60606000612f57836002613f64565b612f62906002613daa565b67ffffffffffffffff811115612f7a57612f7a6136ff565b6040519080825280601f01601f191660200182016040528015612fa4576020820181803683370190505b5090507f300000000000000000000000000000000000000000000000000000000000000081600081518110612fdb57612fdb61399a565b60200101907effffffffffffffffffffffffffffffffffffffffffffffffffffffffffffff1916908160001a9053507f78000000000000000000000000000000000000000000000000000000000000008160018151811061303e5761303e61399a565b60200101907effffffffffffffffffffffffffffffffffffffffffffffffffffffffffffff1916908160001a905350600061307a846002613f64565b613085906001613daa565b90505b6001811115613122577f303132333435363738396162636465660000000000000000000000000000000085600f16601081106130c6576130c661399a565b1a60f81b8282815181106130dc576130dc61399a565b60200101907effffffffffffffffffffffffffffffffffffffffffffffffffffffffffffff1916908160001a90535060049490941c9361311b81613fa1565b9050613088565b508315612b1c576040517f08c379a000000000000000000000000000000000000000000000000000000000815260206004820181905260248201527f537472696e67733a20686578206c656e67746820696e73756666696369656e74604482015260640161083c565b8280548282559060005260206000209081019282156131c6579160200282015b828111156131c65782518255916020019190600101906131ab565b506131d29291506131d6565b5090565b5b808211156131d257600081556001016131d7565b6000602082840312156131fd57600080fd5b81357fffffffff0000000000000000000000000000000000000000000000000000000081168114612b1c57600080fd5b60006020828403121561323f57600080fd5b5035919050565b600081518084526020808501945080840160005b838110156132765781518752958201959082019060010161325a565b509495945050505050565b602081526000612b1c6020830184613246565b803573ffffffffffffffffffffffffffffffffffffffff811681146132b857600080fd5b919050565b600080604083850312156132d057600080fd5b823591506132e060208401613294565b90509250929050565b6000602080830181845280855180835260408601915060408160051b870101925083870160005b8281101561335c577fffffffffffffffffffffffffffffffffffffffffffffffffffffffffffffffc088860301845261334a858351613246565b94509285019290850190600101613310565b5092979650505050505050565b60006020828403121561337b57600080fd5b612b1c82613294565b60006101c08251845260208301516133b4602086018273ffffffffffffffffffffffffffffffffffffffff169052565b5060408301518160408601526133cc82860182613246565b915050606083015184820360608601526133e68282613246565b9150506080830151613410608086018273ffffffffffffffffffffffffffffffffffffffff169052565b5060a083015160a085015260c083015161344260c086018273ffffffffffffffffffffffffffffffffffffffff169052565b5060e083015184820360e086015261345a8282613246565b91505061010080840151858303828701526134758382613246565b92505050610120808401516134a18287018273ffffffffffffffffffffffffffffffffffffffff169052565b50506101408381015190850152610160808401519085015261018080840151908501526101a09283015192909301919091525090565b6000602080830181845280855180835260408601915060408160051b870101925083870160005b8281101561335c577fffffffffffffffffffffffffffffffffffffffffffffffffffffffffffffffc0888603018452613538858351613384565b945092850192908501906001016134fe565b602081526000612b1c6020830184613384565b6000806000806060858703121561357357600080fd5b61357c85613294565b9350602085013567ffffffffffffffff8082111561359957600080fd5b818701915087601f8301126135ad57600080fd5b8135818111156135bc57600080fd5b8860208260051b85010111156135d157600080fd5b6020830195508094505050506135e960408601613294565b905092959194509250565b6000806040838503121561360757600080fd5b50508035926020909101359150565b6000806040838503121561362957600080fd5b61363283613294565b91506132e060208401613294565b80604081018310156106ce57600080fd5b6000806000806000806000610140888a03121561366d57600080fd5b8735965061367e8960208a01613640565b9550606088013567ffffffffffffffff8082111561369b57600080fd5b6136a78b838c01613640565b965060808a01359150808211156136bd57600080fd5b506136ca8a828b01613640565b9450506136da8960a08a01613640565b92506136e98960e08a01613640565b9150610120880135905092959891949750929550565b7f4e487b7100000000000000000000000000000000000000000000000000000000600052604160045260246000fd5b604051601f82017fffffffffffffffffffffffffffffffffffffffffffffffffffffffffffffffe016810167ffffffffffffffff81118282101715613775576137756136ff565b604052919050565b600082601f83011261378e57600080fd5b8135602067ffffffffffffffff8211156137aa576137aa6136ff565b8160051b6137b982820161372e565b92835284810182019282810190878511156137d357600080fd5b83870192505b848310156137f2578235825291830191908301906137d9565b979650505050505050565b600082601f83011261380e57600080fd5b813567ffffffffffffffff811115613828576138286136ff565b61385960207fffffffffffffffffffffffffffffffffffffffffffffffffffffffffffffffe0601f8401160161372e565b81815284602083860101111561386e57600080fd5b816020850160208301376000918101602001919091529392505050565b600080600080600060a086880312156138a357600080fd5b6138ac86613294565b94506138ba60208701613294565b9350604086013567ffffffffffffffff808211156138d757600080fd5b6138e389838a0161377d565b945060608801359150808211156138f957600080fd5b61390589838a0161377d565b9350608088013591508082111561391b57600080fd5b50613928888289016137fd565b9150509295509295909350565b600080600080600060a0868803121561394d57600080fd5b61395686613294565b945061396460208701613294565b93506040860135925060608601359150608086013567ffffffffffffffff81111561398e57600080fd5b613928888289016137fd565b7f4e487b7100000000000000000000000000000000000000000000000000000000600052603260045260246000fd5b6000815480845260208085019450836000528060002060005b83811015613276578154875295820195600191820191016139e2565b600073ffffffffffffffffffffffffffffffffffffffff808716835280861660208401525060a06040830152613a3760a08301856139c9565b8281036060840152613a4981856139c9565b838103608090940193909352505060008152602001949350505050565b600060208284031215613a7857600080fd5b81518015158114612b1c57600080fd5b73ffffffffffffffffffffffffffffffffffffffff84168152606060208201526000613ab760608301856139c9565b8281036040840152613ac981856139c9565b9695505050505050565b7f4e487b7100000000000000000000000000000000000000000000000000000000600052601160045260246000fd5b60007fffffffffffffffffffffffffffffffffffffffffffffffffffffffffffffffff8203613b3357613b33613ad3565b5060010190565b60006101c082548452613b64600184015473ffffffffffffffffffffffffffffffffffffffff1690565b73ffffffffffffffffffffffffffffffffffffffff16602085015260408401819052613b95818501600285016139c9565b90508381036060850152613bac81600385016139c9565b9050613bcf600484015473ffffffffffffffffffffffffffffffffffffffff1690565b73ffffffffffffffffffffffffffffffffffffffff9081166080860152600584015460a086015260068401541660c085015283810360e0850152613c1681600785016139c9565b9050838103610100850152613c2e81600885016139c9565b9050613c51600984015473ffffffffffffffffffffffffffffffffffffffff1690565b73ffffffffffffffffffffffffffffffffffffffff16610120850152600a830154610140850152600b830154610160850152600c830154610180850152600d909201546101a090930192909252919050565b604081526000613cb66040830185613b3a565b905073ffffffffffffffffffffffffffffffffffffffff831660208301529392505050565b600060208284031215613ced57600080fd5b5051919050565b600073ffffffffffffffffffffffffffffffffffffffff808816835280871660208401525060a060408301528360a08301527f07ffffffffffffffffffffffffffffffffffffffffffffffffffffffffffffff841115613d5357600080fd5b8360051b808660c0850137820182810360c09081016060850152613d7990820185613246565b83810360809094019390935250506000815260200195945050505050565b818103818111156106ce576106ce613ad3565b808201808211156106ce576106ce613ad3565b602081526000612b1c6020830184613b3a565b60008083357fffffffffffffffffffffffffffffffffffffffffffffffffffffffffffffffe1843603018112613e0557600080fd5b83018035915067ffffffffffffffff821115613e2057600080fd5b6020019150600581901b3603821315613e3857600080fd5b9250929050565b60005b83811015613e5a578181015183820152602001613e42565b50506000910152565b7f416363657373436f6e74726f6c3a206163636f756e7420000000000000000000815260008351613e9b816017850160208801613e3f565b7f206973206d697373696e6720726f6c65200000000000000000000000000000006017918401918201528351613ed8816028840160208801613e3f565b01602801949350505050565b6020815260008251806020840152613f03816040850160208701613e3f565b601f017fffffffffffffffffffffffffffffffffffffffffffffffffffffffffffffffe0169190910160400192915050565b7f4e487b7100000000000000000000000000000000000000000000000000000000600052603160045260246000fd5b6000817fffffffffffffffffffffffffffffffffffffffffffffffffffffffffffffffff0483118215151615613f9c57613f9c613ad3565b500290565b600081613fb057613fb0613ad3565b507fffffffffffffffffffffffffffffffffffffffffffffffffffffffffffffffff019056fea264697066735822122085aeda66a75256ba061650c8895ef5b7768361ec443640fc4c39598ddbadb77464736f6c63430008100033",
  "linkReferences": {},
  "deployedLinkReferences": {}
}