{
  "_format": "hh-sol-artifact-1",
  "contractName": "Game_Shop",
  "sourceName": "contracts/Shop/Game_Shop.sol",
  "abi": [
    {
      "inputs": [
        {
          "internalType": "address",
          "name": "_forwarder",
          "type": "address"
        },
        {
          "internalType": "bytes32",
          "name": "_systemId",
          "type": "bytes32"
        }
      ],
      "stateMutability": "nonpayable",
      "type": "constructor"
    },
    {
      "anonymous": false,
      "inputs": [
        {
          "indexed": true,
          "internalType": "uint256",
          "name": "offerId",
          "type": "uint256"
        },
        {
          "components": [
            {
              "internalType": "uint256",
              "name": "id",
              "type": "uint256"
            },
            {
              "internalType": "contract IERC1155",
              "name": "inputCollection",
              "type": "address"
            },
            {
              "internalType": "uint256[]",
              "name": "inputCollectionItemIds",
              "type": "uint256[]"
            },
            {
              "internalType": "uint256[]",
              "name": "inputCollectionItemAmounts",
              "type": "uint256[]"
            },
            {
              "internalType": "contract IERC20",
              "name": "inputCurrency",
              "type": "address"
            },
            {
              "internalType": "uint256",
              "name": "inputCurrencyAmount",
              "type": "uint256"
            },
            {
              "internalType": "contract IERC1155",
              "name": "outputCollection",
              "type": "address"
            },
            {
              "internalType": "uint256[]",
              "name": "outputCollectionItemIds",
              "type": "uint256[]"
            },
            {
              "internalType": "uint256[]",
              "name": "outputCollectionItemAmounts",
              "type": "uint256[]"
            },
            {
              "internalType": "contract IERC20",
              "name": "outputCurrency",
              "type": "address"
            },
            {
              "internalType": "uint256",
              "name": "outputCurrencyAmount",
              "type": "uint256"
            },
            {
              "internalType": "uint256",
              "name": "uses",
              "type": "uint256"
            },
            {
              "internalType": "uint256",
              "name": "maxUses",
              "type": "uint256"
            },
            {
              "internalType": "uint256",
              "name": "lastUpdatedAt",
              "type": "uint256"
            }
          ],
          "indexed": false,
          "internalType": "struct IGame_Shop.Offer",
          "name": "offer",
          "type": "tuple"
        }
      ],
      "name": "OfferRemoved",
      "type": "event"
    },
    {
      "anonymous": false,
      "inputs": [
        {
          "indexed": true,
          "internalType": "uint256",
          "name": "offerId",
          "type": "uint256"
        },
        {
          "components": [
            {
              "internalType": "uint256",
              "name": "id",
              "type": "uint256"
            },
            {
              "internalType": "contract IERC1155",
              "name": "inputCollection",
              "type": "address"
            },
            {
              "internalType": "uint256[]",
              "name": "inputCollectionItemIds",
              "type": "uint256[]"
            },
            {
              "internalType": "uint256[]",
              "name": "inputCollectionItemAmounts",
              "type": "uint256[]"
            },
            {
              "internalType": "contract IERC20",
              "name": "inputCurrency",
              "type": "address"
            },
            {
              "internalType": "uint256",
              "name": "inputCurrencyAmount",
              "type": "uint256"
            },
            {
              "internalType": "contract IERC1155",
              "name": "outputCollection",
              "type": "address"
            },
            {
              "internalType": "uint256[]",
              "name": "outputCollectionItemIds",
              "type": "uint256[]"
            },
            {
              "internalType": "uint256[]",
              "name": "outputCollectionItemAmounts",
              "type": "uint256[]"
            },
            {
              "internalType": "contract IERC20",
              "name": "outputCurrency",
              "type": "address"
            },
            {
              "internalType": "uint256",
              "name": "outputCurrencyAmount",
              "type": "uint256"
            },
            {
              "internalType": "uint256",
              "name": "uses",
              "type": "uint256"
            },
            {
              "internalType": "uint256",
              "name": "maxUses",
              "type": "uint256"
            },
            {
              "internalType": "uint256",
              "name": "lastUpdatedAt",
              "type": "uint256"
            }
          ],
          "indexed": false,
          "internalType": "struct IGame_Shop.Offer",
          "name": "offer",
          "type": "tuple"
        }
      ],
      "name": "OfferSet",
      "type": "event"
    },
    {
      "anonymous": false,
      "inputs": [
        {
          "indexed": true,
          "internalType": "uint256",
          "name": "offerId",
          "type": "uint256"
        },
        {
          "components": [
            {
              "internalType": "uint256",
              "name": "id",
              "type": "uint256"
            },
            {
              "internalType": "contract IERC1155",
              "name": "inputCollection",
              "type": "address"
            },
            {
              "internalType": "uint256[]",
              "name": "inputCollectionItemIds",
              "type": "uint256[]"
            },
            {
              "internalType": "uint256[]",
              "name": "inputCollectionItemAmounts",
              "type": "uint256[]"
            },
            {
              "internalType": "contract IERC20",
              "name": "inputCurrency",
              "type": "address"
            },
            {
              "internalType": "uint256",
              "name": "inputCurrencyAmount",
              "type": "uint256"
            },
            {
              "internalType": "contract IERC1155",
              "name": "outputCollection",
              "type": "address"
            },
            {
              "internalType": "uint256[]",
              "name": "outputCollectionItemIds",
              "type": "uint256[]"
            },
            {
              "internalType": "uint256[]",
              "name": "outputCollectionItemAmounts",
              "type": "uint256[]"
            },
            {
              "internalType": "contract IERC20",
              "name": "outputCurrency",
              "type": "address"
            },
            {
              "internalType": "uint256",
              "name": "outputCurrencyAmount",
              "type": "uint256"
            },
            {
              "internalType": "uint256",
              "name": "uses",
              "type": "uint256"
            },
            {
              "internalType": "uint256",
              "name": "maxUses",
              "type": "uint256"
            },
            {
              "internalType": "uint256",
              "name": "lastUpdatedAt",
              "type": "uint256"
            }
          ],
          "indexed": false,
          "internalType": "struct IGame_Shop.Offer",
          "name": "offer",
          "type": "tuple"
        },
        {
          "indexed": false,
          "internalType": "address",
          "name": "user",
          "type": "address"
        }
      ],
      "name": "OfferUsed",
      "type": "event"
    },
    {
      "anonymous": false,
      "inputs": [
        {
          "indexed": true,
          "internalType": "bytes32",
          "name": "role",
          "type": "bytes32"
        },
        {
          "indexed": true,
          "internalType": "bytes32",
          "name": "previousAdminRole",
          "type": "bytes32"
        },
        {
          "indexed": true,
          "internalType": "bytes32",
          "name": "newAdminRole",
          "type": "bytes32"
        }
      ],
      "name": "RoleAdminChanged",
      "type": "event"
    },
    {
      "anonymous": false,
      "inputs": [
        {
          "indexed": true,
          "internalType": "bytes32",
          "name": "role",
          "type": "bytes32"
        },
        {
          "indexed": true,
          "internalType": "address",
          "name": "account",
          "type": "address"
        },
        {
          "indexed": true,
          "internalType": "address",
          "name": "sender",
          "type": "address"
        }
      ],
      "name": "RoleGranted",
      "type": "event"
    },
    {
      "anonymous": false,
      "inputs": [
        {
          "indexed": true,
          "internalType": "bytes32",
          "name": "role",
          "type": "bytes32"
        },
        {
          "indexed": true,
          "internalType": "address",
          "name": "account",
          "type": "address"
        },
        {
          "indexed": true,
          "internalType": "address",
          "name": "sender",
          "type": "address"
        }
      ],
      "name": "RoleRevoked",
      "type": "event"
    },
    {
      "inputs": [],
      "name": "DEFAULT_ADMIN_ROLE",
      "outputs": [
        {
          "internalType": "bytes32",
          "name": "",
          "type": "bytes32"
        }
      ],
      "stateMutability": "view",
      "type": "function"
    },
    {
      "inputs": [],
      "name": "allOfferIds",
      "outputs": [
        {
          "internalType": "uint256[]",
          "name": "",
          "type": "uint256[]"
        }
      ],
      "stateMutability": "view",
      "type": "function"
    },
    {
      "inputs": [],
      "name": "allOfferLastUpdates",
      "outputs": [
        {
          "internalType": "uint256[][]",
          "name": "",
          "type": "uint256[][]"
        }
      ],
      "stateMutability": "view",
      "type": "function"
    },
    {
      "inputs": [],
      "name": "allOffers",
      "outputs": [
        {
          "components": [
            {
              "internalType": "uint256",
              "name": "id",
              "type": "uint256"
            },
            {
              "internalType": "contract IERC1155",
              "name": "inputCollection",
              "type": "address"
            },
            {
              "internalType": "uint256[]",
              "name": "inputCollectionItemIds",
              "type": "uint256[]"
            },
            {
              "internalType": "uint256[]",
              "name": "inputCollectionItemAmounts",
              "type": "uint256[]"
            },
            {
              "internalType": "contract IERC20",
              "name": "inputCurrency",
              "type": "address"
            },
            {
              "internalType": "uint256",
              "name": "inputCurrencyAmount",
              "type": "uint256"
            },
            {
              "internalType": "contract IERC1155",
              "name": "outputCollection",
              "type": "address"
            },
            {
              "internalType": "uint256[]",
              "name": "outputCollectionItemIds",
              "type": "uint256[]"
            },
            {
              "internalType": "uint256[]",
              "name": "outputCollectionItemAmounts",
              "type": "uint256[]"
            },
            {
              "internalType": "contract IERC20",
              "name": "outputCurrency",
              "type": "address"
            },
            {
              "internalType": "uint256",
              "name": "outputCurrencyAmount",
              "type": "uint256"
            },
            {
              "internalType": "uint256",
              "name": "uses",
              "type": "uint256"
            },
            {
              "internalType": "uint256",
              "name": "maxUses",
              "type": "uint256"
            },
            {
              "internalType": "uint256",
              "name": "lastUpdatedAt",
              "type": "uint256"
            }
          ],
          "internalType": "struct IGame_Shop.Offer[]",
          "name": "",
          "type": "tuple[]"
        }
      ],
      "stateMutability": "view",
      "type": "function"
    },
    {
      "inputs": [
        {
          "internalType": "bytes32",
          "name": "role",
          "type": "bytes32"
        }
      ],
      "name": "getRoleAdmin",
      "outputs": [
        {
          "internalType": "bytes32",
          "name": "",
          "type": "bytes32"
        }
      ],
      "stateMutability": "view",
      "type": "function"
    },
    {
      "inputs": [
        {
          "internalType": "bytes32",
          "name": "role",
          "type": "bytes32"
        },
        {
          "internalType": "address",
          "name": "account",
          "type": "address"
        }
      ],
      "name": "grantRole",
      "outputs": [],
      "stateMutability": "nonpayable",
      "type": "function"
    },
    {
      "inputs": [
        {
          "internalType": "bytes32",
          "name": "role",
          "type": "bytes32"
        },
        {
          "internalType": "address",
          "name": "account",
          "type": "address"
        }
      ],
      "name": "hasRole",
      "outputs": [
        {
          "internalType": "bool",
          "name": "",
          "type": "bool"
        }
      ],
      "stateMutability": "view",
      "type": "function"
    },
    {
      "inputs": [
        {
          "internalType": "address",
          "name": "forwarder",
          "type": "address"
        }
      ],
      "name": "isTrustedForwarder",
      "outputs": [
        {
          "internalType": "bool",
          "name": "",
          "type": "bool"
        }
      ],
      "stateMutability": "view",
      "type": "function"
    },
    {
      "inputs": [
        {
          "internalType": "uint256",
          "name": "_offerId",
          "type": "uint256"
        }
      ],
      "name": "offer",
      "outputs": [
        {
          "components": [
            {
              "internalType": "uint256",
              "name": "id",
              "type": "uint256"
            },
            {
              "internalType": "contract IERC1155",
              "name": "inputCollection",
              "type": "address"
            },
            {
              "internalType": "uint256[]",
              "name": "inputCollectionItemIds",
              "type": "uint256[]"
            },
            {
              "internalType": "uint256[]",
              "name": "inputCollectionItemAmounts",
              "type": "uint256[]"
            },
            {
              "internalType": "contract IERC20",
              "name": "inputCurrency",
              "type": "address"
            },
            {
              "internalType": "uint256",
              "name": "inputCurrencyAmount",
              "type": "uint256"
            },
            {
              "internalType": "contract IERC1155",
              "name": "outputCollection",
              "type": "address"
            },
            {
              "internalType": "uint256[]",
              "name": "outputCollectionItemIds",
              "type": "uint256[]"
            },
            {
              "internalType": "uint256[]",
              "name": "outputCollectionItemAmounts",
              "type": "uint256[]"
            },
            {
              "internalType": "contract IERC20",
              "name": "outputCurrency",
              "type": "address"
            },
            {
              "internalType": "uint256",
              "name": "outputCurrencyAmount",
              "type": "uint256"
            },
            {
              "internalType": "uint256",
              "name": "uses",
              "type": "uint256"
            },
            {
              "internalType": "uint256",
              "name": "maxUses",
              "type": "uint256"
            },
            {
              "internalType": "uint256",
              "name": "lastUpdatedAt",
              "type": "uint256"
            }
          ],
          "internalType": "struct IGame_Shop.Offer",
          "name": "",
          "type": "tuple"
        }
      ],
      "stateMutability": "view",
      "type": "function"
    },
    {
      "inputs": [
        {
          "internalType": "uint256",
          "name": "_index",
          "type": "uint256"
        }
      ],
      "name": "offerId",
      "outputs": [
        {
          "internalType": "uint256",
          "name": "",
          "type": "uint256"
        }
      ],
      "stateMutability": "view",
      "type": "function"
    },
    {
      "inputs": [
        {
          "internalType": "uint256",
          "name": "_offerId",
          "type": "uint256"
        }
      ],
      "name": "offerLastUpdate",
      "outputs": [
        {
          "internalType": "uint256[]",
          "name": "",
          "type": "uint256[]"
        }
      ],
      "stateMutability": "view",
      "type": "function"
    },
    {
      "inputs": [
        {
          "internalType": "address",
          "name": "",
          "type": "address"
        },
        {
          "internalType": "address",
          "name": "",
          "type": "address"
        },
        {
          "internalType": "uint256[]",
          "name": "",
          "type": "uint256[]"
        },
        {
          "internalType": "uint256[]",
          "name": "",
          "type": "uint256[]"
        },
        {
          "internalType": "bytes",
          "name": "",
          "type": "bytes"
        }
      ],
      "name": "onERC1155BatchReceived",
      "outputs": [
        {
          "internalType": "bytes4",
          "name": "",
          "type": "bytes4"
        }
      ],
      "stateMutability": "nonpayable",
      "type": "function"
    },
    {
      "inputs": [
        {
          "internalType": "address",
          "name": "",
          "type": "address"
        },
        {
          "internalType": "address",
          "name": "",
          "type": "address"
        },
        {
          "internalType": "uint256",
          "name": "",
          "type": "uint256"
        },
        {
          "internalType": "uint256",
          "name": "",
          "type": "uint256"
        },
        {
          "internalType": "bytes",
          "name": "",
          "type": "bytes"
        }
      ],
      "name": "onERC1155Received",
      "outputs": [
        {
          "internalType": "bytes4",
          "name": "",
          "type": "bytes4"
        }
      ],
      "stateMutability": "nonpayable",
      "type": "function"
    },
    {
      "inputs": [
        {
          "internalType": "uint256",
          "name": "_startIndexInclusive",
          "type": "uint256"
        },
        {
          "internalType": "uint256",
          "name": "_limit",
          "type": "uint256"
        }
      ],
      "name": "paginateOfferIds",
      "outputs": [
        {
          "internalType": "uint256[]",
          "name": "",
          "type": "uint256[]"
        }
      ],
      "stateMutability": "view",
      "type": "function"
    },
    {
      "inputs": [
        {
          "internalType": "uint256",
          "name": "_startIndexInclusive",
          "type": "uint256"
        },
        {
          "internalType": "uint256",
          "name": "_limit",
          "type": "uint256"
        }
      ],
      "name": "paginateOfferLastUpdates",
      "outputs": [
        {
          "internalType": "uint256[][]",
          "name": "",
          "type": "uint256[][]"
        }
      ],
      "stateMutability": "view",
      "type": "function"
    },
    {
      "inputs": [
        {
          "internalType": "uint256",
          "name": "_startIndexInclusive",
          "type": "uint256"
        },
        {
          "internalType": "uint256",
          "name": "_limit",
          "type": "uint256"
        }
      ],
      "name": "paginateOffers",
      "outputs": [
        {
          "components": [
            {
              "internalType": "uint256",
              "name": "id",
              "type": "uint256"
            },
            {
              "internalType": "contract IERC1155",
              "name": "inputCollection",
              "type": "address"
            },
            {
              "internalType": "uint256[]",
              "name": "inputCollectionItemIds",
              "type": "uint256[]"
            },
            {
              "internalType": "uint256[]",
              "name": "inputCollectionItemAmounts",
              "type": "uint256[]"
            },
            {
              "internalType": "contract IERC20",
              "name": "inputCurrency",
              "type": "address"
            },
            {
              "internalType": "uint256",
              "name": "inputCurrencyAmount",
              "type": "uint256"
            },
            {
              "internalType": "contract IERC1155",
              "name": "outputCollection",
              "type": "address"
            },
            {
              "internalType": "uint256[]",
              "name": "outputCollectionItemIds",
              "type": "uint256[]"
            },
            {
              "internalType": "uint256[]",
              "name": "outputCollectionItemAmounts",
              "type": "uint256[]"
            },
            {
              "internalType": "contract IERC20",
              "name": "outputCurrency",
              "type": "address"
            },
            {
              "internalType": "uint256",
              "name": "outputCurrencyAmount",
              "type": "uint256"
            },
            {
              "internalType": "uint256",
              "name": "uses",
              "type": "uint256"
            },
            {
              "internalType": "uint256",
              "name": "maxUses",
              "type": "uint256"
            },
            {
              "internalType": "uint256",
              "name": "lastUpdatedAt",
              "type": "uint256"
            }
          ],
          "internalType": "struct IGame_Shop.Offer[]",
          "name": "",
          "type": "tuple[]"
        }
      ],
      "stateMutability": "view",
      "type": "function"
    },
    {
      "inputs": [
        {
          "internalType": "uint256",
          "name": "_offerId",
          "type": "uint256"
        }
      ],
      "name": "removeOffer",
      "outputs": [],
      "stateMutability": "nonpayable",
      "type": "function"
    },
    {
      "inputs": [
        {
          "internalType": "bytes32",
          "name": "role",
          "type": "bytes32"
        },
        {
          "internalType": "address",
          "name": "account",
          "type": "address"
        }
      ],
      "name": "renounceRole",
      "outputs": [],
      "stateMutability": "nonpayable",
      "type": "function"
    },
    {
      "inputs": [
        {
          "internalType": "bytes32",
          "name": "role",
          "type": "bytes32"
        },
        {
          "internalType": "address",
          "name": "account",
          "type": "address"
        }
      ],
      "name": "revokeRole",
      "outputs": [],
      "stateMutability": "nonpayable",
      "type": "function"
    },
    {
      "inputs": [
        {
          "internalType": "uint256",
          "name": "_offerId",
          "type": "uint256"
        },
        {
          "internalType": "address[2]",
          "name": "_inputOutputCollections",
          "type": "address[2]"
        },
        {
          "internalType": "uint256[][2]",
          "name": "_inputOutputCollectionItemIds",
          "type": "uint256[][2]"
        },
        {
          "internalType": "uint256[][2]",
          "name": "_inputOutputCollectionItemAmounts",
          "type": "uint256[][2]"
        },
        {
          "internalType": "address[2]",
          "name": "_inputOutputCurrency",
          "type": "address[2]"
        },
        {
          "internalType": "uint256[2]",
          "name": "_inputOutputCurrencyAmounts",
          "type": "uint256[2]"
        },
        {
          "internalType": "uint256",
          "name": "_maxUses",
          "type": "uint256"
        }
      ],
      "name": "setOffer",
      "outputs": [],
      "stateMutability": "nonpayable",
      "type": "function"
    },
    {
      "inputs": [
        {
          "internalType": "bytes4",
          "name": "interfaceId",
          "type": "bytes4"
        }
      ],
      "name": "supportsInterface",
      "outputs": [
        {
          "internalType": "bool",
          "name": "",
          "type": "bool"
        }
      ],
      "stateMutability": "view",
      "type": "function"
    },
    {
      "inputs": [],
      "name": "systemId",
      "outputs": [
        {
          "internalType": "bytes32",
          "name": "",
          "type": "bytes32"
        }
      ],
      "stateMutability": "view",
      "type": "function"
    },
    {
      "inputs": [],
      "name": "totalOffers",
      "outputs": [
        {
          "internalType": "uint256",
          "name": "",
          "type": "uint256"
        }
      ],
      "stateMutability": "view",
      "type": "function"
    },
    {
      "inputs": [],
      "name": "trustedForwarder",
      "outputs": [
        {
          "internalType": "address",
          "name": "",
          "type": "address"
        }
      ],
      "stateMutability": "view",
      "type": "function"
    },
    {
      "inputs": [
        {
          "internalType": "address",
          "name": "_newTrustedForwarder",
          "type": "address"
        }
      ],
      "name": "upgradeTrustedForwarder",
      "outputs": [],
      "stateMutability": "nonpayable",
      "type": "function"
    },
    {
      "inputs": [
        {
          "internalType": "uint256",
          "name": "_offerId",
          "type": "uint256"
        }
      ],
      "name": "useOffer",
      "outputs": [],
      "stateMutability": "payable",
      "type": "function"
    },
    {
      "inputs": [
        {
          "internalType": "address",
          "name": "_currencyAddress",
          "type": "address"
        },
        {
          "internalType": "address",
          "name": "_to",
          "type": "address"
        }
      ],
      "name": "withdrawCurrencyTo",
      "outputs": [],
      "stateMutability": "nonpayable",
      "type": "function"
    },
    {
      "inputs": [
        {
          "internalType": "address",
          "name": "_collectionAddress",
          "type": "address"
        },
        {
          "internalType": "uint256[]",
          "name": "_itemIds",
          "type": "uint256[]"
        },
        {
          "internalType": "address",
          "name": "_to",
          "type": "address"
        }
      ],
      "name": "withdrawItemsTo",
      "outputs": [],
      "stateMutability": "nonpayable",
      "type": "function"
    },
    {
      "inputs": [
        {
          "internalType": "address",
          "name": "_to",
          "type": "address"
        }
      ],
      "name": "withdrawTo",
      "outputs": [],
      "stateMutability": "nonpayable",
      "type": "function"
    },
    {
      "stateMutability": "payable",
      "type": "receive"
    }
  ],
  "bytecode": "0x60806040523480156200001157600080fd5b5060405162004264380380620042648339810160408190526200003491620001af565b600080546001600160a01b0319166001600160a01b03841617815560018281556003556200006c9062000066620000a3565b620000bf565b6200009b7fc9fc9949603a50f5cc3a96f774f1d68287789a241d2082dc81d0fb19a53bcf2b62000066620000a3565b5050620001eb565b6000620000ba620000cf60201b620028b51760201c565b905090565b620000cb828262000105565b5050565b600080546001600160a01b03163303620000f0575060131936013560601c90565b620000ba620001ab60201b620029051760201c565b60008281526002602090815260408083206001600160a01b038516845290915290205460ff16620000cb5760008281526002602090815260408083206001600160a01b03851684529091529020805460ff1916600117905562000167620000a3565b6001600160a01b0316816001600160a01b0316837f2f8788117e7eff1d82e926ec794901d17c78024a50270940304540a733656f0d60405160405180910390a45050565b3390565b60008060408385031215620001c357600080fd5b82516001600160a01b0381168114620001db57600080fd5b6020939093015192949293505050565b61406980620001fb6000396000f3fe6080604052600436106101c65760003560e01c80637da0a877116100f75780639c66b06311610095578063bc197c8111610064578063bc197c811461058e578063cdf1917414610604578063d547741f14610624578063f23a6e611461064457600080fd5b80639c66b06314610524578063a217fddf14610544578063a9fd8ed114610559578063aa2a7eea1461056e57600080fd5b806389fe7c3b116100d157806389fe7c3b146104715780638b8395021461049157806391d14854146104b157806395a0f9c71461050457600080fd5b80637da0a877146103df5780637f413af21461043157806382335ab01461045157600080fd5b8063500ceb4811610164578063687c08dd1161013e578063687c08dd1461035057806372b0d90c1461037257806374d3335314610392578063761610fc146103b257600080fd5b8063500ceb48146102dd57806351a30c65146102f2578063572b6c051461031457600080fd5b80632f2ff15d116101a05780632f2ff15d1461027257806336568abe1461029457806339f898bc146102b457806349fe0367146102ca57600080fd5b806301ffc9a7146101d25780631675187c14610207578063248a9ca31461023457600080fd5b366101cd57005b600080fd5b3480156101de57600080fd5b506101f26101ed366004613248565b610689565b60405190151581526020015b60405180910390f35b34801561021357600080fd5b5061022761022236600461328a565b610731565b6040516101fe91906132de565b34801561024057600080fd5b5061026461024f36600461328a565b60009081526002602052604090206001015490565b6040519081526020016101fe565b34801561027e57600080fd5b5061029261028d36600461331a565b6107b1565b005b3480156102a057600080fd5b506102926102af36600461331a565b6107db565b3480156102c057600080fd5b5061026460015481565b6102926102d836600461328a565b6108b0565b3480156102e957600080fd5b50610227611024565b3480156102fe57600080fd5b50610307611035565b6040516101fe9190613346565b34801561032057600080fd5b506101f261032f3660046133c6565b60005473ffffffffffffffffffffffffffffffffffffffff91821691161490565b34801561035c57600080fd5b506103656110e5565b6040516101fe9190613534565b34801561037e57600080fd5b5061029261038d3660046133c6565b61147a565b34801561039e57600080fd5b506102646103ad36600461328a565b6114e6565b3480156103be57600080fd5b506103d26103cd36600461328a565b611565565b6040516101fe91906135a7565b3480156103eb57600080fd5b5060005461040c9073ffffffffffffffffffffffffffffffffffffffff1681565b60405173ffffffffffffffffffffffffffffffffffffffff90911681526020016101fe565b34801561043d57600080fd5b5061029261044c3660046135ba565b6118ec565b34801561045d57600080fd5b5061036561046c366004613651565b611af7565b34801561047d57600080fd5b5061030761048c366004613651565b611ed6565b34801561049d57600080fd5b506102926104ac366004613673565b611fb8565b3480156104bd57600080fd5b506101f26104cc36600461331a565b600091825260026020908152604080842073ffffffffffffffffffffffffffffffffffffffff93909316845291905290205460ff1690565b34801561051057600080fd5b5061029261051f36600461328a565b612117565b34801561053057600080fd5b5061029261053f3660046136ae565b6121a2565b34801561055057600080fd5b50610264600081565b34801561056557600080fd5b50610264612742565b34801561057a57600080fd5b506102926105893660046133c6565b61274e565b34801561059a57600080fd5b506105d36105a93660046138e8565b7fbc197c810000000000000000000000000000000000000000000000000000000095945050505050565b6040517fffffffff0000000000000000000000000000000000000000000000000000000090911681526020016101fe565b34801561061057600080fd5b5061022761061f366004613651565b6127bc565b34801561063057600080fd5b5061029261063f36600461331a565b612890565b34801561065057600080fd5b506105d361065f366004613992565b7ff23a6e610000000000000000000000000000000000000000000000000000000095945050505050565b60007fffffffff0000000000000000000000000000000000000000000000000000000082167fd4e8d13200000000000000000000000000000000000000000000000000000000148061071c57507fffffffff0000000000000000000000000000000000000000000000000000000082167f4e2312e000000000000000000000000000000000000000000000000000000000145b8061072b575061072b82612909565b92915050565b60408051600280825260608083018452926000929190602083019080368337019050509050828160008151811061076a5761076a6139f7565b60200260200101818152505060066000848152602001908152602001600020600d0154816001815181106107a0576107a06139f7565b602090810291909101015292915050565b6000828152600260205260409020600101546107cc8161295f565b6107d68383612973565b505050565b6107e3612a68565b73ffffffffffffffffffffffffffffffffffffffff168173ffffffffffffffffffffffffffffffffffffffff16146108a2576040517f08c379a000000000000000000000000000000000000000000000000000000000815260206004820152602f60248201527f416363657373436f6e74726f6c3a2063616e206f6e6c792072656e6f756e636560448201527f20726f6c657320666f722073656c66000000000000000000000000000000000060648201526084015b60405180910390fd5b6108ac8282612a72565b5050565b60026003540361091c576040517f08c379a000000000000000000000000000000000000000000000000000000000815260206004820152601f60248201527f5265656e7472616e637947756172643a207265656e7472616e742063616c6c006044820152606401610899565b600260035561092c600482612b65565b6109b8576040517f08c379a000000000000000000000000000000000000000000000000000000000815260206004820152602b60248201527f6f66666572496420646f6573206e6f74206578697374206f722068617320626560448201527f656e2072656d6f7665642e0000000000000000000000000000000000000000006064820152608401610899565b6000818152600660205260409020600c81015415806109de575080600c015481600b0154105b610a44576040517f08c379a000000000000000000000000000000000000000000000000000000000815260206004820152601b60248201527f4f66666572206861732072656163686564206d617820757365732e00000000006044820152606401610899565b600181015473ffffffffffffffffffffffffffffffffffffffff1615610ae757600181015473ffffffffffffffffffffffffffffffffffffffff16632eb2c2d6610a8c612a68565b3084600201856003016040518563ffffffff1660e01b8152600401610ab49493929190613a5b565b600060405180830381600087803b158015610ace57600080fd5b505af1158015610ae2573d6000803e3d6000fd5b505050505b600581015415610c4c57600481015473ffffffffffffffffffffffffffffffffffffffff1615610bde57600481015473ffffffffffffffffffffffffffffffffffffffff166323b872dd610b39612a68565b60058401546040517fffffffff0000000000000000000000000000000000000000000000000000000060e085901b16815273ffffffffffffffffffffffffffffffffffffffff909216600483015230602483015260448201526064016020604051808303816000875af1158015610bb4573d6000803e3d6000fd5b505050506040513d601f19601f82011682018060405250810190610bd89190613ac3565b50610c4c565b8060050154341015610c4c576040517f08c379a000000000000000000000000000000000000000000000000000000000815260206004820152601660248201527f5061796d656e74206c657373207468616e20636f7374000000000000000000006044820152606401610899565b600681015473ffffffffffffffffffffffffffffffffffffffff1615610d9f576006810154610c909073ffffffffffffffffffffffffffffffffffffffff16612b80565b15610d1c57600681015473ffffffffffffffffffffffffffffffffffffffff16806308f427c7610cbe612a68565b84600701856008016040518463ffffffff1660e01b8152600401610ce493929190613ae5565b600060405180830381600087803b158015610cfe57600080fd5b505af1158015610d12573d6000803e3d6000fd5b5050505050610d9f565b600681015473ffffffffffffffffffffffffffffffffffffffff16632eb2c2d630610d45612a68565b84600701856008016040518563ffffffff1660e01b8152600401610d6c9493929190613a5b565b600060405180830381600087803b158015610d8657600080fd5b505af1158015610d9a573d6000803e3d6000fd5b505050505b600981015473ffffffffffffffffffffffffffffffffffffffff1615610f66576009810154610de39073ffffffffffffffffffffffffffffffffffffffff16612b80565b15610e9f57600981015473ffffffffffffffffffffffffffffffffffffffff16806340c10f19610e11612a68565b600a8501546040517fffffffff0000000000000000000000000000000000000000000000000000000060e085901b16815273ffffffffffffffffffffffffffffffffffffffff90921660048301526024820152604401600060405180830381600087803b158015610e8157600080fd5b505af1158015610e95573d6000803e3d6000fd5b5050505050610fc3565b600981015473ffffffffffffffffffffffffffffffffffffffff1663a9059cbb610ec7612a68565b600a8401546040517fffffffff0000000000000000000000000000000000000000000000000000000060e085901b16815273ffffffffffffffffffffffffffffffffffffffff909216600483015260248201526044016020604051808303816000875af1158015610f3c573d6000803e3d6000fd5b505050506040513d601f19601f82011682018060405250810190610f609190613ac3565b50610fc3565b600a81015415610fc357610f78612a68565b73ffffffffffffffffffffffffffffffffffffffff166108fc82600a01549081150290604051600060405180830381858888f19350505050158015610fc1573d6000803e3d6000fd5b505b600b81018054906000610fd583613b5f565b9190505550817feab8772ecfad019c9f5c5cff325bd3316d0c456b3e53260ea5191feb57b2359182611005612a68565b604051611013929190613d00565b60405180910390a250506001600355565b60606110306004612c39565b905090565b60606000611041612742565b67ffffffffffffffff8111156110595761105961375c565b60405190808252806020026020018201604052801561108c57816020015b60608152602001906001900390816110775790505b50905060005b61109a612742565b8110156110df576110af610222600483612c46565b8282815181106110c1576110c16139f7565b602002602001018190525080806110d790613b5f565b915050611092565b50919050565b606060006110f1612742565b67ffffffffffffffff8111156111095761110961375c565b60405190808252806020026020018201604052801561120457816020015b6111f1604051806101c0016040528060008152602001600073ffffffffffffffffffffffffffffffffffffffff1681526020016060815260200160608152602001600073ffffffffffffffffffffffffffffffffffffffff16815260200160008152602001600073ffffffffffffffffffffffffffffffffffffffff1681526020016060815260200160608152602001600073ffffffffffffffffffffffffffffffffffffffff168152602001600081526020016000815260200160008152602001600081525090565b8152602001906001900390816111275790505b50905060005b611212612742565b8110156110df5760066000611228600484612c46565b8152602080820192909252604090810160002081516101c08101835281548152600182015473ffffffffffffffffffffffffffffffffffffffff16818501526002820180548451818702810187018652818152929593948601938301828280156112b157602002820191906000526020600020905b81548152602001906001019080831161129d575b505050505081526020016003820180548060200260200160405190810160405280929190818152602001828054801561130957602002820191906000526020600020905b8154815260200190600101908083116112f5575b5050509183525050600482015473ffffffffffffffffffffffffffffffffffffffff908116602080840191909152600584015460408085019190915260068501549092166060840152600784018054835181840281018401909452808452608090940193909183018282801561139e57602002820191906000526020600020905b81548152602001906001019080831161138a575b50505050508152602001600882018054806020026020016040519081016040528092919081815260200182805480156113f657602002820191906000526020600020905b8154815260200190600101908083116113e2575b5050509183525050600982015473ffffffffffffffffffffffffffffffffffffffff166020820152600a8201546040820152600b8201546060820152600c8201546080820152600d9091015460a090910152825183908390811061145c5761145c6139f7565b6020026020010181905250808061147290613b5f565b91505061120a565b7fc9fc9949603a50f5cc3a96f774f1d68287789a241d2082dc81d0fb19a53bcf2b6114a48161295f565b60405173ffffffffffffffffffffffffffffffffffffffff8316904780156108fc02916000818181858888f193505050501580156107d6573d6000803e3d6000fd5b60006114f26004612c52565b821061155a576040517f08c379a000000000000000000000000000000000000000000000000000000000815260206004820152601360248201527f496e646578206f7574206f6620626f756e6473000000000000000000000000006044820152606401610899565b61072b600483612c46565b61162f604051806101c0016040528060008152602001600073ffffffffffffffffffffffffffffffffffffffff1681526020016060815260200160608152602001600073ffffffffffffffffffffffffffffffffffffffff16815260200160008152602001600073ffffffffffffffffffffffffffffffffffffffff1681526020016060815260200160608152602001600073ffffffffffffffffffffffffffffffffffffffff168152602001600081526020016000815260200160008152602001600081525090565b61163a600483612b65565b6116c6576040517f08c379a000000000000000000000000000000000000000000000000000000000815260206004820152602b60248201527f6f66666572496420646f6573206e6f74206578697374206f722068617320626560448201527f656e2072656d6f7665642e0000000000000000000000000000000000000000006064820152608401610899565b60008281526006602090815260409182902082516101c08101845281548152600182015473ffffffffffffffffffffffffffffffffffffffff16818401526002820180548551818602810186018752818152929593949386019383018282801561174f57602002820191906000526020600020905b81548152602001906001019080831161173b575b50505050508152602001600382018054806020026020016040519081016040528092919081815260200182805480156117a757602002820191906000526020600020905b815481526020019060010190808311611793575b5050509183525050600482015473ffffffffffffffffffffffffffffffffffffffff908116602080840191909152600584015460408085019190915260068501549092166060840152600784018054835181840281018401909452808452608090940193909183018282801561183c57602002820191906000526020600020905b815481526020019060010190808311611828575b505050505081526020016008820180548060200260200160405190810160405280929190818152602001828054801561189457602002820191906000526020600020905b815481526020019060010190808311611880575b5050509183525050600982015473ffffffffffffffffffffffffffffffffffffffff166020820152600a8201546040820152600b8201546060820152600c8201546080820152600d9091015460a09091015292915050565b7fc9fc9949603a50f5cc3a96f774f1d68287789a241d2082dc81d0fb19a53bcf2b6119168161295f565b8460008467ffffffffffffffff8111156119325761193261375c565b60405190808252806020026020018201604052801561195b578160200160208202803683370190505b50905060005b85811015611a61578273ffffffffffffffffffffffffffffffffffffffff1662fdd58e30898985818110611997576119976139f7565b6040517fffffffff0000000000000000000000000000000000000000000000000000000060e087901b16815273ffffffffffffffffffffffffffffffffffffffff90941660048501526020029190910135602483015250604401602060405180830381865afa158015611a0e573d6000803e3d6000fd5b505050506040513d601f19601f82011682018060405250810190611a329190613d38565b828281518110611a4457611a446139f7565b602090810291909101015280611a5981613b5f565b915050611961565b506040517f2eb2c2d600000000000000000000000000000000000000000000000000000000815273ffffffffffffffffffffffffffffffffffffffff831690632eb2c2d690611abc90309088908b908b908890600401613d51565b600060405180830381600087803b158015611ad657600080fd5b505af1158015611aea573d6000803e3d6000fd5b5050505050505050505050565b60606000611b056004612c52565b8410611b12576000611b27565b83611b1d6004612c52565b611b279190613df4565b9050600083821115611b395783611b3b565b815b905060008167ffffffffffffffff811115611b5857611b5861375c565b604051908082528060200260200182016040528015611c5357816020015b611c40604051806101c0016040528060008152602001600073ffffffffffffffffffffffffffffffffffffffff1681526020016060815260200160608152602001600073ffffffffffffffffffffffffffffffffffffffff16815260200160008152602001600073ffffffffffffffffffffffffffffffffffffffff1681526020016060815260200160608152602001600073ffffffffffffffffffffffffffffffffffffffff168152602001600081526020016000815260200160008152602001600081525090565b815260200190600190039081611b765790505b50905060005b82811015611ecc5760066000611c7a611c72848b613e07565b600490612c46565b8152602080820192909252604090810160002081516101c08101835281548152600182015473ffffffffffffffffffffffffffffffffffffffff1681850152600282018054845181870281018701865281815292959394860193830182828015611d0357602002820191906000526020600020905b815481526020019060010190808311611cef575b5050505050815260200160038201805480602002602001604051908101604052809291908181526020018280548015611d5b57602002820191906000526020600020905b815481526020019060010190808311611d47575b5050509183525050600482015473ffffffffffffffffffffffffffffffffffffffff9081166020808401919091526005840154604080850191909152600685015490921660608401526007840180548351818402810184019094528084526080909401939091830182828015611df057602002820191906000526020600020905b815481526020019060010190808311611ddc575b5050505050815260200160088201805480602002602001604051908101604052809291908181526020018280548015611e4857602002820191906000526020600020905b815481526020019060010190808311611e34575b5050509183525050600982015473ffffffffffffffffffffffffffffffffffffffff166020820152600a8201546040820152600b8201546060820152600c8201546080820152600d9091015460a0909101528251839083908110611eae57611eae6139f7565b60200260200101819052508080611ec490613b5f565b915050611c59565b5095945050505050565b60606000611ee46004612c52565b8410611ef1576000611f06565b83611efc6004612c52565b611f069190613df4565b9050600083821115611f185783611f1a565b815b905060008167ffffffffffffffff811115611f3757611f3761375c565b604051908082528060200260200182016040528015611f6a57816020015b6060815260200190600190039081611f555790505b50905060005b82811015611ecc57611f88610222611c72838a613e07565b828281518110611f9a57611f9a6139f7565b60200260200101819052508080611fb090613b5f565b915050611f70565b7fc9fc9949603a50f5cc3a96f774f1d68287789a241d2082dc81d0fb19a53bcf2b611fe28161295f565b6040517f70a08231000000000000000000000000000000000000000000000000000000008152306004820152839073ffffffffffffffffffffffffffffffffffffffff82169063a9059cbb90859083906370a0823190602401602060405180830381865afa158015612058573d6000803e3d6000fd5b505050506040513d601f19601f8201168201806040525081019061207c9190613d38565b6040517fffffffff0000000000000000000000000000000000000000000000000000000060e085901b16815273ffffffffffffffffffffffffffffffffffffffff909216600483015260248201526044016020604051808303816000875af11580156120ec573d6000803e3d6000fd5b505050506040513d601f19601f820116820180604052508101906121109190613ac3565b5050505050565b7fc9fc9949603a50f5cc3a96f774f1d68287789a241d2082dc81d0fb19a53bcf2b6121418161295f565b61214c600483612c5c565b5060008281526006602052604090819020905183907f6a1a138e164465aabd2f777a1616db53b1e03ebfc20e197765e62fa2b748600b9061218e908490613e1a565b60405180910390a26000600b909101555050565b7fc9fc9949603a50f5cc3a96f774f1d68287789a241d2082dc81d0fb19a53bcf2b6121cc8161295f565b6121d68580613e2d565b90506121e28780613e2d565b905014612271576040517f08c379a000000000000000000000000000000000000000000000000000000000815260206004820152602260248201527f496e707574206974656d7320616e6420616d6f756e7473206d69736d6174636860448201527f65640000000000000000000000000000000000000000000000000000000000006064820152608401610899565b61227e6020860186613e2d565b905061228d6020880188613e2d565b90501461231c576040517f08c379a000000000000000000000000000000000000000000000000000000000815260206004820152602360248201527f4f7574707574206974656d7320616e6420616d6f756e7473206d69736d61746360448201527f68656400000000000000000000000000000000000000000000000000000000006064820152608401610899565b6000604051806101c001604052808a815260200189600060028110612343576123436139f7565b60200201602081019061235691906133c6565b73ffffffffffffffffffffffffffffffffffffffff16815260200161237b8980613e2d565b808060200260200160405190810160405280939291908181526020018383602002808284376000920191909152505050908252506020016123bc8880613e2d565b80806020026020016040519081016040528093929190818152602001838360200280828437600092019190915250505090825250602090810190612402908801886133c6565b73ffffffffffffffffffffffffffffffffffffffff1681528535602082015260400189600160200201602081019061243a91906133c6565b73ffffffffffffffffffffffffffffffffffffffff168152602090810190612464908a018a613e2d565b808060200260200160405190810160405280939291908181526020018383602002808284376000920191909152505050908252506020908101906124aa90890189613e2d565b808060200260200160405190810160405280939291908181526020018383602002808284376000920191909152505050908252506020908101906124f490604089019089016133c6565b73ffffffffffffffffffffffffffffffffffffffff1681526020868101358183015260008c81526006909152604090819020600b0154908201526060810185905242608090910152905061254960048a612c68565b5060008981526006602090815260409182902083518155838201516001820180547fffffffffffffffffffffffff00000000000000000000000000000000000000001673ffffffffffffffffffffffffffffffffffffffff9092169190911790559183015180518493926125c49260028501929101906131e8565b50606082015180516125e09160038401916020909101906131e8565b50608082015160048201805473ffffffffffffffffffffffffffffffffffffffff9283167fffffffffffffffffffffffff00000000000000000000000000000000000000009182161790915560a0840151600584015560c084015160068401805491909316911617905560e082015180516126659160078401916020909101906131e8565b5061010082015180516126829160088401916020909101906131e8565b506101208201516009820180547fffffffffffffffffffffffff00000000000000000000000000000000000000001673ffffffffffffffffffffffffffffffffffffffff909216919091179055610140820151600a820155610160820151600b820155610180820151600c8201556101a090910151600d9091015560405189907ffcb9e66873133101ffdf745da3859e2b3736909576d4d11d6982e3e0e19d97549061272f9084906135a7565b60405180910390a2505050505050505050565b60006110306004612c52565b7fc9fc9949603a50f5cc3a96f774f1d68287789a241d2082dc81d0fb19a53bcf2b6127788161295f565b600080547fffffffffffffffffffffffff00000000000000000000000000000000000000001673ffffffffffffffffffffffffffffffffffffffff84161790555050565b606060006127ca6004612c52565b84106127d75760006127ec565b836127e26004612c52565b6127ec9190613df4565b90506000838211156127fe5783612800565b815b905060008167ffffffffffffffff81111561281d5761281d61375c565b604051908082528060200260200182016040528015612846578160200160208202803683370190505b50905060005b82811015611ecc57612861611c728289613e07565b828281518110612873576128736139f7565b60209081029190910101528061288881613b5f565b91505061284c565b6000828152600260205260409020600101546128ab8161295f565b6107d68383612a72565b6000805473ffffffffffffffffffffffffffffffffffffffff16330361290057507fffffffffffffffffffffffffffffffffffffffffffffffffffffffffffffffec36013560601c90565b503390565b3390565b60007fffffffff0000000000000000000000000000000000000000000000000000000082167f4e2312e000000000000000000000000000000000000000000000000000000000148061072b575061072b82612c74565b6129708161296b612a68565b612d0b565b50565b600082815260026020908152604080832073ffffffffffffffffffffffffffffffffffffffff8516845290915290205460ff166108ac57600082815260026020908152604080832073ffffffffffffffffffffffffffffffffffffffff85168452909152902080547fffffffffffffffffffffffffffffffffffffffffffffffffffffffffffffff00166001179055612a0a612a68565b73ffffffffffffffffffffffffffffffffffffffff168173ffffffffffffffffffffffffffffffffffffffff16837f2f8788117e7eff1d82e926ec794901d17c78024a50270940304540a733656f0d60405160405180910390a45050565b60006110306128b5565b600082815260026020908152604080832073ffffffffffffffffffffffffffffffffffffffff8516845290915290205460ff16156108ac57600082815260026020908152604080832073ffffffffffffffffffffffffffffffffffffffff85168452909152902080547fffffffffffffffffffffffffffffffffffffffffffffffffffffffffffffff00169055612b07612a68565b73ffffffffffffffffffffffffffffffffffffffff168173ffffffffffffffffffffffffffffffffffffffff16837ff6391f5c32d9c69d2a47ea670b442974b53935d1edc7fd64eb21e047a839171b60405160405180910390a45050565b600081815260018301602052604081205415155b9392505050565b6040517f91d148540000000000000000000000000000000000000000000000000000000081527fc9eb32e43bf5ecbceacf00b32281dfc5d6d700a0db676ea26ccf938a385ac3f76004820152306024820152600090829073ffffffffffffffffffffffffffffffffffffffff8216906391d1485490604401602060405180830381865afa158015612c15573d6000803e3d6000fd5b505050506040513d601f19601f82011682018060405250810190612b799190613ac3565b60606000612b7983612ddd565b6000612b798383612e39565b600061072b825490565b6000612b798383612e63565b6000612b798383612f56565b60007fffffffff0000000000000000000000000000000000000000000000000000000082167f7965db0b00000000000000000000000000000000000000000000000000000000148061072b57507f01ffc9a7000000000000000000000000000000000000000000000000000000007fffffffff0000000000000000000000000000000000000000000000000000000083161461072b565b600082815260026020908152604080832073ffffffffffffffffffffffffffffffffffffffff8516845290915290205460ff166108ac57612d638173ffffffffffffffffffffffffffffffffffffffff166014612fa5565b612d6e836020612fa5565b604051602001612d7f929190613ec0565b604080517fffffffffffffffffffffffffffffffffffffffffffffffffffffffffffffffe0818403018152908290527f08c379a000000000000000000000000000000000000000000000000000000000825261089991600401613f41565b606081600001805480602002602001604051908101604052809291908181526020018280548015612e2d57602002820191906000526020600020905b815481526020019060010190808311612e19575b50505050509050919050565b6000826000018281548110612e5057612e506139f7565b9060005260206000200154905092915050565b60008181526001830160205260408120548015612f4c576000612e87600183613df4565b8554909150600090612e9b90600190613df4565b9050818114612f00576000866000018281548110612ebb57612ebb6139f7565b9060005260206000200154905080876000018481548110612ede57612ede6139f7565b6000918252602080832090910192909255918252600188019052604090208390555b8554869080612f1157612f11613f92565b60019003818190600052602060002001600090559055856001016000868152602001908152602001600020600090556001935050505061072b565b600091505061072b565b6000818152600183016020526040812054612f9d5750815460018181018455600084815260208082209093018490558454848252828601909352604090209190915561072b565b50600061072b565b60606000612fb4836002613fc1565b612fbf906002613e07565b67ffffffffffffffff811115612fd757612fd761375c565b6040519080825280601f01601f191660200182016040528015613001576020820181803683370190505b5090507f300000000000000000000000000000000000000000000000000000000000000081600081518110613038576130386139f7565b60200101907effffffffffffffffffffffffffffffffffffffffffffffffffffffffffffff1916908160001a9053507f78000000000000000000000000000000000000000000000000000000000000008160018151811061309b5761309b6139f7565b60200101907effffffffffffffffffffffffffffffffffffffffffffffffffffffffffffff1916908160001a90535060006130d7846002613fc1565b6130e2906001613e07565b90505b600181111561317f577f303132333435363738396162636465660000000000000000000000000000000085600f1660108110613123576131236139f7565b1a60f81b828281518110613139576131396139f7565b60200101907effffffffffffffffffffffffffffffffffffffffffffffffffffffffffffff1916908160001a90535060049490941c9361317881613ffe565b90506130e5565b508315612b79576040517f08c379a000000000000000000000000000000000000000000000000000000000815260206004820181905260248201527f537472696e67733a20686578206c656e67746820696e73756666696369656e746044820152606401610899565b828054828255906000526020600020908101928215613223579160200282015b82811115613223578251825591602001919060010190613208565b5061322f929150613233565b5090565b5b8082111561322f5760008155600101613234565b60006020828403121561325a57600080fd5b81357fffffffff0000000000000000000000000000000000000000000000000000000081168114612b7957600080fd5b60006020828403121561329c57600080fd5b5035919050565b600081518084526020808501945080840160005b838110156132d3578151875295820195908201906001016132b7565b509495945050505050565b602081526000612b7960208301846132a3565b803573ffffffffffffffffffffffffffffffffffffffff8116811461331557600080fd5b919050565b6000806040838503121561332d57600080fd5b8235915061333d602084016132f1565b90509250929050565b6000602080830181845280855180835260408601915060408160051b870101925083870160005b828110156133b9577fffffffffffffffffffffffffffffffffffffffffffffffffffffffffffffffc08886030184526133a78583516132a3565b9450928501929085019060010161336d565b5092979650505050505050565b6000602082840312156133d857600080fd5b612b79826132f1565b60006101c0825184526020830151613411602086018273ffffffffffffffffffffffffffffffffffffffff169052565b506040830151816040860152613429828601826132a3565b9150506060830151848203606086015261344382826132a3565b915050608083015161346d608086018273ffffffffffffffffffffffffffffffffffffffff169052565b5060a083015160a085015260c083015161349f60c086018273ffffffffffffffffffffffffffffffffffffffff169052565b5060e083015184820360e08601526134b782826132a3565b91505061010080840151858303828701526134d283826132a3565b92505050610120808401516134fe8287018273ffffffffffffffffffffffffffffffffffffffff169052565b50506101408381015190850152610160808401519085015261018080840151908501526101a09283015192909301919091525090565b6000602080830181845280855180835260408601915060408160051b870101925083870160005b828110156133b9577fffffffffffffffffffffffffffffffffffffffffffffffffffffffffffffffc08886030184526135958583516133e1565b9450928501929085019060010161355b565b602081526000612b7960208301846133e1565b600080600080606085870312156135d057600080fd5b6135d9856132f1565b9350602085013567ffffffffffffffff808211156135f657600080fd5b818701915087601f83011261360a57600080fd5b81358181111561361957600080fd5b8860208260051b850101111561362e57600080fd5b602083019550809450505050613646604086016132f1565b905092959194509250565b6000806040838503121561366457600080fd5b50508035926020909101359150565b6000806040838503121561368657600080fd5b61368f836132f1565b915061333d602084016132f1565b806040810183101561072b57600080fd5b6000806000806000806000610140888a0312156136ca57600080fd5b873596506136db8960208a0161369d565b9550606088013567ffffffffffffffff808211156136f857600080fd5b6137048b838c0161369d565b965060808a013591508082111561371a57600080fd5b506137278a828b0161369d565b9450506137378960a08a0161369d565b92506137468960e08a0161369d565b9150610120880135905092959891949750929550565b7f4e487b7100000000000000000000000000000000000000000000000000000000600052604160045260246000fd5b604051601f82017fffffffffffffffffffffffffffffffffffffffffffffffffffffffffffffffe016810167ffffffffffffffff811182821017156137d2576137d261375c565b604052919050565b600082601f8301126137eb57600080fd5b8135602067ffffffffffffffff8211156138075761380761375c565b8160051b61381682820161378b565b928352848101820192828101908785111561383057600080fd5b83870192505b8483101561384f57823582529183019190830190613836565b979650505050505050565b600082601f83011261386b57600080fd5b813567ffffffffffffffff8111156138855761388561375c565b6138b660207fffffffffffffffffffffffffffffffffffffffffffffffffffffffffffffffe0601f8401160161378b565b8181528460208386010111156138cb57600080fd5b816020850160208301376000918101602001919091529392505050565b600080600080600060a0868803121561390057600080fd5b613909866132f1565b9450613917602087016132f1565b9350604086013567ffffffffffffffff8082111561393457600080fd5b61394089838a016137da565b9450606088013591508082111561395657600080fd5b61396289838a016137da565b9350608088013591508082111561397857600080fd5b506139858882890161385a565b9150509295509295909350565b600080600080600060a086880312156139aa57600080fd5b6139b3866132f1565b94506139c1602087016132f1565b93506040860135925060608601359150608086013567ffffffffffffffff8111156139eb57600080fd5b6139858882890161385a565b7f4e487b7100000000000000000000000000000000000000000000000000000000600052603260045260246000fd5b6000815480845260208085019450836000528060002060005b838110156132d357815487529582019560019182019101613a3f565b600073ffffffffffffffffffffffffffffffffffffffff808716835280861660208401525060a06040830152613a9460a0830185613a26565b8281036060840152613aa68185613a26565b838103608090940193909352505060008152602001949350505050565b600060208284031215613ad557600080fd5b81518015158114612b7957600080fd5b73ffffffffffffffffffffffffffffffffffffffff84168152606060208201526000613b146060830185613a26565b8281036040840152613b268185613a26565b9695505050505050565b7f4e487b7100000000000000000000000000000000000000000000000000000000600052601160045260246000fd5b60007fffffffffffffffffffffffffffffffffffffffffffffffffffffffffffffffff8203613b9057613b90613b30565b5060010190565b60006101c082548452613bc1600184015473ffffffffffffffffffffffffffffffffffffffff1690565b73ffffffffffffffffffffffffffffffffffffffff16602085015260408401819052613bf281850160028501613a26565b90508381036060850152613c098160038501613a26565b9050613c2c600484015473ffffffffffffffffffffffffffffffffffffffff1690565b73ffffffffffffffffffffffffffffffffffffffff9081166080860152600584015460a086015260068401541660c085015283810360e0850152613c738160078501613a26565b9050838103610100850152613c8b8160088501613a26565b9050613cae600984015473ffffffffffffffffffffffffffffffffffffffff1690565b73ffffffffffffffffffffffffffffffffffffffff16610120850152600a830154610140850152600b830154610160850152600c830154610180850152600d909201546101a090930192909252919050565b604081526000613d136040830185613b97565b905073ffffffffffffffffffffffffffffffffffffffff831660208301529392505050565b600060208284031215613d4a57600080fd5b5051919050565b600073ffffffffffffffffffffffffffffffffffffffff808816835280871660208401525060a060408301528360a08301527f07ffffffffffffffffffffffffffffffffffffffffffffffffffffffffffffff841115613db057600080fd5b8360051b808660c0850137820182810360c09081016060850152613dd6908201856132a3565b83810360809094019390935250506000815260200195945050505050565b8181038181111561072b5761072b613b30565b8082018082111561072b5761072b613b30565b602081526000612b796020830184613b97565b60008083357fffffffffffffffffffffffffffffffffffffffffffffffffffffffffffffffe1843603018112613e6257600080fd5b83018035915067ffffffffffffffff821115613e7d57600080fd5b6020019150600581901b3603821315613e9557600080fd5b9250929050565b60005b83811015613eb7578181015183820152602001613e9f565b50506000910152565b7f416363657373436f6e74726f6c3a206163636f756e7420000000000000000000815260008351613ef8816017850160208801613e9c565b7f206973206d697373696e6720726f6c65200000000000000000000000000000006017918401918201528351613f35816028840160208801613e9c565b01602801949350505050565b6020815260008251806020840152613f60816040850160208701613e9c565b601f017fffffffffffffffffffffffffffffffffffffffffffffffffffffffffffffffe0169190910160400192915050565b7f4e487b7100000000000000000000000000000000000000000000000000000000600052603160045260246000fd5b6000817fffffffffffffffffffffffffffffffffffffffffffffffffffffffffffffffff0483118215151615613ff957613ff9613b30565b500290565b60008161400d5761400d613b30565b507fffffffffffffffffffffffffffffffffffffffffffffffffffffffffffffffff019056fea26469706673582212203129c5ba9f4a2b55febe013de532ea707cac2d958898851e7150acdbdf15ea5564736f6c63430008100033",
  "linkReferences": {},
  "deployedLinkReferences": {}
}