{
  "_format": "hh-sol-artifact-1",
  "contractName": "Game_Shop",
  "sourceName": "contracts/Shop/Game_Shop.sol",
  "abi": [
    {
      "inputs": [
        {
          "internalType": "address",
          "name": "_forwarder",
          "type": "address"
        },
        {
          "internalType": "bytes32",
          "name": "_systemId",
          "type": "bytes32"
        }
      ],
      "stateMutability": "nonpayable",
      "type": "constructor"
    },
    {
      "anonymous": false,
      "inputs": [
        {
          "indexed": true,
          "internalType": "uint256",
          "name": "offerId",
          "type": "uint256"
        },
        {
          "components": [
            {
              "internalType": "uint256",
              "name": "id",
              "type": "uint256"
            },
            {
              "internalType": "contract IERC1155",
              "name": "inputCollection",
              "type": "address"
            },
            {
              "internalType": "uint256[]",
              "name": "inputCollectionItemIds",
              "type": "uint256[]"
            },
            {
              "internalType": "uint256[]",
              "name": "inputCollectionItemAmounts",
              "type": "uint256[]"
            },
            {
              "internalType": "contract IERC20",
              "name": "inputCurrency",
              "type": "address"
            },
            {
              "internalType": "uint256",
              "name": "inputCurrencyAmount",
              "type": "uint256"
            },
            {
              "internalType": "contract IERC1155",
              "name": "outputCollection",
              "type": "address"
            },
            {
              "internalType": "uint256[]",
              "name": "outputCollectionItemIds",
              "type": "uint256[]"
            },
            {
              "internalType": "uint256[]",
              "name": "outputCollectionItemAmounts",
              "type": "uint256[]"
            },
            {
              "internalType": "contract IERC20",
              "name": "outputCurrency",
              "type": "address"
            },
            {
              "internalType": "uint256",
              "name": "outputCurrencyAmount",
              "type": "uint256"
            },
            {
              "internalType": "uint256",
              "name": "uses",
              "type": "uint256"
            },
            {
              "internalType": "uint256",
              "name": "maxUses",
              "type": "uint256"
            },
            {
              "internalType": "uint256",
              "name": "lastUpdatedAt",
              "type": "uint256"
            }
          ],
          "indexed": false,
          "internalType": "struct IGame_Shop.Offer",
          "name": "offer",
          "type": "tuple"
        }
      ],
      "name": "OfferRemoved",
      "type": "event"
    },
    {
      "anonymous": false,
      "inputs": [
        {
          "indexed": true,
          "internalType": "uint256",
          "name": "offerId",
          "type": "uint256"
        },
        {
          "components": [
            {
              "internalType": "uint256",
              "name": "id",
              "type": "uint256"
            },
            {
              "internalType": "contract IERC1155",
              "name": "inputCollection",
              "type": "address"
            },
            {
              "internalType": "uint256[]",
              "name": "inputCollectionItemIds",
              "type": "uint256[]"
            },
            {
              "internalType": "uint256[]",
              "name": "inputCollectionItemAmounts",
              "type": "uint256[]"
            },
            {
              "internalType": "contract IERC20",
              "name": "inputCurrency",
              "type": "address"
            },
            {
              "internalType": "uint256",
              "name": "inputCurrencyAmount",
              "type": "uint256"
            },
            {
              "internalType": "contract IERC1155",
              "name": "outputCollection",
              "type": "address"
            },
            {
              "internalType": "uint256[]",
              "name": "outputCollectionItemIds",
              "type": "uint256[]"
            },
            {
              "internalType": "uint256[]",
              "name": "outputCollectionItemAmounts",
              "type": "uint256[]"
            },
            {
              "internalType": "contract IERC20",
              "name": "outputCurrency",
              "type": "address"
            },
            {
              "internalType": "uint256",
              "name": "outputCurrencyAmount",
              "type": "uint256"
            },
            {
              "internalType": "uint256",
              "name": "uses",
              "type": "uint256"
            },
            {
              "internalType": "uint256",
              "name": "maxUses",
              "type": "uint256"
            },
            {
              "internalType": "uint256",
              "name": "lastUpdatedAt",
              "type": "uint256"
            }
          ],
          "indexed": false,
          "internalType": "struct IGame_Shop.Offer",
          "name": "offer",
          "type": "tuple"
        }
      ],
      "name": "OfferSet",
      "type": "event"
    },
    {
      "anonymous": false,
      "inputs": [
        {
          "indexed": true,
          "internalType": "uint256",
          "name": "offerId",
          "type": "uint256"
        },
        {
          "components": [
            {
              "internalType": "uint256",
              "name": "id",
              "type": "uint256"
            },
            {
              "internalType": "contract IERC1155",
              "name": "inputCollection",
              "type": "address"
            },
            {
              "internalType": "uint256[]",
              "name": "inputCollectionItemIds",
              "type": "uint256[]"
            },
            {
              "internalType": "uint256[]",
              "name": "inputCollectionItemAmounts",
              "type": "uint256[]"
            },
            {
              "internalType": "contract IERC20",
              "name": "inputCurrency",
              "type": "address"
            },
            {
              "internalType": "uint256",
              "name": "inputCurrencyAmount",
              "type": "uint256"
            },
            {
              "internalType": "contract IERC1155",
              "name": "outputCollection",
              "type": "address"
            },
            {
              "internalType": "uint256[]",
              "name": "outputCollectionItemIds",
              "type": "uint256[]"
            },
            {
              "internalType": "uint256[]",
              "name": "outputCollectionItemAmounts",
              "type": "uint256[]"
            },
            {
              "internalType": "contract IERC20",
              "name": "outputCurrency",
              "type": "address"
            },
            {
              "internalType": "uint256",
              "name": "outputCurrencyAmount",
              "type": "uint256"
            },
            {
              "internalType": "uint256",
              "name": "uses",
              "type": "uint256"
            },
            {
              "internalType": "uint256",
              "name": "maxUses",
              "type": "uint256"
            },
            {
              "internalType": "uint256",
              "name": "lastUpdatedAt",
              "type": "uint256"
            }
          ],
          "indexed": false,
          "internalType": "struct IGame_Shop.Offer",
          "name": "offer",
          "type": "tuple"
        },
        {
          "indexed": false,
          "internalType": "uint256",
          "name": "times",
          "type": "uint256"
        },
        {
          "indexed": false,
          "internalType": "address",
          "name": "user",
          "type": "address"
        }
      ],
      "name": "OfferUsed",
      "type": "event"
    },
    {
      "anonymous": false,
      "inputs": [
        {
          "indexed": true,
          "internalType": "bytes32",
          "name": "role",
          "type": "bytes32"
        },
        {
          "indexed": true,
          "internalType": "bytes32",
          "name": "previousAdminRole",
          "type": "bytes32"
        },
        {
          "indexed": true,
          "internalType": "bytes32",
          "name": "newAdminRole",
          "type": "bytes32"
        }
      ],
      "name": "RoleAdminChanged",
      "type": "event"
    },
    {
      "anonymous": false,
      "inputs": [
        {
          "indexed": true,
          "internalType": "bytes32",
          "name": "role",
          "type": "bytes32"
        },
        {
          "indexed": true,
          "internalType": "address",
          "name": "account",
          "type": "address"
        },
        {
          "indexed": true,
          "internalType": "address",
          "name": "sender",
          "type": "address"
        }
      ],
      "name": "RoleGranted",
      "type": "event"
    },
    {
      "anonymous": false,
      "inputs": [
        {
          "indexed": true,
          "internalType": "bytes32",
          "name": "role",
          "type": "bytes32"
        },
        {
          "indexed": true,
          "internalType": "address",
          "name": "account",
          "type": "address"
        },
        {
          "indexed": true,
          "internalType": "address",
          "name": "sender",
          "type": "address"
        }
      ],
      "name": "RoleRevoked",
      "type": "event"
    },
    {
      "inputs": [],
      "name": "DEFAULT_ADMIN_ROLE",
      "outputs": [
        {
          "internalType": "bytes32",
          "name": "",
          "type": "bytes32"
        }
      ],
      "stateMutability": "view",
      "type": "function"
    },
    {
      "inputs": [
        {
          "internalType": "bytes32",
          "name": "_systemId",
          "type": "bytes32"
        }
      ],
      "name": "addSystemId",
      "outputs": [],
      "stateMutability": "nonpayable",
      "type": "function"
    },
    {
      "inputs": [],
      "name": "allOfferIds",
      "outputs": [
        {
          "internalType": "uint256[]",
          "name": "",
          "type": "uint256[]"
        }
      ],
      "stateMutability": "view",
      "type": "function"
    },
    {
      "inputs": [],
      "name": "allOfferLastUpdates",
      "outputs": [
        {
          "internalType": "uint256[][]",
          "name": "",
          "type": "uint256[][]"
        }
      ],
      "stateMutability": "view",
      "type": "function"
    },
    {
      "inputs": [],
      "name": "allOffers",
      "outputs": [
        {
          "components": [
            {
              "internalType": "uint256",
              "name": "id",
              "type": "uint256"
            },
            {
              "internalType": "contract IERC1155",
              "name": "inputCollection",
              "type": "address"
            },
            {
              "internalType": "uint256[]",
              "name": "inputCollectionItemIds",
              "type": "uint256[]"
            },
            {
              "internalType": "uint256[]",
              "name": "inputCollectionItemAmounts",
              "type": "uint256[]"
            },
            {
              "internalType": "contract IERC20",
              "name": "inputCurrency",
              "type": "address"
            },
            {
              "internalType": "uint256",
              "name": "inputCurrencyAmount",
              "type": "uint256"
            },
            {
              "internalType": "contract IERC1155",
              "name": "outputCollection",
              "type": "address"
            },
            {
              "internalType": "uint256[]",
              "name": "outputCollectionItemIds",
              "type": "uint256[]"
            },
            {
              "internalType": "uint256[]",
              "name": "outputCollectionItemAmounts",
              "type": "uint256[]"
            },
            {
              "internalType": "contract IERC20",
              "name": "outputCurrency",
              "type": "address"
            },
            {
              "internalType": "uint256",
              "name": "outputCurrencyAmount",
              "type": "uint256"
            },
            {
              "internalType": "uint256",
              "name": "uses",
              "type": "uint256"
            },
            {
              "internalType": "uint256",
              "name": "maxUses",
              "type": "uint256"
            },
            {
              "internalType": "uint256",
              "name": "lastUpdatedAt",
              "type": "uint256"
            }
          ],
          "internalType": "struct IGame_Shop.Offer[]",
          "name": "",
          "type": "tuple[]"
        }
      ],
      "stateMutability": "view",
      "type": "function"
    },
    {
      "inputs": [
        {
          "internalType": "bytes32",
          "name": "role",
          "type": "bytes32"
        }
      ],
      "name": "getRoleAdmin",
      "outputs": [
        {
          "internalType": "bytes32",
          "name": "",
          "type": "bytes32"
        }
      ],
      "stateMutability": "view",
      "type": "function"
    },
    {
      "inputs": [
        {
          "internalType": "bytes32",
          "name": "_role",
          "type": "bytes32"
        },
        {
          "internalType": "address",
          "name": "_account",
          "type": "address"
        }
      ],
      "name": "grantRole",
      "outputs": [],
      "stateMutability": "nonpayable",
      "type": "function"
    },
    {
      "inputs": [
        {
          "internalType": "bytes32",
          "name": "role",
          "type": "bytes32"
        },
        {
          "internalType": "address",
          "name": "account",
          "type": "address"
        }
      ],
      "name": "hasRole",
      "outputs": [
        {
          "internalType": "bool",
          "name": "",
          "type": "bool"
        }
      ],
      "stateMutability": "view",
      "type": "function"
    },
    {
      "inputs": [
        {
          "internalType": "address",
          "name": "forwarder",
          "type": "address"
        }
      ],
      "name": "isTrustedForwarder",
      "outputs": [
        {
          "internalType": "bool",
          "name": "",
          "type": "bool"
        }
      ],
      "stateMutability": "view",
      "type": "function"
    },
    {
      "inputs": [
        {
          "internalType": "uint256",
          "name": "_offerId",
          "type": "uint256"
        }
      ],
      "name": "offer",
      "outputs": [
        {
          "components": [
            {
              "internalType": "uint256",
              "name": "id",
              "type": "uint256"
            },
            {
              "internalType": "contract IERC1155",
              "name": "inputCollection",
              "type": "address"
            },
            {
              "internalType": "uint256[]",
              "name": "inputCollectionItemIds",
              "type": "uint256[]"
            },
            {
              "internalType": "uint256[]",
              "name": "inputCollectionItemAmounts",
              "type": "uint256[]"
            },
            {
              "internalType": "contract IERC20",
              "name": "inputCurrency",
              "type": "address"
            },
            {
              "internalType": "uint256",
              "name": "inputCurrencyAmount",
              "type": "uint256"
            },
            {
              "internalType": "contract IERC1155",
              "name": "outputCollection",
              "type": "address"
            },
            {
              "internalType": "uint256[]",
              "name": "outputCollectionItemIds",
              "type": "uint256[]"
            },
            {
              "internalType": "uint256[]",
              "name": "outputCollectionItemAmounts",
              "type": "uint256[]"
            },
            {
              "internalType": "contract IERC20",
              "name": "outputCurrency",
              "type": "address"
            },
            {
              "internalType": "uint256",
              "name": "outputCurrencyAmount",
              "type": "uint256"
            },
            {
              "internalType": "uint256",
              "name": "uses",
              "type": "uint256"
            },
            {
              "internalType": "uint256",
              "name": "maxUses",
              "type": "uint256"
            },
            {
              "internalType": "uint256",
              "name": "lastUpdatedAt",
              "type": "uint256"
            }
          ],
          "internalType": "struct IGame_Shop.Offer",
          "name": "",
          "type": "tuple"
        }
      ],
      "stateMutability": "view",
      "type": "function"
    },
    {
      "inputs": [
        {
          "internalType": "uint256",
          "name": "_index",
          "type": "uint256"
        }
      ],
      "name": "offerId",
      "outputs": [
        {
          "internalType": "uint256",
          "name": "",
          "type": "uint256"
        }
      ],
      "stateMutability": "view",
      "type": "function"
    },
    {
      "inputs": [
        {
          "internalType": "uint256",
          "name": "_offerId",
          "type": "uint256"
        }
      ],
      "name": "offerLastUpdate",
      "outputs": [
        {
          "internalType": "uint256[]",
          "name": "",
          "type": "uint256[]"
        }
      ],
      "stateMutability": "view",
      "type": "function"
    },
    {
      "inputs": [
        {
          "internalType": "address",
          "name": "",
          "type": "address"
        },
        {
          "internalType": "address",
          "name": "",
          "type": "address"
        },
        {
          "internalType": "uint256[]",
          "name": "",
          "type": "uint256[]"
        },
        {
          "internalType": "uint256[]",
          "name": "",
          "type": "uint256[]"
        },
        {
          "internalType": "bytes",
          "name": "",
          "type": "bytes"
        }
      ],
      "name": "onERC1155BatchReceived",
      "outputs": [
        {
          "internalType": "bytes4",
          "name": "",
          "type": "bytes4"
        }
      ],
      "stateMutability": "nonpayable",
      "type": "function"
    },
    {
      "inputs": [
        {
          "internalType": "address",
          "name": "",
          "type": "address"
        },
        {
          "internalType": "address",
          "name": "",
          "type": "address"
        },
        {
          "internalType": "uint256",
          "name": "",
          "type": "uint256"
        },
        {
          "internalType": "uint256",
          "name": "",
          "type": "uint256"
        },
        {
          "internalType": "bytes",
          "name": "",
          "type": "bytes"
        }
      ],
      "name": "onERC1155Received",
      "outputs": [
        {
          "internalType": "bytes4",
          "name": "",
          "type": "bytes4"
        }
      ],
      "stateMutability": "nonpayable",
      "type": "function"
    },
    {
      "inputs": [
        {
          "internalType": "uint256",
          "name": "_startIndexInclusive",
          "type": "uint256"
        },
        {
          "internalType": "uint256",
          "name": "_limit",
          "type": "uint256"
        }
      ],
      "name": "paginateOfferIds",
      "outputs": [
        {
          "internalType": "uint256[]",
          "name": "",
          "type": "uint256[]"
        }
      ],
      "stateMutability": "view",
      "type": "function"
    },
    {
      "inputs": [
        {
          "internalType": "uint256",
          "name": "_startIndexInclusive",
          "type": "uint256"
        },
        {
          "internalType": "uint256",
          "name": "_limit",
          "type": "uint256"
        }
      ],
      "name": "paginateOfferLastUpdates",
      "outputs": [
        {
          "internalType": "uint256[][]",
          "name": "",
          "type": "uint256[][]"
        }
      ],
      "stateMutability": "view",
      "type": "function"
    },
    {
      "inputs": [
        {
          "internalType": "uint256",
          "name": "_startIndexInclusive",
          "type": "uint256"
        },
        {
          "internalType": "uint256",
          "name": "_limit",
          "type": "uint256"
        }
      ],
      "name": "paginateOffers",
      "outputs": [
        {
          "components": [
            {
              "internalType": "uint256",
              "name": "id",
              "type": "uint256"
            },
            {
              "internalType": "contract IERC1155",
              "name": "inputCollection",
              "type": "address"
            },
            {
              "internalType": "uint256[]",
              "name": "inputCollectionItemIds",
              "type": "uint256[]"
            },
            {
              "internalType": "uint256[]",
              "name": "inputCollectionItemAmounts",
              "type": "uint256[]"
            },
            {
              "internalType": "contract IERC20",
              "name": "inputCurrency",
              "type": "address"
            },
            {
              "internalType": "uint256",
              "name": "inputCurrencyAmount",
              "type": "uint256"
            },
            {
              "internalType": "contract IERC1155",
              "name": "outputCollection",
              "type": "address"
            },
            {
              "internalType": "uint256[]",
              "name": "outputCollectionItemIds",
              "type": "uint256[]"
            },
            {
              "internalType": "uint256[]",
              "name": "outputCollectionItemAmounts",
              "type": "uint256[]"
            },
            {
              "internalType": "contract IERC20",
              "name": "outputCurrency",
              "type": "address"
            },
            {
              "internalType": "uint256",
              "name": "outputCurrencyAmount",
              "type": "uint256"
            },
            {
              "internalType": "uint256",
              "name": "uses",
              "type": "uint256"
            },
            {
              "internalType": "uint256",
              "name": "maxUses",
              "type": "uint256"
            },
            {
              "internalType": "uint256",
              "name": "lastUpdatedAt",
              "type": "uint256"
            }
          ],
          "internalType": "struct IGame_Shop.Offer[]",
          "name": "",
          "type": "tuple[]"
        }
      ],
      "stateMutability": "view",
      "type": "function"
    },
    {
      "inputs": [
        {
          "internalType": "uint256",
          "name": "_offerId",
          "type": "uint256"
        }
      ],
      "name": "removeOffer",
      "outputs": [],
      "stateMutability": "nonpayable",
      "type": "function"
    },
    {
      "inputs": [
        {
          "internalType": "bytes32",
          "name": "_systemId",
          "type": "bytes32"
        }
      ],
      "name": "removeSystemId",
      "outputs": [],
      "stateMutability": "nonpayable",
      "type": "function"
    },
    {
      "inputs": [
        {
          "internalType": "bytes32",
          "name": "role",
          "type": "bytes32"
        },
        {
          "internalType": "address",
          "name": "account",
          "type": "address"
        }
      ],
      "name": "renounceRole",
      "outputs": [],
      "stateMutability": "nonpayable",
      "type": "function"
    },
    {
      "inputs": [
        {
          "internalType": "bytes32",
          "name": "role",
          "type": "bytes32"
        },
        {
          "internalType": "address",
          "name": "account",
          "type": "address"
        }
      ],
      "name": "revokeRole",
      "outputs": [],
      "stateMutability": "nonpayable",
      "type": "function"
    },
    {
      "inputs": [
        {
          "internalType": "uint256",
          "name": "_offerId",
          "type": "uint256"
        },
        {
          "internalType": "address[2]",
          "name": "_inputOutputCollections",
          "type": "address[2]"
        },
        {
          "internalType": "uint256[][2]",
          "name": "_inputOutputCollectionItemIds",
          "type": "uint256[][2]"
        },
        {
          "internalType": "uint256[][2]",
          "name": "_inputOutputCollectionItemAmounts",
          "type": "uint256[][2]"
        },
        {
          "internalType": "address[2]",
          "name": "_inputOutputCurrency",
          "type": "address[2]"
        },
        {
          "internalType": "uint256[2]",
          "name": "_inputOutputCurrencyAmounts",
          "type": "uint256[2]"
        },
        {
          "internalType": "uint256",
          "name": "_maxUses",
          "type": "uint256"
        }
      ],
      "name": "setOffer",
      "outputs": [],
      "stateMutability": "nonpayable",
      "type": "function"
    },
    {
      "inputs": [],
      "name": "supportedSystemIds",
      "outputs": [
        {
          "internalType": "bytes32[]",
          "name": "",
          "type": "bytes32[]"
        }
      ],
      "stateMutability": "view",
      "type": "function"
    },
    {
      "inputs": [
        {
          "internalType": "bytes4",
          "name": "interfaceId",
          "type": "bytes4"
        }
      ],
      "name": "supportsInterface",
      "outputs": [
        {
          "internalType": "bool",
          "name": "",
          "type": "bool"
        }
      ],
      "stateMutability": "view",
      "type": "function"
    },
    {
      "inputs": [
        {
          "internalType": "bytes32",
          "name": "_systemId",
          "type": "bytes32"
        }
      ],
      "name": "supportsSystemId",
      "outputs": [
        {
          "internalType": "bool",
          "name": "",
          "type": "bool"
        }
      ],
      "stateMutability": "view",
      "type": "function"
    },
    {
      "inputs": [],
      "name": "systemId",
      "outputs": [
        {
          "internalType": "bytes32",
          "name": "",
          "type": "bytes32"
        }
      ],
      "stateMutability": "view",
      "type": "function"
    },
    {
      "inputs": [],
      "name": "totalOffers",
      "outputs": [
        {
          "internalType": "uint256",
          "name": "",
          "type": "uint256"
        }
      ],
      "stateMutability": "view",
      "type": "function"
    },
    {
      "inputs": [
        {
          "internalType": "address",
          "name": "_newOwner",
          "type": "address"
        }
      ],
      "name": "transferOwnershipControl",
      "outputs": [],
      "stateMutability": "nonpayable",
      "type": "function"
    },
    {
      "inputs": [],
      "name": "trustedForwarder",
      "outputs": [
        {
          "internalType": "address",
          "name": "",
          "type": "address"
        }
      ],
      "stateMutability": "view",
      "type": "function"
    },
    {
      "inputs": [
        {
          "internalType": "address",
          "name": "_newTrustedForwarder",
          "type": "address"
        }
      ],
      "name": "upgradeTrustedForwarder",
      "outputs": [],
      "stateMutability": "nonpayable",
      "type": "function"
    },
    {
      "inputs": [
        {
          "internalType": "uint256",
          "name": "_offerId",
          "type": "uint256"
        }
      ],
      "name": "useOffer",
      "outputs": [],
      "stateMutability": "payable",
      "type": "function"
    },
    {
      "inputs": [
        {
          "internalType": "uint256",
          "name": "_offerId",
          "type": "uint256"
        },
        {
          "internalType": "uint256",
          "name": "_times",
          "type": "uint256"
        }
      ],
      "name": "useOfferMulti",
      "outputs": [],
      "stateMutability": "payable",
      "type": "function"
    },
    {
      "inputs": [
        {
          "internalType": "address",
          "name": "_currencyAddress",
          "type": "address"
        },
        {
          "internalType": "address",
          "name": "_to",
          "type": "address"
        }
      ],
      "name": "withdrawCurrencyTo",
      "outputs": [],
      "stateMutability": "nonpayable",
      "type": "function"
    },
    {
      "inputs": [
        {
          "internalType": "address",
          "name": "_collectionAddress",
          "type": "address"
        },
        {
          "internalType": "uint256[]",
          "name": "_itemIds",
          "type": "uint256[]"
        },
        {
          "internalType": "address",
          "name": "_to",
          "type": "address"
        }
      ],
      "name": "withdrawItemsTo",
      "outputs": [],
      "stateMutability": "nonpayable",
      "type": "function"
    },
    {
      "inputs": [
        {
          "internalType": "address",
          "name": "_to",
          "type": "address"
        }
      ],
      "name": "withdrawTo",
      "outputs": [],
      "stateMutability": "nonpayable",
      "type": "function"
    },
    {
      "stateMutability": "payable",
      "type": "receive"
    }
  ],
  "bytecode": "0x60806040523480156200001157600080fd5b50604051620048ee380380620048ee833981016040819052620000349162000234565b600080546001600160a01b0319166001600160a01b0384161790558062000069600182620000bf602090811b620024e217901c565b50600355600160055562000088600062000082620000d6565b620000f2565b620000b77f5b618ab2fee761c09bf71319707cefa62eccc93dcc483744898e6c3acf45264362000082620000d6565b505062000270565b6000620000cd838362000102565b90505b92915050565b6000620000ed6200015460201b620024f51760201c565b905090565b620000fe82826200018a565b5050565b60008181526001830160205260408120546200014b57508154600181810184556000848152602080822090930184905584548482528286019093526040902091909155620000d0565b506000620000d0565b600080546001600160a01b0316330362000175575060131936013560601c90565b620000ed6200023060201b620025451760201c565b60008281526004602090815260408083206001600160a01b038516845290915290205460ff16620000fe5760008281526004602090815260408083206001600160a01b03851684529091529020805460ff19166001179055620001ec620000d6565b6001600160a01b0316816001600160a01b0316837f2f8788117e7eff1d82e926ec794901d17c78024a50270940304540a733656f0d60405160405180910390a45050565b3390565b600080604083850312156200024857600080fd5b82516001600160a01b03811681146200026057600080fd5b6020939093015192949293505050565b61466e80620002806000396000f3fe6080604052600436106102385760003560e01c80637f413af211610138578063a9fd8ed1116100b0578063bf2424c31161007f578063cdf1917411610064578063cdf191741461072a578063d547741f1461074a578063f23a6e611461076a57600080fd5b8063bf2424c3146106e8578063cd11fa461461070857600080fd5b8063a9fd8ed11461061d578063aa2a7eea14610632578063b53f3c0114610652578063bc197c811461067257600080fd5b806391d14854116101075780639c66b063116100ec5780639c66b063146105d55780639d77759c146105f5578063a217fddf1461060857600080fd5b806391d148541461056257806395a0f9c7146105b557600080fd5b80637f413af2146104e257806382335ab01461050257806389fe7c3b146105225780638b8395021461054257600080fd5b806349fe0367116101cb578063687c08dd1161019a57806374d333531161017f57806374d3335314610443578063761610fc146104635780637da0a8771461049057600080fd5b8063687c08dd1461040157806372b0d90c1461042357600080fd5b806349fe03671461037b578063500ceb481461038e57806351a30c65146103a3578063572b6c05146103c557600080fd5b80632f2ff15d116102075780632f2ff15d1461030657806336568abe1461032657806339f898bc146103465780634252ac3f1461035b57600080fd5b806301ffc9a71461024457806306313ac0146102795780631675187c1461029b578063248a9ca3146102c857600080fd5b3661023f57005b600080fd5b34801561025057600080fd5b5061026461025f366004613802565b6107af565b60405190151581526020015b60405180910390f35b34801561028557600080fd5b50610299610294366004613844565b610857565b005b3480156102a757600080fd5b506102bb6102b6366004613844565b610866565b6040516102709190613898565b3480156102d457600080fd5b506102f86102e3366004613844565b60009081526004602052604090206001015490565b604051908152602001610270565b34801561031257600080fd5b506102996103213660046138d4565b6108e6565b34801561033257600080fd5b506102996103413660046138d4565b610a8e565b34801561035257600080fd5b506003546102f8565b34801561036757600080fd5b50610299610376366004613900565b610b5a565b610299610389366004613844565b610b82565b34801561039a57600080fd5b506102bb610ba2565b3480156103af57600080fd5b506103b8610bb3565b604051610270919061391b565b3480156103d157600080fd5b506102646103e0366004613900565b60005473ffffffffffffffffffffffffffffffffffffffff91821691161490565b34801561040d57600080fd5b50610416610c63565b6040516102709190613aee565b34801561042f57600080fd5b5061029961043e366004613900565b610ff8565b34801561044f57600080fd5b506102f861045e366004613844565b611069565b34801561046f57600080fd5b5061048361047e366004613844565b6110e8565b6040516102709190613b61565b34801561049c57600080fd5b506000546104bd9073ffffffffffffffffffffffffffffffffffffffff1681565b60405173ffffffffffffffffffffffffffffffffffffffff9091168152602001610270565b3480156104ee57600080fd5b506102996104fd366004613b74565b61146f565b34801561050e57600080fd5b5061041661051d366004613c0b565b61167a565b34801561052e57600080fd5b506103b861053d366004613c0b565b611a59565b34801561054e57600080fd5b5061029961055d366004613c2d565b611b3b565b34801561056e57600080fd5b5061026461057d3660046138d4565b600091825260046020908152604080842073ffffffffffffffffffffffffffffffffffffffff93909316845291905290205460ff1690565b3480156105c157600080fd5b506102996105d0366004613844565b611c9a565b3480156105e157600080fd5b506102996105f0366004613c68565b611d25565b610299610603366004613c0b565b6122c5565b34801561061457600080fd5b506102f8600081565b34801561062957600080fd5b506102f861234b565b34801561063e57600080fd5b5061029961064d366004613900565b612357565b34801561065e57600080fd5b5061029961066d366004613844565b6123c5565b34801561067e57600080fd5b506106b761068d366004613ea2565b7fbc197c810000000000000000000000000000000000000000000000000000000095945050505050565b6040517fffffffff000000000000000000000000000000000000000000000000000000009091168152602001610270565b3480156106f457600080fd5b50610264610703366004613844565b6123d0565b34801561071457600080fd5b5061071d6123dd565b6040516102709190613f4c565b34801561073657600080fd5b506102bb610745366004613c0b565b6123e9565b34801561075657600080fd5b506102996107653660046138d4565b6124bd565b34801561077657600080fd5b506106b7610785366004613f90565b7ff23a6e610000000000000000000000000000000000000000000000000000000095945050505050565b60007fffffffff0000000000000000000000000000000000000000000000000000000082167f0bcd089100000000000000000000000000000000000000000000000000000000148061084257507fffffffff0000000000000000000000000000000000000000000000000000000082167f4e2312e000000000000000000000000000000000000000000000000000000000145b80610851575061085182612549565b92915050565b61086260018261259f565b5050565b60408051600280825260608083018452926000929190602083019080368337019050509050828160008151811061089f5761089f613ff5565b60200260200101818152505060086000848152602001908152602001600020600d0154816001815181106108d5576108d5613ff5565b602090810291909101015292915050565b60006108f48161057d6125ab565b905060006109247f5b618ab2fee761c09bf71319707cefa62eccc93dcc483744898e6c3acf45264361057d6125ab565b9050818061092f5750805b6109c0576040517f08c379a000000000000000000000000000000000000000000000000000000000815260206004820152602d60248201527f526f6c65206772616e74696e672072657175697265732061646d696e206f722060448201527f6d616e6167657220726f6c652e0000000000000000000000000000000000000060648201526084015b60405180910390fd5b8315806109ec57507f5b618ab2fee761c09bf71319707cefa62eccc93dcc483744898e6c3acf45264384145b15610a7e5781610a7e576040517f08c379a000000000000000000000000000000000000000000000000000000000815260206004820152602b60248201527f4f6e6c792061646d696e2063616e206772616e742061646d696e206f72206d6160448201527f6e6167657220726f6c652e00000000000000000000000000000000000000000060648201526084016109b7565b610a8884846125b5565b50505050565b610a966125ab565b73ffffffffffffffffffffffffffffffffffffffff168173ffffffffffffffffffffffffffffffffffffffff1614610b50576040517f08c379a000000000000000000000000000000000000000000000000000000000815260206004820152602f60248201527f416363657373436f6e74726f6c3a2063616e206f6e6c792072656e6f756e636560448201527f20726f6c657320666f722073656c66000000000000000000000000000000000060648201526084016109b7565b61086282826126aa565b6000610b658161279d565b610b706000836125b5565b6108626000610b7d6125ab565b6126aa565b610b8a6127ae565b610b95816001612821565b610b9f6001600555565b50565b6060610bae6006613072565b905090565b60606000610bbf61234b565b67ffffffffffffffff811115610bd757610bd7613d16565b604051908082528060200260200182016040528015610c0a57816020015b6060815260200190600190039081610bf55790505b50905060005b610c1861234b565b811015610c5d57610c2d6102b660068361307f565b828281518110610c3f57610c3f613ff5565b60200260200101819052508080610c5590614053565b915050610c10565b50919050565b60606000610c6f61234b565b67ffffffffffffffff811115610c8757610c87613d16565b604051908082528060200260200182016040528015610d8257816020015b610d6f604051806101c0016040528060008152602001600073ffffffffffffffffffffffffffffffffffffffff1681526020016060815260200160608152602001600073ffffffffffffffffffffffffffffffffffffffff16815260200160008152602001600073ffffffffffffffffffffffffffffffffffffffff1681526020016060815260200160608152602001600073ffffffffffffffffffffffffffffffffffffffff168152602001600081526020016000815260200160008152602001600081525090565b815260200190600190039081610ca55790505b50905060005b610d9061234b565b811015610c5d5760086000610da660068461307f565b8152602080820192909252604090810160002081516101c08101835281548152600182015473ffffffffffffffffffffffffffffffffffffffff1681850152600282018054845181870281018701865281815292959394860193830182828015610e2f57602002820191906000526020600020905b815481526020019060010190808311610e1b575b5050505050815260200160038201805480602002602001604051908101604052809291908181526020018280548015610e8757602002820191906000526020600020905b815481526020019060010190808311610e73575b5050509183525050600482015473ffffffffffffffffffffffffffffffffffffffff9081166020808401919091526005840154604080850191909152600685015490921660608401526007840180548351818402810184019094528084526080909401939091830182828015610f1c57602002820191906000526020600020905b815481526020019060010190808311610f08575b5050505050815260200160088201805480602002602001604051908101604052809291908181526020018280548015610f7457602002820191906000526020600020905b815481526020019060010190808311610f60575b5050509183525050600982015473ffffffffffffffffffffffffffffffffffffffff166020820152600a8201546040820152600b8201546060820152600c8201546080820152600d9091015460a0909101528251839083908110610fda57610fda613ff5565b60200260200101819052508080610ff090614053565b915050610d88565b7f5b618ab2fee761c09bf71319707cefa62eccc93dcc483744898e6c3acf4526436110228161279d565b60405173ffffffffffffffffffffffffffffffffffffffff8316904780156108fc02916000818181858888f19350505050158015611064573d6000803e3d6000fd5b505050565b6000611075600661308b565b82106110dd576040517f08c379a000000000000000000000000000000000000000000000000000000000815260206004820152601360248201527f496e646578206f7574206f6620626f756e64730000000000000000000000000060448201526064016109b7565b61085160068361307f565b6111b2604051806101c0016040528060008152602001600073ffffffffffffffffffffffffffffffffffffffff1681526020016060815260200160608152602001600073ffffffffffffffffffffffffffffffffffffffff16815260200160008152602001600073ffffffffffffffffffffffffffffffffffffffff1681526020016060815260200160608152602001600073ffffffffffffffffffffffffffffffffffffffff168152602001600081526020016000815260200160008152602001600081525090565b6111bd600683613095565b611249576040517f08c379a000000000000000000000000000000000000000000000000000000000815260206004820152602b60248201527f6f66666572496420646f6573206e6f74206578697374206f722068617320626560448201527f656e2072656d6f7665642e00000000000000000000000000000000000000000060648201526084016109b7565b60008281526008602090815260409182902082516101c08101845281548152600182015473ffffffffffffffffffffffffffffffffffffffff1681840152600282018054855181860281018601875281815292959394938601938301828280156112d257602002820191906000526020600020905b8154815260200190600101908083116112be575b505050505081526020016003820180548060200260200160405190810160405280929190818152602001828054801561132a57602002820191906000526020600020905b815481526020019060010190808311611316575b5050509183525050600482015473ffffffffffffffffffffffffffffffffffffffff90811660208084019190915260058401546040808501919091526006850154909216606084015260078401805483518184028101840190945280845260809094019390918301828280156113bf57602002820191906000526020600020905b8154815260200190600101908083116113ab575b505050505081526020016008820180548060200260200160405190810160405280929190818152602001828054801561141757602002820191906000526020600020905b815481526020019060010190808311611403575b5050509183525050600982015473ffffffffffffffffffffffffffffffffffffffff166020820152600a8201546040820152600b8201546060820152600c8201546080820152600d9091015460a09091015292915050565b7f5b618ab2fee761c09bf71319707cefa62eccc93dcc483744898e6c3acf4526436114998161279d565b8460008467ffffffffffffffff8111156114b5576114b5613d16565b6040519080825280602002602001820160405280156114de578160200160208202803683370190505b50905060005b858110156115e4578273ffffffffffffffffffffffffffffffffffffffff1662fdd58e3089898581811061151a5761151a613ff5565b6040517fffffffff0000000000000000000000000000000000000000000000000000000060e087901b16815273ffffffffffffffffffffffffffffffffffffffff90941660048501526020029190910135602483015250604401602060405180830381865afa158015611591573d6000803e3d6000fd5b505050506040513d601f19601f820116820180604052508101906115b5919061408b565b8282815181106115c7576115c7613ff5565b6020908102919091010152806115dc81614053565b9150506114e4565b506040517f2eb2c2d600000000000000000000000000000000000000000000000000000000815273ffffffffffffffffffffffffffffffffffffffff831690632eb2c2d69061163f90309088908b908b9088906004016140a4565b600060405180830381600087803b15801561165957600080fd5b505af115801561166d573d6000803e3d6000fd5b5050505050505050505050565b60606000611688600661308b565b84106116955760006116aa565b836116a0600661308b565b6116aa9190614147565b90506000838211156116bc57836116be565b815b905060008167ffffffffffffffff8111156116db576116db613d16565b6040519080825280602002602001820160405280156117d657816020015b6117c3604051806101c0016040528060008152602001600073ffffffffffffffffffffffffffffffffffffffff1681526020016060815260200160608152602001600073ffffffffffffffffffffffffffffffffffffffff16815260200160008152602001600073ffffffffffffffffffffffffffffffffffffffff1681526020016060815260200160608152602001600073ffffffffffffffffffffffffffffffffffffffff168152602001600081526020016000815260200160008152602001600081525090565b8152602001906001900390816116f95790505b50905060005b82811015611a4f57600860006117fd6117f5848b61415a565b60069061307f565b8152602080820192909252604090810160002081516101c08101835281548152600182015473ffffffffffffffffffffffffffffffffffffffff168185015260028201805484518187028101870186528181529295939486019383018282801561188657602002820191906000526020600020905b815481526020019060010190808311611872575b50505050508152602001600382018054806020026020016040519081016040528092919081815260200182805480156118de57602002820191906000526020600020905b8154815260200190600101908083116118ca575b5050509183525050600482015473ffffffffffffffffffffffffffffffffffffffff908116602080840191909152600584015460408085019190915260068501549092166060840152600784018054835181840281018401909452808452608090940193909183018282801561197357602002820191906000526020600020905b81548152602001906001019080831161195f575b50505050508152602001600882018054806020026020016040519081016040528092919081815260200182805480156119cb57602002820191906000526020600020905b8154815260200190600101908083116119b7575b5050509183525050600982015473ffffffffffffffffffffffffffffffffffffffff166020820152600a8201546040820152600b8201546060820152600c8201546080820152600d9091015460a0909101528251839083908110611a3157611a31613ff5565b60200260200101819052508080611a4790614053565b9150506117dc565b5095945050505050565b60606000611a67600661308b565b8410611a74576000611a89565b83611a7f600661308b565b611a899190614147565b9050600083821115611a9b5783611a9d565b815b905060008167ffffffffffffffff811115611aba57611aba613d16565b604051908082528060200260200182016040528015611aed57816020015b6060815260200190600190039081611ad85790505b50905060005b82811015611a4f57611b0b6102b66117f5838a61415a565b828281518110611b1d57611b1d613ff5565b60200260200101819052508080611b3390614053565b915050611af3565b7f5b618ab2fee761c09bf71319707cefa62eccc93dcc483744898e6c3acf452643611b658161279d565b6040517f70a08231000000000000000000000000000000000000000000000000000000008152306004820152839073ffffffffffffffffffffffffffffffffffffffff82169063a9059cbb90859083906370a0823190602401602060405180830381865afa158015611bdb573d6000803e3d6000fd5b505050506040513d601f19601f82011682018060405250810190611bff919061408b565b6040517fffffffff0000000000000000000000000000000000000000000000000000000060e085901b16815273ffffffffffffffffffffffffffffffffffffffff909216600483015260248201526044016020604051808303816000875af1158015611c6f573d6000803e3d6000fd5b505050506040513d601f19601f82011682018060405250810190611c93919061416d565b5050505050565b7f5b618ab2fee761c09bf71319707cefa62eccc93dcc483744898e6c3acf452643611cc48161279d565b611ccf60068361259f565b5060008281526008602052604090819020905183907f6a1a138e164465aabd2f777a1616db53b1e03ebfc20e197765e62fa2b748600b90611d1190849061432d565b60405180910390a26000600b909101555050565b7f5b618ab2fee761c09bf71319707cefa62eccc93dcc483744898e6c3acf452643611d4f8161279d565b611d598580614340565b9050611d658780614340565b905014611df4576040517f08c379a000000000000000000000000000000000000000000000000000000000815260206004820152602260248201527f496e707574206974656d7320616e6420616d6f756e7473206d69736d6174636860448201527f656400000000000000000000000000000000000000000000000000000000000060648201526084016109b7565b611e016020860186614340565b9050611e106020880188614340565b905014611e9f576040517f08c379a000000000000000000000000000000000000000000000000000000000815260206004820152602360248201527f4f7574707574206974656d7320616e6420616d6f756e7473206d69736d61746360448201527f686564000000000000000000000000000000000000000000000000000000000060648201526084016109b7565b6000604051806101c001604052808a815260200189600060028110611ec657611ec6613ff5565b602002016020810190611ed99190613900565b73ffffffffffffffffffffffffffffffffffffffff168152602001611efe8980614340565b80806020026020016040519081016040528093929190818152602001838360200280828437600092019190915250505090825250602001611f3f8880614340565b80806020026020016040519081016040528093929190818152602001838360200280828437600092019190915250505090825250602090810190611f8590880188613900565b73ffffffffffffffffffffffffffffffffffffffff16815285356020820152604001896001602002016020810190611fbd9190613900565b73ffffffffffffffffffffffffffffffffffffffff168152602090810190611fe7908a018a614340565b8080602002602001604051908101604052809392919081815260200183836020028082843760009201919091525050509082525060209081019061202d90890189614340565b808060200260200160405190810160405280939291908181526020018383602002808284376000920191909152505050908252506020908101906120779060408901908901613900565b73ffffffffffffffffffffffffffffffffffffffff1681526020868101358183015260008c81526008909152604090819020600b015490820152606081018590524260809091015290506120cc60068a6124e2565b5060008981526008602090815260409182902083518155838201516001820180547fffffffffffffffffffffffff00000000000000000000000000000000000000001673ffffffffffffffffffffffffffffffffffffffff9092169190911790559183015180518493926121479260028501929101906137a2565b50606082015180516121639160038401916020909101906137a2565b50608082015160048201805473ffffffffffffffffffffffffffffffffffffffff9283167fffffffffffffffffffffffff00000000000000000000000000000000000000009182161790915560a0840151600584015560c084015160068401805491909316911617905560e082015180516121e89160078401916020909101906137a2565b5061010082015180516122059160088401916020909101906137a2565b506101208201516009820180547fffffffffffffffffffffffff00000000000000000000000000000000000000001673ffffffffffffffffffffffffffffffffffffffff909216919091179055610140820151600a820155610160820151600b820155610180820151600c8201556101a090910151600d9091015560405189907ffcb9e66873133101ffdf745da3859e2b3736909576d4d11d6982e3e0e19d9754906122b2908490613b61565b60405180910390a2505050505050505050565b6122cd6127ae565b60008111612337576040517f08c379a000000000000000000000000000000000000000000000000000000000815260206004820152601160248201527f74696d65732063616e6e6f74206265203000000000000000000000000000000060448201526064016109b7565b6123418282612821565b6108626001600555565b6000610bae600661308b565b7f5b618ab2fee761c09bf71319707cefa62eccc93dcc483744898e6c3acf4526436123818161279d565b600080547fffffffffffffffffffffffff00000000000000000000000000000000000000001673ffffffffffffffffffffffffffffffffffffffff84161790555050565b6108626001826124e2565b6000610851600183613095565b6060610bae6001613072565b606060006123f7600661308b565b8410612404576000612419565b8361240f600661308b565b6124199190614147565b905060008382111561242b578361242d565b815b905060008167ffffffffffffffff81111561244a5761244a613d16565b604051908082528060200260200182016040528015612473578160200160208202803683370190505b50905060005b82811015611a4f5761248e6117f5828961415a565b8282815181106124a0576124a0613ff5565b6020908102919091010152806124b581614053565b915050612479565b6000828152600460205260409020600101546124d88161279d565b61106483836126aa565b60006124ee83836130ad565b9392505050565b6000805473ffffffffffffffffffffffffffffffffffffffff16330361254057507fffffffffffffffffffffffffffffffffffffffffffffffffffffffffffffffec36013560601c90565b503390565b3390565b60007fffffffff0000000000000000000000000000000000000000000000000000000082167f4e2312e00000000000000000000000000000000000000000000000000000000014806108515750610851826130fc565b60006124ee8383613193565b6000610bae6124f5565b600082815260046020908152604080832073ffffffffffffffffffffffffffffffffffffffff8516845290915290205460ff1661086257600082815260046020908152604080832073ffffffffffffffffffffffffffffffffffffffff85168452909152902080547fffffffffffffffffffffffffffffffffffffffffffffffffffffffffffffff0016600117905561264c6125ab565b73ffffffffffffffffffffffffffffffffffffffff168173ffffffffffffffffffffffffffffffffffffffff16837f2f8788117e7eff1d82e926ec794901d17c78024a50270940304540a733656f0d60405160405180910390a45050565b600082815260046020908152604080832073ffffffffffffffffffffffffffffffffffffffff8516845290915290205460ff161561086257600082815260046020908152604080832073ffffffffffffffffffffffffffffffffffffffff85168452909152902080547fffffffffffffffffffffffffffffffffffffffffffffffffffffffffffffff0016905561273f6125ab565b73ffffffffffffffffffffffffffffffffffffffff168173ffffffffffffffffffffffffffffffffffffffff16837ff6391f5c32d9c69d2a47ea670b442974b53935d1edc7fd64eb21e047a839171b60405160405180910390a45050565b610b9f816127a96125ab565b613286565b60026005540361281a576040517f08c379a000000000000000000000000000000000000000000000000000000000815260206004820152601f60248201527f5265656e7472616e637947756172643a207265656e7472616e742063616c6c0060448201526064016109b7565b6002600555565b61282c600683613095565b6128b8576040517f08c379a000000000000000000000000000000000000000000000000000000000815260206004820152602b60248201527f6f66666572496420646f6573206e6f74206578697374206f722068617320626560448201527f656e2072656d6f7665642e00000000000000000000000000000000000000000060648201526084016109b7565b6000828152600860205260409020600c81015415806128ea575080600c01548282600b01546128e7919061415a565b11155b612950576040517f08c379a000000000000000000000000000000000000000000000000000000000815260206004820152601b60248201527f4f6666657220776f756c64207265616368206d617820757365732e000000000060448201526064016109b7565b600181015473ffffffffffffffffffffffffffffffffffffffff1615612a4b57600181015473ffffffffffffffffffffffffffffffffffffffff16632eb2c2d66129986125ab565b30846002016129f9866003018054806020026020016040519081016040528092919081815260200182805480156129ee57602002820191906000526020600020905b8154815260200190600101908083116129da575b505050505088613340565b6040518563ffffffff1660e01b8152600401612a1894939291906143af565b600060405180830381600087803b158015612a3257600080fd5b505af1158015612a46573d6000803e3d6000fd5b505050505b600581015415612bca57600481015473ffffffffffffffffffffffffffffffffffffffff1615612b5157600481015473ffffffffffffffffffffffffffffffffffffffff166323b872dd612a9d6125ab565b30858560050154612aae9190614417565b6040517fffffffff0000000000000000000000000000000000000000000000000000000060e086901b16815273ffffffffffffffffffffffffffffffffffffffff938416600482015292909116602483015260448201526064016020604051808303816000875af1158015612b27573d6000803e3d6000fd5b505050506040513d601f19601f82011682018060405250810190612b4b919061416d565b50612bca565b818160050154612b619190614417565b341015612bca576040517f08c379a000000000000000000000000000000000000000000000000000000000815260206004820152601660248201527f5061796d656e74206c657373207468616e20636f73740000000000000000000060448201526064016109b7565b600681015473ffffffffffffffffffffffffffffffffffffffff1615612dc9576006810154612c0e9073ffffffffffffffffffffffffffffffffffffffff16613401565b15612cf057600681015473ffffffffffffffffffffffffffffffffffffffff16806308f427c7612c3c6125ab565b84600701612c9a866008018054806020026020016040519081016040528092919081815260200182805480156129ee57602002820191906000526020600020908154815260200190600101908083116129da57505050505088613340565b6040518463ffffffff1660e01b8152600401612cb893929190614454565b600060405180830381600087803b158015612cd257600080fd5b505af1158015612ce6573d6000803e3d6000fd5b5050505050612dc9565b600681015473ffffffffffffffffffffffffffffffffffffffff16632eb2c2d630612d196125ab565b84600701612d77866008018054806020026020016040519081016040528092919081815260200182805480156129ee57602002820191906000526020600020908154815260200190600101908083116129da57505050505088613340565b6040518563ffffffff1660e01b8152600401612d9694939291906143af565b600060405180830381600087803b158015612db057600080fd5b505af1158015612dc4573d6000803e3d6000fd5b505050505b600981015473ffffffffffffffffffffffffffffffffffffffff1615612fa6576009810154612e0d9073ffffffffffffffffffffffffffffffffffffffff16613401565b15612ed457600981015473ffffffffffffffffffffffffffffffffffffffff16806340c10f19612e3b6125ab565b8585600a0154612e4b9190614417565b6040517fffffffff0000000000000000000000000000000000000000000000000000000060e085901b16815273ffffffffffffffffffffffffffffffffffffffff90921660048301526024820152604401600060405180830381600087803b158015612eb657600080fd5b505af1158015612eca573d6000803e3d6000fd5b505050505061300b565b600981015473ffffffffffffffffffffffffffffffffffffffff1663a9059cbb612efc6125ab565b8484600a0154612f0c9190614417565b6040517fffffffff0000000000000000000000000000000000000000000000000000000060e085901b16815273ffffffffffffffffffffffffffffffffffffffff909216600483015260248201526044016020604051808303816000875af1158015612f7c573d6000803e3d6000fd5b505050506040513d601f19601f82011682018060405250810190612fa0919061416d565b5061300b565b600a8101541561300b57612fb86125ab565b73ffffffffffffffffffffffffffffffffffffffff166108fc8383600a0154612fe19190614417565b6040518115909202916000818181858888f19350505050158015613009573d6000803e3d6000fd5b505b8181600b01600082825461301f919061415a565b909155505042600d820155827f0b6d302aef644f1507eb2eded80719b12d15ced4627cb57a8839251c4cef0e7d82846130566125ab565b6040516130659392919061449f565b60405180910390a2505050565b606060006124ee836134ba565b60006124ee8383613516565b6000610851825490565b600081815260018301602052604081205415156124ee565b60008181526001830160205260408120546130f457508154600181810184556000848152602080822090930184905584548482528286019093526040902091909155610851565b506000610851565b60007fffffffff0000000000000000000000000000000000000000000000000000000082167f7965db0b00000000000000000000000000000000000000000000000000000000148061085157507f01ffc9a7000000000000000000000000000000000000000000000000000000007fffffffff00000000000000000000000000000000000000000000000000000000831614610851565b6000818152600183016020526040812054801561327c5760006131b7600183614147565b85549091506000906131cb90600190614147565b90508181146132305760008660000182815481106131eb576131eb613ff5565b906000526020600020015490508087600001848154811061320e5761320e613ff5565b6000918252602080832090910192909255918252600188019052604090208390555b8554869080613241576132416144de565b600190038181906000526020600020016000905590558560010160008681526020019081526020016000206000905560019350505050610851565b6000915050610851565b600082815260046020908152604080832073ffffffffffffffffffffffffffffffffffffffff8516845290915290205460ff16610862576132c681613540565b6132d183602061355f565b6040516020016132e2929190614531565b604080517fffffffffffffffffffffffffffffffffffffffffffffffffffffffffffffffe0818403018152908290527f08c379a00000000000000000000000000000000000000000000000000000000082526109b7916004016145b2565b606081600103613351575081610851565b6000835167ffffffffffffffff81111561336d5761336d613d16565b604051908082528060200260200182016040528015613396578160200160208202803683370190505b50905060005b84518110156133f957838582815181106133b8576133b8613ff5565b60200260200101516133ca9190614417565b8282815181106133dc576133dc613ff5565b6020908102919091010152806133f181614053565b91505061339c565b509392505050565b6040517f91d148540000000000000000000000000000000000000000000000000000000081527fc9eb32e43bf5ecbceacf00b32281dfc5d6d700a0db676ea26ccf938a385ac3f76004820152306024820152600090829073ffffffffffffffffffffffffffffffffffffffff8216906391d1485490604401602060405180830381865afa158015613496573d6000803e3d6000fd5b505050506040513d601f19601f820116820180604052508101906124ee919061416d565b60608160000180548060200260200160405190810160405280929190818152602001828054801561350a57602002820191906000526020600020905b8154815260200190600101908083116134f6575b50505050509050919050565b600082600001828154811061352d5761352d613ff5565b9060005260206000200154905092915050565b606061085173ffffffffffffffffffffffffffffffffffffffff831660145b6060600061356e836002614417565b61357990600261415a565b67ffffffffffffffff81111561359157613591613d16565b6040519080825280601f01601f1916602001820160405280156135bb576020820181803683370190505b5090507f3000000000000000000000000000000000000000000000000000000000000000816000815181106135f2576135f2613ff5565b60200101907effffffffffffffffffffffffffffffffffffffffffffffffffffffffffffff1916908160001a9053507f78000000000000000000000000000000000000000000000000000000000000008160018151811061365557613655613ff5565b60200101907effffffffffffffffffffffffffffffffffffffffffffffffffffffffffffff1916908160001a9053506000613691846002614417565b61369c90600161415a565b90505b6001811115613739577f303132333435363738396162636465660000000000000000000000000000000085600f16601081106136dd576136dd613ff5565b1a60f81b8282815181106136f3576136f3613ff5565b60200101907effffffffffffffffffffffffffffffffffffffffffffffffffffffffffffff1916908160001a90535060049490941c9361373281614603565b905061369f565b5083156124ee576040517f08c379a000000000000000000000000000000000000000000000000000000000815260206004820181905260248201527f537472696e67733a20686578206c656e67746820696e73756666696369656e7460448201526064016109b7565b8280548282559060005260206000209081019282156137dd579160200282015b828111156137dd5782518255916020019190600101906137c2565b506137e99291506137ed565b5090565b5b808211156137e957600081556001016137ee565b60006020828403121561381457600080fd5b81357fffffffff00000000000000000000000000000000000000000000000000000000811681146124ee57600080fd5b60006020828403121561385657600080fd5b5035919050565b600081518084526020808501945080840160005b8381101561388d57815187529582019590820190600101613871565b509495945050505050565b6020815260006124ee602083018461385d565b803573ffffffffffffffffffffffffffffffffffffffff811681146138cf57600080fd5b919050565b600080604083850312156138e757600080fd5b823591506138f7602084016138ab565b90509250929050565b60006020828403121561391257600080fd5b6124ee826138ab565b6000602080830181845280855180835260408601915060408160051b870101925083870160005b8281101561398e577fffffffffffffffffffffffffffffffffffffffffffffffffffffffffffffffc088860301845261397c85835161385d565b94509285019290850190600101613942565b5092979650505050505050565b60006101c08251845260208301516139cb602086018273ffffffffffffffffffffffffffffffffffffffff169052565b5060408301518160408601526139e38286018261385d565b915050606083015184820360608601526139fd828261385d565b9150506080830151613a27608086018273ffffffffffffffffffffffffffffffffffffffff169052565b5060a083015160a085015260c0830151613a5960c086018273ffffffffffffffffffffffffffffffffffffffff169052565b5060e083015184820360e0860152613a71828261385d565b9150506101008084015185830382870152613a8c838261385d565b9250505061012080840151613ab88287018273ffffffffffffffffffffffffffffffffffffffff169052565b50506101408381015190850152610160808401519085015261018080840151908501526101a09283015192909301919091525090565b6000602080830181845280855180835260408601915060408160051b870101925083870160005b8281101561398e577fffffffffffffffffffffffffffffffffffffffffffffffffffffffffffffffc0888603018452613b4f85835161399b565b94509285019290850190600101613b15565b6020815260006124ee602083018461399b565b60008060008060608587031215613b8a57600080fd5b613b93856138ab565b9350602085013567ffffffffffffffff80821115613bb057600080fd5b818701915087601f830112613bc457600080fd5b813581811115613bd357600080fd5b8860208260051b8501011115613be857600080fd5b602083019550809450505050613c00604086016138ab565b905092959194509250565b60008060408385031215613c1e57600080fd5b50508035926020909101359150565b60008060408385031215613c4057600080fd5b613c49836138ab565b91506138f7602084016138ab565b806040810183101561085157600080fd5b6000806000806000806000610140888a031215613c8457600080fd5b87359650613c958960208a01613c57565b9550606088013567ffffffffffffffff80821115613cb257600080fd5b613cbe8b838c01613c57565b965060808a0135915080821115613cd457600080fd5b50613ce18a828b01613c57565b945050613cf18960a08a01613c57565b9250613d008960e08a01613c57565b9150610120880135905092959891949750929550565b7f4e487b7100000000000000000000000000000000000000000000000000000000600052604160045260246000fd5b604051601f82017fffffffffffffffffffffffffffffffffffffffffffffffffffffffffffffffe016810167ffffffffffffffff81118282101715613d8c57613d8c613d16565b604052919050565b600082601f830112613da557600080fd5b8135602067ffffffffffffffff821115613dc157613dc1613d16565b8160051b613dd0828201613d45565b9283528481018201928281019087851115613dea57600080fd5b83870192505b84831015613e0957823582529183019190830190613df0565b979650505050505050565b600082601f830112613e2557600080fd5b813567ffffffffffffffff811115613e3f57613e3f613d16565b613e7060207fffffffffffffffffffffffffffffffffffffffffffffffffffffffffffffffe0601f84011601613d45565b818152846020838601011115613e8557600080fd5b816020850160208301376000918101602001919091529392505050565b600080600080600060a08688031215613eba57600080fd5b613ec3866138ab565b9450613ed1602087016138ab565b9350604086013567ffffffffffffffff80821115613eee57600080fd5b613efa89838a01613d94565b94506060880135915080821115613f1057600080fd5b613f1c89838a01613d94565b93506080880135915080821115613f3257600080fd5b50613f3f88828901613e14565b9150509295509295909350565b6020808252825182820181905260009190848201906040850190845b81811015613f8457835183529284019291840191600101613f68565b50909695505050505050565b600080600080600060a08688031215613fa857600080fd5b613fb1866138ab565b9450613fbf602087016138ab565b93506040860135925060608601359150608086013567ffffffffffffffff811115613fe957600080fd5b613f3f88828901613e14565b7f4e487b7100000000000000000000000000000000000000000000000000000000600052603260045260246000fd5b7f4e487b7100000000000000000000000000000000000000000000000000000000600052601160045260246000fd5b60007fffffffffffffffffffffffffffffffffffffffffffffffffffffffffffffffff820361408457614084614024565b5060010190565b60006020828403121561409d57600080fd5b5051919050565b600073ffffffffffffffffffffffffffffffffffffffff808816835280871660208401525060a060408301528360a08301527f07ffffffffffffffffffffffffffffffffffffffffffffffffffffffffffffff84111561410357600080fd5b8360051b808660c0850137820182810360c090810160608501526141299082018561385d565b83810360809094019390935250506000815260200195945050505050565b8181038181111561085157610851614024565b8082018082111561085157610851614024565b60006020828403121561417f57600080fd5b815180151581146124ee57600080fd5b6000815480845260208085019450836000528060002060005b8381101561388d578154875295820195600191820191016141a8565b60006101c0825484526141ee600184015473ffffffffffffffffffffffffffffffffffffffff1690565b73ffffffffffffffffffffffffffffffffffffffff1660208501526040840181905261421f8185016002850161418f565b90508381036060850152614236816003850161418f565b9050614259600484015473ffffffffffffffffffffffffffffffffffffffff1690565b73ffffffffffffffffffffffffffffffffffffffff9081166080860152600584015460a086015260068401541660c085015283810360e08501526142a0816007850161418f565b90508381036101008501526142b8816008850161418f565b90506142db600984015473ffffffffffffffffffffffffffffffffffffffff1690565b73ffffffffffffffffffffffffffffffffffffffff16610120850152600a830154610140850152600b830154610160850152600c830154610180850152600d909201546101a090930192909252919050565b6020815260006124ee60208301846141c4565b60008083357fffffffffffffffffffffffffffffffffffffffffffffffffffffffffffffffe184360301811261437557600080fd5b83018035915067ffffffffffffffff82111561439057600080fd5b6020019150600581901b36038213156143a857600080fd5b9250929050565b600073ffffffffffffffffffffffffffffffffffffffff808716835280861660208401525060a060408301526143e860a083018561418f565b82810360608401526143fa818561385d565b838103608090940193909352505060008152602001949350505050565b6000817fffffffffffffffffffffffffffffffffffffffffffffffffffffffffffffffff048311821515161561444f5761444f614024565b500290565b73ffffffffffffffffffffffffffffffffffffffff84168152606060208201526000614483606083018561418f565b8281036040840152614495818561385d565b9695505050505050565b6060815260006144b260608301866141c4565b905083602083015273ffffffffffffffffffffffffffffffffffffffff83166040830152949350505050565b7f4e487b7100000000000000000000000000000000000000000000000000000000600052603160045260246000fd5b60005b83811015614528578181015183820152602001614510565b50506000910152565b7f416363657373436f6e74726f6c3a206163636f756e742000000000000000000081526000835161456981601785016020880161450d565b7f206973206d697373696e6720726f6c652000000000000000000000000000000060179184019182015283516145a681602884016020880161450d565b01602801949350505050565b60208152600082518060208401526145d181604085016020870161450d565b601f017fffffffffffffffffffffffffffffffffffffffffffffffffffffffffffffffe0169190910160400192915050565b60008161461257614612614024565b507fffffffffffffffffffffffffffffffffffffffffffffffffffffffffffffffff019056fea264697066735822122010d2d1efa48d959e8754a649ab6591fbbc6a0c5f5210462bb042bdd185b8285464736f6c63430008100033",
  "linkReferences": {},
  "deployedLinkReferences": {}
}