{
  "_format": "hh-sol-artifact-1",
  "contractName": "Game_Shop",
  "sourceName": "contracts/Shop/Game_Shop.sol",
  "abi": [
    {
      "inputs": [
        {
          "internalType": "address",
          "name": "_forwarder",
          "type": "address"
        },
        {
          "internalType": "bytes32",
          "name": "_systemId",
          "type": "bytes32"
        }
      ],
      "stateMutability": "nonpayable",
      "type": "constructor"
    },
    {
      "anonymous": false,
      "inputs": [
        {
          "indexed": true,
          "internalType": "uint256",
          "name": "offerId",
          "type": "uint256"
        },
        {
          "components": [
            {
              "internalType": "uint256",
              "name": "id",
              "type": "uint256"
            },
            {
              "internalType": "contract IERC1155",
              "name": "inputCollection",
              "type": "address"
            },
            {
              "internalType": "uint256[]",
              "name": "inputCollectionItemIds",
              "type": "uint256[]"
            },
            {
              "internalType": "uint256[]",
              "name": "inputCollectionItemAmounts",
              "type": "uint256[]"
            },
            {
              "internalType": "contract IERC20",
              "name": "inputCurrency",
              "type": "address"
            },
            {
              "internalType": "uint256",
              "name": "inputCurrencyAmount",
              "type": "uint256"
            },
            {
              "internalType": "contract IERC1155",
              "name": "outputCollection",
              "type": "address"
            },
            {
              "internalType": "uint256[]",
              "name": "outputCollectionItemIds",
              "type": "uint256[]"
            },
            {
              "internalType": "uint256[]",
              "name": "outputCollectionItemAmounts",
              "type": "uint256[]"
            },
            {
              "internalType": "contract IERC20",
              "name": "outputCurrency",
              "type": "address"
            },
            {
              "internalType": "uint256",
              "name": "outputCurrencyAmount",
              "type": "uint256"
            },
            {
              "internalType": "uint256",
              "name": "uses",
              "type": "uint256"
            },
            {
              "internalType": "uint256",
              "name": "maxUses",
              "type": "uint256"
            },
            {
              "internalType": "uint256",
              "name": "lastUpdatedAt",
              "type": "uint256"
            }
          ],
          "indexed": false,
          "internalType": "struct IGame_Shop.Offer",
          "name": "offer",
          "type": "tuple"
        }
      ],
      "name": "OfferRemoved",
      "type": "event"
    },
    {
      "anonymous": false,
      "inputs": [
        {
          "indexed": true,
          "internalType": "uint256",
          "name": "offerId",
          "type": "uint256"
        },
        {
          "components": [
            {
              "internalType": "uint256",
              "name": "id",
              "type": "uint256"
            },
            {
              "internalType": "contract IERC1155",
              "name": "inputCollection",
              "type": "address"
            },
            {
              "internalType": "uint256[]",
              "name": "inputCollectionItemIds",
              "type": "uint256[]"
            },
            {
              "internalType": "uint256[]",
              "name": "inputCollectionItemAmounts",
              "type": "uint256[]"
            },
            {
              "internalType": "contract IERC20",
              "name": "inputCurrency",
              "type": "address"
            },
            {
              "internalType": "uint256",
              "name": "inputCurrencyAmount",
              "type": "uint256"
            },
            {
              "internalType": "contract IERC1155",
              "name": "outputCollection",
              "type": "address"
            },
            {
              "internalType": "uint256[]",
              "name": "outputCollectionItemIds",
              "type": "uint256[]"
            },
            {
              "internalType": "uint256[]",
              "name": "outputCollectionItemAmounts",
              "type": "uint256[]"
            },
            {
              "internalType": "contract IERC20",
              "name": "outputCurrency",
              "type": "address"
            },
            {
              "internalType": "uint256",
              "name": "outputCurrencyAmount",
              "type": "uint256"
            },
            {
              "internalType": "uint256",
              "name": "uses",
              "type": "uint256"
            },
            {
              "internalType": "uint256",
              "name": "maxUses",
              "type": "uint256"
            },
            {
              "internalType": "uint256",
              "name": "lastUpdatedAt",
              "type": "uint256"
            }
          ],
          "indexed": false,
          "internalType": "struct IGame_Shop.Offer",
          "name": "offer",
          "type": "tuple"
        }
      ],
      "name": "OfferSet",
      "type": "event"
    },
    {
      "anonymous": false,
      "inputs": [
        {
          "indexed": true,
          "internalType": "uint256",
          "name": "offerId",
          "type": "uint256"
        },
        {
          "components": [
            {
              "internalType": "uint256",
              "name": "id",
              "type": "uint256"
            },
            {
              "internalType": "contract IERC1155",
              "name": "inputCollection",
              "type": "address"
            },
            {
              "internalType": "uint256[]",
              "name": "inputCollectionItemIds",
              "type": "uint256[]"
            },
            {
              "internalType": "uint256[]",
              "name": "inputCollectionItemAmounts",
              "type": "uint256[]"
            },
            {
              "internalType": "contract IERC20",
              "name": "inputCurrency",
              "type": "address"
            },
            {
              "internalType": "uint256",
              "name": "inputCurrencyAmount",
              "type": "uint256"
            },
            {
              "internalType": "contract IERC1155",
              "name": "outputCollection",
              "type": "address"
            },
            {
              "internalType": "uint256[]",
              "name": "outputCollectionItemIds",
              "type": "uint256[]"
            },
            {
              "internalType": "uint256[]",
              "name": "outputCollectionItemAmounts",
              "type": "uint256[]"
            },
            {
              "internalType": "contract IERC20",
              "name": "outputCurrency",
              "type": "address"
            },
            {
              "internalType": "uint256",
              "name": "outputCurrencyAmount",
              "type": "uint256"
            },
            {
              "internalType": "uint256",
              "name": "uses",
              "type": "uint256"
            },
            {
              "internalType": "uint256",
              "name": "maxUses",
              "type": "uint256"
            },
            {
              "internalType": "uint256",
              "name": "lastUpdatedAt",
              "type": "uint256"
            }
          ],
          "indexed": false,
          "internalType": "struct IGame_Shop.Offer",
          "name": "offer",
          "type": "tuple"
        },
        {
          "indexed": false,
          "internalType": "uint256",
          "name": "times",
          "type": "uint256"
        },
        {
          "indexed": false,
          "internalType": "address",
          "name": "user",
          "type": "address"
        }
      ],
      "name": "OfferUsed",
      "type": "event"
    },
    {
      "anonymous": false,
      "inputs": [
        {
          "indexed": true,
          "internalType": "bytes32",
          "name": "role",
          "type": "bytes32"
        },
        {
          "indexed": true,
          "internalType": "bytes32",
          "name": "previousAdminRole",
          "type": "bytes32"
        },
        {
          "indexed": true,
          "internalType": "bytes32",
          "name": "newAdminRole",
          "type": "bytes32"
        }
      ],
      "name": "RoleAdminChanged",
      "type": "event"
    },
    {
      "anonymous": false,
      "inputs": [
        {
          "indexed": true,
          "internalType": "bytes32",
          "name": "role",
          "type": "bytes32"
        },
        {
          "indexed": true,
          "internalType": "address",
          "name": "account",
          "type": "address"
        },
        {
          "indexed": true,
          "internalType": "address",
          "name": "sender",
          "type": "address"
        }
      ],
      "name": "RoleGranted",
      "type": "event"
    },
    {
      "anonymous": false,
      "inputs": [
        {
          "indexed": true,
          "internalType": "bytes32",
          "name": "role",
          "type": "bytes32"
        },
        {
          "indexed": true,
          "internalType": "address",
          "name": "account",
          "type": "address"
        },
        {
          "indexed": true,
          "internalType": "address",
          "name": "sender",
          "type": "address"
        }
      ],
      "name": "RoleRevoked",
      "type": "event"
    },
    {
      "inputs": [],
      "name": "DEFAULT_ADMIN_ROLE",
      "outputs": [
        {
          "internalType": "bytes32",
          "name": "",
          "type": "bytes32"
        }
      ],
      "stateMutability": "view",
      "type": "function"
    },
    {
      "inputs": [],
      "name": "allOfferIds",
      "outputs": [
        {
          "internalType": "uint256[]",
          "name": "",
          "type": "uint256[]"
        }
      ],
      "stateMutability": "view",
      "type": "function"
    },
    {
      "inputs": [],
      "name": "allOfferLastUpdates",
      "outputs": [
        {
          "internalType": "uint256[][]",
          "name": "",
          "type": "uint256[][]"
        }
      ],
      "stateMutability": "view",
      "type": "function"
    },
    {
      "inputs": [],
      "name": "allOffers",
      "outputs": [
        {
          "components": [
            {
              "internalType": "uint256",
              "name": "id",
              "type": "uint256"
            },
            {
              "internalType": "contract IERC1155",
              "name": "inputCollection",
              "type": "address"
            },
            {
              "internalType": "uint256[]",
              "name": "inputCollectionItemIds",
              "type": "uint256[]"
            },
            {
              "internalType": "uint256[]",
              "name": "inputCollectionItemAmounts",
              "type": "uint256[]"
            },
            {
              "internalType": "contract IERC20",
              "name": "inputCurrency",
              "type": "address"
            },
            {
              "internalType": "uint256",
              "name": "inputCurrencyAmount",
              "type": "uint256"
            },
            {
              "internalType": "contract IERC1155",
              "name": "outputCollection",
              "type": "address"
            },
            {
              "internalType": "uint256[]",
              "name": "outputCollectionItemIds",
              "type": "uint256[]"
            },
            {
              "internalType": "uint256[]",
              "name": "outputCollectionItemAmounts",
              "type": "uint256[]"
            },
            {
              "internalType": "contract IERC20",
              "name": "outputCurrency",
              "type": "address"
            },
            {
              "internalType": "uint256",
              "name": "outputCurrencyAmount",
              "type": "uint256"
            },
            {
              "internalType": "uint256",
              "name": "uses",
              "type": "uint256"
            },
            {
              "internalType": "uint256",
              "name": "maxUses",
              "type": "uint256"
            },
            {
              "internalType": "uint256",
              "name": "lastUpdatedAt",
              "type": "uint256"
            }
          ],
          "internalType": "struct IGame_Shop.Offer[]",
          "name": "",
          "type": "tuple[]"
        }
      ],
      "stateMutability": "view",
      "type": "function"
    },
    {
      "inputs": [
        {
          "internalType": "bytes32",
          "name": "role",
          "type": "bytes32"
        }
      ],
      "name": "getRoleAdmin",
      "outputs": [
        {
          "internalType": "bytes32",
          "name": "",
          "type": "bytes32"
        }
      ],
      "stateMutability": "view",
      "type": "function"
    },
    {
      "inputs": [
        {
          "internalType": "bytes32",
          "name": "_role",
          "type": "bytes32"
        },
        {
          "internalType": "address",
          "name": "_account",
          "type": "address"
        }
      ],
      "name": "grantRole",
      "outputs": [],
      "stateMutability": "nonpayable",
      "type": "function"
    },
    {
      "inputs": [
        {
          "internalType": "bytes32",
          "name": "role",
          "type": "bytes32"
        },
        {
          "internalType": "address",
          "name": "account",
          "type": "address"
        }
      ],
      "name": "hasRole",
      "outputs": [
        {
          "internalType": "bool",
          "name": "",
          "type": "bool"
        }
      ],
      "stateMutability": "view",
      "type": "function"
    },
    {
      "inputs": [
        {
          "internalType": "address",
          "name": "forwarder",
          "type": "address"
        }
      ],
      "name": "isTrustedForwarder",
      "outputs": [
        {
          "internalType": "bool",
          "name": "",
          "type": "bool"
        }
      ],
      "stateMutability": "view",
      "type": "function"
    },
    {
      "inputs": [
        {
          "internalType": "uint256",
          "name": "_offerId",
          "type": "uint256"
        }
      ],
      "name": "offer",
      "outputs": [
        {
          "components": [
            {
              "internalType": "uint256",
              "name": "id",
              "type": "uint256"
            },
            {
              "internalType": "contract IERC1155",
              "name": "inputCollection",
              "type": "address"
            },
            {
              "internalType": "uint256[]",
              "name": "inputCollectionItemIds",
              "type": "uint256[]"
            },
            {
              "internalType": "uint256[]",
              "name": "inputCollectionItemAmounts",
              "type": "uint256[]"
            },
            {
              "internalType": "contract IERC20",
              "name": "inputCurrency",
              "type": "address"
            },
            {
              "internalType": "uint256",
              "name": "inputCurrencyAmount",
              "type": "uint256"
            },
            {
              "internalType": "contract IERC1155",
              "name": "outputCollection",
              "type": "address"
            },
            {
              "internalType": "uint256[]",
              "name": "outputCollectionItemIds",
              "type": "uint256[]"
            },
            {
              "internalType": "uint256[]",
              "name": "outputCollectionItemAmounts",
              "type": "uint256[]"
            },
            {
              "internalType": "contract IERC20",
              "name": "outputCurrency",
              "type": "address"
            },
            {
              "internalType": "uint256",
              "name": "outputCurrencyAmount",
              "type": "uint256"
            },
            {
              "internalType": "uint256",
              "name": "uses",
              "type": "uint256"
            },
            {
              "internalType": "uint256",
              "name": "maxUses",
              "type": "uint256"
            },
            {
              "internalType": "uint256",
              "name": "lastUpdatedAt",
              "type": "uint256"
            }
          ],
          "internalType": "struct IGame_Shop.Offer",
          "name": "",
          "type": "tuple"
        }
      ],
      "stateMutability": "view",
      "type": "function"
    },
    {
      "inputs": [
        {
          "internalType": "uint256",
          "name": "_index",
          "type": "uint256"
        }
      ],
      "name": "offerId",
      "outputs": [
        {
          "internalType": "uint256",
          "name": "",
          "type": "uint256"
        }
      ],
      "stateMutability": "view",
      "type": "function"
    },
    {
      "inputs": [
        {
          "internalType": "uint256",
          "name": "_offerId",
          "type": "uint256"
        }
      ],
      "name": "offerLastUpdate",
      "outputs": [
        {
          "internalType": "uint256[]",
          "name": "",
          "type": "uint256[]"
        }
      ],
      "stateMutability": "view",
      "type": "function"
    },
    {
      "inputs": [
        {
          "internalType": "address",
          "name": "",
          "type": "address"
        },
        {
          "internalType": "address",
          "name": "",
          "type": "address"
        },
        {
          "internalType": "uint256[]",
          "name": "",
          "type": "uint256[]"
        },
        {
          "internalType": "uint256[]",
          "name": "",
          "type": "uint256[]"
        },
        {
          "internalType": "bytes",
          "name": "",
          "type": "bytes"
        }
      ],
      "name": "onERC1155BatchReceived",
      "outputs": [
        {
          "internalType": "bytes4",
          "name": "",
          "type": "bytes4"
        }
      ],
      "stateMutability": "nonpayable",
      "type": "function"
    },
    {
      "inputs": [
        {
          "internalType": "address",
          "name": "",
          "type": "address"
        },
        {
          "internalType": "address",
          "name": "",
          "type": "address"
        },
        {
          "internalType": "uint256",
          "name": "",
          "type": "uint256"
        },
        {
          "internalType": "uint256",
          "name": "",
          "type": "uint256"
        },
        {
          "internalType": "bytes",
          "name": "",
          "type": "bytes"
        }
      ],
      "name": "onERC1155Received",
      "outputs": [
        {
          "internalType": "bytes4",
          "name": "",
          "type": "bytes4"
        }
      ],
      "stateMutability": "nonpayable",
      "type": "function"
    },
    {
      "inputs": [
        {
          "internalType": "uint256",
          "name": "_startIndexInclusive",
          "type": "uint256"
        },
        {
          "internalType": "uint256",
          "name": "_limit",
          "type": "uint256"
        }
      ],
      "name": "paginateOfferIds",
      "outputs": [
        {
          "internalType": "uint256[]",
          "name": "",
          "type": "uint256[]"
        }
      ],
      "stateMutability": "view",
      "type": "function"
    },
    {
      "inputs": [
        {
          "internalType": "uint256",
          "name": "_startIndexInclusive",
          "type": "uint256"
        },
        {
          "internalType": "uint256",
          "name": "_limit",
          "type": "uint256"
        }
      ],
      "name": "paginateOfferLastUpdates",
      "outputs": [
        {
          "internalType": "uint256[][]",
          "name": "",
          "type": "uint256[][]"
        }
      ],
      "stateMutability": "view",
      "type": "function"
    },
    {
      "inputs": [
        {
          "internalType": "uint256",
          "name": "_startIndexInclusive",
          "type": "uint256"
        },
        {
          "internalType": "uint256",
          "name": "_limit",
          "type": "uint256"
        }
      ],
      "name": "paginateOffers",
      "outputs": [
        {
          "components": [
            {
              "internalType": "uint256",
              "name": "id",
              "type": "uint256"
            },
            {
              "internalType": "contract IERC1155",
              "name": "inputCollection",
              "type": "address"
            },
            {
              "internalType": "uint256[]",
              "name": "inputCollectionItemIds",
              "type": "uint256[]"
            },
            {
              "internalType": "uint256[]",
              "name": "inputCollectionItemAmounts",
              "type": "uint256[]"
            },
            {
              "internalType": "contract IERC20",
              "name": "inputCurrency",
              "type": "address"
            },
            {
              "internalType": "uint256",
              "name": "inputCurrencyAmount",
              "type": "uint256"
            },
            {
              "internalType": "contract IERC1155",
              "name": "outputCollection",
              "type": "address"
            },
            {
              "internalType": "uint256[]",
              "name": "outputCollectionItemIds",
              "type": "uint256[]"
            },
            {
              "internalType": "uint256[]",
              "name": "outputCollectionItemAmounts",
              "type": "uint256[]"
            },
            {
              "internalType": "contract IERC20",
              "name": "outputCurrency",
              "type": "address"
            },
            {
              "internalType": "uint256",
              "name": "outputCurrencyAmount",
              "type": "uint256"
            },
            {
              "internalType": "uint256",
              "name": "uses",
              "type": "uint256"
            },
            {
              "internalType": "uint256",
              "name": "maxUses",
              "type": "uint256"
            },
            {
              "internalType": "uint256",
              "name": "lastUpdatedAt",
              "type": "uint256"
            }
          ],
          "internalType": "struct IGame_Shop.Offer[]",
          "name": "",
          "type": "tuple[]"
        }
      ],
      "stateMutability": "view",
      "type": "function"
    },
    {
      "inputs": [
        {
          "internalType": "uint256",
          "name": "_offerId",
          "type": "uint256"
        }
      ],
      "name": "removeOffer",
      "outputs": [],
      "stateMutability": "nonpayable",
      "type": "function"
    },
    {
      "inputs": [
        {
          "internalType": "bytes32",
          "name": "role",
          "type": "bytes32"
        },
        {
          "internalType": "address",
          "name": "account",
          "type": "address"
        }
      ],
      "name": "renounceRole",
      "outputs": [],
      "stateMutability": "nonpayable",
      "type": "function"
    },
    {
      "inputs": [
        {
          "internalType": "bytes32",
          "name": "role",
          "type": "bytes32"
        },
        {
          "internalType": "address",
          "name": "account",
          "type": "address"
        }
      ],
      "name": "revokeRole",
      "outputs": [],
      "stateMutability": "nonpayable",
      "type": "function"
    },
    {
      "inputs": [
        {
          "internalType": "uint256",
          "name": "_offerId",
          "type": "uint256"
        },
        {
          "internalType": "address[2]",
          "name": "_inputOutputCollections",
          "type": "address[2]"
        },
        {
          "internalType": "uint256[][2]",
          "name": "_inputOutputCollectionItemIds",
          "type": "uint256[][2]"
        },
        {
          "internalType": "uint256[][2]",
          "name": "_inputOutputCollectionItemAmounts",
          "type": "uint256[][2]"
        },
        {
          "internalType": "address[2]",
          "name": "_inputOutputCurrency",
          "type": "address[2]"
        },
        {
          "internalType": "uint256[2]",
          "name": "_inputOutputCurrencyAmounts",
          "type": "uint256[2]"
        },
        {
          "internalType": "uint256",
          "name": "_maxUses",
          "type": "uint256"
        }
      ],
      "name": "setOffer",
      "outputs": [],
      "stateMutability": "nonpayable",
      "type": "function"
    },
    {
      "inputs": [
        {
          "internalType": "bytes4",
          "name": "interfaceId",
          "type": "bytes4"
        }
      ],
      "name": "supportsInterface",
      "outputs": [
        {
          "internalType": "bool",
          "name": "",
          "type": "bool"
        }
      ],
      "stateMutability": "view",
      "type": "function"
    },
    {
      "inputs": [],
      "name": "systemId",
      "outputs": [
        {
          "internalType": "bytes32",
          "name": "",
          "type": "bytes32"
        }
      ],
      "stateMutability": "view",
      "type": "function"
    },
    {
      "inputs": [],
      "name": "totalOffers",
      "outputs": [
        {
          "internalType": "uint256",
          "name": "",
          "type": "uint256"
        }
      ],
      "stateMutability": "view",
      "type": "function"
    },
    {
      "inputs": [
        {
          "internalType": "address",
          "name": "_newOwner",
          "type": "address"
        }
      ],
      "name": "transferOwnershipControl",
      "outputs": [],
      "stateMutability": "nonpayable",
      "type": "function"
    },
    {
      "inputs": [],
      "name": "trustedForwarder",
      "outputs": [
        {
          "internalType": "address",
          "name": "",
          "type": "address"
        }
      ],
      "stateMutability": "view",
      "type": "function"
    },
    {
      "inputs": [
        {
          "internalType": "address",
          "name": "_newTrustedForwarder",
          "type": "address"
        }
      ],
      "name": "upgradeTrustedForwarder",
      "outputs": [],
      "stateMutability": "nonpayable",
      "type": "function"
    },
    {
      "inputs": [
        {
          "internalType": "uint256",
          "name": "_offerId",
          "type": "uint256"
        }
      ],
      "name": "useOffer",
      "outputs": [],
      "stateMutability": "payable",
      "type": "function"
    },
    {
      "inputs": [
        {
          "internalType": "uint256",
          "name": "_offerId",
          "type": "uint256"
        },
        {
          "internalType": "uint256",
          "name": "_times",
          "type": "uint256"
        }
      ],
      "name": "useOfferMulti",
      "outputs": [],
      "stateMutability": "payable",
      "type": "function"
    },
    {
      "inputs": [
        {
          "internalType": "address",
          "name": "_currencyAddress",
          "type": "address"
        },
        {
          "internalType": "address",
          "name": "_to",
          "type": "address"
        }
      ],
      "name": "withdrawCurrencyTo",
      "outputs": [],
      "stateMutability": "nonpayable",
      "type": "function"
    },
    {
      "inputs": [
        {
          "internalType": "address",
          "name": "_collectionAddress",
          "type": "address"
        },
        {
          "internalType": "uint256[]",
          "name": "_itemIds",
          "type": "uint256[]"
        },
        {
          "internalType": "address",
          "name": "_to",
          "type": "address"
        }
      ],
      "name": "withdrawItemsTo",
      "outputs": [],
      "stateMutability": "nonpayable",
      "type": "function"
    },
    {
      "inputs": [
        {
          "internalType": "address",
          "name": "_to",
          "type": "address"
        }
      ],
      "name": "withdrawTo",
      "outputs": [],
      "stateMutability": "nonpayable",
      "type": "function"
    },
    {
      "stateMutability": "payable",
      "type": "receive"
    }
  ],
  "bytecode": "0x60806040523480156200001157600080fd5b5060405162004719380380620047198339810160408190526200003491620001af565b600080546001600160a01b0319166001600160a01b03841617815560018281556003556200006c9062000066620000a3565b620000bf565b6200009b7f5b618ab2fee761c09bf71319707cefa62eccc93dcc483744898e6c3acf45264362000066620000a3565b5050620001eb565b6000620000ba620000cf60201b620023d61760201c565b905090565b620000cb828262000105565b5050565b600080546001600160a01b03163303620000f0575060131936013560601c90565b620000ba620001ab60201b620024261760201c565b60008281526002602090815260408083206001600160a01b038516845290915290205460ff16620000cb5760008281526002602090815260408083206001600160a01b03851684529091529020805460ff1916600117905562000167620000a3565b6001600160a01b0316816001600160a01b0316837f2f8788117e7eff1d82e926ec794901d17c78024a50270940304540a733656f0d60405160405180910390a45050565b3390565b60008060408385031215620001c357600080fd5b82516001600160a01b0381168114620001db57600080fd5b6020939093015192949293505050565b61451e80620001fb6000396000f3fe6080604052600436106101dc5760003560e01c80637da0a877116101025780639d77759c11610095578063bc197c8111610064578063bc197c81146105d7578063cdf191741461064d578063d547741f1461066d578063f23a6e611461068d57600080fd5b80639d77759c1461057a578063a217fddf1461058d578063a9fd8ed1146105a2578063aa2a7eea146105b757600080fd5b80638b839502116100d15780638b839502146104c757806391d14854146104e757806395a0f9c71461053a5780639c66b0631461055a57600080fd5b80637da0a877146104155780637f413af21461046757806382335ab01461048757806389fe7c3b146104a757600080fd5b806349fe03671161017a578063687c08dd11610149578063687c08dd1461038657806372b0d90c146103a857806374d33353146103c8578063761610fc146103e857600080fd5b806349fe036714610300578063500ceb481461031357806351a30c6514610328578063572b6c051461034a57600080fd5b80632f2ff15d116101b65780632f2ff15d1461028857806336568abe146102aa57806339f898bc146102ca5780634252ac3f146102e057600080fd5b806301ffc9a7146101e85780631675187c1461021d578063248a9ca31461024a57600080fd5b366101e357005b600080fd5b3480156101f457600080fd5b506102086102033660046136f6565b6106d2565b60405190151581526020015b60405180910390f35b34801561022957600080fd5b5061023d610238366004613738565b61077a565b604051610214919061378c565b34801561025657600080fd5b5061027a610265366004613738565b60009081526002602052604090206001015490565b604051908152602001610214565b34801561029457600080fd5b506102a86102a33660046137c8565b6107fa565b005b3480156102b657600080fd5b506102a86102c53660046137c8565b6109a2565b3480156102d657600080fd5b5061027a60015481565b3480156102ec57600080fd5b506102a86102fb3660046137f4565b610a72565b6102a861030e366004613738565b610a9a565b34801561031f57600080fd5b5061023d610aba565b34801561033457600080fd5b5061033d610acb565b604051610214919061380f565b34801561035657600080fd5b506102086103653660046137f4565b60005473ffffffffffffffffffffffffffffffffffffffff91821691161490565b34801561039257600080fd5b5061039b610b7b565b60405161021491906139e2565b3480156103b457600080fd5b506102a86103c33660046137f4565b610f10565b3480156103d457600080fd5b5061027a6103e3366004613738565b610f81565b3480156103f457600080fd5b50610408610403366004613738565b611000565b6040516102149190613a55565b34801561042157600080fd5b506000546104429073ffffffffffffffffffffffffffffffffffffffff1681565b60405173ffffffffffffffffffffffffffffffffffffffff9091168152602001610214565b34801561047357600080fd5b506102a8610482366004613a68565b611387565b34801561049357600080fd5b5061039b6104a2366004613aff565b611592565b3480156104b357600080fd5b5061033d6104c2366004613aff565b611971565b3480156104d357600080fd5b506102a86104e2366004613b21565b611a53565b3480156104f357600080fd5b506102086105023660046137c8565b600091825260026020908152604080842073ffffffffffffffffffffffffffffffffffffffff93909316845291905290205460ff1690565b34801561054657600080fd5b506102a8610555366004613738565b611bb2565b34801561056657600080fd5b506102a8610575366004613b5c565b611c3d565b6102a8610588366004613aff565b6121dd565b34801561059957600080fd5b5061027a600081565b3480156105ae57600080fd5b5061027a612263565b3480156105c357600080fd5b506102a86105d23660046137f4565b61226f565b3480156105e357600080fd5b5061061c6105f2366004613d96565b7fbc197c810000000000000000000000000000000000000000000000000000000095945050505050565b6040517fffffffff000000000000000000000000000000000000000000000000000000009091168152602001610214565b34801561065957600080fd5b5061023d610668366004613aff565b6122dd565b34801561067957600080fd5b506102a86106883660046137c8565b6123b1565b34801561069957600080fd5b5061061c6106a8366004613e40565b7ff23a6e610000000000000000000000000000000000000000000000000000000095945050505050565b60007fffffffff0000000000000000000000000000000000000000000000000000000082167f0bcd089100000000000000000000000000000000000000000000000000000000148061076557507fffffffff0000000000000000000000000000000000000000000000000000000082167f4e2312e000000000000000000000000000000000000000000000000000000000145b8061077457506107748261242a565b92915050565b6040805160028082526060808301845292600092919060208301908036833701905050905082816000815181106107b3576107b3613ea5565b60200260200101818152505060066000848152602001908152602001600020600d0154816001815181106107e9576107e9613ea5565b602090810291909101015292915050565b600061080881610502612480565b905060006108387f5b618ab2fee761c09bf71319707cefa62eccc93dcc483744898e6c3acf452643610502612480565b905081806108435750805b6108d4576040517f08c379a000000000000000000000000000000000000000000000000000000000815260206004820152602d60248201527f526f6c65206772616e74696e672072657175697265732061646d696e206f722060448201527f6d616e6167657220726f6c652e0000000000000000000000000000000000000060648201526084015b60405180910390fd5b83158061090057507f5b618ab2fee761c09bf71319707cefa62eccc93dcc483744898e6c3acf45264384145b156109925781610992576040517f08c379a000000000000000000000000000000000000000000000000000000000815260206004820152602b60248201527f4f6e6c792061646d696e2063616e206772616e742061646d696e206f72206d6160448201527f6e6167657220726f6c652e00000000000000000000000000000000000000000060648201526084016108cb565b61099c848461248a565b50505050565b6109aa612480565b73ffffffffffffffffffffffffffffffffffffffff168173ffffffffffffffffffffffffffffffffffffffff1614610a64576040517f08c379a000000000000000000000000000000000000000000000000000000000815260206004820152602f60248201527f416363657373436f6e74726f6c3a2063616e206f6e6c792072656e6f756e636560448201527f20726f6c657320666f722073656c66000000000000000000000000000000000060648201526084016108cb565b610a6e828261257f565b5050565b6000610a7d81612672565b610a8860008361248a565b610a6e6000610a95612480565b61257f565b610aa2612683565b610aad8160016126f6565b610ab76001600355565b50565b6060610ac66004612f47565b905090565b60606000610ad7612263565b67ffffffffffffffff811115610aef57610aef613c0a565b604051908082528060200260200182016040528015610b2257816020015b6060815260200190600190039081610b0d5790505b50905060005b610b30612263565b811015610b7557610b45610238600483612f5b565b828281518110610b5757610b57613ea5565b60200260200101819052508080610b6d90613f03565b915050610b28565b50919050565b60606000610b87612263565b67ffffffffffffffff811115610b9f57610b9f613c0a565b604051908082528060200260200182016040528015610c9a57816020015b610c87604051806101c0016040528060008152602001600073ffffffffffffffffffffffffffffffffffffffff1681526020016060815260200160608152602001600073ffffffffffffffffffffffffffffffffffffffff16815260200160008152602001600073ffffffffffffffffffffffffffffffffffffffff1681526020016060815260200160608152602001600073ffffffffffffffffffffffffffffffffffffffff168152602001600081526020016000815260200160008152602001600081525090565b815260200190600190039081610bbd5790505b50905060005b610ca8612263565b811015610b755760066000610cbe600484612f5b565b8152602080820192909252604090810160002081516101c08101835281548152600182015473ffffffffffffffffffffffffffffffffffffffff1681850152600282018054845181870281018701865281815292959394860193830182828015610d4757602002820191906000526020600020905b815481526020019060010190808311610d33575b5050505050815260200160038201805480602002602001604051908101604052809291908181526020018280548015610d9f57602002820191906000526020600020905b815481526020019060010190808311610d8b575b5050509183525050600482015473ffffffffffffffffffffffffffffffffffffffff9081166020808401919091526005840154604080850191909152600685015490921660608401526007840180548351818402810184019094528084526080909401939091830182828015610e3457602002820191906000526020600020905b815481526020019060010190808311610e20575b5050505050815260200160088201805480602002602001604051908101604052809291908181526020018280548015610e8c57602002820191906000526020600020905b815481526020019060010190808311610e78575b5050509183525050600982015473ffffffffffffffffffffffffffffffffffffffff166020820152600a8201546040820152600b8201546060820152600c8201546080820152600d9091015460a0909101528251839083908110610ef257610ef2613ea5565b60200260200101819052508080610f0890613f03565b915050610ca0565b7f5b618ab2fee761c09bf71319707cefa62eccc93dcc483744898e6c3acf452643610f3a81612672565b60405173ffffffffffffffffffffffffffffffffffffffff8316904780156108fc02916000818181858888f19350505050158015610f7c573d6000803e3d6000fd5b505050565b6000610f8d6004612f67565b8210610ff5576040517f08c379a000000000000000000000000000000000000000000000000000000000815260206004820152601360248201527f496e646578206f7574206f6620626f756e64730000000000000000000000000060448201526064016108cb565b610774600483612f5b565b6110ca604051806101c0016040528060008152602001600073ffffffffffffffffffffffffffffffffffffffff1681526020016060815260200160608152602001600073ffffffffffffffffffffffffffffffffffffffff16815260200160008152602001600073ffffffffffffffffffffffffffffffffffffffff1681526020016060815260200160608152602001600073ffffffffffffffffffffffffffffffffffffffff168152602001600081526020016000815260200160008152602001600081525090565b6110d5600483612f71565b611161576040517f08c379a000000000000000000000000000000000000000000000000000000000815260206004820152602b60248201527f6f66666572496420646f6573206e6f74206578697374206f722068617320626560448201527f656e2072656d6f7665642e00000000000000000000000000000000000000000060648201526084016108cb565b60008281526006602090815260409182902082516101c08101845281548152600182015473ffffffffffffffffffffffffffffffffffffffff1681840152600282018054855181860281018601875281815292959394938601938301828280156111ea57602002820191906000526020600020905b8154815260200190600101908083116111d6575b505050505081526020016003820180548060200260200160405190810160405280929190818152602001828054801561124257602002820191906000526020600020905b81548152602001906001019080831161122e575b5050509183525050600482015473ffffffffffffffffffffffffffffffffffffffff90811660208084019190915260058401546040808501919091526006850154909216606084015260078401805483518184028101840190945280845260809094019390918301828280156112d757602002820191906000526020600020905b8154815260200190600101908083116112c3575b505050505081526020016008820180548060200260200160405190810160405280929190818152602001828054801561132f57602002820191906000526020600020905b81548152602001906001019080831161131b575b5050509183525050600982015473ffffffffffffffffffffffffffffffffffffffff166020820152600a8201546040820152600b8201546060820152600c8201546080820152600d9091015460a09091015292915050565b7f5b618ab2fee761c09bf71319707cefa62eccc93dcc483744898e6c3acf4526436113b181612672565b8460008467ffffffffffffffff8111156113cd576113cd613c0a565b6040519080825280602002602001820160405280156113f6578160200160208202803683370190505b50905060005b858110156114fc578273ffffffffffffffffffffffffffffffffffffffff1662fdd58e3089898581811061143257611432613ea5565b6040517fffffffff0000000000000000000000000000000000000000000000000000000060e087901b16815273ffffffffffffffffffffffffffffffffffffffff90941660048501526020029190910135602483015250604401602060405180830381865afa1580156114a9573d6000803e3d6000fd5b505050506040513d601f19601f820116820180604052508101906114cd9190613f3b565b8282815181106114df576114df613ea5565b6020908102919091010152806114f481613f03565b9150506113fc565b506040517f2eb2c2d600000000000000000000000000000000000000000000000000000000815273ffffffffffffffffffffffffffffffffffffffff831690632eb2c2d69061155790309088908b908b908890600401613f54565b600060405180830381600087803b15801561157157600080fd5b505af1158015611585573d6000803e3d6000fd5b5050505050505050505050565b606060006115a06004612f67565b84106115ad5760006115c2565b836115b86004612f67565b6115c29190613ff7565b90506000838211156115d457836115d6565b815b905060008167ffffffffffffffff8111156115f3576115f3613c0a565b6040519080825280602002602001820160405280156116ee57816020015b6116db604051806101c0016040528060008152602001600073ffffffffffffffffffffffffffffffffffffffff1681526020016060815260200160608152602001600073ffffffffffffffffffffffffffffffffffffffff16815260200160008152602001600073ffffffffffffffffffffffffffffffffffffffff1681526020016060815260200160608152602001600073ffffffffffffffffffffffffffffffffffffffff168152602001600081526020016000815260200160008152602001600081525090565b8152602001906001900390816116115790505b50905060005b82811015611967576006600061171561170d848b61400a565b600490612f5b565b8152602080820192909252604090810160002081516101c08101835281548152600182015473ffffffffffffffffffffffffffffffffffffffff168185015260028201805484518187028101870186528181529295939486019383018282801561179e57602002820191906000526020600020905b81548152602001906001019080831161178a575b50505050508152602001600382018054806020026020016040519081016040528092919081815260200182805480156117f657602002820191906000526020600020905b8154815260200190600101908083116117e2575b5050509183525050600482015473ffffffffffffffffffffffffffffffffffffffff908116602080840191909152600584015460408085019190915260068501549092166060840152600784018054835181840281018401909452808452608090940193909183018282801561188b57602002820191906000526020600020905b815481526020019060010190808311611877575b50505050508152602001600882018054806020026020016040519081016040528092919081815260200182805480156118e357602002820191906000526020600020905b8154815260200190600101908083116118cf575b5050509183525050600982015473ffffffffffffffffffffffffffffffffffffffff166020820152600a8201546040820152600b8201546060820152600c8201546080820152600d9091015460a090910152825183908390811061194957611949613ea5565b6020026020010181905250808061195f90613f03565b9150506116f4565b5095945050505050565b6060600061197f6004612f67565b841061198c5760006119a1565b836119976004612f67565b6119a19190613ff7565b90506000838211156119b357836119b5565b815b905060008167ffffffffffffffff8111156119d2576119d2613c0a565b604051908082528060200260200182016040528015611a0557816020015b60608152602001906001900390816119f05790505b50905060005b8281101561196757611a2361023861170d838a61400a565b828281518110611a3557611a35613ea5565b60200260200101819052508080611a4b90613f03565b915050611a0b565b7f5b618ab2fee761c09bf71319707cefa62eccc93dcc483744898e6c3acf452643611a7d81612672565b6040517f70a08231000000000000000000000000000000000000000000000000000000008152306004820152839073ffffffffffffffffffffffffffffffffffffffff82169063a9059cbb90859083906370a0823190602401602060405180830381865afa158015611af3573d6000803e3d6000fd5b505050506040513d601f19601f82011682018060405250810190611b179190613f3b565b6040517fffffffff0000000000000000000000000000000000000000000000000000000060e085901b16815273ffffffffffffffffffffffffffffffffffffffff909216600483015260248201526044016020604051808303816000875af1158015611b87573d6000803e3d6000fd5b505050506040513d601f19601f82011682018060405250810190611bab919061401d565b5050505050565b7f5b618ab2fee761c09bf71319707cefa62eccc93dcc483744898e6c3acf452643611bdc81612672565b611be7600483612f89565b5060008281526006602052604090819020905183907f6a1a138e164465aabd2f777a1616db53b1e03ebfc20e197765e62fa2b748600b90611c299084906141dd565b60405180910390a26000600b909101555050565b7f5b618ab2fee761c09bf71319707cefa62eccc93dcc483744898e6c3acf452643611c6781612672565b611c7185806141f0565b9050611c7d87806141f0565b905014611d0c576040517f08c379a000000000000000000000000000000000000000000000000000000000815260206004820152602260248201527f496e707574206974656d7320616e6420616d6f756e7473206d69736d6174636860448201527f656400000000000000000000000000000000000000000000000000000000000060648201526084016108cb565b611d1960208601866141f0565b9050611d2860208801886141f0565b905014611db7576040517f08c379a000000000000000000000000000000000000000000000000000000000815260206004820152602360248201527f4f7574707574206974656d7320616e6420616d6f756e7473206d69736d61746360448201527f686564000000000000000000000000000000000000000000000000000000000060648201526084016108cb565b6000604051806101c001604052808a815260200189600060028110611dde57611dde613ea5565b602002016020810190611df191906137f4565b73ffffffffffffffffffffffffffffffffffffffff168152602001611e1689806141f0565b80806020026020016040519081016040528093929190818152602001838360200280828437600092019190915250505090825250602001611e5788806141f0565b80806020026020016040519081016040528093929190818152602001838360200280828437600092019190915250505090825250602090810190611e9d908801886137f4565b73ffffffffffffffffffffffffffffffffffffffff16815285356020820152604001896001602002016020810190611ed591906137f4565b73ffffffffffffffffffffffffffffffffffffffff168152602090810190611eff908a018a6141f0565b80806020026020016040519081016040528093929190818152602001838360200280828437600092019190915250505090825250602090810190611f45908901896141f0565b80806020026020016040519081016040528093929190818152602001838360200280828437600092019190915250505090825250602090810190611f8f90604089019089016137f4565b73ffffffffffffffffffffffffffffffffffffffff1681526020868101358183015260008c81526006909152604090819020600b01549082015260608101859052426080909101529050611fe460048a612f95565b5060008981526006602090815260409182902083518155838201516001820180547fffffffffffffffffffffffff00000000000000000000000000000000000000001673ffffffffffffffffffffffffffffffffffffffff90921691909117905591830151805184939261205f926002850192910190613696565b506060820151805161207b916003840191602090910190613696565b50608082015160048201805473ffffffffffffffffffffffffffffffffffffffff9283167fffffffffffffffffffffffff00000000000000000000000000000000000000009182161790915560a0840151600584015560c084015160068401805491909316911617905560e08201518051612100916007840191602090910190613696565b50610100820151805161211d916008840191602090910190613696565b506101208201516009820180547fffffffffffffffffffffffff00000000000000000000000000000000000000001673ffffffffffffffffffffffffffffffffffffffff909216919091179055610140820151600a820155610160820151600b820155610180820151600c8201556101a090910151600d9091015560405189907ffcb9e66873133101ffdf745da3859e2b3736909576d4d11d6982e3e0e19d9754906121ca908490613a55565b60405180910390a2505050505050505050565b6121e5612683565b6000811161224f576040517f08c379a000000000000000000000000000000000000000000000000000000000815260206004820152601160248201527f74696d65732063616e6e6f74206265203000000000000000000000000000000060448201526064016108cb565b61225982826126f6565b610a6e6001600355565b6000610ac66004612f67565b7f5b618ab2fee761c09bf71319707cefa62eccc93dcc483744898e6c3acf45264361229981612672565b600080547fffffffffffffffffffffffff00000000000000000000000000000000000000001673ffffffffffffffffffffffffffffffffffffffff84161790555050565b606060006122eb6004612f67565b84106122f857600061230d565b836123036004612f67565b61230d9190613ff7565b905060008382111561231f5783612321565b815b905060008167ffffffffffffffff81111561233e5761233e613c0a565b604051908082528060200260200182016040528015612367578160200160208202803683370190505b50905060005b828110156119675761238261170d828961400a565b82828151811061239457612394613ea5565b6020908102919091010152806123a981613f03565b91505061236d565b6000828152600260205260409020600101546123cc81612672565b610f7c838361257f565b6000805473ffffffffffffffffffffffffffffffffffffffff16330361242157507fffffffffffffffffffffffffffffffffffffffffffffffffffffffffffffffec36013560601c90565b503390565b3390565b60007fffffffff0000000000000000000000000000000000000000000000000000000082167f4e2312e0000000000000000000000000000000000000000000000000000000001480610774575061077482612fa1565b6000610ac66123d6565b600082815260026020908152604080832073ffffffffffffffffffffffffffffffffffffffff8516845290915290205460ff16610a6e57600082815260026020908152604080832073ffffffffffffffffffffffffffffffffffffffff85168452909152902080547fffffffffffffffffffffffffffffffffffffffffffffffffffffffffffffff00166001179055612521612480565b73ffffffffffffffffffffffffffffffffffffffff168173ffffffffffffffffffffffffffffffffffffffff16837f2f8788117e7eff1d82e926ec794901d17c78024a50270940304540a733656f0d60405160405180910390a45050565b600082815260026020908152604080832073ffffffffffffffffffffffffffffffffffffffff8516845290915290205460ff1615610a6e57600082815260026020908152604080832073ffffffffffffffffffffffffffffffffffffffff85168452909152902080547fffffffffffffffffffffffffffffffffffffffffffffffffffffffffffffff00169055612614612480565b73ffffffffffffffffffffffffffffffffffffffff168173ffffffffffffffffffffffffffffffffffffffff16837ff6391f5c32d9c69d2a47ea670b442974b53935d1edc7fd64eb21e047a839171b60405160405180910390a45050565b610ab78161267e612480565b613038565b6002600354036126ef576040517f08c379a000000000000000000000000000000000000000000000000000000000815260206004820152601f60248201527f5265656e7472616e637947756172643a207265656e7472616e742063616c6c0060448201526064016108cb565b6002600355565b612701600483612f71565b61278d576040517f08c379a000000000000000000000000000000000000000000000000000000000815260206004820152602b60248201527f6f66666572496420646f6573206e6f74206578697374206f722068617320626560448201527f656e2072656d6f7665642e00000000000000000000000000000000000000000060648201526084016108cb565b6000828152600660205260409020600c81015415806127bf575080600c01548282600b01546127bc919061400a565b11155b612825576040517f08c379a000000000000000000000000000000000000000000000000000000000815260206004820152601b60248201527f4f6666657220776f756c64207265616368206d617820757365732e000000000060448201526064016108cb565b600181015473ffffffffffffffffffffffffffffffffffffffff161561292057600181015473ffffffffffffffffffffffffffffffffffffffff16632eb2c2d661286d612480565b30846002016128ce866003018054806020026020016040519081016040528092919081815260200182805480156128c357602002820191906000526020600020905b8154815260200190600101908083116128af575b5050505050886130f2565b6040518563ffffffff1660e01b81526004016128ed949392919061425f565b600060405180830381600087803b15801561290757600080fd5b505af115801561291b573d6000803e3d6000fd5b505050505b600581015415612a9f57600481015473ffffffffffffffffffffffffffffffffffffffff1615612a2657600481015473ffffffffffffffffffffffffffffffffffffffff166323b872dd612972612480565b3085856005015461298391906142c7565b6040517fffffffff0000000000000000000000000000000000000000000000000000000060e086901b16815273ffffffffffffffffffffffffffffffffffffffff938416600482015292909116602483015260448201526064016020604051808303816000875af11580156129fc573d6000803e3d6000fd5b505050506040513d601f19601f82011682018060405250810190612a20919061401d565b50612a9f565b818160050154612a3691906142c7565b341015612a9f576040517f08c379a000000000000000000000000000000000000000000000000000000000815260206004820152601660248201527f5061796d656e74206c657373207468616e20636f73740000000000000000000060448201526064016108cb565b600681015473ffffffffffffffffffffffffffffffffffffffff1615612c9e576006810154612ae39073ffffffffffffffffffffffffffffffffffffffff166131b3565b15612bc557600681015473ffffffffffffffffffffffffffffffffffffffff16806308f427c7612b11612480565b84600701612b6f866008018054806020026020016040519081016040528092919081815260200182805480156128c357602002820191906000526020600020908154815260200190600101908083116128af575050505050886130f2565b6040518463ffffffff1660e01b8152600401612b8d93929190614304565b600060405180830381600087803b158015612ba757600080fd5b505af1158015612bbb573d6000803e3d6000fd5b5050505050612c9e565b600681015473ffffffffffffffffffffffffffffffffffffffff16632eb2c2d630612bee612480565b84600701612c4c866008018054806020026020016040519081016040528092919081815260200182805480156128c357602002820191906000526020600020908154815260200190600101908083116128af575050505050886130f2565b6040518563ffffffff1660e01b8152600401612c6b949392919061425f565b600060405180830381600087803b158015612c8557600080fd5b505af1158015612c99573d6000803e3d6000fd5b505050505b600981015473ffffffffffffffffffffffffffffffffffffffff1615612e7b576009810154612ce29073ffffffffffffffffffffffffffffffffffffffff166131b3565b15612da957600981015473ffffffffffffffffffffffffffffffffffffffff16806340c10f19612d10612480565b8585600a0154612d2091906142c7565b6040517fffffffff0000000000000000000000000000000000000000000000000000000060e085901b16815273ffffffffffffffffffffffffffffffffffffffff90921660048301526024820152604401600060405180830381600087803b158015612d8b57600080fd5b505af1158015612d9f573d6000803e3d6000fd5b5050505050612ee0565b600981015473ffffffffffffffffffffffffffffffffffffffff1663a9059cbb612dd1612480565b8484600a0154612de191906142c7565b6040517fffffffff0000000000000000000000000000000000000000000000000000000060e085901b16815273ffffffffffffffffffffffffffffffffffffffff909216600483015260248201526044016020604051808303816000875af1158015612e51573d6000803e3d6000fd5b505050506040513d601f19601f82011682018060405250810190612e75919061401d565b50612ee0565b600a81015415612ee057612e8d612480565b73ffffffffffffffffffffffffffffffffffffffff166108fc8383600a0154612eb691906142c7565b6040518115909202916000818181858888f19350505050158015612ede573d6000803e3d6000fd5b505b8181600b016000828254612ef4919061400a565b909155505042600d820155827f0b6d302aef644f1507eb2eded80719b12d15ced4627cb57a8839251c4cef0e7d8284612f2b612480565b604051612f3a9392919061434f565b60405180910390a2505050565b60606000612f548361326c565b9392505050565b6000612f5483836132c8565b6000610774825490565b60008181526001830160205260408120541515612f54565b6000612f5483836132f2565b6000612f5483836133e5565b60007fffffffff0000000000000000000000000000000000000000000000000000000082167f7965db0b00000000000000000000000000000000000000000000000000000000148061077457507f01ffc9a7000000000000000000000000000000000000000000000000000000007fffffffff00000000000000000000000000000000000000000000000000000000831614610774565b600082815260026020908152604080832073ffffffffffffffffffffffffffffffffffffffff8516845290915290205460ff16610a6e5761307881613434565b613083836020613453565b6040516020016130949291906143b2565b604080517fffffffffffffffffffffffffffffffffffffffffffffffffffffffffffffffe0818403018152908290527f08c379a00000000000000000000000000000000000000000000000000000000082526108cb91600401614433565b606081600103613103575081610774565b6000835167ffffffffffffffff81111561311f5761311f613c0a565b604051908082528060200260200182016040528015613148578160200160208202803683370190505b50905060005b84518110156131ab578385828151811061316a5761316a613ea5565b602002602001015161317c91906142c7565b82828151811061318e5761318e613ea5565b6020908102919091010152806131a381613f03565b91505061314e565b509392505050565b6040517f91d148540000000000000000000000000000000000000000000000000000000081527fc9eb32e43bf5ecbceacf00b32281dfc5d6d700a0db676ea26ccf938a385ac3f76004820152306024820152600090829073ffffffffffffffffffffffffffffffffffffffff8216906391d1485490604401602060405180830381865afa158015613248573d6000803e3d6000fd5b505050506040513d601f19601f82011682018060405250810190612f54919061401d565b6060816000018054806020026020016040519081016040528092919081815260200182805480156132bc57602002820191906000526020600020905b8154815260200190600101908083116132a8575b50505050509050919050565b60008260000182815481106132df576132df613ea5565b9060005260206000200154905092915050565b600081815260018301602052604081205480156133db576000613316600183613ff7565b855490915060009061332a90600190613ff7565b905081811461338f57600086600001828154811061334a5761334a613ea5565b906000526020600020015490508087600001848154811061336d5761336d613ea5565b6000918252602080832090910192909255918252600188019052604090208390555b85548690806133a0576133a0614484565b600190038181906000526020600020016000905590558560010160008681526020019081526020016000206000905560019350505050610774565b6000915050610774565b600081815260018301602052604081205461342c57508154600181810184556000848152602080822090930184905584548482528286019093526040902091909155610774565b506000610774565b606061077473ffffffffffffffffffffffffffffffffffffffff831660145b606060006134628360026142c7565b61346d90600261400a565b67ffffffffffffffff81111561348557613485613c0a565b6040519080825280601f01601f1916602001820160405280156134af576020820181803683370190505b5090507f3000000000000000000000000000000000000000000000000000000000000000816000815181106134e6576134e6613ea5565b60200101907effffffffffffffffffffffffffffffffffffffffffffffffffffffffffffff1916908160001a9053507f78000000000000000000000000000000000000000000000000000000000000008160018151811061354957613549613ea5565b60200101907effffffffffffffffffffffffffffffffffffffffffffffffffffffffffffff1916908160001a90535060006135858460026142c7565b61359090600161400a565b90505b600181111561362d577f303132333435363738396162636465660000000000000000000000000000000085600f16601081106135d1576135d1613ea5565b1a60f81b8282815181106135e7576135e7613ea5565b60200101907effffffffffffffffffffffffffffffffffffffffffffffffffffffffffffff1916908160001a90535060049490941c93613626816144b3565b9050613593565b508315612f54576040517f08c379a000000000000000000000000000000000000000000000000000000000815260206004820181905260248201527f537472696e67733a20686578206c656e67746820696e73756666696369656e7460448201526064016108cb565b8280548282559060005260206000209081019282156136d1579160200282015b828111156136d15782518255916020019190600101906136b6565b506136dd9291506136e1565b5090565b5b808211156136dd57600081556001016136e2565b60006020828403121561370857600080fd5b81357fffffffff0000000000000000000000000000000000000000000000000000000081168114612f5457600080fd5b60006020828403121561374a57600080fd5b5035919050565b600081518084526020808501945080840160005b8381101561378157815187529582019590820190600101613765565b509495945050505050565b602081526000612f546020830184613751565b803573ffffffffffffffffffffffffffffffffffffffff811681146137c357600080fd5b919050565b600080604083850312156137db57600080fd5b823591506137eb6020840161379f565b90509250929050565b60006020828403121561380657600080fd5b612f548261379f565b6000602080830181845280855180835260408601915060408160051b870101925083870160005b82811015613882577fffffffffffffffffffffffffffffffffffffffffffffffffffffffffffffffc0888603018452613870858351613751565b94509285019290850190600101613836565b5092979650505050505050565b60006101c08251845260208301516138bf602086018273ffffffffffffffffffffffffffffffffffffffff169052565b5060408301518160408601526138d782860182613751565b915050606083015184820360608601526138f18282613751565b915050608083015161391b608086018273ffffffffffffffffffffffffffffffffffffffff169052565b5060a083015160a085015260c083015161394d60c086018273ffffffffffffffffffffffffffffffffffffffff169052565b5060e083015184820360e08601526139658282613751565b91505061010080840151858303828701526139808382613751565b92505050610120808401516139ac8287018273ffffffffffffffffffffffffffffffffffffffff169052565b50506101408381015190850152610160808401519085015261018080840151908501526101a09283015192909301919091525090565b6000602080830181845280855180835260408601915060408160051b870101925083870160005b82811015613882577fffffffffffffffffffffffffffffffffffffffffffffffffffffffffffffffc0888603018452613a4385835161388f565b94509285019290850190600101613a09565b602081526000612f54602083018461388f565b60008060008060608587031215613a7e57600080fd5b613a878561379f565b9350602085013567ffffffffffffffff80821115613aa457600080fd5b818701915087601f830112613ab857600080fd5b813581811115613ac757600080fd5b8860208260051b8501011115613adc57600080fd5b602083019550809450505050613af46040860161379f565b905092959194509250565b60008060408385031215613b1257600080fd5b50508035926020909101359150565b60008060408385031215613b3457600080fd5b613b3d8361379f565b91506137eb6020840161379f565b806040810183101561077457600080fd5b6000806000806000806000610140888a031215613b7857600080fd5b87359650613b898960208a01613b4b565b9550606088013567ffffffffffffffff80821115613ba657600080fd5b613bb28b838c01613b4b565b965060808a0135915080821115613bc857600080fd5b50613bd58a828b01613b4b565b945050613be58960a08a01613b4b565b9250613bf48960e08a01613b4b565b9150610120880135905092959891949750929550565b7f4e487b7100000000000000000000000000000000000000000000000000000000600052604160045260246000fd5b604051601f82017fffffffffffffffffffffffffffffffffffffffffffffffffffffffffffffffe016810167ffffffffffffffff81118282101715613c8057613c80613c0a565b604052919050565b600082601f830112613c9957600080fd5b8135602067ffffffffffffffff821115613cb557613cb5613c0a565b8160051b613cc4828201613c39565b9283528481018201928281019087851115613cde57600080fd5b83870192505b84831015613cfd57823582529183019190830190613ce4565b979650505050505050565b600082601f830112613d1957600080fd5b813567ffffffffffffffff811115613d3357613d33613c0a565b613d6460207fffffffffffffffffffffffffffffffffffffffffffffffffffffffffffffffe0601f84011601613c39565b818152846020838601011115613d7957600080fd5b816020850160208301376000918101602001919091529392505050565b600080600080600060a08688031215613dae57600080fd5b613db78661379f565b9450613dc56020870161379f565b9350604086013567ffffffffffffffff80821115613de257600080fd5b613dee89838a01613c88565b94506060880135915080821115613e0457600080fd5b613e1089838a01613c88565b93506080880135915080821115613e2657600080fd5b50613e3388828901613d08565b9150509295509295909350565b600080600080600060a08688031215613e5857600080fd5b613e618661379f565b9450613e6f6020870161379f565b93506040860135925060608601359150608086013567ffffffffffffffff811115613e9957600080fd5b613e3388828901613d08565b7f4e487b7100000000000000000000000000000000000000000000000000000000600052603260045260246000fd5b7f4e487b7100000000000000000000000000000000000000000000000000000000600052601160045260246000fd5b60007fffffffffffffffffffffffffffffffffffffffffffffffffffffffffffffffff8203613f3457613f34613ed4565b5060010190565b600060208284031215613f4d57600080fd5b5051919050565b600073ffffffffffffffffffffffffffffffffffffffff808816835280871660208401525060a060408301528360a08301527f07ffffffffffffffffffffffffffffffffffffffffffffffffffffffffffffff841115613fb357600080fd5b8360051b808660c0850137820182810360c09081016060850152613fd990820185613751565b83810360809094019390935250506000815260200195945050505050565b8181038181111561077457610774613ed4565b8082018082111561077457610774613ed4565b60006020828403121561402f57600080fd5b81518015158114612f5457600080fd5b6000815480845260208085019450836000528060002060005b8381101561378157815487529582019560019182019101614058565b60006101c08254845261409e600184015473ffffffffffffffffffffffffffffffffffffffff1690565b73ffffffffffffffffffffffffffffffffffffffff166020850152604084018190526140cf8185016002850161403f565b905083810360608501526140e6816003850161403f565b9050614109600484015473ffffffffffffffffffffffffffffffffffffffff1690565b73ffffffffffffffffffffffffffffffffffffffff9081166080860152600584015460a086015260068401541660c085015283810360e0850152614150816007850161403f565b9050838103610100850152614168816008850161403f565b905061418b600984015473ffffffffffffffffffffffffffffffffffffffff1690565b73ffffffffffffffffffffffffffffffffffffffff16610120850152600a830154610140850152600b830154610160850152600c830154610180850152600d909201546101a090930192909252919050565b602081526000612f546020830184614074565b60008083357fffffffffffffffffffffffffffffffffffffffffffffffffffffffffffffffe184360301811261422557600080fd5b83018035915067ffffffffffffffff82111561424057600080fd5b6020019150600581901b360382131561425857600080fd5b9250929050565b600073ffffffffffffffffffffffffffffffffffffffff808716835280861660208401525060a0604083015261429860a083018561403f565b82810360608401526142aa8185613751565b838103608090940193909352505060008152602001949350505050565b6000817fffffffffffffffffffffffffffffffffffffffffffffffffffffffffffffffff04831182151516156142ff576142ff613ed4565b500290565b73ffffffffffffffffffffffffffffffffffffffff84168152606060208201526000614333606083018561403f565b82810360408401526143458185613751565b9695505050505050565b6060815260006143626060830186614074565b905083602083015273ffffffffffffffffffffffffffffffffffffffff83166040830152949350505050565b60005b838110156143a9578181015183820152602001614391565b50506000910152565b7f416363657373436f6e74726f6c3a206163636f756e74200000000000000000008152600083516143ea81601785016020880161438e565b7f206973206d697373696e6720726f6c6520000000000000000000000000000000601791840191820152835161442781602884016020880161438e565b01602801949350505050565b602081526000825180602084015261445281604085016020870161438e565b601f017fffffffffffffffffffffffffffffffffffffffffffffffffffffffffffffffe0169190910160400192915050565b7f4e487b7100000000000000000000000000000000000000000000000000000000600052603160045260246000fd5b6000816144c2576144c2613ed4565b507fffffffffffffffffffffffffffffffffffffffffffffffffffffffffffffffff019056fea2646970667358221220d1c060e5f784f277cf4bf076010444d0198b2ee52140c05da231fd27cd43047064736f6c63430008100033",
  "linkReferences": {},
  "deployedLinkReferences": {}
}