{
  "_format": "hh-sol-artifact-1",
  "contractName": "ERC1155_Game_Items_Collection",
  "sourceName": "contracts/Items_Collection/ERC1155_Game_Items_Collection.sol",
  "abi": [
    {
      "inputs": [
        {
          "internalType": "address",
          "name": "_forwarder",
          "type": "address"
        },
        {
          "internalType": "bytes32",
          "name": "_systemId",
          "type": "bytes32"
        }
      ],
      "stateMutability": "nonpayable",
      "type": "constructor"
    },
    {
      "anonymous": false,
      "inputs": [
        {
          "indexed": true,
          "internalType": "address",
          "name": "account",
          "type": "address"
        },
        {
          "indexed": true,
          "internalType": "address",
          "name": "operator",
          "type": "address"
        },
        {
          "indexed": false,
          "internalType": "bool",
          "name": "approved",
          "type": "bool"
        }
      ],
      "name": "ApprovalForAll",
      "type": "event"
    },
    {
      "anonymous": false,
      "inputs": [
        {
          "indexed": true,
          "internalType": "bytes32",
          "name": "role",
          "type": "bytes32"
        },
        {
          "indexed": true,
          "internalType": "bytes32",
          "name": "previousAdminRole",
          "type": "bytes32"
        },
        {
          "indexed": true,
          "internalType": "bytes32",
          "name": "newAdminRole",
          "type": "bytes32"
        }
      ],
      "name": "RoleAdminChanged",
      "type": "event"
    },
    {
      "anonymous": false,
      "inputs": [
        {
          "indexed": true,
          "internalType": "bytes32",
          "name": "role",
          "type": "bytes32"
        },
        {
          "indexed": true,
          "internalType": "address",
          "name": "account",
          "type": "address"
        },
        {
          "indexed": true,
          "internalType": "address",
          "name": "sender",
          "type": "address"
        }
      ],
      "name": "RoleGranted",
      "type": "event"
    },
    {
      "anonymous": false,
      "inputs": [
        {
          "indexed": true,
          "internalType": "bytes32",
          "name": "role",
          "type": "bytes32"
        },
        {
          "indexed": true,
          "internalType": "address",
          "name": "account",
          "type": "address"
        },
        {
          "indexed": true,
          "internalType": "address",
          "name": "sender",
          "type": "address"
        }
      ],
      "name": "RoleRevoked",
      "type": "event"
    },
    {
      "anonymous": false,
      "inputs": [
        {
          "indexed": true,
          "internalType": "address",
          "name": "operator",
          "type": "address"
        },
        {
          "indexed": true,
          "internalType": "address",
          "name": "from",
          "type": "address"
        },
        {
          "indexed": true,
          "internalType": "address",
          "name": "to",
          "type": "address"
        },
        {
          "indexed": false,
          "internalType": "uint256[]",
          "name": "ids",
          "type": "uint256[]"
        },
        {
          "indexed": false,
          "internalType": "uint256[]",
          "name": "values",
          "type": "uint256[]"
        }
      ],
      "name": "TransferBatch",
      "type": "event"
    },
    {
      "anonymous": false,
      "inputs": [
        {
          "indexed": true,
          "internalType": "address",
          "name": "operator",
          "type": "address"
        },
        {
          "indexed": true,
          "internalType": "address",
          "name": "from",
          "type": "address"
        },
        {
          "indexed": true,
          "internalType": "address",
          "name": "to",
          "type": "address"
        },
        {
          "indexed": false,
          "internalType": "uint256",
          "name": "id",
          "type": "uint256"
        },
        {
          "indexed": false,
          "internalType": "uint256",
          "name": "value",
          "type": "uint256"
        }
      ],
      "name": "TransferSingle",
      "type": "event"
    },
    {
      "anonymous": false,
      "inputs": [
        {
          "indexed": false,
          "internalType": "string",
          "name": "value",
          "type": "string"
        },
        {
          "indexed": true,
          "internalType": "uint256",
          "name": "id",
          "type": "uint256"
        }
      ],
      "name": "URI",
      "type": "event"
    },
    {
      "inputs": [],
      "name": "DEFAULT_ADMIN_ROLE",
      "outputs": [
        {
          "internalType": "bytes32",
          "name": "",
          "type": "bytes32"
        }
      ],
      "stateMutability": "view",
      "type": "function"
    },
    {
      "inputs": [],
      "name": "allItemIds",
      "outputs": [
        {
          "internalType": "uint256[]",
          "name": "",
          "type": "uint256[]"
        }
      ],
      "stateMutability": "view",
      "type": "function"
    },
    {
      "inputs": [],
      "name": "allItemSupplies",
      "outputs": [
        {
          "internalType": "uint256[][]",
          "name": "",
          "type": "uint256[][]"
        }
      ],
      "stateMutability": "view",
      "type": "function"
    },
    {
      "inputs": [],
      "name": "allItemURIs",
      "outputs": [
        {
          "internalType": "string[]",
          "name": "",
          "type": "string[]"
        }
      ],
      "stateMutability": "view",
      "type": "function"
    },
    {
      "inputs": [
        {
          "internalType": "address",
          "name": "account",
          "type": "address"
        },
        {
          "internalType": "uint256",
          "name": "id",
          "type": "uint256"
        }
      ],
      "name": "balanceOf",
      "outputs": [
        {
          "internalType": "uint256",
          "name": "",
          "type": "uint256"
        }
      ],
      "stateMutability": "view",
      "type": "function"
    },
    {
      "inputs": [
        {
          "internalType": "address",
          "name": "_address",
          "type": "address"
        }
      ],
      "name": "balanceOfAll",
      "outputs": [
        {
          "internalType": "uint256[][]",
          "name": "",
          "type": "uint256[][]"
        }
      ],
      "stateMutability": "view",
      "type": "function"
    },
    {
      "inputs": [
        {
          "internalType": "address[]",
          "name": "accounts",
          "type": "address[]"
        },
        {
          "internalType": "uint256[]",
          "name": "ids",
          "type": "uint256[]"
        }
      ],
      "name": "balanceOfBatch",
      "outputs": [
        {
          "internalType": "uint256[]",
          "name": "",
          "type": "uint256[]"
        }
      ],
      "stateMutability": "view",
      "type": "function"
    },
    {
      "inputs": [
        {
          "internalType": "address",
          "name": "_fromAddress",
          "type": "address"
        },
        {
          "internalType": "address[]",
          "name": "_toAddresses",
          "type": "address[]"
        },
        {
          "internalType": "uint256[]",
          "name": "_itemIds",
          "type": "uint256[]"
        },
        {
          "internalType": "uint256[]",
          "name": "_quantitiesPerAddress",
          "type": "uint256[]"
        }
      ],
      "name": "bulkSafeBatchTransferFrom",
      "outputs": [],
      "stateMutability": "nonpayable",
      "type": "function"
    },
    {
      "inputs": [
        {
          "internalType": "address",
          "name": "_fromAddress",
          "type": "address"
        },
        {
          "internalType": "uint256[]",
          "name": "_itemIds",
          "type": "uint256[]"
        },
        {
          "internalType": "uint256[]",
          "name": "_quantities",
          "type": "uint256[]"
        }
      ],
      "name": "burnBatchFromAddress",
      "outputs": [],
      "stateMutability": "nonpayable",
      "type": "function"
    },
    {
      "inputs": [
        {
          "internalType": "address",
          "name": "_fromAddress",
          "type": "address"
        },
        {
          "internalType": "uint256",
          "name": "_itemId",
          "type": "uint256"
        },
        {
          "internalType": "uint256",
          "name": "_quantity",
          "type": "uint256"
        }
      ],
      "name": "burnFromAddress",
      "outputs": [],
      "stateMutability": "nonpayable",
      "type": "function"
    },
    {
      "inputs": [
        {
          "internalType": "bytes32",
          "name": "role",
          "type": "bytes32"
        }
      ],
      "name": "getRoleAdmin",
      "outputs": [
        {
          "internalType": "bytes32",
          "name": "",
          "type": "bytes32"
        }
      ],
      "stateMutability": "view",
      "type": "function"
    },
    {
      "inputs": [
        {
          "internalType": "bytes32",
          "name": "role",
          "type": "bytes32"
        },
        {
          "internalType": "address",
          "name": "account",
          "type": "address"
        }
      ],
      "name": "grantRole",
      "outputs": [],
      "stateMutability": "nonpayable",
      "type": "function"
    },
    {
      "inputs": [
        {
          "internalType": "bytes32",
          "name": "role",
          "type": "bytes32"
        },
        {
          "internalType": "address",
          "name": "account",
          "type": "address"
        }
      ],
      "name": "hasRole",
      "outputs": [
        {
          "internalType": "bool",
          "name": "",
          "type": "bool"
        }
      ],
      "stateMutability": "view",
      "type": "function"
    },
    {
      "inputs": [
        {
          "internalType": "address",
          "name": "account",
          "type": "address"
        },
        {
          "internalType": "address",
          "name": "operator",
          "type": "address"
        }
      ],
      "name": "isApprovedForAll",
      "outputs": [
        {
          "internalType": "bool",
          "name": "",
          "type": "bool"
        }
      ],
      "stateMutability": "view",
      "type": "function"
    },
    {
      "inputs": [
        {
          "internalType": "uint256",
          "name": "_itemId",
          "type": "uint256"
        }
      ],
      "name": "isItemTransferrable",
      "outputs": [
        {
          "internalType": "bool",
          "name": "",
          "type": "bool"
        }
      ],
      "stateMutability": "view",
      "type": "function"
    },
    {
      "inputs": [
        {
          "internalType": "address",
          "name": "forwarder",
          "type": "address"
        }
      ],
      "name": "isTrustedForwarder",
      "outputs": [
        {
          "internalType": "bool",
          "name": "",
          "type": "bool"
        }
      ],
      "stateMutability": "view",
      "type": "function"
    },
    {
      "inputs": [],
      "name": "itemBaseURI",
      "outputs": [
        {
          "internalType": "string",
          "name": "",
          "type": "string"
        }
      ],
      "stateMutability": "view",
      "type": "function"
    },
    {
      "inputs": [
        {
          "internalType": "uint256",
          "name": "",
          "type": "uint256"
        }
      ],
      "name": "itemExists",
      "outputs": [
        {
          "internalType": "bool",
          "name": "",
          "type": "bool"
        }
      ],
      "stateMutability": "view",
      "type": "function"
    },
    {
      "inputs": [
        {
          "internalType": "uint256",
          "name": "",
          "type": "uint256"
        }
      ],
      "name": "itemIds",
      "outputs": [
        {
          "internalType": "uint256",
          "name": "",
          "type": "uint256"
        }
      ],
      "stateMutability": "view",
      "type": "function"
    },
    {
      "inputs": [
        {
          "internalType": "uint256",
          "name": "",
          "type": "uint256"
        }
      ],
      "name": "itemSupplies",
      "outputs": [
        {
          "internalType": "uint256",
          "name": "",
          "type": "uint256"
        }
      ],
      "stateMutability": "view",
      "type": "function"
    },
    {
      "inputs": [
        {
          "internalType": "uint256",
          "name": "",
          "type": "uint256"
        }
      ],
      "name": "itemTransferTimelocks",
      "outputs": [
        {
          "internalType": "uint256",
          "name": "",
          "type": "uint256"
        }
      ],
      "stateMutability": "view",
      "type": "function"
    },
    {
      "inputs": [
        {
          "internalType": "address",
          "name": "_toAddress",
          "type": "address"
        },
        {
          "internalType": "uint256[]",
          "name": "_itemIds",
          "type": "uint256[]"
        },
        {
          "internalType": "uint256[]",
          "name": "_quantities",
          "type": "uint256[]"
        }
      ],
      "name": "mintBatchToAddress",
      "outputs": [],
      "stateMutability": "nonpayable",
      "type": "function"
    },
    {
      "inputs": [
        {
          "internalType": "address",
          "name": "_toAddress",
          "type": "address"
        },
        {
          "internalType": "uint256",
          "name": "_itemId",
          "type": "uint256"
        },
        {
          "internalType": "uint256",
          "name": "_quantity",
          "type": "uint256"
        }
      ],
      "name": "mintToAddress",
      "outputs": [],
      "stateMutability": "nonpayable",
      "type": "function"
    },
    {
      "inputs": [
        {
          "internalType": "uint256",
          "name": "_itemIdsStartIndexInclusive",
          "type": "uint256"
        },
        {
          "internalType": "uint256",
          "name": "_limit",
          "type": "uint256"
        }
      ],
      "name": "paginateItemIds",
      "outputs": [
        {
          "internalType": "uint256[]",
          "name": "",
          "type": "uint256[]"
        }
      ],
      "stateMutability": "view",
      "type": "function"
    },
    {
      "inputs": [
        {
          "internalType": "uint256",
          "name": "_itemIdsStartIndexInclusive",
          "type": "uint256"
        },
        {
          "internalType": "uint256",
          "name": "_limit",
          "type": "uint256"
        }
      ],
      "name": "paginateItemSupplies",
      "outputs": [
        {
          "internalType": "uint256[][]",
          "name": "",
          "type": "uint256[][]"
        }
      ],
      "stateMutability": "view",
      "type": "function"
    },
    {
      "inputs": [
        {
          "internalType": "uint256",
          "name": "_itemIdsStartIndexInclusive",
          "type": "uint256"
        },
        {
          "internalType": "uint256",
          "name": "_limit",
          "type": "uint256"
        }
      ],
      "name": "paginateItemURIs",
      "outputs": [
        {
          "internalType": "string[]",
          "name": "",
          "type": "string[]"
        }
      ],
      "stateMutability": "view",
      "type": "function"
    },
    {
      "inputs": [
        {
          "internalType": "bytes32",
          "name": "role",
          "type": "bytes32"
        },
        {
          "internalType": "address",
          "name": "account",
          "type": "address"
        }
      ],
      "name": "renounceRole",
      "outputs": [],
      "stateMutability": "nonpayable",
      "type": "function"
    },
    {
      "inputs": [
        {
          "internalType": "bytes32",
          "name": "role",
          "type": "bytes32"
        },
        {
          "internalType": "address",
          "name": "account",
          "type": "address"
        }
      ],
      "name": "revokeRole",
      "outputs": [],
      "stateMutability": "nonpayable",
      "type": "function"
    },
    {
      "inputs": [
        {
          "internalType": "address",
          "name": "from",
          "type": "address"
        },
        {
          "internalType": "address",
          "name": "to",
          "type": "address"
        },
        {
          "internalType": "uint256[]",
          "name": "ids",
          "type": "uint256[]"
        },
        {
          "internalType": "uint256[]",
          "name": "amounts",
          "type": "uint256[]"
        },
        {
          "internalType": "bytes",
          "name": "data",
          "type": "bytes"
        }
      ],
      "name": "safeBatchTransferFrom",
      "outputs": [],
      "stateMutability": "nonpayable",
      "type": "function"
    },
    {
      "inputs": [
        {
          "internalType": "address",
          "name": "from",
          "type": "address"
        },
        {
          "internalType": "address",
          "name": "to",
          "type": "address"
        },
        {
          "internalType": "uint256",
          "name": "id",
          "type": "uint256"
        },
        {
          "internalType": "uint256",
          "name": "amount",
          "type": "uint256"
        },
        {
          "internalType": "bytes",
          "name": "data",
          "type": "bytes"
        }
      ],
      "name": "safeTransferFrom",
      "outputs": [],
      "stateMutability": "nonpayable",
      "type": "function"
    },
    {
      "inputs": [
        {
          "internalType": "address",
          "name": "operator",
          "type": "address"
        },
        {
          "internalType": "bool",
          "name": "approved",
          "type": "bool"
        }
      ],
      "name": "setApprovalForAll",
      "outputs": [],
      "stateMutability": "nonpayable",
      "type": "function"
    },
    {
      "inputs": [
        {
          "internalType": "string",
          "name": "_itemBaseURI",
          "type": "string"
        }
      ],
      "name": "setItemBaseURI",
      "outputs": [],
      "stateMutability": "nonpayable",
      "type": "function"
    },
    {
      "inputs": [
        {
          "internalType": "uint256",
          "name": "_itemId",
          "type": "uint256"
        },
        {
          "internalType": "uint256",
          "name": "_unlockTimestamp",
          "type": "uint256"
        }
      ],
      "name": "setItemTransferTimelock",
      "outputs": [],
      "stateMutability": "nonpayable",
      "type": "function"
    },
    {
      "inputs": [
        {
          "internalType": "uint256",
          "name": "_itemId",
          "type": "uint256"
        },
        {
          "internalType": "string",
          "name": "_uri",
          "type": "string"
        }
      ],
      "name": "setItemURI",
      "outputs": [],
      "stateMutability": "nonpayable",
      "type": "function"
    },
    {
      "inputs": [
        {
          "internalType": "bytes4",
          "name": "interfaceId",
          "type": "bytes4"
        }
      ],
      "name": "supportsInterface",
      "outputs": [
        {
          "internalType": "bool",
          "name": "",
          "type": "bool"
        }
      ],
      "stateMutability": "view",
      "type": "function"
    },
    {
      "inputs": [],
      "name": "systemId",
      "outputs": [
        {
          "internalType": "bytes32",
          "name": "",
          "type": "bytes32"
        }
      ],
      "stateMutability": "view",
      "type": "function"
    },
    {
      "inputs": [],
      "name": "totalItemIds",
      "outputs": [
        {
          "internalType": "uint256",
          "name": "",
          "type": "uint256"
        }
      ],
      "stateMutability": "view",
      "type": "function"
    },
    {
      "inputs": [],
      "name": "trustedForwarder",
      "outputs": [
        {
          "internalType": "address",
          "name": "",
          "type": "address"
        }
      ],
      "stateMutability": "view",
      "type": "function"
    },
    {
      "inputs": [
        {
          "internalType": "address",
          "name": "_newTrustedForwarder",
          "type": "address"
        }
      ],
      "name": "upgradeTrustedForwarder",
      "outputs": [],
      "stateMutability": "nonpayable",
      "type": "function"
    },
    {
      "inputs": [
        {
          "internalType": "uint256",
          "name": "_itemId",
          "type": "uint256"
        }
      ],
      "name": "uri",
      "outputs": [
        {
          "internalType": "string",
          "name": "",
          "type": "string"
        }
      ],
      "stateMutability": "view",
      "type": "function"
    }
  ],
  "bytecode": "0x60806040523480156200001157600080fd5b5060405162004f0438038062004f048339810160408190526200003491620001e4565b8082604051806020016040528060008152506200005781620000c860201b60201c565b50600380546001600160a01b0319166001600160a01b03929092169190911790556004556200009160006200008b620000da565b620000f6565b620000c07fc9fc9949603a50f5cc3a96f774f1d68287789a241d2082dc81d0fb19a53bcf2b6200008b620000da565b505062000391565b6002620000d68282620002c5565b5050565b6000620000f16200010260201b62001b441760201c565b905090565b620000d682826200013a565b6003546000906001600160a01b0316330362000125575060131936013560601c90565b620000f1620001e060201b62001b9e1760201c565b60008281526005602090815260408083206001600160a01b038516845290915290205460ff16620000d65760008281526005602090815260408083206001600160a01b03851684529091529020805460ff191660011790556200019c620000da565b6001600160a01b0316816001600160a01b0316837f2f8788117e7eff1d82e926ec794901d17c78024a50270940304540a733656f0d60405160405180910390a45050565b3390565b60008060408385031215620001f857600080fd5b82516001600160a01b03811681146200021057600080fd5b6020939093015192949293505050565b634e487b7160e01b600052604160045260246000fd5b600181811c908216806200024b57607f821691505b6020821081036200026c57634e487b7160e01b600052602260045260246000fd5b50919050565b601f821115620002c057600081815260208120601f850160051c810160208610156200029b5750805b601f850160051c820191505b81811015620002bc57828155600101620002a7565b5050505b505050565b81516001600160401b03811115620002e157620002e162000220565b620002f981620002f2845462000236565b8462000272565b602080601f831160018114620003315760008415620003185750858301515b600019600386901b1c1916600185901b178555620002bc565b600085815260208120601f198616915b82811015620003625788860151825594840194600190910190840162000341565b5085821015620003815787850151600019600388901b60f8161c191681555b5050505050600190811b01905550565b614b6380620003a16000396000f3fe608060405234801561001057600080fd5b50600436106102c75760003560e01c8063843bd6411161017b578063b3dc00fe116100d8578063dc7aa9ef1161008c578063efa52e9011610071578063efa52e90146106a3578063f242432a146106ab578063fe992c98146106be57600080fd5b8063dc7aa9ef14610647578063e985e9c51461065a57600080fd5b8063bbdc8276116100bd578063bbdc82761461060c578063d547741f14610614578063d8e141751461062757600080fd5b8063b3dc00fe146105e6578063b9babeba146105f957600080fd5b8063a22cb4651161012f578063aa2a7eea11610114578063aa2a7eea1461059e578063ae06363f146105b1578063b1da7a55146105d357600080fd5b8063a22cb46514610578578063a9c47d121461058b57600080fd5b806391d148541161016057806391d1485414610517578063951549b91461055d578063a217fddf1461057057600080fd5b8063843bd641146104ec5780638c892cfd1461050f57600080fd5b80632f2ff15d116102295780634e1273f4116101dd57806358ec07c7116101c257806358ec07c7146104745780637bc6cb74146104945780637da0a877146104a757600080fd5b80634e1273f414610425578063572b6c051461044557600080fd5b806339f898bc1161020e57806339f898bc1461040157806348e1219a1461040a5780634b7c78dc1461041257600080fd5b80632f2ff15d146103db57806336568abe146103ee57600080fd5b80630e89341c116102805780632257eb7e116102655780632257eb7e14610385578063248a9ca3146103a55780632eb2c2d6146103c857600080fd5b80630e89341c1461035257806313f2f6bd1461037257600080fd5b806303cb92fc116102b157806303cb92fc146103155780630515cf8d1461032a57806308f427c71461033f57600080fd5b8062fdd58e146102cc57806301ffc9a7146102f2575b600080fd5b6102df6102da366004613c20565b6106d1565b6040519081526020015b60405180910390f35b610305610300366004613c78565b6107b1565b60405190151581526020016102e9565b610328610323366004613da1565b610807565b005b610332610858565b6040516102e99190613de8565b61032861034d366004613edc565b61099f565b610365610360366004613f5d565b610ae6565b6040516102e99190613fe4565b610332610380366004613ff7565b610c6a565b6102df610393366004613f5d565b60096020526000908152604090205481565b6102df6103b3366004613f5d565b60009081526005602052604090206001015490565b6103286103d63660046140ae565b610df0565b6103286103e9366004614158565b610ed1565b6103286103fc366004614158565b610ef6565b6102df60045481565b6006546102df565b610328610420366004613edc565b610fc6565b610438610433366004614184565b6110eb565b6040516102e99190614280565b610305610453366004614293565b60035473ffffffffffffffffffffffffffffffffffffffff91821691161490565b6102df610482366004613f5d565b600a6020526000908152604090205481565b6103286104a2366004613ff7565b611243565b6003546104c79073ffffffffffffffffffffffffffffffffffffffff1681565b60405173ffffffffffffffffffffffffffffffffffffffff90911681526020016102e9565b6103056104fa366004613f5d565b60086020526000908152604090205460ff1681565b610438611280565b610305610525366004614158565b600091825260056020908152604080842073ffffffffffffffffffffffffffffffffffffffff93909316845291905290205460ff1690565b61043861056b366004613ff7565b6112d8565b6102df600081565b6103286105863660046142ae565b6113ba565b6103286105993660046142ea565b6113cc565b6103286105ac366004614293565b6113d8565b6103056105bf366004613f5d565b6000908152600a6020526040902054421190565b6103286105e136600461431f565b611446565b6102df6105f4366004613f5d565b611510565b6103286106073660046143ca565b611531565b6103656115f1565b610328610622366004614158565b61167f565b61063a610635366004613ff7565b6116a4565b6040516102e991906143fd565b6103286106553660046143ca565b611799565b61030561066836600461447d565b73ffffffffffffffffffffffffffffffffffffffff918216600090815260016020908152604080832093909416825291909152205460ff1690565b61063a611878565b6103286106b93660046144a7565b611922565b6103326106cc366004614293565b611a03565b600073ffffffffffffffffffffffffffffffffffffffff831661077b576040517f08c379a000000000000000000000000000000000000000000000000000000000815260206004820152602a60248201527f455243313135353a2061646472657373207a65726f206973206e6f742061207660448201527f616c6964206f776e65720000000000000000000000000000000000000000000060648201526084015b60405180910390fd5b5060008181526020818152604080832073ffffffffffffffffffffffffffffffffffffffff861684529091529020545b92915050565b60007fffffffff0000000000000000000000000000000000000000000000000000000082167f909aa65d0000000000000000000000000000000000000000000000000000000014806107ab57506107ab82611ba2565b7fc9fc9949603a50f5cc3a96f774f1d68287789a241d2082dc81d0fb19a53bcf2b61083181611bf8565b6000838152600b60205260409020610849838261459f565b5061085383611c0c565b505050565b60065460609060009067ffffffffffffffff81111561087957610879613c95565b6040519080825280602002602001820160405280156108ac57816020015b60608152602001906001900390816108975790505b50905060005b60065481101561099957604080516002808252606082018352600092602083019080368337019050509050600682815481106108f0576108f06146b9565b90600052602060002001548160008151811061090e5761090e6146b9565b6020026020010181815250506009600082600081518110610931576109316146b9565b60200260200101518152602001908152602001600020548160018151811061095b5761095b6146b9565b6020026020010181815250508083838151811061097a5761097a6146b9565b602002602001018190525050808061099190614717565b9150506108b2565b50919050565b6109cb7fc9fc9949603a50f5cc3a96f774f1d68287789a241d2082dc81d0fb19a53bcf2b610525611c8d565b806109fd57506109fd7fc9eb32e43bf5ecbceacf00b32281dfc5d6d700a0db676ea26ccf938a385ac3f7610525611c8d565b610a63576040517f08c379a000000000000000000000000000000000000000000000000000000000815260206004820152601760248201527f4e6f7420617574686f72697a656420746f206d696e742e0000000000000000006044820152606401610772565b610adf8585858080602002602001604051908101604052809392919081815260200183836020028082843760009201919091525050604080516020808902828101820190935288825290935088925087918291850190849080828437600092018290525060408051602081019091529081529250611c97915050565b5050505050565b60008181526008602052604090205460609060ff16610b87576040517f08c379a000000000000000000000000000000000000000000000000000000000815260206004820152602360248201527f555249207265717565737420666f72206e6f6e206578697374656e742069746560448201527f6d496400000000000000000000000000000000000000000000000000000000006064820152608401610772565b600060078054610b969061450c565b905011610c39576000828152600b602052604090208054610bb69061450c565b80601f0160208091040260200160405190810160405280929190818152602001828054610be29061450c565b8015610c2f5780601f10610c0457610100808354040283529160200191610c2f565b820191906000526020600020905b815481529060010190602001808311610c1257829003601f168201915b50505050506107ab565b6007610c4483611f2a565b604051602001610c5592919061474f565b60405160208183030381529060405292915050565b6006546060906000908410610c80576000610c8e565b600654610c8e9085906147f4565b9050600083821115610ca05783610ca2565b815b905060008167ffffffffffffffff811115610cbf57610cbf613c95565b604051908082528060200260200182016040528015610cf257816020015b6060815260200190600190039081610cdd5790505b50905060005b82811015610de6576040805160028082526060820183526000926020830190803683370190505090506006610d2d838a614807565b81548110610d3d57610d3d6146b9565b906000526020600020015481600081518110610d5b57610d5b6146b9565b6020026020010181815250506009600082600081518110610d7e57610d7e6146b9565b602002602001015181526020019081526020016000205481600181518110610da857610da86146b9565b60200260200101818152505080838381518110610dc757610dc76146b9565b6020026020010181905250508080610dde90614717565b915050610cf8565b5095945050505050565b610df8611c8d565b73ffffffffffffffffffffffffffffffffffffffff168573ffffffffffffffffffffffffffffffffffffffff161480610e385750610e3885610668611c8d565b610ec4576040517f08c379a000000000000000000000000000000000000000000000000000000000815260206004820152602f60248201527f455243313135353a2063616c6c6572206973206e6f7420746f6b656e206f776e60448201527f6572206e6f7220617070726f76656400000000000000000000000000000000006064820152608401610772565b610adf8585858585612067565b600082815260056020526040902060010154610eec81611bf8565b61085383836123b2565b610efe611c8d565b73ffffffffffffffffffffffffffffffffffffffff168173ffffffffffffffffffffffffffffffffffffffff1614610fb8576040517f08c379a000000000000000000000000000000000000000000000000000000000815260206004820152602f60248201527f416363657373436f6e74726f6c3a2063616e206f6e6c792072656e6f756e636560448201527f20726f6c657320666f722073656c6600000000000000000000000000000000006064820152608401610772565b610fc282826124a7565b5050565b84610fcf611c8d565b73ffffffffffffffffffffffffffffffffffffffff168173ffffffffffffffffffffffffffffffffffffffff16148061100f575061100f81610668611c8d565b611075576040517f08c379a000000000000000000000000000000000000000000000000000000000815260206004820152601560248201527f4e6f7420617070726f76656420746f206275726e2e00000000000000000000006044820152606401610772565b6110e38686868080602002602001604051908101604052809392919081815260200183836020028082843760009201919091525050604080516020808a0282810182019093528982529093508992508891829185019084908082843760009201919091525061259a92505050565b505050505050565b6060815183511461117e576040517f08c379a000000000000000000000000000000000000000000000000000000000815260206004820152602960248201527f455243313135353a206163636f756e747320616e6420696473206c656e67746860448201527f206d69736d6174636800000000000000000000000000000000000000000000006064820152608401610772565b6000835167ffffffffffffffff81111561119a5761119a613c95565b6040519080825280602002602001820160405280156111c3578160200160208202803683370190505b50905060005b845181101561123b5761120e8582815181106111e7576111e76146b9565b6020026020010151858381518110611201576112016146b9565b60200260200101516106d1565b828281518110611220576112206146b9565b602090810291909101015261123481614717565b90506111c9565b509392505050565b7fc9fc9949603a50f5cc3a96f774f1d68287789a241d2082dc81d0fb19a53bcf2b61126d81611bf8565b506000918252600a602052604090912055565b606060068054806020026020016040519081016040528092919081815260200182805480156112ce57602002820191906000526020600020905b8154815260200190600101908083116112ba575b5050505050905090565b60065460609060009084106112ee5760006112fc565b6006546112fc9085906147f4565b905060008382111561130e5783611310565b815b905060008167ffffffffffffffff81111561132d5761132d613c95565b604051908082528060200260200182016040528015611356578160200160208202803683370190505b50905060005b82811015610de65760066113708289614807565b81548110611380576113806146b9565b906000526020600020015482828151811061139d5761139d6146b9565b6020908102919091010152806113b281614717565b91505061135c565b610fc26113c5611c8d565b83836128da565b6007610fc2828261459f565b7fc9fc9949603a50f5cc3a96f774f1d68287789a241d2082dc81d0fb19a53bcf2b61140281611bf8565b600380547fffffffffffffffffffffffff00000000000000000000000000000000000000001673ffffffffffffffffffffffffffffffffffffffff84161790555050565b60005b85811015611506576114f488888884818110611467576114676146b9565b905060200201602081019061147c9190614293565b87878080602002602001604051908101604052809392919081815260200183836020028082843760009201919091525050604080516020808b0282810182019093528a82529093508a925089918291850190849080828437600092018290525060408051602081019091529081529250610df0915050565b806114fe81614717565b915050611449565b5050505050505050565b6006818154811061152057600080fd5b600091825260209091200154905081565b8261153a611c8d565b73ffffffffffffffffffffffffffffffffffffffff168173ffffffffffffffffffffffffffffffffffffffff16148061157a575061157a81610668611c8d565b6115e0576040517f08c379a000000000000000000000000000000000000000000000000000000000815260206004820152601560248201527f4e6f7420617070726f76656420746f206275726e2e00000000000000000000006044820152606401610772565b6115eb848484612a2d565b50505050565b600780546115fe9061450c565b80601f016020809104026020016040519081016040528092919081815260200182805461162a9061450c565b80156116775780601f1061164c57610100808354040283529160200191611677565b820191906000526020600020905b81548152906001019060200180831161165a57829003601f168201915b505050505081565b60008281526005602052604090206001015461169a81611bf8565b61085383836124a7565b60065460609060009084106116ba5760006116c8565b6006546116c89085906147f4565b90506000838211156116da57836116dc565b815b905060008167ffffffffffffffff8111156116f9576116f9613c95565b60405190808252806020026020018201604052801561172c57816020015b60608152602001906001900390816117175790505b50905060005b82811015610de6576117696006611749838a614807565b81548110611759576117596146b9565b9060005260206000200154610ae6565b82828151811061177b5761177b6146b9565b6020026020010181905250808061179190614717565b915050611732565b6117c57fc9fc9949603a50f5cc3a96f774f1d68287789a241d2082dc81d0fb19a53bcf2b610525611c8d565b806117f757506117f77fc9eb32e43bf5ecbceacf00b32281dfc5d6d700a0db676ea26ccf938a385ac3f7610525611c8d565b61185d576040517f08c379a000000000000000000000000000000000000000000000000000000000815260206004820152601760248201527f4e6f7420617574686f72697a656420746f206d696e742e0000000000000000006044820152606401610772565b61085383838360405180602001604052806000815250612c5b565b60065460609060009067ffffffffffffffff81111561189957611899613c95565b6040519080825280602002602001820160405280156118cc57816020015b60608152602001906001900390816118b75790505b50905060005b600654811015610999576118f260068281548110611759576117596146b9565b828281518110611904576119046146b9565b6020026020010181905250808061191a90614717565b9150506118d2565b61192a611c8d565b73ffffffffffffffffffffffffffffffffffffffff168573ffffffffffffffffffffffffffffffffffffffff16148061196a575061196a85610668611c8d565b6119f6576040517f08c379a000000000000000000000000000000000000000000000000000000000815260206004820152602f60248201527f455243313135353a2063616c6c6572206973206e6f7420746f6b656e206f776e60448201527f6572206e6f7220617070726f76656400000000000000000000000000000000006064820152608401610772565b610adf8585858585612ddd565b60065460609060009067ffffffffffffffff811115611a2457611a24613c95565b604051908082528060200260200182016040528015611a5757816020015b6060815260200190600190039081611a425790505b50905060005b600654811015611b3d5760408051600280825260608201835260009260208301908036833701905050905060068281548110611a9b57611a9b6146b9565b906000526020600020015481600081518110611ab957611ab96146b9565b602002602001018181525050611aec8560068481548110611adc57611adc6146b9565b90600052602060002001546106d1565b81600181518110611aff57611aff6146b9565b60200260200101818152505080838381518110611b1e57611b1e6146b9565b6020026020010181905250508080611b3590614717565b915050611a5d565b5092915050565b60035460009073ffffffffffffffffffffffffffffffffffffffff163303611b9157507fffffffffffffffffffffffffffffffffffffffffffffffffffffffffffffffec36013560601c90565b503390565b905090565b90565b3390565b60007fffffffff0000000000000000000000000000000000000000000000000000000082167f7965db0b0000000000000000000000000000000000000000000000000000000014806107ab57506107ab82613034565b611c0981611c04611c8d565b613117565b50565b60008181526008602052604090205460ff16611c09576006805460018181019092557ff652222313e28459528d920b65115c16c04f3efc82aaedc97be59f3f377c0d3f01829055600082815260086020526040902080547fffffffffffffffffffffffffffffffffffffffffffffffffffffffffffffff0016909117905550565b6000611b96611b44565b73ffffffffffffffffffffffffffffffffffffffff8416611d3a576040517f08c379a000000000000000000000000000000000000000000000000000000000815260206004820152602160248201527f455243313135353a206d696e7420746f20746865207a65726f2061646472657360448201527f73000000000000000000000000000000000000000000000000000000000000006064820152608401610772565b8151835114611dcb576040517f08c379a000000000000000000000000000000000000000000000000000000000815260206004820152602860248201527f455243313135353a2069647320616e6420616d6f756e7473206c656e6774682060448201527f6d69736d617463680000000000000000000000000000000000000000000000006064820152608401610772565b6000611dd5611c8d565b9050611de6816000878787876131e9565b60005b8451811015611e9b57838181518110611e0457611e046146b9565b6020026020010151600080878481518110611e2157611e216146b9565b6020026020010151815260200190815260200160002060008873ffffffffffffffffffffffffffffffffffffffff1673ffffffffffffffffffffffffffffffffffffffff1681526020019081526020016000206000828254611e839190614807565b90915550819050611e9381614717565b915050611de9565b508473ffffffffffffffffffffffffffffffffffffffff16600073ffffffffffffffffffffffffffffffffffffffff168273ffffffffffffffffffffffffffffffffffffffff167f4a39dc06d4c0dbc64b70af90fd698a233a518aa5d07e595d983b8c0526c8f7fb8787604051611f1392919061481a565b60405180910390a4610adf8160008787878761352b565b606081600003611f6d57505060408051808201909152600181527f3000000000000000000000000000000000000000000000000000000000000000602082015290565b8160005b8115611f975780611f8181614717565b9150611f909050600a83614877565b9150611f71565b60008167ffffffffffffffff811115611fb257611fb2613c95565b6040519080825280601f01601f191660200182016040528015611fdc576020820181803683370190505b5090505b841561205f57611ff16001836147f4565b9150611ffe600a8661488b565b612009906030614807565b60f81b81838151811061201e5761201e6146b9565b60200101907effffffffffffffffffffffffffffffffffffffffffffffffffffffffffffff1916908160001a905350612058600a86614877565b9450611fe0565b949350505050565b81518351146120f8576040517f08c379a000000000000000000000000000000000000000000000000000000000815260206004820152602860248201527f455243313135353a2069647320616e6420616d6f756e7473206c656e6774682060448201527f6d69736d617463680000000000000000000000000000000000000000000000006064820152608401610772565b73ffffffffffffffffffffffffffffffffffffffff841661219b576040517f08c379a000000000000000000000000000000000000000000000000000000000815260206004820152602560248201527f455243313135353a207472616e7366657220746f20746865207a65726f20616460448201527f64726573730000000000000000000000000000000000000000000000000000006064820152608401610772565b60006121a5611c8d565b90506121b58187878787876131e9565b60005b84518110156123255760008582815181106121d5576121d56146b9565b6020026020010151905060008583815181106121f3576121f36146b9565b6020908102919091018101516000848152808352604080822073ffffffffffffffffffffffffffffffffffffffff8e1683529093529190912054909150818110156122c0576040517f08c379a000000000000000000000000000000000000000000000000000000000815260206004820152602a60248201527f455243313135353a20696e73756666696369656e742062616c616e636520666f60448201527f72207472616e73666572000000000000000000000000000000000000000000006064820152608401610772565b60008381526020818152604080832073ffffffffffffffffffffffffffffffffffffffff8e8116855292528083208585039055908b1682528120805484929061230a908490614807565b925050819055505050508061231e90614717565b90506121b8565b508473ffffffffffffffffffffffffffffffffffffffff168673ffffffffffffffffffffffffffffffffffffffff168273ffffffffffffffffffffffffffffffffffffffff167f4a39dc06d4c0dbc64b70af90fd698a233a518aa5d07e595d983b8c0526c8f7fb878760405161239c92919061481a565b60405180910390a46110e381878787878761352b565b600082815260056020908152604080832073ffffffffffffffffffffffffffffffffffffffff8516845290915290205460ff16610fc257600082815260056020908152604080832073ffffffffffffffffffffffffffffffffffffffff85168452909152902080547fffffffffffffffffffffffffffffffffffffffffffffffffffffffffffffff00166001179055612449611c8d565b73ffffffffffffffffffffffffffffffffffffffff168173ffffffffffffffffffffffffffffffffffffffff16837f2f8788117e7eff1d82e926ec794901d17c78024a50270940304540a733656f0d60405160405180910390a45050565b600082815260056020908152604080832073ffffffffffffffffffffffffffffffffffffffff8516845290915290205460ff1615610fc257600082815260056020908152604080832073ffffffffffffffffffffffffffffffffffffffff85168452909152902080547fffffffffffffffffffffffffffffffffffffffffffffffffffffffffffffff0016905561253c611c8d565b73ffffffffffffffffffffffffffffffffffffffff168173ffffffffffffffffffffffffffffffffffffffff16837ff6391f5c32d9c69d2a47ea670b442974b53935d1edc7fd64eb21e047a839171b60405160405180910390a45050565b73ffffffffffffffffffffffffffffffffffffffff831661263d576040517f08c379a000000000000000000000000000000000000000000000000000000000815260206004820152602360248201527f455243313135353a206275726e2066726f6d20746865207a65726f206164647260448201527f65737300000000000000000000000000000000000000000000000000000000006064820152608401610772565b80518251146126ce576040517f08c379a000000000000000000000000000000000000000000000000000000000815260206004820152602860248201527f455243313135353a2069647320616e6420616d6f756e7473206c656e6774682060448201527f6d69736d617463680000000000000000000000000000000000000000000000006064820152608401610772565b60006126d8611c8d565b90506126f8818560008686604051806020016040528060008152506131e9565b60005b8351811015612846576000848281518110612718576127186146b9565b602002602001015190506000848381518110612736576127366146b9565b6020908102919091018101516000848152808352604080822073ffffffffffffffffffffffffffffffffffffffff8c168352909352919091205490915081811015612802576040517f08c379a0000000000000000000000000000000000000000000000000000000008152602060048201526024808201527f455243313135353a206275726e20616d6f756e7420657863656564732062616c60448201527f616e6365000000000000000000000000000000000000000000000000000000006064820152608401610772565b60009283526020838152604080852073ffffffffffffffffffffffffffffffffffffffff8b168652909152909220910390558061283e81614717565b9150506126fb565b50600073ffffffffffffffffffffffffffffffffffffffff168473ffffffffffffffffffffffffffffffffffffffff168273ffffffffffffffffffffffffffffffffffffffff167f4a39dc06d4c0dbc64b70af90fd698a233a518aa5d07e595d983b8c0526c8f7fb86866040516128be92919061481a565b60405180910390a46040805160208101909152600090526115eb565b8173ffffffffffffffffffffffffffffffffffffffff168373ffffffffffffffffffffffffffffffffffffffff1603612995576040517f08c379a000000000000000000000000000000000000000000000000000000000815260206004820152602960248201527f455243313135353a2073657474696e6720617070726f76616c2073746174757360448201527f20666f722073656c6600000000000000000000000000000000000000000000006064820152608401610772565b73ffffffffffffffffffffffffffffffffffffffff83811660008181526001602090815260408083209487168084529482529182902080547fffffffffffffffffffffffffffffffffffffffffffffffffffffffffffffff001686151590811790915591519182527f17307eab39ab6107e8899845ad3d59bd9653f200f220920489ca2b5937696c31910160405180910390a3505050565b73ffffffffffffffffffffffffffffffffffffffff8316612ad0576040517f08c379a000000000000000000000000000000000000000000000000000000000815260206004820152602360248201527f455243313135353a206275726e2066726f6d20746865207a65726f206164647260448201527f65737300000000000000000000000000000000000000000000000000000000006064820152608401610772565b6000612ada611c8d565b90506000612ae7846137b5565b90506000612af4846137b5565b9050612b14838760008585604051806020016040528060008152506131e9565b60008581526020818152604080832073ffffffffffffffffffffffffffffffffffffffff8a16845290915290205484811015612bd1576040517f08c379a0000000000000000000000000000000000000000000000000000000008152602060048201526024808201527f455243313135353a206275726e20616d6f756e7420657863656564732062616c60448201527f616e6365000000000000000000000000000000000000000000000000000000006064820152608401610772565b60008681526020818152604080832073ffffffffffffffffffffffffffffffffffffffff8b81168086529184528285208a8703905582518b81529384018a90529092908816917fc3d58168c5ae7397731d063d5bbf3d657854427343f4c083240f7aacaa2d0f62910160405180910390a46040805160208101909152600090525b50505050505050565b73ffffffffffffffffffffffffffffffffffffffff8416612cfe576040517f08c379a000000000000000000000000000000000000000000000000000000000815260206004820152602160248201527f455243313135353a206d696e7420746f20746865207a65726f2061646472657360448201527f73000000000000000000000000000000000000000000000000000000000000006064820152608401610772565b6000612d08611c8d565b90506000612d15856137b5565b90506000612d22856137b5565b9050612d33836000898585896131e9565b60008681526020818152604080832073ffffffffffffffffffffffffffffffffffffffff8b16845290915281208054879290612d70908490614807565b9091555050604080518781526020810187905273ffffffffffffffffffffffffffffffffffffffff808a1692600092918716917fc3d58168c5ae7397731d063d5bbf3d657854427343f4c083240f7aacaa2d0f62910160405180910390a4612c5283600089898989613800565b73ffffffffffffffffffffffffffffffffffffffff8416612e80576040517f08c379a000000000000000000000000000000000000000000000000000000000815260206004820152602560248201527f455243313135353a207472616e7366657220746f20746865207a65726f20616460448201527f64726573730000000000000000000000000000000000000000000000000000006064820152608401610772565b6000612e8a611c8d565b90506000612e97856137b5565b90506000612ea4856137b5565b9050612eb48389898585896131e9565b60008681526020818152604080832073ffffffffffffffffffffffffffffffffffffffff8c16845290915290205485811015612f72576040517f08c379a000000000000000000000000000000000000000000000000000000000815260206004820152602a60248201527f455243313135353a20696e73756666696369656e742062616c616e636520666f60448201527f72207472616e73666572000000000000000000000000000000000000000000006064820152608401610772565b60008781526020818152604080832073ffffffffffffffffffffffffffffffffffffffff8d8116855292528083208985039055908a16825281208054889290612fbc908490614807565b9091555050604080518881526020810188905273ffffffffffffffffffffffffffffffffffffffff808b16928c821692918816917fc3d58168c5ae7397731d063d5bbf3d657854427343f4c083240f7aacaa2d0f62910160405180910390a4613029848a8a8a8a8a613800565b505050505050505050565b60007fffffffff0000000000000000000000000000000000000000000000000000000082167fd9b67a260000000000000000000000000000000000000000000000000000000014806130c757507fffffffff0000000000000000000000000000000000000000000000000000000082167f0e89341c00000000000000000000000000000000000000000000000000000000145b806107ab57507f01ffc9a7000000000000000000000000000000000000000000000000000000007fffffffff000000000000000000000000000000000000000000000000000000008316146107ab565b600082815260056020908152604080832073ffffffffffffffffffffffffffffffffffffffff8516845290915290205460ff16610fc25761316f8173ffffffffffffffffffffffffffffffffffffffff1660146139ad565b61317a8360206139ad565b60405160200161318b92919061489f565b604080517fffffffffffffffffffffffffffffffffffffffffffffffffffffffffffffffe0818403018152908290527f08c379a000000000000000000000000000000000000000000000000000000000825261077291600401613fe4565b60005b8351811015612c52576000848281518110613209576132096146b9565b6020026020010151905061322b816000908152600a6020526040902054421190565b8061324a575073ffffffffffffffffffffffffffffffffffffffff8716155b80613299575073ffffffffffffffffffffffffffffffffffffffff871660009081527fac8e794ba31870f30ba20c4fa377bc3bff1ba4bb9716c51c48ea6f1448c7532c602052604090205460ff165b806132e8575073ffffffffffffffffffffffffffffffffffffffff871660009081527fa2411ca3d5dcfeda426b4d0b8d15b73b4bf9ce1c50001c7effc8044ae5a61c5b602052604090205460ff165b80613307575073ffffffffffffffffffffffffffffffffffffffff8616155b613393576040517f08c379a000000000000000000000000000000000000000000000000000000000815260206004820152602360248201527f4974656d206973206e6f742063757272656e746c79207472616e73666572616260448201527f6c652e00000000000000000000000000000000000000000000000000000000006064820152608401610772565b73ffffffffffffffffffffffffffffffffffffffff87166133f9576133b781611c0c565b8382815181106133c9576133c96146b9565b60200260200101516009600083815260200190815260200160002060008282546133f39190614807565b90915550505b73ffffffffffffffffffffffffffffffffffffffff861661351857838281518110613426576134266146b9565b6020026020010151600960008381526020019081526020016000205410156134d0576040517f08c379a000000000000000000000000000000000000000000000000000000000815260206004820152602760248201527f455243313135353a206275726e20616d6f756e7420657863656564732069746560448201527f6d537570706c79000000000000000000000000000000000000000000000000006064820152608401610772565b8382815181106134e2576134e26146b9565b6020026020010151600960008381526020019081526020016000205461350891906147f4565b6000828152600960205260409020555b508061352381614717565b9150506131ec565b73ffffffffffffffffffffffffffffffffffffffff84163b156110e3576040517fbc197c8100000000000000000000000000000000000000000000000000000000815273ffffffffffffffffffffffffffffffffffffffff85169063bc197c81906135a29089908990889088908890600401614920565b6020604051808303816000875af19250505080156135fb575060408051601f3d9081017fffffffffffffffffffffffffffffffffffffffffffffffffffffffffffffffe01682019092526135f89181019061498b565b60015b6136e4576136076149a8565b806308c379a00361365a575061361b6149c3565b80613626575061365c565b806040517f08c379a00000000000000000000000000000000000000000000000000000000081526004016107729190613fe4565b505b6040517f08c379a000000000000000000000000000000000000000000000000000000000815260206004820152603460248201527f455243313135353a207472616e7366657220746f206e6f6e204552433131353560448201527f526563656976657220696d706c656d656e7465720000000000000000000000006064820152608401610772565b7fffffffff0000000000000000000000000000000000000000000000000000000081167fbc197c810000000000000000000000000000000000000000000000000000000014612c52576040517f08c379a000000000000000000000000000000000000000000000000000000000815260206004820152602860248201527f455243313135353a204552433131353552656365697665722072656a6563746560448201527f6420746f6b656e730000000000000000000000000000000000000000000000006064820152608401610772565b604080516001808252818301909252606091600091906020808301908036833701905050905082816000815181106137ef576137ef6146b9565b602090810291909101015292915050565b73ffffffffffffffffffffffffffffffffffffffff84163b156110e3576040517ff23a6e6100000000000000000000000000000000000000000000000000000000815273ffffffffffffffffffffffffffffffffffffffff85169063f23a6e61906138779089908990889088908890600401614a6b565b6020604051808303816000875af19250505080156138d0575060408051601f3d9081017fffffffffffffffffffffffffffffffffffffffffffffffffffffffffffffffe01682019092526138cd9181019061498b565b60015b6138dc576136076149a8565b7fffffffff0000000000000000000000000000000000000000000000000000000081167ff23a6e610000000000000000000000000000000000000000000000000000000014612c52576040517f08c379a000000000000000000000000000000000000000000000000000000000815260206004820152602860248201527f455243313135353a204552433131353552656365697665722072656a6563746560448201527f6420746f6b656e730000000000000000000000000000000000000000000000006064820152608401610772565b606060006139bc836002614abb565b6139c7906002614807565b67ffffffffffffffff8111156139df576139df613c95565b6040519080825280601f01601f191660200182016040528015613a09576020820181803683370190505b5090507f300000000000000000000000000000000000000000000000000000000000000081600081518110613a4057613a406146b9565b60200101907effffffffffffffffffffffffffffffffffffffffffffffffffffffffffffff1916908160001a9053507f780000000000000000000000000000000000000000000000000000000000000081600181518110613aa357613aa36146b9565b60200101907effffffffffffffffffffffffffffffffffffffffffffffffffffffffffffff1916908160001a9053506000613adf846002614abb565b613aea906001614807565b90505b6001811115613b87577f303132333435363738396162636465660000000000000000000000000000000085600f1660108110613b2b57613b2b6146b9565b1a60f81b828281518110613b4157613b416146b9565b60200101907effffffffffffffffffffffffffffffffffffffffffffffffffffffffffffff1916908160001a90535060049490941c93613b8081614af8565b9050613aed565b508315613bf0576040517f08c379a000000000000000000000000000000000000000000000000000000000815260206004820181905260248201527f537472696e67733a20686578206c656e67746820696e73756666696369656e746044820152606401610772565b9392505050565b803573ffffffffffffffffffffffffffffffffffffffff81168114613c1b57600080fd5b919050565b60008060408385031215613c3357600080fd5b613c3c83613bf7565b946020939093013593505050565b7fffffffff0000000000000000000000000000000000000000000000000000000081168114611c0957600080fd5b600060208284031215613c8a57600080fd5b8135613bf081613c4a565b7f4e487b7100000000000000000000000000000000000000000000000000000000600052604160045260246000fd5b7fffffffffffffffffffffffffffffffffffffffffffffffffffffffffffffffe0601f830116810181811067ffffffffffffffff82111715613d0857613d08613c95565b6040525050565b600082601f830112613d2057600080fd5b813567ffffffffffffffff811115613d3a57613d3a613c95565b604051613d6f60207fffffffffffffffffffffffffffffffffffffffffffffffffffffffffffffffe0601f8501160182613cc4565b818152846020838601011115613d8457600080fd5b816020850160208301376000918101602001919091529392505050565b60008060408385031215613db457600080fd5b82359150602083013567ffffffffffffffff811115613dd257600080fd5b613dde85828601613d0f565b9150509250929050565b6000602080830181845280855180835260408601915060408160051b87010192508387016000805b83811015613e82578886037fffffffffffffffffffffffffffffffffffffffffffffffffffffffffffffffc0018552825180518088529088019088880190845b81811015613e6c5783518352928a0192918a0191600101613e50565b5090975050509386019391860191600101613e10565b509398975050505050505050565b60008083601f840112613ea257600080fd5b50813567ffffffffffffffff811115613eba57600080fd5b6020830191508360208260051b8501011115613ed557600080fd5b9250929050565b600080600080600060608688031215613ef457600080fd5b613efd86613bf7565b9450602086013567ffffffffffffffff80821115613f1a57600080fd5b613f2689838a01613e90565b90965094506040880135915080821115613f3f57600080fd5b50613f4c88828901613e90565b969995985093965092949392505050565b600060208284031215613f6f57600080fd5b5035919050565b60005b83811015613f91578181015183820152602001613f79565b50506000910152565b60008151808452613fb2816020860160208601613f76565b601f017fffffffffffffffffffffffffffffffffffffffffffffffffffffffffffffffe0169290920160200192915050565b602081526000613bf06020830184613f9a565b6000806040838503121561400a57600080fd5b50508035926020909101359150565b600067ffffffffffffffff82111561403357614033613c95565b5060051b60200190565b600082601f83011261404e57600080fd5b8135602061405b82614019565b6040516140688282613cc4565b83815260059390931b850182019282810191508684111561408857600080fd5b8286015b848110156140a3578035835291830191830161408c565b509695505050505050565b600080600080600060a086880312156140c657600080fd5b6140cf86613bf7565b94506140dd60208701613bf7565b9350604086013567ffffffffffffffff808211156140fa57600080fd5b61410689838a0161403d565b9450606088013591508082111561411c57600080fd5b61412889838a0161403d565b9350608088013591508082111561413e57600080fd5b5061414b88828901613d0f565b9150509295509295909350565b6000806040838503121561416b57600080fd5b8235915061417b60208401613bf7565b90509250929050565b6000806040838503121561419757600080fd5b823567ffffffffffffffff808211156141af57600080fd5b818501915085601f8301126141c357600080fd5b813560206141d082614019565b6040516141dd8282613cc4565b83815260059390931b85018201928281019150898411156141fd57600080fd5b948201945b838610156142225761421386613bf7565b82529482019490820190614202565b9650508601359250508082111561423857600080fd5b50613dde8582860161403d565b600081518084526020808501945080840160005b8381101561427557815187529582019590820190600101614259565b509495945050505050565b602081526000613bf06020830184614245565b6000602082840312156142a557600080fd5b613bf082613bf7565b600080604083850312156142c157600080fd5b6142ca83613bf7565b9150602083013580151581146142df57600080fd5b809150509250929050565b6000602082840312156142fc57600080fd5b813567ffffffffffffffff81111561431357600080fd5b61205f84828501613d0f565b60008060008060008060006080888a03121561433a57600080fd5b61434388613bf7565b9650602088013567ffffffffffffffff8082111561436057600080fd5b61436c8b838c01613e90565b909850965060408a013591508082111561438557600080fd5b6143918b838c01613e90565b909650945060608a01359150808211156143aa57600080fd5b506143b78a828b01613e90565b989b979a50959850939692959293505050565b6000806000606084860312156143df57600080fd5b6143e884613bf7565b95602085013595506040909401359392505050565b6000602080830181845280855180835260408601915060408160051b870101925083870160005b82811015614470577fffffffffffffffffffffffffffffffffffffffffffffffffffffffffffffffc088860301845261445e858351613f9a565b94509285019290850190600101614424565b5092979650505050505050565b6000806040838503121561449057600080fd5b61449983613bf7565b915061417b60208401613bf7565b600080600080600060a086880312156144bf57600080fd5b6144c886613bf7565b94506144d660208701613bf7565b93506040860135925060608601359150608086013567ffffffffffffffff81111561450057600080fd5b61414b88828901613d0f565b600181811c9082168061452057607f821691505b602082108103610999577f4e487b7100000000000000000000000000000000000000000000000000000000600052602260045260246000fd5b601f82111561085357600081815260208120601f850160051c810160208610156145805750805b601f850160051c820191505b818110156110e35782815560010161458c565b815167ffffffffffffffff8111156145b9576145b9613c95565b6145cd816145c7845461450c565b84614559565b602080601f83116001811461462057600084156145ea5750858301515b7fffffffffffffffffffffffffffffffffffffffffffffffffffffffffffffffff600386901b1c1916600185901b1785556110e3565b6000858152602081207fffffffffffffffffffffffffffffffffffffffffffffffffffffffffffffffe08616915b8281101561466d5788860151825594840194600190910190840161464e565b50858210156146a957878501517fffffffffffffffffffffffffffffffffffffffffffffffffffffffffffffffff600388901b60f8161c191681555b5050505050600190811b01905550565b7f4e487b7100000000000000000000000000000000000000000000000000000000600052603260045260246000fd5b7f4e487b7100000000000000000000000000000000000000000000000000000000600052601160045260246000fd5b60007fffffffffffffffffffffffffffffffffffffffffffffffffffffffffffffffff8203614748576147486146e8565b5060010190565b600080845461475d8161450c565b6001828116801561477557600181146147a8576147d7565b7fffffffffffffffffffffffffffffffffffffffffffffffffffffffffffffff00841687528215158302870194506147d7565b8860005260208060002060005b858110156147ce5781548a8201529084019082016147b5565b50505082870194505b5050505083516147eb818360208801613f76565b01949350505050565b818103818111156107ab576107ab6146e8565b808201808211156107ab576107ab6146e8565b60408152600061482d6040830185614245565b828103602084015261483f8185614245565b95945050505050565b7f4e487b7100000000000000000000000000000000000000000000000000000000600052601260045260246000fd5b60008261488657614886614848565b500490565b60008261489a5761489a614848565b500690565b7f416363657373436f6e74726f6c3a206163636f756e74200000000000000000008152600083516148d7816017850160208801613f76565b7f206973206d697373696e6720726f6c65200000000000000000000000000000006017918401918201528351614914816028840160208801613f76565b01602801949350505050565b600073ffffffffffffffffffffffffffffffffffffffff808816835280871660208401525060a0604083015261495960a0830186614245565b828103606084015261496b8186614245565b9050828103608084015261497f8185613f9a565b98975050505050505050565b60006020828403121561499d57600080fd5b8151613bf081613c4a565b600060033d1115611b9b5760046000803e5060005160e01c90565b600060443d10156149d15790565b6040517ffffffffffffffffffffffffffffffffffffffffffffffffffffffffffffffffc803d016004833e81513d67ffffffffffffffff8160248401118184111715614a1f57505050505090565b8285019150815181811115614a375750505050505090565b843d8701016020828501011115614a515750505050505090565b614a6060208286010187613cc4565b509095945050505050565b600073ffffffffffffffffffffffffffffffffffffffff808816835280871660208401525084604083015283606083015260a06080830152614ab060a0830184613f9a565b979650505050505050565b6000817fffffffffffffffffffffffffffffffffffffffffffffffffffffffffffffffff0483118215151615614af357614af36146e8565b500290565b600081614b0757614b076146e8565b507fffffffffffffffffffffffffffffffffffffffffffffffffffffffffffffffff019056fea26469706673582212202bb837ee5ef66f383a19111c72171e64225dcefc8f75e779f25cdfab64173ef364736f6c63430008100033",
  "linkReferences": {},
  "deployedLinkReferences": {}
}