{
  "_format": "hh-sol-artifact-1",
  "contractName": "ERC1155_Game_Items_Collection",
  "sourceName": "contracts/Items_Collection/ERC1155_Game_Items_Collection.sol",
  "abi": [
    {
      "inputs": [
        {
          "internalType": "address",
          "name": "_forwarder",
          "type": "address"
        },
        {
          "internalType": "bytes32",
          "name": "_systemId",
          "type": "bytes32"
        }
      ],
      "stateMutability": "nonpayable",
      "type": "constructor"
    },
    {
      "anonymous": false,
      "inputs": [
        {
          "indexed": true,
          "internalType": "address",
          "name": "account",
          "type": "address"
        },
        {
          "indexed": true,
          "internalType": "address",
          "name": "operator",
          "type": "address"
        },
        {
          "indexed": false,
          "internalType": "bool",
          "name": "approved",
          "type": "bool"
        }
      ],
      "name": "ApprovalForAll",
      "type": "event"
    },
    {
      "anonymous": false,
      "inputs": [
        {
          "indexed": true,
          "internalType": "address",
          "name": "previousOwner",
          "type": "address"
        },
        {
          "indexed": true,
          "internalType": "address",
          "name": "newOwner",
          "type": "address"
        }
      ],
      "name": "OwnershipTransferred",
      "type": "event"
    },
    {
      "anonymous": false,
      "inputs": [
        {
          "indexed": true,
          "internalType": "bytes32",
          "name": "role",
          "type": "bytes32"
        },
        {
          "indexed": true,
          "internalType": "bytes32",
          "name": "previousAdminRole",
          "type": "bytes32"
        },
        {
          "indexed": true,
          "internalType": "bytes32",
          "name": "newAdminRole",
          "type": "bytes32"
        }
      ],
      "name": "RoleAdminChanged",
      "type": "event"
    },
    {
      "anonymous": false,
      "inputs": [
        {
          "indexed": true,
          "internalType": "bytes32",
          "name": "role",
          "type": "bytes32"
        },
        {
          "indexed": true,
          "internalType": "address",
          "name": "account",
          "type": "address"
        },
        {
          "indexed": true,
          "internalType": "address",
          "name": "sender",
          "type": "address"
        }
      ],
      "name": "RoleGranted",
      "type": "event"
    },
    {
      "anonymous": false,
      "inputs": [
        {
          "indexed": true,
          "internalType": "bytes32",
          "name": "role",
          "type": "bytes32"
        },
        {
          "indexed": true,
          "internalType": "address",
          "name": "account",
          "type": "address"
        },
        {
          "indexed": true,
          "internalType": "address",
          "name": "sender",
          "type": "address"
        }
      ],
      "name": "RoleRevoked",
      "type": "event"
    },
    {
      "anonymous": false,
      "inputs": [
        {
          "indexed": true,
          "internalType": "address",
          "name": "operator",
          "type": "address"
        },
        {
          "indexed": true,
          "internalType": "address",
          "name": "from",
          "type": "address"
        },
        {
          "indexed": true,
          "internalType": "address",
          "name": "to",
          "type": "address"
        },
        {
          "indexed": false,
          "internalType": "uint256[]",
          "name": "ids",
          "type": "uint256[]"
        },
        {
          "indexed": false,
          "internalType": "uint256[]",
          "name": "values",
          "type": "uint256[]"
        }
      ],
      "name": "TransferBatch",
      "type": "event"
    },
    {
      "anonymous": false,
      "inputs": [
        {
          "indexed": true,
          "internalType": "address",
          "name": "operator",
          "type": "address"
        },
        {
          "indexed": true,
          "internalType": "address",
          "name": "from",
          "type": "address"
        },
        {
          "indexed": true,
          "internalType": "address",
          "name": "to",
          "type": "address"
        },
        {
          "indexed": false,
          "internalType": "uint256",
          "name": "id",
          "type": "uint256"
        },
        {
          "indexed": false,
          "internalType": "uint256",
          "name": "value",
          "type": "uint256"
        }
      ],
      "name": "TransferSingle",
      "type": "event"
    },
    {
      "anonymous": false,
      "inputs": [
        {
          "indexed": false,
          "internalType": "string",
          "name": "value",
          "type": "string"
        },
        {
          "indexed": true,
          "internalType": "uint256",
          "name": "id",
          "type": "uint256"
        }
      ],
      "name": "URI",
      "type": "event"
    },
    {
      "inputs": [],
      "name": "DEFAULT_ADMIN_ROLE",
      "outputs": [
        {
          "internalType": "bytes32",
          "name": "",
          "type": "bytes32"
        }
      ],
      "stateMutability": "view",
      "type": "function"
    },
    {
      "inputs": [
        {
          "internalType": "bytes32",
          "name": "_systemId",
          "type": "bytes32"
        }
      ],
      "name": "addSystemId",
      "outputs": [],
      "stateMutability": "nonpayable",
      "type": "function"
    },
    {
      "inputs": [],
      "name": "allItemIds",
      "outputs": [
        {
          "internalType": "uint256[]",
          "name": "",
          "type": "uint256[]"
        }
      ],
      "stateMutability": "view",
      "type": "function"
    },
    {
      "inputs": [],
      "name": "allItemSupplies",
      "outputs": [
        {
          "internalType": "uint256[][]",
          "name": "",
          "type": "uint256[][]"
        }
      ],
      "stateMutability": "view",
      "type": "function"
    },
    {
      "inputs": [],
      "name": "allItemURIs",
      "outputs": [
        {
          "internalType": "string[]",
          "name": "",
          "type": "string[]"
        }
      ],
      "stateMutability": "view",
      "type": "function"
    },
    {
      "inputs": [
        {
          "internalType": "address",
          "name": "account",
          "type": "address"
        },
        {
          "internalType": "uint256",
          "name": "id",
          "type": "uint256"
        }
      ],
      "name": "balanceOf",
      "outputs": [
        {
          "internalType": "uint256",
          "name": "",
          "type": "uint256"
        }
      ],
      "stateMutability": "view",
      "type": "function"
    },
    {
      "inputs": [
        {
          "internalType": "address",
          "name": "_address",
          "type": "address"
        }
      ],
      "name": "balanceOfAll",
      "outputs": [
        {
          "internalType": "uint256[][]",
          "name": "",
          "type": "uint256[][]"
        }
      ],
      "stateMutability": "view",
      "type": "function"
    },
    {
      "inputs": [
        {
          "internalType": "address[]",
          "name": "accounts",
          "type": "address[]"
        },
        {
          "internalType": "uint256[]",
          "name": "ids",
          "type": "uint256[]"
        }
      ],
      "name": "balanceOfBatch",
      "outputs": [
        {
          "internalType": "uint256[]",
          "name": "",
          "type": "uint256[]"
        }
      ],
      "stateMutability": "view",
      "type": "function"
    },
    {
      "inputs": [
        {
          "internalType": "address",
          "name": "_fromAddress",
          "type": "address"
        },
        {
          "internalType": "address[]",
          "name": "_toAddresses",
          "type": "address[]"
        },
        {
          "internalType": "uint256[]",
          "name": "_itemIds",
          "type": "uint256[]"
        },
        {
          "internalType": "uint256[]",
          "name": "_quantitiesPerAddress",
          "type": "uint256[]"
        }
      ],
      "name": "bulkSafeBatchTransferFrom",
      "outputs": [],
      "stateMutability": "nonpayable",
      "type": "function"
    },
    {
      "inputs": [
        {
          "internalType": "address",
          "name": "_fromAddress",
          "type": "address"
        },
        {
          "internalType": "uint256[]",
          "name": "_itemIds",
          "type": "uint256[]"
        },
        {
          "internalType": "uint256[]",
          "name": "_quantities",
          "type": "uint256[]"
        }
      ],
      "name": "burnBatchFromAddress",
      "outputs": [],
      "stateMutability": "nonpayable",
      "type": "function"
    },
    {
      "inputs": [
        {
          "internalType": "address",
          "name": "_fromAddress",
          "type": "address"
        },
        {
          "internalType": "uint256",
          "name": "_itemId",
          "type": "uint256"
        },
        {
          "internalType": "uint256",
          "name": "_quantity",
          "type": "uint256"
        }
      ],
      "name": "burnFromAddress",
      "outputs": [],
      "stateMutability": "nonpayable",
      "type": "function"
    },
    {
      "inputs": [
        {
          "internalType": "bytes32",
          "name": "role",
          "type": "bytes32"
        }
      ],
      "name": "getRoleAdmin",
      "outputs": [
        {
          "internalType": "bytes32",
          "name": "",
          "type": "bytes32"
        }
      ],
      "stateMutability": "view",
      "type": "function"
    },
    {
      "inputs": [
        {
          "internalType": "bytes32",
          "name": "_role",
          "type": "bytes32"
        },
        {
          "internalType": "address",
          "name": "_account",
          "type": "address"
        }
      ],
      "name": "grantRole",
      "outputs": [],
      "stateMutability": "nonpayable",
      "type": "function"
    },
    {
      "inputs": [
        {
          "internalType": "bytes32",
          "name": "role",
          "type": "bytes32"
        },
        {
          "internalType": "address",
          "name": "account",
          "type": "address"
        }
      ],
      "name": "hasRole",
      "outputs": [
        {
          "internalType": "bool",
          "name": "",
          "type": "bool"
        }
      ],
      "stateMutability": "view",
      "type": "function"
    },
    {
      "inputs": [
        {
          "internalType": "address",
          "name": "account",
          "type": "address"
        },
        {
          "internalType": "address",
          "name": "operator",
          "type": "address"
        }
      ],
      "name": "isApprovedForAll",
      "outputs": [
        {
          "internalType": "bool",
          "name": "",
          "type": "bool"
        }
      ],
      "stateMutability": "view",
      "type": "function"
    },
    {
      "inputs": [
        {
          "internalType": "uint256",
          "name": "_itemId",
          "type": "uint256"
        }
      ],
      "name": "isItemTransferrable",
      "outputs": [
        {
          "internalType": "bool",
          "name": "",
          "type": "bool"
        }
      ],
      "stateMutability": "view",
      "type": "function"
    },
    {
      "inputs": [
        {
          "internalType": "address",
          "name": "forwarder",
          "type": "address"
        }
      ],
      "name": "isTrustedForwarder",
      "outputs": [
        {
          "internalType": "bool",
          "name": "",
          "type": "bool"
        }
      ],
      "stateMutability": "view",
      "type": "function"
    },
    {
      "inputs": [],
      "name": "itemBaseURI",
      "outputs": [
        {
          "internalType": "string",
          "name": "",
          "type": "string"
        }
      ],
      "stateMutability": "view",
      "type": "function"
    },
    {
      "inputs": [
        {
          "internalType": "uint256",
          "name": "",
          "type": "uint256"
        }
      ],
      "name": "itemExists",
      "outputs": [
        {
          "internalType": "bool",
          "name": "",
          "type": "bool"
        }
      ],
      "stateMutability": "view",
      "type": "function"
    },
    {
      "inputs": [
        {
          "internalType": "uint256",
          "name": "",
          "type": "uint256"
        }
      ],
      "name": "itemIds",
      "outputs": [
        {
          "internalType": "uint256",
          "name": "",
          "type": "uint256"
        }
      ],
      "stateMutability": "view",
      "type": "function"
    },
    {
      "inputs": [
        {
          "internalType": "uint256",
          "name": "",
          "type": "uint256"
        }
      ],
      "name": "itemSupplies",
      "outputs": [
        {
          "internalType": "uint256",
          "name": "",
          "type": "uint256"
        }
      ],
      "stateMutability": "view",
      "type": "function"
    },
    {
      "inputs": [
        {
          "internalType": "uint256",
          "name": "",
          "type": "uint256"
        }
      ],
      "name": "itemTransferTimelocks",
      "outputs": [
        {
          "internalType": "uint256",
          "name": "",
          "type": "uint256"
        }
      ],
      "stateMutability": "view",
      "type": "function"
    },
    {
      "inputs": [
        {
          "internalType": "address",
          "name": "_toAddress",
          "type": "address"
        },
        {
          "internalType": "uint256[]",
          "name": "_itemIds",
          "type": "uint256[]"
        },
        {
          "internalType": "uint256[]",
          "name": "_quantities",
          "type": "uint256[]"
        }
      ],
      "name": "mintBatchToAddress",
      "outputs": [],
      "stateMutability": "nonpayable",
      "type": "function"
    },
    {
      "inputs": [
        {
          "internalType": "address",
          "name": "_toAddress",
          "type": "address"
        },
        {
          "internalType": "uint256",
          "name": "_itemId",
          "type": "uint256"
        },
        {
          "internalType": "uint256",
          "name": "_quantity",
          "type": "uint256"
        }
      ],
      "name": "mintToAddress",
      "outputs": [],
      "stateMutability": "nonpayable",
      "type": "function"
    },
    {
      "inputs": [],
      "name": "owner",
      "outputs": [
        {
          "internalType": "address",
          "name": "",
          "type": "address"
        }
      ],
      "stateMutability": "view",
      "type": "function"
    },
    {
      "inputs": [
        {
          "internalType": "uint256",
          "name": "_itemIdsStartIndexInclusive",
          "type": "uint256"
        },
        {
          "internalType": "uint256",
          "name": "_limit",
          "type": "uint256"
        }
      ],
      "name": "paginateItemIds",
      "outputs": [
        {
          "internalType": "uint256[]",
          "name": "",
          "type": "uint256[]"
        }
      ],
      "stateMutability": "view",
      "type": "function"
    },
    {
      "inputs": [
        {
          "internalType": "uint256",
          "name": "_itemIdsStartIndexInclusive",
          "type": "uint256"
        },
        {
          "internalType": "uint256",
          "name": "_limit",
          "type": "uint256"
        }
      ],
      "name": "paginateItemSupplies",
      "outputs": [
        {
          "internalType": "uint256[][]",
          "name": "",
          "type": "uint256[][]"
        }
      ],
      "stateMutability": "view",
      "type": "function"
    },
    {
      "inputs": [
        {
          "internalType": "uint256",
          "name": "_itemIdsStartIndexInclusive",
          "type": "uint256"
        },
        {
          "internalType": "uint256",
          "name": "_limit",
          "type": "uint256"
        }
      ],
      "name": "paginateItemURIs",
      "outputs": [
        {
          "internalType": "string[]",
          "name": "",
          "type": "string[]"
        }
      ],
      "stateMutability": "view",
      "type": "function"
    },
    {
      "inputs": [
        {
          "internalType": "bytes32",
          "name": "_systemId",
          "type": "bytes32"
        }
      ],
      "name": "removeSystemId",
      "outputs": [],
      "stateMutability": "nonpayable",
      "type": "function"
    },
    {
      "inputs": [],
      "name": "renounceOwnership",
      "outputs": [],
      "stateMutability": "nonpayable",
      "type": "function"
    },
    {
      "inputs": [
        {
          "internalType": "bytes32",
          "name": "role",
          "type": "bytes32"
        },
        {
          "internalType": "address",
          "name": "account",
          "type": "address"
        }
      ],
      "name": "renounceRole",
      "outputs": [],
      "stateMutability": "nonpayable",
      "type": "function"
    },
    {
      "inputs": [
        {
          "internalType": "bytes32",
          "name": "role",
          "type": "bytes32"
        },
        {
          "internalType": "address",
          "name": "account",
          "type": "address"
        }
      ],
      "name": "revokeRole",
      "outputs": [],
      "stateMutability": "nonpayable",
      "type": "function"
    },
    {
      "inputs": [
        {
          "internalType": "address",
          "name": "from",
          "type": "address"
        },
        {
          "internalType": "address",
          "name": "to",
          "type": "address"
        },
        {
          "internalType": "uint256[]",
          "name": "ids",
          "type": "uint256[]"
        },
        {
          "internalType": "uint256[]",
          "name": "amounts",
          "type": "uint256[]"
        },
        {
          "internalType": "bytes",
          "name": "data",
          "type": "bytes"
        }
      ],
      "name": "safeBatchTransferFrom",
      "outputs": [],
      "stateMutability": "nonpayable",
      "type": "function"
    },
    {
      "inputs": [
        {
          "internalType": "address",
          "name": "from",
          "type": "address"
        },
        {
          "internalType": "address",
          "name": "to",
          "type": "address"
        },
        {
          "internalType": "uint256",
          "name": "id",
          "type": "uint256"
        },
        {
          "internalType": "uint256",
          "name": "amount",
          "type": "uint256"
        },
        {
          "internalType": "bytes",
          "name": "data",
          "type": "bytes"
        }
      ],
      "name": "safeTransferFrom",
      "outputs": [],
      "stateMutability": "nonpayable",
      "type": "function"
    },
    {
      "inputs": [
        {
          "internalType": "address",
          "name": "operator",
          "type": "address"
        },
        {
          "internalType": "bool",
          "name": "approved",
          "type": "bool"
        }
      ],
      "name": "setApprovalForAll",
      "outputs": [],
      "stateMutability": "nonpayable",
      "type": "function"
    },
    {
      "inputs": [
        {
          "internalType": "string",
          "name": "_itemBaseURI",
          "type": "string"
        }
      ],
      "name": "setItemBaseURI",
      "outputs": [],
      "stateMutability": "nonpayable",
      "type": "function"
    },
    {
      "inputs": [
        {
          "internalType": "uint256",
          "name": "_itemId",
          "type": "uint256"
        },
        {
          "internalType": "uint256",
          "name": "_unlockTimestamp",
          "type": "uint256"
        }
      ],
      "name": "setItemTransferTimelock",
      "outputs": [],
      "stateMutability": "nonpayable",
      "type": "function"
    },
    {
      "inputs": [
        {
          "internalType": "uint256",
          "name": "_itemId",
          "type": "uint256"
        },
        {
          "internalType": "string",
          "name": "_uri",
          "type": "string"
        }
      ],
      "name": "setItemURI",
      "outputs": [],
      "stateMutability": "nonpayable",
      "type": "function"
    },
    {
      "inputs": [],
      "name": "supportedSystemIds",
      "outputs": [
        {
          "internalType": "bytes32[]",
          "name": "",
          "type": "bytes32[]"
        }
      ],
      "stateMutability": "view",
      "type": "function"
    },
    {
      "inputs": [
        {
          "internalType": "bytes4",
          "name": "interfaceId",
          "type": "bytes4"
        }
      ],
      "name": "supportsInterface",
      "outputs": [
        {
          "internalType": "bool",
          "name": "",
          "type": "bool"
        }
      ],
      "stateMutability": "view",
      "type": "function"
    },
    {
      "inputs": [
        {
          "internalType": "bytes32",
          "name": "_systemId",
          "type": "bytes32"
        }
      ],
      "name": "supportsSystemId",
      "outputs": [
        {
          "internalType": "bool",
          "name": "",
          "type": "bool"
        }
      ],
      "stateMutability": "view",
      "type": "function"
    },
    {
      "inputs": [],
      "name": "systemId",
      "outputs": [
        {
          "internalType": "bytes32",
          "name": "",
          "type": "bytes32"
        }
      ],
      "stateMutability": "view",
      "type": "function"
    },
    {
      "inputs": [],
      "name": "totalItemIds",
      "outputs": [
        {
          "internalType": "uint256",
          "name": "",
          "type": "uint256"
        }
      ],
      "stateMutability": "view",
      "type": "function"
    },
    {
      "inputs": [
        {
          "internalType": "address",
          "name": "newOwner",
          "type": "address"
        }
      ],
      "name": "transferOwnership",
      "outputs": [],
      "stateMutability": "nonpayable",
      "type": "function"
    },
    {
      "inputs": [
        {
          "internalType": "address",
          "name": "_newOwner",
          "type": "address"
        }
      ],
      "name": "transferOwnershipControl",
      "outputs": [],
      "stateMutability": "nonpayable",
      "type": "function"
    },
    {
      "inputs": [],
      "name": "trustedForwarder",
      "outputs": [
        {
          "internalType": "address",
          "name": "",
          "type": "address"
        }
      ],
      "stateMutability": "view",
      "type": "function"
    },
    {
      "inputs": [
        {
          "internalType": "address",
          "name": "_newTrustedForwarder",
          "type": "address"
        }
      ],
      "name": "upgradeTrustedForwarder",
      "outputs": [],
      "stateMutability": "nonpayable",
      "type": "function"
    },
    {
      "inputs": [
        {
          "internalType": "uint256",
          "name": "_itemId",
          "type": "uint256"
        }
      ],
      "name": "uri",
      "outputs": [
        {
          "internalType": "string",
          "name": "",
          "type": "string"
        }
      ],
      "stateMutability": "view",
      "type": "function"
    }
  ],
  "bytecode": "0x60806040523480156200001157600080fd5b5060405162005715380380620057158339810160408190526200003491620002cd565b8082604051806020016040528060008152506200005781620000f660201b60201c565b50600380546001600160a01b0319166001600160a01b03929092169190911790556200009160048262000108602090811b62001eda17901c565b50600655620000a9620000a36200011f565b6200013b565b620000bf6000620000b96200011f565b6200018d565b620000ee7f5b618ab2fee761c09bf71319707cefa62eccc93dcc483744898e6c3acf452643620000b96200011f565b50506200047a565b6002620001048282620003ae565b5050565b600062000116838362000199565b90505b92915050565b600062000136620001eb60201b62001eed1760201c565b905090565b600880546001600160a01b038381166001600160a01b0319831681179093556040519116919082907f8be0079c531659141344cd1fd0a4f28419497f9722a3daafe3b4186f6b6457e090600090a35050565b62000104828262000223565b6000818152600183016020526040812054620001e25750815460018181018455600084815260208082209093018490558454848252828601909352604090209190915562000119565b50600062000119565b6003546000906001600160a01b031633036200020e575060131936013560601c90565b62000136620002c960201b62001f421760201c565b60008281526007602090815260408083206001600160a01b038516845290915290205460ff16620001045760008281526007602090815260408083206001600160a01b03851684529091529020805460ff19166001179055620002856200011f565b6001600160a01b0316816001600160a01b0316837f2f8788117e7eff1d82e926ec794901d17c78024a50270940304540a733656f0d60405160405180910390a45050565b3390565b60008060408385031215620002e157600080fd5b82516001600160a01b0381168114620002f957600080fd5b6020939093015192949293505050565b634e487b7160e01b600052604160045260246000fd5b600181811c908216806200033457607f821691505b6020821081036200035557634e487b7160e01b600052602260045260246000fd5b50919050565b601f821115620003a957600081815260208120601f850160051c81016020861015620003845750805b601f850160051c820191505b81811015620003a55782815560010162000390565b5050505b505050565b81516001600160401b03811115620003ca57620003ca62000309565b620003e281620003db84546200031f565b846200035b565b602080601f8311600181146200041a5760008415620004015750858301515b600019600386901b1c1916600185901b178555620003a5565b600085815260208120601f198616915b828110156200044b578886015182559484019460019091019084016200042a565b50858210156200046a5787850151600019600388901b60f8161c191681555b5050505050600190811b01905550565b61528b806200048a6000396000f3fe608060405234801561001057600080fd5b506004361061031f5760003560e01c80638c892cfd116101a7578063b9babeba116100ee578063dc7aa9ef11610097578063f242432a11610071578063f242432a14610789578063f2fde38b1461079c578063fe992c98146107af57600080fd5b8063dc7aa9ef14610725578063e985e9c514610738578063efa52e901461078157600080fd5b8063cd11fa46116100c8578063cd11fa46146106dd578063d547741f146106f2578063d8e141751461070557600080fd5b8063b9babeba146106af578063bbdc8276146106c2578063bf2424c3146106ca57600080fd5b8063a9c47d1211610150578063b1da7a551161012a578063b1da7a5514610676578063b3dc00fe14610689578063b53f3c011461069c57600080fd5b8063a9c47d121461062e578063aa2a7eea14610641578063ae06363f1461065457600080fd5b8063951549b911610181578063951549b914610600578063a217fddf14610613578063a22cb4651461061b57600080fd5b80638c892cfd146105945780638da5cb5b1461059c57806391d14854146105ba57600080fd5b806336568abe1161026b578063572b6c05116102145780637bc6cb74116101ee5780637bc6cb74146105195780637da0a8771461052c578063843bd6411461057157600080fd5b8063572b6c05146104c257806358ec07c7146104f1578063715018a61461051157600080fd5b806348e1219a1161024557806348e1219a146104875780634b7c78dc1461048f5780634e1273f4146104a257600080fd5b806336568abe1461045957806339f898bc1461046c5780634252ac3f1461047457600080fd5b80630e89341c116102cd578063248a9ca3116102a7578063248a9ca3146104105780632eb2c2d6146104335780632f2ff15d1461044657600080fd5b80630e89341c146103bd57806313f2f6bd146103dd5780632257eb7e146103f057600080fd5b80630515cf8d116102fe5780630515cf8d1461038257806306313ac01461039757806308f427c7146103aa57600080fd5b8062fdd58e1461032457806301ffc9a71461034a57806303cb92fc1461036d575b600080fd5b610337610332366004614324565b6107c2565b6040519081526020015b60405180910390f35b61035d61035836600461437c565b6108a2565b6040519015158152602001610341565b61038061037b3660046144a5565b6108f8565b005b61038a610949565b60405161034191906144ec565b6103806103a5366004614594565b610a90565b6103806103b83660046145f9565b610a9f565b6103d06103cb366004614594565b610be6565b60405161034191906146e8565b61038a6103eb3660046146fb565b610d6a565b6103376103fe366004614594565b600c6020526000908152604090205481565b61033761041e366004614594565b60009081526007602052604090206001015490565b6103806104413660046147b2565b610ef0565b61038061045436600461485c565b610fd1565b61038061046736600461485c565b611174565b600654610337565b610380610482366004614888565b611240565b600954610337565b61038061049d3660046145f9565b611271565b6104b56104b03660046148a3565b611396565b604051610341919061499f565b61035d6104d0366004614888565b60035473ffffffffffffffffffffffffffffffffffffffff91821691161490565b6103376104ff366004614594565b600d6020526000908152604090205481565b6103806114ee565b6103806105273660046146fb565b611502565b60035461054c9073ffffffffffffffffffffffffffffffffffffffff1681565b60405173ffffffffffffffffffffffffffffffffffffffff9091168152602001610341565b61035d61057f366004614594565b600b6020526000908152604090205460ff1681565b6104b561153f565b60085473ffffffffffffffffffffffffffffffffffffffff1661054c565b61035d6105c836600461485c565b600091825260076020908152604080842073ffffffffffffffffffffffffffffffffffffffff93909316845291905290205460ff1690565b6104b561060e3660046146fb565b611597565b610337600081565b6103806106293660046149b2565b611679565b61038061063c3660046149ee565b61168b565b61038061064f366004614888565b611697565b61035d610662366004614594565b6000908152600d6020526040902054421190565b610380610684366004614a2b565b611705565b610337610697366004614594565b6117cf565b6103806106aa366004614594565b6117f0565b6103806106bd366004614ad6565b6117fb565b6103d06118b5565b61035d6106d8366004614594565b611943565b6106e5611950565b6040516103419190614b09565b61038061070036600461485c565b611961565b6107186107133660046146fb565b611986565b6040516103419190614b4d565b610380610733366004614ad6565b611a7b565b61035d610746366004614bcd565b73ffffffffffffffffffffffffffffffffffffffff918216600090815260016020908152604080832093909416825291909152205460ff1690565b610718611b5a565b610380610797366004614bf7565b611c04565b6103806107aa366004614888565b611ce5565b61038a6107bd366004614888565b611d99565b600073ffffffffffffffffffffffffffffffffffffffff831661086c576040517f08c379a000000000000000000000000000000000000000000000000000000000815260206004820152602a60248201527f455243313135353a2061646472657373207a65726f206973206e6f742061207660448201527f616c6964206f776e65720000000000000000000000000000000000000000000060648201526084015b60405180910390fd5b5060008181526020818152604080832073ffffffffffffffffffffffffffffffffffffffff861684529091529020545b92915050565b60007fffffffff0000000000000000000000000000000000000000000000000000000082167fd2c80a6200000000000000000000000000000000000000000000000000000000148061089c575061089c82611f46565b7f5b618ab2fee761c09bf71319707cefa62eccc93dcc483744898e6c3acf45264361092281611f9c565b6000838152600e6020526040902061093a8382614cef565b5061094483611fad565b505050565b60095460609060009067ffffffffffffffff81111561096a5761096a614399565b60405190808252806020026020018201604052801561099d57816020015b60608152602001906001900390816109885790505b50905060005b600954811015610a8a57604080516002808252606082018352600092602083019080368337019050509050600982815481106109e1576109e1614e09565b9060005260206000200154816000815181106109ff576109ff614e09565b602002602001018181525050600c600082600081518110610a2257610a22614e09565b602002602001015181526020019081526020016000205481600181518110610a4c57610a4c614e09565b60200260200101818152505080838381518110610a6b57610a6b614e09565b6020026020010181905250508080610a8290614e67565b9150506109a3565b50919050565b610a9b60048261202e565b5050565b610acb7f5b618ab2fee761c09bf71319707cefa62eccc93dcc483744898e6c3acf4526436105c861203a565b80610afd5750610afd7fc9eb32e43bf5ecbceacf00b32281dfc5d6d700a0db676ea26ccf938a385ac3f76105c861203a565b610b63576040517f08c379a000000000000000000000000000000000000000000000000000000000815260206004820152601760248201527f4e6f7420617574686f72697a656420746f206d696e742e0000000000000000006044820152606401610863565b610bdf8585858080602002602001604051908101604052809392919081815260200183836020028082843760009201919091525050604080516020808902828101820190935288825290935088925087918291850190849080828437600092018290525060408051602081019091529081529250612044915050565b5050505050565b6000818152600b602052604090205460609060ff16610c87576040517f08c379a000000000000000000000000000000000000000000000000000000000815260206004820152602360248201527f555249207265717565737420666f72206e6f6e206578697374656e742069746560448201527f6d496400000000000000000000000000000000000000000000000000000000006064820152608401610863565b6000600a8054610c9690614c5c565b905011610d39576000828152600e602052604090208054610cb690614c5c565b80601f0160208091040260200160405190810160405280929190818152602001828054610ce290614c5c565b8015610d2f5780601f10610d0457610100808354040283529160200191610d2f565b820191906000526020600020905b815481529060010190602001808311610d1257829003601f168201915b505050505061089c565b600a610d44836122d7565b604051602001610d55929190614e9f565b60405160208183030381529060405292915050565b6009546060906000908410610d80576000610d8e565b600954610d8e908590614f44565b9050600083821115610da05783610da2565b815b905060008167ffffffffffffffff811115610dbf57610dbf614399565b604051908082528060200260200182016040528015610df257816020015b6060815260200190600190039081610ddd5790505b50905060005b82811015610ee6576040805160028082526060820183526000926020830190803683370190505090506009610e2d838a614f57565b81548110610e3d57610e3d614e09565b906000526020600020015481600081518110610e5b57610e5b614e09565b602002602001018181525050600c600082600081518110610e7e57610e7e614e09565b602002602001015181526020019081526020016000205481600181518110610ea857610ea8614e09565b60200260200101818152505080838381518110610ec757610ec7614e09565b6020026020010181905250508080610ede90614e67565b915050610df8565b5095945050505050565b610ef861203a565b73ffffffffffffffffffffffffffffffffffffffff168573ffffffffffffffffffffffffffffffffffffffff161480610f385750610f388561074661203a565b610fc4576040517f08c379a000000000000000000000000000000000000000000000000000000000815260206004820152602e60248201527f455243313135353a2063616c6c6572206973206e6f7420746f6b656e206f776e60448201527f6572206f7220617070726f7665640000000000000000000000000000000000006064820152608401610863565b610bdf8585858585612395565b6000610fdf816105c861203a565b9050600061100f7f5b618ab2fee761c09bf71319707cefa62eccc93dcc483744898e6c3acf4526436105c861203a565b9050818061101a5750805b6110a6576040517f08c379a000000000000000000000000000000000000000000000000000000000815260206004820152602d60248201527f526f6c65206772616e74696e672072657175697265732061646d696e206f722060448201527f6d616e6167657220726f6c652e000000000000000000000000000000000000006064820152608401610863565b8315806110d257507f5b618ab2fee761c09bf71319707cefa62eccc93dcc483744898e6c3acf45264384145b156111645781611164576040517f08c379a000000000000000000000000000000000000000000000000000000000815260206004820152602b60248201527f4f6e6c792061646d696e2063616e206772616e742061646d696e206f72206d6160448201527f6e6167657220726f6c652e0000000000000000000000000000000000000000006064820152608401610863565b61116e84846126e0565b50505050565b61117c61203a565b73ffffffffffffffffffffffffffffffffffffffff168173ffffffffffffffffffffffffffffffffffffffff1614611236576040517f08c379a000000000000000000000000000000000000000000000000000000000815260206004820152602f60248201527f416363657373436f6e74726f6c3a2063616e206f6e6c792072656e6f756e636560448201527f20726f6c657320666f722073656c6600000000000000000000000000000000006064820152608401610863565b610a9b82826127d5565b6112486128c8565b61125181611ce5565b61125c6000826126e0565b61126e600061126961203a565b6127d5565b50565b8461127a61203a565b73ffffffffffffffffffffffffffffffffffffffff168173ffffffffffffffffffffffffffffffffffffffff1614806112ba57506112ba8161074661203a565b611320576040517f08c379a000000000000000000000000000000000000000000000000000000000815260206004820152601560248201527f4e6f7420617070726f76656420746f206275726e2e00000000000000000000006044820152606401610863565b61138e8686868080602002602001604051908101604052809392919081815260200183836020028082843760009201919091525050604080516020808a0282810182019093528982529093508992508891829185019084908082843760009201919091525061298292505050565b505050505050565b60608151835114611429576040517f08c379a000000000000000000000000000000000000000000000000000000000815260206004820152602960248201527f455243313135353a206163636f756e747320616e6420696473206c656e67746860448201527f206d69736d6174636800000000000000000000000000000000000000000000006064820152608401610863565b6000835167ffffffffffffffff81111561144557611445614399565b60405190808252806020026020018201604052801561146e578160200160208202803683370190505b50905060005b84518110156114e6576114b985828151811061149257611492614e09565b60200260200101518583815181106114ac576114ac614e09565b60200260200101516107c2565b8282815181106114cb576114cb614e09565b60209081029190910101526114df81614e67565b9050611474565b509392505050565b6114f66128c8565b6115006000612cc2565b565b7f5b618ab2fee761c09bf71319707cefa62eccc93dcc483744898e6c3acf45264361152c81611f9c565b506000918252600d602052604090912055565b6060600980548060200260200160405190810160405280929190818152602001828054801561158d57602002820191906000526020600020905b815481526020019060010190808311611579575b5050505050905090565b60095460609060009084106115ad5760006115bb565b6009546115bb908590614f44565b90506000838211156115cd57836115cf565b815b905060008167ffffffffffffffff8111156115ec576115ec614399565b604051908082528060200260200182016040528015611615578160200160208202803683370190505b50905060005b82811015610ee657600961162f8289614f57565b8154811061163f5761163f614e09565b906000526020600020015482828151811061165c5761165c614e09565b60209081029190910101528061167181614e67565b91505061161b565b610a9b61168461203a565b8383612d39565b600a610a9b8282614cef565b7f5b618ab2fee761c09bf71319707cefa62eccc93dcc483744898e6c3acf4526436116c181611f9c565b600380547fffffffffffffffffffffffff00000000000000000000000000000000000000001673ffffffffffffffffffffffffffffffffffffffff84161790555050565b60005b858110156117c5576117b38888888481811061172657611726614e09565b905060200201602081019061173b9190614888565b87878080602002602001604051908101604052809392919081815260200183836020028082843760009201919091525050604080516020808b0282810182019093528a82529093508a925089918291850190849080828437600092018290525060408051602081019091529081529250610ef0915050565b806117bd81614e67565b915050611708565b5050505050505050565b600981815481106117df57600080fd5b600091825260209091200154905081565b610a9b600482611eda565b8261180461203a565b73ffffffffffffffffffffffffffffffffffffffff168173ffffffffffffffffffffffffffffffffffffffff16148061184457506118448161074661203a565b6118aa576040517f08c379a000000000000000000000000000000000000000000000000000000000815260206004820152601560248201527f4e6f7420617070726f76656420746f206275726e2e00000000000000000000006044820152606401610863565b61116e848484612e8c565b600a80546118c290614c5c565b80601f01602080910402602001604051908101604052809291908181526020018280546118ee90614c5c565b801561193b5780601f106119105761010080835404028352916020019161193b565b820191906000526020600020905b81548152906001019060200180831161191e57829003601f168201915b505050505081565b600061089c6004836130ba565b606061195c60046130d2565b905090565b60008281526007602052604090206001015461197c81611f9c565b61094483836127d5565b600954606090600090841061199c5760006119aa565b6009546119aa908590614f44565b90506000838211156119bc57836119be565b815b905060008167ffffffffffffffff8111156119db576119db614399565b604051908082528060200260200182016040528015611a0e57816020015b60608152602001906001900390816119f95790505b50905060005b82811015610ee657611a4b6009611a2b838a614f57565b81548110611a3b57611a3b614e09565b9060005260206000200154610be6565b828281518110611a5d57611a5d614e09565b60200260200101819052508080611a7390614e67565b915050611a14565b611aa77f5b618ab2fee761c09bf71319707cefa62eccc93dcc483744898e6c3acf4526436105c861203a565b80611ad95750611ad97fc9eb32e43bf5ecbceacf00b32281dfc5d6d700a0db676ea26ccf938a385ac3f76105c861203a565b611b3f576040517f08c379a000000000000000000000000000000000000000000000000000000000815260206004820152601760248201527f4e6f7420617574686f72697a656420746f206d696e742e0000000000000000006044820152606401610863565b610944838383604051806020016040528060008152506130df565b60095460609060009067ffffffffffffffff811115611b7b57611b7b614399565b604051908082528060200260200182016040528015611bae57816020015b6060815260200190600190039081611b995790505b50905060005b600954811015610a8a57611bd460098281548110611a3b57611a3b614e09565b828281518110611be657611be6614e09565b60200260200101819052508080611bfc90614e67565b915050611bb4565b611c0c61203a565b73ffffffffffffffffffffffffffffffffffffffff168573ffffffffffffffffffffffffffffffffffffffff161480611c4c5750611c4c8561074661203a565b611cd8576040517f08c379a000000000000000000000000000000000000000000000000000000000815260206004820152602e60248201527f455243313135353a2063616c6c6572206973206e6f7420746f6b656e206f776e60448201527f6572206f7220617070726f7665640000000000000000000000000000000000006064820152608401610863565b610bdf8585858585613261565b611ced6128c8565b73ffffffffffffffffffffffffffffffffffffffff8116611d90576040517f08c379a000000000000000000000000000000000000000000000000000000000815260206004820152602660248201527f4f776e61626c653a206e6577206f776e657220697320746865207a65726f206160448201527f64647265737300000000000000000000000000000000000000000000000000006064820152608401610863565b61126e81612cc2565b60095460609060009067ffffffffffffffff811115611dba57611dba614399565b604051908082528060200260200182016040528015611ded57816020015b6060815260200190600190039081611dd85790505b50905060005b600954811015611ed35760408051600280825260608201835260009260208301908036833701905050905060098281548110611e3157611e31614e09565b906000526020600020015481600081518110611e4f57611e4f614e09565b602002602001018181525050611e828560098481548110611e7257611e72614e09565b90600052602060002001546107c2565b81600181518110611e9557611e95614e09565b60200260200101818152505080838381518110611eb457611eb4614e09565b6020026020010181905250508080611ecb90614e67565b915050611df3565b5092915050565b6000611ee683836134b8565b9392505050565b60035460009073ffffffffffffffffffffffffffffffffffffffff163303611f3a57507fffffffffffffffffffffffffffffffffffffffffffffffffffffffffffffffec36013560601c90565b503390565b90565b3390565b60007fffffffff0000000000000000000000000000000000000000000000000000000082167f7965db0b00000000000000000000000000000000000000000000000000000000148061089c575061089c82613507565b61126e81611fa861203a565b6135ea565b6000818152600b602052604090205460ff1661126e576009805460018181019092557f6e1540171b6c0c960b71a7020d9f60077f6af931a8bbf590da0223dacf75c7af018290556000828152600b6020526040902080547fffffffffffffffffffffffffffffffffffffffffffffffffffffffffffffff0016909117905550565b6000611ee683836136a4565b600061195c611eed565b73ffffffffffffffffffffffffffffffffffffffff84166120e7576040517f08c379a000000000000000000000000000000000000000000000000000000000815260206004820152602160248201527f455243313135353a206d696e7420746f20746865207a65726f2061646472657360448201527f73000000000000000000000000000000000000000000000000000000000000006064820152608401610863565b8151835114612178576040517f08c379a000000000000000000000000000000000000000000000000000000000815260206004820152602860248201527f455243313135353a2069647320616e6420616d6f756e7473206c656e6774682060448201527f6d69736d617463680000000000000000000000000000000000000000000000006064820152608401610863565b600061218261203a565b905061219381600087878787613797565b60005b8451811015612248578381815181106121b1576121b1614e09565b60200260200101516000808784815181106121ce576121ce614e09565b6020026020010151815260200190815260200160002060008873ffffffffffffffffffffffffffffffffffffffff1673ffffffffffffffffffffffffffffffffffffffff16815260200190815260200160002060008282546122309190614f57565b9091555081905061224081614e67565b915050612196565b508473ffffffffffffffffffffffffffffffffffffffff16600073ffffffffffffffffffffffffffffffffffffffff168273ffffffffffffffffffffffffffffffffffffffff167f4a39dc06d4c0dbc64b70af90fd698a233a518aa5d07e595d983b8c0526c8f7fb87876040516122c0929190614f6a565b60405180910390a4610bdf81600087878787613ad9565b606060006122e483613d63565b600101905060008167ffffffffffffffff81111561230457612304614399565b6040519080825280601f01601f19166020018201604052801561232e576020820181803683370190505b5090508181016020015b7fffffffffffffffffffffffffffffffffffffffffffffffffffffffffffffffff017f3031323334353637383961626364656600000000000000000000000000000000600a86061a8153600a850494508461233857509392505050565b8151835114612426576040517f08c379a000000000000000000000000000000000000000000000000000000000815260206004820152602860248201527f455243313135353a2069647320616e6420616d6f756e7473206c656e6774682060448201527f6d69736d617463680000000000000000000000000000000000000000000000006064820152608401610863565b73ffffffffffffffffffffffffffffffffffffffff84166124c9576040517f08c379a000000000000000000000000000000000000000000000000000000000815260206004820152602560248201527f455243313135353a207472616e7366657220746f20746865207a65726f20616460448201527f64726573730000000000000000000000000000000000000000000000000000006064820152608401610863565b60006124d361203a565b90506124e3818787878787613797565b60005b845181101561265357600085828151811061250357612503614e09565b60200260200101519050600085838151811061252157612521614e09565b6020908102919091018101516000848152808352604080822073ffffffffffffffffffffffffffffffffffffffff8e1683529093529190912054909150818110156125ee576040517f08c379a000000000000000000000000000000000000000000000000000000000815260206004820152602a60248201527f455243313135353a20696e73756666696369656e742062616c616e636520666f60448201527f72207472616e73666572000000000000000000000000000000000000000000006064820152608401610863565b60008381526020818152604080832073ffffffffffffffffffffffffffffffffffffffff8e8116855292528083208585039055908b16825281208054849290612638908490614f57565b925050819055505050508061264c90614e67565b90506124e6565b508473ffffffffffffffffffffffffffffffffffffffff168673ffffffffffffffffffffffffffffffffffffffff168273ffffffffffffffffffffffffffffffffffffffff167f4a39dc06d4c0dbc64b70af90fd698a233a518aa5d07e595d983b8c0526c8f7fb87876040516126ca929190614f6a565b60405180910390a461138e818787878787613ad9565b600082815260076020908152604080832073ffffffffffffffffffffffffffffffffffffffff8516845290915290205460ff16610a9b57600082815260076020908152604080832073ffffffffffffffffffffffffffffffffffffffff85168452909152902080547fffffffffffffffffffffffffffffffffffffffffffffffffffffffffffffff0016600117905561277761203a565b73ffffffffffffffffffffffffffffffffffffffff168173ffffffffffffffffffffffffffffffffffffffff16837f2f8788117e7eff1d82e926ec794901d17c78024a50270940304540a733656f0d60405160405180910390a45050565b600082815260076020908152604080832073ffffffffffffffffffffffffffffffffffffffff8516845290915290205460ff1615610a9b57600082815260076020908152604080832073ffffffffffffffffffffffffffffffffffffffff85168452909152902080547fffffffffffffffffffffffffffffffffffffffffffffffffffffffffffffff0016905561286a61203a565b73ffffffffffffffffffffffffffffffffffffffff168173ffffffffffffffffffffffffffffffffffffffff16837ff6391f5c32d9c69d2a47ea670b442974b53935d1edc7fd64eb21e047a839171b60405160405180910390a45050565b6128d061203a565b73ffffffffffffffffffffffffffffffffffffffff1661290560085473ffffffffffffffffffffffffffffffffffffffff1690565b73ffffffffffffffffffffffffffffffffffffffff1614611500576040517f08c379a000000000000000000000000000000000000000000000000000000000815260206004820181905260248201527f4f776e61626c653a2063616c6c6572206973206e6f7420746865206f776e65726044820152606401610863565b73ffffffffffffffffffffffffffffffffffffffff8316612a25576040517f08c379a000000000000000000000000000000000000000000000000000000000815260206004820152602360248201527f455243313135353a206275726e2066726f6d20746865207a65726f206164647260448201527f65737300000000000000000000000000000000000000000000000000000000006064820152608401610863565b8051825114612ab6576040517f08c379a000000000000000000000000000000000000000000000000000000000815260206004820152602860248201527f455243313135353a2069647320616e6420616d6f756e7473206c656e6774682060448201527f6d69736d617463680000000000000000000000000000000000000000000000006064820152608401610863565b6000612ac061203a565b9050612ae081856000868660405180602001604052806000815250613797565b60005b8351811015612c2e576000848281518110612b0057612b00614e09565b602002602001015190506000848381518110612b1e57612b1e614e09565b6020908102919091018101516000848152808352604080822073ffffffffffffffffffffffffffffffffffffffff8c168352909352919091205490915081811015612bea576040517f08c379a0000000000000000000000000000000000000000000000000000000008152602060048201526024808201527f455243313135353a206275726e20616d6f756e7420657863656564732062616c60448201527f616e6365000000000000000000000000000000000000000000000000000000006064820152608401610863565b60009283526020838152604080852073ffffffffffffffffffffffffffffffffffffffff8b1686529091529092209103905580612c2681614e67565b915050612ae3565b50600073ffffffffffffffffffffffffffffffffffffffff168473ffffffffffffffffffffffffffffffffffffffff168273ffffffffffffffffffffffffffffffffffffffff167f4a39dc06d4c0dbc64b70af90fd698a233a518aa5d07e595d983b8c0526c8f7fb8686604051612ca6929190614f6a565b60405180910390a460408051602081019091526000905261116e565b6008805473ffffffffffffffffffffffffffffffffffffffff8381167fffffffffffffffffffffffff0000000000000000000000000000000000000000831681179093556040519116919082907f8be0079c531659141344cd1fd0a4f28419497f9722a3daafe3b4186f6b6457e090600090a35050565b8173ffffffffffffffffffffffffffffffffffffffff168373ffffffffffffffffffffffffffffffffffffffff1603612df4576040517f08c379a000000000000000000000000000000000000000000000000000000000815260206004820152602960248201527f455243313135353a2073657474696e6720617070726f76616c2073746174757360448201527f20666f722073656c6600000000000000000000000000000000000000000000006064820152608401610863565b73ffffffffffffffffffffffffffffffffffffffff83811660008181526001602090815260408083209487168084529482529182902080547fffffffffffffffffffffffffffffffffffffffffffffffffffffffffffffff001686151590811790915591519182527f17307eab39ab6107e8899845ad3d59bd9653f200f220920489ca2b5937696c31910160405180910390a3505050565b73ffffffffffffffffffffffffffffffffffffffff8316612f2f576040517f08c379a000000000000000000000000000000000000000000000000000000000815260206004820152602360248201527f455243313135353a206275726e2066726f6d20746865207a65726f206164647260448201527f65737300000000000000000000000000000000000000000000000000000000006064820152608401610863565b6000612f3961203a565b90506000612f4684613e45565b90506000612f5384613e45565b9050612f7383876000858560405180602001604052806000815250613797565b60008581526020818152604080832073ffffffffffffffffffffffffffffffffffffffff8a16845290915290205484811015613030576040517f08c379a0000000000000000000000000000000000000000000000000000000008152602060048201526024808201527f455243313135353a206275726e20616d6f756e7420657863656564732062616c60448201527f616e6365000000000000000000000000000000000000000000000000000000006064820152608401610863565b60008681526020818152604080832073ffffffffffffffffffffffffffffffffffffffff8b81168086529184528285208a8703905582518b81529384018a90529092908816917fc3d58168c5ae7397731d063d5bbf3d657854427343f4c083240f7aacaa2d0f62910160405180910390a46040805160208101909152600090525b50505050505050565b60008181526001830160205260408120541515611ee6565b60606000611ee683613e90565b73ffffffffffffffffffffffffffffffffffffffff8416613182576040517f08c379a000000000000000000000000000000000000000000000000000000000815260206004820152602160248201527f455243313135353a206d696e7420746f20746865207a65726f2061646472657360448201527f73000000000000000000000000000000000000000000000000000000000000006064820152608401610863565b600061318c61203a565b9050600061319985613e45565b905060006131a685613e45565b90506131b783600089858589613797565b60008681526020818152604080832073ffffffffffffffffffffffffffffffffffffffff8b168452909152812080548792906131f4908490614f57565b9091555050604080518781526020810187905273ffffffffffffffffffffffffffffffffffffffff808a1692600092918716917fc3d58168c5ae7397731d063d5bbf3d657854427343f4c083240f7aacaa2d0f62910160405180910390a46130b183600089898989613eec565b73ffffffffffffffffffffffffffffffffffffffff8416613304576040517f08c379a000000000000000000000000000000000000000000000000000000000815260206004820152602560248201527f455243313135353a207472616e7366657220746f20746865207a65726f20616460448201527f64726573730000000000000000000000000000000000000000000000000000006064820152608401610863565b600061330e61203a565b9050600061331b85613e45565b9050600061332885613e45565b9050613338838989858589613797565b60008681526020818152604080832073ffffffffffffffffffffffffffffffffffffffff8c168452909152902054858110156133f6576040517f08c379a000000000000000000000000000000000000000000000000000000000815260206004820152602a60248201527f455243313135353a20696e73756666696369656e742062616c616e636520666f60448201527f72207472616e73666572000000000000000000000000000000000000000000006064820152608401610863565b60008781526020818152604080832073ffffffffffffffffffffffffffffffffffffffff8d8116855292528083208985039055908a16825281208054889290613440908490614f57565b9091555050604080518881526020810188905273ffffffffffffffffffffffffffffffffffffffff808b16928c821692918816917fc3d58168c5ae7397731d063d5bbf3d657854427343f4c083240f7aacaa2d0f62910160405180910390a46134ad848a8a8a8a8a613eec565b505050505050505050565b60008181526001830160205260408120546134ff5750815460018181018455600084815260208082209093018490558454848252828601909352604090209190915561089c565b50600061089c565b60007fffffffff0000000000000000000000000000000000000000000000000000000082167fd9b67a2600000000000000000000000000000000000000000000000000000000148061359a57507fffffffff0000000000000000000000000000000000000000000000000000000082167f0e89341c00000000000000000000000000000000000000000000000000000000145b8061089c57507f01ffc9a7000000000000000000000000000000000000000000000000000000007fffffffff0000000000000000000000000000000000000000000000000000000083161461089c565b600082815260076020908152604080832073ffffffffffffffffffffffffffffffffffffffff8516845290915290205460ff16610a9b5761362a81614099565b6136358360206140b8565b604051602001613646929190614f98565b604080517fffffffffffffffffffffffffffffffffffffffffffffffffffffffffffffffe0818403018152908290527f08c379a0000000000000000000000000000000000000000000000000000000008252610863916004016146e8565b6000818152600183016020526040812054801561378d5760006136c8600183614f44565b85549091506000906136dc90600190614f44565b90508181146137415760008660000182815481106136fc576136fc614e09565b906000526020600020015490508087600001848154811061371f5761371f614e09565b6000918252602080832090910192909255918252600188019052604090208390555b855486908061375257613752615019565b60019003818190600052602060002001600090559055856001016000868152602001908152602001600020600090556001935050505061089c565b600091505061089c565b60005b83518110156130b15760008482815181106137b7576137b7614e09565b602002602001015190506137d9816000908152600d6020526040902054421190565b806137f8575073ffffffffffffffffffffffffffffffffffffffff8716155b80613847575073ffffffffffffffffffffffffffffffffffffffff871660009081527fda0fe7d4dbf589e9cc551fcc2ffbf69bd67d0b79d6b14767382616ffd62236b4602052604090205460ff165b80613896575073ffffffffffffffffffffffffffffffffffffffff871660009081527fcaae065f63e0539668de8bae61565e5cbcaa5c6e26f567131f0b689749677054602052604090205460ff165b806138b5575073ffffffffffffffffffffffffffffffffffffffff8616155b613941576040517f08c379a000000000000000000000000000000000000000000000000000000000815260206004820152602360248201527f4974656d206973206e6f742063757272656e746c79207472616e73666572616260448201527f6c652e00000000000000000000000000000000000000000000000000000000006064820152608401610863565b73ffffffffffffffffffffffffffffffffffffffff87166139a75761396581611fad565b83828151811061397757613977614e09565b6020026020010151600c600083815260200190815260200160002060008282546139a19190614f57565b90915550505b73ffffffffffffffffffffffffffffffffffffffff8616613ac6578382815181106139d4576139d4614e09565b6020026020010151600c6000838152602001908152602001600020541015613a7e576040517f08c379a000000000000000000000000000000000000000000000000000000000815260206004820152602760248201527f455243313135353a206275726e20616d6f756e7420657863656564732069746560448201527f6d537570706c79000000000000000000000000000000000000000000000000006064820152608401610863565b838281518110613a9057613a90614e09565b6020026020010151600c600083815260200190815260200160002054613ab69190614f44565b6000828152600c60205260409020555b5080613ad181614e67565b91505061379a565b73ffffffffffffffffffffffffffffffffffffffff84163b1561138e576040517fbc197c8100000000000000000000000000000000000000000000000000000000815273ffffffffffffffffffffffffffffffffffffffff85169063bc197c8190613b509089908990889088908890600401615048565b6020604051808303816000875af1925050508015613ba9575060408051601f3d9081017fffffffffffffffffffffffffffffffffffffffffffffffffffffffffffffffe0168201909252613ba6918101906150b3565b60015b613c9257613bb56150d0565b806308c379a003613c085750613bc96150eb565b80613bd45750613c0a565b806040517f08c379a000000000000000000000000000000000000000000000000000000000815260040161086391906146e8565b505b6040517f08c379a000000000000000000000000000000000000000000000000000000000815260206004820152603460248201527f455243313135353a207472616e7366657220746f206e6f6e2d4552433131353560448201527f526563656976657220696d706c656d656e7465720000000000000000000000006064820152608401610863565b7fffffffff0000000000000000000000000000000000000000000000000000000081167fbc197c8100000000000000000000000000000000000000000000000000000000146130b1576040517f08c379a000000000000000000000000000000000000000000000000000000000815260206004820152602860248201527f455243313135353a204552433131353552656365697665722072656a6563746560448201527f6420746f6b656e730000000000000000000000000000000000000000000000006064820152608401610863565b6000807a184f03e93ff9f4daa797ed6e38ed64bf6a1f0100000000000000008310613dac577a184f03e93ff9f4daa797ed6e38ed64bf6a1f010000000000000000830492506040015b6d04ee2d6d415b85acef81000000008310613dd8576d04ee2d6d415b85acef8100000000830492506020015b662386f26fc100008310613df657662386f26fc10000830492506010015b6305f5e1008310613e0e576305f5e100830492506008015b6127108310613e2257612710830492506004015b60648310613e34576064830492506002015b600a831061089c5760010192915050565b60408051600180825281830190925260609160009190602080830190803683370190505090508281600081518110613e7f57613e7f614e09565b602090810291909101015292915050565b606081600001805480602002602001604051908101604052809291908181526020018280548015613ee057602002820191906000526020600020905b815481526020019060010190808311613ecc575b50505050509050919050565b73ffffffffffffffffffffffffffffffffffffffff84163b1561138e576040517ff23a6e6100000000000000000000000000000000000000000000000000000000815273ffffffffffffffffffffffffffffffffffffffff85169063f23a6e6190613f639089908990889088908890600401615193565b6020604051808303816000875af1925050508015613fbc575060408051601f3d9081017fffffffffffffffffffffffffffffffffffffffffffffffffffffffffffffffe0168201909252613fb9918101906150b3565b60015b613fc857613bb56150d0565b7fffffffff0000000000000000000000000000000000000000000000000000000081167ff23a6e6100000000000000000000000000000000000000000000000000000000146130b1576040517f08c379a000000000000000000000000000000000000000000000000000000000815260206004820152602860248201527f455243313135353a204552433131353552656365697665722072656a6563746560448201527f6420746f6b656e730000000000000000000000000000000000000000000000006064820152608401610863565b606061089c73ffffffffffffffffffffffffffffffffffffffff831660145b606060006140c78360026151e3565b6140d2906002614f57565b67ffffffffffffffff8111156140ea576140ea614399565b6040519080825280601f01601f191660200182016040528015614114576020820181803683370190505b5090507f30000000000000000000000000000000000000000000000000000000000000008160008151811061414b5761414b614e09565b60200101907effffffffffffffffffffffffffffffffffffffffffffffffffffffffffffff1916908160001a9053507f7800000000000000000000000000000000000000000000000000000000000000816001815181106141ae576141ae614e09565b60200101907effffffffffffffffffffffffffffffffffffffffffffffffffffffffffffff1916908160001a90535060006141ea8460026151e3565b6141f5906001614f57565b90505b6001811115614292577f303132333435363738396162636465660000000000000000000000000000000085600f166010811061423657614236614e09565b1a60f81b82828151811061424c5761424c614e09565b60200101907effffffffffffffffffffffffffffffffffffffffffffffffffffffffffffff1916908160001a90535060049490941c9361428b81615220565b90506141f8565b508315611ee6576040517f08c379a000000000000000000000000000000000000000000000000000000000815260206004820181905260248201527f537472696e67733a20686578206c656e67746820696e73756666696369656e746044820152606401610863565b803573ffffffffffffffffffffffffffffffffffffffff8116811461431f57600080fd5b919050565b6000806040838503121561433757600080fd5b614340836142fb565b946020939093013593505050565b7fffffffff000000000000000000000000000000000000000000000000000000008116811461126e57600080fd5b60006020828403121561438e57600080fd5b8135611ee68161434e565b7f4e487b7100000000000000000000000000000000000000000000000000000000600052604160045260246000fd5b7fffffffffffffffffffffffffffffffffffffffffffffffffffffffffffffffe0601f830116810181811067ffffffffffffffff8211171561440c5761440c614399565b6040525050565b600082601f83011261442457600080fd5b813567ffffffffffffffff81111561443e5761443e614399565b60405161447360207fffffffffffffffffffffffffffffffffffffffffffffffffffffffffffffffe0601f85011601826143c8565b81815284602083860101111561448857600080fd5b816020850160208301376000918101602001919091529392505050565b600080604083850312156144b857600080fd5b82359150602083013567ffffffffffffffff8111156144d657600080fd5b6144e285828601614413565b9150509250929050565b6000602080830181845280855180835260408601915060408160051b87010192508387016000805b83811015614586578886037fffffffffffffffffffffffffffffffffffffffffffffffffffffffffffffffc0018552825180518088529088019088880190845b818110156145705783518352928a0192918a0191600101614554565b5090975050509386019391860191600101614514565b509398975050505050505050565b6000602082840312156145a657600080fd5b5035919050565b60008083601f8401126145bf57600080fd5b50813567ffffffffffffffff8111156145d757600080fd5b6020830191508360208260051b85010111156145f257600080fd5b9250929050565b60008060008060006060868803121561461157600080fd5b61461a866142fb565b9450602086013567ffffffffffffffff8082111561463757600080fd5b61464389838a016145ad565b9096509450604088013591508082111561465c57600080fd5b50614669888289016145ad565b969995985093965092949392505050565b60005b8381101561469557818101518382015260200161467d565b50506000910152565b600081518084526146b681602086016020860161467a565b601f017fffffffffffffffffffffffffffffffffffffffffffffffffffffffffffffffe0169290920160200192915050565b602081526000611ee6602083018461469e565b6000806040838503121561470e57600080fd5b50508035926020909101359150565b600067ffffffffffffffff82111561473757614737614399565b5060051b60200190565b600082601f83011261475257600080fd5b8135602061475f8261471d565b60405161476c82826143c8565b83815260059390931b850182019282810191508684111561478c57600080fd5b8286015b848110156147a75780358352918301918301614790565b509695505050505050565b600080600080600060a086880312156147ca57600080fd5b6147d3866142fb565b94506147e1602087016142fb565b9350604086013567ffffffffffffffff808211156147fe57600080fd5b61480a89838a01614741565b9450606088013591508082111561482057600080fd5b61482c89838a01614741565b9350608088013591508082111561484257600080fd5b5061484f88828901614413565b9150509295509295909350565b6000806040838503121561486f57600080fd5b8235915061487f602084016142fb565b90509250929050565b60006020828403121561489a57600080fd5b611ee6826142fb565b600080604083850312156148b657600080fd5b823567ffffffffffffffff808211156148ce57600080fd5b818501915085601f8301126148e257600080fd5b813560206148ef8261471d565b6040516148fc82826143c8565b83815260059390931b850182019282810191508984111561491c57600080fd5b948201945b8386101561494157614932866142fb565b82529482019490820190614921565b9650508601359250508082111561495757600080fd5b506144e285828601614741565b600081518084526020808501945080840160005b8381101561499457815187529582019590820190600101614978565b509495945050505050565b602081526000611ee66020830184614964565b600080604083850312156149c557600080fd5b6149ce836142fb565b9150602083013580151581146149e357600080fd5b809150509250929050565b600060208284031215614a0057600080fd5b813567ffffffffffffffff811115614a1757600080fd5b614a2384828501614413565b949350505050565b60008060008060008060006080888a031215614a4657600080fd5b614a4f886142fb565b9650602088013567ffffffffffffffff80821115614a6c57600080fd5b614a788b838c016145ad565b909850965060408a0135915080821115614a9157600080fd5b614a9d8b838c016145ad565b909650945060608a0135915080821115614ab657600080fd5b50614ac38a828b016145ad565b989b979a50959850939692959293505050565b600080600060608486031215614aeb57600080fd5b614af4846142fb565b95602085013595506040909401359392505050565b6020808252825182820181905260009190848201906040850190845b81811015614b4157835183529284019291840191600101614b25565b50909695505050505050565b6000602080830181845280855180835260408601915060408160051b870101925083870160005b82811015614bc0577fffffffffffffffffffffffffffffffffffffffffffffffffffffffffffffffc0888603018452614bae85835161469e565b94509285019290850190600101614b74565b5092979650505050505050565b60008060408385031215614be057600080fd5b614be9836142fb565b915061487f602084016142fb565b600080600080600060a08688031215614c0f57600080fd5b614c18866142fb565b9450614c26602087016142fb565b93506040860135925060608601359150608086013567ffffffffffffffff811115614c5057600080fd5b61484f88828901614413565b600181811c90821680614c7057607f821691505b602082108103610a8a577f4e487b7100000000000000000000000000000000000000000000000000000000600052602260045260246000fd5b601f82111561094457600081815260208120601f850160051c81016020861015614cd05750805b601f850160051c820191505b8181101561138e57828155600101614cdc565b815167ffffffffffffffff811115614d0957614d09614399565b614d1d81614d178454614c5c565b84614ca9565b602080601f831160018114614d705760008415614d3a5750858301515b7fffffffffffffffffffffffffffffffffffffffffffffffffffffffffffffffff600386901b1c1916600185901b17855561138e565b6000858152602081207fffffffffffffffffffffffffffffffffffffffffffffffffffffffffffffffe08616915b82811015614dbd57888601518255948401946001909101908401614d9e565b5085821015614df957878501517fffffffffffffffffffffffffffffffffffffffffffffffffffffffffffffffff600388901b60f8161c191681555b5050505050600190811b01905550565b7f4e487b7100000000000000000000000000000000000000000000000000000000600052603260045260246000fd5b7f4e487b7100000000000000000000000000000000000000000000000000000000600052601160045260246000fd5b60007fffffffffffffffffffffffffffffffffffffffffffffffffffffffffffffffff8203614e9857614e98614e38565b5060010190565b6000808454614ead81614c5c565b60018281168015614ec55760018114614ef857614f27565b7fffffffffffffffffffffffffffffffffffffffffffffffffffffffffffffff0084168752821515830287019450614f27565b8860005260208060002060005b85811015614f1e5781548a820152908401908201614f05565b50505082870194505b505050508351614f3b81836020880161467a565b01949350505050565b8181038181111561089c5761089c614e38565b8082018082111561089c5761089c614e38565b604081526000614f7d6040830185614964565b8281036020840152614f8f8185614964565b95945050505050565b7f416363657373436f6e74726f6c3a206163636f756e7420000000000000000000815260008351614fd081601785016020880161467a565b7f206973206d697373696e6720726f6c6520000000000000000000000000000000601791840191820152835161500d81602884016020880161467a565b01602801949350505050565b7f4e487b7100000000000000000000000000000000000000000000000000000000600052603160045260246000fd5b600073ffffffffffffffffffffffffffffffffffffffff808816835280871660208401525060a0604083015261508160a0830186614964565b82810360608401526150938186614964565b905082810360808401526150a7818561469e565b98975050505050505050565b6000602082840312156150c557600080fd5b8151611ee68161434e565b600060033d1115611f3f5760046000803e5060005160e01c90565b600060443d10156150f95790565b6040517ffffffffffffffffffffffffffffffffffffffffffffffffffffffffffffffffc803d016004833e81513d67ffffffffffffffff816024840111818411171561514757505050505090565b828501915081518181111561515f5750505050505090565b843d87010160208285010111156151795750505050505090565b615188602082860101876143c8565b509095945050505050565b600073ffffffffffffffffffffffffffffffffffffffff808816835280871660208401525084604083015283606083015260a060808301526151d860a083018461469e565b979650505050505050565b6000817fffffffffffffffffffffffffffffffffffffffffffffffffffffffffffffffff048311821515161561521b5761521b614e38565b500290565b60008161522f5761522f614e38565b507fffffffffffffffffffffffffffffffffffffffffffffffffffffffffffffffff019056fea2646970667358221220c1499dcd38ff759dee6a28ebab5a0e885a83441b976f2d7398df14715047d27764736f6c63430008100033",
  "linkReferences": {},
  "deployedLinkReferences": {}
}