{
  "_format": "hh-sol-artifact-1",
  "contractName": "ERC1155_Game_Items_Collection",
  "sourceName": "contracts/Items_Collection/ERC1155_Game_Items_Collection.sol",
  "abi": [
    {
      "inputs": [
        {
          "internalType": "address",
          "name": "_forwarder",
          "type": "address"
        }
      ],
      "stateMutability": "nonpayable",
      "type": "constructor"
    },
    {
      "anonymous": false,
      "inputs": [
        {
          "indexed": true,
          "internalType": "address",
          "name": "account",
          "type": "address"
        },
        {
          "indexed": true,
          "internalType": "address",
          "name": "operator",
          "type": "address"
        },
        {
          "indexed": false,
          "internalType": "bool",
          "name": "approved",
          "type": "bool"
        }
      ],
      "name": "ApprovalForAll",
      "type": "event"
    },
    {
      "anonymous": false,
      "inputs": [
        {
          "indexed": true,
          "internalType": "bytes32",
          "name": "role",
          "type": "bytes32"
        },
        {
          "indexed": true,
          "internalType": "bytes32",
          "name": "previousAdminRole",
          "type": "bytes32"
        },
        {
          "indexed": true,
          "internalType": "bytes32",
          "name": "newAdminRole",
          "type": "bytes32"
        }
      ],
      "name": "RoleAdminChanged",
      "type": "event"
    },
    {
      "anonymous": false,
      "inputs": [
        {
          "indexed": true,
          "internalType": "bytes32",
          "name": "role",
          "type": "bytes32"
        },
        {
          "indexed": true,
          "internalType": "address",
          "name": "account",
          "type": "address"
        },
        {
          "indexed": true,
          "internalType": "address",
          "name": "sender",
          "type": "address"
        }
      ],
      "name": "RoleGranted",
      "type": "event"
    },
    {
      "anonymous": false,
      "inputs": [
        {
          "indexed": true,
          "internalType": "bytes32",
          "name": "role",
          "type": "bytes32"
        },
        {
          "indexed": true,
          "internalType": "address",
          "name": "account",
          "type": "address"
        },
        {
          "indexed": true,
          "internalType": "address",
          "name": "sender",
          "type": "address"
        }
      ],
      "name": "RoleRevoked",
      "type": "event"
    },
    {
      "anonymous": false,
      "inputs": [
        {
          "indexed": true,
          "internalType": "address",
          "name": "operator",
          "type": "address"
        },
        {
          "indexed": true,
          "internalType": "address",
          "name": "from",
          "type": "address"
        },
        {
          "indexed": true,
          "internalType": "address",
          "name": "to",
          "type": "address"
        },
        {
          "indexed": false,
          "internalType": "uint256[]",
          "name": "ids",
          "type": "uint256[]"
        },
        {
          "indexed": false,
          "internalType": "uint256[]",
          "name": "values",
          "type": "uint256[]"
        }
      ],
      "name": "TransferBatch",
      "type": "event"
    },
    {
      "anonymous": false,
      "inputs": [
        {
          "indexed": true,
          "internalType": "address",
          "name": "operator",
          "type": "address"
        },
        {
          "indexed": true,
          "internalType": "address",
          "name": "from",
          "type": "address"
        },
        {
          "indexed": true,
          "internalType": "address",
          "name": "to",
          "type": "address"
        },
        {
          "indexed": false,
          "internalType": "uint256",
          "name": "id",
          "type": "uint256"
        },
        {
          "indexed": false,
          "internalType": "uint256",
          "name": "value",
          "type": "uint256"
        }
      ],
      "name": "TransferSingle",
      "type": "event"
    },
    {
      "anonymous": false,
      "inputs": [
        {
          "indexed": false,
          "internalType": "string",
          "name": "value",
          "type": "string"
        },
        {
          "indexed": true,
          "internalType": "uint256",
          "name": "id",
          "type": "uint256"
        }
      ],
      "name": "URI",
      "type": "event"
    },
    {
      "inputs": [],
      "name": "DEFAULT_ADMIN_ROLE",
      "outputs": [
        {
          "internalType": "bytes32",
          "name": "",
          "type": "bytes32"
        }
      ],
      "stateMutability": "view",
      "type": "function"
    },
    {
      "inputs": [],
      "name": "allItemIds",
      "outputs": [
        {
          "internalType": "uint256[]",
          "name": "",
          "type": "uint256[]"
        }
      ],
      "stateMutability": "view",
      "type": "function"
    },
    {
      "inputs": [],
      "name": "allItemSupplies",
      "outputs": [
        {
          "internalType": "uint256[][]",
          "name": "",
          "type": "uint256[][]"
        }
      ],
      "stateMutability": "view",
      "type": "function"
    },
    {
      "inputs": [],
      "name": "allItemURIs",
      "outputs": [
        {
          "internalType": "string[]",
          "name": "",
          "type": "string[]"
        }
      ],
      "stateMutability": "view",
      "type": "function"
    },
    {
      "inputs": [
        {
          "internalType": "address",
          "name": "account",
          "type": "address"
        },
        {
          "internalType": "uint256",
          "name": "id",
          "type": "uint256"
        }
      ],
      "name": "balanceOf",
      "outputs": [
        {
          "internalType": "uint256",
          "name": "",
          "type": "uint256"
        }
      ],
      "stateMutability": "view",
      "type": "function"
    },
    {
      "inputs": [
        {
          "internalType": "address",
          "name": "_address",
          "type": "address"
        }
      ],
      "name": "balanceOfAll",
      "outputs": [
        {
          "internalType": "uint256[][]",
          "name": "",
          "type": "uint256[][]"
        }
      ],
      "stateMutability": "view",
      "type": "function"
    },
    {
      "inputs": [
        {
          "internalType": "address[]",
          "name": "accounts",
          "type": "address[]"
        },
        {
          "internalType": "uint256[]",
          "name": "ids",
          "type": "uint256[]"
        }
      ],
      "name": "balanceOfBatch",
      "outputs": [
        {
          "internalType": "uint256[]",
          "name": "",
          "type": "uint256[]"
        }
      ],
      "stateMutability": "view",
      "type": "function"
    },
    {
      "inputs": [
        {
          "internalType": "address",
          "name": "_fromAddress",
          "type": "address"
        },
        {
          "internalType": "address[]",
          "name": "_toAddresses",
          "type": "address[]"
        },
        {
          "internalType": "uint256[]",
          "name": "_itemIds",
          "type": "uint256[]"
        },
        {
          "internalType": "uint256[]",
          "name": "_quantitiesPerAddress",
          "type": "uint256[]"
        }
      ],
      "name": "bulkSafeBatchTransferFrom",
      "outputs": [],
      "stateMutability": "nonpayable",
      "type": "function"
    },
    {
      "inputs": [
        {
          "internalType": "address",
          "name": "_fromAddress",
          "type": "address"
        },
        {
          "internalType": "uint256[]",
          "name": "_itemIds",
          "type": "uint256[]"
        },
        {
          "internalType": "uint256[]",
          "name": "_quantities",
          "type": "uint256[]"
        }
      ],
      "name": "burnBatchFromAddress",
      "outputs": [],
      "stateMutability": "nonpayable",
      "type": "function"
    },
    {
      "inputs": [
        {
          "internalType": "address",
          "name": "_fromAddress",
          "type": "address"
        },
        {
          "internalType": "uint256",
          "name": "_itemId",
          "type": "uint256"
        },
        {
          "internalType": "uint256",
          "name": "_quantity",
          "type": "uint256"
        }
      ],
      "name": "burnFromAddress",
      "outputs": [],
      "stateMutability": "nonpayable",
      "type": "function"
    },
    {
      "inputs": [
        {
          "internalType": "bytes32",
          "name": "role",
          "type": "bytes32"
        }
      ],
      "name": "getRoleAdmin",
      "outputs": [
        {
          "internalType": "bytes32",
          "name": "",
          "type": "bytes32"
        }
      ],
      "stateMutability": "view",
      "type": "function"
    },
    {
      "inputs": [
        {
          "internalType": "bytes32",
          "name": "role",
          "type": "bytes32"
        },
        {
          "internalType": "address",
          "name": "account",
          "type": "address"
        }
      ],
      "name": "grantRole",
      "outputs": [],
      "stateMutability": "nonpayable",
      "type": "function"
    },
    {
      "inputs": [
        {
          "internalType": "bytes32",
          "name": "role",
          "type": "bytes32"
        },
        {
          "internalType": "address",
          "name": "account",
          "type": "address"
        }
      ],
      "name": "hasRole",
      "outputs": [
        {
          "internalType": "bool",
          "name": "",
          "type": "bool"
        }
      ],
      "stateMutability": "view",
      "type": "function"
    },
    {
      "inputs": [
        {
          "internalType": "address",
          "name": "account",
          "type": "address"
        },
        {
          "internalType": "address",
          "name": "operator",
          "type": "address"
        }
      ],
      "name": "isApprovedForAll",
      "outputs": [
        {
          "internalType": "bool",
          "name": "",
          "type": "bool"
        }
      ],
      "stateMutability": "view",
      "type": "function"
    },
    {
      "inputs": [
        {
          "internalType": "uint256",
          "name": "_itemId",
          "type": "uint256"
        }
      ],
      "name": "isItemTransferrable",
      "outputs": [
        {
          "internalType": "bool",
          "name": "",
          "type": "bool"
        }
      ],
      "stateMutability": "view",
      "type": "function"
    },
    {
      "inputs": [
        {
          "internalType": "address",
          "name": "forwarder",
          "type": "address"
        }
      ],
      "name": "isTrustedForwarder",
      "outputs": [
        {
          "internalType": "bool",
          "name": "",
          "type": "bool"
        }
      ],
      "stateMutability": "view",
      "type": "function"
    },
    {
      "inputs": [],
      "name": "itemBaseURI",
      "outputs": [
        {
          "internalType": "string",
          "name": "",
          "type": "string"
        }
      ],
      "stateMutability": "view",
      "type": "function"
    },
    {
      "inputs": [
        {
          "internalType": "uint256",
          "name": "",
          "type": "uint256"
        }
      ],
      "name": "itemExists",
      "outputs": [
        {
          "internalType": "bool",
          "name": "",
          "type": "bool"
        }
      ],
      "stateMutability": "view",
      "type": "function"
    },
    {
      "inputs": [
        {
          "internalType": "uint256",
          "name": "",
          "type": "uint256"
        }
      ],
      "name": "itemIds",
      "outputs": [
        {
          "internalType": "uint256",
          "name": "",
          "type": "uint256"
        }
      ],
      "stateMutability": "view",
      "type": "function"
    },
    {
      "inputs": [
        {
          "internalType": "uint256",
          "name": "",
          "type": "uint256"
        }
      ],
      "name": "itemSupplies",
      "outputs": [
        {
          "internalType": "uint256",
          "name": "",
          "type": "uint256"
        }
      ],
      "stateMutability": "view",
      "type": "function"
    },
    {
      "inputs": [
        {
          "internalType": "uint256",
          "name": "",
          "type": "uint256"
        }
      ],
      "name": "itemTransferTimelocks",
      "outputs": [
        {
          "internalType": "uint256",
          "name": "",
          "type": "uint256"
        }
      ],
      "stateMutability": "view",
      "type": "function"
    },
    {
      "inputs": [
        {
          "internalType": "address",
          "name": "_toAddress",
          "type": "address"
        },
        {
          "internalType": "uint256[]",
          "name": "_itemIds",
          "type": "uint256[]"
        },
        {
          "internalType": "uint256[]",
          "name": "_quantities",
          "type": "uint256[]"
        }
      ],
      "name": "mintBatchToAddress",
      "outputs": [],
      "stateMutability": "nonpayable",
      "type": "function"
    },
    {
      "inputs": [
        {
          "internalType": "address",
          "name": "_toAddress",
          "type": "address"
        },
        {
          "internalType": "uint256",
          "name": "_itemId",
          "type": "uint256"
        },
        {
          "internalType": "uint256",
          "name": "_quantity",
          "type": "uint256"
        }
      ],
      "name": "mintToAddress",
      "outputs": [],
      "stateMutability": "nonpayable",
      "type": "function"
    },
    {
      "inputs": [
        {
          "internalType": "uint256",
          "name": "_itemIdsStartIndexInclusive",
          "type": "uint256"
        },
        {
          "internalType": "uint256",
          "name": "_limit",
          "type": "uint256"
        }
      ],
      "name": "paginateItemIds",
      "outputs": [
        {
          "internalType": "uint256[]",
          "name": "",
          "type": "uint256[]"
        }
      ],
      "stateMutability": "view",
      "type": "function"
    },
    {
      "inputs": [
        {
          "internalType": "uint256",
          "name": "_itemIdsStartIndexInclusive",
          "type": "uint256"
        },
        {
          "internalType": "uint256",
          "name": "_limit",
          "type": "uint256"
        }
      ],
      "name": "paginateItemSupplies",
      "outputs": [
        {
          "internalType": "uint256[][]",
          "name": "",
          "type": "uint256[][]"
        }
      ],
      "stateMutability": "view",
      "type": "function"
    },
    {
      "inputs": [
        {
          "internalType": "uint256",
          "name": "_itemIdsStartIndexInclusive",
          "type": "uint256"
        },
        {
          "internalType": "uint256",
          "name": "_limit",
          "type": "uint256"
        }
      ],
      "name": "paginateItemURIs",
      "outputs": [
        {
          "internalType": "string[]",
          "name": "",
          "type": "string[]"
        }
      ],
      "stateMutability": "view",
      "type": "function"
    },
    {
      "inputs": [
        {
          "internalType": "bytes32",
          "name": "role",
          "type": "bytes32"
        },
        {
          "internalType": "address",
          "name": "account",
          "type": "address"
        }
      ],
      "name": "renounceRole",
      "outputs": [],
      "stateMutability": "nonpayable",
      "type": "function"
    },
    {
      "inputs": [
        {
          "internalType": "bytes32",
          "name": "role",
          "type": "bytes32"
        },
        {
          "internalType": "address",
          "name": "account",
          "type": "address"
        }
      ],
      "name": "revokeRole",
      "outputs": [],
      "stateMutability": "nonpayable",
      "type": "function"
    },
    {
      "inputs": [
        {
          "internalType": "address",
          "name": "from",
          "type": "address"
        },
        {
          "internalType": "address",
          "name": "to",
          "type": "address"
        },
        {
          "internalType": "uint256[]",
          "name": "ids",
          "type": "uint256[]"
        },
        {
          "internalType": "uint256[]",
          "name": "amounts",
          "type": "uint256[]"
        },
        {
          "internalType": "bytes",
          "name": "data",
          "type": "bytes"
        }
      ],
      "name": "safeBatchTransferFrom",
      "outputs": [],
      "stateMutability": "nonpayable",
      "type": "function"
    },
    {
      "inputs": [
        {
          "internalType": "address",
          "name": "from",
          "type": "address"
        },
        {
          "internalType": "address",
          "name": "to",
          "type": "address"
        },
        {
          "internalType": "uint256",
          "name": "id",
          "type": "uint256"
        },
        {
          "internalType": "uint256",
          "name": "amount",
          "type": "uint256"
        },
        {
          "internalType": "bytes",
          "name": "data",
          "type": "bytes"
        }
      ],
      "name": "safeTransferFrom",
      "outputs": [],
      "stateMutability": "nonpayable",
      "type": "function"
    },
    {
      "inputs": [
        {
          "internalType": "address",
          "name": "operator",
          "type": "address"
        },
        {
          "internalType": "bool",
          "name": "approved",
          "type": "bool"
        }
      ],
      "name": "setApprovalForAll",
      "outputs": [],
      "stateMutability": "nonpayable",
      "type": "function"
    },
    {
      "inputs": [
        {
          "internalType": "string",
          "name": "_itemBaseURI",
          "type": "string"
        }
      ],
      "name": "setItemBaseURI",
      "outputs": [],
      "stateMutability": "nonpayable",
      "type": "function"
    },
    {
      "inputs": [
        {
          "internalType": "uint256",
          "name": "_itemId",
          "type": "uint256"
        },
        {
          "internalType": "uint256",
          "name": "_unlockTimestamp",
          "type": "uint256"
        }
      ],
      "name": "setItemTransferTimelock",
      "outputs": [],
      "stateMutability": "nonpayable",
      "type": "function"
    },
    {
      "inputs": [
        {
          "internalType": "uint256",
          "name": "_itemId",
          "type": "uint256"
        },
        {
          "internalType": "string",
          "name": "_uri",
          "type": "string"
        }
      ],
      "name": "setItemURI",
      "outputs": [],
      "stateMutability": "nonpayable",
      "type": "function"
    },
    {
      "inputs": [
        {
          "internalType": "bytes4",
          "name": "interfaceId",
          "type": "bytes4"
        }
      ],
      "name": "supportsInterface",
      "outputs": [
        {
          "internalType": "bool",
          "name": "",
          "type": "bool"
        }
      ],
      "stateMutability": "view",
      "type": "function"
    },
    {
      "inputs": [],
      "name": "totalItemIds",
      "outputs": [
        {
          "internalType": "uint256",
          "name": "",
          "type": "uint256"
        }
      ],
      "stateMutability": "view",
      "type": "function"
    },
    {
      "inputs": [
        {
          "internalType": "address",
          "name": "_newTrustedForwarder",
          "type": "address"
        }
      ],
      "name": "upgradeTrustedForwarder",
      "outputs": [],
      "stateMutability": "nonpayable",
      "type": "function"
    },
    {
      "inputs": [
        {
          "internalType": "uint256",
          "name": "_itemId",
          "type": "uint256"
        }
      ],
      "name": "uri",
      "outputs": [
        {
          "internalType": "string",
          "name": "",
          "type": "string"
        }
      ],
      "stateMutability": "view",
      "type": "function"
    }
  ],
  "bytecode": "0x60806040523480156200001157600080fd5b5060405162004e5638038062004e568339810160408190526200003491620001d9565b60408051602081019091526000815281906200005081620000bd565b50600380546001600160a01b0319166001600160a01b039290921691909117905562000087600062000081620000cf565b620000eb565b620000b67fc9fc9949603a50f5cc3a96f774f1d68287789a241d2082dc81d0fb19a53bcf2b62000081620000cf565b506200037c565b6002620000cb8282620002b0565b5050565b6000620000e6620000f760201b62001ab61760201c565b905090565b620000cb82826200012f565b6003546000906001600160a01b031633036200011a575060131936013560601c90565b620000e6620001d560201b62001b101760201c565b60008281526004602090815260408083206001600160a01b038516845290915290205460ff16620000cb5760008281526004602090815260408083206001600160a01b03851684529091529020805460ff1916600117905562000191620000cf565b6001600160a01b0316816001600160a01b0316837f2f8788117e7eff1d82e926ec794901d17c78024a50270940304540a733656f0d60405160405180910390a45050565b3390565b600060208284031215620001ec57600080fd5b81516001600160a01b03811681146200020457600080fd5b9392505050565b634e487b7160e01b600052604160045260246000fd5b600181811c908216806200023657607f821691505b6020821081036200025757634e487b7160e01b600052602260045260246000fd5b50919050565b601f821115620002ab57600081815260208120601f850160051c81016020861015620002865750805b601f850160051c820191505b81811015620002a75782815560010162000292565b5050505b505050565b81516001600160401b03811115620002cc57620002cc6200020b565b620002e481620002dd845462000221565b846200025d565b602080601f8311600181146200031c5760008415620003035750858301515b600019600386901b1c1916600185901b178555620002a7565b600085815260208120601f198616915b828110156200034d578886015182559484019460019091019084016200032c565b50858210156200036c5787850151600019600388901b60f8161c191681555b5050505050600190811b01905550565b614aca806200038c6000396000f3fe608060405234801561001057600080fd5b50600436106102915760003560e01c80638c892cfd11610160578063b3dc00fe116100d8578063dc7aa9ef1161008c578063efa52e9011610071578063efa52e901461061f578063f242432a14610627578063fe992c981461063a57600080fd5b8063dc7aa9ef146105c3578063e985e9c5146105d657600080fd5b8063bbdc8276116100bd578063bbdc827614610588578063d547741f14610590578063d8e14175146105a357600080fd5b8063b3dc00fe14610562578063b9babeba1461057557600080fd5b8063a22cb4651161012f578063aa2a7eea11610114578063aa2a7eea1461051a578063ae06363f1461052d578063b1da7a551461054f57600080fd5b8063a22cb465146104f4578063a9c47d121461050757600080fd5b80638c892cfd1461048b57806391d1485414610493578063951549b9146104d9578063a217fddf146104ec57600080fd5b80632eb2c2d61161020e5780634e1273f4116101c257806358ec07c7116101a757806358ec07c7146104355780637bc6cb7414610455578063843bd6411461046857600080fd5b80634e1273f4146103e6578063572b6c051461040657600080fd5b806336568abe116101f357806336568abe146103b857806348e1219a146103cb5780634b7c78dc146103d357600080fd5b80632eb2c2d6146103925780632f2ff15d146103a557600080fd5b806308f427c71161026557806313f2f6bd1161024a57806313f2f6bd1461033c5780632257eb7e1461034f578063248a9ca31461036f57600080fd5b806308f427c7146103095780630e89341c1461031c57600080fd5b8062fdd58e1461029657806301ffc9a7146102bc57806303cb92fc146102df5780630515cf8d146102f4575b600080fd5b6102a96102a4366004613b87565b61064d565b6040519081526020015b60405180910390f35b6102cf6102ca366004613bdf565b61072d565b60405190151581526020016102b3565b6102f26102ed366004613d08565b610783565b005b6102fc6107cb565b6040516102b39190613d4f565b6102f2610317366004613e43565b610912565b61032f61032a366004613ec4565b610a59565b6040516102b39190613f4b565b6102fc61034a366004613f5e565b610bdd565b6102a961035d366004613ec4565b60086020526000908152604090205481565b6102a961037d366004613ec4565b60009081526004602052604090206001015490565b6102f26103a0366004614015565b610d63565b6102f26103b33660046140bf565b610e44565b6102f26103c63660046140bf565b610e6e565b6005546102a9565b6102f26103e1366004613e43565b610f3e565b6103f96103f43660046140eb565b611063565b6040516102b391906141e7565b6102cf6104143660046141fa565b60035473ffffffffffffffffffffffffffffffffffffffff91821691161490565b6102a9610443366004613ec4565b60096020526000908152604090205481565b6102f2610463366004613f5e565b6111bb565b6102cf610476366004613ec4565b60076020526000908152604090205460ff1681565b6103f96111f8565b6102cf6104a13660046140bf565b600091825260046020908152604080842073ffffffffffffffffffffffffffffffffffffffff93909316845291905290205460ff1690565b6103f96104e7366004613f5e565b611250565b6102a9600081565b6102f2610502366004614215565b611332565b6102f2610515366004614251565b611344565b6102f26105283660046141fa565b611350565b6102cf61053b366004613ec4565b600090815260096020526040902054421190565b6102f261055d366004614286565b6113be565b6102a9610570366004613ec4565b611488565b6102f2610583366004614331565b6114a9565b61032f611563565b6102f261059e3660046140bf565b6115f1565b6105b66105b1366004613f5e565b611616565b6040516102b39190614364565b6102f26105d1366004614331565b61170b565b6102cf6105e43660046143e4565b73ffffffffffffffffffffffffffffffffffffffff918216600090815260016020908152604080832093909416825291909152205460ff1690565b6105b66117ea565b6102f261063536600461440e565b611894565b6102fc6106483660046141fa565b611975565b600073ffffffffffffffffffffffffffffffffffffffff83166106f7576040517f08c379a000000000000000000000000000000000000000000000000000000000815260206004820152602a60248201527f455243313135353a2061646472657373207a65726f206973206e6f742061207660448201527f616c6964206f776e65720000000000000000000000000000000000000000000060648201526084015b60405180910390fd5b5060008181526020818152604080832073ffffffffffffffffffffffffffffffffffffffff861684529091529020545b92915050565b60007fffffffff0000000000000000000000000000000000000000000000000000000082167f909aa65d000000000000000000000000000000000000000000000000000000001480610727575061072782611b14565b7fc9fc9949603a50f5cc3a96f774f1d68287789a241d2082dc81d0fb19a53bcf2b6107ad81611b6a565b6000838152600a602052604090206107c58382614506565b50505050565b60055460609060009067ffffffffffffffff8111156107ec576107ec613bfc565b60405190808252806020026020018201604052801561081f57816020015b606081526020019060019003908161080a5790505b50905060005b60055481101561090c576040805160028082526060820183526000926020830190803683370190505090506005828154811061086357610863614620565b90600052602060002001548160008151811061088157610881614620565b60200260200101818152505060086000826000815181106108a4576108a4614620565b6020026020010151815260200190815260200160002054816001815181106108ce576108ce614620565b602002602001018181525050808383815181106108ed576108ed614620565b60200260200101819052505080806109049061467e565b915050610825565b50919050565b61093e7fc9fc9949603a50f5cc3a96f774f1d68287789a241d2082dc81d0fb19a53bcf2b6104a1611b7e565b8061097057506109707fc9eb32e43bf5ecbceacf00b32281dfc5d6d700a0db676ea26ccf938a385ac3f76104a1611b7e565b6109d6576040517f08c379a000000000000000000000000000000000000000000000000000000000815260206004820152601760248201527f4e6f7420617574686f72697a656420746f206d696e742e00000000000000000060448201526064016106ee565b610a528585858080602002602001604051908101604052809392919081815260200183836020028082843760009201919091525050604080516020808902828101820190935288825290935088925087918291850190849080828437600092018290525060408051602081019091529081529250611b88915050565b5050505050565b60008181526007602052604090205460609060ff16610afa576040517f08c379a000000000000000000000000000000000000000000000000000000000815260206004820152602360248201527f555249207265717565737420666f72206e6f6e206578697374656e742069746560448201527f6d4964000000000000000000000000000000000000000000000000000000000060648201526084016106ee565b600060068054610b0990614473565b905011610bac576000828152600a602052604090208054610b2990614473565b80601f0160208091040260200160405190810160405280929190818152602001828054610b5590614473565b8015610ba25780601f10610b7757610100808354040283529160200191610ba2565b820191906000526020600020905b815481529060010190602001808311610b8557829003601f168201915b5050505050610727565b6006610bb783611e1b565b604051602001610bc89291906146b6565b60405160208183030381529060405292915050565b6005546060906000908410610bf3576000610c01565b600554610c0190859061475b565b9050600083821115610c135783610c15565b815b905060008167ffffffffffffffff811115610c3257610c32613bfc565b604051908082528060200260200182016040528015610c6557816020015b6060815260200190600190039081610c505790505b50905060005b82811015610d59576040805160028082526060820183526000926020830190803683370190505090506005610ca0838a61476e565b81548110610cb057610cb0614620565b906000526020600020015481600081518110610cce57610cce614620565b6020026020010181815250506008600082600081518110610cf157610cf1614620565b602002602001015181526020019081526020016000205481600181518110610d1b57610d1b614620565b60200260200101818152505080838381518110610d3a57610d3a614620565b6020026020010181905250508080610d519061467e565b915050610c6b565b5095945050505050565b610d6b611b7e565b73ffffffffffffffffffffffffffffffffffffffff168573ffffffffffffffffffffffffffffffffffffffff161480610dab5750610dab856105e4611b7e565b610e37576040517f08c379a000000000000000000000000000000000000000000000000000000000815260206004820152602f60248201527f455243313135353a2063616c6c6572206973206e6f7420746f6b656e206f776e60448201527f6572206e6f7220617070726f766564000000000000000000000000000000000060648201526084016106ee565b610a528585858585611f58565b600082815260046020526040902060010154610e5f81611b6a565b610e6983836122a3565b505050565b610e76611b7e565b73ffffffffffffffffffffffffffffffffffffffff168173ffffffffffffffffffffffffffffffffffffffff1614610f30576040517f08c379a000000000000000000000000000000000000000000000000000000000815260206004820152602f60248201527f416363657373436f6e74726f6c3a2063616e206f6e6c792072656e6f756e636560448201527f20726f6c657320666f722073656c66000000000000000000000000000000000060648201526084016106ee565b610f3a8282612398565b5050565b84610f47611b7e565b73ffffffffffffffffffffffffffffffffffffffff168173ffffffffffffffffffffffffffffffffffffffff161480610f875750610f87816105e4611b7e565b610fed576040517f08c379a000000000000000000000000000000000000000000000000000000000815260206004820152601560248201527f4e6f7420617070726f76656420746f206275726e2e000000000000000000000060448201526064016106ee565b61105b8686868080602002602001604051908101604052809392919081815260200183836020028082843760009201919091525050604080516020808a0282810182019093528982529093508992508891829185019084908082843760009201919091525061248b92505050565b505050505050565b606081518351146110f6576040517f08c379a000000000000000000000000000000000000000000000000000000000815260206004820152602960248201527f455243313135353a206163636f756e747320616e6420696473206c656e67746860448201527f206d69736d61746368000000000000000000000000000000000000000000000060648201526084016106ee565b6000835167ffffffffffffffff81111561111257611112613bfc565b60405190808252806020026020018201604052801561113b578160200160208202803683370190505b50905060005b84518110156111b35761118685828151811061115f5761115f614620565b602002602001015185838151811061117957611179614620565b602002602001015161064d565b82828151811061119857611198614620565b60209081029190910101526111ac8161467e565b9050611141565b509392505050565b7fc9fc9949603a50f5cc3a96f774f1d68287789a241d2082dc81d0fb19a53bcf2b6111e581611b6a565b5060009182526009602052604090912055565b6060600580548060200260200160405190810160405280929190818152602001828054801561124657602002820191906000526020600020905b815481526020019060010190808311611232575b5050505050905090565b6005546060906000908410611266576000611274565b60055461127490859061475b565b90506000838211156112865783611288565b815b905060008167ffffffffffffffff8111156112a5576112a5613bfc565b6040519080825280602002602001820160405280156112ce578160200160208202803683370190505b50905060005b82811015610d595760056112e8828961476e565b815481106112f8576112f8614620565b906000526020600020015482828151811061131557611315614620565b60209081029190910101528061132a8161467e565b9150506112d4565b610f3a61133d611b7e565b83836127cb565b6006610f3a8282614506565b7fc9fc9949603a50f5cc3a96f774f1d68287789a241d2082dc81d0fb19a53bcf2b61137a81611b6a565b600380547fffffffffffffffffffffffff00000000000000000000000000000000000000001673ffffffffffffffffffffffffffffffffffffffff84161790555050565b60005b8581101561147e5761146c888888848181106113df576113df614620565b90506020020160208101906113f491906141fa565b87878080602002602001604051908101604052809392919081815260200183836020028082843760009201919091525050604080516020808b0282810182019093528a82529093508a925089918291850190849080828437600092018290525060408051602081019091529081529250610d63915050565b806114768161467e565b9150506113c1565b5050505050505050565b6005818154811061149857600080fd5b600091825260209091200154905081565b826114b2611b7e565b73ffffffffffffffffffffffffffffffffffffffff168173ffffffffffffffffffffffffffffffffffffffff1614806114f257506114f2816105e4611b7e565b611558576040517f08c379a000000000000000000000000000000000000000000000000000000000815260206004820152601560248201527f4e6f7420617070726f76656420746f206275726e2e000000000000000000000060448201526064016106ee565b6107c584848461291e565b6006805461157090614473565b80601f016020809104026020016040519081016040528092919081815260200182805461159c90614473565b80156115e95780601f106115be576101008083540402835291602001916115e9565b820191906000526020600020905b8154815290600101906020018083116115cc57829003601f168201915b505050505081565b60008281526004602052604090206001015461160c81611b6a565b610e698383612398565b600554606090600090841061162c57600061163a565b60055461163a90859061475b565b905060008382111561164c578361164e565b815b905060008167ffffffffffffffff81111561166b5761166b613bfc565b60405190808252806020026020018201604052801561169e57816020015b60608152602001906001900390816116895790505b50905060005b82811015610d59576116db60056116bb838a61476e565b815481106116cb576116cb614620565b9060005260206000200154610a59565b8282815181106116ed576116ed614620565b602002602001018190525080806117039061467e565b9150506116a4565b6117377fc9fc9949603a50f5cc3a96f774f1d68287789a241d2082dc81d0fb19a53bcf2b6104a1611b7e565b8061176957506117697fc9eb32e43bf5ecbceacf00b32281dfc5d6d700a0db676ea26ccf938a385ac3f76104a1611b7e565b6117cf576040517f08c379a000000000000000000000000000000000000000000000000000000000815260206004820152601760248201527f4e6f7420617574686f72697a656420746f206d696e742e00000000000000000060448201526064016106ee565b610e6983838360405180602001604052806000815250612b4c565b60055460609060009067ffffffffffffffff81111561180b5761180b613bfc565b60405190808252806020026020018201604052801561183e57816020015b60608152602001906001900390816118295790505b50905060005b60055481101561090c57611864600582815481106116cb576116cb614620565b82828151811061187657611876614620565b6020026020010181905250808061188c9061467e565b915050611844565b61189c611b7e565b73ffffffffffffffffffffffffffffffffffffffff168573ffffffffffffffffffffffffffffffffffffffff1614806118dc57506118dc856105e4611b7e565b611968576040517f08c379a000000000000000000000000000000000000000000000000000000000815260206004820152602f60248201527f455243313135353a2063616c6c6572206973206e6f7420746f6b656e206f776e60448201527f6572206e6f7220617070726f766564000000000000000000000000000000000060648201526084016106ee565b610a528585858585612cce565b60055460609060009067ffffffffffffffff81111561199657611996613bfc565b6040519080825280602002602001820160405280156119c957816020015b60608152602001906001900390816119b45790505b50905060005b600554811015611aaf5760408051600280825260608201835260009260208301908036833701905050905060058281548110611a0d57611a0d614620565b906000526020600020015481600081518110611a2b57611a2b614620565b602002602001018181525050611a5e8560058481548110611a4e57611a4e614620565b906000526020600020015461064d565b81600181518110611a7157611a71614620565b60200260200101818152505080838381518110611a9057611a90614620565b6020026020010181905250508080611aa79061467e565b9150506119cf565b5092915050565b60035460009073ffffffffffffffffffffffffffffffffffffffff163303611b0357507fffffffffffffffffffffffffffffffffffffffffffffffffffffffffffffffec36013560601c90565b503390565b905090565b90565b3390565b60007fffffffff0000000000000000000000000000000000000000000000000000000082167f7965db0b000000000000000000000000000000000000000000000000000000001480610727575061072782612f25565b611b7b81611b76611b7e565b613008565b50565b6000611b08611ab6565b73ffffffffffffffffffffffffffffffffffffffff8416611c2b576040517f08c379a000000000000000000000000000000000000000000000000000000000815260206004820152602160248201527f455243313135353a206d696e7420746f20746865207a65726f2061646472657360448201527f730000000000000000000000000000000000000000000000000000000000000060648201526084016106ee565b8151835114611cbc576040517f08c379a000000000000000000000000000000000000000000000000000000000815260206004820152602860248201527f455243313135353a2069647320616e6420616d6f756e7473206c656e6774682060448201527f6d69736d6174636800000000000000000000000000000000000000000000000060648201526084016106ee565b6000611cc6611b7e565b9050611cd7816000878787876130da565b60005b8451811015611d8c57838181518110611cf557611cf5614620565b6020026020010151600080878481518110611d1257611d12614620565b6020026020010151815260200190815260200160002060008873ffffffffffffffffffffffffffffffffffffffff1673ffffffffffffffffffffffffffffffffffffffff1681526020019081526020016000206000828254611d74919061476e565b90915550819050611d848161467e565b915050611cda565b508473ffffffffffffffffffffffffffffffffffffffff16600073ffffffffffffffffffffffffffffffffffffffff168273ffffffffffffffffffffffffffffffffffffffff167f4a39dc06d4c0dbc64b70af90fd698a233a518aa5d07e595d983b8c0526c8f7fb8787604051611e04929190614781565b60405180910390a4610a5281600087878787613492565b606081600003611e5e57505060408051808201909152600181527f3000000000000000000000000000000000000000000000000000000000000000602082015290565b8160005b8115611e885780611e728161467e565b9150611e819050600a836147de565b9150611e62565b60008167ffffffffffffffff811115611ea357611ea3613bfc565b6040519080825280601f01601f191660200182016040528015611ecd576020820181803683370190505b5090505b8415611f5057611ee260018361475b565b9150611eef600a866147f2565b611efa90603061476e565b60f81b818381518110611f0f57611f0f614620565b60200101907effffffffffffffffffffffffffffffffffffffffffffffffffffffffffffff1916908160001a905350611f49600a866147de565b9450611ed1565b949350505050565b8151835114611fe9576040517f08c379a000000000000000000000000000000000000000000000000000000000815260206004820152602860248201527f455243313135353a2069647320616e6420616d6f756e7473206c656e6774682060448201527f6d69736d6174636800000000000000000000000000000000000000000000000060648201526084016106ee565b73ffffffffffffffffffffffffffffffffffffffff841661208c576040517f08c379a000000000000000000000000000000000000000000000000000000000815260206004820152602560248201527f455243313135353a207472616e7366657220746f20746865207a65726f20616460448201527f647265737300000000000000000000000000000000000000000000000000000060648201526084016106ee565b6000612096611b7e565b90506120a68187878787876130da565b60005b84518110156122165760008582815181106120c6576120c6614620565b6020026020010151905060008583815181106120e4576120e4614620565b6020908102919091018101516000848152808352604080822073ffffffffffffffffffffffffffffffffffffffff8e1683529093529190912054909150818110156121b1576040517f08c379a000000000000000000000000000000000000000000000000000000000815260206004820152602a60248201527f455243313135353a20696e73756666696369656e742062616c616e636520666f60448201527f72207472616e736665720000000000000000000000000000000000000000000060648201526084016106ee565b60008381526020818152604080832073ffffffffffffffffffffffffffffffffffffffff8e8116855292528083208585039055908b168252812080548492906121fb90849061476e565b925050819055505050508061220f9061467e565b90506120a9565b508473ffffffffffffffffffffffffffffffffffffffff168673ffffffffffffffffffffffffffffffffffffffff168273ffffffffffffffffffffffffffffffffffffffff167f4a39dc06d4c0dbc64b70af90fd698a233a518aa5d07e595d983b8c0526c8f7fb878760405161228d929190614781565b60405180910390a461105b818787878787613492565b600082815260046020908152604080832073ffffffffffffffffffffffffffffffffffffffff8516845290915290205460ff16610f3a57600082815260046020908152604080832073ffffffffffffffffffffffffffffffffffffffff85168452909152902080547fffffffffffffffffffffffffffffffffffffffffffffffffffffffffffffff0016600117905561233a611b7e565b73ffffffffffffffffffffffffffffffffffffffff168173ffffffffffffffffffffffffffffffffffffffff16837f2f8788117e7eff1d82e926ec794901d17c78024a50270940304540a733656f0d60405160405180910390a45050565b600082815260046020908152604080832073ffffffffffffffffffffffffffffffffffffffff8516845290915290205460ff1615610f3a57600082815260046020908152604080832073ffffffffffffffffffffffffffffffffffffffff85168452909152902080547fffffffffffffffffffffffffffffffffffffffffffffffffffffffffffffff0016905561242d611b7e565b73ffffffffffffffffffffffffffffffffffffffff168173ffffffffffffffffffffffffffffffffffffffff16837ff6391f5c32d9c69d2a47ea670b442974b53935d1edc7fd64eb21e047a839171b60405160405180910390a45050565b73ffffffffffffffffffffffffffffffffffffffff831661252e576040517f08c379a000000000000000000000000000000000000000000000000000000000815260206004820152602360248201527f455243313135353a206275726e2066726f6d20746865207a65726f206164647260448201527f657373000000000000000000000000000000000000000000000000000000000060648201526084016106ee565b80518251146125bf576040517f08c379a000000000000000000000000000000000000000000000000000000000815260206004820152602860248201527f455243313135353a2069647320616e6420616d6f756e7473206c656e6774682060448201527f6d69736d6174636800000000000000000000000000000000000000000000000060648201526084016106ee565b60006125c9611b7e565b90506125e9818560008686604051806020016040528060008152506130da565b60005b835181101561273757600084828151811061260957612609614620565b60200260200101519050600084838151811061262757612627614620565b6020908102919091018101516000848152808352604080822073ffffffffffffffffffffffffffffffffffffffff8c1683529093529190912054909150818110156126f3576040517f08c379a0000000000000000000000000000000000000000000000000000000008152602060048201526024808201527f455243313135353a206275726e20616d6f756e7420657863656564732062616c60448201527f616e63650000000000000000000000000000000000000000000000000000000060648201526084016106ee565b60009283526020838152604080852073ffffffffffffffffffffffffffffffffffffffff8b168652909152909220910390558061272f8161467e565b9150506125ec565b50600073ffffffffffffffffffffffffffffffffffffffff168473ffffffffffffffffffffffffffffffffffffffff168273ffffffffffffffffffffffffffffffffffffffff167f4a39dc06d4c0dbc64b70af90fd698a233a518aa5d07e595d983b8c0526c8f7fb86866040516127af929190614781565b60405180910390a46040805160208101909152600090526107c5565b8173ffffffffffffffffffffffffffffffffffffffff168373ffffffffffffffffffffffffffffffffffffffff1603612886576040517f08c379a000000000000000000000000000000000000000000000000000000000815260206004820152602960248201527f455243313135353a2073657474696e6720617070726f76616c2073746174757360448201527f20666f722073656c66000000000000000000000000000000000000000000000060648201526084016106ee565b73ffffffffffffffffffffffffffffffffffffffff83811660008181526001602090815260408083209487168084529482529182902080547fffffffffffffffffffffffffffffffffffffffffffffffffffffffffffffff001686151590811790915591519182527f17307eab39ab6107e8899845ad3d59bd9653f200f220920489ca2b5937696c31910160405180910390a3505050565b73ffffffffffffffffffffffffffffffffffffffff83166129c1576040517f08c379a000000000000000000000000000000000000000000000000000000000815260206004820152602360248201527f455243313135353a206275726e2066726f6d20746865207a65726f206164647260448201527f657373000000000000000000000000000000000000000000000000000000000060648201526084016106ee565b60006129cb611b7e565b905060006129d88461371c565b905060006129e58461371c565b9050612a05838760008585604051806020016040528060008152506130da565b60008581526020818152604080832073ffffffffffffffffffffffffffffffffffffffff8a16845290915290205484811015612ac2576040517f08c379a0000000000000000000000000000000000000000000000000000000008152602060048201526024808201527f455243313135353a206275726e20616d6f756e7420657863656564732062616c60448201527f616e63650000000000000000000000000000000000000000000000000000000060648201526084016106ee565b60008681526020818152604080832073ffffffffffffffffffffffffffffffffffffffff8b81168086529184528285208a8703905582518b81529384018a90529092908816917fc3d58168c5ae7397731d063d5bbf3d657854427343f4c083240f7aacaa2d0f62910160405180910390a46040805160208101909152600090525b50505050505050565b73ffffffffffffffffffffffffffffffffffffffff8416612bef576040517f08c379a000000000000000000000000000000000000000000000000000000000815260206004820152602160248201527f455243313135353a206d696e7420746f20746865207a65726f2061646472657360448201527f730000000000000000000000000000000000000000000000000000000000000060648201526084016106ee565b6000612bf9611b7e565b90506000612c068561371c565b90506000612c138561371c565b9050612c24836000898585896130da565b60008681526020818152604080832073ffffffffffffffffffffffffffffffffffffffff8b16845290915281208054879290612c6190849061476e565b9091555050604080518781526020810187905273ffffffffffffffffffffffffffffffffffffffff808a1692600092918716917fc3d58168c5ae7397731d063d5bbf3d657854427343f4c083240f7aacaa2d0f62910160405180910390a4612b4383600089898989613767565b73ffffffffffffffffffffffffffffffffffffffff8416612d71576040517f08c379a000000000000000000000000000000000000000000000000000000000815260206004820152602560248201527f455243313135353a207472616e7366657220746f20746865207a65726f20616460448201527f647265737300000000000000000000000000000000000000000000000000000060648201526084016106ee565b6000612d7b611b7e565b90506000612d888561371c565b90506000612d958561371c565b9050612da58389898585896130da565b60008681526020818152604080832073ffffffffffffffffffffffffffffffffffffffff8c16845290915290205485811015612e63576040517f08c379a000000000000000000000000000000000000000000000000000000000815260206004820152602a60248201527f455243313135353a20696e73756666696369656e742062616c616e636520666f60448201527f72207472616e736665720000000000000000000000000000000000000000000060648201526084016106ee565b60008781526020818152604080832073ffffffffffffffffffffffffffffffffffffffff8d8116855292528083208985039055908a16825281208054889290612ead90849061476e565b9091555050604080518881526020810188905273ffffffffffffffffffffffffffffffffffffffff808b16928c821692918816917fc3d58168c5ae7397731d063d5bbf3d657854427343f4c083240f7aacaa2d0f62910160405180910390a4612f1a848a8a8a8a8a613767565b505050505050505050565b60007fffffffff0000000000000000000000000000000000000000000000000000000082167fd9b67a26000000000000000000000000000000000000000000000000000000001480612fb857507fffffffff0000000000000000000000000000000000000000000000000000000082167f0e89341c00000000000000000000000000000000000000000000000000000000145b8061072757507f01ffc9a7000000000000000000000000000000000000000000000000000000007fffffffff00000000000000000000000000000000000000000000000000000000831614610727565b600082815260046020908152604080832073ffffffffffffffffffffffffffffffffffffffff8516845290915290205460ff16610f3a576130608173ffffffffffffffffffffffffffffffffffffffff166014613914565b61306b836020613914565b60405160200161307c929190614806565b604080517fffffffffffffffffffffffffffffffffffffffffffffffffffffffffffffffe0818403018152908290527f08c379a00000000000000000000000000000000000000000000000000000000082526106ee91600401613f4b565b60005b8351811015612b435760008482815181106130fa576130fa614620565b6020026020010151905061311c81600090815260096020526040902054421190565b8061313b575073ffffffffffffffffffffffffffffffffffffffff8716155b8061318a575073ffffffffffffffffffffffffffffffffffffffff871660009081527f0bd32db21b4e7a5c682cc92107b99c9dbb2d6d64a346752e11eb45bfb97567f5602052604090205460ff165b806131d9575073ffffffffffffffffffffffffffffffffffffffff871660009081527ff9fd1248c586affabc10fb0262dbbca2f7cedc4a81d738b33283f93d7668f836602052604090205460ff165b806131f8575073ffffffffffffffffffffffffffffffffffffffff8616155b613284576040517f08c379a000000000000000000000000000000000000000000000000000000000815260206004820152602360248201527f4974656d206973206e6f742063757272656e746c79207472616e73666572616260448201527f6c652e000000000000000000000000000000000000000000000000000000000060648201526084016106ee565b73ffffffffffffffffffffffffffffffffffffffff87166133605760008181526007602052604090205460ff1661331e576005805460018181019092557f036b6384b5eca791c62761152d0c79bb0604c104a5fb6f4eb0703f3154bb3db001829055600082815260076020526040902080547fffffffffffffffffffffffffffffffffffffffffffffffffffffffffffffff001690911790555b83828151811061333057613330614620565b602002602001015160086000838152602001908152602001600020600082825461335a919061476e565b90915550505b73ffffffffffffffffffffffffffffffffffffffff861661347f5783828151811061338d5761338d614620565b602002602001015160086000838152602001908152602001600020541015613437576040517f08c379a000000000000000000000000000000000000000000000000000000000815260206004820152602760248201527f455243313135353a206275726e20616d6f756e7420657863656564732069746560448201527f6d537570706c790000000000000000000000000000000000000000000000000060648201526084016106ee565b83828151811061344957613449614620565b6020026020010151600860008381526020019081526020016000205461346f919061475b565b6000828152600860205260409020555b508061348a8161467e565b9150506130dd565b73ffffffffffffffffffffffffffffffffffffffff84163b1561105b576040517fbc197c8100000000000000000000000000000000000000000000000000000000815273ffffffffffffffffffffffffffffffffffffffff85169063bc197c81906135099089908990889088908890600401614887565b6020604051808303816000875af1925050508015613562575060408051601f3d9081017fffffffffffffffffffffffffffffffffffffffffffffffffffffffffffffffe016820190925261355f918101906148f2565b60015b61364b5761356e61490f565b806308c379a0036135c1575061358261492a565b8061358d57506135c3565b806040517f08c379a00000000000000000000000000000000000000000000000000000000081526004016106ee9190613f4b565b505b6040517f08c379a000000000000000000000000000000000000000000000000000000000815260206004820152603460248201527f455243313135353a207472616e7366657220746f206e6f6e204552433131353560448201527f526563656976657220696d706c656d656e74657200000000000000000000000060648201526084016106ee565b7fffffffff0000000000000000000000000000000000000000000000000000000081167fbc197c810000000000000000000000000000000000000000000000000000000014612b43576040517f08c379a000000000000000000000000000000000000000000000000000000000815260206004820152602860248201527f455243313135353a204552433131353552656365697665722072656a6563746560448201527f6420746f6b656e7300000000000000000000000000000000000000000000000060648201526084016106ee565b6040805160018082528183019092526060916000919060208083019080368337019050509050828160008151811061375657613756614620565b602090810291909101015292915050565b73ffffffffffffffffffffffffffffffffffffffff84163b1561105b576040517ff23a6e6100000000000000000000000000000000000000000000000000000000815273ffffffffffffffffffffffffffffffffffffffff85169063f23a6e61906137de90899089908890889088906004016149d2565b6020604051808303816000875af1925050508015613837575060408051601f3d9081017fffffffffffffffffffffffffffffffffffffffffffffffffffffffffffffffe0168201909252613834918101906148f2565b60015b6138435761356e61490f565b7fffffffff0000000000000000000000000000000000000000000000000000000081167ff23a6e610000000000000000000000000000000000000000000000000000000014612b43576040517f08c379a000000000000000000000000000000000000000000000000000000000815260206004820152602860248201527f455243313135353a204552433131353552656365697665722072656a6563746560448201527f6420746f6b656e7300000000000000000000000000000000000000000000000060648201526084016106ee565b60606000613923836002614a22565b61392e90600261476e565b67ffffffffffffffff81111561394657613946613bfc565b6040519080825280601f01601f191660200182016040528015613970576020820181803683370190505b5090507f3000000000000000000000000000000000000000000000000000000000000000816000815181106139a7576139a7614620565b60200101907effffffffffffffffffffffffffffffffffffffffffffffffffffffffffffff1916908160001a9053507f780000000000000000000000000000000000000000000000000000000000000081600181518110613a0a57613a0a614620565b60200101907effffffffffffffffffffffffffffffffffffffffffffffffffffffffffffff1916908160001a9053506000613a46846002614a22565b613a5190600161476e565b90505b6001811115613aee577f303132333435363738396162636465660000000000000000000000000000000085600f1660108110613a9257613a92614620565b1a60f81b828281518110613aa857613aa8614620565b60200101907effffffffffffffffffffffffffffffffffffffffffffffffffffffffffffff1916908160001a90535060049490941c93613ae781614a5f565b9050613a54565b508315613b57576040517f08c379a000000000000000000000000000000000000000000000000000000000815260206004820181905260248201527f537472696e67733a20686578206c656e67746820696e73756666696369656e7460448201526064016106ee565b9392505050565b803573ffffffffffffffffffffffffffffffffffffffff81168114613b8257600080fd5b919050565b60008060408385031215613b9a57600080fd5b613ba383613b5e565b946020939093013593505050565b7fffffffff0000000000000000000000000000000000000000000000000000000081168114611b7b57600080fd5b600060208284031215613bf157600080fd5b8135613b5781613bb1565b7f4e487b7100000000000000000000000000000000000000000000000000000000600052604160045260246000fd5b7fffffffffffffffffffffffffffffffffffffffffffffffffffffffffffffffe0601f830116810181811067ffffffffffffffff82111715613c6f57613c6f613bfc565b6040525050565b600082601f830112613c8757600080fd5b813567ffffffffffffffff811115613ca157613ca1613bfc565b604051613cd660207fffffffffffffffffffffffffffffffffffffffffffffffffffffffffffffffe0601f8501160182613c2b565b818152846020838601011115613ceb57600080fd5b816020850160208301376000918101602001919091529392505050565b60008060408385031215613d1b57600080fd5b82359150602083013567ffffffffffffffff811115613d3957600080fd5b613d4585828601613c76565b9150509250929050565b6000602080830181845280855180835260408601915060408160051b87010192508387016000805b83811015613de9578886037fffffffffffffffffffffffffffffffffffffffffffffffffffffffffffffffc0018552825180518088529088019088880190845b81811015613dd35783518352928a0192918a0191600101613db7565b5090975050509386019391860191600101613d77565b509398975050505050505050565b60008083601f840112613e0957600080fd5b50813567ffffffffffffffff811115613e2157600080fd5b6020830191508360208260051b8501011115613e3c57600080fd5b9250929050565b600080600080600060608688031215613e5b57600080fd5b613e6486613b5e565b9450602086013567ffffffffffffffff80821115613e8157600080fd5b613e8d89838a01613df7565b90965094506040880135915080821115613ea657600080fd5b50613eb388828901613df7565b969995985093965092949392505050565b600060208284031215613ed657600080fd5b5035919050565b60005b83811015613ef8578181015183820152602001613ee0565b50506000910152565b60008151808452613f19816020860160208601613edd565b601f017fffffffffffffffffffffffffffffffffffffffffffffffffffffffffffffffe0169290920160200192915050565b602081526000613b576020830184613f01565b60008060408385031215613f7157600080fd5b50508035926020909101359150565b600067ffffffffffffffff821115613f9a57613f9a613bfc565b5060051b60200190565b600082601f830112613fb557600080fd5b81356020613fc282613f80565b604051613fcf8282613c2b565b83815260059390931b8501820192828101915086841115613fef57600080fd5b8286015b8481101561400a5780358352918301918301613ff3565b509695505050505050565b600080600080600060a0868803121561402d57600080fd5b61403686613b5e565b945061404460208701613b5e565b9350604086013567ffffffffffffffff8082111561406157600080fd5b61406d89838a01613fa4565b9450606088013591508082111561408357600080fd5b61408f89838a01613fa4565b935060808801359150808211156140a557600080fd5b506140b288828901613c76565b9150509295509295909350565b600080604083850312156140d257600080fd5b823591506140e260208401613b5e565b90509250929050565b600080604083850312156140fe57600080fd5b823567ffffffffffffffff8082111561411657600080fd5b818501915085601f83011261412a57600080fd5b8135602061413782613f80565b6040516141448282613c2b565b83815260059390931b850182019282810191508984111561416457600080fd5b948201945b838610156141895761417a86613b5e565b82529482019490820190614169565b9650508601359250508082111561419f57600080fd5b50613d4585828601613fa4565b600081518084526020808501945080840160005b838110156141dc578151875295820195908201906001016141c0565b509495945050505050565b602081526000613b5760208301846141ac565b60006020828403121561420c57600080fd5b613b5782613b5e565b6000806040838503121561422857600080fd5b61423183613b5e565b91506020830135801515811461424657600080fd5b809150509250929050565b60006020828403121561426357600080fd5b813567ffffffffffffffff81111561427a57600080fd5b611f5084828501613c76565b60008060008060008060006080888a0312156142a157600080fd5b6142aa88613b5e565b9650602088013567ffffffffffffffff808211156142c757600080fd5b6142d38b838c01613df7565b909850965060408a01359150808211156142ec57600080fd5b6142f88b838c01613df7565b909650945060608a013591508082111561431157600080fd5b5061431e8a828b01613df7565b989b979a50959850939692959293505050565b60008060006060848603121561434657600080fd5b61434f84613b5e565b95602085013595506040909401359392505050565b6000602080830181845280855180835260408601915060408160051b870101925083870160005b828110156143d7577fffffffffffffffffffffffffffffffffffffffffffffffffffffffffffffffc08886030184526143c5858351613f01565b9450928501929085019060010161438b565b5092979650505050505050565b600080604083850312156143f757600080fd5b61440083613b5e565b91506140e260208401613b5e565b600080600080600060a0868803121561442657600080fd5b61442f86613b5e565b945061443d60208701613b5e565b93506040860135925060608601359150608086013567ffffffffffffffff81111561446757600080fd5b6140b288828901613c76565b600181811c9082168061448757607f821691505b60208210810361090c577f4e487b7100000000000000000000000000000000000000000000000000000000600052602260045260246000fd5b601f821115610e6957600081815260208120601f850160051c810160208610156144e75750805b601f850160051c820191505b8181101561105b578281556001016144f3565b815167ffffffffffffffff81111561452057614520613bfc565b6145348161452e8454614473565b846144c0565b602080601f83116001811461458757600084156145515750858301515b7fffffffffffffffffffffffffffffffffffffffffffffffffffffffffffffffff600386901b1c1916600185901b17855561105b565b6000858152602081207fffffffffffffffffffffffffffffffffffffffffffffffffffffffffffffffe08616915b828110156145d4578886015182559484019460019091019084016145b5565b508582101561461057878501517fffffffffffffffffffffffffffffffffffffffffffffffffffffffffffffffff600388901b60f8161c191681555b5050505050600190811b01905550565b7f4e487b7100000000000000000000000000000000000000000000000000000000600052603260045260246000fd5b7f4e487b7100000000000000000000000000000000000000000000000000000000600052601160045260246000fd5b60007fffffffffffffffffffffffffffffffffffffffffffffffffffffffffffffffff82036146af576146af61464f565b5060010190565b60008084546146c481614473565b600182811680156146dc576001811461470f5761473e565b7fffffffffffffffffffffffffffffffffffffffffffffffffffffffffffffff008416875282151583028701945061473e565b8860005260208060002060005b858110156147355781548a82015290840190820161471c565b50505082870194505b505050508351614752818360208801613edd565b01949350505050565b818103818111156107275761072761464f565b808201808211156107275761072761464f565b60408152600061479460408301856141ac565b82810360208401526147a681856141ac565b95945050505050565b7f4e487b7100000000000000000000000000000000000000000000000000000000600052601260045260246000fd5b6000826147ed576147ed6147af565b500490565b600082614801576148016147af565b500690565b7f416363657373436f6e74726f6c3a206163636f756e742000000000000000000081526000835161483e816017850160208801613edd565b7f206973206d697373696e6720726f6c6520000000000000000000000000000000601791840191820152835161487b816028840160208801613edd565b01602801949350505050565b600073ffffffffffffffffffffffffffffffffffffffff808816835280871660208401525060a060408301526148c060a08301866141ac565b82810360608401526148d281866141ac565b905082810360808401526148e68185613f01565b98975050505050505050565b60006020828403121561490457600080fd5b8151613b5781613bb1565b600060033d1115611b0d5760046000803e5060005160e01c90565b600060443d10156149385790565b6040517ffffffffffffffffffffffffffffffffffffffffffffffffffffffffffffffffc803d016004833e81513d67ffffffffffffffff816024840111818411171561498657505050505090565b828501915081518181111561499e5750505050505090565b843d87010160208285010111156149b85750505050505090565b6149c760208286010187613c2b565b509095945050505050565b600073ffffffffffffffffffffffffffffffffffffffff808816835280871660208401525084604083015283606083015260a06080830152614a1760a0830184613f01565b979650505050505050565b6000817fffffffffffffffffffffffffffffffffffffffffffffffffffffffffffffffff0483118215151615614a5a57614a5a61464f565b500290565b600081614a6e57614a6e61464f565b507fffffffffffffffffffffffffffffffffffffffffffffffffffffffffffffffff019056fea2646970667358221220677bf3dc70bf7b3968b3300ecb7f54b62f620e83745a00ed85b7c92aa3956b6864736f6c63430008100033",
  "linkReferences": {},
  "deployedLinkReferences": {}
}