{
  "_format": "hh-sol-artifact-1",
  "contractName": "ERC1155_Game_Items_Collection",
  "sourceName": "contracts/Items_Collection/ERC1155_Game_Items_Collection.sol",
  "abi": [
    {
      "inputs": [
        {
          "internalType": "address",
          "name": "_forwarder",
          "type": "address"
        }
      ],
      "stateMutability": "nonpayable",
      "type": "constructor"
    },
    {
      "anonymous": false,
      "inputs": [
        {
          "indexed": true,
          "internalType": "address",
          "name": "account",
          "type": "address"
        },
        {
          "indexed": true,
          "internalType": "address",
          "name": "operator",
          "type": "address"
        },
        {
          "indexed": false,
          "internalType": "bool",
          "name": "approved",
          "type": "bool"
        }
      ],
      "name": "ApprovalForAll",
      "type": "event"
    },
    {
      "anonymous": false,
      "inputs": [
        {
          "indexed": true,
          "internalType": "bytes32",
          "name": "role",
          "type": "bytes32"
        },
        {
          "indexed": true,
          "internalType": "bytes32",
          "name": "previousAdminRole",
          "type": "bytes32"
        },
        {
          "indexed": true,
          "internalType": "bytes32",
          "name": "newAdminRole",
          "type": "bytes32"
        }
      ],
      "name": "RoleAdminChanged",
      "type": "event"
    },
    {
      "anonymous": false,
      "inputs": [
        {
          "indexed": true,
          "internalType": "bytes32",
          "name": "role",
          "type": "bytes32"
        },
        {
          "indexed": true,
          "internalType": "address",
          "name": "account",
          "type": "address"
        },
        {
          "indexed": true,
          "internalType": "address",
          "name": "sender",
          "type": "address"
        }
      ],
      "name": "RoleGranted",
      "type": "event"
    },
    {
      "anonymous": false,
      "inputs": [
        {
          "indexed": true,
          "internalType": "bytes32",
          "name": "role",
          "type": "bytes32"
        },
        {
          "indexed": true,
          "internalType": "address",
          "name": "account",
          "type": "address"
        },
        {
          "indexed": true,
          "internalType": "address",
          "name": "sender",
          "type": "address"
        }
      ],
      "name": "RoleRevoked",
      "type": "event"
    },
    {
      "anonymous": false,
      "inputs": [
        {
          "indexed": true,
          "internalType": "address",
          "name": "operator",
          "type": "address"
        },
        {
          "indexed": true,
          "internalType": "address",
          "name": "from",
          "type": "address"
        },
        {
          "indexed": true,
          "internalType": "address",
          "name": "to",
          "type": "address"
        },
        {
          "indexed": false,
          "internalType": "uint256[]",
          "name": "ids",
          "type": "uint256[]"
        },
        {
          "indexed": false,
          "internalType": "uint256[]",
          "name": "values",
          "type": "uint256[]"
        }
      ],
      "name": "TransferBatch",
      "type": "event"
    },
    {
      "anonymous": false,
      "inputs": [
        {
          "indexed": true,
          "internalType": "address",
          "name": "operator",
          "type": "address"
        },
        {
          "indexed": true,
          "internalType": "address",
          "name": "from",
          "type": "address"
        },
        {
          "indexed": true,
          "internalType": "address",
          "name": "to",
          "type": "address"
        },
        {
          "indexed": false,
          "internalType": "uint256",
          "name": "id",
          "type": "uint256"
        },
        {
          "indexed": false,
          "internalType": "uint256",
          "name": "value",
          "type": "uint256"
        }
      ],
      "name": "TransferSingle",
      "type": "event"
    },
    {
      "anonymous": false,
      "inputs": [
        {
          "indexed": false,
          "internalType": "string",
          "name": "value",
          "type": "string"
        },
        {
          "indexed": true,
          "internalType": "uint256",
          "name": "id",
          "type": "uint256"
        }
      ],
      "name": "URI",
      "type": "event"
    },
    {
      "inputs": [],
      "name": "DEFAULT_ADMIN_ROLE",
      "outputs": [
        {
          "internalType": "bytes32",
          "name": "",
          "type": "bytes32"
        }
      ],
      "stateMutability": "view",
      "type": "function"
    },
    {
      "inputs": [],
      "name": "allItemIds",
      "outputs": [
        {
          "internalType": "uint256[]",
          "name": "",
          "type": "uint256[]"
        }
      ],
      "stateMutability": "view",
      "type": "function"
    },
    {
      "inputs": [],
      "name": "allItemSupplies",
      "outputs": [
        {
          "internalType": "uint256[][]",
          "name": "",
          "type": "uint256[][]"
        }
      ],
      "stateMutability": "view",
      "type": "function"
    },
    {
      "inputs": [],
      "name": "allItemURIs",
      "outputs": [
        {
          "internalType": "string[]",
          "name": "",
          "type": "string[]"
        }
      ],
      "stateMutability": "view",
      "type": "function"
    },
    {
      "inputs": [
        {
          "internalType": "address",
          "name": "account",
          "type": "address"
        },
        {
          "internalType": "uint256",
          "name": "id",
          "type": "uint256"
        }
      ],
      "name": "balanceOf",
      "outputs": [
        {
          "internalType": "uint256",
          "name": "",
          "type": "uint256"
        }
      ],
      "stateMutability": "view",
      "type": "function"
    },
    {
      "inputs": [
        {
          "internalType": "address",
          "name": "_address",
          "type": "address"
        }
      ],
      "name": "balanceOfAll",
      "outputs": [
        {
          "internalType": "uint256[][]",
          "name": "",
          "type": "uint256[][]"
        }
      ],
      "stateMutability": "view",
      "type": "function"
    },
    {
      "inputs": [
        {
          "internalType": "address[]",
          "name": "accounts",
          "type": "address[]"
        },
        {
          "internalType": "uint256[]",
          "name": "ids",
          "type": "uint256[]"
        }
      ],
      "name": "balanceOfBatch",
      "outputs": [
        {
          "internalType": "uint256[]",
          "name": "",
          "type": "uint256[]"
        }
      ],
      "stateMutability": "view",
      "type": "function"
    },
    {
      "inputs": [
        {
          "internalType": "address",
          "name": "_fromAddress",
          "type": "address"
        },
        {
          "internalType": "address[]",
          "name": "_toAddresses",
          "type": "address[]"
        },
        {
          "internalType": "uint256[]",
          "name": "_itemIds",
          "type": "uint256[]"
        },
        {
          "internalType": "uint256[]",
          "name": "_quantitiesPerAddress",
          "type": "uint256[]"
        }
      ],
      "name": "bulkSafeBatchTransferFrom",
      "outputs": [],
      "stateMutability": "nonpayable",
      "type": "function"
    },
    {
      "inputs": [
        {
          "internalType": "address",
          "name": "_fromAddress",
          "type": "address"
        },
        {
          "internalType": "uint256[]",
          "name": "_itemIds",
          "type": "uint256[]"
        },
        {
          "internalType": "uint256[]",
          "name": "_quantities",
          "type": "uint256[]"
        }
      ],
      "name": "burnBatchFromAddress",
      "outputs": [],
      "stateMutability": "nonpayable",
      "type": "function"
    },
    {
      "inputs": [
        {
          "internalType": "address",
          "name": "_fromAddress",
          "type": "address"
        },
        {
          "internalType": "uint256",
          "name": "_itemId",
          "type": "uint256"
        },
        {
          "internalType": "uint256",
          "name": "_quantity",
          "type": "uint256"
        }
      ],
      "name": "burnFromAddress",
      "outputs": [],
      "stateMutability": "nonpayable",
      "type": "function"
    },
    {
      "inputs": [
        {
          "internalType": "bytes32",
          "name": "role",
          "type": "bytes32"
        }
      ],
      "name": "getRoleAdmin",
      "outputs": [
        {
          "internalType": "bytes32",
          "name": "",
          "type": "bytes32"
        }
      ],
      "stateMutability": "view",
      "type": "function"
    },
    {
      "inputs": [
        {
          "internalType": "bytes32",
          "name": "role",
          "type": "bytes32"
        },
        {
          "internalType": "address",
          "name": "account",
          "type": "address"
        }
      ],
      "name": "grantRole",
      "outputs": [],
      "stateMutability": "nonpayable",
      "type": "function"
    },
    {
      "inputs": [
        {
          "internalType": "bytes32",
          "name": "role",
          "type": "bytes32"
        },
        {
          "internalType": "address",
          "name": "account",
          "type": "address"
        }
      ],
      "name": "hasRole",
      "outputs": [
        {
          "internalType": "bool",
          "name": "",
          "type": "bool"
        }
      ],
      "stateMutability": "view",
      "type": "function"
    },
    {
      "inputs": [
        {
          "internalType": "address",
          "name": "account",
          "type": "address"
        },
        {
          "internalType": "address",
          "name": "operator",
          "type": "address"
        }
      ],
      "name": "isApprovedForAll",
      "outputs": [
        {
          "internalType": "bool",
          "name": "",
          "type": "bool"
        }
      ],
      "stateMutability": "view",
      "type": "function"
    },
    {
      "inputs": [
        {
          "internalType": "uint256",
          "name": "_itemId",
          "type": "uint256"
        }
      ],
      "name": "isItemTransferrable",
      "outputs": [
        {
          "internalType": "bool",
          "name": "",
          "type": "bool"
        }
      ],
      "stateMutability": "view",
      "type": "function"
    },
    {
      "inputs": [
        {
          "internalType": "address",
          "name": "forwarder",
          "type": "address"
        }
      ],
      "name": "isTrustedForwarder",
      "outputs": [
        {
          "internalType": "bool",
          "name": "",
          "type": "bool"
        }
      ],
      "stateMutability": "view",
      "type": "function"
    },
    {
      "inputs": [],
      "name": "itemBaseURI",
      "outputs": [
        {
          "internalType": "string",
          "name": "",
          "type": "string"
        }
      ],
      "stateMutability": "view",
      "type": "function"
    },
    {
      "inputs": [
        {
          "internalType": "uint256",
          "name": "",
          "type": "uint256"
        }
      ],
      "name": "itemExists",
      "outputs": [
        {
          "internalType": "bool",
          "name": "",
          "type": "bool"
        }
      ],
      "stateMutability": "view",
      "type": "function"
    },
    {
      "inputs": [
        {
          "internalType": "uint256",
          "name": "",
          "type": "uint256"
        }
      ],
      "name": "itemIds",
      "outputs": [
        {
          "internalType": "uint256",
          "name": "",
          "type": "uint256"
        }
      ],
      "stateMutability": "view",
      "type": "function"
    },
    {
      "inputs": [
        {
          "internalType": "uint256",
          "name": "",
          "type": "uint256"
        }
      ],
      "name": "itemSupplies",
      "outputs": [
        {
          "internalType": "uint256",
          "name": "",
          "type": "uint256"
        }
      ],
      "stateMutability": "view",
      "type": "function"
    },
    {
      "inputs": [
        {
          "internalType": "uint256",
          "name": "",
          "type": "uint256"
        }
      ],
      "name": "itemTransferTimelocks",
      "outputs": [
        {
          "internalType": "uint256",
          "name": "",
          "type": "uint256"
        }
      ],
      "stateMutability": "view",
      "type": "function"
    },
    {
      "inputs": [
        {
          "internalType": "address",
          "name": "_toAddress",
          "type": "address"
        },
        {
          "internalType": "uint256[]",
          "name": "_itemIds",
          "type": "uint256[]"
        },
        {
          "internalType": "uint256[]",
          "name": "_quantities",
          "type": "uint256[]"
        }
      ],
      "name": "mintBatchToAddress",
      "outputs": [],
      "stateMutability": "nonpayable",
      "type": "function"
    },
    {
      "inputs": [
        {
          "internalType": "address",
          "name": "_toAddress",
          "type": "address"
        },
        {
          "internalType": "uint256",
          "name": "_itemId",
          "type": "uint256"
        },
        {
          "internalType": "uint256",
          "name": "_quantity",
          "type": "uint256"
        }
      ],
      "name": "mintToAddress",
      "outputs": [],
      "stateMutability": "nonpayable",
      "type": "function"
    },
    {
      "inputs": [
        {
          "internalType": "uint256",
          "name": "_itemIdsStartIndexInclusive",
          "type": "uint256"
        },
        {
          "internalType": "uint256",
          "name": "_limit",
          "type": "uint256"
        }
      ],
      "name": "paginateItemIds",
      "outputs": [
        {
          "internalType": "uint256[]",
          "name": "",
          "type": "uint256[]"
        }
      ],
      "stateMutability": "view",
      "type": "function"
    },
    {
      "inputs": [
        {
          "internalType": "uint256",
          "name": "_itemIdsStartIndexInclusive",
          "type": "uint256"
        },
        {
          "internalType": "uint256",
          "name": "_limit",
          "type": "uint256"
        }
      ],
      "name": "paginateItemSupplies",
      "outputs": [
        {
          "internalType": "uint256[][]",
          "name": "",
          "type": "uint256[][]"
        }
      ],
      "stateMutability": "view",
      "type": "function"
    },
    {
      "inputs": [
        {
          "internalType": "uint256",
          "name": "_itemIdsStartIndexInclusive",
          "type": "uint256"
        },
        {
          "internalType": "uint256",
          "name": "_limit",
          "type": "uint256"
        }
      ],
      "name": "paginateItemURIs",
      "outputs": [
        {
          "internalType": "string[]",
          "name": "",
          "type": "string[]"
        }
      ],
      "stateMutability": "view",
      "type": "function"
    },
    {
      "inputs": [
        {
          "internalType": "bytes32",
          "name": "role",
          "type": "bytes32"
        },
        {
          "internalType": "address",
          "name": "account",
          "type": "address"
        }
      ],
      "name": "renounceRole",
      "outputs": [],
      "stateMutability": "nonpayable",
      "type": "function"
    },
    {
      "inputs": [
        {
          "internalType": "bytes32",
          "name": "role",
          "type": "bytes32"
        },
        {
          "internalType": "address",
          "name": "account",
          "type": "address"
        }
      ],
      "name": "revokeRole",
      "outputs": [],
      "stateMutability": "nonpayable",
      "type": "function"
    },
    {
      "inputs": [
        {
          "internalType": "address",
          "name": "from",
          "type": "address"
        },
        {
          "internalType": "address",
          "name": "to",
          "type": "address"
        },
        {
          "internalType": "uint256[]",
          "name": "ids",
          "type": "uint256[]"
        },
        {
          "internalType": "uint256[]",
          "name": "amounts",
          "type": "uint256[]"
        },
        {
          "internalType": "bytes",
          "name": "data",
          "type": "bytes"
        }
      ],
      "name": "safeBatchTransferFrom",
      "outputs": [],
      "stateMutability": "nonpayable",
      "type": "function"
    },
    {
      "inputs": [
        {
          "internalType": "address",
          "name": "from",
          "type": "address"
        },
        {
          "internalType": "address",
          "name": "to",
          "type": "address"
        },
        {
          "internalType": "uint256",
          "name": "id",
          "type": "uint256"
        },
        {
          "internalType": "uint256",
          "name": "amount",
          "type": "uint256"
        },
        {
          "internalType": "bytes",
          "name": "data",
          "type": "bytes"
        }
      ],
      "name": "safeTransferFrom",
      "outputs": [],
      "stateMutability": "nonpayable",
      "type": "function"
    },
    {
      "inputs": [
        {
          "internalType": "address",
          "name": "operator",
          "type": "address"
        },
        {
          "internalType": "bool",
          "name": "approved",
          "type": "bool"
        }
      ],
      "name": "setApprovalForAll",
      "outputs": [],
      "stateMutability": "nonpayable",
      "type": "function"
    },
    {
      "inputs": [
        {
          "internalType": "string",
          "name": "_itemBaseURI",
          "type": "string"
        }
      ],
      "name": "setItemBaseURI",
      "outputs": [],
      "stateMutability": "nonpayable",
      "type": "function"
    },
    {
      "inputs": [
        {
          "internalType": "uint256",
          "name": "_itemId",
          "type": "uint256"
        },
        {
          "internalType": "uint256",
          "name": "_unlockTimestamp",
          "type": "uint256"
        }
      ],
      "name": "setItemTransferTimelock",
      "outputs": [],
      "stateMutability": "nonpayable",
      "type": "function"
    },
    {
      "inputs": [
        {
          "internalType": "uint256",
          "name": "_itemId",
          "type": "uint256"
        },
        {
          "internalType": "string",
          "name": "_uri",
          "type": "string"
        }
      ],
      "name": "setItemURI",
      "outputs": [],
      "stateMutability": "nonpayable",
      "type": "function"
    },
    {
      "inputs": [
        {
          "internalType": "bytes4",
          "name": "interfaceId",
          "type": "bytes4"
        }
      ],
      "name": "supportsInterface",
      "outputs": [
        {
          "internalType": "bool",
          "name": "",
          "type": "bool"
        }
      ],
      "stateMutability": "view",
      "type": "function"
    },
    {
      "inputs": [],
      "name": "totalItemIds",
      "outputs": [
        {
          "internalType": "uint256",
          "name": "",
          "type": "uint256"
        }
      ],
      "stateMutability": "view",
      "type": "function"
    },
    {
      "inputs": [
        {
          "internalType": "address",
          "name": "_newTrustedForwarder",
          "type": "address"
        }
      ],
      "name": "upgradeTrustedForwarder",
      "outputs": [],
      "stateMutability": "nonpayable",
      "type": "function"
    },
    {
      "inputs": [
        {
          "internalType": "uint256",
          "name": "_itemId",
          "type": "uint256"
        }
      ],
      "name": "uri",
      "outputs": [
        {
          "internalType": "string",
          "name": "",
          "type": "string"
        }
      ],
      "stateMutability": "view",
      "type": "function"
    }
  ],
  "bytecode": "0x60806040523480156200001157600080fd5b5060405162004f6638038062004f668339810160408190526200003491620001d9565b60408051602081019091526000815281906200005081620000bd565b50600380546001600160a01b0319166001600160a01b039290921691909117905562000087600062000081620000cf565b620000eb565b620000b67fc9fc9949603a50f5cc3a96f774f1d68287789a241d2082dc81d0fb19a53bcf2b62000081620000cf565b506200037c565b6002620000cb8282620002b0565b5050565b6000620000e6620000f760201b62001bc61760201c565b905090565b620000cb82826200012f565b6003546000906001600160a01b031633036200011a575060131936013560601c90565b620000e6620001d560201b62001c201760201c565b60008281526004602090815260408083206001600160a01b038516845290915290205460ff16620000cb5760008281526004602090815260408083206001600160a01b03851684529091529020805460ff1916600117905562000191620000cf565b6001600160a01b0316816001600160a01b0316837f2f8788117e7eff1d82e926ec794901d17c78024a50270940304540a733656f0d60405160405180910390a45050565b3390565b600060208284031215620001ec57600080fd5b81516001600160a01b03811681146200020457600080fd5b9392505050565b634e487b7160e01b600052604160045260246000fd5b600181811c908216806200023657607f821691505b6020821081036200025757634e487b7160e01b600052602260045260246000fd5b50919050565b601f821115620002ab57600081815260208120601f850160051c81016020861015620002865750805b601f850160051c820191505b81811015620002a75782815560010162000292565b5050505b505050565b81516001600160401b03811115620002cc57620002cc6200020b565b620002e481620002dd845462000221565b846200025d565b602080601f8311600181146200031c5760008415620003035750858301515b600019600386901b1c1916600185901b178555620002a7565b600085815260208120601f198616915b828110156200034d578886015182559484019460019091019084016200032c565b50858210156200036c5787850151600019600388901b60f8161c191681555b5050505050600190811b01905550565b614bda806200038c6000396000f3fe608060405234801561001057600080fd5b50600436106102915760003560e01c80638c892cfd11610160578063b3dc00fe116100d8578063dc7aa9ef1161008c578063efa52e9011610071578063efa52e901461061f578063f242432a14610627578063fe992c981461063a57600080fd5b8063dc7aa9ef146105c3578063e985e9c5146105d657600080fd5b8063bbdc8276116100bd578063bbdc827614610588578063d547741f14610590578063d8e14175146105a357600080fd5b8063b3dc00fe14610562578063b9babeba1461057557600080fd5b8063a22cb4651161012f578063aa2a7eea11610114578063aa2a7eea1461051a578063ae06363f1461052d578063b1da7a551461054f57600080fd5b8063a22cb465146104f4578063a9c47d121461050757600080fd5b80638c892cfd1461048b57806391d1485414610493578063951549b9146104d9578063a217fddf146104ec57600080fd5b80632eb2c2d61161020e5780634e1273f4116101c257806358ec07c7116101a757806358ec07c7146104355780637bc6cb7414610455578063843bd6411461046857600080fd5b80634e1273f4146103e6578063572b6c051461040657600080fd5b806336568abe116101f357806336568abe146103b857806348e1219a146103cb5780634b7c78dc146103d357600080fd5b80632eb2c2d6146103925780632f2ff15d146103a557600080fd5b806308f427c71161026557806313f2f6bd1161024a57806313f2f6bd1461033c5780632257eb7e1461034f578063248a9ca31461036f57600080fd5b806308f427c7146103095780630e89341c1461031c57600080fd5b8062fdd58e1461029657806301ffc9a7146102bc57806303cb92fc146102df5780630515cf8d146102f4575b600080fd5b6102a96102a4366004613c97565b61064d565b6040519081526020015b60405180910390f35b6102cf6102ca366004613cef565b61072d565b60405190151581526020016102b3565b6102f26102ed366004613e18565b610783565b005b6102fc6107cb565b6040516102b39190613e5f565b6102f2610317366004613f53565b610912565b61032f61032a366004613fd4565b610a59565b6040516102b3919061405b565b6102fc61034a36600461406e565b610bb7565b6102a961035d366004613fd4565b60086020526000908152604090205481565b6102a961037d366004613fd4565b60009081526004602052604090206001015490565b6102f26103a0366004614125565b610d3d565b6102f26103b33660046141cf565b610e1e565b6102f26103c63660046141cf565b610e48565b6005546102a9565b6102f26103e1366004613f53565b610f18565b6103f96103f43660046141fb565b61103d565b6040516102b391906142f7565b6102cf61041436600461430a565b60035473ffffffffffffffffffffffffffffffffffffffff91821691161490565b6102a9610443366004613fd4565b60096020526000908152604090205481565b6102f261046336600461406e565b611195565b6102cf610476366004613fd4565b60076020526000908152604090205460ff1681565b6103f96111d2565b6102cf6104a13660046141cf565b600091825260046020908152604080842073ffffffffffffffffffffffffffffffffffffffff93909316845291905290205460ff1690565b6103f96104e736600461406e565b61122a565b6102a9600081565b6102f2610502366004614325565b61130c565b6102f2610515366004614361565b61131e565b6102f261052836600461430a565b61132a565b6102cf61053b366004613fd4565b600090815260096020526040902054421190565b6102f261055d366004614396565b611398565b6102a9610570366004613fd4565b611462565b6102f2610583366004614441565b611483565b61032f61153d565b6102f261059e3660046141cf565b6115cb565b6105b66105b136600461406e565b6115f0565b6040516102b39190614474565b6102f26105d1366004614441565b611778565b6102cf6105e43660046144f4565b73ffffffffffffffffffffffffffffffffffffffff918216600090815260016020908152604080832093909416825291909152205460ff1690565b6105b6611857565b6102f261063536600461451e565b6119a4565b6102fc61064836600461430a565b611a85565b600073ffffffffffffffffffffffffffffffffffffffff83166106f7576040517f08c379a000000000000000000000000000000000000000000000000000000000815260206004820152602a60248201527f455243313135353a2061646472657373207a65726f206973206e6f742061207660448201527f616c6964206f776e65720000000000000000000000000000000000000000000060648201526084015b60405180910390fd5b5060008181526020818152604080832073ffffffffffffffffffffffffffffffffffffffff861684529091529020545b92915050565b60007fffffffff0000000000000000000000000000000000000000000000000000000082167f909aa65d000000000000000000000000000000000000000000000000000000001480610727575061072782611c24565b7fc9fc9949603a50f5cc3a96f774f1d68287789a241d2082dc81d0fb19a53bcf2b6107ad81611c7a565b6000838152600a602052604090206107c58382614616565b50505050565b60055460609060009067ffffffffffffffff8111156107ec576107ec613d0c565b60405190808252806020026020018201604052801561081f57816020015b606081526020019060019003908161080a5790505b50905060005b60055481101561090c576040805160028082526060820183526000926020830190803683370190505090506005828154811061086357610863614730565b90600052602060002001548160008151811061088157610881614730565b60200260200101818152505060086000826000815181106108a4576108a4614730565b6020026020010151815260200190815260200160002054816001815181106108ce576108ce614730565b602002602001018181525050808383815181106108ed576108ed614730565b60200260200101819052505080806109049061478e565b915050610825565b50919050565b61093e7fc9fc9949603a50f5cc3a96f774f1d68287789a241d2082dc81d0fb19a53bcf2b6104a1611c8e565b8061097057506109707fc9eb32e43bf5ecbceacf00b32281dfc5d6d700a0db676ea26ccf938a385ac3f76104a1611c8e565b6109d6576040517f08c379a000000000000000000000000000000000000000000000000000000000815260206004820152601760248201527f4e6f7420617574686f72697a656420746f206d696e742e00000000000000000060448201526064016106ee565b610a528585858080602002602001604051908101604052809392919081815260200183836020028082843760009201919091525050604080516020808902828101820190935288825290935088925087918291850190849080828437600092018290525060408051602081019091529081529250611c98915050565b5050505050565b60008181526007602052604090205460609060ff16610ad4576040517f08c379a000000000000000000000000000000000000000000000000000000000815260206004820152601e60248201527f555249207265717565737420666f7220696e76616c6964206974656d4964000060448201526064016106ee565b600060068054610ae390614583565b905011610b86576000828152600a602052604090208054610b0390614583565b80601f0160208091040260200160405190810160405280929190818152602001828054610b2f90614583565b8015610b7c5780601f10610b5157610100808354040283529160200191610b7c565b820191906000526020600020905b815481529060010190602001808311610b5f57829003601f168201915b5050505050610727565b6006610b9183611f2b565b604051602001610ba29291906147c6565b60405160208183030381529060405292915050565b6005546060906000908410610bcd576000610bdb565b600554610bdb90859061486b565b9050600083821115610bed5783610bef565b815b905060008167ffffffffffffffff811115610c0c57610c0c613d0c565b604051908082528060200260200182016040528015610c3f57816020015b6060815260200190600190039081610c2a5790505b50905060005b82811015610d33576040805160028082526060820183526000926020830190803683370190505090506005610c7a838a61487e565b81548110610c8a57610c8a614730565b906000526020600020015481600081518110610ca857610ca8614730565b6020026020010181815250506008600082600081518110610ccb57610ccb614730565b602002602001015181526020019081526020016000205481600181518110610cf557610cf5614730565b60200260200101818152505080838381518110610d1457610d14614730565b6020026020010181905250508080610d2b9061478e565b915050610c45565b5095945050505050565b610d45611c8e565b73ffffffffffffffffffffffffffffffffffffffff168573ffffffffffffffffffffffffffffffffffffffff161480610d855750610d85856105e4611c8e565b610e11576040517f08c379a000000000000000000000000000000000000000000000000000000000815260206004820152602f60248201527f455243313135353a2063616c6c6572206973206e6f7420746f6b656e206f776e60448201527f6572206e6f7220617070726f766564000000000000000000000000000000000060648201526084016106ee565b610a528585858585612068565b600082815260046020526040902060010154610e3981611c7a565b610e4383836123b3565b505050565b610e50611c8e565b73ffffffffffffffffffffffffffffffffffffffff168173ffffffffffffffffffffffffffffffffffffffff1614610f0a576040517f08c379a000000000000000000000000000000000000000000000000000000000815260206004820152602f60248201527f416363657373436f6e74726f6c3a2063616e206f6e6c792072656e6f756e636560448201527f20726f6c657320666f722073656c66000000000000000000000000000000000060648201526084016106ee565b610f1482826124a8565b5050565b84610f21611c8e565b73ffffffffffffffffffffffffffffffffffffffff168173ffffffffffffffffffffffffffffffffffffffff161480610f615750610f61816105e4611c8e565b610fc7576040517f08c379a000000000000000000000000000000000000000000000000000000000815260206004820152601560248201527f4e6f7420617070726f76656420746f206275726e2e000000000000000000000060448201526064016106ee565b6110358686868080602002602001604051908101604052809392919081815260200183836020028082843760009201919091525050604080516020808a0282810182019093528982529093508992508891829185019084908082843760009201919091525061259b92505050565b505050505050565b606081518351146110d0576040517f08c379a000000000000000000000000000000000000000000000000000000000815260206004820152602960248201527f455243313135353a206163636f756e747320616e6420696473206c656e67746860448201527f206d69736d61746368000000000000000000000000000000000000000000000060648201526084016106ee565b6000835167ffffffffffffffff8111156110ec576110ec613d0c565b604051908082528060200260200182016040528015611115578160200160208202803683370190505b50905060005b845181101561118d5761116085828151811061113957611139614730565b602002602001015185838151811061115357611153614730565b602002602001015161064d565b82828151811061117257611172614730565b60209081029190910101526111868161478e565b905061111b565b509392505050565b7fc9fc9949603a50f5cc3a96f774f1d68287789a241d2082dc81d0fb19a53bcf2b6111bf81611c7a565b5060009182526009602052604090912055565b6060600580548060200260200160405190810160405280929190818152602001828054801561122057602002820191906000526020600020905b81548152602001906001019080831161120c575b5050505050905090565b600554606090600090841061124057600061124e565b60055461124e90859061486b565b90506000838211156112605783611262565b815b905060008167ffffffffffffffff81111561127f5761127f613d0c565b6040519080825280602002602001820160405280156112a8578160200160208202803683370190505b50905060005b82811015610d335760056112c2828961487e565b815481106112d2576112d2614730565b90600052602060002001548282815181106112ef576112ef614730565b6020908102919091010152806113048161478e565b9150506112ae565b610f14611317611c8e565b83836128db565b6006610f148282614616565b7fc9fc9949603a50f5cc3a96f774f1d68287789a241d2082dc81d0fb19a53bcf2b61135481611c7a565b600380547fffffffffffffffffffffffff00000000000000000000000000000000000000001673ffffffffffffffffffffffffffffffffffffffff84161790555050565b60005b8581101561145857611446888888848181106113b9576113b9614730565b90506020020160208101906113ce919061430a565b87878080602002602001604051908101604052809392919081815260200183836020028082843760009201919091525050604080516020808b0282810182019093528a82529093508a925089918291850190849080828437600092018290525060408051602081019091529081529250610d3d915050565b806114508161478e565b91505061139b565b5050505050505050565b6005818154811061147257600080fd5b600091825260209091200154905081565b8261148c611c8e565b73ffffffffffffffffffffffffffffffffffffffff168173ffffffffffffffffffffffffffffffffffffffff1614806114cc57506114cc816105e4611c8e565b611532576040517f08c379a000000000000000000000000000000000000000000000000000000000815260206004820152601560248201527f4e6f7420617070726f76656420746f206275726e2e000000000000000000000060448201526064016106ee565b6107c5848484612a2e565b6006805461154a90614583565b80601f016020809104026020016040519081016040528092919081815260200182805461157690614583565b80156115c35780601f10611598576101008083540402835291602001916115c3565b820191906000526020600020905b8154815290600101906020018083116115a657829003601f168201915b505050505081565b6000828152600460205260409020600101546115e681611c7a565b610e4383836124a8565b6005546060906000908410611606576000611614565b60055461161490859061486b565b90506000838211156116265783611628565b815b905060008167ffffffffffffffff81111561164557611645613d0c565b60405190808252806020026020018201604052801561167857816020015b60608152602001906001900390816116635790505b50905060005b82811015610d3357600a60006005611696848b61487e565b815481106116a6576116a6614730565b9060005260206000200154815260200190815260200160002080546116ca90614583565b80601f01602080910402602001604051908101604052809291908181526020018280546116f690614583565b80156117435780601f1061171857610100808354040283529160200191611743565b820191906000526020600020905b81548152906001019060200180831161172657829003601f168201915b505050505082828151811061175a5761175a614730565b602002602001018190525080806117709061478e565b91505061167e565b6117a47fc9fc9949603a50f5cc3a96f774f1d68287789a241d2082dc81d0fb19a53bcf2b6104a1611c8e565b806117d657506117d67fc9eb32e43bf5ecbceacf00b32281dfc5d6d700a0db676ea26ccf938a385ac3f76104a1611c8e565b61183c576040517f08c379a000000000000000000000000000000000000000000000000000000000815260206004820152601760248201527f4e6f7420617574686f72697a656420746f206d696e742e00000000000000000060448201526064016106ee565b610e4383838360405180602001604052806000815250612c5c565b60055460609060009067ffffffffffffffff81111561187857611878613d0c565b6040519080825280602002602001820160405280156118ab57816020015b60608152602001906001900390816118965790505b50905060005b60055481101561090c57600a6000600583815481106118d2576118d2614730565b9060005260206000200154815260200190815260200160002080546118f690614583565b80601f016020809104026020016040519081016040528092919081815260200182805461192290614583565b801561196f5780601f106119445761010080835404028352916020019161196f565b820191906000526020600020905b81548152906001019060200180831161195257829003601f168201915b505050505082828151811061198657611986614730565b6020026020010181905250808061199c9061478e565b9150506118b1565b6119ac611c8e565b73ffffffffffffffffffffffffffffffffffffffff168573ffffffffffffffffffffffffffffffffffffffff1614806119ec57506119ec856105e4611c8e565b611a78576040517f08c379a000000000000000000000000000000000000000000000000000000000815260206004820152602f60248201527f455243313135353a2063616c6c6572206973206e6f7420746f6b656e206f776e60448201527f6572206e6f7220617070726f766564000000000000000000000000000000000060648201526084016106ee565b610a528585858585612dde565b60055460609060009067ffffffffffffffff811115611aa657611aa6613d0c565b604051908082528060200260200182016040528015611ad957816020015b6060815260200190600190039081611ac45790505b50905060005b600554811015611bbf5760408051600280825260608201835260009260208301908036833701905050905060058281548110611b1d57611b1d614730565b906000526020600020015481600081518110611b3b57611b3b614730565b602002602001018181525050611b6e8560058481548110611b5e57611b5e614730565b906000526020600020015461064d565b81600181518110611b8157611b81614730565b60200260200101818152505080838381518110611ba057611ba0614730565b6020026020010181905250508080611bb79061478e565b915050611adf565b5092915050565b60035460009073ffffffffffffffffffffffffffffffffffffffff163303611c1357507fffffffffffffffffffffffffffffffffffffffffffffffffffffffffffffffec36013560601c90565b503390565b905090565b90565b3390565b60007fffffffff0000000000000000000000000000000000000000000000000000000082167f7965db0b000000000000000000000000000000000000000000000000000000001480610727575061072782613035565b611c8b81611c86611c8e565b613118565b50565b6000611c18611bc6565b73ffffffffffffffffffffffffffffffffffffffff8416611d3b576040517f08c379a000000000000000000000000000000000000000000000000000000000815260206004820152602160248201527f455243313135353a206d696e7420746f20746865207a65726f2061646472657360448201527f730000000000000000000000000000000000000000000000000000000000000060648201526084016106ee565b8151835114611dcc576040517f08c379a000000000000000000000000000000000000000000000000000000000815260206004820152602860248201527f455243313135353a2069647320616e6420616d6f756e7473206c656e6774682060448201527f6d69736d6174636800000000000000000000000000000000000000000000000060648201526084016106ee565b6000611dd6611c8e565b9050611de7816000878787876131ea565b60005b8451811015611e9c57838181518110611e0557611e05614730565b6020026020010151600080878481518110611e2257611e22614730565b6020026020010151815260200190815260200160002060008873ffffffffffffffffffffffffffffffffffffffff1673ffffffffffffffffffffffffffffffffffffffff1681526020019081526020016000206000828254611e84919061487e565b90915550819050611e948161478e565b915050611dea565b508473ffffffffffffffffffffffffffffffffffffffff16600073ffffffffffffffffffffffffffffffffffffffff168273ffffffffffffffffffffffffffffffffffffffff167f4a39dc06d4c0dbc64b70af90fd698a233a518aa5d07e595d983b8c0526c8f7fb8787604051611f14929190614891565b60405180910390a4610a52816000878787876135a2565b606081600003611f6e57505060408051808201909152600181527f3000000000000000000000000000000000000000000000000000000000000000602082015290565b8160005b8115611f985780611f828161478e565b9150611f919050600a836148ee565b9150611f72565b60008167ffffffffffffffff811115611fb357611fb3613d0c565b6040519080825280601f01601f191660200182016040528015611fdd576020820181803683370190505b5090505b841561206057611ff260018361486b565b9150611fff600a86614902565b61200a90603061487e565b60f81b81838151811061201f5761201f614730565b60200101907effffffffffffffffffffffffffffffffffffffffffffffffffffffffffffff1916908160001a905350612059600a866148ee565b9450611fe1565b949350505050565b81518351146120f9576040517f08c379a000000000000000000000000000000000000000000000000000000000815260206004820152602860248201527f455243313135353a2069647320616e6420616d6f756e7473206c656e6774682060448201527f6d69736d6174636800000000000000000000000000000000000000000000000060648201526084016106ee565b73ffffffffffffffffffffffffffffffffffffffff841661219c576040517f08c379a000000000000000000000000000000000000000000000000000000000815260206004820152602560248201527f455243313135353a207472616e7366657220746f20746865207a65726f20616460448201527f647265737300000000000000000000000000000000000000000000000000000060648201526084016106ee565b60006121a6611c8e565b90506121b68187878787876131ea565b60005b84518110156123265760008582815181106121d6576121d6614730565b6020026020010151905060008583815181106121f4576121f4614730565b6020908102919091018101516000848152808352604080822073ffffffffffffffffffffffffffffffffffffffff8e1683529093529190912054909150818110156122c1576040517f08c379a000000000000000000000000000000000000000000000000000000000815260206004820152602a60248201527f455243313135353a20696e73756666696369656e742062616c616e636520666f60448201527f72207472616e736665720000000000000000000000000000000000000000000060648201526084016106ee565b60008381526020818152604080832073ffffffffffffffffffffffffffffffffffffffff8e8116855292528083208585039055908b1682528120805484929061230b90849061487e565b925050819055505050508061231f9061478e565b90506121b9565b508473ffffffffffffffffffffffffffffffffffffffff168673ffffffffffffffffffffffffffffffffffffffff168273ffffffffffffffffffffffffffffffffffffffff167f4a39dc06d4c0dbc64b70af90fd698a233a518aa5d07e595d983b8c0526c8f7fb878760405161239d929190614891565b60405180910390a46110358187878787876135a2565b600082815260046020908152604080832073ffffffffffffffffffffffffffffffffffffffff8516845290915290205460ff16610f1457600082815260046020908152604080832073ffffffffffffffffffffffffffffffffffffffff85168452909152902080547fffffffffffffffffffffffffffffffffffffffffffffffffffffffffffffff0016600117905561244a611c8e565b73ffffffffffffffffffffffffffffffffffffffff168173ffffffffffffffffffffffffffffffffffffffff16837f2f8788117e7eff1d82e926ec794901d17c78024a50270940304540a733656f0d60405160405180910390a45050565b600082815260046020908152604080832073ffffffffffffffffffffffffffffffffffffffff8516845290915290205460ff1615610f1457600082815260046020908152604080832073ffffffffffffffffffffffffffffffffffffffff85168452909152902080547fffffffffffffffffffffffffffffffffffffffffffffffffffffffffffffff0016905561253d611c8e565b73ffffffffffffffffffffffffffffffffffffffff168173ffffffffffffffffffffffffffffffffffffffff16837ff6391f5c32d9c69d2a47ea670b442974b53935d1edc7fd64eb21e047a839171b60405160405180910390a45050565b73ffffffffffffffffffffffffffffffffffffffff831661263e576040517f08c379a000000000000000000000000000000000000000000000000000000000815260206004820152602360248201527f455243313135353a206275726e2066726f6d20746865207a65726f206164647260448201527f657373000000000000000000000000000000000000000000000000000000000060648201526084016106ee565b80518251146126cf576040517f08c379a000000000000000000000000000000000000000000000000000000000815260206004820152602860248201527f455243313135353a2069647320616e6420616d6f756e7473206c656e6774682060448201527f6d69736d6174636800000000000000000000000000000000000000000000000060648201526084016106ee565b60006126d9611c8e565b90506126f9818560008686604051806020016040528060008152506131ea565b60005b835181101561284757600084828151811061271957612719614730565b60200260200101519050600084838151811061273757612737614730565b6020908102919091018101516000848152808352604080822073ffffffffffffffffffffffffffffffffffffffff8c168352909352919091205490915081811015612803576040517f08c379a0000000000000000000000000000000000000000000000000000000008152602060048201526024808201527f455243313135353a206275726e20616d6f756e7420657863656564732062616c60448201527f616e63650000000000000000000000000000000000000000000000000000000060648201526084016106ee565b60009283526020838152604080852073ffffffffffffffffffffffffffffffffffffffff8b168652909152909220910390558061283f8161478e565b9150506126fc565b50600073ffffffffffffffffffffffffffffffffffffffff168473ffffffffffffffffffffffffffffffffffffffff168273ffffffffffffffffffffffffffffffffffffffff167f4a39dc06d4c0dbc64b70af90fd698a233a518aa5d07e595d983b8c0526c8f7fb86866040516128bf929190614891565b60405180910390a46040805160208101909152600090526107c5565b8173ffffffffffffffffffffffffffffffffffffffff168373ffffffffffffffffffffffffffffffffffffffff1603612996576040517f08c379a000000000000000000000000000000000000000000000000000000000815260206004820152602960248201527f455243313135353a2073657474696e6720617070726f76616c2073746174757360448201527f20666f722073656c66000000000000000000000000000000000000000000000060648201526084016106ee565b73ffffffffffffffffffffffffffffffffffffffff83811660008181526001602090815260408083209487168084529482529182902080547fffffffffffffffffffffffffffffffffffffffffffffffffffffffffffffff001686151590811790915591519182527f17307eab39ab6107e8899845ad3d59bd9653f200f220920489ca2b5937696c31910160405180910390a3505050565b73ffffffffffffffffffffffffffffffffffffffff8316612ad1576040517f08c379a000000000000000000000000000000000000000000000000000000000815260206004820152602360248201527f455243313135353a206275726e2066726f6d20746865207a65726f206164647260448201527f657373000000000000000000000000000000000000000000000000000000000060648201526084016106ee565b6000612adb611c8e565b90506000612ae88461382c565b90506000612af58461382c565b9050612b15838760008585604051806020016040528060008152506131ea565b60008581526020818152604080832073ffffffffffffffffffffffffffffffffffffffff8a16845290915290205484811015612bd2576040517f08c379a0000000000000000000000000000000000000000000000000000000008152602060048201526024808201527f455243313135353a206275726e20616d6f756e7420657863656564732062616c60448201527f616e63650000000000000000000000000000000000000000000000000000000060648201526084016106ee565b60008681526020818152604080832073ffffffffffffffffffffffffffffffffffffffff8b81168086529184528285208a8703905582518b81529384018a90529092908816917fc3d58168c5ae7397731d063d5bbf3d657854427343f4c083240f7aacaa2d0f62910160405180910390a46040805160208101909152600090525b50505050505050565b73ffffffffffffffffffffffffffffffffffffffff8416612cff576040517f08c379a000000000000000000000000000000000000000000000000000000000815260206004820152602160248201527f455243313135353a206d696e7420746f20746865207a65726f2061646472657360448201527f730000000000000000000000000000000000000000000000000000000000000060648201526084016106ee565b6000612d09611c8e565b90506000612d168561382c565b90506000612d238561382c565b9050612d34836000898585896131ea565b60008681526020818152604080832073ffffffffffffffffffffffffffffffffffffffff8b16845290915281208054879290612d7190849061487e565b9091555050604080518781526020810187905273ffffffffffffffffffffffffffffffffffffffff808a1692600092918716917fc3d58168c5ae7397731d063d5bbf3d657854427343f4c083240f7aacaa2d0f62910160405180910390a4612c5383600089898989613877565b73ffffffffffffffffffffffffffffffffffffffff8416612e81576040517f08c379a000000000000000000000000000000000000000000000000000000000815260206004820152602560248201527f455243313135353a207472616e7366657220746f20746865207a65726f20616460448201527f647265737300000000000000000000000000000000000000000000000000000060648201526084016106ee565b6000612e8b611c8e565b90506000612e988561382c565b90506000612ea58561382c565b9050612eb58389898585896131ea565b60008681526020818152604080832073ffffffffffffffffffffffffffffffffffffffff8c16845290915290205485811015612f73576040517f08c379a000000000000000000000000000000000000000000000000000000000815260206004820152602a60248201527f455243313135353a20696e73756666696369656e742062616c616e636520666f60448201527f72207472616e736665720000000000000000000000000000000000000000000060648201526084016106ee565b60008781526020818152604080832073ffffffffffffffffffffffffffffffffffffffff8d8116855292528083208985039055908a16825281208054889290612fbd90849061487e565b9091555050604080518881526020810188905273ffffffffffffffffffffffffffffffffffffffff808b16928c821692918816917fc3d58168c5ae7397731d063d5bbf3d657854427343f4c083240f7aacaa2d0f62910160405180910390a461302a848a8a8a8a8a613877565b505050505050505050565b60007fffffffff0000000000000000000000000000000000000000000000000000000082167fd9b67a260000000000000000000000000000000000000000000000000000000014806130c857507fffffffff0000000000000000000000000000000000000000000000000000000082167f0e89341c00000000000000000000000000000000000000000000000000000000145b8061072757507f01ffc9a7000000000000000000000000000000000000000000000000000000007fffffffff00000000000000000000000000000000000000000000000000000000831614610727565b600082815260046020908152604080832073ffffffffffffffffffffffffffffffffffffffff8516845290915290205460ff16610f14576131708173ffffffffffffffffffffffffffffffffffffffff166014613a24565b61317b836020613a24565b60405160200161318c929190614916565b604080517fffffffffffffffffffffffffffffffffffffffffffffffffffffffffffffffe0818403018152908290527f08c379a00000000000000000000000000000000000000000000000000000000082526106ee9160040161405b565b60005b8351811015612c5357600084828151811061320a5761320a614730565b6020026020010151905061322c81600090815260096020526040902054421190565b8061324b575073ffffffffffffffffffffffffffffffffffffffff8716155b8061329a575073ffffffffffffffffffffffffffffffffffffffff871660009081527f0bd32db21b4e7a5c682cc92107b99c9dbb2d6d64a346752e11eb45bfb97567f5602052604090205460ff165b806132e9575073ffffffffffffffffffffffffffffffffffffffff871660009081527ff9fd1248c586affabc10fb0262dbbca2f7cedc4a81d738b33283f93d7668f836602052604090205460ff165b80613308575073ffffffffffffffffffffffffffffffffffffffff8616155b613394576040517f08c379a000000000000000000000000000000000000000000000000000000000815260206004820152602360248201527f4974656d206973206e6f742063757272656e746c79207472616e73666572616260448201527f6c652e000000000000000000000000000000000000000000000000000000000060648201526084016106ee565b73ffffffffffffffffffffffffffffffffffffffff87166134705760008181526007602052604090205460ff1661342e576005805460018181019092557f036b6384b5eca791c62761152d0c79bb0604c104a5fb6f4eb0703f3154bb3db001829055600082815260076020526040902080547fffffffffffffffffffffffffffffffffffffffffffffffffffffffffffffff001690911790555b83828151811061344057613440614730565b602002602001015160086000838152602001908152602001600020600082825461346a919061487e565b90915550505b73ffffffffffffffffffffffffffffffffffffffff861661358f5783828151811061349d5761349d614730565b602002602001015160086000838152602001908152602001600020541015613547576040517f08c379a000000000000000000000000000000000000000000000000000000000815260206004820152602760248201527f455243313135353a206275726e20616d6f756e7420657863656564732069746560448201527f6d537570706c790000000000000000000000000000000000000000000000000060648201526084016106ee565b83828151811061355957613559614730565b6020026020010151600860008381526020019081526020016000205461357f919061486b565b6000828152600860205260409020555b508061359a8161478e565b9150506131ed565b73ffffffffffffffffffffffffffffffffffffffff84163b15611035576040517fbc197c8100000000000000000000000000000000000000000000000000000000815273ffffffffffffffffffffffffffffffffffffffff85169063bc197c81906136199089908990889088908890600401614997565b6020604051808303816000875af1925050508015613672575060408051601f3d9081017fffffffffffffffffffffffffffffffffffffffffffffffffffffffffffffffe016820190925261366f91810190614a02565b60015b61375b5761367e614a1f565b806308c379a0036136d15750613692614a3a565b8061369d57506136d3565b806040517f08c379a00000000000000000000000000000000000000000000000000000000081526004016106ee919061405b565b505b6040517f08c379a000000000000000000000000000000000000000000000000000000000815260206004820152603460248201527f455243313135353a207472616e7366657220746f206e6f6e204552433131353560448201527f526563656976657220696d706c656d656e74657200000000000000000000000060648201526084016106ee565b7fffffffff0000000000000000000000000000000000000000000000000000000081167fbc197c810000000000000000000000000000000000000000000000000000000014612c53576040517f08c379a000000000000000000000000000000000000000000000000000000000815260206004820152602860248201527f455243313135353a204552433131353552656365697665722072656a6563746560448201527f6420746f6b656e7300000000000000000000000000000000000000000000000060648201526084016106ee565b6040805160018082528183019092526060916000919060208083019080368337019050509050828160008151811061386657613866614730565b602090810291909101015292915050565b73ffffffffffffffffffffffffffffffffffffffff84163b15611035576040517ff23a6e6100000000000000000000000000000000000000000000000000000000815273ffffffffffffffffffffffffffffffffffffffff85169063f23a6e61906138ee9089908990889088908890600401614ae2565b6020604051808303816000875af1925050508015613947575060408051601f3d9081017fffffffffffffffffffffffffffffffffffffffffffffffffffffffffffffffe016820190925261394491810190614a02565b60015b6139535761367e614a1f565b7fffffffff0000000000000000000000000000000000000000000000000000000081167ff23a6e610000000000000000000000000000000000000000000000000000000014612c53576040517f08c379a000000000000000000000000000000000000000000000000000000000815260206004820152602860248201527f455243313135353a204552433131353552656365697665722072656a6563746560448201527f6420746f6b656e7300000000000000000000000000000000000000000000000060648201526084016106ee565b60606000613a33836002614b32565b613a3e90600261487e565b67ffffffffffffffff811115613a5657613a56613d0c565b6040519080825280601f01601f191660200182016040528015613a80576020820181803683370190505b5090507f300000000000000000000000000000000000000000000000000000000000000081600081518110613ab757613ab7614730565b60200101907effffffffffffffffffffffffffffffffffffffffffffffffffffffffffffff1916908160001a9053507f780000000000000000000000000000000000000000000000000000000000000081600181518110613b1a57613b1a614730565b60200101907effffffffffffffffffffffffffffffffffffffffffffffffffffffffffffff1916908160001a9053506000613b56846002614b32565b613b6190600161487e565b90505b6001811115613bfe577f303132333435363738396162636465660000000000000000000000000000000085600f1660108110613ba257613ba2614730565b1a60f81b828281518110613bb857613bb8614730565b60200101907effffffffffffffffffffffffffffffffffffffffffffffffffffffffffffff1916908160001a90535060049490941c93613bf781614b6f565b9050613b64565b508315613c67576040517f08c379a000000000000000000000000000000000000000000000000000000000815260206004820181905260248201527f537472696e67733a20686578206c656e67746820696e73756666696369656e7460448201526064016106ee565b9392505050565b803573ffffffffffffffffffffffffffffffffffffffff81168114613c9257600080fd5b919050565b60008060408385031215613caa57600080fd5b613cb383613c6e565b946020939093013593505050565b7fffffffff0000000000000000000000000000000000000000000000000000000081168114611c8b57600080fd5b600060208284031215613d0157600080fd5b8135613c6781613cc1565b7f4e487b7100000000000000000000000000000000000000000000000000000000600052604160045260246000fd5b7fffffffffffffffffffffffffffffffffffffffffffffffffffffffffffffffe0601f830116810181811067ffffffffffffffff82111715613d7f57613d7f613d0c565b6040525050565b600082601f830112613d9757600080fd5b813567ffffffffffffffff811115613db157613db1613d0c565b604051613de660207fffffffffffffffffffffffffffffffffffffffffffffffffffffffffffffffe0601f8501160182613d3b565b818152846020838601011115613dfb57600080fd5b816020850160208301376000918101602001919091529392505050565b60008060408385031215613e2b57600080fd5b82359150602083013567ffffffffffffffff811115613e4957600080fd5b613e5585828601613d86565b9150509250929050565b6000602080830181845280855180835260408601915060408160051b87010192508387016000805b83811015613ef9578886037fffffffffffffffffffffffffffffffffffffffffffffffffffffffffffffffc0018552825180518088529088019088880190845b81811015613ee35783518352928a0192918a0191600101613ec7565b5090975050509386019391860191600101613e87565b509398975050505050505050565b60008083601f840112613f1957600080fd5b50813567ffffffffffffffff811115613f3157600080fd5b6020830191508360208260051b8501011115613f4c57600080fd5b9250929050565b600080600080600060608688031215613f6b57600080fd5b613f7486613c6e565b9450602086013567ffffffffffffffff80821115613f9157600080fd5b613f9d89838a01613f07565b90965094506040880135915080821115613fb657600080fd5b50613fc388828901613f07565b969995985093965092949392505050565b600060208284031215613fe657600080fd5b5035919050565b60005b83811015614008578181015183820152602001613ff0565b50506000910152565b60008151808452614029816020860160208601613fed565b601f017fffffffffffffffffffffffffffffffffffffffffffffffffffffffffffffffe0169290920160200192915050565b602081526000613c676020830184614011565b6000806040838503121561408157600080fd5b50508035926020909101359150565b600067ffffffffffffffff8211156140aa576140aa613d0c565b5060051b60200190565b600082601f8301126140c557600080fd5b813560206140d282614090565b6040516140df8282613d3b565b83815260059390931b85018201928281019150868411156140ff57600080fd5b8286015b8481101561411a5780358352918301918301614103565b509695505050505050565b600080600080600060a0868803121561413d57600080fd5b61414686613c6e565b945061415460208701613c6e565b9350604086013567ffffffffffffffff8082111561417157600080fd5b61417d89838a016140b4565b9450606088013591508082111561419357600080fd5b61419f89838a016140b4565b935060808801359150808211156141b557600080fd5b506141c288828901613d86565b9150509295509295909350565b600080604083850312156141e257600080fd5b823591506141f260208401613c6e565b90509250929050565b6000806040838503121561420e57600080fd5b823567ffffffffffffffff8082111561422657600080fd5b818501915085601f83011261423a57600080fd5b8135602061424782614090565b6040516142548282613d3b565b83815260059390931b850182019282810191508984111561427457600080fd5b948201945b838610156142995761428a86613c6e565b82529482019490820190614279565b965050860135925050808211156142af57600080fd5b50613e55858286016140b4565b600081518084526020808501945080840160005b838110156142ec578151875295820195908201906001016142d0565b509495945050505050565b602081526000613c6760208301846142bc565b60006020828403121561431c57600080fd5b613c6782613c6e565b6000806040838503121561433857600080fd5b61434183613c6e565b91506020830135801515811461435657600080fd5b809150509250929050565b60006020828403121561437357600080fd5b813567ffffffffffffffff81111561438a57600080fd5b61206084828501613d86565b60008060008060008060006080888a0312156143b157600080fd5b6143ba88613c6e565b9650602088013567ffffffffffffffff808211156143d757600080fd5b6143e38b838c01613f07565b909850965060408a01359150808211156143fc57600080fd5b6144088b838c01613f07565b909650945060608a013591508082111561442157600080fd5b5061442e8a828b01613f07565b989b979a50959850939692959293505050565b60008060006060848603121561445657600080fd5b61445f84613c6e565b95602085013595506040909401359392505050565b6000602080830181845280855180835260408601915060408160051b870101925083870160005b828110156144e7577fffffffffffffffffffffffffffffffffffffffffffffffffffffffffffffffc08886030184526144d5858351614011565b9450928501929085019060010161449b565b5092979650505050505050565b6000806040838503121561450757600080fd5b61451083613c6e565b91506141f260208401613c6e565b600080600080600060a0868803121561453657600080fd5b61453f86613c6e565b945061454d60208701613c6e565b93506040860135925060608601359150608086013567ffffffffffffffff81111561457757600080fd5b6141c288828901613d86565b600181811c9082168061459757607f821691505b60208210810361090c577f4e487b7100000000000000000000000000000000000000000000000000000000600052602260045260246000fd5b601f821115610e4357600081815260208120601f850160051c810160208610156145f75750805b601f850160051c820191505b8181101561103557828155600101614603565b815167ffffffffffffffff81111561463057614630613d0c565b6146448161463e8454614583565b846145d0565b602080601f83116001811461469757600084156146615750858301515b7fffffffffffffffffffffffffffffffffffffffffffffffffffffffffffffffff600386901b1c1916600185901b178555611035565b6000858152602081207fffffffffffffffffffffffffffffffffffffffffffffffffffffffffffffffe08616915b828110156146e4578886015182559484019460019091019084016146c5565b508582101561472057878501517fffffffffffffffffffffffffffffffffffffffffffffffffffffffffffffffff600388901b60f8161c191681555b5050505050600190811b01905550565b7f4e487b7100000000000000000000000000000000000000000000000000000000600052603260045260246000fd5b7f4e487b7100000000000000000000000000000000000000000000000000000000600052601160045260246000fd5b60007fffffffffffffffffffffffffffffffffffffffffffffffffffffffffffffffff82036147bf576147bf61475f565b5060010190565b60008084546147d481614583565b600182811680156147ec576001811461481f5761484e565b7fffffffffffffffffffffffffffffffffffffffffffffffffffffffffffffff008416875282151583028701945061484e565b8860005260208060002060005b858110156148455781548a82015290840190820161482c565b50505082870194505b505050508351614862818360208801613fed565b01949350505050565b818103818111156107275761072761475f565b808201808211156107275761072761475f565b6040815260006148a460408301856142bc565b82810360208401526148b681856142bc565b95945050505050565b7f4e487b7100000000000000000000000000000000000000000000000000000000600052601260045260246000fd5b6000826148fd576148fd6148bf565b500490565b600082614911576149116148bf565b500690565b7f416363657373436f6e74726f6c3a206163636f756e742000000000000000000081526000835161494e816017850160208801613fed565b7f206973206d697373696e6720726f6c6520000000000000000000000000000000601791840191820152835161498b816028840160208801613fed565b01602801949350505050565b600073ffffffffffffffffffffffffffffffffffffffff808816835280871660208401525060a060408301526149d060a08301866142bc565b82810360608401526149e281866142bc565b905082810360808401526149f68185614011565b98975050505050505050565b600060208284031215614a1457600080fd5b8151613c6781613cc1565b600060033d1115611c1d5760046000803e5060005160e01c90565b600060443d1015614a485790565b6040517ffffffffffffffffffffffffffffffffffffffffffffffffffffffffffffffffc803d016004833e81513d67ffffffffffffffff8160248401118184111715614a9657505050505090565b8285019150815181811115614aae5750505050505090565b843d8701016020828501011115614ac85750505050505090565b614ad760208286010187613d3b565b509095945050505050565b600073ffffffffffffffffffffffffffffffffffffffff808816835280871660208401525084604083015283606083015260a06080830152614b2760a0830184614011565b979650505050505050565b6000817fffffffffffffffffffffffffffffffffffffffffffffffffffffffffffffffff0483118215151615614b6a57614b6a61475f565b500290565b600081614b7e57614b7e61475f565b507fffffffffffffffffffffffffffffffffffffffffffffffffffffffffffffffff019056fea264697066735822122011c9d8fb633d5ebd89434f61de4b3e14e08cbbb6f3a470a14e884367aa19d2fd64736f6c63430008100033",
  "linkReferences": {},
  "deployedLinkReferences": {}
}