{
  "_format": "hh-sol-artifact-1",
  "contractName": "ERC1155_Game_Items_Collection",
  "sourceName": "contracts/Items_Collection/ERC1155_Game_Items_Collection.sol",
  "abi": [
    {
      "inputs": [
        {
          "internalType": "address",
          "name": "_forwarder",
          "type": "address"
        },
        {
          "internalType": "bytes32",
          "name": "_systemId",
          "type": "bytes32"
        }
      ],
      "stateMutability": "nonpayable",
      "type": "constructor"
    },
    {
      "anonymous": false,
      "inputs": [
        {
          "indexed": true,
          "internalType": "address",
          "name": "account",
          "type": "address"
        },
        {
          "indexed": true,
          "internalType": "address",
          "name": "operator",
          "type": "address"
        },
        {
          "indexed": false,
          "internalType": "bool",
          "name": "approved",
          "type": "bool"
        }
      ],
      "name": "ApprovalForAll",
      "type": "event"
    },
    {
      "anonymous": false,
      "inputs": [
        {
          "indexed": true,
          "internalType": "bytes32",
          "name": "role",
          "type": "bytes32"
        },
        {
          "indexed": true,
          "internalType": "bytes32",
          "name": "previousAdminRole",
          "type": "bytes32"
        },
        {
          "indexed": true,
          "internalType": "bytes32",
          "name": "newAdminRole",
          "type": "bytes32"
        }
      ],
      "name": "RoleAdminChanged",
      "type": "event"
    },
    {
      "anonymous": false,
      "inputs": [
        {
          "indexed": true,
          "internalType": "bytes32",
          "name": "role",
          "type": "bytes32"
        },
        {
          "indexed": true,
          "internalType": "address",
          "name": "account",
          "type": "address"
        },
        {
          "indexed": true,
          "internalType": "address",
          "name": "sender",
          "type": "address"
        }
      ],
      "name": "RoleGranted",
      "type": "event"
    },
    {
      "anonymous": false,
      "inputs": [
        {
          "indexed": true,
          "internalType": "bytes32",
          "name": "role",
          "type": "bytes32"
        },
        {
          "indexed": true,
          "internalType": "address",
          "name": "account",
          "type": "address"
        },
        {
          "indexed": true,
          "internalType": "address",
          "name": "sender",
          "type": "address"
        }
      ],
      "name": "RoleRevoked",
      "type": "event"
    },
    {
      "anonymous": false,
      "inputs": [
        {
          "indexed": true,
          "internalType": "address",
          "name": "operator",
          "type": "address"
        },
        {
          "indexed": true,
          "internalType": "address",
          "name": "from",
          "type": "address"
        },
        {
          "indexed": true,
          "internalType": "address",
          "name": "to",
          "type": "address"
        },
        {
          "indexed": false,
          "internalType": "uint256[]",
          "name": "ids",
          "type": "uint256[]"
        },
        {
          "indexed": false,
          "internalType": "uint256[]",
          "name": "values",
          "type": "uint256[]"
        }
      ],
      "name": "TransferBatch",
      "type": "event"
    },
    {
      "anonymous": false,
      "inputs": [
        {
          "indexed": true,
          "internalType": "address",
          "name": "operator",
          "type": "address"
        },
        {
          "indexed": true,
          "internalType": "address",
          "name": "from",
          "type": "address"
        },
        {
          "indexed": true,
          "internalType": "address",
          "name": "to",
          "type": "address"
        },
        {
          "indexed": false,
          "internalType": "uint256",
          "name": "id",
          "type": "uint256"
        },
        {
          "indexed": false,
          "internalType": "uint256",
          "name": "value",
          "type": "uint256"
        }
      ],
      "name": "TransferSingle",
      "type": "event"
    },
    {
      "anonymous": false,
      "inputs": [
        {
          "indexed": false,
          "internalType": "string",
          "name": "value",
          "type": "string"
        },
        {
          "indexed": true,
          "internalType": "uint256",
          "name": "id",
          "type": "uint256"
        }
      ],
      "name": "URI",
      "type": "event"
    },
    {
      "inputs": [],
      "name": "DEFAULT_ADMIN_ROLE",
      "outputs": [
        {
          "internalType": "bytes32",
          "name": "",
          "type": "bytes32"
        }
      ],
      "stateMutability": "view",
      "type": "function"
    },
    {
      "inputs": [],
      "name": "allItemIds",
      "outputs": [
        {
          "internalType": "uint256[]",
          "name": "",
          "type": "uint256[]"
        }
      ],
      "stateMutability": "view",
      "type": "function"
    },
    {
      "inputs": [],
      "name": "allItemSupplies",
      "outputs": [
        {
          "internalType": "uint256[][]",
          "name": "",
          "type": "uint256[][]"
        }
      ],
      "stateMutability": "view",
      "type": "function"
    },
    {
      "inputs": [],
      "name": "allItemURIs",
      "outputs": [
        {
          "internalType": "string[]",
          "name": "",
          "type": "string[]"
        }
      ],
      "stateMutability": "view",
      "type": "function"
    },
    {
      "inputs": [
        {
          "internalType": "address",
          "name": "account",
          "type": "address"
        },
        {
          "internalType": "uint256",
          "name": "id",
          "type": "uint256"
        }
      ],
      "name": "balanceOf",
      "outputs": [
        {
          "internalType": "uint256",
          "name": "",
          "type": "uint256"
        }
      ],
      "stateMutability": "view",
      "type": "function"
    },
    {
      "inputs": [
        {
          "internalType": "address",
          "name": "_address",
          "type": "address"
        }
      ],
      "name": "balanceOfAll",
      "outputs": [
        {
          "internalType": "uint256[][]",
          "name": "",
          "type": "uint256[][]"
        }
      ],
      "stateMutability": "view",
      "type": "function"
    },
    {
      "inputs": [
        {
          "internalType": "address[]",
          "name": "accounts",
          "type": "address[]"
        },
        {
          "internalType": "uint256[]",
          "name": "ids",
          "type": "uint256[]"
        }
      ],
      "name": "balanceOfBatch",
      "outputs": [
        {
          "internalType": "uint256[]",
          "name": "",
          "type": "uint256[]"
        }
      ],
      "stateMutability": "view",
      "type": "function"
    },
    {
      "inputs": [
        {
          "internalType": "address",
          "name": "_fromAddress",
          "type": "address"
        },
        {
          "internalType": "address[]",
          "name": "_toAddresses",
          "type": "address[]"
        },
        {
          "internalType": "uint256[]",
          "name": "_itemIds",
          "type": "uint256[]"
        },
        {
          "internalType": "uint256[]",
          "name": "_quantitiesPerAddress",
          "type": "uint256[]"
        }
      ],
      "name": "bulkSafeBatchTransferFrom",
      "outputs": [],
      "stateMutability": "nonpayable",
      "type": "function"
    },
    {
      "inputs": [
        {
          "internalType": "address",
          "name": "_fromAddress",
          "type": "address"
        },
        {
          "internalType": "uint256[]",
          "name": "_itemIds",
          "type": "uint256[]"
        },
        {
          "internalType": "uint256[]",
          "name": "_quantities",
          "type": "uint256[]"
        }
      ],
      "name": "burnBatchFromAddress",
      "outputs": [],
      "stateMutability": "nonpayable",
      "type": "function"
    },
    {
      "inputs": [
        {
          "internalType": "address",
          "name": "_fromAddress",
          "type": "address"
        },
        {
          "internalType": "uint256",
          "name": "_itemId",
          "type": "uint256"
        },
        {
          "internalType": "uint256",
          "name": "_quantity",
          "type": "uint256"
        }
      ],
      "name": "burnFromAddress",
      "outputs": [],
      "stateMutability": "nonpayable",
      "type": "function"
    },
    {
      "inputs": [
        {
          "internalType": "bytes32",
          "name": "role",
          "type": "bytes32"
        }
      ],
      "name": "getRoleAdmin",
      "outputs": [
        {
          "internalType": "bytes32",
          "name": "",
          "type": "bytes32"
        }
      ],
      "stateMutability": "view",
      "type": "function"
    },
    {
      "inputs": [
        {
          "internalType": "bytes32",
          "name": "role",
          "type": "bytes32"
        },
        {
          "internalType": "address",
          "name": "account",
          "type": "address"
        }
      ],
      "name": "grantRole",
      "outputs": [],
      "stateMutability": "nonpayable",
      "type": "function"
    },
    {
      "inputs": [
        {
          "internalType": "bytes32",
          "name": "role",
          "type": "bytes32"
        },
        {
          "internalType": "address",
          "name": "account",
          "type": "address"
        }
      ],
      "name": "hasRole",
      "outputs": [
        {
          "internalType": "bool",
          "name": "",
          "type": "bool"
        }
      ],
      "stateMutability": "view",
      "type": "function"
    },
    {
      "inputs": [
        {
          "internalType": "address",
          "name": "account",
          "type": "address"
        },
        {
          "internalType": "address",
          "name": "operator",
          "type": "address"
        }
      ],
      "name": "isApprovedForAll",
      "outputs": [
        {
          "internalType": "bool",
          "name": "",
          "type": "bool"
        }
      ],
      "stateMutability": "view",
      "type": "function"
    },
    {
      "inputs": [
        {
          "internalType": "uint256",
          "name": "_itemId",
          "type": "uint256"
        }
      ],
      "name": "isItemTransferrable",
      "outputs": [
        {
          "internalType": "bool",
          "name": "",
          "type": "bool"
        }
      ],
      "stateMutability": "view",
      "type": "function"
    },
    {
      "inputs": [
        {
          "internalType": "address",
          "name": "forwarder",
          "type": "address"
        }
      ],
      "name": "isTrustedForwarder",
      "outputs": [
        {
          "internalType": "bool",
          "name": "",
          "type": "bool"
        }
      ],
      "stateMutability": "view",
      "type": "function"
    },
    {
      "inputs": [],
      "name": "itemBaseURI",
      "outputs": [
        {
          "internalType": "string",
          "name": "",
          "type": "string"
        }
      ],
      "stateMutability": "view",
      "type": "function"
    },
    {
      "inputs": [
        {
          "internalType": "uint256",
          "name": "",
          "type": "uint256"
        }
      ],
      "name": "itemExists",
      "outputs": [
        {
          "internalType": "bool",
          "name": "",
          "type": "bool"
        }
      ],
      "stateMutability": "view",
      "type": "function"
    },
    {
      "inputs": [
        {
          "internalType": "uint256",
          "name": "",
          "type": "uint256"
        }
      ],
      "name": "itemIds",
      "outputs": [
        {
          "internalType": "uint256",
          "name": "",
          "type": "uint256"
        }
      ],
      "stateMutability": "view",
      "type": "function"
    },
    {
      "inputs": [
        {
          "internalType": "uint256",
          "name": "",
          "type": "uint256"
        }
      ],
      "name": "itemSupplies",
      "outputs": [
        {
          "internalType": "uint256",
          "name": "",
          "type": "uint256"
        }
      ],
      "stateMutability": "view",
      "type": "function"
    },
    {
      "inputs": [
        {
          "internalType": "uint256",
          "name": "",
          "type": "uint256"
        }
      ],
      "name": "itemTransferTimelocks",
      "outputs": [
        {
          "internalType": "uint256",
          "name": "",
          "type": "uint256"
        }
      ],
      "stateMutability": "view",
      "type": "function"
    },
    {
      "inputs": [
        {
          "internalType": "address",
          "name": "_toAddress",
          "type": "address"
        },
        {
          "internalType": "uint256[]",
          "name": "_itemIds",
          "type": "uint256[]"
        },
        {
          "internalType": "uint256[]",
          "name": "_quantities",
          "type": "uint256[]"
        }
      ],
      "name": "mintBatchToAddress",
      "outputs": [],
      "stateMutability": "nonpayable",
      "type": "function"
    },
    {
      "inputs": [
        {
          "internalType": "address",
          "name": "_toAddress",
          "type": "address"
        },
        {
          "internalType": "uint256",
          "name": "_itemId",
          "type": "uint256"
        },
        {
          "internalType": "uint256",
          "name": "_quantity",
          "type": "uint256"
        }
      ],
      "name": "mintToAddress",
      "outputs": [],
      "stateMutability": "nonpayable",
      "type": "function"
    },
    {
      "inputs": [
        {
          "internalType": "uint256",
          "name": "_itemIdsStartIndexInclusive",
          "type": "uint256"
        },
        {
          "internalType": "uint256",
          "name": "_limit",
          "type": "uint256"
        }
      ],
      "name": "paginateItemIds",
      "outputs": [
        {
          "internalType": "uint256[]",
          "name": "",
          "type": "uint256[]"
        }
      ],
      "stateMutability": "view",
      "type": "function"
    },
    {
      "inputs": [
        {
          "internalType": "uint256",
          "name": "_itemIdsStartIndexInclusive",
          "type": "uint256"
        },
        {
          "internalType": "uint256",
          "name": "_limit",
          "type": "uint256"
        }
      ],
      "name": "paginateItemSupplies",
      "outputs": [
        {
          "internalType": "uint256[][]",
          "name": "",
          "type": "uint256[][]"
        }
      ],
      "stateMutability": "view",
      "type": "function"
    },
    {
      "inputs": [
        {
          "internalType": "uint256",
          "name": "_itemIdsStartIndexInclusive",
          "type": "uint256"
        },
        {
          "internalType": "uint256",
          "name": "_limit",
          "type": "uint256"
        }
      ],
      "name": "paginateItemURIs",
      "outputs": [
        {
          "internalType": "string[]",
          "name": "",
          "type": "string[]"
        }
      ],
      "stateMutability": "view",
      "type": "function"
    },
    {
      "inputs": [
        {
          "internalType": "bytes32",
          "name": "role",
          "type": "bytes32"
        },
        {
          "internalType": "address",
          "name": "account",
          "type": "address"
        }
      ],
      "name": "renounceRole",
      "outputs": [],
      "stateMutability": "nonpayable",
      "type": "function"
    },
    {
      "inputs": [
        {
          "internalType": "bytes32",
          "name": "role",
          "type": "bytes32"
        },
        {
          "internalType": "address",
          "name": "account",
          "type": "address"
        }
      ],
      "name": "revokeRole",
      "outputs": [],
      "stateMutability": "nonpayable",
      "type": "function"
    },
    {
      "inputs": [
        {
          "internalType": "address",
          "name": "from",
          "type": "address"
        },
        {
          "internalType": "address",
          "name": "to",
          "type": "address"
        },
        {
          "internalType": "uint256[]",
          "name": "ids",
          "type": "uint256[]"
        },
        {
          "internalType": "uint256[]",
          "name": "amounts",
          "type": "uint256[]"
        },
        {
          "internalType": "bytes",
          "name": "data",
          "type": "bytes"
        }
      ],
      "name": "safeBatchTransferFrom",
      "outputs": [],
      "stateMutability": "nonpayable",
      "type": "function"
    },
    {
      "inputs": [
        {
          "internalType": "address",
          "name": "from",
          "type": "address"
        },
        {
          "internalType": "address",
          "name": "to",
          "type": "address"
        },
        {
          "internalType": "uint256",
          "name": "id",
          "type": "uint256"
        },
        {
          "internalType": "uint256",
          "name": "amount",
          "type": "uint256"
        },
        {
          "internalType": "bytes",
          "name": "data",
          "type": "bytes"
        }
      ],
      "name": "safeTransferFrom",
      "outputs": [],
      "stateMutability": "nonpayable",
      "type": "function"
    },
    {
      "inputs": [
        {
          "internalType": "address",
          "name": "operator",
          "type": "address"
        },
        {
          "internalType": "bool",
          "name": "approved",
          "type": "bool"
        }
      ],
      "name": "setApprovalForAll",
      "outputs": [],
      "stateMutability": "nonpayable",
      "type": "function"
    },
    {
      "inputs": [
        {
          "internalType": "string",
          "name": "_itemBaseURI",
          "type": "string"
        }
      ],
      "name": "setItemBaseURI",
      "outputs": [],
      "stateMutability": "nonpayable",
      "type": "function"
    },
    {
      "inputs": [
        {
          "internalType": "uint256",
          "name": "_itemId",
          "type": "uint256"
        },
        {
          "internalType": "uint256",
          "name": "_unlockTimestamp",
          "type": "uint256"
        }
      ],
      "name": "setItemTransferTimelock",
      "outputs": [],
      "stateMutability": "nonpayable",
      "type": "function"
    },
    {
      "inputs": [
        {
          "internalType": "uint256",
          "name": "_itemId",
          "type": "uint256"
        },
        {
          "internalType": "string",
          "name": "_uri",
          "type": "string"
        }
      ],
      "name": "setItemURI",
      "outputs": [],
      "stateMutability": "nonpayable",
      "type": "function"
    },
    {
      "inputs": [
        {
          "internalType": "bytes4",
          "name": "interfaceId",
          "type": "bytes4"
        }
      ],
      "name": "supportsInterface",
      "outputs": [
        {
          "internalType": "bool",
          "name": "",
          "type": "bool"
        }
      ],
      "stateMutability": "view",
      "type": "function"
    },
    {
      "inputs": [],
      "name": "systemId",
      "outputs": [
        {
          "internalType": "bytes32",
          "name": "",
          "type": "bytes32"
        }
      ],
      "stateMutability": "view",
      "type": "function"
    },
    {
      "inputs": [],
      "name": "totalItemIds",
      "outputs": [
        {
          "internalType": "uint256",
          "name": "",
          "type": "uint256"
        }
      ],
      "stateMutability": "view",
      "type": "function"
    },
    {
      "inputs": [],
      "name": "trustedForwarder",
      "outputs": [
        {
          "internalType": "address",
          "name": "",
          "type": "address"
        }
      ],
      "stateMutability": "view",
      "type": "function"
    },
    {
      "inputs": [
        {
          "internalType": "address",
          "name": "_newTrustedForwarder",
          "type": "address"
        }
      ],
      "name": "upgradeTrustedForwarder",
      "outputs": [],
      "stateMutability": "nonpayable",
      "type": "function"
    },
    {
      "inputs": [
        {
          "internalType": "uint256",
          "name": "_itemId",
          "type": "uint256"
        }
      ],
      "name": "uri",
      "outputs": [
        {
          "internalType": "string",
          "name": "",
          "type": "string"
        }
      ],
      "stateMutability": "view",
      "type": "function"
    }
  ],
  "bytecode": "0x60806040523480156200001157600080fd5b5060405162004f1f38038062004f1f8339810160408190526200003491620001e4565b8082604051806020016040528060008152506200005781620000c860201b60201c565b50600380546001600160a01b0319166001600160a01b03929092169190911790556004556200009160006200008b620000da565b620000f6565b620000c07fc9fc9949603a50f5cc3a96f774f1d68287789a241d2082dc81d0fb19a53bcf2b6200008b620000da565b505062000391565b6002620000d68282620002c5565b5050565b6000620000f16200010260201b62001b441760201c565b905090565b620000d682826200013a565b6003546000906001600160a01b0316330362000125575060131936013560601c90565b620000f1620001e060201b62001b9e1760201c565b60008281526005602090815260408083206001600160a01b038516845290915290205460ff16620000d65760008281526005602090815260408083206001600160a01b03851684529091529020805460ff191660011790556200019c620000da565b6001600160a01b0316816001600160a01b0316837f2f8788117e7eff1d82e926ec794901d17c78024a50270940304540a733656f0d60405160405180910390a45050565b3390565b60008060408385031215620001f857600080fd5b82516001600160a01b03811681146200021057600080fd5b6020939093015192949293505050565b634e487b7160e01b600052604160045260246000fd5b600181811c908216806200024b57607f821691505b6020821081036200026c57634e487b7160e01b600052602260045260246000fd5b50919050565b601f821115620002c057600081815260208120601f850160051c810160208610156200029b5750805b601f850160051c820191505b81811015620002bc57828155600101620002a7565b5050505b505050565b81516001600160401b03811115620002e157620002e162000220565b620002f981620002f2845462000236565b8462000272565b602080601f831160018114620003315760008415620003185750858301515b600019600386901b1c1916600185901b178555620002bc565b600085815260208120601f198616915b82811015620003625788860151825594840194600190910190840162000341565b5085821015620003815787850151600019600388901b60f8161c191681555b5050505050600190811b01905550565b614b7e80620003a16000396000f3fe608060405234801561001057600080fd5b50600436106102c75760003560e01c8063843bd6411161017b578063b3dc00fe116100d8578063dc7aa9ef1161008c578063efa52e9011610071578063efa52e90146106a3578063f242432a146106ab578063fe992c98146106be57600080fd5b8063dc7aa9ef14610647578063e985e9c51461065a57600080fd5b8063bbdc8276116100bd578063bbdc82761461060c578063d547741f14610614578063d8e141751461062757600080fd5b8063b3dc00fe146105e6578063b9babeba146105f957600080fd5b8063a22cb4651161012f578063aa2a7eea11610114578063aa2a7eea1461059e578063ae06363f146105b1578063b1da7a55146105d357600080fd5b8063a22cb46514610578578063a9c47d121461058b57600080fd5b806391d148541161016057806391d1485414610517578063951549b91461055d578063a217fddf1461057057600080fd5b8063843bd641146104ec5780638c892cfd1461050f57600080fd5b80632f2ff15d116102295780634e1273f4116101dd57806358ec07c7116101c257806358ec07c7146104745780637bc6cb74146104945780637da0a877146104a757600080fd5b80634e1273f414610425578063572b6c051461044557600080fd5b806339f898bc1161020e57806339f898bc1461040157806348e1219a1461040a5780634b7c78dc1461041257600080fd5b80632f2ff15d146103db57806336568abe146103ee57600080fd5b80630e89341c116102805780632257eb7e116102655780632257eb7e14610385578063248a9ca3146103a55780632eb2c2d6146103c857600080fd5b80630e89341c1461035257806313f2f6bd1461037257600080fd5b806303cb92fc116102b157806303cb92fc146103155780630515cf8d1461032a57806308f427c71461033f57600080fd5b8062fdd58e146102cc57806301ffc9a7146102f2575b600080fd5b6102df6102da366004613c8a565b6106d1565b6040519081526020015b60405180910390f35b610305610300366004613ce2565b6107b1565b60405190151581526020016102e9565b610328610323366004613e0b565b610807565b005b610332610858565b6040516102e99190613e52565b61032861034d366004613f46565b61099f565b610365610360366004613fc7565b610ae6565b6040516102e9919061404e565b610332610380366004614061565b610c6a565b6102df610393366004613fc7565b60096020526000908152604090205481565b6102df6103b3366004613fc7565b60009081526005602052604090206001015490565b6103286103d6366004614118565b610df0565b6103286103e93660046141c2565b610ed1565b6103286103fc3660046141c2565b610ef6565b6102df60045481565b6006546102df565b610328610420366004613f46565b610fc6565b6104386104333660046141ee565b6110eb565b6040516102e991906142ea565b6103056104533660046142fd565b60035473ffffffffffffffffffffffffffffffffffffffff91821691161490565b6102df610482366004613fc7565b600a6020526000908152604090205481565b6103286104a2366004614061565b611243565b6003546104c79073ffffffffffffffffffffffffffffffffffffffff1681565b60405173ffffffffffffffffffffffffffffffffffffffff90911681526020016102e9565b6103056104fa366004613fc7565b60086020526000908152604090205460ff1681565b610438611280565b6103056105253660046141c2565b600091825260056020908152604080842073ffffffffffffffffffffffffffffffffffffffff93909316845291905290205460ff1690565b61043861056b366004614061565b6112d8565b6102df600081565b610328610586366004614318565b6113ba565b610328610599366004614354565b6113cc565b6103286105ac3660046142fd565b6113d8565b6103056105bf366004613fc7565b6000908152600a6020526040902054421190565b6103286105e1366004614391565b611446565b6102df6105f4366004613fc7565b611510565b61032861060736600461443c565b611531565b6103656115f1565b6103286106223660046141c2565b61167f565b61063a610635366004614061565b6116a4565b6040516102e9919061446f565b61032861065536600461443c565b611799565b6103056106683660046144ef565b73ffffffffffffffffffffffffffffffffffffffff918216600090815260016020908152604080832093909416825291909152205460ff1690565b61063a611878565b6103286106b9366004614519565b611922565b6103326106cc3660046142fd565b611a03565b600073ffffffffffffffffffffffffffffffffffffffff831661077b576040517f08c379a000000000000000000000000000000000000000000000000000000000815260206004820152602a60248201527f455243313135353a2061646472657373207a65726f206973206e6f742061207660448201527f616c6964206f776e65720000000000000000000000000000000000000000000060648201526084015b60405180910390fd5b5060008181526020818152604080832073ffffffffffffffffffffffffffffffffffffffff861684529091529020545b92915050565b60007fffffffff0000000000000000000000000000000000000000000000000000000082167f909aa65d0000000000000000000000000000000000000000000000000000000014806107ab57506107ab82611ba2565b7fc9fc9949603a50f5cc3a96f774f1d68287789a241d2082dc81d0fb19a53bcf2b61083181611bf8565b6000838152600b602052604090206108498382614611565b5061085383611c0c565b505050565b60065460609060009067ffffffffffffffff81111561087957610879613cff565b6040519080825280602002602001820160405280156108ac57816020015b60608152602001906001900390816108975790505b50905060005b60065481101561099957604080516002808252606082018352600092602083019080368337019050509050600682815481106108f0576108f061472b565b90600052602060002001548160008151811061090e5761090e61472b565b60200260200101818152505060096000826000815181106109315761093161472b565b60200260200101518152602001908152602001600020548160018151811061095b5761095b61472b565b6020026020010181815250508083838151811061097a5761097a61472b565b602002602001018190525050808061099190614789565b9150506108b2565b50919050565b6109cb7fc9fc9949603a50f5cc3a96f774f1d68287789a241d2082dc81d0fb19a53bcf2b610525611c8d565b806109fd57506109fd7fc9eb32e43bf5ecbceacf00b32281dfc5d6d700a0db676ea26ccf938a385ac3f7610525611c8d565b610a63576040517f08c379a000000000000000000000000000000000000000000000000000000000815260206004820152601760248201527f4e6f7420617574686f72697a656420746f206d696e742e0000000000000000006044820152606401610772565b610adf8585858080602002602001604051908101604052809392919081815260200183836020028082843760009201919091525050604080516020808902828101820190935288825290935088925087918291850190849080828437600092018290525060408051602081019091529081529250611c97915050565b5050505050565b60008181526008602052604090205460609060ff16610b87576040517f08c379a000000000000000000000000000000000000000000000000000000000815260206004820152602360248201527f555249207265717565737420666f72206e6f6e206578697374656e742069746560448201527f6d496400000000000000000000000000000000000000000000000000000000006064820152608401610772565b600060078054610b969061457e565b905011610c39576000828152600b602052604090208054610bb69061457e565b80601f0160208091040260200160405190810160405280929190818152602001828054610be29061457e565b8015610c2f5780601f10610c0457610100808354040283529160200191610c2f565b820191906000526020600020905b815481529060010190602001808311610c1257829003601f168201915b50505050506107ab565b6007610c4483611f2a565b604051602001610c559291906147c1565b60405160208183030381529060405292915050565b6006546060906000908410610c80576000610c8e565b600654610c8e908590614866565b9050600083821115610ca05783610ca2565b815b905060008167ffffffffffffffff811115610cbf57610cbf613cff565b604051908082528060200260200182016040528015610cf257816020015b6060815260200190600190039081610cdd5790505b50905060005b82811015610de6576040805160028082526060820183526000926020830190803683370190505090506006610d2d838a614879565b81548110610d3d57610d3d61472b565b906000526020600020015481600081518110610d5b57610d5b61472b565b6020026020010181815250506009600082600081518110610d7e57610d7e61472b565b602002602001015181526020019081526020016000205481600181518110610da857610da861472b565b60200260200101818152505080838381518110610dc757610dc761472b565b6020026020010181905250508080610dde90614789565b915050610cf8565b5095945050505050565b610df8611c8d565b73ffffffffffffffffffffffffffffffffffffffff168573ffffffffffffffffffffffffffffffffffffffff161480610e385750610e3885610668611c8d565b610ec4576040517f08c379a000000000000000000000000000000000000000000000000000000000815260206004820152602e60248201527f455243313135353a2063616c6c6572206973206e6f7420746f6b656e206f776e60448201527f6572206f7220617070726f7665640000000000000000000000000000000000006064820152608401610772565b610adf8585858585611fe8565b600082815260056020526040902060010154610eec81611bf8565b6108538383612333565b610efe611c8d565b73ffffffffffffffffffffffffffffffffffffffff168173ffffffffffffffffffffffffffffffffffffffff1614610fb8576040517f08c379a000000000000000000000000000000000000000000000000000000000815260206004820152602f60248201527f416363657373436f6e74726f6c3a2063616e206f6e6c792072656e6f756e636560448201527f20726f6c657320666f722073656c6600000000000000000000000000000000006064820152608401610772565b610fc28282612428565b5050565b84610fcf611c8d565b73ffffffffffffffffffffffffffffffffffffffff168173ffffffffffffffffffffffffffffffffffffffff16148061100f575061100f81610668611c8d565b611075576040517f08c379a000000000000000000000000000000000000000000000000000000000815260206004820152601560248201527f4e6f7420617070726f76656420746f206275726e2e00000000000000000000006044820152606401610772565b6110e38686868080602002602001604051908101604052809392919081815260200183836020028082843760009201919091525050604080516020808a0282810182019093528982529093508992508891829185019084908082843760009201919091525061251b92505050565b505050505050565b6060815183511461117e576040517f08c379a000000000000000000000000000000000000000000000000000000000815260206004820152602960248201527f455243313135353a206163636f756e747320616e6420696473206c656e67746860448201527f206d69736d6174636800000000000000000000000000000000000000000000006064820152608401610772565b6000835167ffffffffffffffff81111561119a5761119a613cff565b6040519080825280602002602001820160405280156111c3578160200160208202803683370190505b50905060005b845181101561123b5761120e8582815181106111e7576111e761472b565b60200260200101518583815181106112015761120161472b565b60200260200101516106d1565b8282815181106112205761122061472b565b602090810291909101015261123481614789565b90506111c9565b509392505050565b7fc9fc9949603a50f5cc3a96f774f1d68287789a241d2082dc81d0fb19a53bcf2b61126d81611bf8565b506000918252600a602052604090912055565b606060068054806020026020016040519081016040528092919081815260200182805480156112ce57602002820191906000526020600020905b8154815260200190600101908083116112ba575b5050505050905090565b60065460609060009084106112ee5760006112fc565b6006546112fc908590614866565b905060008382111561130e5783611310565b815b905060008167ffffffffffffffff81111561132d5761132d613cff565b604051908082528060200260200182016040528015611356578160200160208202803683370190505b50905060005b82811015610de65760066113708289614879565b815481106113805761138061472b565b906000526020600020015482828151811061139d5761139d61472b565b6020908102919091010152806113b281614789565b91505061135c565b610fc26113c5611c8d565b838361285b565b6007610fc28282614611565b7fc9fc9949603a50f5cc3a96f774f1d68287789a241d2082dc81d0fb19a53bcf2b61140281611bf8565b600380547fffffffffffffffffffffffff00000000000000000000000000000000000000001673ffffffffffffffffffffffffffffffffffffffff84161790555050565b60005b85811015611506576114f4888888848181106114675761146761472b565b905060200201602081019061147c91906142fd565b87878080602002602001604051908101604052809392919081815260200183836020028082843760009201919091525050604080516020808b0282810182019093528a82529093508a925089918291850190849080828437600092018290525060408051602081019091529081529250610df0915050565b806114fe81614789565b915050611449565b5050505050505050565b6006818154811061152057600080fd5b600091825260209091200154905081565b8261153a611c8d565b73ffffffffffffffffffffffffffffffffffffffff168173ffffffffffffffffffffffffffffffffffffffff16148061157a575061157a81610668611c8d565b6115e0576040517f08c379a000000000000000000000000000000000000000000000000000000000815260206004820152601560248201527f4e6f7420617070726f76656420746f206275726e2e00000000000000000000006044820152606401610772565b6115eb8484846129ae565b50505050565b600780546115fe9061457e565b80601f016020809104026020016040519081016040528092919081815260200182805461162a9061457e565b80156116775780601f1061164c57610100808354040283529160200191611677565b820191906000526020600020905b81548152906001019060200180831161165a57829003601f168201915b505050505081565b60008281526005602052604090206001015461169a81611bf8565b6108538383612428565b60065460609060009084106116ba5760006116c8565b6006546116c8908590614866565b90506000838211156116da57836116dc565b815b905060008167ffffffffffffffff8111156116f9576116f9613cff565b60405190808252806020026020018201604052801561172c57816020015b60608152602001906001900390816117175790505b50905060005b82811015610de6576117696006611749838a614879565b815481106117595761175961472b565b9060005260206000200154610ae6565b82828151811061177b5761177b61472b565b6020026020010181905250808061179190614789565b915050611732565b6117c57fc9fc9949603a50f5cc3a96f774f1d68287789a241d2082dc81d0fb19a53bcf2b610525611c8d565b806117f757506117f77fc9eb32e43bf5ecbceacf00b32281dfc5d6d700a0db676ea26ccf938a385ac3f7610525611c8d565b61185d576040517f08c379a000000000000000000000000000000000000000000000000000000000815260206004820152601760248201527f4e6f7420617574686f72697a656420746f206d696e742e0000000000000000006044820152606401610772565b61085383838360405180602001604052806000815250612bdc565b60065460609060009067ffffffffffffffff81111561189957611899613cff565b6040519080825280602002602001820160405280156118cc57816020015b60608152602001906001900390816118b75790505b50905060005b600654811015610999576118f2600682815481106117595761175961472b565b8282815181106119045761190461472b565b6020026020010181905250808061191a90614789565b9150506118d2565b61192a611c8d565b73ffffffffffffffffffffffffffffffffffffffff168573ffffffffffffffffffffffffffffffffffffffff16148061196a575061196a85610668611c8d565b6119f6576040517f08c379a000000000000000000000000000000000000000000000000000000000815260206004820152602e60248201527f455243313135353a2063616c6c6572206973206e6f7420746f6b656e206f776e60448201527f6572206f7220617070726f7665640000000000000000000000000000000000006064820152608401610772565b610adf8585858585612d5e565b60065460609060009067ffffffffffffffff811115611a2457611a24613cff565b604051908082528060200260200182016040528015611a5757816020015b6060815260200190600190039081611a425790505b50905060005b600654811015611b3d5760408051600280825260608201835260009260208301908036833701905050905060068281548110611a9b57611a9b61472b565b906000526020600020015481600081518110611ab957611ab961472b565b602002602001018181525050611aec8560068481548110611adc57611adc61472b565b90600052602060002001546106d1565b81600181518110611aff57611aff61472b565b60200260200101818152505080838381518110611b1e57611b1e61472b565b6020026020010181905250508080611b3590614789565b915050611a5d565b5092915050565b60035460009073ffffffffffffffffffffffffffffffffffffffff163303611b9157507fffffffffffffffffffffffffffffffffffffffffffffffffffffffffffffffec36013560601c90565b503390565b905090565b90565b3390565b60007fffffffff0000000000000000000000000000000000000000000000000000000082167f7965db0b0000000000000000000000000000000000000000000000000000000014806107ab57506107ab82612fb5565b611c0981611c04611c8d565b613098565b50565b60008181526008602052604090205460ff16611c09576006805460018181019092557ff652222313e28459528d920b65115c16c04f3efc82aaedc97be59f3f377c0d3f01829055600082815260086020526040902080547fffffffffffffffffffffffffffffffffffffffffffffffffffffffffffffff0016909117905550565b6000611b96611b44565b73ffffffffffffffffffffffffffffffffffffffff8416611d3a576040517f08c379a000000000000000000000000000000000000000000000000000000000815260206004820152602160248201527f455243313135353a206d696e7420746f20746865207a65726f2061646472657360448201527f73000000000000000000000000000000000000000000000000000000000000006064820152608401610772565b8151835114611dcb576040517f08c379a000000000000000000000000000000000000000000000000000000000815260206004820152602860248201527f455243313135353a2069647320616e6420616d6f756e7473206c656e6774682060448201527f6d69736d617463680000000000000000000000000000000000000000000000006064820152608401610772565b6000611dd5611c8d565b9050611de681600087878787613152565b60005b8451811015611e9b57838181518110611e0457611e0461472b565b6020026020010151600080878481518110611e2157611e2161472b565b6020026020010151815260200190815260200160002060008873ffffffffffffffffffffffffffffffffffffffff1673ffffffffffffffffffffffffffffffffffffffff1681526020019081526020016000206000828254611e839190614879565b90915550819050611e9381614789565b915050611de9565b508473ffffffffffffffffffffffffffffffffffffffff16600073ffffffffffffffffffffffffffffffffffffffff168273ffffffffffffffffffffffffffffffffffffffff167f4a39dc06d4c0dbc64b70af90fd698a233a518aa5d07e595d983b8c0526c8f7fb8787604051611f1392919061488c565b60405180910390a4610adf81600087878787613494565b60606000611f378361371e565b600101905060008167ffffffffffffffff811115611f5757611f57613cff565b6040519080825280601f01601f191660200182016040528015611f81576020820181803683370190505b5090508181016020015b7fffffffffffffffffffffffffffffffffffffffffffffffffffffffffffffffff017f3031323334353637383961626364656600000000000000000000000000000000600a86061a8153600a8504945084611f8b57509392505050565b8151835114612079576040517f08c379a000000000000000000000000000000000000000000000000000000000815260206004820152602860248201527f455243313135353a2069647320616e6420616d6f756e7473206c656e6774682060448201527f6d69736d617463680000000000000000000000000000000000000000000000006064820152608401610772565b73ffffffffffffffffffffffffffffffffffffffff841661211c576040517f08c379a000000000000000000000000000000000000000000000000000000000815260206004820152602560248201527f455243313135353a207472616e7366657220746f20746865207a65726f20616460448201527f64726573730000000000000000000000000000000000000000000000000000006064820152608401610772565b6000612126611c8d565b9050612136818787878787613152565b60005b84518110156122a65760008582815181106121565761215661472b565b6020026020010151905060008583815181106121745761217461472b565b6020908102919091018101516000848152808352604080822073ffffffffffffffffffffffffffffffffffffffff8e168352909352919091205490915081811015612241576040517f08c379a000000000000000000000000000000000000000000000000000000000815260206004820152602a60248201527f455243313135353a20696e73756666696369656e742062616c616e636520666f60448201527f72207472616e73666572000000000000000000000000000000000000000000006064820152608401610772565b60008381526020818152604080832073ffffffffffffffffffffffffffffffffffffffff8e8116855292528083208585039055908b1682528120805484929061228b908490614879565b925050819055505050508061229f90614789565b9050612139565b508473ffffffffffffffffffffffffffffffffffffffff168673ffffffffffffffffffffffffffffffffffffffff168273ffffffffffffffffffffffffffffffffffffffff167f4a39dc06d4c0dbc64b70af90fd698a233a518aa5d07e595d983b8c0526c8f7fb878760405161231d92919061488c565b60405180910390a46110e3818787878787613494565b600082815260056020908152604080832073ffffffffffffffffffffffffffffffffffffffff8516845290915290205460ff16610fc257600082815260056020908152604080832073ffffffffffffffffffffffffffffffffffffffff85168452909152902080547fffffffffffffffffffffffffffffffffffffffffffffffffffffffffffffff001660011790556123ca611c8d565b73ffffffffffffffffffffffffffffffffffffffff168173ffffffffffffffffffffffffffffffffffffffff16837f2f8788117e7eff1d82e926ec794901d17c78024a50270940304540a733656f0d60405160405180910390a45050565b600082815260056020908152604080832073ffffffffffffffffffffffffffffffffffffffff8516845290915290205460ff1615610fc257600082815260056020908152604080832073ffffffffffffffffffffffffffffffffffffffff85168452909152902080547fffffffffffffffffffffffffffffffffffffffffffffffffffffffffffffff001690556124bd611c8d565b73ffffffffffffffffffffffffffffffffffffffff168173ffffffffffffffffffffffffffffffffffffffff16837ff6391f5c32d9c69d2a47ea670b442974b53935d1edc7fd64eb21e047a839171b60405160405180910390a45050565b73ffffffffffffffffffffffffffffffffffffffff83166125be576040517f08c379a000000000000000000000000000000000000000000000000000000000815260206004820152602360248201527f455243313135353a206275726e2066726f6d20746865207a65726f206164647260448201527f65737300000000000000000000000000000000000000000000000000000000006064820152608401610772565b805182511461264f576040517f08c379a000000000000000000000000000000000000000000000000000000000815260206004820152602860248201527f455243313135353a2069647320616e6420616d6f756e7473206c656e6774682060448201527f6d69736d617463680000000000000000000000000000000000000000000000006064820152608401610772565b6000612659611c8d565b905061267981856000868660405180602001604052806000815250613152565b60005b83518110156127c75760008482815181106126995761269961472b565b6020026020010151905060008483815181106126b7576126b761472b565b6020908102919091018101516000848152808352604080822073ffffffffffffffffffffffffffffffffffffffff8c168352909352919091205490915081811015612783576040517f08c379a0000000000000000000000000000000000000000000000000000000008152602060048201526024808201527f455243313135353a206275726e20616d6f756e7420657863656564732062616c60448201527f616e6365000000000000000000000000000000000000000000000000000000006064820152608401610772565b60009283526020838152604080852073ffffffffffffffffffffffffffffffffffffffff8b16865290915290922091039055806127bf81614789565b91505061267c565b50600073ffffffffffffffffffffffffffffffffffffffff168473ffffffffffffffffffffffffffffffffffffffff168273ffffffffffffffffffffffffffffffffffffffff167f4a39dc06d4c0dbc64b70af90fd698a233a518aa5d07e595d983b8c0526c8f7fb868660405161283f92919061488c565b60405180910390a46040805160208101909152600090526115eb565b8173ffffffffffffffffffffffffffffffffffffffff168373ffffffffffffffffffffffffffffffffffffffff1603612916576040517f08c379a000000000000000000000000000000000000000000000000000000000815260206004820152602960248201527f455243313135353a2073657474696e6720617070726f76616c2073746174757360448201527f20666f722073656c6600000000000000000000000000000000000000000000006064820152608401610772565b73ffffffffffffffffffffffffffffffffffffffff83811660008181526001602090815260408083209487168084529482529182902080547fffffffffffffffffffffffffffffffffffffffffffffffffffffffffffffff001686151590811790915591519182527f17307eab39ab6107e8899845ad3d59bd9653f200f220920489ca2b5937696c31910160405180910390a3505050565b73ffffffffffffffffffffffffffffffffffffffff8316612a51576040517f08c379a000000000000000000000000000000000000000000000000000000000815260206004820152602360248201527f455243313135353a206275726e2066726f6d20746865207a65726f206164647260448201527f65737300000000000000000000000000000000000000000000000000000000006064820152608401610772565b6000612a5b611c8d565b90506000612a6884613800565b90506000612a7584613800565b9050612a9583876000858560405180602001604052806000815250613152565b60008581526020818152604080832073ffffffffffffffffffffffffffffffffffffffff8a16845290915290205484811015612b52576040517f08c379a0000000000000000000000000000000000000000000000000000000008152602060048201526024808201527f455243313135353a206275726e20616d6f756e7420657863656564732062616c60448201527f616e6365000000000000000000000000000000000000000000000000000000006064820152608401610772565b60008681526020818152604080832073ffffffffffffffffffffffffffffffffffffffff8b81168086529184528285208a8703905582518b81529384018a90529092908816917fc3d58168c5ae7397731d063d5bbf3d657854427343f4c083240f7aacaa2d0f62910160405180910390a46040805160208101909152600090525b50505050505050565b73ffffffffffffffffffffffffffffffffffffffff8416612c7f576040517f08c379a000000000000000000000000000000000000000000000000000000000815260206004820152602160248201527f455243313135353a206d696e7420746f20746865207a65726f2061646472657360448201527f73000000000000000000000000000000000000000000000000000000000000006064820152608401610772565b6000612c89611c8d565b90506000612c9685613800565b90506000612ca385613800565b9050612cb483600089858589613152565b60008681526020818152604080832073ffffffffffffffffffffffffffffffffffffffff8b16845290915281208054879290612cf1908490614879565b9091555050604080518781526020810187905273ffffffffffffffffffffffffffffffffffffffff808a1692600092918716917fc3d58168c5ae7397731d063d5bbf3d657854427343f4c083240f7aacaa2d0f62910160405180910390a4612bd38360008989898961384b565b73ffffffffffffffffffffffffffffffffffffffff8416612e01576040517f08c379a000000000000000000000000000000000000000000000000000000000815260206004820152602560248201527f455243313135353a207472616e7366657220746f20746865207a65726f20616460448201527f64726573730000000000000000000000000000000000000000000000000000006064820152608401610772565b6000612e0b611c8d565b90506000612e1885613800565b90506000612e2585613800565b9050612e35838989858589613152565b60008681526020818152604080832073ffffffffffffffffffffffffffffffffffffffff8c16845290915290205485811015612ef3576040517f08c379a000000000000000000000000000000000000000000000000000000000815260206004820152602a60248201527f455243313135353a20696e73756666696369656e742062616c616e636520666f60448201527f72207472616e73666572000000000000000000000000000000000000000000006064820152608401610772565b60008781526020818152604080832073ffffffffffffffffffffffffffffffffffffffff8d8116855292528083208985039055908a16825281208054889290612f3d908490614879565b9091555050604080518881526020810188905273ffffffffffffffffffffffffffffffffffffffff808b16928c821692918816917fc3d58168c5ae7397731d063d5bbf3d657854427343f4c083240f7aacaa2d0f62910160405180910390a4612faa848a8a8a8a8a61384b565b505050505050505050565b60007fffffffff0000000000000000000000000000000000000000000000000000000082167fd9b67a2600000000000000000000000000000000000000000000000000000000148061304857507fffffffff0000000000000000000000000000000000000000000000000000000082167f0e89341c00000000000000000000000000000000000000000000000000000000145b806107ab57507f01ffc9a7000000000000000000000000000000000000000000000000000000007fffffffff000000000000000000000000000000000000000000000000000000008316146107ab565b600082815260056020908152604080832073ffffffffffffffffffffffffffffffffffffffff8516845290915290205460ff16610fc2576130d8816139f8565b6130e3836020613a17565b6040516020016130f49291906148ba565b604080517fffffffffffffffffffffffffffffffffffffffffffffffffffffffffffffffe0818403018152908290527f08c379a00000000000000000000000000000000000000000000000000000000082526107729160040161404e565b60005b8351811015612bd35760008482815181106131725761317261472b565b60200260200101519050613194816000908152600a6020526040902054421190565b806131b3575073ffffffffffffffffffffffffffffffffffffffff8716155b80613202575073ffffffffffffffffffffffffffffffffffffffff871660009081527fac8e794ba31870f30ba20c4fa377bc3bff1ba4bb9716c51c48ea6f1448c7532c602052604090205460ff165b80613251575073ffffffffffffffffffffffffffffffffffffffff871660009081527fa2411ca3d5dcfeda426b4d0b8d15b73b4bf9ce1c50001c7effc8044ae5a61c5b602052604090205460ff165b80613270575073ffffffffffffffffffffffffffffffffffffffff8616155b6132fc576040517f08c379a000000000000000000000000000000000000000000000000000000000815260206004820152602360248201527f4974656d206973206e6f742063757272656e746c79207472616e73666572616260448201527f6c652e00000000000000000000000000000000000000000000000000000000006064820152608401610772565b73ffffffffffffffffffffffffffffffffffffffff87166133625761332081611c0c565b8382815181106133325761333261472b565b602002602001015160096000838152602001908152602001600020600082825461335c9190614879565b90915550505b73ffffffffffffffffffffffffffffffffffffffff86166134815783828151811061338f5761338f61472b565b602002602001015160096000838152602001908152602001600020541015613439576040517f08c379a000000000000000000000000000000000000000000000000000000000815260206004820152602760248201527f455243313135353a206275726e20616d6f756e7420657863656564732069746560448201527f6d537570706c79000000000000000000000000000000000000000000000000006064820152608401610772565b83828151811061344b5761344b61472b565b602002602001015160096000838152602001908152602001600020546134719190614866565b6000828152600960205260409020555b508061348c81614789565b915050613155565b73ffffffffffffffffffffffffffffffffffffffff84163b156110e3576040517fbc197c8100000000000000000000000000000000000000000000000000000000815273ffffffffffffffffffffffffffffffffffffffff85169063bc197c819061350b908990899088908890889060040161493b565b6020604051808303816000875af1925050508015613564575060408051601f3d9081017fffffffffffffffffffffffffffffffffffffffffffffffffffffffffffffffe0168201909252613561918101906149a6565b60015b61364d576135706149c3565b806308c379a0036135c357506135846149de565b8061358f57506135c5565b806040517f08c379a0000000000000000000000000000000000000000000000000000000008152600401610772919061404e565b505b6040517f08c379a000000000000000000000000000000000000000000000000000000000815260206004820152603460248201527f455243313135353a207472616e7366657220746f206e6f6e2d4552433131353560448201527f526563656976657220696d706c656d656e7465720000000000000000000000006064820152608401610772565b7fffffffff0000000000000000000000000000000000000000000000000000000081167fbc197c810000000000000000000000000000000000000000000000000000000014612bd3576040517f08c379a000000000000000000000000000000000000000000000000000000000815260206004820152602860248201527f455243313135353a204552433131353552656365697665722072656a6563746560448201527f6420746f6b656e730000000000000000000000000000000000000000000000006064820152608401610772565b6000807a184f03e93ff9f4daa797ed6e38ed64bf6a1f0100000000000000008310613767577a184f03e93ff9f4daa797ed6e38ed64bf6a1f010000000000000000830492506040015b6d04ee2d6d415b85acef81000000008310613793576d04ee2d6d415b85acef8100000000830492506020015b662386f26fc1000083106137b157662386f26fc10000830492506010015b6305f5e10083106137c9576305f5e100830492506008015b61271083106137dd57612710830492506004015b606483106137ef576064830492506002015b600a83106107ab5760010192915050565b6040805160018082528183019092526060916000919060208083019080368337019050509050828160008151811061383a5761383a61472b565b602090810291909101015292915050565b73ffffffffffffffffffffffffffffffffffffffff84163b156110e3576040517ff23a6e6100000000000000000000000000000000000000000000000000000000815273ffffffffffffffffffffffffffffffffffffffff85169063f23a6e61906138c29089908990889088908890600401614a86565b6020604051808303816000875af192505050801561391b575060408051601f3d9081017fffffffffffffffffffffffffffffffffffffffffffffffffffffffffffffffe0168201909252613918918101906149a6565b60015b613927576135706149c3565b7fffffffff0000000000000000000000000000000000000000000000000000000081167ff23a6e610000000000000000000000000000000000000000000000000000000014612bd3576040517f08c379a000000000000000000000000000000000000000000000000000000000815260206004820152602860248201527f455243313135353a204552433131353552656365697665722072656a6563746560448201527f6420746f6b656e730000000000000000000000000000000000000000000000006064820152608401610772565b60606107ab73ffffffffffffffffffffffffffffffffffffffff831660145b60606000613a26836002614ad6565b613a31906002614879565b67ffffffffffffffff811115613a4957613a49613cff565b6040519080825280601f01601f191660200182016040528015613a73576020820181803683370190505b5090507f300000000000000000000000000000000000000000000000000000000000000081600081518110613aaa57613aaa61472b565b60200101907effffffffffffffffffffffffffffffffffffffffffffffffffffffffffffff1916908160001a9053507f780000000000000000000000000000000000000000000000000000000000000081600181518110613b0d57613b0d61472b565b60200101907effffffffffffffffffffffffffffffffffffffffffffffffffffffffffffff1916908160001a9053506000613b49846002614ad6565b613b54906001614879565b90505b6001811115613bf1577f303132333435363738396162636465660000000000000000000000000000000085600f1660108110613b9557613b9561472b565b1a60f81b828281518110613bab57613bab61472b565b60200101907effffffffffffffffffffffffffffffffffffffffffffffffffffffffffffff1916908160001a90535060049490941c93613bea81614b13565b9050613b57565b508315613c5a576040517f08c379a000000000000000000000000000000000000000000000000000000000815260206004820181905260248201527f537472696e67733a20686578206c656e67746820696e73756666696369656e746044820152606401610772565b9392505050565b803573ffffffffffffffffffffffffffffffffffffffff81168114613c8557600080fd5b919050565b60008060408385031215613c9d57600080fd5b613ca683613c61565b946020939093013593505050565b7fffffffff0000000000000000000000000000000000000000000000000000000081168114611c0957600080fd5b600060208284031215613cf457600080fd5b8135613c5a81613cb4565b7f4e487b7100000000000000000000000000000000000000000000000000000000600052604160045260246000fd5b7fffffffffffffffffffffffffffffffffffffffffffffffffffffffffffffffe0601f830116810181811067ffffffffffffffff82111715613d7257613d72613cff565b6040525050565b600082601f830112613d8a57600080fd5b813567ffffffffffffffff811115613da457613da4613cff565b604051613dd960207fffffffffffffffffffffffffffffffffffffffffffffffffffffffffffffffe0601f8501160182613d2e565b818152846020838601011115613dee57600080fd5b816020850160208301376000918101602001919091529392505050565b60008060408385031215613e1e57600080fd5b82359150602083013567ffffffffffffffff811115613e3c57600080fd5b613e4885828601613d79565b9150509250929050565b6000602080830181845280855180835260408601915060408160051b87010192508387016000805b83811015613eec578886037fffffffffffffffffffffffffffffffffffffffffffffffffffffffffffffffc0018552825180518088529088019088880190845b81811015613ed65783518352928a0192918a0191600101613eba565b5090975050509386019391860191600101613e7a565b509398975050505050505050565b60008083601f840112613f0c57600080fd5b50813567ffffffffffffffff811115613f2457600080fd5b6020830191508360208260051b8501011115613f3f57600080fd5b9250929050565b600080600080600060608688031215613f5e57600080fd5b613f6786613c61565b9450602086013567ffffffffffffffff80821115613f8457600080fd5b613f9089838a01613efa565b90965094506040880135915080821115613fa957600080fd5b50613fb688828901613efa565b969995985093965092949392505050565b600060208284031215613fd957600080fd5b5035919050565b60005b83811015613ffb578181015183820152602001613fe3565b50506000910152565b6000815180845261401c816020860160208601613fe0565b601f017fffffffffffffffffffffffffffffffffffffffffffffffffffffffffffffffe0169290920160200192915050565b602081526000613c5a6020830184614004565b6000806040838503121561407457600080fd5b50508035926020909101359150565b600067ffffffffffffffff82111561409d5761409d613cff565b5060051b60200190565b600082601f8301126140b857600080fd5b813560206140c582614083565b6040516140d28282613d2e565b83815260059390931b85018201928281019150868411156140f257600080fd5b8286015b8481101561410d57803583529183019183016140f6565b509695505050505050565b600080600080600060a0868803121561413057600080fd5b61413986613c61565b945061414760208701613c61565b9350604086013567ffffffffffffffff8082111561416457600080fd5b61417089838a016140a7565b9450606088013591508082111561418657600080fd5b61419289838a016140a7565b935060808801359150808211156141a857600080fd5b506141b588828901613d79565b9150509295509295909350565b600080604083850312156141d557600080fd5b823591506141e560208401613c61565b90509250929050565b6000806040838503121561420157600080fd5b823567ffffffffffffffff8082111561421957600080fd5b818501915085601f83011261422d57600080fd5b8135602061423a82614083565b6040516142478282613d2e565b83815260059390931b850182019282810191508984111561426757600080fd5b948201945b8386101561428c5761427d86613c61565b8252948201949082019061426c565b965050860135925050808211156142a257600080fd5b50613e48858286016140a7565b600081518084526020808501945080840160005b838110156142df578151875295820195908201906001016142c3565b509495945050505050565b602081526000613c5a60208301846142af565b60006020828403121561430f57600080fd5b613c5a82613c61565b6000806040838503121561432b57600080fd5b61433483613c61565b91506020830135801515811461434957600080fd5b809150509250929050565b60006020828403121561436657600080fd5b813567ffffffffffffffff81111561437d57600080fd5b61438984828501613d79565b949350505050565b60008060008060008060006080888a0312156143ac57600080fd5b6143b588613c61565b9650602088013567ffffffffffffffff808211156143d257600080fd5b6143de8b838c01613efa565b909850965060408a01359150808211156143f757600080fd5b6144038b838c01613efa565b909650945060608a013591508082111561441c57600080fd5b506144298a828b01613efa565b989b979a50959850939692959293505050565b60008060006060848603121561445157600080fd5b61445a84613c61565b95602085013595506040909401359392505050565b6000602080830181845280855180835260408601915060408160051b870101925083870160005b828110156144e2577fffffffffffffffffffffffffffffffffffffffffffffffffffffffffffffffc08886030184526144d0858351614004565b94509285019290850190600101614496565b5092979650505050505050565b6000806040838503121561450257600080fd5b61450b83613c61565b91506141e560208401613c61565b600080600080600060a0868803121561453157600080fd5b61453a86613c61565b945061454860208701613c61565b93506040860135925060608601359150608086013567ffffffffffffffff81111561457257600080fd5b6141b588828901613d79565b600181811c9082168061459257607f821691505b602082108103610999577f4e487b7100000000000000000000000000000000000000000000000000000000600052602260045260246000fd5b601f82111561085357600081815260208120601f850160051c810160208610156145f25750805b601f850160051c820191505b818110156110e3578281556001016145fe565b815167ffffffffffffffff81111561462b5761462b613cff565b61463f81614639845461457e565b846145cb565b602080601f831160018114614692576000841561465c5750858301515b7fffffffffffffffffffffffffffffffffffffffffffffffffffffffffffffffff600386901b1c1916600185901b1785556110e3565b6000858152602081207fffffffffffffffffffffffffffffffffffffffffffffffffffffffffffffffe08616915b828110156146df578886015182559484019460019091019084016146c0565b508582101561471b57878501517fffffffffffffffffffffffffffffffffffffffffffffffffffffffffffffffff600388901b60f8161c191681555b5050505050600190811b01905550565b7f4e487b7100000000000000000000000000000000000000000000000000000000600052603260045260246000fd5b7f4e487b7100000000000000000000000000000000000000000000000000000000600052601160045260246000fd5b60007fffffffffffffffffffffffffffffffffffffffffffffffffffffffffffffffff82036147ba576147ba61475a565b5060010190565b60008084546147cf8161457e565b600182811680156147e7576001811461481a57614849565b7fffffffffffffffffffffffffffffffffffffffffffffffffffffffffffffff0084168752821515830287019450614849565b8860005260208060002060005b858110156148405781548a820152908401908201614827565b50505082870194505b50505050835161485d818360208801613fe0565b01949350505050565b818103818111156107ab576107ab61475a565b808201808211156107ab576107ab61475a565b60408152600061489f60408301856142af565b82810360208401526148b181856142af565b95945050505050565b7f416363657373436f6e74726f6c3a206163636f756e74200000000000000000008152600083516148f2816017850160208801613fe0565b7f206973206d697373696e6720726f6c6520000000000000000000000000000000601791840191820152835161492f816028840160208801613fe0565b01602801949350505050565b600073ffffffffffffffffffffffffffffffffffffffff808816835280871660208401525060a0604083015261497460a08301866142af565b828103606084015261498681866142af565b9050828103608084015261499a8185614004565b98975050505050505050565b6000602082840312156149b857600080fd5b8151613c5a81613cb4565b600060033d1115611b9b5760046000803e5060005160e01c90565b600060443d10156149ec5790565b6040517ffffffffffffffffffffffffffffffffffffffffffffffffffffffffffffffffc803d016004833e81513d67ffffffffffffffff8160248401118184111715614a3a57505050505090565b8285019150815181811115614a525750505050505090565b843d8701016020828501011115614a6c5750505050505090565b614a7b60208286010187613d2e565b509095945050505050565b600073ffffffffffffffffffffffffffffffffffffffff808816835280871660208401525084604083015283606083015260a06080830152614acb60a0830184614004565b979650505050505050565b6000817fffffffffffffffffffffffffffffffffffffffffffffffffffffffffffffffff0483118215151615614b0e57614b0e61475a565b500290565b600081614b2257614b2261475a565b507fffffffffffffffffffffffffffffffffffffffffffffffffffffffffffffffff019056fea2646970667358221220ddf2f4dd723c6f3483cb43fdcf2a26fea15ccfdeea2531793444568108a2cc3864736f6c63430008100033",
  "linkReferences": {},
  "deployedLinkReferences": {}
}