{
  "_format": "hh-sol-artifact-1",
  "contractName": "ERC1155_Game_Items_Collection",
  "sourceName": "contracts/Items_Collection/ERC1155_Game_Items_Collection.sol",
  "abi": [
    {
      "inputs": [
        {
          "internalType": "address",
          "name": "_forwarder",
          "type": "address"
        },
        {
          "internalType": "bytes32",
          "name": "_systemId",
          "type": "bytes32"
        }
      ],
      "stateMutability": "nonpayable",
      "type": "constructor"
    },
    {
      "anonymous": false,
      "inputs": [
        {
          "indexed": true,
          "internalType": "address",
          "name": "account",
          "type": "address"
        },
        {
          "indexed": true,
          "internalType": "address",
          "name": "operator",
          "type": "address"
        },
        {
          "indexed": false,
          "internalType": "bool",
          "name": "approved",
          "type": "bool"
        }
      ],
      "name": "ApprovalForAll",
      "type": "event"
    },
    {
      "anonymous": false,
      "inputs": [
        {
          "indexed": true,
          "internalType": "bytes32",
          "name": "role",
          "type": "bytes32"
        },
        {
          "indexed": true,
          "internalType": "bytes32",
          "name": "previousAdminRole",
          "type": "bytes32"
        },
        {
          "indexed": true,
          "internalType": "bytes32",
          "name": "newAdminRole",
          "type": "bytes32"
        }
      ],
      "name": "RoleAdminChanged",
      "type": "event"
    },
    {
      "anonymous": false,
      "inputs": [
        {
          "indexed": true,
          "internalType": "bytes32",
          "name": "role",
          "type": "bytes32"
        },
        {
          "indexed": true,
          "internalType": "address",
          "name": "account",
          "type": "address"
        },
        {
          "indexed": true,
          "internalType": "address",
          "name": "sender",
          "type": "address"
        }
      ],
      "name": "RoleGranted",
      "type": "event"
    },
    {
      "anonymous": false,
      "inputs": [
        {
          "indexed": true,
          "internalType": "bytes32",
          "name": "role",
          "type": "bytes32"
        },
        {
          "indexed": true,
          "internalType": "address",
          "name": "account",
          "type": "address"
        },
        {
          "indexed": true,
          "internalType": "address",
          "name": "sender",
          "type": "address"
        }
      ],
      "name": "RoleRevoked",
      "type": "event"
    },
    {
      "anonymous": false,
      "inputs": [
        {
          "indexed": true,
          "internalType": "address",
          "name": "operator",
          "type": "address"
        },
        {
          "indexed": true,
          "internalType": "address",
          "name": "from",
          "type": "address"
        },
        {
          "indexed": true,
          "internalType": "address",
          "name": "to",
          "type": "address"
        },
        {
          "indexed": false,
          "internalType": "uint256[]",
          "name": "ids",
          "type": "uint256[]"
        },
        {
          "indexed": false,
          "internalType": "uint256[]",
          "name": "values",
          "type": "uint256[]"
        }
      ],
      "name": "TransferBatch",
      "type": "event"
    },
    {
      "anonymous": false,
      "inputs": [
        {
          "indexed": true,
          "internalType": "address",
          "name": "operator",
          "type": "address"
        },
        {
          "indexed": true,
          "internalType": "address",
          "name": "from",
          "type": "address"
        },
        {
          "indexed": true,
          "internalType": "address",
          "name": "to",
          "type": "address"
        },
        {
          "indexed": false,
          "internalType": "uint256",
          "name": "id",
          "type": "uint256"
        },
        {
          "indexed": false,
          "internalType": "uint256",
          "name": "value",
          "type": "uint256"
        }
      ],
      "name": "TransferSingle",
      "type": "event"
    },
    {
      "anonymous": false,
      "inputs": [
        {
          "indexed": false,
          "internalType": "string",
          "name": "value",
          "type": "string"
        },
        {
          "indexed": true,
          "internalType": "uint256",
          "name": "id",
          "type": "uint256"
        }
      ],
      "name": "URI",
      "type": "event"
    },
    {
      "inputs": [],
      "name": "DEFAULT_ADMIN_ROLE",
      "outputs": [
        {
          "internalType": "bytes32",
          "name": "",
          "type": "bytes32"
        }
      ],
      "stateMutability": "view",
      "type": "function"
    },
    {
      "inputs": [],
      "name": "allItemIds",
      "outputs": [
        {
          "internalType": "uint256[]",
          "name": "",
          "type": "uint256[]"
        }
      ],
      "stateMutability": "view",
      "type": "function"
    },
    {
      "inputs": [],
      "name": "allItemSupplies",
      "outputs": [
        {
          "internalType": "uint256[][]",
          "name": "",
          "type": "uint256[][]"
        }
      ],
      "stateMutability": "view",
      "type": "function"
    },
    {
      "inputs": [],
      "name": "allItemURIs",
      "outputs": [
        {
          "internalType": "string[]",
          "name": "",
          "type": "string[]"
        }
      ],
      "stateMutability": "view",
      "type": "function"
    },
    {
      "inputs": [
        {
          "internalType": "address",
          "name": "account",
          "type": "address"
        },
        {
          "internalType": "uint256",
          "name": "id",
          "type": "uint256"
        }
      ],
      "name": "balanceOf",
      "outputs": [
        {
          "internalType": "uint256",
          "name": "",
          "type": "uint256"
        }
      ],
      "stateMutability": "view",
      "type": "function"
    },
    {
      "inputs": [
        {
          "internalType": "address",
          "name": "_address",
          "type": "address"
        }
      ],
      "name": "balanceOfAll",
      "outputs": [
        {
          "internalType": "uint256[][]",
          "name": "",
          "type": "uint256[][]"
        }
      ],
      "stateMutability": "view",
      "type": "function"
    },
    {
      "inputs": [
        {
          "internalType": "address[]",
          "name": "accounts",
          "type": "address[]"
        },
        {
          "internalType": "uint256[]",
          "name": "ids",
          "type": "uint256[]"
        }
      ],
      "name": "balanceOfBatch",
      "outputs": [
        {
          "internalType": "uint256[]",
          "name": "",
          "type": "uint256[]"
        }
      ],
      "stateMutability": "view",
      "type": "function"
    },
    {
      "inputs": [
        {
          "internalType": "address",
          "name": "_fromAddress",
          "type": "address"
        },
        {
          "internalType": "address[]",
          "name": "_toAddresses",
          "type": "address[]"
        },
        {
          "internalType": "uint256[]",
          "name": "_itemIds",
          "type": "uint256[]"
        },
        {
          "internalType": "uint256[]",
          "name": "_quantitiesPerAddress",
          "type": "uint256[]"
        }
      ],
      "name": "bulkSafeBatchTransferFrom",
      "outputs": [],
      "stateMutability": "nonpayable",
      "type": "function"
    },
    {
      "inputs": [
        {
          "internalType": "address",
          "name": "_fromAddress",
          "type": "address"
        },
        {
          "internalType": "uint256[]",
          "name": "_itemIds",
          "type": "uint256[]"
        },
        {
          "internalType": "uint256[]",
          "name": "_quantities",
          "type": "uint256[]"
        }
      ],
      "name": "burnBatchFromAddress",
      "outputs": [],
      "stateMutability": "nonpayable",
      "type": "function"
    },
    {
      "inputs": [
        {
          "internalType": "address",
          "name": "_fromAddress",
          "type": "address"
        },
        {
          "internalType": "uint256",
          "name": "_itemId",
          "type": "uint256"
        },
        {
          "internalType": "uint256",
          "name": "_quantity",
          "type": "uint256"
        }
      ],
      "name": "burnFromAddress",
      "outputs": [],
      "stateMutability": "nonpayable",
      "type": "function"
    },
    {
      "inputs": [
        {
          "internalType": "bytes32",
          "name": "role",
          "type": "bytes32"
        }
      ],
      "name": "getRoleAdmin",
      "outputs": [
        {
          "internalType": "bytes32",
          "name": "",
          "type": "bytes32"
        }
      ],
      "stateMutability": "view",
      "type": "function"
    },
    {
      "inputs": [
        {
          "internalType": "bytes32",
          "name": "role",
          "type": "bytes32"
        },
        {
          "internalType": "address",
          "name": "account",
          "type": "address"
        }
      ],
      "name": "grantRole",
      "outputs": [],
      "stateMutability": "nonpayable",
      "type": "function"
    },
    {
      "inputs": [
        {
          "internalType": "bytes32",
          "name": "role",
          "type": "bytes32"
        },
        {
          "internalType": "address",
          "name": "account",
          "type": "address"
        }
      ],
      "name": "hasRole",
      "outputs": [
        {
          "internalType": "bool",
          "name": "",
          "type": "bool"
        }
      ],
      "stateMutability": "view",
      "type": "function"
    },
    {
      "inputs": [
        {
          "internalType": "address",
          "name": "account",
          "type": "address"
        },
        {
          "internalType": "address",
          "name": "operator",
          "type": "address"
        }
      ],
      "name": "isApprovedForAll",
      "outputs": [
        {
          "internalType": "bool",
          "name": "",
          "type": "bool"
        }
      ],
      "stateMutability": "view",
      "type": "function"
    },
    {
      "inputs": [
        {
          "internalType": "uint256",
          "name": "_itemId",
          "type": "uint256"
        }
      ],
      "name": "isItemTransferrable",
      "outputs": [
        {
          "internalType": "bool",
          "name": "",
          "type": "bool"
        }
      ],
      "stateMutability": "view",
      "type": "function"
    },
    {
      "inputs": [
        {
          "internalType": "address",
          "name": "forwarder",
          "type": "address"
        }
      ],
      "name": "isTrustedForwarder",
      "outputs": [
        {
          "internalType": "bool",
          "name": "",
          "type": "bool"
        }
      ],
      "stateMutability": "view",
      "type": "function"
    },
    {
      "inputs": [],
      "name": "itemBaseURI",
      "outputs": [
        {
          "internalType": "string",
          "name": "",
          "type": "string"
        }
      ],
      "stateMutability": "view",
      "type": "function"
    },
    {
      "inputs": [
        {
          "internalType": "uint256",
          "name": "",
          "type": "uint256"
        }
      ],
      "name": "itemExists",
      "outputs": [
        {
          "internalType": "bool",
          "name": "",
          "type": "bool"
        }
      ],
      "stateMutability": "view",
      "type": "function"
    },
    {
      "inputs": [
        {
          "internalType": "uint256",
          "name": "",
          "type": "uint256"
        }
      ],
      "name": "itemIds",
      "outputs": [
        {
          "internalType": "uint256",
          "name": "",
          "type": "uint256"
        }
      ],
      "stateMutability": "view",
      "type": "function"
    },
    {
      "inputs": [
        {
          "internalType": "uint256",
          "name": "",
          "type": "uint256"
        }
      ],
      "name": "itemSupplies",
      "outputs": [
        {
          "internalType": "uint256",
          "name": "",
          "type": "uint256"
        }
      ],
      "stateMutability": "view",
      "type": "function"
    },
    {
      "inputs": [
        {
          "internalType": "uint256",
          "name": "",
          "type": "uint256"
        }
      ],
      "name": "itemTransferTimelocks",
      "outputs": [
        {
          "internalType": "uint256",
          "name": "",
          "type": "uint256"
        }
      ],
      "stateMutability": "view",
      "type": "function"
    },
    {
      "inputs": [
        {
          "internalType": "address",
          "name": "_toAddress",
          "type": "address"
        },
        {
          "internalType": "uint256[]",
          "name": "_itemIds",
          "type": "uint256[]"
        },
        {
          "internalType": "uint256[]",
          "name": "_quantities",
          "type": "uint256[]"
        }
      ],
      "name": "mintBatchToAddress",
      "outputs": [],
      "stateMutability": "nonpayable",
      "type": "function"
    },
    {
      "inputs": [
        {
          "internalType": "address",
          "name": "_toAddress",
          "type": "address"
        },
        {
          "internalType": "uint256",
          "name": "_itemId",
          "type": "uint256"
        },
        {
          "internalType": "uint256",
          "name": "_quantity",
          "type": "uint256"
        }
      ],
      "name": "mintToAddress",
      "outputs": [],
      "stateMutability": "nonpayable",
      "type": "function"
    },
    {
      "inputs": [
        {
          "internalType": "uint256",
          "name": "_itemIdsStartIndexInclusive",
          "type": "uint256"
        },
        {
          "internalType": "uint256",
          "name": "_limit",
          "type": "uint256"
        }
      ],
      "name": "paginateItemIds",
      "outputs": [
        {
          "internalType": "uint256[]",
          "name": "",
          "type": "uint256[]"
        }
      ],
      "stateMutability": "view",
      "type": "function"
    },
    {
      "inputs": [
        {
          "internalType": "uint256",
          "name": "_itemIdsStartIndexInclusive",
          "type": "uint256"
        },
        {
          "internalType": "uint256",
          "name": "_limit",
          "type": "uint256"
        }
      ],
      "name": "paginateItemSupplies",
      "outputs": [
        {
          "internalType": "uint256[][]",
          "name": "",
          "type": "uint256[][]"
        }
      ],
      "stateMutability": "view",
      "type": "function"
    },
    {
      "inputs": [
        {
          "internalType": "uint256",
          "name": "_itemIdsStartIndexInclusive",
          "type": "uint256"
        },
        {
          "internalType": "uint256",
          "name": "_limit",
          "type": "uint256"
        }
      ],
      "name": "paginateItemURIs",
      "outputs": [
        {
          "internalType": "string[]",
          "name": "",
          "type": "string[]"
        }
      ],
      "stateMutability": "view",
      "type": "function"
    },
    {
      "inputs": [
        {
          "internalType": "bytes32",
          "name": "role",
          "type": "bytes32"
        },
        {
          "internalType": "address",
          "name": "account",
          "type": "address"
        }
      ],
      "name": "renounceRole",
      "outputs": [],
      "stateMutability": "nonpayable",
      "type": "function"
    },
    {
      "inputs": [
        {
          "internalType": "bytes32",
          "name": "role",
          "type": "bytes32"
        },
        {
          "internalType": "address",
          "name": "account",
          "type": "address"
        }
      ],
      "name": "revokeRole",
      "outputs": [],
      "stateMutability": "nonpayable",
      "type": "function"
    },
    {
      "inputs": [
        {
          "internalType": "address",
          "name": "from",
          "type": "address"
        },
        {
          "internalType": "address",
          "name": "to",
          "type": "address"
        },
        {
          "internalType": "uint256[]",
          "name": "ids",
          "type": "uint256[]"
        },
        {
          "internalType": "uint256[]",
          "name": "amounts",
          "type": "uint256[]"
        },
        {
          "internalType": "bytes",
          "name": "data",
          "type": "bytes"
        }
      ],
      "name": "safeBatchTransferFrom",
      "outputs": [],
      "stateMutability": "nonpayable",
      "type": "function"
    },
    {
      "inputs": [
        {
          "internalType": "address",
          "name": "from",
          "type": "address"
        },
        {
          "internalType": "address",
          "name": "to",
          "type": "address"
        },
        {
          "internalType": "uint256",
          "name": "id",
          "type": "uint256"
        },
        {
          "internalType": "uint256",
          "name": "amount",
          "type": "uint256"
        },
        {
          "internalType": "bytes",
          "name": "data",
          "type": "bytes"
        }
      ],
      "name": "safeTransferFrom",
      "outputs": [],
      "stateMutability": "nonpayable",
      "type": "function"
    },
    {
      "inputs": [
        {
          "internalType": "address",
          "name": "operator",
          "type": "address"
        },
        {
          "internalType": "bool",
          "name": "approved",
          "type": "bool"
        }
      ],
      "name": "setApprovalForAll",
      "outputs": [],
      "stateMutability": "nonpayable",
      "type": "function"
    },
    {
      "inputs": [
        {
          "internalType": "string",
          "name": "_itemBaseURI",
          "type": "string"
        }
      ],
      "name": "setItemBaseURI",
      "outputs": [],
      "stateMutability": "nonpayable",
      "type": "function"
    },
    {
      "inputs": [
        {
          "internalType": "uint256",
          "name": "_itemId",
          "type": "uint256"
        },
        {
          "internalType": "uint256",
          "name": "_unlockTimestamp",
          "type": "uint256"
        }
      ],
      "name": "setItemTransferTimelock",
      "outputs": [],
      "stateMutability": "nonpayable",
      "type": "function"
    },
    {
      "inputs": [
        {
          "internalType": "uint256",
          "name": "_itemId",
          "type": "uint256"
        },
        {
          "internalType": "string",
          "name": "_uri",
          "type": "string"
        }
      ],
      "name": "setItemURI",
      "outputs": [],
      "stateMutability": "nonpayable",
      "type": "function"
    },
    {
      "inputs": [
        {
          "internalType": "bytes4",
          "name": "interfaceId",
          "type": "bytes4"
        }
      ],
      "name": "supportsInterface",
      "outputs": [
        {
          "internalType": "bool",
          "name": "",
          "type": "bool"
        }
      ],
      "stateMutability": "view",
      "type": "function"
    },
    {
      "inputs": [],
      "name": "systemId",
      "outputs": [
        {
          "internalType": "bytes32",
          "name": "",
          "type": "bytes32"
        }
      ],
      "stateMutability": "view",
      "type": "function"
    },
    {
      "inputs": [],
      "name": "totalItemIds",
      "outputs": [
        {
          "internalType": "uint256",
          "name": "",
          "type": "uint256"
        }
      ],
      "stateMutability": "view",
      "type": "function"
    },
    {
      "inputs": [
        {
          "internalType": "address",
          "name": "_newTrustedForwarder",
          "type": "address"
        }
      ],
      "name": "upgradeTrustedForwarder",
      "outputs": [],
      "stateMutability": "nonpayable",
      "type": "function"
    },
    {
      "inputs": [
        {
          "internalType": "uint256",
          "name": "_itemId",
          "type": "uint256"
        }
      ],
      "name": "uri",
      "outputs": [
        {
          "internalType": "string",
          "name": "",
          "type": "string"
        }
      ],
      "stateMutability": "view",
      "type": "function"
    }
  ],
  "bytecode": "0x60806040523480156200001157600080fd5b5060405162004ea438038062004ea48339810160408190526200003491620001e4565b8082604051806020016040528060008152506200005781620000c860201b60201c565b50600380546001600160a01b0319166001600160a01b03929092169190911790556004556200009160006200008b620000da565b620000f6565b620000c07fc9fc9949603a50f5cc3a96f774f1d68287789a241d2082dc81d0fb19a53bcf2b6200008b620000da565b505062000391565b6002620000d68282620002c5565b5050565b6000620000f16200010260201b62001ae41760201c565b905090565b620000d682826200013a565b6003546000906001600160a01b0316330362000125575060131936013560601c90565b620000f1620001e060201b62001b3e1760201c565b60008281526005602090815260408083206001600160a01b038516845290915290205460ff16620000d65760008281526005602090815260408083206001600160a01b03851684529091529020805460ff191660011790556200019c620000da565b6001600160a01b0316816001600160a01b0316837f2f8788117e7eff1d82e926ec794901d17c78024a50270940304540a733656f0d60405160405180910390a45050565b3390565b60008060408385031215620001f857600080fd5b82516001600160a01b03811681146200021057600080fd5b6020939093015192949293505050565b634e487b7160e01b600052604160045260246000fd5b600181811c908216806200024b57607f821691505b6020821081036200026c57634e487b7160e01b600052602260045260246000fd5b50919050565b601f821115620002c057600081815260208120601f850160051c810160208610156200029b5750805b601f850160051c820191505b81811015620002bc57828155600101620002a7565b5050505b505050565b81516001600160401b03811115620002e157620002e162000220565b620002f981620002f2845462000236565b8462000272565b602080601f831160018114620003315760008415620003185750858301515b600019600386901b1c1916600185901b178555620002bc565b600085815260208120601f198616915b82811015620003625788860151825594840194600190910190840162000341565b5085821015620003815787850151600019600388901b60f8161c191681555b5050505050600190811b01905550565b614b0380620003a16000396000f3fe608060405234801561001057600080fd5b50600436106102ac5760003560e01c8063843bd6411161017b578063b3dc00fe116100d8578063dc7aa9ef1161008c578063efa52e9011610071578063efa52e9014610643578063f242432a1461064b578063fe992c981461065e57600080fd5b8063dc7aa9ef146105e7578063e985e9c5146105fa57600080fd5b8063bbdc8276116100bd578063bbdc8276146105ac578063d547741f146105b4578063d8e14175146105c757600080fd5b8063b3dc00fe14610586578063b9babeba1461059957600080fd5b8063a22cb4651161012f578063aa2a7eea11610114578063aa2a7eea1461053e578063ae06363f14610551578063b1da7a551461057357600080fd5b8063a22cb46514610518578063a9c47d121461052b57600080fd5b806391d148541161016057806391d14854146104b7578063951549b9146104fd578063a217fddf1461051057600080fd5b8063843bd6411461048c5780638c892cfd146104af57600080fd5b80632eb2c2d6116102295780634b7c78dc116101dd578063572b6c05116101c2578063572b6c051461042a57806358ec07c7146104595780637bc6cb741461047957600080fd5b80634b7c78dc146103f75780634e1273f41461040a57600080fd5b806336568abe1161020e57806336568abe146103d357806339f898bc146103e657806348e1219a146103ef57600080fd5b80632eb2c2d6146103ad5780632f2ff15d146103c057600080fd5b806308f427c71161028057806313f2f6bd1161026557806313f2f6bd146103575780632257eb7e1461036a578063248a9ca31461038a57600080fd5b806308f427c7146103245780630e89341c1461033757600080fd5b8062fdd58e146102b157806301ffc9a7146102d757806303cb92fc146102fa5780630515cf8d1461030f575b600080fd5b6102c46102bf366004613bc0565b610671565b6040519081526020015b60405180910390f35b6102ea6102e5366004613c18565b610751565b60405190151581526020016102ce565b61030d610308366004613d41565b6107a7565b005b6103176107f8565b6040516102ce9190613d88565b61030d610332366004613e7c565b61093f565b61034a610345366004613efd565b610a86565b6040516102ce9190613f84565b610317610365366004613f97565b610c0a565b6102c4610378366004613efd565b60096020526000908152604090205481565b6102c4610398366004613efd565b60009081526005602052604090206001015490565b61030d6103bb36600461404e565b610d90565b61030d6103ce3660046140f8565b610e71565b61030d6103e13660046140f8565b610e96565b6102c460045481565b6006546102c4565b61030d610405366004613e7c565b610f66565b61041d610418366004614124565b61108b565b6040516102ce9190614220565b6102ea610438366004614233565b60035473ffffffffffffffffffffffffffffffffffffffff91821691161490565b6102c4610467366004613efd565b600a6020526000908152604090205481565b61030d610487366004613f97565b6111e3565b6102ea61049a366004613efd565b60086020526000908152604090205460ff1681565b61041d611220565b6102ea6104c53660046140f8565b600091825260056020908152604080842073ffffffffffffffffffffffffffffffffffffffff93909316845291905290205460ff1690565b61041d61050b366004613f97565b611278565b6102c4600081565b61030d61052636600461424e565b61135a565b61030d61053936600461428a565b61136c565b61030d61054c366004614233565b611378565b6102ea61055f366004613efd565b6000908152600a6020526040902054421190565b61030d6105813660046142bf565b6113e6565b6102c4610594366004613efd565b6114b0565b61030d6105a736600461436a565b6114d1565b61034a611591565b61030d6105c23660046140f8565b61161f565b6105da6105d5366004613f97565b611644565b6040516102ce919061439d565b61030d6105f536600461436a565b611739565b6102ea61060836600461441d565b73ffffffffffffffffffffffffffffffffffffffff918216600090815260016020908152604080832093909416825291909152205460ff1690565b6105da611818565b61030d610659366004614447565b6118c2565b61031761066c366004614233565b6119a3565b600073ffffffffffffffffffffffffffffffffffffffff831661071b576040517f08c379a000000000000000000000000000000000000000000000000000000000815260206004820152602a60248201527f455243313135353a2061646472657373207a65726f206973206e6f742061207660448201527f616c6964206f776e65720000000000000000000000000000000000000000000060648201526084015b60405180910390fd5b5060008181526020818152604080832073ffffffffffffffffffffffffffffffffffffffff861684529091529020545b92915050565b60007fffffffff0000000000000000000000000000000000000000000000000000000082167f909aa65d00000000000000000000000000000000000000000000000000000000148061074b575061074b82611b42565b7fc9fc9949603a50f5cc3a96f774f1d68287789a241d2082dc81d0fb19a53bcf2b6107d181611b98565b6000838152600b602052604090206107e9838261453f565b506107f383611bac565b505050565b60065460609060009067ffffffffffffffff81111561081957610819613c35565b60405190808252806020026020018201604052801561084c57816020015b60608152602001906001900390816108375790505b50905060005b600654811015610939576040805160028082526060820183526000926020830190803683370190505090506006828154811061089057610890614659565b9060005260206000200154816000815181106108ae576108ae614659565b60200260200101818152505060096000826000815181106108d1576108d1614659565b6020026020010151815260200190815260200160002054816001815181106108fb576108fb614659565b6020026020010181815250508083838151811061091a5761091a614659565b6020026020010181905250508080610931906146b7565b915050610852565b50919050565b61096b7fc9fc9949603a50f5cc3a96f774f1d68287789a241d2082dc81d0fb19a53bcf2b6104c5611c2d565b8061099d575061099d7fc9eb32e43bf5ecbceacf00b32281dfc5d6d700a0db676ea26ccf938a385ac3f76104c5611c2d565b610a03576040517f08c379a000000000000000000000000000000000000000000000000000000000815260206004820152601760248201527f4e6f7420617574686f72697a656420746f206d696e742e0000000000000000006044820152606401610712565b610a7f8585858080602002602001604051908101604052809392919081815260200183836020028082843760009201919091525050604080516020808902828101820190935288825290935088925087918291850190849080828437600092018290525060408051602081019091529081529250611c37915050565b5050505050565b60008181526008602052604090205460609060ff16610b27576040517f08c379a000000000000000000000000000000000000000000000000000000000815260206004820152602360248201527f555249207265717565737420666f72206e6f6e206578697374656e742069746560448201527f6d496400000000000000000000000000000000000000000000000000000000006064820152608401610712565b600060078054610b36906144ac565b905011610bd9576000828152600b602052604090208054610b56906144ac565b80601f0160208091040260200160405190810160405280929190818152602001828054610b82906144ac565b8015610bcf5780601f10610ba457610100808354040283529160200191610bcf565b820191906000526020600020905b815481529060010190602001808311610bb257829003601f168201915b505050505061074b565b6007610be483611eca565b604051602001610bf59291906146ef565b60405160208183030381529060405292915050565b6006546060906000908410610c20576000610c2e565b600654610c2e908590614794565b9050600083821115610c405783610c42565b815b905060008167ffffffffffffffff811115610c5f57610c5f613c35565b604051908082528060200260200182016040528015610c9257816020015b6060815260200190600190039081610c7d5790505b50905060005b82811015610d86576040805160028082526060820183526000926020830190803683370190505090506006610ccd838a6147a7565b81548110610cdd57610cdd614659565b906000526020600020015481600081518110610cfb57610cfb614659565b6020026020010181815250506009600082600081518110610d1e57610d1e614659565b602002602001015181526020019081526020016000205481600181518110610d4857610d48614659565b60200260200101818152505080838381518110610d6757610d67614659565b6020026020010181905250508080610d7e906146b7565b915050610c98565b5095945050505050565b610d98611c2d565b73ffffffffffffffffffffffffffffffffffffffff168573ffffffffffffffffffffffffffffffffffffffff161480610dd85750610dd885610608611c2d565b610e64576040517f08c379a000000000000000000000000000000000000000000000000000000000815260206004820152602f60248201527f455243313135353a2063616c6c6572206973206e6f7420746f6b656e206f776e60448201527f6572206e6f7220617070726f76656400000000000000000000000000000000006064820152608401610712565b610a7f8585858585612007565b600082815260056020526040902060010154610e8c81611b98565b6107f38383612352565b610e9e611c2d565b73ffffffffffffffffffffffffffffffffffffffff168173ffffffffffffffffffffffffffffffffffffffff1614610f58576040517f08c379a000000000000000000000000000000000000000000000000000000000815260206004820152602f60248201527f416363657373436f6e74726f6c3a2063616e206f6e6c792072656e6f756e636560448201527f20726f6c657320666f722073656c6600000000000000000000000000000000006064820152608401610712565b610f628282612447565b5050565b84610f6f611c2d565b73ffffffffffffffffffffffffffffffffffffffff168173ffffffffffffffffffffffffffffffffffffffff161480610faf5750610faf81610608611c2d565b611015576040517f08c379a000000000000000000000000000000000000000000000000000000000815260206004820152601560248201527f4e6f7420617070726f76656420746f206275726e2e00000000000000000000006044820152606401610712565b6110838686868080602002602001604051908101604052809392919081815260200183836020028082843760009201919091525050604080516020808a0282810182019093528982529093508992508891829185019084908082843760009201919091525061253a92505050565b505050505050565b6060815183511461111e576040517f08c379a000000000000000000000000000000000000000000000000000000000815260206004820152602960248201527f455243313135353a206163636f756e747320616e6420696473206c656e67746860448201527f206d69736d6174636800000000000000000000000000000000000000000000006064820152608401610712565b6000835167ffffffffffffffff81111561113a5761113a613c35565b604051908082528060200260200182016040528015611163578160200160208202803683370190505b50905060005b84518110156111db576111ae85828151811061118757611187614659565b60200260200101518583815181106111a1576111a1614659565b6020026020010151610671565b8282815181106111c0576111c0614659565b60209081029190910101526111d4816146b7565b9050611169565b509392505050565b7fc9fc9949603a50f5cc3a96f774f1d68287789a241d2082dc81d0fb19a53bcf2b61120d81611b98565b506000918252600a602052604090912055565b6060600680548060200260200160405190810160405280929190818152602001828054801561126e57602002820191906000526020600020905b81548152602001906001019080831161125a575b5050505050905090565b600654606090600090841061128e57600061129c565b60065461129c908590614794565b90506000838211156112ae57836112b0565b815b905060008167ffffffffffffffff8111156112cd576112cd613c35565b6040519080825280602002602001820160405280156112f6578160200160208202803683370190505b50905060005b82811015610d8657600661131082896147a7565b8154811061132057611320614659565b906000526020600020015482828151811061133d5761133d614659565b602090810291909101015280611352816146b7565b9150506112fc565b610f62611365611c2d565b838361287a565b6007610f62828261453f565b7fc9fc9949603a50f5cc3a96f774f1d68287789a241d2082dc81d0fb19a53bcf2b6113a281611b98565b600380547fffffffffffffffffffffffff00000000000000000000000000000000000000001673ffffffffffffffffffffffffffffffffffffffff84161790555050565b60005b858110156114a6576114948888888481811061140757611407614659565b905060200201602081019061141c9190614233565b87878080602002602001604051908101604052809392919081815260200183836020028082843760009201919091525050604080516020808b0282810182019093528a82529093508a925089918291850190849080828437600092018290525060408051602081019091529081529250610d90915050565b8061149e816146b7565b9150506113e9565b5050505050505050565b600681815481106114c057600080fd5b600091825260209091200154905081565b826114da611c2d565b73ffffffffffffffffffffffffffffffffffffffff168173ffffffffffffffffffffffffffffffffffffffff16148061151a575061151a81610608611c2d565b611580576040517f08c379a000000000000000000000000000000000000000000000000000000000815260206004820152601560248201527f4e6f7420617070726f76656420746f206275726e2e00000000000000000000006044820152606401610712565b61158b8484846129cd565b50505050565b6007805461159e906144ac565b80601f01602080910402602001604051908101604052809291908181526020018280546115ca906144ac565b80156116175780601f106115ec57610100808354040283529160200191611617565b820191906000526020600020905b8154815290600101906020018083116115fa57829003601f168201915b505050505081565b60008281526005602052604090206001015461163a81611b98565b6107f38383612447565b600654606090600090841061165a576000611668565b600654611668908590614794565b905060008382111561167a578361167c565b815b905060008167ffffffffffffffff81111561169957611699613c35565b6040519080825280602002602001820160405280156116cc57816020015b60608152602001906001900390816116b75790505b50905060005b82811015610d865761170960066116e9838a6147a7565b815481106116f9576116f9614659565b9060005260206000200154610a86565b82828151811061171b5761171b614659565b60200260200101819052508080611731906146b7565b9150506116d2565b6117657fc9fc9949603a50f5cc3a96f774f1d68287789a241d2082dc81d0fb19a53bcf2b6104c5611c2d565b8061179757506117977fc9eb32e43bf5ecbceacf00b32281dfc5d6d700a0db676ea26ccf938a385ac3f76104c5611c2d565b6117fd576040517f08c379a000000000000000000000000000000000000000000000000000000000815260206004820152601760248201527f4e6f7420617574686f72697a656420746f206d696e742e0000000000000000006044820152606401610712565b6107f383838360405180602001604052806000815250612bfb565b60065460609060009067ffffffffffffffff81111561183957611839613c35565b60405190808252806020026020018201604052801561186c57816020015b60608152602001906001900390816118575790505b50905060005b60065481101561093957611892600682815481106116f9576116f9614659565b8282815181106118a4576118a4614659565b602002602001018190525080806118ba906146b7565b915050611872565b6118ca611c2d565b73ffffffffffffffffffffffffffffffffffffffff168573ffffffffffffffffffffffffffffffffffffffff16148061190a575061190a85610608611c2d565b611996576040517f08c379a000000000000000000000000000000000000000000000000000000000815260206004820152602f60248201527f455243313135353a2063616c6c6572206973206e6f7420746f6b656e206f776e60448201527f6572206e6f7220617070726f76656400000000000000000000000000000000006064820152608401610712565b610a7f8585858585612d7d565b60065460609060009067ffffffffffffffff8111156119c4576119c4613c35565b6040519080825280602002602001820160405280156119f757816020015b60608152602001906001900390816119e25790505b50905060005b600654811015611add5760408051600280825260608201835260009260208301908036833701905050905060068281548110611a3b57611a3b614659565b906000526020600020015481600081518110611a5957611a59614659565b602002602001018181525050611a8c8560068481548110611a7c57611a7c614659565b9060005260206000200154610671565b81600181518110611a9f57611a9f614659565b60200260200101818152505080838381518110611abe57611abe614659565b6020026020010181905250508080611ad5906146b7565b9150506119fd565b5092915050565b60035460009073ffffffffffffffffffffffffffffffffffffffff163303611b3157507fffffffffffffffffffffffffffffffffffffffffffffffffffffffffffffffec36013560601c90565b503390565b905090565b90565b3390565b60007fffffffff0000000000000000000000000000000000000000000000000000000082167f7965db0b00000000000000000000000000000000000000000000000000000000148061074b575061074b82612fd4565b611ba981611ba4611c2d565b6130b7565b50565b60008181526008602052604090205460ff16611ba9576006805460018181019092557ff652222313e28459528d920b65115c16c04f3efc82aaedc97be59f3f377c0d3f01829055600082815260086020526040902080547fffffffffffffffffffffffffffffffffffffffffffffffffffffffffffffff0016909117905550565b6000611b36611ae4565b73ffffffffffffffffffffffffffffffffffffffff8416611cda576040517f08c379a000000000000000000000000000000000000000000000000000000000815260206004820152602160248201527f455243313135353a206d696e7420746f20746865207a65726f2061646472657360448201527f73000000000000000000000000000000000000000000000000000000000000006064820152608401610712565b8151835114611d6b576040517f08c379a000000000000000000000000000000000000000000000000000000000815260206004820152602860248201527f455243313135353a2069647320616e6420616d6f756e7473206c656e6774682060448201527f6d69736d617463680000000000000000000000000000000000000000000000006064820152608401610712565b6000611d75611c2d565b9050611d8681600087878787613189565b60005b8451811015611e3b57838181518110611da457611da4614659565b6020026020010151600080878481518110611dc157611dc1614659565b6020026020010151815260200190815260200160002060008873ffffffffffffffffffffffffffffffffffffffff1673ffffffffffffffffffffffffffffffffffffffff1681526020019081526020016000206000828254611e2391906147a7565b90915550819050611e33816146b7565b915050611d89565b508473ffffffffffffffffffffffffffffffffffffffff16600073ffffffffffffffffffffffffffffffffffffffff168273ffffffffffffffffffffffffffffffffffffffff167f4a39dc06d4c0dbc64b70af90fd698a233a518aa5d07e595d983b8c0526c8f7fb8787604051611eb39291906147ba565b60405180910390a4610a7f816000878787876134cb565b606081600003611f0d57505060408051808201909152600181527f3000000000000000000000000000000000000000000000000000000000000000602082015290565b8160005b8115611f375780611f21816146b7565b9150611f309050600a83614817565b9150611f11565b60008167ffffffffffffffff811115611f5257611f52613c35565b6040519080825280601f01601f191660200182016040528015611f7c576020820181803683370190505b5090505b8415611fff57611f91600183614794565b9150611f9e600a8661482b565b611fa99060306147a7565b60f81b818381518110611fbe57611fbe614659565b60200101907effffffffffffffffffffffffffffffffffffffffffffffffffffffffffffff1916908160001a905350611ff8600a86614817565b9450611f80565b949350505050565b8151835114612098576040517f08c379a000000000000000000000000000000000000000000000000000000000815260206004820152602860248201527f455243313135353a2069647320616e6420616d6f756e7473206c656e6774682060448201527f6d69736d617463680000000000000000000000000000000000000000000000006064820152608401610712565b73ffffffffffffffffffffffffffffffffffffffff841661213b576040517f08c379a000000000000000000000000000000000000000000000000000000000815260206004820152602560248201527f455243313135353a207472616e7366657220746f20746865207a65726f20616460448201527f64726573730000000000000000000000000000000000000000000000000000006064820152608401610712565b6000612145611c2d565b9050612155818787878787613189565b60005b84518110156122c557600085828151811061217557612175614659565b60200260200101519050600085838151811061219357612193614659565b6020908102919091018101516000848152808352604080822073ffffffffffffffffffffffffffffffffffffffff8e168352909352919091205490915081811015612260576040517f08c379a000000000000000000000000000000000000000000000000000000000815260206004820152602a60248201527f455243313135353a20696e73756666696369656e742062616c616e636520666f60448201527f72207472616e73666572000000000000000000000000000000000000000000006064820152608401610712565b60008381526020818152604080832073ffffffffffffffffffffffffffffffffffffffff8e8116855292528083208585039055908b168252812080548492906122aa9084906147a7565b92505081905550505050806122be906146b7565b9050612158565b508473ffffffffffffffffffffffffffffffffffffffff168673ffffffffffffffffffffffffffffffffffffffff168273ffffffffffffffffffffffffffffffffffffffff167f4a39dc06d4c0dbc64b70af90fd698a233a518aa5d07e595d983b8c0526c8f7fb878760405161233c9291906147ba565b60405180910390a46110838187878787876134cb565b600082815260056020908152604080832073ffffffffffffffffffffffffffffffffffffffff8516845290915290205460ff16610f6257600082815260056020908152604080832073ffffffffffffffffffffffffffffffffffffffff85168452909152902080547fffffffffffffffffffffffffffffffffffffffffffffffffffffffffffffff001660011790556123e9611c2d565b73ffffffffffffffffffffffffffffffffffffffff168173ffffffffffffffffffffffffffffffffffffffff16837f2f8788117e7eff1d82e926ec794901d17c78024a50270940304540a733656f0d60405160405180910390a45050565b600082815260056020908152604080832073ffffffffffffffffffffffffffffffffffffffff8516845290915290205460ff1615610f6257600082815260056020908152604080832073ffffffffffffffffffffffffffffffffffffffff85168452909152902080547fffffffffffffffffffffffffffffffffffffffffffffffffffffffffffffff001690556124dc611c2d565b73ffffffffffffffffffffffffffffffffffffffff168173ffffffffffffffffffffffffffffffffffffffff16837ff6391f5c32d9c69d2a47ea670b442974b53935d1edc7fd64eb21e047a839171b60405160405180910390a45050565b73ffffffffffffffffffffffffffffffffffffffff83166125dd576040517f08c379a000000000000000000000000000000000000000000000000000000000815260206004820152602360248201527f455243313135353a206275726e2066726f6d20746865207a65726f206164647260448201527f65737300000000000000000000000000000000000000000000000000000000006064820152608401610712565b805182511461266e576040517f08c379a000000000000000000000000000000000000000000000000000000000815260206004820152602860248201527f455243313135353a2069647320616e6420616d6f756e7473206c656e6774682060448201527f6d69736d617463680000000000000000000000000000000000000000000000006064820152608401610712565b6000612678611c2d565b905061269881856000868660405180602001604052806000815250613189565b60005b83518110156127e65760008482815181106126b8576126b8614659565b6020026020010151905060008483815181106126d6576126d6614659565b6020908102919091018101516000848152808352604080822073ffffffffffffffffffffffffffffffffffffffff8c1683529093529190912054909150818110156127a2576040517f08c379a0000000000000000000000000000000000000000000000000000000008152602060048201526024808201527f455243313135353a206275726e20616d6f756e7420657863656564732062616c60448201527f616e6365000000000000000000000000000000000000000000000000000000006064820152608401610712565b60009283526020838152604080852073ffffffffffffffffffffffffffffffffffffffff8b16865290915290922091039055806127de816146b7565b91505061269b565b50600073ffffffffffffffffffffffffffffffffffffffff168473ffffffffffffffffffffffffffffffffffffffff168273ffffffffffffffffffffffffffffffffffffffff167f4a39dc06d4c0dbc64b70af90fd698a233a518aa5d07e595d983b8c0526c8f7fb868660405161285e9291906147ba565b60405180910390a460408051602081019091526000905261158b565b8173ffffffffffffffffffffffffffffffffffffffff168373ffffffffffffffffffffffffffffffffffffffff1603612935576040517f08c379a000000000000000000000000000000000000000000000000000000000815260206004820152602960248201527f455243313135353a2073657474696e6720617070726f76616c2073746174757360448201527f20666f722073656c6600000000000000000000000000000000000000000000006064820152608401610712565b73ffffffffffffffffffffffffffffffffffffffff83811660008181526001602090815260408083209487168084529482529182902080547fffffffffffffffffffffffffffffffffffffffffffffffffffffffffffffff001686151590811790915591519182527f17307eab39ab6107e8899845ad3d59bd9653f200f220920489ca2b5937696c31910160405180910390a3505050565b73ffffffffffffffffffffffffffffffffffffffff8316612a70576040517f08c379a000000000000000000000000000000000000000000000000000000000815260206004820152602360248201527f455243313135353a206275726e2066726f6d20746865207a65726f206164647260448201527f65737300000000000000000000000000000000000000000000000000000000006064820152608401610712565b6000612a7a611c2d565b90506000612a8784613755565b90506000612a9484613755565b9050612ab483876000858560405180602001604052806000815250613189565b60008581526020818152604080832073ffffffffffffffffffffffffffffffffffffffff8a16845290915290205484811015612b71576040517f08c379a0000000000000000000000000000000000000000000000000000000008152602060048201526024808201527f455243313135353a206275726e20616d6f756e7420657863656564732062616c60448201527f616e6365000000000000000000000000000000000000000000000000000000006064820152608401610712565b60008681526020818152604080832073ffffffffffffffffffffffffffffffffffffffff8b81168086529184528285208a8703905582518b81529384018a90529092908816917fc3d58168c5ae7397731d063d5bbf3d657854427343f4c083240f7aacaa2d0f62910160405180910390a46040805160208101909152600090525b50505050505050565b73ffffffffffffffffffffffffffffffffffffffff8416612c9e576040517f08c379a000000000000000000000000000000000000000000000000000000000815260206004820152602160248201527f455243313135353a206d696e7420746f20746865207a65726f2061646472657360448201527f73000000000000000000000000000000000000000000000000000000000000006064820152608401610712565b6000612ca8611c2d565b90506000612cb585613755565b90506000612cc285613755565b9050612cd383600089858589613189565b60008681526020818152604080832073ffffffffffffffffffffffffffffffffffffffff8b16845290915281208054879290612d109084906147a7565b9091555050604080518781526020810187905273ffffffffffffffffffffffffffffffffffffffff808a1692600092918716917fc3d58168c5ae7397731d063d5bbf3d657854427343f4c083240f7aacaa2d0f62910160405180910390a4612bf2836000898989896137a0565b73ffffffffffffffffffffffffffffffffffffffff8416612e20576040517f08c379a000000000000000000000000000000000000000000000000000000000815260206004820152602560248201527f455243313135353a207472616e7366657220746f20746865207a65726f20616460448201527f64726573730000000000000000000000000000000000000000000000000000006064820152608401610712565b6000612e2a611c2d565b90506000612e3785613755565b90506000612e4485613755565b9050612e54838989858589613189565b60008681526020818152604080832073ffffffffffffffffffffffffffffffffffffffff8c16845290915290205485811015612f12576040517f08c379a000000000000000000000000000000000000000000000000000000000815260206004820152602a60248201527f455243313135353a20696e73756666696369656e742062616c616e636520666f60448201527f72207472616e73666572000000000000000000000000000000000000000000006064820152608401610712565b60008781526020818152604080832073ffffffffffffffffffffffffffffffffffffffff8d8116855292528083208985039055908a16825281208054889290612f5c9084906147a7565b9091555050604080518881526020810188905273ffffffffffffffffffffffffffffffffffffffff808b16928c821692918816917fc3d58168c5ae7397731d063d5bbf3d657854427343f4c083240f7aacaa2d0f62910160405180910390a4612fc9848a8a8a8a8a6137a0565b505050505050505050565b60007fffffffff0000000000000000000000000000000000000000000000000000000082167fd9b67a2600000000000000000000000000000000000000000000000000000000148061306757507fffffffff0000000000000000000000000000000000000000000000000000000082167f0e89341c00000000000000000000000000000000000000000000000000000000145b8061074b57507f01ffc9a7000000000000000000000000000000000000000000000000000000007fffffffff0000000000000000000000000000000000000000000000000000000083161461074b565b600082815260056020908152604080832073ffffffffffffffffffffffffffffffffffffffff8516845290915290205460ff16610f625761310f8173ffffffffffffffffffffffffffffffffffffffff16601461394d565b61311a83602061394d565b60405160200161312b92919061483f565b604080517fffffffffffffffffffffffffffffffffffffffffffffffffffffffffffffffe0818403018152908290527f08c379a000000000000000000000000000000000000000000000000000000000825261071291600401613f84565b60005b8351811015612bf25760008482815181106131a9576131a9614659565b602002602001015190506131cb816000908152600a6020526040902054421190565b806131ea575073ffffffffffffffffffffffffffffffffffffffff8716155b80613239575073ffffffffffffffffffffffffffffffffffffffff871660009081527fac8e794ba31870f30ba20c4fa377bc3bff1ba4bb9716c51c48ea6f1448c7532c602052604090205460ff165b80613288575073ffffffffffffffffffffffffffffffffffffffff871660009081527fa2411ca3d5dcfeda426b4d0b8d15b73b4bf9ce1c50001c7effc8044ae5a61c5b602052604090205460ff165b806132a7575073ffffffffffffffffffffffffffffffffffffffff8616155b613333576040517f08c379a000000000000000000000000000000000000000000000000000000000815260206004820152602360248201527f4974656d206973206e6f742063757272656e746c79207472616e73666572616260448201527f6c652e00000000000000000000000000000000000000000000000000000000006064820152608401610712565b73ffffffffffffffffffffffffffffffffffffffff87166133995761335781611bac565b83828151811061336957613369614659565b602002602001015160096000838152602001908152602001600020600082825461339391906147a7565b90915550505b73ffffffffffffffffffffffffffffffffffffffff86166134b8578382815181106133c6576133c6614659565b602002602001015160096000838152602001908152602001600020541015613470576040517f08c379a000000000000000000000000000000000000000000000000000000000815260206004820152602760248201527f455243313135353a206275726e20616d6f756e7420657863656564732069746560448201527f6d537570706c79000000000000000000000000000000000000000000000000006064820152608401610712565b83828151811061348257613482614659565b602002602001015160096000838152602001908152602001600020546134a89190614794565b6000828152600960205260409020555b50806134c3816146b7565b91505061318c565b73ffffffffffffffffffffffffffffffffffffffff84163b15611083576040517fbc197c8100000000000000000000000000000000000000000000000000000000815273ffffffffffffffffffffffffffffffffffffffff85169063bc197c819061354290899089908890889088906004016148c0565b6020604051808303816000875af192505050801561359b575060408051601f3d9081017fffffffffffffffffffffffffffffffffffffffffffffffffffffffffffffffe01682019092526135989181019061492b565b60015b613684576135a7614948565b806308c379a0036135fa57506135bb614963565b806135c657506135fc565b806040517f08c379a00000000000000000000000000000000000000000000000000000000081526004016107129190613f84565b505b6040517f08c379a000000000000000000000000000000000000000000000000000000000815260206004820152603460248201527f455243313135353a207472616e7366657220746f206e6f6e204552433131353560448201527f526563656976657220696d706c656d656e7465720000000000000000000000006064820152608401610712565b7fffffffff0000000000000000000000000000000000000000000000000000000081167fbc197c810000000000000000000000000000000000000000000000000000000014612bf2576040517f08c379a000000000000000000000000000000000000000000000000000000000815260206004820152602860248201527f455243313135353a204552433131353552656365697665722072656a6563746560448201527f6420746f6b656e730000000000000000000000000000000000000000000000006064820152608401610712565b6040805160018082528183019092526060916000919060208083019080368337019050509050828160008151811061378f5761378f614659565b602090810291909101015292915050565b73ffffffffffffffffffffffffffffffffffffffff84163b15611083576040517ff23a6e6100000000000000000000000000000000000000000000000000000000815273ffffffffffffffffffffffffffffffffffffffff85169063f23a6e61906138179089908990889088908890600401614a0b565b6020604051808303816000875af1925050508015613870575060408051601f3d9081017fffffffffffffffffffffffffffffffffffffffffffffffffffffffffffffffe016820190925261386d9181019061492b565b60015b61387c576135a7614948565b7fffffffff0000000000000000000000000000000000000000000000000000000081167ff23a6e610000000000000000000000000000000000000000000000000000000014612bf2576040517f08c379a000000000000000000000000000000000000000000000000000000000815260206004820152602860248201527f455243313135353a204552433131353552656365697665722072656a6563746560448201527f6420746f6b656e730000000000000000000000000000000000000000000000006064820152608401610712565b6060600061395c836002614a5b565b6139679060026147a7565b67ffffffffffffffff81111561397f5761397f613c35565b6040519080825280601f01601f1916602001820160405280156139a9576020820181803683370190505b5090507f3000000000000000000000000000000000000000000000000000000000000000816000815181106139e0576139e0614659565b60200101907effffffffffffffffffffffffffffffffffffffffffffffffffffffffffffff1916908160001a9053507f780000000000000000000000000000000000000000000000000000000000000081600181518110613a4357613a43614659565b60200101907effffffffffffffffffffffffffffffffffffffffffffffffffffffffffffff1916908160001a9053506000613a7f846002614a5b565b613a8a9060016147a7565b90505b6001811115613b27577f303132333435363738396162636465660000000000000000000000000000000085600f1660108110613acb57613acb614659565b1a60f81b828281518110613ae157613ae1614659565b60200101907effffffffffffffffffffffffffffffffffffffffffffffffffffffffffffff1916908160001a90535060049490941c93613b2081614a98565b9050613a8d565b508315613b90576040517f08c379a000000000000000000000000000000000000000000000000000000000815260206004820181905260248201527f537472696e67733a20686578206c656e67746820696e73756666696369656e746044820152606401610712565b9392505050565b803573ffffffffffffffffffffffffffffffffffffffff81168114613bbb57600080fd5b919050565b60008060408385031215613bd357600080fd5b613bdc83613b97565b946020939093013593505050565b7fffffffff0000000000000000000000000000000000000000000000000000000081168114611ba957600080fd5b600060208284031215613c2a57600080fd5b8135613b9081613bea565b7f4e487b7100000000000000000000000000000000000000000000000000000000600052604160045260246000fd5b7fffffffffffffffffffffffffffffffffffffffffffffffffffffffffffffffe0601f830116810181811067ffffffffffffffff82111715613ca857613ca8613c35565b6040525050565b600082601f830112613cc057600080fd5b813567ffffffffffffffff811115613cda57613cda613c35565b604051613d0f60207fffffffffffffffffffffffffffffffffffffffffffffffffffffffffffffffe0601f8501160182613c64565b818152846020838601011115613d2457600080fd5b816020850160208301376000918101602001919091529392505050565b60008060408385031215613d5457600080fd5b82359150602083013567ffffffffffffffff811115613d7257600080fd5b613d7e85828601613caf565b9150509250929050565b6000602080830181845280855180835260408601915060408160051b87010192508387016000805b83811015613e22578886037fffffffffffffffffffffffffffffffffffffffffffffffffffffffffffffffc0018552825180518088529088019088880190845b81811015613e0c5783518352928a0192918a0191600101613df0565b5090975050509386019391860191600101613db0565b509398975050505050505050565b60008083601f840112613e4257600080fd5b50813567ffffffffffffffff811115613e5a57600080fd5b6020830191508360208260051b8501011115613e7557600080fd5b9250929050565b600080600080600060608688031215613e9457600080fd5b613e9d86613b97565b9450602086013567ffffffffffffffff80821115613eba57600080fd5b613ec689838a01613e30565b90965094506040880135915080821115613edf57600080fd5b50613eec88828901613e30565b969995985093965092949392505050565b600060208284031215613f0f57600080fd5b5035919050565b60005b83811015613f31578181015183820152602001613f19565b50506000910152565b60008151808452613f52816020860160208601613f16565b601f017fffffffffffffffffffffffffffffffffffffffffffffffffffffffffffffffe0169290920160200192915050565b602081526000613b906020830184613f3a565b60008060408385031215613faa57600080fd5b50508035926020909101359150565b600067ffffffffffffffff821115613fd357613fd3613c35565b5060051b60200190565b600082601f830112613fee57600080fd5b81356020613ffb82613fb9565b6040516140088282613c64565b83815260059390931b850182019282810191508684111561402857600080fd5b8286015b84811015614043578035835291830191830161402c565b509695505050505050565b600080600080600060a0868803121561406657600080fd5b61406f86613b97565b945061407d60208701613b97565b9350604086013567ffffffffffffffff8082111561409a57600080fd5b6140a689838a01613fdd565b945060608801359150808211156140bc57600080fd5b6140c889838a01613fdd565b935060808801359150808211156140de57600080fd5b506140eb88828901613caf565b9150509295509295909350565b6000806040838503121561410b57600080fd5b8235915061411b60208401613b97565b90509250929050565b6000806040838503121561413757600080fd5b823567ffffffffffffffff8082111561414f57600080fd5b818501915085601f83011261416357600080fd5b8135602061417082613fb9565b60405161417d8282613c64565b83815260059390931b850182019282810191508984111561419d57600080fd5b948201945b838610156141c2576141b386613b97565b825294820194908201906141a2565b965050860135925050808211156141d857600080fd5b50613d7e85828601613fdd565b600081518084526020808501945080840160005b83811015614215578151875295820195908201906001016141f9565b509495945050505050565b602081526000613b9060208301846141e5565b60006020828403121561424557600080fd5b613b9082613b97565b6000806040838503121561426157600080fd5b61426a83613b97565b91506020830135801515811461427f57600080fd5b809150509250929050565b60006020828403121561429c57600080fd5b813567ffffffffffffffff8111156142b357600080fd5b611fff84828501613caf565b60008060008060008060006080888a0312156142da57600080fd5b6142e388613b97565b9650602088013567ffffffffffffffff8082111561430057600080fd5b61430c8b838c01613e30565b909850965060408a013591508082111561432557600080fd5b6143318b838c01613e30565b909650945060608a013591508082111561434a57600080fd5b506143578a828b01613e30565b989b979a50959850939692959293505050565b60008060006060848603121561437f57600080fd5b61438884613b97565b95602085013595506040909401359392505050565b6000602080830181845280855180835260408601915060408160051b870101925083870160005b82811015614410577fffffffffffffffffffffffffffffffffffffffffffffffffffffffffffffffc08886030184526143fe858351613f3a565b945092850192908501906001016143c4565b5092979650505050505050565b6000806040838503121561443057600080fd5b61443983613b97565b915061411b60208401613b97565b600080600080600060a0868803121561445f57600080fd5b61446886613b97565b945061447660208701613b97565b93506040860135925060608601359150608086013567ffffffffffffffff8111156144a057600080fd5b6140eb88828901613caf565b600181811c908216806144c057607f821691505b602082108103610939577f4e487b7100000000000000000000000000000000000000000000000000000000600052602260045260246000fd5b601f8211156107f357600081815260208120601f850160051c810160208610156145205750805b601f850160051c820191505b818110156110835782815560010161452c565b815167ffffffffffffffff81111561455957614559613c35565b61456d8161456784546144ac565b846144f9565b602080601f8311600181146145c0576000841561458a5750858301515b7fffffffffffffffffffffffffffffffffffffffffffffffffffffffffffffffff600386901b1c1916600185901b178555611083565b6000858152602081207fffffffffffffffffffffffffffffffffffffffffffffffffffffffffffffffe08616915b8281101561460d578886015182559484019460019091019084016145ee565b508582101561464957878501517fffffffffffffffffffffffffffffffffffffffffffffffffffffffffffffffff600388901b60f8161c191681555b5050505050600190811b01905550565b7f4e487b7100000000000000000000000000000000000000000000000000000000600052603260045260246000fd5b7f4e487b7100000000000000000000000000000000000000000000000000000000600052601160045260246000fd5b60007fffffffffffffffffffffffffffffffffffffffffffffffffffffffffffffffff82036146e8576146e8614688565b5060010190565b60008084546146fd816144ac565b60018281168015614715576001811461474857614777565b7fffffffffffffffffffffffffffffffffffffffffffffffffffffffffffffff0084168752821515830287019450614777565b8860005260208060002060005b8581101561476e5781548a820152908401908201614755565b50505082870194505b50505050835161478b818360208801613f16565b01949350505050565b8181038181111561074b5761074b614688565b8082018082111561074b5761074b614688565b6040815260006147cd60408301856141e5565b82810360208401526147df81856141e5565b95945050505050565b7f4e487b7100000000000000000000000000000000000000000000000000000000600052601260045260246000fd5b600082614826576148266147e8565b500490565b60008261483a5761483a6147e8565b500690565b7f416363657373436f6e74726f6c3a206163636f756e7420000000000000000000815260008351614877816017850160208801613f16565b7f206973206d697373696e6720726f6c652000000000000000000000000000000060179184019182015283516148b4816028840160208801613f16565b01602801949350505050565b600073ffffffffffffffffffffffffffffffffffffffff808816835280871660208401525060a060408301526148f960a08301866141e5565b828103606084015261490b81866141e5565b9050828103608084015261491f8185613f3a565b98975050505050505050565b60006020828403121561493d57600080fd5b8151613b9081613bea565b600060033d1115611b3b5760046000803e5060005160e01c90565b600060443d10156149715790565b6040517ffffffffffffffffffffffffffffffffffffffffffffffffffffffffffffffffc803d016004833e81513d67ffffffffffffffff81602484011181841117156149bf57505050505090565b82850191508151818111156149d75750505050505090565b843d87010160208285010111156149f15750505050505090565b614a0060208286010187613c64565b509095945050505050565b600073ffffffffffffffffffffffffffffffffffffffff808816835280871660208401525084604083015283606083015260a06080830152614a5060a0830184613f3a565b979650505050505050565b6000817fffffffffffffffffffffffffffffffffffffffffffffffffffffffffffffffff0483118215151615614a9357614a93614688565b500290565b600081614aa757614aa7614688565b507fffffffffffffffffffffffffffffffffffffffffffffffffffffffffffffffff019056fea2646970667358221220a6d0b333cfb6a9c48072d8d97942b8b0335426d6805a3f5d5d46eef766e35c3d64736f6c63430008100033",
  "linkReferences": {},
  "deployedLinkReferences": {}
}