{
  "_format": "hh-sol-artifact-1",
  "contractName": "ERC1155_Game_Items_Collection",
  "sourceName": "contracts/Items_Collection/ERC1155_Game_Items_Collection.sol",
  "abi": [
    {
      "inputs": [
        {
          "internalType": "address",
          "name": "_forwarder",
          "type": "address"
        },
        {
          "internalType": "bytes32",
          "name": "_systemId",
          "type": "bytes32"
        }
      ],
      "stateMutability": "nonpayable",
      "type": "constructor"
    },
    {
      "anonymous": false,
      "inputs": [
        {
          "indexed": true,
          "internalType": "address",
          "name": "account",
          "type": "address"
        },
        {
          "indexed": true,
          "internalType": "address",
          "name": "operator",
          "type": "address"
        },
        {
          "indexed": false,
          "internalType": "bool",
          "name": "approved",
          "type": "bool"
        }
      ],
      "name": "ApprovalForAll",
      "type": "event"
    },
    {
      "anonymous": false,
      "inputs": [
        {
          "indexed": true,
          "internalType": "address",
          "name": "previousOwner",
          "type": "address"
        },
        {
          "indexed": true,
          "internalType": "address",
          "name": "newOwner",
          "type": "address"
        }
      ],
      "name": "OwnershipTransferred",
      "type": "event"
    },
    {
      "anonymous": false,
      "inputs": [
        {
          "indexed": true,
          "internalType": "bytes32",
          "name": "role",
          "type": "bytes32"
        },
        {
          "indexed": true,
          "internalType": "bytes32",
          "name": "previousAdminRole",
          "type": "bytes32"
        },
        {
          "indexed": true,
          "internalType": "bytes32",
          "name": "newAdminRole",
          "type": "bytes32"
        }
      ],
      "name": "RoleAdminChanged",
      "type": "event"
    },
    {
      "anonymous": false,
      "inputs": [
        {
          "indexed": true,
          "internalType": "bytes32",
          "name": "role",
          "type": "bytes32"
        },
        {
          "indexed": true,
          "internalType": "address",
          "name": "account",
          "type": "address"
        },
        {
          "indexed": true,
          "internalType": "address",
          "name": "sender",
          "type": "address"
        }
      ],
      "name": "RoleGranted",
      "type": "event"
    },
    {
      "anonymous": false,
      "inputs": [
        {
          "indexed": true,
          "internalType": "bytes32",
          "name": "role",
          "type": "bytes32"
        },
        {
          "indexed": true,
          "internalType": "address",
          "name": "account",
          "type": "address"
        },
        {
          "indexed": true,
          "internalType": "address",
          "name": "sender",
          "type": "address"
        }
      ],
      "name": "RoleRevoked",
      "type": "event"
    },
    {
      "anonymous": false,
      "inputs": [
        {
          "indexed": true,
          "internalType": "address",
          "name": "operator",
          "type": "address"
        },
        {
          "indexed": true,
          "internalType": "address",
          "name": "from",
          "type": "address"
        },
        {
          "indexed": true,
          "internalType": "address",
          "name": "to",
          "type": "address"
        },
        {
          "indexed": false,
          "internalType": "uint256[]",
          "name": "ids",
          "type": "uint256[]"
        },
        {
          "indexed": false,
          "internalType": "uint256[]",
          "name": "values",
          "type": "uint256[]"
        }
      ],
      "name": "TransferBatch",
      "type": "event"
    },
    {
      "anonymous": false,
      "inputs": [
        {
          "indexed": true,
          "internalType": "address",
          "name": "operator",
          "type": "address"
        },
        {
          "indexed": true,
          "internalType": "address",
          "name": "from",
          "type": "address"
        },
        {
          "indexed": true,
          "internalType": "address",
          "name": "to",
          "type": "address"
        },
        {
          "indexed": false,
          "internalType": "uint256",
          "name": "id",
          "type": "uint256"
        },
        {
          "indexed": false,
          "internalType": "uint256",
          "name": "value",
          "type": "uint256"
        }
      ],
      "name": "TransferSingle",
      "type": "event"
    },
    {
      "anonymous": false,
      "inputs": [
        {
          "indexed": false,
          "internalType": "string",
          "name": "value",
          "type": "string"
        },
        {
          "indexed": true,
          "internalType": "uint256",
          "name": "id",
          "type": "uint256"
        }
      ],
      "name": "URI",
      "type": "event"
    },
    {
      "inputs": [],
      "name": "DEFAULT_ADMIN_ROLE",
      "outputs": [
        {
          "internalType": "bytes32",
          "name": "",
          "type": "bytes32"
        }
      ],
      "stateMutability": "view",
      "type": "function"
    },
    {
      "inputs": [],
      "name": "allItemIds",
      "outputs": [
        {
          "internalType": "uint256[]",
          "name": "",
          "type": "uint256[]"
        }
      ],
      "stateMutability": "view",
      "type": "function"
    },
    {
      "inputs": [],
      "name": "allItemSupplies",
      "outputs": [
        {
          "internalType": "uint256[][]",
          "name": "",
          "type": "uint256[][]"
        }
      ],
      "stateMutability": "view",
      "type": "function"
    },
    {
      "inputs": [],
      "name": "allItemURIs",
      "outputs": [
        {
          "internalType": "string[]",
          "name": "",
          "type": "string[]"
        }
      ],
      "stateMutability": "view",
      "type": "function"
    },
    {
      "inputs": [
        {
          "internalType": "address",
          "name": "account",
          "type": "address"
        },
        {
          "internalType": "uint256",
          "name": "id",
          "type": "uint256"
        }
      ],
      "name": "balanceOf",
      "outputs": [
        {
          "internalType": "uint256",
          "name": "",
          "type": "uint256"
        }
      ],
      "stateMutability": "view",
      "type": "function"
    },
    {
      "inputs": [
        {
          "internalType": "address",
          "name": "_address",
          "type": "address"
        }
      ],
      "name": "balanceOfAll",
      "outputs": [
        {
          "internalType": "uint256[][]",
          "name": "",
          "type": "uint256[][]"
        }
      ],
      "stateMutability": "view",
      "type": "function"
    },
    {
      "inputs": [
        {
          "internalType": "address[]",
          "name": "accounts",
          "type": "address[]"
        },
        {
          "internalType": "uint256[]",
          "name": "ids",
          "type": "uint256[]"
        }
      ],
      "name": "balanceOfBatch",
      "outputs": [
        {
          "internalType": "uint256[]",
          "name": "",
          "type": "uint256[]"
        }
      ],
      "stateMutability": "view",
      "type": "function"
    },
    {
      "inputs": [
        {
          "internalType": "address",
          "name": "_fromAddress",
          "type": "address"
        },
        {
          "internalType": "address[]",
          "name": "_toAddresses",
          "type": "address[]"
        },
        {
          "internalType": "uint256[]",
          "name": "_itemIds",
          "type": "uint256[]"
        },
        {
          "internalType": "uint256[]",
          "name": "_quantitiesPerAddress",
          "type": "uint256[]"
        }
      ],
      "name": "bulkSafeBatchTransferFrom",
      "outputs": [],
      "stateMutability": "nonpayable",
      "type": "function"
    },
    {
      "inputs": [
        {
          "internalType": "address",
          "name": "_fromAddress",
          "type": "address"
        },
        {
          "internalType": "uint256[]",
          "name": "_itemIds",
          "type": "uint256[]"
        },
        {
          "internalType": "uint256[]",
          "name": "_quantities",
          "type": "uint256[]"
        }
      ],
      "name": "burnBatchFromAddress",
      "outputs": [],
      "stateMutability": "nonpayable",
      "type": "function"
    },
    {
      "inputs": [
        {
          "internalType": "address",
          "name": "_fromAddress",
          "type": "address"
        },
        {
          "internalType": "uint256",
          "name": "_itemId",
          "type": "uint256"
        },
        {
          "internalType": "uint256",
          "name": "_quantity",
          "type": "uint256"
        }
      ],
      "name": "burnFromAddress",
      "outputs": [],
      "stateMutability": "nonpayable",
      "type": "function"
    },
    {
      "inputs": [
        {
          "internalType": "bytes32",
          "name": "role",
          "type": "bytes32"
        }
      ],
      "name": "getRoleAdmin",
      "outputs": [
        {
          "internalType": "bytes32",
          "name": "",
          "type": "bytes32"
        }
      ],
      "stateMutability": "view",
      "type": "function"
    },
    {
      "inputs": [
        {
          "internalType": "bytes32",
          "name": "_role",
          "type": "bytes32"
        },
        {
          "internalType": "address",
          "name": "_account",
          "type": "address"
        }
      ],
      "name": "grantRole",
      "outputs": [],
      "stateMutability": "nonpayable",
      "type": "function"
    },
    {
      "inputs": [
        {
          "internalType": "bytes32",
          "name": "role",
          "type": "bytes32"
        },
        {
          "internalType": "address",
          "name": "account",
          "type": "address"
        }
      ],
      "name": "hasRole",
      "outputs": [
        {
          "internalType": "bool",
          "name": "",
          "type": "bool"
        }
      ],
      "stateMutability": "view",
      "type": "function"
    },
    {
      "inputs": [
        {
          "internalType": "address",
          "name": "account",
          "type": "address"
        },
        {
          "internalType": "address",
          "name": "operator",
          "type": "address"
        }
      ],
      "name": "isApprovedForAll",
      "outputs": [
        {
          "internalType": "bool",
          "name": "",
          "type": "bool"
        }
      ],
      "stateMutability": "view",
      "type": "function"
    },
    {
      "inputs": [
        {
          "internalType": "uint256",
          "name": "_itemId",
          "type": "uint256"
        }
      ],
      "name": "isItemTransferrable",
      "outputs": [
        {
          "internalType": "bool",
          "name": "",
          "type": "bool"
        }
      ],
      "stateMutability": "view",
      "type": "function"
    },
    {
      "inputs": [
        {
          "internalType": "address",
          "name": "forwarder",
          "type": "address"
        }
      ],
      "name": "isTrustedForwarder",
      "outputs": [
        {
          "internalType": "bool",
          "name": "",
          "type": "bool"
        }
      ],
      "stateMutability": "view",
      "type": "function"
    },
    {
      "inputs": [],
      "name": "itemBaseURI",
      "outputs": [
        {
          "internalType": "string",
          "name": "",
          "type": "string"
        }
      ],
      "stateMutability": "view",
      "type": "function"
    },
    {
      "inputs": [
        {
          "internalType": "uint256",
          "name": "",
          "type": "uint256"
        }
      ],
      "name": "itemExists",
      "outputs": [
        {
          "internalType": "bool",
          "name": "",
          "type": "bool"
        }
      ],
      "stateMutability": "view",
      "type": "function"
    },
    {
      "inputs": [
        {
          "internalType": "uint256",
          "name": "",
          "type": "uint256"
        }
      ],
      "name": "itemIds",
      "outputs": [
        {
          "internalType": "uint256",
          "name": "",
          "type": "uint256"
        }
      ],
      "stateMutability": "view",
      "type": "function"
    },
    {
      "inputs": [
        {
          "internalType": "uint256",
          "name": "",
          "type": "uint256"
        }
      ],
      "name": "itemSupplies",
      "outputs": [
        {
          "internalType": "uint256",
          "name": "",
          "type": "uint256"
        }
      ],
      "stateMutability": "view",
      "type": "function"
    },
    {
      "inputs": [
        {
          "internalType": "uint256",
          "name": "",
          "type": "uint256"
        }
      ],
      "name": "itemTransferTimelocks",
      "outputs": [
        {
          "internalType": "uint256",
          "name": "",
          "type": "uint256"
        }
      ],
      "stateMutability": "view",
      "type": "function"
    },
    {
      "inputs": [
        {
          "internalType": "address",
          "name": "_toAddress",
          "type": "address"
        },
        {
          "internalType": "uint256[]",
          "name": "_itemIds",
          "type": "uint256[]"
        },
        {
          "internalType": "uint256[]",
          "name": "_quantities",
          "type": "uint256[]"
        }
      ],
      "name": "mintBatchToAddress",
      "outputs": [],
      "stateMutability": "nonpayable",
      "type": "function"
    },
    {
      "inputs": [
        {
          "internalType": "address",
          "name": "_toAddress",
          "type": "address"
        },
        {
          "internalType": "uint256",
          "name": "_itemId",
          "type": "uint256"
        },
        {
          "internalType": "uint256",
          "name": "_quantity",
          "type": "uint256"
        }
      ],
      "name": "mintToAddress",
      "outputs": [],
      "stateMutability": "nonpayable",
      "type": "function"
    },
    {
      "inputs": [],
      "name": "owner",
      "outputs": [
        {
          "internalType": "address",
          "name": "",
          "type": "address"
        }
      ],
      "stateMutability": "view",
      "type": "function"
    },
    {
      "inputs": [
        {
          "internalType": "uint256",
          "name": "_itemIdsStartIndexInclusive",
          "type": "uint256"
        },
        {
          "internalType": "uint256",
          "name": "_limit",
          "type": "uint256"
        }
      ],
      "name": "paginateItemIds",
      "outputs": [
        {
          "internalType": "uint256[]",
          "name": "",
          "type": "uint256[]"
        }
      ],
      "stateMutability": "view",
      "type": "function"
    },
    {
      "inputs": [
        {
          "internalType": "uint256",
          "name": "_itemIdsStartIndexInclusive",
          "type": "uint256"
        },
        {
          "internalType": "uint256",
          "name": "_limit",
          "type": "uint256"
        }
      ],
      "name": "paginateItemSupplies",
      "outputs": [
        {
          "internalType": "uint256[][]",
          "name": "",
          "type": "uint256[][]"
        }
      ],
      "stateMutability": "view",
      "type": "function"
    },
    {
      "inputs": [
        {
          "internalType": "uint256",
          "name": "_itemIdsStartIndexInclusive",
          "type": "uint256"
        },
        {
          "internalType": "uint256",
          "name": "_limit",
          "type": "uint256"
        }
      ],
      "name": "paginateItemURIs",
      "outputs": [
        {
          "internalType": "string[]",
          "name": "",
          "type": "string[]"
        }
      ],
      "stateMutability": "view",
      "type": "function"
    },
    {
      "inputs": [],
      "name": "renounceOwnership",
      "outputs": [],
      "stateMutability": "nonpayable",
      "type": "function"
    },
    {
      "inputs": [
        {
          "internalType": "bytes32",
          "name": "role",
          "type": "bytes32"
        },
        {
          "internalType": "address",
          "name": "account",
          "type": "address"
        }
      ],
      "name": "renounceRole",
      "outputs": [],
      "stateMutability": "nonpayable",
      "type": "function"
    },
    {
      "inputs": [
        {
          "internalType": "bytes32",
          "name": "role",
          "type": "bytes32"
        },
        {
          "internalType": "address",
          "name": "account",
          "type": "address"
        }
      ],
      "name": "revokeRole",
      "outputs": [],
      "stateMutability": "nonpayable",
      "type": "function"
    },
    {
      "inputs": [
        {
          "internalType": "address",
          "name": "from",
          "type": "address"
        },
        {
          "internalType": "address",
          "name": "to",
          "type": "address"
        },
        {
          "internalType": "uint256[]",
          "name": "ids",
          "type": "uint256[]"
        },
        {
          "internalType": "uint256[]",
          "name": "amounts",
          "type": "uint256[]"
        },
        {
          "internalType": "bytes",
          "name": "data",
          "type": "bytes"
        }
      ],
      "name": "safeBatchTransferFrom",
      "outputs": [],
      "stateMutability": "nonpayable",
      "type": "function"
    },
    {
      "inputs": [
        {
          "internalType": "address",
          "name": "from",
          "type": "address"
        },
        {
          "internalType": "address",
          "name": "to",
          "type": "address"
        },
        {
          "internalType": "uint256",
          "name": "id",
          "type": "uint256"
        },
        {
          "internalType": "uint256",
          "name": "amount",
          "type": "uint256"
        },
        {
          "internalType": "bytes",
          "name": "data",
          "type": "bytes"
        }
      ],
      "name": "safeTransferFrom",
      "outputs": [],
      "stateMutability": "nonpayable",
      "type": "function"
    },
    {
      "inputs": [
        {
          "internalType": "address",
          "name": "operator",
          "type": "address"
        },
        {
          "internalType": "bool",
          "name": "approved",
          "type": "bool"
        }
      ],
      "name": "setApprovalForAll",
      "outputs": [],
      "stateMutability": "nonpayable",
      "type": "function"
    },
    {
      "inputs": [
        {
          "internalType": "string",
          "name": "_itemBaseURI",
          "type": "string"
        }
      ],
      "name": "setItemBaseURI",
      "outputs": [],
      "stateMutability": "nonpayable",
      "type": "function"
    },
    {
      "inputs": [
        {
          "internalType": "uint256",
          "name": "_itemId",
          "type": "uint256"
        },
        {
          "internalType": "uint256",
          "name": "_unlockTimestamp",
          "type": "uint256"
        }
      ],
      "name": "setItemTransferTimelock",
      "outputs": [],
      "stateMutability": "nonpayable",
      "type": "function"
    },
    {
      "inputs": [
        {
          "internalType": "uint256",
          "name": "_itemId",
          "type": "uint256"
        },
        {
          "internalType": "string",
          "name": "_uri",
          "type": "string"
        }
      ],
      "name": "setItemURI",
      "outputs": [],
      "stateMutability": "nonpayable",
      "type": "function"
    },
    {
      "inputs": [
        {
          "internalType": "bytes4",
          "name": "interfaceId",
          "type": "bytes4"
        }
      ],
      "name": "supportsInterface",
      "outputs": [
        {
          "internalType": "bool",
          "name": "",
          "type": "bool"
        }
      ],
      "stateMutability": "view",
      "type": "function"
    },
    {
      "inputs": [],
      "name": "systemId",
      "outputs": [
        {
          "internalType": "bytes32",
          "name": "",
          "type": "bytes32"
        }
      ],
      "stateMutability": "view",
      "type": "function"
    },
    {
      "inputs": [],
      "name": "totalItemIds",
      "outputs": [
        {
          "internalType": "uint256",
          "name": "",
          "type": "uint256"
        }
      ],
      "stateMutability": "view",
      "type": "function"
    },
    {
      "inputs": [
        {
          "internalType": "address",
          "name": "newOwner",
          "type": "address"
        }
      ],
      "name": "transferOwnership",
      "outputs": [],
      "stateMutability": "nonpayable",
      "type": "function"
    },
    {
      "inputs": [],
      "name": "trustedForwarder",
      "outputs": [
        {
          "internalType": "address",
          "name": "",
          "type": "address"
        }
      ],
      "stateMutability": "view",
      "type": "function"
    },
    {
      "inputs": [
        {
          "internalType": "address",
          "name": "_newTrustedForwarder",
          "type": "address"
        }
      ],
      "name": "upgradeTrustedForwarder",
      "outputs": [],
      "stateMutability": "nonpayable",
      "type": "function"
    },
    {
      "inputs": [
        {
          "internalType": "uint256",
          "name": "_itemId",
          "type": "uint256"
        }
      ],
      "name": "uri",
      "outputs": [
        {
          "internalType": "string",
          "name": "",
          "type": "string"
        }
      ],
      "stateMutability": "view",
      "type": "function"
    }
  ],
  "bytecode": "0x60806040523480156200001157600080fd5b50604051620053503803806200535083398101604081905262000034916200024a565b8082604051806020016040528060008152506200005781620000dc60201b60201c565b50600380546001600160a01b0319166001600160a01b03929092169190911790556004556200008f62000089620000ee565b6200010a565b620000a560006200009f620000ee565b6200015c565b620000d47f5b618ab2fee761c09bf71319707cefa62eccc93dcc483744898e6c3acf4526436200009f620000ee565b5050620003f7565b6002620000ea82826200032b565b5050565b6000620001056200016860201b62001de11760201c565b905090565b600680546001600160a01b038381166001600160a01b0319831681179093556040519116919082907f8be0079c531659141344cd1fd0a4f28419497f9722a3daafe3b4186f6b6457e090600090a35050565b620000ea8282620001a0565b6003546000906001600160a01b031633036200018b575060131936013560601c90565b620001056200024660201b62001e3b1760201c565b60008281526005602090815260408083206001600160a01b038516845290915290205460ff16620000ea5760008281526005602090815260408083206001600160a01b03851684529091529020805460ff1916600117905562000202620000ee565b6001600160a01b0316816001600160a01b0316837f2f8788117e7eff1d82e926ec794901d17c78024a50270940304540a733656f0d60405160405180910390a45050565b3390565b600080604083850312156200025e57600080fd5b82516001600160a01b03811681146200027657600080fd5b6020939093015192949293505050565b634e487b7160e01b600052604160045260246000fd5b600181811c90821680620002b157607f821691505b602082108103620002d257634e487b7160e01b600052602260045260246000fd5b50919050565b601f8211156200032657600081815260208120601f850160051c81016020861015620003015750805b601f850160051c820191505b8181101562000322578281556001016200030d565b5050505b505050565b81516001600160401b0381111562000347576200034762000286565b6200035f816200035884546200029c565b84620002d8565b602080601f8311600181146200039757600084156200037e5750858301515b600019600386901b1c1916600185901b17855562000322565b600085815260208120601f198616915b82811015620003c857888601518255948401946001909101908401620003a7565b5085821015620003e75787850151600019600388901b60f8161c191681555b5050505050600190811b01905550565b614f4980620004076000396000f3fe608060405234801561001057600080fd5b50600436106102e85760003560e01c8063843bd64111610191578063b3dc00fe116100e3578063dc7aa9ef11610097578063f242432a11610071578063f242432a146106f2578063f2fde38b14610705578063fe992c981461071857600080fd5b8063dc7aa9ef1461068e578063e985e9c5146106a1578063efa52e90146106ea57600080fd5b8063bbdc8276116100c8578063bbdc827614610653578063d547741f1461065b578063d8e141751461066e57600080fd5b8063b3dc00fe1461062d578063b9babeba1461064057600080fd5b8063a217fddf11610145578063aa2a7eea1161011f578063aa2a7eea146105e5578063ae06363f146105f8578063b1da7a551461061a57600080fd5b8063a217fddf146105b7578063a22cb465146105bf578063a9c47d12146105d257600080fd5b80638da5cb5b116101765780638da5cb5b1461054057806391d148541461055e578063951549b9146105a457600080fd5b8063843bd641146105155780638c892cfd1461053857600080fd5b80632f2ff15d1161024a5780634e1273f4116101fe578063715018a6116101d8578063715018a6146104b55780637bc6cb74146104bd5780637da0a877146104d057600080fd5b80634e1273f414610446578063572b6c051461046657806358ec07c71461049557600080fd5b806339f898bc1161022f57806339f898bc1461042257806348e1219a1461042b5780634b7c78dc1461043357600080fd5b80632f2ff15d146103fc57806336568abe1461040f57600080fd5b80630e89341c116102a15780632257eb7e116102865780632257eb7e146103a6578063248a9ca3146103c65780632eb2c2d6146103e957600080fd5b80630e89341c1461037357806313f2f6bd1461039357600080fd5b806303cb92fc116102d257806303cb92fc146103365780630515cf8d1461034b57806308f427c71461036057600080fd5b8062fdd58e146102ed57806301ffc9a714610313575b600080fd5b6103006102fb366004614055565b61072b565b6040519081526020015b60405180910390f35b6103266103213660046140ad565b61080b565b604051901515815260200161030a565b6103496103443660046141d6565b610861565b005b6103536108b2565b60405161030a919061421d565b61034961036e366004614311565b6109f9565b610386610381366004614392565b610b40565b60405161030a9190614419565b6103536103a136600461442c565b610cc4565b6103006103b4366004614392565b600a6020526000908152604090205481565b6103006103d4366004614392565b60009081526005602052604090206001015490565b6103496103f73660046144e3565b610e4a565b61034961040a36600461458d565b610f2b565b61034961041d36600461458d565b6110ce565b61030060045481565b600754610300565b610349610441366004614311565b61119e565b6104596104543660046145b9565b6112c3565b60405161030a91906146b5565b6103266104743660046146c8565b60035473ffffffffffffffffffffffffffffffffffffffff91821691161490565b6103006104a3366004614392565b600b6020526000908152604090205481565b61034961141b565b6103496104cb36600461442c565b61142f565b6003546104f09073ffffffffffffffffffffffffffffffffffffffff1681565b60405173ffffffffffffffffffffffffffffffffffffffff909116815260200161030a565b610326610523366004614392565b60096020526000908152604090205460ff1681565b61045961146c565b60065473ffffffffffffffffffffffffffffffffffffffff166104f0565b61032661056c36600461458d565b600091825260056020908152604080842073ffffffffffffffffffffffffffffffffffffffff93909316845291905290205460ff1690565b6104596105b236600461442c565b6114c4565b610300600081565b6103496105cd3660046146e3565b6115a6565b6103496105e036600461471f565b6115b8565b6103496105f33660046146c8565b6115c4565b610326610606366004614392565b6000908152600b6020526040902054421190565b61034961062836600461475c565b611632565b61030061063b366004614392565b6116fc565b61034961064e366004614807565b61171d565b6103866117d7565b61034961066936600461458d565b611865565b61068161067c36600461442c565b61188a565b60405161030a919061483a565b61034961069c366004614807565b61197f565b6103266106af3660046148ba565b73ffffffffffffffffffffffffffffffffffffffff918216600090815260016020908152604080832093909416825291909152205460ff1690565b610681611a5e565b6103496107003660046148e4565b611b08565b6103496107133660046146c8565b611be9565b6103536107263660046146c8565b611ca0565b600073ffffffffffffffffffffffffffffffffffffffff83166107d5576040517f08c379a000000000000000000000000000000000000000000000000000000000815260206004820152602a60248201527f455243313135353a2061646472657373207a65726f206973206e6f742061207660448201527f616c6964206f776e65720000000000000000000000000000000000000000000060648201526084015b60405180910390fd5b5060008181526020818152604080832073ffffffffffffffffffffffffffffffffffffffff861684529091529020545b92915050565b60007fffffffff0000000000000000000000000000000000000000000000000000000082167f909aa65d000000000000000000000000000000000000000000000000000000001480610805575061080582611e3f565b7f5b618ab2fee761c09bf71319707cefa62eccc93dcc483744898e6c3acf45264361088b81611e95565b6000838152600c602052604090206108a383826149dc565b506108ad83611ea6565b505050565b60075460609060009067ffffffffffffffff8111156108d3576108d36140ca565b60405190808252806020026020018201604052801561090657816020015b60608152602001906001900390816108f15790505b50905060005b6007548110156109f3576040805160028082526060820183526000926020830190803683370190505090506007828154811061094a5761094a614af6565b90600052602060002001548160008151811061096857610968614af6565b602002602001018181525050600a60008260008151811061098b5761098b614af6565b6020026020010151815260200190815260200160002054816001815181106109b5576109b5614af6565b602002602001018181525050808383815181106109d4576109d4614af6565b60200260200101819052505080806109eb90614b54565b91505061090c565b50919050565b610a257f5b618ab2fee761c09bf71319707cefa62eccc93dcc483744898e6c3acf45264361056c611f27565b80610a575750610a577fc9eb32e43bf5ecbceacf00b32281dfc5d6d700a0db676ea26ccf938a385ac3f761056c611f27565b610abd576040517f08c379a000000000000000000000000000000000000000000000000000000000815260206004820152601760248201527f4e6f7420617574686f72697a656420746f206d696e742e00000000000000000060448201526064016107cc565b610b398585858080602002602001604051908101604052809392919081815260200183836020028082843760009201919091525050604080516020808902828101820190935288825290935088925087918291850190849080828437600092018290525060408051602081019091529081529250611f31915050565b5050505050565b60008181526009602052604090205460609060ff16610be1576040517f08c379a000000000000000000000000000000000000000000000000000000000815260206004820152602360248201527f555249207265717565737420666f72206e6f6e206578697374656e742069746560448201527f6d4964000000000000000000000000000000000000000000000000000000000060648201526084016107cc565b600060088054610bf090614949565b905011610c93576000828152600c602052604090208054610c1090614949565b80601f0160208091040260200160405190810160405280929190818152602001828054610c3c90614949565b8015610c895780601f10610c5e57610100808354040283529160200191610c89565b820191906000526020600020905b815481529060010190602001808311610c6c57829003601f168201915b5050505050610805565b6008610c9e836121c4565b604051602001610caf929190614b8c565b60405160208183030381529060405292915050565b6007546060906000908410610cda576000610ce8565b600754610ce8908590614c31565b9050600083821115610cfa5783610cfc565b815b905060008167ffffffffffffffff811115610d1957610d196140ca565b604051908082528060200260200182016040528015610d4c57816020015b6060815260200190600190039081610d375790505b50905060005b82811015610e40576040805160028082526060820183526000926020830190803683370190505090506007610d87838a614c44565b81548110610d9757610d97614af6565b906000526020600020015481600081518110610db557610db5614af6565b602002602001018181525050600a600082600081518110610dd857610dd8614af6565b602002602001015181526020019081526020016000205481600181518110610e0257610e02614af6565b60200260200101818152505080838381518110610e2157610e21614af6565b6020026020010181905250508080610e3890614b54565b915050610d52565b5095945050505050565b610e52611f27565b73ffffffffffffffffffffffffffffffffffffffff168573ffffffffffffffffffffffffffffffffffffffff161480610e925750610e92856106af611f27565b610f1e576040517f08c379a000000000000000000000000000000000000000000000000000000000815260206004820152602e60248201527f455243313135353a2063616c6c6572206973206e6f7420746f6b656e206f776e60448201527f6572206f7220617070726f76656400000000000000000000000000000000000060648201526084016107cc565b610b398585858585612282565b6000610f398161056c611f27565b90506000610f697f5b618ab2fee761c09bf71319707cefa62eccc93dcc483744898e6c3acf45264361056c611f27565b90508180610f745750805b611000576040517f08c379a000000000000000000000000000000000000000000000000000000000815260206004820152602d60248201527f526f6c65206772616e74696e672072657175697265732061646d696e206f722060448201527f6d616e6167657220726f6c652e0000000000000000000000000000000000000060648201526084016107cc565b83158061102c57507f5b618ab2fee761c09bf71319707cefa62eccc93dcc483744898e6c3acf45264384145b156110be57816110be576040517f08c379a000000000000000000000000000000000000000000000000000000000815260206004820152602b60248201527f4f6e6c792061646d696e2063616e206772616e742061646d696e206f72206d6160448201527f6e6167657220726f6c652e00000000000000000000000000000000000000000060648201526084016107cc565b6110c884846125cd565b50505050565b6110d6611f27565b73ffffffffffffffffffffffffffffffffffffffff168173ffffffffffffffffffffffffffffffffffffffff1614611190576040517f08c379a000000000000000000000000000000000000000000000000000000000815260206004820152602f60248201527f416363657373436f6e74726f6c3a2063616e206f6e6c792072656e6f756e636560448201527f20726f6c657320666f722073656c66000000000000000000000000000000000060648201526084016107cc565b61119a82826126c2565b5050565b846111a7611f27565b73ffffffffffffffffffffffffffffffffffffffff168173ffffffffffffffffffffffffffffffffffffffff1614806111e757506111e7816106af611f27565b61124d576040517f08c379a000000000000000000000000000000000000000000000000000000000815260206004820152601560248201527f4e6f7420617070726f76656420746f206275726e2e000000000000000000000060448201526064016107cc565b6112bb8686868080602002602001604051908101604052809392919081815260200183836020028082843760009201919091525050604080516020808a028281018201909352898252909350899250889182918501908490808284376000920191909152506127b592505050565b505050505050565b60608151835114611356576040517f08c379a000000000000000000000000000000000000000000000000000000000815260206004820152602960248201527f455243313135353a206163636f756e747320616e6420696473206c656e67746860448201527f206d69736d61746368000000000000000000000000000000000000000000000060648201526084016107cc565b6000835167ffffffffffffffff811115611372576113726140ca565b60405190808252806020026020018201604052801561139b578160200160208202803683370190505b50905060005b8451811015611413576113e68582815181106113bf576113bf614af6565b60200260200101518583815181106113d9576113d9614af6565b602002602001015161072b565b8282815181106113f8576113f8614af6565b602090810291909101015261140c81614b54565b90506113a1565b509392505050565b611423612af5565b61142d6000612baf565b565b7f5b618ab2fee761c09bf71319707cefa62eccc93dcc483744898e6c3acf45264361145981611e95565b506000918252600b602052604090912055565b606060078054806020026020016040519081016040528092919081815260200182805480156114ba57602002820191906000526020600020905b8154815260200190600101908083116114a6575b5050505050905090565b60075460609060009084106114da5760006114e8565b6007546114e8908590614c31565b90506000838211156114fa57836114fc565b815b905060008167ffffffffffffffff811115611519576115196140ca565b604051908082528060200260200182016040528015611542578160200160208202803683370190505b50905060005b82811015610e4057600761155c8289614c44565b8154811061156c5761156c614af6565b906000526020600020015482828151811061158957611589614af6565b60209081029190910101528061159e81614b54565b915050611548565b61119a6115b1611f27565b8383612c26565b600861119a82826149dc565b7f5b618ab2fee761c09bf71319707cefa62eccc93dcc483744898e6c3acf4526436115ee81611e95565b600380547fffffffffffffffffffffffff00000000000000000000000000000000000000001673ffffffffffffffffffffffffffffffffffffffff84161790555050565b60005b858110156116f2576116e08888888481811061165357611653614af6565b905060200201602081019061166891906146c8565b87878080602002602001604051908101604052809392919081815260200183836020028082843760009201919091525050604080516020808b0282810182019093528a82529093508a925089918291850190849080828437600092018290525060408051602081019091529081529250610e4a915050565b806116ea81614b54565b915050611635565b5050505050505050565b6007818154811061170c57600080fd5b600091825260209091200154905081565b82611726611f27565b73ffffffffffffffffffffffffffffffffffffffff168173ffffffffffffffffffffffffffffffffffffffff1614806117665750611766816106af611f27565b6117cc576040517f08c379a000000000000000000000000000000000000000000000000000000000815260206004820152601560248201527f4e6f7420617070726f76656420746f206275726e2e000000000000000000000060448201526064016107cc565b6110c8848484612d79565b600880546117e490614949565b80601f016020809104026020016040519081016040528092919081815260200182805461181090614949565b801561185d5780601f106118325761010080835404028352916020019161185d565b820191906000526020600020905b81548152906001019060200180831161184057829003601f168201915b505050505081565b60008281526005602052604090206001015461188081611e95565b6108ad83836126c2565b60075460609060009084106118a05760006118ae565b6007546118ae908590614c31565b90506000838211156118c057836118c2565b815b905060008167ffffffffffffffff8111156118df576118df6140ca565b60405190808252806020026020018201604052801561191257816020015b60608152602001906001900390816118fd5790505b50905060005b82811015610e405761194f600761192f838a614c44565b8154811061193f5761193f614af6565b9060005260206000200154610b40565b82828151811061196157611961614af6565b6020026020010181905250808061197790614b54565b915050611918565b6119ab7f5b618ab2fee761c09bf71319707cefa62eccc93dcc483744898e6c3acf45264361056c611f27565b806119dd57506119dd7fc9eb32e43bf5ecbceacf00b32281dfc5d6d700a0db676ea26ccf938a385ac3f761056c611f27565b611a43576040517f08c379a000000000000000000000000000000000000000000000000000000000815260206004820152601760248201527f4e6f7420617574686f72697a656420746f206d696e742e00000000000000000060448201526064016107cc565b6108ad83838360405180602001604052806000815250612fa7565b60075460609060009067ffffffffffffffff811115611a7f57611a7f6140ca565b604051908082528060200260200182016040528015611ab257816020015b6060815260200190600190039081611a9d5790505b50905060005b6007548110156109f357611ad86007828154811061193f5761193f614af6565b828281518110611aea57611aea614af6565b60200260200101819052508080611b0090614b54565b915050611ab8565b611b10611f27565b73ffffffffffffffffffffffffffffffffffffffff168573ffffffffffffffffffffffffffffffffffffffff161480611b505750611b50856106af611f27565b611bdc576040517f08c379a000000000000000000000000000000000000000000000000000000000815260206004820152602e60248201527f455243313135353a2063616c6c6572206973206e6f7420746f6b656e206f776e60448201527f6572206f7220617070726f76656400000000000000000000000000000000000060648201526084016107cc565b610b398585858585613129565b611bf1612af5565b73ffffffffffffffffffffffffffffffffffffffff8116611c94576040517f08c379a000000000000000000000000000000000000000000000000000000000815260206004820152602660248201527f4f776e61626c653a206e6577206f776e657220697320746865207a65726f206160448201527f646472657373000000000000000000000000000000000000000000000000000060648201526084016107cc565b611c9d81612baf565b50565b60075460609060009067ffffffffffffffff811115611cc157611cc16140ca565b604051908082528060200260200182016040528015611cf457816020015b6060815260200190600190039081611cdf5790505b50905060005b600754811015611dda5760408051600280825260608201835260009260208301908036833701905050905060078281548110611d3857611d38614af6565b906000526020600020015481600081518110611d5657611d56614af6565b602002602001018181525050611d898560078481548110611d7957611d79614af6565b906000526020600020015461072b565b81600181518110611d9c57611d9c614af6565b60200260200101818152505080838381518110611dbb57611dbb614af6565b6020026020010181905250508080611dd290614b54565b915050611cfa565b5092915050565b60035460009073ffffffffffffffffffffffffffffffffffffffff163303611e2e57507fffffffffffffffffffffffffffffffffffffffffffffffffffffffffffffffec36013560601c90565b503390565b905090565b90565b3390565b60007fffffffff0000000000000000000000000000000000000000000000000000000082167f7965db0b000000000000000000000000000000000000000000000000000000001480610805575061080582613380565b611c9d81611ea1611f27565b613463565b60008181526009602052604090205460ff16611c9d576007805460018181019092557fa66cc928b5edb82af9bd49922954155ab7b0942694bea4ce44661d9a8736c68801829055600082815260096020526040902080547fffffffffffffffffffffffffffffffffffffffffffffffffffffffffffffff0016909117905550565b6000611e33611de1565b73ffffffffffffffffffffffffffffffffffffffff8416611fd4576040517f08c379a000000000000000000000000000000000000000000000000000000000815260206004820152602160248201527f455243313135353a206d696e7420746f20746865207a65726f2061646472657360448201527f730000000000000000000000000000000000000000000000000000000000000060648201526084016107cc565b8151835114612065576040517f08c379a000000000000000000000000000000000000000000000000000000000815260206004820152602860248201527f455243313135353a2069647320616e6420616d6f756e7473206c656e6774682060448201527f6d69736d6174636800000000000000000000000000000000000000000000000060648201526084016107cc565b600061206f611f27565b90506120808160008787878761351d565b60005b84518110156121355783818151811061209e5761209e614af6565b60200260200101516000808784815181106120bb576120bb614af6565b6020026020010151815260200190815260200160002060008873ffffffffffffffffffffffffffffffffffffffff1673ffffffffffffffffffffffffffffffffffffffff168152602001908152602001600020600082825461211d9190614c44565b9091555081905061212d81614b54565b915050612083565b508473ffffffffffffffffffffffffffffffffffffffff16600073ffffffffffffffffffffffffffffffffffffffff168273ffffffffffffffffffffffffffffffffffffffff167f4a39dc06d4c0dbc64b70af90fd698a233a518aa5d07e595d983b8c0526c8f7fb87876040516121ad929190614c57565b60405180910390a4610b398160008787878761385f565b606060006121d183613ae9565b600101905060008167ffffffffffffffff8111156121f1576121f16140ca565b6040519080825280601f01601f19166020018201604052801561221b576020820181803683370190505b5090508181016020015b7fffffffffffffffffffffffffffffffffffffffffffffffffffffffffffffffff017f3031323334353637383961626364656600000000000000000000000000000000600a86061a8153600a850494508461222557509392505050565b8151835114612313576040517f08c379a000000000000000000000000000000000000000000000000000000000815260206004820152602860248201527f455243313135353a2069647320616e6420616d6f756e7473206c656e6774682060448201527f6d69736d6174636800000000000000000000000000000000000000000000000060648201526084016107cc565b73ffffffffffffffffffffffffffffffffffffffff84166123b6576040517f08c379a000000000000000000000000000000000000000000000000000000000815260206004820152602560248201527f455243313135353a207472616e7366657220746f20746865207a65726f20616460448201527f647265737300000000000000000000000000000000000000000000000000000060648201526084016107cc565b60006123c0611f27565b90506123d081878787878761351d565b60005b84518110156125405760008582815181106123f0576123f0614af6565b60200260200101519050600085838151811061240e5761240e614af6565b6020908102919091018101516000848152808352604080822073ffffffffffffffffffffffffffffffffffffffff8e1683529093529190912054909150818110156124db576040517f08c379a000000000000000000000000000000000000000000000000000000000815260206004820152602a60248201527f455243313135353a20696e73756666696369656e742062616c616e636520666f60448201527f72207472616e736665720000000000000000000000000000000000000000000060648201526084016107cc565b60008381526020818152604080832073ffffffffffffffffffffffffffffffffffffffff8e8116855292528083208585039055908b16825281208054849290612525908490614c44565b925050819055505050508061253990614b54565b90506123d3565b508473ffffffffffffffffffffffffffffffffffffffff168673ffffffffffffffffffffffffffffffffffffffff168273ffffffffffffffffffffffffffffffffffffffff167f4a39dc06d4c0dbc64b70af90fd698a233a518aa5d07e595d983b8c0526c8f7fb87876040516125b7929190614c57565b60405180910390a46112bb81878787878761385f565b600082815260056020908152604080832073ffffffffffffffffffffffffffffffffffffffff8516845290915290205460ff1661119a57600082815260056020908152604080832073ffffffffffffffffffffffffffffffffffffffff85168452909152902080547fffffffffffffffffffffffffffffffffffffffffffffffffffffffffffffff00166001179055612664611f27565b73ffffffffffffffffffffffffffffffffffffffff168173ffffffffffffffffffffffffffffffffffffffff16837f2f8788117e7eff1d82e926ec794901d17c78024a50270940304540a733656f0d60405160405180910390a45050565b600082815260056020908152604080832073ffffffffffffffffffffffffffffffffffffffff8516845290915290205460ff161561119a57600082815260056020908152604080832073ffffffffffffffffffffffffffffffffffffffff85168452909152902080547fffffffffffffffffffffffffffffffffffffffffffffffffffffffffffffff00169055612757611f27565b73ffffffffffffffffffffffffffffffffffffffff168173ffffffffffffffffffffffffffffffffffffffff16837ff6391f5c32d9c69d2a47ea670b442974b53935d1edc7fd64eb21e047a839171b60405160405180910390a45050565b73ffffffffffffffffffffffffffffffffffffffff8316612858576040517f08c379a000000000000000000000000000000000000000000000000000000000815260206004820152602360248201527f455243313135353a206275726e2066726f6d20746865207a65726f206164647260448201527f657373000000000000000000000000000000000000000000000000000000000060648201526084016107cc565b80518251146128e9576040517f08c379a000000000000000000000000000000000000000000000000000000000815260206004820152602860248201527f455243313135353a2069647320616e6420616d6f756e7473206c656e6774682060448201527f6d69736d6174636800000000000000000000000000000000000000000000000060648201526084016107cc565b60006128f3611f27565b90506129138185600086866040518060200160405280600081525061351d565b60005b8351811015612a6157600084828151811061293357612933614af6565b60200260200101519050600084838151811061295157612951614af6565b6020908102919091018101516000848152808352604080822073ffffffffffffffffffffffffffffffffffffffff8c168352909352919091205490915081811015612a1d576040517f08c379a0000000000000000000000000000000000000000000000000000000008152602060048201526024808201527f455243313135353a206275726e20616d6f756e7420657863656564732062616c60448201527f616e63650000000000000000000000000000000000000000000000000000000060648201526084016107cc565b60009283526020838152604080852073ffffffffffffffffffffffffffffffffffffffff8b1686529091529092209103905580612a5981614b54565b915050612916565b50600073ffffffffffffffffffffffffffffffffffffffff168473ffffffffffffffffffffffffffffffffffffffff168273ffffffffffffffffffffffffffffffffffffffff167f4a39dc06d4c0dbc64b70af90fd698a233a518aa5d07e595d983b8c0526c8f7fb8686604051612ad9929190614c57565b60405180910390a46040805160208101909152600090526110c8565b612afd611f27565b73ffffffffffffffffffffffffffffffffffffffff16612b3260065473ffffffffffffffffffffffffffffffffffffffff1690565b73ffffffffffffffffffffffffffffffffffffffff161461142d576040517f08c379a000000000000000000000000000000000000000000000000000000000815260206004820181905260248201527f4f776e61626c653a2063616c6c6572206973206e6f7420746865206f776e657260448201526064016107cc565b6006805473ffffffffffffffffffffffffffffffffffffffff8381167fffffffffffffffffffffffff0000000000000000000000000000000000000000831681179093556040519116919082907f8be0079c531659141344cd1fd0a4f28419497f9722a3daafe3b4186f6b6457e090600090a35050565b8173ffffffffffffffffffffffffffffffffffffffff168373ffffffffffffffffffffffffffffffffffffffff1603612ce1576040517f08c379a000000000000000000000000000000000000000000000000000000000815260206004820152602960248201527f455243313135353a2073657474696e6720617070726f76616c2073746174757360448201527f20666f722073656c66000000000000000000000000000000000000000000000060648201526084016107cc565b73ffffffffffffffffffffffffffffffffffffffff83811660008181526001602090815260408083209487168084529482529182902080547fffffffffffffffffffffffffffffffffffffffffffffffffffffffffffffff001686151590811790915591519182527f17307eab39ab6107e8899845ad3d59bd9653f200f220920489ca2b5937696c31910160405180910390a3505050565b73ffffffffffffffffffffffffffffffffffffffff8316612e1c576040517f08c379a000000000000000000000000000000000000000000000000000000000815260206004820152602360248201527f455243313135353a206275726e2066726f6d20746865207a65726f206164647260448201527f657373000000000000000000000000000000000000000000000000000000000060648201526084016107cc565b6000612e26611f27565b90506000612e3384613bcb565b90506000612e4084613bcb565b9050612e608387600085856040518060200160405280600081525061351d565b60008581526020818152604080832073ffffffffffffffffffffffffffffffffffffffff8a16845290915290205484811015612f1d576040517f08c379a0000000000000000000000000000000000000000000000000000000008152602060048201526024808201527f455243313135353a206275726e20616d6f756e7420657863656564732062616c60448201527f616e63650000000000000000000000000000000000000000000000000000000060648201526084016107cc565b60008681526020818152604080832073ffffffffffffffffffffffffffffffffffffffff8b81168086529184528285208a8703905582518b81529384018a90529092908816917fc3d58168c5ae7397731d063d5bbf3d657854427343f4c083240f7aacaa2d0f62910160405180910390a46040805160208101909152600090525b50505050505050565b73ffffffffffffffffffffffffffffffffffffffff841661304a576040517f08c379a000000000000000000000000000000000000000000000000000000000815260206004820152602160248201527f455243313135353a206d696e7420746f20746865207a65726f2061646472657360448201527f730000000000000000000000000000000000000000000000000000000000000060648201526084016107cc565b6000613054611f27565b9050600061306185613bcb565b9050600061306e85613bcb565b905061307f8360008985858961351d565b60008681526020818152604080832073ffffffffffffffffffffffffffffffffffffffff8b168452909152812080548792906130bc908490614c44565b9091555050604080518781526020810187905273ffffffffffffffffffffffffffffffffffffffff808a1692600092918716917fc3d58168c5ae7397731d063d5bbf3d657854427343f4c083240f7aacaa2d0f62910160405180910390a4612f9e83600089898989613c16565b73ffffffffffffffffffffffffffffffffffffffff84166131cc576040517f08c379a000000000000000000000000000000000000000000000000000000000815260206004820152602560248201527f455243313135353a207472616e7366657220746f20746865207a65726f20616460448201527f647265737300000000000000000000000000000000000000000000000000000060648201526084016107cc565b60006131d6611f27565b905060006131e385613bcb565b905060006131f085613bcb565b905061320083898985858961351d565b60008681526020818152604080832073ffffffffffffffffffffffffffffffffffffffff8c168452909152902054858110156132be576040517f08c379a000000000000000000000000000000000000000000000000000000000815260206004820152602a60248201527f455243313135353a20696e73756666696369656e742062616c616e636520666f60448201527f72207472616e736665720000000000000000000000000000000000000000000060648201526084016107cc565b60008781526020818152604080832073ffffffffffffffffffffffffffffffffffffffff8d8116855292528083208985039055908a16825281208054889290613308908490614c44565b9091555050604080518881526020810188905273ffffffffffffffffffffffffffffffffffffffff808b16928c821692918816917fc3d58168c5ae7397731d063d5bbf3d657854427343f4c083240f7aacaa2d0f62910160405180910390a4613375848a8a8a8a8a613c16565b505050505050505050565b60007fffffffff0000000000000000000000000000000000000000000000000000000082167fd9b67a2600000000000000000000000000000000000000000000000000000000148061341357507fffffffff0000000000000000000000000000000000000000000000000000000082167f0e89341c00000000000000000000000000000000000000000000000000000000145b8061080557507f01ffc9a7000000000000000000000000000000000000000000000000000000007fffffffff00000000000000000000000000000000000000000000000000000000831614610805565b600082815260056020908152604080832073ffffffffffffffffffffffffffffffffffffffff8516845290915290205460ff1661119a576134a381613dc3565b6134ae836020613de2565b6040516020016134bf929190614c85565b604080517fffffffffffffffffffffffffffffffffffffffffffffffffffffffffffffffe0818403018152908290527f08c379a00000000000000000000000000000000000000000000000000000000082526107cc91600401614419565b60005b8351811015612f9e57600084828151811061353d5761353d614af6565b6020026020010151905061355f816000908152600b6020526040902054421190565b8061357e575073ffffffffffffffffffffffffffffffffffffffff8716155b806135cd575073ffffffffffffffffffffffffffffffffffffffff871660009081527f2a11cd0591e39a8f8c868dafaa08cfdc3e589b62ba1896961129e8c6f60d69db602052604090205460ff165b8061361c575073ffffffffffffffffffffffffffffffffffffffff871660009081527fa2411ca3d5dcfeda426b4d0b8d15b73b4bf9ce1c50001c7effc8044ae5a61c5b602052604090205460ff165b8061363b575073ffffffffffffffffffffffffffffffffffffffff8616155b6136c7576040517f08c379a000000000000000000000000000000000000000000000000000000000815260206004820152602360248201527f4974656d206973206e6f742063757272656e746c79207472616e73666572616260448201527f6c652e000000000000000000000000000000000000000000000000000000000060648201526084016107cc565b73ffffffffffffffffffffffffffffffffffffffff871661372d576136eb81611ea6565b8382815181106136fd576136fd614af6565b6020026020010151600a600083815260200190815260200160002060008282546137279190614c44565b90915550505b73ffffffffffffffffffffffffffffffffffffffff861661384c5783828151811061375a5761375a614af6565b6020026020010151600a6000838152602001908152602001600020541015613804576040517f08c379a000000000000000000000000000000000000000000000000000000000815260206004820152602760248201527f455243313135353a206275726e20616d6f756e7420657863656564732069746560448201527f6d537570706c790000000000000000000000000000000000000000000000000060648201526084016107cc565b83828151811061381657613816614af6565b6020026020010151600a60008381526020019081526020016000205461383c9190614c31565b6000828152600a60205260409020555b508061385781614b54565b915050613520565b73ffffffffffffffffffffffffffffffffffffffff84163b156112bb576040517fbc197c8100000000000000000000000000000000000000000000000000000000815273ffffffffffffffffffffffffffffffffffffffff85169063bc197c81906138d69089908990889088908890600401614d06565b6020604051808303816000875af192505050801561392f575060408051601f3d9081017fffffffffffffffffffffffffffffffffffffffffffffffffffffffffffffffe016820190925261392c91810190614d71565b60015b613a185761393b614d8e565b806308c379a00361398e575061394f614da9565b8061395a5750613990565b806040517f08c379a00000000000000000000000000000000000000000000000000000000081526004016107cc9190614419565b505b6040517f08c379a000000000000000000000000000000000000000000000000000000000815260206004820152603460248201527f455243313135353a207472616e7366657220746f206e6f6e2d4552433131353560448201527f526563656976657220696d706c656d656e74657200000000000000000000000060648201526084016107cc565b7fffffffff0000000000000000000000000000000000000000000000000000000081167fbc197c810000000000000000000000000000000000000000000000000000000014612f9e576040517f08c379a000000000000000000000000000000000000000000000000000000000815260206004820152602860248201527f455243313135353a204552433131353552656365697665722072656a6563746560448201527f6420746f6b656e7300000000000000000000000000000000000000000000000060648201526084016107cc565b6000807a184f03e93ff9f4daa797ed6e38ed64bf6a1f0100000000000000008310613b32577a184f03e93ff9f4daa797ed6e38ed64bf6a1f010000000000000000830492506040015b6d04ee2d6d415b85acef81000000008310613b5e576d04ee2d6d415b85acef8100000000830492506020015b662386f26fc100008310613b7c57662386f26fc10000830492506010015b6305f5e1008310613b94576305f5e100830492506008015b6127108310613ba857612710830492506004015b60648310613bba576064830492506002015b600a83106108055760010192915050565b60408051600180825281830190925260609160009190602080830190803683370190505090508281600081518110613c0557613c05614af6565b602090810291909101015292915050565b73ffffffffffffffffffffffffffffffffffffffff84163b156112bb576040517ff23a6e6100000000000000000000000000000000000000000000000000000000815273ffffffffffffffffffffffffffffffffffffffff85169063f23a6e6190613c8d9089908990889088908890600401614e51565b6020604051808303816000875af1925050508015613ce6575060408051601f3d9081017fffffffffffffffffffffffffffffffffffffffffffffffffffffffffffffffe0168201909252613ce391810190614d71565b60015b613cf25761393b614d8e565b7fffffffff0000000000000000000000000000000000000000000000000000000081167ff23a6e610000000000000000000000000000000000000000000000000000000014612f9e576040517f08c379a000000000000000000000000000000000000000000000000000000000815260206004820152602860248201527f455243313135353a204552433131353552656365697665722072656a6563746560448201527f6420746f6b656e7300000000000000000000000000000000000000000000000060648201526084016107cc565b606061080573ffffffffffffffffffffffffffffffffffffffff831660145b60606000613df1836002614ea1565b613dfc906002614c44565b67ffffffffffffffff811115613e1457613e146140ca565b6040519080825280601f01601f191660200182016040528015613e3e576020820181803683370190505b5090507f300000000000000000000000000000000000000000000000000000000000000081600081518110613e7557613e75614af6565b60200101907effffffffffffffffffffffffffffffffffffffffffffffffffffffffffffff1916908160001a9053507f780000000000000000000000000000000000000000000000000000000000000081600181518110613ed857613ed8614af6565b60200101907effffffffffffffffffffffffffffffffffffffffffffffffffffffffffffff1916908160001a9053506000613f14846002614ea1565b613f1f906001614c44565b90505b6001811115613fbc577f303132333435363738396162636465660000000000000000000000000000000085600f1660108110613f6057613f60614af6565b1a60f81b828281518110613f7657613f76614af6565b60200101907effffffffffffffffffffffffffffffffffffffffffffffffffffffffffffff1916908160001a90535060049490941c93613fb581614ede565b9050613f22565b508315614025576040517f08c379a000000000000000000000000000000000000000000000000000000000815260206004820181905260248201527f537472696e67733a20686578206c656e67746820696e73756666696369656e7460448201526064016107cc565b9392505050565b803573ffffffffffffffffffffffffffffffffffffffff8116811461405057600080fd5b919050565b6000806040838503121561406857600080fd5b6140718361402c565b946020939093013593505050565b7fffffffff0000000000000000000000000000000000000000000000000000000081168114611c9d57600080fd5b6000602082840312156140bf57600080fd5b81356140258161407f565b7f4e487b7100000000000000000000000000000000000000000000000000000000600052604160045260246000fd5b7fffffffffffffffffffffffffffffffffffffffffffffffffffffffffffffffe0601f830116810181811067ffffffffffffffff8211171561413d5761413d6140ca565b6040525050565b600082601f83011261415557600080fd5b813567ffffffffffffffff81111561416f5761416f6140ca565b6040516141a460207fffffffffffffffffffffffffffffffffffffffffffffffffffffffffffffffe0601f85011601826140f9565b8181528460208386010111156141b957600080fd5b816020850160208301376000918101602001919091529392505050565b600080604083850312156141e957600080fd5b82359150602083013567ffffffffffffffff81111561420757600080fd5b61421385828601614144565b9150509250929050565b6000602080830181845280855180835260408601915060408160051b87010192508387016000805b838110156142b7578886037fffffffffffffffffffffffffffffffffffffffffffffffffffffffffffffffc0018552825180518088529088019088880190845b818110156142a15783518352928a0192918a0191600101614285565b5090975050509386019391860191600101614245565b509398975050505050505050565b60008083601f8401126142d757600080fd5b50813567ffffffffffffffff8111156142ef57600080fd5b6020830191508360208260051b850101111561430a57600080fd5b9250929050565b60008060008060006060868803121561432957600080fd5b6143328661402c565b9450602086013567ffffffffffffffff8082111561434f57600080fd5b61435b89838a016142c5565b9096509450604088013591508082111561437457600080fd5b50614381888289016142c5565b969995985093965092949392505050565b6000602082840312156143a457600080fd5b5035919050565b60005b838110156143c65781810151838201526020016143ae565b50506000910152565b600081518084526143e78160208601602086016143ab565b601f017fffffffffffffffffffffffffffffffffffffffffffffffffffffffffffffffe0169290920160200192915050565b60208152600061402560208301846143cf565b6000806040838503121561443f57600080fd5b50508035926020909101359150565b600067ffffffffffffffff821115614468576144686140ca565b5060051b60200190565b600082601f83011261448357600080fd5b813560206144908261444e565b60405161449d82826140f9565b83815260059390931b85018201928281019150868411156144bd57600080fd5b8286015b848110156144d857803583529183019183016144c1565b509695505050505050565b600080600080600060a086880312156144fb57600080fd5b6145048661402c565b94506145126020870161402c565b9350604086013567ffffffffffffffff8082111561452f57600080fd5b61453b89838a01614472565b9450606088013591508082111561455157600080fd5b61455d89838a01614472565b9350608088013591508082111561457357600080fd5b5061458088828901614144565b9150509295509295909350565b600080604083850312156145a057600080fd5b823591506145b06020840161402c565b90509250929050565b600080604083850312156145cc57600080fd5b823567ffffffffffffffff808211156145e457600080fd5b818501915085601f8301126145f857600080fd5b813560206146058261444e565b60405161461282826140f9565b83815260059390931b850182019282810191508984111561463257600080fd5b948201945b83861015614657576146488661402c565b82529482019490820190614637565b9650508601359250508082111561466d57600080fd5b5061421385828601614472565b600081518084526020808501945080840160005b838110156146aa5781518752958201959082019060010161468e565b509495945050505050565b602081526000614025602083018461467a565b6000602082840312156146da57600080fd5b6140258261402c565b600080604083850312156146f657600080fd5b6146ff8361402c565b91506020830135801515811461471457600080fd5b809150509250929050565b60006020828403121561473157600080fd5b813567ffffffffffffffff81111561474857600080fd5b61475484828501614144565b949350505050565b60008060008060008060006080888a03121561477757600080fd5b6147808861402c565b9650602088013567ffffffffffffffff8082111561479d57600080fd5b6147a98b838c016142c5565b909850965060408a01359150808211156147c257600080fd5b6147ce8b838c016142c5565b909650945060608a01359150808211156147e757600080fd5b506147f48a828b016142c5565b989b979a50959850939692959293505050565b60008060006060848603121561481c57600080fd5b6148258461402c565b95602085013595506040909401359392505050565b6000602080830181845280855180835260408601915060408160051b870101925083870160005b828110156148ad577fffffffffffffffffffffffffffffffffffffffffffffffffffffffffffffffc088860301845261489b8583516143cf565b94509285019290850190600101614861565b5092979650505050505050565b600080604083850312156148cd57600080fd5b6148d68361402c565b91506145b06020840161402c565b600080600080600060a086880312156148fc57600080fd5b6149058661402c565b94506149136020870161402c565b93506040860135925060608601359150608086013567ffffffffffffffff81111561493d57600080fd5b61458088828901614144565b600181811c9082168061495d57607f821691505b6020821081036109f3577f4e487b7100000000000000000000000000000000000000000000000000000000600052602260045260246000fd5b601f8211156108ad57600081815260208120601f850160051c810160208610156149bd5750805b601f850160051c820191505b818110156112bb578281556001016149c9565b815167ffffffffffffffff8111156149f6576149f66140ca565b614a0a81614a048454614949565b84614996565b602080601f831160018114614a5d5760008415614a275750858301515b7fffffffffffffffffffffffffffffffffffffffffffffffffffffffffffffffff600386901b1c1916600185901b1785556112bb565b6000858152602081207fffffffffffffffffffffffffffffffffffffffffffffffffffffffffffffffe08616915b82811015614aaa57888601518255948401946001909101908401614a8b565b5085821015614ae657878501517fffffffffffffffffffffffffffffffffffffffffffffffffffffffffffffffff600388901b60f8161c191681555b5050505050600190811b01905550565b7f4e487b7100000000000000000000000000000000000000000000000000000000600052603260045260246000fd5b7f4e487b7100000000000000000000000000000000000000000000000000000000600052601160045260246000fd5b60007fffffffffffffffffffffffffffffffffffffffffffffffffffffffffffffffff8203614b8557614b85614b25565b5060010190565b6000808454614b9a81614949565b60018281168015614bb25760018114614be557614c14565b7fffffffffffffffffffffffffffffffffffffffffffffffffffffffffffffff0084168752821515830287019450614c14565b8860005260208060002060005b85811015614c0b5781548a820152908401908201614bf2565b50505082870194505b505050508351614c288183602088016143ab565b01949350505050565b8181038181111561080557610805614b25565b8082018082111561080557610805614b25565b604081526000614c6a604083018561467a565b8281036020840152614c7c818561467a565b95945050505050565b7f416363657373436f6e74726f6c3a206163636f756e7420000000000000000000815260008351614cbd8160178501602088016143ab565b7f206973206d697373696e6720726f6c65200000000000000000000000000000006017918401918201528351614cfa8160288401602088016143ab565b01602801949350505050565b600073ffffffffffffffffffffffffffffffffffffffff808816835280871660208401525060a06040830152614d3f60a083018661467a565b8281036060840152614d51818661467a565b90508281036080840152614d6581856143cf565b98975050505050505050565b600060208284031215614d8357600080fd5b81516140258161407f565b600060033d1115611e385760046000803e5060005160e01c90565b600060443d1015614db75790565b6040517ffffffffffffffffffffffffffffffffffffffffffffffffffffffffffffffffc803d016004833e81513d67ffffffffffffffff8160248401118184111715614e0557505050505090565b8285019150815181811115614e1d5750505050505090565b843d8701016020828501011115614e375750505050505090565b614e46602082860101876140f9565b509095945050505050565b600073ffffffffffffffffffffffffffffffffffffffff808816835280871660208401525084604083015283606083015260a06080830152614e9660a08301846143cf565b979650505050505050565b6000817fffffffffffffffffffffffffffffffffffffffffffffffffffffffffffffffff0483118215151615614ed957614ed9614b25565b500290565b600081614eed57614eed614b25565b507fffffffffffffffffffffffffffffffffffffffffffffffffffffffffffffffff019056fea2646970667358221220720035f394f5b90d03a4e2b240ba08dfa56fadef4cd61a15f02ebc0c7dcb122c64736f6c63430008100033",
  "linkReferences": {},
  "deployedLinkReferences": {}
}