{
  "_format": "hh-sol-artifact-1",
  "contractName": "ERC1155_Game_Items_Collection",
  "sourceName": "contracts/Items_Collection/ERC1155_Game_Items_Collection.sol",
  "abi": [
    {
      "inputs": [
        {
          "internalType": "address",
          "name": "_forwarder",
          "type": "address"
        }
      ],
      "stateMutability": "nonpayable",
      "type": "constructor"
    },
    {
      "anonymous": false,
      "inputs": [
        {
          "indexed": true,
          "internalType": "address",
          "name": "account",
          "type": "address"
        },
        {
          "indexed": true,
          "internalType": "address",
          "name": "operator",
          "type": "address"
        },
        {
          "indexed": false,
          "internalType": "bool",
          "name": "approved",
          "type": "bool"
        }
      ],
      "name": "ApprovalForAll",
      "type": "event"
    },
    {
      "anonymous": false,
      "inputs": [
        {
          "indexed": true,
          "internalType": "bytes32",
          "name": "role",
          "type": "bytes32"
        },
        {
          "indexed": true,
          "internalType": "bytes32",
          "name": "previousAdminRole",
          "type": "bytes32"
        },
        {
          "indexed": true,
          "internalType": "bytes32",
          "name": "newAdminRole",
          "type": "bytes32"
        }
      ],
      "name": "RoleAdminChanged",
      "type": "event"
    },
    {
      "anonymous": false,
      "inputs": [
        {
          "indexed": true,
          "internalType": "bytes32",
          "name": "role",
          "type": "bytes32"
        },
        {
          "indexed": true,
          "internalType": "address",
          "name": "account",
          "type": "address"
        },
        {
          "indexed": true,
          "internalType": "address",
          "name": "sender",
          "type": "address"
        }
      ],
      "name": "RoleGranted",
      "type": "event"
    },
    {
      "anonymous": false,
      "inputs": [
        {
          "indexed": true,
          "internalType": "bytes32",
          "name": "role",
          "type": "bytes32"
        },
        {
          "indexed": true,
          "internalType": "address",
          "name": "account",
          "type": "address"
        },
        {
          "indexed": true,
          "internalType": "address",
          "name": "sender",
          "type": "address"
        }
      ],
      "name": "RoleRevoked",
      "type": "event"
    },
    {
      "anonymous": false,
      "inputs": [
        {
          "indexed": true,
          "internalType": "address",
          "name": "operator",
          "type": "address"
        },
        {
          "indexed": true,
          "internalType": "address",
          "name": "from",
          "type": "address"
        },
        {
          "indexed": true,
          "internalType": "address",
          "name": "to",
          "type": "address"
        },
        {
          "indexed": false,
          "internalType": "uint256[]",
          "name": "ids",
          "type": "uint256[]"
        },
        {
          "indexed": false,
          "internalType": "uint256[]",
          "name": "values",
          "type": "uint256[]"
        }
      ],
      "name": "TransferBatch",
      "type": "event"
    },
    {
      "anonymous": false,
      "inputs": [
        {
          "indexed": true,
          "internalType": "address",
          "name": "operator",
          "type": "address"
        },
        {
          "indexed": true,
          "internalType": "address",
          "name": "from",
          "type": "address"
        },
        {
          "indexed": true,
          "internalType": "address",
          "name": "to",
          "type": "address"
        },
        {
          "indexed": false,
          "internalType": "uint256",
          "name": "id",
          "type": "uint256"
        },
        {
          "indexed": false,
          "internalType": "uint256",
          "name": "value",
          "type": "uint256"
        }
      ],
      "name": "TransferSingle",
      "type": "event"
    },
    {
      "anonymous": false,
      "inputs": [
        {
          "indexed": false,
          "internalType": "string",
          "name": "value",
          "type": "string"
        },
        {
          "indexed": true,
          "internalType": "uint256",
          "name": "id",
          "type": "uint256"
        }
      ],
      "name": "URI",
      "type": "event"
    },
    {
      "inputs": [],
      "name": "DEFAULT_ADMIN_ROLE",
      "outputs": [
        {
          "internalType": "bytes32",
          "name": "",
          "type": "bytes32"
        }
      ],
      "stateMutability": "view",
      "type": "function"
    },
    {
      "inputs": [],
      "name": "allItemIds",
      "outputs": [
        {
          "internalType": "uint256[]",
          "name": "",
          "type": "uint256[]"
        }
      ],
      "stateMutability": "view",
      "type": "function"
    },
    {
      "inputs": [],
      "name": "allItemSupplies",
      "outputs": [
        {
          "internalType": "uint256[][]",
          "name": "",
          "type": "uint256[][]"
        }
      ],
      "stateMutability": "view",
      "type": "function"
    },
    {
      "inputs": [],
      "name": "allItemURIs",
      "outputs": [
        {
          "internalType": "string[]",
          "name": "",
          "type": "string[]"
        }
      ],
      "stateMutability": "view",
      "type": "function"
    },
    {
      "inputs": [
        {
          "internalType": "address",
          "name": "account",
          "type": "address"
        },
        {
          "internalType": "uint256",
          "name": "id",
          "type": "uint256"
        }
      ],
      "name": "balanceOf",
      "outputs": [
        {
          "internalType": "uint256",
          "name": "",
          "type": "uint256"
        }
      ],
      "stateMutability": "view",
      "type": "function"
    },
    {
      "inputs": [
        {
          "internalType": "address",
          "name": "_address",
          "type": "address"
        }
      ],
      "name": "balanceOfAll",
      "outputs": [
        {
          "internalType": "uint256[][]",
          "name": "",
          "type": "uint256[][]"
        }
      ],
      "stateMutability": "view",
      "type": "function"
    },
    {
      "inputs": [
        {
          "internalType": "address[]",
          "name": "accounts",
          "type": "address[]"
        },
        {
          "internalType": "uint256[]",
          "name": "ids",
          "type": "uint256[]"
        }
      ],
      "name": "balanceOfBatch",
      "outputs": [
        {
          "internalType": "uint256[]",
          "name": "",
          "type": "uint256[]"
        }
      ],
      "stateMutability": "view",
      "type": "function"
    },
    {
      "inputs": [
        {
          "internalType": "address",
          "name": "_fromAddress",
          "type": "address"
        },
        {
          "internalType": "address[]",
          "name": "_toAddresses",
          "type": "address[]"
        },
        {
          "internalType": "uint256[]",
          "name": "_itemIds",
          "type": "uint256[]"
        },
        {
          "internalType": "uint256[]",
          "name": "_quantitiesPerAddress",
          "type": "uint256[]"
        }
      ],
      "name": "bulkSafeBatchTransferFrom",
      "outputs": [],
      "stateMutability": "nonpayable",
      "type": "function"
    },
    {
      "inputs": [
        {
          "internalType": "address",
          "name": "_fromAddress",
          "type": "address"
        },
        {
          "internalType": "uint256[]",
          "name": "_itemIds",
          "type": "uint256[]"
        },
        {
          "internalType": "uint256[]",
          "name": "_quantities",
          "type": "uint256[]"
        }
      ],
      "name": "burnBatchFromAddress",
      "outputs": [],
      "stateMutability": "nonpayable",
      "type": "function"
    },
    {
      "inputs": [
        {
          "internalType": "address",
          "name": "_fromAddress",
          "type": "address"
        },
        {
          "internalType": "uint256",
          "name": "_itemId",
          "type": "uint256"
        },
        {
          "internalType": "uint256",
          "name": "_quantity",
          "type": "uint256"
        }
      ],
      "name": "burnFromAddress",
      "outputs": [],
      "stateMutability": "nonpayable",
      "type": "function"
    },
    {
      "inputs": [
        {
          "internalType": "bytes32",
          "name": "role",
          "type": "bytes32"
        }
      ],
      "name": "getRoleAdmin",
      "outputs": [
        {
          "internalType": "bytes32",
          "name": "",
          "type": "bytes32"
        }
      ],
      "stateMutability": "view",
      "type": "function"
    },
    {
      "inputs": [
        {
          "internalType": "bytes32",
          "name": "role",
          "type": "bytes32"
        },
        {
          "internalType": "address",
          "name": "account",
          "type": "address"
        }
      ],
      "name": "grantRole",
      "outputs": [],
      "stateMutability": "nonpayable",
      "type": "function"
    },
    {
      "inputs": [
        {
          "internalType": "bytes32",
          "name": "role",
          "type": "bytes32"
        },
        {
          "internalType": "address",
          "name": "account",
          "type": "address"
        }
      ],
      "name": "hasRole",
      "outputs": [
        {
          "internalType": "bool",
          "name": "",
          "type": "bool"
        }
      ],
      "stateMutability": "view",
      "type": "function"
    },
    {
      "inputs": [
        {
          "internalType": "address",
          "name": "account",
          "type": "address"
        },
        {
          "internalType": "address",
          "name": "operator",
          "type": "address"
        }
      ],
      "name": "isApprovedForAll",
      "outputs": [
        {
          "internalType": "bool",
          "name": "",
          "type": "bool"
        }
      ],
      "stateMutability": "view",
      "type": "function"
    },
    {
      "inputs": [
        {
          "internalType": "uint256",
          "name": "_itemId",
          "type": "uint256"
        }
      ],
      "name": "isItemTransferrable",
      "outputs": [
        {
          "internalType": "bool",
          "name": "",
          "type": "bool"
        }
      ],
      "stateMutability": "view",
      "type": "function"
    },
    {
      "inputs": [
        {
          "internalType": "address",
          "name": "forwarder",
          "type": "address"
        }
      ],
      "name": "isTrustedForwarder",
      "outputs": [
        {
          "internalType": "bool",
          "name": "",
          "type": "bool"
        }
      ],
      "stateMutability": "view",
      "type": "function"
    },
    {
      "inputs": [
        {
          "internalType": "uint256",
          "name": "",
          "type": "uint256"
        }
      ],
      "name": "itemExists",
      "outputs": [
        {
          "internalType": "bool",
          "name": "",
          "type": "bool"
        }
      ],
      "stateMutability": "view",
      "type": "function"
    },
    {
      "inputs": [
        {
          "internalType": "uint256",
          "name": "",
          "type": "uint256"
        }
      ],
      "name": "itemIds",
      "outputs": [
        {
          "internalType": "uint256",
          "name": "",
          "type": "uint256"
        }
      ],
      "stateMutability": "view",
      "type": "function"
    },
    {
      "inputs": [
        {
          "internalType": "uint256",
          "name": "",
          "type": "uint256"
        }
      ],
      "name": "itemSupplies",
      "outputs": [
        {
          "internalType": "uint256",
          "name": "",
          "type": "uint256"
        }
      ],
      "stateMutability": "view",
      "type": "function"
    },
    {
      "inputs": [
        {
          "internalType": "uint256",
          "name": "",
          "type": "uint256"
        }
      ],
      "name": "itemTransferTimelocks",
      "outputs": [
        {
          "internalType": "uint256",
          "name": "",
          "type": "uint256"
        }
      ],
      "stateMutability": "view",
      "type": "function"
    },
    {
      "inputs": [
        {
          "internalType": "address",
          "name": "_toAddress",
          "type": "address"
        },
        {
          "internalType": "uint256[]",
          "name": "_itemIds",
          "type": "uint256[]"
        },
        {
          "internalType": "uint256[]",
          "name": "_quantities",
          "type": "uint256[]"
        }
      ],
      "name": "mintBatchToAddress",
      "outputs": [],
      "stateMutability": "nonpayable",
      "type": "function"
    },
    {
      "inputs": [
        {
          "internalType": "address",
          "name": "_toAddress",
          "type": "address"
        },
        {
          "internalType": "uint256",
          "name": "_itemId",
          "type": "uint256"
        },
        {
          "internalType": "uint256",
          "name": "_quantity",
          "type": "uint256"
        }
      ],
      "name": "mintToAddress",
      "outputs": [],
      "stateMutability": "nonpayable",
      "type": "function"
    },
    {
      "inputs": [
        {
          "internalType": "uint256",
          "name": "_itemIdsStartIndexInclusive",
          "type": "uint256"
        },
        {
          "internalType": "uint256",
          "name": "_limit",
          "type": "uint256"
        }
      ],
      "name": "paginateItemIds",
      "outputs": [
        {
          "internalType": "uint256[]",
          "name": "",
          "type": "uint256[]"
        }
      ],
      "stateMutability": "view",
      "type": "function"
    },
    {
      "inputs": [
        {
          "internalType": "uint256",
          "name": "_itemIdsStartIndexInclusive",
          "type": "uint256"
        },
        {
          "internalType": "uint256",
          "name": "_limit",
          "type": "uint256"
        }
      ],
      "name": "paginateItemSupplies",
      "outputs": [
        {
          "internalType": "uint256[][]",
          "name": "",
          "type": "uint256[][]"
        }
      ],
      "stateMutability": "view",
      "type": "function"
    },
    {
      "inputs": [
        {
          "internalType": "uint256",
          "name": "_itemIdsStartIndexInclusive",
          "type": "uint256"
        },
        {
          "internalType": "uint256",
          "name": "_limit",
          "type": "uint256"
        }
      ],
      "name": "paginateItemURIs",
      "outputs": [
        {
          "internalType": "string[]",
          "name": "",
          "type": "string[]"
        }
      ],
      "stateMutability": "view",
      "type": "function"
    },
    {
      "inputs": [
        {
          "internalType": "bytes32",
          "name": "role",
          "type": "bytes32"
        },
        {
          "internalType": "address",
          "name": "account",
          "type": "address"
        }
      ],
      "name": "renounceRole",
      "outputs": [],
      "stateMutability": "nonpayable",
      "type": "function"
    },
    {
      "inputs": [
        {
          "internalType": "bytes32",
          "name": "role",
          "type": "bytes32"
        },
        {
          "internalType": "address",
          "name": "account",
          "type": "address"
        }
      ],
      "name": "revokeRole",
      "outputs": [],
      "stateMutability": "nonpayable",
      "type": "function"
    },
    {
      "inputs": [
        {
          "internalType": "address",
          "name": "from",
          "type": "address"
        },
        {
          "internalType": "address",
          "name": "to",
          "type": "address"
        },
        {
          "internalType": "uint256[]",
          "name": "ids",
          "type": "uint256[]"
        },
        {
          "internalType": "uint256[]",
          "name": "amounts",
          "type": "uint256[]"
        },
        {
          "internalType": "bytes",
          "name": "data",
          "type": "bytes"
        }
      ],
      "name": "safeBatchTransferFrom",
      "outputs": [],
      "stateMutability": "nonpayable",
      "type": "function"
    },
    {
      "inputs": [
        {
          "internalType": "address",
          "name": "from",
          "type": "address"
        },
        {
          "internalType": "address",
          "name": "to",
          "type": "address"
        },
        {
          "internalType": "uint256",
          "name": "id",
          "type": "uint256"
        },
        {
          "internalType": "uint256",
          "name": "amount",
          "type": "uint256"
        },
        {
          "internalType": "bytes",
          "name": "data",
          "type": "bytes"
        }
      ],
      "name": "safeTransferFrom",
      "outputs": [],
      "stateMutability": "nonpayable",
      "type": "function"
    },
    {
      "inputs": [
        {
          "internalType": "address",
          "name": "operator",
          "type": "address"
        },
        {
          "internalType": "bool",
          "name": "approved",
          "type": "bool"
        }
      ],
      "name": "setApprovalForAll",
      "outputs": [],
      "stateMutability": "nonpayable",
      "type": "function"
    },
    {
      "inputs": [
        {
          "internalType": "uint256",
          "name": "_itemId",
          "type": "uint256"
        },
        {
          "internalType": "uint256",
          "name": "_unlockTimestamp",
          "type": "uint256"
        }
      ],
      "name": "setItemTransferTimelock",
      "outputs": [],
      "stateMutability": "nonpayable",
      "type": "function"
    },
    {
      "inputs": [
        {
          "internalType": "uint256",
          "name": "_itemId",
          "type": "uint256"
        },
        {
          "internalType": "string",
          "name": "_uri",
          "type": "string"
        }
      ],
      "name": "setItemURI",
      "outputs": [],
      "stateMutability": "nonpayable",
      "type": "function"
    },
    {
      "inputs": [
        {
          "internalType": "bytes4",
          "name": "interfaceId",
          "type": "bytes4"
        }
      ],
      "name": "supportsInterface",
      "outputs": [
        {
          "internalType": "bool",
          "name": "",
          "type": "bool"
        }
      ],
      "stateMutability": "view",
      "type": "function"
    },
    {
      "inputs": [],
      "name": "totalItemIds",
      "outputs": [
        {
          "internalType": "uint256",
          "name": "",
          "type": "uint256"
        }
      ],
      "stateMutability": "view",
      "type": "function"
    },
    {
      "inputs": [
        {
          "internalType": "address",
          "name": "_newTrustedForwarder",
          "type": "address"
        }
      ],
      "name": "upgradeTrustedForwarder",
      "outputs": [],
      "stateMutability": "nonpayable",
      "type": "function"
    },
    {
      "inputs": [
        {
          "internalType": "uint256",
          "name": "_itemId",
          "type": "uint256"
        }
      ],
      "name": "uri",
      "outputs": [
        {
          "internalType": "string",
          "name": "",
          "type": "string"
        }
      ],
      "stateMutability": "view",
      "type": "function"
    }
  ],
  "bytecode": "0x60806040523480156200001157600080fd5b5060405162004b6f38038062004b6f8339810160408190526200003491620001d9565b60408051602081019091526000815281906200005081620000bd565b50600380546001600160a01b0319166001600160a01b039290921691909117905562000087600062000081620000cf565b620000eb565b620000b67fc9fc9949603a50f5cc3a96f774f1d68287789a241d2082dc81d0fb19a53bcf2b62000081620000cf565b506200037c565b6002620000cb8282620002b0565b5050565b6000620000e6620000f760201b62001a1f1760201c565b905090565b620000cb82826200012f565b6003546000906001600160a01b031633036200011a575060131936013560601c90565b620000e6620001d560201b62001a791760201c565b60008281526004602090815260408083206001600160a01b038516845290915290205460ff16620000cb5760008281526004602090815260408083206001600160a01b03851684529091529020805460ff1916600117905562000191620000cf565b6001600160a01b0316816001600160a01b0316837f2f8788117e7eff1d82e926ec794901d17c78024a50270940304540a733656f0d60405160405180910390a45050565b3390565b600060208284031215620001ec57600080fd5b81516001600160a01b03811681146200020457600080fd5b9392505050565b634e487b7160e01b600052604160045260246000fd5b600181811c908216806200023657607f821691505b6020821081036200025757634e487b7160e01b600052602260045260246000fd5b50919050565b601f821115620002ab57600081815260208120601f850160051c81016020861015620002865750805b601f850160051c820191505b81811015620002a75782815560010162000292565b5050505b505050565b81516001600160401b03811115620002cc57620002cc6200020b565b620002e481620002dd845462000221565b846200025d565b602080601f8311600181146200031c5760008415620003035750858301515b600019600386901b1c1916600185901b178555620002a7565b600085815260208120601f198616915b828110156200034d578886015182559484019460019091019084016200032c565b50858210156200036c5787850151600019600388901b60f8161c191681555b5050505050600190811b01905550565b6147e3806200038c6000396000f3fe608060405234801561001057600080fd5b506004361061025b5760003560e01c8063843bd64111610145578063b3dc00fe116100bd578063dc7aa9ef1161008c578063efa52e9011610071578063efa52e90146105ce578063f242432a146105d6578063fe992c98146105e957600080fd5b8063dc7aa9ef14610572578063e985e9c51461058557600080fd5b8063b3dc00fe14610519578063b9babeba1461052c578063d547741f1461053f578063d8e141751461055257600080fd5b8063a217fddf11610114578063aa2a7eea116100f9578063aa2a7eea146104d1578063ae06363f146104e4578063b1da7a551461050657600080fd5b8063a217fddf146104b6578063a22cb465146104be57600080fd5b8063843bd641146104325780638c892cfd1461045557806391d148541461045d578063951549b9146104a357600080fd5b80632eb2c2d6116101d85780634b7c78dc116101a7578063572b6c051161018c578063572b6c05146103d057806358ec07c7146103ff5780637bc6cb741461041f57600080fd5b80634b7c78dc1461039d5780634e1273f4146103b057600080fd5b80632eb2c2d61461035c5780632f2ff15d1461036f57806336568abe1461038257806348e1219a1461039557600080fd5b806308f427c71161022f57806313f2f6bd1161021457806313f2f6bd146103065780632257eb7e14610319578063248a9ca31461033957600080fd5b806308f427c7146102d35780630e89341c146102e657600080fd5b8062fdd58e1461026057806301ffc9a71461028657806303cb92fc146102a95780630515cf8d146102be575b600080fd5b61027361026e3660046139b3565b6105fc565b6040519081526020015b60405180910390f35b610299610294366004613a0b565b6106dc565b604051901515815260200161027d565b6102bc6102b7366004613b1e565b610732565b005b6102c661077a565b60405161027d9190613b79565b6102bc6102e1366004613c6d565b6108c1565b6102f96102f4366004613cee565b610a08565b60405161027d9190613d75565b6102c6610314366004613d88565b610aaa565b610273610327366004613cee565b60076020526000908152604090205481565b610273610347366004613cee565b60009081526004602052604090206001015490565b6102bc61036a366004613e5f565b610c30565b6102bc61037d366004613f09565b610d11565b6102bc610390366004613f09565b610d3b565b600554610273565b6102bc6103ab366004613c6d565b610e0b565b6103c36103be366004613f35565b610f30565b60405161027d9190614031565b6102996103de366004614044565b60035473ffffffffffffffffffffffffffffffffffffffff91821691161490565b61027361040d366004613cee565b60086020526000908152604090205481565b6102bc61042d366004613d88565b611088565b610299610440366004613cee565b60066020526000908152604090205460ff1681565b6103c36110c5565b61029961046b366004613f09565b600091825260046020908152604080842073ffffffffffffffffffffffffffffffffffffffff93909316845291905290205460ff1690565b6103c36104b1366004613d88565b61111d565b610273600081565b6102bc6104cc36600461405f565b6111ff565b6102bc6104df366004614044565b611211565b6102996104f2366004613cee565b600090815260086020526040902054421190565b6102bc61051436600461409b565b61127f565b610273610527366004613cee565b611349565b6102bc61053a366004614146565b61136a565b6102bc61054d366004613f09565b611424565b610565610560366004613d88565b611449565b60405161027d9190614179565b6102bc610580366004614146565b6115d1565b6102996105933660046141f9565b73ffffffffffffffffffffffffffffffffffffffff918216600090815260016020908152604080832093909416825291909152205460ff1690565b6105656116b0565b6102bc6105e4366004614223565b6117fd565b6102c66105f7366004614044565b6118de565b600073ffffffffffffffffffffffffffffffffffffffff83166106a6576040517f08c379a000000000000000000000000000000000000000000000000000000000815260206004820152602a60248201527f455243313135353a2061646472657373207a65726f206973206e6f742061207660448201527f616c6964206f776e65720000000000000000000000000000000000000000000060648201526084015b60405180910390fd5b5060008181526020818152604080832073ffffffffffffffffffffffffffffffffffffffff861684529091529020545b92915050565b60007fffffffff0000000000000000000000000000000000000000000000000000000082167f828259390000000000000000000000000000000000000000000000000000000014806106d657506106d682611a7d565b7fc9fc9949603a50f5cc3a96f774f1d68287789a241d2082dc81d0fb19a53bcf2b61075c81611ad3565b6000838152600960205260409020610774838261431b565b50505050565b60055460609060009067ffffffffffffffff81111561079b5761079b613a28565b6040519080825280602002602001820160405280156107ce57816020015b60608152602001906001900390816107b95790505b50905060005b6005548110156108bb576040805160028082526060820183526000926020830190803683370190505090506005828154811061081257610812614435565b90600052602060002001548160008151811061083057610830614435565b602002602001018181525050600760008260008151811061085357610853614435565b60200260200101518152602001908152602001600020548160018151811061087d5761087d614435565b6020026020010181815250508083838151811061089c5761089c614435565b60200260200101819052505080806108b390614493565b9150506107d4565b50919050565b6108ed7fc9fc9949603a50f5cc3a96f774f1d68287789a241d2082dc81d0fb19a53bcf2b61046b611ae7565b8061091f575061091f7fc9eb32e43bf5ecbceacf00b32281dfc5d6d700a0db676ea26ccf938a385ac3f761046b611ae7565b610985576040517f08c379a000000000000000000000000000000000000000000000000000000000815260206004820152601760248201527f4e6f7420617574686f72697a656420746f206d696e742e000000000000000000604482015260640161069d565b610a018585858080602002602001604051908101604052809392919081815260200183836020028082843760009201919091525050604080516020808902828101820190935288825290935088925087918291850190849080828437600092018290525060408051602081019091529081529250611af1915050565b5050505050565b6000818152600960205260409020805460609190610a2590614288565b80601f0160208091040260200160405190810160405280929190818152602001828054610a5190614288565b8015610a9e5780601f10610a7357610100808354040283529160200191610a9e565b820191906000526020600020905b815481529060010190602001808311610a8157829003601f168201915b50505050509050919050565b6005546060906000908410610ac0576000610ace565b600554610ace9085906144cb565b9050600083821115610ae05783610ae2565b815b905060008167ffffffffffffffff811115610aff57610aff613a28565b604051908082528060200260200182016040528015610b3257816020015b6060815260200190600190039081610b1d5790505b50905060005b82811015610c26576040805160028082526060820183526000926020830190803683370190505090506005610b6d838a6144de565b81548110610b7d57610b7d614435565b906000526020600020015481600081518110610b9b57610b9b614435565b6020026020010181815250506007600082600081518110610bbe57610bbe614435565b602002602001015181526020019081526020016000205481600181518110610be857610be8614435565b60200260200101818152505080838381518110610c0757610c07614435565b6020026020010181905250508080610c1e90614493565b915050610b38565b5095945050505050565b610c38611ae7565b73ffffffffffffffffffffffffffffffffffffffff168573ffffffffffffffffffffffffffffffffffffffff161480610c785750610c7885610593611ae7565b610d04576040517f08c379a000000000000000000000000000000000000000000000000000000000815260206004820152602f60248201527f455243313135353a2063616c6c6572206973206e6f7420746f6b656e206f776e60448201527f6572206e6f7220617070726f7665640000000000000000000000000000000000606482015260840161069d565b610a018585858585611d84565b600082815260046020526040902060010154610d2c81611ad3565b610d3683836120cf565b505050565b610d43611ae7565b73ffffffffffffffffffffffffffffffffffffffff168173ffffffffffffffffffffffffffffffffffffffff1614610dfd576040517f08c379a000000000000000000000000000000000000000000000000000000000815260206004820152602f60248201527f416363657373436f6e74726f6c3a2063616e206f6e6c792072656e6f756e636560448201527f20726f6c657320666f722073656c660000000000000000000000000000000000606482015260840161069d565b610e0782826121c4565b5050565b84610e14611ae7565b73ffffffffffffffffffffffffffffffffffffffff168173ffffffffffffffffffffffffffffffffffffffff161480610e545750610e5481610593611ae7565b610eba576040517f08c379a000000000000000000000000000000000000000000000000000000000815260206004820152601560248201527f4e6f7420617070726f76656420746f206275726e2e0000000000000000000000604482015260640161069d565b610f288686868080602002602001604051908101604052809392919081815260200183836020028082843760009201919091525050604080516020808a028281018201909352898252909350899250889182918501908490808284376000920191909152506122b792505050565b505050505050565b60608151835114610fc3576040517f08c379a000000000000000000000000000000000000000000000000000000000815260206004820152602960248201527f455243313135353a206163636f756e747320616e6420696473206c656e67746860448201527f206d69736d617463680000000000000000000000000000000000000000000000606482015260840161069d565b6000835167ffffffffffffffff811115610fdf57610fdf613a28565b604051908082528060200260200182016040528015611008578160200160208202803683370190505b50905060005b84518110156110805761105385828151811061102c5761102c614435565b602002602001015185838151811061104657611046614435565b60200260200101516105fc565b82828151811061106557611065614435565b602090810291909101015261107981614493565b905061100e565b509392505050565b7fc9fc9949603a50f5cc3a96f774f1d68287789a241d2082dc81d0fb19a53bcf2b6110b281611ad3565b5060009182526008602052604090912055565b6060600580548060200260200160405190810160405280929190818152602001828054801561111357602002820191906000526020600020905b8154815260200190600101908083116110ff575b5050505050905090565b6005546060906000908410611133576000611141565b6005546111419085906144cb565b90506000838211156111535783611155565b815b905060008167ffffffffffffffff81111561117257611172613a28565b60405190808252806020026020018201604052801561119b578160200160208202803683370190505b50905060005b82811015610c265760056111b582896144de565b815481106111c5576111c5614435565b90600052602060002001548282815181106111e2576111e2614435565b6020908102919091010152806111f781614493565b9150506111a1565b610e0761120a611ae7565b83836125f7565b7fc9fc9949603a50f5cc3a96f774f1d68287789a241d2082dc81d0fb19a53bcf2b61123b81611ad3565b600380547fffffffffffffffffffffffff00000000000000000000000000000000000000001673ffffffffffffffffffffffffffffffffffffffff84161790555050565b60005b8581101561133f5761132d888888848181106112a0576112a0614435565b90506020020160208101906112b59190614044565b87878080602002602001604051908101604052809392919081815260200183836020028082843760009201919091525050604080516020808b0282810182019093528a82529093508a925089918291850190849080828437600092018290525060408051602081019091529081529250610c30915050565b8061133781614493565b915050611282565b5050505050505050565b6005818154811061135957600080fd5b600091825260209091200154905081565b82611373611ae7565b73ffffffffffffffffffffffffffffffffffffffff168173ffffffffffffffffffffffffffffffffffffffff1614806113b357506113b381610593611ae7565b611419576040517f08c379a000000000000000000000000000000000000000000000000000000000815260206004820152601560248201527f4e6f7420617070726f76656420746f206275726e2e0000000000000000000000604482015260640161069d565b61077484848461274a565b60008281526004602052604090206001015461143f81611ad3565b610d3683836121c4565b600554606090600090841061145f57600061146d565b60055461146d9085906144cb565b905060008382111561147f5783611481565b815b905060008167ffffffffffffffff81111561149e5761149e613a28565b6040519080825280602002602001820160405280156114d157816020015b60608152602001906001900390816114bc5790505b50905060005b82811015610c26576009600060056114ef848b6144de565b815481106114ff576114ff614435565b90600052602060002001548152602001908152602001600020805461152390614288565b80601f016020809104026020016040519081016040528092919081815260200182805461154f90614288565b801561159c5780601f106115715761010080835404028352916020019161159c565b820191906000526020600020905b81548152906001019060200180831161157f57829003601f168201915b50505050508282815181106115b3576115b3614435565b602002602001018190525080806115c990614493565b9150506114d7565b6115fd7fc9fc9949603a50f5cc3a96f774f1d68287789a241d2082dc81d0fb19a53bcf2b61046b611ae7565b8061162f575061162f7fc9eb32e43bf5ecbceacf00b32281dfc5d6d700a0db676ea26ccf938a385ac3f761046b611ae7565b611695576040517f08c379a000000000000000000000000000000000000000000000000000000000815260206004820152601760248201527f4e6f7420617574686f72697a656420746f206d696e742e000000000000000000604482015260640161069d565b610d3683838360405180602001604052806000815250612978565b60055460609060009067ffffffffffffffff8111156116d1576116d1613a28565b60405190808252806020026020018201604052801561170457816020015b60608152602001906001900390816116ef5790505b50905060005b6005548110156108bb57600960006005838154811061172b5761172b614435565b90600052602060002001548152602001908152602001600020805461174f90614288565b80601f016020809104026020016040519081016040528092919081815260200182805461177b90614288565b80156117c85780601f1061179d576101008083540402835291602001916117c8565b820191906000526020600020905b8154815290600101906020018083116117ab57829003601f168201915b50505050508282815181106117df576117df614435565b602002602001018190525080806117f590614493565b91505061170a565b611805611ae7565b73ffffffffffffffffffffffffffffffffffffffff168573ffffffffffffffffffffffffffffffffffffffff161480611845575061184585610593611ae7565b6118d1576040517f08c379a000000000000000000000000000000000000000000000000000000000815260206004820152602f60248201527f455243313135353a2063616c6c6572206973206e6f7420746f6b656e206f776e60448201527f6572206e6f7220617070726f7665640000000000000000000000000000000000606482015260840161069d565b610a018585858585612afa565b60055460609060009067ffffffffffffffff8111156118ff576118ff613a28565b60405190808252806020026020018201604052801561193257816020015b606081526020019060019003908161191d5790505b50905060005b600554811015611a18576040805160028082526060820183526000926020830190803683370190505090506005828154811061197657611976614435565b90600052602060002001548160008151811061199457611994614435565b6020026020010181815250506119c785600584815481106119b7576119b7614435565b90600052602060002001546105fc565b816001815181106119da576119da614435565b602002602001018181525050808383815181106119f9576119f9614435565b6020026020010181905250508080611a1090614493565b915050611938565b5092915050565b60035460009073ffffffffffffffffffffffffffffffffffffffff163303611a6c57507fffffffffffffffffffffffffffffffffffffffffffffffffffffffffffffffec36013560601c90565b503390565b905090565b90565b3390565b60007fffffffff0000000000000000000000000000000000000000000000000000000082167f7965db0b0000000000000000000000000000000000000000000000000000000014806106d657506106d682612d51565b611ae481611adf611ae7565b612e34565b50565b6000611a71611a1f565b73ffffffffffffffffffffffffffffffffffffffff8416611b94576040517f08c379a000000000000000000000000000000000000000000000000000000000815260206004820152602160248201527f455243313135353a206d696e7420746f20746865207a65726f2061646472657360448201527f7300000000000000000000000000000000000000000000000000000000000000606482015260840161069d565b8151835114611c25576040517f08c379a000000000000000000000000000000000000000000000000000000000815260206004820152602860248201527f455243313135353a2069647320616e6420616d6f756e7473206c656e6774682060448201527f6d69736d61746368000000000000000000000000000000000000000000000000606482015260840161069d565b6000611c2f611ae7565b9050611c4081600087878787612f06565b60005b8451811015611cf557838181518110611c5e57611c5e614435565b6020026020010151600080878481518110611c7b57611c7b614435565b6020026020010151815260200190815260200160002060008873ffffffffffffffffffffffffffffffffffffffff1673ffffffffffffffffffffffffffffffffffffffff1681526020019081526020016000206000828254611cdd91906144de565b90915550819050611ced81614493565b915050611c43565b508473ffffffffffffffffffffffffffffffffffffffff16600073ffffffffffffffffffffffffffffffffffffffff168273ffffffffffffffffffffffffffffffffffffffff167f4a39dc06d4c0dbc64b70af90fd698a233a518aa5d07e595d983b8c0526c8f7fb8787604051611d6d9291906144f1565b60405180910390a4610a01816000878787876132be565b8151835114611e15576040517f08c379a000000000000000000000000000000000000000000000000000000000815260206004820152602860248201527f455243313135353a2069647320616e6420616d6f756e7473206c656e6774682060448201527f6d69736d61746368000000000000000000000000000000000000000000000000606482015260840161069d565b73ffffffffffffffffffffffffffffffffffffffff8416611eb8576040517f08c379a000000000000000000000000000000000000000000000000000000000815260206004820152602560248201527f455243313135353a207472616e7366657220746f20746865207a65726f20616460448201527f6472657373000000000000000000000000000000000000000000000000000000606482015260840161069d565b6000611ec2611ae7565b9050611ed2818787878787612f06565b60005b8451811015612042576000858281518110611ef257611ef2614435565b602002602001015190506000858381518110611f1057611f10614435565b6020908102919091018101516000848152808352604080822073ffffffffffffffffffffffffffffffffffffffff8e168352909352919091205490915081811015611fdd576040517f08c379a000000000000000000000000000000000000000000000000000000000815260206004820152602a60248201527f455243313135353a20696e73756666696369656e742062616c616e636520666f60448201527f72207472616e7366657200000000000000000000000000000000000000000000606482015260840161069d565b60008381526020818152604080832073ffffffffffffffffffffffffffffffffffffffff8e8116855292528083208585039055908b168252812080548492906120279084906144de565b925050819055505050508061203b90614493565b9050611ed5565b508473ffffffffffffffffffffffffffffffffffffffff168673ffffffffffffffffffffffffffffffffffffffff168273ffffffffffffffffffffffffffffffffffffffff167f4a39dc06d4c0dbc64b70af90fd698a233a518aa5d07e595d983b8c0526c8f7fb87876040516120b99291906144f1565b60405180910390a4610f288187878787876132be565b600082815260046020908152604080832073ffffffffffffffffffffffffffffffffffffffff8516845290915290205460ff16610e0757600082815260046020908152604080832073ffffffffffffffffffffffffffffffffffffffff85168452909152902080547fffffffffffffffffffffffffffffffffffffffffffffffffffffffffffffff00166001179055612166611ae7565b73ffffffffffffffffffffffffffffffffffffffff168173ffffffffffffffffffffffffffffffffffffffff16837f2f8788117e7eff1d82e926ec794901d17c78024a50270940304540a733656f0d60405160405180910390a45050565b600082815260046020908152604080832073ffffffffffffffffffffffffffffffffffffffff8516845290915290205460ff1615610e0757600082815260046020908152604080832073ffffffffffffffffffffffffffffffffffffffff85168452909152902080547fffffffffffffffffffffffffffffffffffffffffffffffffffffffffffffff00169055612259611ae7565b73ffffffffffffffffffffffffffffffffffffffff168173ffffffffffffffffffffffffffffffffffffffff16837ff6391f5c32d9c69d2a47ea670b442974b53935d1edc7fd64eb21e047a839171b60405160405180910390a45050565b73ffffffffffffffffffffffffffffffffffffffff831661235a576040517f08c379a000000000000000000000000000000000000000000000000000000000815260206004820152602360248201527f455243313135353a206275726e2066726f6d20746865207a65726f206164647260448201527f6573730000000000000000000000000000000000000000000000000000000000606482015260840161069d565b80518251146123eb576040517f08c379a000000000000000000000000000000000000000000000000000000000815260206004820152602860248201527f455243313135353a2069647320616e6420616d6f756e7473206c656e6774682060448201527f6d69736d61746368000000000000000000000000000000000000000000000000606482015260840161069d565b60006123f5611ae7565b905061241581856000868660405180602001604052806000815250612f06565b60005b835181101561256357600084828151811061243557612435614435565b60200260200101519050600084838151811061245357612453614435565b6020908102919091018101516000848152808352604080822073ffffffffffffffffffffffffffffffffffffffff8c16835290935291909120549091508181101561251f576040517f08c379a0000000000000000000000000000000000000000000000000000000008152602060048201526024808201527f455243313135353a206275726e20616d6f756e7420657863656564732062616c60448201527f616e636500000000000000000000000000000000000000000000000000000000606482015260840161069d565b60009283526020838152604080852073ffffffffffffffffffffffffffffffffffffffff8b168652909152909220910390558061255b81614493565b915050612418565b50600073ffffffffffffffffffffffffffffffffffffffff168473ffffffffffffffffffffffffffffffffffffffff168273ffffffffffffffffffffffffffffffffffffffff167f4a39dc06d4c0dbc64b70af90fd698a233a518aa5d07e595d983b8c0526c8f7fb86866040516125db9291906144f1565b60405180910390a4604080516020810190915260009052610774565b8173ffffffffffffffffffffffffffffffffffffffff168373ffffffffffffffffffffffffffffffffffffffff16036126b2576040517f08c379a000000000000000000000000000000000000000000000000000000000815260206004820152602960248201527f455243313135353a2073657474696e6720617070726f76616c2073746174757360448201527f20666f722073656c660000000000000000000000000000000000000000000000606482015260840161069d565b73ffffffffffffffffffffffffffffffffffffffff83811660008181526001602090815260408083209487168084529482529182902080547fffffffffffffffffffffffffffffffffffffffffffffffffffffffffffffff001686151590811790915591519182527f17307eab39ab6107e8899845ad3d59bd9653f200f220920489ca2b5937696c31910160405180910390a3505050565b73ffffffffffffffffffffffffffffffffffffffff83166127ed576040517f08c379a000000000000000000000000000000000000000000000000000000000815260206004820152602360248201527f455243313135353a206275726e2066726f6d20746865207a65726f206164647260448201527f6573730000000000000000000000000000000000000000000000000000000000606482015260840161069d565b60006127f7611ae7565b9050600061280484613548565b9050600061281184613548565b905061283183876000858560405180602001604052806000815250612f06565b60008581526020818152604080832073ffffffffffffffffffffffffffffffffffffffff8a168452909152902054848110156128ee576040517f08c379a0000000000000000000000000000000000000000000000000000000008152602060048201526024808201527f455243313135353a206275726e20616d6f756e7420657863656564732062616c60448201527f616e636500000000000000000000000000000000000000000000000000000000606482015260840161069d565b60008681526020818152604080832073ffffffffffffffffffffffffffffffffffffffff8b81168086529184528285208a8703905582518b81529384018a90529092908816917fc3d58168c5ae7397731d063d5bbf3d657854427343f4c083240f7aacaa2d0f62910160405180910390a46040805160208101909152600090525b50505050505050565b73ffffffffffffffffffffffffffffffffffffffff8416612a1b576040517f08c379a000000000000000000000000000000000000000000000000000000000815260206004820152602160248201527f455243313135353a206d696e7420746f20746865207a65726f2061646472657360448201527f7300000000000000000000000000000000000000000000000000000000000000606482015260840161069d565b6000612a25611ae7565b90506000612a3285613548565b90506000612a3f85613548565b9050612a5083600089858589612f06565b60008681526020818152604080832073ffffffffffffffffffffffffffffffffffffffff8b16845290915281208054879290612a8d9084906144de565b9091555050604080518781526020810187905273ffffffffffffffffffffffffffffffffffffffff808a1692600092918716917fc3d58168c5ae7397731d063d5bbf3d657854427343f4c083240f7aacaa2d0f62910160405180910390a461296f83600089898989613593565b73ffffffffffffffffffffffffffffffffffffffff8416612b9d576040517f08c379a000000000000000000000000000000000000000000000000000000000815260206004820152602560248201527f455243313135353a207472616e7366657220746f20746865207a65726f20616460448201527f6472657373000000000000000000000000000000000000000000000000000000606482015260840161069d565b6000612ba7611ae7565b90506000612bb485613548565b90506000612bc185613548565b9050612bd1838989858589612f06565b60008681526020818152604080832073ffffffffffffffffffffffffffffffffffffffff8c16845290915290205485811015612c8f576040517f08c379a000000000000000000000000000000000000000000000000000000000815260206004820152602a60248201527f455243313135353a20696e73756666696369656e742062616c616e636520666f60448201527f72207472616e7366657200000000000000000000000000000000000000000000606482015260840161069d565b60008781526020818152604080832073ffffffffffffffffffffffffffffffffffffffff8d8116855292528083208985039055908a16825281208054889290612cd99084906144de565b9091555050604080518881526020810188905273ffffffffffffffffffffffffffffffffffffffff808b16928c821692918816917fc3d58168c5ae7397731d063d5bbf3d657854427343f4c083240f7aacaa2d0f62910160405180910390a4612d46848a8a8a8a8a613593565b505050505050505050565b60007fffffffff0000000000000000000000000000000000000000000000000000000082167fd9b67a26000000000000000000000000000000000000000000000000000000001480612de457507fffffffff0000000000000000000000000000000000000000000000000000000082167f0e89341c00000000000000000000000000000000000000000000000000000000145b806106d657507f01ffc9a7000000000000000000000000000000000000000000000000000000007fffffffff000000000000000000000000000000000000000000000000000000008316146106d6565b600082815260046020908152604080832073ffffffffffffffffffffffffffffffffffffffff8516845290915290205460ff16610e0757612e8c8173ffffffffffffffffffffffffffffffffffffffff166014613740565b612e97836020613740565b604051602001612ea892919061451f565b604080517fffffffffffffffffffffffffffffffffffffffffffffffffffffffffffffffe0818403018152908290527f08c379a000000000000000000000000000000000000000000000000000000000825261069d91600401613d75565b60005b835181101561296f576000848281518110612f2657612f26614435565b60200260200101519050612f4881600090815260086020526040902054421190565b80612f67575073ffffffffffffffffffffffffffffffffffffffff8716155b80612fb6575073ffffffffffffffffffffffffffffffffffffffff871660009081527f0bd32db21b4e7a5c682cc92107b99c9dbb2d6d64a346752e11eb45bfb97567f5602052604090205460ff165b80613005575073ffffffffffffffffffffffffffffffffffffffff871660009081527ff9fd1248c586affabc10fb0262dbbca2f7cedc4a81d738b33283f93d7668f836602052604090205460ff165b80613024575073ffffffffffffffffffffffffffffffffffffffff8616155b6130b0576040517f08c379a000000000000000000000000000000000000000000000000000000000815260206004820152602360248201527f4974656d206973206e6f742063757272656e746c79207472616e73666572616260448201527f6c652e0000000000000000000000000000000000000000000000000000000000606482015260840161069d565b73ffffffffffffffffffffffffffffffffffffffff871661318c5760008181526006602052604090205460ff1661314a576005805460018181019092557f036b6384b5eca791c62761152d0c79bb0604c104a5fb6f4eb0703f3154bb3db001829055600082815260066020526040902080547fffffffffffffffffffffffffffffffffffffffffffffffffffffffffffffff001690911790555b83828151811061315c5761315c614435565b602002602001015160076000838152602001908152602001600020600082825461318691906144de565b90915550505b73ffffffffffffffffffffffffffffffffffffffff86166132ab578382815181106131b9576131b9614435565b602002602001015160076000838152602001908152602001600020541015613263576040517f08c379a000000000000000000000000000000000000000000000000000000000815260206004820152602760248201527f455243313135353a206275726e20616d6f756e7420657863656564732069746560448201527f6d537570706c7900000000000000000000000000000000000000000000000000606482015260840161069d565b83828151811061327557613275614435565b6020026020010151600760008381526020019081526020016000205461329b91906144cb565b6000828152600760205260409020555b50806132b681614493565b915050612f09565b73ffffffffffffffffffffffffffffffffffffffff84163b15610f28576040517fbc197c8100000000000000000000000000000000000000000000000000000000815273ffffffffffffffffffffffffffffffffffffffff85169063bc197c819061333590899089908890889088906004016145a0565b6020604051808303816000875af192505050801561338e575060408051601f3d9081017fffffffffffffffffffffffffffffffffffffffffffffffffffffffffffffffe016820190925261338b9181019061460b565b60015b6134775761339a614628565b806308c379a0036133ed57506133ae614643565b806133b957506133ef565b806040517f08c379a000000000000000000000000000000000000000000000000000000000815260040161069d9190613d75565b505b6040517f08c379a000000000000000000000000000000000000000000000000000000000815260206004820152603460248201527f455243313135353a207472616e7366657220746f206e6f6e204552433131353560448201527f526563656976657220696d706c656d656e746572000000000000000000000000606482015260840161069d565b7fffffffff0000000000000000000000000000000000000000000000000000000081167fbc197c81000000000000000000000000000000000000000000000000000000001461296f576040517f08c379a000000000000000000000000000000000000000000000000000000000815260206004820152602860248201527f455243313135353a204552433131353552656365697665722072656a6563746560448201527f6420746f6b656e73000000000000000000000000000000000000000000000000606482015260840161069d565b6040805160018082528183019092526060916000919060208083019080368337019050509050828160008151811061358257613582614435565b602090810291909101015292915050565b73ffffffffffffffffffffffffffffffffffffffff84163b15610f28576040517ff23a6e6100000000000000000000000000000000000000000000000000000000815273ffffffffffffffffffffffffffffffffffffffff85169063f23a6e619061360a90899089908890889088906004016146eb565b6020604051808303816000875af1925050508015613663575060408051601f3d9081017fffffffffffffffffffffffffffffffffffffffffffffffffffffffffffffffe01682019092526136609181019061460b565b60015b61366f5761339a614628565b7fffffffff0000000000000000000000000000000000000000000000000000000081167ff23a6e61000000000000000000000000000000000000000000000000000000001461296f576040517f08c379a000000000000000000000000000000000000000000000000000000000815260206004820152602860248201527f455243313135353a204552433131353552656365697665722072656a6563746560448201527f6420746f6b656e73000000000000000000000000000000000000000000000000606482015260840161069d565b6060600061374f83600261473b565b61375a9060026144de565b67ffffffffffffffff81111561377257613772613a28565b6040519080825280601f01601f19166020018201604052801561379c576020820181803683370190505b5090507f3000000000000000000000000000000000000000000000000000000000000000816000815181106137d3576137d3614435565b60200101907effffffffffffffffffffffffffffffffffffffffffffffffffffffffffffff1916908160001a9053507f78000000000000000000000000000000000000000000000000000000000000008160018151811061383657613836614435565b60200101907effffffffffffffffffffffffffffffffffffffffffffffffffffffffffffff1916908160001a905350600061387284600261473b565b61387d9060016144de565b90505b600181111561391a577f303132333435363738396162636465660000000000000000000000000000000085600f16601081106138be576138be614435565b1a60f81b8282815181106138d4576138d4614435565b60200101907effffffffffffffffffffffffffffffffffffffffffffffffffffffffffffff1916908160001a90535060049490941c9361391381614778565b9050613880565b508315613983576040517f08c379a000000000000000000000000000000000000000000000000000000000815260206004820181905260248201527f537472696e67733a20686578206c656e67746820696e73756666696369656e74604482015260640161069d565b9392505050565b803573ffffffffffffffffffffffffffffffffffffffff811681146139ae57600080fd5b919050565b600080604083850312156139c657600080fd5b6139cf8361398a565b946020939093013593505050565b7fffffffff0000000000000000000000000000000000000000000000000000000081168114611ae457600080fd5b600060208284031215613a1d57600080fd5b8135613983816139dd565b7f4e487b7100000000000000000000000000000000000000000000000000000000600052604160045260246000fd5b7fffffffffffffffffffffffffffffffffffffffffffffffffffffffffffffffe0601f830116810181811067ffffffffffffffff82111715613a9b57613a9b613a28565b6040525050565b600067ffffffffffffffff831115613abc57613abc613a28565b604051613af160207fffffffffffffffffffffffffffffffffffffffffffffffffffffffffffffffe0601f8701160182613a57565b809150838152848484011115613b0657600080fd5b83836020830137600060208583010152509392505050565b60008060408385031215613b3157600080fd5b82359150602083013567ffffffffffffffff811115613b4f57600080fd5b8301601f81018513613b6057600080fd5b613b6f85823560208401613aa2565b9150509250929050565b6000602080830181845280855180835260408601915060408160051b87010192508387016000805b83811015613c13578886037fffffffffffffffffffffffffffffffffffffffffffffffffffffffffffffffc0018552825180518088529088019088880190845b81811015613bfd5783518352928a0192918a0191600101613be1565b5090975050509386019391860191600101613ba1565b509398975050505050505050565b60008083601f840112613c3357600080fd5b50813567ffffffffffffffff811115613c4b57600080fd5b6020830191508360208260051b8501011115613c6657600080fd5b9250929050565b600080600080600060608688031215613c8557600080fd5b613c8e8661398a565b9450602086013567ffffffffffffffff80821115613cab57600080fd5b613cb789838a01613c21565b90965094506040880135915080821115613cd057600080fd5b50613cdd88828901613c21565b969995985093965092949392505050565b600060208284031215613d0057600080fd5b5035919050565b60005b83811015613d22578181015183820152602001613d0a565b50506000910152565b60008151808452613d43816020860160208601613d07565b601f017fffffffffffffffffffffffffffffffffffffffffffffffffffffffffffffffe0169290920160200192915050565b6020815260006139836020830184613d2b565b60008060408385031215613d9b57600080fd5b50508035926020909101359150565b600067ffffffffffffffff821115613dc457613dc4613a28565b5060051b60200190565b600082601f830112613ddf57600080fd5b81356020613dec82613daa565b604051613df98282613a57565b83815260059390931b8501820192828101915086841115613e1957600080fd5b8286015b84811015613e345780358352918301918301613e1d565b509695505050505050565b600082601f830112613e5057600080fd5b61398383833560208501613aa2565b600080600080600060a08688031215613e7757600080fd5b613e808661398a565b9450613e8e6020870161398a565b9350604086013567ffffffffffffffff80821115613eab57600080fd5b613eb789838a01613dce565b94506060880135915080821115613ecd57600080fd5b613ed989838a01613dce565b93506080880135915080821115613eef57600080fd5b50613efc88828901613e3f565b9150509295509295909350565b60008060408385031215613f1c57600080fd5b82359150613f2c6020840161398a565b90509250929050565b60008060408385031215613f4857600080fd5b823567ffffffffffffffff80821115613f6057600080fd5b818501915085601f830112613f7457600080fd5b81356020613f8182613daa565b604051613f8e8282613a57565b83815260059390931b8501820192828101915089841115613fae57600080fd5b948201945b83861015613fd357613fc48661398a565b82529482019490820190613fb3565b96505086013592505080821115613fe957600080fd5b50613b6f85828601613dce565b600081518084526020808501945080840160005b838110156140265781518752958201959082019060010161400a565b509495945050505050565b6020815260006139836020830184613ff6565b60006020828403121561405657600080fd5b6139838261398a565b6000806040838503121561407257600080fd5b61407b8361398a565b91506020830135801515811461409057600080fd5b809150509250929050565b60008060008060008060006080888a0312156140b657600080fd5b6140bf8861398a565b9650602088013567ffffffffffffffff808211156140dc57600080fd5b6140e88b838c01613c21565b909850965060408a013591508082111561410157600080fd5b61410d8b838c01613c21565b909650945060608a013591508082111561412657600080fd5b506141338a828b01613c21565b989b979a50959850939692959293505050565b60008060006060848603121561415b57600080fd5b6141648461398a565b95602085013595506040909401359392505050565b6000602080830181845280855180835260408601915060408160051b870101925083870160005b828110156141ec577fffffffffffffffffffffffffffffffffffffffffffffffffffffffffffffffc08886030184526141da858351613d2b565b945092850192908501906001016141a0565b5092979650505050505050565b6000806040838503121561420c57600080fd5b6142158361398a565b9150613f2c6020840161398a565b600080600080600060a0868803121561423b57600080fd5b6142448661398a565b94506142526020870161398a565b93506040860135925060608601359150608086013567ffffffffffffffff81111561427c57600080fd5b613efc88828901613e3f565b600181811c9082168061429c57607f821691505b6020821081036108bb577f4e487b7100000000000000000000000000000000000000000000000000000000600052602260045260246000fd5b601f821115610d3657600081815260208120601f850160051c810160208610156142fc5750805b601f850160051c820191505b81811015610f2857828155600101614308565b815167ffffffffffffffff81111561433557614335613a28565b614349816143438454614288565b846142d5565b602080601f83116001811461439c57600084156143665750858301515b7fffffffffffffffffffffffffffffffffffffffffffffffffffffffffffffffff600386901b1c1916600185901b178555610f28565b6000858152602081207fffffffffffffffffffffffffffffffffffffffffffffffffffffffffffffffe08616915b828110156143e9578886015182559484019460019091019084016143ca565b508582101561442557878501517fffffffffffffffffffffffffffffffffffffffffffffffffffffffffffffffff600388901b60f8161c191681555b5050505050600190811b01905550565b7f4e487b7100000000000000000000000000000000000000000000000000000000600052603260045260246000fd5b7f4e487b7100000000000000000000000000000000000000000000000000000000600052601160045260246000fd5b60007fffffffffffffffffffffffffffffffffffffffffffffffffffffffffffffffff82036144c4576144c4614464565b5060010190565b818103818111156106d6576106d6614464565b808201808211156106d6576106d6614464565b6040815260006145046040830185613ff6565b82810360208401526145168185613ff6565b95945050505050565b7f416363657373436f6e74726f6c3a206163636f756e7420000000000000000000815260008351614557816017850160208801613d07565b7f206973206d697373696e6720726f6c65200000000000000000000000000000006017918401918201528351614594816028840160208801613d07565b01602801949350505050565b600073ffffffffffffffffffffffffffffffffffffffff808816835280871660208401525060a060408301526145d960a0830186613ff6565b82810360608401526145eb8186613ff6565b905082810360808401526145ff8185613d2b565b98975050505050505050565b60006020828403121561461d57600080fd5b8151613983816139dd565b600060033d1115611a765760046000803e5060005160e01c90565b600060443d10156146515790565b6040517ffffffffffffffffffffffffffffffffffffffffffffffffffffffffffffffffc803d016004833e81513d67ffffffffffffffff816024840111818411171561469f57505050505090565b82850191508151818111156146b75750505050505090565b843d87010160208285010111156146d15750505050505090565b6146e060208286010187613a57565b509095945050505050565b600073ffffffffffffffffffffffffffffffffffffffff808816835280871660208401525084604083015283606083015260a0608083015261473060a0830184613d2b565b979650505050505050565b6000817fffffffffffffffffffffffffffffffffffffffffffffffffffffffffffffffff048311821515161561477357614773614464565b500290565b60008161478757614787614464565b507fffffffffffffffffffffffffffffffffffffffffffffffffffffffffffffffff019056fea26469706673582212206e82df1b8f4734413db48b7704ec718661f98d7bf9d172576ff9f8757c2b056b64736f6c63430008100033",
  "linkReferences": {},
  "deployedLinkReferences": {}
}