{
  "_format": "hh-sol-artifact-1",
  "contractName": "ERC1155_Game_Items_Collection",
  "sourceName": "contracts/Items_Collection/ERC1155_Game_Items_Collection.sol",
  "abi": [
    {
      "inputs": [
        {
          "internalType": "address",
          "name": "_forwarder",
          "type": "address"
        }
      ],
      "stateMutability": "nonpayable",
      "type": "constructor"
    },
    {
      "anonymous": false,
      "inputs": [
        {
          "indexed": true,
          "internalType": "address",
          "name": "account",
          "type": "address"
        },
        {
          "indexed": true,
          "internalType": "address",
          "name": "operator",
          "type": "address"
        },
        {
          "indexed": false,
          "internalType": "bool",
          "name": "approved",
          "type": "bool"
        }
      ],
      "name": "ApprovalForAll",
      "type": "event"
    },
    {
      "anonymous": false,
      "inputs": [
        {
          "indexed": true,
          "internalType": "bytes32",
          "name": "role",
          "type": "bytes32"
        },
        {
          "indexed": true,
          "internalType": "bytes32",
          "name": "previousAdminRole",
          "type": "bytes32"
        },
        {
          "indexed": true,
          "internalType": "bytes32",
          "name": "newAdminRole",
          "type": "bytes32"
        }
      ],
      "name": "RoleAdminChanged",
      "type": "event"
    },
    {
      "anonymous": false,
      "inputs": [
        {
          "indexed": true,
          "internalType": "bytes32",
          "name": "role",
          "type": "bytes32"
        },
        {
          "indexed": true,
          "internalType": "address",
          "name": "account",
          "type": "address"
        },
        {
          "indexed": true,
          "internalType": "address",
          "name": "sender",
          "type": "address"
        }
      ],
      "name": "RoleGranted",
      "type": "event"
    },
    {
      "anonymous": false,
      "inputs": [
        {
          "indexed": true,
          "internalType": "bytes32",
          "name": "role",
          "type": "bytes32"
        },
        {
          "indexed": true,
          "internalType": "address",
          "name": "account",
          "type": "address"
        },
        {
          "indexed": true,
          "internalType": "address",
          "name": "sender",
          "type": "address"
        }
      ],
      "name": "RoleRevoked",
      "type": "event"
    },
    {
      "anonymous": false,
      "inputs": [
        {
          "indexed": true,
          "internalType": "address",
          "name": "operator",
          "type": "address"
        },
        {
          "indexed": true,
          "internalType": "address",
          "name": "from",
          "type": "address"
        },
        {
          "indexed": true,
          "internalType": "address",
          "name": "to",
          "type": "address"
        },
        {
          "indexed": false,
          "internalType": "uint256[]",
          "name": "ids",
          "type": "uint256[]"
        },
        {
          "indexed": false,
          "internalType": "uint256[]",
          "name": "values",
          "type": "uint256[]"
        }
      ],
      "name": "TransferBatch",
      "type": "event"
    },
    {
      "anonymous": false,
      "inputs": [
        {
          "indexed": true,
          "internalType": "address",
          "name": "operator",
          "type": "address"
        },
        {
          "indexed": true,
          "internalType": "address",
          "name": "from",
          "type": "address"
        },
        {
          "indexed": true,
          "internalType": "address",
          "name": "to",
          "type": "address"
        },
        {
          "indexed": false,
          "internalType": "uint256",
          "name": "id",
          "type": "uint256"
        },
        {
          "indexed": false,
          "internalType": "uint256",
          "name": "value",
          "type": "uint256"
        }
      ],
      "name": "TransferSingle",
      "type": "event"
    },
    {
      "anonymous": false,
      "inputs": [
        {
          "indexed": false,
          "internalType": "string",
          "name": "value",
          "type": "string"
        },
        {
          "indexed": true,
          "internalType": "uint256",
          "name": "id",
          "type": "uint256"
        }
      ],
      "name": "URI",
      "type": "event"
    },
    {
      "inputs": [],
      "name": "DEFAULT_ADMIN_ROLE",
      "outputs": [
        {
          "internalType": "bytes32",
          "name": "",
          "type": "bytes32"
        }
      ],
      "stateMutability": "view",
      "type": "function"
    },
    {
      "inputs": [],
      "name": "allItemIds",
      "outputs": [
        {
          "internalType": "uint256[]",
          "name": "",
          "type": "uint256[]"
        }
      ],
      "stateMutability": "view",
      "type": "function"
    },
    {
      "inputs": [],
      "name": "allItemSupplies",
      "outputs": [
        {
          "internalType": "uint256[]",
          "name": "",
          "type": "uint256[]"
        }
      ],
      "stateMutability": "view",
      "type": "function"
    },
    {
      "inputs": [],
      "name": "allItemURIs",
      "outputs": [
        {
          "internalType": "string[]",
          "name": "",
          "type": "string[]"
        }
      ],
      "stateMutability": "view",
      "type": "function"
    },
    {
      "inputs": [
        {
          "internalType": "address",
          "name": "account",
          "type": "address"
        },
        {
          "internalType": "uint256",
          "name": "id",
          "type": "uint256"
        }
      ],
      "name": "balanceOf",
      "outputs": [
        {
          "internalType": "uint256",
          "name": "",
          "type": "uint256"
        }
      ],
      "stateMutability": "view",
      "type": "function"
    },
    {
      "inputs": [
        {
          "internalType": "address",
          "name": "_address",
          "type": "address"
        }
      ],
      "name": "balanceOfAll",
      "outputs": [
        {
          "internalType": "uint256[][]",
          "name": "",
          "type": "uint256[][]"
        }
      ],
      "stateMutability": "view",
      "type": "function"
    },
    {
      "inputs": [
        {
          "internalType": "address[]",
          "name": "accounts",
          "type": "address[]"
        },
        {
          "internalType": "uint256[]",
          "name": "ids",
          "type": "uint256[]"
        }
      ],
      "name": "balanceOfBatch",
      "outputs": [
        {
          "internalType": "uint256[]",
          "name": "",
          "type": "uint256[]"
        }
      ],
      "stateMutability": "view",
      "type": "function"
    },
    {
      "inputs": [
        {
          "internalType": "address",
          "name": "_fromAddress",
          "type": "address"
        },
        {
          "internalType": "address[]",
          "name": "_toAddresses",
          "type": "address[]"
        },
        {
          "internalType": "uint256[]",
          "name": "_itemIds",
          "type": "uint256[]"
        },
        {
          "internalType": "uint256[]",
          "name": "_quantitiesPerAddress",
          "type": "uint256[]"
        }
      ],
      "name": "bulkSafeBatchTransferFrom",
      "outputs": [],
      "stateMutability": "nonpayable",
      "type": "function"
    },
    {
      "inputs": [
        {
          "internalType": "address",
          "name": "_fromAddress",
          "type": "address"
        },
        {
          "internalType": "address[]",
          "name": "_toAddresses",
          "type": "address[]"
        },
        {
          "internalType": "uint256",
          "name": "_itemId",
          "type": "uint256"
        },
        {
          "internalType": "uint256",
          "name": "_quantityPerAddress",
          "type": "uint256"
        }
      ],
      "name": "bulkSafeTransferFrom",
      "outputs": [],
      "stateMutability": "nonpayable",
      "type": "function"
    },
    {
      "inputs": [
        {
          "internalType": "uint256[]",
          "name": "_itemIds",
          "type": "uint256[]"
        },
        {
          "internalType": "string[]",
          "name": "_uris",
          "type": "string[]"
        }
      ],
      "name": "bulkSetItemURIs",
      "outputs": [],
      "stateMutability": "nonpayable",
      "type": "function"
    },
    {
      "inputs": [
        {
          "internalType": "address",
          "name": "_fromAddress",
          "type": "address"
        },
        {
          "internalType": "uint256[]",
          "name": "_itemIds",
          "type": "uint256[]"
        },
        {
          "internalType": "uint256[]",
          "name": "_quantities",
          "type": "uint256[]"
        }
      ],
      "name": "burnBatchFromAddress",
      "outputs": [],
      "stateMutability": "nonpayable",
      "type": "function"
    },
    {
      "inputs": [
        {
          "internalType": "address",
          "name": "_fromAddress",
          "type": "address"
        },
        {
          "internalType": "uint256",
          "name": "_itemId",
          "type": "uint256"
        },
        {
          "internalType": "uint256",
          "name": "_quantity",
          "type": "uint256"
        }
      ],
      "name": "burnFromAddress",
      "outputs": [],
      "stateMutability": "nonpayable",
      "type": "function"
    },
    {
      "inputs": [
        {
          "internalType": "bytes32",
          "name": "role",
          "type": "bytes32"
        }
      ],
      "name": "getRoleAdmin",
      "outputs": [
        {
          "internalType": "bytes32",
          "name": "",
          "type": "bytes32"
        }
      ],
      "stateMutability": "view",
      "type": "function"
    },
    {
      "inputs": [
        {
          "internalType": "bytes32",
          "name": "role",
          "type": "bytes32"
        },
        {
          "internalType": "address",
          "name": "account",
          "type": "address"
        }
      ],
      "name": "grantRole",
      "outputs": [],
      "stateMutability": "nonpayable",
      "type": "function"
    },
    {
      "inputs": [
        {
          "internalType": "bytes32",
          "name": "role",
          "type": "bytes32"
        },
        {
          "internalType": "address",
          "name": "account",
          "type": "address"
        }
      ],
      "name": "hasRole",
      "outputs": [
        {
          "internalType": "bool",
          "name": "",
          "type": "bool"
        }
      ],
      "stateMutability": "view",
      "type": "function"
    },
    {
      "inputs": [
        {
          "internalType": "address",
          "name": "account",
          "type": "address"
        },
        {
          "internalType": "address",
          "name": "operator",
          "type": "address"
        }
      ],
      "name": "isApprovedForAll",
      "outputs": [
        {
          "internalType": "bool",
          "name": "",
          "type": "bool"
        }
      ],
      "stateMutability": "view",
      "type": "function"
    },
    {
      "inputs": [
        {
          "internalType": "uint256",
          "name": "_itemId",
          "type": "uint256"
        }
      ],
      "name": "isItemTransferrable",
      "outputs": [
        {
          "internalType": "bool",
          "name": "",
          "type": "bool"
        }
      ],
      "stateMutability": "view",
      "type": "function"
    },
    {
      "inputs": [
        {
          "internalType": "address",
          "name": "forwarder",
          "type": "address"
        }
      ],
      "name": "isTrustedForwarder",
      "outputs": [
        {
          "internalType": "bool",
          "name": "",
          "type": "bool"
        }
      ],
      "stateMutability": "view",
      "type": "function"
    },
    {
      "inputs": [
        {
          "internalType": "uint256",
          "name": "_itemId",
          "type": "uint256"
        }
      ],
      "name": "itemExists",
      "outputs": [
        {
          "internalType": "bool",
          "name": "",
          "type": "bool"
        }
      ],
      "stateMutability": "view",
      "type": "function"
    },
    {
      "inputs": [
        {
          "internalType": "uint256",
          "name": "",
          "type": "uint256"
        }
      ],
      "name": "itemIds",
      "outputs": [
        {
          "internalType": "uint256",
          "name": "",
          "type": "uint256"
        }
      ],
      "stateMutability": "view",
      "type": "function"
    },
    {
      "inputs": [
        {
          "internalType": "uint256",
          "name": "",
          "type": "uint256"
        }
      ],
      "name": "itemSupplies",
      "outputs": [
        {
          "internalType": "uint256",
          "name": "",
          "type": "uint256"
        }
      ],
      "stateMutability": "view",
      "type": "function"
    },
    {
      "inputs": [
        {
          "internalType": "uint256",
          "name": "",
          "type": "uint256"
        }
      ],
      "name": "itemTransferTimelocks",
      "outputs": [
        {
          "internalType": "uint256",
          "name": "",
          "type": "uint256"
        }
      ],
      "stateMutability": "view",
      "type": "function"
    },
    {
      "inputs": [
        {
          "internalType": "address",
          "name": "_toAddress",
          "type": "address"
        },
        {
          "internalType": "uint256[]",
          "name": "_itemIds",
          "type": "uint256[]"
        },
        {
          "internalType": "uint256[]",
          "name": "_quantities",
          "type": "uint256[]"
        }
      ],
      "name": "mintBatchToAddress",
      "outputs": [],
      "stateMutability": "nonpayable",
      "type": "function"
    },
    {
      "inputs": [
        {
          "internalType": "address",
          "name": "_toAddress",
          "type": "address"
        },
        {
          "internalType": "uint256",
          "name": "_itemId",
          "type": "uint256"
        },
        {
          "internalType": "uint256",
          "name": "_quantity",
          "type": "uint256"
        }
      ],
      "name": "mintToAddress",
      "outputs": [],
      "stateMutability": "nonpayable",
      "type": "function"
    },
    {
      "inputs": [
        {
          "internalType": "uint256",
          "name": "_itemIdsStartIndexInclusive",
          "type": "uint256"
        },
        {
          "internalType": "uint256",
          "name": "_limit",
          "type": "uint256"
        }
      ],
      "name": "paginateItemIds",
      "outputs": [
        {
          "internalType": "uint256[]",
          "name": "",
          "type": "uint256[]"
        }
      ],
      "stateMutability": "view",
      "type": "function"
    },
    {
      "inputs": [
        {
          "internalType": "uint256",
          "name": "_itemIdsStartIndexInclusive",
          "type": "uint256"
        },
        {
          "internalType": "uint256",
          "name": "_limit",
          "type": "uint256"
        }
      ],
      "name": "paginateItemSupplies",
      "outputs": [
        {
          "internalType": "uint256[]",
          "name": "",
          "type": "uint256[]"
        }
      ],
      "stateMutability": "view",
      "type": "function"
    },
    {
      "inputs": [
        {
          "internalType": "uint256",
          "name": "_itemIdsStartIndexInclusive",
          "type": "uint256"
        },
        {
          "internalType": "uint256",
          "name": "_limit",
          "type": "uint256"
        }
      ],
      "name": "paginateItemURIs",
      "outputs": [
        {
          "internalType": "string[]",
          "name": "",
          "type": "string[]"
        }
      ],
      "stateMutability": "view",
      "type": "function"
    },
    {
      "inputs": [
        {
          "internalType": "bytes32",
          "name": "role",
          "type": "bytes32"
        },
        {
          "internalType": "address",
          "name": "account",
          "type": "address"
        }
      ],
      "name": "renounceRole",
      "outputs": [],
      "stateMutability": "nonpayable",
      "type": "function"
    },
    {
      "inputs": [
        {
          "internalType": "bytes32",
          "name": "role",
          "type": "bytes32"
        },
        {
          "internalType": "address",
          "name": "account",
          "type": "address"
        }
      ],
      "name": "revokeRole",
      "outputs": [],
      "stateMutability": "nonpayable",
      "type": "function"
    },
    {
      "inputs": [
        {
          "internalType": "address",
          "name": "from",
          "type": "address"
        },
        {
          "internalType": "address",
          "name": "to",
          "type": "address"
        },
        {
          "internalType": "uint256[]",
          "name": "ids",
          "type": "uint256[]"
        },
        {
          "internalType": "uint256[]",
          "name": "amounts",
          "type": "uint256[]"
        },
        {
          "internalType": "bytes",
          "name": "data",
          "type": "bytes"
        }
      ],
      "name": "safeBatchTransferFrom",
      "outputs": [],
      "stateMutability": "nonpayable",
      "type": "function"
    },
    {
      "inputs": [
        {
          "internalType": "address",
          "name": "from",
          "type": "address"
        },
        {
          "internalType": "address",
          "name": "to",
          "type": "address"
        },
        {
          "internalType": "uint256",
          "name": "id",
          "type": "uint256"
        },
        {
          "internalType": "uint256",
          "name": "amount",
          "type": "uint256"
        },
        {
          "internalType": "bytes",
          "name": "data",
          "type": "bytes"
        }
      ],
      "name": "safeTransferFrom",
      "outputs": [],
      "stateMutability": "nonpayable",
      "type": "function"
    },
    {
      "inputs": [
        {
          "internalType": "address",
          "name": "operator",
          "type": "address"
        },
        {
          "internalType": "bool",
          "name": "approved",
          "type": "bool"
        }
      ],
      "name": "setApprovalForAll",
      "outputs": [],
      "stateMutability": "nonpayable",
      "type": "function"
    },
    {
      "inputs": [
        {
          "internalType": "uint256",
          "name": "_itemId",
          "type": "uint256"
        },
        {
          "internalType": "uint256",
          "name": "_unlockTimestamp",
          "type": "uint256"
        }
      ],
      "name": "setItemTransferTimelock",
      "outputs": [],
      "stateMutability": "nonpayable",
      "type": "function"
    },
    {
      "inputs": [
        {
          "internalType": "uint256",
          "name": "_itemId",
          "type": "uint256"
        },
        {
          "internalType": "string",
          "name": "_uri",
          "type": "string"
        }
      ],
      "name": "setItemURI",
      "outputs": [],
      "stateMutability": "nonpayable",
      "type": "function"
    },
    {
      "inputs": [
        {
          "internalType": "bytes4",
          "name": "interfaceId",
          "type": "bytes4"
        }
      ],
      "name": "supportsInterface",
      "outputs": [
        {
          "internalType": "bool",
          "name": "",
          "type": "bool"
        }
      ],
      "stateMutability": "view",
      "type": "function"
    },
    {
      "inputs": [],
      "name": "totalItemIds",
      "outputs": [
        {
          "internalType": "uint256",
          "name": "",
          "type": "uint256"
        }
      ],
      "stateMutability": "view",
      "type": "function"
    },
    {
      "inputs": [
        {
          "internalType": "address",
          "name": "_newTrustedForwarder",
          "type": "address"
        }
      ],
      "name": "upgradeTrustedForwarder",
      "outputs": [],
      "stateMutability": "nonpayable",
      "type": "function"
    },
    {
      "inputs": [
        {
          "internalType": "uint256",
          "name": "_itemId",
          "type": "uint256"
        }
      ],
      "name": "uri",
      "outputs": [
        {
          "internalType": "string",
          "name": "",
          "type": "string"
        }
      ],
      "stateMutability": "view",
      "type": "function"
    }
  ],
  "bytecode": "0x60806040523480156200001157600080fd5b5060405162004cac38038062004cac8339810160408190526200003491620001d9565b60408051602081019091526000815281906200005081620000bd565b50600380546001600160a01b0319166001600160a01b039290921691909117905562000087600062000081620000cf565b620000eb565b620000b67fc9fc9949603a50f5cc3a96f774f1d68287789a241d2082dc81d0fb19a53bcf2b62000081620000cf565b506200037c565b6002620000cb8282620002b0565b5050565b6000620000e6620000f760201b62001a641760201c565b905090565b620000cb82826200012f565b6003546000906001600160a01b031633036200011a575060131936013560601c90565b620000e6620001d560201b62001abe1760201c565b60008281526004602090815260408083206001600160a01b038516845290915290205460ff16620000cb5760008281526004602090815260408083206001600160a01b03851684529091529020805460ff1916600117905562000191620000cf565b6001600160a01b0316816001600160a01b0316837f2f8788117e7eff1d82e926ec794901d17c78024a50270940304540a733656f0d60405160405180910390a45050565b3390565b600060208284031215620001ec57600080fd5b81516001600160a01b03811681146200020457600080fd5b9392505050565b634e487b7160e01b600052604160045260246000fd5b600181811c908216806200023657607f821691505b6020821081036200025757634e487b7160e01b600052602260045260246000fd5b50919050565b601f821115620002ab57600081815260208120601f850160051c81016020861015620002865750805b601f850160051c820191505b81811015620002a75782815560010162000292565b5050505b505050565b81516001600160401b03811115620002cc57620002cc6200020b565b620002e481620002dd845462000221565b846200025d565b602080601f8311600181146200031c5760008415620003035750858301515b600019600386901b1c1916600185901b178555620002a7565b600085815260208120601f198616915b828110156200034d578886015182559484019460019091019084016200032c565b50858210156200036c5787850151600019600388901b60f8161c191681555b5050505050600190811b01905550565b614920806200038c6000396000f3fe608060405234801561001057600080fd5b50600436106102915760003560e01c8063843bd64111610160578063b1da7a55116100d8578063dc7aa9ef1161008c578063efa52e9011610071578063efa52e901461061c578063f242432a14610624578063fe992c981461063757600080fd5b8063dc7aa9ef146105c0578063e985e9c5146105d357600080fd5b8063b9babeba116100bd578063b9babeba1461057a578063d547741f1461058d578063d8e14175146105a057600080fd5b8063b1da7a5514610554578063b3dc00fe1461056757600080fd5b8063a217fddf1161012f578063aa2a7eea11610114578063aa2a7eea1461050c578063ae06363f1461051f578063af9c50c71461054157600080fd5b8063a217fddf146104f1578063a22cb465146104f957600080fd5b8063843bd6411461046e5780638c892cfd1461049057806391d1485414610498578063951549b9146104de57600080fd5b80632eb2c2d61161020e5780634b7c78dc116101c2578063572b6c05116101a7578063572b6c051461040c57806358ec07c71461043b5780637bc6cb741461045b57600080fd5b80634b7c78dc146103e65780634e1273f4146103f957600080fd5b806335f63716116101f357806335f63716146103b857806336568abe146103cb57806348e1219a146103de57600080fd5b80632eb2c2d6146103925780632f2ff15d146103a557600080fd5b806308f427c71161026557806313f2f6bd1161024a57806313f2f6bd1461033c5780632257eb7e1461034f578063248a9ca31461036f57600080fd5b806308f427c7146103095780630e89341c1461031c57600080fd5b8062fdd58e1461029657806301ffc9a7146102bc57806303cb92fc146102df5780630515cf8d146102f4575b600080fd5b6102a96102a43660046139c4565b610657565b6040519081526020015b60405180910390f35b6102cf6102ca366004613a1c565b610737565b60405190151581526020016102b3565b6102f26102ed366004613b45565b61078d565b005b6102fc6107d5565b6040516102b39190613bc7565b6102f2610317366004613c26565b610895565b61032f61032a366004613ca7565b6109dc565b6040516102b39190613d2e565b6102fc61034a366004613d41565b610a7e565b6102a961035d366004613ca7565b60066020526000908152604090205481565b6102a961037d366004613ca7565b60009081526004602052604090206001015490565b6102f26103a0366004613df8565b610b7d565b6102f26103b3366004613ea2565b610c5e565b6102f26103c6366004613ece565b610c88565b6102f26103d9366004613ea2565b610d21565b6005546102a9565b6102f26103f4366004613c26565b610df1565b6102fc610407366004613fb3565b610f16565b6102cf61041a366004614074565b60035473ffffffffffffffffffffffffffffffffffffffff91821691161490565b6102a9610449366004613ca7565b60076020526000908152604090205481565b6102f2610469366004613d41565b61106e565b6102cf61047c366004613ca7565b600090815260066020526040902054151590565b6102fc6110ab565b6102cf6104a6366004613ea2565b600091825260046020908152604080842073ffffffffffffffffffffffffffffffffffffffff93909316845291905290205460ff1690565b6102fc6104ec366004613d41565b611103565b6102a9600081565b6102f261050736600461408f565b6111e5565b6102f261051a366004614074565b6111f7565b6102cf61052d366004613ca7565b600090815260076020526040902054421190565b6102f261054f3660046140cb565b611265565b6102f2610562366004614130565b6112c4565b6102a9610575366004613ca7565b61138e565b6102f26105883660046141db565b6113af565b6102f261059b366004613ea2565b611469565b6105b36105ae366004613d41565b61148e565b6040516102b3919061420e565b6102f26105ce3660046141db565b611616565b6102cf6105e136600461428e565b73ffffffffffffffffffffffffffffffffffffffff918216600090815260016020908152604080832093909416825291909152205460ff1690565b6105b36116f5565b6102f26106323660046142b8565b611842565b61064a610645366004614074565b611923565b6040516102b3919061431d565b600073ffffffffffffffffffffffffffffffffffffffff8316610701576040517f08c379a000000000000000000000000000000000000000000000000000000000815260206004820152602a60248201527f455243313135353a2061646472657373207a65726f206973206e6f742061207660448201527f616c6964206f776e65720000000000000000000000000000000000000000000060648201526084015b60405180910390fd5b5060008181526020818152604080832073ffffffffffffffffffffffffffffffffffffffff861684529091529020545b92915050565b60007fffffffff0000000000000000000000000000000000000000000000000000000082167f18e83ee8000000000000000000000000000000000000000000000000000000001480610731575061073182611ac2565b7fc9fc9949603a50f5cc3a96f774f1d68287789a241d2082dc81d0fb19a53bcf2b6107b781611b18565b60008381526008602052604090206107cf8382614458565b50505050565b60055460609060009067ffffffffffffffff8111156107f6576107f6613a39565b60405190808252806020026020018201604052801561081f578160200160208202803683370190505b50905060005b60055481101561088f57600660006005838154811061084657610846614572565b906000526020600020015481526020019081526020016000205482828151811061087257610872614572565b602090810291909101015280610887816145d0565b915050610825565b50919050565b6108c17fc9fc9949603a50f5cc3a96f774f1d68287789a241d2082dc81d0fb19a53bcf2b6104a6611b2c565b806108f357506108f37fc9eb32e43bf5ecbceacf00b32281dfc5d6d700a0db676ea26ccf938a385ac3f76104a6611b2c565b610959576040517f08c379a000000000000000000000000000000000000000000000000000000000815260206004820152601760248201527f4e6f7420617574686f72697a656420746f206d696e742e00000000000000000060448201526064016106f8565b6109d58585858080602002602001604051908101604052809392919081815260200183836020028082843760009201919091525050604080516020808902828101820190935288825290935088925087918291850190849080828437600092018290525060408051602081019091529081529250611b36915050565b5050505050565b60008181526008602052604090208054606091906109f9906143c5565b80601f0160208091040260200160405190810160405280929190818152602001828054610a25906143c5565b8015610a725780601f10610a4757610100808354040283529160200191610a72565b820191906000526020600020905b815481529060010190602001808311610a5557829003601f168201915b50505050509050919050565b6005546060906000908410610a94576000610aa2565b600554610aa2908590614608565b9050600083821115610ab45783610ab6565b815b905060008167ffffffffffffffff811115610ad357610ad3613a39565b604051908082528060200260200182016040528015610afc578160200160208202803683370190505b50905060005b82811015610b7357600660006005610b1a848b61461b565b81548110610b2a57610b2a614572565b9060005260206000200154815260200190815260200160002054828281518110610b5657610b56614572565b602090810291909101015280610b6b816145d0565b915050610b02565b5095945050505050565b610b85611b2c565b73ffffffffffffffffffffffffffffffffffffffff168573ffffffffffffffffffffffffffffffffffffffff161480610bc55750610bc5856105e1611b2c565b610c51576040517f08c379a000000000000000000000000000000000000000000000000000000000815260206004820152602f60248201527f455243313135353a2063616c6c6572206973206e6f7420746f6b656e206f776e60448201527f6572206e6f7220617070726f766564000000000000000000000000000000000060648201526084016106f8565b6109d58585858585611dc9565b600082815260046020526040902060010154610c7981611b18565b610c838383612114565b505050565b7fc9fc9949603a50f5cc3a96f774f1d68287789a241d2082dc81d0fb19a53bcf2b610cb281611b18565b60005b838110156109d557828181518110610ccf57610ccf614572565b602002602001015160086000878785818110610ced57610ced614572565b9050602002013581526020019081526020016000209081610d0e9190614458565b5080610d19816145d0565b915050610cb5565b610d29611b2c565b73ffffffffffffffffffffffffffffffffffffffff168173ffffffffffffffffffffffffffffffffffffffff1614610de3576040517f08c379a000000000000000000000000000000000000000000000000000000000815260206004820152602f60248201527f416363657373436f6e74726f6c3a2063616e206f6e6c792072656e6f756e636560448201527f20726f6c657320666f722073656c66000000000000000000000000000000000060648201526084016106f8565b610ded8282612209565b5050565b84610dfa611b2c565b73ffffffffffffffffffffffffffffffffffffffff168173ffffffffffffffffffffffffffffffffffffffff161480610e3a5750610e3a816105e1611b2c565b610ea0576040517f08c379a000000000000000000000000000000000000000000000000000000000815260206004820152601560248201527f4e6f7420617070726f76656420746f206275726e2e000000000000000000000060448201526064016106f8565b610f0e8686868080602002602001604051908101604052809392919081815260200183836020028082843760009201919091525050604080516020808a028281018201909352898252909350899250889182918501908490808284376000920191909152506122fc92505050565b505050505050565b60608151835114610fa9576040517f08c379a000000000000000000000000000000000000000000000000000000000815260206004820152602960248201527f455243313135353a206163636f756e747320616e6420696473206c656e67746860448201527f206d69736d61746368000000000000000000000000000000000000000000000060648201526084016106f8565b6000835167ffffffffffffffff811115610fc557610fc5613a39565b604051908082528060200260200182016040528015610fee578160200160208202803683370190505b50905060005b84518110156110665761103985828151811061101257611012614572565b602002602001015185838151811061102c5761102c614572565b6020026020010151610657565b82828151811061104b5761104b614572565b602090810291909101015261105f816145d0565b9050610ff4565b509392505050565b7fc9fc9949603a50f5cc3a96f774f1d68287789a241d2082dc81d0fb19a53bcf2b61109881611b18565b5060009182526007602052604090912055565b606060058054806020026020016040519081016040528092919081815260200182805480156110f957602002820191906000526020600020905b8154815260200190600101908083116110e5575b5050505050905090565b6005546060906000908410611119576000611127565b600554611127908590614608565b9050600083821115611139578361113b565b815b905060008167ffffffffffffffff81111561115857611158613a39565b604051908082528060200260200182016040528015611181578160200160208202803683370190505b50905060005b82811015610b7357600561119b828961461b565b815481106111ab576111ab614572565b90600052602060002001548282815181106111c8576111c8614572565b6020908102919091010152806111dd816145d0565b915050611187565b610ded6111f0611b2c565b838361263c565b7fc9fc9949603a50f5cc3a96f774f1d68287789a241d2082dc81d0fb19a53bcf2b61122181611b18565b600380547fffffffffffffffffffffffff00000000000000000000000000000000000000001673ffffffffffffffffffffffffffffffffffffffff84161790555050565b60005b83811015610f0e576112b28686868481811061128657611286614572565b905060200201602081019061129b9190614074565b858560405180602001604052806000815250611842565b806112bc816145d0565b915050611268565b60005b8581101561138457611372888888848181106112e5576112e5614572565b90506020020160208101906112fa9190614074565b87878080602002602001604051908101604052809392919081815260200183836020028082843760009201919091525050604080516020808b0282810182019093528a82529093508a925089918291850190849080828437600092018290525060408051602081019091529081529250610b7d915050565b8061137c816145d0565b9150506112c7565b5050505050505050565b6005818154811061139e57600080fd5b600091825260209091200154905081565b826113b8611b2c565b73ffffffffffffffffffffffffffffffffffffffff168173ffffffffffffffffffffffffffffffffffffffff1614806113f857506113f8816105e1611b2c565b61145e576040517f08c379a000000000000000000000000000000000000000000000000000000000815260206004820152601560248201527f4e6f7420617070726f76656420746f206275726e2e000000000000000000000060448201526064016106f8565b6107cf84848461278f565b60008281526004602052604090206001015461148481611b18565b610c838383612209565b60055460609060009084106114a45760006114b2565b6005546114b2908590614608565b90506000838211156114c457836114c6565b815b905060008167ffffffffffffffff8111156114e3576114e3613a39565b60405190808252806020026020018201604052801561151657816020015b60608152602001906001900390816115015790505b50905060005b82811015610b7357600860006005611534848b61461b565b8154811061154457611544614572565b906000526020600020015481526020019081526020016000208054611568906143c5565b80601f0160208091040260200160405190810160405280929190818152602001828054611594906143c5565b80156115e15780601f106115b6576101008083540402835291602001916115e1565b820191906000526020600020905b8154815290600101906020018083116115c457829003601f168201915b50505050508282815181106115f8576115f8614572565b6020026020010181905250808061160e906145d0565b91505061151c565b6116427fc9fc9949603a50f5cc3a96f774f1d68287789a241d2082dc81d0fb19a53bcf2b6104a6611b2c565b8061167457506116747fc9eb32e43bf5ecbceacf00b32281dfc5d6d700a0db676ea26ccf938a385ac3f76104a6611b2c565b6116da576040517f08c379a000000000000000000000000000000000000000000000000000000000815260206004820152601760248201527f4e6f7420617574686f72697a656420746f206d696e742e00000000000000000060448201526064016106f8565b610c83838383604051806020016040528060008152506129bd565b60055460609060009067ffffffffffffffff81111561171657611716613a39565b60405190808252806020026020018201604052801561174957816020015b60608152602001906001900390816117345790505b50905060005b60055481101561088f57600860006005838154811061177057611770614572565b906000526020600020015481526020019081526020016000208054611794906143c5565b80601f01602080910402602001604051908101604052809291908181526020018280546117c0906143c5565b801561180d5780601f106117e25761010080835404028352916020019161180d565b820191906000526020600020905b8154815290600101906020018083116117f057829003601f168201915b505050505082828151811061182457611824614572565b6020026020010181905250808061183a906145d0565b91505061174f565b61184a611b2c565b73ffffffffffffffffffffffffffffffffffffffff168573ffffffffffffffffffffffffffffffffffffffff16148061188a575061188a856105e1611b2c565b611916576040517f08c379a000000000000000000000000000000000000000000000000000000000815260206004820152602f60248201527f455243313135353a2063616c6c6572206973206e6f7420746f6b656e206f776e60448201527f6572206e6f7220617070726f766564000000000000000000000000000000000060648201526084016106f8565b6109d58585858585612b3f565b60055460609060009067ffffffffffffffff81111561194457611944613a39565b60405190808252806020026020018201604052801561197757816020015b60608152602001906001900390816119625790505b50905060005b600554811015611a5d57604080516002808252606082018352600092602083019080368337019050509050600582815481106119bb576119bb614572565b9060005260206000200154816000815181106119d9576119d9614572565b602002602001018181525050611a0c85600584815481106119fc576119fc614572565b9060005260206000200154610657565b81600181518110611a1f57611a1f614572565b60200260200101818152505080838381518110611a3e57611a3e614572565b6020026020010181905250508080611a55906145d0565b91505061197d565b5092915050565b60035460009073ffffffffffffffffffffffffffffffffffffffff163303611ab157507fffffffffffffffffffffffffffffffffffffffffffffffffffffffffffffffec36013560601c90565b503390565b905090565b90565b3390565b60007fffffffff0000000000000000000000000000000000000000000000000000000082167f7965db0b000000000000000000000000000000000000000000000000000000001480610731575061073182612d96565b611b2981611b24611b2c565b612e79565b50565b6000611ab6611a64565b73ffffffffffffffffffffffffffffffffffffffff8416611bd9576040517f08c379a000000000000000000000000000000000000000000000000000000000815260206004820152602160248201527f455243313135353a206d696e7420746f20746865207a65726f2061646472657360448201527f730000000000000000000000000000000000000000000000000000000000000060648201526084016106f8565b8151835114611c6a576040517f08c379a000000000000000000000000000000000000000000000000000000000815260206004820152602860248201527f455243313135353a2069647320616e6420616d6f756e7473206c656e6774682060448201527f6d69736d6174636800000000000000000000000000000000000000000000000060648201526084016106f8565b6000611c74611b2c565b9050611c8581600087878787612f4b565b60005b8451811015611d3a57838181518110611ca357611ca3614572565b6020026020010151600080878481518110611cc057611cc0614572565b6020026020010151815260200190815260200160002060008873ffffffffffffffffffffffffffffffffffffffff1673ffffffffffffffffffffffffffffffffffffffff1681526020019081526020016000206000828254611d22919061461b565b90915550819050611d32816145d0565b915050611c88565b508473ffffffffffffffffffffffffffffffffffffffff16600073ffffffffffffffffffffffffffffffffffffffff168273ffffffffffffffffffffffffffffffffffffffff167f4a39dc06d4c0dbc64b70af90fd698a233a518aa5d07e595d983b8c0526c8f7fb8787604051611db292919061462e565b60405180910390a46109d5816000878787876132cf565b8151835114611e5a576040517f08c379a000000000000000000000000000000000000000000000000000000000815260206004820152602860248201527f455243313135353a2069647320616e6420616d6f756e7473206c656e6774682060448201527f6d69736d6174636800000000000000000000000000000000000000000000000060648201526084016106f8565b73ffffffffffffffffffffffffffffffffffffffff8416611efd576040517f08c379a000000000000000000000000000000000000000000000000000000000815260206004820152602560248201527f455243313135353a207472616e7366657220746f20746865207a65726f20616460448201527f647265737300000000000000000000000000000000000000000000000000000060648201526084016106f8565b6000611f07611b2c565b9050611f17818787878787612f4b565b60005b8451811015612087576000858281518110611f3757611f37614572565b602002602001015190506000858381518110611f5557611f55614572565b6020908102919091018101516000848152808352604080822073ffffffffffffffffffffffffffffffffffffffff8e168352909352919091205490915081811015612022576040517f08c379a000000000000000000000000000000000000000000000000000000000815260206004820152602a60248201527f455243313135353a20696e73756666696369656e742062616c616e636520666f60448201527f72207472616e736665720000000000000000000000000000000000000000000060648201526084016106f8565b60008381526020818152604080832073ffffffffffffffffffffffffffffffffffffffff8e8116855292528083208585039055908b1682528120805484929061206c90849061461b565b9250508190555050505080612080906145d0565b9050611f1a565b508473ffffffffffffffffffffffffffffffffffffffff168673ffffffffffffffffffffffffffffffffffffffff168273ffffffffffffffffffffffffffffffffffffffff167f4a39dc06d4c0dbc64b70af90fd698a233a518aa5d07e595d983b8c0526c8f7fb87876040516120fe92919061462e565b60405180910390a4610f0e8187878787876132cf565b600082815260046020908152604080832073ffffffffffffffffffffffffffffffffffffffff8516845290915290205460ff16610ded57600082815260046020908152604080832073ffffffffffffffffffffffffffffffffffffffff85168452909152902080547fffffffffffffffffffffffffffffffffffffffffffffffffffffffffffffff001660011790556121ab611b2c565b73ffffffffffffffffffffffffffffffffffffffff168173ffffffffffffffffffffffffffffffffffffffff16837f2f8788117e7eff1d82e926ec794901d17c78024a50270940304540a733656f0d60405160405180910390a45050565b600082815260046020908152604080832073ffffffffffffffffffffffffffffffffffffffff8516845290915290205460ff1615610ded57600082815260046020908152604080832073ffffffffffffffffffffffffffffffffffffffff85168452909152902080547fffffffffffffffffffffffffffffffffffffffffffffffffffffffffffffff0016905561229e611b2c565b73ffffffffffffffffffffffffffffffffffffffff168173ffffffffffffffffffffffffffffffffffffffff16837ff6391f5c32d9c69d2a47ea670b442974b53935d1edc7fd64eb21e047a839171b60405160405180910390a45050565b73ffffffffffffffffffffffffffffffffffffffff831661239f576040517f08c379a000000000000000000000000000000000000000000000000000000000815260206004820152602360248201527f455243313135353a206275726e2066726f6d20746865207a65726f206164647260448201527f657373000000000000000000000000000000000000000000000000000000000060648201526084016106f8565b8051825114612430576040517f08c379a000000000000000000000000000000000000000000000000000000000815260206004820152602860248201527f455243313135353a2069647320616e6420616d6f756e7473206c656e6774682060448201527f6d69736d6174636800000000000000000000000000000000000000000000000060648201526084016106f8565b600061243a611b2c565b905061245a81856000868660405180602001604052806000815250612f4b565b60005b83518110156125a857600084828151811061247a5761247a614572565b60200260200101519050600084838151811061249857612498614572565b6020908102919091018101516000848152808352604080822073ffffffffffffffffffffffffffffffffffffffff8c168352909352919091205490915081811015612564576040517f08c379a0000000000000000000000000000000000000000000000000000000008152602060048201526024808201527f455243313135353a206275726e20616d6f756e7420657863656564732062616c60448201527f616e63650000000000000000000000000000000000000000000000000000000060648201526084016106f8565b60009283526020838152604080852073ffffffffffffffffffffffffffffffffffffffff8b16865290915290922091039055806125a0816145d0565b91505061245d565b50600073ffffffffffffffffffffffffffffffffffffffff168473ffffffffffffffffffffffffffffffffffffffff168273ffffffffffffffffffffffffffffffffffffffff167f4a39dc06d4c0dbc64b70af90fd698a233a518aa5d07e595d983b8c0526c8f7fb868660405161262092919061462e565b60405180910390a46040805160208101909152600090526107cf565b8173ffffffffffffffffffffffffffffffffffffffff168373ffffffffffffffffffffffffffffffffffffffff16036126f7576040517f08c379a000000000000000000000000000000000000000000000000000000000815260206004820152602960248201527f455243313135353a2073657474696e6720617070726f76616c2073746174757360448201527f20666f722073656c66000000000000000000000000000000000000000000000060648201526084016106f8565b73ffffffffffffffffffffffffffffffffffffffff83811660008181526001602090815260408083209487168084529482529182902080547fffffffffffffffffffffffffffffffffffffffffffffffffffffffffffffff001686151590811790915591519182527f17307eab39ab6107e8899845ad3d59bd9653f200f220920489ca2b5937696c31910160405180910390a3505050565b73ffffffffffffffffffffffffffffffffffffffff8316612832576040517f08c379a000000000000000000000000000000000000000000000000000000000815260206004820152602360248201527f455243313135353a206275726e2066726f6d20746865207a65726f206164647260448201527f657373000000000000000000000000000000000000000000000000000000000060648201526084016106f8565b600061283c611b2c565b9050600061284984613559565b9050600061285684613559565b905061287683876000858560405180602001604052806000815250612f4b565b60008581526020818152604080832073ffffffffffffffffffffffffffffffffffffffff8a16845290915290205484811015612933576040517f08c379a0000000000000000000000000000000000000000000000000000000008152602060048201526024808201527f455243313135353a206275726e20616d6f756e7420657863656564732062616c60448201527f616e63650000000000000000000000000000000000000000000000000000000060648201526084016106f8565b60008681526020818152604080832073ffffffffffffffffffffffffffffffffffffffff8b81168086529184528285208a8703905582518b81529384018a90529092908816917fc3d58168c5ae7397731d063d5bbf3d657854427343f4c083240f7aacaa2d0f62910160405180910390a46040805160208101909152600090525b50505050505050565b73ffffffffffffffffffffffffffffffffffffffff8416612a60576040517f08c379a000000000000000000000000000000000000000000000000000000000815260206004820152602160248201527f455243313135353a206d696e7420746f20746865207a65726f2061646472657360448201527f730000000000000000000000000000000000000000000000000000000000000060648201526084016106f8565b6000612a6a611b2c565b90506000612a7785613559565b90506000612a8485613559565b9050612a9583600089858589612f4b565b60008681526020818152604080832073ffffffffffffffffffffffffffffffffffffffff8b16845290915281208054879290612ad290849061461b565b9091555050604080518781526020810187905273ffffffffffffffffffffffffffffffffffffffff808a1692600092918716917fc3d58168c5ae7397731d063d5bbf3d657854427343f4c083240f7aacaa2d0f62910160405180910390a46129b4836000898989896135a4565b73ffffffffffffffffffffffffffffffffffffffff8416612be2576040517f08c379a000000000000000000000000000000000000000000000000000000000815260206004820152602560248201527f455243313135353a207472616e7366657220746f20746865207a65726f20616460448201527f647265737300000000000000000000000000000000000000000000000000000060648201526084016106f8565b6000612bec611b2c565b90506000612bf985613559565b90506000612c0685613559565b9050612c16838989858589612f4b565b60008681526020818152604080832073ffffffffffffffffffffffffffffffffffffffff8c16845290915290205485811015612cd4576040517f08c379a000000000000000000000000000000000000000000000000000000000815260206004820152602a60248201527f455243313135353a20696e73756666696369656e742062616c616e636520666f60448201527f72207472616e736665720000000000000000000000000000000000000000000060648201526084016106f8565b60008781526020818152604080832073ffffffffffffffffffffffffffffffffffffffff8d8116855292528083208985039055908a16825281208054889290612d1e90849061461b565b9091555050604080518881526020810188905273ffffffffffffffffffffffffffffffffffffffff808b16928c821692918816917fc3d58168c5ae7397731d063d5bbf3d657854427343f4c083240f7aacaa2d0f62910160405180910390a4612d8b848a8a8a8a8a6135a4565b505050505050505050565b60007fffffffff0000000000000000000000000000000000000000000000000000000082167fd9b67a26000000000000000000000000000000000000000000000000000000001480612e2957507fffffffff0000000000000000000000000000000000000000000000000000000082167f0e89341c00000000000000000000000000000000000000000000000000000000145b8061073157507f01ffc9a7000000000000000000000000000000000000000000000000000000007fffffffff00000000000000000000000000000000000000000000000000000000831614610731565b600082815260046020908152604080832073ffffffffffffffffffffffffffffffffffffffff8516845290915290205460ff16610ded57612ed18173ffffffffffffffffffffffffffffffffffffffff166014613751565b612edc836020613751565b604051602001612eed92919061465c565b604080517fffffffffffffffffffffffffffffffffffffffffffffffffffffffffffffffe0818403018152908290527f08c379a00000000000000000000000000000000000000000000000000000000082526106f891600401613d2e565b60005b83518110156129b4576000848281518110612f6b57612f6b614572565b60200260200101519050612f8d81600090815260076020526040902054421190565b80612fac575073ffffffffffffffffffffffffffffffffffffffff8716155b80612ffb575073ffffffffffffffffffffffffffffffffffffffff871660009081527f0bd32db21b4e7a5c682cc92107b99c9dbb2d6d64a346752e11eb45bfb97567f5602052604090205460ff165b8061304a575073ffffffffffffffffffffffffffffffffffffffff871660009081527ff9fd1248c586affabc10fb0262dbbca2f7cedc4a81d738b33283f93d7668f836602052604090205460ff165b80613069575073ffffffffffffffffffffffffffffffffffffffff8616155b6130f5576040517f08c379a000000000000000000000000000000000000000000000000000000000815260206004820152602360248201527f4974656d206973206e6f742063757272656e746c79207472616e73666572616260448201527f6c652e000000000000000000000000000000000000000000000000000000000060648201526084016106f8565b73ffffffffffffffffffffffffffffffffffffffff871661319d57600081815260066020526040812054900361315b57600580546001810182556000919091527f036b6384b5eca791c62761152d0c79bb0604c104a5fb6f4eb0703f3154bb3db0018190555b83828151811061316d5761316d614572565b6020026020010151600660008381526020019081526020016000206000828254613197919061461b565b90915550505b73ffffffffffffffffffffffffffffffffffffffff86166132bc578382815181106131ca576131ca614572565b602002602001015160066000838152602001908152602001600020541015613274576040517f08c379a000000000000000000000000000000000000000000000000000000000815260206004820152602760248201527f455243313135353a206275726e20616d6f756e7420657863656564732069746560448201527f6d537570706c790000000000000000000000000000000000000000000000000060648201526084016106f8565b83828151811061328657613286614572565b602002602001015160066000838152602001908152602001600020546132ac9190614608565b6000828152600660205260409020555b50806132c7816145d0565b915050612f4e565b73ffffffffffffffffffffffffffffffffffffffff84163b15610f0e576040517fbc197c8100000000000000000000000000000000000000000000000000000000815273ffffffffffffffffffffffffffffffffffffffff85169063bc197c819061334690899089908890889088906004016146dd565b6020604051808303816000875af192505050801561339f575060408051601f3d9081017fffffffffffffffffffffffffffffffffffffffffffffffffffffffffffffffe016820190925261339c91810190614748565b60015b613488576133ab614765565b806308c379a0036133fe57506133bf614780565b806133ca5750613400565b806040517f08c379a00000000000000000000000000000000000000000000000000000000081526004016106f89190613d2e565b505b6040517f08c379a000000000000000000000000000000000000000000000000000000000815260206004820152603460248201527f455243313135353a207472616e7366657220746f206e6f6e204552433131353560448201527f526563656976657220696d706c656d656e74657200000000000000000000000060648201526084016106f8565b7fffffffff0000000000000000000000000000000000000000000000000000000081167fbc197c8100000000000000000000000000000000000000000000000000000000146129b4576040517f08c379a000000000000000000000000000000000000000000000000000000000815260206004820152602860248201527f455243313135353a204552433131353552656365697665722072656a6563746560448201527f6420746f6b656e7300000000000000000000000000000000000000000000000060648201526084016106f8565b6040805160018082528183019092526060916000919060208083019080368337019050509050828160008151811061359357613593614572565b602090810291909101015292915050565b73ffffffffffffffffffffffffffffffffffffffff84163b15610f0e576040517ff23a6e6100000000000000000000000000000000000000000000000000000000815273ffffffffffffffffffffffffffffffffffffffff85169063f23a6e619061361b9089908990889088908890600401614828565b6020604051808303816000875af1925050508015613674575060408051601f3d9081017fffffffffffffffffffffffffffffffffffffffffffffffffffffffffffffffe016820190925261367191810190614748565b60015b613680576133ab614765565b7fffffffff0000000000000000000000000000000000000000000000000000000081167ff23a6e6100000000000000000000000000000000000000000000000000000000146129b4576040517f08c379a000000000000000000000000000000000000000000000000000000000815260206004820152602860248201527f455243313135353a204552433131353552656365697665722072656a6563746560448201527f6420746f6b656e7300000000000000000000000000000000000000000000000060648201526084016106f8565b60606000613760836002614878565b61376b90600261461b565b67ffffffffffffffff81111561378357613783613a39565b6040519080825280601f01601f1916602001820160405280156137ad576020820181803683370190505b5090507f3000000000000000000000000000000000000000000000000000000000000000816000815181106137e4576137e4614572565b60200101907effffffffffffffffffffffffffffffffffffffffffffffffffffffffffffff1916908160001a9053507f78000000000000000000000000000000000000000000000000000000000000008160018151811061384757613847614572565b60200101907effffffffffffffffffffffffffffffffffffffffffffffffffffffffffffff1916908160001a9053506000613883846002614878565b61388e90600161461b565b90505b600181111561392b577f303132333435363738396162636465660000000000000000000000000000000085600f16601081106138cf576138cf614572565b1a60f81b8282815181106138e5576138e5614572565b60200101907effffffffffffffffffffffffffffffffffffffffffffffffffffffffffffff1916908160001a90535060049490941c93613924816148b5565b9050613891565b508315613994576040517f08c379a000000000000000000000000000000000000000000000000000000000815260206004820181905260248201527f537472696e67733a20686578206c656e67746820696e73756666696369656e7460448201526064016106f8565b9392505050565b803573ffffffffffffffffffffffffffffffffffffffff811681146139bf57600080fd5b919050565b600080604083850312156139d757600080fd5b6139e08361399b565b946020939093013593505050565b7fffffffff0000000000000000000000000000000000000000000000000000000081168114611b2957600080fd5b600060208284031215613a2e57600080fd5b8135613994816139ee565b7f4e487b7100000000000000000000000000000000000000000000000000000000600052604160045260246000fd5b7fffffffffffffffffffffffffffffffffffffffffffffffffffffffffffffffe0601f830116810181811067ffffffffffffffff82111715613aac57613aac613a39565b6040525050565b600082601f830112613ac457600080fd5b813567ffffffffffffffff811115613ade57613ade613a39565b604051613b1360207fffffffffffffffffffffffffffffffffffffffffffffffffffffffffffffffe0601f8501160182613a68565b818152846020838601011115613b2857600080fd5b816020850160208301376000918101602001919091529392505050565b60008060408385031215613b5857600080fd5b82359150602083013567ffffffffffffffff811115613b7657600080fd5b613b8285828601613ab3565b9150509250929050565b600081518084526020808501945080840160005b83811015613bbc57815187529582019590820190600101613ba0565b509495945050505050565b6020815260006139946020830184613b8c565b60008083601f840112613bec57600080fd5b50813567ffffffffffffffff811115613c0457600080fd5b6020830191508360208260051b8501011115613c1f57600080fd5b9250929050565b600080600080600060608688031215613c3e57600080fd5b613c478661399b565b9450602086013567ffffffffffffffff80821115613c6457600080fd5b613c7089838a01613bda565b90965094506040880135915080821115613c8957600080fd5b50613c9688828901613bda565b969995985093965092949392505050565b600060208284031215613cb957600080fd5b5035919050565b60005b83811015613cdb578181015183820152602001613cc3565b50506000910152565b60008151808452613cfc816020860160208601613cc0565b601f017fffffffffffffffffffffffffffffffffffffffffffffffffffffffffffffffe0169290920160200192915050565b6020815260006139946020830184613ce4565b60008060408385031215613d5457600080fd5b50508035926020909101359150565b600067ffffffffffffffff821115613d7d57613d7d613a39565b5060051b60200190565b600082601f830112613d9857600080fd5b81356020613da582613d63565b604051613db28282613a68565b83815260059390931b8501820192828101915086841115613dd257600080fd5b8286015b84811015613ded5780358352918301918301613dd6565b509695505050505050565b600080600080600060a08688031215613e1057600080fd5b613e198661399b565b9450613e276020870161399b565b9350604086013567ffffffffffffffff80821115613e4457600080fd5b613e5089838a01613d87565b94506060880135915080821115613e6657600080fd5b613e7289838a01613d87565b93506080880135915080821115613e8857600080fd5b50613e9588828901613ab3565b9150509295509295909350565b60008060408385031215613eb557600080fd5b82359150613ec56020840161399b565b90509250929050565b600080600060408486031215613ee357600080fd5b833567ffffffffffffffff80821115613efb57600080fd5b613f0787838801613bda565b9095509350602091508582013581811115613f2157600080fd5b8601601f81018813613f3257600080fd5b8035613f3d81613d63565b604051613f4a8282613a68565b82815260059290921b830185019185810191508a831115613f6a57600080fd5b8584015b83811015613fa257803586811115613f865760008081fd5b613f948d8983890101613ab3565b845250918601918601613f6e565b508096505050505050509250925092565b60008060408385031215613fc657600080fd5b823567ffffffffffffffff80821115613fde57600080fd5b818501915085601f830112613ff257600080fd5b81356020613fff82613d63565b60405161400c8282613a68565b83815260059390931b850182019282810191508984111561402c57600080fd5b948201945b83861015614051576140428661399b565b82529482019490820190614031565b9650508601359250508082111561406757600080fd5b50613b8285828601613d87565b60006020828403121561408657600080fd5b6139948261399b565b600080604083850312156140a257600080fd5b6140ab8361399b565b9150602083013580151581146140c057600080fd5b809150509250929050565b6000806000806000608086880312156140e357600080fd5b6140ec8661399b565b9450602086013567ffffffffffffffff81111561410857600080fd5b61411488828901613bda565b9699909850959660408101359660609091013595509350505050565b60008060008060008060006080888a03121561414b57600080fd5b6141548861399b565b9650602088013567ffffffffffffffff8082111561417157600080fd5b61417d8b838c01613bda565b909850965060408a013591508082111561419657600080fd5b6141a28b838c01613bda565b909650945060608a01359150808211156141bb57600080fd5b506141c88a828b01613bda565b989b979a50959850939692959293505050565b6000806000606084860312156141f057600080fd5b6141f98461399b565b95602085013595506040909401359392505050565b6000602080830181845280855180835260408601915060408160051b870101925083870160005b82811015614281577fffffffffffffffffffffffffffffffffffffffffffffffffffffffffffffffc088860301845261426f858351613ce4565b94509285019290850190600101614235565b5092979650505050505050565b600080604083850312156142a157600080fd5b6142aa8361399b565b9150613ec56020840161399b565b600080600080600060a086880312156142d057600080fd5b6142d98661399b565b94506142e76020870161399b565b93506040860135925060608601359150608086013567ffffffffffffffff81111561431157600080fd5b613e9588828901613ab3565b6000602080830181845280855180835260408601915060408160051b87010192508387016000805b838110156143b7578886037fffffffffffffffffffffffffffffffffffffffffffffffffffffffffffffffc0018552825180518088529088019088880190845b818110156143a15783518352928a0192918a0191600101614385565b5090975050509386019391860191600101614345565b509398975050505050505050565b600181811c908216806143d957607f821691505b60208210810361088f577f4e487b7100000000000000000000000000000000000000000000000000000000600052602260045260246000fd5b601f821115610c8357600081815260208120601f850160051c810160208610156144395750805b601f850160051c820191505b81811015610f0e57828155600101614445565b815167ffffffffffffffff81111561447257614472613a39565b6144868161448084546143c5565b84614412565b602080601f8311600181146144d957600084156144a35750858301515b7fffffffffffffffffffffffffffffffffffffffffffffffffffffffffffffffff600386901b1c1916600185901b178555610f0e565b6000858152602081207fffffffffffffffffffffffffffffffffffffffffffffffffffffffffffffffe08616915b8281101561452657888601518255948401946001909101908401614507565b508582101561456257878501517fffffffffffffffffffffffffffffffffffffffffffffffffffffffffffffffff600388901b60f8161c191681555b5050505050600190811b01905550565b7f4e487b7100000000000000000000000000000000000000000000000000000000600052603260045260246000fd5b7f4e487b7100000000000000000000000000000000000000000000000000000000600052601160045260246000fd5b60007fffffffffffffffffffffffffffffffffffffffffffffffffffffffffffffffff8203614601576146016145a1565b5060010190565b81810381811115610731576107316145a1565b80820180821115610731576107316145a1565b6040815260006146416040830185613b8c565b82810360208401526146538185613b8c565b95945050505050565b7f416363657373436f6e74726f6c3a206163636f756e7420000000000000000000815260008351614694816017850160208801613cc0565b7f206973206d697373696e6720726f6c652000000000000000000000000000000060179184019182015283516146d1816028840160208801613cc0565b01602801949350505050565b600073ffffffffffffffffffffffffffffffffffffffff808816835280871660208401525060a0604083015261471660a0830186613b8c565b82810360608401526147288186613b8c565b9050828103608084015261473c8185613ce4565b98975050505050505050565b60006020828403121561475a57600080fd5b8151613994816139ee565b600060033d1115611abb5760046000803e5060005160e01c90565b600060443d101561478e5790565b6040517ffffffffffffffffffffffffffffffffffffffffffffffffffffffffffffffffc803d016004833e81513d67ffffffffffffffff81602484011181841117156147dc57505050505090565b82850191508151818111156147f45750505050505090565b843d870101602082850101111561480e5750505050505090565b61481d60208286010187613a68565b509095945050505050565b600073ffffffffffffffffffffffffffffffffffffffff808816835280871660208401525084604083015283606083015260a0608083015261486d60a0830184613ce4565b979650505050505050565b6000817fffffffffffffffffffffffffffffffffffffffffffffffffffffffffffffffff04831182151516156148b0576148b06145a1565b500290565b6000816148c4576148c46145a1565b507fffffffffffffffffffffffffffffffffffffffffffffffffffffffffffffffff019056fea26469706673582212208034c867c1cf7d89213e6840b7f08ee9b24b064965cb1608f67704bca5318e6264736f6c63430008100033",
  "linkReferences": {},
  "deployedLinkReferences": {}
}